{
  "contractName": "AaveLiquidate",
  "abi": [
    {
      "anonymous": false,
      "inputs": [
        {
          "indexed": true,
          "internalType": "address",
          "name": "previousOwner",
          "type": "address"
        },
        {
          "indexed": true,
          "internalType": "address",
          "name": "newOwner",
          "type": "address"
        }
      ],
      "name": "OwnershipTransferred",
      "type": "event"
    },
    {
      "constant": true,
      "inputs": [],
      "name": "BAT",
      "outputs": [
        {
          "internalType": "address",
          "name": "",
          "type": "address"
        }
      ],
      "payable": false,
      "stateMutability": "view",
      "type": "function"
    },
    {
      "constant": true,
      "inputs": [],
      "name": "DAI",
      "outputs": [
        {
          "internalType": "address",
          "name": "",
          "type": "address"
        }
      ],
      "payable": false,
      "stateMutability": "view",
      "type": "function"
    },
    {
      "constant": true,
      "inputs": [],
      "name": "ETH",
      "outputs": [
        {
          "internalType": "address",
          "name": "",
          "type": "address"
        }
      ],
      "payable": false,
      "stateMutability": "view",
      "type": "function"
    },
    {
      "constant": true,
      "inputs": [],
      "name": "KNC",
      "outputs": [
        {
          "internalType": "address",
          "name": "",
          "type": "address"
        }
      ],
      "payable": false,
      "stateMutability": "view",
      "type": "function"
    },
    {
      "constant": true,
      "inputs": [],
      "name": "LEND",
      "outputs": [
        {
          "internalType": "address",
          "name": "",
          "type": "address"
        }
      ],
      "payable": false,
      "stateMutability": "view",
      "type": "function"
    },
    {
      "constant": true,
      "inputs": [],
      "name": "LINK",
      "outputs": [
        {
          "internalType": "address",
          "name": "",
          "type": "address"
        }
      ],
      "payable": false,
      "stateMutability": "view",
      "type": "function"
    },
    {
      "constant": true,
      "inputs": [],
      "name": "MANA",
      "outputs": [
        {
          "internalType": "address",
          "name": "",
          "type": "address"
        }
      ],
      "payable": false,
      "stateMutability": "view",
      "type": "function"
    },
    {
      "constant": true,
      "inputs": [],
      "name": "MKR",
      "outputs": [
        {
          "internalType": "address",
          "name": "",
          "type": "address"
        }
      ],
      "payable": false,
      "stateMutability": "view",
      "type": "function"
    },
    {
      "constant": true,
      "inputs": [],
      "name": "REP",
      "outputs": [
        {
          "internalType": "address",
          "name": "",
          "type": "address"
        }
      ],
      "payable": false,
      "stateMutability": "view",
      "type": "function"
    },
    {
      "constant": true,
      "inputs": [],
      "name": "SNX",
      "outputs": [
        {
          "internalType": "address",
          "name": "",
          "type": "address"
        }
      ],
      "payable": false,
      "stateMutability": "view",
      "type": "function"
    },
    {
      "constant": true,
      "inputs": [],
      "name": "SUSD",
      "outputs": [
        {
          "internalType": "address",
          "name": "",
          "type": "address"
        }
      ],
      "payable": false,
      "stateMutability": "view",
      "type": "function"
    },
    {
      "constant": true,
      "inputs": [],
      "name": "TUSD",
      "outputs": [
        {
          "internalType": "address",
          "name": "",
          "type": "address"
        }
      ],
      "payable": false,
      "stateMutability": "view",
      "type": "function"
    },
    {
      "constant": true,
      "inputs": [],
      "name": "USDC",
      "outputs": [
        {
          "internalType": "address",
          "name": "",
          "type": "address"
        }
      ],
      "payable": false,
      "stateMutability": "view",
      "type": "function"
    },
    {
      "constant": true,
      "inputs": [],
      "name": "USDT",
      "outputs": [
        {
          "internalType": "address",
          "name": "",
          "type": "address"
        }
      ],
      "payable": false,
      "stateMutability": "view",
      "type": "function"
    },
    {
      "constant": true,
      "inputs": [],
      "name": "WBTC",
      "outputs": [
        {
          "internalType": "address",
          "name": "",
          "type": "address"
        }
      ],
      "payable": false,
      "stateMutability": "view",
      "type": "function"
    },
    {
      "constant": true,
      "inputs": [],
      "name": "ZRX",
      "outputs": [
        {
          "internalType": "address",
          "name": "",
          "type": "address"
        }
      ],
      "payable": false,
      "stateMutability": "view",
      "type": "function"
    },
    {
      "constant": true,
      "inputs": [],
      "name": "_user",
      "outputs": [
        {
          "internalType": "address",
          "name": "",
          "type": "address"
        }
      ],
      "payable": false,
      "stateMutability": "view",
      "type": "function"
    },
    {
      "constant": true,
      "inputs": [],
      "name": "aBAT",
      "outputs": [
        {
          "internalType": "address",
          "name": "",
          "type": "address"
        }
      ],
      "payable": false,
      "stateMutability": "view",
      "type": "function"
    },
    {
      "constant": true,
      "inputs": [],
      "name": "aDAI",
      "outputs": [
        {
          "internalType": "address",
          "name": "",
          "type": "address"
        }
      ],
      "payable": false,
      "stateMutability": "view",
      "type": "function"
    },
    {
      "constant": true,
      "inputs": [],
      "name": "aETH",
      "outputs": [
        {
          "internalType": "address",
          "name": "",
          "type": "address"
        }
      ],
      "payable": false,
      "stateMutability": "view",
      "type": "function"
    },
    {
      "constant": true,
      "inputs": [],
      "name": "aKNC",
      "outputs": [
        {
          "internalType": "address",
          "name": "",
          "type": "address"
        }
      ],
      "payable": false,
      "stateMutability": "view",
      "type": "function"
    },
    {
      "constant": true,
      "inputs": [],
      "name": "aLEND",
      "outputs": [
        {
          "internalType": "address",
          "name": "",
          "type": "address"
        }
      ],
      "payable": false,
      "stateMutability": "view",
      "type": "function"
    },
    {
      "constant": true,
      "inputs": [],
      "name": "aLINK",
      "outputs": [
        {
          "internalType": "address",
          "name": "",
          "type": "address"
        }
      ],
      "payable": false,
      "stateMutability": "view",
      "type": "function"
    },
    {
      "constant": true,
      "inputs": [],
      "name": "aMANA",
      "outputs": [
        {
          "internalType": "address",
          "name": "",
          "type": "address"
        }
      ],
      "payable": false,
      "stateMutability": "view",
      "type": "function"
    },
    {
      "constant": true,
      "inputs": [],
      "name": "aMKR",
      "outputs": [
        {
          "internalType": "address",
          "name": "",
          "type": "address"
        }
      ],
      "payable": false,
      "stateMutability": "view",
      "type": "function"
    },
    {
      "constant": true,
      "inputs": [],
      "name": "aREP",
      "outputs": [
        {
          "internalType": "address",
          "name": "",
          "type": "address"
        }
      ],
      "payable": false,
      "stateMutability": "view",
      "type": "function"
    },
    {
      "constant": true,
      "inputs": [],
      "name": "aSNX",
      "outputs": [
        {
          "internalType": "address",
          "name": "",
          "type": "address"
        }
      ],
      "payable": false,
      "stateMutability": "view",
      "type": "function"
    },
    {
      "constant": true,
      "inputs": [],
      "name": "aSUSD",
      "outputs": [
        {
          "internalType": "address",
          "name": "",
          "type": "address"
        }
      ],
      "payable": false,
      "stateMutability": "view",
      "type": "function"
    },
    {
      "constant": true,
      "inputs": [],
      "name": "aTUSD",
      "outputs": [
        {
          "internalType": "address",
          "name": "",
          "type": "address"
        }
      ],
      "payable": false,
      "stateMutability": "view",
      "type": "function"
    },
    {
      "constant": true,
      "inputs": [],
      "name": "aUSDC",
      "outputs": [
        {
          "internalType": "address",
          "name": "",
          "type": "address"
        }
      ],
      "payable": false,
      "stateMutability": "view",
      "type": "function"
    },
    {
      "constant": true,
      "inputs": [],
      "name": "aUSDT",
      "outputs": [
        {
          "internalType": "address",
          "name": "",
          "type": "address"
        }
      ],
      "payable": false,
      "stateMutability": "view",
      "type": "function"
    },
    {
      "constant": true,
      "inputs": [],
      "name": "aWBTC",
      "outputs": [
        {
          "internalType": "address",
          "name": "",
          "type": "address"
        }
      ],
      "payable": false,
      "stateMutability": "view",
      "type": "function"
    },
    {
      "constant": true,
      "inputs": [],
      "name": "aZRX",
      "outputs": [
        {
          "internalType": "address",
          "name": "",
          "type": "address"
        }
      ],
      "payable": false,
      "stateMutability": "view",
      "type": "function"
    },
    {
      "constant": true,
      "inputs": [],
      "name": "aave",
      "outputs": [
        {
          "internalType": "address",
          "name": "",
          "type": "address"
        }
      ],
      "payable": false,
      "stateMutability": "view",
      "type": "function"
    },
    {
      "constant": true,
      "inputs": [
        {
          "internalType": "uint256",
          "name": "",
          "type": "uint256"
        }
      ],
      "name": "aaves",
      "outputs": [
        {
          "internalType": "address",
          "name": "",
          "type": "address"
        }
      ],
      "payable": false,
      "stateMutability": "view",
      "type": "function"
    },
    {
      "constant": true,
      "inputs": [],
      "name": "core",
      "outputs": [
        {
          "internalType": "address",
          "name": "",
          "type": "address"
        }
      ],
      "payable": false,
      "stateMutability": "view",
      "type": "function"
    },
    {
      "constant": true,
      "inputs": [],
      "name": "dydx",
      "outputs": [
        {
          "internalType": "address",
          "name": "",
          "type": "address"
        }
      ],
      "payable": false,
      "stateMutability": "view",
      "type": "function"
    },
    {
      "constant": true,
      "inputs": [],
      "name": "isOwner",
      "outputs": [
        {
          "internalType": "bool",
          "name": "",
          "type": "bool"
        }
      ],
      "payable": false,
      "stateMutability": "view",
      "type": "function"
    },
    {
      "constant": true,
      "inputs": [],
      "name": "lBAT",
      "outputs": [
        {
          "internalType": "address",
          "name": "",
          "type": "address"
        }
      ],
      "payable": false,
      "stateMutability": "view",
      "type": "function"
    },
    {
      "constant": true,
      "inputs": [],
      "name": "lDAI",
      "outputs": [
        {
          "internalType": "address",
          "name": "",
          "type": "address"
        }
      ],
      "payable": false,
      "stateMutability": "view",
      "type": "function"
    },
    {
      "constant": true,
      "inputs": [],
      "name": "lETH",
      "outputs": [
        {
          "internalType": "address",
          "name": "",
          "type": "address"
        }
      ],
      "payable": false,
      "stateMutability": "view",
      "type": "function"
    },
    {
      "constant": true,
      "inputs": [],
      "name": "lKNC",
      "outputs": [
        {
          "internalType": "address",
          "name": "",
          "type": "address"
        }
      ],
      "payable": false,
      "stateMutability": "view",
      "type": "function"
    },
    {
      "constant": true,
      "inputs": [],
      "name": "lLEND",
      "outputs": [
        {
          "internalType": "address",
          "name": "",
          "type": "address"
        }
      ],
      "payable": false,
      "stateMutability": "view",
      "type": "function"
    },
    {
      "constant": true,
      "inputs": [],
      "name": "lLINK",
      "outputs": [
        {
          "internalType": "address",
          "name": "",
          "type": "address"
        }
      ],
      "payable": false,
      "stateMutability": "view",
      "type": "function"
    },
    {
      "constant": true,
      "inputs": [],
      "name": "lMANA",
      "outputs": [
        {
          "internalType": "address",
          "name": "",
          "type": "address"
        }
      ],
      "payable": false,
      "stateMutability": "view",
      "type": "function"
    },
    {
      "constant": true,
      "inputs": [],
      "name": "lMKR",
      "outputs": [
        {
          "internalType": "address",
          "name": "",
          "type": "address"
        }
      ],
      "payable": false,
      "stateMutability": "view",
      "type": "function"
    },
    {
      "constant": true,
      "inputs": [],
      "name": "lREP",
      "outputs": [
        {
          "internalType": "address",
          "name": "",
          "type": "address"
        }
      ],
      "payable": false,
      "stateMutability": "view",
      "type": "function"
    },
    {
      "constant": true,
      "inputs": [],
      "name": "lSNX",
      "outputs": [
        {
          "internalType": "address",
          "name": "",
          "type": "address"
        }
      ],
      "payable": false,
      "stateMutability": "view",
      "type": "function"
    },
    {
      "constant": true,
      "inputs": [],
      "name": "lSUSD",
      "outputs": [
        {
          "internalType": "address",
          "name": "",
          "type": "address"
        }
      ],
      "payable": false,
      "stateMutability": "view",
      "type": "function"
    },
    {
      "constant": true,
      "inputs": [],
      "name": "lTUSD",
      "outputs": [
        {
          "internalType": "address",
          "name": "",
          "type": "address"
        }
      ],
      "payable": false,
      "stateMutability": "view",
      "type": "function"
    },
    {
      "constant": true,
      "inputs": [],
      "name": "lUSDC",
      "outputs": [
        {
          "internalType": "address",
          "name": "",
          "type": "address"
        }
      ],
      "payable": false,
      "stateMutability": "view",
      "type": "function"
    },
    {
      "constant": true,
      "inputs": [],
      "name": "lUSDT",
      "outputs": [
        {
          "internalType": "address",
          "name": "",
          "type": "address"
        }
      ],
      "payable": false,
      "stateMutability": "view",
      "type": "function"
    },
    {
      "constant": true,
      "inputs": [],
      "name": "lWBTC",
      "outputs": [
        {
          "internalType": "address",
          "name": "",
          "type": "address"
        }
      ],
      "payable": false,
      "stateMutability": "view",
      "type": "function"
    },
    {
      "constant": true,
      "inputs": [],
      "name": "lZRX",
      "outputs": [
        {
          "internalType": "address",
          "name": "",
          "type": "address"
        }
      ],
      "payable": false,
      "stateMutability": "view",
      "type": "function"
    },
    {
      "constant": true,
      "inputs": [],
      "name": "one",
      "outputs": [
        {
          "internalType": "address",
          "name": "",
          "type": "address"
        }
      ],
      "payable": false,
      "stateMutability": "view",
      "type": "function"
    },
    {
      "constant": true,
      "inputs": [
        {
          "internalType": "uint256",
          "name": "",
          "type": "uint256"
        }
      ],
      "name": "oracles",
      "outputs": [
        {
          "internalType": "address",
          "name": "",
          "type": "address"
        }
      ],
      "payable": false,
      "stateMutability": "view",
      "type": "function"
    },
    {
      "constant": true,
      "inputs": [],
      "name": "owner",
      "outputs": [
        {
          "internalType": "address",
          "name": "",
          "type": "address"
        }
      ],
      "payable": false,
      "stateMutability": "view",
      "type": "function"
    },
    {
      "constant": false,
      "inputs": [],
      "name": "renounceOwnership",
      "outputs": [],
      "payable": false,
      "stateMutability": "nonpayable",
      "type": "function"
    },
    {
      "constant": true,
      "inputs": [
        {
          "internalType": "uint256",
          "name": "",
          "type": "uint256"
        }
      ],
      "name": "reserves",
      "outputs": [
        {
          "internalType": "address",
          "name": "",
          "type": "address"
        }
      ],
      "payable": false,
      "stateMutability": "view",
      "type": "function"
    },
    {
      "constant": false,
      "inputs": [
        {
          "internalType": "address",
          "name": "newOwner",
          "type": "address"
        }
      ],
      "name": "transferOwnership",
      "outputs": [],
      "payable": false,
      "stateMutability": "nonpayable",
      "type": "function"
    },
    {
      "constant": true,
      "inputs": [
        {
          "internalType": "address",
          "name": "_reserve",
          "type": "address"
        }
      ],
      "name": "getIndex",
      "outputs": [
        {
          "internalType": "uint256",
          "name": "",
          "type": "uint256"
        }
      ],
      "payable": false,
      "stateMutability": "pure",
      "type": "function"
    },
    {
      "constant": true,
      "inputs": [
        {
          "internalType": "address",
          "name": "_user",
          "type": "address"
        }
      ],
      "name": "getMaxDebt",
      "outputs": [
        {
          "internalType": "address",
          "name": "_reserve",
          "type": "address"
        },
        {
          "internalType": "uint256",
          "name": "_amount",
          "type": "uint256"
        }
      ],
      "payable": false,
      "stateMutability": "view",
      "type": "function"
    },
    {
      "constant": true,
      "inputs": [
        {
          "internalType": "address",
          "name": "_reserve",
          "type": "address"
        },
        {
          "internalType": "address",
          "name": "_user",
          "type": "address"
        }
      ],
      "name": "getDebt",
      "outputs": [
        {
          "internalType": "uint256",
          "name": "",
          "type": "uint256"
        }
      ],
      "payable": false,
      "stateMutability": "view",
      "type": "function"
    },
    {
      "constant": true,
      "inputs": [
        {
          "internalType": "address",
          "name": "_user",
          "type": "address"
        }
      ],
      "name": "getMaxCollateral",
      "outputs": [
        {
          "internalType": "address",
          "name": "_reserve",
          "type": "address"
        },
        {
          "internalType": "uint256",
          "name": "_amount",
          "type": "uint256"
        }
      ],
      "payable": false,
      "stateMutability": "view",
      "type": "function"
    },
    {
      "constant": true,
      "inputs": [
        {
          "internalType": "address",
          "name": "_reserve",
          "type": "address"
        },
        {
          "internalType": "address",
          "name": "_user",
          "type": "address"
        },
        {
          "internalType": "uint256",
          "name": "_dec",
          "type": "uint256"
        }
      ],
      "name": "getCollateral",
      "outputs": [
        {
          "internalType": "uint256",
          "name": "",
          "type": "uint256"
        }
      ],
      "payable": false,
      "stateMutability": "view",
      "type": "function"
    },
    {
      "constant": true,
      "inputs": [
        {
          "internalType": "address",
          "name": "_reserve",
          "type": "address"
        },
        {
          "internalType": "address",
          "name": "_user",
          "type": "address"
        }
      ],
      "name": "getCollateralToLiquidate",
      "outputs": [
        {
          "internalType": "uint256",
          "name": "",
          "type": "uint256"
        }
      ],
      "payable": false,
      "stateMutability": "view",
      "type": "function"
    },
    {
      "constant": true,
      "inputs": [
        {
          "internalType": "address",
          "name": "_reserve",
          "type": "address"
        }
      ],
      "name": "getPrice",
      "outputs": [
        {
          "internalType": "uint256",
          "name": "",
          "type": "uint256"
        }
      ],
      "payable": false,
      "stateMutability": "view",
      "type": "function"
    },
    {
      "constant": false,
      "inputs": [
        {
          "internalType": "address",
          "name": "sender",
          "type": "address"
        },
        {
          "components": [
            {
              "internalType": "address",
              "name": "owner",
              "type": "address"
            },
            {
              "internalType": "uint256",
              "name": "number",
              "type": "uint256"
            }
          ],
          "internalType": "struct Structs.Info",
          "name": "accountInfo",
          "type": "tuple"
        },
        {
          "internalType": "bytes",
          "name": "data",
          "type": "bytes"
        }
      ],
      "name": "callFunction",
      "outputs": [],
      "payable": false,
      "stateMutability": "nonpayable",
      "type": "function"
    },
    {
      "constant": false,
      "inputs": [
        {
          "internalType": "address",
          "name": "_victim",
          "type": "address"
        }
      ],
      "name": "liquidate",
      "outputs": [],
      "payable": false,
      "stateMutability": "nonpayable",
      "type": "function"
    },
    {
      "constant": false,
      "inputs": [
        {
          "internalType": "address",
          "name": "_collateral",
          "type": "address"
        },
        {
          "internalType": "address",
          "name": "_reserve",
          "type": "address"
        }
      ],
      "name": "liquidate",
      "outputs": [],
      "payable": false,
      "stateMutability": "nonpayable",
      "type": "function"
    },
    {
      "constant": false,
      "inputs": [
        {
          "internalType": "contract IERC20",
          "name": "_TokenAddress",
          "type": "address"
        }
      ],
      "name": "inCaseTokenGetsStuck",
      "outputs": [],
      "payable": false,
      "stateMutability": "nonpayable",
      "type": "function"
    },
    {
      "constant": false,
      "inputs": [],
      "name": "inCaseETHGetsStuck",
      "outputs": [],
      "payable": false,
      "stateMutability": "nonpayable",
      "type": "function"
    }
  ],
  "bytecode": "0x6080604052604051806102000160405280733a3a65aab0dd2a17e3f1947ba16138cd37d08c0473ffffffffffffffffffffffffffffffffffffffff1673ffffffffffffffffffffffffffffffffffffffff16815260200173fc1e690f61efd961294b3e1ce3313fbd8aa4f85d73ffffffffffffffffffffffffffffffffffffffff1673ffffffffffffffffffffffffffffffffffffffff168152602001739ba00d6856a4edf4665bca2c2309936572473b7e73ffffffffffffffffffffffffffffffffffffffff1673ffffffffffffffffffffffffffffffffffffffff16815260200173625ae63000f46200499120b906716420bd05924073ffffffffffffffffffffffffffffffffffffffff1673ffffffffffffffffffffffffffffffffffffffff168152602001734da9b813057d04baef4e5800e36083717b4a034173ffffffffffffffffffffffffffffffffffffffff1673ffffffffffffffffffffffffffffffffffffffff1681526020017371fc860f7d3a592a4a98740e39db31d25db65ae873ffffffffffffffffffffffffffffffffffffffff1673ffffffffffffffffffffffffffffffffffffffff16815260200173e1ba0fb44ccb0d11b80f92f4f8ed94ca3ff51d0073ffffffffffffffffffffffffffffffffffffffff1673ffffffffffffffffffffffffffffffffffffffff168152602001739d91be44c06d373a8a226e1f3b146956083803eb73ffffffffffffffffffffffffffffffffffffffff1673ffffffffffffffffffffffffffffffffffffffff168152602001737d2d3688df45ce7c552e19c27e007673da9204b873ffffffffffffffffffffffffffffffffffffffff1673ffffffffffffffffffffffffffffffffffffffff16815260200173a64bd6c70cb9051f6a9ba1f163fdc07e0dfb5f8473ffffffffffffffffffffffffffffffffffffffff1673ffffffffffffffffffffffffffffffffffffffff168152602001736fce4a401b6b80ace52baaefe4421bd188e76f6f73ffffffffffffffffffffffffffffffffffffffff1673ffffffffffffffffffffffffffffffffffffffff168152602001737deb5e830be29f91e298ba5ff1356bb7f814699873ffffffffffffffffffffffffffffffffffffffff1673ffffffffffffffffffffffffffffffffffffffff1681526020017371010a9d003445ac60c4e6a7017c1e89a477b43873ffffffffffffffffffffffffffffffffffffffff1673ffffffffffffffffffffffffffffffffffffffff16815260200173328c4c80bc7aca0834db37e6600a6c49e12da4de73ffffffffffffffffffffffffffffffffffffffff1673ffffffffffffffffffffffffffffffffffffffff16815260200173fc4b8ed459e00e5400be803a9bb3954234fd50e373ffffffffffffffffffffffffffffffffffffffff1673ffffffffffffffffffffffffffffffffffffffff168152602001736fb0855c404e09c47c3fbca25f08d4e41f9f062f73ffffffffffffffffffffffffffffffffffffffff1673ffffffffffffffffffffffffffffffffffffffff1681525060029060106200048092919062000e59565b5060405180610200016040528073eeeeeeeeeeeeeeeeeeeeeeeeeeeeeeeeeeeeeeee73ffffffffffffffffffffffffffffffffffffffff1673ffffffffffffffffffffffffffffffffffffffff168152602001736b175474e89094c44da98b954eedeac495271d0f73ffffffffffffffffffffffffffffffffffffffff1673ffffffffffffffffffffffffffffffffffffffff16815260200173a0b86991c6218b36c1d19d4a2e9eb0ce3606eb4873ffffffffffffffffffffffffffffffffffffffff1673ffffffffffffffffffffffffffffffffffffffff1681526020017357ab1ec28d129707052df4df418d58a2d46d5f5173ffffffffffffffffffffffffffffffffffffffff1673ffffffffffffffffffffffffffffffffffffffff1681526020016e085d4780b73119b644ae5ecd22b37673ffffffffffffffffffffffffffffffffffffffff1673ffffffffffffffffffffffffffffffffffffffff16815260200173dac17f958d2ee523a2206206994597c13d831ec773ffffffffffffffffffffffffffffffffffffffff1673ffffffffffffffffffffffffffffffffffffffff168152602001730d8775f648430679a709e98d2b0cb6250d2887ef73ffffffffffffffffffffffffffffffffffffffff1673ffffffffffffffffffffffffffffffffffffffff16815260200173dd974d5c2e2928dea5f71b9825b8b646686bd20073ffffffffffffffffffffffffffffffffffffffff1673ffffffffffffffffffffffffffffffffffffffff1681526020017380fb784b7ed66730e8b1dbd9820afd29931aab0373ffffffffffffffffffffffffffffffffffffffff1673ffffffffffffffffffffffffffffffffffffffff16815260200173514910771af9ca656af840dff83e8264ecf986ca73ffffffffffffffffffffffffffffffffffffffff1673ffffffffffffffffffffffffffffffffffffffff168152602001730f5d2fb29fb7d3cfee444a200298f468908cc94273ffffffffffffffffffffffffffffffffffffffff1673ffffffffffffffffffffffffffffffffffffffff168152602001739f8f72aa9304c8b593d555f12ef6589cc3a579a273ffffffffffffffffffffffffffffffffffffffff1673ffffffffffffffffffffffffffffffffffffffff168152602001731985365e9f78359a9b6ad760e32412f4a445e86273ffffffffffffffffffffffffffffffffffffffff1673ffffffffffffffffffffffffffffffffffffffff16815260200173c011a73ee8576fb46f5e1c5751ca3b9fe0af2a6f73ffffffffffffffffffffffffffffffffffffffff1673ffffffffffffffffffffffffffffffffffffffff168152602001732260fac5e5542a773aa44fbcfedf7c193bc2c59973ffffffffffffffffffffffffffffffffffffffff1673ffffffffffffffffffffffffffffffffffffffff16815260200173e41d2489571d322189246dafa5ebde1f4699f49873ffffffffffffffffffffffffffffffffffffffff1673ffffffffffffffffffffffffffffffffffffffff168152506012906010620008f892919062000e59565b506040518061020001604052807379febf6b9f76853edbcbc913e6aae8232cfb9de973ffffffffffffffffffffffffffffffffffffffff1673ffffffffffffffffffffffffffffffffffffffff16815260200173037e8f2125bf532f3e228991e051c8a7253b642c73ffffffffffffffffffffffffffffffffffffffff1673ffffffffffffffffffffffffffffffffffffffff16815260200173de54467873c3bcaa76421061036053e37172170873ffffffffffffffffffffffffffffffffffffffff1673ffffffffffffffffffffffffffffffffffffffff168152602001736d626ff97f0e89f6f983de425dc5b24a18de26ea73ffffffffffffffffffffffffffffffffffffffff1673ffffffffffffffffffffffffffffffffffffffff1681526020017373ead35fd6a572ef763b13be65a9db96f764357773ffffffffffffffffffffffffffffffffffffffff1673ffffffffffffffffffffffffffffffffffffffff16815260200173a874fe207df445ff19e7482c746c4d3fd0cb9ace73ffffffffffffffffffffffffffffffffffffffff1673ffffffffffffffffffffffffffffffffffffffff168152602001739b4e2579895efa2b4765063310dc4109a764112973ffffffffffffffffffffffffffffffffffffffff1673ffffffffffffffffffffffffffffffffffffffff16815260200173d0e785973390ff8e77a83961efdb4f271e6b815273ffffffffffffffffffffffffffffffffffffffff1673ffffffffffffffffffffffffffffffffffffffff168152602001731eeaf25f2ecbcaf204ecadc8db7b0db9da84532773ffffffffffffffffffffffffffffffffffffffff1673ffffffffffffffffffffffffffffffffffffffff16815260200173ecfa53a8bda4f0c4dd39c55cc8def3757acfdd0773ffffffffffffffffffffffffffffffffffffffff1673ffffffffffffffffffffffffffffffffffffffff16815260200173c89c4ed8f52bb17314022f6c0dcb26210c905c9773ffffffffffffffffffffffffffffffffffffffff1673ffffffffffffffffffffffffffffffffffffffff16815260200173da3d675d50ff6c555973c4f0424964e1f6a4e7d373ffffffffffffffffffffffffffffffffffffffff1673ffffffffffffffffffffffffffffffffffffffff16815260200173b8b513d9cf440c1b6f5c7142120d611c94fc220c73ffffffffffffffffffffffffffffffffffffffff1673ffffffffffffffffffffffffffffffffffffffff16815260200173e23d1142de4e83c08bb048bcab54d5090739082873ffffffffffffffffffffffffffffffffffffffff1673ffffffffffffffffffffffffffffffffffffffff168152602001730133aa47b6197d0ba090bf2cd96626eb71ffd13c73ffffffffffffffffffffffffffffffffffffffff1673ffffffffffffffffffffffffffffffffffffffff16815260200173a0f9d94f060836756ffc84db4c78d097ca8c23e873ffffffffffffffffffffffffffffffffffffffff1673ffffffffffffffffffffffffffffffffffffffff16815250602290601062000d7592919062000e59565b50600160008190555062000d8e62000e5160201b60201c565b600160006101000a81548173ffffffffffffffffffffffffffffffffffffffff021916908373ffffffffffffffffffffffffffffffffffffffff160217905550600160009054906101000a900473ffffffffffffffffffffffffffffffffffffffff1673ffffffffffffffffffffffffffffffffffffffff16600073ffffffffffffffffffffffffffffffffffffffff167f8be0079c531659141344cd1fd0a4f28419497f9722a3daafe3b4186f6b6457e060405160405180910390a362000f21565b600033905090565b826010810192821562000ec8579160200282015b8281111562000ec75782518260006101000a81548173ffffffffffffffffffffffffffffffffffffffff021916908373ffffffffffffffffffffffffffffffffffffffff1602179055509160200191906001019062000e6d565b5b50905062000ed7919062000edb565b5090565b62000f1e91905b8082111562000f1a57600081816101000a81549073ffffffffffffffffffffffffffffffffffffffff02191690555060010162000ee2565b5090565b90565b614c3e8062000f316000396000f3fe608060405234801561001057600080fd5b50600436106104285760003560e01c8063901717d11161022b578063da1d890e11610130578063ec97fe53116100b8578063f2fde38b11610087578063f2fde38b14610c8e578063f301e78114610caa578063f4c4a56f14610cc8578063f59c663314610cf9578063f60a15ed14610d1757610428565b8063ec97fe5314610c16578063ecb4279514610c34578063f123d18b14610c52578063f2f4eb2614610c7057610428565b8063e2dbcb15116100ff578063e2dbcb1514610b80578063e4e555ee14610b9e578063e6fd7edf14610bbc578063e8d6101e14610bda578063e992d8d814610bf857610428565b8063da1d890e14610b08578063dbab4c2814610b26578063dfe5c89f14610b44578063e0bab4c414610b6257610428565b8063b615a616116101b3578063c9f014cc11610182578063c9f014cc14610a5f578063d0eb8ca414610a7d578063d1c9202a14610a9b578063d27375a314610acc578063d40fa8bf14610aea57610428565b8063b615a616146109e7578063b6a46fa714610a05578063c3e6026b14610a23578063c54e44eb14610a4157610428565b8063a229f09a116101fa578063a229f09a1461093f578063a3c9a47b1461095d578063a47e45391461097b578063b1d7e92914610999578063b31610db146109b757610428565b8063901717d1146108c757806390516a5a146108e557806392f63d2e14610903578063a1d032881461092157610428565b806351e86ad2116103315780638334278d116102b957806389a302711161028857806389a30271146108335780638b418713146108515780638da5cb5b1461086d5780638e4ec6ef1461088b5780638f32d59b146108a957610428565b80638334278d146107ab57806384393ab9146107db57806386b9d81f146107f9578063891e1ee01461081557610428565b8063715018a611610300578063715018a614610729578063792d02c414610733578063819faf7b146107515780638322fff21461076f5780638323550b1461078d57610428565b806351e86ad21461068d578063559fda33146106bd5780635b69a7d8146106db5780635b7ab8911461070b57610428565b806324b13098116103b45780633d31a4af116103835780633d31a4af146105d357806341976e09146105f157806342cf6d8b14610621578063498b5ae81461063f5780634dede3de1461066f57610428565b806324b130981461055f5780632587ab991461057d5780632e8d6e181461059b5780632f865568146105b757610428565b806319114cb0116103fb57806319114cb0146104b75780631a38a4fb146104d55780631b6b6d23146104f35780631ca922871461051157806322504b541461052f57610428565b8063062f67b21461042d57806314bf44b11461044b57806315d8eeba1461047b5780631872ddc414610499575b600080fd5b610435610d21565b604051610442919061456d565b60405180910390f35b61046560048036036104609190810190613ce4565b610d39565b604051610472919061456d565b60405180910390f35b610483610d6c565b604051610490919061456d565b60405180910390f35b6104a1610d84565b6040516104ae919061456d565b60405180910390f35b6104bf610d9c565b6040516104cc919061456d565b60405180910390f35b6104dd610db4565b6040516104ea919061456d565b60405180910390f35b6104fb610dcc565b604051610508919061456d565b60405180910390f35b610519610de4565b604051610526919061456d565b60405180910390f35b61054960048036036105449190810190613b77565b610dfc565b60405161055691906148e3565b60405180910390f35b610567610eb4565b604051610574919061456d565b60405180910390f35b610585610ecc565b604051610592919061456d565b60405180910390f35b6105b560048036036105b09190810190613c92565b610ee4565b005b6105d160048036036105cc9190810190613b4e565b610fe7565b005b6105db6116a8565b6040516105e8919061456d565b60405180910390f35b61060b60048036036106069190810190613b4e565b6116c0565b60405161061891906148e3565b60405180910390f35b61062961179d565b604051610636919061456d565b60405180910390f35b61065960048036036106549190810190613b77565b6117b5565b60405161066691906148e3565b60405180910390f35b61067761186d565b604051610684919061456d565b60405180910390f35b6106a760048036036106a29190810190613bb3565b611885565b6040516106b491906148e3565b60405180910390f35b6106c56119b9565b6040516106d2919061456d565b60405180910390f35b6106f560048036036106f09190810190613ce4565b6119d1565b604051610702919061456d565b60405180910390f35b610713611a04565b604051610720919061456d565b60405180910390f35b610731611a1c565b005b61073b611b24565b604051610748919061456d565b60405180910390f35b610759611b3c565b604051610766919061456d565b60405180910390f35b610777611b54565b604051610784919061456d565b60405180910390f35b610795611b6c565b6040516107a2919061456d565b60405180910390f35b6107c560048036036107c09190810190613ce4565b611b7f565b6040516107d2919061456d565b60405180910390f35b6107e3611bb2565b6040516107f0919061456d565b60405180910390f35b610813600480360361080e9190810190613b77565b611bca565b005b61081d611f22565b60405161082a919061456d565b60405180910390f35b61083b611f48565b604051610848919061456d565b60405180910390f35b61086b60048036036108669190810190613c02565b611f60565b005b6108756123a8565b604051610882919061456d565b60405180910390f35b6108936123d2565b6040516108a0919061456d565b60405180910390f35b6108b16123ea565b6040516108be9190614726565b60405180910390f35b6108cf612449565b6040516108dc919061456d565b60405180910390f35b6108ed612461565b6040516108fa919061456d565b60405180910390f35b61090b612479565b604051610918919061456d565b60405180910390f35b610929612491565b604051610936919061456d565b60405180910390f35b6109476124a9565b604051610954919061456d565b60405180910390f35b6109656124c1565b604051610972919061456d565b60405180910390f35b6109836124d9565b604051610990919061456d565b60405180910390f35b6109a16124f1565b6040516109ae919061456d565b60405180910390f35b6109d160048036036109cc9190810190613b4e565b612509565b6040516109de91906148e3565b60405180910390f35b6109ef612a1c565b6040516109fc919061456d565b60405180910390f35b610a0d612a34565b604051610a1a919061456d565b60405180910390f35b610a2b612a4c565b604051610a38919061456d565b60405180910390f35b610a49612a64565b604051610a56919061456d565b60405180910390f35b610a67612a7c565b604051610a74919061456d565b60405180910390f35b610a85612a94565b604051610a92919061456d565b60405180910390f35b610ab56004803603610ab09190810190613b4e565b612aac565b604051610ac39291906146c6565b60405180910390f35b610ad4612bf6565b604051610ae1919061456d565b60405180910390f35b610af2612c0e565b604051610aff919061456d565b60405180910390f35b610b10612c26565b604051610b1d919061456d565b60405180910390f35b610b2e612c3e565b604051610b3b919061456d565b60405180910390f35b610b4c612c56565b604051610b59919061456d565b60405180910390f35b610b6a612c6e565b604051610b77919061456d565b60405180910390f35b610b88612c86565b604051610b95919061456d565b60405180910390f35b610ba6612c9e565b604051610bb3919061456d565b60405180910390f35b610bc4612cb6565b604051610bd1919061456d565b60405180910390f35b610be2612cce565b604051610bef919061456d565b60405180910390f35b610c00612ce6565b604051610c0d919061456d565b60405180910390f35b610c1e612cfe565b604051610c2b919061456d565b60405180910390f35b610c3c612d16565b604051610c49919061456d565b60405180910390f35b610c5a612d2e565b604051610c67919061456d565b60405180910390f35b610c78612d46565b604051610c85919061456d565b60405180910390f35b610ca86004803603610ca39190810190613b4e565b612d5e565b005b610cb2612db1565b604051610cbf919061456d565b60405180910390f35b610ce26004803603610cdd9190810190613b4e565b612dc9565b604051610cf09291906146c6565b60405180910390f35b610d01613067565b604051610d0e919061456d565b60405180910390f35b610d1f61307f565b005b731985365e9f78359a9b6ad760e32412f4a445e86281565b60028160108110610d4657fe5b016000915054906101000a900473ffffffffffffffffffffffffffffffffffffffff1681565b7357ab1ec28d129707052df4df418d58a2d46d5f5181565b736d626ff97f0e89f6f983de425dc5b24a18de26ea81565b73e1ba0fb44ccb0d11b80f92f4f8ed94ca3ff51d0081565b73fc1e690f61efd961294b3e1ce3313fbd8aa4f85d81565b73514910771af9ca656af840dff83e8264ecf986ca81565b737deb5e830be29f91e298ba5ff1356bb7f814699881565b60008073398ec7346dcd622edc5ae82352f02be94c62d11973ffffffffffffffffffffffffffffffffffffffff166328dd2d0185856040518363ffffffff1660e01b8152600401610e4e929190614588565b6101406040518083038186803b158015610e6757600080fd5b505afa158015610e7b573d6000803e3d6000fd5b505050506040513d601f19601f82011682018060405250610e9f9190810190613d36565b50505050505050505090508091505092915050565b739d91be44c06d373a8a226e1f3b146956083803eb81565b73da3d675d50ff6c555973c4f0424964e1f6a4e7d381565b610eec6123ea565b610f2b576040517f08c379a0000000000000000000000000000000000000000000000000000000008152600401610f2290614823565b60405180910390fd5b60008173ffffffffffffffffffffffffffffffffffffffff166370a08231306040518263ffffffff1660e01b8152600401610f66919061456d565b60206040518083038186803b158015610f7e57600080fd5b505afa158015610f92573d6000803e3d6000fd5b505050506040513d601f19601f82011682018060405250610fb69190810190613d0d565b9050610fe333828473ffffffffffffffffffffffffffffffffffffffff1661318c9092919063ffffffff16565b5050565b60016000808282540192505081905550600080549050600061100883612dc9565b509050600073ffffffffffffffffffffffffffffffffffffffff168173ffffffffffffffffffffffffffffffffffffffff16141561107b576040517f08c379a0000000000000000000000000000000000000000000000000000000008152600401611072906148c3565b60405180910390fd5b82603260006101000a81548173ffffffffffffffffffffffffffffffffffffffff021916908373ffffffffffffffffffffffffffffffffffffffff16021790555060006110e9603260009054906101000a900473ffffffffffffffffffffffffffffffffffffffff16612aac565b9150506000611115606461110760c88561322b90919063ffffffff16565b61329b90919063ffffffff16565b90506060600160405190808252806020026020018201604052801561115457816020015b6111416138ac565b8152602001906001900390816111395790505b5090506060600360405190808252806020026020018201604052801561119457816020015b6111816138dc565b8152602001906001900390816111795790505b50905060405180604001604052803073ffffffffffffffffffffffffffffffffffffffff1681526020016000815250826000815181106111d057fe5b60200260200101819052506111e3613948565b604051806080016040528060001515815260200160008081111561120357fe5b815260200160008081111561121457fe5b8152602001858152509050611227613986565b60018160000190600881111561123957fe5b9081600881111561124657fe5b8152505060008160200181815250508181604001819052506002816060018181525050308160a0019073ffffffffffffffffffffffffffffffffffffffff16908173ffffffffffffffffffffffffffffffffffffffff168152505080836000815181106112af57fe5b60200260200101819052506112c2613986565b6008816000019060088111156112d457fe5b908160088111156112e157fe5b815250506000816020018181525050308160a0019073ffffffffffffffffffffffffffffffffffffffff16908173ffffffffffffffffffffffffffffffffffffffff1681525050808460018151811061133657fe5b6020026020010181905250611349613986565b611351613948565b604051806080016040528060011515815260200160008081111561137157fe5b815260200160008081111561138257fe5b815260200161139b60018b6132e590919063ffffffff16565b81525090506000826000019060088111156113b257fe5b908160088111156113bf57fe5b8152505060008260200181815250508082604001819052506002826060018181525050308260a0019073ffffffffffffffffffffffffffffffffffffffff16908173ffffffffffffffffffffffffffffffffffffffff1681525050818660028151811061142857fe5b60200260200101819052506114a6731e0447b19bb6ecfdae1e4ae1694b0c3659614e4e7fffffffffffffffffffffffffffffffffffffffffffffffffffffffffffffffff73a0b86991c6218b36c1d19d4a2e9eb0ce3606eb4873ffffffffffffffffffffffffffffffffffffffff1661333a9092919063ffffffff16565b731e0447b19bb6ecfdae1e4ae1694b0c3659614e4e73ffffffffffffffffffffffffffffffffffffffff1663a67a6a4588886040518363ffffffff1660e01b81526004016114f59291906146ef565b600060405180830381600087803b15801561150f57600080fd5b505af1158015611523573d6000803e3d6000fd5b5050505061157b731e0447b19bb6ecfdae1e4ae1694b0c3659614e4e600073a0b86991c6218b36c1d19d4a2e9eb0ce3606eb4873ffffffffffffffffffffffffffffffffffffffff1661333a9092919063ffffffff16565b6116563373a0b86991c6218b36c1d19d4a2e9eb0ce3606eb4873ffffffffffffffffffffffffffffffffffffffff166370a08231306040518263ffffffff1660e01b81526004016115cc919061456d565b60206040518083038186803b1580156115e457600080fd5b505afa1580156115f8573d6000803e3d6000fd5b505050506040513d601f19601f8201168201806040525061161c9190810190613d0d565b73a0b86991c6218b36c1d19d4a2e9eb0ce3606eb4873ffffffffffffffffffffffffffffffffffffffff1661318c9092919063ffffffff16565b5050505050505050505060005481146116a4576040517f08c379a000000000000000000000000000000000000000000000000000000000815260040161169b90614863565b60405180910390fd5b5050565b739f8f72aa9304c8b593d555f12ef6589cc3a579a281565b6000806116cc83612509565b905060008114156116e857670de0b6b3a7640000915050611798565b602281601081106116f557fe5b0160009054906101000a900473ffffffffffffffffffffffffffffffffffffffff1673ffffffffffffffffffffffffffffffffffffffff166350d25bcd6040518163ffffffff1660e01b815260040160206040518083038186803b15801561175c57600080fd5b505afa158015611770573d6000803e3d6000fd5b505050506040513d601f19601f820116820180604052506117949190810190613cbb565b9150505b919050565b731eeaf25f2ecbcaf204ecadc8db7b0db9da84532781565b60008073398ec7346dcd622edc5ae82352f02be94c62d11973ffffffffffffffffffffffffffffffffffffffff166328dd2d0185856040518363ffffffff1660e01b8152600401611807929190614588565b6101406040518083038186803b15801561182057600080fd5b505afa158015611834573d6000803e3d6000fd5b505050506040513d601f19601f820116820180604052506118589190810190613d36565b50505050505050509150508091505092915050565b732260fac5e5542a773aa44fbcfedf7c193bc2c59981565b600080600073398ec7346dcd622edc5ae82352f02be94c62d11973ffffffffffffffffffffffffffffffffffffffff166328dd2d0187876040518363ffffffff1660e01b81526004016118d9929190614588565b6101406040518083038186803b1580156118f257600080fd5b505afa158015611906573d6000803e3d6000fd5b505050506040513d601f19601f8201168201806040525061192a9190810190613d36565b505050505050505091509150818110611948576000925050506119b2565b600061195d82846134b190919063ffffffff16565b9050600061196a886116c0565b90506119ab670de0b6b3a764000061199d8361198f8a8761322b90919063ffffffff16565b61322b90919063ffffffff16565b61329b90919063ffffffff16565b9450505050505b9392505050565b739ba00d6856a4edf4665bca2c2309936572473b7e81565b602281601081106119de57fe5b016000915054906101000a900473ffffffffffffffffffffffffffffffffffffffff1681565b730d8775f648430679a709e98d2b0cb6250d2887ef81565b611a246123ea565b611a63576040517f08c379a0000000000000000000000000000000000000000000000000000000008152600401611a5a90614823565b60405180910390fd5b600073ffffffffffffffffffffffffffffffffffffffff16600160009054906101000a900473ffffffffffffffffffffffffffffffffffffffff1673ffffffffffffffffffffffffffffffffffffffff167f8be0079c531659141344cd1fd0a4f28419497f9722a3daafe3b4186f6b6457e060405160405180910390a36000600160006101000a81548173ffffffffffffffffffffffffffffffffffffffff021916908373ffffffffffffffffffffffffffffffffffffffff160217905550565b73d0e785973390ff8e77a83961efdb4f271e6b815281565b73398ec7346dcd622edc5ae82352f02be94c62d11981565b73eeeeeeeeeeeeeeeeeeeeeeeeeeeeeeeeeeeeeeee81565b6e085d4780b73119b644ae5ecd22b37681565b60128160108110611b8c57fe5b016000915054906101000a900473ffffffffffffffffffffffffffffffffffffffff1681565b73037e8f2125bf532f3e228991e051c8a7253b642c81565b6000611bf883603260009054906101000a900473ffffffffffffffffffffffffffffffffffffffff16610dfc565b9050611c59733dfd23a6c5e8bbcfc9581d2e864a68feb6a076d37fffffffffffffffffffffffffffffffffffffffffffffffffffffffffffffffff8473ffffffffffffffffffffffffffffffffffffffff1661333a9092919063ffffffff16565b73398ec7346dcd622edc5ae82352f02be94c62d11973ffffffffffffffffffffffffffffffffffffffff1662a718a98484603260009054906101000a900473ffffffffffffffffffffffffffffffffffffffff168560006040518663ffffffff1660e01b8152600401611cd09594939291906145b1565b600060405180830381600087803b158015611cea57600080fd5b505af1158015611cfe573d6000803e3d6000fd5b50505050611d42733dfd23a6c5e8bbcfc9581d2e864a68feb6a076d360008473ffffffffffffffffffffffffffffffffffffffff1661333a9092919063ffffffff16565b60008373ffffffffffffffffffffffffffffffffffffffff166370a08231306040518263ffffffff1660e01b8152600401611d7d919061456d565b60206040518083038186803b158015611d9557600080fd5b505afa158015611da9573d6000803e3d6000fd5b505050506040513d601f19601f82011682018060405250611dcd9190810190613d0d565b905060008111611e12576040517f08c379a0000000000000000000000000000000000000000000000000000000008152600401611e09906147e3565b60405180910390fd5b611e51738da6995e8cb3af3237945a0e628f312f32723a1c828673ffffffffffffffffffffffffffffffffffffffff1661333a9092919063ffffffff16565b738da6995e8cb3af3237945a0e628f312f32723a1c73ffffffffffffffffffffffffffffffffffffffff16636b9589aa85858460018060006040518763ffffffff1660e01b8152600401611eaa96959493929190614604565b600060405180830381600087803b158015611ec457600080fd5b505af1158015611ed8573d6000803e3d6000fd5b50505050611f1c738da6995e8cb3af3237945a0e628f312f32723a1c60008673ffffffffffffffffffffffffffffffffffffffff1661333a9092919063ffffffff16565b50505050565b603260009054906101000a900473ffffffffffffffffffffffffffffffffffffffff1681565b73a0b86991c6218b36c1d19d4a2e9eb0ce3606eb4881565b600080611f8e603260009054906101000a900473ffffffffffffffffffffffffffffffffffffffff16612aac565b915091506000611fbf603260009054906101000a900473ffffffffffffffffffffffffffffffffffffffff16612dc9565b50905073a0b86991c6218b36c1d19d4a2e9eb0ce3606eb4873ffffffffffffffffffffffffffffffffffffffff168373ffffffffffffffffffffffffffffffffffffffff1614612188576000612032606461202460698661322b90919063ffffffff16565b61329b90919063ffffffff16565b90506120a7738da6995e8cb3af3237945a0e628f312f32723a1c7fffffffffffffffffffffffffffffffffffffffffffffffffffffffffffffffff73a0b86991c6218b36c1d19d4a2e9eb0ce3606eb4873ffffffffffffffffffffffffffffffffffffffff1661333a9092919063ffffffff16565b738da6995e8cb3af3237945a0e628f312f32723a1c73ffffffffffffffffffffffffffffffffffffffff16636b9589aa73a0b86991c6218b36c1d19d4a2e9eb0ce3606eb48868487600160006040518763ffffffff1660e01b815260040161211496959493929190614665565b600060405180830381600087803b15801561212e57600080fd5b505af1158015612142573d6000803e3d6000fd5b50505050612186738da6995e8cb3af3237945a0e628f312f32723a1c60008473ffffffffffffffffffffffffffffffffffffffff1661333a9092919063ffffffff16565b505b6121928184611bca565b73a0b86991c6218b36c1d19d4a2e9eb0ce3606eb4873ffffffffffffffffffffffffffffffffffffffff168373ffffffffffffffffffffffffffffffffffffffff16146123a057612238738da6995e8cb3af3237945a0e628f312f32723a1c7fffffffffffffffffffffffffffffffffffffffffffffffffffffffffffffffff8573ffffffffffffffffffffffffffffffffffffffff1661333a9092919063ffffffff16565b738da6995e8cb3af3237945a0e628f312f32723a1c73ffffffffffffffffffffffffffffffffffffffff16636b9589aa8473a0b86991c6218b36c1d19d4a2e9eb0ce3606eb488673ffffffffffffffffffffffffffffffffffffffff166370a08231306040518263ffffffff1660e01b81526004016122b7919061456d565b60206040518083038186803b1580156122cf57600080fd5b505afa1580156122e3573d6000803e3d6000fd5b505050506040513d601f19601f820116820180604052506123079190810190613d0d565b60018060006040518763ffffffff1660e01b815260040161232d96959493929190614604565b600060405180830381600087803b15801561234757600080fd5b505af115801561235b573d6000803e3d6000fd5b5050505061239f738da6995e8cb3af3237945a0e628f312f32723a1c60008573ffffffffffffffffffffffffffffffffffffffff1661333a9092919063ffffffff16565b5b505050505050565b6000600160009054906101000a900473ffffffffffffffffffffffffffffffffffffffff16905090565b731e0447b19bb6ecfdae1e4ae1694b0c3659614e4e81565b6000600160009054906101000a900473ffffffffffffffffffffffffffffffffffffffff1673ffffffffffffffffffffffffffffffffffffffff1661242d6134fb565b73ffffffffffffffffffffffffffffffffffffffff1614905090565b738da6995e8cb3af3237945a0e628f312f32723a1c81565b7371010a9d003445ac60c4e6a7017c1e89a477b43881565b733a3a65aab0dd2a17e3f1947ba16138cd37d08c0481565b73625ae63000f46200499120b906716420bd05924081565b734da9b813057d04baef4e5800e36083717b4a034181565b7379febf6b9f76853edbcbc913e6aae8232cfb9de981565b7373ead35fd6a572ef763b13be65a9db96f764357781565b73fc4b8ed459e00e5400be803a9bb3954234fd50e381565b600073eeeeeeeeeeeeeeeeeeeeeeeeeeeeeeeeeeeeeeee73ffffffffffffffffffffffffffffffffffffffff168273ffffffffffffffffffffffffffffffffffffffff16141561255c5760009050612a17565b736b175474e89094c44da98b954eedeac495271d0f73ffffffffffffffffffffffffffffffffffffffff168273ffffffffffffffffffffffffffffffffffffffff1614156125ad5760019050612a17565b73a0b86991c6218b36c1d19d4a2e9eb0ce3606eb4873ffffffffffffffffffffffffffffffffffffffff168273ffffffffffffffffffffffffffffffffffffffff1614156125fe5760029050612a17565b7357ab1ec28d129707052df4df418d58a2d46d5f5173ffffffffffffffffffffffffffffffffffffffff168273ffffffffffffffffffffffffffffffffffffffff16141561264f5760039050612a17565b6e085d4780b73119b644ae5ecd22b37673ffffffffffffffffffffffffffffffffffffffff168273ffffffffffffffffffffffffffffffffffffffff16141561269b5760049050612a17565b73dac17f958d2ee523a2206206994597c13d831ec773ffffffffffffffffffffffffffffffffffffffff168273ffffffffffffffffffffffffffffffffffffffff1614156126ec5760059050612a17565b730d8775f648430679a709e98d2b0cb6250d2887ef73ffffffffffffffffffffffffffffffffffffffff168273ffffffffffffffffffffffffffffffffffffffff16141561273d5760069050612a17565b73dd974d5c2e2928dea5f71b9825b8b646686bd20073ffffffffffffffffffffffffffffffffffffffff168273ffffffffffffffffffffffffffffffffffffffff16141561278e5760079050612a17565b7380fb784b7ed66730e8b1dbd9820afd29931aab0373ffffffffffffffffffffffffffffffffffffffff168273ffffffffffffffffffffffffffffffffffffffff1614156127df5760089050612a17565b73514910771af9ca656af840dff83e8264ecf986ca73ffffffffffffffffffffffffffffffffffffffff168273ffffffffffffffffffffffffffffffffffffffff1614156128305760099050612a17565b730f5d2fb29fb7d3cfee444a200298f468908cc94273ffffffffffffffffffffffffffffffffffffffff168273ffffffffffffffffffffffffffffffffffffffff16141561288157600a9050612a17565b739f8f72aa9304c8b593d555f12ef6589cc3a579a273ffffffffffffffffffffffffffffffffffffffff168273ffffffffffffffffffffffffffffffffffffffff1614156128d257600b9050612a17565b731985365e9f78359a9b6ad760e32412f4a445e86273ffffffffffffffffffffffffffffffffffffffff168273ffffffffffffffffffffffffffffffffffffffff16141561292357600c9050612a17565b73c011a73ee8576fb46f5e1c5751ca3b9fe0af2a6f73ffffffffffffffffffffffffffffffffffffffff168273ffffffffffffffffffffffffffffffffffffffff16141561297457600d9050612a17565b732260fac5e5542a773aa44fbcfedf7c193bc2c59973ffffffffffffffffffffffffffffffffffffffff168273ffffffffffffffffffffffffffffffffffffffff1614156129c557600e9050612a17565b73e41d2489571d322189246dafa5ebde1f4699f49873ffffffffffffffffffffffffffffffffffffffff168273ffffffffffffffffffffffffffffffffffffffff161415612a1657600f9050612a17565b5b919050565b73ecfa53a8bda4f0c4dd39c55cc8def3757acfdd0781565b736fb0855c404e09c47c3fbca25f08d4e41f9f062f81565b73e23d1142de4e83c08bb048bcab54d5090739082881565b73dac17f958d2ee523a2206206994597c13d831ec781565b73a0f9d94f060836756ffc84db4c78d097ca8c23e881565b739b4e2579895efa2b4765063310dc4109a764112981565b6000806000612aca6e085d4780b73119b644ae5ecd22b376856117b5565b90506000612aec73dac17f958d2ee523a2206206994597c13d831ec7866117b5565b90506000612b0e73a0b86991c6218b36c1d19d4a2e9eb0ce3606eb48876117b5565b90506000612b30736b175474e89094c44da98b954eedeac495271d0f886117b5565b905084841115612b50578394506e085d4780b73119b644ae5ecd22b37695505b84612b6964e8d4a510008561322b90919063ffffffff16565b1115612b8a5782945073dac17f958d2ee523a2206206994597c13d831ec795505b84612ba364e8d4a510008461322b90919063ffffffff16565b1115612bc45781945073a0b86991c6218b36c1d19d4a2e9eb0ce3606eb4895505b84811115612be757809450736b175474e89094c44da98b954eedeac495271d0f95505b85859550955050505050915091565b73c89c4ed8f52bb17314022f6c0dcb26210c905c9781565b73e41d2489571d322189246dafa5ebde1f4699f49881565b73a874fe207df445ff19e7482c746c4d3fd0cb9ace81565b73de54467873c3bcaa76421061036053e37172170881565b736fce4a401b6b80ace52baaefe4421bd188e76f6f81565b736b175474e89094c44da98b954eedeac495271d0f81565b7371fc860f7d3a592a4a98740e39db31d25db65ae881565b73328c4c80bc7aca0834db37e6600a6c49e12da4de81565b73a64bd6c70cb9051f6a9ba1f163fdc07e0dfb5f8481565b73c011a73ee8576fb46f5e1c5751ca3b9fe0af2a6f81565b73dd974d5c2e2928dea5f71b9825b8b646686bd20081565b737d2d3688df45ce7c552e19c27e007673da9204b881565b730f5d2fb29fb7d3cfee444a200298f468908cc94281565b730133aa47b6197d0ba090bf2cd96626eb71ffd13c81565b733dfd23a6c5e8bbcfc9581d2e864a68feb6a076d381565b612d666123ea565b612da5576040517f08c379a0000000000000000000000000000000000000000000000000000000008152600401612d9c90614823565b60405180910390fd5b612dae81613503565b50565b7380fb784b7ed66730e8b1dbd9820afd29931aab0381565b6000806000612dee736b175474e89094c44da98b954eedeac495271d0f856001611885565b90506000612e12739f8f72aa9304c8b593d555f12ef6589cc3a579a2866001611885565b90506000612e3a73a0b86991c6218b36c1d19d4a2e9eb0ce3606eb488764e8d4a51000611885565b90506000612e5e73c011a73ee8576fb46f5e1c5751ca3b9fe0af2a6f886001611885565b90506000612e86732260fac5e5542a773aa44fbcfedf7c193bc2c599896402540be400611885565b90506000612eaa730d8775f648430679a709e98d2b0cb6250d2887ef8a6001611885565b90506000612ece73514910771af9ca656af840dff83e8264ecf986ca8b6001611885565b90506000612ef273dd974d5c2e2928dea5f71b9825b8b646686bd2008c6001611885565b90506000612f167357ab1ec28d129707052df4df418d58a2d46d5f518d6001611885565b905089891115612f3b57889950736b175474e89094c44da98b954eedeac495271d0f9a505b89881115612f5e57879950739f8f72aa9304c8b593d555f12ef6589cc3a579a29a505b89871115612f815786995073a0b86991c6218b36c1d19d4a2e9eb0ce3606eb489a505b89861115612fa45785995073c011a73ee8576fb46f5e1c5751ca3b9fe0af2a6f9a505b89851115612fc757849950732260fac5e5542a773aa44fbcfedf7c193bc2c5999a505b89841115612fea57839950730d8775f648430679a709e98d2b0cb6250d2887ef9a505b8983111561300d5782995073514910771af9ca656af840dff83e8264ecf986ca9a505b898211156130305781995073dd974d5c2e2928dea5f71b9825b8b646686bd2009a505b89811115613053578099507357ab1ec28d129707052df4df418d58a2d46d5f519a505b8a8a9a509a50505050505050505050915091565b73b8b513d9cf440c1b6f5c7142120d611c94fc220c81565b6130876123ea565b6130c6576040517f08c379a00000000000000000000000000000000000000000000000000000000081526004016130bd90614823565b60405180910390fd5b60003373ffffffffffffffffffffffffffffffffffffffff163073ffffffffffffffffffffffffffffffffffffffff163160405161310390614558565b60006040518083038185875af1925050503d8060008114613140576040519150601f19603f3d011682016040523d82523d6000602084013e613145565b606091505b5050905080613189576040517f08c379a0000000000000000000000000000000000000000000000000000000008152600401613180906147c3565b60405180910390fd5b50565b613226838473ffffffffffffffffffffffffffffffffffffffff1663a9059cbb905060e01b84846040516024016131c49291906146c6565b604051602081830303815290604052907bffffffffffffffffffffffffffffffffffffffffffffffffffffffff19166020820180517bffffffffffffffffffffffffffffffffffffffffffffffffffffffff8381831617835250505050613633565b505050565b60008083141561323e5760009050613295565b600082840290508284828161324f57fe5b0414613290576040517f08c379a000000000000000000000000000000000000000000000000000000000815260040161328790614803565b60405180910390fd5b809150505b92915050565b60006132dd83836040518060400160405280601a81526020017f536166654d6174683a206469766973696f6e206279207a65726f0000000000008152506137a5565b905092915050565b600080828401905083811015613330576040517f08c379a000000000000000000000000000000000000000000000000000000000815260040161332790614783565b60405180910390fd5b8091505092915050565b60008114806133d3575060008373ffffffffffffffffffffffffffffffffffffffff1663dd62ed3e30856040518363ffffffff1660e01b8152600401613381929190614588565b60206040518083038186803b15801561339957600080fd5b505afa1580156133ad573d6000803e3d6000fd5b505050506040513d601f19601f820116820180604052506133d19190810190613d0d565b145b613412576040517f08c379a000000000000000000000000000000000000000000000000000000000815260040161340990614883565b60405180910390fd5b6134ac838473ffffffffffffffffffffffffffffffffffffffff1663095ea7b3905060e01b848460405160240161344a9291906146c6565b604051602081830303815290604052907bffffffffffffffffffffffffffffffffffffffffffffffffffffffff19166020820180517bffffffffffffffffffffffffffffffffffffffffffffffffffffffff8381831617835250505050613633565b505050565b60006134f383836040518060400160405280601e81526020017f536166654d6174683a207375627472616374696f6e206f766572666c6f770000815250613806565b905092915050565b600033905090565b600073ffffffffffffffffffffffffffffffffffffffff168173ffffffffffffffffffffffffffffffffffffffff161415613573576040517f08c379a000000000000000000000000000000000000000000000000000000000815260040161356a90614763565b60405180910390fd5b8073ffffffffffffffffffffffffffffffffffffffff16600160009054906101000a900473ffffffffffffffffffffffffffffffffffffffff1673ffffffffffffffffffffffffffffffffffffffff167f8be0079c531659141344cd1fd0a4f28419497f9722a3daafe3b4186f6b6457e060405160405180910390a380600160006101000a81548173ffffffffffffffffffffffffffffffffffffffff021916908373ffffffffffffffffffffffffffffffffffffffff16021790555050565b6136528273ffffffffffffffffffffffffffffffffffffffff16613861565b613691576040517f08c379a0000000000000000000000000000000000000000000000000000000008152600401613688906148a3565b60405180910390fd5b600060608373ffffffffffffffffffffffffffffffffffffffff16836040516136ba9190614541565b6000604051808303816000865af19150503d80600081146136f7576040519150601f19603f3d011682016040523d82523d6000602084013e6136fc565b606091505b509150915081613741576040517f08c379a0000000000000000000000000000000000000000000000000000000008152600401613738906147a3565b60405180910390fd5b60008151111561379f578080602001905161375f9190810190613c69565b61379e576040517f08c379a000000000000000000000000000000000000000000000000000000000815260040161379590614843565b60405180910390fd5b5b50505050565b600080831182906137ec576040517f08c379a00000000000000000000000000000000000000000000000000000000081526004016137e39190614741565b60405180910390fd5b5060008385816137f857fe5b049050809150509392505050565b600083831115829061384e576040517f08c379a00000000000000000000000000000000000000000000000000000000081526004016138459190614741565b60405180910390fd5b5060008385039050809150509392505050565b60008060007fc5d2460186f7233c927e7db2dcc703c0e500b653ca82273b7bfad8045d85a47060001b9050833f91506000801b82141580156138a35750808214155b92505050919050565b6040518060400160405280600073ffffffffffffffffffffffffffffffffffffffff168152602001600081525090565b604051806101000160405280600060088111156138f557fe5b8152602001600081526020016139096139f2565b81526020016000815260200160008152602001600073ffffffffffffffffffffffffffffffffffffffff16815260200160008152602001606081525090565b604051806080016040528060001515815260200160008081111561396857fe5b815260200160008081111561397957fe5b8152602001600081525090565b6040518061010001604052806000600881111561399f57fe5b8152602001600081526020016139b36139f2565b81526020016000815260200160008152602001600073ffffffffffffffffffffffffffffffffffffffff16815260200160008152602001606081525090565b6040518060800160405280600015158152602001600080811115613a1257fe5b8152602001600080811115613a2357fe5b8152602001600081525090565b600081359050613a3f81614b88565b92915050565b600081519050613a5481614b9f565b92915050565b600082601f830112613a6b57600080fd5b8135613a7e613a798261492b565b6148fe565b91508082526020830160208301858383011115613a9a57600080fd5b613aa5838284614b0e565b50505092915050565b600081359050613abd81614bb6565b92915050565b600081519050613ad281614bcd565b92915050565b600060408284031215613aea57600080fd5b613af460406148fe565b90506000613b0484828501613a30565b6000830152506020613b1884828501613b24565b60208301525092915050565b600081359050613b3381614be4565b92915050565b600081519050613b4881614be4565b92915050565b600060208284031215613b6057600080fd5b6000613b6e84828501613a30565b91505092915050565b60008060408385031215613b8a57600080fd5b6000613b9885828601613a30565b9250506020613ba985828601613a30565b9150509250929050565b600080600060608486031215613bc857600080fd5b6000613bd686828701613a30565b9350506020613be786828701613a30565b9250506040613bf886828701613b24565b9150509250925092565b600080600060808486031215613c1757600080fd5b6000613c2586828701613a30565b9350506020613c3686828701613ad8565b925050606084013567ffffffffffffffff811115613c5357600080fd5b613c5f86828701613a5a565b9150509250925092565b600060208284031215613c7b57600080fd5b6000613c8984828501613a45565b91505092915050565b600060208284031215613ca457600080fd5b6000613cb284828501613aae565b91505092915050565b600060208284031215613ccd57600080fd5b6000613cdb84828501613ac3565b91505092915050565b600060208284031215613cf657600080fd5b6000613d0484828501613b24565b91505092915050565b600060208284031215613d1f57600080fd5b6000613d2d84828501613b39565b91505092915050565b6000806000806000806000806000806101408b8d031215613d5657600080fd5b6000613d648d828e01613b39565b9a50506020613d758d828e01613b39565b9950506040613d868d828e01613b39565b9850506060613d978d828e01613b39565b9750506080613da88d828e01613b39565b96505060a0613db98d828e01613b39565b95505060c0613dca8d828e01613b39565b94505060e0613ddb8d828e01613b39565b935050610100613ded8d828e01613b39565b925050610120613dff8d828e01613a45565b9150509295989b9194979a5092959850565b6000613e1d83836143ec565b905092915050565b6000613e3183836144f4565b60408301905092915050565b613e4681614a17565b82525050565b613e5581614a17565b82525050565b6000613e6682614977565b613e7081856149c8565b935083602082028501613e8285614957565b8060005b85811015613ebe5784840389528151613e9f8582613e11565b9450613eaa836149ae565b925060208a01995050600181019050613e86565b50829750879550505050505092915050565b6000613edb82614982565b613ee581856149d9565b9350613ef083614967565b8060005b83811015613f21578151613f088882613e25565b9750613f13836149bb565b925050600181019050613ef4565b5085935050505092915050565b613f3781614a29565b82525050565b613f4681614a29565b82525050565b6000613f5782614998565b613f6181856149fb565b9350613f71818560208601614b1d565b80840191505092915050565b6000613f888261498d565b613f9281856149ea565b9350613fa2818560208601614b1d565b613fab81614b50565b840191505092915050565b613fbf81614ab4565b82525050565b613fce81614ac6565b82525050565b613fdd81614ad8565b82525050565b613fec81614aea565b82525050565b613ffb81614afc565b82525050565b600061400c826149a3565b6140168185614a06565b9350614026818560208601614b1d565b61402f81614b50565b840191505092915050565b6000614047602683614a06565b91507f4f776e61626c653a206e6577206f776e657220697320746865207a65726f206160008301527f64647265737300000000000000000000000000000000000000000000000000006020830152604082019050919050565b60006140ad601b83614a06565b91507f536166654d6174683a206164646974696f6e206f766572666c6f7700000000006000830152602082019050919050565b60006140ed602083614a06565b91507f5361666545524332303a206c6f772d6c6576656c2063616c6c206661696c65646000830152602082019050919050565b600061412d601683614a06565b91507f7472616e73666572206f6620455448206661696c6564000000000000000000006000830152602082019050919050565b600061416d600683614a06565b91507f6661696c656400000000000000000000000000000000000000000000000000006000830152602082019050919050565b60006141ad602183614a06565b91507f536166654d6174683a206d756c7469706c69636174696f6e206f766572666c6f60008301527f77000000000000000000000000000000000000000000000000000000000000006020830152604082019050919050565b6000614213602083614a06565b91507f4f776e61626c653a2063616c6c6572206973206e6f7420746865206f776e65726000830152602082019050919050565b60006142536000836149fb565b9150600082019050919050565b600061426d602a83614a06565b91507f5361666545524332303a204552433230206f7065726174696f6e20646964206e60008301527f6f742073756363656564000000000000000000000000000000000000000000006020830152604082019050919050565b60006142d3601f83614a06565b91507f5265656e7472616e637947756172643a207265656e7472616e742063616c6c006000830152602082019050919050565b6000614313603683614a06565b91507f5361666545524332303a20617070726f76652066726f6d206e6f6e2d7a65726f60008301527f20746f206e6f6e2d7a65726f20616c6c6f77616e6365000000000000000000006020830152604082019050919050565b6000614379601f83614a06565b91507f5361666545524332303a2063616c6c20746f206e6f6e2d636f6e7472616374006000830152602082019050919050565b60006143b9600783614a06565b91507f696e76616c6964000000000000000000000000000000000000000000000000006000830152602082019050919050565b6000610160830160008301516144056000860182613fb6565b5060208301516144186020860182614523565b50604083015161442b604086018261449f565b50606083015161443e60c0860182614523565b50608083015161445160e0860182614523565b5060a0830151614465610100860182613e3d565b5060c0830151614479610120860182614523565b5060e08301518482036101408601526144928282613f7d565b9150508091505092915050565b6080820160008201516144b56000850182613f2e565b5060208201516144c86020850182613fc5565b5060408201516144db6040850182613fd4565b5060608201516144ee6060850182614523565b50505050565b60408201600082015161450a6000850182613e3d565b50602082015161451d6020850182614523565b50505050565b61452c81614aaa565b82525050565b61453b81614aaa565b82525050565b600061454d8284613f4c565b915081905092915050565b600061456382614246565b9150819050919050565b60006020820190506145826000830184613e4c565b92915050565b600060408201905061459d6000830185613e4c565b6145aa6020830184613e4c565b9392505050565b600060a0820190506145c66000830188613e4c565b6145d36020830187613e4c565b6145e06040830186613e4c565b6145ed6060830185614532565b6145fa6080830184613f3d565b9695505050505050565b600060c0820190506146196000830189613e4c565b6146266020830188613e4c565b6146336040830187614532565b6146406060830186613ff2565b61464d6080830185613ff2565b61465a60a0830184613fe3565b979650505050505050565b600060c08201905061467a6000830189613e4c565b6146876020830188613e4c565b6146946040830187614532565b6146a16060830186614532565b6146ae6080830185613ff2565b6146bb60a0830184613fe3565b979650505050505050565b60006040820190506146db6000830185613e4c565b6146e86020830184614532565b9392505050565b600060408201905081810360008301526147098185613ed0565b9050818103602083015261471d8184613e5b565b90509392505050565b600060208201905061473b6000830184613f3d565b92915050565b6000602082019050818103600083015261475b8184614001565b905092915050565b6000602082019050818103600083015261477c8161403a565b9050919050565b6000602082019050818103600083015261479c816140a0565b9050919050565b600060208201905081810360008301526147bc816140e0565b9050919050565b600060208201905081810360008301526147dc81614120565b9050919050565b600060208201905081810360008301526147fc81614160565b9050919050565b6000602082019050818103600083015261481c816141a0565b9050919050565b6000602082019050818103600083015261483c81614206565b9050919050565b6000602082019050818103600083015261485c81614260565b9050919050565b6000602082019050818103600083015261487c816142c6565b9050919050565b6000602082019050818103600083015261489c81614306565b9050919050565b600060208201905081810360008301526148bc8161436c565b9050919050565b600060208201905081810360008301526148dc816143ac565b9050919050565b60006020820190506148f86000830184614532565b92915050565b6000604051905081810181811067ffffffffffffffff8211171561492157600080fd5b8060405250919050565b600067ffffffffffffffff82111561494257600080fd5b601f19601f8301169050602081019050919050565b6000819050602082019050919050565b6000819050602082019050919050565b600081519050919050565b600081519050919050565b600081519050919050565b600081519050919050565b600081519050919050565b6000602082019050919050565b6000602082019050919050565b600082825260208201905092915050565b600082825260208201905092915050565b600082825260208201905092915050565b600081905092915050565b600082825260208201905092915050565b6000614a2282614a8a565b9050919050565b60008115159050919050565b6000614a4082614a17565b9050919050565b6000819050614a5582614b61565b919050565b6000819050614a6882614b6e565b919050565b6000819050614a7b82614b7b565b919050565b6000819050919050565b600073ffffffffffffffffffffffffffffffffffffffff82169050919050565b6000819050919050565b6000614abf82614a47565b9050919050565b6000614ad182614a5a565b9050919050565b6000614ae382614a6d565b9050919050565b6000614af582614aaa565b9050919050565b6000614b0782614aaa565b9050919050565b82818337600083830152505050565b60005b83811015614b3b578082015181840152602081019050614b20565b83811115614b4a576000848401525b50505050565b6000601f19601f8301169050919050565b60098110614b6b57fe5b50565b60018110614b7857fe5b50565b60018110614b8557fe5b50565b614b9181614a17565b8114614b9c57600080fd5b50565b614ba881614a29565b8114614bb357600080fd5b50565b614bbf81614a35565b8114614bca57600080fd5b50565b614bd681614a80565b8114614be157600080fd5b50565b614bed81614aaa565b8114614bf857600080fd5b5056fea365627a7a723158202c9a6181e4c4653321d4c9ce07f6d9ee226cb858ad8f957eef9571f651a8fd906c6578706572696d656e74616cf564736f6c634300050c0040",
  "source": "pragma solidity ^0.5.0;\npragma experimental ABIEncoderV2;\n\ninterface IERC20 {\n    function totalSupply() external view returns (uint256);\n    function balanceOf(address account) external view returns (uint256);\n    function transfer(address recipient, uint256 amount) external returns (bool);\n    function allowance(address owner, address spender) external view returns (uint256);\n    function approve(address spender, uint256 amount) external returns (bool);\n    function transferFrom(address sender, address recipient, uint256 amount) external returns (bool);\n    event Transfer(address indexed from, address indexed to, uint256 value);\n    event Approval(address indexed owner, address indexed spender, uint256 value);\n}\n\ncontract Context {\n    constructor () internal { }\n    // solhint-disable-previous-line no-empty-blocks\n\n    function _msgSender() internal view returns (address payable) {\n        return msg.sender;\n    }\n\n    function _msgData() internal view returns (bytes memory) {\n        this; // silence state mutability warning without generating bytecode - see https://github.com/ethereum/solidity/issues/2691\n        return msg.data;\n    }\n}\n\ncontract ReentrancyGuard {\n    uint256 private _guardCounter;\n\n    constructor () internal {\n        _guardCounter = 1;\n    }\n\n    modifier nonReentrant() {\n        _guardCounter += 1;\n        uint256 localCounter = _guardCounter;\n        _;\n        require(localCounter == _guardCounter, \"ReentrancyGuard: reentrant call\");\n    }\n}\n\ncontract Ownable is Context {\n    address private _owner;\n\n    event OwnershipTransferred(address indexed previousOwner, address indexed newOwner);\n    constructor () internal {\n        _owner = _msgSender();\n        emit OwnershipTransferred(address(0), _owner);\n    }\n    function owner() public view returns (address) {\n        return _owner;\n    }\n    modifier onlyOwner() {\n        require(isOwner(), \"Ownable: caller is not the owner\");\n        _;\n    }\n    function isOwner() public view returns (bool) {\n        return _msgSender() == _owner;\n    }\n    function renounceOwnership() public onlyOwner {\n        emit OwnershipTransferred(_owner, address(0));\n        _owner = address(0);\n    }\n    function transferOwnership(address newOwner) public onlyOwner {\n        _transferOwnership(newOwner);\n    }\n    function _transferOwnership(address newOwner) internal {\n        require(newOwner != address(0), \"Ownable: new owner is the zero address\");\n        emit OwnershipTransferred(_owner, newOwner);\n        _owner = newOwner;\n    }\n}\n\nlibrary SafeMath {\n    function add(uint256 a, uint256 b) internal pure returns (uint256) {\n        uint256 c = a + b;\n        require(c >= a, \"SafeMath: addition overflow\");\n\n        return c;\n    }\n    function sub(uint256 a, uint256 b) internal pure returns (uint256) {\n        return sub(a, b, \"SafeMath: subtraction overflow\");\n    }\n    function sub(uint256 a, uint256 b, string memory errorMessage) internal pure returns (uint256) {\n        require(b <= a, errorMessage);\n        uint256 c = a - b;\n\n        return c;\n    }\n    function mul(uint256 a, uint256 b) internal pure returns (uint256) {\n        if (a == 0) {\n            return 0;\n        }\n\n        uint256 c = a * b;\n        require(c / a == b, \"SafeMath: multiplication overflow\");\n\n        return c;\n    }\n    function div(uint256 a, uint256 b) internal pure returns (uint256) {\n        return div(a, b, \"SafeMath: division by zero\");\n    }\n    function div(uint256 a, uint256 b, string memory errorMessage) internal pure returns (uint256) {\n        // Solidity only automatically asserts when dividing by 0\n        require(b > 0, errorMessage);\n        uint256 c = a / b;\n\n        return c;\n    }\n    function mod(uint256 a, uint256 b) internal pure returns (uint256) {\n        return mod(a, b, \"SafeMath: modulo by zero\");\n    }\n    function mod(uint256 a, uint256 b, string memory errorMessage) internal pure returns (uint256) {\n        require(b != 0, errorMessage);\n        return a % b;\n    }\n}\n\nlibrary Address {\n    function isContract(address account) internal view returns (bool) {\n        bytes32 codehash;\n        bytes32 accountHash = 0xc5d2460186f7233c927e7db2dcc703c0e500b653ca82273b7bfad8045d85a470;\n        // solhint-disable-next-line no-inline-assembly\n        assembly { codehash := extcodehash(account) }\n        return (codehash != 0x0 && codehash != accountHash);\n    }\n    function toPayable(address account) internal pure returns (address payable) {\n        return address(uint160(account));\n    }\n    function sendValue(address payable recipient, uint256 amount) internal {\n        require(address(this).balance >= amount, \"Address: insufficient balance\");\n\n        // solhint-disable-next-line avoid-call-value\n        (bool success, ) = recipient.call.value(amount)(\"\");\n        require(success, \"Address: unable to send value, recipient may have reverted\");\n    }\n}\n\nlibrary SafeERC20 {\n    using SafeMath for uint256;\n    using Address for address;\n\n    function safeTransfer(IERC20 token, address to, uint256 value) internal {\n        callOptionalReturn(token, abi.encodeWithSelector(token.transfer.selector, to, value));\n    }\n    function safeTransferFrom(IERC20 token, address from, address to, uint256 value) internal {\n        callOptionalReturn(token, abi.encodeWithSelector(token.transferFrom.selector, from, to, value));\n    }\n    function safeApprove(IERC20 token, address spender, uint256 value) internal {\n        require((value == 0) || (token.allowance(address(this), spender) == 0),\n            \"SafeERC20: approve from non-zero to non-zero allowance\"\n        );\n        callOptionalReturn(token, abi.encodeWithSelector(token.approve.selector, spender, value));\n    }\n    function callOptionalReturn(IERC20 token, bytes memory data) private {\n        require(address(token).isContract(), \"SafeERC20: call to non-contract\");\n\n        // solhint-disable-next-line avoid-low-level-calls\n        (bool success, bytes memory returndata) = address(token).call(data);\n        require(success, \"SafeERC20: low-level call failed\");\n\n        if (returndata.length > 0) { // Return data is optional\n            // solhint-disable-next-line max-line-length\n            require(abi.decode(returndata, (bool)), \"SafeERC20: ERC20 operation did not succeed\");\n        }\n    }\n}\n\ninterface Aave {\n  function liquidationCall(\n        address _collateral,\n        address _reserve,\n        address _user,\n        uint256 _purchaseAmount,\n        bool _receiveAToken\n    ) external payable;\n    function getUserReserveData(address _reserve, address _user)\n        external\n        view\n        returns (\n            uint256 currentATokenBalance,\n            uint256 currentBorrowBalance,\n            uint256 principalBorrowBalance,\n            uint256 borrowRateMode,\n            uint256 borrowRate,\n            uint256 liquidityRate,\n            uint256 originationFee,\n            uint256 variableBorrowIndex,\n            uint256 lastUpdateTimestamp,\n            bool usageAsCollateralEnabled\n        );\n}\n\ninterface OneSplit {\n\n    function goodSwap(\n        address fromToken,\n        address toToken,\n        uint256 amount,\n        uint256 minReturn,\n        uint256 parts,\n        uint256 disableFlags // 1 - Uniswap, 2 - Kyber, 4 - Bancor, 8 - Oasis, 16 - Compound, 32 - Fulcrum, 64 - Chai, 128 - Aave, 256 - SmartToken\n    )\n        external\n        payable;\n}\n\ninterface Oracle {\n  function latestAnswer() external view returns (int256);\n}\n\ncontract Structs {\n    struct Val {\n        uint256 value;\n    }\n\n    enum ActionType {\n      Deposit,   // supply tokens\n      Withdraw,  // borrow tokens\n      Transfer,  // transfer balance between accounts\n      Buy,       // buy an amount of some token (externally)\n      Sell,      // sell an amount of some token (externally)\n      Trade,     // trade tokens against another account\n      Liquidate, // liquidate an undercollateralized or expiring account\n      Vaporize,  // use excess tokens to zero-out a completely negative account\n      Call       // send arbitrary data to an address\n    }\n\n    enum AssetDenomination {\n        Wei // the amount is denominated in wei\n    }\n\n    enum AssetReference {\n        Delta // the amount is given as a delta from the current value\n    }\n\n    struct AssetAmount {\n        bool sign; // true if positive\n        AssetDenomination denomination;\n        AssetReference ref;\n        uint256 value;\n    }\n\n    struct ActionArgs {\n        ActionType actionType;\n        uint256 accountId;\n        AssetAmount amount;\n        uint256 primaryMarketId;\n        uint256 secondaryMarketId;\n        address otherAddress;\n        uint256 otherAccountId;\n        bytes data;\n    }\n\n    struct Info {\n        address owner;  // The address that owns the account\n        uint256 number; // A nonce that allows a single address to control many accounts\n    }\n\n    struct Wei {\n        bool sign; // true if positive\n        uint256 value;\n    }\n}\n\ncontract DyDx is Structs {\n    function getAccountWei(Info memory account, uint256 marketId) public view returns (Wei memory);\n    function operate(Info[] memory, ActionArgs[] memory) public;\n}\n\ncontract AaveLiquidate is ReentrancyGuard, Ownable, Structs {\n  using SafeERC20 for IERC20;\n  using Address for address;\n  using SafeMath for uint256;\n\n  address constant public aave = address(0x398eC7346DcD622eDc5ae82352F02bE94C62d119);\n  address constant public core = address(0x3dfd23A6c5E8BbcFc9581d2E864a68feb6a076d3);\n  address constant public one = address(0x8da6995e8cB3Af3237945a0e628F312f32723a1c);\n\n  address constant public aETH = address(0x3a3A65aAb0dd2A17E3F1947bA16138cd37d08c04);\n  address constant public aDAI = address(0xfC1E690f61EFd961294b3e1Ce3313fBD8aa4f85d);\n  address constant public aUSDC = address(0x9bA00D6856a4eDF4665BcA2C2309936572473B7E);\n  address constant public aSUSD = address(0x625aE63000f46200499120B906716420bd059240);\n  address constant public aTUSD = address(0x4DA9b813057D04BAef4e5800E36083717b4a0341);\n  address constant public aUSDT = address(0x71fc860F7D3A592A4a98740e39dB31d25db65ae8);\n  address constant public aBAT = address(0xE1BA0FB44CCb0D11b80F92f4f8Ed94CA3fF51D00);\n  address constant public aKNC = address(0x9D91BE44C06d373a8a226E1f3b146956083803eB);\n  address constant public aLEND = address(0x7D2D3688Df45Ce7C552E19c27e007673da9204B8);\n  address constant public aLINK = address(0xA64BD6C70Cb9051F6A9ba1F163Fdc07E0DfB5F84);\n  address constant public aMANA = address(0x6FCE4A401B6B80ACe52baAefE4421Bd188e76F6f);\n  address constant public aMKR = address(0x7deB5e830be29F91E298ba5FF1356BB7f8146998);\n  address constant public aREP = address(0x71010A9D003445aC60C4e6A7017c1E89A477B438);\n  address constant public aSNX = address(0x328C4c80BC7aCa0834Db37e6600A6c49E12Da4DE);\n  address constant public aWBTC = address(0xFC4B8ED459e00e5400be803A9BB3954234FD50e3);\n  address constant public aZRX = address(0x6Fb0855c404E09c47C3fBCA25f08d4E41f9F062f);\n\n  address[16] public aaves = [aETH, aDAI, aUSDC, aSUSD, aTUSD, aUSDT, aBAT, aKNC, aLEND, aLINK, aMANA, aMKR, aREP, aSNX, aWBTC, aZRX];\n\n  address constant public ETH = address(0xEeeeeEeeeEeEeeEeEeEeeEEEeeeeEeeeeeeeEEeE);\n  address constant public DAI = address(0x6B175474E89094C44Da98b954EedeAC495271d0F);\n  address constant public USDC = address(0xA0b86991c6218b36c1d19D4a2e9Eb0cE3606eB48);\n  address constant public SUSD = address(0x57Ab1ec28D129707052df4dF418D58a2D46d5f51);\n  address constant public TUSD = address(0x0000000000085d4780B73119b644AE5ecd22b376);\n  address constant public USDT = address(0xdAC17F958D2ee523a2206206994597C13D831ec7);\n  address constant public BAT = address(0x0D8775F648430679A709E98d2b0Cb6250d2887EF);\n  address constant public KNC = address(0xdd974D5C2e2928deA5F71b9825b8b646686BD200);\n  address constant public LEND = address(0x80fB784B7eD66730e8b1DBd9820aFD29931aab03);\n  address constant public LINK = address(0x514910771AF9Ca656af840dff83E8264EcF986CA);\n  address constant public MANA = address(0x0F5D2fB29fb7d3CFeE444a200298f468908cC942);\n  address constant public MKR = address(0x9f8F72aA9304c8B593d555F12eF6589cC3A579A2);\n  address constant public REP = address(0x1985365e9f78359a9B6AD760e32412f4a445E862);\n  address constant public SNX = address(0xC011a73ee8576Fb46F5E1c5751cA3B9Fe0af2a6F);\n  address constant public WBTC = address(0x2260FAC5E5542a773Aa44fBCfeDf7C193bc2C599);\n  address constant public ZRX = address(0xE41d2489571d322189246DaFA5ebDe1F4699F498);\n\n  address[16] public reserves = [ETH, DAI, USDC, SUSD, TUSD, USDT, BAT, KNC, LEND, LINK, MANA, MKR, REP, SNX, WBTC, ZRX];\n\n  address constant public lETH = address(0x79fEbF6B9F76853EDBcBc913e6aAE8232cFB9De9);\n  address constant public lDAI = address(0x037E8F2125bF532F3e228991e051c8A7253B642c);\n  address constant public lUSDC = address(0xdE54467873c3BCAA76421061036053e371721708);\n  address constant public lSUSD = address(0x6d626Ff97f0E89F6f983dE425dc5B24A18DE26Ea);\n  address constant public lTUSD = address(0x73ead35fd6A572EF763B13Be65a9db96f7643577);\n  address constant public lUSDT = address(0xa874fe207DF445ff19E7482C746C4D3fD0CB9AcE);\n  address constant public lBAT = address(0x9b4e2579895efa2b4765063310Dc4109a7641129);\n  address constant public lKNC = address(0xd0e785973390fF8E77a83961efDb4F271E6B8152);\n  address constant public lLEND = address(0x1EeaF25f2ECbcAf204ECADc8Db7B0db9DA845327);\n  address constant public lLINK = address(0xeCfA53A8bdA4F0c4dd39c55CC8deF3757aCFDD07);\n  address constant public lMANA = address(0xc89c4ed8f52Bb17314022f6c0dCB26210C905C97);\n  address constant public lMKR = address(0xDa3d675d50fF6C555973C4f0424964e1F6A4e7D3);\n  address constant public lREP = address(0xb8b513d9cf440C1b6f5C7142120d611C94fC220c);\n  address constant public lSNX = address(0xE23d1142dE4E83C08bb048bcab54d50907390828);\n  address constant public lWBTC = address(0x0133Aa47B6197D0BA090Bf2CD96626Eb71fFd13c);\n  address constant public lZRX = address(0xA0F9D94f060836756FFC84Db4C78d097cA8C23E8);\n\n  address[16] public oracles = [lETH, lDAI, lUSDC, lSUSD, lTUSD, lUSDT, lBAT, lKNC, lLEND, lLINK, lMANA, lMKR, lREP, lSNX, lWBTC, lZRX];\n\n  address public constant dydx = address(0x1E0447b19BB6EcFdAe1e4AE1694b0C3659614e4e);\n  address public _user;\n\n  function liquidate(address _victim) external nonReentrant {\n    (address _collateral,) = getMaxCollateral(_victim);\n    require(_collateral != address(0x0), \"invalid\");\n\n    _user = _victim;\n    (, uint256 _debt) = getMaxDebt(_user);\n    uint256 amount = _debt.mul(200).div(100);\n\n    Info[] memory infos = new Info[](1);\n    ActionArgs[] memory args = new ActionArgs[](3);\n\n    infos[0] = Info(address(this), 0);\n\n    AssetAmount memory wamt = AssetAmount(false, AssetDenomination.Wei, AssetReference.Delta, amount);\n    ActionArgs memory withdraw;\n    withdraw.actionType = ActionType.Withdraw;\n    withdraw.accountId = 0;\n    withdraw.amount = wamt;\n    withdraw.primaryMarketId = 2;\n    withdraw.otherAddress = address(this);\n\n    args[0] = withdraw;\n\n    ActionArgs memory call;\n    call.actionType = ActionType.Call;\n    call.accountId = 0;\n    call.otherAddress = address(this);\n\n    args[1] = call;\n\n    ActionArgs memory deposit;\n    AssetAmount memory damt = AssetAmount(true, AssetDenomination.Wei, AssetReference.Delta, amount.add(1));\n    deposit.actionType = ActionType.Deposit;\n    deposit.accountId = 0;\n    deposit.amount = damt;\n    deposit.primaryMarketId = 2;\n    deposit.otherAddress = address(this);\n\n    args[2] = deposit;\n\n    IERC20(USDC).safeApprove(dydx, uint256(-1));\n    DyDx(dydx).operate(infos, args);\n    IERC20(USDC).safeApprove(dydx, 0);\n\n    IERC20(USDC).safeTransfer(msg.sender, IERC20(USDC).balanceOf(address(this)));\n  }\n\n  function getIndex(address _reserve) public pure returns (uint256) {\n    if (_reserve == ETH) {\n      return 0;\n    } else if (_reserve == DAI) {\n      return 1;\n    } else if (_reserve == USDC) {\n      return 2;\n    } else if (_reserve == SUSD) {\n      return 3;\n    } else if (_reserve == TUSD) {\n      return 4;\n    } else if (_reserve == USDT) {\n      return 5;\n    } else if (_reserve == BAT) {\n      return 6;\n    } else if (_reserve == KNC) {\n      return 7;\n    } else if (_reserve == LEND) {\n      return 8;\n    } else if (_reserve == LINK) {\n      return 9;\n    } else if (_reserve == MANA) {\n      return 10;\n    } else if (_reserve == MKR) {\n      return 11;\n    } else if (_reserve == REP) {\n      return 12;\n    } else if (_reserve == SNX) {\n      return 13;\n    } else if (_reserve == WBTC) {\n      return 14;\n    } else if (_reserve == ZRX) {\n      return 15;\n    }\n  }\n\n  function getMaxDebt(address _user) public view returns (address _reserve, uint256 _amount) {\n    uint256 bTUSD = getDebt(TUSD, _user);\n    uint256 bUSDT = getDebt(USDT, _user);\n    uint256 bUSDC = getDebt(USDC, _user);\n    uint256 bDAI = getDebt(DAI, _user);\n\n    if (bTUSD > _amount) {\n      _amount = bTUSD;\n      _reserve = TUSD;\n    }\n    if (bUSDT.mul(1e12) > _amount) {\n      _amount = bUSDT;\n      _reserve = USDT;\n    }\n    if (bUSDC.mul(1e12) > _amount) {\n      _amount = bUSDC;\n      _reserve = USDC;\n    }\n    if (bDAI > _amount) {\n      _amount = bDAI;\n      _reserve = DAI;\n    }\n    return (_reserve, _amount);\n  }\n\n  function getDebt(address _reserve, address _user) public view returns (uint256) {\n    (,uint256 debt,,,,,,,,) = Aave(aave).getUserReserveData(_reserve, _user);\n    return debt;\n  }\n\n  function getMaxCollateral(address _user) public view returns (address _reserve, uint256 _amount) {\n    // ETH-DAI, ETH-MKR, ETH-USDC, ETH-SNX, ETH-WBTC, ETH-BAT, ETH-LINK, ETH-KNC, ETH-sUSD\n    uint256 _dai = getCollateral(DAI, _user, 1);\n    uint256 _mkr = getCollateral(MKR, _user, 1);\n    uint256 _usdc = getCollateral(USDC, _user, 1e12);\n    uint256 _snx = getCollateral(SNX, _user, 1);\n    uint256 _wbtc = getCollateral(WBTC, _user, 1e10);\n    uint256 _bat = getCollateral(BAT, _user, 1);\n    uint256 _link = getCollateral(LINK, _user, 1);\n    uint256 _knc = getCollateral(KNC, _user, 1);\n    uint256 _susd = getCollateral(SUSD, _user, 1);\n\n    if (_dai > _amount) {\n      _amount = _dai;\n      _reserve = DAI;\n    }\n    if (_mkr > _amount) {\n      _amount = _mkr;\n      _reserve = MKR;\n    }\n    if (_usdc > _amount) {\n      _amount = _usdc;\n      _reserve = USDC;\n    }\n    if (_snx > _amount) {\n      _amount = _snx;\n      _reserve = SNX;\n    }\n    if (_wbtc > _amount) {\n      _amount = _wbtc;\n      _reserve = WBTC;\n    }\n    if (_bat > _amount) {\n      _amount = _bat;\n      _reserve = BAT;\n    }\n    if (_link > _amount) {\n      _amount = _link;\n      _reserve = LINK;\n    }\n    if (_knc > _amount) {\n      _amount = _knc;\n      _reserve = KNC;\n    }\n    if (_susd > _amount) {\n      _amount = _susd;\n      _reserve = SUSD;\n    }\n    return (_reserve, _amount);\n  }\n\n  function getCollateral(address _reserve, address _user, uint256 _dec) public view returns (uint256) {\n    (uint256 _collateral, uint256 _debt,,,,,,,,) = Aave(aave).getUserReserveData(_reserve, _user);\n    if (_debt >= _collateral) {\n      return 0;\n    } else {\n      uint256 _diff = _collateral.sub(_debt);\n      uint256 _price = getPrice(_reserve);\n      return (_diff.mul(_dec)).mul(_price).div(1e18);\n    }\n  }\n  function getCollateralToLiquidate(address _reserve, address _user) public view returns (uint256) {\n    (uint256 _collateral,,,,,,,,,) = Aave(aave).getUserReserveData(_reserve, _user);\n    return _collateral;\n  }\n\n  function getPrice(address _reserve) public view returns (uint256) {\n    uint256 _index = getIndex(_reserve);\n    if (_index == 0) {\n      return 1e18;\n    } else {\n      return uint256(Oracle(oracles[_index]).latestAnswer());\n    }\n  }\n\n  function callFunction(\n      address sender,\n      Info memory accountInfo,\n      bytes memory data\n  ) public {\n    (address _reserve, uint256 _debt) = getMaxDebt(_user);\n    (address _collateral,) = getMaxCollateral(_user);\n\n    if (_reserve != USDC) {\n      uint256 _sell = _debt.mul(105).div(100);\n      IERC20(USDC).safeApprove(one, uint256(-1));\n      OneSplit(one).goodSwap(USDC, _reserve, _sell, _debt, 1, 0);\n      IERC20(_collateral).safeApprove(one, 0);\n    }\n\n    liquidate(_collateral, _reserve);\n\n    if (_reserve != USDC) {\n      IERC20(_reserve).safeApprove(one, uint256(-1));\n      OneSplit(one).goodSwap(_reserve, USDC, IERC20(_reserve).balanceOf(address(this)), 1, 1, 0);\n      IERC20(_reserve).safeApprove(one, 0);\n    }\n  }\n\n  function liquidate(address _collateral, address _reserve) public {\n    uint256 _to_liquidate = getCollateralToLiquidate(_collateral, _user);\n    IERC20(_reserve).safeApprove(core, uint256(-1));\n    Aave(aave).liquidationCall(_collateral, _reserve, _user, _to_liquidate, false);\n    IERC20(_reserve).safeApprove(core, 0);\n    uint256 _liquidated = IERC20(_collateral).balanceOf(address(this));\n    require(_liquidated > 0, \"failed\");\n    IERC20(_collateral).safeApprove(one, _liquidated);\n    OneSplit(one).goodSwap(_collateral, _reserve, _liquidated, 1, 1, 0);\n    IERC20(_collateral).safeApprove(one, 0);\n  }\n\n  // incase of half-way error\n  function inCaseTokenGetsStuck(IERC20 _TokenAddress) onlyOwner public {\n      uint qty = _TokenAddress.balanceOf(address(this));\n      _TokenAddress.safeTransfer(msg.sender, qty);\n  }\n\n  // incase of half-way error\n  function inCaseETHGetsStuck() onlyOwner public{\n      (bool result, ) = msg.sender.call.value(address(this).balance)(\"\");\n      require(result, \"transfer of ETH failed\");\n  }\n}\n",
  "sourcePath": "D:/ftm/itoken/contracts/AaveLiquidate.sol",
  "compiler": {
    "name": "solc",
    "version": "0.5.12+commit.7709ece9.Emscripten.clang"
  },
  "schemaVersion": "3.0.19",
  "updatedAt": "2020-03-14T12:11:16.281Z",
  "devdoc": {
    "methods": {}
  },
  "userdoc": {
    "methods": {}
  }
}