{
  "contractName": "APROracle",
  "abi": [
    {
      "inputs": [],
      "payable": false,
      "stateMutability": "nonpayable",
      "type": "constructor"
    },
    {
      "anonymous": false,
      "inputs": [
        {
          "indexed": true,
          "internalType": "address",
          "name": "previousOwner",
          "type": "address"
        },
        {
          "indexed": true,
          "internalType": "address",
          "name": "newOwner",
          "type": "address"
        }
      ],
      "name": "OwnershipTransferred",
      "type": "event"
    },
    {
      "constant": true,
      "inputs": [],
      "name": "AAVE",
      "outputs": [
        {
          "internalType": "address",
          "name": "",
          "type": "address"
        }
      ],
      "payable": false,
      "stateMutability": "view",
      "type": "function"
    },
    {
      "constant": true,
      "inputs": [],
      "name": "ABAT",
      "outputs": [
        {
          "internalType": "address",
          "name": "",
          "type": "address"
        }
      ],
      "payable": false,
      "stateMutability": "view",
      "type": "function"
    },
    {
      "constant": true,
      "inputs": [],
      "name": "ADAI",
      "outputs": [
        {
          "internalType": "address",
          "name": "",
          "type": "address"
        }
      ],
      "payable": false,
      "stateMutability": "view",
      "type": "function"
    },
    {
      "constant": true,
      "inputs": [],
      "name": "AETH",
      "outputs": [
        {
          "internalType": "address",
          "name": "",
          "type": "address"
        }
      ],
      "payable": false,
      "stateMutability": "view",
      "type": "function"
    },
    {
      "constant": true,
      "inputs": [],
      "name": "AKNC",
      "outputs": [
        {
          "internalType": "address",
          "name": "",
          "type": "address"
        }
      ],
      "payable": false,
      "stateMutability": "view",
      "type": "function"
    },
    {
      "constant": true,
      "inputs": [],
      "name": "ALEND",
      "outputs": [
        {
          "internalType": "address",
          "name": "",
          "type": "address"
        }
      ],
      "payable": false,
      "stateMutability": "view",
      "type": "function"
    },
    {
      "constant": true,
      "inputs": [],
      "name": "ALINK",
      "outputs": [
        {
          "internalType": "address",
          "name": "",
          "type": "address"
        }
      ],
      "payable": false,
      "stateMutability": "view",
      "type": "function"
    },
    {
      "constant": true,
      "inputs": [],
      "name": "AMANA",
      "outputs": [
        {
          "internalType": "address",
          "name": "",
          "type": "address"
        }
      ],
      "payable": false,
      "stateMutability": "view",
      "type": "function"
    },
    {
      "constant": true,
      "inputs": [],
      "name": "AMKR",
      "outputs": [
        {
          "internalType": "address",
          "name": "",
          "type": "address"
        }
      ],
      "payable": false,
      "stateMutability": "view",
      "type": "function"
    },
    {
      "constant": true,
      "inputs": [],
      "name": "AREP",
      "outputs": [
        {
          "internalType": "address",
          "name": "",
          "type": "address"
        }
      ],
      "payable": false,
      "stateMutability": "view",
      "type": "function"
    },
    {
      "constant": true,
      "inputs": [],
      "name": "ASNX",
      "outputs": [
        {
          "internalType": "address",
          "name": "",
          "type": "address"
        }
      ],
      "payable": false,
      "stateMutability": "view",
      "type": "function"
    },
    {
      "constant": true,
      "inputs": [],
      "name": "ASUSD",
      "outputs": [
        {
          "internalType": "address",
          "name": "",
          "type": "address"
        }
      ],
      "payable": false,
      "stateMutability": "view",
      "type": "function"
    },
    {
      "constant": true,
      "inputs": [],
      "name": "ATUSD",
      "outputs": [
        {
          "internalType": "address",
          "name": "",
          "type": "address"
        }
      ],
      "payable": false,
      "stateMutability": "view",
      "type": "function"
    },
    {
      "constant": true,
      "inputs": [],
      "name": "AUSDC",
      "outputs": [
        {
          "internalType": "address",
          "name": "",
          "type": "address"
        }
      ],
      "payable": false,
      "stateMutability": "view",
      "type": "function"
    },
    {
      "constant": true,
      "inputs": [],
      "name": "AUSDT",
      "outputs": [
        {
          "internalType": "address",
          "name": "",
          "type": "address"
        }
      ],
      "payable": false,
      "stateMutability": "view",
      "type": "function"
    },
    {
      "constant": true,
      "inputs": [],
      "name": "AWBTC",
      "outputs": [
        {
          "internalType": "address",
          "name": "",
          "type": "address"
        }
      ],
      "payable": false,
      "stateMutability": "view",
      "type": "function"
    },
    {
      "constant": true,
      "inputs": [],
      "name": "AZRX",
      "outputs": [
        {
          "internalType": "address",
          "name": "",
          "type": "address"
        }
      ],
      "payable": false,
      "stateMutability": "view",
      "type": "function"
    },
    {
      "constant": true,
      "inputs": [],
      "name": "CBAT",
      "outputs": [
        {
          "internalType": "address",
          "name": "",
          "type": "address"
        }
      ],
      "payable": false,
      "stateMutability": "view",
      "type": "function"
    },
    {
      "constant": true,
      "inputs": [],
      "name": "CDAI",
      "outputs": [
        {
          "internalType": "address",
          "name": "",
          "type": "address"
        }
      ],
      "payable": false,
      "stateMutability": "view",
      "type": "function"
    },
    {
      "constant": true,
      "inputs": [],
      "name": "CETH",
      "outputs": [
        {
          "internalType": "address",
          "name": "",
          "type": "address"
        }
      ],
      "payable": false,
      "stateMutability": "view",
      "type": "function"
    },
    {
      "constant": true,
      "inputs": [],
      "name": "CREP",
      "outputs": [
        {
          "internalType": "address",
          "name": "",
          "type": "address"
        }
      ],
      "payable": false,
      "stateMutability": "view",
      "type": "function"
    },
    {
      "constant": true,
      "inputs": [],
      "name": "CSAI",
      "outputs": [
        {
          "internalType": "address",
          "name": "",
          "type": "address"
        }
      ],
      "payable": false,
      "stateMutability": "view",
      "type": "function"
    },
    {
      "constant": true,
      "inputs": [],
      "name": "CUSDC",
      "outputs": [
        {
          "internalType": "address",
          "name": "",
          "type": "address"
        }
      ],
      "payable": false,
      "stateMutability": "view",
      "type": "function"
    },
    {
      "constant": true,
      "inputs": [],
      "name": "CWBTC",
      "outputs": [
        {
          "internalType": "address",
          "name": "",
          "type": "address"
        }
      ],
      "payable": false,
      "stateMutability": "view",
      "type": "function"
    },
    {
      "constant": true,
      "inputs": [],
      "name": "CZRX",
      "outputs": [
        {
          "internalType": "address",
          "name": "",
          "type": "address"
        }
      ],
      "payable": false,
      "stateMutability": "view",
      "type": "function"
    },
    {
      "constant": true,
      "inputs": [],
      "name": "DYDX",
      "outputs": [
        {
          "internalType": "address",
          "name": "",
          "type": "address"
        }
      ],
      "payable": false,
      "stateMutability": "view",
      "type": "function"
    },
    {
      "constant": true,
      "inputs": [],
      "name": "IBAT",
      "outputs": [
        {
          "internalType": "address",
          "name": "",
          "type": "address"
        }
      ],
      "payable": false,
      "stateMutability": "view",
      "type": "function"
    },
    {
      "constant": true,
      "inputs": [],
      "name": "IDAI",
      "outputs": [
        {
          "internalType": "address",
          "name": "",
          "type": "address"
        }
      ],
      "payable": false,
      "stateMutability": "view",
      "type": "function"
    },
    {
      "constant": true,
      "inputs": [],
      "name": "IETH",
      "outputs": [
        {
          "internalType": "address",
          "name": "",
          "type": "address"
        }
      ],
      "payable": false,
      "stateMutability": "view",
      "type": "function"
    },
    {
      "constant": true,
      "inputs": [],
      "name": "IKNC",
      "outputs": [
        {
          "internalType": "address",
          "name": "",
          "type": "address"
        }
      ],
      "payable": false,
      "stateMutability": "view",
      "type": "function"
    },
    {
      "constant": true,
      "inputs": [],
      "name": "ILINK",
      "outputs": [
        {
          "internalType": "address",
          "name": "",
          "type": "address"
        }
      ],
      "payable": false,
      "stateMutability": "view",
      "type": "function"
    },
    {
      "constant": true,
      "inputs": [],
      "name": "IREP",
      "outputs": [
        {
          "internalType": "address",
          "name": "",
          "type": "address"
        }
      ],
      "payable": false,
      "stateMutability": "view",
      "type": "function"
    },
    {
      "constant": true,
      "inputs": [],
      "name": "ISAI",
      "outputs": [
        {
          "internalType": "address",
          "name": "",
          "type": "address"
        }
      ],
      "payable": false,
      "stateMutability": "view",
      "type": "function"
    },
    {
      "constant": true,
      "inputs": [],
      "name": "ISUSD",
      "outputs": [
        {
          "internalType": "address",
          "name": "",
          "type": "address"
        }
      ],
      "payable": false,
      "stateMutability": "view",
      "type": "function"
    },
    {
      "constant": true,
      "inputs": [],
      "name": "IUSDC",
      "outputs": [
        {
          "internalType": "address",
          "name": "",
          "type": "address"
        }
      ],
      "payable": false,
      "stateMutability": "view",
      "type": "function"
    },
    {
      "constant": true,
      "inputs": [],
      "name": "IWBTC",
      "outputs": [
        {
          "internalType": "address",
          "name": "",
          "type": "address"
        }
      ],
      "payable": false,
      "stateMutability": "view",
      "type": "function"
    },
    {
      "constant": true,
      "inputs": [],
      "name": "IZRX",
      "outputs": [
        {
          "internalType": "address",
          "name": "",
          "type": "address"
        }
      ],
      "payable": false,
      "stateMutability": "view",
      "type": "function"
    },
    {
      "constant": true,
      "inputs": [],
      "name": "isOwner",
      "outputs": [
        {
          "internalType": "bool",
          "name": "",
          "type": "bool"
        }
      ],
      "payable": false,
      "stateMutability": "view",
      "type": "function"
    },
    {
      "constant": true,
      "inputs": [],
      "name": "oracle",
      "outputs": [
        {
          "internalType": "address",
          "name": "",
          "type": "address"
        }
      ],
      "payable": false,
      "stateMutability": "view",
      "type": "function"
    },
    {
      "constant": true,
      "inputs": [],
      "name": "owner",
      "outputs": [
        {
          "internalType": "address",
          "name": "",
          "type": "address"
        }
      ],
      "payable": false,
      "stateMutability": "view",
      "type": "function"
    },
    {
      "constant": false,
      "inputs": [],
      "name": "renounceOwnership",
      "outputs": [],
      "payable": false,
      "stateMutability": "nonpayable",
      "type": "function"
    },
    {
      "constant": false,
      "inputs": [
        {
          "internalType": "address",
          "name": "newOwner",
          "type": "address"
        }
      ],
      "name": "transferOwnership",
      "outputs": [],
      "payable": false,
      "stateMutability": "nonpayable",
      "type": "function"
    },
    {
      "constant": true,
      "inputs": [],
      "name": "recommendDAI",
      "outputs": [
        {
          "internalType": "string",
          "name": "",
          "type": "string"
        }
      ],
      "payable": false,
      "stateMutability": "view",
      "type": "function"
    },
    {
      "constant": true,
      "inputs": [],
      "name": "recommendETH",
      "outputs": [
        {
          "internalType": "string",
          "name": "",
          "type": "string"
        }
      ],
      "payable": false,
      "stateMutability": "view",
      "type": "function"
    },
    {
      "constant": true,
      "inputs": [],
      "name": "recommendUSDC",
      "outputs": [
        {
          "internalType": "string",
          "name": "",
          "type": "string"
        }
      ],
      "payable": false,
      "stateMutability": "view",
      "type": "function"
    },
    {
      "constant": false,
      "inputs": [
        {
          "internalType": "address",
          "name": "_new_AAVE",
          "type": "address"
        }
      ],
      "name": "set_new_AAVE",
      "outputs": [],
      "payable": false,
      "stateMutability": "nonpayable",
      "type": "function"
    },
    {
      "constant": false,
      "inputs": [
        {
          "internalType": "address",
          "name": "_new_IZRX",
          "type": "address"
        }
      ],
      "name": "set_new_IZRX",
      "outputs": [],
      "payable": false,
      "stateMutability": "nonpayable",
      "type": "function"
    },
    {
      "constant": false,
      "inputs": [
        {
          "internalType": "address",
          "name": "_new_IREP",
          "type": "address"
        }
      ],
      "name": "set_new_IREP",
      "outputs": [],
      "payable": false,
      "stateMutability": "nonpayable",
      "type": "function"
    },
    {
      "constant": false,
      "inputs": [
        {
          "internalType": "address",
          "name": "_new_IKNC",
          "type": "address"
        }
      ],
      "name": "set_new_IKNC",
      "outputs": [],
      "payable": false,
      "stateMutability": "nonpayable",
      "type": "function"
    },
    {
      "constant": false,
      "inputs": [
        {
          "internalType": "address",
          "name": "_new_IWBTC",
          "type": "address"
        }
      ],
      "name": "set_new_IWBTC",
      "outputs": [],
      "payable": false,
      "stateMutability": "nonpayable",
      "type": "function"
    },
    {
      "constant": false,
      "inputs": [
        {
          "internalType": "address",
          "name": "_new_IUSDC",
          "type": "address"
        }
      ],
      "name": "set_new_IUSDC",
      "outputs": [],
      "payable": false,
      "stateMutability": "nonpayable",
      "type": "function"
    },
    {
      "constant": false,
      "inputs": [
        {
          "internalType": "address",
          "name": "_new_IETH",
          "type": "address"
        }
      ],
      "name": "set_new_IETH",
      "outputs": [],
      "payable": false,
      "stateMutability": "nonpayable",
      "type": "function"
    },
    {
      "constant": false,
      "inputs": [
        {
          "internalType": "address",
          "name": "_new_ISAI",
          "type": "address"
        }
      ],
      "name": "set_new_ISAI",
      "outputs": [],
      "payable": false,
      "stateMutability": "nonpayable",
      "type": "function"
    },
    {
      "constant": false,
      "inputs": [
        {
          "internalType": "address",
          "name": "_new_IDAI",
          "type": "address"
        }
      ],
      "name": "set_new_IDAI",
      "outputs": [],
      "payable": false,
      "stateMutability": "nonpayable",
      "type": "function"
    },
    {
      "constant": false,
      "inputs": [
        {
          "internalType": "address",
          "name": "_new_ILINK",
          "type": "address"
        }
      ],
      "name": "set_new_ILINK",
      "outputs": [],
      "payable": false,
      "stateMutability": "nonpayable",
      "type": "function"
    },
    {
      "constant": false,
      "inputs": [
        {
          "internalType": "address",
          "name": "_new_ISUSD",
          "type": "address"
        }
      ],
      "name": "set_new_ISUSD",
      "outputs": [],
      "payable": false,
      "stateMutability": "nonpayable",
      "type": "function"
    },
    {
      "constant": false,
      "inputs": [
        {
          "internalType": "address",
          "name": "_new_CDAI",
          "type": "address"
        }
      ],
      "name": "set_new_CDAI",
      "outputs": [],
      "payable": false,
      "stateMutability": "nonpayable",
      "type": "function"
    },
    {
      "constant": false,
      "inputs": [
        {
          "internalType": "address",
          "name": "_new_CBAT",
          "type": "address"
        }
      ],
      "name": "set_new_CBAT",
      "outputs": [],
      "payable": false,
      "stateMutability": "nonpayable",
      "type": "function"
    },
    {
      "constant": false,
      "inputs": [
        {
          "internalType": "address",
          "name": "_new_CETH",
          "type": "address"
        }
      ],
      "name": "set_new_CETH",
      "outputs": [],
      "payable": false,
      "stateMutability": "nonpayable",
      "type": "function"
    },
    {
      "constant": false,
      "inputs": [
        {
          "internalType": "address",
          "name": "_new_CREP",
          "type": "address"
        }
      ],
      "name": "set_new_CREP",
      "outputs": [],
      "payable": false,
      "stateMutability": "nonpayable",
      "type": "function"
    },
    {
      "constant": false,
      "inputs": [
        {
          "internalType": "address",
          "name": "_new_CSAI",
          "type": "address"
        }
      ],
      "name": "set_new_CSAI",
      "outputs": [],
      "payable": false,
      "stateMutability": "nonpayable",
      "type": "function"
    },
    {
      "constant": false,
      "inputs": [
        {
          "internalType": "address",
          "name": "_new_CUSDC",
          "type": "address"
        }
      ],
      "name": "set_new_CUSDC",
      "outputs": [],
      "payable": false,
      "stateMutability": "nonpayable",
      "type": "function"
    },
    {
      "constant": false,
      "inputs": [
        {
          "internalType": "address",
          "name": "_new_CWBTC",
          "type": "address"
        }
      ],
      "name": "set_new_CWBTC",
      "outputs": [],
      "payable": false,
      "stateMutability": "nonpayable",
      "type": "function"
    },
    {
      "constant": false,
      "inputs": [
        {
          "internalType": "address",
          "name": "_new_CZRX",
          "type": "address"
        }
      ],
      "name": "set_new_CZRX",
      "outputs": [],
      "payable": false,
      "stateMutability": "nonpayable",
      "type": "function"
    },
    {
      "constant": false,
      "inputs": [
        {
          "internalType": "address",
          "name": "_new_DYDX",
          "type": "address"
        }
      ],
      "name": "set_new_DYDX",
      "outputs": [],
      "payable": false,
      "stateMutability": "nonpayable",
      "type": "function"
    },
    {
      "constant": false,
      "inputs": [
        {
          "internalType": "address",
          "name": "_new_ADAI",
          "type": "address"
        }
      ],
      "name": "set_new_ADAI",
      "outputs": [],
      "payable": false,
      "stateMutability": "nonpayable",
      "type": "function"
    },
    {
      "constant": false,
      "inputs": [
        {
          "internalType": "address",
          "name": "_new_ATUSD",
          "type": "address"
        }
      ],
      "name": "set_new_ATUSD",
      "outputs": [],
      "payable": false,
      "stateMutability": "nonpayable",
      "type": "function"
    },
    {
      "constant": false,
      "inputs": [
        {
          "internalType": "address",
          "name": "_new_AUSDC",
          "type": "address"
        }
      ],
      "name": "set_new_AUSDC",
      "outputs": [],
      "payable": false,
      "stateMutability": "nonpayable",
      "type": "function"
    },
    {
      "constant": false,
      "inputs": [
        {
          "internalType": "address",
          "name": "_new_AUSDT",
          "type": "address"
        }
      ],
      "name": "set_new_AUSDT",
      "outputs": [],
      "payable": false,
      "stateMutability": "nonpayable",
      "type": "function"
    },
    {
      "constant": false,
      "inputs": [
        {
          "internalType": "address",
          "name": "_new_ASUSD",
          "type": "address"
        }
      ],
      "name": "set_new_ASUSD",
      "outputs": [],
      "payable": false,
      "stateMutability": "nonpayable",
      "type": "function"
    },
    {
      "constant": false,
      "inputs": [
        {
          "internalType": "address",
          "name": "_new_ALEND",
          "type": "address"
        }
      ],
      "name": "set_new_ALEND",
      "outputs": [],
      "payable": false,
      "stateMutability": "nonpayable",
      "type": "function"
    },
    {
      "constant": false,
      "inputs": [
        {
          "internalType": "address",
          "name": "_new_ABAT",
          "type": "address"
        }
      ],
      "name": "set_new_ABAT",
      "outputs": [],
      "payable": false,
      "stateMutability": "nonpayable",
      "type": "function"
    },
    {
      "constant": false,
      "inputs": [
        {
          "internalType": "address",
          "name": "_new_AETH",
          "type": "address"
        }
      ],
      "name": "set_new_AETH",
      "outputs": [],
      "payable": false,
      "stateMutability": "nonpayable",
      "type": "function"
    },
    {
      "constant": false,
      "inputs": [
        {
          "internalType": "address",
          "name": "_new_ALINK",
          "type": "address"
        }
      ],
      "name": "set_new_ALINK",
      "outputs": [],
      "payable": false,
      "stateMutability": "nonpayable",
      "type": "function"
    },
    {
      "constant": false,
      "inputs": [
        {
          "internalType": "address",
          "name": "_new_AKNC",
          "type": "address"
        }
      ],
      "name": "set_new_AKNC",
      "outputs": [],
      "payable": false,
      "stateMutability": "nonpayable",
      "type": "function"
    },
    {
      "constant": false,
      "inputs": [
        {
          "internalType": "address",
          "name": "_new_AREP",
          "type": "address"
        }
      ],
      "name": "set_new_AREP",
      "outputs": [],
      "payable": false,
      "stateMutability": "nonpayable",
      "type": "function"
    },
    {
      "constant": false,
      "inputs": [
        {
          "internalType": "address",
          "name": "_new_AMKR",
          "type": "address"
        }
      ],
      "name": "set_new_AMKR",
      "outputs": [],
      "payable": false,
      "stateMutability": "nonpayable",
      "type": "function"
    },
    {
      "constant": false,
      "inputs": [
        {
          "internalType": "address",
          "name": "_new_AMANA",
          "type": "address"
        }
      ],
      "name": "set_new_AMANA",
      "outputs": [],
      "payable": false,
      "stateMutability": "nonpayable",
      "type": "function"
    },
    {
      "constant": false,
      "inputs": [
        {
          "internalType": "address",
          "name": "_new_AZRX",
          "type": "address"
        }
      ],
      "name": "set_new_AZRX",
      "outputs": [],
      "payable": false,
      "stateMutability": "nonpayable",
      "type": "function"
    },
    {
      "constant": false,
      "inputs": [
        {
          "internalType": "address",
          "name": "_new_ASNX",
          "type": "address"
        }
      ],
      "name": "set_new_ASNX",
      "outputs": [],
      "payable": false,
      "stateMutability": "nonpayable",
      "type": "function"
    },
    {
      "constant": false,
      "inputs": [
        {
          "internalType": "address",
          "name": "_new_AWBTC",
          "type": "address"
        }
      ],
      "name": "set_new_AWBTC",
      "outputs": [],
      "payable": false,
      "stateMutability": "nonpayable",
      "type": "function"
    },
    {
      "constant": false,
      "inputs": [
        {
          "internalType": "address",
          "name": "_token",
          "type": "address"
        },
        {
          "internalType": "uint256",
          "name": "_price",
          "type": "uint256"
        }
      ],
      "name": "setPrice",
      "outputs": [],
      "payable": false,
      "stateMutability": "nonpayable",
      "type": "function"
    },
    {
      "constant": true,
      "inputs": [
        {
          "internalType": "address",
          "name": "_token",
          "type": "address"
        }
      ],
      "name": "getPrice",
      "outputs": [
        {
          "internalType": "uint256",
          "name": "",
          "type": "uint256"
        }
      ],
      "payable": false,
      "stateMutability": "view",
      "type": "function"
    },
    {
      "constant": false,
      "inputs": [
        {
          "internalType": "address",
          "name": "_token",
          "type": "address"
        },
        {
          "internalType": "uint256",
          "name": "_liquidity",
          "type": "uint256"
        }
      ],
      "name": "setLiquidity",
      "outputs": [],
      "payable": false,
      "stateMutability": "nonpayable",
      "type": "function"
    },
    {
      "constant": true,
      "inputs": [
        {
          "internalType": "address",
          "name": "_token",
          "type": "address"
        }
      ],
      "name": "getLiquidity",
      "outputs": [
        {
          "internalType": "uint256",
          "name": "",
          "type": "uint256"
        }
      ],
      "payable": false,
      "stateMutability": "view",
      "type": "function"
    },
    {
      "constant": true,
      "inputs": [],
      "name": "getAllCompoundAPR",
      "outputs": [
        {
          "internalType": "uint256",
          "name": "cDAI",
          "type": "uint256"
        },
        {
          "internalType": "uint256",
          "name": "cBAT",
          "type": "uint256"
        },
        {
          "internalType": "uint256",
          "name": "cETH",
          "type": "uint256"
        },
        {
          "internalType": "uint256",
          "name": "cREP",
          "type": "uint256"
        },
        {
          "internalType": "uint256",
          "name": "cSAI",
          "type": "uint256"
        },
        {
          "internalType": "uint256",
          "name": "cUSDC",
          "type": "uint256"
        },
        {
          "internalType": "uint256",
          "name": "cWBTC",
          "type": "uint256"
        },
        {
          "internalType": "uint256",
          "name": "cZRC",
          "type": "uint256"
        }
      ],
      "payable": false,
      "stateMutability": "view",
      "type": "function"
    },
    {
      "constant": true,
      "inputs": [],
      "name": "getCDAIAPR",
      "outputs": [
        {
          "internalType": "uint256",
          "name": "",
          "type": "uint256"
        }
      ],
      "payable": false,
      "stateMutability": "view",
      "type": "function"
    },
    {
      "constant": true,
      "inputs": [],
      "name": "getCBATAPR",
      "outputs": [
        {
          "internalType": "uint256",
          "name": "",
          "type": "uint256"
        }
      ],
      "payable": false,
      "stateMutability": "view",
      "type": "function"
    },
    {
      "constant": true,
      "inputs": [],
      "name": "getCETHAPR",
      "outputs": [
        {
          "internalType": "uint256",
          "name": "",
          "type": "uint256"
        }
      ],
      "payable": false,
      "stateMutability": "view",
      "type": "function"
    },
    {
      "constant": true,
      "inputs": [],
      "name": "getCREPAPR",
      "outputs": [
        {
          "internalType": "uint256",
          "name": "",
          "type": "uint256"
        }
      ],
      "payable": false,
      "stateMutability": "view",
      "type": "function"
    },
    {
      "constant": true,
      "inputs": [],
      "name": "getCSAIAPR",
      "outputs": [
        {
          "internalType": "uint256",
          "name": "",
          "type": "uint256"
        }
      ],
      "payable": false,
      "stateMutability": "view",
      "type": "function"
    },
    {
      "constant": true,
      "inputs": [],
      "name": "getCUSDCAPR",
      "outputs": [
        {
          "internalType": "uint256",
          "name": "",
          "type": "uint256"
        }
      ],
      "payable": false,
      "stateMutability": "view",
      "type": "function"
    },
    {
      "constant": true,
      "inputs": [],
      "name": "getCWBTCAPR",
      "outputs": [
        {
          "internalType": "uint256",
          "name": "",
          "type": "uint256"
        }
      ],
      "payable": false,
      "stateMutability": "view",
      "type": "function"
    },
    {
      "constant": true,
      "inputs": [],
      "name": "getCZRCAPR",
      "outputs": [
        {
          "internalType": "uint256",
          "name": "",
          "type": "uint256"
        }
      ],
      "payable": false,
      "stateMutability": "view",
      "type": "function"
    },
    {
      "constant": true,
      "inputs": [
        {
          "internalType": "address",
          "name": "token",
          "type": "address"
        }
      ],
      "name": "getCompoundAPR",
      "outputs": [
        {
          "internalType": "uint256",
          "name": "",
          "type": "uint256"
        }
      ],
      "payable": false,
      "stateMutability": "view",
      "type": "function"
    },
    {
      "constant": true,
      "inputs": [],
      "name": "getAllDyDxAPR",
      "outputs": [
        {
          "internalType": "uint256",
          "name": "dSAI",
          "type": "uint256"
        },
        {
          "internalType": "uint256",
          "name": "dETH",
          "type": "uint256"
        },
        {
          "internalType": "uint256",
          "name": "dUSDC",
          "type": "uint256"
        },
        {
          "internalType": "uint256",
          "name": "dDAI",
          "type": "uint256"
        }
      ],
      "payable": false,
      "stateMutability": "view",
      "type": "function"
    },
    {
      "constant": true,
      "inputs": [],
      "name": "getDyDxSAIAPR",
      "outputs": [
        {
          "internalType": "uint256",
          "name": "",
          "type": "uint256"
        }
      ],
      "payable": false,
      "stateMutability": "view",
      "type": "function"
    },
    {
      "constant": true,
      "inputs": [],
      "name": "getDyDxETHAPR",
      "outputs": [
        {
          "internalType": "uint256",
          "name": "",
          "type": "uint256"
        }
      ],
      "payable": false,
      "stateMutability": "view",
      "type": "function"
    },
    {
      "constant": true,
      "inputs": [],
      "name": "getDyDxUSDCAPR",
      "outputs": [
        {
          "internalType": "uint256",
          "name": "",
          "type": "uint256"
        }
      ],
      "payable": false,
      "stateMutability": "view",
      "type": "function"
    },
    {
      "constant": true,
      "inputs": [],
      "name": "getDyDxDAIAPR",
      "outputs": [
        {
          "internalType": "uint256",
          "name": "",
          "type": "uint256"
        }
      ],
      "payable": false,
      "stateMutability": "view",
      "type": "function"
    },
    {
      "constant": true,
      "inputs": [],
      "name": "getAllFulcrumAPR",
      "outputs": [
        {
          "internalType": "uint256",
          "name": "iZRX",
          "type": "uint256"
        },
        {
          "internalType": "uint256",
          "name": "iREP",
          "type": "uint256"
        },
        {
          "internalType": "uint256",
          "name": "iKNC",
          "type": "uint256"
        },
        {
          "internalType": "uint256",
          "name": "iWBTC",
          "type": "uint256"
        },
        {
          "internalType": "uint256",
          "name": "iUSDC",
          "type": "uint256"
        },
        {
          "internalType": "uint256",
          "name": "iETH",
          "type": "uint256"
        },
        {
          "internalType": "uint256",
          "name": "iSAI",
          "type": "uint256"
        },
        {
          "internalType": "uint256",
          "name": "iDAI",
          "type": "uint256"
        },
        {
          "internalType": "uint256",
          "name": "iLINK",
          "type": "uint256"
        },
        {
          "internalType": "uint256",
          "name": "iSUSD",
          "type": "uint256"
        }
      ],
      "payable": false,
      "stateMutability": "view",
      "type": "function"
    },
    {
      "constant": true,
      "inputs": [],
      "name": "getIZRXAPR",
      "outputs": [
        {
          "internalType": "uint256",
          "name": "",
          "type": "uint256"
        }
      ],
      "payable": false,
      "stateMutability": "view",
      "type": "function"
    },
    {
      "constant": true,
      "inputs": [],
      "name": "getIREPAPR",
      "outputs": [
        {
          "internalType": "uint256",
          "name": "",
          "type": "uint256"
        }
      ],
      "payable": false,
      "stateMutability": "view",
      "type": "function"
    },
    {
      "constant": true,
      "inputs": [],
      "name": "getIKNCAPR",
      "outputs": [
        {
          "internalType": "uint256",
          "name": "",
          "type": "uint256"
        }
      ],
      "payable": false,
      "stateMutability": "view",
      "type": "function"
    },
    {
      "constant": true,
      "inputs": [],
      "name": "getIWBTCAPR",
      "outputs": [
        {
          "internalType": "uint256",
          "name": "",
          "type": "uint256"
        }
      ],
      "payable": false,
      "stateMutability": "view",
      "type": "function"
    },
    {
      "constant": true,
      "inputs": [],
      "name": "getIUSDCAPR",
      "outputs": [
        {
          "internalType": "uint256",
          "name": "",
          "type": "uint256"
        }
      ],
      "payable": false,
      "stateMutability": "view",
      "type": "function"
    },
    {
      "constant": true,
      "inputs": [],
      "name": "getIETHAPR",
      "outputs": [
        {
          "internalType": "uint256",
          "name": "",
          "type": "uint256"
        }
      ],
      "payable": false,
      "stateMutability": "view",
      "type": "function"
    },
    {
      "constant": true,
      "inputs": [],
      "name": "getISAIAPR",
      "outputs": [
        {
          "internalType": "uint256",
          "name": "",
          "type": "uint256"
        }
      ],
      "payable": false,
      "stateMutability": "view",
      "type": "function"
    },
    {
      "constant": true,
      "inputs": [],
      "name": "getIDAIAPR",
      "outputs": [
        {
          "internalType": "uint256",
          "name": "",
          "type": "uint256"
        }
      ],
      "payable": false,
      "stateMutability": "view",
      "type": "function"
    },
    {
      "constant": true,
      "inputs": [],
      "name": "getILINKAPR",
      "outputs": [
        {
          "internalType": "uint256",
          "name": "",
          "type": "uint256"
        }
      ],
      "payable": false,
      "stateMutability": "view",
      "type": "function"
    },
    {
      "constant": true,
      "inputs": [],
      "name": "getISUSDAPR",
      "outputs": [
        {
          "internalType": "uint256",
          "name": "",
          "type": "uint256"
        }
      ],
      "payable": false,
      "stateMutability": "view",
      "type": "function"
    },
    {
      "constant": true,
      "inputs": [
        {
          "internalType": "address",
          "name": "token",
          "type": "address"
        }
      ],
      "name": "getFulcrumAPR",
      "outputs": [
        {
          "internalType": "uint256",
          "name": "",
          "type": "uint256"
        }
      ],
      "payable": false,
      "stateMutability": "view",
      "type": "function"
    },
    {
      "constant": true,
      "inputs": [
        {
          "internalType": "uint256",
          "name": "marketId",
          "type": "uint256"
        }
      ],
      "name": "getDyDxAPR",
      "outputs": [
        {
          "internalType": "uint256",
          "name": "",
          "type": "uint256"
        }
      ],
      "payable": false,
      "stateMutability": "view",
      "type": "function"
    },
    {
      "constant": true,
      "inputs": [],
      "name": "getAllAaveAPR",
      "outputs": [
        {
          "internalType": "uint256",
          "name": "aDAI",
          "type": "uint256"
        },
        {
          "internalType": "uint256",
          "name": "aTUSD",
          "type": "uint256"
        },
        {
          "internalType": "uint256",
          "name": "aUSDC",
          "type": "uint256"
        },
        {
          "internalType": "uint256",
          "name": "aUSDT",
          "type": "uint256"
        },
        {
          "internalType": "uint256",
          "name": "aSUSD",
          "type": "uint256"
        },
        {
          "internalType": "uint256",
          "name": "aBAT",
          "type": "uint256"
        },
        {
          "internalType": "uint256",
          "name": "aETH",
          "type": "uint256"
        },
        {
          "internalType": "uint256",
          "name": "aLINK",
          "type": "uint256"
        },
        {
          "internalType": "uint256",
          "name": "aKNC",
          "type": "uint256"
        },
        {
          "internalType": "uint256",
          "name": "aREP",
          "type": "uint256"
        },
        {
          "internalType": "uint256",
          "name": "aZRX",
          "type": "uint256"
        },
        {
          "internalType": "uint256",
          "name": "aSNX",
          "type": "uint256"
        }
      ],
      "payable": false,
      "stateMutability": "view",
      "type": "function"
    },
    {
      "constant": true,
      "inputs": [],
      "name": "getADAIAPR",
      "outputs": [
        {
          "internalType": "uint256",
          "name": "",
          "type": "uint256"
        }
      ],
      "payable": false,
      "stateMutability": "view",
      "type": "function"
    },
    {
      "constant": true,
      "inputs": [],
      "name": "getATUSDAPR",
      "outputs": [
        {
          "internalType": "uint256",
          "name": "",
          "type": "uint256"
        }
      ],
      "payable": false,
      "stateMutability": "view",
      "type": "function"
    },
    {
      "constant": true,
      "inputs": [],
      "name": "getAUSDCAPR",
      "outputs": [
        {
          "internalType": "uint256",
          "name": "",
          "type": "uint256"
        }
      ],
      "payable": false,
      "stateMutability": "view",
      "type": "function"
    },
    {
      "constant": true,
      "inputs": [],
      "name": "getAUSDTAPR",
      "outputs": [
        {
          "internalType": "uint256",
          "name": "",
          "type": "uint256"
        }
      ],
      "payable": false,
      "stateMutability": "view",
      "type": "function"
    },
    {
      "constant": true,
      "inputs": [],
      "name": "getASUSDAPR",
      "outputs": [
        {
          "internalType": "uint256",
          "name": "",
          "type": "uint256"
        }
      ],
      "payable": false,
      "stateMutability": "view",
      "type": "function"
    },
    {
      "constant": true,
      "inputs": [],
      "name": "getALENDAPR",
      "outputs": [
        {
          "internalType": "uint256",
          "name": "",
          "type": "uint256"
        }
      ],
      "payable": false,
      "stateMutability": "view",
      "type": "function"
    },
    {
      "constant": true,
      "inputs": [],
      "name": "getABATAPR",
      "outputs": [
        {
          "internalType": "uint256",
          "name": "",
          "type": "uint256"
        }
      ],
      "payable": false,
      "stateMutability": "view",
      "type": "function"
    },
    {
      "constant": true,
      "inputs": [],
      "name": "getAETHAPR",
      "outputs": [
        {
          "internalType": "uint256",
          "name": "",
          "type": "uint256"
        }
      ],
      "payable": false,
      "stateMutability": "view",
      "type": "function"
    },
    {
      "constant": true,
      "inputs": [],
      "name": "getALINKAPR",
      "outputs": [
        {
          "internalType": "uint256",
          "name": "",
          "type": "uint256"
        }
      ],
      "payable": false,
      "stateMutability": "view",
      "type": "function"
    },
    {
      "constant": true,
      "inputs": [],
      "name": "getAKNCAPR",
      "outputs": [
        {
          "internalType": "uint256",
          "name": "",
          "type": "uint256"
        }
      ],
      "payable": false,
      "stateMutability": "view",
      "type": "function"
    },
    {
      "constant": true,
      "inputs": [],
      "name": "getAREPAPR",
      "outputs": [
        {
          "internalType": "uint256",
          "name": "",
          "type": "uint256"
        }
      ],
      "payable": false,
      "stateMutability": "view",
      "type": "function"
    },
    {
      "constant": true,
      "inputs": [],
      "name": "getAMKRAPR",
      "outputs": [
        {
          "internalType": "uint256",
          "name": "",
          "type": "uint256"
        }
      ],
      "payable": false,
      "stateMutability": "view",
      "type": "function"
    },
    {
      "constant": true,
      "inputs": [],
      "name": "getAMANAAPR",
      "outputs": [
        {
          "internalType": "uint256",
          "name": "",
          "type": "uint256"
        }
      ],
      "payable": false,
      "stateMutability": "view",
      "type": "function"
    },
    {
      "constant": true,
      "inputs": [],
      "name": "getAZRXAPR",
      "outputs": [
        {
          "internalType": "uint256",
          "name": "",
          "type": "uint256"
        }
      ],
      "payable": false,
      "stateMutability": "view",
      "type": "function"
    },
    {
      "constant": true,
      "inputs": [],
      "name": "getASNXAPR",
      "outputs": [
        {
          "internalType": "uint256",
          "name": "",
          "type": "uint256"
        }
      ],
      "payable": false,
      "stateMutability": "view",
      "type": "function"
    },
    {
      "constant": true,
      "inputs": [],
      "name": "getAWBTCAPR",
      "outputs": [
        {
          "internalType": "uint256",
          "name": "",
          "type": "uint256"
        }
      ],
      "payable": false,
      "stateMutability": "view",
      "type": "function"
    },
    {
      "constant": true,
      "inputs": [],
      "name": "getAaveCore",
      "outputs": [
        {
          "internalType": "address",
          "name": "",
          "type": "address"
        }
      ],
      "payable": false,
      "stateMutability": "view",
      "type": "function"
    },
    {
      "constant": true,
      "inputs": [
        {
          "internalType": "address",
          "name": "token",
          "type": "address"
        }
      ],
      "name": "getAaveAPR",
      "outputs": [
        {
          "internalType": "uint256",
          "name": "",
          "type": "uint256"
        }
      ],
      "payable": false,
      "stateMutability": "view",
      "type": "function"
    },
    {
      "constant": false,
      "inputs": [
        {
          "internalType": "contract IERC20",
          "name": "_TokenAddress",
          "type": "address"
        }
      ],
      "name": "inCaseTokenGetsStuck",
      "outputs": [],
      "payable": false,
      "stateMutability": "nonpayable",
      "type": "function"
    },
    {
      "constant": false,
      "inputs": [],
      "name": "inCaseETHGetsStuck",
      "outputs": [],
      "payable": false,
      "stateMutability": "nonpayable",
      "type": "function"
    }
  ],
  "bytecode": "0x6080604052670de0b6b3a76400006001553480156200001d57600080fd5b506200002e62000d1f60201b60201c565b6000806101000a81548173ffffffffffffffffffffffffffffffffffffffff021916908373ffffffffffffffffffffffffffffffffffffffff1602179055506000809054906101000a900473ffffffffffffffffffffffffffffffffffffffff1673ffffffffffffffffffffffffffffffffffffffff16600073ffffffffffffffffffffffffffffffffffffffff167f8be0079c531659141344cd1fd0a4f28419497f9722a3daafe3b4186f6b6457e060405160405180910390a333600460006101000a81548173ffffffffffffffffffffffffffffffffffffffff021916908373ffffffffffffffffffffffffffffffffffffffff160217905550731e0447b19bb6ecfdae1e4ae1694b0c3659614e4e600560006101000a81548173ffffffffffffffffffffffffffffffffffffffff021916908373ffffffffffffffffffffffffffffffffffffffff1602179055507324a42fd28c976a61df5d00d0599c34c4f90748c8600660006101000a81548173ffffffffffffffffffffffffffffffffffffffff021916908373ffffffffffffffffffffffffffffffffffffffff160217905550735d3a536e4d6dbd6114cc1ead35777bab948e3643600760006101000a81548173ffffffffffffffffffffffffffffffffffffffff021916908373ffffffffffffffffffffffffffffffffffffffff160217905550736c8c6b02e7b2be14d4fa6022dfd6d75921d90e4e600860006101000a81548173ffffffffffffffffffffffffffffffffffffffff021916908373ffffffffffffffffffffffffffffffffffffffff160217905550734ddc2d193948926d02f9b1fe9e1daa0718270ed5600960006101000a81548173ffffffffffffffffffffffffffffffffffffffff021916908373ffffffffffffffffffffffffffffffffffffffff16021790555073158079ee67fce2f58472a96584a73c7ab9ac95c1600a60006101000a81548173ffffffffffffffffffffffffffffffffffffffff021916908373ffffffffffffffffffffffffffffffffffffffff16021790555073f5dce57282a584d2746faf1593d3121fcac444dc600b60006101000a81548173ffffffffffffffffffffffffffffffffffffffff021916908373ffffffffffffffffffffffffffffffffffffffff1602179055507339aa39c021dfbae8fac545936693ac917d5e7563600c60006101000a81548173ffffffffffffffffffffffffffffffffffffffff021916908373ffffffffffffffffffffffffffffffffffffffff16021790555073c11b1268c1a384e55c48c2391d8d480264a3a7f4600d60006101000a81548173ffffffffffffffffffffffffffffffffffffffff021916908373ffffffffffffffffffffffffffffffffffffffff16021790555073b3319f5d18bc0d84dd1b4825dcde5d5f7266d407600e60006101000a81548173ffffffffffffffffffffffffffffffffffffffff021916908373ffffffffffffffffffffffffffffffffffffffff16021790555073a7eb2bc82df18013ecc2a6c533fc29446442edee600f60006101000a81548173ffffffffffffffffffffffffffffffffffffffff021916908373ffffffffffffffffffffffffffffffffffffffff16021790555073bd56e9477fc6997609cf45f84795efbdac642ff1601060006101000a81548173ffffffffffffffffffffffffffffffffffffffff021916908373ffffffffffffffffffffffffffffffffffffffff160217905550731cc9567ea2eb740824a45f8026ccf8e46973234d601160006101000a81548173ffffffffffffffffffffffffffffffffffffffff021916908373ffffffffffffffffffffffffffffffffffffffff16021790555073ba9262578efef8b3aff7f60cd629d6cc8859c8b5601360006101000a81548173ffffffffffffffffffffffffffffffffffffffff021916908373ffffffffffffffffffffffffffffffffffffffff16021790555073f013406a0b1d544238083df0b93ad0d2cbe0f65f601460006101000a81548173ffffffffffffffffffffffffffffffffffffffff021916908373ffffffffffffffffffffffffffffffffffffffff1602179055507377f973fcaf871459aa58cd81881ce453759281bc601560006101000a81548173ffffffffffffffffffffffffffffffffffffffff021916908373ffffffffffffffffffffffffffffffffffffffff1602179055507314094949152eddbfcd073717200da82fed8dc960601660006101000a81548173ffffffffffffffffffffffffffffffffffffffff021916908373ffffffffffffffffffffffffffffffffffffffff16021790555073493c57c4763932315a328269e1adad09653b9081601760006101000a81548173ffffffffffffffffffffffffffffffffffffffff021916908373ffffffffffffffffffffffffffffffffffffffff160217905550731d496da96caf6b518b133736beca85d5c4f9cbc5601860006101000a81548173ffffffffffffffffffffffffffffffffffffffff021916908373ffffffffffffffffffffffffffffffffffffffff1602179055507349f4592e641820e928f9919ef4abd92a719b4b49601960006101000a81548173ffffffffffffffffffffffffffffffffffffffff021916908373ffffffffffffffffffffffffffffffffffffffff160217905550736b175474e89094c44da98b954eedeac495271d0f601a60006101000a81548173ffffffffffffffffffffffffffffffffffffffff021916908373ffffffffffffffffffffffffffffffffffffffff1602179055506e085d4780b73119b644ae5ecd22b376601b60006101000a81548173ffffffffffffffffffffffffffffffffffffffff021916908373ffffffffffffffffffffffffffffffffffffffff16021790555073a0b86991c6218b36c1d19d4a2e9eb0ce3606eb48601c60006101000a81548173ffffffffffffffffffffffffffffffffffffffff021916908373ffffffffffffffffffffffffffffffffffffffff16021790555073dac17f958d2ee523a2206206994597c13d831ec7601d60006101000a81548173ffffffffffffffffffffffffffffffffffffffff021916908373ffffffffffffffffffffffffffffffffffffffff1602179055507357ab1ec28d129707052df4df418d58a2d46d5f51601e60006101000a81548173ffffffffffffffffffffffffffffffffffffffff021916908373ffffffffffffffffffffffffffffffffffffffff1602179055507380fb784b7ed66730e8b1dbd9820afd29931aab03601f60006101000a81548173ffffffffffffffffffffffffffffffffffffffff021916908373ffffffffffffffffffffffffffffffffffffffff160217905550730d8775f648430679a709e98d2b0cb6250d2887ef602060006101000a81548173ffffffffffffffffffffffffffffffffffffffff021916908373ffffffffffffffffffffffffffffffffffffffff16021790555073eeeeeeeeeeeeeeeeeeeeeeeeeeeeeeeeeeeeeeee602160006101000a81548173ffffffffffffffffffffffffffffffffffffffff021916908373ffffffffffffffffffffffffffffffffffffffff16021790555073514910771af9ca656af840dff83e8264ecf986ca602260006101000a81548173ffffffffffffffffffffffffffffffffffffffff021916908373ffffffffffffffffffffffffffffffffffffffff16021790555073dd974d5c2e2928dea5f71b9825b8b646686bd200602360006101000a81548173ffffffffffffffffffffffffffffffffffffffff021916908373ffffffffffffffffffffffffffffffffffffffff160217905550731985365e9f78359a9b6ad760e32412f4a445e862602460006101000a81548173ffffffffffffffffffffffffffffffffffffffff021916908373ffffffffffffffffffffffffffffffffffffffff160217905550739f8f72aa9304c8b593d555f12ef6589cc3a579a2602560006101000a81548173ffffffffffffffffffffffffffffffffffffffff021916908373ffffffffffffffffffffffffffffffffffffffff160217905550730f5d2fb29fb7d3cfee444a200298f468908cc942602660006101000a81548173ffffffffffffffffffffffffffffffffffffffff021916908373ffffffffffffffffffffffffffffffffffffffff16021790555073e41d2489571d322189246dafa5ebde1f4699f498602760006101000a81548173ffffffffffffffffffffffffffffffffffffffff021916908373ffffffffffffffffffffffffffffffffffffffff16021790555073c011a73ee8576fb46f5e1c5751ca3b9fe0af2a6f602860006101000a81548173ffffffffffffffffffffffffffffffffffffffff021916908373ffffffffffffffffffffffffffffffffffffffff160217905550732260fac5e5542a773aa44fbcfedf7c193bc2c599602960006101000a81548173ffffffffffffffffffffffffffffffffffffffff021916908373ffffffffffffffffffffffffffffffffffffffff16021790555062000d27565b600033905090565b6159388062000d376000396000f3fe608060405234801561001057600080fd5b50600436106107d15760003560e01c806378226b4111610400578063b548780111610220578063d2db39fe11610130578063e9885aeb116100c3578063f53a062811610092578063f53a06281461171c578063f60a15ed14611738578063f82ce27d14611742578063f8b5fff014611760578063ff3c269e1461177e576107d1565b8063e9885aeb146116aa578063eb22a022146116c6578063f2fde38b146116e4578063f4069cba14611700576107d1565b8063dae180b8116100ff578063dae180b814611634578063e1f2aeff14611652578063e49f09e414611670578063e8d791481461168c576107d1565b8063d2db39fe146115c0578063d6a79ada146115dc578063d9c75e37146115f8578063dada70dc14611616576107d1565b8063bfd5b402116101b3578063c6882b7411610182578063c6882b741461152e578063c6b0d25f1461154c578063c9f8217014611568578063ccc4168114611586578063cda08710146115a2576107d1565b8063bfd5b402146114ba578063c043fca2146114d6578063c30c7cae146114f4578063c552934d14611512576107d1565b8063bcbe1b52116101ef578063bcbe1b5214611444578063bdbfcd1c14611462578063be2134eb14611480578063bfaf715b1461149e576107d1565b8063b5487801146113d0578063b72d34c2146113ee578063b74d4f311461140a578063bb540c8214611426576107d1565b80638f32d59b1161031b578063a22db74c116102ae578063ad9a5e2a1161027d578063ad9a5e2a1461133e578063aee7b9f51461135a578063b0ac4a7314611378578063b35946e214611394578063b4650bf7146113b2576107d1565b8063a22db74c146112b4578063a37b9e7f146112d2578063a747b93b146112f0578063aa00070b14611320576107d1565b8063983a97d9116102ea578063983a97d91461123357806398df5ccf1461125c5780639be0587e14611278578063a0bc8d5314611296576107d1565b80638f32d59b146111bb57806390b2ee81146111d957806397c193c5146111f7578063982e2adf14611215576107d1565b8063832b4b0311610393578063878f760311610362578063878f76031461114357806389257a1214611161578063892eac131461117f5780638da5cb5b1461119d576107d1565b8063832b4b03146110bd57806383deca3d146110db578063857c3c9b1461110b57806386bbe19614611127576107d1565b80637f8e4f64116103cf5780637f8e4f641461102c578063812adb061461104a57806381d24d8d146110665780638264d10914611096576107d1565b806378226b4114610fb5578063793957b714610fd15780637cde729f14610fed5780637dc0d1d01461100e576107d1565b80633cf1e7b8116105f65780634e9a10161161050657806361fd719411610499578063693d42e711610468578063693d42e714610f35578063715018a614610f5357806372142a2b14610f5d5780637352023f14610f7b578063750da89914610f99576107d1565b806361fd719414610ebd578063638aa95b14610edb57806363a6894014610ef9578063653d8ad914610f17576107d1565b80635af11ab1116104d55780635af11ab114610e455780635ce7174f14610e635780635d5bd5d314610e815780636109682014610e9f576107d1565b80634e9a101614610dcf5780635309d95214610ded578063536f263214610e095780635ac1baa914610e27576107d1565b806344e258b4116105895780634907c7ae116105585780634907c7ae14610d3d57806349386b5e14610d5b5780634958aa0714610d795780634d2cd8ab14610d955780634e24f77f14610db3576107d1565b806344e258b414610cac578063454ccd7114610cdc578063470bce8014610d0157806348ccda3c14610d1f576107d1565b806341976e09116105c557806341976e0914610c24578063429db17a14610c5457806343d39c8b14610c7057806343e8b0be14610c8e576107d1565b80633cf1e7b814610bae5780633f8ce23f14610bcc5780633f9c862214610be85780633fa6a66b14610c06576107d1565b80631c384781116106f15780632e163c86116106845780633196ebbd116106535780633196ebbd14610b1a578063354c671714610b3857806335b3744214610b5657806338118ab414610b7457806339ec407b14610b90576107d1565b80632e163c8614610aa65780632e8d6e1814610ac25780632ea3546014610ade5780633151a24514610afc576107d1565b806325e079b1116106c057806325e079b114610a345780632735b36314610a5057806328e8452d14610a6c5780632c7a5ae414610a8a576107d1565b80631c384781146109be5780631cc16a6a146109da57806322cc56d9146109f8578063243d665914610a16576107d1565b8063101b56681161076957806318b3b5091161073857806318b3b50914610936578063192a9861146109545780631b1be2bf146109845780631b856311146109a2576107d1565b8063101b5668146108c0578063106f39d1146108dc57806310b4acdc146108fa5780631800298314610918576107d1565b80630b58a7a3116107a55780630b58a7a31461084a5780630dc00a37146108685780630dc0849a146108845780630e1e23e2146108a2576107d1565b8062e4768b146107d657806302c93c70146107f2578063033672b71461081057806304eb246d1461082c575b600080fd5b6107f060048036036107eb91908101906150e7565b61179c565b005b6107fa61183b565b604051610807919061550a565b60405180910390f35b61082a60048036036108259190810190615095565b61186d565b005b610834611908565b6040516108419190615468565b60405180910390f35b610852611ab9565b60405161085f9190615409565b60405180910390f35b610882600480360361087d9190810190615095565b611adf565b005b61088c611b7a565b6040516108999190615409565b60405180910390f35b6108aa611ba0565b6040516108b7919061550a565b60405180910390f35b6108da60048036036108d59190810190615095565b611bd2565b005b6108e4611c6d565b6040516108f1919061550a565b60405180910390f35b610902611c9f565b60405161090f919061550a565b60405180910390f35b610920611cd1565b60405161092d919061550a565b60405180910390f35b61093e611d03565b60405161094b9190615409565b60405180910390f35b61096e60048036036109699190810190615095565b611d29565b60405161097b919061550a565b60405180910390f35b61098c611e75565b6040516109999190615409565b60405180910390f35b6109bc60048036036109b79190810190615095565b611e9b565b005b6109d860048036036109d39190810190615095565b611f36565b005b6109e2611fd1565b6040516109ef9190615409565b60405180910390f35b610a00611ff7565b604051610a0d919061550a565b60405180910390f35b610a1e612029565b604051610a2b919061550a565b60405180910390f35b610a4e6004803603610a499190810190615095565b61205b565b005b610a6a6004803603610a659190810190615095565b6120f6565b005b610a74612191565b604051610a819190615409565b60405180910390f35b610aa46004803603610a9f9190810190615095565b6121b7565b005b610ac06004803603610abb9190810190615095565b612252565b005b610adc6004803603610ad7919081019061514c565b6122ed565b005b610ae6612453565b604051610af3919061550a565b60405180910390f35b610b04612485565b604051610b11919061550a565b60405180910390f35b610b226124b7565b604051610b2f919061550a565b60405180910390f35b610b406124e9565b604051610b4d9190615409565b60405180910390f35b610b5e61250f565b604051610b6b919061550a565b60405180910390f35b610b8e6004803603610b899190810190615095565b612541565b005b610b986125dc565b604051610ba59190615409565b60405180910390f35b610bb6612602565b604051610bc3919061550a565b60405180910390f35b610be66004803603610be19190810190615095565b612634565b005b610bf06126cf565b604051610bfd919061550a565b60405180910390f35b610c0e6126e0565b604051610c1b9190615409565b60405180910390f35b610c3e6004803603610c399190810190615095565b612706565b604051610c4b919061550a565b60405180910390f35b610c6e6004803603610c699190810190615095565b61274f565b005b610c786127ea565b604051610c859190615409565b60405180910390f35b610c96612810565b604051610ca3919061550a565b60405180910390f35b610cc66004803603610cc19190810190615095565b612842565b604051610cd3919061550a565b60405180910390f35b610ce46128de565b604051610cf898979695949392919061556a565b60405180910390f35b610d09612944565b604051610d16919061550a565b60405180910390f35b610d27612955565b604051610d349190615409565b60405180910390f35b610d4561297b565b604051610d52919061550a565b60405180910390f35b610d636129ad565b604051610d709190615409565b60405180910390f35b610d936004803603610d8e9190810190615095565b6129d3565b005b610d9d612a6e565b604051610daa919061550a565b60405180910390f35b610dcd6004803603610dc89190810190615095565b612aa0565b005b610dd7612b3b565b604051610de4919061550a565b60405180910390f35b610e076004803603610e029190810190615095565b612b6d565b005b610e11612c08565b604051610e1e9190615409565b60405180910390f35b610e2f612c2e565b604051610e3c919061550a565b60405180910390f35b610e4d612c60565b604051610e5a919061550a565b60405180910390f35b610e6b612c71565b604051610e78919061550a565b60405180910390f35b610e89612ca3565b604051610e96919061550a565b60405180910390f35b610ea7612cd5565b604051610eb49190615409565b60405180910390f35b610ec5612cfb565b604051610ed29190615409565b60405180910390f35b610ee3612d21565b604051610ef0919061550a565b60405180910390f35b610f01612d53565b604051610f0e9190615409565b60405180910390f35b610f1f612d79565b604051610f2c919061550a565b60405180910390f35b610f3d612d8a565b604051610f4a919061550a565b60405180910390f35b610f5b612dbc565b005b610f65612ec2565b604051610f729190615409565b60405180910390f35b610f83612ee8565b604051610f90919061550a565b60405180910390f35b610fb36004803603610fae9190810190615095565b612f1a565b005b610fcf6004803603610fca9190810190615095565b612fb5565b005b610feb6004803603610fe69190810190615095565b613050565b005b610ff56130eb565b6040516110059493929190615525565b60405180910390f35b61101661311f565b6040516110239190615409565b60405180910390f35b611034613145565b6040516110419190615409565b60405180910390f35b611064600480360361105f9190810190615095565b61316b565b005b611080600480360361107b91908101906151c7565b613206565b60405161108d919061550a565b60405180910390f35b61109e61352f565b6040516110b49a999897969594939291906155e8565b60405180910390f35b6110c56135ae565b6040516110d2919061550a565b60405180910390f35b6110f560048036036110f09190810190615095565b6135e0565b604051611102919061550a565b60405180910390f35b61112560048036036111209190810190615095565b61367a565b005b611141600480360361113c9190810190615095565b613715565b005b61114b6137b0565b6040516111589190615409565b60405180910390f35b6111696137d6565b6040516111769190615409565b60405180910390f35b6111876137fc565b6040516111949190615468565b60405180910390f35b6111a56139ad565b6040516111b29190615409565b60405180910390f35b6111c36139d6565b6040516111d0919061544d565b60405180910390f35b6111e1613a34565b6040516111ee9190615409565b60405180910390f35b6111ff613a5a565b60405161120c9190615409565b60405180910390f35b61121d613a80565b60405161122a9190615409565b60405180910390f35b61123b613aa6565b6040516112539c9b9a99989796959493929190615684565b60405180910390f35b61127660048036036112719190810190615095565b613b3e565b005b611280613bd9565b60405161128d9190615409565b60405180910390f35b61129e613bff565b6040516112ab919061550a565b60405180910390f35b6112bc613c31565b6040516112c99190615409565b60405180910390f35b6112da613c57565b6040516112e79190615409565b60405180910390f35b61130a60048036036113059190810190615095565b613c7d565b604051611317919061550a565b60405180910390f35b611328613cc6565b6040516113359190615409565b60405180910390f35b61135860048036036113539190810190615095565b613cec565b005b611362613d87565b60405161136f919061550a565b60405180910390f35b611392600480360361138d9190810190615095565b613db9565b005b61139c613e54565b6040516113a9919061550a565b60405180910390f35b6113ba613e86565b6040516113c7919061550a565b60405180910390f35b6113d8613eb8565b6040516113e59190615468565b60405180910390f35b61140860048036036114039190810190615095565b614069565b005b611424600480360361141f9190810190615095565b614104565b005b61142e61419f565b60405161143b919061550a565b60405180910390f35b61144c6141d1565b6040516114599190615409565b60405180910390f35b61146a6141f7565b604051611477919061550a565b60405180910390f35b611488614229565b604051611495919061550a565b60405180910390f35b6114b860048036036114b39190810190615095565b61425b565b005b6114d460048036036114cf9190810190615095565b6142f6565b005b6114de614391565b6040516114eb9190615409565b60405180910390f35b6114fc6143b7565b6040516115099190615409565b60405180910390f35b61152c60048036036115279190810190615095565b6143dd565b005b611536614478565b604051611543919061550a565b60405180910390f35b61156660048036036115619190810190615095565b6144aa565b005b611570614545565b60405161157d919061550a565b60405180910390f35b6115a0600480360361159b9190810190615095565b614577565b005b6115aa614612565b6040516115b79190615409565b60405180910390f35b6115da60048036036115d59190810190615095565b614638565b005b6115f660048036036115f19190810190615095565b6146d3565b005b61160061476e565b60405161160d9190615409565b60405180910390f35b61161e614794565b60405161162b9190615409565b60405180910390f35b61163c6147ba565b604051611649919061550a565b60405180910390f35b61165a6147ec565b6040516116679190615409565b60405180910390f35b61168a60048036036116859190810190615095565b614812565b005b6116946148ad565b6040516116a1919061550a565b60405180910390f35b6116c460048036036116bf9190810190615095565b6148df565b005b6116ce61497a565b6040516116db9190615409565b60405180910390f35b6116fe60048036036116f99190810190615095565b6149a0565b005b61171a600480360361171591908101906150e7565b6149f3565b005b61173660048036036117319190810190615095565b614a92565b005b611740614b2d565b005b61174a614c3a565b6040516117579190615409565b60405180910390f35b611768614ce1565b6040516117759190615409565b60405180910390f35b611786614d07565b6040516117939190615409565b60405180910390f35b600460009054906101000a900473ffffffffffffffffffffffffffffffffffffffff1673ffffffffffffffffffffffffffffffffffffffff163373ffffffffffffffffffffffffffffffffffffffff1614156118375780600260008473ffffffffffffffffffffffffffffffffffffffff1673ffffffffffffffffffffffffffffffffffffffff168152602001908152602001600020819055505b5050565b6000611868601d60009054906101000a900473ffffffffffffffffffffffffffffffffffffffff16611d29565b905090565b600460009054906101000a900473ffffffffffffffffffffffffffffffffffffffff1673ffffffffffffffffffffffffffffffffffffffff163373ffffffffffffffffffffffffffffffffffffffff1614156119055780600d60006101000a81548173ffffffffffffffffffffffffffffffffffffffff021916908373ffffffffffffffffffffffffffffffffffffffff1602179055505b50565b606060008090506000611919612453565b905081811115611927578091505b6000611931611c6d565b90508281111561193f578092505b60006119496126cf565b905083811115611957578093505b60006119616124b7565b90508481111561196f578094505b60606040518060400160405280600481526020017f6e6f6e65000000000000000000000000000000000000000000000000000000008152509050848614156119ea576040518060400160405280600881526020017f436f6d706f756e6400000000000000000000000000000000000000000000000081525090505b83861415611a2b576040518060400160405280600781526020017f46756c6372756d0000000000000000000000000000000000000000000000000081525090505b82861415611a6c576040518060400160405280600481526020017f645964580000000000000000000000000000000000000000000000000000000081525090505b81861415611aad576040518060400160405280600481526020017f416176650000000000000000000000000000000000000000000000000000000081525090505b80965050505050505090565b601b60009054906101000a900473ffffffffffffffffffffffffffffffffffffffff1681565b600460009054906101000a900473ffffffffffffffffffffffffffffffffffffffff1673ffffffffffffffffffffffffffffffffffffffff163373ffffffffffffffffffffffffffffffffffffffff161415611b775780602360006101000a81548173ffffffffffffffffffffffffffffffffffffffff021916908373ffffffffffffffffffffffffffffffffffffffff1602179055505b50565b601d60009054906101000a900473ffffffffffffffffffffffffffffffffffffffff1681565b6000611bcd601960009054906101000a900473ffffffffffffffffffffffffffffffffffffffff166135e0565b905090565b600460009054906101000a900473ffffffffffffffffffffffffffffffffffffffff1673ffffffffffffffffffffffffffffffffffffffff163373ffffffffffffffffffffffffffffffffffffffff161415611c6a5780601e60006101000a81548173ffffffffffffffffffffffffffffffffffffffff021916908373ffffffffffffffffffffffffffffffffffffffff1602179055505b50565b6000611c9a601460009054906101000a900473ffffffffffffffffffffffffffffffffffffffff166135e0565b905090565b6000611ccc600860009054906101000a900473ffffffffffffffffffffffffffffffffffffffff16612842565b905090565b6000611cfe600a60009054906101000a900473ffffffffffffffffffffffffffffffffffffffff16612842565b905090565b601860009054906101000a900473ffffffffffffffffffffffffffffffffffffffff1681565b600080600660009054906101000a900473ffffffffffffffffffffffffffffffffffffffff1673ffffffffffffffffffffffffffffffffffffffff1663ed6ff7606040518163ffffffff1660e01b815260040160206040518083038186803b158015611d9457600080fd5b505afa158015611da8573d6000803e3d6000fd5b505050506040513d601f19601f82011682018060405250611dcc91908101906150be565b9050611e6d633b9aca008273ffffffffffffffffffffffffffffffffffffffff1663c540148e866040518263ffffffff1660e01b8152600401611e0f9190615409565b60206040518083038186803b158015611e2757600080fd5b505afa158015611e3b573d6000803e3d6000fd5b505050506040513d601f19601f82011682018060405250611e5f91908101906151f0565b614d2d90919063ffffffff16565b915050919050565b601c60009054906101000a900473ffffffffffffffffffffffffffffffffffffffff1681565b600460009054906101000a900473ffffffffffffffffffffffffffffffffffffffff1673ffffffffffffffffffffffffffffffffffffffff163373ffffffffffffffffffffffffffffffffffffffff161415611f335780601960006101000a81548173ffffffffffffffffffffffffffffffffffffffff021916908373ffffffffffffffffffffffffffffffffffffffff1602179055505b50565b600460009054906101000a900473ffffffffffffffffffffffffffffffffffffffff1673ffffffffffffffffffffffffffffffffffffffff163373ffffffffffffffffffffffffffffffffffffffff161415611fce5780600b60006101000a81548173ffffffffffffffffffffffffffffffffffffffff021916908373ffffffffffffffffffffffffffffffffffffffff1602179055505b50565b601260009054906101000a900473ffffffffffffffffffffffffffffffffffffffff1681565b6000612024601560009054906101000a900473ffffffffffffffffffffffffffffffffffffffff166135e0565b905090565b6000612056601a60009054906101000a900473ffffffffffffffffffffffffffffffffffffffff16611d29565b905090565b600460009054906101000a900473ffffffffffffffffffffffffffffffffffffffff1673ffffffffffffffffffffffffffffffffffffffff163373ffffffffffffffffffffffffffffffffffffffff1614156120f35780601d60006101000a81548173ffffffffffffffffffffffffffffffffffffffff021916908373ffffffffffffffffffffffffffffffffffffffff1602179055505b50565b600460009054906101000a900473ffffffffffffffffffffffffffffffffffffffff1673ffffffffffffffffffffffffffffffffffffffff163373ffffffffffffffffffffffffffffffffffffffff16141561218e5780601860006101000a81548173ffffffffffffffffffffffffffffffffffffffff021916908373ffffffffffffffffffffffffffffffffffffffff1602179055505b50565b600d60009054906101000a900473ffffffffffffffffffffffffffffffffffffffff1681565b600460009054906101000a900473ffffffffffffffffffffffffffffffffffffffff1673ffffffffffffffffffffffffffffffffffffffff163373ffffffffffffffffffffffffffffffffffffffff16141561224f5780600560006101000a81548173ffffffffffffffffffffffffffffffffffffffff021916908373ffffffffffffffffffffffffffffffffffffffff1602179055505b50565b600460009054906101000a900473ffffffffffffffffffffffffffffffffffffffff1673ffffffffffffffffffffffffffffffffffffffff163373ffffffffffffffffffffffffffffffffffffffff1614156122ea5780600960006101000a81548173ffffffffffffffffffffffffffffffffffffffff021916908373ffffffffffffffffffffffffffffffffffffffff1602179055505b50565b6122f56139d6565b612334576040517f08c379a000000000000000000000000000000000000000000000000000000000815260040161232b906154ea565b60405180910390fd5b60008173ffffffffffffffffffffffffffffffffffffffff166370a08231306040518263ffffffff1660e01b815260040161236f9190615409565b60206040518083038186803b15801561238757600080fd5b505afa15801561239b573d6000803e3d6000fd5b505050506040513d601f19601f820116820180604052506123bf91908101906151f0565b90508173ffffffffffffffffffffffffffffffffffffffff1663a9059cbb33836040518363ffffffff1660e01b81526004016123fc929190615424565b602060405180830381600087803b15801561241657600080fd5b505af115801561242a573d6000803e3d6000fd5b505050506040513d601f19601f8201168201806040525061244e9190810190615123565b505050565b6000612480600c60009054906101000a900473ffffffffffffffffffffffffffffffffffffffff16612842565b905090565b60006124b2602260009054906101000a900473ffffffffffffffffffffffffffffffffffffffff16611d29565b905090565b60006124e4601c60009054906101000a900473ffffffffffffffffffffffffffffffffffffffff16611d29565b905090565b602360009054906101000a900473ffffffffffffffffffffffffffffffffffffffff1681565b600061253c601b60009054906101000a900473ffffffffffffffffffffffffffffffffffffffff16611d29565b905090565b600460009054906101000a900473ffffffffffffffffffffffffffffffffffffffff1673ffffffffffffffffffffffffffffffffffffffff163373ffffffffffffffffffffffffffffffffffffffff1614156125d95780600f60006101000a81548173ffffffffffffffffffffffffffffffffffffffff021916908373ffffffffffffffffffffffffffffffffffffffff1602179055505b50565b601a60009054906101000a900473ffffffffffffffffffffffffffffffffffffffff1681565b600061262f601660009054906101000a900473ffffffffffffffffffffffffffffffffffffffff166135e0565b905090565b600460009054906101000a900473ffffffffffffffffffffffffffffffffffffffff1673ffffffffffffffffffffffffffffffffffffffff163373ffffffffffffffffffffffffffffffffffffffff1614156126cc5780602460006101000a81548173ffffffffffffffffffffffffffffffffffffffff021916908373ffffffffffffffffffffffffffffffffffffffff1602179055505b50565b60006126db6002613206565b905090565b601460009054906101000a900473ffffffffffffffffffffffffffffffffffffffff1681565b6000600260008373ffffffffffffffffffffffffffffffffffffffff1673ffffffffffffffffffffffffffffffffffffffff168152602001908152602001600020549050919050565b600460009054906101000a900473ffffffffffffffffffffffffffffffffffffffff1673ffffffffffffffffffffffffffffffffffffffff163373ffffffffffffffffffffffffffffffffffffffff1614156127e75780601560006101000a81548173ffffffffffffffffffffffffffffffffffffffff021916908373ffffffffffffffffffffffffffffffffffffffff1602179055505b50565b601960009054906101000a900473ffffffffffffffffffffffffffffffffffffffff1681565b600061283d601760009054906101000a900473ffffffffffffffffffffffffffffffffffffffff166135e0565b905090565b60006128d7622014808373ffffffffffffffffffffffffffffffffffffffff1663ae9d70b06040518163ffffffff1660e01b815260040160206040518083038186803b15801561289157600080fd5b505afa1580156128a5573d6000803e3d6000fd5b505050506040513d601f19601f820116820180604052506128c991908101906151f0565b614d7790919063ffffffff16565b9050919050565b6000806000806000806000806128f2612a6e565b6128fa611c9f565b612902613d87565b61290a611cd1565b612912612d21565b61291a612453565b6129226147ba565b61292a614545565b975097509750975097509750975097509091929394959697565b60006129506003613206565b905090565b600660009054906101000a900473ffffffffffffffffffffffffffffffffffffffff1681565b60006129a8602360009054906101000a900473ffffffffffffffffffffffffffffffffffffffff16611d29565b905090565b602760009054906101000a900473ffffffffffffffffffffffffffffffffffffffff1681565b600460009054906101000a900473ffffffffffffffffffffffffffffffffffffffff1673ffffffffffffffffffffffffffffffffffffffff163373ffffffffffffffffffffffffffffffffffffffff161415612a6b5780602860006101000a81548173ffffffffffffffffffffffffffffffffffffffff021916908373ffffffffffffffffffffffffffffffffffffffff1602179055505b50565b6000612a9b600760009054906101000a900473ffffffffffffffffffffffffffffffffffffffff16612842565b905090565b600460009054906101000a900473ffffffffffffffffffffffffffffffffffffffff1673ffffffffffffffffffffffffffffffffffffffff163373ffffffffffffffffffffffffffffffffffffffff161415612b385780602760006101000a81548173ffffffffffffffffffffffffffffffffffffffff021916908373ffffffffffffffffffffffffffffffffffffffff1602179055505b50565b6000612b68602860009054906101000a900473ffffffffffffffffffffffffffffffffffffffff16611d29565b905090565b600460009054906101000a900473ffffffffffffffffffffffffffffffffffffffff1673ffffffffffffffffffffffffffffffffffffffff163373ffffffffffffffffffffffffffffffffffffffff161415612c055780601b60006101000a81548173ffffffffffffffffffffffffffffffffffffffff021916908373ffffffffffffffffffffffffffffffffffffffff1602179055505b50565b601e60009054906101000a900473ffffffffffffffffffffffffffffffffffffffff1681565b6000612c5b601e60009054906101000a900473ffffffffffffffffffffffffffffffffffffffff16611d29565b905090565b6000612c6c6000613206565b905090565b6000612c9e602060009054906101000a900473ffffffffffffffffffffffffffffffffffffffff16611d29565b905090565b6000612cd0601860009054906101000a900473ffffffffffffffffffffffffffffffffffffffff166135e0565b905090565b600960009054906101000a900473ffffffffffffffffffffffffffffffffffffffff1681565b602860009054906101000a900473ffffffffffffffffffffffffffffffffffffffff1681565b6000612d4e600b60009054906101000a900473ffffffffffffffffffffffffffffffffffffffff16612842565b905090565b601160009054906101000a900473ffffffffffffffffffffffffffffffffffffffff1681565b6000612d856001613206565b905090565b6000612db7602460009054906101000a900473ffffffffffffffffffffffffffffffffffffffff16611d29565b905090565b612dc46139d6565b612e03576040517f08c379a0000000000000000000000000000000000000000000000000000000008152600401612dfa906154ea565b60405180910390fd5b600073ffffffffffffffffffffffffffffffffffffffff166000809054906101000a900473ffffffffffffffffffffffffffffffffffffffff1673ffffffffffffffffffffffffffffffffffffffff167f8be0079c531659141344cd1fd0a4f28419497f9722a3daafe3b4186f6b6457e060405160405180910390a360008060006101000a81548173ffffffffffffffffffffffffffffffffffffffff021916908373ffffffffffffffffffffffffffffffffffffffff160217905550565b600860009054906101000a900473ffffffffffffffffffffffffffffffffffffffff1681565b6000612f15601060009054906101000a900473ffffffffffffffffffffffffffffffffffffffff166135e0565b905090565b600460009054906101000a900473ffffffffffffffffffffffffffffffffffffffff1673ffffffffffffffffffffffffffffffffffffffff163373ffffffffffffffffffffffffffffffffffffffff161415612fb25780601460006101000a81548173ffffffffffffffffffffffffffffffffffffffff021916908373ffffffffffffffffffffffffffffffffffffffff1602179055505b50565b600460009054906101000a900473ffffffffffffffffffffffffffffffffffffffff1673ffffffffffffffffffffffffffffffffffffffff163373ffffffffffffffffffffffffffffffffffffffff16141561304d5780600e60006101000a81548173ffffffffffffffffffffffffffffffffffffffff021916908373ffffffffffffffffffffffffffffffffffffffff1602179055505b50565b600460009054906101000a900473ffffffffffffffffffffffffffffffffffffffff1673ffffffffffffffffffffffffffffffffffffffff163373ffffffffffffffffffffffffffffffffffffffff1614156130e85780601f60006101000a81548173ffffffffffffffffffffffffffffffffffffffff021916908373ffffffffffffffffffffffffffffffffffffffff1602179055505b50565b6000806000806130f9612d79565b613101612c60565b6131096126cf565b613111612944565b935093509350935090919293565b600460009054906101000a900473ffffffffffffffffffffffffffffffffffffffff1681565b602560009054906101000a900473ffffffffffffffffffffffffffffffffffffffff1681565b600460009054906101000a900473ffffffffffffffffffffffffffffffffffffffff1673ffffffffffffffffffffffffffffffffffffffff163373ffffffffffffffffffffffffffffffffffffffff1614156132035780600660006101000a81548173ffffffffffffffffffffffffffffffffffffffff021916908373ffffffffffffffffffffffffffffffffffffffff1602179055505b50565b600080600560009054906101000a900473ffffffffffffffffffffffffffffffffffffffff1673ffffffffffffffffffffffffffffffffffffffff1663fd47eda6846040518263ffffffff1660e01b8152600401613264919061550a565b60206040518083038186803b15801561327c57600080fd5b505afa158015613290573d6000803e3d6000fd5b505050506040513d601f19601f820116820180604052506132b4919081019061519e565b60000151905060006301e28500820290506000600560009054906101000a900473ffffffffffffffffffffffffffffffffffffffff1673ffffffffffffffffffffffffffffffffffffffff1663cb04a34c866040518263ffffffff1660e01b8152600401613322919061550a565b604080518083038186803b15801561333957600080fd5b505afa15801561334d573d6000803e3d6000fd5b505050506040513d601f19601f820116820180604052506133719190810190615175565b600001516fffffffffffffffffffffffffffffffff1690506000600560009054906101000a900473ffffffffffffffffffffffffffffffffffffffff1673ffffffffffffffffffffffffffffffffffffffff1663cb04a34c876040518263ffffffff1660e01b81526004016133e6919061550a565b604080518083038186803b1580156133fd57600080fd5b505afa158015613411573d6000803e3d6000fd5b505050506040513d601f19601f820116820180604052506134359190810190615175565b602001516fffffffffffffffffffffffffffffffff16905060008160015484028161345c57fe5b0490506000600154600560009054906101000a900473ffffffffffffffffffffffffffffffffffffffff1673ffffffffffffffffffffffffffffffffffffffff1663e55202286040518163ffffffff1660e01b815260040160206040518083038186803b1580156134cc57600080fd5b505afa1580156134e0573d6000803e3d6000fd5b505050506040513d601f19601f82011682018060405250613504919081019061519e565b600001516001548488028161351557fe5b04028161351e57fe5b049050809650505050505050919050565b6000806000806000806000806000806135466141f7565b61354e612ee8565b61355661419f565b61355e613e54565b613566611c6d565b61356e611ff7565b613576612602565b61357e612810565b613586612ca3565b61358e611ba0565b995099509950995099509950995099509950995090919293949596979899565b60006135db601f60009054906101000a900473ffffffffffffffffffffffffffffffffffffffff16611d29565b905090565b600061367360648373ffffffffffffffffffffffffffffffffffffffff166309ec6b6b6040518163ffffffff1660e01b815260040160206040518083038186803b15801561362d57600080fd5b505afa158015613641573d6000803e3d6000fd5b505050506040513d601f19601f8201168201806040525061366591908101906151f0565b614d2d90919063ffffffff16565b9050919050565b600460009054906101000a900473ffffffffffffffffffffffffffffffffffffffff1673ffffffffffffffffffffffffffffffffffffffff163373ffffffffffffffffffffffffffffffffffffffff1614156137125780601760006101000a81548173ffffffffffffffffffffffffffffffffffffffff021916908373ffffffffffffffffffffffffffffffffffffffff1602179055505b50565b600460009054906101000a900473ffffffffffffffffffffffffffffffffffffffff1673ffffffffffffffffffffffffffffffffffffffff163373ffffffffffffffffffffffffffffffffffffffff1614156137ad5780600c60006101000a81548173ffffffffffffffffffffffffffffffffffffffff021916908373ffffffffffffffffffffffffffffffffffffffff1602179055505b50565b600760009054906101000a900473ffffffffffffffffffffffffffffffffffffffff1681565b602160009054906101000a900473ffffffffffffffffffffffffffffffffffffffff1681565b60606000809050600061380d613d87565b90508181111561381b578091505b6000613825611ff7565b905082811115613833578092505b600061383d612c60565b90508381111561384b578093505b60006138556148ad565b905084811115613863578094505b60606040518060400160405280600481526020017f6e6f6e65000000000000000000000000000000000000000000000000000000008152509050848614156138de576040518060400160405280600881526020017f436f6d706f756e6400000000000000000000000000000000000000000000000081525090505b8386141561391f576040518060400160405280600781526020017f46756c6372756d0000000000000000000000000000000000000000000000000081525090505b82861415613960576040518060400160405280600481526020017f645964580000000000000000000000000000000000000000000000000000000081525090505b818614156139a1576040518060400160405280600481526020017f416176650000000000000000000000000000000000000000000000000000000081525090505b80965050505050505090565b60008060009054906101000a900473ffffffffffffffffffffffffffffffffffffffff16905090565b60008060009054906101000a900473ffffffffffffffffffffffffffffffffffffffff1673ffffffffffffffffffffffffffffffffffffffff16613a18614de7565b73ffffffffffffffffffffffffffffffffffffffff1614905090565b601060009054906101000a900473ffffffffffffffffffffffffffffffffffffffff1681565b602460009054906101000a900473ffffffffffffffffffffffffffffffffffffffff1681565b602960009054906101000a900473ffffffffffffffffffffffffffffffffffffffff1681565b600080600080600080600080600080600080613ac0612029565b613ac861250f565b613ad06124b7565b613ad861183b565b613ae0612c2e565b613ae8612c71565b613af06148ad565b613af8612485565b613b0061297b565b613b08612d8a565b613b10613bff565b613b18612b3b565b9b509b509b509b509b509b509b509b509b509b509b509b50909192939495969798999a9b565b600460009054906101000a900473ffffffffffffffffffffffffffffffffffffffff1673ffffffffffffffffffffffffffffffffffffffff163373ffffffffffffffffffffffffffffffffffffffff161415613bd65780602960006101000a81548173ffffffffffffffffffffffffffffffffffffffff021916908373ffffffffffffffffffffffffffffffffffffffff1602179055505b50565b601560009054906101000a900473ffffffffffffffffffffffffffffffffffffffff1681565b6000613c2c602760009054906101000a900473ffffffffffffffffffffffffffffffffffffffff16611d29565b905090565b600f60009054906101000a900473ffffffffffffffffffffffffffffffffffffffff1681565b600c60009054906101000a900473ffffffffffffffffffffffffffffffffffffffff1681565b6000600360008373ffffffffffffffffffffffffffffffffffffffff1673ffffffffffffffffffffffffffffffffffffffff168152602001908152602001600020549050919050565b602060009054906101000a900473ffffffffffffffffffffffffffffffffffffffff1681565b600460009054906101000a900473ffffffffffffffffffffffffffffffffffffffff1673ffffffffffffffffffffffffffffffffffffffff163373ffffffffffffffffffffffffffffffffffffffff161415613d845780600760006101000a81548173ffffffffffffffffffffffffffffffffffffffff021916908373ffffffffffffffffffffffffffffffffffffffff1602179055505b50565b6000613db4600960009054906101000a900473ffffffffffffffffffffffffffffffffffffffff16612842565b905090565b600460009054906101000a900473ffffffffffffffffffffffffffffffffffffffff1673ffffffffffffffffffffffffffffffffffffffff163373ffffffffffffffffffffffffffffffffffffffff161415613e515780601060006101000a81548173ffffffffffffffffffffffffffffffffffffffff021916908373ffffffffffffffffffffffffffffffffffffffff1602179055505b50565b6000613e81601360009054906101000a900473ffffffffffffffffffffffffffffffffffffffff166135e0565b905090565b6000613eb3602660009054906101000a900473ffffffffffffffffffffffffffffffffffffffff16611d29565b905090565b606060008090506000613ec9612a6e565b905081811115613ed7578091505b6000613ee1612810565b905082811115613eef578092505b6000613ef9612944565b905083811115613f07578093505b6000613f11612029565b905084811115613f1f578094505b60606040518060400160405280600481526020017f6e6f6e6500000000000000000000000000000000000000000000000000000000815250905084861415613f9a576040518060400160405280600881526020017f436f6d706f756e6400000000000000000000000000000000000000000000000081525090505b83861415613fdb576040518060400160405280600781526020017f46756c6372756d0000000000000000000000000000000000000000000000000081525090505b8286141561401c576040518060400160405280600481526020017f645964580000000000000000000000000000000000000000000000000000000081525090505b8186141561405d576040518060400160405280600481526020017f416176650000000000000000000000000000000000000000000000000000000081525090505b80965050505050505090565b600460009054906101000a900473ffffffffffffffffffffffffffffffffffffffff1673ffffffffffffffffffffffffffffffffffffffff163373ffffffffffffffffffffffffffffffffffffffff1614156141015780602060006101000a81548173ffffffffffffffffffffffffffffffffffffffff021916908373ffffffffffffffffffffffffffffffffffffffff1602179055505b50565b600460009054906101000a900473ffffffffffffffffffffffffffffffffffffffff1673ffffffffffffffffffffffffffffffffffffffff163373ffffffffffffffffffffffffffffffffffffffff16141561419c5780600860006101000a81548173ffffffffffffffffffffffffffffffffffffffff021916908373ffffffffffffffffffffffffffffffffffffffff1602179055505b50565b60006141cc601160009054906101000a900473ffffffffffffffffffffffffffffffffffffffff166135e0565b905090565b602660009054906101000a900473ffffffffffffffffffffffffffffffffffffffff1681565b6000614224600f60009054906101000a900473ffffffffffffffffffffffffffffffffffffffff166135e0565b905090565b6000614256602560009054906101000a900473ffffffffffffffffffffffffffffffffffffffff16611d29565b905090565b600460009054906101000a900473ffffffffffffffffffffffffffffffffffffffff1673ffffffffffffffffffffffffffffffffffffffff163373ffffffffffffffffffffffffffffffffffffffff1614156142f35780602560006101000a81548173ffffffffffffffffffffffffffffffffffffffff021916908373ffffffffffffffffffffffffffffffffffffffff1602179055505b50565b600460009054906101000a900473ffffffffffffffffffffffffffffffffffffffff1673ffffffffffffffffffffffffffffffffffffffff163373ffffffffffffffffffffffffffffffffffffffff16141561438e5780602660006101000a81548173ffffffffffffffffffffffffffffffffffffffff021916908373ffffffffffffffffffffffffffffffffffffffff1602179055505b50565b600560009054906101000a900473ffffffffffffffffffffffffffffffffffffffff1681565b601360009054906101000a900473ffffffffffffffffffffffffffffffffffffffff1681565b600460009054906101000a900473ffffffffffffffffffffffffffffffffffffffff1673ffffffffffffffffffffffffffffffffffffffff163373ffffffffffffffffffffffffffffffffffffffff1614156144755780601660006101000a81548173ffffffffffffffffffffffffffffffffffffffff021916908373ffffffffffffffffffffffffffffffffffffffff1602179055505b50565b60006144a5602960009054906101000a900473ffffffffffffffffffffffffffffffffffffffff16611d29565b905090565b600460009054906101000a900473ffffffffffffffffffffffffffffffffffffffff1673ffffffffffffffffffffffffffffffffffffffff163373ffffffffffffffffffffffffffffffffffffffff1614156145425780600a60006101000a81548173ffffffffffffffffffffffffffffffffffffffff021916908373ffffffffffffffffffffffffffffffffffffffff1602179055505b50565b6000614572600e60009054906101000a900473ffffffffffffffffffffffffffffffffffffffff16612842565b905090565b600460009054906101000a900473ffffffffffffffffffffffffffffffffffffffff1673ffffffffffffffffffffffffffffffffffffffff163373ffffffffffffffffffffffffffffffffffffffff16141561460f5780602160006101000a81548173ffffffffffffffffffffffffffffffffffffffff021916908373ffffffffffffffffffffffffffffffffffffffff1602179055505b50565b601660009054906101000a900473ffffffffffffffffffffffffffffffffffffffff1681565b600460009054906101000a900473ffffffffffffffffffffffffffffffffffffffff1673ffffffffffffffffffffffffffffffffffffffff163373ffffffffffffffffffffffffffffffffffffffff1614156146d05780602260006101000a81548173ffffffffffffffffffffffffffffffffffffffff021916908373ffffffffffffffffffffffffffffffffffffffff1602179055505b50565b600460009054906101000a900473ffffffffffffffffffffffffffffffffffffffff1673ffffffffffffffffffffffffffffffffffffffff163373ffffffffffffffffffffffffffffffffffffffff16141561476b5780601a60006101000a81548173ffffffffffffffffffffffffffffffffffffffff021916908373ffffffffffffffffffffffffffffffffffffffff1602179055505b50565b600a60009054906101000a900473ffffffffffffffffffffffffffffffffffffffff1681565b601760009054906101000a900473ffffffffffffffffffffffffffffffffffffffff1681565b60006147e7600d60009054906101000a900473ffffffffffffffffffffffffffffffffffffffff16612842565b905090565b601f60009054906101000a900473ffffffffffffffffffffffffffffffffffffffff1681565b600460009054906101000a900473ffffffffffffffffffffffffffffffffffffffff1673ffffffffffffffffffffffffffffffffffffffff163373ffffffffffffffffffffffffffffffffffffffff1614156148aa5780601360006101000a81548173ffffffffffffffffffffffffffffffffffffffff021916908373ffffffffffffffffffffffffffffffffffffffff1602179055505b50565b60006148da602160009054906101000a900473ffffffffffffffffffffffffffffffffffffffff16611d29565b905090565b600460009054906101000a900473ffffffffffffffffffffffffffffffffffffffff1673ffffffffffffffffffffffffffffffffffffffff163373ffffffffffffffffffffffffffffffffffffffff1614156149775780601160006101000a81548173ffffffffffffffffffffffffffffffffffffffff021916908373ffffffffffffffffffffffffffffffffffffffff1602179055505b50565b600b60009054906101000a900473ffffffffffffffffffffffffffffffffffffffff1681565b6149a86139d6565b6149e7576040517f08c379a00000000000000000000000000000000000000000000000000000000081526004016149de906154ea565b60405180910390fd5b6149f081614def565b50565b600460009054906101000a900473ffffffffffffffffffffffffffffffffffffffff1673ffffffffffffffffffffffffffffffffffffffff163373ffffffffffffffffffffffffffffffffffffffff161415614a8e5780600360008473ffffffffffffffffffffffffffffffffffffffff1673ffffffffffffffffffffffffffffffffffffffff168152602001908152602001600020819055505b5050565b600460009054906101000a900473ffffffffffffffffffffffffffffffffffffffff1673ffffffffffffffffffffffffffffffffffffffff163373ffffffffffffffffffffffffffffffffffffffff161415614b2a5780601c60006101000a81548173ffffffffffffffffffffffffffffffffffffffff021916908373ffffffffffffffffffffffffffffffffffffffff1602179055505b50565b614b356139d6565b614b74576040517f08c379a0000000000000000000000000000000000000000000000000000000008152600401614b6b906154ea565b60405180910390fd5b60003373ffffffffffffffffffffffffffffffffffffffff163073ffffffffffffffffffffffffffffffffffffffff1631604051614bb1906153f4565b60006040518083038185875af1925050503d8060008114614bee576040519150601f19603f3d011682016040523d82523d6000602084013e614bf3565b606091505b5050905080614c37576040517f08c379a0000000000000000000000000000000000000000000000000000000008152600401614c2e906154aa565b60405180910390fd5b50565b6000600660009054906101000a900473ffffffffffffffffffffffffffffffffffffffff1673ffffffffffffffffffffffffffffffffffffffff1663ed6ff7606040518163ffffffff1660e01b815260040160206040518083038186803b158015614ca457600080fd5b505afa158015614cb8573d6000803e3d6000fd5b505050506040513d601f19601f82011682018060405250614cdc91908101906150be565b905090565b600e60009054906101000a900473ffffffffffffffffffffffffffffffffffffffff1681565b602260009054906101000a900473ffffffffffffffffffffffffffffffffffffffff1681565b6000614d6f83836040518060400160405280601a81526020017f536166654d6174683a206469766973696f6e206279207a65726f000000000000815250614f1d565b905092915050565b600080831415614d8a5760009050614de1565b6000828402905082848281614d9b57fe5b0414614ddc576040517f08c379a0000000000000000000000000000000000000000000000000000000008152600401614dd3906154ca565b60405180910390fd5b809150505b92915050565b600033905090565b600073ffffffffffffffffffffffffffffffffffffffff168173ffffffffffffffffffffffffffffffffffffffff161415614e5f576040517f08c379a0000000000000000000000000000000000000000000000000000000008152600401614e569061548a565b60405180910390fd5b8073ffffffffffffffffffffffffffffffffffffffff166000809054906101000a900473ffffffffffffffffffffffffffffffffffffffff1673ffffffffffffffffffffffffffffffffffffffff167f8be0079c531659141344cd1fd0a4f28419497f9722a3daafe3b4186f6b6457e060405160405180910390a3806000806101000a81548173ffffffffffffffffffffffffffffffffffffffff021916908373ffffffffffffffffffffffffffffffffffffffff16021790555050565b60008083118290614f64576040517f08c379a0000000000000000000000000000000000000000000000000000000008152600401614f5b9190615468565b60405180910390fd5b506000838581614f7057fe5b049050809150509392505050565b600081359050614f8d81615882565b92915050565b600081519050614fa281615882565b92915050565b600081519050614fb781615899565b92915050565b600081359050614fcc816158b0565b92915050565b600060408284031215614fe457600080fd5b614fee604061573e565b90506000614ffe84828501615056565b600083015250602061501284828501615056565b60208301525092915050565b60006020828403121561503057600080fd5b61503a602061573e565b9050600061504a84828501615080565b60008301525092915050565b600081519050615065816158c7565b92915050565b60008135905061507a816158de565b92915050565b60008151905061508f816158de565b92915050565b6000602082840312156150a757600080fd5b60006150b584828501614f7e565b91505092915050565b6000602082840312156150d057600080fd5b60006150de84828501614f93565b91505092915050565b600080604083850312156150fa57600080fd5b600061510885828601614f7e565b92505060206151198582860161506b565b9150509250929050565b60006020828403121561513557600080fd5b600061514384828501614fa8565b91505092915050565b60006020828403121561515e57600080fd5b600061516c84828501614fbd565b91505092915050565b60006040828403121561518757600080fd5b600061519584828501614fd2565b91505092915050565b6000602082840312156151b057600080fd5b60006151be8482850161501e565b91505092915050565b6000602082840312156151d957600080fd5b60006151e78482850161506b565b91505092915050565b60006020828403121561520257600080fd5b600061521084828501615080565b91505092915050565b61522281615808565b82525050565b61523181615792565b82525050565b615240816157a4565b82525050565b60006152518261576b565b61525b8185615781565b935061526b81856020860161583e565b61527481615871565b840191505092915050565b600061528c602683615781565b91507f4f776e61626c653a206e6577206f776e657220697320746865207a65726f206160008301527f64647265737300000000000000000000000000000000000000000000000000006020830152604082019050919050565b60006152f2601683615781565b91507f7472616e73666572206f6620455448206661696c6564000000000000000000006000830152602082019050919050565b6000615332602183615781565b91507f536166654d6174683a206d756c7469706c69636174696f6e206f766572666c6f60008301527f77000000000000000000000000000000000000000000000000000000000000006020830152604082019050919050565b6000615398602083615781565b91507f4f776e61626c653a2063616c6c6572206973206e6f7420746865206f776e65726000830152602082019050919050565b60006153d8600083615776565b9150600082019050919050565b6153ee816157fe565b82525050565b60006153ff826153cb565b9150819050919050565b600060208201905061541e6000830184615228565b92915050565b60006040820190506154396000830185615219565b61544660208301846153e5565b9392505050565b60006020820190506154626000830184615237565b92915050565b600060208201905081810360008301526154828184615246565b905092915050565b600060208201905081810360008301526154a38161527f565b9050919050565b600060208201905081810360008301526154c3816152e5565b9050919050565b600060208201905081810360008301526154e381615325565b9050919050565b600060208201905081810360008301526155038161538b565b9050919050565b600060208201905061551f60008301846153e5565b92915050565b600060808201905061553a60008301876153e5565b61554760208301866153e5565b61555460408301856153e5565b61556160608301846153e5565b95945050505050565b600061010082019050615580600083018b6153e5565b61558d602083018a6153e5565b61559a60408301896153e5565b6155a760608301886153e5565b6155b460808301876153e5565b6155c160a08301866153e5565b6155ce60c08301856153e5565b6155db60e08301846153e5565b9998505050505050505050565b6000610140820190506155fe600083018d6153e5565b61560b602083018c6153e5565b615618604083018b6153e5565b615625606083018a6153e5565b61563260808301896153e5565b61563f60a08301886153e5565b61564c60c08301876153e5565b61565960e08301866153e5565b6156676101008301856153e5565b6156756101208301846153e5565b9b9a5050505050505050505050565b60006101808201905061569a600083018f6153e5565b6156a7602083018e6153e5565b6156b4604083018d6153e5565b6156c1606083018c6153e5565b6156ce608083018b6153e5565b6156db60a083018a6153e5565b6156e860c08301896153e5565b6156f560e08301886153e5565b6157036101008301876153e5565b6157116101208301866153e5565b61571f6101408301856153e5565b61572d6101608301846153e5565b9d9c50505050505050505050505050565b6000604051905081810181811067ffffffffffffffff8211171561576157600080fd5b8060405250919050565b600081519050919050565b600081905092915050565b600082825260208201905092915050565b600061579d826157de565b9050919050565b60008115159050919050565b60006157bb82615792565b9050919050565b60006fffffffffffffffffffffffffffffffff82169050919050565b600073ffffffffffffffffffffffffffffffffffffffff82169050919050565b6000819050919050565b60006158138261581a565b9050919050565b60006158258261582c565b9050919050565b6000615837826157de565b9050919050565b60005b8381101561585c578082015181840152602081019050615841565b8381111561586b576000848401525b50505050565b6000601f19601f8301169050919050565b61588b81615792565b811461589657600080fd5b50565b6158a2816157a4565b81146158ad57600080fd5b50565b6158b9816157b0565b81146158c457600080fd5b50565b6158d0816157c2565b81146158db57600080fd5b50565b6158e7816157fe565b81146158f257600080fd5b5056fea365627a7a723158205b339a38c76beadfc541fcf06ed73d5cc41204ac5c9f47fe25622b25f17ad7c66c6578706572696d656e74616cf564736f6c634300050c0040",
  "source": "\r\n// File: @openzeppelin\\contracts\\token\\ERC20\\IERC20.sol\r\n\r\npragma solidity ^0.5.0;\r\n\r\n/**\r\n * @dev Interface of the ERC20 standard as defined in the EIP. Does not include\r\n * the optional functions; to access them see {ERC20Detailed}.\r\n */\r\ninterface IERC20 {\r\n    /**\r\n     * @dev Returns the amount of tokens in existence.\r\n     */\r\n    function totalSupply() external view returns (uint256);\r\n\r\n    /**\r\n     * @dev Returns the amount of tokens owned by `account`.\r\n     */\r\n    function balanceOf(address account) external view returns (uint256);\r\n\r\n    /**\r\n     * @dev Moves `amount` tokens from the caller's account to `recipient`.\r\n     *\r\n     * Returns a boolean value indicating whether the operation succeeded.\r\n     *\r\n     * Emits a {Transfer} event.\r\n     */\r\n    function transfer(address recipient, uint256 amount) external returns (bool);\r\n\r\n    /**\r\n     * @dev Returns the remaining number of tokens that `spender` will be\r\n     * allowed to spend on behalf of `owner` through {transferFrom}. This is\r\n     * zero by default.\r\n     *\r\n     * This value changes when {approve} or {transferFrom} are called.\r\n     */\r\n    function allowance(address owner, address spender) external view returns (uint256);\r\n\r\n    /**\r\n     * @dev Sets `amount` as the allowance of `spender` over the caller's tokens.\r\n     *\r\n     * Returns a boolean value indicating whether the operation succeeded.\r\n     *\r\n     * IMPORTANT: Beware that changing an allowance with this method brings the risk\r\n     * that someone may use both the old and the new allowance by unfortunate\r\n     * transaction ordering. One possible solution to mitigate this race\r\n     * condition is to first reduce the spender's allowance to 0 and set the\r\n     * desired value afterwards:\r\n     * https://github.com/ethereum/EIPs/issues/20#issuecomment-263524729\r\n     *\r\n     * Emits an {Approval} event.\r\n     */\r\n    function approve(address spender, uint256 amount) external returns (bool);\r\n\r\n    /**\r\n     * @dev Moves `amount` tokens from `sender` to `recipient` using the\r\n     * allowance mechanism. `amount` is then deducted from the caller's\r\n     * allowance.\r\n     *\r\n     * Returns a boolean value indicating whether the operation succeeded.\r\n     *\r\n     * Emits a {Transfer} event.\r\n     */\r\n    function transferFrom(address sender, address recipient, uint256 amount) external returns (bool);\r\n\r\n    /**\r\n     * @dev Emitted when `value` tokens are moved from one account (`from`) to\r\n     * another (`to`).\r\n     *\r\n     * Note that `value` may be zero.\r\n     */\r\n    event Transfer(address indexed from, address indexed to, uint256 value);\r\n\r\n    /**\r\n     * @dev Emitted when the allowance of a `spender` for an `owner` is set by\r\n     * a call to {approve}. `value` is the new allowance.\r\n     */\r\n    event Approval(address indexed owner, address indexed spender, uint256 value);\r\n}\r\n\r\n// File: @openzeppelin\\contracts\\GSN\\Context.sol\r\n\r\npragma solidity ^0.5.0;\r\n\r\n/*\r\n * @dev Provides information about the current execution context, including the\r\n * sender of the transaction and its data. While these are generally available\r\n * via msg.sender and msg.data, they should not be accessed in such a direct\r\n * manner, since when dealing with GSN meta-transactions the account sending and\r\n * paying for execution may not be the actual sender (as far as an application\r\n * is concerned).\r\n *\r\n * This contract is only required for intermediate, library-like contracts.\r\n */\r\ncontract Context {\r\n    // Empty internal constructor, to prevent people from mistakenly deploying\r\n    // an instance of this contract, which should be used via inheritance.\r\n    constructor () internal { }\r\n    // solhint-disable-previous-line no-empty-blocks\r\n\r\n    function _msgSender() internal view returns (address payable) {\r\n        return msg.sender;\r\n    }\r\n\r\n    function _msgData() internal view returns (bytes memory) {\r\n        this; // silence state mutability warning without generating bytecode - see https://github.com/ethereum/solidity/issues/2691\r\n        return msg.data;\r\n    }\r\n}\r\n\r\n// File: @openzeppelin\\contracts\\ownership\\Ownable.sol\r\n\r\npragma solidity ^0.5.0;\r\n\r\n/**\r\n * @dev Contract module which provides a basic access control mechanism, where\r\n * there is an account (an owner) that can be granted exclusive access to\r\n * specific functions.\r\n *\r\n * This module is used through inheritance. It will make available the modifier\r\n * `onlyOwner`, which can be applied to your functions to restrict their use to\r\n * the owner.\r\n */\r\ncontract Ownable is Context {\r\n    address private _owner;\r\n\r\n    event OwnershipTransferred(address indexed previousOwner, address indexed newOwner);\r\n\r\n    /**\r\n     * @dev Initializes the contract setting the deployer as the initial owner.\r\n     */\r\n    constructor () internal {\r\n        _owner = _msgSender();\r\n        emit OwnershipTransferred(address(0), _owner);\r\n    }\r\n\r\n    /**\r\n     * @dev Returns the address of the current owner.\r\n     */\r\n    function owner() public view returns (address) {\r\n        return _owner;\r\n    }\r\n\r\n    /**\r\n     * @dev Throws if called by any account other than the owner.\r\n     */\r\n    modifier onlyOwner() {\r\n        require(isOwner(), \"Ownable: caller is not the owner\");\r\n        _;\r\n    }\r\n\r\n    /**\r\n     * @dev Returns true if the caller is the current owner.\r\n     */\r\n    function isOwner() public view returns (bool) {\r\n        return _msgSender() == _owner;\r\n    }\r\n\r\n    /**\r\n     * @dev Leaves the contract without owner. It will not be possible to call\r\n     * `onlyOwner` functions anymore. Can only be called by the current owner.\r\n     *\r\n     * NOTE: Renouncing ownership will leave the contract without an owner,\r\n     * thereby removing any functionality that is only available to the owner.\r\n     */\r\n    function renounceOwnership() public onlyOwner {\r\n        emit OwnershipTransferred(_owner, address(0));\r\n        _owner = address(0);\r\n    }\r\n\r\n    /**\r\n     * @dev Transfers ownership of the contract to a new account (`newOwner`).\r\n     * Can only be called by the current owner.\r\n     */\r\n    function transferOwnership(address newOwner) public onlyOwner {\r\n        _transferOwnership(newOwner);\r\n    }\r\n\r\n    /**\r\n     * @dev Transfers ownership of the contract to a new account (`newOwner`).\r\n     */\r\n    function _transferOwnership(address newOwner) internal {\r\n        require(newOwner != address(0), \"Ownable: new owner is the zero address\");\r\n        emit OwnershipTransferred(_owner, newOwner);\r\n        _owner = newOwner;\r\n    }\r\n}\r\n\r\n// File: @openzeppelin\\contracts\\math\\SafeMath.sol\r\n\r\npragma solidity ^0.5.0;\r\n\r\n/**\r\n * @dev Wrappers over Solidity's arithmetic operations with added overflow\r\n * checks.\r\n *\r\n * Arithmetic operations in Solidity wrap on overflow. This can easily result\r\n * in bugs, because programmers usually assume that an overflow raises an\r\n * error, which is the standard behavior in high level programming languages.\r\n * `SafeMath` restores this intuition by reverting the transaction when an\r\n * operation overflows.\r\n *\r\n * Using this library instead of the unchecked operations eliminates an entire\r\n * class of bugs, so it's recommended to use it always.\r\n */\r\nlibrary SafeMath {\r\n    /**\r\n     * @dev Returns the addition of two unsigned integers, reverting on\r\n     * overflow.\r\n     *\r\n     * Counterpart to Solidity's `+` operator.\r\n     *\r\n     * Requirements:\r\n     * - Addition cannot overflow.\r\n     */\r\n    function add(uint256 a, uint256 b) internal pure returns (uint256) {\r\n        uint256 c = a + b;\r\n        require(c >= a, \"SafeMath: addition overflow\");\r\n\r\n        return c;\r\n    }\r\n\r\n    /**\r\n     * @dev Returns the subtraction of two unsigned integers, reverting on\r\n     * overflow (when the result is negative).\r\n     *\r\n     * Counterpart to Solidity's `-` operator.\r\n     *\r\n     * Requirements:\r\n     * - Subtraction cannot overflow.\r\n     */\r\n    function sub(uint256 a, uint256 b) internal pure returns (uint256) {\r\n        return sub(a, b, \"SafeMath: subtraction overflow\");\r\n    }\r\n\r\n    /**\r\n     * @dev Returns the subtraction of two unsigned integers, reverting with custom message on\r\n     * overflow (when the result is negative).\r\n     *\r\n     * Counterpart to Solidity's `-` operator.\r\n     *\r\n     * Requirements:\r\n     * - Subtraction cannot overflow.\r\n     *\r\n     * _Available since v2.4.0._\r\n     */\r\n    function sub(uint256 a, uint256 b, string memory errorMessage) internal pure returns (uint256) {\r\n        require(b <= a, errorMessage);\r\n        uint256 c = a - b;\r\n\r\n        return c;\r\n    }\r\n\r\n    /**\r\n     * @dev Returns the multiplication of two unsigned integers, reverting on\r\n     * overflow.\r\n     *\r\n     * Counterpart to Solidity's `*` operator.\r\n     *\r\n     * Requirements:\r\n     * - Multiplication cannot overflow.\r\n     */\r\n    function mul(uint256 a, uint256 b) internal pure returns (uint256) {\r\n        // Gas optimization: this is cheaper than requiring 'a' not being zero, but the\r\n        // benefit is lost if 'b' is also tested.\r\n        // See: https://github.com/OpenZeppelin/openzeppelin-contracts/pull/522\r\n        if (a == 0) {\r\n            return 0;\r\n        }\r\n\r\n        uint256 c = a * b;\r\n        require(c / a == b, \"SafeMath: multiplication overflow\");\r\n\r\n        return c;\r\n    }\r\n\r\n    /**\r\n     * @dev Returns the integer division of two unsigned integers. Reverts on\r\n     * division by zero. The result is rounded towards zero.\r\n     *\r\n     * Counterpart to Solidity's `/` operator. Note: this function uses a\r\n     * `revert` opcode (which leaves remaining gas untouched) while Solidity\r\n     * uses an invalid opcode to revert (consuming all remaining gas).\r\n     *\r\n     * Requirements:\r\n     * - The divisor cannot be zero.\r\n     */\r\n    function div(uint256 a, uint256 b) internal pure returns (uint256) {\r\n        return div(a, b, \"SafeMath: division by zero\");\r\n    }\r\n\r\n    /**\r\n     * @dev Returns the integer division of two unsigned integers. Reverts with custom message on\r\n     * division by zero. The result is rounded towards zero.\r\n     *\r\n     * Counterpart to Solidity's `/` operator. Note: this function uses a\r\n     * `revert` opcode (which leaves remaining gas untouched) while Solidity\r\n     * uses an invalid opcode to revert (consuming all remaining gas).\r\n     *\r\n     * Requirements:\r\n     * - The divisor cannot be zero.\r\n     *\r\n     * _Available since v2.4.0._\r\n     */\r\n    function div(uint256 a, uint256 b, string memory errorMessage) internal pure returns (uint256) {\r\n        // Solidity only automatically asserts when dividing by 0\r\n        require(b > 0, errorMessage);\r\n        uint256 c = a / b;\r\n        // assert(a == b * c + a % b); // There is no case in which this doesn't hold\r\n\r\n        return c;\r\n    }\r\n\r\n    /**\r\n     * @dev Returns the remainder of dividing two unsigned integers. (unsigned integer modulo),\r\n     * Reverts when dividing by zero.\r\n     *\r\n     * Counterpart to Solidity's `%` operator. This function uses a `revert`\r\n     * opcode (which leaves remaining gas untouched) while Solidity uses an\r\n     * invalid opcode to revert (consuming all remaining gas).\r\n     *\r\n     * Requirements:\r\n     * - The divisor cannot be zero.\r\n     */\r\n    function mod(uint256 a, uint256 b) internal pure returns (uint256) {\r\n        return mod(a, b, \"SafeMath: modulo by zero\");\r\n    }\r\n\r\n    /**\r\n     * @dev Returns the remainder of dividing two unsigned integers. (unsigned integer modulo),\r\n     * Reverts with custom message when dividing by zero.\r\n     *\r\n     * Counterpart to Solidity's `%` operator. This function uses a `revert`\r\n     * opcode (which leaves remaining gas untouched) while Solidity uses an\r\n     * invalid opcode to revert (consuming all remaining gas).\r\n     *\r\n     * Requirements:\r\n     * - The divisor cannot be zero.\r\n     *\r\n     * _Available since v2.4.0._\r\n     */\r\n    function mod(uint256 a, uint256 b, string memory errorMessage) internal pure returns (uint256) {\r\n        require(b != 0, errorMessage);\r\n        return a % b;\r\n    }\r\n}\r\n\r\n// File: @openzeppelin\\contracts\\utils\\Address.sol\r\n\r\npragma solidity ^0.5.5;\r\n\r\n/**\r\n * @dev Collection of functions related to the address type\r\n */\r\nlibrary Address {\r\n    /**\r\n     * @dev Returns true if `account` is a contract.\r\n     *\r\n     * This test is non-exhaustive, and there may be false-negatives: during the\r\n     * execution of a contract's constructor, its address will be reported as\r\n     * not containing a contract.\r\n     *\r\n     * IMPORTANT: It is unsafe to assume that an address for which this\r\n     * function returns false is an externally-owned account (EOA) and not a\r\n     * contract.\r\n     */\r\n    function isContract(address account) internal view returns (bool) {\r\n        // This method relies in extcodesize, which returns 0 for contracts in\r\n        // construction, since the code is only stored at the end of the\r\n        // constructor execution.\r\n\r\n        // According to EIP-1052, 0x0 is the value returned for not-yet created accounts\r\n        // and 0xc5d2460186f7233c927e7db2dcc703c0e500b653ca82273b7bfad8045d85a470 is returned\r\n        // for accounts without code, i.e. `keccak256('')`\r\n        bytes32 codehash;\r\n        bytes32 accountHash = 0xc5d2460186f7233c927e7db2dcc703c0e500b653ca82273b7bfad8045d85a470;\r\n        // solhint-disable-next-line no-inline-assembly\r\n        assembly { codehash := extcodehash(account) }\r\n        return (codehash != 0x0 && codehash != accountHash);\r\n    }\r\n\r\n    /**\r\n     * @dev Converts an `address` into `address payable`. Note that this is\r\n     * simply a type cast: the actual underlying value is not changed.\r\n     *\r\n     * _Available since v2.4.0._\r\n     */\r\n    function toPayable(address account) internal pure returns (address payable) {\r\n        return address(uint160(account));\r\n    }\r\n\r\n    /**\r\n     * @dev Replacement for Solidity's `transfer`: sends `amount` wei to\r\n     * `recipient`, forwarding all available gas and reverting on errors.\r\n     *\r\n     * https://eips.ethereum.org/EIPS/eip-1884[EIP1884] increases the gas cost\r\n     * of certain opcodes, possibly making contracts go over the 2300 gas limit\r\n     * imposed by `transfer`, making them unable to receive funds via\r\n     * `transfer`. {sendValue} removes this limitation.\r\n     *\r\n     * https://diligence.consensys.net/posts/2019/09/stop-using-soliditys-transfer-now/[Learn more].\r\n     *\r\n     * IMPORTANT: because control is transferred to `recipient`, care must be\r\n     * taken to not create reentrancy vulnerabilities. Consider using\r\n     * {ReentrancyGuard} or the\r\n     * https://solidity.readthedocs.io/en/v0.5.11/security-considerations.html#use-the-checks-effects-interactions-pattern[checks-effects-interactions pattern].\r\n     *\r\n     * _Available since v2.4.0._\r\n     */\r\n    function sendValue(address payable recipient, uint256 amount) internal {\r\n        require(address(this).balance >= amount, \"Address: insufficient balance\");\r\n\r\n        // solhint-disable-next-line avoid-call-value\r\n        (bool success, ) = recipient.call.value(amount)(\"\");\r\n        require(success, \"Address: unable to send value, recipient may have reverted\");\r\n    }\r\n}\r\n\r\n// File: contracts\\OracleStore.sol\r\n\r\npragma solidity >=0.4.21 <0.7.0;\r\npragma experimental ABIEncoderV2;\r\n\r\n\r\n\r\n// Compound\r\ninterface Compound {\r\n  function supply(address asset, uint amount) external returns (uint);\r\n  function withdraw(address asset, uint requestedAmount) external returns (uint);\r\n  function getSupplyBalance(address account, address asset) view external returns (uint);\r\n  function supplyRatePerBlock() external view returns (uint);\r\n  function mint(uint mintAmount) external returns (uint);\r\n  function redeem(uint redeemTokens) external returns (uint);\r\n  function balanceOf(address account) external view returns (uint);\r\n}\r\n\r\n// Fulcrum\r\ninterface Fulcrum {\r\n  function supplyInterestRate() external view returns (uint256);\r\n}\r\n\r\ninterface DyDx {\r\n  struct val {\r\n       uint256 value;\r\n   }\r\n\r\n   struct set {\r\n      uint128 borrow;\r\n      uint128 supply;\r\n  }\r\n\r\n  function getEarningsRate() external view returns (val memory);\r\n  function getMarketInterestRate(uint256 marketId) external view returns (val memory);\r\n  function getMarketTotalPar(uint256 marketId) external view returns (set memory);\r\n}\r\n\r\ninterface LendingPoolAddressesProvider {\r\n    function getLendingPoolCore() external view returns (address);\r\n}\r\n\r\ninterface LendingPoolCore  {\r\n  function getReserveCurrentLiquidityRate(address _reserve)\r\n  external\r\n  view\r\n  returns (\r\n      uint256 liquidityRate\r\n  );\r\n}\r\n\r\ncontract APROracle is Ownable {\r\n  using SafeMath for uint256;\r\n  using Address for address;\r\n\r\n  uint256 DECIMAL = 10 ** 18;\r\n\r\n  mapping(address => uint256) _priceStore;\r\n  mapping(address => uint256) _liquidityStore;\r\n  address public oracle;\r\n\r\n  // MAINNET ADDRESSES\r\n  address public DYDX;\r\n  address public AAVE;\r\n\r\n  // Ease of use functions, can also use generic lookups for new tokens\r\n  address public CDAI;\r\n  address public CBAT;\r\n  address public CETH;\r\n  address public CREP;\r\n  address public CSAI;\r\n  address public CUSDC;\r\n  address public CWBTC;\r\n  address public CZRX;\r\n\r\n  address public IZRX;\r\n  address public IREP;\r\n  address public IKNC;\r\n  address public IBAT;\r\n  address public IWBTC;\r\n  address public IUSDC;\r\n  address public IETH;\r\n  address public ISAI;\r\n  address public IDAI;\r\n  address public ILINK;\r\n  address public ISUSD;\r\n\r\n  address public ADAI;\r\n  address public ATUSD;\r\n  address public AUSDC;\r\n  address public AUSDT;\r\n  address public ASUSD;\r\n  address public ALEND;\r\n  address public ABAT;\r\n  address public AETH;\r\n  address public ALINK;\r\n  address public AKNC;\r\n  address public AREP;\r\n  address public AMKR;\r\n  address public AMANA;\r\n  address public AZRX;\r\n  address public ASNX;\r\n  address public AWBTC;\r\n\r\n  constructor() public {\r\n    oracle = msg.sender;\r\n    DYDX = address(0x1E0447b19BB6EcFdAe1e4AE1694b0C3659614e4e);\r\n    AAVE = address(0x24a42fD28C976A61Df5D00D0599C34c4f90748c8);\r\n\r\n    CDAI = address(0x5d3a536E4D6DbD6114cc1Ead35777bAB948E3643);\r\n    CBAT = address(0x6C8c6b02E7b2BE14d4fA6022Dfd6d75921D90E4E);\r\n    CETH = address(0x4Ddc2D193948926D02f9B1fE9e1daa0718270ED5);\r\n    CREP = address(0x158079Ee67Fce2f58472A96584A73C7Ab9AC95c1);\r\n    CSAI = address(0xF5DCe57282A584D2746FaF1593d3121Fcac444dC);\r\n    CUSDC = address(0x39AA39c021dfbaE8faC545936693aC917d5E7563);\r\n    CWBTC = address(0xC11b1268C1A384e55C48c2391d8d480264A3A7F4);\r\n    CZRX = address(0xB3319f5D18Bc0D84dD1b4825Dcde5d5f7266d407);\r\n\r\n    IZRX = address(0xA7Eb2bc82df18013ecC2A6C533fc29446442EDEe);\r\n    IREP = address(0xBd56E9477Fc6997609Cf45F84795eFbDAC642Ff1);\r\n    IKNC = address(0x1cC9567EA2eB740824a45F8026cCF8e46973234D);\r\n    IWBTC = address(0xBA9262578EFef8b3aFf7F60Cd629d6CC8859C8b5);\r\n    IUSDC = address(0xF013406A0B1d544238083DF0B93ad0d2cBE0f65f);\r\n    IETH = address(0x77f973FCaF871459aa58cd81881Ce453759281bC);\r\n    ISAI = address(0x14094949152EDDBFcd073717200DA82fEd8dC960);\r\n    IDAI = address(0x493C57C4763932315A328269E1ADaD09653B9081);\r\n    ILINK = address(0x1D496da96caf6b518b133736beca85D5C4F9cBc5);\r\n    ISUSD = address(0x49f4592E641820e928F9919Ef4aBd92a719B4b49);\r\n\r\n    ADAI = address(0x6B175474E89094C44Da98b954EedeAC495271d0F);\r\n    ATUSD = address(0x0000000000085d4780B73119b644AE5ecd22b376);\r\n    AUSDC = address(0xA0b86991c6218b36c1d19D4a2e9Eb0cE3606eB48);\r\n    AUSDT = address(0xdAC17F958D2ee523a2206206994597C13D831ec7);\r\n    ASUSD = address(0x57Ab1ec28D129707052df4dF418D58a2D46d5f51);\r\n    ALEND = address(0x80fB784B7eD66730e8b1DBd9820aFD29931aab03);\r\n    ABAT = address(0x0D8775F648430679A709E98d2b0Cb6250d2887EF);\r\n    AETH = address(0xEeeeeEeeeEeEeeEeEeEeeEEEeeeeEeeeeeeeEEeE);\r\n    ALINK = address(0x514910771AF9Ca656af840dff83E8264EcF986CA);\r\n    AKNC = address(0xdd974D5C2e2928deA5F71b9825b8b646686BD200);\r\n    AREP = address(0x1985365e9f78359a9B6AD760e32412f4a445E862);\r\n    AMKR = address(0x9f8F72aA9304c8B593d555F12eF6589cC3A579A2);\r\n    AMANA = address(0x0F5D2fB29fb7d3CFeE444a200298f468908cC942);\r\n    AZRX = address(0xE41d2489571d322189246DaFA5ebDe1F4699F498);\r\n    ASNX = address(0xC011a73ee8576Fb46F5E1c5751cA3B9Fe0af2a6F);\r\n    AWBTC = address(0x2260FAC5E5542a773Aa44fBCfeDf7C193bc2C599);\r\n  }\r\n\r\n  function recommendDAI() public view returns (string memory) {\r\n    uint256 max = 0;\r\n    uint256 c = getCDAIAPR();\r\n    if (c > max) {\r\n      max = c;\r\n    }\r\n    uint256 i = getIDAIAPR();\r\n    if (i > max) {\r\n      max = i;\r\n    }\r\n    uint256 d = getDyDxDAIAPR();\r\n    if (d > max) {\r\n      max = d;\r\n    }\r\n    uint256 a = getADAIAPR();\r\n    if (a > max) {\r\n      max = a;\r\n    }\r\n    string memory best = 'none';\r\n    if (max == c) {\r\n      best = 'Compound';\r\n    }\r\n    if (max == i) {\r\n      best = 'Fulcrum';\r\n    }\r\n    if (max == d) {\r\n      best = 'dYdX';\r\n    }\r\n    if (max == a) {\r\n      best = 'Aave';\r\n    }\r\n    return best;\r\n  }\r\n  function recommendETH() public view returns (string memory) {\r\n    uint256 max = 0;\r\n    uint256 c = getCETHAPR();\r\n    if (c > max) {\r\n      max = c;\r\n    }\r\n    uint256 i = getIETHAPR();\r\n    if (i > max) {\r\n      max = i;\r\n    }\r\n    uint256 d = getDyDxETHAPR();\r\n    if (d > max) {\r\n      max = d;\r\n    }\r\n    uint256 a = getAETHAPR();\r\n    if (a > max) {\r\n      max = a;\r\n    }\r\n    string memory best = 'none';\r\n    if (max == c) {\r\n      best = 'Compound';\r\n    }\r\n    if (max == i) {\r\n      best = 'Fulcrum';\r\n    }\r\n    if (max == d) {\r\n      best = 'dYdX';\r\n    }\r\n    if (max == a) {\r\n      best = 'Aave';\r\n    }\r\n    return best;\r\n  }\r\n  function recommendUSDC() public view returns (string memory) {\r\n    uint256 max = 0;\r\n    uint256 c = getCUSDCAPR();\r\n    if (c > max) {\r\n      max = c;\r\n    }\r\n    uint256 i = getIUSDCAPR();\r\n    if (i > max) {\r\n      max = i;\r\n    }\r\n    uint256 d = getDyDxUSDCAPR();\r\n    if (d > max) {\r\n      max = d;\r\n    }\r\n    uint256 a = getAUSDCAPR();\r\n    if (a > max) {\r\n      max = a;\r\n    }\r\n    string memory best = 'none';\r\n    if (max == c) {\r\n      best = 'Compound';\r\n    }\r\n    if (max == i) {\r\n      best = 'Fulcrum';\r\n    }\r\n    if (max == d) {\r\n      best = 'dYdX';\r\n    }\r\n    if (max == a) {\r\n      best = 'Aave';\r\n    }\r\n    return best;\r\n  }\r\n\r\n  modifier restricted() {\r\n    if (msg.sender == oracle) _;\r\n  }\r\n\r\n  function set_new_AAVE(address _new_AAVE) public restricted {\r\n      AAVE = _new_AAVE;\r\n  }\r\n\r\n  function set_new_IZRX(address _new_IZRX) public restricted {\r\n      IZRX = _new_IZRX;\r\n  }\r\n\r\n  function set_new_IREP(address _new_IREP) public restricted {\r\n      IREP = _new_IREP;\r\n  }\r\n\r\n  function set_new_IKNC(address _new_IKNC) public restricted {\r\n      IKNC = _new_IKNC;\r\n  }\r\n\r\n  function set_new_IWBTC(address _new_IWBTC) public restricted {\r\n      IWBTC = _new_IWBTC;\r\n  }\r\n\r\n  function set_new_IUSDC(address _new_IUSDC) public restricted {\r\n      IUSDC = _new_IUSDC;\r\n  }\r\n\r\n  function set_new_IETH(address _new_IETH) public restricted {\r\n      IETH = _new_IETH;\r\n  }\r\n\r\n  function set_new_ISAI(address _new_ISAI) public restricted {\r\n      ISAI = _new_ISAI;\r\n  }\r\n\r\n  function set_new_IDAI(address _new_IDAI) public restricted {\r\n      IDAI = _new_IDAI;\r\n  }\r\n\r\n  function set_new_ILINK(address _new_ILINK) public restricted {\r\n      ILINK = _new_ILINK;\r\n  }\r\n\r\n  function set_new_ISUSD(address _new_ISUSD) public restricted {\r\n      ISUSD = _new_ISUSD;\r\n  }\r\n\r\n  function set_new_CDAI(address _new_CDAI) public restricted {\r\n      CDAI = _new_CDAI;\r\n  }\r\n\r\n  function set_new_CBAT(address _new_CBAT) public restricted {\r\n      CBAT = _new_CBAT;\r\n  }\r\n\r\n  function set_new_CETH(address _new_CETH) public restricted {\r\n      CETH = _new_CETH;\r\n  }\r\n\r\n  function set_new_CREP(address _new_CREP) public restricted {\r\n      CREP = _new_CREP;\r\n  }\r\n\r\n  function set_new_CSAI(address _new_CSAI) public restricted {\r\n      CSAI = _new_CSAI;\r\n  }\r\n\r\n  function set_new_CUSDC(address _new_CUSDC) public restricted {\r\n      CUSDC = _new_CUSDC;\r\n  }\r\n\r\n  function set_new_CWBTC(address _new_CWBTC) public restricted {\r\n      CWBTC = _new_CWBTC;\r\n  }\r\n\r\n  function set_new_CZRX(address _new_CZRX) public restricted {\r\n      CZRX = _new_CZRX;\r\n  }\r\n\r\n  function set_new_DYDX(address _new_DYDX) public restricted {\r\n      DYDX = _new_DYDX;\r\n  }\r\n\r\n  function set_new_ADAI(address _new_ADAI) public restricted {\r\n      ADAI = _new_ADAI;\r\n  }\r\n\r\n  function set_new_ATUSD(address _new_ATUSD) public restricted {\r\n      ATUSD = _new_ATUSD;\r\n  }\r\n\r\n  function set_new_AUSDC(address _new_AUSDC) public restricted {\r\n      AUSDC = _new_AUSDC;\r\n  }\r\n\r\n  function set_new_AUSDT(address _new_AUSDT) public restricted {\r\n      AUSDT = _new_AUSDT;\r\n  }\r\n\r\n  function set_new_ASUSD(address _new_ASUSD) public restricted {\r\n      ASUSD = _new_ASUSD;\r\n  }\r\n\r\n  function set_new_ALEND(address _new_ALEND) public restricted {\r\n      ALEND = _new_ALEND;\r\n  }\r\n\r\n  function set_new_ABAT(address _new_ABAT) public restricted {\r\n      ABAT = _new_ABAT;\r\n  }\r\n\r\n  function set_new_AETH(address _new_AETH) public restricted {\r\n      AETH = _new_AETH;\r\n  }\r\n\r\n  function set_new_ALINK(address _new_ALINK) public restricted {\r\n      ALINK = _new_ALINK;\r\n  }\r\n\r\n  function set_new_AKNC(address _new_AKNC) public restricted {\r\n      AKNC = _new_AKNC;\r\n  }\r\n\r\n  function set_new_AREP(address _new_AREP) public restricted {\r\n      AREP = _new_AREP;\r\n  }\r\n\r\n  function set_new_AMKR(address _new_AMKR) public restricted {\r\n      AMKR = _new_AMKR;\r\n  }\r\n\r\n  function set_new_AMANA(address _new_AMANA) public restricted {\r\n      AMANA = _new_AMANA;\r\n  }\r\n\r\n  function set_new_AZRX(address _new_AZRX) public restricted {\r\n      AZRX = _new_AZRX;\r\n  }\r\n\r\n  function set_new_ASNX(address _new_ASNX) public restricted {\r\n      ASNX = _new_ASNX;\r\n  }\r\n\r\n  function set_new_AWBTC(address _new_AWBTC) public restricted {\r\n      AWBTC = _new_AWBTC;\r\n  }\r\n\r\n  function setPrice(address _token, uint256 _price) public restricted {\r\n    _priceStore[_token] = _price;\r\n  }\r\n\r\n  function getPrice(address _token) public view returns (uint256) {\r\n    return _priceStore[_token];\r\n  }\r\n\r\n  function setLiquidity(address _token, uint256 _liquidity) public restricted {\r\n    _liquidityStore[_token] = _liquidity;\r\n  }\r\n\r\n  function getLiquidity(address _token) public view returns (uint256) {\r\n    return _liquidityStore[_token];\r\n  }\r\n\r\n  function getAllCompoundAPR()\r\n      external\r\n      view\r\n      returns (\r\n          uint256 cDAI,\r\n          uint256 cBAT,\r\n          uint256 cETH,\r\n          uint256 cREP,\r\n          uint256 cSAI,\r\n          uint256 cUSDC,\r\n          uint256 cWBTC,\r\n          uint256 cZRC\r\n      )\r\n  {\r\n      return (\r\n        getCDAIAPR(),\r\n        getCBATAPR(),\r\n        getCETHAPR(),\r\n        getCREPAPR(),\r\n        getCSAIAPR(),\r\n        getCUSDCAPR(),\r\n        getCWBTCAPR(),\r\n        getCZRCAPR()\r\n      );\r\n  }\r\n\r\n  // Compound\r\n  function getCDAIAPR() public view returns (uint256) {\r\n    return getCompoundAPR(CDAI);\r\n  }\r\n  function getCBATAPR() public view returns (uint256) {\r\n    return getCompoundAPR(CBAT);\r\n  }\r\n  function getCETHAPR() public view returns (uint256) {\r\n    return getCompoundAPR(CETH);\r\n  }\r\n  function getCREPAPR() public view returns (uint256) {\r\n    return getCompoundAPR(CREP);\r\n  }\r\n  function getCSAIAPR() public view returns (uint256) {\r\n    return getCompoundAPR(CSAI);\r\n  }\r\n  function getCUSDCAPR() public view returns (uint256) {\r\n    return getCompoundAPR(CUSDC);\r\n  }\r\n  function getCWBTCAPR() public view returns (uint256) {\r\n    return getCompoundAPR(CWBTC);\r\n  }\r\n  function getCZRCAPR() public view returns (uint256) {\r\n    return getCompoundAPR(CZRX);\r\n  }\r\n  function getCompoundAPR(address token) public view returns (uint256) {\r\n    return Compound(token).supplyRatePerBlock().mul(2102400);\r\n  }\r\n\r\n  function getAllDyDxAPR()\r\n      external\r\n      view\r\n      returns (\r\n          uint256 dSAI,\r\n          uint256 dETH,\r\n          uint256 dUSDC,\r\n          uint256 dDAI\r\n      )\r\n  {\r\n      return (\r\n        getDyDxSAIAPR(),\r\n        getDyDxETHAPR(),\r\n        getDyDxUSDCAPR(),\r\n        getDyDxDAIAPR()\r\n      );\r\n  }\r\n\r\n  // dYdX\r\n  function getDyDxSAIAPR() public view returns(uint256) {\r\n    return getDyDxAPR(1);\r\n  }\r\n  function getDyDxETHAPR() public view returns(uint256) {\r\n    return getDyDxAPR(0);\r\n  }\r\n  function getDyDxUSDCAPR() public view returns(uint256) {\r\n    return getDyDxAPR(2);\r\n  }\r\n  function getDyDxDAIAPR() public view returns(uint256) {\r\n    return getDyDxAPR(3);\r\n  }\r\n\r\n  function getAllFulcrumAPR()\r\n      external\r\n      view\r\n      returns (\r\n          uint256 iZRX,\r\n          uint256 iREP,\r\n          uint256 iKNC,\r\n          uint256 iWBTC,\r\n          uint256 iUSDC,\r\n          uint256 iETH,\r\n          uint256 iSAI,\r\n          uint256 iDAI,\r\n          uint256 iLINK,\r\n          uint256 iSUSD\r\n      )\r\n  {\r\n      return (\r\n        getIZRXAPR(),\r\n        getIREPAPR(),\r\n        getIKNCAPR(),\r\n        getIWBTCAPR(),\r\n        getIUSDCAPR(),\r\n        getIETHAPR(),\r\n        getISAIAPR(),\r\n        getIDAIAPR(),\r\n        getILINKAPR(),\r\n        getISUSDAPR()\r\n      );\r\n  }\r\n\r\n  // Fulcrum\r\n  function getIZRXAPR() public view returns (uint256) {\r\n    return getFulcrumAPR(IZRX);\r\n  }\r\n  function getIREPAPR() public view returns (uint256) {\r\n    return getFulcrumAPR(IREP);\r\n  }\r\n  function getIKNCAPR() public view returns (uint256) {\r\n    return getFulcrumAPR(IKNC);\r\n  }\r\n  function getIWBTCAPR() public view returns (uint256) {\r\n    return getFulcrumAPR(IWBTC);\r\n  }\r\n  function getIUSDCAPR() public view returns (uint256) {\r\n    return getFulcrumAPR(IUSDC);\r\n  }\r\n  function getIETHAPR() public view returns (uint256) {\r\n    return getFulcrumAPR(IETH);\r\n  }\r\n  function getISAIAPR() public view returns (uint256) {\r\n    return getFulcrumAPR(ISAI);\r\n  }\r\n  function getIDAIAPR() public view returns (uint256) {\r\n    return getFulcrumAPR(IDAI);\r\n  }\r\n  function getILINKAPR() public view returns (uint256) {\r\n    return getFulcrumAPR(ILINK);\r\n  }\r\n  function getISUSDAPR() public view returns (uint256) {\r\n    return getFulcrumAPR(ISUSD);\r\n  }\r\n\r\n  function getFulcrumAPR(address token) public view returns(uint256) {\r\n    return Fulcrum(token).supplyInterestRate().div(100);\r\n  }\r\n\r\n  function getDyDxAPR(uint256 marketId) public view returns(uint256) {\r\n    uint256 rate      = DyDx(DYDX).getMarketInterestRate(marketId).value;\r\n    uint256 aprBorrow = rate * 31622400;\r\n    uint256 borrow    = DyDx(DYDX).getMarketTotalPar(marketId).borrow;\r\n    uint256 supply    = DyDx(DYDX).getMarketTotalPar(marketId).supply;\r\n    uint256 usage     = (borrow * DECIMAL) / supply;\r\n    uint256 apr       = (((aprBorrow * usage) / DECIMAL) * DyDx(DYDX).getEarningsRate().value) / DECIMAL;\r\n    return apr;\r\n  }\r\n\r\n  function getAllAaveAPR()\r\n      external\r\n      view\r\n      returns (\r\n          uint256 aDAI,\r\n          uint256 aTUSD,\r\n          uint256 aUSDC,\r\n          uint256 aUSDT,\r\n          uint256 aSUSD,\r\n          uint256 aBAT,\r\n          uint256 aETH,\r\n          uint256 aLINK,\r\n          uint256 aKNC,\r\n          uint256 aREP,\r\n          uint256 aZRX,\r\n          uint256 aSNX\r\n      )\r\n  {\r\n      return (\r\n        getADAIAPR(),\r\n        getATUSDAPR(),\r\n        getAUSDCAPR(),\r\n        getAUSDTAPR(),\r\n        getASUSDAPR(),\r\n        getABATAPR(),\r\n        getAETHAPR(),\r\n        getALINKAPR(),\r\n        getAKNCAPR(),\r\n        getAREPAPR(),\r\n        getAZRXAPR(),\r\n        getASNXAPR()\r\n      );\r\n  }\r\n\r\n  function getADAIAPR() public view returns (uint256) {\r\n    return getAaveAPR(ADAI);\r\n  }\r\n  function getATUSDAPR() public view returns (uint256) {\r\n    return getAaveAPR(ATUSD);\r\n  }\r\n  function getAUSDCAPR() public view returns (uint256) {\r\n    return getAaveAPR(AUSDC);\r\n  }\r\n  function getAUSDTAPR() public view returns (uint256) {\r\n    return getAaveAPR(AUSDT);\r\n  }\r\n  function getASUSDAPR() public view returns (uint256) {\r\n    return getAaveAPR(ASUSD);\r\n  }\r\n  function getALENDAPR() public view returns (uint256) {\r\n    return getAaveAPR(ALEND);\r\n  }\r\n  function getABATAPR() public view returns (uint256) {\r\n    return getAaveAPR(ABAT);\r\n  }\r\n  function getAETHAPR() public view returns (uint256) {\r\n    return getAaveAPR(AETH);\r\n  }\r\n  function getALINKAPR() public view returns (uint256) {\r\n    return getAaveAPR(ALINK);\r\n  }\r\n  function getAKNCAPR() public view returns (uint256) {\r\n    return getAaveAPR(AKNC);\r\n  }\r\n  function getAREPAPR() public view returns (uint256) {\r\n    return getAaveAPR(AREP);\r\n  }\r\n  function getAMKRAPR() public view returns (uint256) {\r\n    return getAaveAPR(AMKR);\r\n  }\r\n  function getAMANAAPR() public view returns (uint256) {\r\n    return getAaveAPR(AMANA);\r\n  }\r\n  function getAZRXAPR() public view returns (uint256) {\r\n    return getAaveAPR(AZRX);\r\n  }\r\n  function getASNXAPR() public view returns (uint256) {\r\n    return getAaveAPR(ASNX);\r\n  }\r\n  function getAWBTCAPR() public view returns (uint256) {\r\n    return getAaveAPR(AWBTC);\r\n  }\r\n\r\n  function getAaveCore() public view returns (address) {\r\n    return address(LendingPoolAddressesProvider(AAVE).getLendingPoolCore());\r\n  }\r\n\r\n  function getAaveAPR(address token) public view returns (uint256) {\r\n    LendingPoolCore core = LendingPoolCore(LendingPoolAddressesProvider(AAVE).getLendingPoolCore());\r\n    return core.getReserveCurrentLiquidityRate(token).div(1e9);\r\n  }\r\n\r\n  // incase of half-way error\r\n  function inCaseTokenGetsStuck(IERC20 _TokenAddress) onlyOwner public {\r\n      uint qty = _TokenAddress.balanceOf(address(this));\r\n      _TokenAddress.transfer(msg.sender, qty);\r\n  }\r\n  // incase of half-way error\r\n  function inCaseETHGetsStuck() onlyOwner public{\r\n      (bool result, ) = msg.sender.call.value(address(this).balance)(\"\");\r\n      require(result, \"transfer of ETH failed\");\r\n  }\r\n}\r\n",
  "sourcePath": "D:/ftm/itoken/contracts/APROracle.sol",
  "compiler": {
    "name": "solc",
    "version": "0.5.12+commit.7709ece9.Emscripten.clang"
  },
  "schemaVersion": "3.0.19",
  "updatedAt": "2020-01-25T09:32:47.452Z",
  "devdoc": {
    "methods": {
      "isOwner()": {
        "details": "Returns true if the caller is the current owner."
      },
      "owner()": {
        "details": "Returns the address of the current owner."
      },
      "renounceOwnership()": {
        "details": "Leaves the contract without owner. It will not be possible to call `onlyOwner` functions anymore. Can only be called by the current owner.      * NOTE: Renouncing ownership will leave the contract without an owner, thereby removing any functionality that is only available to the owner."
      },
      "transferOwnership(address)": {
        "details": "Transfers ownership of the contract to a new account (`newOwner`). Can only be called by the current owner."
      }
    }
  },
  "userdoc": {
    "methods": {}
  }
}