{
  "contractName": "busdCurveFlashDAI",
  "abi": [
    {
      "inputs": [],
      "payable": false,
      "stateMutability": "nonpayable",
      "type": "constructor"
    },
    {
      "anonymous": false,
      "inputs": [
        {
          "indexed": true,
          "internalType": "address",
          "name": "previousOwner",
          "type": "address"
        },
        {
          "indexed": true,
          "internalType": "address",
          "name": "newOwner",
          "type": "address"
        }
      ],
      "name": "OwnershipTransferred",
      "type": "event"
    },
    {
      "payable": true,
      "stateMutability": "payable",
      "type": "fallback"
    },
    {
      "constant": true,
      "inputs": [],
      "name": "_amount",
      "outputs": [
        {
          "internalType": "uint256",
          "name": "",
          "type": "uint256"
        }
      ],
      "payable": false,
      "stateMutability": "view",
      "type": "function"
    },
    {
      "constant": true,
      "inputs": [],
      "name": "dai",
      "outputs": [
        {
          "internalType": "address",
          "name": "",
          "type": "address"
        }
      ],
      "payable": false,
      "stateMutability": "view",
      "type": "function"
    },
    {
      "constant": true,
      "inputs": [],
      "name": "dydx",
      "outputs": [
        {
          "internalType": "address",
          "name": "",
          "type": "address"
        }
      ],
      "payable": false,
      "stateMutability": "view",
      "type": "function"
    },
    {
      "constant": true,
      "inputs": [],
      "name": "isOwner",
      "outputs": [
        {
          "internalType": "bool",
          "name": "",
          "type": "bool"
        }
      ],
      "payable": false,
      "stateMutability": "view",
      "type": "function"
    },
    {
      "constant": true,
      "inputs": [],
      "name": "owner",
      "outputs": [
        {
          "internalType": "address",
          "name": "",
          "type": "address"
        }
      ],
      "payable": false,
      "stateMutability": "view",
      "type": "function"
    },
    {
      "constant": false,
      "inputs": [],
      "name": "renounceOwnership",
      "outputs": [],
      "payable": false,
      "stateMutability": "nonpayable",
      "type": "function"
    },
    {
      "constant": true,
      "inputs": [],
      "name": "swap",
      "outputs": [
        {
          "internalType": "address",
          "name": "",
          "type": "address"
        }
      ],
      "payable": false,
      "stateMutability": "view",
      "type": "function"
    },
    {
      "constant": false,
      "inputs": [
        {
          "internalType": "address",
          "name": "newOwner",
          "type": "address"
        }
      ],
      "name": "transferOwnership",
      "outputs": [],
      "payable": false,
      "stateMutability": "nonpayable",
      "type": "function"
    },
    {
      "constant": true,
      "inputs": [],
      "name": "usdc",
      "outputs": [
        {
          "internalType": "address",
          "name": "",
          "type": "address"
        }
      ],
      "payable": false,
      "stateMutability": "view",
      "type": "function"
    },
    {
      "constant": true,
      "inputs": [],
      "name": "usdt",
      "outputs": [
        {
          "internalType": "address",
          "name": "",
          "type": "address"
        }
      ],
      "payable": false,
      "stateMutability": "view",
      "type": "function"
    },
    {
      "constant": false,
      "inputs": [
        {
          "internalType": "uint256",
          "name": "amount",
          "type": "uint256"
        }
      ],
      "name": "flash",
      "outputs": [],
      "payable": false,
      "stateMutability": "nonpayable",
      "type": "function"
    },
    {
      "constant": false,
      "inputs": [
        {
          "internalType": "address",
          "name": "sender",
          "type": "address"
        },
        {
          "components": [
            {
              "internalType": "address",
              "name": "owner",
              "type": "address"
            },
            {
              "internalType": "uint256",
              "name": "number",
              "type": "uint256"
            }
          ],
          "internalType": "struct Structs.Info",
          "name": "accountInfo",
          "type": "tuple"
        },
        {
          "internalType": "bytes",
          "name": "data",
          "type": "bytes"
        }
      ],
      "name": "callFunction",
      "outputs": [],
      "payable": false,
      "stateMutability": "nonpayable",
      "type": "function"
    },
    {
      "constant": false,
      "inputs": [],
      "name": "approveToken",
      "outputs": [],
      "payable": false,
      "stateMutability": "nonpayable",
      "type": "function"
    },
    {
      "constant": false,
      "inputs": [
        {
          "internalType": "contract IERC20",
          "name": "_TokenAddress",
          "type": "address"
        }
      ],
      "name": "inCaseTokenGetsStuck",
      "outputs": [],
      "payable": false,
      "stateMutability": "nonpayable",
      "type": "function"
    },
    {
      "constant": false,
      "inputs": [],
      "name": "inCaseETHGetsStuck",
      "outputs": [],
      "payable": false,
      "stateMutability": "nonpayable",
      "type": "function"
    }
  ],
  "bytecode": "0x60806040523480156200001157600080fd5b5060016000819055506200002a620002a660201b60201c565b600160006101000a81548173ffffffffffffffffffffffffffffffffffffffff021916908373ffffffffffffffffffffffffffffffffffffffff160217905550600160009054906101000a900473ffffffffffffffffffffffffffffffffffffffff1673ffffffffffffffffffffffffffffffffffffffff16600073ffffffffffffffffffffffffffffffffffffffff167f8be0079c531659141344cd1fd0a4f28419497f9722a3daafe3b4186f6b6457e060405160405180910390a3731e0447b19bb6ecfdae1e4ae1694b0c3659614e4e600360006101000a81548173ffffffffffffffffffffffffffffffffffffffff021916908373ffffffffffffffffffffffffffffffffffffffff1602179055507379a8c46dea5ada233abaffd40f3a0a2b1e5a4f27600260006101000a81548173ffffffffffffffffffffffffffffffffffffffff021916908373ffffffffffffffffffffffffffffffffffffffff160217905550736b175474e89094c44da98b954eedeac495271d0f600460006101000a81548173ffffffffffffffffffffffffffffffffffffffff021916908373ffffffffffffffffffffffffffffffffffffffff16021790555073a0b86991c6218b36c1d19d4a2e9eb0ce3606eb48600660006101000a81548173ffffffffffffffffffffffffffffffffffffffff021916908373ffffffffffffffffffffffffffffffffffffffff16021790555073dac17f958d2ee523a2206206994597c13d831ec7600560006101000a81548173ffffffffffffffffffffffffffffffffffffffff021916908373ffffffffffffffffffffffffffffffffffffffff160217905550620002a0620002ae60201b60201c565b62000da3565b600033905090565b62000344600260009054906101000a900473ffffffffffffffffffffffffffffffffffffffff167fffffffffffffffffffffffffffffffffffffffffffffffffffffffffffffffff600460009054906101000a900473ffffffffffffffffffffffffffffffffffffffff1673ffffffffffffffffffffffffffffffffffffffff166200063460201b620011d4179092919060201c565b620003da600360009054906101000a900473ffffffffffffffffffffffffffffffffffffffff167fffffffffffffffffffffffffffffffffffffffffffffffffffffffffffffffff600460009054906101000a900473ffffffffffffffffffffffffffffffffffffffff1673ffffffffffffffffffffffffffffffffffffffff166200063460201b620011d4179092919060201c565b62000470600260009054906101000a900473ffffffffffffffffffffffffffffffffffffffff167fffffffffffffffffffffffffffffffffffffffffffffffffffffffffffffffff600660009054906101000a900473ffffffffffffffffffffffffffffffffffffffff1673ffffffffffffffffffffffffffffffffffffffff166200063460201b620011d4179092919060201c565b62000506600360009054906101000a900473ffffffffffffffffffffffffffffffffffffffff167fffffffffffffffffffffffffffffffffffffffffffffffffffffffffffffffff600660009054906101000a900473ffffffffffffffffffffffffffffffffffffffff1673ffffffffffffffffffffffffffffffffffffffff166200063460201b620011d4179092919060201c565b6200059c600260009054906101000a900473ffffffffffffffffffffffffffffffffffffffff167fffffffffffffffffffffffffffffffffffffffffffffffffffffffffffffffff600560009054906101000a900473ffffffffffffffffffffffffffffffffffffffff1673ffffffffffffffffffffffffffffffffffffffff166200063460201b620011d4179092919060201c565b62000632600360009054906101000a900473ffffffffffffffffffffffffffffffffffffffff167fffffffffffffffffffffffffffffffffffffffffffffffffffffffffffffffff600560009054906101000a900473ffffffffffffffffffffffffffffffffffffffff1673ffffffffffffffffffffffffffffffffffffffff166200063460201b620011d4179092919060201c565b565b6000811480620006d4575060008373ffffffffffffffffffffffffffffffffffffffff1663dd62ed3e30856040518363ffffffff1660e01b81526004016200067e92919062000be6565b60206040518083038186803b1580156200069757600080fd5b505afa158015620006ac573d6000803e3d6000fd5b505050506040513d601f19601f82011682018060405250620006d29190810190620009f4565b145b62000716576040517f08c379a00000000000000000000000000000000000000000000000000000000081526004016200070d9062000c84565b60405180910390fd5b620007ba838473ffffffffffffffffffffffffffffffffffffffff1663095ea7b3905060e01b84846040516024016200075192919062000c13565b604051602081830303815290604052907bffffffffffffffffffffffffffffffffffffffffffffffffffffffff19166020820180517bffffffffffffffffffffffffffffffffffffffffffffffffffffffff8381831617835250505050620007bf60201b60201c565b505050565b620007eb8273ffffffffffffffffffffffffffffffffffffffff166200094e60201b620015ed1760201c565b6200082d576040517f08c379a0000000000000000000000000000000000000000000000000000000008152600401620008249062000ca6565b60405180910390fd5b600060608373ffffffffffffffffffffffffffffffffffffffff168360405162000858919062000bcd565b6000604051808303816000865af19150503d806000811462000897576040519150601f19603f3d011682016040523d82523d6000602084013e6200089c565b606091505b509150915081620008e4576040517f08c379a0000000000000000000000000000000000000000000000000000000008152600401620008db9062000c40565b60405180910390fd5b600081511115620009485780806020019051620009059190810190620009c8565b62000947576040517f08c379a00000000000000000000000000000000000000000000000000000000081526004016200093e9062000c62565b60405180910390fd5b5b50505050565b60008060007fc5d2460186f7233c927e7db2dcc703c0e500b653ca82273b7bfad8045d85a47060001b9050833f91506000801b8214158015620009915750808214155b92505050919050565b600081519050620009ab8162000d6f565b92915050565b600081519050620009c28162000d89565b92915050565b600060208284031215620009db57600080fd5b6000620009eb848285016200099a565b91505092915050565b60006020828403121562000a0757600080fd5b600062000a1784828501620009b1565b91505092915050565b62000a2b8162000cef565b82525050565b600062000a3e8262000cc8565b62000a4a818562000cd3565b935062000a5c81856020860162000d39565b80840191505092915050565b600062000a7760208362000cde565b91507f5361666545524332303a206c6f772d6c6576656c2063616c6c206661696c65646000830152602082019050919050565b600062000ab9602a8362000cde565b91507f5361666545524332303a204552433230206f7065726174696f6e20646964206e60008301527f6f742073756363656564000000000000000000000000000000000000000000006020830152604082019050919050565b600062000b2160368362000cde565b91507f5361666545524332303a20617070726f76652066726f6d206e6f6e2d7a65726f60008301527f20746f206e6f6e2d7a65726f20616c6c6f77616e6365000000000000000000006020830152604082019050919050565b600062000b89601f8362000cde565b91507f5361666545524332303a2063616c6c20746f206e6f6e2d636f6e7472616374006000830152602082019050919050565b62000bc78162000d2f565b82525050565b600062000bdb828462000a31565b915081905092915050565b600060408201905062000bfd600083018562000a20565b62000c0c602083018462000a20565b9392505050565b600060408201905062000c2a600083018562000a20565b62000c39602083018462000bbc565b9392505050565b6000602082019050818103600083015262000c5b8162000a68565b9050919050565b6000602082019050818103600083015262000c7d8162000aaa565b9050919050565b6000602082019050818103600083015262000c9f8162000b12565b9050919050565b6000602082019050818103600083015262000cc18162000b7a565b9050919050565b600081519050919050565b600081905092915050565b600082825260208201905092915050565b600062000cfc8262000d0f565b9050919050565b60008115159050919050565b600073ffffffffffffffffffffffffffffffffffffffff82169050919050565b6000819050919050565b60005b8381101562000d5957808201518184015260208101905062000d3c565b8381111562000d69576000848401525b50505050565b62000d7a8162000d03565b811462000d8657600080fd5b50565b62000d948162000d2f565b811462000da057600080fd5b50565b6125fc8062000db36000396000f3fe6080604052600436106100e85760003560e01c80638da5cb5b1161008a57806399b71d5c1161005957806399b71d5c146102a9578063f2fde38b146102c0578063f4b9fa75146102e9578063f60a15ed14610314576100e8565b80638da5cb5b146101fd5780638e4ec6ef146102285780638f32d59b146102535780639887f1801461027e576100e8565b806346e5c437116100c657806346e5c43714610169578063715018a6146101925780638119c065146101a95780638b418713146101d4576100e8565b80632e8d6e18146100ea5780632f48ab7d146101135780633e413bee1461013e575b005b3480156100f657600080fd5b50610111600480360361010c919081019061197e565b61032b565b005b34801561011f57600080fd5b5061012861042e565b6040516101359190612014565b60405180910390f35b34801561014a57600080fd5b50610153610454565b6040516101609190612014565b60405180910390f35b34801561017557600080fd5b50610190600480360361018b91908101906119a7565b61047a565b005b34801561019e57600080fd5b506101a7610836565b005b3480156101b557600080fd5b506101be61093e565b6040516101cb9190612014565b60405180910390f35b3480156101e057600080fd5b506101fb60048036036101f691908101906118ee565b610964565b005b34801561020957600080fd5b50610212610b41565b60405161021f9190612014565b60405180910390f35b34801561023457600080fd5b5061023d610b6b565b60405161024a9190612014565b60405180910390f35b34801561025f57600080fd5b50610268610b91565b60405161027591906120d3565b60405180910390f35b34801561028a57600080fd5b50610293610bf0565b6040516102a09190612278565b60405180910390f35b3480156102b557600080fd5b506102be610bf6565b005b3480156102cc57600080fd5b506102e760048036036102e291908101906118c5565b610f52565b005b3480156102f557600080fd5b506102fe610fa5565b60405161030b9190612014565b60405180910390f35b34801561032057600080fd5b50610329610fcb565b005b610333610b91565b610372576040517f08c379a0000000000000000000000000000000000000000000000000000000008152600401610369906121f8565b60405180910390fd5b60008173ffffffffffffffffffffffffffffffffffffffff166370a08231306040518263ffffffff1660e01b81526004016103ad919061202f565b60206040518083038186803b1580156103c557600080fd5b505afa1580156103d9573d6000803e3d6000fd5b505050506040513d601f19601f820116820180604052506103fd91908101906119d0565b905061042a33828473ffffffffffffffffffffffffffffffffffffffff166110d89092919063ffffffff16565b5050565b600560009054906101000a900473ffffffffffffffffffffffffffffffffffffffff1681565b600660009054906101000a900473ffffffffffffffffffffffffffffffffffffffff1681565b80600781905550606060016040519080825280602002602001820160405280156104be57816020015b6104ab611638565b8152602001906001900390816104a35790505b509050606060036040519080825280602002602001820160405280156104fe57816020015b6104eb611668565b8152602001906001900390816104e35790505b50905060405180604001604052803073ffffffffffffffffffffffffffffffffffffffff16815260200160008152508260008151811061053a57fe5b602002602001018190525061054d6116d4565b604051806080016040528060001515815260200160008081111561056d57fe5b815260200160008081111561057e57fe5b8152602001858152509050610591611712565b6001816000019060088111156105a357fe5b908160088111156105b057fe5b8152505060008160200181815250508181604001819052506003816060018181525050308160a0019073ffffffffffffffffffffffffffffffffffffffff16908173ffffffffffffffffffffffffffffffffffffffff1681525050808360008151811061061957fe5b602002602001018190525061062c611712565b60088160000190600881111561063e57fe5b9081600881111561064b57fe5b815250506000816020018181525050308160a0019073ffffffffffffffffffffffffffffffffffffffff16908173ffffffffffffffffffffffffffffffffffffffff168152505080846001815181106106a057fe5b60200260200101819052506106b3611712565b6106bb6116d4565b60405180608001604052806001151581526020016000808111156106db57fe5b81526020016000808111156106ec57fe5b815260200161070560018b61117790919063ffffffff16565b815250905060008260000190600881111561071c57fe5b9081600881111561072957fe5b8152505060008260200181815250508082604001819052506003826060018181525050308260a0019073ffffffffffffffffffffffffffffffffffffffff16908173ffffffffffffffffffffffffffffffffffffffff1681525050818660028151811061079257fe5b6020026020010181905250600360009054906101000a900473ffffffffffffffffffffffffffffffffffffffff1673ffffffffffffffffffffffffffffffffffffffff1663a67a6a4588886040518363ffffffff1660e01b81526004016107fa92919061209c565b600060405180830381600087803b15801561081457600080fd5b505af1158015610828573d6000803e3d6000fd5b505050505050505050505050565b61083e610b91565b61087d576040517f08c379a0000000000000000000000000000000000000000000000000000000008152600401610874906121f8565b60405180910390fd5b600073ffffffffffffffffffffffffffffffffffffffff16600160009054906101000a900473ffffffffffffffffffffffffffffffffffffffff1673ffffffffffffffffffffffffffffffffffffffff167f8be0079c531659141344cd1fd0a4f28419497f9722a3daafe3b4186f6b6457e060405160405180910390a36000600160006101000a81548173ffffffffffffffffffffffffffffffffffffffff021916908373ffffffffffffffffffffffffffffffffffffffff160217905550565b600260009054906101000a900473ffffffffffffffffffffffffffffffffffffffff1681565b600260009054906101000a900473ffffffffffffffffffffffffffffffffffffffff1673ffffffffffffffffffffffffffffffffffffffff1663a6417ed66000600260075460006040518563ffffffff1660e01b81526004016109ca94939291906120ee565b600060405180830381600087803b1580156109e457600080fd5b505af11580156109f8573d6000803e3d6000fd5b50505050600260009054906101000a900473ffffffffffffffffffffffffffffffffffffffff1673ffffffffffffffffffffffffffffffffffffffff1663a6417ed660026000600560009054906101000a900473ffffffffffffffffffffffffffffffffffffffff1673ffffffffffffffffffffffffffffffffffffffff166370a08231306040518263ffffffff1660e01b8152600401610a99919061202f565b60206040518083038186803b158015610ab157600080fd5b505afa158015610ac5573d6000803e3d6000fd5b505050506040513d601f19601f82011682018060405250610ae991908101906119d0565b60006040518563ffffffff1660e01b8152600401610b0a9493929190612133565b600060405180830381600087803b158015610b2457600080fd5b505af1158015610b38573d6000803e3d6000fd5b50505050505050565b6000600160009054906101000a900473ffffffffffffffffffffffffffffffffffffffff16905090565b600360009054906101000a900473ffffffffffffffffffffffffffffffffffffffff1681565b6000600160009054906101000a900473ffffffffffffffffffffffffffffffffffffffff1673ffffffffffffffffffffffffffffffffffffffff16610bd46111cc565b73ffffffffffffffffffffffffffffffffffffffff1614905090565b60075481565b610c85600260009054906101000a900473ffffffffffffffffffffffffffffffffffffffff167fffffffffffffffffffffffffffffffffffffffffffffffffffffffffffffffff600460009054906101000a900473ffffffffffffffffffffffffffffffffffffffff1673ffffffffffffffffffffffffffffffffffffffff166111d49092919063ffffffff16565b610d14600360009054906101000a900473ffffffffffffffffffffffffffffffffffffffff167fffffffffffffffffffffffffffffffffffffffffffffffffffffffffffffffff600460009054906101000a900473ffffffffffffffffffffffffffffffffffffffff1673ffffffffffffffffffffffffffffffffffffffff166111d49092919063ffffffff16565b610da3600260009054906101000a900473ffffffffffffffffffffffffffffffffffffffff167fffffffffffffffffffffffffffffffffffffffffffffffffffffffffffffffff600660009054906101000a900473ffffffffffffffffffffffffffffffffffffffff1673ffffffffffffffffffffffffffffffffffffffff166111d49092919063ffffffff16565b610e32600360009054906101000a900473ffffffffffffffffffffffffffffffffffffffff167fffffffffffffffffffffffffffffffffffffffffffffffffffffffffffffffff600660009054906101000a900473ffffffffffffffffffffffffffffffffffffffff1673ffffffffffffffffffffffffffffffffffffffff166111d49092919063ffffffff16565b610ec1600260009054906101000a900473ffffffffffffffffffffffffffffffffffffffff167fffffffffffffffffffffffffffffffffffffffffffffffffffffffffffffffff600560009054906101000a900473ffffffffffffffffffffffffffffffffffffffff1673ffffffffffffffffffffffffffffffffffffffff166111d49092919063ffffffff16565b610f50600360009054906101000a900473ffffffffffffffffffffffffffffffffffffffff167fffffffffffffffffffffffffffffffffffffffffffffffffffffffffffffffff600560009054906101000a900473ffffffffffffffffffffffffffffffffffffffff1673ffffffffffffffffffffffffffffffffffffffff166111d49092919063ffffffff16565b565b610f5a610b91565b610f99576040517f08c379a0000000000000000000000000000000000000000000000000000000008152600401610f90906121f8565b60405180910390fd5b610fa28161134b565b50565b600460009054906101000a900473ffffffffffffffffffffffffffffffffffffffff1681565b610fd3610b91565b611012576040517f08c379a0000000000000000000000000000000000000000000000000000000008152600401611009906121f8565b60405180910390fd5b60003373ffffffffffffffffffffffffffffffffffffffff163073ffffffffffffffffffffffffffffffffffffffff163160405161104f90611fff565b60006040518083038185875af1925050503d806000811461108c576040519150601f19603f3d011682016040523d82523d6000602084013e611091565b606091505b50509050806110d5576040517f08c379a00000000000000000000000000000000000000000000000000000000081526004016110cc906121d8565b60405180910390fd5b50565b611172838473ffffffffffffffffffffffffffffffffffffffff1663a9059cbb905060e01b8484604051602401611110929190612073565b604051602081830303815290604052907bffffffffffffffffffffffffffffffffffffffffffffffffffffffff19166020820180517bffffffffffffffffffffffffffffffffffffffffffffffffffffffff838183161783525050505061147b565b505050565b6000808284019050838110156111c2576040517f08c379a00000000000000000000000000000000000000000000000000000000081526004016111b990612198565b60405180910390fd5b8091505092915050565b600033905090565b600081148061126d575060008373ffffffffffffffffffffffffffffffffffffffff1663dd62ed3e30856040518363ffffffff1660e01b815260040161121b92919061204a565b60206040518083038186803b15801561123357600080fd5b505afa158015611247573d6000803e3d6000fd5b505050506040513d601f19601f8201168201806040525061126b91908101906119d0565b145b6112ac576040517f08c379a00000000000000000000000000000000000000000000000000000000081526004016112a390612238565b60405180910390fd5b611346838473ffffffffffffffffffffffffffffffffffffffff1663095ea7b3905060e01b84846040516024016112e4929190612073565b604051602081830303815290604052907bffffffffffffffffffffffffffffffffffffffffffffffffffffffff19166020820180517bffffffffffffffffffffffffffffffffffffffffffffffffffffffff838183161783525050505061147b565b505050565b600073ffffffffffffffffffffffffffffffffffffffff168173ffffffffffffffffffffffffffffffffffffffff1614156113bb576040517f08c379a00000000000000000000000000000000000000000000000000000000081526004016113b290612178565b60405180910390fd5b8073ffffffffffffffffffffffffffffffffffffffff16600160009054906101000a900473ffffffffffffffffffffffffffffffffffffffff1673ffffffffffffffffffffffffffffffffffffffff167f8be0079c531659141344cd1fd0a4f28419497f9722a3daafe3b4186f6b6457e060405160405180910390a380600160006101000a81548173ffffffffffffffffffffffffffffffffffffffff021916908373ffffffffffffffffffffffffffffffffffffffff16021790555050565b61149a8273ffffffffffffffffffffffffffffffffffffffff166115ed565b6114d9576040517f08c379a00000000000000000000000000000000000000000000000000000000081526004016114d090612258565b60405180910390fd5b600060608373ffffffffffffffffffffffffffffffffffffffff16836040516115029190611fe8565b6000604051808303816000865af19150503d806000811461153f576040519150601f19603f3d011682016040523d82523d6000602084013e611544565b606091505b509150915081611589576040517f08c379a0000000000000000000000000000000000000000000000000000000008152600401611580906121b8565b60405180910390fd5b6000815111156115e757808060200190516115a79190810190611955565b6115e6576040517f08c379a00000000000000000000000000000000000000000000000000000000081526004016115dd90612218565b60405180910390fd5b5b50505050565b60008060007fc5d2460186f7233c927e7db2dcc703c0e500b653ca82273b7bfad8045d85a47060001b9050833f91506000801b821415801561162f5750808214155b92505050919050565b6040518060400160405280600073ffffffffffffffffffffffffffffffffffffffff168152602001600081525090565b6040518061010001604052806000600881111561168157fe5b81526020016000815260200161169561177e565b81526020016000815260200160008152602001600073ffffffffffffffffffffffffffffffffffffffff16815260200160008152602001606081525090565b60405180608001604052806000151581526020016000808111156116f457fe5b815260200160008081111561170557fe5b8152602001600081525090565b6040518061010001604052806000600881111561172b57fe5b81526020016000815260200161173f61177e565b81526020016000815260200160008152602001600073ffffffffffffffffffffffffffffffffffffffff16815260200160008152602001606081525090565b604051806080016040528060001515815260200160008081111561179e57fe5b81526020016000808111156117af57fe5b8152602001600081525090565b6000813590506117cb8161255d565b92915050565b6000815190506117e081612574565b92915050565b600082601f8301126117f757600080fd5b813561180a611805826122c0565b612293565b9150808252602083016020830185838301111561182657600080fd5b6118318382846124e3565b50505092915050565b6000813590506118498161258b565b92915050565b60006040828403121561186157600080fd5b61186b6040612293565b9050600061187b848285016117bc565b600083015250602061188f8482850161189b565b60208301525092915050565b6000813590506118aa816125a2565b92915050565b6000815190506118bf816125a2565b92915050565b6000602082840312156118d757600080fd5b60006118e5848285016117bc565b91505092915050565b60008060006080848603121561190357600080fd5b6000611911868287016117bc565b93505060206119228682870161184f565b925050606084013567ffffffffffffffff81111561193f57600080fd5b61194b868287016117e6565b9150509250925092565b60006020828403121561196757600080fd5b6000611975848285016117d1565b91505092915050565b60006020828403121561199057600080fd5b600061199e8482850161183a565b91505092915050565b6000602082840312156119b957600080fd5b60006119c78482850161189b565b91505092915050565b6000602082840312156119e257600080fd5b60006119f0848285016118b0565b91505092915050565b6000611a058383611e93565b905092915050565b6000611a198383611f9b565b60408301905092915050565b611a2e81612441565b82525050565b611a3d816123a1565b82525050565b611a4c816123a1565b82525050565b6000611a5d8261230c565b611a678185612352565b935083602082028501611a79856122ec565b8060005b85811015611ab55784840389528151611a9685826119f9565b9450611aa183612338565b925060208a01995050600181019050611a7d565b50829750879550505050505092915050565b6000611ad282612317565b611adc8185612363565b9350611ae7836122fc565b8060005b83811015611b18578151611aff8882611a0d565b9750611b0a83612345565b925050600181019050611aeb565b5085935050505092915050565b611b2e816123b3565b82525050565b611b3d816123b3565b82525050565b6000611b4e8261232d565b611b588185612385565b9350611b688185602086016124f2565b80840191505092915050565b6000611b7f82612322565b611b898185612374565b9350611b998185602086016124f2565b611ba281612525565b840191505092915050565b611bb681612453565b82525050565b611bc581612465565b82525050565b611bd481612477565b82525050565b611be381612489565b82525050565b611bf28161249b565b82525050565b611c01816124ad565b82525050565b6000611c14602683612390565b91507f4f776e61626c653a206e6577206f776e657220697320746865207a65726f206160008301527f64647265737300000000000000000000000000000000000000000000000000006020830152604082019050919050565b6000611c7a601b83612390565b91507f536166654d6174683a206164646974696f6e206f766572666c6f7700000000006000830152602082019050919050565b6000611cba602083612390565b91507f5361666545524332303a206c6f772d6c6576656c2063616c6c206661696c65646000830152602082019050919050565b6000611cfa601683612390565b91507f7472616e73666572206f6620455448206661696c6564000000000000000000006000830152602082019050919050565b6000611d3a602083612390565b91507f4f776e61626c653a2063616c6c6572206973206e6f7420746865206f776e65726000830152602082019050919050565b6000611d7a600083612385565b9150600082019050919050565b6000611d94602a83612390565b91507f5361666545524332303a204552433230206f7065726174696f6e20646964206e60008301527f6f742073756363656564000000000000000000000000000000000000000000006020830152604082019050919050565b6000611dfa603683612390565b91507f5361666545524332303a20617070726f76652066726f6d206e6f6e2d7a65726f60008301527f20746f206e6f6e2d7a65726f20616c6c6f77616e6365000000000000000000006020830152604082019050919050565b6000611e60601f83612390565b91507f5361666545524332303a2063616c6c20746f206e6f6e2d636f6e7472616374006000830152602082019050919050565b600061016083016000830151611eac6000860182611bad565b506020830151611ebf6020860182611fca565b506040830151611ed26040860182611f46565b506060830151611ee560c0860182611fca565b506080830151611ef860e0860182611fca565b5060a0830151611f0c610100860182611a34565b5060c0830151611f20610120860182611fca565b5060e0830151848203610140860152611f398282611b74565b9150508091505092915050565b608082016000820151611f5c6000850182611b25565b506020820151611f6f6020850182611bbc565b506040820151611f826040850182611bcb565b506060820151611f956060850182611fca565b50505050565b604082016000820151611fb16000850182611a34565b506020820151611fc46020850182611fca565b50505050565b611fd381612437565b82525050565b611fe281612437565b82525050565b6000611ff48284611b43565b915081905092915050565b600061200a82611d6d565b9150819050919050565b60006020820190506120296000830184611a43565b92915050565b60006020820190506120446000830184611a25565b92915050565b600060408201905061205f6000830185611a43565b61206c6020830184611a43565b9392505050565b60006040820190506120886000830185611a43565b6120956020830184611fd9565b9392505050565b600060408201905081810360008301526120b68185611ac7565b905081810360208301526120ca8184611a52565b90509392505050565b60006020820190506120e86000830184611b34565b92915050565b60006080820190506121036000830187611bda565b6121106020830186611bf8565b61211d6040830185611fd9565b61212a6060830184611be9565b95945050505050565b60006080820190506121486000830187611bf8565b6121556020830186611bda565b6121626040830185611fd9565b61216f6060830184611be9565b95945050505050565b6000602082019050818103600083015261219181611c07565b9050919050565b600060208201905081810360008301526121b181611c6d565b9050919050565b600060208201905081810360008301526121d181611cad565b9050919050565b600060208201905081810360008301526121f181611ced565b9050919050565b6000602082019050818103600083015261221181611d2d565b9050919050565b6000602082019050818103600083015261223181611d87565b9050919050565b6000602082019050818103600083015261225181611ded565b9050919050565b6000602082019050818103600083015261227181611e53565b9050919050565b600060208201905061228d6000830184611fd9565b92915050565b6000604051905081810181811067ffffffffffffffff821117156122b657600080fd5b8060405250919050565b600067ffffffffffffffff8211156122d757600080fd5b601f19601f8301169050602081019050919050565b6000819050602082019050919050565b6000819050602082019050919050565b600081519050919050565b600081519050919050565b600081519050919050565b600081519050919050565b6000602082019050919050565b6000602082019050919050565b600082825260208201905092915050565b600082825260208201905092915050565b600082825260208201905092915050565b600081905092915050565b600082825260208201905092915050565b60006123ac82612417565b9050919050565b60008115159050919050565b60006123ca826123a1565b9050919050565b60008190506123df82612536565b919050565b60008190506123f282612543565b919050565b600081905061240582612550565b919050565b600081600f0b9050919050565b600073ffffffffffffffffffffffffffffffffffffffff82169050919050565b6000819050919050565b600061244c826124bf565b9050919050565b600061245e826123d1565b9050919050565b6000612470826123e4565b9050919050565b6000612482826123f7565b9050919050565b60006124948261240a565b9050919050565b60006124a682612437565b9050919050565b60006124b88261240a565b9050919050565b60006124ca826124d1565b9050919050565b60006124dc82612417565b9050919050565b82818337600083830152505050565b60005b838110156125105780820151818401526020810190506124f5565b8381111561251f576000848401525b50505050565b6000601f19601f8301169050919050565b6009811061254057fe5b50565b6001811061254d57fe5b50565b6001811061255a57fe5b50565b612566816123a1565b811461257157600080fd5b50565b61257d816123b3565b811461258857600080fd5b50565b612594816123bf565b811461259f57600080fd5b50565b6125ab81612437565b81146125b657600080fd5b5056fea365627a7a72315820676c9362c121d701e7fd017a832d1b834e42ef0999988fbdf0561cd90561f1716c6578706572696d656e74616cf564736f6c634300050c0040",
  "source": "pragma solidity ^0.5.0;\npragma experimental ABIEncoderV2;\n\ninterface IERC20 {\n    function totalSupply() external view returns (uint256);\n    function balanceOf(address account) external view returns (uint256);\n    function transfer(address recipient, uint256 amount) external returns (bool);\n    function allowance(address owner, address spender) external view returns (uint256);\n    function approve(address spender, uint256 amount) external returns (bool);\n    function transferFrom(address sender, address recipient, uint256 amount) external returns (bool);\n    event Transfer(address indexed from, address indexed to, uint256 value);\n    event Approval(address indexed owner, address indexed spender, uint256 value);\n}\n\ncontract Context {\n    constructor () internal { }\n    // solhint-disable-previous-line no-empty-blocks\n\n    function _msgSender() internal view returns (address payable) {\n        return msg.sender;\n    }\n\n    function _msgData() internal view returns (bytes memory) {\n        this; // silence state mutability warning without generating bytecode - see https://github.com/ethereum/solidity/issues/2691\n        return msg.data;\n    }\n}\n\ncontract ReentrancyGuard {\n    uint256 private _guardCounter;\n\n    constructor () internal {\n        _guardCounter = 1;\n    }\n\n    modifier nonReentrant() {\n        _guardCounter += 1;\n        uint256 localCounter = _guardCounter;\n        _;\n        require(localCounter == _guardCounter, \"ReentrancyGuard: reentrant call\");\n    }\n}\n\ncontract Ownable is Context {\n    address private _owner;\n\n    event OwnershipTransferred(address indexed previousOwner, address indexed newOwner);\n    constructor () internal {\n        _owner = _msgSender();\n        emit OwnershipTransferred(address(0), _owner);\n    }\n    function owner() public view returns (address) {\n        return _owner;\n    }\n    modifier onlyOwner() {\n        require(isOwner(), \"Ownable: caller is not the owner\");\n        _;\n    }\n    function isOwner() public view returns (bool) {\n        return _msgSender() == _owner;\n    }\n    function renounceOwnership() public onlyOwner {\n        emit OwnershipTransferred(_owner, address(0));\n        _owner = address(0);\n    }\n    function transferOwnership(address newOwner) public onlyOwner {\n        _transferOwnership(newOwner);\n    }\n    function _transferOwnership(address newOwner) internal {\n        require(newOwner != address(0), \"Ownable: new owner is the zero address\");\n        emit OwnershipTransferred(_owner, newOwner);\n        _owner = newOwner;\n    }\n}\n\nlibrary SafeMath {\n    function add(uint256 a, uint256 b) internal pure returns (uint256) {\n        uint256 c = a + b;\n        require(c >= a, \"SafeMath: addition overflow\");\n\n        return c;\n    }\n    function sub(uint256 a, uint256 b) internal pure returns (uint256) {\n        return sub(a, b, \"SafeMath: subtraction overflow\");\n    }\n    function sub(uint256 a, uint256 b, string memory errorMessage) internal pure returns (uint256) {\n        require(b <= a, errorMessage);\n        uint256 c = a - b;\n\n        return c;\n    }\n    function mul(uint256 a, uint256 b) internal pure returns (uint256) {\n        if (a == 0) {\n            return 0;\n        }\n\n        uint256 c = a * b;\n        require(c / a == b, \"SafeMath: multiplication overflow\");\n\n        return c;\n    }\n    function div(uint256 a, uint256 b) internal pure returns (uint256) {\n        return div(a, b, \"SafeMath: division by zero\");\n    }\n    function div(uint256 a, uint256 b, string memory errorMessage) internal pure returns (uint256) {\n        // Solidity only automatically asserts when dividing by 0\n        require(b > 0, errorMessage);\n        uint256 c = a / b;\n\n        return c;\n    }\n    function mod(uint256 a, uint256 b) internal pure returns (uint256) {\n        return mod(a, b, \"SafeMath: modulo by zero\");\n    }\n    function mod(uint256 a, uint256 b, string memory errorMessage) internal pure returns (uint256) {\n        require(b != 0, errorMessage);\n        return a % b;\n    }\n}\n\nlibrary Address {\n    function isContract(address account) internal view returns (bool) {\n        bytes32 codehash;\n        bytes32 accountHash = 0xc5d2460186f7233c927e7db2dcc703c0e500b653ca82273b7bfad8045d85a470;\n        // solhint-disable-next-line no-inline-assembly\n        assembly { codehash := extcodehash(account) }\n        return (codehash != 0x0 && codehash != accountHash);\n    }\n    function toPayable(address account) internal pure returns (address payable) {\n        return address(uint160(account));\n    }\n    function sendValue(address payable recipient, uint256 amount) internal {\n        require(address(this).balance >= amount, \"Address: insufficient balance\");\n\n        // solhint-disable-next-line avoid-call-value\n        (bool success, ) = recipient.call.value(amount)(\"\");\n        require(success, \"Address: unable to send value, recipient may have reverted\");\n    }\n}\n\nlibrary SafeERC20 {\n    using SafeMath for uint256;\n    using Address for address;\n\n    function safeTransfer(IERC20 token, address to, uint256 value) internal {\n        callOptionalReturn(token, abi.encodeWithSelector(token.transfer.selector, to, value));\n    }\n    function safeTransferFrom(IERC20 token, address from, address to, uint256 value) internal {\n        callOptionalReturn(token, abi.encodeWithSelector(token.transferFrom.selector, from, to, value));\n    }\n    function safeApprove(IERC20 token, address spender, uint256 value) internal {\n        require((value == 0) || (token.allowance(address(this), spender) == 0),\n            \"SafeERC20: approve from non-zero to non-zero allowance\"\n        );\n        callOptionalReturn(token, abi.encodeWithSelector(token.approve.selector, spender, value));\n    }\n    function callOptionalReturn(IERC20 token, bytes memory data) private {\n        require(address(token).isContract(), \"SafeERC20: call to non-contract\");\n\n        // solhint-disable-next-line avoid-low-level-calls\n        (bool success, bytes memory returndata) = address(token).call(data);\n        require(success, \"SafeERC20: low-level call failed\");\n\n        if (returndata.length > 0) { // Return data is optional\n            // solhint-disable-next-line max-line-length\n            require(abi.decode(returndata, (bool)), \"SafeERC20: ERC20 operation did not succeed\");\n        }\n    }\n}\n\ninterface ICurveFi {\n  function exchange_underlying(\n    int128 from, int128 to, uint256 _from_amount, uint256 _min_to_amount\n  ) external;\n}\n\ncontract Structs {\n    struct Val {\n        uint256 value;\n    }\n\n    enum ActionType {\n      Deposit,   // supply tokens\n      Withdraw,  // borrow tokens\n      Transfer,  // transfer balance between accounts\n      Buy,       // buy an amount of some token (externally)\n      Sell,      // sell an amount of some token (externally)\n      Trade,     // trade tokens against another account\n      Liquidate, // liquidate an undercollateralized or expiring account\n      Vaporize,  // use excess tokens to zero-out a completely negative account\n      Call       // send arbitrary data to an address\n    }\n\n    enum AssetDenomination {\n        Wei // the amount is denominated in wei\n    }\n\n    enum AssetReference {\n        Delta // the amount is given as a delta from the current value\n    }\n\n    struct AssetAmount {\n        bool sign; // true if positive\n        AssetDenomination denomination;\n        AssetReference ref;\n        uint256 value;\n    }\n\n    struct ActionArgs {\n        ActionType actionType;\n        uint256 accountId;\n        AssetAmount amount;\n        uint256 primaryMarketId;\n        uint256 secondaryMarketId;\n        address otherAddress;\n        uint256 otherAccountId;\n        bytes data;\n    }\n\n    struct Info {\n        address owner;  // The address that owns the account\n        uint256 number; // A nonce that allows a single address to control many accounts\n    }\n\n    struct Wei {\n        bool sign; // true if positive\n        uint256 value;\n    }\n}\n\ncontract DyDx is Structs {\n    function getAccountWei(Info memory account, uint256 marketId) public view returns (Wei memory);\n    function operate(Info[] memory, ActionArgs[] memory) public;\n}\n\n\ncontract busdCurveFlashDAI is ReentrancyGuard, Ownable, Structs {\n  using SafeERC20 for IERC20;\n  using Address for address;\n  using SafeMath for uint256;\n\n  address public swap;\n  address public dydx;\n  address public dai;\n  address public usdt;\n  address public usdc;\n  uint256 public _amount;\n\n  constructor () public {\n    dydx = address(0x1E0447b19BB6EcFdAe1e4AE1694b0C3659614e4e);\n    swap = address(0x79a8C46DeA5aDa233ABaFFD40F3A0A2B1e5A4F27);\n    dai = address(0x6B175474E89094C44Da98b954EedeAC495271d0F);\n    usdc = address(0xA0b86991c6218b36c1d19D4a2e9Eb0cE3606eB48);\n    usdt = address(0xdAC17F958D2ee523a2206206994597C13D831ec7);\n\n    approveToken();\n  }\n\n  function flash(uint256 amount) public {\n    _amount = amount;\n    Info[] memory infos = new Info[](1);\n    ActionArgs[] memory args = new ActionArgs[](3);\n\n    infos[0] = Info(address(this), 0);\n\n    AssetAmount memory wamt = AssetAmount(false, AssetDenomination.Wei, AssetReference.Delta, amount);\n    ActionArgs memory withdraw;\n    withdraw.actionType = ActionType.Withdraw;\n    withdraw.accountId = 0;\n    withdraw.amount = wamt;\n    withdraw.primaryMarketId = 3;\n    withdraw.otherAddress = address(this);\n\n    args[0] = withdraw;\n\n    ActionArgs memory call;\n    call.actionType = ActionType.Call;\n    call.accountId = 0;\n    call.otherAddress = address(this);\n\n    args[1] = call;\n\n    ActionArgs memory deposit;\n    AssetAmount memory damt = AssetAmount(true, AssetDenomination.Wei, AssetReference.Delta, amount.add(1));\n    deposit.actionType = ActionType.Deposit;\n    deposit.accountId = 0;\n    deposit.amount = damt;\n    deposit.primaryMarketId = 3;\n    deposit.otherAddress = address(this);\n\n    args[2] = deposit;\n\n    DyDx(dydx).operate(infos, args);\n  }\n\n  function callFunction(\n      address sender,\n      Info memory accountInfo,\n      bytes memory data\n  ) public {\n    // 0 = DAI, 1 = USDC, 2 = USDT, 3 = TUSD\n    ICurveFi(swap).exchange_underlying(0, 2, _amount, 0);\n    ICurveFi(swap).exchange_underlying(2, 0, IERC20(usdt).balanceOf(address(this)), 0);\n  }\n\n  function() external payable {\n\n  }\n\n  function approveToken() public {\n      IERC20(dai).safeApprove(swap, uint(-1));\n      IERC20(dai).safeApprove(dydx, uint(-1));\n      IERC20(usdc).safeApprove(swap, uint(-1));\n      IERC20(usdc).safeApprove(dydx, uint(-1));\n      IERC20(usdt).safeApprove(swap, uint(-1));\n      IERC20(usdt).safeApprove(dydx, uint(-1));\n  }\n\n  // incase of half-way error\n  function inCaseTokenGetsStuck(IERC20 _TokenAddress) onlyOwner public {\n      uint qty = _TokenAddress.balanceOf(address(this));\n      _TokenAddress.safeTransfer(msg.sender, qty);\n  }\n\n  // incase of half-way error\n  function inCaseETHGetsStuck() onlyOwner public{\n      (bool result, ) = msg.sender.call.value(address(this).balance)(\"\");\n      require(result, \"transfer of ETH failed\");\n  }\n}\n",
  "sourcePath": "D:/ftm/itoken/contracts/busdCurveFlashDAI.sol",
  "compiler": {
    "name": "solc",
    "version": "0.5.12+commit.7709ece9.Emscripten.clang"
  },
  "schemaVersion": "3.0.19",
  "updatedAt": "2020-03-01T04:34:18.146Z",
  "devdoc": {
    "methods": {}
  },
  "userdoc": {
    "methods": {}
  }
}