{
  "contractName": "busdCurveGrantPool",
  "abi": [
    {
      "inputs": [],
      "payable": false,
      "stateMutability": "nonpayable",
      "type": "constructor"
    },
    {
      "anonymous": false,
      "inputs": [
        {
          "indexed": true,
          "internalType": "address",
          "name": "previousOwner",
          "type": "address"
        },
        {
          "indexed": true,
          "internalType": "address",
          "name": "newOwner",
          "type": "address"
        }
      ],
      "name": "OwnershipTransferred",
      "type": "event"
    },
    {
      "payable": true,
      "stateMutability": "payable",
      "type": "fallback"
    },
    {
      "constant": true,
      "inputs": [],
      "name": "CURVE",
      "outputs": [
        {
          "internalType": "address",
          "name": "",
          "type": "address"
        }
      ],
      "payable": false,
      "stateMutability": "view",
      "type": "function"
    },
    {
      "constant": true,
      "inputs": [],
      "name": "DAI",
      "outputs": [
        {
          "internalType": "address",
          "name": "",
          "type": "address"
        }
      ],
      "payable": false,
      "stateMutability": "view",
      "type": "function"
    },
    {
      "constant": true,
      "inputs": [],
      "name": "SWAP",
      "outputs": [
        {
          "internalType": "address",
          "name": "",
          "type": "address"
        }
      ],
      "payable": false,
      "stateMutability": "view",
      "type": "function"
    },
    {
      "constant": true,
      "inputs": [],
      "name": "USDC",
      "outputs": [
        {
          "internalType": "address",
          "name": "",
          "type": "address"
        }
      ],
      "payable": false,
      "stateMutability": "view",
      "type": "function"
    },
    {
      "constant": true,
      "inputs": [],
      "name": "USDT",
      "outputs": [
        {
          "internalType": "address",
          "name": "",
          "type": "address"
        }
      ],
      "payable": false,
      "stateMutability": "view",
      "type": "function"
    },
    {
      "constant": true,
      "inputs": [],
      "name": "isOwner",
      "outputs": [
        {
          "internalType": "bool",
          "name": "",
          "type": "bool"
        }
      ],
      "payable": false,
      "stateMutability": "view",
      "type": "function"
    },
    {
      "constant": true,
      "inputs": [],
      "name": "owner",
      "outputs": [
        {
          "internalType": "address",
          "name": "",
          "type": "address"
        }
      ],
      "payable": false,
      "stateMutability": "view",
      "type": "function"
    },
    {
      "constant": false,
      "inputs": [],
      "name": "renounceOwnership",
      "outputs": [],
      "payable": false,
      "stateMutability": "nonpayable",
      "type": "function"
    },
    {
      "constant": false,
      "inputs": [
        {
          "internalType": "address",
          "name": "newOwner",
          "type": "address"
        }
      ],
      "name": "transferOwnership",
      "outputs": [],
      "payable": false,
      "stateMutability": "nonpayable",
      "type": "function"
    },
    {
      "constant": true,
      "inputs": [],
      "name": "yDAI",
      "outputs": [
        {
          "internalType": "address",
          "name": "",
          "type": "address"
        }
      ],
      "payable": false,
      "stateMutability": "view",
      "type": "function"
    },
    {
      "constant": true,
      "inputs": [],
      "name": "yUSDC",
      "outputs": [
        {
          "internalType": "address",
          "name": "",
          "type": "address"
        }
      ],
      "payable": false,
      "stateMutability": "view",
      "type": "function"
    },
    {
      "constant": true,
      "inputs": [],
      "name": "yUSDT",
      "outputs": [
        {
          "internalType": "address",
          "name": "",
          "type": "address"
        }
      ],
      "payable": false,
      "stateMutability": "view",
      "type": "function"
    },
    {
      "constant": false,
      "inputs": [],
      "name": "approveToken",
      "outputs": [],
      "payable": false,
      "stateMutability": "nonpayable",
      "type": "function"
    },
    {
      "constant": false,
      "inputs": [
        {
          "internalType": "uint256",
          "name": "_amount",
          "type": "uint256"
        }
      ],
      "name": "donate",
      "outputs": [],
      "payable": false,
      "stateMutability": "nonpayable",
      "type": "function"
    },
    {
      "constant": false,
      "inputs": [
        {
          "internalType": "contract IERC20",
          "name": "_TokenAddress",
          "type": "address"
        }
      ],
      "name": "inCaseTokenGetsStuck",
      "outputs": [],
      "payable": false,
      "stateMutability": "nonpayable",
      "type": "function"
    },
    {
      "constant": false,
      "inputs": [],
      "name": "inCaseETHGetsStuck",
      "outputs": [],
      "payable": false,
      "stateMutability": "nonpayable",
      "type": "function"
    }
  ],
  "bytecode": "0x60806040523480156200001157600080fd5b5060016000819055506200002a620003a560201b60201c565b600160006101000a81548173ffffffffffffffffffffffffffffffffffffffff021916908373ffffffffffffffffffffffffffffffffffffffff160217905550600160009054906101000a900473ffffffffffffffffffffffffffffffffffffffff1673ffffffffffffffffffffffffffffffffffffffff16600073ffffffffffffffffffffffffffffffffffffffff167f8be0079c531659141344cd1fd0a4f28419497f9722a3daafe3b4186f6b6457e060405160405180910390a3736b175474e89094c44da98b954eedeac495271d0f600260006101000a81548173ffffffffffffffffffffffffffffffffffffffff021916908373ffffffffffffffffffffffffffffffffffffffff16021790555073c2cb1040220768554cf699b0d863a3cd4324ce32600360006101000a81548173ffffffffffffffffffffffffffffffffffffffff021916908373ffffffffffffffffffffffffffffffffffffffff16021790555073a0b86991c6218b36c1d19d4a2e9eb0ce3606eb48600460006101000a81548173ffffffffffffffffffffffffffffffffffffffff021916908373ffffffffffffffffffffffffffffffffffffffff1602179055507326ea744e5b887e5205727f55dfbe8685e3b21951600560006101000a81548173ffffffffffffffffffffffffffffffffffffffff021916908373ffffffffffffffffffffffffffffffffffffffff16021790555073dac17f958d2ee523a2206206994597c13d831ec7600660006101000a81548173ffffffffffffffffffffffffffffffffffffffff021916908373ffffffffffffffffffffffffffffffffffffffff16021790555073e6354ed5bc4b393a5aad09f21c46e101e692d447600760006101000a81548173ffffffffffffffffffffffffffffffffffffffff021916908373ffffffffffffffffffffffffffffffffffffffff1602179055507379a8c46dea5ada233abaffd40f3a0a2b1e5a4f27600860006101000a81548173ffffffffffffffffffffffffffffffffffffffff021916908373ffffffffffffffffffffffffffffffffffffffff160217905550733b3ac5386837dc563660fb6a0937dfaa5924333b600960006101000a81548173ffffffffffffffffffffffffffffffffffffffff021916908373ffffffffffffffffffffffffffffffffffffffff1602179055506200039f620003ad60201b60201c565b62000ce0565b600033905090565b62000443600860009054906101000a900473ffffffffffffffffffffffffffffffffffffffff167fffffffffffffffffffffffffffffffffffffffffffffffffffffffffffffffff600360009054906101000a900473ffffffffffffffffffffffffffffffffffffffff1673ffffffffffffffffffffffffffffffffffffffff166200057160201b62001355179092919060201c565b620004d9600860009054906101000a900473ffffffffffffffffffffffffffffffffffffffff167fffffffffffffffffffffffffffffffffffffffffffffffffffffffffffffffff600560009054906101000a900473ffffffffffffffffffffffffffffffffffffffff1673ffffffffffffffffffffffffffffffffffffffff166200057160201b62001355179092919060201c565b6200056f600860009054906101000a900473ffffffffffffffffffffffffffffffffffffffff167fffffffffffffffffffffffffffffffffffffffffffffffffffffffffffffffff600760009054906101000a900473ffffffffffffffffffffffffffffffffffffffff1673ffffffffffffffffffffffffffffffffffffffff166200057160201b62001355179092919060201c565b565b600081148062000611575060008373ffffffffffffffffffffffffffffffffffffffff1663dd62ed3e30856040518363ffffffff1660e01b8152600401620005bb92919062000b23565b60206040518083038186803b158015620005d457600080fd5b505afa158015620005e9573d6000803e3d6000fd5b505050506040513d601f19601f820116820180604052506200060f919081019062000931565b145b62000653576040517f08c379a00000000000000000000000000000000000000000000000000000000081526004016200064a9062000bc1565b60405180910390fd5b620006f7838473ffffffffffffffffffffffffffffffffffffffff1663095ea7b3905060e01b84846040516024016200068e92919062000b50565b604051602081830303815290604052907bffffffffffffffffffffffffffffffffffffffffffffffffffffffff19166020820180517bffffffffffffffffffffffffffffffffffffffffffffffffffffffff8381831617835250505050620006fc60201b60201c565b505050565b620007288273ffffffffffffffffffffffffffffffffffffffff166200088b60201b6200176e1760201c565b6200076a576040517f08c379a0000000000000000000000000000000000000000000000000000000008152600401620007619062000be3565b60405180910390fd5b600060608373ffffffffffffffffffffffffffffffffffffffff168360405162000795919062000b0a565b6000604051808303816000865af19150503d8060008114620007d4576040519150601f19603f3d011682016040523d82523d6000602084013e620007d9565b606091505b50915091508162000821576040517f08c379a0000000000000000000000000000000000000000000000000000000008152600401620008189062000b7d565b60405180910390fd5b60008151111562000885578080602001905162000842919081019062000905565b62000884576040517f08c379a00000000000000000000000000000000000000000000000000000000081526004016200087b9062000b9f565b60405180910390fd5b5b50505050565b60008060007fc5d2460186f7233c927e7db2dcc703c0e500b653ca82273b7bfad8045d85a47060001b9050833f91506000801b8214158015620008ce5750808214155b92505050919050565b600081519050620008e88162000cac565b92915050565b600081519050620008ff8162000cc6565b92915050565b6000602082840312156200091857600080fd5b60006200092884828501620008d7565b91505092915050565b6000602082840312156200094457600080fd5b60006200095484828501620008ee565b91505092915050565b620009688162000c2c565b82525050565b60006200097b8262000c05565b62000987818562000c10565b93506200099981856020860162000c76565b80840191505092915050565b6000620009b460208362000c1b565b91507f5361666545524332303a206c6f772d6c6576656c2063616c6c206661696c65646000830152602082019050919050565b6000620009f6602a8362000c1b565b91507f5361666545524332303a204552433230206f7065726174696f6e20646964206e60008301527f6f742073756363656564000000000000000000000000000000000000000000006020830152604082019050919050565b600062000a5e60368362000c1b565b91507f5361666545524332303a20617070726f76652066726f6d206e6f6e2d7a65726f60008301527f20746f206e6f6e2d7a65726f20616c6c6f77616e6365000000000000000000006020830152604082019050919050565b600062000ac6601f8362000c1b565b91507f5361666545524332303a2063616c6c20746f206e6f6e2d636f6e7472616374006000830152602082019050919050565b62000b048162000c6c565b82525050565b600062000b1882846200096e565b915081905092915050565b600060408201905062000b3a60008301856200095d565b62000b4960208301846200095d565b9392505050565b600060408201905062000b6760008301856200095d565b62000b76602083018462000af9565b9392505050565b6000602082019050818103600083015262000b9881620009a5565b9050919050565b6000602082019050818103600083015262000bba81620009e7565b9050919050565b6000602082019050818103600083015262000bdc8162000a4f565b9050919050565b6000602082019050818103600083015262000bfe8162000ab7565b9050919050565b600081519050919050565b600081905092915050565b600082825260208201905092915050565b600062000c398262000c4c565b9050919050565b60008115159050919050565b600073ffffffffffffffffffffffffffffffffffffffff82169050919050565b6000819050919050565b60005b8381101562000c9657808201518184015260208101905062000c79565b8381111562000ca6576000848401525b50505050565b62000cb78162000c40565b811462000cc357600080fd5b50565b62000cd18162000c6c565b811462000cdd57600080fd5b50565b61202f8062000cf06000396000f3fe6080604052600436106100f35760003560e01c80638da5cb5b1161008a578063e0bab4c411610059578063e0bab4c4146102cf578063f14faf6f146102fa578063f2fde38b14610323578063f60a15ed1461034c576100f3565b80638da5cb5b146102375780638f32d59b1461026257806399b71d5c1461028d578063c54e44eb146102a4576100f3565b80633a3c3b87116100c65780633a3c3b871461019f578063715018a6146101ca578063756bb1cc146101e157806389a302711461020c576100f3565b806304d84108146100f557806317e5a9a41461012057806319d9e0081461014b5780632e8d6e1814610176575b005b34801561010157600080fd5b5061010a610363565b6040516101179190611c92565b60405180910390f35b34801561012c57600080fd5b50610135610389565b6040516101429190611c92565b60405180910390f35b34801561015757600080fd5b506101606103af565b60405161016d9190611c92565b60405180910390f35b34801561018257600080fd5b5061019d60048036036101989190810190611874565b6103d5565b005b3480156101ab57600080fd5b506101b46104d8565b6040516101c19190611c92565b60405180910390f35b3480156101d657600080fd5b506101df6104fe565b005b3480156101ed57600080fd5b506101f6610606565b6040516102039190611c92565b60405180910390f35b34801561021857600080fd5b5061022161062c565b60405161022e9190611c92565b60405180910390f35b34801561024357600080fd5b5061024c610652565b6040516102599190611c92565b60405180910390f35b34801561026e57600080fd5b5061027761067c565b6040516102849190611d1a565b60405180910390f35b34801561029957600080fd5b506102a26106db565b005b3480156102b057600080fd5b506102b961088a565b6040516102c69190611c92565b60405180910390f35b3480156102db57600080fd5b506102e46108b0565b6040516102f19190611c92565b60405180910390f35b34801561030657600080fd5b50610321600480360361031c919081019061189d565b6108d6565b005b34801561032f57600080fd5b5061034a60048036036103459190810190611822565b61114e565b005b34801561035857600080fd5b506103616111a1565b005b600860009054906101000a900473ffffffffffffffffffffffffffffffffffffffff1681565b600760009054906101000a900473ffffffffffffffffffffffffffffffffffffffff1681565b600560009054906101000a900473ffffffffffffffffffffffffffffffffffffffff1681565b6103dd61067c565b61041c576040517f08c379a000000000000000000000000000000000000000000000000000000000815260040161041390611d95565b60405180910390fd5b60008173ffffffffffffffffffffffffffffffffffffffff166370a08231306040518263ffffffff1660e01b81526004016104579190611cad565b60206040518083038186803b15801561046f57600080fd5b505afa158015610483573d6000803e3d6000fd5b505050506040513d601f19601f820116820180604052506104a791908101906118c6565b90506104d433828473ffffffffffffffffffffffffffffffffffffffff166112ae9092919063ffffffff16565b5050565b600960009054906101000a900473ffffffffffffffffffffffffffffffffffffffff1681565b61050661067c565b610545576040517f08c379a000000000000000000000000000000000000000000000000000000000815260040161053c90611d95565b60405180910390fd5b600073ffffffffffffffffffffffffffffffffffffffff16600160009054906101000a900473ffffffffffffffffffffffffffffffffffffffff1673ffffffffffffffffffffffffffffffffffffffff167f8be0079c531659141344cd1fd0a4f28419497f9722a3daafe3b4186f6b6457e060405160405180910390a36000600160006101000a81548173ffffffffffffffffffffffffffffffffffffffff021916908373ffffffffffffffffffffffffffffffffffffffff160217905550565b600360009054906101000a900473ffffffffffffffffffffffffffffffffffffffff1681565b600460009054906101000a900473ffffffffffffffffffffffffffffffffffffffff1681565b6000600160009054906101000a900473ffffffffffffffffffffffffffffffffffffffff16905090565b6000600160009054906101000a900473ffffffffffffffffffffffffffffffffffffffff1673ffffffffffffffffffffffffffffffffffffffff166106bf61134d565b73ffffffffffffffffffffffffffffffffffffffff1614905090565b61076a600860009054906101000a900473ffffffffffffffffffffffffffffffffffffffff167fffffffffffffffffffffffffffffffffffffffffffffffffffffffffffffffff600360009054906101000a900473ffffffffffffffffffffffffffffffffffffffff1673ffffffffffffffffffffffffffffffffffffffff166113559092919063ffffffff16565b6107f9600860009054906101000a900473ffffffffffffffffffffffffffffffffffffffff167fffffffffffffffffffffffffffffffffffffffffffffffffffffffffffffffff600560009054906101000a900473ffffffffffffffffffffffffffffffffffffffff1673ffffffffffffffffffffffffffffffffffffffff166113559092919063ffffffff16565b610888600860009054906101000a900473ffffffffffffffffffffffffffffffffffffffff167fffffffffffffffffffffffffffffffffffffffffffffffffffffffffffffffff600760009054906101000a900473ffffffffffffffffffffffffffffffffffffffff1673ffffffffffffffffffffffffffffffffffffffff166113559092919063ffffffff16565b565b600660009054906101000a900473ffffffffffffffffffffffffffffffffffffffff1681565b600260009054906101000a900473ffffffffffffffffffffffffffffffffffffffff1681565b600160008082825401925050819055506000805490506108f461067c565b610933576040517f08c379a000000000000000000000000000000000000000000000000000000000815260040161092a90611d95565b60405180910390fd5b600860009054906101000a900473ffffffffffffffffffffffffffffffffffffffff1673ffffffffffffffffffffffffffffffffffffffff16637d49d87583604051806080016040528060008152602001600081526020016000815260200160008152506040518363ffffffff1660e01b81526004016109b4929190611e50565b600060405180830381600087803b1580156109ce57600080fd5b505af11580156109e2573d6000803e3d6000fd5b505050506000600360009054906101000a900473ffffffffffffffffffffffffffffffffffffffff1673ffffffffffffffffffffffffffffffffffffffff166370a08231306040518263ffffffff1660e01b8152600401610a439190611cad565b60206040518083038186803b158015610a5b57600080fd5b505afa158015610a6f573d6000803e3d6000fd5b505050506040513d601f19601f82011682018060405250610a9391908101906118c6565b90506000600560009054906101000a900473ffffffffffffffffffffffffffffffffffffffff1673ffffffffffffffffffffffffffffffffffffffff166370a08231306040518263ffffffff1660e01b8152600401610af29190611cad565b60206040518083038186803b158015610b0a57600080fd5b505afa158015610b1e573d6000803e3d6000fd5b505050506040513d601f19601f82011682018060405250610b4291908101906118c6565b90506000600760009054906101000a900473ffffffffffffffffffffffffffffffffffffffff1673ffffffffffffffffffffffffffffffffffffffff166370a08231306040518263ffffffff1660e01b8152600401610ba19190611cad565b60206040518083038186803b158015610bb957600080fd5b505afa158015610bcd573d6000803e3d6000fd5b505050506040513d601f19601f82011682018060405250610bf191908101906118c6565b90506000831115610da357600360009054906101000a900473ffffffffffffffffffffffffffffffffffffffff1673ffffffffffffffffffffffffffffffffffffffff16632e1a7d4d846040518263ffffffff1660e01b8152600401610c579190611e35565b600060405180830381600087803b158015610c7157600080fd5b505af1158015610c85573d6000803e3d6000fd5b50505050610da2600360009054906101000a900473ffffffffffffffffffffffffffffffffffffffff16600260009054906101000a900473ffffffffffffffffffffffffffffffffffffffff1673ffffffffffffffffffffffffffffffffffffffff166370a08231306040518263ffffffff1660e01b8152600401610d0a9190611cad565b60206040518083038186803b158015610d2257600080fd5b505afa158015610d36573d6000803e3d6000fd5b505050506040513d601f19601f82011682018060405250610d5a91908101906118c6565b600260009054906101000a900473ffffffffffffffffffffffffffffffffffffffff1673ffffffffffffffffffffffffffffffffffffffff166112ae9092919063ffffffff16565b5b6000821115610f5357600560009054906101000a900473ffffffffffffffffffffffffffffffffffffffff1673ffffffffffffffffffffffffffffffffffffffff16632e1a7d4d836040518263ffffffff1660e01b8152600401610e079190611e35565b600060405180830381600087803b158015610e2157600080fd5b505af1158015610e35573d6000803e3d6000fd5b50505050610f52600560009054906101000a900473ffffffffffffffffffffffffffffffffffffffff16600460009054906101000a900473ffffffffffffffffffffffffffffffffffffffff1673ffffffffffffffffffffffffffffffffffffffff166370a08231306040518263ffffffff1660e01b8152600401610eba9190611cad565b60206040518083038186803b158015610ed257600080fd5b505afa158015610ee6573d6000803e3d6000fd5b505050506040513d601f19601f82011682018060405250610f0a91908101906118c6565b600460009054906101000a900473ffffffffffffffffffffffffffffffffffffffff1673ffffffffffffffffffffffffffffffffffffffff166112ae9092919063ffffffff16565b5b600081111561110357600760009054906101000a900473ffffffffffffffffffffffffffffffffffffffff1673ffffffffffffffffffffffffffffffffffffffff16632e1a7d4d826040518263ffffffff1660e01b8152600401610fb79190611e35565b600060405180830381600087803b158015610fd157600080fd5b505af1158015610fe5573d6000803e3d6000fd5b50505050611102600760009054906101000a900473ffffffffffffffffffffffffffffffffffffffff16600660009054906101000a900473ffffffffffffffffffffffffffffffffffffffff1673ffffffffffffffffffffffffffffffffffffffff166370a08231306040518263ffffffff1660e01b815260040161106a9190611cad565b60206040518083038186803b15801561108257600080fd5b505afa158015611096573d6000803e3d6000fd5b505050506040513d601f19601f820116820180604052506110ba91908101906118c6565b600660009054906101000a900473ffffffffffffffffffffffffffffffffffffffff1673ffffffffffffffffffffffffffffffffffffffff166112ae9092919063ffffffff16565b5b505050600054811461114a576040517f08c379a000000000000000000000000000000000000000000000000000000000815260040161114190611dd5565b60405180910390fd5b5050565b61115661067c565b611195576040517f08c379a000000000000000000000000000000000000000000000000000000000815260040161118c90611d95565b60405180910390fd5b61119e816114cc565b50565b6111a961067c565b6111e8576040517f08c379a00000000000000000000000000000000000000000000000000000000081526004016111df90611d95565b60405180910390fd5b60003373ffffffffffffffffffffffffffffffffffffffff163073ffffffffffffffffffffffffffffffffffffffff163160405161122590611c7d565b60006040518083038185875af1925050503d8060008114611262576040519150601f19603f3d011682016040523d82523d6000602084013e611267565b606091505b50509050806112ab576040517f08c379a00000000000000000000000000000000000000000000000000000000081526004016112a290611d75565b60405180910390fd5b50565b611348838473ffffffffffffffffffffffffffffffffffffffff1663a9059cbb905060e01b84846040516024016112e6929190611cf1565b604051602081830303815290604052907bffffffffffffffffffffffffffffffffffffffffffffffffffffffff19166020820180517bffffffffffffffffffffffffffffffffffffffffffffffffffffffff83818316178352505050506115fc565b505050565b600033905090565b60008114806113ee575060008373ffffffffffffffffffffffffffffffffffffffff1663dd62ed3e30856040518363ffffffff1660e01b815260040161139c929190611cc8565b60206040518083038186803b1580156113b457600080fd5b505afa1580156113c8573d6000803e3d6000fd5b505050506040513d601f19601f820116820180604052506113ec91908101906118c6565b145b61142d576040517f08c379a000000000000000000000000000000000000000000000000000000000815260040161142490611df5565b60405180910390fd5b6114c7838473ffffffffffffffffffffffffffffffffffffffff1663095ea7b3905060e01b8484604051602401611465929190611cf1565b604051602081830303815290604052907bffffffffffffffffffffffffffffffffffffffffffffffffffffffff19166020820180517bffffffffffffffffffffffffffffffffffffffffffffffffffffffff83818316178352505050506115fc565b505050565b600073ffffffffffffffffffffffffffffffffffffffff168173ffffffffffffffffffffffffffffffffffffffff16141561153c576040517f08c379a000000000000000000000000000000000000000000000000000000000815260040161153390611d35565b60405180910390fd5b8073ffffffffffffffffffffffffffffffffffffffff16600160009054906101000a900473ffffffffffffffffffffffffffffffffffffffff1673ffffffffffffffffffffffffffffffffffffffff167f8be0079c531659141344cd1fd0a4f28419497f9722a3daafe3b4186f6b6457e060405160405180910390a380600160006101000a81548173ffffffffffffffffffffffffffffffffffffffff021916908373ffffffffffffffffffffffffffffffffffffffff16021790555050565b61161b8273ffffffffffffffffffffffffffffffffffffffff1661176e565b61165a576040517f08c379a000000000000000000000000000000000000000000000000000000000815260040161165190611e15565b60405180910390fd5b600060608373ffffffffffffffffffffffffffffffffffffffff16836040516116839190611c66565b6000604051808303816000865af19150503d80600081146116c0576040519150601f19603f3d011682016040523d82523d6000602084013e6116c5565b606091505b50915091508161170a576040517f08c379a000000000000000000000000000000000000000000000000000000000815260040161170190611d55565b60405180910390fd5b6000815111156117685780806020019051611728919081019061184b565b611767576040517f08c379a000000000000000000000000000000000000000000000000000000000815260040161175e90611db5565b60405180910390fd5b5b50505050565b60008060007fc5d2460186f7233c927e7db2dcc703c0e500b653ca82273b7bfad8045d85a47060001b9050833f91506000801b82141580156117b05750808214155b92505050919050565b6000813590506117c881611f90565b92915050565b6000815190506117dd81611fa7565b92915050565b6000813590506117f281611fbe565b92915050565b60008135905061180781611fd5565b92915050565b60008151905061181c81611fd5565b92915050565b60006020828403121561183457600080fd5b6000611842848285016117b9565b91505092915050565b60006020828403121561185d57600080fd5b600061186b848285016117ce565b91505092915050565b60006020828403121561188657600080fd5b6000611894848285016117e3565b91505092915050565b6000602082840312156118af57600080fd5b60006118bd848285016117f8565b91505092915050565b6000602082840312156118d857600080fd5b60006118e68482850161180d565b91505092915050565b60006118fb8383611c48565b60208301905092915050565b61191081611f27565b82525050565b61191f81611ecd565b82525050565b61192e81611e83565b6119388184611ea6565b925061194382611e79565b8060005b8381101561197457815161195b87826118ef565b965061196683611e99565b925050600181019050611947565b505050505050565b61198581611edf565b82525050565b600061199682611e8e565b6119a08185611eb1565b93506119b0818560208601611f5d565b80840191505092915050565b60006119c9602683611ebc565b91507f4f776e61626c653a206e6577206f776e657220697320746865207a65726f206160008301527f64647265737300000000000000000000000000000000000000000000000000006020830152604082019050919050565b6000611a2f602083611ebc565b91507f5361666545524332303a206c6f772d6c6576656c2063616c6c206661696c65646000830152602082019050919050565b6000611a6f601683611ebc565b91507f7472616e73666572206f6620455448206661696c6564000000000000000000006000830152602082019050919050565b6000611aaf602083611ebc565b91507f4f776e61626c653a2063616c6c6572206973206e6f7420746865206f776e65726000830152602082019050919050565b6000611aef600083611eb1565b9150600082019050919050565b6000611b09602a83611ebc565b91507f5361666545524332303a204552433230206f7065726174696f6e20646964206e60008301527f6f742073756363656564000000000000000000000000000000000000000000006020830152604082019050919050565b6000611b6f601f83611ebc565b91507f5265656e7472616e637947756172643a207265656e7472616e742063616c6c006000830152602082019050919050565b6000611baf603683611ebc565b91507f5361666545524332303a20617070726f76652066726f6d206e6f6e2d7a65726f60008301527f20746f206e6f6e2d7a65726f20616c6c6f77616e6365000000000000000000006020830152604082019050919050565b6000611c15601f83611ebc565b91507f5361666545524332303a2063616c6c20746f206e6f6e2d636f6e7472616374006000830152602082019050919050565b611c5181611f1d565b82525050565b611c6081611f1d565b82525050565b6000611c72828461198b565b915081905092915050565b6000611c8882611ae2565b9150819050919050565b6000602082019050611ca76000830184611916565b92915050565b6000602082019050611cc26000830184611907565b92915050565b6000604082019050611cdd6000830185611916565b611cea6020830184611916565b9392505050565b6000604082019050611d066000830185611916565b611d136020830184611c57565b9392505050565b6000602082019050611d2f600083018461197c565b92915050565b60006020820190508181036000830152611d4e816119bc565b9050919050565b60006020820190508181036000830152611d6e81611a22565b9050919050565b60006020820190508181036000830152611d8e81611a62565b9050919050565b60006020820190508181036000830152611dae81611aa2565b9050919050565b60006020820190508181036000830152611dce81611afc565b9050919050565b60006020820190508181036000830152611dee81611b62565b9050919050565b60006020820190508181036000830152611e0e81611ba2565b9050919050565b60006020820190508181036000830152611e2e81611c08565b9050919050565b6000602082019050611e4a6000830184611c57565b92915050565b600060a082019050611e656000830185611c57565b611e726020830184611925565b9392505050565b6000819050919050565b600060049050919050565b600081519050919050565b6000602082019050919050565b600081905092915050565b600081905092915050565b600082825260208201905092915050565b6000611ed882611efd565b9050919050565b60008115159050919050565b6000611ef682611ecd565b9050919050565b600073ffffffffffffffffffffffffffffffffffffffff82169050919050565b6000819050919050565b6000611f3282611f39565b9050919050565b6000611f4482611f4b565b9050919050565b6000611f5682611efd565b9050919050565b60005b83811015611f7b578082015181840152602081019050611f60565b83811115611f8a576000848401525b50505050565b611f9981611ecd565b8114611fa457600080fd5b50565b611fb081611edf565b8114611fbb57600080fd5b50565b611fc781611eeb565b8114611fd257600080fd5b50565b611fde81611f1d565b8114611fe957600080fd5b5056fea365627a7a723158209549a28370d5a8a3acba0f4e96a105551b5c2dfbd5dc5da078ed26c64b3680a36c6578706572696d656e74616cf564736f6c634300050c0040",
  "source": "pragma solidity ^0.5.0;\npragma experimental ABIEncoderV2;\n\ninterface IERC20 {\n    function totalSupply() external view returns (uint256);\n    function balanceOf(address account) external view returns (uint256);\n    function transfer(address recipient, uint256 amount) external returns (bool);\n    function allowance(address owner, address spender) external view returns (uint256);\n    function approve(address spender, uint256 amount) external returns (bool);\n    function transferFrom(address sender, address recipient, uint256 amount) external returns (bool);\n    event Transfer(address indexed from, address indexed to, uint256 value);\n    event Approval(address indexed owner, address indexed spender, uint256 value);\n}\n\ncontract Context {\n    constructor () internal { }\n    // solhint-disable-previous-line no-empty-blocks\n\n    function _msgSender() internal view returns (address payable) {\n        return msg.sender;\n    }\n\n    function _msgData() internal view returns (bytes memory) {\n        this; // silence state mutability warning without generating bytecode - see https://github.com/ethereum/solidity/issues/2691\n        return msg.data;\n    }\n}\n\ncontract ReentrancyGuard {\n    uint256 private _guardCounter;\n\n    constructor () internal {\n        _guardCounter = 1;\n    }\n\n    modifier nonReentrant() {\n        _guardCounter += 1;\n        uint256 localCounter = _guardCounter;\n        _;\n        require(localCounter == _guardCounter, \"ReentrancyGuard: reentrant call\");\n    }\n}\n\ncontract Ownable is Context {\n    address private _owner;\n\n    event OwnershipTransferred(address indexed previousOwner, address indexed newOwner);\n    constructor () internal {\n        _owner = _msgSender();\n        emit OwnershipTransferred(address(0), _owner);\n    }\n    function owner() public view returns (address) {\n        return _owner;\n    }\n    modifier onlyOwner() {\n        require(isOwner(), \"Ownable: caller is not the owner\");\n        _;\n    }\n    function isOwner() public view returns (bool) {\n        return _msgSender() == _owner;\n    }\n    function renounceOwnership() public onlyOwner {\n        emit OwnershipTransferred(_owner, address(0));\n        _owner = address(0);\n    }\n    function transferOwnership(address newOwner) public onlyOwner {\n        _transferOwnership(newOwner);\n    }\n    function _transferOwnership(address newOwner) internal {\n        require(newOwner != address(0), \"Ownable: new owner is the zero address\");\n        emit OwnershipTransferred(_owner, newOwner);\n        _owner = newOwner;\n    }\n}\n\nlibrary SafeMath {\n    function add(uint256 a, uint256 b) internal pure returns (uint256) {\n        uint256 c = a + b;\n        require(c >= a, \"SafeMath: addition overflow\");\n\n        return c;\n    }\n    function sub(uint256 a, uint256 b) internal pure returns (uint256) {\n        return sub(a, b, \"SafeMath: subtraction overflow\");\n    }\n    function sub(uint256 a, uint256 b, string memory errorMessage) internal pure returns (uint256) {\n        require(b <= a, errorMessage);\n        uint256 c = a - b;\n\n        return c;\n    }\n    function mul(uint256 a, uint256 b) internal pure returns (uint256) {\n        if (a == 0) {\n            return 0;\n        }\n\n        uint256 c = a * b;\n        require(c / a == b, \"SafeMath: multiplication overflow\");\n\n        return c;\n    }\n    function div(uint256 a, uint256 b) internal pure returns (uint256) {\n        return div(a, b, \"SafeMath: division by zero\");\n    }\n    function div(uint256 a, uint256 b, string memory errorMessage) internal pure returns (uint256) {\n        // Solidity only automatically asserts when dividing by 0\n        require(b > 0, errorMessage);\n        uint256 c = a / b;\n\n        return c;\n    }\n    function mod(uint256 a, uint256 b) internal pure returns (uint256) {\n        return mod(a, b, \"SafeMath: modulo by zero\");\n    }\n    function mod(uint256 a, uint256 b, string memory errorMessage) internal pure returns (uint256) {\n        require(b != 0, errorMessage);\n        return a % b;\n    }\n}\n\nlibrary Address {\n    function isContract(address account) internal view returns (bool) {\n        bytes32 codehash;\n        bytes32 accountHash = 0xc5d2460186f7233c927e7db2dcc703c0e500b653ca82273b7bfad8045d85a470;\n        // solhint-disable-next-line no-inline-assembly\n        assembly { codehash := extcodehash(account) }\n        return (codehash != 0x0 && codehash != accountHash);\n    }\n    function toPayable(address account) internal pure returns (address payable) {\n        return address(uint160(account));\n    }\n    function sendValue(address payable recipient, uint256 amount) internal {\n        require(address(this).balance >= amount, \"Address: insufficient balance\");\n\n        // solhint-disable-next-line avoid-call-value\n        (bool success, ) = recipient.call.value(amount)(\"\");\n        require(success, \"Address: unable to send value, recipient may have reverted\");\n    }\n}\n\nlibrary SafeERC20 {\n    using SafeMath for uint256;\n    using Address for address;\n\n    function safeTransfer(IERC20 token, address to, uint256 value) internal {\n        callOptionalReturn(token, abi.encodeWithSelector(token.transfer.selector, to, value));\n    }\n    function safeTransferFrom(IERC20 token, address from, address to, uint256 value) internal {\n        callOptionalReturn(token, abi.encodeWithSelector(token.transferFrom.selector, from, to, value));\n    }\n    function safeApprove(IERC20 token, address spender, uint256 value) internal {\n        require((value == 0) || (token.allowance(address(this), spender) == 0),\n            \"SafeERC20: approve from non-zero to non-zero allowance\"\n        );\n        callOptionalReturn(token, abi.encodeWithSelector(token.approve.selector, spender, value));\n    }\n    function callOptionalReturn(IERC20 token, bytes memory data) private {\n        require(address(token).isContract(), \"SafeERC20: call to non-contract\");\n\n        // solhint-disable-next-line avoid-low-level-calls\n        (bool success, bytes memory returndata) = address(token).call(data);\n        require(success, \"SafeERC20: low-level call failed\");\n\n        if (returndata.length > 0) { // Return data is optional\n            // solhint-disable-next-line max-line-length\n            require(abi.decode(returndata, (bool)), \"SafeERC20: ERC20 operation did not succeed\");\n        }\n    }\n}\n\ninterface yERC20 {\n  function withdraw(uint256 _amount) external;\n}\n\n// Solidity Interface\n\ninterface ICurveFi {\n\n  function remove_liquidity(\n    uint256 _amount,\n    uint256[4] calldata amounts\n  ) external;\n  function exchange(\n    int128 from, int128 to, uint256 _from_amount, uint256 _min_to_amount\n  ) external;\n}\n\ncontract busdCurveGrantPool is ReentrancyGuard, Ownable {\n  using SafeERC20 for IERC20;\n  using Address for address;\n  using SafeMath for uint256;\n\n  address public DAI;\n  address public yDAI;\n  address public USDC;\n  address public yUSDC;\n  address public USDT;\n  address public yUSDT;\n  address public SWAP;\n  address public CURVE;\n\n  constructor () public {\n    DAI = address(0x6B175474E89094C44Da98b954EedeAC495271d0F);\n    yDAI = address(0xC2cB1040220768554cf699b0d863A3cd4324ce32);\n\n    USDC = address(0xA0b86991c6218b36c1d19D4a2e9Eb0cE3606eB48);\n    yUSDC = address(0x26EA744E5B887E5205727f55dFBE8685e3b21951);\n\n    USDT = address(0xdAC17F958D2ee523a2206206994597C13D831ec7);\n    yUSDT = address(0xE6354ed5bC4b393a5Aad09f21c46E101e692d447);\n\n    SWAP = address(0x79a8C46DeA5aDa233ABaFFD40F3A0A2B1e5A4F27);\n    CURVE = address(0x3B3Ac5386837Dc563660FB6a0937DFAa5924333B);\n\n    approveToken();\n  }\n\n  function() external payable {\n\n  }\n\n  function approveToken() public {\n      IERC20(yDAI).safeApprove(SWAP, uint(-1));\n      IERC20(yUSDC).safeApprove(SWAP, uint(-1));\n      IERC20(yUSDT).safeApprove(SWAP, uint(-1));\n  }\n\n  function donate(uint256 _amount) external nonReentrant onlyOwner {\n    ICurveFi(SWAP).remove_liquidity(_amount, [uint256(0),0,0,0]);\n\n    uint256 _ydai = IERC20(yDAI).balanceOf(address(this));\n    uint256 _yusdc = IERC20(yUSDC).balanceOf(address(this));\n    uint256 _yusdt = IERC20(yUSDT).balanceOf(address(this));\n\n    if (_ydai > 0) {\n      yERC20(yDAI).withdraw(_ydai);\n      IERC20(DAI).safeTransfer(yDAI, IERC20(DAI).balanceOf(address(this)));\n    }\n    if (_yusdc > 0) {\n      yERC20(yUSDC).withdraw(_yusdc);\n      IERC20(USDC).safeTransfer(yUSDC, IERC20(USDC).balanceOf(address(this)));\n    }\n    if (_yusdt > 0) {\n      yERC20(yUSDT).withdraw(_yusdt);\n      IERC20(USDT).safeTransfer(yUSDT, IERC20(USDT).balanceOf(address(this)));\n    }\n  }\n\n  // incase of half-way error\n  function inCaseTokenGetsStuck(IERC20 _TokenAddress) onlyOwner public {\n      uint qty = _TokenAddress.balanceOf(address(this));\n      _TokenAddress.safeTransfer(msg.sender, qty);\n  }\n\n  // incase of half-way error\n  function inCaseETHGetsStuck() onlyOwner public{\n      (bool result, ) = msg.sender.call.value(address(this).balance)(\"\");\n      require(result, \"transfer of ETH failed\");\n  }\n}\n",
  "sourcePath": "D:/ftm/itoken/contracts/busdCurveGrantPool.sol",
  "compiler": {
    "name": "solc",
    "version": "0.5.12+commit.7709ece9.Emscripten.clang"
  },
  "schemaVersion": "3.0.19",
  "updatedAt": "2020-02-29T11:33:41.590Z",
  "devdoc": {
    "methods": {}
  },
  "userdoc": {
    "methods": {}
  }
}