{
  "contractName": "CurveFlash",
  "abi": [
    {
      "inputs": [],
      "payable": false,
      "stateMutability": "nonpayable",
      "type": "constructor"
    },
    {
      "anonymous": false,
      "inputs": [
        {
          "indexed": true,
          "internalType": "address",
          "name": "previousOwner",
          "type": "address"
        },
        {
          "indexed": true,
          "internalType": "address",
          "name": "newOwner",
          "type": "address"
        }
      ],
      "name": "OwnershipTransferred",
      "type": "event"
    },
    {
      "payable": true,
      "stateMutability": "payable",
      "type": "fallback"
    },
    {
      "constant": true,
      "inputs": [],
      "name": "dai",
      "outputs": [
        {
          "internalType": "address",
          "name": "",
          "type": "address"
        }
      ],
      "payable": false,
      "stateMutability": "view",
      "type": "function"
    },
    {
      "constant": true,
      "inputs": [],
      "name": "dydx",
      "outputs": [
        {
          "internalType": "address",
          "name": "",
          "type": "address"
        }
      ],
      "payable": false,
      "stateMutability": "view",
      "type": "function"
    },
    {
      "constant": true,
      "inputs": [],
      "name": "isOwner",
      "outputs": [
        {
          "internalType": "bool",
          "name": "",
          "type": "bool"
        }
      ],
      "payable": false,
      "stateMutability": "view",
      "type": "function"
    },
    {
      "constant": true,
      "inputs": [],
      "name": "one",
      "outputs": [
        {
          "internalType": "address",
          "name": "",
          "type": "address"
        }
      ],
      "payable": false,
      "stateMutability": "view",
      "type": "function"
    },
    {
      "constant": true,
      "inputs": [],
      "name": "owner",
      "outputs": [
        {
          "internalType": "address",
          "name": "",
          "type": "address"
        }
      ],
      "payable": false,
      "stateMutability": "view",
      "type": "function"
    },
    {
      "constant": false,
      "inputs": [],
      "name": "renounceOwnership",
      "outputs": [],
      "payable": false,
      "stateMutability": "nonpayable",
      "type": "function"
    },
    {
      "constant": false,
      "inputs": [
        {
          "internalType": "address",
          "name": "newOwner",
          "type": "address"
        }
      ],
      "name": "transferOwnership",
      "outputs": [],
      "payable": false,
      "stateMutability": "nonpayable",
      "type": "function"
    },
    {
      "constant": true,
      "inputs": [],
      "name": "usdc",
      "outputs": [
        {
          "internalType": "address",
          "name": "",
          "type": "address"
        }
      ],
      "payable": false,
      "stateMutability": "view",
      "type": "function"
    },
    {
      "constant": true,
      "inputs": [],
      "name": "usdt",
      "outputs": [
        {
          "internalType": "address",
          "name": "",
          "type": "address"
        }
      ],
      "payable": false,
      "stateMutability": "view",
      "type": "function"
    },
    {
      "constant": false,
      "inputs": [],
      "name": "approveToken",
      "outputs": [],
      "payable": false,
      "stateMutability": "nonpayable",
      "type": "function"
    },
    {
      "constant": false,
      "inputs": [],
      "name": "max",
      "outputs": [],
      "payable": false,
      "stateMutability": "nonpayable",
      "type": "function"
    },
    {
      "constant": false,
      "inputs": [
        {
          "internalType": "uint256",
          "name": "amount",
          "type": "uint256"
        }
      ],
      "name": "trade",
      "outputs": [],
      "payable": false,
      "stateMutability": "nonpayable",
      "type": "function"
    },
    {
      "constant": false,
      "inputs": [
        {
          "internalType": "address",
          "name": "sender",
          "type": "address"
        },
        {
          "components": [
            {
              "internalType": "address",
              "name": "owner",
              "type": "address"
            },
            {
              "internalType": "uint256",
              "name": "number",
              "type": "uint256"
            }
          ],
          "internalType": "struct Structs.Info",
          "name": "accountInfo",
          "type": "tuple"
        },
        {
          "internalType": "bytes",
          "name": "data",
          "type": "bytes"
        }
      ],
      "name": "callFunction",
      "outputs": [],
      "payable": false,
      "stateMutability": "nonpayable",
      "type": "function"
    },
    {
      "constant": false,
      "inputs": [
        {
          "internalType": "contract IERC20",
          "name": "_TokenAddress",
          "type": "address"
        }
      ],
      "name": "inCaseTokenGetsStuck",
      "outputs": [],
      "payable": false,
      "stateMutability": "nonpayable",
      "type": "function"
    },
    {
      "constant": false,
      "inputs": [],
      "name": "inCaseETHGetsStuck",
      "outputs": [],
      "payable": false,
      "stateMutability": "nonpayable",
      "type": "function"
    }
  ],
  "bytecode": "0x60806040523480156200001157600080fd5b5060016000819055506200002a620000fd60201b60201c565b600160006101000a81548173ffffffffffffffffffffffffffffffffffffffff021916908373ffffffffffffffffffffffffffffffffffffffff160217905550600160009054906101000a900473ffffffffffffffffffffffffffffffffffffffff1673ffffffffffffffffffffffffffffffffffffffff16600073ffffffffffffffffffffffffffffffffffffffff167f8be0079c531659141344cd1fd0a4f28419497f9722a3daafe3b4186f6b6457e060405160405180910390a3620000f76200010560201b60201c565b62000a5e565b600033905090565b6200017f731e0447b19bb6ecfdae1e4ae1694b0c3659614e4e7fffffffffffffffffffffffffffffffffffffffffffffffffffffffffffffffff736b175474e89094c44da98b954eedeac495271d0f73ffffffffffffffffffffffffffffffffffffffff16620002ef60201b6200124f179092919060201c565b620001f9738da6995e8cb3af3237945a0e628f312f32723a1c7fffffffffffffffffffffffffffffffffffffffffffffffffffffffffffffffff736b175474e89094c44da98b954eedeac495271d0f73ffffffffffffffffffffffffffffffffffffffff16620002ef60201b6200124f179092919060201c565b62000273738da6995e8cb3af3237945a0e628f312f32723a1c7fffffffffffffffffffffffffffffffffffffffffffffffffffffffffffffffff73a0b86991c6218b36c1d19d4a2e9eb0ce3606eb4873ffffffffffffffffffffffffffffffffffffffff16620002ef60201b6200124f179092919060201c565b620002ed738da6995e8cb3af3237945a0e628f312f32723a1c7fffffffffffffffffffffffffffffffffffffffffffffffffffffffffffffffff73dac17f958d2ee523a2206206994597c13d831ec773ffffffffffffffffffffffffffffffffffffffff16620002ef60201b6200124f179092919060201c565b565b60008114806200038f575060008373ffffffffffffffffffffffffffffffffffffffff1663dd62ed3e30856040518363ffffffff1660e01b815260040162000339929190620008a1565b60206040518083038186803b1580156200035257600080fd5b505afa15801562000367573d6000803e3d6000fd5b505050506040513d601f19601f820116820180604052506200038d9190810190620006af565b145b620003d1576040517f08c379a0000000000000000000000000000000000000000000000000000000008152600401620003c8906200093f565b60405180910390fd5b62000475838473ffffffffffffffffffffffffffffffffffffffff1663095ea7b3905060e01b84846040516024016200040c929190620008ce565b604051602081830303815290604052907bffffffffffffffffffffffffffffffffffffffffffffffffffffffff19166020820180517bffffffffffffffffffffffffffffffffffffffffffffffffffffffff83818316178352505050506200047a60201b60201c565b505050565b620004a68273ffffffffffffffffffffffffffffffffffffffff166200060960201b620016bd1760201c565b620004e8576040517f08c379a0000000000000000000000000000000000000000000000000000000008152600401620004df9062000961565b60405180910390fd5b600060608373ffffffffffffffffffffffffffffffffffffffff168360405162000513919062000888565b6000604051808303816000865af19150503d806000811462000552576040519150601f19603f3d011682016040523d82523d6000602084013e62000557565b606091505b5091509150816200059f576040517f08c379a00000000000000000000000000000000000000000000000000000000081526004016200059690620008fb565b60405180910390fd5b600081511115620006035780806020019051620005c0919081019062000683565b62000602576040517f08c379a0000000000000000000000000000000000000000000000000000000008152600401620005f9906200091d565b60405180910390fd5b5b50505050565b60008060007fc5d2460186f7233c927e7db2dcc703c0e500b653ca82273b7bfad8045d85a47060001b9050833f91506000801b82141580156200064c5750808214155b92505050919050565b600081519050620006668162000a2a565b92915050565b6000815190506200067d8162000a44565b92915050565b6000602082840312156200069657600080fd5b6000620006a68482850162000655565b91505092915050565b600060208284031215620006c257600080fd5b6000620006d2848285016200066c565b91505092915050565b620006e681620009aa565b82525050565b6000620006f98262000983565b6200070581856200098e565b935062000717818560208601620009f4565b80840191505092915050565b60006200073260208362000999565b91507f5361666545524332303a206c6f772d6c6576656c2063616c6c206661696c65646000830152602082019050919050565b600062000774602a8362000999565b91507f5361666545524332303a204552433230206f7065726174696f6e20646964206e60008301527f6f742073756363656564000000000000000000000000000000000000000000006020830152604082019050919050565b6000620007dc60368362000999565b91507f5361666545524332303a20617070726f76652066726f6d206e6f6e2d7a65726f60008301527f20746f206e6f6e2d7a65726f20616c6c6f77616e6365000000000000000000006020830152604082019050919050565b600062000844601f8362000999565b91507f5361666545524332303a2063616c6c20746f206e6f6e2d636f6e7472616374006000830152602082019050919050565b6200088281620009ea565b82525050565b6000620008968284620006ec565b915081905092915050565b6000604082019050620008b86000830185620006db565b620008c76020830184620006db565b9392505050565b6000604082019050620008e56000830185620006db565b620008f4602083018462000877565b9392505050565b60006020820190508181036000830152620009168162000723565b9050919050565b60006020820190508181036000830152620009388162000765565b9050919050565b600060208201905081810360008301526200095a81620007cd565b9050919050565b600060208201905081810360008301526200097c8162000835565b9050919050565b600081519050919050565b600081905092915050565b600082825260208201905092915050565b6000620009b782620009ca565b9050919050565b60008115159050919050565b600073ffffffffffffffffffffffffffffffffffffffff82169050919050565b6000819050919050565b60005b8381101562000a14578082015181840152602081019050620009f7565b8381111562000a24576000848401525b50505050565b62000a3581620009be565b811462000a4157600080fd5b50565b62000a4f81620009ea565b811462000a5b57600080fd5b50565b61267b8062000a6e6000396000f3fe6080604052600436106100e85760003560e01c80638e4ec6ef1161008a578063df1dd82611610059578063df1dd82614610283578063f2fde38b146102ac578063f4b9fa75146102d5578063f60a15ed14610300576100e8565b80638e4ec6ef146101eb5780638f32d59b14610216578063901717d11461024157806399b71d5c1461026c576100e8565b80636ac5db19116100c65780636ac5db1914610169578063715018a6146101805780638b418713146101975780638da5cb5b146101c0576100e8565b80632e8d6e18146100ea5780632f48ab7d146101135780633e413bee1461013e575b005b3480156100f657600080fd5b50610111600480360361010c9190810190611a4e565b610317565b005b34801561011f57600080fd5b5061012861041a565b60405161013591906120e4565b60405180910390f35b34801561014a57600080fd5b50610153610432565b60405161016091906120e4565b60405180910390f35b34801561017557600080fd5b5061017e61044a565b005b34801561018c57600080fd5b50610195610505565b005b3480156101a357600080fd5b506101be60048036036101b991908101906119be565b61060d565b005b3480156101cc57600080fd5b506101d5610a02565b6040516101e291906120e4565b60405180910390f35b3480156101f757600080fd5b50610200610a2c565b60405161020d91906120e4565b60405180910390f35b34801561022257600080fd5b5061022b610a44565b6040516102389190612204565b60405180910390f35b34801561024d57600080fd5b50610256610aa3565b60405161026391906120e4565b60405180910390f35b34801561027857600080fd5b50610281610abb565b005b34801561028f57600080fd5b506102aa60048036036102a59190810190611a77565b610c89565b005b3480156102b857600080fd5b506102d360048036036102ce9190810190611995565b611030565b005b3480156102e157600080fd5b506102ea611083565b6040516102f791906120e4565b60405180910390f35b34801561030c57600080fd5b5061031561109b565b005b61031f610a44565b61035e576040517f08c379a00000000000000000000000000000000000000000000000000000000081526004016103559061229f565b60405180910390fd5b60008173ffffffffffffffffffffffffffffffffffffffff166370a08231306040518263ffffffff1660e01b815260040161039991906120ff565b60206040518083038186803b1580156103b157600080fd5b505afa1580156103c5573d6000803e3d6000fd5b505050506040513d601f19601f820116820180604052506103e99190810190611aa0565b905061041633828473ffffffffffffffffffffffffffffffffffffffff166111a89092919063ffffffff16565b5050565b73dac17f958d2ee523a2206206994597c13d831ec781565b73a0b86991c6218b36c1d19d4a2e9eb0ce3606eb4881565b610503736b175474e89094c44da98b954eedeac495271d0f73ffffffffffffffffffffffffffffffffffffffff166370a08231731e0447b19bb6ecfdae1e4ae1694b0c3659614e4e6040518263ffffffff1660e01b81526004016104ae91906120e4565b60206040518083038186803b1580156104c657600080fd5b505afa1580156104da573d6000803e3d6000fd5b505050506040513d601f19601f820116820180604052506104fe9190810190611aa0565b610c89565b565b61050d610a44565b61054c576040517f08c379a00000000000000000000000000000000000000000000000000000000081526004016105439061229f565b60405180910390fd5b600073ffffffffffffffffffffffffffffffffffffffff16600160009054906101000a900473ffffffffffffffffffffffffffffffffffffffff1673ffffffffffffffffffffffffffffffffffffffff167f8be0079c531659141344cd1fd0a4f28419497f9722a3daafe3b4186f6b6457e060405160405180910390a36000600160006101000a81548173ffffffffffffffffffffffffffffffffffffffff021916908373ffffffffffffffffffffffffffffffffffffffff160217905550565b738da6995e8cb3af3237945a0e628f312f32723a1c73ffffffffffffffffffffffffffffffffffffffff16636b9589aa736b175474e89094c44da98b954eedeac495271d0f73dac17f958d2ee523a2206206994597c13d831ec7736b175474e89094c44da98b954eedeac495271d0f73ffffffffffffffffffffffffffffffffffffffff166370a08231306040518263ffffffff1660e01b81526004016106b491906120ff565b60206040518083038186803b1580156106cc57600080fd5b505afa1580156106e0573d6000803e3d6000fd5b505050506040513d601f19601f820116820180604052506107049190810190611aa0565b6001600660006040518763ffffffff1660e01b815260040161072b96959493929190612143565b600060405180830381600087803b15801561074557600080fd5b505af1158015610759573d6000803e3d6000fd5b50505050738da6995e8cb3af3237945a0e628f312f32723a1c73ffffffffffffffffffffffffffffffffffffffff16636b9589aa73dac17f958d2ee523a2206206994597c13d831ec773a0b86991c6218b36c1d19d4a2e9eb0ce3606eb4873dac17f958d2ee523a2206206994597c13d831ec773ffffffffffffffffffffffffffffffffffffffff166370a08231306040518263ffffffff1660e01b815260040161080491906120ff565b60206040518083038186803b15801561081c57600080fd5b505afa158015610830573d6000803e3d6000fd5b505050506040513d601f19601f820116820180604052506108549190810190611aa0565b6001600660006040518763ffffffff1660e01b815260040161087b96959493929190612143565b600060405180830381600087803b15801561089557600080fd5b505af11580156108a9573d6000803e3d6000fd5b50505050738da6995e8cb3af3237945a0e628f312f32723a1c73ffffffffffffffffffffffffffffffffffffffff16636b9589aa73a0b86991c6218b36c1d19d4a2e9eb0ce3606eb48736b175474e89094c44da98b954eedeac495271d0f73a0b86991c6218b36c1d19d4a2e9eb0ce3606eb4873ffffffffffffffffffffffffffffffffffffffff166370a08231306040518263ffffffff1660e01b815260040161095491906120ff565b60206040518083038186803b15801561096c57600080fd5b505afa158015610980573d6000803e3d6000fd5b505050506040513d601f19601f820116820180604052506109a49190810190611aa0565b6001600660006040518763ffffffff1660e01b81526004016109cb96959493929190612143565b600060405180830381600087803b1580156109e557600080fd5b505af11580156109f9573d6000803e3d6000fd5b50505050505050565b6000600160009054906101000a900473ffffffffffffffffffffffffffffffffffffffff16905090565b731e0447b19bb6ecfdae1e4ae1694b0c3659614e4e81565b6000600160009054906101000a900473ffffffffffffffffffffffffffffffffffffffff1673ffffffffffffffffffffffffffffffffffffffff16610a87611247565b73ffffffffffffffffffffffffffffffffffffffff1614905090565b738da6995e8cb3af3237945a0e628f312f32723a1c81565b610b2e731e0447b19bb6ecfdae1e4ae1694b0c3659614e4e7fffffffffffffffffffffffffffffffffffffffffffffffffffffffffffffffff736b175474e89094c44da98b954eedeac495271d0f73ffffffffffffffffffffffffffffffffffffffff1661124f9092919063ffffffff16565b610ba1738da6995e8cb3af3237945a0e628f312f32723a1c7fffffffffffffffffffffffffffffffffffffffffffffffffffffffffffffffff736b175474e89094c44da98b954eedeac495271d0f73ffffffffffffffffffffffffffffffffffffffff1661124f9092919063ffffffff16565b610c14738da6995e8cb3af3237945a0e628f312f32723a1c7fffffffffffffffffffffffffffffffffffffffffffffffffffffffffffffffff73a0b86991c6218b36c1d19d4a2e9eb0ce3606eb4873ffffffffffffffffffffffffffffffffffffffff1661124f9092919063ffffffff16565b610c87738da6995e8cb3af3237945a0e628f312f32723a1c7fffffffffffffffffffffffffffffffffffffffffffffffffffffffffffffffff73dac17f958d2ee523a2206206994597c13d831ec773ffffffffffffffffffffffffffffffffffffffff1661124f9092919063ffffffff16565b565b60606001604051908082528060200260200182016040528015610cc657816020015b610cb3611708565b815260200190600190039081610cab5790505b50905060606003604051908082528060200260200182016040528015610d0657816020015b610cf3611738565b815260200190600190039081610ceb5790505b50905060405180604001604052803073ffffffffffffffffffffffffffffffffffffffff168152602001600081525082600081518110610d4257fe5b6020026020010181905250610d556117a4565b6040518060800160405280600015158152602001600080811115610d7557fe5b8152602001600080811115610d8657fe5b8152602001858152509050610d996117e2565b600181600001906008811115610dab57fe5b90816008811115610db857fe5b8152505060008160200181815250508181604001819052506003816060018181525050308160a0019073ffffffffffffffffffffffffffffffffffffffff16908173ffffffffffffffffffffffffffffffffffffffff16815250508083600081518110610e2157fe5b6020026020010181905250610e346117e2565b600881600001906008811115610e4657fe5b90816008811115610e5357fe5b815250506000816020018181525050308160a0019073ffffffffffffffffffffffffffffffffffffffff16908173ffffffffffffffffffffffffffffffffffffffff16815250508084600181518110610ea857fe5b6020026020010181905250610ebb6117e2565b610ec36117a4565b6040518060800160405280600115158152602001600080811115610ee357fe5b8152602001600080811115610ef457fe5b8152602001610f0d60018b6113c690919063ffffffff16565b8152509050600082600001906008811115610f2457fe5b90816008811115610f3157fe5b8152505060008260200181815250508082604001819052506003826060018181525050308260a0019073ffffffffffffffffffffffffffffffffffffffff16908173ffffffffffffffffffffffffffffffffffffffff16815250508186600281518110610f9a57fe5b6020026020010181905250731e0447b19bb6ecfdae1e4ae1694b0c3659614e4e73ffffffffffffffffffffffffffffffffffffffff1663a67a6a4588886040518363ffffffff1660e01b8152600401610ff49291906121cd565b600060405180830381600087803b15801561100e57600080fd5b505af1158015611022573d6000803e3d6000fd5b505050505050505050505050565b611038610a44565b611077576040517f08c379a000000000000000000000000000000000000000000000000000000000815260040161106e9061229f565b60405180910390fd5b6110808161141b565b50565b736b175474e89094c44da98b954eedeac495271d0f81565b6110a3610a44565b6110e2576040517f08c379a00000000000000000000000000000000000000000000000000000000081526004016110d99061229f565b60405180910390fd5b60003373ffffffffffffffffffffffffffffffffffffffff163073ffffffffffffffffffffffffffffffffffffffff163160405161111f906120cf565b60006040518083038185875af1925050503d806000811461115c576040519150601f19603f3d011682016040523d82523d6000602084013e611161565b606091505b50509050806111a5576040517f08c379a000000000000000000000000000000000000000000000000000000000815260040161119c9061227f565b60405180910390fd5b50565b611242838473ffffffffffffffffffffffffffffffffffffffff1663a9059cbb905060e01b84846040516024016111e09291906121a4565b604051602081830303815290604052907bffffffffffffffffffffffffffffffffffffffffffffffffffffffff19166020820180517bffffffffffffffffffffffffffffffffffffffffffffffffffffffff838183161783525050505061154b565b505050565b600033905090565b60008114806112e8575060008373ffffffffffffffffffffffffffffffffffffffff1663dd62ed3e30856040518363ffffffff1660e01b815260040161129692919061211a565b60206040518083038186803b1580156112ae57600080fd5b505afa1580156112c2573d6000803e3d6000fd5b505050506040513d601f19601f820116820180604052506112e69190810190611aa0565b145b611327576040517f08c379a000000000000000000000000000000000000000000000000000000000815260040161131e906122df565b60405180910390fd5b6113c1838473ffffffffffffffffffffffffffffffffffffffff1663095ea7b3905060e01b848460405160240161135f9291906121a4565b604051602081830303815290604052907bffffffffffffffffffffffffffffffffffffffffffffffffffffffff19166020820180517bffffffffffffffffffffffffffffffffffffffffffffffffffffffff838183161783525050505061154b565b505050565b600080828401905083811015611411576040517f08c379a00000000000000000000000000000000000000000000000000000000081526004016114089061223f565b60405180910390fd5b8091505092915050565b600073ffffffffffffffffffffffffffffffffffffffff168173ffffffffffffffffffffffffffffffffffffffff16141561148b576040517f08c379a00000000000000000000000000000000000000000000000000000000081526004016114829061221f565b60405180910390fd5b8073ffffffffffffffffffffffffffffffffffffffff16600160009054906101000a900473ffffffffffffffffffffffffffffffffffffffff1673ffffffffffffffffffffffffffffffffffffffff167f8be0079c531659141344cd1fd0a4f28419497f9722a3daafe3b4186f6b6457e060405160405180910390a380600160006101000a81548173ffffffffffffffffffffffffffffffffffffffff021916908373ffffffffffffffffffffffffffffffffffffffff16021790555050565b61156a8273ffffffffffffffffffffffffffffffffffffffff166116bd565b6115a9576040517f08c379a00000000000000000000000000000000000000000000000000000000081526004016115a0906122ff565b60405180910390fd5b600060608373ffffffffffffffffffffffffffffffffffffffff16836040516115d291906120b8565b6000604051808303816000865af19150503d806000811461160f576040519150601f19603f3d011682016040523d82523d6000602084013e611614565b606091505b509150915081611659576040517f08c379a00000000000000000000000000000000000000000000000000000000081526004016116509061225f565b60405180910390fd5b6000815111156116b757808060200190516116779190810190611a25565b6116b6576040517f08c379a00000000000000000000000000000000000000000000000000000000081526004016116ad906122bf565b60405180910390fd5b5b50505050565b60008060007fc5d2460186f7233c927e7db2dcc703c0e500b653ca82273b7bfad8045d85a47060001b9050833f91506000801b82141580156116ff5750808214155b92505050919050565b6040518060400160405280600073ffffffffffffffffffffffffffffffffffffffff168152602001600081525090565b6040518061010001604052806000600881111561175157fe5b81526020016000815260200161176561184e565b81526020016000815260200160008152602001600073ffffffffffffffffffffffffffffffffffffffff16815260200160008152602001606081525090565b60405180608001604052806000151581526020016000808111156117c457fe5b81526020016000808111156117d557fe5b8152602001600081525090565b604051806101000160405280600060088111156117fb57fe5b81526020016000815260200161180f61184e565b81526020016000815260200160008152602001600073ffffffffffffffffffffffffffffffffffffffff16815260200160008152602001606081525090565b604051806080016040528060001515815260200160008081111561186e57fe5b815260200160008081111561187f57fe5b8152602001600081525090565b60008135905061189b816125dc565b92915050565b6000815190506118b0816125f3565b92915050565b600082601f8301126118c757600080fd5b81356118da6118d58261234c565b61231f565b915080825260208301602083018583830111156118f657600080fd5b611901838284612562565b50505092915050565b6000813590506119198161260a565b92915050565b60006040828403121561193157600080fd5b61193b604061231f565b9050600061194b8482850161188c565b600083015250602061195f8482850161196b565b60208301525092915050565b60008135905061197a81612621565b92915050565b60008151905061198f81612621565b92915050565b6000602082840312156119a757600080fd5b60006119b58482850161188c565b91505092915050565b6000806000608084860312156119d357600080fd5b60006119e18682870161188c565b93505060206119f28682870161191f565b925050606084013567ffffffffffffffff811115611a0f57600080fd5b611a1b868287016118b6565b9150509250925092565b600060208284031215611a3757600080fd5b6000611a45848285016118a1565b91505092915050565b600060208284031215611a6057600080fd5b6000611a6e8482850161190a565b91505092915050565b600060208284031215611a8957600080fd5b6000611a978482850161196b565b91505092915050565b600060208284031215611ab257600080fd5b6000611ac084828501611980565b91505092915050565b6000611ad58383611f63565b905092915050565b6000611ae9838361206b565b60408301905092915050565b611afe816124c0565b82525050565b611b0d8161242d565b82525050565b611b1c8161242d565b82525050565b6000611b2d82612398565b611b3781856123de565b935083602082028501611b4985612378565b8060005b85811015611b855784840389528151611b668582611ac9565b9450611b71836123c4565b925060208a01995050600181019050611b4d565b50829750879550505050505092915050565b6000611ba2826123a3565b611bac81856123ef565b9350611bb783612388565b8060005b83811015611be8578151611bcf8882611add565b9750611bda836123d1565b925050600181019050611bbb565b5085935050505092915050565b611bfe8161243f565b82525050565b611c0d8161243f565b82525050565b6000611c1e826123b9565b611c288185612411565b9350611c38818560208601612571565b80840191505092915050565b6000611c4f826123ae565b611c598185612400565b9350611c69818560208601612571565b611c72816125a4565b840191505092915050565b611c86816124d2565b82525050565b611c95816124e4565b82525050565b611ca4816124f6565b82525050565b611cb381612508565b82525050565b611cc28161251a565b82525050565b611cd18161252c565b82525050565b6000611ce460268361241c565b91507f4f776e61626c653a206e6577206f776e657220697320746865207a65726f206160008301527f64647265737300000000000000000000000000000000000000000000000000006020830152604082019050919050565b6000611d4a601b8361241c565b91507f536166654d6174683a206164646974696f6e206f766572666c6f7700000000006000830152602082019050919050565b6000611d8a60208361241c565b91507f5361666545524332303a206c6f772d6c6576656c2063616c6c206661696c65646000830152602082019050919050565b6000611dca60168361241c565b91507f7472616e73666572206f6620455448206661696c6564000000000000000000006000830152602082019050919050565b6000611e0a60208361241c565b91507f4f776e61626c653a2063616c6c6572206973206e6f7420746865206f776e65726000830152602082019050919050565b6000611e4a600083612411565b9150600082019050919050565b6000611e64602a8361241c565b91507f5361666545524332303a204552433230206f7065726174696f6e20646964206e60008301527f6f742073756363656564000000000000000000000000000000000000000000006020830152604082019050919050565b6000611eca60368361241c565b91507f5361666545524332303a20617070726f76652066726f6d206e6f6e2d7a65726f60008301527f20746f206e6f6e2d7a65726f20616c6c6f77616e6365000000000000000000006020830152604082019050919050565b6000611f30601f8361241c565b91507f5361666545524332303a2063616c6c20746f206e6f6e2d636f6e7472616374006000830152602082019050919050565b600061016083016000830151611f7c6000860182611c7d565b506020830151611f8f602086018261209a565b506040830151611fa26040860182612016565b506060830151611fb560c086018261209a565b506080830151611fc860e086018261209a565b5060a0830151611fdc610100860182611b04565b5060c0830151611ff061012086018261209a565b5060e08301518482036101408601526120098282611c44565b9150508091505092915050565b60808201600082015161202c6000850182611bf5565b50602082015161203f6020850182611c8c565b5060408201516120526040850182611c9b565b506060820151612065606085018261209a565b50505050565b6040820160008201516120816000850182611b04565b506020820151612094602085018261209a565b50505050565b6120a3816124b6565b82525050565b6120b2816124b6565b82525050565b60006120c48284611c13565b915081905092915050565b60006120da82611e3d565b9150819050919050565b60006020820190506120f96000830184611b13565b92915050565b60006020820190506121146000830184611af5565b92915050565b600060408201905061212f6000830185611b13565b61213c6020830184611b13565b9392505050565b600060c0820190506121586000830189611b13565b6121656020830188611b13565b61217260408301876120a9565b61217f6060830186611cb9565b61218c6080830185611cc8565b61219960a0830184611caa565b979650505050505050565b60006040820190506121b96000830185611b13565b6121c660208301846120a9565b9392505050565b600060408201905081810360008301526121e78185611b97565b905081810360208301526121fb8184611b22565b90509392505050565b60006020820190506122196000830184611c04565b92915050565b6000602082019050818103600083015261223881611cd7565b9050919050565b6000602082019050818103600083015261225881611d3d565b9050919050565b6000602082019050818103600083015261227881611d7d565b9050919050565b6000602082019050818103600083015261229881611dbd565b9050919050565b600060208201905081810360008301526122b881611dfd565b9050919050565b600060208201905081810360008301526122d881611e57565b9050919050565b600060208201905081810360008301526122f881611ebd565b9050919050565b6000602082019050818103600083015261231881611f23565b9050919050565b6000604051905081810181811067ffffffffffffffff8211171561234257600080fd5b8060405250919050565b600067ffffffffffffffff82111561236357600080fd5b601f19601f8301169050602081019050919050565b6000819050602082019050919050565b6000819050602082019050919050565b600081519050919050565b600081519050919050565b600081519050919050565b600081519050919050565b6000602082019050919050565b6000602082019050919050565b600082825260208201905092915050565b600082825260208201905092915050565b600082825260208201905092915050565b600081905092915050565b600082825260208201905092915050565b600061243882612496565b9050919050565b60008115159050919050565b60006124568261242d565b9050919050565b600081905061246b826125b5565b919050565b600081905061247e826125c2565b919050565b6000819050612491826125cf565b919050565b600073ffffffffffffffffffffffffffffffffffffffff82169050919050565b6000819050919050565b60006124cb8261253e565b9050919050565b60006124dd8261245d565b9050919050565b60006124ef82612470565b9050919050565b600061250182612483565b9050919050565b6000612513826124b6565b9050919050565b6000612525826124b6565b9050919050565b6000612537826124b6565b9050919050565b600061254982612550565b9050919050565b600061255b82612496565b9050919050565b82818337600083830152505050565b60005b8381101561258f578082015181840152602081019050612574565b8381111561259e576000848401525b50505050565b6000601f19601f8301169050919050565b600981106125bf57fe5b50565b600181106125cc57fe5b50565b600181106125d957fe5b50565b6125e58161242d565b81146125f057600080fd5b50565b6125fc8161243f565b811461260757600080fd5b50565b6126138161244b565b811461261e57600080fd5b50565b61262a816124b6565b811461263557600080fd5b5056fea365627a7a7231582016914284d45d10a910809a99c02e2e227de3cff63c6c7e780e531b36ea1d6c596c6578706572696d656e74616cf564736f6c634300050c0040",
  "source": "pragma solidity ^0.5.0;\npragma experimental ABIEncoderV2;\n\ninterface IERC20 {\n    function totalSupply() external view returns (uint256);\n    function balanceOf(address account) external view returns (uint256);\n    function transfer(address recipient, uint256 amount) external returns (bool);\n    function allowance(address owner, address spender) external view returns (uint256);\n    function approve(address spender, uint256 amount) external returns (bool);\n    function transferFrom(address sender, address recipient, uint256 amount) external returns (bool);\n    event Transfer(address indexed from, address indexed to, uint256 value);\n    event Approval(address indexed owner, address indexed spender, uint256 value);\n}\n\ncontract Context {\n    constructor () internal { }\n    // solhint-disable-previous-line no-empty-blocks\n\n    function _msgSender() internal view returns (address payable) {\n        return msg.sender;\n    }\n\n    function _msgData() internal view returns (bytes memory) {\n        this; // silence state mutability warning without generating bytecode - see https://github.com/ethereum/solidity/issues/2691\n        return msg.data;\n    }\n}\n\ncontract ReentrancyGuard {\n    uint256 private _guardCounter;\n\n    constructor () internal {\n        _guardCounter = 1;\n    }\n\n    modifier nonReentrant() {\n        _guardCounter += 1;\n        uint256 localCounter = _guardCounter;\n        _;\n        require(localCounter == _guardCounter, \"ReentrancyGuard: reentrant call\");\n    }\n}\n\ncontract Ownable is Context {\n    address private _owner;\n\n    event OwnershipTransferred(address indexed previousOwner, address indexed newOwner);\n    constructor () internal {\n        _owner = _msgSender();\n        emit OwnershipTransferred(address(0), _owner);\n    }\n    function owner() public view returns (address) {\n        return _owner;\n    }\n    modifier onlyOwner() {\n        require(isOwner(), \"Ownable: caller is not the owner\");\n        _;\n    }\n    function isOwner() public view returns (bool) {\n        return _msgSender() == _owner;\n    }\n    function renounceOwnership() public onlyOwner {\n        emit OwnershipTransferred(_owner, address(0));\n        _owner = address(0);\n    }\n    function transferOwnership(address newOwner) public onlyOwner {\n        _transferOwnership(newOwner);\n    }\n    function _transferOwnership(address newOwner) internal {\n        require(newOwner != address(0), \"Ownable: new owner is the zero address\");\n        emit OwnershipTransferred(_owner, newOwner);\n        _owner = newOwner;\n    }\n}\n\nlibrary SafeMath {\n    function add(uint256 a, uint256 b) internal pure returns (uint256) {\n        uint256 c = a + b;\n        require(c >= a, \"SafeMath: addition overflow\");\n\n        return c;\n    }\n    function sub(uint256 a, uint256 b) internal pure returns (uint256) {\n        return sub(a, b, \"SafeMath: subtraction overflow\");\n    }\n    function sub(uint256 a, uint256 b, string memory errorMessage) internal pure returns (uint256) {\n        require(b <= a, errorMessage);\n        uint256 c = a - b;\n\n        return c;\n    }\n    function mul(uint256 a, uint256 b) internal pure returns (uint256) {\n        if (a == 0) {\n            return 0;\n        }\n\n        uint256 c = a * b;\n        require(c / a == b, \"SafeMath: multiplication overflow\");\n\n        return c;\n    }\n    function div(uint256 a, uint256 b) internal pure returns (uint256) {\n        return div(a, b, \"SafeMath: division by zero\");\n    }\n    function div(uint256 a, uint256 b, string memory errorMessage) internal pure returns (uint256) {\n        // Solidity only automatically asserts when dividing by 0\n        require(b > 0, errorMessage);\n        uint256 c = a / b;\n\n        return c;\n    }\n    function mod(uint256 a, uint256 b) internal pure returns (uint256) {\n        return mod(a, b, \"SafeMath: modulo by zero\");\n    }\n    function mod(uint256 a, uint256 b, string memory errorMessage) internal pure returns (uint256) {\n        require(b != 0, errorMessage);\n        return a % b;\n    }\n}\n\nlibrary Address {\n    function isContract(address account) internal view returns (bool) {\n        bytes32 codehash;\n        bytes32 accountHash = 0xc5d2460186f7233c927e7db2dcc703c0e500b653ca82273b7bfad8045d85a470;\n        // solhint-disable-next-line no-inline-assembly\n        assembly { codehash := extcodehash(account) }\n        return (codehash != 0x0 && codehash != accountHash);\n    }\n    function toPayable(address account) internal pure returns (address payable) {\n        return address(uint160(account));\n    }\n    function sendValue(address payable recipient, uint256 amount) internal {\n        require(address(this).balance >= amount, \"Address: insufficient balance\");\n\n        // solhint-disable-next-line avoid-call-value\n        (bool success, ) = recipient.call.value(amount)(\"\");\n        require(success, \"Address: unable to send value, recipient may have reverted\");\n    }\n}\n\nlibrary SafeERC20 {\n    using SafeMath for uint256;\n    using Address for address;\n\n    function safeTransfer(IERC20 token, address to, uint256 value) internal {\n        callOptionalReturn(token, abi.encodeWithSelector(token.transfer.selector, to, value));\n    }\n    function safeTransferFrom(IERC20 token, address from, address to, uint256 value) internal {\n        callOptionalReturn(token, abi.encodeWithSelector(token.transferFrom.selector, from, to, value));\n    }\n    function safeApprove(IERC20 token, address spender, uint256 value) internal {\n        require((value == 0) || (token.allowance(address(this), spender) == 0),\n            \"SafeERC20: approve from non-zero to non-zero allowance\"\n        );\n        callOptionalReturn(token, abi.encodeWithSelector(token.approve.selector, spender, value));\n    }\n    function callOptionalReturn(IERC20 token, bytes memory data) private {\n        require(address(token).isContract(), \"SafeERC20: call to non-contract\");\n\n        // solhint-disable-next-line avoid-low-level-calls\n        (bool success, bytes memory returndata) = address(token).call(data);\n        require(success, \"SafeERC20: low-level call failed\");\n\n        if (returndata.length > 0) { // Return data is optional\n            // solhint-disable-next-line max-line-length\n            require(abi.decode(returndata, (bool)), \"SafeERC20: ERC20 operation did not succeed\");\n        }\n    }\n}\n\ninterface ICurveFi {\n  function exchange_underlying(\n    int128 from, int128 to, uint256 _from_amount, uint256 _min_to_amount\n  ) external;\n}\n\ncontract Structs {\n    struct Val {\n        uint256 value;\n    }\n\n    enum ActionType {\n      Deposit,   // supply tokens\n      Withdraw,  // borrow tokens\n      Transfer,  // transfer balance between accounts\n      Buy,       // buy an amount of some token (externally)\n      Sell,      // sell an amount of some token (externally)\n      Trade,     // trade tokens against another account\n      Liquidate, // liquidate an undercollateralized or expiring account\n      Vaporize,  // use excess tokens to zero-out a completely negative account\n      Call       // send arbitrary data to an address\n    }\n\n    enum AssetDenomination {\n        Wei // the amount is denominated in wei\n    }\n\n    enum AssetReference {\n        Delta // the amount is given as a delta from the current value\n    }\n\n    struct AssetAmount {\n        bool sign; // true if positive\n        AssetDenomination denomination;\n        AssetReference ref;\n        uint256 value;\n    }\n\n    struct ActionArgs {\n        ActionType actionType;\n        uint256 accountId;\n        AssetAmount amount;\n        uint256 primaryMarketId;\n        uint256 secondaryMarketId;\n        address otherAddress;\n        uint256 otherAccountId;\n        bytes data;\n    }\n\n    struct Info {\n        address owner;  // The address that owns the account\n        uint256 number; // A nonce that allows a single address to control many accounts\n    }\n\n    struct Wei {\n        bool sign; // true if positive\n        uint256 value;\n    }\n}\n\ncontract DyDx is Structs {\n    function getAccountWei(Info memory account, uint256 marketId) public view returns (Wei memory);\n    function operate(Info[] memory, ActionArgs[] memory) public;\n}\n\ninterface OneSplit {\n\n    function goodSwap(\n        address fromToken,\n        address toToken,\n        uint256 amount,\n        uint256 minReturn,\n        uint256 parts,\n        uint256 disableFlags // 1 - Uniswap, 2 - Kyber, 4 - Bancor, 8 - Oasis, 16 - Compound, 32 - Fulcrum, 64 - Chai, 128 - Aave, 256 - SmartToken\n    )\n        external\n        payable;\n}\n\n\ncontract CurveFlash is ReentrancyGuard, Ownable, Structs {\n  using SafeERC20 for IERC20;\n  using Address for address;\n  using SafeMath for uint256;\n\n  address constant public one = address(0x8da6995e8cB3Af3237945a0e628F312f32723a1c);\n  address public constant dydx = address(0x1E0447b19BB6EcFdAe1e4AE1694b0C3659614e4e);\n\n  address public constant dai = address(0x6B175474E89094C44Da98b954EedeAC495271d0F);\n  address public constant usdc = address(0xA0b86991c6218b36c1d19D4a2e9Eb0cE3606eB48);\n  address public constant usdt = address(0xdAC17F958D2ee523a2206206994597C13D831ec7);\n\n  constructor () public {\n    approveToken();\n  }\n\n  function approveToken() public {\n      IERC20(dai).safeApprove(dydx, uint(-1));\n\n      IERC20(dai).safeApprove(one, uint(-1));\n      IERC20(usdc).safeApprove(one, uint(-1));\n      IERC20(usdt).safeApprove(one, uint(-1));\n  }\n\n  function max() public {\n    trade(IERC20(dai).balanceOf(dydx));\n  }\n\n  function trade(uint256 amount) public {\n    Info[] memory infos = new Info[](1);\n    ActionArgs[] memory args = new ActionArgs[](3);\n\n    infos[0] = Info(address(this), 0);\n\n    AssetAmount memory wamt = AssetAmount(false, AssetDenomination.Wei, AssetReference.Delta, amount);\n    ActionArgs memory withdraw;\n    withdraw.actionType = ActionType.Withdraw;\n    withdraw.accountId = 0;\n    withdraw.amount = wamt;\n    withdraw.primaryMarketId = 3;\n    withdraw.otherAddress = address(this);\n\n    args[0] = withdraw;\n\n    ActionArgs memory call;\n    call.actionType = ActionType.Call;\n    call.accountId = 0;\n    call.otherAddress = address(this);\n\n    args[1] = call;\n\n    ActionArgs memory deposit;\n    AssetAmount memory damt = AssetAmount(true, AssetDenomination.Wei, AssetReference.Delta, amount.add(1));\n    deposit.actionType = ActionType.Deposit;\n    deposit.accountId = 0;\n    deposit.amount = damt;\n    deposit.primaryMarketId = 3;\n    deposit.otherAddress = address(this);\n\n    args[2] = deposit;\n\n    DyDx(dydx).operate(infos, args);\n  }\n\n  function callFunction(\n      address sender,\n      Info memory accountInfo,\n      bytes memory data\n  ) public {\n    OneSplit(one).goodSwap(dai, usdt, IERC20(dai).balanceOf(address(this)), 1, 6, 0);\n    OneSplit(one).goodSwap(usdt, usdc, IERC20(usdt).balanceOf(address(this)), 1, 6, 0);\n    OneSplit(one).goodSwap(usdc, dai, IERC20(usdc).balanceOf(address(this)), 1, 6, 0);\n  }\n\n  function() external payable {\n\n  }\n\n  // incase of half-way error\n  function inCaseTokenGetsStuck(IERC20 _TokenAddress) onlyOwner public {\n      uint qty = _TokenAddress.balanceOf(address(this));\n      _TokenAddress.safeTransfer(msg.sender, qty);\n  }\n\n  // incase of half-way error\n  function inCaseETHGetsStuck() onlyOwner public{\n      (bool result, ) = msg.sender.call.value(address(this).balance)(\"\");\n      require(result, \"transfer of ETH failed\");\n  }\n}\n",
  "sourcePath": "D:/ftm/itoken/contracts/CurveFlash.sol",
  "compiler": {
    "name": "solc",
    "version": "0.5.12+commit.7709ece9.Emscripten.clang"
  },
  "schemaVersion": "3.0.19",
  "updatedAt": "2020-03-14T12:11:16.675Z",
  "devdoc": {
    "methods": {}
  },
  "userdoc": {
    "methods": {}
  }
}