{
  "contractName": "CurveRebalance",
  "abi": [
    {
      "inputs": [],
      "payable": false,
      "stateMutability": "nonpayable",
      "type": "constructor"
    },
    {
      "anonymous": false,
      "inputs": [
        {
          "indexed": true,
          "internalType": "address",
          "name": "previousOwner",
          "type": "address"
        },
        {
          "indexed": true,
          "internalType": "address",
          "name": "newOwner",
          "type": "address"
        }
      ],
      "name": "OwnershipTransferred",
      "type": "event"
    },
    {
      "constant": true,
      "inputs": [],
      "name": "_amount",
      "outputs": [
        {
          "internalType": "uint256",
          "name": "",
          "type": "uint256"
        }
      ],
      "payable": false,
      "stateMutability": "view",
      "type": "function"
    },
    {
      "constant": true,
      "inputs": [],
      "name": "_dydx",
      "outputs": [
        {
          "internalType": "uint8",
          "name": "",
          "type": "uint8"
        }
      ],
      "payable": false,
      "stateMutability": "view",
      "type": "function"
    },
    {
      "constant": true,
      "inputs": [],
      "name": "_from",
      "outputs": [
        {
          "internalType": "uint8",
          "name": "",
          "type": "uint8"
        }
      ],
      "payable": false,
      "stateMutability": "view",
      "type": "function"
    },
    {
      "constant": true,
      "inputs": [],
      "name": "_to",
      "outputs": [
        {
          "internalType": "uint8",
          "name": "",
          "type": "uint8"
        }
      ],
      "payable": false,
      "stateMutability": "view",
      "type": "function"
    },
    {
      "constant": true,
      "inputs": [],
      "name": "_token",
      "outputs": [
        {
          "internalType": "address",
          "name": "",
          "type": "address"
        }
      ],
      "payable": false,
      "stateMutability": "view",
      "type": "function"
    },
    {
      "constant": true,
      "inputs": [],
      "name": "dai",
      "outputs": [
        {
          "internalType": "address",
          "name": "",
          "type": "address"
        }
      ],
      "payable": false,
      "stateMutability": "view",
      "type": "function"
    },
    {
      "constant": true,
      "inputs": [],
      "name": "dydx",
      "outputs": [
        {
          "internalType": "address",
          "name": "",
          "type": "address"
        }
      ],
      "payable": false,
      "stateMutability": "view",
      "type": "function"
    },
    {
      "constant": true,
      "inputs": [],
      "name": "isOwner",
      "outputs": [
        {
          "internalType": "bool",
          "name": "",
          "type": "bool"
        }
      ],
      "payable": false,
      "stateMutability": "view",
      "type": "function"
    },
    {
      "constant": true,
      "inputs": [],
      "name": "owner",
      "outputs": [
        {
          "internalType": "address",
          "name": "",
          "type": "address"
        }
      ],
      "payable": false,
      "stateMutability": "view",
      "type": "function"
    },
    {
      "constant": false,
      "inputs": [],
      "name": "renounceOwnership",
      "outputs": [],
      "payable": false,
      "stateMutability": "nonpayable",
      "type": "function"
    },
    {
      "constant": true,
      "inputs": [],
      "name": "swap",
      "outputs": [
        {
          "internalType": "address",
          "name": "",
          "type": "address"
        }
      ],
      "payable": false,
      "stateMutability": "view",
      "type": "function"
    },
    {
      "constant": false,
      "inputs": [
        {
          "internalType": "address",
          "name": "newOwner",
          "type": "address"
        }
      ],
      "name": "transferOwnership",
      "outputs": [],
      "payable": false,
      "stateMutability": "nonpayable",
      "type": "function"
    },
    {
      "constant": true,
      "inputs": [],
      "name": "tusd",
      "outputs": [
        {
          "internalType": "address",
          "name": "",
          "type": "address"
        }
      ],
      "payable": false,
      "stateMutability": "view",
      "type": "function"
    },
    {
      "constant": true,
      "inputs": [],
      "name": "usdc",
      "outputs": [
        {
          "internalType": "address",
          "name": "",
          "type": "address"
        }
      ],
      "payable": false,
      "stateMutability": "view",
      "type": "function"
    },
    {
      "constant": true,
      "inputs": [],
      "name": "usdt",
      "outputs": [
        {
          "internalType": "address",
          "name": "",
          "type": "address"
        }
      ],
      "payable": false,
      "stateMutability": "view",
      "type": "function"
    },
    {
      "constant": false,
      "inputs": [
        {
          "internalType": "uint256",
          "name": "amount",
          "type": "uint256"
        }
      ],
      "name": "withdrawDAI",
      "outputs": [],
      "payable": false,
      "stateMutability": "nonpayable",
      "type": "function"
    },
    {
      "constant": false,
      "inputs": [
        {
          "internalType": "uint256",
          "name": "amount",
          "type": "uint256"
        }
      ],
      "name": "withdrawUSDT",
      "outputs": [],
      "payable": false,
      "stateMutability": "nonpayable",
      "type": "function"
    },
    {
      "constant": false,
      "inputs": [
        {
          "internalType": "uint256",
          "name": "amount",
          "type": "uint256"
        }
      ],
      "name": "withdrawTUSD",
      "outputs": [],
      "payable": false,
      "stateMutability": "nonpayable",
      "type": "function"
    },
    {
      "constant": false,
      "inputs": [
        {
          "internalType": "uint256",
          "name": "amount",
          "type": "uint256"
        }
      ],
      "name": "withdrawUSDC",
      "outputs": [],
      "payable": false,
      "stateMutability": "nonpayable",
      "type": "function"
    },
    {
      "constant": false,
      "inputs": [
        {
          "internalType": "address",
          "name": "sender",
          "type": "address"
        },
        {
          "components": [
            {
              "internalType": "address",
              "name": "owner",
              "type": "address"
            },
            {
              "internalType": "uint256",
              "name": "number",
              "type": "uint256"
            }
          ],
          "internalType": "struct Structs.Info",
          "name": "accountInfo",
          "type": "tuple"
        },
        {
          "internalType": "bytes",
          "name": "data",
          "type": "bytes"
        }
      ],
      "name": "callFunction",
      "outputs": [],
      "payable": false,
      "stateMutability": "nonpayable",
      "type": "function"
    },
    {
      "constant": false,
      "inputs": [],
      "name": "approveToken",
      "outputs": [],
      "payable": false,
      "stateMutability": "nonpayable",
      "type": "function"
    },
    {
      "constant": false,
      "inputs": [
        {
          "internalType": "contract IERC20",
          "name": "_TokenAddress",
          "type": "address"
        }
      ],
      "name": "inCaseTokenGetsStuck",
      "outputs": [],
      "payable": false,
      "stateMutability": "nonpayable",
      "type": "function"
    },
    {
      "constant": false,
      "inputs": [],
      "name": "inCaseETHGetsStuck",
      "outputs": [],
      "payable": false,
      "stateMutability": "nonpayable",
      "type": "function"
    }
  ],
  "bytecode": "0x60806040523480156200001157600080fd5b5060016000819055506200002a620002f660201b60201c565b600160006101000a81548173ffffffffffffffffffffffffffffffffffffffff021916908373ffffffffffffffffffffffffffffffffffffffff160217905550600160009054906101000a900473ffffffffffffffffffffffffffffffffffffffff1673ffffffffffffffffffffffffffffffffffffffff16600073ffffffffffffffffffffffffffffffffffffffff167f8be0079c531659141344cd1fd0a4f28419497f9722a3daafe3b4186f6b6457e060405160405180910390a3731e0447b19bb6ecfdae1e4ae1694b0c3659614e4e600360006101000a81548173ffffffffffffffffffffffffffffffffffffffff021916908373ffffffffffffffffffffffffffffffffffffffff1602179055507345f783cce6b7ff23b2ab2d70e416cdb7d6055f51600260006101000a81548173ffffffffffffffffffffffffffffffffffffffff021916908373ffffffffffffffffffffffffffffffffffffffff160217905550736b175474e89094c44da98b954eedeac495271d0f600460006101000a81548173ffffffffffffffffffffffffffffffffffffffff021916908373ffffffffffffffffffffffffffffffffffffffff16021790555073a0b86991c6218b36c1d19d4a2e9eb0ce3606eb48600660006101000a81548173ffffffffffffffffffffffffffffffffffffffff021916908373ffffffffffffffffffffffffffffffffffffffff16021790555073dac17f958d2ee523a2206206994597c13d831ec7600560006101000a81548173ffffffffffffffffffffffffffffffffffffffff021916908373ffffffffffffffffffffffffffffffffffffffff1602179055506e085d4780b73119b644ae5ecd22b376600760006101000a81548173ffffffffffffffffffffffffffffffffffffffff021916908373ffffffffffffffffffffffffffffffffffffffff160217905550620002f0620002fe60201b60201c565b62000df3565b600033905090565b62000394600260009054906101000a900473ffffffffffffffffffffffffffffffffffffffff167fffffffffffffffffffffffffffffffffffffffffffffffffffffffffffffffff600460009054906101000a900473ffffffffffffffffffffffffffffffffffffffff1673ffffffffffffffffffffffffffffffffffffffff166200068460201b6200172c179092919060201c565b6200042a600360009054906101000a900473ffffffffffffffffffffffffffffffffffffffff167fffffffffffffffffffffffffffffffffffffffffffffffffffffffffffffffff600460009054906101000a900473ffffffffffffffffffffffffffffffffffffffff1673ffffffffffffffffffffffffffffffffffffffff166200068460201b6200172c179092919060201c565b620004c0600260009054906101000a900473ffffffffffffffffffffffffffffffffffffffff167fffffffffffffffffffffffffffffffffffffffffffffffffffffffffffffffff600660009054906101000a900473ffffffffffffffffffffffffffffffffffffffff1673ffffffffffffffffffffffffffffffffffffffff166200068460201b6200172c179092919060201c565b62000556600360009054906101000a900473ffffffffffffffffffffffffffffffffffffffff167fffffffffffffffffffffffffffffffffffffffffffffffffffffffffffffffff600660009054906101000a900473ffffffffffffffffffffffffffffffffffffffff1673ffffffffffffffffffffffffffffffffffffffff166200068460201b6200172c179092919060201c565b620005ec600260009054906101000a900473ffffffffffffffffffffffffffffffffffffffff167fffffffffffffffffffffffffffffffffffffffffffffffffffffffffffffffff600560009054906101000a900473ffffffffffffffffffffffffffffffffffffffff1673ffffffffffffffffffffffffffffffffffffffff166200068460201b6200172c179092919060201c565b62000682600260009054906101000a900473ffffffffffffffffffffffffffffffffffffffff167fffffffffffffffffffffffffffffffffffffffffffffffffffffffffffffffff600760009054906101000a900473ffffffffffffffffffffffffffffffffffffffff1673ffffffffffffffffffffffffffffffffffffffff166200068460201b6200172c179092919060201c565b565b600081148062000724575060008373ffffffffffffffffffffffffffffffffffffffff1663dd62ed3e30856040518363ffffffff1660e01b8152600401620006ce92919062000c36565b60206040518083038186803b158015620006e757600080fd5b505afa158015620006fc573d6000803e3d6000fd5b505050506040513d601f19601f8201168201806040525062000722919081019062000a44565b145b62000766576040517f08c379a00000000000000000000000000000000000000000000000000000000081526004016200075d9062000cd4565b60405180910390fd5b6200080a838473ffffffffffffffffffffffffffffffffffffffff1663095ea7b3905060e01b8484604051602401620007a192919062000c63565b604051602081830303815290604052907bffffffffffffffffffffffffffffffffffffffffffffffffffffffff19166020820180517bffffffffffffffffffffffffffffffffffffffffffffffffffffffff83818316178352505050506200080f60201b60201c565b505050565b6200083b8273ffffffffffffffffffffffffffffffffffffffff166200099e60201b62001b9a1760201c565b6200087d576040517f08c379a0000000000000000000000000000000000000000000000000000000008152600401620008749062000cf6565b60405180910390fd5b600060608373ffffffffffffffffffffffffffffffffffffffff1683604051620008a8919062000c1d565b6000604051808303816000865af19150503d8060008114620008e7576040519150601f19603f3d011682016040523d82523d6000602084013e620008ec565b606091505b50915091508162000934576040517f08c379a00000000000000000000000000000000000000000000000000000000081526004016200092b9062000c90565b60405180910390fd5b60008151111562000998578080602001905162000955919081019062000a18565b62000997576040517f08c379a00000000000000000000000000000000000000000000000000000000081526004016200098e9062000cb2565b60405180910390fd5b5b50505050565b60008060007fc5d2460186f7233c927e7db2dcc703c0e500b653ca82273b7bfad8045d85a47060001b9050833f91506000801b8214158015620009e15750808214155b92505050919050565b600081519050620009fb8162000dbf565b92915050565b60008151905062000a128162000dd9565b92915050565b60006020828403121562000a2b57600080fd5b600062000a3b84828501620009ea565b91505092915050565b60006020828403121562000a5757600080fd5b600062000a678482850162000a01565b91505092915050565b62000a7b8162000d3f565b82525050565b600062000a8e8262000d18565b62000a9a818562000d23565b935062000aac81856020860162000d89565b80840191505092915050565b600062000ac760208362000d2e565b91507f5361666545524332303a206c6f772d6c6576656c2063616c6c206661696c65646000830152602082019050919050565b600062000b09602a8362000d2e565b91507f5361666545524332303a204552433230206f7065726174696f6e20646964206e60008301527f6f742073756363656564000000000000000000000000000000000000000000006020830152604082019050919050565b600062000b7160368362000d2e565b91507f5361666545524332303a20617070726f76652066726f6d206e6f6e2d7a65726f60008301527f20746f206e6f6e2d7a65726f20616c6c6f77616e6365000000000000000000006020830152604082019050919050565b600062000bd9601f8362000d2e565b91507f5361666545524332303a2063616c6c20746f206e6f6e2d636f6e7472616374006000830152602082019050919050565b62000c178162000d7f565b82525050565b600062000c2b828462000a81565b915081905092915050565b600060408201905062000c4d600083018562000a70565b62000c5c602083018462000a70565b9392505050565b600060408201905062000c7a600083018562000a70565b62000c89602083018462000c0c565b9392505050565b6000602082019050818103600083015262000cab8162000ab8565b9050919050565b6000602082019050818103600083015262000ccd8162000afa565b9050919050565b6000602082019050818103600083015262000cef8162000b62565b9050919050565b6000602082019050818103600083015262000d118162000bca565b9050919050565b600081519050919050565b600081905092915050565b600082825260208201905092915050565b600062000d4c8262000d5f565b9050919050565b60008115159050919050565b600073ffffffffffffffffffffffffffffffffffffffff82169050919050565b6000819050919050565b60005b8381101562000da957808201518184015260208101905062000d8c565b8381111562000db9576000848401525b50505050565b62000dca8162000d53565b811462000dd657600080fd5b50565b62000de48162000d7f565b811462000df057600080fd5b50565b612b0d8062000e036000396000f3fe608060405234801561001057600080fd5b506004361061014d5760003560e01c80638e4ec6ef116100c3578063db81f99b1161007c578063db81f99b1461031e578063ecd0c0c31461033a578063f2d7178514610358578063f2fde38b14610376578063f4b9fa7514610392578063f60a15ed146103b05761014d565b80638e4ec6ef146102805780638f32d59b1461029e5780639887f180146102bc57806399b71d5c146102da5780639add7438146102e4578063af5bad71146103005761014d565b8063689d14b911610115578063689d14b9146101e2578063715018a61461020057806375b5be2d1461020a5780638119c065146102285780638b418713146102465780638da5cb5b146102625761014d565b80632e8d6e18146101525780632f48ab7d1461016e5780633e413bee1461018c5780633ea521ef146101aa5780635c531d6a146101c6575b600080fd5b61016c60048036036101679190810190611f2b565b6103ba565b005b6101766104bd565b60405161018391906125b2565b60405180910390f35b6101946104e3565b6040516101a191906125b2565b60405180910390f35b6101c460048036036101bf9190810190611f54565b610509565b005b6101e060048036036101db9190810190611f54565b61061a565b005b6101ea61072b565b6040516101f7919061278c565b60405180910390f35b61020861073e565b005b610212610846565b60405161021f91906125b2565b60405180910390f35b61023061086c565b60405161023d91906125b2565b60405180910390f35b610260600480360361025b9190810190611e9b565b610892565b005b61026a610aa7565b60405161027791906125b2565b60405180910390f35b610288610ad1565b60405161029591906125b2565b60405180910390f35b6102a6610af7565b6040516102b39190612656565b60405180910390f35b6102c4610b56565b6040516102d19190612771565b60405180910390f35b6102e2610b5c565b005b6102fe60048036036102f99190810190611f54565b610eb8565b005b610308610fc9565b604051610315919061278c565b60405180910390f35b61033860048036036103339190810190611f54565b610fdc565b005b6103426110ed565b60405161034f91906125b2565b60405180910390f35b610360611113565b60405161036d919061278c565b60405180910390f35b610390600480360361038b9190810190611e72565b611126565b005b61039a611179565b6040516103a791906125b2565b60405180910390f35b6103b861119f565b005b6103c2610af7565b610401576040517f08c379a00000000000000000000000000000000000000000000000000000000081526004016103f8906126f1565b60405180910390fd5b60008173ffffffffffffffffffffffffffffffffffffffff166370a08231306040518263ffffffff1660e01b815260040161043c91906125b2565b60206040518083038186803b15801561045457600080fd5b505afa158015610468573d6000803e3d6000fd5b505050506040513d601f19601f8201168201806040525061048c9190810190611f7d565b90506104b933828473ffffffffffffffffffffffffffffffffffffffff166112ac9092919063ffffffff16565b5050565b600560009054906101000a900473ffffffffffffffffffffffffffffffffffffffff1681565b600660009054906101000a900473ffffffffffffffffffffffffffffffffffffffff1681565b610511610af7565b610550576040517f08c379a0000000000000000000000000000000000000000000000000000000008152600401610547906126f1565b60405180910390fd5b806008819055506002600960006101000a81548160ff021916908360ff1602179055506001600960016101000a81548160ff021916908360ff160217905550600560009054906101000a900473ffffffffffffffffffffffffffffffffffffffff16600960036101000a81548173ffffffffffffffffffffffffffffffffffffffff021916908373ffffffffffffffffffffffffffffffffffffffff1602179055506002600960026101000a81548160ff021916908360ff1602179055506106178161134b565b50565b610622610af7565b610661576040517f08c379a0000000000000000000000000000000000000000000000000000000008152600401610658906126f1565b60405180910390fd5b806008819055506003600960006101000a81548160ff021916908360ff1602179055506001600960016101000a81548160ff021916908360ff160217905550600760009054906101000a900473ffffffffffffffffffffffffffffffffffffffff16600960036101000a81548173ffffffffffffffffffffffffffffffffffffffff021916908373ffffffffffffffffffffffffffffffffffffffff1602179055506002600960026101000a81548160ff021916908360ff1602179055506107288161134b565b50565b600960009054906101000a900460ff1681565b610746610af7565b610785576040517f08c379a000000000000000000000000000000000000000000000000000000000815260040161077c906126f1565b60405180910390fd5b600073ffffffffffffffffffffffffffffffffffffffff16600160009054906101000a900473ffffffffffffffffffffffffffffffffffffffff1673ffffffffffffffffffffffffffffffffffffffff167f8be0079c531659141344cd1fd0a4f28419497f9722a3daafe3b4186f6b6457e060405160405180910390a36000600160006101000a81548173ffffffffffffffffffffffffffffffffffffffff021916908373ffffffffffffffffffffffffffffffffffffffff160217905550565b600760009054906101000a900473ffffffffffffffffffffffffffffffffffffffff1681565b600260009054906101000a900473ffffffffffffffffffffffffffffffffffffffff1681565b600260009054906101000a900473ffffffffffffffffffffffffffffffffffffffff1673ffffffffffffffffffffffffffffffffffffffff1663a6417ed6600960019054906101000a900460ff16600960009054906101000a900460ff1660085460006040518563ffffffff1660e01b815260040161091494939291906127a7565b600060405180830381600087803b15801561092e57600080fd5b505af1158015610942573d6000803e3d6000fd5b50505050600260009054906101000a900473ffffffffffffffffffffffffffffffffffffffff1673ffffffffffffffffffffffffffffffffffffffff1663a6417ed6600960009054906101000a900460ff16600960019054906101000a900460ff16600960039054906101000a900473ffffffffffffffffffffffffffffffffffffffff1673ffffffffffffffffffffffffffffffffffffffff166370a08231306040518263ffffffff1660e01b81526004016109ff91906125b2565b60206040518083038186803b158015610a1757600080fd5b505afa158015610a2b573d6000803e3d6000fd5b505050506040513d601f19601f82011682018060405250610a4f9190810190611f7d565b60006040518563ffffffff1660e01b8152600401610a7094939291906127a7565b600060405180830381600087803b158015610a8a57600080fd5b505af1158015610a9e573d6000803e3d6000fd5b50505050505050565b6000600160009054906101000a900473ffffffffffffffffffffffffffffffffffffffff16905090565b600360009054906101000a900473ffffffffffffffffffffffffffffffffffffffff1681565b6000600160009054906101000a900473ffffffffffffffffffffffffffffffffffffffff1673ffffffffffffffffffffffffffffffffffffffff16610b3a611724565b73ffffffffffffffffffffffffffffffffffffffff1614905090565b60085481565b610beb600260009054906101000a900473ffffffffffffffffffffffffffffffffffffffff167fffffffffffffffffffffffffffffffffffffffffffffffffffffffffffffffff600460009054906101000a900473ffffffffffffffffffffffffffffffffffffffff1673ffffffffffffffffffffffffffffffffffffffff1661172c9092919063ffffffff16565b610c7a600360009054906101000a900473ffffffffffffffffffffffffffffffffffffffff167fffffffffffffffffffffffffffffffffffffffffffffffffffffffffffffffff600460009054906101000a900473ffffffffffffffffffffffffffffffffffffffff1673ffffffffffffffffffffffffffffffffffffffff1661172c9092919063ffffffff16565b610d09600260009054906101000a900473ffffffffffffffffffffffffffffffffffffffff167fffffffffffffffffffffffffffffffffffffffffffffffffffffffffffffffff600660009054906101000a900473ffffffffffffffffffffffffffffffffffffffff1673ffffffffffffffffffffffffffffffffffffffff1661172c9092919063ffffffff16565b610d98600360009054906101000a900473ffffffffffffffffffffffffffffffffffffffff167fffffffffffffffffffffffffffffffffffffffffffffffffffffffffffffffff600660009054906101000a900473ffffffffffffffffffffffffffffffffffffffff1673ffffffffffffffffffffffffffffffffffffffff1661172c9092919063ffffffff16565b610e27600260009054906101000a900473ffffffffffffffffffffffffffffffffffffffff167fffffffffffffffffffffffffffffffffffffffffffffffffffffffffffffffff600560009054906101000a900473ffffffffffffffffffffffffffffffffffffffff1673ffffffffffffffffffffffffffffffffffffffff1661172c9092919063ffffffff16565b610eb6600260009054906101000a900473ffffffffffffffffffffffffffffffffffffffff167fffffffffffffffffffffffffffffffffffffffffffffffffffffffffffffffff600760009054906101000a900473ffffffffffffffffffffffffffffffffffffffff1673ffffffffffffffffffffffffffffffffffffffff1661172c9092919063ffffffff16565b565b610ec0610af7565b610eff576040517f08c379a0000000000000000000000000000000000000000000000000000000008152600401610ef6906126f1565b60405180910390fd5b806008819055506000600960006101000a81548160ff021916908360ff1602179055506001600960016101000a81548160ff021916908360ff160217905550600460009054906101000a900473ffffffffffffffffffffffffffffffffffffffff16600960036101000a81548173ffffffffffffffffffffffffffffffffffffffff021916908373ffffffffffffffffffffffffffffffffffffffff1602179055506002600960026101000a81548160ff021916908360ff160217905550610fc68161134b565b50565b600960029054906101000a900460ff1681565b610fe4610af7565b611023576040517f08c379a000000000000000000000000000000000000000000000000000000000815260040161101a906126f1565b60405180910390fd5b806008819055506001600960006101000a81548160ff021916908360ff1602179055506000600960016101000a81548160ff021916908360ff160217905550600660009054906101000a900473ffffffffffffffffffffffffffffffffffffffff16600960036101000a81548173ffffffffffffffffffffffffffffffffffffffff021916908373ffffffffffffffffffffffffffffffffffffffff1602179055506003600960026101000a81548160ff021916908360ff1602179055506110ea8161134b565b50565b600960039054906101000a900473ffffffffffffffffffffffffffffffffffffffff1681565b600960019054906101000a900460ff1681565b61112e610af7565b61116d576040517f08c379a0000000000000000000000000000000000000000000000000000000008152600401611164906126f1565b60405180910390fd5b611176816118a3565b50565b600460009054906101000a900473ffffffffffffffffffffffffffffffffffffffff1681565b6111a7610af7565b6111e6576040517f08c379a00000000000000000000000000000000000000000000000000000000081526004016111dd906126f1565b60405180910390fd5b60003373ffffffffffffffffffffffffffffffffffffffff163073ffffffffffffffffffffffffffffffffffffffff16316040516112239061259d565b60006040518083038185875af1925050503d8060008114611260576040519150601f19603f3d011682016040523d82523d6000602084013e611265565b606091505b50509050806112a9576040517f08c379a00000000000000000000000000000000000000000000000000000000081526004016112a0906126d1565b60405180910390fd5b50565b611346838473ffffffffffffffffffffffffffffffffffffffff1663a9059cbb905060e01b84846040516024016112e49291906125f6565b604051602081830303815290604052907bffffffffffffffffffffffffffffffffffffffffffffffffffffffff19166020820180517bffffffffffffffffffffffffffffffffffffffffffffffffffffffff83818316178352505050506119d3565b505050565b6060600160405190808252806020026020018201604052801561138857816020015b611375611be5565b81526020019060019003908161136d5790505b509050606060036040519080825280602002602001820160405280156113c857816020015b6113b5611c15565b8152602001906001900390816113ad5790505b50905060405180604001604052803073ffffffffffffffffffffffffffffffffffffffff16815260200160008152508260008151811061140457fe5b6020026020010181905250611417611c81565b604051806080016040528060001515815260200160008081111561143757fe5b815260200160008081111561144857fe5b815260200185815250905061145b611cbf565b60018160000190600881111561146d57fe5b9081600881111561147a57fe5b815250506000816020018181525050818160400181905250600960029054906101000a900460ff1660ff16816060018181525050308160a0019073ffffffffffffffffffffffffffffffffffffffff16908173ffffffffffffffffffffffffffffffffffffffff168152505080836000815181106114f457fe5b6020026020010181905250611507611cbf565b60088160000190600881111561151957fe5b9081600881111561152657fe5b815250506000816020018181525050308160a0019073ffffffffffffffffffffffffffffffffffffffff16908173ffffffffffffffffffffffffffffffffffffffff1681525050808460018151811061157b57fe5b602002602001018190525061158e611cbf565b611596611c81565b60405180608001604052806001151581526020016000808111156115b657fe5b81526020016000808111156115c757fe5b81526020016115e2620f42408b611b4590919063ffffffff16565b81525090506000826000019060088111156115f957fe5b9081600881111561160657fe5b815250506000826020018181525050808260400181905250600960029054906101000a900460ff1660ff16826060018181525050308260a0019073ffffffffffffffffffffffffffffffffffffffff16908173ffffffffffffffffffffffffffffffffffffffff1681525050818660028151811061168057fe5b6020026020010181905250600360009054906101000a900473ffffffffffffffffffffffffffffffffffffffff1673ffffffffffffffffffffffffffffffffffffffff1663a67a6a4588886040518363ffffffff1660e01b81526004016116e892919061261f565b600060405180830381600087803b15801561170257600080fd5b505af1158015611716573d6000803e3d6000fd5b505050505050505050505050565b600033905090565b60008114806117c5575060008373ffffffffffffffffffffffffffffffffffffffff1663dd62ed3e30856040518363ffffffff1660e01b81526004016117739291906125cd565b60206040518083038186803b15801561178b57600080fd5b505afa15801561179f573d6000803e3d6000fd5b505050506040513d601f19601f820116820180604052506117c39190810190611f7d565b145b611804576040517f08c379a00000000000000000000000000000000000000000000000000000000081526004016117fb90612731565b60405180910390fd5b61189e838473ffffffffffffffffffffffffffffffffffffffff1663095ea7b3905060e01b848460405160240161183c9291906125f6565b604051602081830303815290604052907bffffffffffffffffffffffffffffffffffffffffffffffffffffffff19166020820180517bffffffffffffffffffffffffffffffffffffffffffffffffffffffff83818316178352505050506119d3565b505050565b600073ffffffffffffffffffffffffffffffffffffffff168173ffffffffffffffffffffffffffffffffffffffff161415611913576040517f08c379a000000000000000000000000000000000000000000000000000000000815260040161190a90612671565b60405180910390fd5b8073ffffffffffffffffffffffffffffffffffffffff16600160009054906101000a900473ffffffffffffffffffffffffffffffffffffffff1673ffffffffffffffffffffffffffffffffffffffff167f8be0079c531659141344cd1fd0a4f28419497f9722a3daafe3b4186f6b6457e060405160405180910390a380600160006101000a81548173ffffffffffffffffffffffffffffffffffffffff021916908373ffffffffffffffffffffffffffffffffffffffff16021790555050565b6119f28273ffffffffffffffffffffffffffffffffffffffff16611b9a565b611a31576040517f08c379a0000000000000000000000000000000000000000000000000000000008152600401611a2890612751565b60405180910390fd5b600060608373ffffffffffffffffffffffffffffffffffffffff1683604051611a5a9190612586565b6000604051808303816000865af19150503d8060008114611a97576040519150601f19603f3d011682016040523d82523d6000602084013e611a9c565b606091505b509150915081611ae1576040517f08c379a0000000000000000000000000000000000000000000000000000000008152600401611ad8906126b1565b60405180910390fd5b600081511115611b3f5780806020019051611aff9190810190611f02565b611b3e576040517f08c379a0000000000000000000000000000000000000000000000000000000008152600401611b3590612711565b60405180910390fd5b5b50505050565b600080828401905083811015611b90576040517f08c379a0000000000000000000000000000000000000000000000000000000008152600401611b8790612691565b60405180910390fd5b8091505092915050565b60008060007fc5d2460186f7233c927e7db2dcc703c0e500b653ca82273b7bfad8045d85a47060001b9050833f91506000801b8214158015611bdc5750808214155b92505050919050565b6040518060400160405280600073ffffffffffffffffffffffffffffffffffffffff168152602001600081525090565b60405180610100016040528060006008811115611c2e57fe5b815260200160008152602001611c42611d2b565b81526020016000815260200160008152602001600073ffffffffffffffffffffffffffffffffffffffff16815260200160008152602001606081525090565b6040518060800160405280600015158152602001600080811115611ca157fe5b8152602001600080811115611cb257fe5b8152602001600081525090565b60405180610100016040528060006008811115611cd857fe5b815260200160008152602001611cec611d2b565b81526020016000815260200160008152602001600073ffffffffffffffffffffffffffffffffffffffff16815260200160008152602001606081525090565b6040518060800160405280600015158152602001600080811115611d4b57fe5b8152602001600080811115611d5c57fe5b8152602001600081525090565b600081359050611d7881612a6e565b92915050565b600081519050611d8d81612a85565b92915050565b600082601f830112611da457600080fd5b8135611db7611db282612819565b6127ec565b91508082526020830160208301858383011115611dd357600080fd5b611dde8382846129f4565b50505092915050565b600081359050611df681612a9c565b92915050565b600060408284031215611e0e57600080fd5b611e1860406127ec565b90506000611e2884828501611d69565b6000830152506020611e3c84828501611e48565b60208301525092915050565b600081359050611e5781612ab3565b92915050565b600081519050611e6c81612ab3565b92915050565b600060208284031215611e8457600080fd5b6000611e9284828501611d69565b91505092915050565b600080600060808486031215611eb057600080fd5b6000611ebe86828701611d69565b9350506020611ecf86828701611dfc565b925050606084013567ffffffffffffffff811115611eec57600080fd5b611ef886828701611d93565b9150509250925092565b600060208284031215611f1457600080fd5b6000611f2284828501611d7e565b91505092915050565b600060208284031215611f3d57600080fd5b6000611f4b84828501611de7565b91505092915050565b600060208284031215611f6657600080fd5b6000611f7484828501611e48565b91505092915050565b600060208284031215611f8f57600080fd5b6000611f9d84828501611e5d565b91505092915050565b6000611fb28383612413565b905092915050565b6000611fc6838361251b565b60408301905092915050565b611fdb816128fa565b82525050565b611fea816128fa565b82525050565b6000611ffb82612865565b61200581856128ab565b93508360208202850161201785612845565b8060005b8581101561205357848403895281516120348582611fa6565b945061203f83612891565b925060208a0199505060018101905061201b565b50829750879550505050505092915050565b600061207082612870565b61207a81856128bc565b935061208583612855565b8060005b838110156120b657815161209d8882611fba565b97506120a88361289e565b925050600181019050612089565b5085935050505092915050565b6120cc8161290c565b82525050565b6120db8161290c565b82525050565b60006120ec82612886565b6120f681856128de565b9350612106818560208601612a03565b80840191505092915050565b600061211d8261287b565b61212781856128cd565b9350612137818560208601612a03565b61214081612a36565b840191505092915050565b6121548161299a565b82525050565b612163816129ac565b82525050565b612172816129be565b82525050565b612181816129d0565b82525050565b60006121946026836128e9565b91507f4f776e61626c653a206e6577206f776e657220697320746865207a65726f206160008301527f64647265737300000000000000000000000000000000000000000000000000006020830152604082019050919050565b60006121fa601b836128e9565b91507f536166654d6174683a206164646974696f6e206f766572666c6f7700000000006000830152602082019050919050565b600061223a6020836128e9565b91507f5361666545524332303a206c6f772d6c6576656c2063616c6c206661696c65646000830152602082019050919050565b600061227a6016836128e9565b91507f7472616e73666572206f6620455448206661696c6564000000000000000000006000830152602082019050919050565b60006122ba6020836128e9565b91507f4f776e61626c653a2063616c6c6572206973206e6f7420746865206f776e65726000830152602082019050919050565b60006122fa6000836128de565b9150600082019050919050565b6000612314602a836128e9565b91507f5361666545524332303a204552433230206f7065726174696f6e20646964206e60008301527f6f742073756363656564000000000000000000000000000000000000000000006020830152604082019050919050565b600061237a6036836128e9565b91507f5361666545524332303a20617070726f76652066726f6d206e6f6e2d7a65726f60008301527f20746f206e6f6e2d7a65726f20616c6c6f77616e6365000000000000000000006020830152604082019050919050565b60006123e0601f836128e9565b91507f5361666545524332303a2063616c6c20746f206e6f6e2d636f6e7472616374006000830152602082019050919050565b60006101608301600083015161242c600086018261214b565b50602083015161243f602086018261254a565b50604083015161245260408601826124c6565b50606083015161246560c086018261254a565b50608083015161247860e086018261254a565b5060a083015161248c610100860182611fd2565b5060c08301516124a061012086018261254a565b5060e08301518482036101408601526124b98282612112565b9150508091505092915050565b6080820160008201516124dc60008501826120c3565b5060208201516124ef602085018261215a565b5060408201516125026040850182612169565b506060820151612515606085018261254a565b50505050565b6040820160008201516125316000850182611fd2565b506020820151612544602085018261254a565b50505050565b61255381612983565b82525050565b61256281612983565b82525050565b612571816129e2565b82525050565b6125808161298d565b82525050565b600061259282846120e1565b915081905092915050565b60006125a8826122ed565b9150819050919050565b60006020820190506125c76000830184611fe1565b92915050565b60006040820190506125e26000830185611fe1565b6125ef6020830184611fe1565b9392505050565b600060408201905061260b6000830185611fe1565b6126186020830184612559565b9392505050565b600060408201905081810360008301526126398185612065565b9050818103602083015261264d8184611ff0565b90509392505050565b600060208201905061266b60008301846120d2565b92915050565b6000602082019050818103600083015261268a81612187565b9050919050565b600060208201905081810360008301526126aa816121ed565b9050919050565b600060208201905081810360008301526126ca8161222d565b9050919050565b600060208201905081810360008301526126ea8161226d565b9050919050565b6000602082019050818103600083015261270a816122ad565b9050919050565b6000602082019050818103600083015261272a81612307565b9050919050565b6000602082019050818103600083015261274a8161236d565b9050919050565b6000602082019050818103600083015261276a816123d3565b9050919050565b60006020820190506127866000830184612559565b92915050565b60006020820190506127a16000830184612577565b92915050565b60006080820190506127bc6000830187612568565b6127c96020830186612568565b6127d66040830185612559565b6127e36060830184612178565b95945050505050565b6000604051905081810181811067ffffffffffffffff8211171561280f57600080fd5b8060405250919050565b600067ffffffffffffffff82111561283057600080fd5b601f19601f8301169050602081019050919050565b6000819050602082019050919050565b6000819050602082019050919050565b600081519050919050565b600081519050919050565b600081519050919050565b600081519050919050565b6000602082019050919050565b6000602082019050919050565b600082825260208201905092915050565b600082825260208201905092915050565b600082825260208201905092915050565b600081905092915050565b600082825260208201905092915050565b600061290582612963565b9050919050565b60008115159050919050565b6000612923826128fa565b9050919050565b600081905061293882612a47565b919050565b600081905061294b82612a54565b919050565b600081905061295e82612a61565b919050565b600073ffffffffffffffffffffffffffffffffffffffff82169050919050565b6000819050919050565b600060ff82169050919050565b60006129a58261292a565b9050919050565b60006129b78261293d565b9050919050565b60006129c982612950565b9050919050565b60006129db82612983565b9050919050565b60006129ed8261298d565b9050919050565b82818337600083830152505050565b60005b83811015612a21578082015181840152602081019050612a06565b83811115612a30576000848401525b50505050565b6000601f19601f8301169050919050565b60098110612a5157fe5b50565b60018110612a5e57fe5b50565b60018110612a6b57fe5b50565b612a77816128fa565b8114612a8257600080fd5b50565b612a8e8161290c565b8114612a9957600080fd5b50565b612aa581612918565b8114612ab057600080fd5b50565b612abc81612983565b8114612ac757600080fd5b5056fea365627a7a723158209b3b90de4623d4d1b656858ee3382c1ba902c5e8872bd003b250fd864d16f3a16c6578706572696d656e74616cf564736f6c634300050c0040",
  "source": "pragma solidity ^0.5.0;\npragma experimental ABIEncoderV2;\n\ninterface IERC20 {\n    function totalSupply() external view returns (uint256);\n    function balanceOf(address account) external view returns (uint256);\n    function transfer(address recipient, uint256 amount) external returns (bool);\n    function allowance(address owner, address spender) external view returns (uint256);\n    function approve(address spender, uint256 amount) external returns (bool);\n    function transferFrom(address sender, address recipient, uint256 amount) external returns (bool);\n    event Transfer(address indexed from, address indexed to, uint256 value);\n    event Approval(address indexed owner, address indexed spender, uint256 value);\n}\n\ncontract Context {\n    constructor () internal { }\n    // solhint-disable-previous-line no-empty-blocks\n\n    function _msgSender() internal view returns (address payable) {\n        return msg.sender;\n    }\n\n    function _msgData() internal view returns (bytes memory) {\n        this; // silence state mutability warning without generating bytecode - see https://github.com/ethereum/solidity/issues/2691\n        return msg.data;\n    }\n}\n\ncontract ReentrancyGuard {\n    uint256 private _guardCounter;\n\n    constructor () internal {\n        _guardCounter = 1;\n    }\n\n    modifier nonReentrant() {\n        _guardCounter += 1;\n        uint256 localCounter = _guardCounter;\n        _;\n        require(localCounter == _guardCounter, \"ReentrancyGuard: reentrant call\");\n    }\n}\n\ncontract Ownable is Context {\n    address private _owner;\n\n    event OwnershipTransferred(address indexed previousOwner, address indexed newOwner);\n    constructor () internal {\n        _owner = _msgSender();\n        emit OwnershipTransferred(address(0), _owner);\n    }\n    function owner() public view returns (address) {\n        return _owner;\n    }\n    modifier onlyOwner() {\n        require(isOwner(), \"Ownable: caller is not the owner\");\n        _;\n    }\n    function isOwner() public view returns (bool) {\n        return _msgSender() == _owner;\n    }\n    function renounceOwnership() public onlyOwner {\n        emit OwnershipTransferred(_owner, address(0));\n        _owner = address(0);\n    }\n    function transferOwnership(address newOwner) public onlyOwner {\n        _transferOwnership(newOwner);\n    }\n    function _transferOwnership(address newOwner) internal {\n        require(newOwner != address(0), \"Ownable: new owner is the zero address\");\n        emit OwnershipTransferred(_owner, newOwner);\n        _owner = newOwner;\n    }\n}\n\nlibrary SafeMath {\n    function add(uint256 a, uint256 b) internal pure returns (uint256) {\n        uint256 c = a + b;\n        require(c >= a, \"SafeMath: addition overflow\");\n\n        return c;\n    }\n    function sub(uint256 a, uint256 b) internal pure returns (uint256) {\n        return sub(a, b, \"SafeMath: subtraction overflow\");\n    }\n    function sub(uint256 a, uint256 b, string memory errorMessage) internal pure returns (uint256) {\n        require(b <= a, errorMessage);\n        uint256 c = a - b;\n\n        return c;\n    }\n    function mul(uint256 a, uint256 b) internal pure returns (uint256) {\n        if (a == 0) {\n            return 0;\n        }\n\n        uint256 c = a * b;\n        require(c / a == b, \"SafeMath: multiplication overflow\");\n\n        return c;\n    }\n    function div(uint256 a, uint256 b) internal pure returns (uint256) {\n        return div(a, b, \"SafeMath: division by zero\");\n    }\n    function div(uint256 a, uint256 b, string memory errorMessage) internal pure returns (uint256) {\n        // Solidity only automatically asserts when dividing by 0\n        require(b > 0, errorMessage);\n        uint256 c = a / b;\n\n        return c;\n    }\n    function mod(uint256 a, uint256 b) internal pure returns (uint256) {\n        return mod(a, b, \"SafeMath: modulo by zero\");\n    }\n    function mod(uint256 a, uint256 b, string memory errorMessage) internal pure returns (uint256) {\n        require(b != 0, errorMessage);\n        return a % b;\n    }\n}\n\nlibrary Address {\n    function isContract(address account) internal view returns (bool) {\n        bytes32 codehash;\n        bytes32 accountHash = 0xc5d2460186f7233c927e7db2dcc703c0e500b653ca82273b7bfad8045d85a470;\n        // solhint-disable-next-line no-inline-assembly\n        assembly { codehash := extcodehash(account) }\n        return (codehash != 0x0 && codehash != accountHash);\n    }\n    function toPayable(address account) internal pure returns (address payable) {\n        return address(uint160(account));\n    }\n    function sendValue(address payable recipient, uint256 amount) internal {\n        require(address(this).balance >= amount, \"Address: insufficient balance\");\n\n        // solhint-disable-next-line avoid-call-value\n        (bool success, ) = recipient.call.value(amount)(\"\");\n        require(success, \"Address: unable to send value, recipient may have reverted\");\n    }\n}\n\nlibrary SafeERC20 {\n    using SafeMath for uint256;\n    using Address for address;\n\n    function safeTransfer(IERC20 token, address to, uint256 value) internal {\n        callOptionalReturn(token, abi.encodeWithSelector(token.transfer.selector, to, value));\n    }\n    function safeTransferFrom(IERC20 token, address from, address to, uint256 value) internal {\n        callOptionalReturn(token, abi.encodeWithSelector(token.transferFrom.selector, from, to, value));\n    }\n    function safeApprove(IERC20 token, address spender, uint256 value) internal {\n        require((value == 0) || (token.allowance(address(this), spender) == 0),\n            \"SafeERC20: approve from non-zero to non-zero allowance\"\n        );\n        callOptionalReturn(token, abi.encodeWithSelector(token.approve.selector, spender, value));\n    }\n    function callOptionalReturn(IERC20 token, bytes memory data) private {\n        require(address(token).isContract(), \"SafeERC20: call to non-contract\");\n\n        // solhint-disable-next-line avoid-low-level-calls\n        (bool success, bytes memory returndata) = address(token).call(data);\n        require(success, \"SafeERC20: low-level call failed\");\n\n        if (returndata.length > 0) { // Return data is optional\n            // solhint-disable-next-line max-line-length\n            require(abi.decode(returndata, (bool)), \"SafeERC20: ERC20 operation did not succeed\");\n        }\n    }\n}\n\ninterface ICurveFi {\n  function exchange_underlying(\n    int128 from, int128 to, uint256 _from_amount, uint256 _min_to_amount\n  ) external;\n}\n\ncontract Structs {\n    struct Val {\n        uint256 value;\n    }\n\n    enum ActionType {\n      Deposit,   // supply tokens\n      Withdraw,  // borrow tokens\n      Transfer,  // transfer balance between accounts\n      Buy,       // buy an amount of some token (externally)\n      Sell,      // sell an amount of some token (externally)\n      Trade,     // trade tokens against another account\n      Liquidate, // liquidate an undercollateralized or expiring account\n      Vaporize,  // use excess tokens to zero-out a completely negative account\n      Call       // send arbitrary data to an address\n    }\n\n    enum AssetDenomination {\n        Wei // the amount is denominated in wei\n    }\n\n    enum AssetReference {\n        Delta // the amount is given as a delta from the current value\n    }\n\n    struct AssetAmount {\n        bool sign; // true if positive\n        AssetDenomination denomination;\n        AssetReference ref;\n        uint256 value;\n    }\n\n    struct ActionArgs {\n        ActionType actionType;\n        uint256 accountId;\n        AssetAmount amount;\n        uint256 primaryMarketId;\n        uint256 secondaryMarketId;\n        address otherAddress;\n        uint256 otherAccountId;\n        bytes data;\n    }\n\n    struct Info {\n        address owner;  // The address that owns the account\n        uint256 number; // A nonce that allows a single address to control many accounts\n    }\n\n    struct Wei {\n        bool sign; // true if positive\n        uint256 value;\n    }\n}\n\ncontract DyDx is Structs {\n    function getAccountWei(Info memory account, uint256 marketId) public view returns (Wei memory);\n    function operate(Info[] memory, ActionArgs[] memory) public;\n}\n\n\ncontract CurveRebalance is ReentrancyGuard, Ownable, Structs {\n  using SafeERC20 for IERC20;\n  using Address for address;\n  using SafeMath for uint256;\n\n  address public swap;\n  address public dydx;\n  address public dai;\n  address public usdt;\n  address public usdc;\n  address public tusd;\n  uint256 public _amount;\n  uint8 public _to;\n  uint8 public _from;\n  uint8 public _dydx;\n  address public _token;\n\n  constructor () public {\n    dydx = address(0x1E0447b19BB6EcFdAe1e4AE1694b0C3659614e4e);\n    swap = address(0x45F783CCE6B7FF23B2ab2D70e416cdb7D6055f51);\n    dai = address(0x6B175474E89094C44Da98b954EedeAC495271d0F);\n    usdc = address(0xA0b86991c6218b36c1d19D4a2e9Eb0cE3606eB48);\n    usdt = address(0xdAC17F958D2ee523a2206206994597C13D831ec7);\n    tusd = address(0x0000000000085d4780B73119b644AE5ecd22b376);\n\n    approveToken();\n  }\n\n  // dydx 0 = ETH, 1 = SAI, 2 = USDC, 3 = DAI\n  // curve 0 = DAI, 1 = USDC, 2 = USDT, 3 = TUSD\n\n  function withdrawDAI(uint256 amount) public onlyOwner {\n    _amount = amount;\n    _to = 0; // DAI\n    _from = 1; // USDC\n    _token = dai;\n    _dydx = 2; // USDC\n    _flash(amount);\n  }\n\n  function withdrawUSDT(uint256 amount) public onlyOwner {\n    _amount = amount;\n    _to = 2; // USDT\n    _from = 1; // USDC\n    _token = usdt;\n    _dydx = 2; // USDC\n    _flash(amount);\n  }\n\n  function withdrawTUSD(uint256 amount) public onlyOwner {\n    _amount = amount;\n    _to = 3; // TUSD\n    _from = 1; // USDC\n    _token = tusd;\n    _dydx = 2; // USDC\n    _flash(amount);\n  }\n\n  function withdrawUSDC(uint256 amount) public onlyOwner {\n    _amount = amount;\n    _to = 1; // USDC\n    _from = 0; // DAI\n    _token = usdc;\n    _dydx = 3; // DAI\n    _flash(amount);\n  }\n\n  function _flash(uint256 amount) internal {\n    Info[] memory infos = new Info[](1);\n    ActionArgs[] memory args = new ActionArgs[](3);\n\n    infos[0] = Info(address(this), 0);\n\n    AssetAmount memory wamt = AssetAmount(false, AssetDenomination.Wei, AssetReference.Delta, amount);\n    ActionArgs memory withdraw;\n    withdraw.actionType = ActionType.Withdraw;\n    withdraw.accountId = 0;\n    withdraw.amount = wamt;\n    withdraw.primaryMarketId = _dydx; // Borrow USDC\n    withdraw.otherAddress = address(this);\n\n    args[0] = withdraw;\n\n    ActionArgs memory call;\n    call.actionType = ActionType.Call;\n    call.accountId = 0;\n    call.otherAddress = address(this);\n\n    args[1] = call;\n\n    ActionArgs memory deposit;\n    AssetAmount memory damt = AssetAmount(true, AssetDenomination.Wei, AssetReference.Delta, amount.add(1e6));\n    deposit.actionType = ActionType.Deposit;\n    deposit.accountId = 0;\n    deposit.amount = damt;\n    deposit.primaryMarketId = _dydx; // Repay USDC\n    deposit.otherAddress = address(this);\n\n    args[2] = deposit;\n\n    DyDx(dydx).operate(infos, args);\n  }\n\n  function callFunction(\n      address sender,\n      Info memory accountInfo,\n      bytes memory data\n  ) public {\n    // 0 = DAI, 1 = USDC, 2 = USDT, 3 = TUSD\n    ICurveFi(swap).exchange_underlying(_from, _to, _amount, 0);\n    ICurveFi(swap).exchange_underlying(_to, _from, IERC20(_token).balanceOf(address(this)), 0);\n  }\n\n  function approveToken() public {\n      IERC20(dai).safeApprove(swap, uint(-1));\n      IERC20(dai).safeApprove(dydx, uint(-1));\n      IERC20(usdc).safeApprove(swap, uint(-1));\n      IERC20(usdc).safeApprove(dydx, uint(-1));\n\n      IERC20(usdt).safeApprove(swap, uint(-1));\n      IERC20(tusd).safeApprove(swap, uint(-1));\n  }\n\n  // incase of half-way error\n  function inCaseTokenGetsStuck(IERC20 _TokenAddress) onlyOwner public {\n      uint qty = _TokenAddress.balanceOf(address(this));\n      _TokenAddress.safeTransfer(msg.sender, qty);\n  }\n\n  // incase of half-way error\n  function inCaseETHGetsStuck() onlyOwner public{\n      (bool result, ) = msg.sender.call.value(address(this).balance)(\"\");\n      require(result, \"transfer of ETH failed\");\n  }\n}\n",
  "sourcePath": "D:/ftm/itoken/contracts/CurveRebalance.sol",
  "compiler": {
    "name": "solc",
    "version": "0.5.12+commit.7709ece9.Emscripten.clang"
  },
  "schemaVersion": "3.0.19",
  "updatedAt": "2020-02-25T05:27:22.662Z",
  "devdoc": {
    "methods": {}
  },
  "userdoc": {
    "methods": {}
  }
}