{
  "contractName": "CurveFlash",
  "abi": [
    {
      "inputs": [],
      "payable": false,
      "stateMutability": "nonpayable",
      "type": "constructor"
    },
    {
      "anonymous": false,
      "inputs": [
        {
          "indexed": true,
          "internalType": "address",
          "name": "previousOwner",
          "type": "address"
        },
        {
          "indexed": true,
          "internalType": "address",
          "name": "newOwner",
          "type": "address"
        }
      ],
      "name": "OwnershipTransferred",
      "type": "event"
    },
    {
      "payable": true,
      "stateMutability": "payable",
      "type": "fallback"
    },
    {
      "constant": true,
      "inputs": [],
      "name": "_amount",
      "outputs": [
        {
          "internalType": "uint256",
          "name": "",
          "type": "uint256"
        }
      ],
      "payable": false,
      "stateMutability": "view",
      "type": "function"
    },
    {
      "constant": true,
      "inputs": [],
      "name": "_vault",
      "outputs": [
        {
          "internalType": "address payable",
          "name": "",
          "type": "address"
        }
      ],
      "payable": false,
      "stateMutability": "view",
      "type": "function"
    },
    {
      "constant": true,
      "inputs": [],
      "name": "dydx",
      "outputs": [
        {
          "internalType": "address",
          "name": "",
          "type": "address"
        }
      ],
      "payable": false,
      "stateMutability": "view",
      "type": "function"
    },
    {
      "constant": true,
      "inputs": [],
      "name": "isOwner",
      "outputs": [
        {
          "internalType": "bool",
          "name": "",
          "type": "bool"
        }
      ],
      "payable": false,
      "stateMutability": "view",
      "type": "function"
    },
    {
      "constant": true,
      "inputs": [],
      "name": "oCRV",
      "outputs": [
        {
          "internalType": "address",
          "name": "",
          "type": "address"
        }
      ],
      "payable": false,
      "stateMutability": "view",
      "type": "function"
    },
    {
      "constant": true,
      "inputs": [],
      "name": "owner",
      "outputs": [
        {
          "internalType": "address",
          "name": "",
          "type": "address"
        }
      ],
      "payable": false,
      "stateMutability": "view",
      "type": "function"
    },
    {
      "constant": false,
      "inputs": [],
      "name": "renounceOwnership",
      "outputs": [],
      "payable": false,
      "stateMutability": "nonpayable",
      "type": "function"
    },
    {
      "constant": false,
      "inputs": [
        {
          "internalType": "address",
          "name": "newOwner",
          "type": "address"
        }
      ],
      "name": "transferOwnership",
      "outputs": [],
      "payable": false,
      "stateMutability": "nonpayable",
      "type": "function"
    },
    {
      "constant": true,
      "inputs": [],
      "name": "weth",
      "outputs": [
        {
          "internalType": "address",
          "name": "",
          "type": "address"
        }
      ],
      "payable": false,
      "stateMutability": "view",
      "type": "function"
    },
    {
      "constant": false,
      "inputs": [
        {
          "internalType": "uint256",
          "name": "amount",
          "type": "uint256"
        },
        {
          "internalType": "address payable",
          "name": "vault",
          "type": "address"
        }
      ],
      "name": "liquidate",
      "outputs": [],
      "payable": false,
      "stateMutability": "nonpayable",
      "type": "function"
    },
    {
      "constant": false,
      "inputs": [
        {
          "internalType": "address",
          "name": "sender",
          "type": "address"
        },
        {
          "components": [
            {
              "internalType": "address",
              "name": "owner",
              "type": "address"
            },
            {
              "internalType": "uint256",
              "name": "number",
              "type": "uint256"
            }
          ],
          "internalType": "struct Structs.Info",
          "name": "accountInfo",
          "type": "tuple"
        },
        {
          "internalType": "bytes",
          "name": "data",
          "type": "bytes"
        }
      ],
      "name": "callFunction",
      "outputs": [],
      "payable": false,
      "stateMutability": "nonpayable",
      "type": "function"
    },
    {
      "constant": false,
      "inputs": [
        {
          "internalType": "contract IERC20",
          "name": "_TokenAddress",
          "type": "address"
        }
      ],
      "name": "inCaseTokenGetsStuck",
      "outputs": [],
      "payable": false,
      "stateMutability": "nonpayable",
      "type": "function"
    },
    {
      "constant": false,
      "inputs": [],
      "name": "inCaseETHGetsStuck",
      "outputs": [],
      "payable": false,
      "stateMutability": "nonpayable",
      "type": "function"
    }
  ],
  "bytecode": "0x608060405234801561001057600080fd5b5060016000819055506100276101e860201b60201c565b600160006101000a81548173ffffffffffffffffffffffffffffffffffffffff021916908373ffffffffffffffffffffffffffffffffffffffff160217905550600160009054906101000a900473ffffffffffffffffffffffffffffffffffffffff1673ffffffffffffffffffffffffffffffffffffffff16600073ffffffffffffffffffffffffffffffffffffffff167f8be0079c531659141344cd1fd0a4f28419497f9722a3daafe3b4186f6b6457e060405160405180910390a3731e0447b19bb6ecfdae1e4ae1694b0c3659614e4e600260006101000a81548173ffffffffffffffffffffffffffffffffffffffff021916908373ffffffffffffffffffffffffffffffffffffffff160217905550734ba8c6ce0e855c051e65dfc37883360efaf7c82b600360006101000a81548173ffffffffffffffffffffffffffffffffffffffff021916908373ffffffffffffffffffffffffffffffffffffffff16021790555073c02aaa39b223fe8d0a0e5c4f27ead9083c756cc2600460006101000a81548173ffffffffffffffffffffffffffffffffffffffff021916908373ffffffffffffffffffffffffffffffffffffffff1602179055506101f0565b600033905090565b6123cc806101ff6000396000f3fe6080604052600436106100c25760003560e01c80638da5cb5b1161007f5780639887f180116100595780639887f1801461022d578063f2fde38b14610258578063f60a15ed14610281578063fd243da314610298576100c2565b80638da5cb5b146101ac5780638e4ec6ef146101d75780638f32d59b14610202576100c2565b80631aecf619146100c45780632e8d6e18146100ef5780633fc8cef3146101185780635fae8b3d14610143578063715018a61461016c5780638b41871314610183575b005b3480156100d057600080fd5b506100d96102c3565b6040516100e69190611e44565b60405180910390f35b3480156100fb57600080fd5b50610116600480360361011191908101906117df565b6102e9565b005b34801561012457600080fd5b5061012d6103ec565b60405161013a9190611e44565b60405180910390f35b34801561014f57600080fd5b5061016a60048036036101659190810190611831565b610412565b005b34801561017857600080fd5b50610181610810565b005b34801561018f57600080fd5b506101aa60048036036101a5919081019061174f565b610918565b005b3480156101b857600080fd5b506101c1610e60565b6040516101ce9190611e44565b60405180910390f35b3480156101e357600080fd5b506101ec610e8a565b6040516101f99190611e44565b60405180910390f35b34801561020e57600080fd5b50610217610eb0565b6040516102249190611f1e565b60405180910390f35b34801561023957600080fd5b50610242610f0f565b60405161024f9190612039565b60405180910390f35b34801561026457600080fd5b5061027f600480360361027a9190810190611726565b610f15565b005b34801561028d57600080fd5b50610296610f68565b005b3480156102a457600080fd5b506102ad611075565b6040516102ba9190611e7a565b60405180910390f35b600360009054906101000a900473ffffffffffffffffffffffffffffffffffffffff1681565b6102f1610eb0565b610330576040517f08c379a000000000000000000000000000000000000000000000000000000000815260040161032790611fb9565b60405180910390fd5b60008173ffffffffffffffffffffffffffffffffffffffff166370a08231306040518263ffffffff1660e01b815260040161036b9190611e5f565b60206040518083038186803b15801561038357600080fd5b505afa158015610397573d6000803e3d6000fd5b505050506040513d601f19601f820116820180604052506103bb9190810190611808565b90506103e833828473ffffffffffffffffffffffffffffffffffffffff1661109b9092919063ffffffff16565b5050565b600460009054906101000a900473ffffffffffffffffffffffffffffffffffffffff1681565b80600560006101000a81548173ffffffffffffffffffffffffffffffffffffffff021916908373ffffffffffffffffffffffffffffffffffffffff160217905550816006819055506060600160405190808252806020026020018201604052801561049757816020015b610484611484565b81526020019060019003908161047c5790505b509050606060036040519080825280602002602001820160405280156104d757816020015b6104c46114b4565b8152602001906001900390816104bc5790505b50905060405180604001604052803073ffffffffffffffffffffffffffffffffffffffff16815260200160008152508260008151811061051357fe5b6020026020010181905250610526611520565b604051806080016040528060001515815260200160008081111561054657fe5b815260200160008081111561055757fe5b815260200186815250905061056a61155e565b60018160000190600881111561057c57fe5b9081600881111561058957fe5b8152505060008160200181815250508181604001819052506000816060018181525050308160a0019073ffffffffffffffffffffffffffffffffffffffff16908173ffffffffffffffffffffffffffffffffffffffff168152505080836000815181106105f257fe5b602002602001018190525061060561155e565b60088160000190600881111561061757fe5b9081600881111561062457fe5b815250506000816020018181525050308160a0019073ffffffffffffffffffffffffffffffffffffffff16908173ffffffffffffffffffffffffffffffffffffffff1681525050808460018151811061067957fe5b602002602001018190525061068c61155e565b610694611520565b60405180608001604052806001151581526020016000808111156106b457fe5b81526020016000808111156106c557fe5b81526020016106de60018c61113a90919063ffffffff16565b81525090506000826000019060088111156106f557fe5b9081600881111561070257fe5b8152505060008260200181815250508082604001819052506000826060018181525050308260a0019073ffffffffffffffffffffffffffffffffffffffff16908173ffffffffffffffffffffffffffffffffffffffff1681525050818660028151811061076b57fe5b6020026020010181905250600260009054906101000a900473ffffffffffffffffffffffffffffffffffffffff1673ffffffffffffffffffffffffffffffffffffffff1663a67a6a4588886040518363ffffffff1660e01b81526004016107d3929190611ee7565b600060405180830381600087803b1580156107ed57600080fd5b505af1158015610801573d6000803e3d6000fd5b50505050505050505050505050565b610818610eb0565b610857576040517f08c379a000000000000000000000000000000000000000000000000000000000815260040161084e90611fb9565b60405180910390fd5b600073ffffffffffffffffffffffffffffffffffffffff16600160009054906101000a900473ffffffffffffffffffffffffffffffffffffffff1673ffffffffffffffffffffffffffffffffffffffff167f8be0079c531659141344cd1fd0a4f28419497f9722a3daafe3b4186f6b6457e060405160405180910390a36000600160006101000a81548173ffffffffffffffffffffffffffffffffffffffff021916908373ffffffffffffffffffffffffffffffffffffffff160217905550565b6000600360009054906101000a900473ffffffffffffffffffffffffffffffffffffffff1690508073ffffffffffffffffffffffffffffffffffffffff1663cdb4b5c2600560009054906101000a900473ffffffffffffffffffffffffffffffffffffffff166040518263ffffffff1660e01b815260040161099a9190611e7a565b60206040518083038186803b1580156109b257600080fd5b505afa1580156109c6573d6000803e3d6000fd5b505050506040513d601f19601f820116820180604052506109ea91908101906117b6565b610a29576040517f08c379a0000000000000000000000000000000000000000000000000000000008152600401610a2090611fd9565b60405180910390fd5b600460009054906101000a900473ffffffffffffffffffffffffffffffffffffffff1673ffffffffffffffffffffffffffffffffffffffff16632e1a7d4d6006546040518263ffffffff1660e01b8152600401610a869190612039565b600060405180830381600087803b158015610aa057600080fd5b505af1158015610ab4573d6000803e3d6000fd5b5050505060008173ffffffffffffffffffffffffffffffffffffffff1663686c1e216006546040518263ffffffff1660e01b8152600401610af59190612039565b60206040518083038186803b158015610b0d57600080fd5b505afa158015610b21573d6000803e3d6000fd5b505050506040513d601f19601f82011682018060405250610b459190810190611808565b90508173ffffffffffffffffffffffffffffffffffffffff16630d453efb306040518263ffffffff1660e01b8152600401610b809190611e5f565b602060405180830381600087803b158015610b9a57600080fd5b505af1158015610bae573d6000803e3d6000fd5b505050506040513d601f19601f82011682018060405250610bd291908101906117b6565b15610c4c578173ffffffffffffffffffffffffffffffffffffffff1663b96661ba60065483306040518463ffffffff1660e01b8152600401610c15929190612054565b6000604051808303818588803b158015610c2e57600080fd5b505af1158015610c42573d6000803e3d6000fd5b5050505050610cbd565b8173ffffffffffffffffffffffffffffffffffffffff1663ed1f41c360065483306040518463ffffffff1660e01b8152600401610c8a929190612054565b6000604051808303818588803b158015610ca357600080fd5b505af1158015610cb7573d6000803e3d6000fd5b50505050505b8173ffffffffffffffffffffffffffffffffffffffff1663bcbaf487600560009054906101000a900473ffffffffffffffffffffffffffffffffffffffff168473ffffffffffffffffffffffffffffffffffffffff166370a08231306040518263ffffffff1660e01b8152600401610d359190611e5f565b60206040518083038186803b158015610d4d57600080fd5b505afa158015610d61573d6000803e3d6000fd5b505050506040513d601f19601f82011682018060405250610d859190810190611808565b6040518363ffffffff1660e01b8152600401610da2929190611e95565b600060405180830381600087803b158015610dbc57600080fd5b505af1158015610dd0573d6000803e3d6000fd5b50505050600460009054906101000a900473ffffffffffffffffffffffffffffffffffffffff1673ffffffffffffffffffffffffffffffffffffffff1663d0e30db06006546040518263ffffffff1660e01b81526004016000604051808303818588803b158015610e4057600080fd5b505af1158015610e54573d6000803e3d6000fd5b50505050505050505050565b6000600160009054906101000a900473ffffffffffffffffffffffffffffffffffffffff16905090565b600260009054906101000a900473ffffffffffffffffffffffffffffffffffffffff1681565b6000600160009054906101000a900473ffffffffffffffffffffffffffffffffffffffff1673ffffffffffffffffffffffffffffffffffffffff16610ef361118f565b73ffffffffffffffffffffffffffffffffffffffff1614905090565b60065481565b610f1d610eb0565b610f5c576040517f08c379a0000000000000000000000000000000000000000000000000000000008152600401610f5390611fb9565b60405180910390fd5b610f6581611197565b50565b610f70610eb0565b610faf576040517f08c379a0000000000000000000000000000000000000000000000000000000008152600401610fa690611fb9565b60405180910390fd5b60003373ffffffffffffffffffffffffffffffffffffffff163073ffffffffffffffffffffffffffffffffffffffff1631604051610fec90611e2f565b60006040518083038185875af1925050503d8060008114611029576040519150601f19603f3d011682016040523d82523d6000602084013e61102e565b606091505b5050905080611072576040517f08c379a000000000000000000000000000000000000000000000000000000000815260040161106990611f99565b60405180910390fd5b50565b600560009054906101000a900473ffffffffffffffffffffffffffffffffffffffff1681565b611135838473ffffffffffffffffffffffffffffffffffffffff1663a9059cbb905060e01b84846040516024016110d3929190611ebe565b604051602081830303815290604052907bffffffffffffffffffffffffffffffffffffffffffffffffffffffff19166020820180517bffffffffffffffffffffffffffffffffffffffffffffffffffffffff83818316178352505050506112c7565b505050565b600080828401905083811015611185576040517f08c379a000000000000000000000000000000000000000000000000000000000815260040161117c90611f59565b60405180910390fd5b8091505092915050565b600033905090565b600073ffffffffffffffffffffffffffffffffffffffff168173ffffffffffffffffffffffffffffffffffffffff161415611207576040517f08c379a00000000000000000000000000000000000000000000000000000000081526004016111fe90611f39565b60405180910390fd5b8073ffffffffffffffffffffffffffffffffffffffff16600160009054906101000a900473ffffffffffffffffffffffffffffffffffffffff1673ffffffffffffffffffffffffffffffffffffffff167f8be0079c531659141344cd1fd0a4f28419497f9722a3daafe3b4186f6b6457e060405160405180910390a380600160006101000a81548173ffffffffffffffffffffffffffffffffffffffff021916908373ffffffffffffffffffffffffffffffffffffffff16021790555050565b6112e68273ffffffffffffffffffffffffffffffffffffffff16611439565b611325576040517f08c379a000000000000000000000000000000000000000000000000000000000815260040161131c90612019565b60405180910390fd5b600060608373ffffffffffffffffffffffffffffffffffffffff168360405161134e9190611e18565b6000604051808303816000865af19150503d806000811461138b576040519150601f19603f3d011682016040523d82523d6000602084013e611390565b606091505b5091509150816113d5576040517f08c379a00000000000000000000000000000000000000000000000000000000081526004016113cc90611f79565b60405180910390fd5b60008151111561143357808060200190516113f391908101906117b6565b611432576040517f08c379a000000000000000000000000000000000000000000000000000000000815260040161142990611ff9565b60405180910390fd5b5b50505050565b60008060007fc5d2460186f7233c927e7db2dcc703c0e500b653ca82273b7bfad8045d85a47060001b9050833f91506000801b821415801561147b5750808214155b92505050919050565b6040518060400160405280600073ffffffffffffffffffffffffffffffffffffffff168152602001600081525090565b604051806101000160405280600060088111156114cd57fe5b8152602001600081526020016114e16115ca565b81526020016000815260200160008152602001600073ffffffffffffffffffffffffffffffffffffffff16815260200160008152602001606081525090565b604051806080016040528060001515815260200160008081111561154057fe5b815260200160008081111561155157fe5b8152602001600081525090565b6040518061010001604052806000600881111561157757fe5b81526020016000815260200161158b6115ca565b81526020016000815260200160008152602001600073ffffffffffffffffffffffffffffffffffffffff16815260200160008152602001606081525090565b60405180608001604052806000151581526020016000808111156115ea57fe5b81526020016000808111156115fb57fe5b8152602001600081525090565b60008135905061161781612316565b92915050565b60008135905061162c8161232d565b92915050565b60008151905061164181612344565b92915050565b600082601f83011261165857600080fd5b813561166b611666826120aa565b61207d565b9150808252602083016020830185838301111561168757600080fd5b61169283828461229c565b50505092915050565b6000813590506116aa8161235b565b92915050565b6000604082840312156116c257600080fd5b6116cc604061207d565b905060006116dc84828501611608565b60008301525060206116f0848285016116fc565b60208301525092915050565b60008135905061170b81612372565b92915050565b60008151905061172081612372565b92915050565b60006020828403121561173857600080fd5b600061174684828501611608565b91505092915050565b60008060006080848603121561176457600080fd5b600061177286828701611608565b9350506020611783868287016116b0565b925050606084013567ffffffffffffffff8111156117a057600080fd5b6117ac86828701611647565b9150509250925092565b6000602082840312156117c857600080fd5b60006117d684828501611632565b91505092915050565b6000602082840312156117f157600080fd5b60006117ff8482850161169b565b91505092915050565b60006020828403121561181a57600080fd5b600061182884828501611711565b91505092915050565b6000806040838503121561184457600080fd5b6000611852858286016116fc565b92505060206118638582860161161d565b9150509250929050565b60006118798383611cc3565b905092915050565b600061188d8383611dcb565b60408301905092915050565b6118a281612230565b82525050565b6118b18161219d565b82525050565b6118c08161218b565b82525050565b6118cf8161218b565b82525050565b60006118e0826120f6565b6118ea818561213c565b9350836020820285016118fc856120d6565b8060005b858110156119385784840389528151611919858261186d565b945061192483612122565b925060208a01995050600181019050611900565b50829750879550505050505092915050565b600061195582612101565b61195f818561214d565b935061196a836120e6565b8060005b8381101561199b5781516119828882611881565b975061198d8361212f565b92505060018101905061196e565b5085935050505092915050565b6119b1816121af565b82525050565b6119c0816121af565b82525050565b60006119d182612117565b6119db818561216f565b93506119eb8185602086016122ab565b80840191505092915050565b6000611a028261210c565b611a0c818561215e565b9350611a1c8185602086016122ab565b611a25816122de565b840191505092915050565b611a3981612242565b82525050565b611a4881612254565b82525050565b611a5781612266565b82525050565b6000611a6a60268361217a565b91507f4f776e61626c653a206e6577206f776e657220697320746865207a65726f206160008301527f64647265737300000000000000000000000000000000000000000000000000006020830152604082019050919050565b6000611ad0601b8361217a565b91507f536166654d6174683a206164646974696f6e206f766572666c6f7700000000006000830152602082019050919050565b6000611b1060208361217a565b91507f5361666545524332303a206c6f772d6c6576656c2063616c6c206661696c65646000830152602082019050919050565b6000611b5060168361217a565b91507f7472616e73666572206f6620455448206661696c6564000000000000000000006000830152602082019050919050565b6000611b9060208361217a565b91507f4f776e61626c653a2063616c6c6572206973206e6f7420746865206f776e65726000830152602082019050919050565b6000611bd0601d8361217a565b91507f63616e6e6f74206c697175696461746520612073616665207661756c740000006000830152602082019050919050565b6000611c1060008361216f565b9150600082019050919050565b6000611c2a602a8361217a565b91507f5361666545524332303a204552433230206f7065726174696f6e20646964206e60008301527f6f742073756363656564000000000000000000000000000000000000000000006020830152604082019050919050565b6000611c90601f8361217a565b91507f5361666545524332303a2063616c6c20746f206e6f6e2d636f6e7472616374006000830152602082019050919050565b600061016083016000830151611cdc6000860182611a30565b506020830151611cef6020860182611dfa565b506040830151611d026040860182611d76565b506060830151611d1560c0860182611dfa565b506080830151611d2860e0860182611dfa565b5060a0830151611d3c6101008601826118b7565b5060c0830151611d50610120860182611dfa565b5060e0830151848203610140860152611d6982826119f7565b9150508091505092915050565b608082016000820151611d8c60008501826119a8565b506020820151611d9f6020850182611a3f565b506040820151611db26040850182611a4e565b506060820151611dc56060850182611dfa565b50505050565b604082016000820151611de160008501826118b7565b506020820151611df46020850182611dfa565b50505050565b611e0381612226565b82525050565b611e1281612226565b82525050565b6000611e2482846119c6565b915081905092915050565b6000611e3a82611c03565b9150819050919050565b6000602082019050611e5960008301846118c6565b92915050565b6000602082019050611e746000830184611899565b92915050565b6000602082019050611e8f60008301846118a8565b92915050565b6000604082019050611eaa60008301856118a8565b611eb76020830184611e09565b9392505050565b6000604082019050611ed360008301856118c6565b611ee06020830184611e09565b9392505050565b60006040820190508181036000830152611f01818561194a565b90508181036020830152611f1581846118d5565b90509392505050565b6000602082019050611f3360008301846119b7565b92915050565b60006020820190508181036000830152611f5281611a5d565b9050919050565b60006020820190508181036000830152611f7281611ac3565b9050919050565b60006020820190508181036000830152611f9281611b03565b9050919050565b60006020820190508181036000830152611fb281611b43565b9050919050565b60006020820190508181036000830152611fd281611b83565b9050919050565b60006020820190508181036000830152611ff281611bc3565b9050919050565b6000602082019050818103600083015261201281611c1d565b9050919050565b6000602082019050818103600083015261203281611c83565b9050919050565b600060208201905061204e6000830184611e09565b92915050565b60006040820190506120696000830185611e09565b6120766020830184611899565b9392505050565b6000604051905081810181811067ffffffffffffffff821117156120a057600080fd5b8060405250919050565b600067ffffffffffffffff8211156120c157600080fd5b601f19601f8301169050602081019050919050565b6000819050602082019050919050565b6000819050602082019050919050565b600081519050919050565b600081519050919050565b600081519050919050565b600081519050919050565b6000602082019050919050565b6000602082019050919050565b600082825260208201905092915050565b600082825260208201905092915050565b600082825260208201905092915050565b600081905092915050565b600082825260208201905092915050565b600061219682612206565b9050919050565b60006121a882612206565b9050919050565b60008115159050919050565b60006121c68261218b565b9050919050565b60008190506121db826122ef565b919050565b60008190506121ee826122fc565b919050565b600081905061220182612309565b919050565b600073ffffffffffffffffffffffffffffffffffffffff82169050919050565b6000819050919050565b600061223b82612278565b9050919050565b600061224d826121cd565b9050919050565b600061225f826121e0565b9050919050565b6000612271826121f3565b9050919050565b60006122838261228a565b9050919050565b600061229582612206565b9050919050565b82818337600083830152505050565b60005b838110156122c95780820151818401526020810190506122ae565b838111156122d8576000848401525b50505050565b6000601f19601f8301169050919050565b600981106122f957fe5b50565b6001811061230657fe5b50565b6001811061231357fe5b50565b61231f8161218b565b811461232a57600080fd5b50565b6123368161219d565b811461234157600080fd5b50565b61234d816121af565b811461235857600080fd5b50565b612364816121bb565b811461236f57600080fd5b50565b61237b81612226565b811461238657600080fd5b5056fea365627a7a72315820839c4b1c1286c6b93cdba1cce4e85945842d9a6f369ac9d553bf0a22ea69d2d26c6578706572696d656e74616cf564736f6c634300050c0040",
  "source": "pragma solidity ^0.5.0;\npragma experimental ABIEncoderV2;\n\ninterface IERC20 {\n    function totalSupply() external view returns (uint256);\n    function balanceOf(address account) external view returns (uint256);\n    function transfer(address recipient, uint256 amount) external returns (bool);\n    function allowance(address owner, address spender) external view returns (uint256);\n    function approve(address spender, uint256 amount) external returns (bool);\n    function transferFrom(address sender, address recipient, uint256 amount) external returns (bool);\n    event Transfer(address indexed from, address indexed to, uint256 value);\n    event Approval(address indexed owner, address indexed spender, uint256 value);\n}\n\ncontract Context {\n    constructor () internal { }\n    // solhint-disable-previous-line no-empty-blocks\n\n    function _msgSender() internal view returns (address payable) {\n        return msg.sender;\n    }\n\n    function _msgData() internal view returns (bytes memory) {\n        this; // silence state mutability warning without generating bytecode - see https://github.com/ethereum/solidity/issues/2691\n        return msg.data;\n    }\n}\n\ncontract ReentrancyGuard {\n    uint256 private _guardCounter;\n\n    constructor () internal {\n        _guardCounter = 1;\n    }\n\n    modifier nonReentrant() {\n        _guardCounter += 1;\n        uint256 localCounter = _guardCounter;\n        _;\n        require(localCounter == _guardCounter, \"ReentrancyGuard: reentrant call\");\n    }\n}\n\ncontract Ownable is Context {\n    address private _owner;\n\n    event OwnershipTransferred(address indexed previousOwner, address indexed newOwner);\n    constructor () internal {\n        _owner = _msgSender();\n        emit OwnershipTransferred(address(0), _owner);\n    }\n    function owner() public view returns (address) {\n        return _owner;\n    }\n    modifier onlyOwner() {\n        require(isOwner(), \"Ownable: caller is not the owner\");\n        _;\n    }\n    function isOwner() public view returns (bool) {\n        return _msgSender() == _owner;\n    }\n    function renounceOwnership() public onlyOwner {\n        emit OwnershipTransferred(_owner, address(0));\n        _owner = address(0);\n    }\n    function transferOwnership(address newOwner) public onlyOwner {\n        _transferOwnership(newOwner);\n    }\n    function _transferOwnership(address newOwner) internal {\n        require(newOwner != address(0), \"Ownable: new owner is the zero address\");\n        emit OwnershipTransferred(_owner, newOwner);\n        _owner = newOwner;\n    }\n}\n\nlibrary SafeMath {\n    function add(uint256 a, uint256 b) internal pure returns (uint256) {\n        uint256 c = a + b;\n        require(c >= a, \"SafeMath: addition overflow\");\n\n        return c;\n    }\n    function sub(uint256 a, uint256 b) internal pure returns (uint256) {\n        return sub(a, b, \"SafeMath: subtraction overflow\");\n    }\n    function sub(uint256 a, uint256 b, string memory errorMessage) internal pure returns (uint256) {\n        require(b <= a, errorMessage);\n        uint256 c = a - b;\n\n        return c;\n    }\n    function mul(uint256 a, uint256 b) internal pure returns (uint256) {\n        if (a == 0) {\n            return 0;\n        }\n\n        uint256 c = a * b;\n        require(c / a == b, \"SafeMath: multiplication overflow\");\n\n        return c;\n    }\n    function div(uint256 a, uint256 b) internal pure returns (uint256) {\n        return div(a, b, \"SafeMath: division by zero\");\n    }\n    function div(uint256 a, uint256 b, string memory errorMessage) internal pure returns (uint256) {\n        // Solidity only automatically asserts when dividing by 0\n        require(b > 0, errorMessage);\n        uint256 c = a / b;\n\n        return c;\n    }\n    function mod(uint256 a, uint256 b) internal pure returns (uint256) {\n        return mod(a, b, \"SafeMath: modulo by zero\");\n    }\n    function mod(uint256 a, uint256 b, string memory errorMessage) internal pure returns (uint256) {\n        require(b != 0, errorMessage);\n        return a % b;\n    }\n}\n\nlibrary Address {\n    function isContract(address account) internal view returns (bool) {\n        bytes32 codehash;\n        bytes32 accountHash = 0xc5d2460186f7233c927e7db2dcc703c0e500b653ca82273b7bfad8045d85a470;\n        // solhint-disable-next-line no-inline-assembly\n        assembly { codehash := extcodehash(account) }\n        return (codehash != 0x0 && codehash != accountHash);\n    }\n    function toPayable(address account) internal pure returns (address payable) {\n        return address(uint160(account));\n    }\n    function sendValue(address payable recipient, uint256 amount) internal {\n        require(address(this).balance >= amount, \"Address: insufficient balance\");\n\n        // solhint-disable-next-line avoid-call-value\n        (bool success, ) = recipient.call.value(amount)(\"\");\n        require(success, \"Address: unable to send value, recipient may have reverted\");\n    }\n}\n\nlibrary SafeERC20 {\n    using SafeMath for uint256;\n    using Address for address;\n\n    function safeTransfer(IERC20 token, address to, uint256 value) internal {\n        callOptionalReturn(token, abi.encodeWithSelector(token.transfer.selector, to, value));\n    }\n    function safeTransferFrom(IERC20 token, address from, address to, uint256 value) internal {\n        callOptionalReturn(token, abi.encodeWithSelector(token.transferFrom.selector, from, to, value));\n    }\n    function safeApprove(IERC20 token, address spender, uint256 value) internal {\n        require((value == 0) || (token.allowance(address(this), spender) == 0),\n            \"SafeERC20: approve from non-zero to non-zero allowance\"\n        );\n        callOptionalReturn(token, abi.encodeWithSelector(token.approve.selector, spender, value));\n    }\n    function callOptionalReturn(IERC20 token, bytes memory data) private {\n        require(address(token).isContract(), \"SafeERC20: call to non-contract\");\n\n        // solhint-disable-next-line avoid-low-level-calls\n        (bool success, bytes memory returndata) = address(token).call(data);\n        require(success, \"SafeERC20: low-level call failed\");\n\n        if (returndata.length > 0) { // Return data is optional\n            // solhint-disable-next-line max-line-length\n            require(abi.decode(returndata, (bool)), \"SafeERC20: ERC20 operation did not succeed\");\n        }\n    }\n}\n\ninterface OptionsContract {\n    function liquidate(address payable vaultOwner, uint256 oTokensToLiquidate) external;\n    function maxOTokensLiquidatable(address payable vaultOwner) external view returns (uint256);\n    function isUnsafe(address payable vaultOwner) external view returns (bool);\n    function approve(address spender, uint256 amount) external returns (bool);\n    function hasVault(address owner) external returns (bool);\n    function balanceOf(address owner) external view returns (uint256);\n    function maxOTokensIssuable(uint256 _amount) external view returns (uint256);\n    function addETHCollateralOption(uint256 tokensToMint, address receiver) external payable;\n    function createETHCollateralOption(uint256 tokensToMint, address receiver) external payable;\n}\n\ninterface WETH {\n  function withdraw(uint256 amount) external;\n  function deposit() external payable;\n}\n\ncontract Structs {\n    struct Val {\n        uint256 value;\n    }\n\n    enum ActionType {\n      Deposit,   // supply tokens\n      Withdraw,  // borrow tokens\n      Transfer,  // transfer balance between accounts\n      Buy,       // buy an amount of some token (externally)\n      Sell,      // sell an amount of some token (externally)\n      Trade,     // trade tokens against another account\n      Liquidate, // liquidate an undercollateralized or expiring account\n      Vaporize,  // use excess tokens to zero-out a completely negative account\n      Call       // send arbitrary data to an address\n    }\n\n    enum AssetDenomination {\n        Wei // the amount is denominated in wei\n    }\n\n    enum AssetReference {\n        Delta // the amount is given as a delta from the current value\n    }\n\n    struct AssetAmount {\n        bool sign; // true if positive\n        AssetDenomination denomination;\n        AssetReference ref;\n        uint256 value;\n    }\n\n    struct ActionArgs {\n        ActionType actionType;\n        uint256 accountId;\n        AssetAmount amount;\n        uint256 primaryMarketId;\n        uint256 secondaryMarketId;\n        address otherAddress;\n        uint256 otherAccountId;\n        bytes data;\n    }\n\n    struct Info {\n        address owner;  // The address that owns the account\n        uint256 number; // A nonce that allows a single address to control many accounts\n    }\n\n    struct Wei {\n        bool sign; // true if positive\n        uint256 value;\n    }\n}\n\ncontract DyDx is Structs {\n    function getAccountWei(Info memory account, uint256 marketId) public view returns (Wei memory);\n    function operate(Info[] memory, ActionArgs[] memory) public;\n}\n\n\ncontract CurveFlash is ReentrancyGuard, Ownable, Structs {\n  using SafeERC20 for IERC20;\n  using Address for address;\n  using SafeMath for uint256;\n\n  address public dydx;\n  address public oCRV;\n  address public weth;\n  address payable public _vault;\n  uint256 public _amount;\n\n  constructor () public {\n    dydx = address(0x1E0447b19BB6EcFdAe1e4AE1694b0C3659614e4e);\n    oCRV = address(0x4BA8C6Ce0e855C051e65DfC37883360efAf7c82B);\n    weth = address(0xC02aaA39b223FE8D0A0e5C4F27eAD9083C756Cc2);\n  }\n\n  function liquidate(uint256 amount, address payable vault) public {\n    _vault = vault;\n    _amount = amount;\n\n    Info[] memory infos = new Info[](1);\n    ActionArgs[] memory args = new ActionArgs[](3);\n\n    infos[0] = Info(address(this), 0);\n\n    AssetAmount memory wamt = AssetAmount(false, AssetDenomination.Wei, AssetReference.Delta, amount);\n    ActionArgs memory withdraw;\n    withdraw.actionType = ActionType.Withdraw;\n    withdraw.accountId = 0;\n    withdraw.amount = wamt;\n    withdraw.primaryMarketId = 0;\n    withdraw.otherAddress = address(this);\n\n    args[0] = withdraw;\n\n    ActionArgs memory call;\n    call.actionType = ActionType.Call;\n    call.accountId = 0;\n    call.otherAddress = address(this);\n\n    args[1] = call;\n\n    ActionArgs memory deposit;\n    AssetAmount memory damt = AssetAmount(true, AssetDenomination.Wei, AssetReference.Delta, amount.add(1));\n    deposit.actionType = ActionType.Deposit;\n    deposit.accountId = 0;\n    deposit.amount = damt;\n    deposit.primaryMarketId = 0;\n    deposit.otherAddress = address(this);\n\n    args[2] = deposit;\n\n    DyDx(dydx).operate(infos, args);\n  }\n\n  function callFunction(\n      address sender,\n      Info memory accountInfo,\n      bytes memory data\n  ) public {\n    OptionsContract oToken = OptionsContract(oCRV);\n    require(oToken.isUnsafe(_vault), 'cannot liquidate a safe vault');\n\n    WETH(weth).withdraw(_amount);\n\n    uint256 tokensToMint = oToken.maxOTokensIssuable(_amount);\n    if (oToken.hasVault(address(this))) {\n      oToken.addETHCollateralOption.value(_amount)(tokensToMint, address(this));\n    } else {\n      oToken.createETHCollateralOption.value(_amount)(tokensToMint, address(this));\n    }\n    oToken.liquidate(_vault, oToken.balanceOf(address(this)));\n\n    WETH(weth).deposit.value(_amount)();\n  }\n\n  function() external payable {\n\n  }\n\n  // incase of half-way error\n  function inCaseTokenGetsStuck(IERC20 _TokenAddress) onlyOwner public {\n      uint qty = _TokenAddress.balanceOf(address(this));\n      _TokenAddress.safeTransfer(msg.sender, qty);\n  }\n\n  // incase of half-way error\n  function inCaseETHGetsStuck() onlyOwner public{\n      (bool result, ) = msg.sender.call.value(address(this).balance)(\"\");\n      require(result, \"transfer of ETH failed\");\n  }\n}\n",
  "sourcePath": "D:/ftm/itoken/contracts/oCurveFlashLiquidate.sol",
  "compiler": {
    "name": "solc",
    "version": "0.5.12+commit.7709ece9.Emscripten.clang"
  },
  "schemaVersion": "3.0.19",
  "updatedAt": "2020-02-26T11:09:58.868Z",
  "devdoc": {
    "methods": {}
  },
  "userdoc": {
    "methods": {}
  }
}