{
  "contractName": "CurveFlashDAI",
  "abi": [
    {
      "inputs": [],
      "payable": false,
      "stateMutability": "nonpayable",
      "type": "constructor"
    },
    {
      "anonymous": false,
      "inputs": [
        {
          "indexed": true,
          "internalType": "address",
          "name": "previousOwner",
          "type": "address"
        },
        {
          "indexed": true,
          "internalType": "address",
          "name": "newOwner",
          "type": "address"
        }
      ],
      "name": "OwnershipTransferred",
      "type": "event"
    },
    {
      "payable": true,
      "stateMutability": "payable",
      "type": "fallback"
    },
    {
      "constant": true,
      "inputs": [],
      "name": "_amount",
      "outputs": [
        {
          "internalType": "uint256",
          "name": "",
          "type": "uint256"
        }
      ],
      "payable": false,
      "stateMutability": "view",
      "type": "function"
    },
    {
      "constant": true,
      "inputs": [],
      "name": "dai",
      "outputs": [
        {
          "internalType": "address",
          "name": "",
          "type": "address"
        }
      ],
      "payable": false,
      "stateMutability": "view",
      "type": "function"
    },
    {
      "constant": true,
      "inputs": [],
      "name": "dydx",
      "outputs": [
        {
          "internalType": "address",
          "name": "",
          "type": "address"
        }
      ],
      "payable": false,
      "stateMutability": "view",
      "type": "function"
    },
    {
      "constant": true,
      "inputs": [],
      "name": "isOwner",
      "outputs": [
        {
          "internalType": "bool",
          "name": "",
          "type": "bool"
        }
      ],
      "payable": false,
      "stateMutability": "view",
      "type": "function"
    },
    {
      "constant": true,
      "inputs": [],
      "name": "owner",
      "outputs": [
        {
          "internalType": "address",
          "name": "",
          "type": "address"
        }
      ],
      "payable": false,
      "stateMutability": "view",
      "type": "function"
    },
    {
      "constant": false,
      "inputs": [],
      "name": "renounceOwnership",
      "outputs": [],
      "payable": false,
      "stateMutability": "nonpayable",
      "type": "function"
    },
    {
      "constant": true,
      "inputs": [],
      "name": "swap",
      "outputs": [
        {
          "internalType": "address",
          "name": "",
          "type": "address"
        }
      ],
      "payable": false,
      "stateMutability": "view",
      "type": "function"
    },
    {
      "constant": false,
      "inputs": [
        {
          "internalType": "address",
          "name": "newOwner",
          "type": "address"
        }
      ],
      "name": "transferOwnership",
      "outputs": [],
      "payable": false,
      "stateMutability": "nonpayable",
      "type": "function"
    },
    {
      "constant": true,
      "inputs": [],
      "name": "usdc",
      "outputs": [
        {
          "internalType": "address",
          "name": "",
          "type": "address"
        }
      ],
      "payable": false,
      "stateMutability": "view",
      "type": "function"
    },
    {
      "constant": true,
      "inputs": [],
      "name": "usdt",
      "outputs": [
        {
          "internalType": "address",
          "name": "",
          "type": "address"
        }
      ],
      "payable": false,
      "stateMutability": "view",
      "type": "function"
    },
    {
      "constant": false,
      "inputs": [
        {
          "internalType": "uint256",
          "name": "amount",
          "type": "uint256"
        }
      ],
      "name": "swapUSDCtoDAI",
      "outputs": [],
      "payable": false,
      "stateMutability": "nonpayable",
      "type": "function"
    },
    {
      "constant": false,
      "inputs": [
        {
          "internalType": "address",
          "name": "sender",
          "type": "address"
        },
        {
          "components": [
            {
              "internalType": "address",
              "name": "owner",
              "type": "address"
            },
            {
              "internalType": "uint256",
              "name": "number",
              "type": "uint256"
            }
          ],
          "internalType": "struct Structs.Info",
          "name": "accountInfo",
          "type": "tuple"
        },
        {
          "internalType": "bytes",
          "name": "data",
          "type": "bytes"
        }
      ],
      "name": "callFunction",
      "outputs": [],
      "payable": false,
      "stateMutability": "nonpayable",
      "type": "function"
    },
    {
      "constant": false,
      "inputs": [],
      "name": "approveToken",
      "outputs": [],
      "payable": false,
      "stateMutability": "nonpayable",
      "type": "function"
    },
    {
      "constant": false,
      "inputs": [
        {
          "internalType": "contract IERC20",
          "name": "_TokenAddress",
          "type": "address"
        }
      ],
      "name": "inCaseTokenGetsStuck",
      "outputs": [],
      "payable": false,
      "stateMutability": "nonpayable",
      "type": "function"
    },
    {
      "constant": false,
      "inputs": [],
      "name": "inCaseETHGetsStuck",
      "outputs": [],
      "payable": false,
      "stateMutability": "nonpayable",
      "type": "function"
    }
  ],
  "bytecode": "0x60806040523480156200001157600080fd5b5060016000819055506200002a620002a660201b60201c565b600160006101000a81548173ffffffffffffffffffffffffffffffffffffffff021916908373ffffffffffffffffffffffffffffffffffffffff160217905550600160009054906101000a900473ffffffffffffffffffffffffffffffffffffffff1673ffffffffffffffffffffffffffffffffffffffff16600073ffffffffffffffffffffffffffffffffffffffff167f8be0079c531659141344cd1fd0a4f28419497f9722a3daafe3b4186f6b6457e060405160405180910390a3731e0447b19bb6ecfdae1e4ae1694b0c3659614e4e600360006101000a81548173ffffffffffffffffffffffffffffffffffffffff021916908373ffffffffffffffffffffffffffffffffffffffff1602179055507345f783cce6b7ff23b2ab2d70e416cdb7d6055f51600260006101000a81548173ffffffffffffffffffffffffffffffffffffffff021916908373ffffffffffffffffffffffffffffffffffffffff160217905550736b175474e89094c44da98b954eedeac495271d0f600460006101000a81548173ffffffffffffffffffffffffffffffffffffffff021916908373ffffffffffffffffffffffffffffffffffffffff16021790555073a0b86991c6218b36c1d19d4a2e9eb0ce3606eb48600660006101000a81548173ffffffffffffffffffffffffffffffffffffffff021916908373ffffffffffffffffffffffffffffffffffffffff16021790555073dac17f958d2ee523a2206206994597c13d831ec7600560006101000a81548173ffffffffffffffffffffffffffffffffffffffff021916908373ffffffffffffffffffffffffffffffffffffffff160217905550620002a0620002ae60201b60201c565b62000da3565b600033905090565b62000344600260009054906101000a900473ffffffffffffffffffffffffffffffffffffffff167fffffffffffffffffffffffffffffffffffffffffffffffffffffffffffffffff600460009054906101000a900473ffffffffffffffffffffffffffffffffffffffff1673ffffffffffffffffffffffffffffffffffffffff166200063460201b62001181179092919060201c565b620003da600360009054906101000a900473ffffffffffffffffffffffffffffffffffffffff167fffffffffffffffffffffffffffffffffffffffffffffffffffffffffffffffff600460009054906101000a900473ffffffffffffffffffffffffffffffffffffffff1673ffffffffffffffffffffffffffffffffffffffff166200063460201b62001181179092919060201c565b62000470600260009054906101000a900473ffffffffffffffffffffffffffffffffffffffff167fffffffffffffffffffffffffffffffffffffffffffffffffffffffffffffffff600660009054906101000a900473ffffffffffffffffffffffffffffffffffffffff1673ffffffffffffffffffffffffffffffffffffffff166200063460201b62001181179092919060201c565b62000506600360009054906101000a900473ffffffffffffffffffffffffffffffffffffffff167fffffffffffffffffffffffffffffffffffffffffffffffffffffffffffffffff600660009054906101000a900473ffffffffffffffffffffffffffffffffffffffff1673ffffffffffffffffffffffffffffffffffffffff166200063460201b62001181179092919060201c565b6200059c600260009054906101000a900473ffffffffffffffffffffffffffffffffffffffff167fffffffffffffffffffffffffffffffffffffffffffffffffffffffffffffffff600560009054906101000a900473ffffffffffffffffffffffffffffffffffffffff1673ffffffffffffffffffffffffffffffffffffffff166200063460201b62001181179092919060201c565b62000632600360009054906101000a900473ffffffffffffffffffffffffffffffffffffffff167fffffffffffffffffffffffffffffffffffffffffffffffffffffffffffffffff600560009054906101000a900473ffffffffffffffffffffffffffffffffffffffff1673ffffffffffffffffffffffffffffffffffffffff166200063460201b62001181179092919060201c565b565b6000811480620006d4575060008373ffffffffffffffffffffffffffffffffffffffff1663dd62ed3e30856040518363ffffffff1660e01b81526004016200067e92919062000be6565b60206040518083038186803b1580156200069757600080fd5b505afa158015620006ac573d6000803e3d6000fd5b505050506040513d601f19601f82011682018060405250620006d29190810190620009f4565b145b62000716576040517f08c379a00000000000000000000000000000000000000000000000000000000081526004016200070d9062000c84565b60405180910390fd5b620007ba838473ffffffffffffffffffffffffffffffffffffffff1663095ea7b3905060e01b84846040516024016200075192919062000c13565b604051602081830303815290604052907bffffffffffffffffffffffffffffffffffffffffffffffffffffffff19166020820180517bffffffffffffffffffffffffffffffffffffffffffffffffffffffff8381831617835250505050620007bf60201b60201c565b505050565b620007eb8273ffffffffffffffffffffffffffffffffffffffff166200094e60201b620015ef1760201c565b6200082d576040517f08c379a0000000000000000000000000000000000000000000000000000000008152600401620008249062000ca6565b60405180910390fd5b600060608373ffffffffffffffffffffffffffffffffffffffff168360405162000858919062000bcd565b6000604051808303816000865af19150503d806000811462000897576040519150601f19603f3d011682016040523d82523d6000602084013e6200089c565b606091505b509150915081620008e4576040517f08c379a0000000000000000000000000000000000000000000000000000000008152600401620008db9062000c40565b60405180910390fd5b600081511115620009485780806020019051620009059190810190620009c8565b62000947576040517f08c379a00000000000000000000000000000000000000000000000000000000081526004016200093e9062000c62565b60405180910390fd5b5b50505050565b60008060007fc5d2460186f7233c927e7db2dcc703c0e500b653ca82273b7bfad8045d85a47060001b9050833f91506000801b8214158015620009915750808214155b92505050919050565b600081519050620009ab8162000d6f565b92915050565b600081519050620009c28162000d89565b92915050565b600060208284031215620009db57600080fd5b6000620009eb848285016200099a565b91505092915050565b60006020828403121562000a0757600080fd5b600062000a1784828501620009b1565b91505092915050565b62000a2b8162000cef565b82525050565b600062000a3e8262000cc8565b62000a4a818562000cd3565b935062000a5c81856020860162000d39565b80840191505092915050565b600062000a7760208362000cde565b91507f5361666545524332303a206c6f772d6c6576656c2063616c6c206661696c65646000830152602082019050919050565b600062000ab9602a8362000cde565b91507f5361666545524332303a204552433230206f7065726174696f6e20646964206e60008301527f6f742073756363656564000000000000000000000000000000000000000000006020830152604082019050919050565b600062000b2160368362000cde565b91507f5361666545524332303a20617070726f76652066726f6d206e6f6e2d7a65726f60008301527f20746f206e6f6e2d7a65726f20616c6c6f77616e6365000000000000000000006020830152604082019050919050565b600062000b89601f8362000cde565b91507f5361666545524332303a2063616c6c20746f206e6f6e2d636f6e7472616374006000830152602082019050919050565b62000bc78162000d2f565b82525050565b600062000bdb828462000a31565b915081905092915050565b600060408201905062000bfd600083018562000a20565b62000c0c602083018462000a20565b9392505050565b600060408201905062000c2a600083018562000a20565b62000c39602083018462000bbc565b9392505050565b6000602082019050818103600083015262000c5b8162000a68565b9050919050565b6000602082019050818103600083015262000c7d8162000aaa565b9050919050565b6000602082019050818103600083015262000c9f8162000b12565b9050919050565b6000602082019050818103600083015262000cc18162000b7a565b9050919050565b600081519050919050565b600081905092915050565b600082825260208201905092915050565b600062000cfc8262000d0f565b9050919050565b60008115159050919050565b600073ffffffffffffffffffffffffffffffffffffffff82169050919050565b6000819050919050565b60005b8381101562000d5957808201518184015260208101905062000d3c565b8381111562000d69576000848401525b50505050565b62000d7a8162000d03565b811462000d8657600080fd5b50565b62000d948162000d2f565b811462000da057600080fd5b50565b6125fe8062000db36000396000f3fe6080604052600436106100e85760003560e01c80638e4ec6ef1161008a578063a01b315b11610059578063a01b315b14610297578063f2fde38b146102c0578063f4b9fa75146102e9578063f60a15ed14610314576100e8565b80638e4ec6ef146101ff5780638f32d59b1461022a5780639887f1801461025557806399b71d5c14610280576100e8565b8063715018a6116100c6578063715018a6146101695780638119c065146101805780638b418713146101ab5780638da5cb5b146101d4576100e8565b80632e8d6e18146100ea5780632f48ab7d146101135780633e413bee1461013e575b005b3480156100f657600080fd5b50610111600480360361010c9190810190611980565b61032b565b005b34801561011f57600080fd5b5061012861042e565b6040516101359190612016565b60405180910390f35b34801561014a57600080fd5b50610153610454565b6040516101609190612016565b60405180910390f35b34801561017557600080fd5b5061017e61047a565b005b34801561018c57600080fd5b50610195610582565b6040516101a29190612016565b60405180910390f35b3480156101b757600080fd5b506101d260048036036101cd91908101906118f0565b6105a8565b005b3480156101e057600080fd5b506101e9610785565b6040516101f69190612016565b60405180910390f35b34801561020b57600080fd5b506102146107af565b6040516102219190612016565b60405180910390f35b34801561023657600080fd5b5061023f6107d5565b60405161024c91906120d5565b60405180910390f35b34801561026157600080fd5b5061026a610834565b604051610277919061227a565b60405180910390f35b34801561028c57600080fd5b5061029561083a565b005b3480156102a357600080fd5b506102be60048036036102b991908101906119a9565b610b96565b005b3480156102cc57600080fd5b506102e760048036036102e291908101906118c7565b610f54565b005b3480156102f557600080fd5b506102fe610fa7565b60405161030b9190612016565b60405180910390f35b34801561032057600080fd5b50610329610fcd565b005b6103336107d5565b610372576040517f08c379a0000000000000000000000000000000000000000000000000000000008152600401610369906121fa565b60405180910390fd5b60008173ffffffffffffffffffffffffffffffffffffffff166370a08231306040518263ffffffff1660e01b81526004016103ad9190612031565b60206040518083038186803b1580156103c557600080fd5b505afa1580156103d9573d6000803e3d6000fd5b505050506040513d601f19601f820116820180604052506103fd91908101906119d2565b905061042a33828473ffffffffffffffffffffffffffffffffffffffff166110da9092919063ffffffff16565b5050565b600560009054906101000a900473ffffffffffffffffffffffffffffffffffffffff1681565b600660009054906101000a900473ffffffffffffffffffffffffffffffffffffffff1681565b6104826107d5565b6104c1576040517f08c379a00000000000000000000000000000000000000000000000000000000081526004016104b8906121fa565b60405180910390fd5b600073ffffffffffffffffffffffffffffffffffffffff16600160009054906101000a900473ffffffffffffffffffffffffffffffffffffffff1673ffffffffffffffffffffffffffffffffffffffff167f8be0079c531659141344cd1fd0a4f28419497f9722a3daafe3b4186f6b6457e060405160405180910390a36000600160006101000a81548173ffffffffffffffffffffffffffffffffffffffff021916908373ffffffffffffffffffffffffffffffffffffffff160217905550565b600260009054906101000a900473ffffffffffffffffffffffffffffffffffffffff1681565b600260009054906101000a900473ffffffffffffffffffffffffffffffffffffffff1673ffffffffffffffffffffffffffffffffffffffff1663a6417ed66000600260075460006040518563ffffffff1660e01b815260040161060e94939291906120f0565b600060405180830381600087803b15801561062857600080fd5b505af115801561063c573d6000803e3d6000fd5b50505050600260009054906101000a900473ffffffffffffffffffffffffffffffffffffffff1673ffffffffffffffffffffffffffffffffffffffff1663a6417ed660026000600560009054906101000a900473ffffffffffffffffffffffffffffffffffffffff1673ffffffffffffffffffffffffffffffffffffffff166370a08231306040518263ffffffff1660e01b81526004016106dd9190612031565b60206040518083038186803b1580156106f557600080fd5b505afa158015610709573d6000803e3d6000fd5b505050506040513d601f19601f8201168201806040525061072d91908101906119d2565b60006040518563ffffffff1660e01b815260040161074e9493929190612135565b600060405180830381600087803b15801561076857600080fd5b505af115801561077c573d6000803e3d6000fd5b50505050505050565b6000600160009054906101000a900473ffffffffffffffffffffffffffffffffffffffff16905090565b600360009054906101000a900473ffffffffffffffffffffffffffffffffffffffff1681565b6000600160009054906101000a900473ffffffffffffffffffffffffffffffffffffffff1673ffffffffffffffffffffffffffffffffffffffff16610818611179565b73ffffffffffffffffffffffffffffffffffffffff1614905090565b60075481565b6108c9600260009054906101000a900473ffffffffffffffffffffffffffffffffffffffff167fffffffffffffffffffffffffffffffffffffffffffffffffffffffffffffffff600460009054906101000a900473ffffffffffffffffffffffffffffffffffffffff1673ffffffffffffffffffffffffffffffffffffffff166111819092919063ffffffff16565b610958600360009054906101000a900473ffffffffffffffffffffffffffffffffffffffff167fffffffffffffffffffffffffffffffffffffffffffffffffffffffffffffffff600460009054906101000a900473ffffffffffffffffffffffffffffffffffffffff1673ffffffffffffffffffffffffffffffffffffffff166111819092919063ffffffff16565b6109e7600260009054906101000a900473ffffffffffffffffffffffffffffffffffffffff167fffffffffffffffffffffffffffffffffffffffffffffffffffffffffffffffff600660009054906101000a900473ffffffffffffffffffffffffffffffffffffffff1673ffffffffffffffffffffffffffffffffffffffff166111819092919063ffffffff16565b610a76600360009054906101000a900473ffffffffffffffffffffffffffffffffffffffff167fffffffffffffffffffffffffffffffffffffffffffffffffffffffffffffffff600660009054906101000a900473ffffffffffffffffffffffffffffffffffffffff1673ffffffffffffffffffffffffffffffffffffffff166111819092919063ffffffff16565b610b05600260009054906101000a900473ffffffffffffffffffffffffffffffffffffffff167fffffffffffffffffffffffffffffffffffffffffffffffffffffffffffffffff600560009054906101000a900473ffffffffffffffffffffffffffffffffffffffff1673ffffffffffffffffffffffffffffffffffffffff166111819092919063ffffffff16565b610b94600360009054906101000a900473ffffffffffffffffffffffffffffffffffffffff167fffffffffffffffffffffffffffffffffffffffffffffffffffffffffffffffff600560009054906101000a900473ffffffffffffffffffffffffffffffffffffffff1673ffffffffffffffffffffffffffffffffffffffff166111819092919063ffffffff16565b565b8060078190555060606001604051908082528060200260200182016040528015610bda57816020015b610bc761163a565b815260200190600190039081610bbf5790505b50905060606003604051908082528060200260200182016040528015610c1a57816020015b610c0761166a565b815260200190600190039081610bff5790505b50905060405180604001604052803073ffffffffffffffffffffffffffffffffffffffff168152602001600081525082600081518110610c5657fe5b6020026020010181905250610c696116d6565b6040518060800160405280600015158152602001600080811115610c8957fe5b8152602001600080811115610c9a57fe5b8152602001858152509050610cad611714565b600181600001906008811115610cbf57fe5b90816008811115610ccc57fe5b8152505060008160200181815250508181604001819052506003816060018181525050308160a0019073ffffffffffffffffffffffffffffffffffffffff16908173ffffffffffffffffffffffffffffffffffffffff16815250508083600081518110610d3557fe5b6020026020010181905250610d48611714565b600881600001906008811115610d5a57fe5b90816008811115610d6757fe5b815250506000816020018181525050308160a0019073ffffffffffffffffffffffffffffffffffffffff16908173ffffffffffffffffffffffffffffffffffffffff16815250508084600181518110610dbc57fe5b6020026020010181905250610dcf611714565b610dd76116d6565b6040518060800160405280600115158152602001600080811115610df757fe5b8152602001600080811115610e0857fe5b8152602001610e23620f42408b6112f890919063ffffffff16565b8152509050600082600001906008811115610e3a57fe5b90816008811115610e4757fe5b8152505060008260200181815250508082604001819052506003826060018181525050308260a0019073ffffffffffffffffffffffffffffffffffffffff16908173ffffffffffffffffffffffffffffffffffffffff16815250508186600281518110610eb057fe5b6020026020010181905250600360009054906101000a900473ffffffffffffffffffffffffffffffffffffffff1673ffffffffffffffffffffffffffffffffffffffff1663a67a6a4588886040518363ffffffff1660e01b8152600401610f1892919061209e565b600060405180830381600087803b158015610f3257600080fd5b505af1158015610f46573d6000803e3d6000fd5b505050505050505050505050565b610f5c6107d5565b610f9b576040517f08c379a0000000000000000000000000000000000000000000000000000000008152600401610f92906121fa565b60405180910390fd5b610fa48161134d565b50565b600460009054906101000a900473ffffffffffffffffffffffffffffffffffffffff1681565b610fd56107d5565b611014576040517f08c379a000000000000000000000000000000000000000000000000000000000815260040161100b906121fa565b60405180910390fd5b60003373ffffffffffffffffffffffffffffffffffffffff163073ffffffffffffffffffffffffffffffffffffffff163160405161105190612001565b60006040518083038185875af1925050503d806000811461108e576040519150601f19603f3d011682016040523d82523d6000602084013e611093565b606091505b50509050806110d7576040517f08c379a00000000000000000000000000000000000000000000000000000000081526004016110ce906121da565b60405180910390fd5b50565b611174838473ffffffffffffffffffffffffffffffffffffffff1663a9059cbb905060e01b8484604051602401611112929190612075565b604051602081830303815290604052907bffffffffffffffffffffffffffffffffffffffffffffffffffffffff19166020820180517bffffffffffffffffffffffffffffffffffffffffffffffffffffffff838183161783525050505061147d565b505050565b600033905090565b600081148061121a575060008373ffffffffffffffffffffffffffffffffffffffff1663dd62ed3e30856040518363ffffffff1660e01b81526004016111c892919061204c565b60206040518083038186803b1580156111e057600080fd5b505afa1580156111f4573d6000803e3d6000fd5b505050506040513d601f19601f8201168201806040525061121891908101906119d2565b145b611259576040517f08c379a00000000000000000000000000000000000000000000000000000000081526004016112509061223a565b60405180910390fd5b6112f3838473ffffffffffffffffffffffffffffffffffffffff1663095ea7b3905060e01b8484604051602401611291929190612075565b604051602081830303815290604052907bffffffffffffffffffffffffffffffffffffffffffffffffffffffff19166020820180517bffffffffffffffffffffffffffffffffffffffffffffffffffffffff838183161783525050505061147d565b505050565b600080828401905083811015611343576040517f08c379a000000000000000000000000000000000000000000000000000000000815260040161133a9061219a565b60405180910390fd5b8091505092915050565b600073ffffffffffffffffffffffffffffffffffffffff168173ffffffffffffffffffffffffffffffffffffffff1614156113bd576040517f08c379a00000000000000000000000000000000000000000000000000000000081526004016113b49061217a565b60405180910390fd5b8073ffffffffffffffffffffffffffffffffffffffff16600160009054906101000a900473ffffffffffffffffffffffffffffffffffffffff1673ffffffffffffffffffffffffffffffffffffffff167f8be0079c531659141344cd1fd0a4f28419497f9722a3daafe3b4186f6b6457e060405160405180910390a380600160006101000a81548173ffffffffffffffffffffffffffffffffffffffff021916908373ffffffffffffffffffffffffffffffffffffffff16021790555050565b61149c8273ffffffffffffffffffffffffffffffffffffffff166115ef565b6114db576040517f08c379a00000000000000000000000000000000000000000000000000000000081526004016114d29061225a565b60405180910390fd5b600060608373ffffffffffffffffffffffffffffffffffffffff16836040516115049190611fea565b6000604051808303816000865af19150503d8060008114611541576040519150601f19603f3d011682016040523d82523d6000602084013e611546565b606091505b50915091508161158b576040517f08c379a0000000000000000000000000000000000000000000000000000000008152600401611582906121ba565b60405180910390fd5b6000815111156115e957808060200190516115a99190810190611957565b6115e8576040517f08c379a00000000000000000000000000000000000000000000000000000000081526004016115df9061221a565b60405180910390fd5b5b50505050565b60008060007fc5d2460186f7233c927e7db2dcc703c0e500b653ca82273b7bfad8045d85a47060001b9050833f91506000801b82141580156116315750808214155b92505050919050565b6040518060400160405280600073ffffffffffffffffffffffffffffffffffffffff168152602001600081525090565b6040518061010001604052806000600881111561168357fe5b815260200160008152602001611697611780565b81526020016000815260200160008152602001600073ffffffffffffffffffffffffffffffffffffffff16815260200160008152602001606081525090565b60405180608001604052806000151581526020016000808111156116f657fe5b815260200160008081111561170757fe5b8152602001600081525090565b6040518061010001604052806000600881111561172d57fe5b815260200160008152602001611741611780565b81526020016000815260200160008152602001600073ffffffffffffffffffffffffffffffffffffffff16815260200160008152602001606081525090565b60405180608001604052806000151581526020016000808111156117a057fe5b81526020016000808111156117b157fe5b8152602001600081525090565b6000813590506117cd8161255f565b92915050565b6000815190506117e281612576565b92915050565b600082601f8301126117f957600080fd5b813561180c611807826122c2565b612295565b9150808252602083016020830185838301111561182857600080fd5b6118338382846124e5565b50505092915050565b60008135905061184b8161258d565b92915050565b60006040828403121561186357600080fd5b61186d6040612295565b9050600061187d848285016117be565b60008301525060206118918482850161189d565b60208301525092915050565b6000813590506118ac816125a4565b92915050565b6000815190506118c1816125a4565b92915050565b6000602082840312156118d957600080fd5b60006118e7848285016117be565b91505092915050565b60008060006080848603121561190557600080fd5b6000611913868287016117be565b935050602061192486828701611851565b925050606084013567ffffffffffffffff81111561194157600080fd5b61194d868287016117e8565b9150509250925092565b60006020828403121561196957600080fd5b6000611977848285016117d3565b91505092915050565b60006020828403121561199257600080fd5b60006119a08482850161183c565b91505092915050565b6000602082840312156119bb57600080fd5b60006119c98482850161189d565b91505092915050565b6000602082840312156119e457600080fd5b60006119f2848285016118b2565b91505092915050565b6000611a078383611e95565b905092915050565b6000611a1b8383611f9d565b60408301905092915050565b611a3081612443565b82525050565b611a3f816123a3565b82525050565b611a4e816123a3565b82525050565b6000611a5f8261230e565b611a698185612354565b935083602082028501611a7b856122ee565b8060005b85811015611ab75784840389528151611a9885826119fb565b9450611aa38361233a565b925060208a01995050600181019050611a7f565b50829750879550505050505092915050565b6000611ad482612319565b611ade8185612365565b9350611ae9836122fe565b8060005b83811015611b1a578151611b018882611a0f565b9750611b0c83612347565b925050600181019050611aed565b5085935050505092915050565b611b30816123b5565b82525050565b611b3f816123b5565b82525050565b6000611b508261232f565b611b5a8185612387565b9350611b6a8185602086016124f4565b80840191505092915050565b6000611b8182612324565b611b8b8185612376565b9350611b9b8185602086016124f4565b611ba481612527565b840191505092915050565b611bb881612455565b82525050565b611bc781612467565b82525050565b611bd681612479565b82525050565b611be58161248b565b82525050565b611bf48161249d565b82525050565b611c03816124af565b82525050565b6000611c16602683612392565b91507f4f776e61626c653a206e6577206f776e657220697320746865207a65726f206160008301527f64647265737300000000000000000000000000000000000000000000000000006020830152604082019050919050565b6000611c7c601b83612392565b91507f536166654d6174683a206164646974696f6e206f766572666c6f7700000000006000830152602082019050919050565b6000611cbc602083612392565b91507f5361666545524332303a206c6f772d6c6576656c2063616c6c206661696c65646000830152602082019050919050565b6000611cfc601683612392565b91507f7472616e73666572206f6620455448206661696c6564000000000000000000006000830152602082019050919050565b6000611d3c602083612392565b91507f4f776e61626c653a2063616c6c6572206973206e6f7420746865206f776e65726000830152602082019050919050565b6000611d7c600083612387565b9150600082019050919050565b6000611d96602a83612392565b91507f5361666545524332303a204552433230206f7065726174696f6e20646964206e60008301527f6f742073756363656564000000000000000000000000000000000000000000006020830152604082019050919050565b6000611dfc603683612392565b91507f5361666545524332303a20617070726f76652066726f6d206e6f6e2d7a65726f60008301527f20746f206e6f6e2d7a65726f20616c6c6f77616e6365000000000000000000006020830152604082019050919050565b6000611e62601f83612392565b91507f5361666545524332303a2063616c6c20746f206e6f6e2d636f6e7472616374006000830152602082019050919050565b600061016083016000830151611eae6000860182611baf565b506020830151611ec16020860182611fcc565b506040830151611ed46040860182611f48565b506060830151611ee760c0860182611fcc565b506080830151611efa60e0860182611fcc565b5060a0830151611f0e610100860182611a36565b5060c0830151611f22610120860182611fcc565b5060e0830151848203610140860152611f3b8282611b76565b9150508091505092915050565b608082016000820151611f5e6000850182611b27565b506020820151611f716020850182611bbe565b506040820151611f846040850182611bcd565b506060820151611f976060850182611fcc565b50505050565b604082016000820151611fb36000850182611a36565b506020820151611fc66020850182611fcc565b50505050565b611fd581612439565b82525050565b611fe481612439565b82525050565b6000611ff68284611b45565b915081905092915050565b600061200c82611d6f565b9150819050919050565b600060208201905061202b6000830184611a45565b92915050565b60006020820190506120466000830184611a27565b92915050565b60006040820190506120616000830185611a45565b61206e6020830184611a45565b9392505050565b600060408201905061208a6000830185611a45565b6120976020830184611fdb565b9392505050565b600060408201905081810360008301526120b88185611ac9565b905081810360208301526120cc8184611a54565b90509392505050565b60006020820190506120ea6000830184611b36565b92915050565b60006080820190506121056000830187611bdc565b6121126020830186611bfa565b61211f6040830185611fdb565b61212c6060830184611beb565b95945050505050565b600060808201905061214a6000830187611bfa565b6121576020830186611bdc565b6121646040830185611fdb565b6121716060830184611beb565b95945050505050565b6000602082019050818103600083015261219381611c09565b9050919050565b600060208201905081810360008301526121b381611c6f565b9050919050565b600060208201905081810360008301526121d381611caf565b9050919050565b600060208201905081810360008301526121f381611cef565b9050919050565b6000602082019050818103600083015261221381611d2f565b9050919050565b6000602082019050818103600083015261223381611d89565b9050919050565b6000602082019050818103600083015261225381611def565b9050919050565b6000602082019050818103600083015261227381611e55565b9050919050565b600060208201905061228f6000830184611fdb565b92915050565b6000604051905081810181811067ffffffffffffffff821117156122b857600080fd5b8060405250919050565b600067ffffffffffffffff8211156122d957600080fd5b601f19601f8301169050602081019050919050565b6000819050602082019050919050565b6000819050602082019050919050565b600081519050919050565b600081519050919050565b600081519050919050565b600081519050919050565b6000602082019050919050565b6000602082019050919050565b600082825260208201905092915050565b600082825260208201905092915050565b600082825260208201905092915050565b600081905092915050565b600082825260208201905092915050565b60006123ae82612419565b9050919050565b60008115159050919050565b60006123cc826123a3565b9050919050565b60008190506123e182612538565b919050565b60008190506123f482612545565b919050565b600081905061240782612552565b919050565b600081600f0b9050919050565b600073ffffffffffffffffffffffffffffffffffffffff82169050919050565b6000819050919050565b600061244e826124c1565b9050919050565b6000612460826123d3565b9050919050565b6000612472826123e6565b9050919050565b6000612484826123f9565b9050919050565b60006124968261240c565b9050919050565b60006124a882612439565b9050919050565b60006124ba8261240c565b9050919050565b60006124cc826124d3565b9050919050565b60006124de82612419565b9050919050565b82818337600083830152505050565b60005b838110156125125780820151818401526020810190506124f7565b83811115612521576000848401525b50505050565b6000601f19601f8301169050919050565b6009811061254257fe5b50565b6001811061254f57fe5b50565b6001811061255c57fe5b50565b612568816123a3565b811461257357600080fd5b50565b61257f816123b5565b811461258a57600080fd5b50565b612596816123c1565b81146125a157600080fd5b50565b6125ad81612439565b81146125b857600080fd5b5056fea365627a7a723158208c5029c67df496ab432086d4620cfd9a895d0b94d0133fe7598961c4737886aa6c6578706572696d656e74616cf564736f6c634300050c0040",
  "source": "pragma solidity ^0.5.0;\npragma experimental ABIEncoderV2;\n\ninterface IERC20 {\n    function totalSupply() external view returns (uint256);\n    function balanceOf(address account) external view returns (uint256);\n    function transfer(address recipient, uint256 amount) external returns (bool);\n    function allowance(address owner, address spender) external view returns (uint256);\n    function approve(address spender, uint256 amount) external returns (bool);\n    function transferFrom(address sender, address recipient, uint256 amount) external returns (bool);\n    event Transfer(address indexed from, address indexed to, uint256 value);\n    event Approval(address indexed owner, address indexed spender, uint256 value);\n}\n\ncontract Context {\n    constructor () internal { }\n    // solhint-disable-previous-line no-empty-blocks\n\n    function _msgSender() internal view returns (address payable) {\n        return msg.sender;\n    }\n\n    function _msgData() internal view returns (bytes memory) {\n        this; // silence state mutability warning without generating bytecode - see https://github.com/ethereum/solidity/issues/2691\n        return msg.data;\n    }\n}\n\ncontract ReentrancyGuard {\n    uint256 private _guardCounter;\n\n    constructor () internal {\n        _guardCounter = 1;\n    }\n\n    modifier nonReentrant() {\n        _guardCounter += 1;\n        uint256 localCounter = _guardCounter;\n        _;\n        require(localCounter == _guardCounter, \"ReentrancyGuard: reentrant call\");\n    }\n}\n\ncontract Ownable is Context {\n    address private _owner;\n\n    event OwnershipTransferred(address indexed previousOwner, address indexed newOwner);\n    constructor () internal {\n        _owner = _msgSender();\n        emit OwnershipTransferred(address(0), _owner);\n    }\n    function owner() public view returns (address) {\n        return _owner;\n    }\n    modifier onlyOwner() {\n        require(isOwner(), \"Ownable: caller is not the owner\");\n        _;\n    }\n    function isOwner() public view returns (bool) {\n        return _msgSender() == _owner;\n    }\n    function renounceOwnership() public onlyOwner {\n        emit OwnershipTransferred(_owner, address(0));\n        _owner = address(0);\n    }\n    function transferOwnership(address newOwner) public onlyOwner {\n        _transferOwnership(newOwner);\n    }\n    function _transferOwnership(address newOwner) internal {\n        require(newOwner != address(0), \"Ownable: new owner is the zero address\");\n        emit OwnershipTransferred(_owner, newOwner);\n        _owner = newOwner;\n    }\n}\n\nlibrary SafeMath {\n    function add(uint256 a, uint256 b) internal pure returns (uint256) {\n        uint256 c = a + b;\n        require(c >= a, \"SafeMath: addition overflow\");\n\n        return c;\n    }\n    function sub(uint256 a, uint256 b) internal pure returns (uint256) {\n        return sub(a, b, \"SafeMath: subtraction overflow\");\n    }\n    function sub(uint256 a, uint256 b, string memory errorMessage) internal pure returns (uint256) {\n        require(b <= a, errorMessage);\n        uint256 c = a - b;\n\n        return c;\n    }\n    function mul(uint256 a, uint256 b) internal pure returns (uint256) {\n        if (a == 0) {\n            return 0;\n        }\n\n        uint256 c = a * b;\n        require(c / a == b, \"SafeMath: multiplication overflow\");\n\n        return c;\n    }\n    function div(uint256 a, uint256 b) internal pure returns (uint256) {\n        return div(a, b, \"SafeMath: division by zero\");\n    }\n    function div(uint256 a, uint256 b, string memory errorMessage) internal pure returns (uint256) {\n        // Solidity only automatically asserts when dividing by 0\n        require(b > 0, errorMessage);\n        uint256 c = a / b;\n\n        return c;\n    }\n    function mod(uint256 a, uint256 b) internal pure returns (uint256) {\n        return mod(a, b, \"SafeMath: modulo by zero\");\n    }\n    function mod(uint256 a, uint256 b, string memory errorMessage) internal pure returns (uint256) {\n        require(b != 0, errorMessage);\n        return a % b;\n    }\n}\n\nlibrary Address {\n    function isContract(address account) internal view returns (bool) {\n        bytes32 codehash;\n        bytes32 accountHash = 0xc5d2460186f7233c927e7db2dcc703c0e500b653ca82273b7bfad8045d85a470;\n        // solhint-disable-next-line no-inline-assembly\n        assembly { codehash := extcodehash(account) }\n        return (codehash != 0x0 && codehash != accountHash);\n    }\n    function toPayable(address account) internal pure returns (address payable) {\n        return address(uint160(account));\n    }\n    function sendValue(address payable recipient, uint256 amount) internal {\n        require(address(this).balance >= amount, \"Address: insufficient balance\");\n\n        // solhint-disable-next-line avoid-call-value\n        (bool success, ) = recipient.call.value(amount)(\"\");\n        require(success, \"Address: unable to send value, recipient may have reverted\");\n    }\n}\n\nlibrary SafeERC20 {\n    using SafeMath for uint256;\n    using Address for address;\n\n    function safeTransfer(IERC20 token, address to, uint256 value) internal {\n        callOptionalReturn(token, abi.encodeWithSelector(token.transfer.selector, to, value));\n    }\n    function safeTransferFrom(IERC20 token, address from, address to, uint256 value) internal {\n        callOptionalReturn(token, abi.encodeWithSelector(token.transferFrom.selector, from, to, value));\n    }\n    function safeApprove(IERC20 token, address spender, uint256 value) internal {\n        require((value == 0) || (token.allowance(address(this), spender) == 0),\n            \"SafeERC20: approve from non-zero to non-zero allowance\"\n        );\n        callOptionalReturn(token, abi.encodeWithSelector(token.approve.selector, spender, value));\n    }\n    function callOptionalReturn(IERC20 token, bytes memory data) private {\n        require(address(token).isContract(), \"SafeERC20: call to non-contract\");\n\n        // solhint-disable-next-line avoid-low-level-calls\n        (bool success, bytes memory returndata) = address(token).call(data);\n        require(success, \"SafeERC20: low-level call failed\");\n\n        if (returndata.length > 0) { // Return data is optional\n            // solhint-disable-next-line max-line-length\n            require(abi.decode(returndata, (bool)), \"SafeERC20: ERC20 operation did not succeed\");\n        }\n    }\n}\n\ninterface ICurveFi {\n  function exchange_underlying(\n    int128 from, int128 to, uint256 _from_amount, uint256 _min_to_amount\n  ) external;\n}\n\ncontract Structs {\n    struct Val {\n        uint256 value;\n    }\n\n    enum ActionType {\n      Deposit,   // supply tokens\n      Withdraw,  // borrow tokens\n      Transfer,  // transfer balance between accounts\n      Buy,       // buy an amount of some token (externally)\n      Sell,      // sell an amount of some token (externally)\n      Trade,     // trade tokens against another account\n      Liquidate, // liquidate an undercollateralized or expiring account\n      Vaporize,  // use excess tokens to zero-out a completely negative account\n      Call       // send arbitrary data to an address\n    }\n\n    enum AssetDenomination {\n        Wei // the amount is denominated in wei\n    }\n\n    enum AssetReference {\n        Delta // the amount is given as a delta from the current value\n    }\n\n    struct AssetAmount {\n        bool sign; // true if positive\n        AssetDenomination denomination;\n        AssetReference ref;\n        uint256 value;\n    }\n\n    struct ActionArgs {\n        ActionType actionType;\n        uint256 accountId;\n        AssetAmount amount;\n        uint256 primaryMarketId;\n        uint256 secondaryMarketId;\n        address otherAddress;\n        uint256 otherAccountId;\n        bytes data;\n    }\n\n    struct Info {\n        address owner;  // The address that owns the account\n        uint256 number; // A nonce that allows a single address to control many accounts\n    }\n\n    struct Wei {\n        bool sign; // true if positive\n        uint256 value;\n    }\n}\n\ncontract DyDx is Structs {\n    function getAccountWei(Info memory account, uint256 marketId) public view returns (Wei memory);\n    function operate(Info[] memory, ActionArgs[] memory) public;\n}\n\n\ncontract CurveFlashDAI is ReentrancyGuard, Ownable, Structs {\n  using SafeERC20 for IERC20;\n  using Address for address;\n  using SafeMath for uint256;\n\n  address public swap;\n  address public dydx;\n  address public dai;\n  address public usdt;\n  address public usdc;\n  uint256 public _amount;\n\n  constructor () public {\n    dydx = address(0x1E0447b19BB6EcFdAe1e4AE1694b0C3659614e4e);\n    swap = address(0x45F783CCE6B7FF23B2ab2D70e416cdb7D6055f51);\n    dai = address(0x6B175474E89094C44Da98b954EedeAC495271d0F);\n    usdc = address(0xA0b86991c6218b36c1d19D4a2e9Eb0cE3606eB48);\n    usdt = address(0xdAC17F958D2ee523a2206206994597C13D831ec7);\n\n    approveToken();\n  }\n\n  function swapUSDCtoDAI(uint256 amount) public {\n    _amount = amount;\n    Info[] memory infos = new Info[](1);\n    ActionArgs[] memory args = new ActionArgs[](3);\n\n    infos[0] = Info(address(this), 0);\n\n    AssetAmount memory wamt = AssetAmount(false, AssetDenomination.Wei, AssetReference.Delta, amount);\n    ActionArgs memory withdraw;\n    withdraw.actionType = ActionType.Withdraw;\n    withdraw.accountId = 0;\n    withdraw.amount = wamt;\n    withdraw.primaryMarketId = 3;\n    withdraw.otherAddress = address(this);\n\n    args[0] = withdraw;\n\n    ActionArgs memory call;\n    call.actionType = ActionType.Call;\n    call.accountId = 0;\n    call.otherAddress = address(this);\n\n    args[1] = call;\n\n    ActionArgs memory deposit;\n    AssetAmount memory damt = AssetAmount(true, AssetDenomination.Wei, AssetReference.Delta, amount.add(1e6));\n    deposit.actionType = ActionType.Deposit;\n    deposit.accountId = 0;\n    deposit.amount = damt;\n    deposit.primaryMarketId = 3;\n    deposit.otherAddress = address(this);\n\n    args[2] = deposit;\n\n    DyDx(dydx).operate(infos, args);\n  }\n\n  function callFunction(\n      address sender,\n      Info memory accountInfo,\n      bytes memory data\n  ) public {\n    // 0 = DAI, 1 = USDC, 2 = USDT, 3 = TUSD\n    ICurveFi(swap).exchange_underlying(0, 2, _amount, 0);\n    ICurveFi(swap).exchange_underlying(2, 0, IERC20(usdt).balanceOf(address(this)), 0);\n  }\n\n  function() external payable {\n\n  }\n\n  function approveToken() public {\n      IERC20(dai).safeApprove(swap, uint(-1));\n      IERC20(dai).safeApprove(dydx, uint(-1));\n      IERC20(usdc).safeApprove(swap, uint(-1));\n      IERC20(usdc).safeApprove(dydx, uint(-1));\n      IERC20(usdt).safeApprove(swap, uint(-1));\n      IERC20(usdt).safeApprove(dydx, uint(-1));\n  }\n\n  // incase of half-way error\n  function inCaseTokenGetsStuck(IERC20 _TokenAddress) onlyOwner public {\n      uint qty = _TokenAddress.balanceOf(address(this));\n      _TokenAddress.safeTransfer(msg.sender, qty);\n  }\n\n  // incase of half-way error\n  function inCaseETHGetsStuck() onlyOwner public{\n      (bool result, ) = msg.sender.call.value(address(this).balance)(\"\");\n      require(result, \"transfer of ETH failed\");\n  }\n}\n",
  "sourcePath": "D:/ftm/itoken/contracts/CurveFlashDAI.sol",
  "compiler": {
    "name": "solc",
    "version": "0.5.12+commit.7709ece9.Emscripten.clang"
  },
  "schemaVersion": "3.0.19",
  "updatedAt": "2020-02-25T05:27:22.655Z",
  "devdoc": {
    "methods": {}
  },
  "userdoc": {
    "methods": {}
  }
}