{
  "contractName": "CurveFlash",
  "abi": [
    {
      "inputs": [],
      "payable": false,
      "stateMutability": "nonpayable",
      "type": "constructor"
    },
    {
      "anonymous": false,
      "inputs": [
        {
          "indexed": true,
          "internalType": "address",
          "name": "previousOwner",
          "type": "address"
        },
        {
          "indexed": true,
          "internalType": "address",
          "name": "newOwner",
          "type": "address"
        }
      ],
      "name": "OwnershipTransferred",
      "type": "event"
    },
    {
      "payable": true,
      "stateMutability": "payable",
      "type": "fallback"
    },
    {
      "constant": true,
      "inputs": [],
      "name": "_amount",
      "outputs": [
        {
          "internalType": "uint256",
          "name": "",
          "type": "uint256"
        }
      ],
      "payable": false,
      "stateMutability": "view",
      "type": "function"
    },
    {
      "constant": true,
      "inputs": [],
      "name": "_vault",
      "outputs": [
        {
          "internalType": "address payable",
          "name": "",
          "type": "address"
        }
      ],
      "payable": false,
      "stateMutability": "view",
      "type": "function"
    },
    {
      "constant": true,
      "inputs": [],
      "name": "dydx",
      "outputs": [
        {
          "internalType": "address",
          "name": "",
          "type": "address"
        }
      ],
      "payable": false,
      "stateMutability": "view",
      "type": "function"
    },
    {
      "constant": true,
      "inputs": [],
      "name": "isOwner",
      "outputs": [
        {
          "internalType": "bool",
          "name": "",
          "type": "bool"
        }
      ],
      "payable": false,
      "stateMutability": "view",
      "type": "function"
    },
    {
      "constant": true,
      "inputs": [],
      "name": "oCRV",
      "outputs": [
        {
          "internalType": "address",
          "name": "",
          "type": "address"
        }
      ],
      "payable": false,
      "stateMutability": "view",
      "type": "function"
    },
    {
      "constant": true,
      "inputs": [],
      "name": "owner",
      "outputs": [
        {
          "internalType": "address",
          "name": "",
          "type": "address"
        }
      ],
      "payable": false,
      "stateMutability": "view",
      "type": "function"
    },
    {
      "constant": false,
      "inputs": [],
      "name": "renounceOwnership",
      "outputs": [],
      "payable": false,
      "stateMutability": "nonpayable",
      "type": "function"
    },
    {
      "constant": false,
      "inputs": [
        {
          "internalType": "address",
          "name": "newOwner",
          "type": "address"
        }
      ],
      "name": "transferOwnership",
      "outputs": [],
      "payable": false,
      "stateMutability": "nonpayable",
      "type": "function"
    },
    {
      "constant": false,
      "inputs": [
        {
          "internalType": "uint256",
          "name": "amount",
          "type": "uint256"
        },
        {
          "internalType": "address payable",
          "name": "vault",
          "type": "address"
        }
      ],
      "name": "liquidate",
      "outputs": [],
      "payable": false,
      "stateMutability": "nonpayable",
      "type": "function"
    },
    {
      "constant": false,
      "inputs": [
        {
          "internalType": "address",
          "name": "sender",
          "type": "address"
        },
        {
          "components": [
            {
              "internalType": "address",
              "name": "owner",
              "type": "address"
            },
            {
              "internalType": "uint256",
              "name": "number",
              "type": "uint256"
            }
          ],
          "internalType": "struct Structs.Info",
          "name": "accountInfo",
          "type": "tuple"
        },
        {
          "internalType": "bytes",
          "name": "data",
          "type": "bytes"
        }
      ],
      "name": "callFunction",
      "outputs": [],
      "payable": false,
      "stateMutability": "nonpayable",
      "type": "function"
    },
    {
      "constant": false,
      "inputs": [
        {
          "internalType": "contract IERC20",
          "name": "_TokenAddress",
          "type": "address"
        }
      ],
      "name": "inCaseTokenGetsStuck",
      "outputs": [],
      "payable": false,
      "stateMutability": "nonpayable",
      "type": "function"
    },
    {
      "constant": false,
      "inputs": [],
      "name": "inCaseETHGetsStuck",
      "outputs": [],
      "payable": false,
      "stateMutability": "nonpayable",
      "type": "function"
    }
  ],
  "bytecode": "0x608060405234801561001057600080fd5b50600160008190555061002761019360201b60201c565b600160006101000a81548173ffffffffffffffffffffffffffffffffffffffff021916908373ffffffffffffffffffffffffffffffffffffffff160217905550600160009054906101000a900473ffffffffffffffffffffffffffffffffffffffff1673ffffffffffffffffffffffffffffffffffffffff16600073ffffffffffffffffffffffffffffffffffffffff167f8be0079c531659141344cd1fd0a4f28419497f9722a3daafe3b4186f6b6457e060405160405180910390a3731e0447b19bb6ecfdae1e4ae1694b0c3659614e4e600260006101000a81548173ffffffffffffffffffffffffffffffffffffffff021916908373ffffffffffffffffffffffffffffffffffffffff160217905550734ba8c6ce0e855c051e65dfc37883360efaf7c82b600360006101000a81548173ffffffffffffffffffffffffffffffffffffffff021916908373ffffffffffffffffffffffffffffffffffffffff16021790555061019b565b600033905090565b61224c806101aa6000396000f3fe6080604052600436106100a75760003560e01c80638e4ec6ef116100645780638e4ec6ef146101915780638f32d59b146101bc5780639887f180146101e7578063f2fde38b14610212578063f60a15ed1461023b578063fd243da314610252576100a7565b80631aecf619146100a95780632e8d6e18146100d45780635fae8b3d146100fd578063715018a6146101265780638b4187131461013d5780638da5cb5b14610166575b005b3480156100b557600080fd5b506100be61027d565b6040516100cb9190611cc4565b60405180910390f35b3480156100e057600080fd5b506100fb60048036036100f6919081019061165f565b6102a3565b005b34801561010957600080fd5b50610124600480360361011f91908101906116b1565b6103a6565b005b34801561013257600080fd5b5061013b6107a4565b005b34801561014957600080fd5b50610164600480360361015f91908101906115cf565b6108ac565b005b34801561017257600080fd5b5061017b610ce0565b6040516101889190611cc4565b60405180910390f35b34801561019d57600080fd5b506101a6610d0a565b6040516101b39190611cc4565b60405180910390f35b3480156101c857600080fd5b506101d1610d30565b6040516101de9190611d9e565b60405180910390f35b3480156101f357600080fd5b506101fc610d8f565b6040516102099190611eb9565b60405180910390f35b34801561021e57600080fd5b50610239600480360361023491908101906115a6565b610d95565b005b34801561024757600080fd5b50610250610de8565b005b34801561025e57600080fd5b50610267610ef5565b6040516102749190611cfa565b60405180910390f35b600360009054906101000a900473ffffffffffffffffffffffffffffffffffffffff1681565b6102ab610d30565b6102ea576040517f08c379a00000000000000000000000000000000000000000000000000000000081526004016102e190611e39565b60405180910390fd5b60008173ffffffffffffffffffffffffffffffffffffffff166370a08231306040518263ffffffff1660e01b81526004016103259190611cdf565b60206040518083038186803b15801561033d57600080fd5b505afa158015610351573d6000803e3d6000fd5b505050506040513d601f19601f820116820180604052506103759190810190611688565b90506103a233828473ffffffffffffffffffffffffffffffffffffffff16610f1b9092919063ffffffff16565b5050565b80600460006101000a81548173ffffffffffffffffffffffffffffffffffffffff021916908373ffffffffffffffffffffffffffffffffffffffff160217905550816005819055506060600160405190808252806020026020018201604052801561042b57816020015b610418611304565b8152602001906001900390816104105790505b5090506060600360405190808252806020026020018201604052801561046b57816020015b610458611334565b8152602001906001900390816104505790505b50905060405180604001604052803073ffffffffffffffffffffffffffffffffffffffff1681526020016000815250826000815181106104a757fe5b60200260200101819052506104ba6113a0565b60405180608001604052806000151581526020016000808111156104da57fe5b81526020016000808111156104eb57fe5b81526020018681525090506104fe6113de565b60018160000190600881111561051057fe5b9081600881111561051d57fe5b8152505060008160200181815250508181604001819052506000816060018181525050308160a0019073ffffffffffffffffffffffffffffffffffffffff16908173ffffffffffffffffffffffffffffffffffffffff1681525050808360008151811061058657fe5b60200260200101819052506105996113de565b6008816000019060088111156105ab57fe5b908160088111156105b857fe5b815250506000816020018181525050308160a0019073ffffffffffffffffffffffffffffffffffffffff16908173ffffffffffffffffffffffffffffffffffffffff1681525050808460018151811061060d57fe5b60200260200101819052506106206113de565b6106286113a0565b604051806080016040528060011515815260200160008081111561064857fe5b815260200160008081111561065957fe5b815260200161067260018c610fba90919063ffffffff16565b815250905060008260000190600881111561068957fe5b9081600881111561069657fe5b8152505060008260200181815250508082604001819052506000826060018181525050308260a0019073ffffffffffffffffffffffffffffffffffffffff16908173ffffffffffffffffffffffffffffffffffffffff168152505081866002815181106106ff57fe5b6020026020010181905250600260009054906101000a900473ffffffffffffffffffffffffffffffffffffffff1673ffffffffffffffffffffffffffffffffffffffff1663a67a6a4588886040518363ffffffff1660e01b8152600401610767929190611d67565b600060405180830381600087803b15801561078157600080fd5b505af1158015610795573d6000803e3d6000fd5b50505050505050505050505050565b6107ac610d30565b6107eb576040517f08c379a00000000000000000000000000000000000000000000000000000000081526004016107e290611e39565b60405180910390fd5b600073ffffffffffffffffffffffffffffffffffffffff16600160009054906101000a900473ffffffffffffffffffffffffffffffffffffffff1673ffffffffffffffffffffffffffffffffffffffff167f8be0079c531659141344cd1fd0a4f28419497f9722a3daafe3b4186f6b6457e060405160405180910390a36000600160006101000a81548173ffffffffffffffffffffffffffffffffffffffff021916908373ffffffffffffffffffffffffffffffffffffffff160217905550565b6000600360009054906101000a900473ffffffffffffffffffffffffffffffffffffffff1690508073ffffffffffffffffffffffffffffffffffffffff1663cdb4b5c2600460009054906101000a900473ffffffffffffffffffffffffffffffffffffffff166040518263ffffffff1660e01b815260040161092e9190611cfa565b60206040518083038186803b15801561094657600080fd5b505afa15801561095a573d6000803e3d6000fd5b505050506040513d601f19601f8201168201806040525061097e9190810190611636565b6109bd576040517f08c379a00000000000000000000000000000000000000000000000000000000081526004016109b490611e59565b60405180910390fd5b60008173ffffffffffffffffffffffffffffffffffffffff1663686c1e216005546040518263ffffffff1660e01b81526004016109fa9190611eb9565b60206040518083038186803b158015610a1257600080fd5b505afa158015610a26573d6000803e3d6000fd5b505050506040513d601f19601f82011682018060405250610a4a9190810190611688565b90508173ffffffffffffffffffffffffffffffffffffffff16630d453efb306040518263ffffffff1660e01b8152600401610a859190611cdf565b602060405180830381600087803b158015610a9f57600080fd5b505af1158015610ab3573d6000803e3d6000fd5b505050506040513d601f19601f82011682018060405250610ad79190810190611636565b15610b51578173ffffffffffffffffffffffffffffffffffffffff1663b96661ba60055483306040518463ffffffff1660e01b8152600401610b1a929190611ed4565b6000604051808303818588803b158015610b3357600080fd5b505af1158015610b47573d6000803e3d6000fd5b5050505050610bc2565b8173ffffffffffffffffffffffffffffffffffffffff1663ed1f41c360055483306040518463ffffffff1660e01b8152600401610b8f929190611ed4565b6000604051808303818588803b158015610ba857600080fd5b505af1158015610bbc573d6000803e3d6000fd5b50505050505b8173ffffffffffffffffffffffffffffffffffffffff1663bcbaf487600460009054906101000a900473ffffffffffffffffffffffffffffffffffffffff168473ffffffffffffffffffffffffffffffffffffffff166370a08231306040518263ffffffff1660e01b8152600401610c3a9190611cdf565b60206040518083038186803b158015610c5257600080fd5b505afa158015610c66573d6000803e3d6000fd5b505050506040513d601f19601f82011682018060405250610c8a9190810190611688565b6040518363ffffffff1660e01b8152600401610ca7929190611d15565b600060405180830381600087803b158015610cc157600080fd5b505af1158015610cd5573d6000803e3d6000fd5b505050505050505050565b6000600160009054906101000a900473ffffffffffffffffffffffffffffffffffffffff16905090565b600260009054906101000a900473ffffffffffffffffffffffffffffffffffffffff1681565b6000600160009054906101000a900473ffffffffffffffffffffffffffffffffffffffff1673ffffffffffffffffffffffffffffffffffffffff16610d7361100f565b73ffffffffffffffffffffffffffffffffffffffff1614905090565b60055481565b610d9d610d30565b610ddc576040517f08c379a0000000000000000000000000000000000000000000000000000000008152600401610dd390611e39565b60405180910390fd5b610de581611017565b50565b610df0610d30565b610e2f576040517f08c379a0000000000000000000000000000000000000000000000000000000008152600401610e2690611e39565b60405180910390fd5b60003373ffffffffffffffffffffffffffffffffffffffff163073ffffffffffffffffffffffffffffffffffffffff1631604051610e6c90611caf565b60006040518083038185875af1925050503d8060008114610ea9576040519150601f19603f3d011682016040523d82523d6000602084013e610eae565b606091505b5050905080610ef2576040517f08c379a0000000000000000000000000000000000000000000000000000000008152600401610ee990611e19565b60405180910390fd5b50565b600460009054906101000a900473ffffffffffffffffffffffffffffffffffffffff1681565b610fb5838473ffffffffffffffffffffffffffffffffffffffff1663a9059cbb905060e01b8484604051602401610f53929190611d3e565b604051602081830303815290604052907bffffffffffffffffffffffffffffffffffffffffffffffffffffffff19166020820180517bffffffffffffffffffffffffffffffffffffffffffffffffffffffff8381831617835250505050611147565b505050565b600080828401905083811015611005576040517f08c379a0000000000000000000000000000000000000000000000000000000008152600401610ffc90611dd9565b60405180910390fd5b8091505092915050565b600033905090565b600073ffffffffffffffffffffffffffffffffffffffff168173ffffffffffffffffffffffffffffffffffffffff161415611087576040517f08c379a000000000000000000000000000000000000000000000000000000000815260040161107e90611db9565b60405180910390fd5b8073ffffffffffffffffffffffffffffffffffffffff16600160009054906101000a900473ffffffffffffffffffffffffffffffffffffffff1673ffffffffffffffffffffffffffffffffffffffff167f8be0079c531659141344cd1fd0a4f28419497f9722a3daafe3b4186f6b6457e060405160405180910390a380600160006101000a81548173ffffffffffffffffffffffffffffffffffffffff021916908373ffffffffffffffffffffffffffffffffffffffff16021790555050565b6111668273ffffffffffffffffffffffffffffffffffffffff166112b9565b6111a5576040517f08c379a000000000000000000000000000000000000000000000000000000000815260040161119c90611e99565b60405180910390fd5b600060608373ffffffffffffffffffffffffffffffffffffffff16836040516111ce9190611c98565b6000604051808303816000865af19150503d806000811461120b576040519150601f19603f3d011682016040523d82523d6000602084013e611210565b606091505b509150915081611255576040517f08c379a000000000000000000000000000000000000000000000000000000000815260040161124c90611df9565b60405180910390fd5b6000815111156112b357808060200190516112739190810190611636565b6112b2576040517f08c379a00000000000000000000000000000000000000000000000000000000081526004016112a990611e79565b60405180910390fd5b5b50505050565b60008060007fc5d2460186f7233c927e7db2dcc703c0e500b653ca82273b7bfad8045d85a47060001b9050833f91506000801b82141580156112fb5750808214155b92505050919050565b6040518060400160405280600073ffffffffffffffffffffffffffffffffffffffff168152602001600081525090565b6040518061010001604052806000600881111561134d57fe5b81526020016000815260200161136161144a565b81526020016000815260200160008152602001600073ffffffffffffffffffffffffffffffffffffffff16815260200160008152602001606081525090565b60405180608001604052806000151581526020016000808111156113c057fe5b81526020016000808111156113d157fe5b8152602001600081525090565b604051806101000160405280600060088111156113f757fe5b81526020016000815260200161140b61144a565b81526020016000815260200160008152602001600073ffffffffffffffffffffffffffffffffffffffff16815260200160008152602001606081525090565b604051806080016040528060001515815260200160008081111561146a57fe5b815260200160008081111561147b57fe5b8152602001600081525090565b60008135905061149781612196565b92915050565b6000813590506114ac816121ad565b92915050565b6000815190506114c1816121c4565b92915050565b600082601f8301126114d857600080fd5b81356114eb6114e682611f2a565b611efd565b9150808252602083016020830185838301111561150757600080fd5b61151283828461211c565b50505092915050565b60008135905061152a816121db565b92915050565b60006040828403121561154257600080fd5b61154c6040611efd565b9050600061155c84828501611488565b60008301525060206115708482850161157c565b60208301525092915050565b60008135905061158b816121f2565b92915050565b6000815190506115a0816121f2565b92915050565b6000602082840312156115b857600080fd5b60006115c684828501611488565b91505092915050565b6000806000608084860312156115e457600080fd5b60006115f286828701611488565b935050602061160386828701611530565b925050606084013567ffffffffffffffff81111561162057600080fd5b61162c868287016114c7565b9150509250925092565b60006020828403121561164857600080fd5b6000611656848285016114b2565b91505092915050565b60006020828403121561167157600080fd5b600061167f8482850161151b565b91505092915050565b60006020828403121561169a57600080fd5b60006116a884828501611591565b91505092915050565b600080604083850312156116c457600080fd5b60006116d28582860161157c565b92505060206116e38582860161149d565b9150509250929050565b60006116f98383611b43565b905092915050565b600061170d8383611c4b565b60408301905092915050565b611722816120b0565b82525050565b6117318161201d565b82525050565b6117408161200b565b82525050565b61174f8161200b565b82525050565b600061176082611f76565b61176a8185611fbc565b93508360208202850161177c85611f56565b8060005b858110156117b8578484038952815161179985826116ed565b94506117a483611fa2565b925060208a01995050600181019050611780565b50829750879550505050505092915050565b60006117d582611f81565b6117df8185611fcd565b93506117ea83611f66565b8060005b8381101561181b5781516118028882611701565b975061180d83611faf565b9250506001810190506117ee565b5085935050505092915050565b6118318161202f565b82525050565b6118408161202f565b82525050565b600061185182611f97565b61185b8185611fef565b935061186b81856020860161212b565b80840191505092915050565b600061188282611f8c565b61188c8185611fde565b935061189c81856020860161212b565b6118a58161215e565b840191505092915050565b6118b9816120c2565b82525050565b6118c8816120d4565b82525050565b6118d7816120e6565b82525050565b60006118ea602683611ffa565b91507f4f776e61626c653a206e6577206f776e657220697320746865207a65726f206160008301527f64647265737300000000000000000000000000000000000000000000000000006020830152604082019050919050565b6000611950601b83611ffa565b91507f536166654d6174683a206164646974696f6e206f766572666c6f7700000000006000830152602082019050919050565b6000611990602083611ffa565b91507f5361666545524332303a206c6f772d6c6576656c2063616c6c206661696c65646000830152602082019050919050565b60006119d0601683611ffa565b91507f7472616e73666572206f6620455448206661696c6564000000000000000000006000830152602082019050919050565b6000611a10602083611ffa565b91507f4f776e61626c653a2063616c6c6572206973206e6f7420746865206f776e65726000830152602082019050919050565b6000611a50601d83611ffa565b91507f63616e6e6f74206c697175696461746520612073616665207661756c740000006000830152602082019050919050565b6000611a90600083611fef565b9150600082019050919050565b6000611aaa602a83611ffa565b91507f5361666545524332303a204552433230206f7065726174696f6e20646964206e60008301527f6f742073756363656564000000000000000000000000000000000000000000006020830152604082019050919050565b6000611b10601f83611ffa565b91507f5361666545524332303a2063616c6c20746f206e6f6e2d636f6e7472616374006000830152602082019050919050565b600061016083016000830151611b5c60008601826118b0565b506020830151611b6f6020860182611c7a565b506040830151611b826040860182611bf6565b506060830151611b9560c0860182611c7a565b506080830151611ba860e0860182611c7a565b5060a0830151611bbc610100860182611737565b5060c0830151611bd0610120860182611c7a565b5060e0830151848203610140860152611be98282611877565b9150508091505092915050565b608082016000820151611c0c6000850182611828565b506020820151611c1f60208501826118bf565b506040820151611c3260408501826118ce565b506060820151611c456060850182611c7a565b50505050565b604082016000820151611c616000850182611737565b506020820151611c746020850182611c7a565b50505050565b611c83816120a6565b82525050565b611c92816120a6565b82525050565b6000611ca48284611846565b915081905092915050565b6000611cba82611a83565b9150819050919050565b6000602082019050611cd96000830184611746565b92915050565b6000602082019050611cf46000830184611719565b92915050565b6000602082019050611d0f6000830184611728565b92915050565b6000604082019050611d2a6000830185611728565b611d376020830184611c89565b9392505050565b6000604082019050611d536000830185611746565b611d606020830184611c89565b9392505050565b60006040820190508181036000830152611d8181856117ca565b90508181036020830152611d958184611755565b90509392505050565b6000602082019050611db36000830184611837565b92915050565b60006020820190508181036000830152611dd2816118dd565b9050919050565b60006020820190508181036000830152611df281611943565b9050919050565b60006020820190508181036000830152611e1281611983565b9050919050565b60006020820190508181036000830152611e32816119c3565b9050919050565b60006020820190508181036000830152611e5281611a03565b9050919050565b60006020820190508181036000830152611e7281611a43565b9050919050565b60006020820190508181036000830152611e9281611a9d565b9050919050565b60006020820190508181036000830152611eb281611b03565b9050919050565b6000602082019050611ece6000830184611c89565b92915050565b6000604082019050611ee96000830185611c89565b611ef66020830184611719565b9392505050565b6000604051905081810181811067ffffffffffffffff82111715611f2057600080fd5b8060405250919050565b600067ffffffffffffffff821115611f4157600080fd5b601f19601f8301169050602081019050919050565b6000819050602082019050919050565b6000819050602082019050919050565b600081519050919050565b600081519050919050565b600081519050919050565b600081519050919050565b6000602082019050919050565b6000602082019050919050565b600082825260208201905092915050565b600082825260208201905092915050565b600082825260208201905092915050565b600081905092915050565b600082825260208201905092915050565b600061201682612086565b9050919050565b600061202882612086565b9050919050565b60008115159050919050565b60006120468261200b565b9050919050565b600081905061205b8261216f565b919050565b600081905061206e8261217c565b919050565b600081905061208182612189565b919050565b600073ffffffffffffffffffffffffffffffffffffffff82169050919050565b6000819050919050565b60006120bb826120f8565b9050919050565b60006120cd8261204d565b9050919050565b60006120df82612060565b9050919050565b60006120f182612073565b9050919050565b60006121038261210a565b9050919050565b600061211582612086565b9050919050565b82818337600083830152505050565b60005b8381101561214957808201518184015260208101905061212e565b83811115612158576000848401525b50505050565b6000601f19601f8301169050919050565b6009811061217957fe5b50565b6001811061218657fe5b50565b6001811061219357fe5b50565b61219f8161200b565b81146121aa57600080fd5b50565b6121b68161201d565b81146121c157600080fd5b50565b6121cd8161202f565b81146121d857600080fd5b50565b6121e48161203b565b81146121ef57600080fd5b50565b6121fb816120a6565b811461220657600080fd5b5056fea365627a7a72315820af7339881c53fbfc2a1333aabd9eb301f54aab09c5e442c6a4e0defd5c61dbe46c6578706572696d656e74616cf564736f6c634300050c0040",
  "source": "pragma solidity ^0.5.0;\npragma experimental ABIEncoderV2;\n\ninterface IERC20 {\n    function totalSupply() external view returns (uint256);\n    function balanceOf(address account) external view returns (uint256);\n    function transfer(address recipient, uint256 amount) external returns (bool);\n    function allowance(address owner, address spender) external view returns (uint256);\n    function approve(address spender, uint256 amount) external returns (bool);\n    function transferFrom(address sender, address recipient, uint256 amount) external returns (bool);\n    event Transfer(address indexed from, address indexed to, uint256 value);\n    event Approval(address indexed owner, address indexed spender, uint256 value);\n}\n\ncontract Context {\n    constructor () internal { }\n    // solhint-disable-previous-line no-empty-blocks\n\n    function _msgSender() internal view returns (address payable) {\n        return msg.sender;\n    }\n\n    function _msgData() internal view returns (bytes memory) {\n        this; // silence state mutability warning without generating bytecode - see https://github.com/ethereum/solidity/issues/2691\n        return msg.data;\n    }\n}\n\ncontract ReentrancyGuard {\n    uint256 private _guardCounter;\n\n    constructor () internal {\n        _guardCounter = 1;\n    }\n\n    modifier nonReentrant() {\n        _guardCounter += 1;\n        uint256 localCounter = _guardCounter;\n        _;\n        require(localCounter == _guardCounter, \"ReentrancyGuard: reentrant call\");\n    }\n}\n\ncontract Ownable is Context {\n    address private _owner;\n\n    event OwnershipTransferred(address indexed previousOwner, address indexed newOwner);\n    constructor () internal {\n        _owner = _msgSender();\n        emit OwnershipTransferred(address(0), _owner);\n    }\n    function owner() public view returns (address) {\n        return _owner;\n    }\n    modifier onlyOwner() {\n        require(isOwner(), \"Ownable: caller is not the owner\");\n        _;\n    }\n    function isOwner() public view returns (bool) {\n        return _msgSender() == _owner;\n    }\n    function renounceOwnership() public onlyOwner {\n        emit OwnershipTransferred(_owner, address(0));\n        _owner = address(0);\n    }\n    function transferOwnership(address newOwner) public onlyOwner {\n        _transferOwnership(newOwner);\n    }\n    function _transferOwnership(address newOwner) internal {\n        require(newOwner != address(0), \"Ownable: new owner is the zero address\");\n        emit OwnershipTransferred(_owner, newOwner);\n        _owner = newOwner;\n    }\n}\n\nlibrary SafeMath {\n    function add(uint256 a, uint256 b) internal pure returns (uint256) {\n        uint256 c = a + b;\n        require(c >= a, \"SafeMath: addition overflow\");\n\n        return c;\n    }\n    function sub(uint256 a, uint256 b) internal pure returns (uint256) {\n        return sub(a, b, \"SafeMath: subtraction overflow\");\n    }\n    function sub(uint256 a, uint256 b, string memory errorMessage) internal pure returns (uint256) {\n        require(b <= a, errorMessage);\n        uint256 c = a - b;\n\n        return c;\n    }\n    function mul(uint256 a, uint256 b) internal pure returns (uint256) {\n        if (a == 0) {\n            return 0;\n        }\n\n        uint256 c = a * b;\n        require(c / a == b, \"SafeMath: multiplication overflow\");\n\n        return c;\n    }\n    function div(uint256 a, uint256 b) internal pure returns (uint256) {\n        return div(a, b, \"SafeMath: division by zero\");\n    }\n    function div(uint256 a, uint256 b, string memory errorMessage) internal pure returns (uint256) {\n        // Solidity only automatically asserts when dividing by 0\n        require(b > 0, errorMessage);\n        uint256 c = a / b;\n\n        return c;\n    }\n    function mod(uint256 a, uint256 b) internal pure returns (uint256) {\n        return mod(a, b, \"SafeMath: modulo by zero\");\n    }\n    function mod(uint256 a, uint256 b, string memory errorMessage) internal pure returns (uint256) {\n        require(b != 0, errorMessage);\n        return a % b;\n    }\n}\n\nlibrary Address {\n    function isContract(address account) internal view returns (bool) {\n        bytes32 codehash;\n        bytes32 accountHash = 0xc5d2460186f7233c927e7db2dcc703c0e500b653ca82273b7bfad8045d85a470;\n        // solhint-disable-next-line no-inline-assembly\n        assembly { codehash := extcodehash(account) }\n        return (codehash != 0x0 && codehash != accountHash);\n    }\n    function toPayable(address account) internal pure returns (address payable) {\n        return address(uint160(account));\n    }\n    function sendValue(address payable recipient, uint256 amount) internal {\n        require(address(this).balance >= amount, \"Address: insufficient balance\");\n\n        // solhint-disable-next-line avoid-call-value\n        (bool success, ) = recipient.call.value(amount)(\"\");\n        require(success, \"Address: unable to send value, recipient may have reverted\");\n    }\n}\n\nlibrary SafeERC20 {\n    using SafeMath for uint256;\n    using Address for address;\n\n    function safeTransfer(IERC20 token, address to, uint256 value) internal {\n        callOptionalReturn(token, abi.encodeWithSelector(token.transfer.selector, to, value));\n    }\n    function safeTransferFrom(IERC20 token, address from, address to, uint256 value) internal {\n        callOptionalReturn(token, abi.encodeWithSelector(token.transferFrom.selector, from, to, value));\n    }\n    function safeApprove(IERC20 token, address spender, uint256 value) internal {\n        require((value == 0) || (token.allowance(address(this), spender) == 0),\n            \"SafeERC20: approve from non-zero to non-zero allowance\"\n        );\n        callOptionalReturn(token, abi.encodeWithSelector(token.approve.selector, spender, value));\n    }\n    function callOptionalReturn(IERC20 token, bytes memory data) private {\n        require(address(token).isContract(), \"SafeERC20: call to non-contract\");\n\n        // solhint-disable-next-line avoid-low-level-calls\n        (bool success, bytes memory returndata) = address(token).call(data);\n        require(success, \"SafeERC20: low-level call failed\");\n\n        if (returndata.length > 0) { // Return data is optional\n            // solhint-disable-next-line max-line-length\n            require(abi.decode(returndata, (bool)), \"SafeERC20: ERC20 operation did not succeed\");\n        }\n    }\n}\n\ninterface OptionsContract {\n    function liquidate(address payable vaultOwner, uint256 oTokensToLiquidate) external;\n    function maxOTokensLiquidatable(address payable vaultOwner) external view returns (uint256);\n    function isUnsafe(address payable vaultOwner) external view returns (bool);\n    function approve(address spender, uint256 amount) external returns (bool);\n    function hasVault(address owner) external returns (bool);\n    function balanceOf(address owner) external view returns (uint256);\n    function maxOTokensIssuable(uint256 _amount) external view returns (uint256);\n    function addETHCollateralOption(uint256 tokensToMint, address receiver) external payable;\n    function createETHCollateralOption(uint256 tokensToMint, address receiver) external payable;\n}\n\ncontract Structs {\n    struct Val {\n        uint256 value;\n    }\n\n    enum ActionType {\n      Deposit,   // supply tokens\n      Withdraw,  // borrow tokens\n      Transfer,  // transfer balance between accounts\n      Buy,       // buy an amount of some token (externally)\n      Sell,      // sell an amount of some token (externally)\n      Trade,     // trade tokens against another account\n      Liquidate, // liquidate an undercollateralized or expiring account\n      Vaporize,  // use excess tokens to zero-out a completely negative account\n      Call       // send arbitrary data to an address\n    }\n\n    enum AssetDenomination {\n        Wei // the amount is denominated in wei\n    }\n\n    enum AssetReference {\n        Delta // the amount is given as a delta from the current value\n    }\n\n    struct AssetAmount {\n        bool sign; // true if positive\n        AssetDenomination denomination;\n        AssetReference ref;\n        uint256 value;\n    }\n\n    struct ActionArgs {\n        ActionType actionType;\n        uint256 accountId;\n        AssetAmount amount;\n        uint256 primaryMarketId;\n        uint256 secondaryMarketId;\n        address otherAddress;\n        uint256 otherAccountId;\n        bytes data;\n    }\n\n    struct Info {\n        address owner;  // The address that owns the account\n        uint256 number; // A nonce that allows a single address to control many accounts\n    }\n\n    struct Wei {\n        bool sign; // true if positive\n        uint256 value;\n    }\n}\n\ncontract DyDx is Structs {\n    function getAccountWei(Info memory account, uint256 marketId) public view returns (Wei memory);\n    function operate(Info[] memory, ActionArgs[] memory) public;\n}\n\n\ncontract CurveFlash is ReentrancyGuard, Ownable, Structs {\n  using SafeERC20 for IERC20;\n  using Address for address;\n  using SafeMath for uint256;\n\n  address public dydx;\n  address public oCRV;\n  address payable public _vault;\n  uint256 public _amount;\n\n  constructor () public {\n    dydx = address(0x1E0447b19BB6EcFdAe1e4AE1694b0C3659614e4e);\n    oCRV = address(0x4BA8C6Ce0e855C051e65DfC37883360efAf7c82B);\n  }\n\n  function liquidate(uint256 amount, address payable vault) public {\n    _vault = vault;\n    _amount = amount;\n\n    Info[] memory infos = new Info[](1);\n    ActionArgs[] memory args = new ActionArgs[](3);\n\n    infos[0] = Info(address(this), 0);\n\n    AssetAmount memory wamt = AssetAmount(false, AssetDenomination.Wei, AssetReference.Delta, amount);\n    ActionArgs memory withdraw;\n    withdraw.actionType = ActionType.Withdraw;\n    withdraw.accountId = 0;\n    withdraw.amount = wamt;\n    withdraw.primaryMarketId = 0;\n    withdraw.otherAddress = address(this);\n\n    args[0] = withdraw;\n\n    ActionArgs memory call;\n    call.actionType = ActionType.Call;\n    call.accountId = 0;\n    call.otherAddress = address(this);\n\n    args[1] = call;\n\n    ActionArgs memory deposit;\n    AssetAmount memory damt = AssetAmount(true, AssetDenomination.Wei, AssetReference.Delta, amount.add(1));\n    deposit.actionType = ActionType.Deposit;\n    deposit.accountId = 0;\n    deposit.amount = damt;\n    deposit.primaryMarketId = 0;\n    deposit.otherAddress = address(this);\n\n    args[2] = deposit;\n\n    DyDx(dydx).operate(infos, args);\n  }\n\n  function callFunction(\n      address sender,\n      Info memory accountInfo,\n      bytes memory data\n  ) public {\n    OptionsContract oToken = OptionsContract(oCRV);\n    require(oToken.isUnsafe(_vault), 'cannot liquidate a safe vault');\n    uint256 tokensToMint = oToken.maxOTokensIssuable(_amount);\n    if (oToken.hasVault(address(this))) {\n      oToken.addETHCollateralOption.value(_amount)(tokensToMint, address(this));\n    } else {\n      oToken.createETHCollateralOption.value(_amount)(tokensToMint, address(this));\n    }\n    oToken.liquidate(_vault, oToken.balanceOf(address(this)));\n  }\n\n  function() external payable {\n\n  }\n\n  // incase of half-way error\n  function inCaseTokenGetsStuck(IERC20 _TokenAddress) onlyOwner public {\n      uint qty = _TokenAddress.balanceOf(address(this));\n      _TokenAddress.safeTransfer(msg.sender, qty);\n  }\n\n  // incase of half-way error\n  function inCaseETHGetsStuck() onlyOwner public{\n      (bool result, ) = msg.sender.call.value(address(this).balance)(\"\");\n      require(result, \"transfer of ETH failed\");\n  }\n}\n",
  "sourcePath": "D:/ftm/itoken/contracts/oCurveFlashLiquidate.sol",
  "compiler": {
    "name": "solc",
    "version": "0.5.12+commit.7709ece9.Emscripten.clang"
  },
  "schemaVersion": "3.0.19",
  "updatedAt": "2020-02-26T11:01:42.825Z",
  "devdoc": {
    "methods": {}
  },
  "userdoc": {
    "methods": {}
  }
}