{
  "contractName": "CurveFlash",
  "abi": [
    {
      "inputs": [],
      "payable": false,
      "stateMutability": "nonpayable",
      "type": "constructor"
    },
    {
      "anonymous": false,
      "inputs": [
        {
          "indexed": true,
          "internalType": "address",
          "name": "previousOwner",
          "type": "address"
        },
        {
          "indexed": true,
          "internalType": "address",
          "name": "newOwner",
          "type": "address"
        }
      ],
      "name": "OwnershipTransferred",
      "type": "event"
    },
    {
      "payable": true,
      "stateMutability": "payable",
      "type": "fallback"
    },
    {
      "constant": true,
      "inputs": [],
      "name": "_amount",
      "outputs": [
        {
          "internalType": "uint256",
          "name": "",
          "type": "uint256"
        }
      ],
      "payable": false,
      "stateMutability": "view",
      "type": "function"
    },
    {
      "constant": true,
      "inputs": [],
      "name": "_vault",
      "outputs": [
        {
          "internalType": "address payable",
          "name": "",
          "type": "address"
        }
      ],
      "payable": false,
      "stateMutability": "view",
      "type": "function"
    },
    {
      "constant": true,
      "inputs": [],
      "name": "dydx",
      "outputs": [
        {
          "internalType": "address",
          "name": "",
          "type": "address"
        }
      ],
      "payable": false,
      "stateMutability": "view",
      "type": "function"
    },
    {
      "constant": true,
      "inputs": [],
      "name": "isOwner",
      "outputs": [
        {
          "internalType": "bool",
          "name": "",
          "type": "bool"
        }
      ],
      "payable": false,
      "stateMutability": "view",
      "type": "function"
    },
    {
      "constant": true,
      "inputs": [],
      "name": "oCRV",
      "outputs": [
        {
          "internalType": "address",
          "name": "",
          "type": "address"
        }
      ],
      "payable": false,
      "stateMutability": "view",
      "type": "function"
    },
    {
      "constant": true,
      "inputs": [],
      "name": "owner",
      "outputs": [
        {
          "internalType": "address",
          "name": "",
          "type": "address"
        }
      ],
      "payable": false,
      "stateMutability": "view",
      "type": "function"
    },
    {
      "constant": false,
      "inputs": [],
      "name": "renounceOwnership",
      "outputs": [],
      "payable": false,
      "stateMutability": "nonpayable",
      "type": "function"
    },
    {
      "constant": false,
      "inputs": [
        {
          "internalType": "address",
          "name": "newOwner",
          "type": "address"
        }
      ],
      "name": "transferOwnership",
      "outputs": [],
      "payable": false,
      "stateMutability": "nonpayable",
      "type": "function"
    },
    {
      "constant": true,
      "inputs": [],
      "name": "weth",
      "outputs": [
        {
          "internalType": "address",
          "name": "",
          "type": "address"
        }
      ],
      "payable": false,
      "stateMutability": "view",
      "type": "function"
    },
    {
      "constant": false,
      "inputs": [
        {
          "internalType": "uint256",
          "name": "amount",
          "type": "uint256"
        },
        {
          "internalType": "address payable",
          "name": "vault",
          "type": "address"
        }
      ],
      "name": "liquidate",
      "outputs": [],
      "payable": false,
      "stateMutability": "nonpayable",
      "type": "function"
    },
    {
      "constant": false,
      "inputs": [
        {
          "internalType": "address",
          "name": "sender",
          "type": "address"
        },
        {
          "components": [
            {
              "internalType": "address",
              "name": "owner",
              "type": "address"
            },
            {
              "internalType": "uint256",
              "name": "number",
              "type": "uint256"
            }
          ],
          "internalType": "struct Structs.Info",
          "name": "accountInfo",
          "type": "tuple"
        },
        {
          "internalType": "bytes",
          "name": "data",
          "type": "bytes"
        }
      ],
      "name": "callFunction",
      "outputs": [],
      "payable": false,
      "stateMutability": "nonpayable",
      "type": "function"
    },
    {
      "constant": false,
      "inputs": [
        {
          "internalType": "contract IERC20",
          "name": "_TokenAddress",
          "type": "address"
        }
      ],
      "name": "inCaseTokenGetsStuck",
      "outputs": [],
      "payable": false,
      "stateMutability": "nonpayable",
      "type": "function"
    },
    {
      "constant": false,
      "inputs": [],
      "name": "inCaseETHGetsStuck",
      "outputs": [],
      "payable": false,
      "stateMutability": "nonpayable",
      "type": "function"
    }
  ],
  "bytecode": "0x608060405234801561001057600080fd5b5060016000819055506100276101e860201b60201c565b600160006101000a81548173ffffffffffffffffffffffffffffffffffffffff021916908373ffffffffffffffffffffffffffffffffffffffff160217905550600160009054906101000a900473ffffffffffffffffffffffffffffffffffffffff1673ffffffffffffffffffffffffffffffffffffffff16600073ffffffffffffffffffffffffffffffffffffffff167f8be0079c531659141344cd1fd0a4f28419497f9722a3daafe3b4186f6b6457e060405160405180910390a3731e0447b19bb6ecfdae1e4ae1694b0c3659614e4e600260006101000a81548173ffffffffffffffffffffffffffffffffffffffff021916908373ffffffffffffffffffffffffffffffffffffffff160217905550734ba8c6ce0e855c051e65dfc37883360efaf7c82b600360006101000a81548173ffffffffffffffffffffffffffffffffffffffff021916908373ffffffffffffffffffffffffffffffffffffffff16021790555073c02aaa39b223fe8d0a0e5c4f27ead9083c756cc2600460006101000a81548173ffffffffffffffffffffffffffffffffffffffff021916908373ffffffffffffffffffffffffffffffffffffffff1602179055506101f0565b600033905090565b61266b806101ff6000396000f3fe6080604052600436106100c25760003560e01c80638da5cb5b1161007f5780639887f180116100595780639887f1801461022d578063f2fde38b14610258578063f60a15ed14610281578063fd243da314610298576100c2565b80638da5cb5b146101ac5780638e4ec6ef146101d75780638f32d59b14610202576100c2565b80631aecf619146100c45780632e8d6e18146100ef5780633fc8cef3146101185780635fae8b3d14610143578063715018a61461016c5780638b41871314610183575b005b3480156100d057600080fd5b506100d96102c3565b6040516100e69190612069565b60405180910390f35b3480156100fb57600080fd5b5061011660048036036101119190810190611956565b6102e9565b005b34801561012457600080fd5b5061012d6103ec565b60405161013a9190612069565b60405180910390f35b34801561014f57600080fd5b5061016a600480360361016591908101906119a8565b610412565b005b34801561017857600080fd5b50610181610810565b005b34801561018f57600080fd5b506101aa60048036036101a591908101906118c6565b610918565b005b3480156101b857600080fd5b506101c1610ebc565b6040516101ce9190612069565b60405180910390f35b3480156101e357600080fd5b506101ec610ee6565b6040516101f99190612069565b60405180910390f35b34801561020e57600080fd5b50610217610f0c565b6040516102249190612143565b60405180910390f35b34801561023957600080fd5b50610242610f6b565b60405161024f91906122bb565b60405180910390f35b34801561026457600080fd5b5061027f600480360361027a919081019061189d565b610f71565b005b34801561028d57600080fd5b50610296610fc4565b005b3480156102a457600080fd5b506102ad6110d1565b6040516102ba919061209f565b60405180910390f35b600360009054906101000a900473ffffffffffffffffffffffffffffffffffffffff1681565b6102f1610f0c565b610330576040517f08c379a00000000000000000000000000000000000000000000000000000000081526004016103279061223b565b60405180910390fd5b60008173ffffffffffffffffffffffffffffffffffffffff166370a08231306040518263ffffffff1660e01b815260040161036b9190612084565b60206040518083038186803b15801561038357600080fd5b505afa158015610397573d6000803e3d6000fd5b505050506040513d601f19601f820116820180604052506103bb919081019061197f565b90506103e833828473ffffffffffffffffffffffffffffffffffffffff166110f79092919063ffffffff16565b5050565b600460009054906101000a900473ffffffffffffffffffffffffffffffffffffffff1681565b80600560006101000a81548173ffffffffffffffffffffffffffffffffffffffff021916908373ffffffffffffffffffffffffffffffffffffffff160217905550816006819055506060600160405190808252806020026020018201604052801561049757816020015b6104846115fb565b81526020019060019003908161047c5790505b509050606060036040519080825280602002602001820160405280156104d757816020015b6104c461162b565b8152602001906001900390816104bc5790505b50905060405180604001604052803073ffffffffffffffffffffffffffffffffffffffff16815260200160008152508260008151811061051357fe5b6020026020010181905250610526611697565b604051806080016040528060001515815260200160008081111561054657fe5b815260200160008081111561055757fe5b815260200186815250905061056a6116d5565b60018160000190600881111561057c57fe5b9081600881111561058957fe5b8152505060008160200181815250508181604001819052506000816060018181525050308160a0019073ffffffffffffffffffffffffffffffffffffffff16908173ffffffffffffffffffffffffffffffffffffffff168152505080836000815181106105f257fe5b60200260200101819052506106056116d5565b60088160000190600881111561061757fe5b9081600881111561062457fe5b815250506000816020018181525050308160a0019073ffffffffffffffffffffffffffffffffffffffff16908173ffffffffffffffffffffffffffffffffffffffff1681525050808460018151811061067957fe5b602002602001018190525061068c6116d5565b610694611697565b60405180608001604052806001151581526020016000808111156106b457fe5b81526020016000808111156106c557fe5b81526020016106de60018c61119690919063ffffffff16565b81525090506000826000019060088111156106f557fe5b9081600881111561070257fe5b8152505060008260200181815250508082604001819052506000826060018181525050308260a0019073ffffffffffffffffffffffffffffffffffffffff16908173ffffffffffffffffffffffffffffffffffffffff1681525050818660028151811061076b57fe5b6020026020010181905250600260009054906101000a900473ffffffffffffffffffffffffffffffffffffffff1673ffffffffffffffffffffffffffffffffffffffff1663a67a6a4588886040518363ffffffff1660e01b81526004016107d392919061210c565b600060405180830381600087803b1580156107ed57600080fd5b505af1158015610801573d6000803e3d6000fd5b50505050505050505050505050565b610818610f0c565b610857576040517f08c379a000000000000000000000000000000000000000000000000000000000815260040161084e9061223b565b60405180910390fd5b600073ffffffffffffffffffffffffffffffffffffffff16600160009054906101000a900473ffffffffffffffffffffffffffffffffffffffff1673ffffffffffffffffffffffffffffffffffffffff167f8be0079c531659141344cd1fd0a4f28419497f9722a3daafe3b4186f6b6457e060405160405180910390a36000600160006101000a81548173ffffffffffffffffffffffffffffffffffffffff021916908373ffffffffffffffffffffffffffffffffffffffff160217905550565b6000600360009054906101000a900473ffffffffffffffffffffffffffffffffffffffff1690508073ffffffffffffffffffffffffffffffffffffffff1663cdb4b5c2600560009054906101000a900473ffffffffffffffffffffffffffffffffffffffff166040518263ffffffff1660e01b815260040161099a919061209f565b60206040518083038186803b1580156109b257600080fd5b505afa1580156109c6573d6000803e3d6000fd5b505050506040513d601f19601f820116820180604052506109ea919081019061192d565b610a29576040517f08c379a0000000000000000000000000000000000000000000000000000000008152600401610a209061225b565b60405180910390fd5b600460009054906101000a900473ffffffffffffffffffffffffffffffffffffffff1673ffffffffffffffffffffffffffffffffffffffff16632e1a7d4d6006546040518263ffffffff1660e01b8152600401610a8691906122bb565b600060405180830381600087803b158015610aa057600080fd5b505af1158015610ab4573d6000803e3d6000fd5b5050505060008173ffffffffffffffffffffffffffffffffffffffff1663686c1e21670de0b6b3a76400006040518263ffffffff1660e01b8152600401610afb919061215e565b60206040518083038186803b158015610b1357600080fd5b505afa158015610b27573d6000803e3d6000fd5b505050506040513d601f19601f82011682018060405250610b4b919081019061197f565b905060008273ffffffffffffffffffffffffffffffffffffffff1663dec44c0b600560009054906101000a900473ffffffffffffffffffffffffffffffffffffffff166040518263ffffffff1660e01b8152600401610baa919061209f565b60206040518083038186803b158015610bc257600080fd5b505afa158015610bd6573d6000803e3d6000fd5b505050506040513d601f19601f82011682018060405250610bfa919081019061197f565b90506000610c2b83610c1d670de0b6b3a7640000856111eb90919063ffffffff16565b61125b90919063ffffffff16565b90508373ffffffffffffffffffffffffffffffffffffffff16630d453efb306040518263ffffffff1660e01b8152600401610c669190612084565b602060405180830381600087803b158015610c8057600080fd5b505af1158015610c94573d6000803e3d6000fd5b505050506040513d601f19601f82011682018060405250610cb8919081019061192d565b15610d30578373ffffffffffffffffffffffffffffffffffffffff1663b96661ba8284306040518463ffffffff1660e01b8152600401610cf99291906122d6565b6000604051808303818588803b158015610d1257600080fd5b505af1158015610d26573d6000803e3d6000fd5b5050505050610d9f565b8373ffffffffffffffffffffffffffffffffffffffff1663ed1f41c38284306040518463ffffffff1660e01b8152600401610d6c9291906122d6565b6000604051808303818588803b158015610d8557600080fd5b505af1158015610d99573d6000803e3d6000fd5b50505050505b8373ffffffffffffffffffffffffffffffffffffffff1663bcbaf487600560009054906101000a900473ffffffffffffffffffffffffffffffffffffffff16846040518363ffffffff1660e01b8152600401610dfc9291906120ba565b600060405180830381600087803b158015610e1657600080fd5b505af1158015610e2a573d6000803e3d6000fd5b50505050600460009054906101000a900473ffffffffffffffffffffffffffffffffffffffff1673ffffffffffffffffffffffffffffffffffffffff1663d0e30db06006546040518263ffffffff1660e01b81526004016000604051808303818588803b158015610e9a57600080fd5b505af1158015610eae573d6000803e3d6000fd5b505050505050505050505050565b6000600160009054906101000a900473ffffffffffffffffffffffffffffffffffffffff16905090565b600260009054906101000a900473ffffffffffffffffffffffffffffffffffffffff1681565b6000600160009054906101000a900473ffffffffffffffffffffffffffffffffffffffff1673ffffffffffffffffffffffffffffffffffffffff16610f4f6112a5565b73ffffffffffffffffffffffffffffffffffffffff1614905090565b60065481565b610f79610f0c565b610fb8576040517f08c379a0000000000000000000000000000000000000000000000000000000008152600401610faf9061223b565b60405180910390fd5b610fc1816112ad565b50565b610fcc610f0c565b61100b576040517f08c379a00000000000000000000000000000000000000000000000000000000081526004016110029061223b565b60405180910390fd5b60003373ffffffffffffffffffffffffffffffffffffffff163073ffffffffffffffffffffffffffffffffffffffff163160405161104890612054565b60006040518083038185875af1925050503d8060008114611085576040519150601f19603f3d011682016040523d82523d6000602084013e61108a565b606091505b50509050806110ce576040517f08c379a00000000000000000000000000000000000000000000000000000000081526004016110c5906121fb565b60405180910390fd5b50565b600560009054906101000a900473ffffffffffffffffffffffffffffffffffffffff1681565b611191838473ffffffffffffffffffffffffffffffffffffffff1663a9059cbb905060e01b848460405160240161112f9291906120e3565b604051602081830303815290604052907bffffffffffffffffffffffffffffffffffffffffffffffffffffffff19166020820180517bffffffffffffffffffffffffffffffffffffffffffffffffffffffff83818316178352505050506113dd565b505050565b6000808284019050838110156111e1576040517f08c379a00000000000000000000000000000000000000000000000000000000081526004016111d8906121bb565b60405180910390fd5b8091505092915050565b6000808314156111fe5760009050611255565b600082840290508284828161120f57fe5b0414611250576040517f08c379a00000000000000000000000000000000000000000000000000000000081526004016112479061221b565b60405180910390fd5b809150505b92915050565b600061129d83836040518060400160405280601a81526020017f536166654d6174683a206469766973696f6e206279207a65726f00000000000081525061154f565b905092915050565b600033905090565b600073ffffffffffffffffffffffffffffffffffffffff168173ffffffffffffffffffffffffffffffffffffffff16141561131d576040517f08c379a00000000000000000000000000000000000000000000000000000000081526004016113149061219b565b60405180910390fd5b8073ffffffffffffffffffffffffffffffffffffffff16600160009054906101000a900473ffffffffffffffffffffffffffffffffffffffff1673ffffffffffffffffffffffffffffffffffffffff167f8be0079c531659141344cd1fd0a4f28419497f9722a3daafe3b4186f6b6457e060405160405180910390a380600160006101000a81548173ffffffffffffffffffffffffffffffffffffffff021916908373ffffffffffffffffffffffffffffffffffffffff16021790555050565b6113fc8273ffffffffffffffffffffffffffffffffffffffff166115b0565b61143b576040517f08c379a00000000000000000000000000000000000000000000000000000000081526004016114329061229b565b60405180910390fd5b600060608373ffffffffffffffffffffffffffffffffffffffff1683604051611464919061203d565b6000604051808303816000865af19150503d80600081146114a1576040519150601f19603f3d011682016040523d82523d6000602084013e6114a6565b606091505b5091509150816114eb576040517f08c379a00000000000000000000000000000000000000000000000000000000081526004016114e2906121db565b60405180910390fd5b6000815111156115495780806020019051611509919081019061192d565b611548576040517f08c379a000000000000000000000000000000000000000000000000000000000815260040161153f9061227b565b60405180910390fd5b5b50505050565b60008083118290611596576040517f08c379a000000000000000000000000000000000000000000000000000000000815260040161158d9190612179565b60405180910390fd5b5060008385816115a257fe5b049050809150509392505050565b60008060007fc5d2460186f7233c927e7db2dcc703c0e500b653ca82273b7bfad8045d85a47060001b9050833f91506000801b82141580156115f25750808214155b92505050919050565b6040518060400160405280600073ffffffffffffffffffffffffffffffffffffffff168152602001600081525090565b6040518061010001604052806000600881111561164457fe5b815260200160008152602001611658611741565b81526020016000815260200160008152602001600073ffffffffffffffffffffffffffffffffffffffff16815260200160008152602001606081525090565b60405180608001604052806000151581526020016000808111156116b757fe5b81526020016000808111156116c857fe5b8152602001600081525090565b604051806101000160405280600060088111156116ee57fe5b815260200160008152602001611702611741565b81526020016000815260200160008152602001600073ffffffffffffffffffffffffffffffffffffffff16815260200160008152602001606081525090565b604051806080016040528060001515815260200160008081111561176157fe5b815260200160008081111561177257fe5b8152602001600081525090565b60008135905061178e816125b5565b92915050565b6000813590506117a3816125cc565b92915050565b6000815190506117b8816125e3565b92915050565b600082601f8301126117cf57600080fd5b81356117e26117dd8261232c565b6122ff565b915080825260208301602083018583830111156117fe57600080fd5b61180983828461253b565b50505092915050565b600081359050611821816125fa565b92915050565b60006040828403121561183957600080fd5b61184360406122ff565b905060006118538482850161177f565b600083015250602061186784828501611873565b60208301525092915050565b60008135905061188281612611565b92915050565b60008151905061189781612611565b92915050565b6000602082840312156118af57600080fd5b60006118bd8482850161177f565b91505092915050565b6000806000608084860312156118db57600080fd5b60006118e98682870161177f565b93505060206118fa86828701611827565b925050606084013567ffffffffffffffff81111561191757600080fd5b611923868287016117be565b9150509250925092565b60006020828403121561193f57600080fd5b600061194d848285016117a9565b91505092915050565b60006020828403121561196857600080fd5b600061197684828501611812565b91505092915050565b60006020828403121561199157600080fd5b600061199f84828501611888565b91505092915050565b600080604083850312156119bb57600080fd5b60006119c985828601611873565b92505060206119da85828601611794565b9150509250929050565b60006119f08383611ee8565b905092915050565b6000611a048383611ff0565b60408301905092915050565b611a19816124bd565b82525050565b611a288161242a565b82525050565b611a3781612418565b82525050565b611a4681612418565b82525050565b6000611a5782612378565b611a6181856123c9565b935083602082028501611a7385612358565b8060005b85811015611aaf5784840389528151611a9085826119e4565b9450611a9b836123af565b925060208a01995050600181019050611a77565b50829750879550505050505092915050565b6000611acc82612383565b611ad681856123da565b9350611ae183612368565b8060005b83811015611b12578151611af988826119f8565b9750611b04836123bc565b925050600181019050611ae5565b5085935050505092915050565b611b288161243c565b82525050565b611b378161243c565b82525050565b6000611b4882612399565b611b5281856123fc565b9350611b6281856020860161254a565b80840191505092915050565b6000611b798261238e565b611b8381856123eb565b9350611b9381856020860161254a565b611b9c8161257d565b840191505092915050565b611bb0816124cf565b82525050565b611bbf816124e1565b82525050565b611bce816124f3565b82525050565b611bdd81612505565b82525050565b6000611bee826123a4565b611bf88185612407565b9350611c0881856020860161254a565b611c118161257d565b840191505092915050565b6000611c29602683612407565b91507f4f776e61626c653a206e6577206f776e657220697320746865207a65726f206160008301527f64647265737300000000000000000000000000000000000000000000000000006020830152604082019050919050565b6000611c8f601b83612407565b91507f536166654d6174683a206164646974696f6e206f766572666c6f7700000000006000830152602082019050919050565b6000611ccf602083612407565b91507f5361666545524332303a206c6f772d6c6576656c2063616c6c206661696c65646000830152602082019050919050565b6000611d0f601683612407565b91507f7472616e73666572206f6620455448206661696c6564000000000000000000006000830152602082019050919050565b6000611d4f602183612407565b91507f536166654d6174683a206d756c7469706c69636174696f6e206f766572666c6f60008301527f77000000000000000000000000000000000000000000000000000000000000006020830152604082019050919050565b6000611db5602083612407565b91507f4f776e61626c653a2063616c6c6572206973206e6f7420746865206f776e65726000830152602082019050919050565b6000611df5601d83612407565b91507f63616e6e6f74206c697175696461746520612073616665207661756c740000006000830152602082019050919050565b6000611e356000836123fc565b9150600082019050919050565b6000611e4f602a83612407565b91507f5361666545524332303a204552433230206f7065726174696f6e20646964206e60008301527f6f742073756363656564000000000000000000000000000000000000000000006020830152604082019050919050565b6000611eb5601f83612407565b91507f5361666545524332303a2063616c6c20746f206e6f6e2d636f6e7472616374006000830152602082019050919050565b600061016083016000830151611f016000860182611ba7565b506020830151611f14602086018261201f565b506040830151611f276040860182611f9b565b506060830151611f3a60c086018261201f565b506080830151611f4d60e086018261201f565b5060a0830151611f61610100860182611a2e565b5060c0830151611f7561012086018261201f565b5060e0830151848203610140860152611f8e8282611b6e565b9150508091505092915050565b608082016000820151611fb16000850182611b1f565b506020820151611fc46020850182611bb6565b506040820151611fd76040850182611bc5565b506060820151611fea606085018261201f565b50505050565b6040820160008201516120066000850182611a2e565b506020820151612019602085018261201f565b50505050565b612028816124b3565b82525050565b612037816124b3565b82525050565b60006120498284611b3d565b915081905092915050565b600061205f82611e28565b9150819050919050565b600060208201905061207e6000830184611a3d565b92915050565b60006020820190506120996000830184611a10565b92915050565b60006020820190506120b46000830184611a1f565b92915050565b60006040820190506120cf6000830185611a1f565b6120dc602083018461202e565b9392505050565b60006040820190506120f86000830185611a3d565b612105602083018461202e565b9392505050565b600060408201905081810360008301526121268185611ac1565b9050818103602083015261213a8184611a4c565b90509392505050565b60006020820190506121586000830184611b2e565b92915050565b60006020820190506121736000830184611bd4565b92915050565b600060208201905081810360008301526121938184611be3565b905092915050565b600060208201905081810360008301526121b481611c1c565b9050919050565b600060208201905081810360008301526121d481611c82565b9050919050565b600060208201905081810360008301526121f481611cc2565b9050919050565b6000602082019050818103600083015261221481611d02565b9050919050565b6000602082019050818103600083015261223481611d42565b9050919050565b6000602082019050818103600083015261225481611da8565b9050919050565b6000602082019050818103600083015261227481611de8565b9050919050565b6000602082019050818103600083015261229481611e42565b9050919050565b600060208201905081810360008301526122b481611ea8565b9050919050565b60006020820190506122d0600083018461202e565b92915050565b60006040820190506122eb600083018561202e565b6122f86020830184611a10565b9392505050565b6000604051905081810181811067ffffffffffffffff8211171561232257600080fd5b8060405250919050565b600067ffffffffffffffff82111561234357600080fd5b601f19601f8301169050602081019050919050565b6000819050602082019050919050565b6000819050602082019050919050565b600081519050919050565b600081519050919050565b600081519050919050565b600081519050919050565b600081519050919050565b6000602082019050919050565b6000602082019050919050565b600082825260208201905092915050565b600082825260208201905092915050565b600082825260208201905092915050565b600081905092915050565b600082825260208201905092915050565b600061242382612493565b9050919050565b600061243582612493565b9050919050565b60008115159050919050565b600061245382612418565b9050919050565b60008190506124688261258e565b919050565b600081905061247b8261259b565b919050565b600081905061248e826125a8565b919050565b600073ffffffffffffffffffffffffffffffffffffffff82169050919050565b6000819050919050565b60006124c882612517565b9050919050565b60006124da8261245a565b9050919050565b60006124ec8261246d565b9050919050565b60006124fe82612480565b9050919050565b6000612510826124b3565b9050919050565b600061252282612529565b9050919050565b600061253482612493565b9050919050565b82818337600083830152505050565b60005b8381101561256857808201518184015260208101905061254d565b83811115612577576000848401525b50505050565b6000601f19601f8301169050919050565b6009811061259857fe5b50565b600181106125a557fe5b50565b600181106125b257fe5b50565b6125be81612418565b81146125c957600080fd5b50565b6125d58161242a565b81146125e057600080fd5b50565b6125ec8161243c565b81146125f757600080fd5b50565b61260381612448565b811461260e57600080fd5b50565b61261a816124b3565b811461262557600080fd5b5056fea365627a7a723158206c5f44e86441d9f2e6044e4c56a965eb12b5a7d6552f78f29a83f54cce1c24266c6578706572696d656e74616cf564736f6c634300050c0040",
  "source": "pragma solidity ^0.5.0;\npragma experimental ABIEncoderV2;\n\ninterface IERC20 {\n    function totalSupply() external view returns (uint256);\n    function balanceOf(address account) external view returns (uint256);\n    function transfer(address recipient, uint256 amount) external returns (bool);\n    function allowance(address owner, address spender) external view returns (uint256);\n    function approve(address spender, uint256 amount) external returns (bool);\n    function transferFrom(address sender, address recipient, uint256 amount) external returns (bool);\n    event Transfer(address indexed from, address indexed to, uint256 value);\n    event Approval(address indexed owner, address indexed spender, uint256 value);\n}\n\ncontract Context {\n    constructor () internal { }\n    // solhint-disable-previous-line no-empty-blocks\n\n    function _msgSender() internal view returns (address payable) {\n        return msg.sender;\n    }\n\n    function _msgData() internal view returns (bytes memory) {\n        this; // silence state mutability warning without generating bytecode - see https://github.com/ethereum/solidity/issues/2691\n        return msg.data;\n    }\n}\n\ncontract ReentrancyGuard {\n    uint256 private _guardCounter;\n\n    constructor () internal {\n        _guardCounter = 1;\n    }\n\n    modifier nonReentrant() {\n        _guardCounter += 1;\n        uint256 localCounter = _guardCounter;\n        _;\n        require(localCounter == _guardCounter, \"ReentrancyGuard: reentrant call\");\n    }\n}\n\ncontract Ownable is Context {\n    address private _owner;\n\n    event OwnershipTransferred(address indexed previousOwner, address indexed newOwner);\n    constructor () internal {\n        _owner = _msgSender();\n        emit OwnershipTransferred(address(0), _owner);\n    }\n    function owner() public view returns (address) {\n        return _owner;\n    }\n    modifier onlyOwner() {\n        require(isOwner(), \"Ownable: caller is not the owner\");\n        _;\n    }\n    function isOwner() public view returns (bool) {\n        return _msgSender() == _owner;\n    }\n    function renounceOwnership() public onlyOwner {\n        emit OwnershipTransferred(_owner, address(0));\n        _owner = address(0);\n    }\n    function transferOwnership(address newOwner) public onlyOwner {\n        _transferOwnership(newOwner);\n    }\n    function _transferOwnership(address newOwner) internal {\n        require(newOwner != address(0), \"Ownable: new owner is the zero address\");\n        emit OwnershipTransferred(_owner, newOwner);\n        _owner = newOwner;\n    }\n}\n\nlibrary SafeMath {\n    function add(uint256 a, uint256 b) internal pure returns (uint256) {\n        uint256 c = a + b;\n        require(c >= a, \"SafeMath: addition overflow\");\n\n        return c;\n    }\n    function sub(uint256 a, uint256 b) internal pure returns (uint256) {\n        return sub(a, b, \"SafeMath: subtraction overflow\");\n    }\n    function sub(uint256 a, uint256 b, string memory errorMessage) internal pure returns (uint256) {\n        require(b <= a, errorMessage);\n        uint256 c = a - b;\n\n        return c;\n    }\n    function mul(uint256 a, uint256 b) internal pure returns (uint256) {\n        if (a == 0) {\n            return 0;\n        }\n\n        uint256 c = a * b;\n        require(c / a == b, \"SafeMath: multiplication overflow\");\n\n        return c;\n    }\n    function div(uint256 a, uint256 b) internal pure returns (uint256) {\n        return div(a, b, \"SafeMath: division by zero\");\n    }\n    function div(uint256 a, uint256 b, string memory errorMessage) internal pure returns (uint256) {\n        // Solidity only automatically asserts when dividing by 0\n        require(b > 0, errorMessage);\n        uint256 c = a / b;\n\n        return c;\n    }\n    function mod(uint256 a, uint256 b) internal pure returns (uint256) {\n        return mod(a, b, \"SafeMath: modulo by zero\");\n    }\n    function mod(uint256 a, uint256 b, string memory errorMessage) internal pure returns (uint256) {\n        require(b != 0, errorMessage);\n        return a % b;\n    }\n}\n\nlibrary Address {\n    function isContract(address account) internal view returns (bool) {\n        bytes32 codehash;\n        bytes32 accountHash = 0xc5d2460186f7233c927e7db2dcc703c0e500b653ca82273b7bfad8045d85a470;\n        // solhint-disable-next-line no-inline-assembly\n        assembly { codehash := extcodehash(account) }\n        return (codehash != 0x0 && codehash != accountHash);\n    }\n    function toPayable(address account) internal pure returns (address payable) {\n        return address(uint160(account));\n    }\n    function sendValue(address payable recipient, uint256 amount) internal {\n        require(address(this).balance >= amount, \"Address: insufficient balance\");\n\n        // solhint-disable-next-line avoid-call-value\n        (bool success, ) = recipient.call.value(amount)(\"\");\n        require(success, \"Address: unable to send value, recipient may have reverted\");\n    }\n}\n\nlibrary SafeERC20 {\n    using SafeMath for uint256;\n    using Address for address;\n\n    function safeTransfer(IERC20 token, address to, uint256 value) internal {\n        callOptionalReturn(token, abi.encodeWithSelector(token.transfer.selector, to, value));\n    }\n    function safeTransferFrom(IERC20 token, address from, address to, uint256 value) internal {\n        callOptionalReturn(token, abi.encodeWithSelector(token.transferFrom.selector, from, to, value));\n    }\n    function safeApprove(IERC20 token, address spender, uint256 value) internal {\n        require((value == 0) || (token.allowance(address(this), spender) == 0),\n            \"SafeERC20: approve from non-zero to non-zero allowance\"\n        );\n        callOptionalReturn(token, abi.encodeWithSelector(token.approve.selector, spender, value));\n    }\n    function callOptionalReturn(IERC20 token, bytes memory data) private {\n        require(address(token).isContract(), \"SafeERC20: call to non-contract\");\n\n        // solhint-disable-next-line avoid-low-level-calls\n        (bool success, bytes memory returndata) = address(token).call(data);\n        require(success, \"SafeERC20: low-level call failed\");\n\n        if (returndata.length > 0) { // Return data is optional\n            // solhint-disable-next-line max-line-length\n            require(abi.decode(returndata, (bool)), \"SafeERC20: ERC20 operation did not succeed\");\n        }\n    }\n}\n\ninterface OptionsContract {\n    function liquidate(address payable vaultOwner, uint256 oTokensToLiquidate) external;\n    function maxOTokensLiquidatable(address payable vaultOwner) external view returns (uint256);\n    function isUnsafe(address payable vaultOwner) external view returns (bool);\n    function approve(address spender, uint256 amount) external returns (bool);\n    function hasVault(address owner) external returns (bool);\n    function balanceOf(address owner) external view returns (uint256);\n    function maxOTokensIssuable(uint256 _amount) external view returns (uint256);\n    function addETHCollateralOption(uint256 tokensToMint, address receiver) external payable;\n    function createETHCollateralOption(uint256 tokensToMint, address receiver) external payable;\n}\n\ninterface WETH {\n  function withdraw(uint256 amount) external;\n  function deposit() external payable;\n}\n\ncontract Structs {\n    struct Val {\n        uint256 value;\n    }\n\n    enum ActionType {\n      Deposit,   // supply tokens\n      Withdraw,  // borrow tokens\n      Transfer,  // transfer balance between accounts\n      Buy,       // buy an amount of some token (externally)\n      Sell,      // sell an amount of some token (externally)\n      Trade,     // trade tokens against another account\n      Liquidate, // liquidate an undercollateralized or expiring account\n      Vaporize,  // use excess tokens to zero-out a completely negative account\n      Call       // send arbitrary data to an address\n    }\n\n    enum AssetDenomination {\n        Wei // the amount is denominated in wei\n    }\n\n    enum AssetReference {\n        Delta // the amount is given as a delta from the current value\n    }\n\n    struct AssetAmount {\n        bool sign; // true if positive\n        AssetDenomination denomination;\n        AssetReference ref;\n        uint256 value;\n    }\n\n    struct ActionArgs {\n        ActionType actionType;\n        uint256 accountId;\n        AssetAmount amount;\n        uint256 primaryMarketId;\n        uint256 secondaryMarketId;\n        address otherAddress;\n        uint256 otherAccountId;\n        bytes data;\n    }\n\n    struct Info {\n        address owner;  // The address that owns the account\n        uint256 number; // A nonce that allows a single address to control many accounts\n    }\n\n    struct Wei {\n        bool sign; // true if positive\n        uint256 value;\n    }\n}\n\ncontract DyDx is Structs {\n    function getAccountWei(Info memory account, uint256 marketId) public view returns (Wei memory);\n    function operate(Info[] memory, ActionArgs[] memory) public;\n}\n\n\ncontract CurveFlash is ReentrancyGuard, Ownable, Structs {\n  using SafeERC20 for IERC20;\n  using Address for address;\n  using SafeMath for uint256;\n\n  address public dydx;\n  address public oCRV;\n  address public weth;\n  address payable public _vault;\n  uint256 public _amount;\n\n  constructor () public {\n    dydx = address(0x1E0447b19BB6EcFdAe1e4AE1694b0C3659614e4e);\n    oCRV = address(0x4BA8C6Ce0e855C051e65DfC37883360efAf7c82B);\n    weth = address(0xC02aaA39b223FE8D0A0e5C4F27eAD9083C756Cc2);\n  }\n\n  function liquidate(uint256 amount, address payable vault) public {\n    _vault = vault;\n    _amount = amount;\n\n    Info[] memory infos = new Info[](1);\n    ActionArgs[] memory args = new ActionArgs[](3);\n\n    infos[0] = Info(address(this), 0);\n\n    AssetAmount memory wamt = AssetAmount(false, AssetDenomination.Wei, AssetReference.Delta, amount);\n    ActionArgs memory withdraw;\n    withdraw.actionType = ActionType.Withdraw;\n    withdraw.accountId = 0;\n    withdraw.amount = wamt;\n    withdraw.primaryMarketId = 0;\n    withdraw.otherAddress = address(this);\n\n    args[0] = withdraw;\n\n    ActionArgs memory call;\n    call.actionType = ActionType.Call;\n    call.accountId = 0;\n    call.otherAddress = address(this);\n\n    args[1] = call;\n\n    ActionArgs memory deposit;\n    AssetAmount memory damt = AssetAmount(true, AssetDenomination.Wei, AssetReference.Delta, amount.add(1));\n    deposit.actionType = ActionType.Deposit;\n    deposit.accountId = 0;\n    deposit.amount = damt;\n    deposit.primaryMarketId = 0;\n    deposit.otherAddress = address(this);\n\n    args[2] = deposit;\n\n    DyDx(dydx).operate(infos, args);\n  }\n\n  function callFunction(\n      address sender,\n      Info memory accountInfo,\n      bytes memory data\n  ) public {\n    OptionsContract oToken = OptionsContract(oCRV);\n    require(oToken.isUnsafe(_vault), 'cannot liquidate a safe vault');\n\n    WETH(weth).withdraw(_amount);\n\n    uint256 tokensPerETH = oToken.maxOTokensIssuable(1e18);\n    uint256 maxToLiquidate = oToken.maxOTokensLiquidatable(_vault); //100 * 1e15\n    uint256 ethRequired = maxToLiquidate.mul(1e18).div(tokensPerETH);\n    if (oToken.hasVault(address(this))) {\n      oToken.addETHCollateralOption.value(ethRequired)(maxToLiquidate, address(this));\n    } else {\n      oToken.createETHCollateralOption.value(ethRequired)(maxToLiquidate, address(this));\n    }\n    oToken.liquidate(_vault, maxToLiquidate);\n\n    WETH(weth).deposit.value(_amount)();\n  }\n\n  function() external payable {\n\n  }\n\n  // incase of half-way error\n  function inCaseTokenGetsStuck(IERC20 _TokenAddress) onlyOwner public {\n      uint qty = _TokenAddress.balanceOf(address(this));\n      _TokenAddress.safeTransfer(msg.sender, qty);\n  }\n\n  // incase of half-way error\n  function inCaseETHGetsStuck() onlyOwner public{\n      (bool result, ) = msg.sender.call.value(address(this).balance)(\"\");\n      require(result, \"transfer of ETH failed\");\n  }\n}\n",
  "sourcePath": "D:/ftm/itoken/contracts/oCurveFlashLiquidate.sol",
  "compiler": {
    "name": "solc",
    "version": "0.5.12+commit.7709ece9.Emscripten.clang"
  },
  "schemaVersion": "3.0.19",
  "updatedAt": "2020-02-26T11:25:43.305Z",
  "devdoc": {
    "methods": {}
  },
  "userdoc": {
    "methods": {}
  }
}