{
  "contractName": "iDAI",
  "abi": [
    {
      "inputs": [],
      "payable": false,
      "stateMutability": "nonpayable",
      "type": "constructor"
    },
    {
      "anonymous": false,
      "inputs": [
        {
          "indexed": true,
          "internalType": "address",
          "name": "owner",
          "type": "address"
        },
        {
          "indexed": true,
          "internalType": "address",
          "name": "spender",
          "type": "address"
        },
        {
          "indexed": false,
          "internalType": "uint256",
          "name": "value",
          "type": "uint256"
        }
      ],
      "name": "Approval",
      "type": "event"
    },
    {
      "anonymous": false,
      "inputs": [
        {
          "indexed": true,
          "internalType": "address",
          "name": "previousOwner",
          "type": "address"
        },
        {
          "indexed": true,
          "internalType": "address",
          "name": "newOwner",
          "type": "address"
        }
      ],
      "name": "OwnershipTransferred",
      "type": "event"
    },
    {
      "anonymous": false,
      "inputs": [
        {
          "indexed": true,
          "internalType": "address",
          "name": "from",
          "type": "address"
        },
        {
          "indexed": true,
          "internalType": "address",
          "name": "to",
          "type": "address"
        },
        {
          "indexed": false,
          "internalType": "uint256",
          "name": "value",
          "type": "uint256"
        }
      ],
      "name": "Transfer",
      "type": "event"
    },
    {
      "payable": true,
      "stateMutability": "payable",
      "type": "fallback"
    },
    {
      "constant": true,
      "inputs": [],
      "name": "aave",
      "outputs": [
        {
          "internalType": "address",
          "name": "",
          "type": "address"
        }
      ],
      "payable": false,
      "stateMutability": "view",
      "type": "function"
    },
    {
      "constant": true,
      "inputs": [],
      "name": "aaveToken",
      "outputs": [
        {
          "internalType": "address",
          "name": "",
          "type": "address"
        }
      ],
      "payable": false,
      "stateMutability": "view",
      "type": "function"
    },
    {
      "constant": true,
      "inputs": [
        {
          "internalType": "address",
          "name": "owner",
          "type": "address"
        },
        {
          "internalType": "address",
          "name": "spender",
          "type": "address"
        }
      ],
      "name": "allowance",
      "outputs": [
        {
          "internalType": "uint256",
          "name": "",
          "type": "uint256"
        }
      ],
      "payable": false,
      "stateMutability": "view",
      "type": "function"
    },
    {
      "constant": false,
      "inputs": [
        {
          "internalType": "address",
          "name": "spender",
          "type": "address"
        },
        {
          "internalType": "uint256",
          "name": "amount",
          "type": "uint256"
        }
      ],
      "name": "approve",
      "outputs": [
        {
          "internalType": "bool",
          "name": "",
          "type": "bool"
        }
      ],
      "payable": false,
      "stateMutability": "nonpayable",
      "type": "function"
    },
    {
      "constant": true,
      "inputs": [],
      "name": "apr",
      "outputs": [
        {
          "internalType": "address",
          "name": "",
          "type": "address"
        }
      ],
      "payable": false,
      "stateMutability": "view",
      "type": "function"
    },
    {
      "constant": true,
      "inputs": [
        {
          "internalType": "address",
          "name": "account",
          "type": "address"
        }
      ],
      "name": "balanceOf",
      "outputs": [
        {
          "internalType": "uint256",
          "name": "",
          "type": "uint256"
        }
      ],
      "payable": false,
      "stateMutability": "view",
      "type": "function"
    },
    {
      "constant": true,
      "inputs": [],
      "name": "compound",
      "outputs": [
        {
          "internalType": "address",
          "name": "",
          "type": "address"
        }
      ],
      "payable": false,
      "stateMutability": "view",
      "type": "function"
    },
    {
      "constant": true,
      "inputs": [],
      "name": "dToken",
      "outputs": [
        {
          "internalType": "uint256",
          "name": "",
          "type": "uint256"
        }
      ],
      "payable": false,
      "stateMutability": "view",
      "type": "function"
    },
    {
      "constant": true,
      "inputs": [],
      "name": "decimals",
      "outputs": [
        {
          "internalType": "uint8",
          "name": "",
          "type": "uint8"
        }
      ],
      "payable": false,
      "stateMutability": "view",
      "type": "function"
    },
    {
      "constant": false,
      "inputs": [
        {
          "internalType": "address",
          "name": "spender",
          "type": "address"
        },
        {
          "internalType": "uint256",
          "name": "subtractedValue",
          "type": "uint256"
        }
      ],
      "name": "decreaseAllowance",
      "outputs": [
        {
          "internalType": "bool",
          "name": "",
          "type": "bool"
        }
      ],
      "payable": false,
      "stateMutability": "nonpayable",
      "type": "function"
    },
    {
      "constant": true,
      "inputs": [],
      "name": "dydx",
      "outputs": [
        {
          "internalType": "address",
          "name": "",
          "type": "address"
        }
      ],
      "payable": false,
      "stateMutability": "view",
      "type": "function"
    },
    {
      "constant": true,
      "inputs": [],
      "name": "fulcrum",
      "outputs": [
        {
          "internalType": "address",
          "name": "",
          "type": "address"
        }
      ],
      "payable": false,
      "stateMutability": "view",
      "type": "function"
    },
    {
      "constant": false,
      "inputs": [
        {
          "internalType": "address",
          "name": "spender",
          "type": "address"
        },
        {
          "internalType": "uint256",
          "name": "addedValue",
          "type": "uint256"
        }
      ],
      "name": "increaseAllowance",
      "outputs": [
        {
          "internalType": "bool",
          "name": "",
          "type": "bool"
        }
      ],
      "payable": false,
      "stateMutability": "nonpayable",
      "type": "function"
    },
    {
      "constant": true,
      "inputs": [],
      "name": "isOwner",
      "outputs": [
        {
          "internalType": "bool",
          "name": "",
          "type": "bool"
        }
      ],
      "payable": false,
      "stateMutability": "view",
      "type": "function"
    },
    {
      "constant": true,
      "inputs": [],
      "name": "name",
      "outputs": [
        {
          "internalType": "string",
          "name": "",
          "type": "string"
        }
      ],
      "payable": false,
      "stateMutability": "view",
      "type": "function"
    },
    {
      "constant": true,
      "inputs": [],
      "name": "owner",
      "outputs": [
        {
          "internalType": "address",
          "name": "",
          "type": "address"
        }
      ],
      "payable": false,
      "stateMutability": "view",
      "type": "function"
    },
    {
      "constant": true,
      "inputs": [],
      "name": "pool",
      "outputs": [
        {
          "internalType": "uint256",
          "name": "",
          "type": "uint256"
        }
      ],
      "payable": false,
      "stateMutability": "view",
      "type": "function"
    },
    {
      "constant": true,
      "inputs": [],
      "name": "provider",
      "outputs": [
        {
          "internalType": "enum iDAI.Lender",
          "name": "",
          "type": "uint8"
        }
      ],
      "payable": false,
      "stateMutability": "view",
      "type": "function"
    },
    {
      "constant": false,
      "inputs": [],
      "name": "renounceOwnership",
      "outputs": [],
      "payable": false,
      "stateMutability": "nonpayable",
      "type": "function"
    },
    {
      "constant": true,
      "inputs": [],
      "name": "symbol",
      "outputs": [
        {
          "internalType": "string",
          "name": "",
          "type": "string"
        }
      ],
      "payable": false,
      "stateMutability": "view",
      "type": "function"
    },
    {
      "constant": true,
      "inputs": [],
      "name": "token",
      "outputs": [
        {
          "internalType": "address",
          "name": "",
          "type": "address"
        }
      ],
      "payable": false,
      "stateMutability": "view",
      "type": "function"
    },
    {
      "constant": true,
      "inputs": [],
      "name": "totalSupply",
      "outputs": [
        {
          "internalType": "uint256",
          "name": "",
          "type": "uint256"
        }
      ],
      "payable": false,
      "stateMutability": "view",
      "type": "function"
    },
    {
      "constant": false,
      "inputs": [
        {
          "internalType": "address",
          "name": "recipient",
          "type": "address"
        },
        {
          "internalType": "uint256",
          "name": "amount",
          "type": "uint256"
        }
      ],
      "name": "transfer",
      "outputs": [
        {
          "internalType": "bool",
          "name": "",
          "type": "bool"
        }
      ],
      "payable": false,
      "stateMutability": "nonpayable",
      "type": "function"
    },
    {
      "constant": false,
      "inputs": [
        {
          "internalType": "address",
          "name": "sender",
          "type": "address"
        },
        {
          "internalType": "address",
          "name": "recipient",
          "type": "address"
        },
        {
          "internalType": "uint256",
          "name": "amount",
          "type": "uint256"
        }
      ],
      "name": "transferFrom",
      "outputs": [
        {
          "internalType": "bool",
          "name": "",
          "type": "bool"
        }
      ],
      "payable": false,
      "stateMutability": "nonpayable",
      "type": "function"
    },
    {
      "constant": false,
      "inputs": [
        {
          "internalType": "address",
          "name": "newOwner",
          "type": "address"
        }
      ],
      "name": "transferOwnership",
      "outputs": [],
      "payable": false,
      "stateMutability": "nonpayable",
      "type": "function"
    },
    {
      "constant": false,
      "inputs": [
        {
          "internalType": "address",
          "name": "_new_TOKEN",
          "type": "address"
        }
      ],
      "name": "set_new_TOKEN",
      "outputs": [],
      "payable": false,
      "stateMutability": "nonpayable",
      "type": "function"
    },
    {
      "constant": false,
      "inputs": [
        {
          "internalType": "address",
          "name": "_new_AAVE",
          "type": "address"
        }
      ],
      "name": "set_new_AAVE",
      "outputs": [],
      "payable": false,
      "stateMutability": "nonpayable",
      "type": "function"
    },
    {
      "constant": false,
      "inputs": [
        {
          "internalType": "address",
          "name": "_new_DYDX",
          "type": "address"
        }
      ],
      "name": "set_new_DYDX",
      "outputs": [],
      "payable": false,
      "stateMutability": "nonpayable",
      "type": "function"
    },
    {
      "constant": false,
      "inputs": [
        {
          "internalType": "address",
          "name": "_new_APR",
          "type": "address"
        }
      ],
      "name": "set_new_APR",
      "outputs": [],
      "payable": false,
      "stateMutability": "nonpayable",
      "type": "function"
    },
    {
      "constant": false,
      "inputs": [
        {
          "internalType": "address",
          "name": "_new_FULCRUM",
          "type": "address"
        }
      ],
      "name": "set_new_FULCRUM",
      "outputs": [],
      "payable": false,
      "stateMutability": "nonpayable",
      "type": "function"
    },
    {
      "constant": false,
      "inputs": [
        {
          "internalType": "address",
          "name": "_new_ATOKEN",
          "type": "address"
        }
      ],
      "name": "set_new_ATOKEN",
      "outputs": [],
      "payable": false,
      "stateMutability": "nonpayable",
      "type": "function"
    },
    {
      "constant": false,
      "inputs": [
        {
          "internalType": "address",
          "name": "_new_COMPOUND",
          "type": "address"
        }
      ],
      "name": "set_new_COMPOUND",
      "outputs": [],
      "payable": false,
      "stateMutability": "nonpayable",
      "type": "function"
    },
    {
      "constant": true,
      "inputs": [],
      "name": "recommendName",
      "outputs": [
        {
          "internalType": "string",
          "name": "name",
          "type": "string"
        }
      ],
      "payable": false,
      "stateMutability": "view",
      "type": "function"
    },
    {
      "constant": true,
      "inputs": [],
      "name": "recommend",
      "outputs": [
        {
          "internalType": "enum iDAI.Lender",
          "name": "",
          "type": "uint8"
        }
      ],
      "payable": false,
      "stateMutability": "view",
      "type": "function"
    },
    {
      "constant": false,
      "inputs": [
        {
          "internalType": "uint256",
          "name": "amount",
          "type": "uint256"
        }
      ],
      "name": "supplyDydx",
      "outputs": [
        {
          "internalType": "uint256",
          "name": "",
          "type": "uint256"
        }
      ],
      "payable": false,
      "stateMutability": "nonpayable",
      "type": "function"
    },
    {
      "constant": false,
      "inputs": [
        {
          "internalType": "uint256",
          "name": "amount",
          "type": "uint256"
        }
      ],
      "name": "withdrawDydx",
      "outputs": [],
      "payable": false,
      "stateMutability": "nonpayable",
      "type": "function"
    },
    {
      "constant": true,
      "inputs": [],
      "name": "balance",
      "outputs": [
        {
          "internalType": "uint256",
          "name": "",
          "type": "uint256"
        }
      ],
      "payable": false,
      "stateMutability": "view",
      "type": "function"
    },
    {
      "constant": false,
      "inputs": [],
      "name": "approveToken",
      "outputs": [],
      "payable": false,
      "stateMutability": "nonpayable",
      "type": "function"
    },
    {
      "constant": true,
      "inputs": [],
      "name": "balanceDydx",
      "outputs": [
        {
          "internalType": "uint256",
          "name": "",
          "type": "uint256"
        }
      ],
      "payable": false,
      "stateMutability": "view",
      "type": "function"
    },
    {
      "constant": true,
      "inputs": [],
      "name": "balanceCompound",
      "outputs": [
        {
          "internalType": "uint256",
          "name": "",
          "type": "uint256"
        }
      ],
      "payable": false,
      "stateMutability": "view",
      "type": "function"
    },
    {
      "constant": true,
      "inputs": [],
      "name": "balanceCompoundInToken",
      "outputs": [
        {
          "internalType": "uint256",
          "name": "",
          "type": "uint256"
        }
      ],
      "payable": false,
      "stateMutability": "view",
      "type": "function"
    },
    {
      "constant": true,
      "inputs": [],
      "name": "balanceFulcrumInToken",
      "outputs": [
        {
          "internalType": "uint256",
          "name": "",
          "type": "uint256"
        }
      ],
      "payable": false,
      "stateMutability": "view",
      "type": "function"
    },
    {
      "constant": true,
      "inputs": [],
      "name": "balanceFulcrum",
      "outputs": [
        {
          "internalType": "uint256",
          "name": "",
          "type": "uint256"
        }
      ],
      "payable": false,
      "stateMutability": "view",
      "type": "function"
    },
    {
      "constant": true,
      "inputs": [],
      "name": "balanceAave",
      "outputs": [
        {
          "internalType": "uint256",
          "name": "",
          "type": "uint256"
        }
      ],
      "payable": false,
      "stateMutability": "view",
      "type": "function"
    },
    {
      "constant": false,
      "inputs": [],
      "name": "withdrawAll",
      "outputs": [],
      "payable": false,
      "stateMutability": "nonpayable",
      "type": "function"
    },
    {
      "constant": false,
      "inputs": [
        {
          "internalType": "uint256",
          "name": "_amount",
          "type": "uint256"
        }
      ],
      "name": "withdrawSome",
      "outputs": [],
      "payable": false,
      "stateMutability": "nonpayable",
      "type": "function"
    },
    {
      "constant": false,
      "inputs": [],
      "name": "rebalance",
      "outputs": [],
      "payable": false,
      "stateMutability": "nonpayable",
      "type": "function"
    },
    {
      "constant": false,
      "inputs": [
        {
          "internalType": "uint256",
          "name": "amount",
          "type": "uint256"
        }
      ],
      "name": "supplyAave",
      "outputs": [],
      "payable": false,
      "stateMutability": "nonpayable",
      "type": "function"
    },
    {
      "constant": false,
      "inputs": [
        {
          "internalType": "uint256",
          "name": "amount",
          "type": "uint256"
        }
      ],
      "name": "supplyFulcrum",
      "outputs": [],
      "payable": false,
      "stateMutability": "nonpayable",
      "type": "function"
    },
    {
      "constant": false,
      "inputs": [
        {
          "internalType": "uint256",
          "name": "amount",
          "type": "uint256"
        }
      ],
      "name": "supplyCompound",
      "outputs": [],
      "payable": false,
      "stateMutability": "nonpayable",
      "type": "function"
    },
    {
      "constant": false,
      "inputs": [
        {
          "internalType": "uint256",
          "name": "amount",
          "type": "uint256"
        }
      ],
      "name": "withdrawAave",
      "outputs": [],
      "payable": false,
      "stateMutability": "nonpayable",
      "type": "function"
    },
    {
      "constant": false,
      "inputs": [
        {
          "internalType": "uint256",
          "name": "amount",
          "type": "uint256"
        }
      ],
      "name": "withdrawFulcrum",
      "outputs": [],
      "payable": false,
      "stateMutability": "nonpayable",
      "type": "function"
    },
    {
      "constant": false,
      "inputs": [
        {
          "internalType": "uint256",
          "name": "amount",
          "type": "uint256"
        }
      ],
      "name": "withdrawCompound",
      "outputs": [],
      "payable": false,
      "stateMutability": "nonpayable",
      "type": "function"
    },
    {
      "constant": false,
      "inputs": [
        {
          "internalType": "uint256",
          "name": "_amount",
          "type": "uint256"
        }
      ],
      "name": "invest",
      "outputs": [],
      "payable": false,
      "stateMutability": "nonpayable",
      "type": "function"
    },
    {
      "constant": false,
      "inputs": [],
      "name": "investSelf",
      "outputs": [],
      "payable": false,
      "stateMutability": "nonpayable",
      "type": "function"
    },
    {
      "constant": true,
      "inputs": [],
      "name": "calcPoolValueInToken",
      "outputs": [
        {
          "internalType": "uint256",
          "name": "",
          "type": "uint256"
        }
      ],
      "payable": false,
      "stateMutability": "view",
      "type": "function"
    },
    {
      "constant": true,
      "inputs": [],
      "name": "getPricePerFullShare",
      "outputs": [
        {
          "internalType": "uint256",
          "name": "",
          "type": "uint256"
        }
      ],
      "payable": false,
      "stateMutability": "view",
      "type": "function"
    },
    {
      "constant": false,
      "inputs": [
        {
          "internalType": "uint256",
          "name": "_shares",
          "type": "uint256"
        }
      ],
      "name": "redeem",
      "outputs": [],
      "payable": false,
      "stateMutability": "nonpayable",
      "type": "function"
    },
    {
      "constant": false,
      "inputs": [
        {
          "internalType": "contract IERC20",
          "name": "_TokenAddress",
          "type": "address"
        }
      ],
      "name": "inCaseTokenGetsStuck",
      "outputs": [],
      "payable": false,
      "stateMutability": "nonpayable",
      "type": "function"
    },
    {
      "constant": false,
      "inputs": [],
      "name": "inCaseETHGetsStuck",
      "outputs": [],
      "payable": false,
      "stateMutability": "nonpayable",
      "type": "function"
    }
  ],
  "bytecode": "0x60806040526000601060146101000a81548160ff021916908360048111156200002457fe5b02179055503480156200003657600080fd5b506040518060400160405280600481526020017f69444149000000000000000000000000000000000000000000000000000000008152506040518060400160405280600481526020017f694441490000000000000000000000000000000000000000000000000000000081525060128260039080519060200190620000bd92919062000433565b508160049080519060200190620000d692919062000433565b5080600560006101000a81548160ff021916908360ff16021790555050505060016006819055506200010d6200042b60201b60201c565b600760006101000a81548173ffffffffffffffffffffffffffffffffffffffff021916908373ffffffffffffffffffffffffffffffffffffffff160217905550600760009054906101000a900473ffffffffffffffffffffffffffffffffffffffff1673ffffffffffffffffffffffffffffffffffffffff16600073ffffffffffffffffffffffffffffffffffffffff167f8be0079c531659141344cd1fd0a4f28419497f9722a3daafe3b4186f6b6457e060405160405180910390a3736b175474e89094c44da98b954eedeac495271d0f600960006101000a81548173ffffffffffffffffffffffffffffffffffffffff021916908373ffffffffffffffffffffffffffffffffffffffff160217905550739cad8ab10daa9af1a9d2b878541f41b697268eec601060006101000a81548173ffffffffffffffffffffffffffffffffffffffff021916908373ffffffffffffffffffffffffffffffffffffffff160217905550731e0447b19bb6ecfdae1e4ae1694b0c3659614e4e600e60006101000a81548173ffffffffffffffffffffffffffffffffffffffff021916908373ffffffffffffffffffffffffffffffffffffffff1602179055507324a42fd28c976a61df5d00d0599c34c4f90748c8600c60006101000a81548173ffffffffffffffffffffffffffffffffffffffff021916908373ffffffffffffffffffffffffffffffffffffffff16021790555073493c57c4763932315a328269e1adad09653b9081600b60006101000a81548173ffffffffffffffffffffffffffffffffffffffff021916908373ffffffffffffffffffffffffffffffffffffffff16021790555073fc1e690f61efd961294b3e1ce3313fbd8aa4f85d600d60006101000a81548173ffffffffffffffffffffffffffffffffffffffff021916908373ffffffffffffffffffffffffffffffffffffffff160217905550735d3a536e4d6dbd6114cc1ead35777bab948e3643600a60006101000a81548173ffffffffffffffffffffffffffffffffffffffff021916908373ffffffffffffffffffffffffffffffffffffffff1602179055506001600f81905550620004e2565b600033905090565b828054600181600116156101000203166002900490600052602060002090601f016020900481019282601f106200047657805160ff1916838001178555620004a7565b82800160010185558215620004a7579182015b82811115620004a657825182559160200191906001019062000489565b5b509050620004b69190620004ba565b5090565b620004df91905b80821115620004db576000816000905550600101620004c1565b5090565b90565b615dbb80620004f26000396000f3fe6080604052600436106103965760003560e01c806377c7b8fc116101dc578063a9de245b11610102578063dd62ed3e116100a0578063f5ff19161161006f578063f5ff191614610d08578063f60a15ed14610d31578063f69e204614610d48578063fc0c546a14610d7357610396565b8063dd62ed3e14610c4e578063e849d65914610c8b578063f2fde38b14610cb4578063f5a41dea14610cdd57610396565b8063bbf31644116100dc578063bbf3164414610ba6578063cf8ca42614610bcf578063d9d7858a14610bfa578063db006a7514610c2557610396565b8063a9de245b14610b29578063ae9b051c14610b52578063b69ef8a814610b7b57610396565b80638e4ec6ef1161017a578063a160176d11610149578063a160176d14610a59578063a457c2d714610a84578063a728797114610ac1578063a9059cbb14610aec57610396565b80638e4ec6ef146109c15780638f32d59b146109ec57806395d89b4114610a1757806399b71d5c14610a4257610396565b8063812adb06116101b6578063812adb061461092b578063819faf7b14610954578063853828b61461097f5780638da5cb5b1461099657610396565b806377c7b8fc146108c05780637d7c2a1c146108eb5780638124955c1461090257610396565b80633990ab4f116102c157806357b875431161025f57806365aab7491161022e57806365aab7491461081857806370a08231146108415780637137ef991461087e578063715018a6146108a957610396565b806357b875431461076e57806357ded9c91461079757806358782c21146107c257806361c1ec55146107ed57610396565b8063458e32341161029b578063458e3234146106ca57806346357473146106f357806356cc93781461071c5780635762bbd91461074557610396565b80633990ab4f1461065f57806339c0a7e11461067657806341c57c8d146106a157610396565b806316f0115b116103395780632c7a5ae4116103085780632c7a5ae4146105a55780632e8d6e18146105ce578063313ce567146105f7578063395093511461062257610396565b806316f0115b146104e957806318160ddd1461051457806323b872dd1461053f5780632afcf4801461057c57610396565b806306fdde031161037557806306fdde031461042b578063085d488314610456578063095ea7b3146104815780630eb2a267146104be57610396565b8062be3bc91461039857806306636c1c146103c357806306a3fe5914610400575b005b3480156103a457600080fd5b506103ad610d9e565b6040516103ba91906156f1565b60405180910390f35b3480156103cf57600080fd5b506103ea60048036036103e59190810190614bcf565b610f6a565b6040516103f7919061599c565b60405180910390f35b34801561040c57600080fd5b506104156111aa565b604051610422919061558e565b60405180910390f35b34801561043757600080fd5b506104406111d0565b60405161044d91906156f1565b60405180910390f35b34801561046257600080fd5b5061046b611272565b60405161047891906156d6565b60405180910390f35b34801561048d57600080fd5b506104a860048036036104a39190810190614a89565b611285565b6040516104b591906156bb565b60405180910390f35b3480156104ca57600080fd5b506104d36112a3565b6040516104e0919061599c565b60405180910390f35b3480156104f557600080fd5b506104fe611355565b60405161050b919061599c565b60405180910390f35b34801561052057600080fd5b5061052961135b565b604051610536919061599c565b60405180910390f35b34801561054b57600080fd5b5061056660048036036105619190810190614a3a565b611365565b60405161057391906156bb565b60405180910390f35b34801561058857600080fd5b506105a3600480360361059e9190810190614bcf565b61143e565b005b3480156105b157600080fd5b506105cc60048036036105c791908101906149d5565b61160d565b005b3480156105da57600080fd5b506105f560048036036105f09190810190614aee565b611698565b005b34801561060357600080fd5b5061060c6117fe565b60405161061991906159b7565b60405180910390f35b34801561062e57600080fd5b5061064960048036036106449190810190614a89565b611815565b60405161065691906156bb565b60405180910390f35b34801561066b57600080fd5b506106746118c8565b005b34801561068257600080fd5b5061068b611a77565b604051610698919061599c565b60405180910390f35b3480156106ad57600080fd5b506106c860048036036106c39190810190614bcf565b611b67565b005b3480156106d657600080fd5b506106f160048036036106ec91908101906149d5565b611da3565b005b3480156106ff57600080fd5b5061071a600480360361071591908101906149d5565b611e2e565b005b34801561072857600080fd5b50610743600480360361073e9190810190614bcf565b611eb9565b005b34801561075157600080fd5b5061076c60048036036107679190810190614bcf565b611f49565b005b34801561077a57600080fd5b5061079560048036036107909190810190614bcf565b61203d565b005b3480156107a357600080fd5b506107ac61212f565b6040516107b9919061558e565b60405180910390f35b3480156107ce57600080fd5b506107d7612155565b6040516107e4919061558e565b60405180910390f35b3480156107f957600080fd5b5061080261217b565b60405161080f919061599c565b60405180910390f35b34801561082457600080fd5b5061083f600480360361083a9190810190614bcf565b61222d565b005b34801561084d57600080fd5b50610868600480360361086391908101906149d5565b6122e4565b604051610875919061599c565b60405180910390f35b34801561088a57600080fd5b5061089361232c565b6040516108a0919061599c565b60405180910390f35b3480156108b557600080fd5b506108be612386565b005b3480156108cc57600080fd5b506108d561248e565b6040516108e2919061599c565b60405180910390f35b3480156108f757600080fd5b506109006124d0565b005b34801561090e57600080fd5b5061092960048036036109249190810190614bcf565b6125e5565b005b34801561093757600080fd5b50610952600480360361094d91908101906149d5565b6126d9565b005b34801561096057600080fd5b50610969612764565b604051610976919061558e565b60405180910390f35b34801561098b57600080fd5b5061099461278a565b005b3480156109a257600080fd5b506109ab612803565b6040516109b8919061558e565b60405180910390f35b3480156109cd57600080fd5b506109d661282d565b6040516109e3919061558e565b60405180910390f35b3480156109f857600080fd5b50610a01612853565b604051610a0e91906156bb565b60405180910390f35b348015610a2357600080fd5b50610a2c6128b2565b604051610a3991906156f1565b60405180910390f35b348015610a4e57600080fd5b50610a57612954565b005b348015610a6557600080fd5b50610a6e612d1e565b604051610a7b91906156d6565b60405180910390f35b348015610a9057600080fd5b50610aab6004803603610aa69190810190614a89565b612e7b565b604051610ab891906156bb565b60405180910390f35b348015610acd57600080fd5b50610ad6612f48565b604051610ae3919061599c565b60405180910390f35b348015610af857600080fd5b50610b136004803603610b0e9190810190614a89565b613034565b604051610b2091906156bb565b60405180910390f35b348015610b3557600080fd5b50610b506004803603610b4b91908101906149d5565b613052565b005b348015610b5e57600080fd5b50610b796004803603610b749190810190614bcf565b6130dd565b005b348015610b8757600080fd5b50610b906133a1565b604051610b9d919061599c565b60405180910390f35b348015610bb257600080fd5b50610bcd6004803603610bc891908101906149d5565b613453565b005b348015610bdb57600080fd5b50610be46134de565b604051610bf1919061599c565b60405180910390f35b348015610c0657600080fd5b50610c0f613590565b604051610c1c919061599c565b60405180910390f35b348015610c3157600080fd5b50610c4c6004803603610c479190810190614bcf565b613596565b005b348015610c5a57600080fd5b50610c756004803603610c7091908101906149fe565b613983565b604051610c82919061599c565b60405180910390f35b348015610c9757600080fd5b50610cb26004803603610cad9190810190614bcf565b613a0a565b005b348015610cc057600080fd5b50610cdb6004803603610cd691908101906149d5565b613afc565b005b348015610ce957600080fd5b50610cf2613b4f565b604051610cff919061599c565b60405180910390f35b348015610d1457600080fd5b50610d2f6004803603610d2a91908101906149d5565b613c1a565b005b348015610d3d57600080fd5b50610d46613ca5565b005b348015610d5457600080fd5b50610d5d613db2565b604051610d6a919061558e565b60405180910390f35b348015610d7f57600080fd5b50610d88613dd8565b604051610d95919061558e565b60405180910390f35b60606000610daa612d1e565b905060006004811115610db957fe5b816004811115610dc557fe5b1415610e04576040518060400160405280600481526020017f4e4f4e450000000000000000000000000000000000000000000000000000000081525091505b60036004811115610e1157fe5b816004811115610e1d57fe5b1415610e5c576040518060400160405280600481526020017f414156450000000000000000000000000000000000000000000000000000000081525091505b600480811115610e6857fe5b816004811115610e7457fe5b1415610eb3576040518060400160405280600781526020017f46554c4352554d0000000000000000000000000000000000000000000000000081525091505b60026004811115610ec057fe5b816004811115610ecc57fe5b1415610f0b576040518060400160405280600881526020017f434f4d504f554e4400000000000000000000000000000000000000000000000081525091505b60016004811115610f1857fe5b816004811115610f2457fe5b1415610f63576040518060400160405280600481526020017f445944580000000000000000000000000000000000000000000000000000000081525091505b8191505090565b600060606001604051908082528060200260200182016040528015610fa957816020015b610f96614728565b815260200190600190039081610f8e5790505b50905060405180604001604052803073ffffffffffffffffffffffffffffffffffffffff168152602001600081525081600081518110610fe557fe5b6020026020010181905250610ff8614758565b60405180608001604052806001151581526020016000600181111561101957fe5b81526020016000600181111561102b57fe5b815260200185815250905061103e614798565b60008160000190600881111561105057fe5b9081600881111561105d57fe5b815250506000816020018181525050818160400181905250600f54816060018181525050308160a0019073ffffffffffffffffffffffffffffffffffffffff16908173ffffffffffffffffffffffffffffffffffffffff1681525050606060016040519080825280602002602001820160405280156110f657816020015b6110e3614804565b8152602001906001900390816110db5790505b509050818160008151811061110757fe5b6020026020010181905250600e60009054906101000a900473ffffffffffffffffffffffffffffffffffffffff1673ffffffffffffffffffffffffffffffffffffffff1663a67a6a4585836040518363ffffffff1660e01b815260040161116f929190615684565b600060405180830381600087803b15801561118957600080fd5b505af115801561119d573d6000803e3d6000fd5b5050505050505050919050565b600d60009054906101000a900473ffffffffffffffffffffffffffffffffffffffff1681565b606060038054600181600116156101000203166002900480601f0160208091040260200160405190810160405280929190818152602001828054600181600116156101000203166002900480156112685780601f1061123d57610100808354040283529160200191611268565b820191906000526020600020905b81548152906001019060200180831161124b57829003601f168201915b5050505050905090565b601060149054906101000a900460ff1681565b6000611299611292613dfe565b8484613e06565b6001905092915050565b6000600b60009054906101000a900473ffffffffffffffffffffffffffffffffffffffff1673ffffffffffffffffffffffffffffffffffffffff166370a08231306040518263ffffffff1660e01b815260040161130091906155a9565b60206040518083038186803b15801561131857600080fd5b505afa15801561132c573d6000803e3d6000fd5b505050506040513d601f19601f820116820180604052506113509190810190614bf8565b905090565b60085481565b6000600254905090565b6000611372848484613fd1565b6114338461137e613dfe565b61142e85604051806060016040528060288152602001615d2c60289139600160008b73ffffffffffffffffffffffffffffffffffffffff1673ffffffffffffffffffffffffffffffffffffffff16815260200190815260200160002060006113e4613dfe565b73ffffffffffffffffffffffffffffffffffffffff1673ffffffffffffffffffffffffffffffffffffffff1681526020019081526020016000205461425b9092919063ffffffff16565b613e06565b600190509392505050565b60016006600082825401925050819055506000600654905060008211611499576040517f08c379a0000000000000000000000000000000000000000000000000000000008152600401611490906158f3565b60405180910390fd5b6114a161232c565b600881905550600960009054906101000a900473ffffffffffffffffffffffffffffffffffffffff1673ffffffffffffffffffffffffffffffffffffffff166323b872dd3330856040518463ffffffff1660e01b8152600401611506939291906155c4565b602060405180830381600087803b15801561152057600080fd5b505af1158015611534573d6000803e3d6000fd5b505050506040513d601f19601f820116820180604052506115589190810190614ac5565b506115616124d0565b60008090506000600854141561158057829050826008819055506115ac565b6115a960085461159b600254866142b690919063ffffffff16565b61432690919063ffffffff16565b90505b6115b461232c565b6008819055506115c43382614370565b506006548114611609576040517f08c379a000000000000000000000000000000000000000000000000000000000815260040161160090615933565b60405180910390fd5b5050565b611615612853565b611654576040517f08c379a000000000000000000000000000000000000000000000000000000000815260040161164b90615833565b60405180910390fd5b80600e60006101000a81548173ffffffffffffffffffffffffffffffffffffffff021916908373ffffffffffffffffffffffffffffffffffffffff16021790555050565b6116a0612853565b6116df576040517f08c379a00000000000000000000000000000000000000000000000000000000081526004016116d690615833565b60405180910390fd5b60008173ffffffffffffffffffffffffffffffffffffffff166370a08231306040518263ffffffff1660e01b815260040161171a91906155a9565b60206040518083038186803b15801561173257600080fd5b505afa158015611746573d6000803e3d6000fd5b505050506040513d601f19601f8201168201806040525061176a9190810190614bf8565b90508173ffffffffffffffffffffffffffffffffffffffff1663a9059cbb33836040518363ffffffff1660e01b81526004016117a79291906155fb565b602060405180830381600087803b1580156117c157600080fd5b505af11580156117d5573d6000803e3d6000fd5b505050506040513d601f19601f820116820180604052506117f99190810190614ac5565b505050565b6000600560009054906101000a900460ff16905090565b60006118be611822613dfe565b846118b98560016000611833613dfe565b73ffffffffffffffffffffffffffffffffffffffff1673ffffffffffffffffffffffffffffffffffffffff16815260200190815260200160002060008973ffffffffffffffffffffffffffffffffffffffff1673ffffffffffffffffffffffffffffffffffffffff168152602001908152602001600020546144f890919063ffffffff16565b613e06565b6001905092915050565b6001600660008282540192505081905550600060065490506118e8612853565b611927576040517f08c379a000000000000000000000000000000000000000000000000000000000815260040161191e90615833565b60405180910390fd5b6000600960009054906101000a900473ffffffffffffffffffffffffffffffffffffffff1673ffffffffffffffffffffffffffffffffffffffff166370a08231306040518263ffffffff1660e01b815260040161198491906155a9565b60206040518083038186803b15801561199c57600080fd5b505afa1580156119b0573d6000803e3d6000fd5b505050506040513d601f19601f820116820180604052506119d49190810190614bf8565b905060008111611a19576040517f08c379a0000000000000000000000000000000000000000000000000000000008152600401611a10906158f3565b60405180910390fd5b611a216124d0565b611a2961232c565b600881905550506006548114611a74576040517f08c379a0000000000000000000000000000000000000000000000000000000008152600401611a6b90615933565b60405180910390fd5b50565b6000611a81614870565b600e60009054906101000a900473ffffffffffffffffffffffffffffffffffffffff1673ffffffffffffffffffffffffffffffffffffffff1663c190c2ec60405180604001604052803073ffffffffffffffffffffffffffffffffffffffff1681526020016000815250600f546040518363ffffffff1660e01b8152600401611b0b929190615973565b604080518083038186803b158015611b2257600080fd5b505afa158015611b36573d6000803e3d6000fd5b505050506040513d601f19601f82011682018060405250611b5a9190810190614ba6565b9050806020015191505090565b60606001604051908082528060200260200182016040528015611ba457816020015b611b91614728565b815260200190600190039081611b895790505b50905060405180604001604052803073ffffffffffffffffffffffffffffffffffffffff168152602001600081525081600081518110611be057fe5b6020026020010181905250611bf3614758565b604051806080016040528060011515815260200160006001811115611c1457fe5b815260200160006001811115611c2657fe5b8152602001848152509050611c39614798565b600181600001906008811115611c4b57fe5b90816008811115611c5857fe5b815250506000816020018181525050818160400181905250600f54816060018181525050308160a0019073ffffffffffffffffffffffffffffffffffffffff16908173ffffffffffffffffffffffffffffffffffffffff168152505060606001604051908082528060200260200182016040528015611cf157816020015b611cde614804565b815260200190600190039081611cd65790505b5090508181600081518110611d0257fe5b6020026020010181905250600e60009054906101000a900473ffffffffffffffffffffffffffffffffffffffff1673ffffffffffffffffffffffffffffffffffffffff1663a67a6a4585836040518363ffffffff1660e01b8152600401611d6a929190615684565b600060405180830381600087803b158015611d8457600080fd5b505af1158015611d98573d6000803e3d6000fd5b505050505050505050565b611dab612853565b611dea576040517f08c379a0000000000000000000000000000000000000000000000000000000008152600401611de190615833565b60405180910390fd5b80600960006101000a81548173ffffffffffffffffffffffffffffffffffffffff021916908373ffffffffffffffffffffffffffffffffffffffff16021790555050565b611e36612853565b611e75576040517f08c379a0000000000000000000000000000000000000000000000000000000008152600401611e6c90615833565b60405180910390fd5b80601060006101000a81548173ffffffffffffffffffffffffffffffffffffffff021916908373ffffffffffffffffffffffffffffffffffffffff16021790555050565b600d60009054906101000a900473ffffffffffffffffffffffffffffffffffffffff1673ffffffffffffffffffffffffffffffffffffffff1663db006a75826040518263ffffffff1660e01b8152600401611f14919061599c565b600060405180830381600087803b158015611f2e57600080fd5b505af1158015611f42573d6000803e3d6000fd5b5050505050565b6000600b60009054906101000a900473ffffffffffffffffffffffffffffffffffffffff1673ffffffffffffffffffffffffffffffffffffffff16639dc29fac30846040518363ffffffff1660e01b8152600401611fa89291906155fb565b602060405180830381600087803b158015611fc257600080fd5b505af1158015611fd6573d6000803e3d6000fd5b505050506040513d601f19601f82011682018060405250611ffa9190810190614bf8565b1161203a576040517f08c379a000000000000000000000000000000000000000000000000000000000815260040161203190615813565b60405180910390fd5b50565b6000600a60009054906101000a900473ffffffffffffffffffffffffffffffffffffffff1673ffffffffffffffffffffffffffffffffffffffff1663db006a75836040518263ffffffff1660e01b815260040161209a919061599c565b602060405180830381600087803b1580156120b457600080fd5b505af11580156120c8573d6000803e3d6000fd5b505050506040513d601f19601f820116820180604052506120ec9190810190614bf8565b1461212c576040517f08c379a000000000000000000000000000000000000000000000000000000000815260040161212390615733565b60405180910390fd5b50565b601060009054906101000a900473ffffffffffffffffffffffffffffffffffffffff1681565b600b60009054906101000a900473ffffffffffffffffffffffffffffffffffffffff1681565b6000600a60009054906101000a900473ffffffffffffffffffffffffffffffffffffffff1673ffffffffffffffffffffffffffffffffffffffff166370a08231306040518263ffffffff1660e01b81526004016121d891906155a9565b60206040518083038186803b1580156121f057600080fd5b505afa158015612204573d6000803e3d6000fd5b505050506040513d601f19601f820116820180604052506122289190810190614bf8565b905090565b600c60009054906101000a900473ffffffffffffffffffffffffffffffffffffffff1673ffffffffffffffffffffffffffffffffffffffff1663d2d0e066600960009054906101000a900473ffffffffffffffffffffffffffffffffffffffff168360006040518463ffffffff1660e01b81526004016122af9392919061564d565b600060405180830381600087803b1580156122c957600080fd5b505af11580156122dd573d6000803e3d6000fd5b5050505050565b60008060008373ffffffffffffffffffffffffffffffffffffffff1673ffffffffffffffffffffffffffffffffffffffff168152602001908152602001600020549050919050565b60006123816123396134de565b612373612344611a77565b61236561234f613b4f565b612357612f48565b6144f890919063ffffffff16565b6144f890919063ffffffff16565b6144f890919063ffffffff16565b905090565b61238e612853565b6123cd576040517f08c379a00000000000000000000000000000000000000000000000000000000081526004016123c490615833565b60405180910390fd5b600073ffffffffffffffffffffffffffffffffffffffff16600760009054906101000a900473ffffffffffffffffffffffffffffffffffffffff1673ffffffffffffffffffffffffffffffffffffffff167f8be0079c531659141344cd1fd0a4f28419497f9722a3daafe3b4186f6b6457e060405160405180910390a36000600760006101000a81548173ffffffffffffffffffffffffffffffffffffffff021916908373ffffffffffffffffffffffffffffffffffffffff160217905550565b60008061249961232c565b90506124ca6002546124bc670de0b6b3a7640000846142b690919063ffffffff16565b61432690919063ffffffff16565b91505090565b60006124da612d1e565b9050601060149054906101000a900460ff1660048111156124f757fe5b81600481111561250357fe5b146125115761251061278a565b5b600061251b6133a1565b11156125e2576001600481111561252e57fe5b81600481111561253a57fe5b14156125525761255061254b6133a1565b610f6a565b505b60048081111561255e57fe5b81600481111561256a57fe5b14156125815761258061257b6133a1565b6125e5565b5b6002600481111561258e57fe5b81600481111561259a57fe5b14156125b1576125b06125ab6133a1565b613a0a565b5b600360048111156125be57fe5b8160048111156125ca57fe5b14156125e1576125e06125db6133a1565b61222d565b5b5b50565b6000600b60009054906101000a900473ffffffffffffffffffffffffffffffffffffffff1673ffffffffffffffffffffffffffffffffffffffff166340c10f1930846040518363ffffffff1660e01b81526004016126449291906155fb565b602060405180830381600087803b15801561265e57600080fd5b505af1158015612672573d6000803e3d6000fd5b505050506040513d601f19601f820116820180604052506126969190810190614bf8565b116126d6576040517f08c379a00000000000000000000000000000000000000000000000000000000081526004016126cd90615913565b60405180910390fd5b50565b6126e1612853565b612720576040517f08c379a000000000000000000000000000000000000000000000000000000000815260040161271790615833565b60405180910390fd5b80600c60006101000a81548173ffffffffffffffffffffffffffffffffffffffff021916908373ffffffffffffffffffffffffffffffffffffffff16021790555050565b600c60009054906101000a900473ffffffffffffffffffffffffffffffffffffffff1681565b600061279461217b565b905060008111156127a9576127a88161203d565b5b6127b1611a77565b905060008111156127c6576127c581611b67565b5b6127ce6112a3565b905060008111156127e3576127e281611f49565b5b6127eb6134de565b90506000811115612800576127ff81611eb9565b5b50565b6000600760009054906101000a900473ffffffffffffffffffffffffffffffffffffffff16905090565b600e60009054906101000a900473ffffffffffffffffffffffffffffffffffffffff1681565b6000600760009054906101000a900473ffffffffffffffffffffffffffffffffffffffff1673ffffffffffffffffffffffffffffffffffffffff16612896613dfe565b73ffffffffffffffffffffffffffffffffffffffff1614905090565b606060048054600181600116156101000203166002900480601f01602080910402602001604051908101604052809291908181526020018280546001816001161561010002031660029004801561294a5780601f1061291f5761010080835404028352916020019161294a565b820191906000526020600020905b81548152906001019060200180831161292d57829003601f168201915b5050505050905090565b600960009054906101000a900473ffffffffffffffffffffffffffffffffffffffff1673ffffffffffffffffffffffffffffffffffffffff1663095ea7b3600a60009054906101000a900473ffffffffffffffffffffffffffffffffffffffff167fffffffffffffffffffffffffffffffffffffffffffffffffffffffffffffffff6040518363ffffffff1660e01b81526004016129f3929190615624565b602060405180830381600087803b158015612a0d57600080fd5b505af1158015612a21573d6000803e3d6000fd5b505050506040513d601f19601f82011682018060405250612a459190810190614ac5565b50600960009054906101000a900473ffffffffffffffffffffffffffffffffffffffff1673ffffffffffffffffffffffffffffffffffffffff1663095ea7b3600e60009054906101000a900473ffffffffffffffffffffffffffffffffffffffff167fffffffffffffffffffffffffffffffffffffffffffffffffffffffffffffffff6040518363ffffffff1660e01b8152600401612ae5929190615624565b602060405180830381600087803b158015612aff57600080fd5b505af1158015612b13573d6000803e3d6000fd5b505050506040513d601f19601f82011682018060405250612b379190810190614ac5565b50600960009054906101000a900473ffffffffffffffffffffffffffffffffffffffff1673ffffffffffffffffffffffffffffffffffffffff1663095ea7b3600c60009054906101000a900473ffffffffffffffffffffffffffffffffffffffff167fffffffffffffffffffffffffffffffffffffffffffffffffffffffffffffffff6040518363ffffffff1660e01b8152600401612bd7929190615624565b602060405180830381600087803b158015612bf157600080fd5b505af1158015612c05573d6000803e3d6000fd5b505050506040513d601f19601f82011682018060405250612c299190810190614ac5565b50600960009054906101000a900473ffffffffffffffffffffffffffffffffffffffff1673ffffffffffffffffffffffffffffffffffffffff1663095ea7b3600b60009054906101000a900473ffffffffffffffffffffffffffffffffffffffff167fffffffffffffffffffffffffffffffffffffffffffffffffffffffffffffffff6040518363ffffffff1660e01b8152600401612cc9929190615624565b602060405180830381600087803b158015612ce357600080fd5b505af1158015612cf7573d6000803e3d6000fd5b505050506040513d601f19601f82011682018060405250612d1b9190810190614ac5565b50565b6000806000806000601060009054906101000a900473ffffffffffffffffffffffffffffffffffffffff1673ffffffffffffffffffffffffffffffffffffffff1663d88be3c0600960009054906101000a900473ffffffffffffffffffffffffffffffffffffffff166040518263ffffffff1660e01b8152600401612da3919061558e565b60006040518083038186803b158015612dbb57600080fd5b505afa158015612dcf573d6000803e3d6000fd5b505050506040513d6000823e3d601f19601f82011682018060405250612df89190810190614b17565b945094509450945050600080905080851115612e12578490505b80841115612e1e578390505b80831115612e2a578290505b80821115612e36578190505b600080905082821415612e4857600190505b83821415612e5557600390505b84821415612e6257600490505b85821415612e6f57600290505b80965050505050505090565b6000612f3e612e88613dfe565b84612f3985604051806060016040528060258152602001615d546025913960016000612eb2613dfe565b73ffffffffffffffffffffffffffffffffffffffff1673ffffffffffffffffffffffffffffffffffffffff16815260200190815260200160002060008a73ffffffffffffffffffffffffffffffffffffffff1673ffffffffffffffffffffffffffffffffffffffff1681526020019081526020016000205461425b9092919063ffffffff16565b613e06565b6001905092915050565b600080612f5361217b565b9050600081111561302d5761302a670de0b6b3a764000061301c600a60009054906101000a900473ffffffffffffffffffffffffffffffffffffffff1673ffffffffffffffffffffffffffffffffffffffff1663182df0f56040518163ffffffff1660e01b815260040160206040518083038186803b158015612fd557600080fd5b505afa158015612fe9573d6000803e3d6000fd5b505050506040513d601f19601f8201168201806040525061300d9190810190614bf8565b846142b690919063ffffffff16565b61432690919063ffffffff16565b90505b8091505090565b6000613048613041613dfe565b8484613fd1565b6001905092915050565b61305a612853565b613099576040517f08c379a000000000000000000000000000000000000000000000000000000000815260040161309090615833565b60405180910390fd5b80600d60006101000a81548173ffffffffffffffffffffffffffffffffffffffff021916908373ffffffffffffffffffffffffffffffffffffffff16021790555050565b6000806000600260048111156130ef57fe5b601060149054906101000a900460ff16600481111561310a57fe5b14156131985761311861217b565b9250613122612f48565b915083821015613167576040517f08c379a000000000000000000000000000000000000000000000000000000000815260040161315e906158b3565b60405180910390fd5b61318c8461317e84866142b690919063ffffffff16565b61432690919063ffffffff16565b90506131978161203d565b5b600360048111156131a557fe5b601060149054906101000a900460ff1660048111156131c057fe5b141561321a57836131cf6134de565b1015613210576040517f08c379a0000000000000000000000000000000000000000000000000000000008152600401613207906158b3565b60405180910390fd5b61321984611eb9565b5b6001600481111561322757fe5b601060149054906101000a900460ff16600481111561324257fe5b141561329c5783613251611a77565b1015613292576040517f08c379a0000000000000000000000000000000000000000000000000000000008152600401613289906158b3565b60405180910390fd5b61329b84611b67565b5b6004808111156132a857fe5b601060149054906101000a900460ff1660048111156132c357fe5b141561339b57836132d26112a3565b1015613313576040517f08c379a000000000000000000000000000000000000000000000000000000000815260040161330a906158b3565b60405180910390fd5b61331b6112a3565b9250613325613b4f565b91508382101561336a576040517f08c379a0000000000000000000000000000000000000000000000000000000008152600401613361906158b3565b60405180910390fd5b61338f8461338184866142b690919063ffffffff16565b61432690919063ffffffff16565b905061339a81611f49565b5b50505050565b6000600960009054906101000a900473ffffffffffffffffffffffffffffffffffffffff1673ffffffffffffffffffffffffffffffffffffffff166370a08231306040518263ffffffff1660e01b81526004016133fe91906155a9565b60206040518083038186803b15801561341657600080fd5b505afa15801561342a573d6000803e3d6000fd5b505050506040513d601f19601f8201168201806040525061344e9190810190614bf8565b905090565b61345b612853565b61349a576040517f08c379a000000000000000000000000000000000000000000000000000000000815260040161349190615833565b60405180910390fd5b80600b60006101000a81548173ffffffffffffffffffffffffffffffffffffffff021916908373ffffffffffffffffffffffffffffffffffffffff16021790555050565b6000600d60009054906101000a900473ffffffffffffffffffffffffffffffffffffffff1673ffffffffffffffffffffffffffffffffffffffff166370a08231306040518263ffffffff1660e01b815260040161353b91906155a9565b60206040518083038186803b15801561355357600080fd5b505afa158015613567573d6000803e3d6000fd5b505050506040513d601f19601f8201168201806040525061358b9190810190614bf8565b905090565b600f5481565b600160066000828254019250508190555060006006549050600082116135f1576040517f08c379a00000000000000000000000000000000000000000000000000000000081526004016135e890615873565b60405180910390fd5b60006135fc336122e4565b905080831115613641576040517f08c379a000000000000000000000000000000000000000000000000000000000815260040161363890615853565b60405180910390fd5b61364961232c565b600881905550600061367a60025461366c866008546142b690919063ffffffff16565b61432690919063ffffffff16565b9050613704846040518060400160405280601d81526020017f72656465656d20616d6f756e7420657863656564732062616c616e63650000008152506000803373ffffffffffffffffffffffffffffffffffffffff1673ffffffffffffffffffffffffffffffffffffffff1681526020019081526020016000205461425b9092919063ffffffff16565b6000803373ffffffffffffffffffffffffffffffffffffffff1673ffffffffffffffffffffffffffffffffffffffff1681526020019081526020016000208190555061375b8460025461454d90919063ffffffff16565b600281905550600073ffffffffffffffffffffffffffffffffffffffff163373ffffffffffffffffffffffffffffffffffffffff167fddf252ad1be2c89b69c2b068fc378daa952ba7f163c4a11628f55a4df523b3ef866040516137bf919061599c565b60405180910390a36000600960009054906101000a900473ffffffffffffffffffffffffffffffffffffffff1673ffffffffffffffffffffffffffffffffffffffff166370a08231306040518263ffffffff1660e01b815260040161382491906155a9565b60206040518083038186803b15801561383c57600080fd5b505afa158015613850573d6000803e3d6000fd5b505050506040513d601f19601f820116820180604052506138749190810190614bf8565b90508181101561388857613887826130dd565b5b600960009054906101000a900473ffffffffffffffffffffffffffffffffffffffff1673ffffffffffffffffffffffffffffffffffffffff1663a9059cbb33846040518363ffffffff1660e01b81526004016138e59291906155fb565b602060405180830381600087803b1580156138ff57600080fd5b505af1158015613913573d6000803e3d6000fd5b505050506040513d601f19601f820116820180604052506139379190810190614ac5565b50505050600654811461397f576040517f08c379a000000000000000000000000000000000000000000000000000000000815260040161397690615933565b60405180910390fd5b5050565b6000600160008473ffffffffffffffffffffffffffffffffffffffff1673ffffffffffffffffffffffffffffffffffffffff16815260200190815260200160002060008373ffffffffffffffffffffffffffffffffffffffff1673ffffffffffffffffffffffffffffffffffffffff16815260200190815260200160002054905092915050565b6000600a60009054906101000a900473ffffffffffffffffffffffffffffffffffffffff1673ffffffffffffffffffffffffffffffffffffffff1663a0712d68836040518263ffffffff1660e01b8152600401613a67919061599c565b602060405180830381600087803b158015613a8157600080fd5b505af1158015613a95573d6000803e3d6000fd5b505050506040513d601f19601f82011682018060405250613ab99190810190614bf8565b14613af9576040517f08c379a0000000000000000000000000000000000000000000000000000000008152600401613af090615793565b60405180910390fd5b50565b613b04612853565b613b43576040517f08c379a0000000000000000000000000000000000000000000000000000000008152600401613b3a90615833565b60405180910390fd5b613b4c81614597565b50565b600080613b5a6112a3565b90506000811115613c1357600b60009054906101000a900473ffffffffffffffffffffffffffffffffffffffff1673ffffffffffffffffffffffffffffffffffffffff166306b3efd6306040518263ffffffff1660e01b8152600401613bc091906155a9565b60206040518083038186803b158015613bd857600080fd5b505afa158015613bec573d6000803e3d6000fd5b505050506040513d601f19601f82011682018060405250613c109190810190614bf8565b90505b8091505090565b613c22612853565b613c61576040517f08c379a0000000000000000000000000000000000000000000000000000000008152600401613c5890615833565b60405180910390fd5b80600a60006101000a81548173ffffffffffffffffffffffffffffffffffffffff021916908373ffffffffffffffffffffffffffffffffffffffff16021790555050565b613cad612853565b613cec576040517f08c379a0000000000000000000000000000000000000000000000000000000008152600401613ce390615833565b60405180910390fd5b60003373ffffffffffffffffffffffffffffffffffffffff163073ffffffffffffffffffffffffffffffffffffffff1631604051613d2990615579565b60006040518083038185875af1925050503d8060008114613d66576040519150601f19603f3d011682016040523d82523d6000602084013e613d6b565b606091505b5050905080613daf576040517f08c379a0000000000000000000000000000000000000000000000000000000008152600401613da6906157d3565b60405180910390fd5b50565b600a60009054906101000a900473ffffffffffffffffffffffffffffffffffffffff1681565b600960009054906101000a900473ffffffffffffffffffffffffffffffffffffffff1681565b600033905090565b600073ffffffffffffffffffffffffffffffffffffffff168373ffffffffffffffffffffffffffffffffffffffff161415613e76576040517f08c379a0000000000000000000000000000000000000000000000000000000008152600401613e6d906158d3565b60405180910390fd5b600073ffffffffffffffffffffffffffffffffffffffff168273ffffffffffffffffffffffffffffffffffffffff161415613ee6576040517f08c379a0000000000000000000000000000000000000000000000000000000008152600401613edd90615773565b60405180910390fd5b80600160008573ffffffffffffffffffffffffffffffffffffffff1673ffffffffffffffffffffffffffffffffffffffff16815260200190815260200160002060008473ffffffffffffffffffffffffffffffffffffffff1673ffffffffffffffffffffffffffffffffffffffff168152602001908152602001600020819055508173ffffffffffffffffffffffffffffffffffffffff168373ffffffffffffffffffffffffffffffffffffffff167f8c5be1e5ebec7d5bd14f71427d1e84f3dd0314c0f7b2291e5b200ac8c7c3b92583604051613fc4919061599c565b60405180910390a3505050565b600073ffffffffffffffffffffffffffffffffffffffff168373ffffffffffffffffffffffffffffffffffffffff161415614041576040517f08c379a000000000000000000000000000000000000000000000000000000000815260040161403890615893565b60405180910390fd5b600073ffffffffffffffffffffffffffffffffffffffff168273ffffffffffffffffffffffffffffffffffffffff1614156140b1576040517f08c379a00000000000000000000000000000000000000000000000000000000081526004016140a890615713565b60405180910390fd5b61411c81604051806060016040528060268152602001615d06602691396000808773ffffffffffffffffffffffffffffffffffffffff1673ffffffffffffffffffffffffffffffffffffffff1681526020019081526020016000205461425b9092919063ffffffff16565b6000808573ffffffffffffffffffffffffffffffffffffffff1673ffffffffffffffffffffffffffffffffffffffff168152602001908152602001600020819055506141af816000808573ffffffffffffffffffffffffffffffffffffffff1673ffffffffffffffffffffffffffffffffffffffff168152602001908152602001600020546144f890919063ffffffff16565b6000808473ffffffffffffffffffffffffffffffffffffffff1673ffffffffffffffffffffffffffffffffffffffff168152602001908152602001600020819055508173ffffffffffffffffffffffffffffffffffffffff168373ffffffffffffffffffffffffffffffffffffffff167fddf252ad1be2c89b69c2b068fc378daa952ba7f163c4a11628f55a4df523b3ef8360405161424e919061599c565b60405180910390a3505050565b60008383111582906142a3576040517f08c379a000000000000000000000000000000000000000000000000000000000815260040161429a91906156f1565b60405180910390fd5b5060008385039050809150509392505050565b6000808314156142c95760009050614320565b60008284029050828482816142da57fe5b041461431b576040517f08c379a0000000000000000000000000000000000000000000000000000000008152600401614312906157f3565b60405180910390fd5b809150505b92915050565b600061436883836040518060400160405280601a81526020017f536166654d6174683a206469766973696f6e206279207a65726f0000000000008152506146c7565b905092915050565b600073ffffffffffffffffffffffffffffffffffffffff168273ffffffffffffffffffffffffffffffffffffffff1614156143e0576040517f08c379a00000000000000000000000000000000000000000000000000000000081526004016143d790615953565b60405180910390fd5b6143f5816002546144f890919063ffffffff16565b60028190555061444c816000808573ffffffffffffffffffffffffffffffffffffffff1673ffffffffffffffffffffffffffffffffffffffff168152602001908152602001600020546144f890919063ffffffff16565b6000808473ffffffffffffffffffffffffffffffffffffffff1673ffffffffffffffffffffffffffffffffffffffff168152602001908152602001600020819055508173ffffffffffffffffffffffffffffffffffffffff16600073ffffffffffffffffffffffffffffffffffffffff167fddf252ad1be2c89b69c2b068fc378daa952ba7f163c4a11628f55a4df523b3ef836040516144ec919061599c565b60405180910390a35050565b600080828401905083811015614543576040517f08c379a000000000000000000000000000000000000000000000000000000000815260040161453a906157b3565b60405180910390fd5b8091505092915050565b600061458f83836040518060400160405280601e81526020017f536166654d6174683a207375627472616374696f6e206f766572666c6f77000081525061425b565b905092915050565b600073ffffffffffffffffffffffffffffffffffffffff168173ffffffffffffffffffffffffffffffffffffffff161415614607576040517f08c379a00000000000000000000000000000000000000000000000000000000081526004016145fe90615753565b60405180910390fd5b8073ffffffffffffffffffffffffffffffffffffffff16600760009054906101000a900473ffffffffffffffffffffffffffffffffffffffff1673ffffffffffffffffffffffffffffffffffffffff167f8be0079c531659141344cd1fd0a4f28419497f9722a3daafe3b4186f6b6457e060405160405180910390a380600760006101000a81548173ffffffffffffffffffffffffffffffffffffffff021916908373ffffffffffffffffffffffffffffffffffffffff16021790555050565b6000808311829061470e576040517f08c379a000000000000000000000000000000000000000000000000000000000815260040161470591906156f1565b60405180910390fd5b50600083858161471a57fe5b049050809150509392505050565b6040518060400160405280600073ffffffffffffffffffffffffffffffffffffffff168152602001600081525090565b60405180608001604052806000151581526020016000600181111561477957fe5b81526020016000600181111561478b57fe5b8152602001600081525090565b604051806101000160405280600060088111156147b157fe5b8152602001600081526020016147c561488c565b81526020016000815260200160008152602001600073ffffffffffffffffffffffffffffffffffffffff16815260200160008152602001606081525090565b6040518061010001604052806000600881111561481d57fe5b81526020016000815260200161483161488c565b81526020016000815260200160008152602001600073ffffffffffffffffffffffffffffffffffffffff16815260200160008152602001606081525090565b6040518060400160405280600015158152602001600081525090565b6040518060800160405280600015158152602001600060018111156148ad57fe5b8152602001600060018111156148bf57fe5b8152602001600081525090565b6000813590506148db81615ca9565b92915050565b6000815190506148f081615cc0565b92915050565b60008135905061490581615cd7565b92915050565b600082601f83011261491c57600080fd5b815161492f61492a826159ff565b6159d2565b9150808252602083016020830185838301111561494b57600080fd5b614956838284615c31565b50505092915050565b60006040828403121561497157600080fd5b61497b60406159d2565b9050600061498b848285016148e1565b600083015250602061499f848285016149c0565b60208301525092915050565b6000813590506149ba81615cee565b92915050565b6000815190506149cf81615cee565b92915050565b6000602082840312156149e757600080fd5b60006149f5848285016148cc565b91505092915050565b60008060408385031215614a1157600080fd5b6000614a1f858286016148cc565b9250506020614a30858286016148cc565b9150509250929050565b600080600060608486031215614a4f57600080fd5b6000614a5d868287016148cc565b9350506020614a6e868287016148cc565b9250506040614a7f868287016149ab565b9150509250925092565b60008060408385031215614a9c57600080fd5b6000614aaa858286016148cc565b9250506020614abb858286016149ab565b9150509250929050565b600060208284031215614ad757600080fd5b6000614ae5848285016148e1565b91505092915050565b600060208284031215614b0057600080fd5b6000614b0e848285016148f6565b91505092915050565b600080600080600060a08688031215614b2f57600080fd5b600086015167ffffffffffffffff811115614b4957600080fd5b614b558882890161490b565b9550506020614b66888289016149c0565b9450506040614b77888289016149c0565b9350506060614b88888289016149c0565b9250506080614b99888289016149c0565b9150509295509295909350565b600060408284031215614bb857600080fd5b6000614bc68482850161495f565b91505092915050565b600060208284031215614be157600080fd5b6000614bef848285016149ab565b91505092915050565b600060208284031215614c0a57600080fd5b6000614c18848285016149c0565b91505092915050565b6000614c2d83836153e6565b905092915050565b6000614c4183836154ee565b60408301905092915050565b614c5681615ba1565b82525050565b614c6581615ae0565b82525050565b614c7481615ae0565b82525050565b6000614c8582615a4b565b614c8f8185615a91565b935083602082028501614ca185615a2b565b8060005b85811015614cdd5784840389528151614cbe8582614c21565b9450614cc983615a77565b925060208a01995050600181019050614ca5565b50829750879550505050505092915050565b6000614cfa82615a56565b614d048185615aa2565b9350614d0f83615a3b565b8060005b83811015614d40578151614d278882614c35565b9750614d3283615a84565b925050600181019050614d13565b5085935050505092915050565b614d5681615af2565b82525050565b614d6581615af2565b82525050565b6000614d7682615a61565b614d808185615ab3565b9350614d90818560208601615c31565b614d9981615c64565b840191505092915050565b614dad81615bb3565b82525050565b614dbc81615bc5565b82525050565b614dcb81615bd7565b82525050565b614dda81615be9565b82525050565b614de981615bfb565b82525050565b6000614dfa82615a6c565b614e048185615acf565b9350614e14818560208601615c31565b614e1d81615c64565b840191505092915050565b6000614e35602383615acf565b91507f45524332303a207472616e7366657220746f20746865207a65726f206164647260008301527f65737300000000000000000000000000000000000000000000000000000000006020830152604082019050919050565b6000614e9b601983615acf565b91507f434f4d504f554e443a207769746864726177206661696c6564000000000000006000830152602082019050919050565b6000614edb602683615acf565b91507f4f776e61626c653a206e6577206f776e657220697320746865207a65726f206160008301527f64647265737300000000000000000000000000000000000000000000000000006020830152604082019050919050565b6000614f41602283615acf565b91507f45524332303a20617070726f766520746f20746865207a65726f20616464726560008301527f73730000000000000000000000000000000000000000000000000000000000006020830152604082019050919050565b6000614fa7601783615acf565b91507f434f4d504f554e443a20737570706c79206661696c65640000000000000000006000830152602082019050919050565b6000614fe7601b83615acf565b91507f536166654d6174683a206164646974696f6e206f766572666c6f7700000000006000830152602082019050919050565b6000615027601683615acf565b91507f7472616e73666572206f6620455448206661696c6564000000000000000000006000830152602082019050919050565b6000615067602183615acf565b91507f536166654d6174683a206d756c7469706c69636174696f6e206f766572666c6f60008301527f77000000000000000000000000000000000000000000000000000000000000006020830152604082019050919050565b60006150cd601883615acf565b91507f46554c4352554d3a207769746864726177206661696c656400000000000000006000830152602082019050919050565b600061510d602083615acf565b91507f4f776e61626c653a2063616c6c6572206973206e6f7420746865206f776e65726000830152602082019050919050565b600061514d601483615acf565b91507f696e73756666696369656e742062616c616e63650000000000000000000000006000830152602082019050919050565b600061518d601f83615acf565b91507f7769746864726177206d7573742062652067726561746572207468616e2030006000830152602082019050919050565b60006151cd602583615acf565b91507f45524332303a207472616e736665722066726f6d20746865207a65726f20616460008301527f64726573730000000000000000000000000000000000000000000000000000006020830152604082019050919050565b6000615233600083615ac4565b9150600082019050919050565b600061524d601283615acf565b91507f696e73756666696369656e742066756e647300000000000000000000000000006000830152602082019050919050565b600061528d602483615acf565b91507f45524332303a20617070726f76652066726f6d20746865207a65726f2061646460008301527f72657373000000000000000000000000000000000000000000000000000000006020830152604082019050919050565b60006152f3601e83615acf565b91507f6465706f736974206d7573742062652067726561746572207468616e203000006000830152602082019050919050565b6000615333601683615acf565b91507f46554c4352554d3a20737570706c79206661696c6564000000000000000000006000830152602082019050919050565b6000615373601f83615acf565b91507f5265656e7472616e637947756172643a207265656e7472616e742063616c6c006000830152602082019050919050565b60006153b3601f83615acf565b91507f45524332303a206d696e7420746f20746865207a65726f2061646472657373006000830152602082019050919050565b6000610160830160008301516153ff6000860182614da4565b506020830151615412602086018261554c565b5060408301516154256040860182615499565b50606083015161543860c086018261554c565b50608083015161544b60e086018261554c565b5060a083015161545f610100860182614c5c565b5060c083015161547361012086018261554c565b5060e083015184820361014086015261548c8282614d6b565b9150508091505092915050565b6080820160008201516154af6000850182614d4d565b5060208201516154c26020850182614db3565b5060408201516154d56040850182614dc2565b5060608201516154e8606085018261554c565b50505050565b6040820160008201516155046000850182614c5c565b506020820151615517602085018261554c565b50505050565b6040820160008201516155336000850182614c5c565b506020820151615546602085018261554c565b50505050565b61555581615b8a565b82525050565b61556481615b8a565b82525050565b61557381615b94565b82525050565b600061558482615226565b9150819050919050565b60006020820190506155a36000830184614c6b565b92915050565b60006020820190506155be6000830184614c4d565b92915050565b60006060820190506155d96000830186614c4d565b6155e66020830185614c4d565b6155f3604083018461555b565b949350505050565b60006040820190506156106000830185614c4d565b61561d602083018461555b565b9392505050565b60006040820190506156396000830185614c6b565b615646602083018461555b565b9392505050565b60006060820190506156626000830186614c6b565b61566f602083018561555b565b61567c6040830184614de0565b949350505050565b6000604082019050818103600083015261569e8185614cef565b905081810360208301526156b28184614c7a565b90509392505050565b60006020820190506156d06000830184614d5c565b92915050565b60006020820190506156eb6000830184614dd1565b92915050565b6000602082019050818103600083015261570b8184614def565b905092915050565b6000602082019050818103600083015261572c81614e28565b9050919050565b6000602082019050818103600083015261574c81614e8e565b9050919050565b6000602082019050818103600083015261576c81614ece565b9050919050565b6000602082019050818103600083015261578c81614f34565b9050919050565b600060208201905081810360008301526157ac81614f9a565b9050919050565b600060208201905081810360008301526157cc81614fda565b9050919050565b600060208201905081810360008301526157ec8161501a565b9050919050565b6000602082019050818103600083015261580c8161505a565b9050919050565b6000602082019050818103600083015261582c816150c0565b9050919050565b6000602082019050818103600083015261584c81615100565b9050919050565b6000602082019050818103600083015261586c81615140565b9050919050565b6000602082019050818103600083015261588c81615180565b9050919050565b600060208201905081810360008301526158ac816151c0565b9050919050565b600060208201905081810360008301526158cc81615240565b9050919050565b600060208201905081810360008301526158ec81615280565b9050919050565b6000602082019050818103600083015261590c816152e6565b9050919050565b6000602082019050818103600083015261592c81615326565b9050919050565b6000602082019050818103600083015261594c81615366565b9050919050565b6000602082019050818103600083015261596c816153a6565b9050919050565b6000606082019050615988600083018561551d565b615995604083018461555b565b9392505050565b60006020820190506159b1600083018461555b565b92915050565b60006020820190506159cc600083018461556a565b92915050565b6000604051905081810181811067ffffffffffffffff821117156159f557600080fd5b8060405250919050565b600067ffffffffffffffff821115615a1657600080fd5b601f19601f8301169050602081019050919050565b6000819050602082019050919050565b6000819050602082019050919050565b600081519050919050565b600081519050919050565b600081519050919050565b600081519050919050565b6000602082019050919050565b6000602082019050919050565b600082825260208201905092915050565b600082825260208201905092915050565b600082825260208201905092915050565b600081905092915050565b600082825260208201905092915050565b6000615aeb82615b6a565b9050919050565b60008115159050919050565b6000615b0982615ae0565b9050919050565b6000819050615b1e82615c75565b919050565b6000819050615b3182615c82565b919050565b6000819050615b4482615c8f565b919050565b6000819050615b5782615c9c565b919050565b600061ffff82169050919050565b600073ffffffffffffffffffffffffffffffffffffffff82169050919050565b6000819050919050565b600060ff82169050919050565b6000615bac82615c0d565b9050919050565b6000615bbe82615b10565b9050919050565b6000615bd082615b23565b9050919050565b6000615be282615b36565b9050919050565b6000615bf482615b49565b9050919050565b6000615c0682615b5c565b9050919050565b6000615c1882615c1f565b9050919050565b6000615c2a82615b6a565b9050919050565b60005b83811015615c4f578082015181840152602081019050615c34565b83811115615c5e576000848401525b50505050565b6000601f19601f8301169050919050565b60098110615c7f57fe5b50565b60028110615c8c57fe5b50565b60028110615c9957fe5b50565b60058110615ca657fe5b50565b615cb281615ae0565b8114615cbd57600080fd5b50565b615cc981615af2565b8114615cd457600080fd5b50565b615ce081615afe565b8114615ceb57600080fd5b50565b615cf781615b8a565b8114615d0257600080fd5b5056fe45524332303a207472616e7366657220616d6f756e7420657863656564732062616c616e636545524332303a207472616e7366657220616d6f756e74206578636565647320616c6c6f77616e636545524332303a2064656372656173656420616c6c6f77616e63652062656c6f77207a65726fa365627a7a72315820ea9afa30ea3820db86271f282b86d6ccd71f9075bfb3b906f1974b98cc0ea3fd6c6578706572696d656e74616cf564736f6c634300050c0040",
  "source": "pragma solidity ^0.5.0;\npragma experimental ABIEncoderV2;\n\ninterface IERC20 {\n    function totalSupply() external view returns (uint256);\n    function balanceOf(address account) external view returns (uint256);\n    function transfer(address recipient, uint256 amount) external returns (bool);\n    function allowance(address owner, address spender) external view returns (uint256);\n    function approve(address spender, uint256 amount) external returns (bool);\n    function transferFrom(address sender, address recipient, uint256 amount) external returns (bool);\n    event Transfer(address indexed from, address indexed to, uint256 value);\n    event Approval(address indexed owner, address indexed spender, uint256 value);\n}\n\ncontract Context {\n    constructor () internal { }\n    // solhint-disable-previous-line no-empty-blocks\n\n    function _msgSender() internal view returns (address payable) {\n        return msg.sender;\n    }\n\n    function _msgData() internal view returns (bytes memory) {\n        this; // silence state mutability warning without generating bytecode - see https://github.com/ethereum/solidity/issues/2691\n        return msg.data;\n    }\n}\n\ncontract ERC20 is Context, IERC20 {\n    using SafeMath for uint256;\n\n    mapping (address => uint256) _balances;\n\n    mapping (address => mapping (address => uint256)) private _allowances;\n\n    uint256 _totalSupply;\n    function totalSupply() public view returns (uint256) {\n        return _totalSupply;\n    }\n    function balanceOf(address account) public view returns (uint256) {\n        return _balances[account];\n    }\n    function transfer(address recipient, uint256 amount) public returns (bool) {\n        _transfer(_msgSender(), recipient, amount);\n        return true;\n    }\n    function allowance(address owner, address spender) public view returns (uint256) {\n        return _allowances[owner][spender];\n    }\n    function approve(address spender, uint256 amount) public returns (bool) {\n        _approve(_msgSender(), spender, amount);\n        return true;\n    }\n    function transferFrom(address sender, address recipient, uint256 amount) public returns (bool) {\n        _transfer(sender, recipient, amount);\n        _approve(sender, _msgSender(), _allowances[sender][_msgSender()].sub(amount, \"ERC20: transfer amount exceeds allowance\"));\n        return true;\n    }\n    function increaseAllowance(address spender, uint256 addedValue) public returns (bool) {\n        _approve(_msgSender(), spender, _allowances[_msgSender()][spender].add(addedValue));\n        return true;\n    }\n    function decreaseAllowance(address spender, uint256 subtractedValue) public returns (bool) {\n        _approve(_msgSender(), spender, _allowances[_msgSender()][spender].sub(subtractedValue, \"ERC20: decreased allowance below zero\"));\n        return true;\n    }\n    function _transfer(address sender, address recipient, uint256 amount) internal {\n        require(sender != address(0), \"ERC20: transfer from the zero address\");\n        require(recipient != address(0), \"ERC20: transfer to the zero address\");\n\n        _balances[sender] = _balances[sender].sub(amount, \"ERC20: transfer amount exceeds balance\");\n        _balances[recipient] = _balances[recipient].add(amount);\n        emit Transfer(sender, recipient, amount);\n    }\n    function _mint(address account, uint256 amount) internal {\n        require(account != address(0), \"ERC20: mint to the zero address\");\n\n        _totalSupply = _totalSupply.add(amount);\n        _balances[account] = _balances[account].add(amount);\n        emit Transfer(address(0), account, amount);\n    }\n    function _burn(address account, uint256 amount) internal {\n        require(account != address(0), \"ERC20: burn from the zero address\");\n\n        _balances[account] = _balances[account].sub(amount, \"ERC20: burn amount exceeds balance\");\n        _totalSupply = _totalSupply.sub(amount);\n        emit Transfer(account, address(0), amount);\n    }\n    function _approve(address owner, address spender, uint256 amount) internal {\n        require(owner != address(0), \"ERC20: approve from the zero address\");\n        require(spender != address(0), \"ERC20: approve to the zero address\");\n\n        _allowances[owner][spender] = amount;\n        emit Approval(owner, spender, amount);\n    }\n    function _burnFrom(address account, uint256 amount) internal {\n        _burn(account, amount);\n        _approve(account, _msgSender(), _allowances[account][_msgSender()].sub(amount, \"ERC20: burn amount exceeds allowance\"));\n    }\n}\n\ncontract ERC20Detailed is IERC20 {\n    string private _name;\n    string private _symbol;\n    uint8 private _decimals;\n\n    constructor (string memory name, string memory symbol, uint8 decimals) public {\n        _name = name;\n        _symbol = symbol;\n        _decimals = decimals;\n    }\n    function name() public view returns (string memory) {\n        return _name;\n    }\n    function symbol() public view returns (string memory) {\n        return _symbol;\n    }\n    function decimals() public view returns (uint8) {\n        return _decimals;\n    }\n}\n\ncontract ReentrancyGuard {\n    uint256 private _guardCounter;\n\n    constructor () internal {\n        _guardCounter = 1;\n    }\n\n    modifier nonReentrant() {\n        _guardCounter += 1;\n        uint256 localCounter = _guardCounter;\n        _;\n        require(localCounter == _guardCounter, \"ReentrancyGuard: reentrant call\");\n    }\n}\n\ncontract Ownable is Context {\n    address private _owner;\n\n    event OwnershipTransferred(address indexed previousOwner, address indexed newOwner);\n    constructor () internal {\n        _owner = _msgSender();\n        emit OwnershipTransferred(address(0), _owner);\n    }\n    function owner() public view returns (address) {\n        return _owner;\n    }\n    modifier onlyOwner() {\n        require(isOwner(), \"Ownable: caller is not the owner\");\n        _;\n    }\n    function isOwner() public view returns (bool) {\n        return _msgSender() == _owner;\n    }\n    function renounceOwnership() public onlyOwner {\n        emit OwnershipTransferred(_owner, address(0));\n        _owner = address(0);\n    }\n    function transferOwnership(address newOwner) public onlyOwner {\n        _transferOwnership(newOwner);\n    }\n    function _transferOwnership(address newOwner) internal {\n        require(newOwner != address(0), \"Ownable: new owner is the zero address\");\n        emit OwnershipTransferred(_owner, newOwner);\n        _owner = newOwner;\n    }\n}\n\nlibrary SafeMath {\n    function add(uint256 a, uint256 b) internal pure returns (uint256) {\n        uint256 c = a + b;\n        require(c >= a, \"SafeMath: addition overflow\");\n\n        return c;\n    }\n    function sub(uint256 a, uint256 b) internal pure returns (uint256) {\n        return sub(a, b, \"SafeMath: subtraction overflow\");\n    }\n    function sub(uint256 a, uint256 b, string memory errorMessage) internal pure returns (uint256) {\n        require(b <= a, errorMessage);\n        uint256 c = a - b;\n\n        return c;\n    }\n    function mul(uint256 a, uint256 b) internal pure returns (uint256) {\n        if (a == 0) {\n            return 0;\n        }\n\n        uint256 c = a * b;\n        require(c / a == b, \"SafeMath: multiplication overflow\");\n\n        return c;\n    }\n    function div(uint256 a, uint256 b) internal pure returns (uint256) {\n        return div(a, b, \"SafeMath: division by zero\");\n    }\n    function div(uint256 a, uint256 b, string memory errorMessage) internal pure returns (uint256) {\n        // Solidity only automatically asserts when dividing by 0\n        require(b > 0, errorMessage);\n        uint256 c = a / b;\n\n        return c;\n    }\n    function mod(uint256 a, uint256 b) internal pure returns (uint256) {\n        return mod(a, b, \"SafeMath: modulo by zero\");\n    }\n    function mod(uint256 a, uint256 b, string memory errorMessage) internal pure returns (uint256) {\n        require(b != 0, errorMessage);\n        return a % b;\n    }\n}\n\nlibrary Address {\n    function isContract(address account) internal view returns (bool) {\n        bytes32 codehash;\n        bytes32 accountHash = 0xc5d2460186f7233c927e7db2dcc703c0e500b653ca82273b7bfad8045d85a470;\n        // solhint-disable-next-line no-inline-assembly\n        assembly { codehash := extcodehash(account) }\n        return (codehash != 0x0 && codehash != accountHash);\n    }\n    function toPayable(address account) internal pure returns (address payable) {\n        return address(uint160(account));\n    }\n    function sendValue(address payable recipient, uint256 amount) internal {\n        require(address(this).balance >= amount, \"Address: insufficient balance\");\n\n        // solhint-disable-next-line avoid-call-value\n        (bool success, ) = recipient.call.value(amount)(\"\");\n        require(success, \"Address: unable to send value, recipient may have reverted\");\n    }\n}\n\nlibrary SafeERC20 {\n    using SafeMath for uint256;\n    using Address for address;\n\n    function safeTransfer(IERC20 token, address to, uint256 value) internal {\n        callOptionalReturn(token, abi.encodeWithSelector(token.transfer.selector, to, value));\n    }\n\n    function safeTransferFrom(IERC20 token, address from, address to, uint256 value) internal {\n        callOptionalReturn(token, abi.encodeWithSelector(token.transferFrom.selector, from, to, value));\n    }\n\n    function safeApprove(IERC20 token, address spender, uint256 value) internal {\n        require((value == 0) || (token.allowance(address(this), spender) == 0),\n            \"SafeERC20: approve from non-zero to non-zero allowance\"\n        );\n        callOptionalReturn(token, abi.encodeWithSelector(token.approve.selector, spender, value));\n    }\n\n    function safeIncreaseAllowance(IERC20 token, address spender, uint256 value) internal {\n        uint256 newAllowance = token.allowance(address(this), spender).add(value);\n        callOptionalReturn(token, abi.encodeWithSelector(token.approve.selector, spender, newAllowance));\n    }\n\n    function safeDecreaseAllowance(IERC20 token, address spender, uint256 value) internal {\n        uint256 newAllowance = token.allowance(address(this), spender).sub(value, \"SafeERC20: decreased allowance below zero\");\n        callOptionalReturn(token, abi.encodeWithSelector(token.approve.selector, spender, newAllowance));\n    }\n    function callOptionalReturn(IERC20 token, bytes memory data) private {\n        require(address(token).isContract(), \"SafeERC20: call to non-contract\");\n\n        // solhint-disable-next-line avoid-low-level-calls\n        (bool success, bytes memory returndata) = address(token).call(data);\n        require(success, \"SafeERC20: low-level call failed\");\n\n        if (returndata.length > 0) { // Return data is optional\n            // solhint-disable-next-line max-line-length\n            require(abi.decode(returndata, (bool)), \"SafeERC20: ERC20 operation did not succeed\");\n        }\n    }\n}\n\ninterface Compound {\n    function approve ( address spender, uint256 amount ) external returns ( bool );\n    function mint ( uint256 mintAmount ) external returns ( uint256 );\n    function balanceOf(address _owner) external view returns (uint256 balance);\n    function transfer(address _to, uint _value) external returns (bool success);\n    function redeem(uint256 redeemTokens) external returns (uint256);\n    function exchangeRateStored() external view returns (uint);\n}\n\ninterface Fulcrum {\n    function mintWithEther(address receiver, uint256 maxPriceAllowed) external payable returns (uint256 mintAmount);\n    function mint(address receiver, uint256 amount) external payable returns (uint256 mintAmount);\n    function burnToEther(address receiver, uint256 burnAmount, uint256 minPriceAllowed) external returns (uint256 loanAmountPaid);\n    function burn(address receiver, uint256 burnAmount) external returns (uint256 loanAmountPaid);\n    function balanceOf(address _owner) external view returns (uint256 balance);\n    function assetBalanceOf(address _owner) external view returns (uint256 balance);\n}\n\ninterface ILendingPoolAddressesProvider {\n    function getLendingPool() external view returns (address);\n}\n\ninterface Aave {\n    function deposit(address _reserve, uint256 _amount, uint16 _referralCode) external;\n}\n\ninterface AToken {\n    function redeem(uint256 amount) external;\n    function balanceOf(address _owner) external view returns (uint256 balance);\n}\n\ninterface IIEarnManager {\n    function recommend(address _token) external view returns (\n      string memory choice,\n      uint256 capr,\n      uint256 iapr,\n      uint256 aapr,\n      uint256 dapr\n    );\n}\n\ncontract Structs {\n    struct Val {\n        uint256 value;\n    }\n\n    struct TotalPar {\n        uint128 borrow;\n        uint128 supply;\n    }\n\n    enum ActionType {\n        Deposit,   // supply tokens\n        Withdraw,  // borrow tokens\n        Transfer,  // transfer balance between accounts\n        Buy,       // buy an amount of some token (externally)\n        Sell,      // sell an amount of some token (externally)\n        Trade,     // trade tokens against another account\n        Liquidate, // liquidate an undercollateralized or expiring account\n        Vaporize,  // use excess tokens to zero-out a completely negative account\n        Call       // send arbitrary data to an address\n    }\n\n    enum AssetDenomination {\n        Wei, // the amount is denominated in wei\n        Par  // the amount is denominated in par\n    }\n\n    enum AssetReference {\n        Delta, // the amount is given as a delta from the current value\n        Target // the amount is given as an exact number to end up at\n    }\n\n    struct AssetAmount {\n        bool sign; // true if positive\n        AssetDenomination denomination;\n        AssetReference ref;\n        uint256 value;\n    }\n\n    struct ActionArgs {\n        ActionType actionType;\n        uint256 accountId;\n        AssetAmount amount;\n        uint256 primaryMarketId;\n        uint256 secondaryMarketId;\n        address otherAddress;\n        uint256 otherAccountId;\n        bytes data;\n    }\n\n    struct Info {\n        address owner;  // The address that owns the account\n        uint256 number; // A nonce that allows a single address to control many accounts\n    }\n\n    struct Wei {\n        bool sign; // true if positive\n        uint256 value;\n    }\n}\n\ncontract DyDx is Structs {\n    function getEarningsRate() public view returns (Val memory);\n    function getMarketInterestRate(uint256 marketId) public view returns (Val memory);\n    function getMarketTotalPar(uint256 marketId) public view returns (TotalPar memory);\n    function getAccountWei(Info memory account, uint256 marketId) public view returns (Wei memory);\n    function operate(Info[] memory, ActionArgs[] memory) public;\n}\n\ncontract iDAI is ERC20, ERC20Detailed, ReentrancyGuard, Ownable, Structs {\n  using SafeERC20 for IERC20;\n  using Address for address;\n  using SafeMath for uint256;\n\n  uint256 public pool;\n  address public token;\n  address public compound;\n  address public fulcrum;\n  address public aave;\n  address public aaveToken;\n  address public dydx;\n  uint256 public dToken;\n  address public apr;\n\n  enum Lender {\n      NONE,\n      DYDX,\n      COMPOUND,\n      AAVE,\n      FULCRUM\n  }\n\n  Lender public provider = Lender.NONE;\n\n  constructor () public ERC20Detailed(\"iDAI\", \"iDAI\", 18) {\n    token = address(0x6B175474E89094C44Da98b954EedeAC495271d0F);\n    apr = address(0x9CaD8AB10daA9AF1a9D2B878541f41b697268eEC);\n    dydx = address(0x1E0447b19BB6EcFdAe1e4AE1694b0C3659614e4e);\n    aave = address(0x24a42fD28C976A61Df5D00D0599C34c4f90748c8);\n    fulcrum = address(0x493C57C4763932315A328269E1ADaD09653B9081);\n    aaveToken = address(0xfC1E690f61EFd961294b3e1Ce3313fBD8aa4f85d);\n    compound = address(0x5d3a536E4D6DbD6114cc1Ead35777bAB948E3643);\n    dToken = 1;\n  }\n\n  function set_new_TOKEN(address _new_TOKEN) public onlyOwner {\n      token = _new_TOKEN;\n  }\n  function set_new_AAVE(address _new_AAVE) public onlyOwner {\n      aave = _new_AAVE;\n  }\n  function set_new_DYDX(address _new_DYDX) public onlyOwner {\n      dydx = _new_DYDX;\n  }\n  function set_new_APR(address _new_APR) public onlyOwner {\n      apr = _new_APR;\n  }\n  function set_new_FULCRUM(address _new_FULCRUM) public onlyOwner {\n      fulcrum = _new_FULCRUM;\n  }\n  function set_new_ATOKEN(address _new_ATOKEN) public onlyOwner {\n      aaveToken = _new_ATOKEN;\n  }\n  function set_new_COMPOUND(address _new_COMPOUND) public onlyOwner {\n      compound = _new_COMPOUND;\n  }\n\n  function() external payable {\n\n  }\n\n  function recommendName() public view returns (string memory name) {\n    Lender prov = recommend();\n    if (prov == Lender.NONE) {\n      name = 'NONE';\n    }\n    if (prov == Lender.AAVE) {\n      name = 'AAVE';\n    }\n    if (prov == Lender.FULCRUM) {\n      name = 'FULCRUM';\n    }\n    if (prov == Lender.COMPOUND) {\n      name = 'COMPOUND';\n    }\n    if (prov == Lender.DYDX) {\n      name = 'DYDX';\n    }\n    return name;\n  }\n\n  function recommend() public view returns (Lender) {\n    (,uint256 capr,uint256 iapr,uint256 aapr,uint256 dapr) = IIEarnManager(apr).recommend(token);\n    uint256 max = 0;\n    if (capr > max) {\n      max = capr;\n    }\n    if (iapr > max) {\n      max = iapr;\n    }\n    if (aapr > max) {\n      max = aapr;\n    }\n    if (dapr > max) {\n      max = dapr;\n    }\n\n    Lender newProvider = Lender.NONE;\n    if (max == dapr) {\n      newProvider = Lender.DYDX;\n    }\n    if (max == aapr) {\n      newProvider = Lender.AAVE;\n    }\n    if (max == iapr) {\n      newProvider = Lender.FULCRUM;\n    }\n    if (max == capr) {\n      newProvider = Lender.COMPOUND;\n    }\n    return newProvider;\n  }\n\n  function supplyDydx(uint256 amount) public returns(uint) {\n      Info[] memory infos = new Info[](1);\n      infos[0] = Info(address(this), 0);\n\n      AssetAmount memory amt = AssetAmount(true, AssetDenomination.Wei, AssetReference.Delta, amount);\n      ActionArgs memory act;\n      act.actionType = ActionType.Deposit;\n      act.accountId = 0;\n      act.amount = amt;\n      act.primaryMarketId = dToken;\n      act.otherAddress = address(this);\n\n      ActionArgs[] memory args = new ActionArgs[](1);\n      args[0] = act;\n\n      DyDx(dydx).operate(infos, args);\n  }\n\n  function withdrawDydx(uint256 amount) public {\n      Info[] memory infos = new Info[](1);\n      infos[0] = Info(address(this), 0);\n\n      AssetAmount memory amt = AssetAmount(true, AssetDenomination.Wei, AssetReference.Delta, amount);\n      ActionArgs memory act;\n      act.actionType = ActionType.Withdraw;\n      act.accountId = 0;\n      act.amount = amt;\n      act.primaryMarketId = dToken;\n      act.otherAddress = address(this);\n\n      ActionArgs[] memory args = new ActionArgs[](1);\n      args[0] = act;\n\n      DyDx(dydx).operate(infos, args);\n  }\n\n  function balance() public view returns (uint256) {\n    return IERC20(token).balanceOf(address(this));\n  }\n\n  function approveToken() public {\n      IERC20(token).approve(compound, uint(-1)); //also add to constructor\n      IERC20(token).approve(dydx, uint(-1));\n      IERC20(token).approve(aave, uint(-1));\n      IERC20(token).approve(fulcrum, uint(-1));\n  }\n\n  function balanceDydx() public view returns (uint256) {\n      Wei memory bal = DyDx(dydx).getAccountWei(Info(address(this), 0), dToken);\n      return bal.value;\n  }\n  function balanceCompound() public view returns (uint256) {\n      return IERC20(compound).balanceOf(address(this));\n  }\n  function balanceCompoundInToken() public view returns (uint256) {\n    // Mantisa 1e18 to decimals\n    uint256 b = balanceCompound();\n    if (b > 0) {\n      b = b.mul(Compound(compound).exchangeRateStored()).div(1e18);\n    }\n    return b;\n  }\n  function balanceFulcrumInToken() public view returns (uint256) {\n    uint256 b = balanceFulcrum();\n    if (b > 0) {\n      b = Fulcrum(fulcrum).assetBalanceOf(address(this));\n    }\n    return b;\n  }\n  function balanceFulcrum() public view returns (uint256) {\n    return IERC20(fulcrum).balanceOf(address(this));\n  }\n  function balanceAave() public view returns (uint256) {\n    return IERC20(aaveToken).balanceOf(address(this));\n  }\n\n  function withdrawAll() public {\n    uint256 amount = balanceCompound();\n    if (amount > 0) {\n      withdrawCompound(amount);\n    }\n    amount = balanceDydx();\n    if (amount > 0) {\n      withdrawDydx(amount);\n    }\n    amount = balanceFulcrum();\n    if (amount > 0) {\n      withdrawFulcrum(amount);\n    }\n    amount = balanceAave();\n    if (amount > 0) {\n      withdrawAave(amount);\n    }\n  }\n\n  function withdrawSome(uint256 _amount) public {\n    uint256 b;\n    uint256 bT;\n    uint256 amount;\n    if (provider == Lender.COMPOUND) {\n      b = balanceCompound();\n      bT = balanceCompoundInToken();\n      require(bT >= _amount, \"insufficient funds\");\n      amount = b.mul(bT).div(_amount);\n      withdrawCompound(amount);\n    }\n    if (provider == Lender.AAVE) {\n      require(balanceAave() >= _amount, \"insufficient funds\");\n      withdrawAave(_amount);\n    }\n    if (provider == Lender.DYDX) {\n      require(balanceDydx() >= _amount, \"insufficient funds\");\n      withdrawDydx(_amount);\n    }\n    if (provider == Lender.FULCRUM) {\n      require(balanceFulcrum() >= _amount, \"insufficient funds\");\n      b = balanceFulcrum();\n      bT = balanceFulcrumInToken();\n      require(bT >= _amount, \"insufficient funds\");\n      amount = b.mul(bT).div(_amount);\n      withdrawFulcrum(amount);\n    }\n  }\n\n  function rebalance() public {\n    Lender newProvider = recommend();\n\n    if (newProvider != provider) {\n      withdrawAll();\n    }\n\n    if (balance() > 0) {\n      if (newProvider == Lender.DYDX) {\n        supplyDydx(balance());\n      }\n      if (newProvider == Lender.FULCRUM) {\n        supplyFulcrum(balance());\n      }\n      if (newProvider == Lender.COMPOUND) {\n        supplyCompound(balance());\n      }\n      if (newProvider == Lender.AAVE) {\n        supplyAave(balance());\n      }\n    }\n  }\n\n  function supplyAave(uint amount) public {\n      Aave(aave).deposit(token, amount, 0);\n  }\n  function supplyFulcrum(uint amount) public {\n      require(Fulcrum(fulcrum).mint(address(this), amount) > 0, \"FULCRUM: supply failed\");\n  }\n  function supplyCompound(uint amount) public {\n      require(Compound(compound).mint(amount) == 0, \"COMPOUND: supply failed\");\n  }\n  function withdrawAave(uint amount) public {\n      AToken(aaveToken).redeem(amount);\n  }\n  function withdrawFulcrum(uint amount) public {\n      require(Fulcrum(fulcrum).burn(address(this), amount) > 0, \"FULCRUM: withdraw failed\");\n  }\n  function withdrawCompound(uint amount) public {\n      require(Compound(compound).redeem(amount) == 0, \"COMPOUND: withdraw failed\");\n  }\n\n  // Invest ETH\n  function invest(uint256 _amount)\n      external\n      nonReentrant\n  {\n      require(_amount > 0, \"deposit must be greater than 0\");\n      pool = calcPoolValueInToken();\n\n      IERC20(token).transferFrom(msg.sender, address(this), _amount);\n\n      rebalance();\n\n      // Calculate pool shares\n      uint256 shares = 0;\n      if (pool == 0) {\n        shares = _amount;\n        pool = _amount;\n      } else {\n        shares = (_amount.mul(_totalSupply)).div(pool);\n      }\n      pool = calcPoolValueInToken();\n      _mint(msg.sender, shares);\n  }\n\n  // Invest self eth from external profits\n  function investSelf()\n      external\n      nonReentrant\n      onlyOwner\n  {\n      uint b = IERC20(token).balanceOf(address(this));\n      require(b > 0, \"deposit must be greater than 0\");\n      rebalance();\n      pool = calcPoolValueInToken();\n  }\n\n  function calcPoolValueInToken() public view returns (uint) {\n\n    return balanceCompoundInToken()\n      .add(balanceFulcrumInToken())\n      .add(balanceDydx())\n      .add(balanceAave());\n  }\n\n  function getPricePerFullShare() public view returns (uint) {\n    uint _pool = calcPoolValueInToken();\n    return _pool.mul(1e18).div(_totalSupply);\n  }\n\n  // Redeem any invested tokens from the pool\n  function redeem(uint256 _shares)\n      external\n      nonReentrant\n  {\n      require(_shares > 0, \"withdraw must be greater than 0\");\n\n      uint256 ibalance = balanceOf(msg.sender);\n      require(_shares <= ibalance, \"insufficient balance\");\n\n      // Could have over value from cTokens\n      pool = calcPoolValueInToken();\n      // Calc eth to redeem before updating balances\n      uint256 r = (pool.mul(_shares)).div(_totalSupply);\n\n\n      _balances[msg.sender] = _balances[msg.sender].sub(_shares, \"redeem amount exceeds balance\");\n      _totalSupply = _totalSupply.sub(_shares);\n\n      emit Transfer(msg.sender, address(0), _shares);\n\n      // Check ETH balance\n      uint256 b = IERC20(token).balanceOf(address(this));\n      if (b < r) {\n        withdrawSome(r);\n      }\n\n      IERC20(token).transfer(msg.sender, r);\n  }\n\n  // incase of half-way error\n  function inCaseTokenGetsStuck(IERC20 _TokenAddress) onlyOwner public {\n      uint qty = _TokenAddress.balanceOf(address(this));\n      _TokenAddress.transfer(msg.sender, qty);\n  }\n  // incase of half-way error\n  function inCaseETHGetsStuck() onlyOwner public{\n      (bool result, ) = msg.sender.call.value(address(this).balance)(\"\");\n      require(result, \"transfer of ETH failed\");\n  }\n}\n",
  "sourcePath": "D:/ftm/itoken/contracts/IDAI.sol",
  "compiler": {
    "name": "solc",
    "version": "0.5.12+commit.7709ece9.Emscripten.clang"
  },
  "schemaVersion": "3.0.19",
  "updatedAt": "2020-01-30T00:09:45.894Z",
  "devdoc": {
    "methods": {}
  },
  "userdoc": {
    "methods": {}
  }
}