{
  "contractName": "iDAIZapSwap",
  "abi": [
    {
      "inputs": [],
      "payable": false,
      "stateMutability": "nonpayable",
      "type": "constructor"
    },
    {
      "anonymous": false,
      "inputs": [
        {
          "indexed": true,
          "internalType": "address",
          "name": "previousOwner",
          "type": "address"
        },
        {
          "indexed": true,
          "internalType": "address",
          "name": "newOwner",
          "type": "address"
        }
      ],
      "name": "OwnershipTransferred",
      "type": "event"
    },
    {
      "payable": true,
      "stateMutability": "payable",
      "type": "fallback"
    },
    {
      "constant": true,
      "inputs": [],
      "name": "CURVE",
      "outputs": [
        {
          "internalType": "address",
          "name": "",
          "type": "address"
        }
      ],
      "payable": false,
      "stateMutability": "view",
      "type": "function"
    },
    {
      "constant": true,
      "inputs": [],
      "name": "RATIO",
      "outputs": [
        {
          "internalType": "uint256",
          "name": "",
          "type": "uint256"
        }
      ],
      "payable": false,
      "stateMutability": "view",
      "type": "function"
    },
    {
      "constant": true,
      "inputs": [],
      "name": "iDAI",
      "outputs": [
        {
          "internalType": "address",
          "name": "",
          "type": "address"
        }
      ],
      "payable": false,
      "stateMutability": "view",
      "type": "function"
    },
    {
      "constant": true,
      "inputs": [],
      "name": "isOwner",
      "outputs": [
        {
          "internalType": "bool",
          "name": "",
          "type": "bool"
        }
      ],
      "payable": false,
      "stateMutability": "view",
      "type": "function"
    },
    {
      "constant": true,
      "inputs": [],
      "name": "owner",
      "outputs": [
        {
          "internalType": "address",
          "name": "",
          "type": "address"
        }
      ],
      "payable": false,
      "stateMutability": "view",
      "type": "function"
    },
    {
      "constant": false,
      "inputs": [],
      "name": "renounceOwnership",
      "outputs": [],
      "payable": false,
      "stateMutability": "nonpayable",
      "type": "function"
    },
    {
      "constant": false,
      "inputs": [
        {
          "internalType": "address",
          "name": "newOwner",
          "type": "address"
        }
      ],
      "name": "transferOwnership",
      "outputs": [],
      "payable": false,
      "stateMutability": "nonpayable",
      "type": "function"
    },
    {
      "constant": false,
      "inputs": [
        {
          "internalType": "uint256",
          "name": "_new_RATIO",
          "type": "uint256"
        }
      ],
      "name": "set_new_RATIO",
      "outputs": [],
      "payable": false,
      "stateMutability": "nonpayable",
      "type": "function"
    },
    {
      "constant": true,
      "inputs": [],
      "name": "balanceCurve",
      "outputs": [
        {
          "internalType": "uint256",
          "name": "",
          "type": "uint256"
        }
      ],
      "payable": false,
      "stateMutability": "view",
      "type": "function"
    },
    {
      "constant": true,
      "inputs": [],
      "name": "balanceiDAI",
      "outputs": [
        {
          "internalType": "uint256",
          "name": "",
          "type": "uint256"
        }
      ],
      "payable": false,
      "stateMutability": "view",
      "type": "function"
    },
    {
      "constant": true,
      "inputs": [
        {
          "internalType": "uint256",
          "name": "_amount",
          "type": "uint256"
        }
      ],
      "name": "quote",
      "outputs": [
        {
          "internalType": "uint256",
          "name": "",
          "type": "uint256"
        }
      ],
      "payable": false,
      "stateMutability": "view",
      "type": "function"
    },
    {
      "constant": false,
      "inputs": [
        {
          "internalType": "uint256",
          "name": "_amount",
          "type": "uint256"
        }
      ],
      "name": "swapiDAItoyDAI",
      "outputs": [],
      "payable": false,
      "stateMutability": "nonpayable",
      "type": "function"
    },
    {
      "constant": false,
      "inputs": [
        {
          "internalType": "contract IERC20",
          "name": "_TokenAddress",
          "type": "address"
        }
      ],
      "name": "inCaseTokenGetsStuck",
      "outputs": [],
      "payable": false,
      "stateMutability": "nonpayable",
      "type": "function"
    },
    {
      "constant": false,
      "inputs": [],
      "name": "inCaseETHGetsStuck",
      "outputs": [],
      "payable": false,
      "stateMutability": "nonpayable",
      "type": "function"
    }
  ],
  "bytecode": "0x608060405234801561001057600080fd5b50600160008190555061002761019c60201b60201c565b600160006101000a81548173ffffffffffffffffffffffffffffffffffffffff021916908373ffffffffffffffffffffffffffffffffffffffff160217905550600160009054906101000a900473ffffffffffffffffffffffffffffffffffffffff1673ffffffffffffffffffffffffffffffffffffffff16600073ffffffffffffffffffffffffffffffffffffffff167f8be0079c531659141344cd1fd0a4f28419497f9722a3daafe3b4186f6b6457e060405160405180910390a373df5e0e81dff6faf3a7e52ba697820c5e32d806a8600260006101000a81548173ffffffffffffffffffffffffffffffffffffffff021916908373ffffffffffffffffffffffffffffffffffffffff16021790555073493c57c4763932315a328269e1adad09653b9081600360006101000a81548173ffffffffffffffffffffffffffffffffffffffff021916908373ffffffffffffffffffffffffffffffffffffffff1602179055506121346004819055506101a4565b600033905090565b61188b806101b36000396000f3fe6080604052600436106100dd5760003560e01c8063715018a61161007f578063d10a346711610059578063d10a346714610273578063ed1bd76c1461029e578063f2fde38b146102db578063f60a15ed14610304576100dd565b8063715018a6146102065780638da5cb5b1461021d5780638f32d59b14610248576100dd565b80634144bda3116100bb5780634144bda31461015c578063553bf3491461018557806359e741d2146101b0578063670f8047146101db576100dd565b8063160e0da3146100df5780632e8d6e18146101085780633a3c3b8714610131575b005b3480156100eb57600080fd5b50610106600480360361010191908101906110e8565b61031b565b005b34801561011457600080fd5b5061012f600480360361012a91908101906110bf565b610486565b005b34801561013d57600080fd5b50610146610589565b60405161015391906114d8565b60405180910390f35b34801561016857600080fd5b50610183600480360361017e91908101906110e8565b6105af565b005b34801561019157600080fd5b5061019a610600565b6040516101a791906114d8565b60405180910390f35b3480156101bc57600080fd5b506101c5610626565b6040516101d291906116cb565b60405180910390f35b3480156101e757600080fd5b506101f061062c565b6040516101fd91906116cb565b60405180910390f35b34801561021257600080fd5b5061021b6106de565b005b34801561022957600080fd5b506102326107e6565b60405161023f91906114d8565b60405180910390f35b34801561025457600080fd5b5061025d610810565b60405161026a919061156e565b60405180910390f35b34801561027f57600080fd5b5061028861086f565b60405161029591906116cb565b60405180910390f35b3480156102aa57600080fd5b506102c560048036036102c091908101906110e8565b610921565b6040516102d291906116cb565b60405180910390f35b3480156102e757600080fd5b5061030260048036036102fd919081019061106d565b610953565b005b34801561031057600080fd5b506103196109a6565b005b6001600080828254019250508190555060008054905060008211610374576040517f08c379a000000000000000000000000000000000000000000000000000000000815260040161036b9061164b565b60405180910390fd5b6103c3333084600360009054906101000a900473ffffffffffffffffffffffffffffffffffffffff1673ffffffffffffffffffffffffffffffffffffffff16610ab3909392919063ffffffff16565b60006103ee6127106103e060045486610b5590919063ffffffff16565b610bc590919063ffffffff16565b905061043d3382600260009054906101000a900473ffffffffffffffffffffffffffffffffffffffff1673ffffffffffffffffffffffffffffffffffffffff16610c0f9092919063ffffffff16565b506000548114610482576040517f08c379a00000000000000000000000000000000000000000000000000000000081526004016104799061168b565b60405180910390fd5b5050565b61048e610810565b6104cd576040517f08c379a00000000000000000000000000000000000000000000000000000000081526004016104c49061162b565b60405180910390fd5b60008173ffffffffffffffffffffffffffffffffffffffff166370a08231306040518263ffffffff1660e01b815260040161050891906114f3565b60206040518083038186803b15801561052057600080fd5b505afa158015610534573d6000803e3d6000fd5b505050506040513d601f19601f820116820180604052506105589190810190611111565b905061058533828473ffffffffffffffffffffffffffffffffffffffff16610c0f9092919063ffffffff16565b5050565b600260009054906101000a900473ffffffffffffffffffffffffffffffffffffffff1681565b6105b7610810565b6105f6576040517f08c379a00000000000000000000000000000000000000000000000000000000081526004016105ed9061162b565b60405180910390fd5b8060048190555050565b600360009054906101000a900473ffffffffffffffffffffffffffffffffffffffff1681565b60045481565b6000600360009054906101000a900473ffffffffffffffffffffffffffffffffffffffff1673ffffffffffffffffffffffffffffffffffffffff166370a08231306040518263ffffffff1660e01b815260040161068991906114f3565b60206040518083038186803b1580156106a157600080fd5b505afa1580156106b5573d6000803e3d6000fd5b505050506040513d601f19601f820116820180604052506106d99190810190611111565b905090565b6106e6610810565b610725576040517f08c379a000000000000000000000000000000000000000000000000000000000815260040161071c9061162b565b60405180910390fd5b600073ffffffffffffffffffffffffffffffffffffffff16600160009054906101000a900473ffffffffffffffffffffffffffffffffffffffff1673ffffffffffffffffffffffffffffffffffffffff167f8be0079c531659141344cd1fd0a4f28419497f9722a3daafe3b4186f6b6457e060405160405180910390a36000600160006101000a81548173ffffffffffffffffffffffffffffffffffffffff021916908373ffffffffffffffffffffffffffffffffffffffff160217905550565b6000600160009054906101000a900473ffffffffffffffffffffffffffffffffffffffff16905090565b6000600160009054906101000a900473ffffffffffffffffffffffffffffffffffffffff1673ffffffffffffffffffffffffffffffffffffffff16610853610cae565b73ffffffffffffffffffffffffffffffffffffffff1614905090565b6000600260009054906101000a900473ffffffffffffffffffffffffffffffffffffffff1673ffffffffffffffffffffffffffffffffffffffff166370a08231306040518263ffffffff1660e01b81526004016108cc91906114f3565b60206040518083038186803b1580156108e457600080fd5b505afa1580156108f8573d6000803e3d6000fd5b505050506040513d601f19601f8201168201806040525061091c9190810190611111565b905090565b600061094c61271061093e60045485610b5590919063ffffffff16565b610bc590919063ffffffff16565b9050919050565b61095b610810565b61099a576040517f08c379a00000000000000000000000000000000000000000000000000000000081526004016109919061162b565b60405180910390fd5b6109a381610cb6565b50565b6109ae610810565b6109ed576040517f08c379a00000000000000000000000000000000000000000000000000000000081526004016109e49061162b565b60405180910390fd5b60003373ffffffffffffffffffffffffffffffffffffffff163073ffffffffffffffffffffffffffffffffffffffff1631604051610a2a906114c3565b60006040518083038185875af1925050503d8060008114610a67576040519150601f19603f3d011682016040523d82523d6000602084013e610a6c565b606091505b5050905080610ab0576040517f08c379a0000000000000000000000000000000000000000000000000000000008152600401610aa7906115eb565b60405180910390fd5b50565b610b4f848573ffffffffffffffffffffffffffffffffffffffff166323b872dd905060e01b858585604051602401610aed9392919061150e565b604051602081830303815290604052907bffffffffffffffffffffffffffffffffffffffffffffffffffffffff19166020820180517bffffffffffffffffffffffffffffffffffffffffffffffffffffffff8381831617835250505050610de6565b50505050565b600080831415610b685760009050610bbf565b6000828402905082848281610b7957fe5b0414610bba576040517f08c379a0000000000000000000000000000000000000000000000000000000008152600401610bb19061160b565b60405180910390fd5b809150505b92915050565b6000610c0783836040518060400160405280601a81526020017f536166654d6174683a206469766973696f6e206279207a65726f000000000000815250610f58565b905092915050565b610ca9838473ffffffffffffffffffffffffffffffffffffffff1663a9059cbb905060e01b8484604051602401610c47929190611545565b604051602081830303815290604052907bffffffffffffffffffffffffffffffffffffffffffffffffffffffff19166020820180517bffffffffffffffffffffffffffffffffffffffffffffffffffffffff8381831617835250505050610de6565b505050565b600033905090565b600073ffffffffffffffffffffffffffffffffffffffff168173ffffffffffffffffffffffffffffffffffffffff161415610d26576040517f08c379a0000000000000000000000000000000000000000000000000000000008152600401610d1d906115ab565b60405180910390fd5b8073ffffffffffffffffffffffffffffffffffffffff16600160009054906101000a900473ffffffffffffffffffffffffffffffffffffffff1673ffffffffffffffffffffffffffffffffffffffff167f8be0079c531659141344cd1fd0a4f28419497f9722a3daafe3b4186f6b6457e060405160405180910390a380600160006101000a81548173ffffffffffffffffffffffffffffffffffffffff021916908373ffffffffffffffffffffffffffffffffffffffff16021790555050565b610e058273ffffffffffffffffffffffffffffffffffffffff16610fb9565b610e44576040517f08c379a0000000000000000000000000000000000000000000000000000000008152600401610e3b906116ab565b60405180910390fd5b600060608373ffffffffffffffffffffffffffffffffffffffff1683604051610e6d91906114ac565b6000604051808303816000865af19150503d8060008114610eaa576040519150601f19603f3d011682016040523d82523d6000602084013e610eaf565b606091505b509150915081610ef4576040517f08c379a0000000000000000000000000000000000000000000000000000000008152600401610eeb906115cb565b60405180910390fd5b600081511115610f525780806020019051610f129190810190611096565b610f51576040517f08c379a0000000000000000000000000000000000000000000000000000000008152600401610f489061166b565b60405180910390fd5b5b50505050565b60008083118290610f9f576040517f08c379a0000000000000000000000000000000000000000000000000000000008152600401610f969190611589565b60405180910390fd5b506000838581610fab57fe5b049050809150509392505050565b60008060007fc5d2460186f7233c927e7db2dcc703c0e500b653ca82273b7bfad8045d85a47060001b9050833f91506000801b8214158015610ffb5750808214155b92505050919050565b600081359050611013816117ec565b92915050565b60008151905061102881611803565b92915050565b60008135905061103d8161181a565b92915050565b60008135905061105281611831565b92915050565b60008151905061106781611831565b92915050565b60006020828403121561107f57600080fd5b600061108d84828501611004565b91505092915050565b6000602082840312156110a857600080fd5b60006110b684828501611019565b91505092915050565b6000602082840312156110d157600080fd5b60006110df8482850161102e565b91505092915050565b6000602082840312156110fa57600080fd5b600061110884828501611043565b91505092915050565b60006020828403121561112357600080fd5b600061113184828501611058565b91505092915050565b61114381611772565b82525050565b61115281611718565b82525050565b6111618161172a565b82525050565b6000611172826116e6565b61117c81856116fc565b935061118c8185602086016117a8565b80840191505092915050565b60006111a3826116f1565b6111ad8185611707565b93506111bd8185602086016117a8565b6111c6816117db565b840191505092915050565b60006111de602683611707565b91507f4f776e61626c653a206e6577206f776e657220697320746865207a65726f206160008301527f64647265737300000000000000000000000000000000000000000000000000006020830152604082019050919050565b6000611244602083611707565b91507f5361666545524332303a206c6f772d6c6576656c2063616c6c206661696c65646000830152602082019050919050565b6000611284601683611707565b91507f7472616e73666572206f6620455448206661696c6564000000000000000000006000830152602082019050919050565b60006112c4602183611707565b91507f536166654d6174683a206d756c7469706c69636174696f6e206f766572666c6f60008301527f77000000000000000000000000000000000000000000000000000000000000006020830152604082019050919050565b600061132a602083611707565b91507f4f776e61626c653a2063616c6c6572206973206e6f7420746865206f776e65726000830152602082019050919050565b600061136a601b83611707565b91507f69444149206d7573742062652067726561746572207468616e203000000000006000830152602082019050919050565b60006113aa6000836116fc565b9150600082019050919050565b60006113c4602a83611707565b91507f5361666545524332303a204552433230206f7065726174696f6e20646964206e60008301527f6f742073756363656564000000000000000000000000000000000000000000006020830152604082019050919050565b600061142a601f83611707565b91507f5265656e7472616e637947756172643a207265656e7472616e742063616c6c006000830152602082019050919050565b600061146a601f83611707565b91507f5361666545524332303a2063616c6c20746f206e6f6e2d636f6e7472616374006000830152602082019050919050565b6114a681611768565b82525050565b60006114b88284611167565b915081905092915050565b60006114ce8261139d565b9150819050919050565b60006020820190506114ed6000830184611149565b92915050565b6000602082019050611508600083018461113a565b92915050565b60006060820190506115236000830186611149565b6115306020830185611149565b61153d604083018461149d565b949350505050565b600060408201905061155a6000830185611149565b611567602083018461149d565b9392505050565b60006020820190506115836000830184611158565b92915050565b600060208201905081810360008301526115a38184611198565b905092915050565b600060208201905081810360008301526115c4816111d1565b9050919050565b600060208201905081810360008301526115e481611237565b9050919050565b6000602082019050818103600083015261160481611277565b9050919050565b60006020820190508181036000830152611624816112b7565b9050919050565b600060208201905081810360008301526116448161131d565b9050919050565b600060208201905081810360008301526116648161135d565b9050919050565b60006020820190508181036000830152611684816113b7565b9050919050565b600060208201905081810360008301526116a48161141d565b9050919050565b600060208201905081810360008301526116c48161145d565b9050919050565b60006020820190506116e0600083018461149d565b92915050565b600081519050919050565b600081519050919050565b600081905092915050565b600082825260208201905092915050565b600061172382611748565b9050919050565b60008115159050919050565b600061174182611718565b9050919050565b600073ffffffffffffffffffffffffffffffffffffffff82169050919050565b6000819050919050565b600061177d82611784565b9050919050565b600061178f82611796565b9050919050565b60006117a182611748565b9050919050565b60005b838110156117c65780820151818401526020810190506117ab565b838111156117d5576000848401525b50505050565b6000601f19601f8301169050919050565b6117f581611718565b811461180057600080fd5b50565b61180c8161172a565b811461181757600080fd5b50565b61182381611736565b811461182e57600080fd5b50565b61183a81611768565b811461184557600080fd5b5056fea365627a7a72315820051c826a0cde180ad1b52eb0c334fc1d0c1a90b4616105b23768ed854bf4a4cf6c6578706572696d656e74616cf564736f6c634300050c0040",
  "source": "pragma solidity ^0.5.0;\npragma experimental ABIEncoderV2;\n\ninterface IERC20 {\n    function totalSupply() external view returns (uint256);\n    function balanceOf(address account) external view returns (uint256);\n    function transfer(address recipient, uint256 amount) external returns (bool);\n    function allowance(address owner, address spender) external view returns (uint256);\n    function approve(address spender, uint256 amount) external returns (bool);\n    function transferFrom(address sender, address recipient, uint256 amount) external returns (bool);\n    event Transfer(address indexed from, address indexed to, uint256 value);\n    event Approval(address indexed owner, address indexed spender, uint256 value);\n}\n\ncontract Context {\n    constructor () internal { }\n    // solhint-disable-previous-line no-empty-blocks\n\n    function _msgSender() internal view returns (address payable) {\n        return msg.sender;\n    }\n\n    function _msgData() internal view returns (bytes memory) {\n        this; // silence state mutability warning without generating bytecode - see https://github.com/ethereum/solidity/issues/2691\n        return msg.data;\n    }\n}\n\ncontract ReentrancyGuard {\n    uint256 private _guardCounter;\n\n    constructor () internal {\n        _guardCounter = 1;\n    }\n\n    modifier nonReentrant() {\n        _guardCounter += 1;\n        uint256 localCounter = _guardCounter;\n        _;\n        require(localCounter == _guardCounter, \"ReentrancyGuard: reentrant call\");\n    }\n}\n\ncontract Ownable is Context {\n    address private _owner;\n\n    event OwnershipTransferred(address indexed previousOwner, address indexed newOwner);\n    constructor () internal {\n        _owner = _msgSender();\n        emit OwnershipTransferred(address(0), _owner);\n    }\n    function owner() public view returns (address) {\n        return _owner;\n    }\n    modifier onlyOwner() {\n        require(isOwner(), \"Ownable: caller is not the owner\");\n        _;\n    }\n    function isOwner() public view returns (bool) {\n        return _msgSender() == _owner;\n    }\n    function renounceOwnership() public onlyOwner {\n        emit OwnershipTransferred(_owner, address(0));\n        _owner = address(0);\n    }\n    function transferOwnership(address newOwner) public onlyOwner {\n        _transferOwnership(newOwner);\n    }\n    function _transferOwnership(address newOwner) internal {\n        require(newOwner != address(0), \"Ownable: new owner is the zero address\");\n        emit OwnershipTransferred(_owner, newOwner);\n        _owner = newOwner;\n    }\n}\n\nlibrary SafeMath {\n    function add(uint256 a, uint256 b) internal pure returns (uint256) {\n        uint256 c = a + b;\n        require(c >= a, \"SafeMath: addition overflow\");\n\n        return c;\n    }\n    function sub(uint256 a, uint256 b) internal pure returns (uint256) {\n        return sub(a, b, \"SafeMath: subtraction overflow\");\n    }\n    function sub(uint256 a, uint256 b, string memory errorMessage) internal pure returns (uint256) {\n        require(b <= a, errorMessage);\n        uint256 c = a - b;\n\n        return c;\n    }\n    function mul(uint256 a, uint256 b) internal pure returns (uint256) {\n        if (a == 0) {\n            return 0;\n        }\n\n        uint256 c = a * b;\n        require(c / a == b, \"SafeMath: multiplication overflow\");\n\n        return c;\n    }\n    function div(uint256 a, uint256 b) internal pure returns (uint256) {\n        return div(a, b, \"SafeMath: division by zero\");\n    }\n    function div(uint256 a, uint256 b, string memory errorMessage) internal pure returns (uint256) {\n        // Solidity only automatically asserts when dividing by 0\n        require(b > 0, errorMessage);\n        uint256 c = a / b;\n\n        return c;\n    }\n    function mod(uint256 a, uint256 b) internal pure returns (uint256) {\n        return mod(a, b, \"SafeMath: modulo by zero\");\n    }\n    function mod(uint256 a, uint256 b, string memory errorMessage) internal pure returns (uint256) {\n        require(b != 0, errorMessage);\n        return a % b;\n    }\n}\n\nlibrary Address {\n    function isContract(address account) internal view returns (bool) {\n        bytes32 codehash;\n        bytes32 accountHash = 0xc5d2460186f7233c927e7db2dcc703c0e500b653ca82273b7bfad8045d85a470;\n        // solhint-disable-next-line no-inline-assembly\n        assembly { codehash := extcodehash(account) }\n        return (codehash != 0x0 && codehash != accountHash);\n    }\n    function toPayable(address account) internal pure returns (address payable) {\n        return address(uint160(account));\n    }\n    function sendValue(address payable recipient, uint256 amount) internal {\n        require(address(this).balance >= amount, \"Address: insufficient balance\");\n\n        // solhint-disable-next-line avoid-call-value\n        (bool success, ) = recipient.call.value(amount)(\"\");\n        require(success, \"Address: unable to send value, recipient may have reverted\");\n    }\n}\n\nlibrary SafeERC20 {\n    using SafeMath for uint256;\n    using Address for address;\n\n    function safeTransfer(IERC20 token, address to, uint256 value) internal {\n        callOptionalReturn(token, abi.encodeWithSelector(token.transfer.selector, to, value));\n    }\n    function safeTransferFrom(IERC20 token, address from, address to, uint256 value) internal {\n        callOptionalReturn(token, abi.encodeWithSelector(token.transferFrom.selector, from, to, value));\n    }\n    function safeApprove(IERC20 token, address spender, uint256 value) internal {\n        require((value == 0) || (token.allowance(address(this), spender) == 0),\n            \"SafeERC20: approve from non-zero to non-zero allowance\"\n        );\n        callOptionalReturn(token, abi.encodeWithSelector(token.approve.selector, spender, value));\n    }\n    function callOptionalReturn(IERC20 token, bytes memory data) private {\n        require(address(token).isContract(), \"SafeERC20: call to non-contract\");\n\n        // solhint-disable-next-line avoid-low-level-calls\n        (bool success, bytes memory returndata) = address(token).call(data);\n        require(success, \"SafeERC20: low-level call failed\");\n\n        if (returndata.length > 0) { // Return data is optional\n            // solhint-disable-next-line max-line-length\n            require(abi.decode(returndata, (bool)), \"SafeERC20: ERC20 operation did not succeed\");\n        }\n    }\n}\n\ncontract iDAIZapSwap is ReentrancyGuard, Ownable {\n  using SafeERC20 for IERC20;\n  using Address for address;\n  using SafeMath for uint256;\n\n  address public CURVE;\n  address public iDAI;\n  uint256 public RATIO;\n\n  constructor () public {\n    CURVE = address(0xdF5e0e81Dff6FAF3A7e52BA697820c5e32D806A8);\n    iDAI = address(0x493C57C4763932315A328269E1ADaD09653B9081);\n    RATIO = 8500;\n  }\n\n  function() external payable {\n\n  }\n\n  // Ownable setters incase of support in future for these systems\n  function set_new_RATIO(uint256 _new_RATIO) public onlyOwner {\n      RATIO = _new_RATIO;\n  }\n\n  function balanceCurve() external view returns (uint256) {\n      return IERC20(CURVE).balanceOf(address(this));\n  }\n\n  function balanceiDAI() external view returns (uint256) {\n      return IERC20(iDAI).balanceOf(address(this));\n  }\n\n  function quote(uint256 _amount) external view returns (uint256) {\n      return _amount.mul(RATIO).div(10000);\n  }\n\n  function swapiDAItoyDAI(uint256 _amount)\n      external\n      nonReentrant\n  {\n      require(_amount > 0, \"iDAI must be greater than 0\");\n      IERC20(iDAI).safeTransferFrom(msg.sender, address(this), _amount);\n      uint256 _bought = _amount.mul(RATIO).div(10000);\n      IERC20(CURVE).safeTransfer(msg.sender, _bought);\n  }\n\n  // incase of half-way error\n  function inCaseTokenGetsStuck(IERC20 _TokenAddress) onlyOwner public {\n      uint qty = _TokenAddress.balanceOf(address(this));\n      _TokenAddress.safeTransfer(msg.sender, qty);\n  }\n\n  // incase of half-way error\n  function inCaseETHGetsStuck() onlyOwner public{\n      (bool result, ) = msg.sender.call.value(address(this).balance)(\"\");\n      require(result, \"transfer of ETH failed\");\n  }\n}\n",
  "sourcePath": "D:/ftm/itoken/contracts/iDAIZapSwap.sol",
  "compiler": {
    "name": "solc",
    "version": "0.5.12+commit.7709ece9.Emscripten.clang"
  },
  "schemaVersion": "3.0.19",
  "updatedAt": "2020-02-19T05:34:02.405Z",
  "devdoc": {
    "methods": {}
  },
  "userdoc": {
    "methods": {}
  }
}