{
  "contractName": "iDAI",
  "abi": [
    {
      "inputs": [],
      "payable": false,
      "stateMutability": "nonpayable",
      "type": "constructor"
    },
    {
      "anonymous": false,
      "inputs": [
        {
          "indexed": true,
          "internalType": "address",
          "name": "owner",
          "type": "address"
        },
        {
          "indexed": true,
          "internalType": "address",
          "name": "spender",
          "type": "address"
        },
        {
          "indexed": false,
          "internalType": "uint256",
          "name": "value",
          "type": "uint256"
        }
      ],
      "name": "Approval",
      "type": "event"
    },
    {
      "anonymous": false,
      "inputs": [
        {
          "indexed": true,
          "internalType": "address",
          "name": "previousOwner",
          "type": "address"
        },
        {
          "indexed": true,
          "internalType": "address",
          "name": "newOwner",
          "type": "address"
        }
      ],
      "name": "OwnershipTransferred",
      "type": "event"
    },
    {
      "anonymous": false,
      "inputs": [
        {
          "indexed": true,
          "internalType": "address",
          "name": "from",
          "type": "address"
        },
        {
          "indexed": true,
          "internalType": "address",
          "name": "to",
          "type": "address"
        },
        {
          "indexed": false,
          "internalType": "uint256",
          "name": "value",
          "type": "uint256"
        }
      ],
      "name": "Transfer",
      "type": "event"
    },
    {
      "payable": true,
      "stateMutability": "payable",
      "type": "fallback"
    },
    {
      "constant": true,
      "inputs": [],
      "name": "aave",
      "outputs": [
        {
          "internalType": "address",
          "name": "",
          "type": "address"
        }
      ],
      "payable": false,
      "stateMutability": "view",
      "type": "function"
    },
    {
      "constant": true,
      "inputs": [],
      "name": "aaveToken",
      "outputs": [
        {
          "internalType": "address",
          "name": "",
          "type": "address"
        }
      ],
      "payable": false,
      "stateMutability": "view",
      "type": "function"
    },
    {
      "constant": true,
      "inputs": [
        {
          "internalType": "address",
          "name": "owner",
          "type": "address"
        },
        {
          "internalType": "address",
          "name": "spender",
          "type": "address"
        }
      ],
      "name": "allowance",
      "outputs": [
        {
          "internalType": "uint256",
          "name": "",
          "type": "uint256"
        }
      ],
      "payable": false,
      "stateMutability": "view",
      "type": "function"
    },
    {
      "constant": false,
      "inputs": [
        {
          "internalType": "address",
          "name": "spender",
          "type": "address"
        },
        {
          "internalType": "uint256",
          "name": "amount",
          "type": "uint256"
        }
      ],
      "name": "approve",
      "outputs": [
        {
          "internalType": "bool",
          "name": "",
          "type": "bool"
        }
      ],
      "payable": false,
      "stateMutability": "nonpayable",
      "type": "function"
    },
    {
      "constant": true,
      "inputs": [],
      "name": "apr",
      "outputs": [
        {
          "internalType": "address",
          "name": "",
          "type": "address"
        }
      ],
      "payable": false,
      "stateMutability": "view",
      "type": "function"
    },
    {
      "constant": true,
      "inputs": [
        {
          "internalType": "address",
          "name": "account",
          "type": "address"
        }
      ],
      "name": "balanceOf",
      "outputs": [
        {
          "internalType": "uint256",
          "name": "",
          "type": "uint256"
        }
      ],
      "payable": false,
      "stateMutability": "view",
      "type": "function"
    },
    {
      "constant": true,
      "inputs": [],
      "name": "compound",
      "outputs": [
        {
          "internalType": "address",
          "name": "",
          "type": "address"
        }
      ],
      "payable": false,
      "stateMutability": "view",
      "type": "function"
    },
    {
      "constant": true,
      "inputs": [],
      "name": "dToken",
      "outputs": [
        {
          "internalType": "uint256",
          "name": "",
          "type": "uint256"
        }
      ],
      "payable": false,
      "stateMutability": "view",
      "type": "function"
    },
    {
      "constant": true,
      "inputs": [],
      "name": "decimals",
      "outputs": [
        {
          "internalType": "uint8",
          "name": "",
          "type": "uint8"
        }
      ],
      "payable": false,
      "stateMutability": "view",
      "type": "function"
    },
    {
      "constant": false,
      "inputs": [
        {
          "internalType": "address",
          "name": "spender",
          "type": "address"
        },
        {
          "internalType": "uint256",
          "name": "subtractedValue",
          "type": "uint256"
        }
      ],
      "name": "decreaseAllowance",
      "outputs": [
        {
          "internalType": "bool",
          "name": "",
          "type": "bool"
        }
      ],
      "payable": false,
      "stateMutability": "nonpayable",
      "type": "function"
    },
    {
      "constant": true,
      "inputs": [],
      "name": "dydx",
      "outputs": [
        {
          "internalType": "address",
          "name": "",
          "type": "address"
        }
      ],
      "payable": false,
      "stateMutability": "view",
      "type": "function"
    },
    {
      "constant": true,
      "inputs": [],
      "name": "fulcrum",
      "outputs": [
        {
          "internalType": "address",
          "name": "",
          "type": "address"
        }
      ],
      "payable": false,
      "stateMutability": "view",
      "type": "function"
    },
    {
      "constant": false,
      "inputs": [
        {
          "internalType": "address",
          "name": "spender",
          "type": "address"
        },
        {
          "internalType": "uint256",
          "name": "addedValue",
          "type": "uint256"
        }
      ],
      "name": "increaseAllowance",
      "outputs": [
        {
          "internalType": "bool",
          "name": "",
          "type": "bool"
        }
      ],
      "payable": false,
      "stateMutability": "nonpayable",
      "type": "function"
    },
    {
      "constant": true,
      "inputs": [],
      "name": "isOwner",
      "outputs": [
        {
          "internalType": "bool",
          "name": "",
          "type": "bool"
        }
      ],
      "payable": false,
      "stateMutability": "view",
      "type": "function"
    },
    {
      "constant": true,
      "inputs": [],
      "name": "name",
      "outputs": [
        {
          "internalType": "string",
          "name": "",
          "type": "string"
        }
      ],
      "payable": false,
      "stateMutability": "view",
      "type": "function"
    },
    {
      "constant": true,
      "inputs": [],
      "name": "owner",
      "outputs": [
        {
          "internalType": "address",
          "name": "",
          "type": "address"
        }
      ],
      "payable": false,
      "stateMutability": "view",
      "type": "function"
    },
    {
      "constant": true,
      "inputs": [],
      "name": "pool",
      "outputs": [
        {
          "internalType": "uint256",
          "name": "",
          "type": "uint256"
        }
      ],
      "payable": false,
      "stateMutability": "view",
      "type": "function"
    },
    {
      "constant": true,
      "inputs": [],
      "name": "provider",
      "outputs": [
        {
          "internalType": "enum iDAI.Lender",
          "name": "",
          "type": "uint8"
        }
      ],
      "payable": false,
      "stateMutability": "view",
      "type": "function"
    },
    {
      "constant": false,
      "inputs": [],
      "name": "renounceOwnership",
      "outputs": [],
      "payable": false,
      "stateMutability": "nonpayable",
      "type": "function"
    },
    {
      "constant": true,
      "inputs": [],
      "name": "symbol",
      "outputs": [
        {
          "internalType": "string",
          "name": "",
          "type": "string"
        }
      ],
      "payable": false,
      "stateMutability": "view",
      "type": "function"
    },
    {
      "constant": true,
      "inputs": [],
      "name": "token",
      "outputs": [
        {
          "internalType": "address",
          "name": "",
          "type": "address"
        }
      ],
      "payable": false,
      "stateMutability": "view",
      "type": "function"
    },
    {
      "constant": true,
      "inputs": [],
      "name": "totalSupply",
      "outputs": [
        {
          "internalType": "uint256",
          "name": "",
          "type": "uint256"
        }
      ],
      "payable": false,
      "stateMutability": "view",
      "type": "function"
    },
    {
      "constant": false,
      "inputs": [
        {
          "internalType": "address",
          "name": "recipient",
          "type": "address"
        },
        {
          "internalType": "uint256",
          "name": "amount",
          "type": "uint256"
        }
      ],
      "name": "transfer",
      "outputs": [
        {
          "internalType": "bool",
          "name": "",
          "type": "bool"
        }
      ],
      "payable": false,
      "stateMutability": "nonpayable",
      "type": "function"
    },
    {
      "constant": false,
      "inputs": [
        {
          "internalType": "address",
          "name": "sender",
          "type": "address"
        },
        {
          "internalType": "address",
          "name": "recipient",
          "type": "address"
        },
        {
          "internalType": "uint256",
          "name": "amount",
          "type": "uint256"
        }
      ],
      "name": "transferFrom",
      "outputs": [
        {
          "internalType": "bool",
          "name": "",
          "type": "bool"
        }
      ],
      "payable": false,
      "stateMutability": "nonpayable",
      "type": "function"
    },
    {
      "constant": false,
      "inputs": [
        {
          "internalType": "address",
          "name": "newOwner",
          "type": "address"
        }
      ],
      "name": "transferOwnership",
      "outputs": [],
      "payable": false,
      "stateMutability": "nonpayable",
      "type": "function"
    },
    {
      "constant": false,
      "inputs": [
        {
          "internalType": "address",
          "name": "_new_APR",
          "type": "address"
        }
      ],
      "name": "set_new_APR",
      "outputs": [],
      "payable": false,
      "stateMutability": "nonpayable",
      "type": "function"
    },
    {
      "constant": true,
      "inputs": [],
      "name": "recommend",
      "outputs": [
        {
          "internalType": "enum iDAI.Lender",
          "name": "",
          "type": "uint8"
        }
      ],
      "payable": false,
      "stateMutability": "view",
      "type": "function"
    },
    {
      "constant": false,
      "inputs": [
        {
          "internalType": "uint256",
          "name": "amount",
          "type": "uint256"
        }
      ],
      "name": "supplyDydx",
      "outputs": [
        {
          "internalType": "uint256",
          "name": "",
          "type": "uint256"
        }
      ],
      "payable": false,
      "stateMutability": "nonpayable",
      "type": "function"
    },
    {
      "constant": false,
      "inputs": [
        {
          "internalType": "uint256",
          "name": "amount",
          "type": "uint256"
        }
      ],
      "name": "withdrawDydx",
      "outputs": [],
      "payable": false,
      "stateMutability": "nonpayable",
      "type": "function"
    },
    {
      "constant": true,
      "inputs": [],
      "name": "balance",
      "outputs": [
        {
          "internalType": "uint256",
          "name": "",
          "type": "uint256"
        }
      ],
      "payable": false,
      "stateMutability": "view",
      "type": "function"
    },
    {
      "constant": false,
      "inputs": [],
      "name": "approveToken",
      "outputs": [],
      "payable": false,
      "stateMutability": "nonpayable",
      "type": "function"
    },
    {
      "constant": true,
      "inputs": [],
      "name": "balanceDydx",
      "outputs": [
        {
          "internalType": "uint256",
          "name": "",
          "type": "uint256"
        }
      ],
      "payable": false,
      "stateMutability": "view",
      "type": "function"
    },
    {
      "constant": true,
      "inputs": [],
      "name": "balanceCompound",
      "outputs": [
        {
          "internalType": "uint256",
          "name": "",
          "type": "uint256"
        }
      ],
      "payable": false,
      "stateMutability": "view",
      "type": "function"
    },
    {
      "constant": true,
      "inputs": [],
      "name": "balanceCompoundInToken",
      "outputs": [
        {
          "internalType": "uint256",
          "name": "",
          "type": "uint256"
        }
      ],
      "payable": false,
      "stateMutability": "view",
      "type": "function"
    },
    {
      "constant": true,
      "inputs": [],
      "name": "balanceFulcrumInToken",
      "outputs": [
        {
          "internalType": "uint256",
          "name": "",
          "type": "uint256"
        }
      ],
      "payable": false,
      "stateMutability": "view",
      "type": "function"
    },
    {
      "constant": true,
      "inputs": [],
      "name": "balanceFulcrum",
      "outputs": [
        {
          "internalType": "uint256",
          "name": "",
          "type": "uint256"
        }
      ],
      "payable": false,
      "stateMutability": "view",
      "type": "function"
    },
    {
      "constant": true,
      "inputs": [],
      "name": "balanceAave",
      "outputs": [
        {
          "internalType": "uint256",
          "name": "",
          "type": "uint256"
        }
      ],
      "payable": false,
      "stateMutability": "view",
      "type": "function"
    },
    {
      "constant": false,
      "inputs": [],
      "name": "withdrawAll",
      "outputs": [],
      "payable": false,
      "stateMutability": "nonpayable",
      "type": "function"
    },
    {
      "constant": false,
      "inputs": [
        {
          "internalType": "uint256",
          "name": "_amount",
          "type": "uint256"
        }
      ],
      "name": "withdrawSome",
      "outputs": [],
      "payable": false,
      "stateMutability": "nonpayable",
      "type": "function"
    },
    {
      "constant": false,
      "inputs": [],
      "name": "rebalance",
      "outputs": [],
      "payable": false,
      "stateMutability": "nonpayable",
      "type": "function"
    },
    {
      "constant": false,
      "inputs": [
        {
          "internalType": "uint256",
          "name": "amount",
          "type": "uint256"
        }
      ],
      "name": "supplyAave",
      "outputs": [],
      "payable": false,
      "stateMutability": "nonpayable",
      "type": "function"
    },
    {
      "constant": false,
      "inputs": [
        {
          "internalType": "uint256",
          "name": "amount",
          "type": "uint256"
        }
      ],
      "name": "supplyFulcrum",
      "outputs": [],
      "payable": false,
      "stateMutability": "nonpayable",
      "type": "function"
    },
    {
      "constant": false,
      "inputs": [
        {
          "internalType": "uint256",
          "name": "amount",
          "type": "uint256"
        }
      ],
      "name": "supplyCompound",
      "outputs": [],
      "payable": false,
      "stateMutability": "nonpayable",
      "type": "function"
    },
    {
      "constant": false,
      "inputs": [
        {
          "internalType": "uint256",
          "name": "amount",
          "type": "uint256"
        }
      ],
      "name": "withdrawAave",
      "outputs": [],
      "payable": false,
      "stateMutability": "nonpayable",
      "type": "function"
    },
    {
      "constant": false,
      "inputs": [
        {
          "internalType": "uint256",
          "name": "amount",
          "type": "uint256"
        }
      ],
      "name": "withdrawFulcrum",
      "outputs": [],
      "payable": false,
      "stateMutability": "nonpayable",
      "type": "function"
    },
    {
      "constant": false,
      "inputs": [
        {
          "internalType": "uint256",
          "name": "amount",
          "type": "uint256"
        }
      ],
      "name": "withdrawCompound",
      "outputs": [],
      "payable": false,
      "stateMutability": "nonpayable",
      "type": "function"
    },
    {
      "constant": false,
      "inputs": [
        {
          "internalType": "address",
          "name": "_new_AAVE",
          "type": "address"
        }
      ],
      "name": "set_new_AAVE",
      "outputs": [],
      "payable": false,
      "stateMutability": "nonpayable",
      "type": "function"
    },
    {
      "constant": false,
      "inputs": [
        {
          "internalType": "address",
          "name": "_new_DYDX",
          "type": "address"
        }
      ],
      "name": "set_new_DYDX",
      "outputs": [],
      "payable": false,
      "stateMutability": "nonpayable",
      "type": "function"
    },
    {
      "constant": false,
      "inputs": [
        {
          "internalType": "uint256",
          "name": "_amount",
          "type": "uint256"
        }
      ],
      "name": "invest",
      "outputs": [],
      "payable": true,
      "stateMutability": "payable",
      "type": "function"
    },
    {
      "constant": false,
      "inputs": [],
      "name": "investSelf",
      "outputs": [],
      "payable": false,
      "stateMutability": "nonpayable",
      "type": "function"
    },
    {
      "constant": true,
      "inputs": [],
      "name": "calcPoolValueInToken",
      "outputs": [
        {
          "internalType": "uint256",
          "name": "",
          "type": "uint256"
        }
      ],
      "payable": false,
      "stateMutability": "view",
      "type": "function"
    },
    {
      "constant": true,
      "inputs": [],
      "name": "getPricePerFullShare",
      "outputs": [
        {
          "internalType": "uint256",
          "name": "",
          "type": "uint256"
        }
      ],
      "payable": false,
      "stateMutability": "view",
      "type": "function"
    },
    {
      "constant": false,
      "inputs": [
        {
          "internalType": "uint256",
          "name": "_shares",
          "type": "uint256"
        }
      ],
      "name": "redeem",
      "outputs": [],
      "payable": false,
      "stateMutability": "nonpayable",
      "type": "function"
    },
    {
      "constant": false,
      "inputs": [
        {
          "internalType": "contract IERC20",
          "name": "_TokenAddress",
          "type": "address"
        }
      ],
      "name": "inCaseTokenGetsStuck",
      "outputs": [],
      "payable": false,
      "stateMutability": "nonpayable",
      "type": "function"
    },
    {
      "constant": false,
      "inputs": [],
      "name": "inCaseETHGetsStuck",
      "outputs": [],
      "payable": false,
      "stateMutability": "nonpayable",
      "type": "function"
    }
  ],
  "bytecode": "0x60806040526000601060146101000a81548160ff021916908360048111156200002457fe5b02179055503480156200003657600080fd5b506040518060400160405280600481526020017f69444149000000000000000000000000000000000000000000000000000000008152506040518060400160405280600481526020017f694441490000000000000000000000000000000000000000000000000000000081525060128260039080519060200190620000bd929190620003de565b508160049080519060200190620000d6929190620003de565b5080600560006101000a81548160ff021916908360ff16021790555050505060016006819055506200010d620003d660201b60201c565b600760006101000a81548173ffffffffffffffffffffffffffffffffffffffff021916908373ffffffffffffffffffffffffffffffffffffffff160217905550600760009054906101000a900473ffffffffffffffffffffffffffffffffffffffff1673ffffffffffffffffffffffffffffffffffffffff16600073ffffffffffffffffffffffffffffffffffffffff167f8be0079c531659141344cd1fd0a4f28419497f9722a3daafe3b4186f6b6457e060405160405180910390a3739cad8ab10daa9af1a9d2b878541f41b697268eec601060006101000a81548173ffffffffffffffffffffffffffffffffffffffff021916908373ffffffffffffffffffffffffffffffffffffffff160217905550731e0447b19bb6ecfdae1e4ae1694b0c3659614e4e600e60006101000a81548173ffffffffffffffffffffffffffffffffffffffff021916908373ffffffffffffffffffffffffffffffffffffffff1602179055507324a42fd28c976a61df5d00d0599c34c4f90748c8600c60006101000a81548173ffffffffffffffffffffffffffffffffffffffff021916908373ffffffffffffffffffffffffffffffffffffffff16021790555073493c57c4763932315a328269e1adad09653b9081600b60006101000a81548173ffffffffffffffffffffffffffffffffffffffff021916908373ffffffffffffffffffffffffffffffffffffffff16021790555073fc1e690f61efd961294b3e1ce3313fbd8aa4f85d600d60006101000a81548173ffffffffffffffffffffffffffffffffffffffff021916908373ffffffffffffffffffffffffffffffffffffffff160217905550735d3a536e4d6dbd6114cc1ead35777bab948e3643600a60006101000a81548173ffffffffffffffffffffffffffffffffffffffff021916908373ffffffffffffffffffffffffffffffffffffffff1602179055506001600f819055506200048d565b600033905090565b828054600181600116156101000203166002900490600052602060002090601f016020900481019282601f106200042157805160ff191683800117855562000452565b8280016001018555821562000452579182015b828111156200045157825182559160200191906001019062000434565b5b50905062000461919062000465565b5090565b6200048a91905b80821115620004865760008160009055506001016200046c565b5090565b90565b6158a1806200049d6000396000f3fe6080604052600436106103505760003560e01c8063715018a6116101c6578063a7287971116100f7578063dd62ed3e11610095578063f5a41dea1161006f578063f5a41dea14610be4578063f60a15ed14610c0f578063f69e204614610c26578063fc0c546a14610c5157610350565b8063dd62ed3e14610b55578063e849d65914610b92578063f2fde38b14610bbb57610350565b8063b69ef8a8116100d1578063b69ef8a814610aab578063cf8ca42614610ad6578063d9d7858a14610b01578063db006a7514610b2c57610350565b8063a728797114610a1a578063a9059cbb14610a45578063ae9b051c14610a8257610350565b80638da5cb5b1161016457806395d89b411161013e57806395d89b411461097057806399b71d5c1461099b578063a160176d146109b2578063a457c2d7146109dd57610350565b80638da5cb5b146108ef5780638e4ec6ef1461091a5780638f32d59b1461094557610350565b80638124955c116101a05780638124955c1461085b578063812adb0614610884578063819faf7b146108ad578063853828b6146108d857610350565b8063715018a61461080257806377c7b8fc146108195780637d7c2a1c1461084457610350565b806339509351116102a057806357b875431161023e57806361c1ec551161021857806361c1ec551461074657806365aab7491461077157806370a082311461079a5780637137ef99146107d757610350565b806357b87543146106c757806357ded9c9146106f057806358782c211461071b57610350565b806341c57c8d1161027a57806341c57c8d14610623578063463574731461064c57806356cc9378146106755780635762bbd91461069e57610350565b806339509351146105a45780633990ab4f146105e157806339c0a7e1146105f857610350565b806316f0115b1161030d5780632afcf480116102e75780632afcf4801461050b5780632c7a5ae4146105275780632e8d6e1814610550578063313ce5671461057957610350565b806316f0115b1461047857806318160ddd146104a357806323b872dd146104ce57610350565b806306636c1c1461035257806306a3fe591461038f57806306fdde03146103ba578063085d4883146103e5578063095ea7b3146104105780630eb2a2671461044d575b005b34801561035e57600080fd5b50610379600480360361037491908101906146b5565b610c7c565b6040516103869190615482565b60405180910390f35b34801561039b57600080fd5b506103a4610ebc565b6040516103b19190615074565b60405180910390f35b3480156103c657600080fd5b506103cf610ee2565b6040516103dc91906151d7565b60405180910390f35b3480156103f157600080fd5b506103fa610f84565b60405161040791906151bc565b60405180910390f35b34801561041c57600080fd5b506104376004803603610432919081019061456f565b610f97565b60405161044491906151a1565b60405180910390f35b34801561045957600080fd5b50610462610fb5565b60405161046f9190615482565b60405180910390f35b34801561048457600080fd5b5061048d611067565b60405161049a9190615482565b60405180910390f35b3480156104af57600080fd5b506104b861106d565b6040516104c59190615482565b60405180910390f35b3480156104da57600080fd5b506104f560048036036104f09190810190614520565b611077565b60405161050291906151a1565b60405180910390f35b610525600480360361052091908101906146b5565b611150565b005b34801561053357600080fd5b5061054e600480360361054991908101906144bb565b61131f565b005b34801561055c57600080fd5b50610577600480360361057291908101906145d4565b6113aa565b005b34801561058557600080fd5b5061058e611510565b60405161059b919061549d565b60405180910390f35b3480156105b057600080fd5b506105cb60048036036105c6919081019061456f565b611527565b6040516105d891906151a1565b60405180910390f35b3480156105ed57600080fd5b506105f66115da565b005b34801561060457600080fd5b5061060d611789565b60405161061a9190615482565b60405180910390f35b34801561062f57600080fd5b5061064a600480360361064591908101906146b5565b611879565b005b34801561065857600080fd5b50610673600480360361066e91908101906144bb565b611ab5565b005b34801561068157600080fd5b5061069c600480360361069791908101906146b5565b611b40565b005b3480156106aa57600080fd5b506106c560048036036106c091908101906146b5565b611bd0565b005b3480156106d357600080fd5b506106ee60048036036106e991908101906146b5565b611cc4565b005b3480156106fc57600080fd5b50610705611db6565b6040516107129190615074565b60405180910390f35b34801561072757600080fd5b50610730611ddc565b60405161073d9190615074565b60405180910390f35b34801561075257600080fd5b5061075b611e02565b6040516107689190615482565b60405180910390f35b34801561077d57600080fd5b50610798600480360361079391908101906146b5565b611eb4565b005b3480156107a657600080fd5b506107c160048036036107bc91908101906144bb565b611f6b565b6040516107ce9190615482565b60405180910390f35b3480156107e357600080fd5b506107ec611fb3565b6040516107f99190615482565b60405180910390f35b34801561080e57600080fd5b5061081761200d565b005b34801561082557600080fd5b5061082e612115565b60405161083b9190615482565b60405180910390f35b34801561085057600080fd5b50610859612157565b005b34801561086757600080fd5b50610882600480360361087d91908101906146b5565b61226c565b005b34801561089057600080fd5b506108ab60048036036108a691908101906144bb565b612360565b005b3480156108b957600080fd5b506108c26123eb565b6040516108cf9190615074565b60405180910390f35b3480156108e457600080fd5b506108ed612411565b005b3480156108fb57600080fd5b5061090461248a565b6040516109119190615074565b60405180910390f35b34801561092657600080fd5b5061092f6124b4565b60405161093c9190615074565b60405180910390f35b34801561095157600080fd5b5061095a6124da565b60405161096791906151a1565b60405180910390f35b34801561097c57600080fd5b50610985612539565b60405161099291906151d7565b60405180910390f35b3480156109a757600080fd5b506109b06125db565b005b3480156109be57600080fd5b506109c76129a5565b6040516109d491906151bc565b60405180910390f35b3480156109e957600080fd5b50610a0460048036036109ff919081019061456f565b612b02565b604051610a1191906151a1565b60405180910390f35b348015610a2657600080fd5b50610a2f612bcf565b604051610a3c9190615482565b60405180910390f35b348015610a5157600080fd5b50610a6c6004803603610a67919081019061456f565b612cbb565b604051610a7991906151a1565b60405180910390f35b348015610a8e57600080fd5b50610aa96004803603610aa491908101906146b5565b612cd9565b005b348015610ab757600080fd5b50610ac0612f9d565b604051610acd9190615482565b60405180910390f35b348015610ae257600080fd5b50610aeb61304f565b604051610af89190615482565b60405180910390f35b348015610b0d57600080fd5b50610b16613101565b604051610b239190615482565b60405180910390f35b348015610b3857600080fd5b50610b536004803603610b4e91908101906146b5565b613107565b005b348015610b6157600080fd5b50610b7c6004803603610b7791908101906144e4565b6134f4565b604051610b899190615482565b60405180910390f35b348015610b9e57600080fd5b50610bb96004803603610bb491908101906146b5565b61357b565b005b348015610bc757600080fd5b50610be26004803603610bdd91908101906144bb565b61366d565b005b348015610bf057600080fd5b50610bf96136c0565b604051610c069190615482565b60405180910390f35b348015610c1b57600080fd5b50610c2461378b565b005b348015610c3257600080fd5b50610c3b613898565b604051610c489190615074565b60405180910390f35b348015610c5d57600080fd5b50610c666138be565b604051610c739190615074565b60405180910390f35b600060606001604051908082528060200260200182016040528015610cbb57816020015b610ca861420e565b815260200190600190039081610ca05790505b50905060405180604001604052803073ffffffffffffffffffffffffffffffffffffffff168152602001600081525081600081518110610cf757fe5b6020026020010181905250610d0a61423e565b604051806080016040528060011515815260200160006001811115610d2b57fe5b815260200160006001811115610d3d57fe5b8152602001858152509050610d5061427e565b600081600001906008811115610d6257fe5b90816008811115610d6f57fe5b815250506000816020018181525050818160400181905250600f54816060018181525050308160a0019073ffffffffffffffffffffffffffffffffffffffff16908173ffffffffffffffffffffffffffffffffffffffff168152505060606001604051908082528060200260200182016040528015610e0857816020015b610df56142ea565b815260200190600190039081610ded5790505b5090508181600081518110610e1957fe5b6020026020010181905250600e60009054906101000a900473ffffffffffffffffffffffffffffffffffffffff1673ffffffffffffffffffffffffffffffffffffffff1663a67a6a4585836040518363ffffffff1660e01b8152600401610e8192919061516a565b600060405180830381600087803b158015610e9b57600080fd5b505af1158015610eaf573d6000803e3d6000fd5b5050505050505050919050565b600d60009054906101000a900473ffffffffffffffffffffffffffffffffffffffff1681565b606060038054600181600116156101000203166002900480601f016020809104026020016040519081016040528092919081815260200182805460018160011615610100020316600290048015610f7a5780601f10610f4f57610100808354040283529160200191610f7a565b820191906000526020600020905b815481529060010190602001808311610f5d57829003601f168201915b5050505050905090565b601060149054906101000a900460ff1681565b6000610fab610fa46138e4565b84846138ec565b6001905092915050565b6000600b60009054906101000a900473ffffffffffffffffffffffffffffffffffffffff1673ffffffffffffffffffffffffffffffffffffffff166370a08231306040518263ffffffff1660e01b8152600401611012919061508f565b60206040518083038186803b15801561102a57600080fd5b505afa15801561103e573d6000803e3d6000fd5b505050506040513d601f19601f8201168201806040525061106291908101906146de565b905090565b60085481565b6000600254905090565b6000611084848484613ab7565b611145846110906138e4565b6111408560405180606001604052806028815260200161581260289139600160008b73ffffffffffffffffffffffffffffffffffffffff1673ffffffffffffffffffffffffffffffffffffffff16815260200190815260200160002060006110f66138e4565b73ffffffffffffffffffffffffffffffffffffffff1673ffffffffffffffffffffffffffffffffffffffff16815260200190815260200160002054613d419092919063ffffffff16565b6138ec565b600190509392505050565b600160066000828254019250508190555060006006549050600082116111ab576040517f08c379a00000000000000000000000000000000000000000000000000000000081526004016111a2906153d9565b60405180910390fd5b6111b3611fb3565b600881905550600960009054906101000a900473ffffffffffffffffffffffffffffffffffffffff1673ffffffffffffffffffffffffffffffffffffffff166323b872dd3330856040518463ffffffff1660e01b8152600401611218939291906150aa565b602060405180830381600087803b15801561123257600080fd5b505af1158015611246573d6000803e3d6000fd5b505050506040513d601f19601f8201168201806040525061126a91908101906145ab565b50611273612157565b60008090506000600854141561129257829050826008819055506112be565b6112bb6008546112ad60025486613d9c90919063ffffffff16565b613e0c90919063ffffffff16565b90505b6112c6611fb3565b6008819055506112d63382613e56565b50600654811461131b576040517f08c379a000000000000000000000000000000000000000000000000000000000815260040161131290615419565b60405180910390fd5b5050565b6113276124da565b611366576040517f08c379a000000000000000000000000000000000000000000000000000000000815260040161135d90615319565b60405180910390fd5b80600e60006101000a81548173ffffffffffffffffffffffffffffffffffffffff021916908373ffffffffffffffffffffffffffffffffffffffff16021790555050565b6113b26124da565b6113f1576040517f08c379a00000000000000000000000000000000000000000000000000000000081526004016113e890615319565b60405180910390fd5b60008173ffffffffffffffffffffffffffffffffffffffff166370a08231306040518263ffffffff1660e01b815260040161142c919061508f565b60206040518083038186803b15801561144457600080fd5b505afa158015611458573d6000803e3d6000fd5b505050506040513d601f19601f8201168201806040525061147c91908101906146de565b90508173ffffffffffffffffffffffffffffffffffffffff1663a9059cbb33836040518363ffffffff1660e01b81526004016114b99291906150e1565b602060405180830381600087803b1580156114d357600080fd5b505af11580156114e7573d6000803e3d6000fd5b505050506040513d601f19601f8201168201806040525061150b91908101906145ab565b505050565b6000600560009054906101000a900460ff16905090565b60006115d06115346138e4565b846115cb85600160006115456138e4565b73ffffffffffffffffffffffffffffffffffffffff1673ffffffffffffffffffffffffffffffffffffffff16815260200190815260200160002060008973ffffffffffffffffffffffffffffffffffffffff1673ffffffffffffffffffffffffffffffffffffffff16815260200190815260200160002054613fde90919063ffffffff16565b6138ec565b6001905092915050565b6001600660008282540192505081905550600060065490506115fa6124da565b611639576040517f08c379a000000000000000000000000000000000000000000000000000000000815260040161163090615319565b60405180910390fd5b6000600960009054906101000a900473ffffffffffffffffffffffffffffffffffffffff1673ffffffffffffffffffffffffffffffffffffffff166370a08231306040518263ffffffff1660e01b8152600401611696919061508f565b60206040518083038186803b1580156116ae57600080fd5b505afa1580156116c2573d6000803e3d6000fd5b505050506040513d601f19601f820116820180604052506116e691908101906146de565b90506000811161172b576040517f08c379a0000000000000000000000000000000000000000000000000000000008152600401611722906153d9565b60405180910390fd5b611733612157565b61173b611fb3565b600881905550506006548114611786576040517f08c379a000000000000000000000000000000000000000000000000000000000815260040161177d90615419565b60405180910390fd5b50565b6000611793614356565b600e60009054906101000a900473ffffffffffffffffffffffffffffffffffffffff1673ffffffffffffffffffffffffffffffffffffffff1663c190c2ec60405180604001604052803073ffffffffffffffffffffffffffffffffffffffff1681526020016000815250600f546040518363ffffffff1660e01b815260040161181d929190615459565b604080518083038186803b15801561183457600080fd5b505afa158015611848573d6000803e3d6000fd5b505050506040513d601f19601f8201168201806040525061186c919081019061468c565b9050806020015191505090565b606060016040519080825280602002602001820160405280156118b657816020015b6118a361420e565b81526020019060019003908161189b5790505b50905060405180604001604052803073ffffffffffffffffffffffffffffffffffffffff1681526020016000815250816000815181106118f257fe5b602002602001018190525061190561423e565b60405180608001604052806001151581526020016000600181111561192657fe5b81526020016000600181111561193857fe5b815260200184815250905061194b61427e565b60018160000190600881111561195d57fe5b9081600881111561196a57fe5b815250506000816020018181525050818160400181905250600f54816060018181525050308160a0019073ffffffffffffffffffffffffffffffffffffffff16908173ffffffffffffffffffffffffffffffffffffffff168152505060606001604051908082528060200260200182016040528015611a0357816020015b6119f06142ea565b8152602001906001900390816119e85790505b5090508181600081518110611a1457fe5b6020026020010181905250600e60009054906101000a900473ffffffffffffffffffffffffffffffffffffffff1673ffffffffffffffffffffffffffffffffffffffff1663a67a6a4585836040518363ffffffff1660e01b8152600401611a7c92919061516a565b600060405180830381600087803b158015611a9657600080fd5b505af1158015611aaa573d6000803e3d6000fd5b505050505050505050565b611abd6124da565b611afc576040517f08c379a0000000000000000000000000000000000000000000000000000000008152600401611af390615319565b60405180910390fd5b80601060006101000a81548173ffffffffffffffffffffffffffffffffffffffff021916908373ffffffffffffffffffffffffffffffffffffffff16021790555050565b600d60009054906101000a900473ffffffffffffffffffffffffffffffffffffffff1673ffffffffffffffffffffffffffffffffffffffff1663db006a75826040518263ffffffff1660e01b8152600401611b9b9190615482565b600060405180830381600087803b158015611bb557600080fd5b505af1158015611bc9573d6000803e3d6000fd5b5050505050565b6000600b60009054906101000a900473ffffffffffffffffffffffffffffffffffffffff1673ffffffffffffffffffffffffffffffffffffffff16639dc29fac30846040518363ffffffff1660e01b8152600401611c2f9291906150e1565b602060405180830381600087803b158015611c4957600080fd5b505af1158015611c5d573d6000803e3d6000fd5b505050506040513d601f19601f82011682018060405250611c8191908101906146de565b11611cc1576040517f08c379a0000000000000000000000000000000000000000000000000000000008152600401611cb8906152f9565b60405180910390fd5b50565b6000600a60009054906101000a900473ffffffffffffffffffffffffffffffffffffffff1673ffffffffffffffffffffffffffffffffffffffff1663db006a75836040518263ffffffff1660e01b8152600401611d219190615482565b602060405180830381600087803b158015611d3b57600080fd5b505af1158015611d4f573d6000803e3d6000fd5b505050506040513d601f19601f82011682018060405250611d7391908101906146de565b14611db3576040517f08c379a0000000000000000000000000000000000000000000000000000000008152600401611daa90615219565b60405180910390fd5b50565b601060009054906101000a900473ffffffffffffffffffffffffffffffffffffffff1681565b600b60009054906101000a900473ffffffffffffffffffffffffffffffffffffffff1681565b6000600a60009054906101000a900473ffffffffffffffffffffffffffffffffffffffff1673ffffffffffffffffffffffffffffffffffffffff166370a08231306040518263ffffffff1660e01b8152600401611e5f919061508f565b60206040518083038186803b158015611e7757600080fd5b505afa158015611e8b573d6000803e3d6000fd5b505050506040513d601f19601f82011682018060405250611eaf91908101906146de565b905090565b600c60009054906101000a900473ffffffffffffffffffffffffffffffffffffffff1673ffffffffffffffffffffffffffffffffffffffff1663d2d0e066600960009054906101000a900473ffffffffffffffffffffffffffffffffffffffff168360006040518463ffffffff1660e01b8152600401611f3693929190615133565b600060405180830381600087803b158015611f5057600080fd5b505af1158015611f64573d6000803e3d6000fd5b5050505050565b60008060008373ffffffffffffffffffffffffffffffffffffffff1673ffffffffffffffffffffffffffffffffffffffff168152602001908152602001600020549050919050565b6000612008611fc061304f565b611ffa611fcb611789565b611fec611fd66136c0565b611fde612bcf565b613fde90919063ffffffff16565b613fde90919063ffffffff16565b613fde90919063ffffffff16565b905090565b6120156124da565b612054576040517f08c379a000000000000000000000000000000000000000000000000000000000815260040161204b90615319565b60405180910390fd5b600073ffffffffffffffffffffffffffffffffffffffff16600760009054906101000a900473ffffffffffffffffffffffffffffffffffffffff1673ffffffffffffffffffffffffffffffffffffffff167f8be0079c531659141344cd1fd0a4f28419497f9722a3daafe3b4186f6b6457e060405160405180910390a36000600760006101000a81548173ffffffffffffffffffffffffffffffffffffffff021916908373ffffffffffffffffffffffffffffffffffffffff160217905550565b600080612120611fb3565b9050612151600254612143670de0b6b3a764000084613d9c90919063ffffffff16565b613e0c90919063ffffffff16565b91505090565b60006121616129a5565b9050601060149054906101000a900460ff16600481111561217e57fe5b81600481111561218a57fe5b1461219857612197612411565b5b60006121a2612f9d565b111561226957600160048111156121b557fe5b8160048111156121c157fe5b14156121d9576121d76121d2612f9d565b610c7c565b505b6004808111156121e557fe5b8160048111156121f157fe5b141561220857612207612202612f9d565b61226c565b5b6002600481111561221557fe5b81600481111561222157fe5b141561223857612237612232612f9d565b61357b565b5b6003600481111561224557fe5b81600481111561225157fe5b141561226857612267612262612f9d565b611eb4565b5b5b50565b6000600b60009054906101000a900473ffffffffffffffffffffffffffffffffffffffff1673ffffffffffffffffffffffffffffffffffffffff166340c10f1930846040518363ffffffff1660e01b81526004016122cb9291906150e1565b602060405180830381600087803b1580156122e557600080fd5b505af11580156122f9573d6000803e3d6000fd5b505050506040513d601f19601f8201168201806040525061231d91908101906146de565b1161235d576040517f08c379a0000000000000000000000000000000000000000000000000000000008152600401612354906153f9565b60405180910390fd5b50565b6123686124da565b6123a7576040517f08c379a000000000000000000000000000000000000000000000000000000000815260040161239e90615319565b60405180910390fd5b80600c60006101000a81548173ffffffffffffffffffffffffffffffffffffffff021916908373ffffffffffffffffffffffffffffffffffffffff16021790555050565b600c60009054906101000a900473ffffffffffffffffffffffffffffffffffffffff1681565b600061241b611e02565b905060008111156124305761242f81611cc4565b5b612438611789565b9050600081111561244d5761244c81611879565b5b612455610fb5565b9050600081111561246a5761246981611bd0565b5b61247261304f565b905060008111156124875761248681611b40565b5b50565b6000600760009054906101000a900473ffffffffffffffffffffffffffffffffffffffff16905090565b600e60009054906101000a900473ffffffffffffffffffffffffffffffffffffffff1681565b6000600760009054906101000a900473ffffffffffffffffffffffffffffffffffffffff1673ffffffffffffffffffffffffffffffffffffffff1661251d6138e4565b73ffffffffffffffffffffffffffffffffffffffff1614905090565b606060048054600181600116156101000203166002900480601f0160208091040260200160405190810160405280929190818152602001828054600181600116156101000203166002900480156125d15780601f106125a6576101008083540402835291602001916125d1565b820191906000526020600020905b8154815290600101906020018083116125b457829003601f168201915b5050505050905090565b600960009054906101000a900473ffffffffffffffffffffffffffffffffffffffff1673ffffffffffffffffffffffffffffffffffffffff1663095ea7b3600a60009054906101000a900473ffffffffffffffffffffffffffffffffffffffff167fffffffffffffffffffffffffffffffffffffffffffffffffffffffffffffffff6040518363ffffffff1660e01b815260040161267a92919061510a565b602060405180830381600087803b15801561269457600080fd5b505af11580156126a8573d6000803e3d6000fd5b505050506040513d601f19601f820116820180604052506126cc91908101906145ab565b50600960009054906101000a900473ffffffffffffffffffffffffffffffffffffffff1673ffffffffffffffffffffffffffffffffffffffff1663095ea7b3600e60009054906101000a900473ffffffffffffffffffffffffffffffffffffffff167fffffffffffffffffffffffffffffffffffffffffffffffffffffffffffffffff6040518363ffffffff1660e01b815260040161276c92919061510a565b602060405180830381600087803b15801561278657600080fd5b505af115801561279a573d6000803e3d6000fd5b505050506040513d601f19601f820116820180604052506127be91908101906145ab565b50600960009054906101000a900473ffffffffffffffffffffffffffffffffffffffff1673ffffffffffffffffffffffffffffffffffffffff1663095ea7b3600c60009054906101000a900473ffffffffffffffffffffffffffffffffffffffff167fffffffffffffffffffffffffffffffffffffffffffffffffffffffffffffffff6040518363ffffffff1660e01b815260040161285e92919061510a565b602060405180830381600087803b15801561287857600080fd5b505af115801561288c573d6000803e3d6000fd5b505050506040513d601f19601f820116820180604052506128b091908101906145ab565b50600960009054906101000a900473ffffffffffffffffffffffffffffffffffffffff1673ffffffffffffffffffffffffffffffffffffffff1663095ea7b3600b60009054906101000a900473ffffffffffffffffffffffffffffffffffffffff167fffffffffffffffffffffffffffffffffffffffffffffffffffffffffffffffff6040518363ffffffff1660e01b815260040161295092919061510a565b602060405180830381600087803b15801561296a57600080fd5b505af115801561297e573d6000803e3d6000fd5b505050506040513d601f19601f820116820180604052506129a291908101906145ab565b50565b6000806000806000601060009054906101000a900473ffffffffffffffffffffffffffffffffffffffff1673ffffffffffffffffffffffffffffffffffffffff1663d88be3c0600960009054906101000a900473ffffffffffffffffffffffffffffffffffffffff166040518263ffffffff1660e01b8152600401612a2a9190615074565b60006040518083038186803b158015612a4257600080fd5b505afa158015612a56573d6000803e3d6000fd5b505050506040513d6000823e3d601f19601f82011682018060405250612a7f91908101906145fd565b945094509450945050600080905080851115612a99578490505b80841115612aa5578390505b80831115612ab1578290505b80821115612abd578190505b600080905082821415612acf57600190505b83821415612adc57600390505b84821415612ae957600490505b85821415612af657600290505b80965050505050505090565b6000612bc5612b0f6138e4565b84612bc08560405180606001604052806025815260200161583a6025913960016000612b396138e4565b73ffffffffffffffffffffffffffffffffffffffff1673ffffffffffffffffffffffffffffffffffffffff16815260200190815260200160002060008a73ffffffffffffffffffffffffffffffffffffffff1673ffffffffffffffffffffffffffffffffffffffff16815260200190815260200160002054613d419092919063ffffffff16565b6138ec565b6001905092915050565b600080612bda611e02565b90506000811115612cb457612cb1670de0b6b3a7640000612ca3600a60009054906101000a900473ffffffffffffffffffffffffffffffffffffffff1673ffffffffffffffffffffffffffffffffffffffff1663182df0f56040518163ffffffff1660e01b815260040160206040518083038186803b158015612c5c57600080fd5b505afa158015612c70573d6000803e3d6000fd5b505050506040513d601f19601f82011682018060405250612c9491908101906146de565b84613d9c90919063ffffffff16565b613e0c90919063ffffffff16565b90505b8091505090565b6000612ccf612cc86138e4565b8484613ab7565b6001905092915050565b600080600060026004811115612ceb57fe5b601060149054906101000a900460ff166004811115612d0657fe5b1415612d9457612d14611e02565b9250612d1e612bcf565b915083821015612d63576040517f08c379a0000000000000000000000000000000000000000000000000000000008152600401612d5a90615399565b60405180910390fd5b612d8884612d7a8486613d9c90919063ffffffff16565b613e0c90919063ffffffff16565b9050612d9381611cc4565b5b60036004811115612da157fe5b601060149054906101000a900460ff166004811115612dbc57fe5b1415612e165783612dcb61304f565b1015612e0c576040517f08c379a0000000000000000000000000000000000000000000000000000000008152600401612e0390615399565b60405180910390fd5b612e1584611b40565b5b60016004811115612e2357fe5b601060149054906101000a900460ff166004811115612e3e57fe5b1415612e985783612e4d611789565b1015612e8e576040517f08c379a0000000000000000000000000000000000000000000000000000000008152600401612e8590615399565b60405180910390fd5b612e9784611879565b5b600480811115612ea457fe5b601060149054906101000a900460ff166004811115612ebf57fe5b1415612f975783612ece610fb5565b1015612f0f576040517f08c379a0000000000000000000000000000000000000000000000000000000008152600401612f0690615399565b60405180910390fd5b612f17610fb5565b9250612f216136c0565b915083821015612f66576040517f08c379a0000000000000000000000000000000000000000000000000000000008152600401612f5d90615399565b60405180910390fd5b612f8b84612f7d8486613d9c90919063ffffffff16565b613e0c90919063ffffffff16565b9050612f9681611bd0565b5b50505050565b6000600960009054906101000a900473ffffffffffffffffffffffffffffffffffffffff1673ffffffffffffffffffffffffffffffffffffffff166370a08231306040518263ffffffff1660e01b8152600401612ffa919061508f565b60206040518083038186803b15801561301257600080fd5b505afa158015613026573d6000803e3d6000fd5b505050506040513d601f19601f8201168201806040525061304a91908101906146de565b905090565b6000600c60009054906101000a900473ffffffffffffffffffffffffffffffffffffffff1673ffffffffffffffffffffffffffffffffffffffff166370a08231306040518263ffffffff1660e01b81526004016130ac919061508f565b60206040518083038186803b1580156130c457600080fd5b505afa1580156130d8573d6000803e3d6000fd5b505050506040513d601f19601f820116820180604052506130fc91908101906146de565b905090565b600f5481565b60016006600082825401925050819055506000600654905060008211613162576040517f08c379a000000000000000000000000000000000000000000000000000000000815260040161315990615359565b60405180910390fd5b600061316d33611f6b565b9050808311156131b2576040517f08c379a00000000000000000000000000000000000000000000000000000000081526004016131a990615339565b60405180910390fd5b6131ba611fb3565b60088190555060006131eb6002546131dd86600854613d9c90919063ffffffff16565b613e0c90919063ffffffff16565b9050613275846040518060400160405280601d81526020017f72656465656d20616d6f756e7420657863656564732062616c616e63650000008152506000803373ffffffffffffffffffffffffffffffffffffffff1673ffffffffffffffffffffffffffffffffffffffff16815260200190815260200160002054613d419092919063ffffffff16565b6000803373ffffffffffffffffffffffffffffffffffffffff1673ffffffffffffffffffffffffffffffffffffffff168152602001908152602001600020819055506132cc8460025461403390919063ffffffff16565b600281905550600073ffffffffffffffffffffffffffffffffffffffff163373ffffffffffffffffffffffffffffffffffffffff167fddf252ad1be2c89b69c2b068fc378daa952ba7f163c4a11628f55a4df523b3ef866040516133309190615482565b60405180910390a36000600960009054906101000a900473ffffffffffffffffffffffffffffffffffffffff1673ffffffffffffffffffffffffffffffffffffffff166370a08231306040518263ffffffff1660e01b8152600401613395919061508f565b60206040518083038186803b1580156133ad57600080fd5b505afa1580156133c1573d6000803e3d6000fd5b505050506040513d601f19601f820116820180604052506133e591908101906146de565b9050818110156133f9576133f882612cd9565b5b600960009054906101000a900473ffffffffffffffffffffffffffffffffffffffff1673ffffffffffffffffffffffffffffffffffffffff1663a9059cbb33846040518363ffffffff1660e01b81526004016134569291906150e1565b602060405180830381600087803b15801561347057600080fd5b505af1158015613484573d6000803e3d6000fd5b505050506040513d601f19601f820116820180604052506134a891908101906145ab565b5050505060065481146134f0576040517f08c379a00000000000000000000000000000000000000000000000000000000081526004016134e790615419565b60405180910390fd5b5050565b6000600160008473ffffffffffffffffffffffffffffffffffffffff1673ffffffffffffffffffffffffffffffffffffffff16815260200190815260200160002060008373ffffffffffffffffffffffffffffffffffffffff1673ffffffffffffffffffffffffffffffffffffffff16815260200190815260200160002054905092915050565b6000600a60009054906101000a900473ffffffffffffffffffffffffffffffffffffffff1673ffffffffffffffffffffffffffffffffffffffff1663a0712d68836040518263ffffffff1660e01b81526004016135d89190615482565b602060405180830381600087803b1580156135f257600080fd5b505af1158015613606573d6000803e3d6000fd5b505050506040513d601f19601f8201168201806040525061362a91908101906146de565b1461366a576040517f08c379a000000000000000000000000000000000000000000000000000000000815260040161366190615279565b60405180910390fd5b50565b6136756124da565b6136b4576040517f08c379a00000000000000000000000000000000000000000000000000000000081526004016136ab90615319565b60405180910390fd5b6136bd8161407d565b50565b6000806136cb610fb5565b9050600081111561378457600b60009054906101000a900473ffffffffffffffffffffffffffffffffffffffff1673ffffffffffffffffffffffffffffffffffffffff166306b3efd6306040518263ffffffff1660e01b8152600401613731919061508f565b60206040518083038186803b15801561374957600080fd5b505afa15801561375d573d6000803e3d6000fd5b505050506040513d601f19601f8201168201806040525061378191908101906146de565b90505b8091505090565b6137936124da565b6137d2576040517f08c379a00000000000000000000000000000000000000000000000000000000081526004016137c990615319565b60405180910390fd5b60003373ffffffffffffffffffffffffffffffffffffffff163073ffffffffffffffffffffffffffffffffffffffff163160405161380f9061505f565b60006040518083038185875af1925050503d806000811461384c576040519150601f19603f3d011682016040523d82523d6000602084013e613851565b606091505b5050905080613895576040517f08c379a000000000000000000000000000000000000000000000000000000000815260040161388c906152b9565b60405180910390fd5b50565b600a60009054906101000a900473ffffffffffffffffffffffffffffffffffffffff1681565b600960009054906101000a900473ffffffffffffffffffffffffffffffffffffffff1681565b600033905090565b600073ffffffffffffffffffffffffffffffffffffffff168373ffffffffffffffffffffffffffffffffffffffff16141561395c576040517f08c379a0000000000000000000000000000000000000000000000000000000008152600401613953906153b9565b60405180910390fd5b600073ffffffffffffffffffffffffffffffffffffffff168273ffffffffffffffffffffffffffffffffffffffff1614156139cc576040517f08c379a00000000000000000000000000000000000000000000000000000000081526004016139c390615259565b60405180910390fd5b80600160008573ffffffffffffffffffffffffffffffffffffffff1673ffffffffffffffffffffffffffffffffffffffff16815260200190815260200160002060008473ffffffffffffffffffffffffffffffffffffffff1673ffffffffffffffffffffffffffffffffffffffff168152602001908152602001600020819055508173ffffffffffffffffffffffffffffffffffffffff168373ffffffffffffffffffffffffffffffffffffffff167f8c5be1e5ebec7d5bd14f71427d1e84f3dd0314c0f7b2291e5b200ac8c7c3b92583604051613aaa9190615482565b60405180910390a3505050565b600073ffffffffffffffffffffffffffffffffffffffff168373ffffffffffffffffffffffffffffffffffffffff161415613b27576040517f08c379a0000000000000000000000000000000000000000000000000000000008152600401613b1e90615379565b60405180910390fd5b600073ffffffffffffffffffffffffffffffffffffffff168273ffffffffffffffffffffffffffffffffffffffff161415613b97576040517f08c379a0000000000000000000000000000000000000000000000000000000008152600401613b8e906151f9565b60405180910390fd5b613c02816040518060600160405280602681526020016157ec602691396000808773ffffffffffffffffffffffffffffffffffffffff1673ffffffffffffffffffffffffffffffffffffffff16815260200190815260200160002054613d419092919063ffffffff16565b6000808573ffffffffffffffffffffffffffffffffffffffff1673ffffffffffffffffffffffffffffffffffffffff16815260200190815260200160002081905550613c95816000808573ffffffffffffffffffffffffffffffffffffffff1673ffffffffffffffffffffffffffffffffffffffff16815260200190815260200160002054613fde90919063ffffffff16565b6000808473ffffffffffffffffffffffffffffffffffffffff1673ffffffffffffffffffffffffffffffffffffffff168152602001908152602001600020819055508173ffffffffffffffffffffffffffffffffffffffff168373ffffffffffffffffffffffffffffffffffffffff167fddf252ad1be2c89b69c2b068fc378daa952ba7f163c4a11628f55a4df523b3ef83604051613d349190615482565b60405180910390a3505050565b6000838311158290613d89576040517f08c379a0000000000000000000000000000000000000000000000000000000008152600401613d8091906151d7565b60405180910390fd5b5060008385039050809150509392505050565b600080831415613daf5760009050613e06565b6000828402905082848281613dc057fe5b0414613e01576040517f08c379a0000000000000000000000000000000000000000000000000000000008152600401613df8906152d9565b60405180910390fd5b809150505b92915050565b6000613e4e83836040518060400160405280601a81526020017f536166654d6174683a206469766973696f6e206279207a65726f0000000000008152506141ad565b905092915050565b600073ffffffffffffffffffffffffffffffffffffffff168273ffffffffffffffffffffffffffffffffffffffff161415613ec6576040517f08c379a0000000000000000000000000000000000000000000000000000000008152600401613ebd90615439565b60405180910390fd5b613edb81600254613fde90919063ffffffff16565b600281905550613f32816000808573ffffffffffffffffffffffffffffffffffffffff1673ffffffffffffffffffffffffffffffffffffffff16815260200190815260200160002054613fde90919063ffffffff16565b6000808473ffffffffffffffffffffffffffffffffffffffff1673ffffffffffffffffffffffffffffffffffffffff168152602001908152602001600020819055508173ffffffffffffffffffffffffffffffffffffffff16600073ffffffffffffffffffffffffffffffffffffffff167fddf252ad1be2c89b69c2b068fc378daa952ba7f163c4a11628f55a4df523b3ef83604051613fd29190615482565b60405180910390a35050565b600080828401905083811015614029576040517f08c379a000000000000000000000000000000000000000000000000000000000815260040161402090615299565b60405180910390fd5b8091505092915050565b600061407583836040518060400160405280601e81526020017f536166654d6174683a207375627472616374696f6e206f766572666c6f770000815250613d41565b905092915050565b600073ffffffffffffffffffffffffffffffffffffffff168173ffffffffffffffffffffffffffffffffffffffff1614156140ed576040517f08c379a00000000000000000000000000000000000000000000000000000000081526004016140e490615239565b60405180910390fd5b8073ffffffffffffffffffffffffffffffffffffffff16600760009054906101000a900473ffffffffffffffffffffffffffffffffffffffff1673ffffffffffffffffffffffffffffffffffffffff167f8be0079c531659141344cd1fd0a4f28419497f9722a3daafe3b4186f6b6457e060405160405180910390a380600760006101000a81548173ffffffffffffffffffffffffffffffffffffffff021916908373ffffffffffffffffffffffffffffffffffffffff16021790555050565b600080831182906141f4576040517f08c379a00000000000000000000000000000000000000000000000000000000081526004016141eb91906151d7565b60405180910390fd5b50600083858161420057fe5b049050809150509392505050565b6040518060400160405280600073ffffffffffffffffffffffffffffffffffffffff168152602001600081525090565b60405180608001604052806000151581526020016000600181111561425f57fe5b81526020016000600181111561427157fe5b8152602001600081525090565b6040518061010001604052806000600881111561429757fe5b8152602001600081526020016142ab614372565b81526020016000815260200160008152602001600073ffffffffffffffffffffffffffffffffffffffff16815260200160008152602001606081525090565b6040518061010001604052806000600881111561430357fe5b815260200160008152602001614317614372565b81526020016000815260200160008152602001600073ffffffffffffffffffffffffffffffffffffffff16815260200160008152602001606081525090565b6040518060400160405280600015158152602001600081525090565b60405180608001604052806000151581526020016000600181111561439357fe5b8152602001600060018111156143a557fe5b8152602001600081525090565b6000813590506143c18161578f565b92915050565b6000815190506143d6816157a6565b92915050565b6000813590506143eb816157bd565b92915050565b600082601f83011261440257600080fd5b8151614415614410826154e5565b6154b8565b9150808252602083016020830185838301111561443157600080fd5b61443c838284615717565b50505092915050565b60006040828403121561445757600080fd5b61446160406154b8565b90506000614471848285016143c7565b6000830152506020614485848285016144a6565b60208301525092915050565b6000813590506144a0816157d4565b92915050565b6000815190506144b5816157d4565b92915050565b6000602082840312156144cd57600080fd5b60006144db848285016143b2565b91505092915050565b600080604083850312156144f757600080fd5b6000614505858286016143b2565b9250506020614516858286016143b2565b9150509250929050565b60008060006060848603121561453557600080fd5b6000614543868287016143b2565b9350506020614554868287016143b2565b925050604061456586828701614491565b9150509250925092565b6000806040838503121561458257600080fd5b6000614590858286016143b2565b92505060206145a185828601614491565b9150509250929050565b6000602082840312156145bd57600080fd5b60006145cb848285016143c7565b91505092915050565b6000602082840312156145e657600080fd5b60006145f4848285016143dc565b91505092915050565b600080600080600060a0868803121561461557600080fd5b600086015167ffffffffffffffff81111561462f57600080fd5b61463b888289016143f1565b955050602061464c888289016144a6565b945050604061465d888289016144a6565b935050606061466e888289016144a6565b925050608061467f888289016144a6565b9150509295509295909350565b60006040828403121561469e57600080fd5b60006146ac84828501614445565b91505092915050565b6000602082840312156146c757600080fd5b60006146d584828501614491565b91505092915050565b6000602082840312156146f057600080fd5b60006146fe848285016144a6565b91505092915050565b60006147138383614ecc565b905092915050565b60006147278383614fd4565b60408301905092915050565b61473c81615687565b82525050565b61474b816155c6565b82525050565b61475a816155c6565b82525050565b600061476b82615531565b6147758185615577565b93508360208202850161478785615511565b8060005b858110156147c357848403895281516147a48582614707565b94506147af8361555d565b925060208a0199505060018101905061478b565b50829750879550505050505092915050565b60006147e08261553c565b6147ea8185615588565b93506147f583615521565b8060005b8381101561482657815161480d888261471b565b97506148188361556a565b9250506001810190506147f9565b5085935050505092915050565b61483c816155d8565b82525050565b61484b816155d8565b82525050565b600061485c82615547565b6148668185615599565b9350614876818560208601615717565b61487f8161574a565b840191505092915050565b61489381615699565b82525050565b6148a2816156ab565b82525050565b6148b1816156bd565b82525050565b6148c0816156cf565b82525050565b6148cf816156e1565b82525050565b60006148e082615552565b6148ea81856155b5565b93506148fa818560208601615717565b6149038161574a565b840191505092915050565b600061491b6023836155b5565b91507f45524332303a207472616e7366657220746f20746865207a65726f206164647260008301527f65737300000000000000000000000000000000000000000000000000000000006020830152604082019050919050565b60006149816019836155b5565b91507f434f4d504f554e443a207769746864726177206661696c6564000000000000006000830152602082019050919050565b60006149c16026836155b5565b91507f4f776e61626c653a206e6577206f776e657220697320746865207a65726f206160008301527f64647265737300000000000000000000000000000000000000000000000000006020830152604082019050919050565b6000614a276022836155b5565b91507f45524332303a20617070726f766520746f20746865207a65726f20616464726560008301527f73730000000000000000000000000000000000000000000000000000000000006020830152604082019050919050565b6000614a8d6017836155b5565b91507f434f4d504f554e443a20737570706c79206661696c65640000000000000000006000830152602082019050919050565b6000614acd601b836155b5565b91507f536166654d6174683a206164646974696f6e206f766572666c6f7700000000006000830152602082019050919050565b6000614b0d6016836155b5565b91507f7472616e73666572206f6620455448206661696c6564000000000000000000006000830152602082019050919050565b6000614b4d6021836155b5565b91507f536166654d6174683a206d756c7469706c69636174696f6e206f766572666c6f60008301527f77000000000000000000000000000000000000000000000000000000000000006020830152604082019050919050565b6000614bb36018836155b5565b91507f46554c4352554d3a207769746864726177206661696c656400000000000000006000830152602082019050919050565b6000614bf36020836155b5565b91507f4f776e61626c653a2063616c6c6572206973206e6f7420746865206f776e65726000830152602082019050919050565b6000614c336014836155b5565b91507f696e73756666696369656e742062616c616e63650000000000000000000000006000830152602082019050919050565b6000614c73601f836155b5565b91507f7769746864726177206d7573742062652067726561746572207468616e2030006000830152602082019050919050565b6000614cb36025836155b5565b91507f45524332303a207472616e736665722066726f6d20746865207a65726f20616460008301527f64726573730000000000000000000000000000000000000000000000000000006020830152604082019050919050565b6000614d196000836155aa565b9150600082019050919050565b6000614d336012836155b5565b91507f696e73756666696369656e742066756e647300000000000000000000000000006000830152602082019050919050565b6000614d736024836155b5565b91507f45524332303a20617070726f76652066726f6d20746865207a65726f2061646460008301527f72657373000000000000000000000000000000000000000000000000000000006020830152604082019050919050565b6000614dd9601e836155b5565b91507f6465706f736974206d7573742062652067726561746572207468616e203000006000830152602082019050919050565b6000614e196016836155b5565b91507f46554c4352554d3a20737570706c79206661696c6564000000000000000000006000830152602082019050919050565b6000614e59601f836155b5565b91507f5265656e7472616e637947756172643a207265656e7472616e742063616c6c006000830152602082019050919050565b6000614e99601f836155b5565b91507f45524332303a206d696e7420746f20746865207a65726f2061646472657373006000830152602082019050919050565b600061016083016000830151614ee5600086018261488a565b506020830151614ef86020860182615032565b506040830151614f0b6040860182614f7f565b506060830151614f1e60c0860182615032565b506080830151614f3160e0860182615032565b5060a0830151614f45610100860182614742565b5060c0830151614f59610120860182615032565b5060e0830151848203610140860152614f728282614851565b9150508091505092915050565b608082016000820151614f956000850182614833565b506020820151614fa86020850182614899565b506040820151614fbb60408501826148a8565b506060820151614fce6060850182615032565b50505050565b604082016000820151614fea6000850182614742565b506020820151614ffd6020850182615032565b50505050565b6040820160008201516150196000850182614742565b50602082015161502c6020850182615032565b50505050565b61503b81615670565b82525050565b61504a81615670565b82525050565b6150598161567a565b82525050565b600061506a82614d0c565b9150819050919050565b60006020820190506150896000830184614751565b92915050565b60006020820190506150a46000830184614733565b92915050565b60006060820190506150bf6000830186614733565b6150cc6020830185614733565b6150d96040830184615041565b949350505050565b60006040820190506150f66000830185614733565b6151036020830184615041565b9392505050565b600060408201905061511f6000830185614751565b61512c6020830184615041565b9392505050565b60006060820190506151486000830186614751565b6151556020830185615041565b61516260408301846148c6565b949350505050565b6000604082019050818103600083015261518481856147d5565b905081810360208301526151988184614760565b90509392505050565b60006020820190506151b66000830184614842565b92915050565b60006020820190506151d160008301846148b7565b92915050565b600060208201905081810360008301526151f181846148d5565b905092915050565b600060208201905081810360008301526152128161490e565b9050919050565b6000602082019050818103600083015261523281614974565b9050919050565b60006020820190508181036000830152615252816149b4565b9050919050565b6000602082019050818103600083015261527281614a1a565b9050919050565b6000602082019050818103600083015261529281614a80565b9050919050565b600060208201905081810360008301526152b281614ac0565b9050919050565b600060208201905081810360008301526152d281614b00565b9050919050565b600060208201905081810360008301526152f281614b40565b9050919050565b6000602082019050818103600083015261531281614ba6565b9050919050565b6000602082019050818103600083015261533281614be6565b9050919050565b6000602082019050818103600083015261535281614c26565b9050919050565b6000602082019050818103600083015261537281614c66565b9050919050565b6000602082019050818103600083015261539281614ca6565b9050919050565b600060208201905081810360008301526153b281614d26565b9050919050565b600060208201905081810360008301526153d281614d66565b9050919050565b600060208201905081810360008301526153f281614dcc565b9050919050565b6000602082019050818103600083015261541281614e0c565b9050919050565b6000602082019050818103600083015261543281614e4c565b9050919050565b6000602082019050818103600083015261545281614e8c565b9050919050565b600060608201905061546e6000830185615003565b61547b6040830184615041565b9392505050565b60006020820190506154976000830184615041565b92915050565b60006020820190506154b26000830184615050565b92915050565b6000604051905081810181811067ffffffffffffffff821117156154db57600080fd5b8060405250919050565b600067ffffffffffffffff8211156154fc57600080fd5b601f19601f8301169050602081019050919050565b6000819050602082019050919050565b6000819050602082019050919050565b600081519050919050565b600081519050919050565b600081519050919050565b600081519050919050565b6000602082019050919050565b6000602082019050919050565b600082825260208201905092915050565b600082825260208201905092915050565b600082825260208201905092915050565b600081905092915050565b600082825260208201905092915050565b60006155d182615650565b9050919050565b60008115159050919050565b60006155ef826155c6565b9050919050565b60008190506156048261575b565b919050565b600081905061561782615768565b919050565b600081905061562a82615775565b919050565b600081905061563d82615782565b919050565b600061ffff82169050919050565b600073ffffffffffffffffffffffffffffffffffffffff82169050919050565b6000819050919050565b600060ff82169050919050565b6000615692826156f3565b9050919050565b60006156a4826155f6565b9050919050565b60006156b682615609565b9050919050565b60006156c88261561c565b9050919050565b60006156da8261562f565b9050919050565b60006156ec82615642565b9050919050565b60006156fe82615705565b9050919050565b600061571082615650565b9050919050565b60005b8381101561573557808201518184015260208101905061571a565b83811115615744576000848401525b50505050565b6000601f19601f8301169050919050565b6009811061576557fe5b50565b6002811061577257fe5b50565b6002811061577f57fe5b50565b6005811061578c57fe5b50565b615798816155c6565b81146157a357600080fd5b50565b6157af816155d8565b81146157ba57600080fd5b50565b6157c6816155e4565b81146157d157600080fd5b50565b6157dd81615670565b81146157e857600080fd5b5056fe45524332303a207472616e7366657220616d6f756e7420657863656564732062616c616e636545524332303a207472616e7366657220616d6f756e74206578636565647320616c6c6f77616e636545524332303a2064656372656173656420616c6c6f77616e63652062656c6f77207a65726fa365627a7a723158200ccf09b949c22221b0b0db278efd1e957e2e5856d0f56a5b4fa63fb474a7f9236c6578706572696d656e74616cf564736f6c634300050c0040",
  "source": "pragma solidity ^0.5.0;\npragma experimental ABIEncoderV2;\n\ninterface IERC20 {\n    function totalSupply() external view returns (uint256);\n    function balanceOf(address account) external view returns (uint256);\n    function transfer(address recipient, uint256 amount) external returns (bool);\n    function allowance(address owner, address spender) external view returns (uint256);\n    function approve(address spender, uint256 amount) external returns (bool);\n    function transferFrom(address sender, address recipient, uint256 amount) external returns (bool);\n    event Transfer(address indexed from, address indexed to, uint256 value);\n    event Approval(address indexed owner, address indexed spender, uint256 value);\n}\n\ncontract Context {\n    constructor () internal { }\n    // solhint-disable-previous-line no-empty-blocks\n\n    function _msgSender() internal view returns (address payable) {\n        return msg.sender;\n    }\n\n    function _msgData() internal view returns (bytes memory) {\n        this; // silence state mutability warning without generating bytecode - see https://github.com/ethereum/solidity/issues/2691\n        return msg.data;\n    }\n}\n\ncontract ERC20 is Context, IERC20 {\n    using SafeMath for uint256;\n\n    mapping (address => uint256) _balances;\n\n    mapping (address => mapping (address => uint256)) private _allowances;\n\n    uint256 _totalSupply;\n    function totalSupply() public view returns (uint256) {\n        return _totalSupply;\n    }\n    function balanceOf(address account) public view returns (uint256) {\n        return _balances[account];\n    }\n    function transfer(address recipient, uint256 amount) public returns (bool) {\n        _transfer(_msgSender(), recipient, amount);\n        return true;\n    }\n    function allowance(address owner, address spender) public view returns (uint256) {\n        return _allowances[owner][spender];\n    }\n    function approve(address spender, uint256 amount) public returns (bool) {\n        _approve(_msgSender(), spender, amount);\n        return true;\n    }\n    function transferFrom(address sender, address recipient, uint256 amount) public returns (bool) {\n        _transfer(sender, recipient, amount);\n        _approve(sender, _msgSender(), _allowances[sender][_msgSender()].sub(amount, \"ERC20: transfer amount exceeds allowance\"));\n        return true;\n    }\n    function increaseAllowance(address spender, uint256 addedValue) public returns (bool) {\n        _approve(_msgSender(), spender, _allowances[_msgSender()][spender].add(addedValue));\n        return true;\n    }\n    function decreaseAllowance(address spender, uint256 subtractedValue) public returns (bool) {\n        _approve(_msgSender(), spender, _allowances[_msgSender()][spender].sub(subtractedValue, \"ERC20: decreased allowance below zero\"));\n        return true;\n    }\n    function _transfer(address sender, address recipient, uint256 amount) internal {\n        require(sender != address(0), \"ERC20: transfer from the zero address\");\n        require(recipient != address(0), \"ERC20: transfer to the zero address\");\n\n        _balances[sender] = _balances[sender].sub(amount, \"ERC20: transfer amount exceeds balance\");\n        _balances[recipient] = _balances[recipient].add(amount);\n        emit Transfer(sender, recipient, amount);\n    }\n    function _mint(address account, uint256 amount) internal {\n        require(account != address(0), \"ERC20: mint to the zero address\");\n\n        _totalSupply = _totalSupply.add(amount);\n        _balances[account] = _balances[account].add(amount);\n        emit Transfer(address(0), account, amount);\n    }\n    function _burn(address account, uint256 amount) internal {\n        require(account != address(0), \"ERC20: burn from the zero address\");\n\n        _balances[account] = _balances[account].sub(amount, \"ERC20: burn amount exceeds balance\");\n        _totalSupply = _totalSupply.sub(amount);\n        emit Transfer(account, address(0), amount);\n    }\n    function _approve(address owner, address spender, uint256 amount) internal {\n        require(owner != address(0), \"ERC20: approve from the zero address\");\n        require(spender != address(0), \"ERC20: approve to the zero address\");\n\n        _allowances[owner][spender] = amount;\n        emit Approval(owner, spender, amount);\n    }\n    function _burnFrom(address account, uint256 amount) internal {\n        _burn(account, amount);\n        _approve(account, _msgSender(), _allowances[account][_msgSender()].sub(amount, \"ERC20: burn amount exceeds allowance\"));\n    }\n}\n\ncontract ERC20Detailed is IERC20 {\n    string private _name;\n    string private _symbol;\n    uint8 private _decimals;\n\n    constructor (string memory name, string memory symbol, uint8 decimals) public {\n        _name = name;\n        _symbol = symbol;\n        _decimals = decimals;\n    }\n    function name() public view returns (string memory) {\n        return _name;\n    }\n    function symbol() public view returns (string memory) {\n        return _symbol;\n    }\n    function decimals() public view returns (uint8) {\n        return _decimals;\n    }\n}\n\ncontract ReentrancyGuard {\n    uint256 private _guardCounter;\n\n    constructor () internal {\n        _guardCounter = 1;\n    }\n\n    modifier nonReentrant() {\n        _guardCounter += 1;\n        uint256 localCounter = _guardCounter;\n        _;\n        require(localCounter == _guardCounter, \"ReentrancyGuard: reentrant call\");\n    }\n}\n\ncontract Ownable is Context {\n    address private _owner;\n\n    event OwnershipTransferred(address indexed previousOwner, address indexed newOwner);\n    constructor () internal {\n        _owner = _msgSender();\n        emit OwnershipTransferred(address(0), _owner);\n    }\n    function owner() public view returns (address) {\n        return _owner;\n    }\n    modifier onlyOwner() {\n        require(isOwner(), \"Ownable: caller is not the owner\");\n        _;\n    }\n    function isOwner() public view returns (bool) {\n        return _msgSender() == _owner;\n    }\n    function renounceOwnership() public onlyOwner {\n        emit OwnershipTransferred(_owner, address(0));\n        _owner = address(0);\n    }\n    function transferOwnership(address newOwner) public onlyOwner {\n        _transferOwnership(newOwner);\n    }\n    function _transferOwnership(address newOwner) internal {\n        require(newOwner != address(0), \"Ownable: new owner is the zero address\");\n        emit OwnershipTransferred(_owner, newOwner);\n        _owner = newOwner;\n    }\n}\n\nlibrary SafeMath {\n    function add(uint256 a, uint256 b) internal pure returns (uint256) {\n        uint256 c = a + b;\n        require(c >= a, \"SafeMath: addition overflow\");\n\n        return c;\n    }\n    function sub(uint256 a, uint256 b) internal pure returns (uint256) {\n        return sub(a, b, \"SafeMath: subtraction overflow\");\n    }\n    function sub(uint256 a, uint256 b, string memory errorMessage) internal pure returns (uint256) {\n        require(b <= a, errorMessage);\n        uint256 c = a - b;\n\n        return c;\n    }\n    function mul(uint256 a, uint256 b) internal pure returns (uint256) {\n        if (a == 0) {\n            return 0;\n        }\n\n        uint256 c = a * b;\n        require(c / a == b, \"SafeMath: multiplication overflow\");\n\n        return c;\n    }\n    function div(uint256 a, uint256 b) internal pure returns (uint256) {\n        return div(a, b, \"SafeMath: division by zero\");\n    }\n    function div(uint256 a, uint256 b, string memory errorMessage) internal pure returns (uint256) {\n        // Solidity only automatically asserts when dividing by 0\n        require(b > 0, errorMessage);\n        uint256 c = a / b;\n\n        return c;\n    }\n    function mod(uint256 a, uint256 b) internal pure returns (uint256) {\n        return mod(a, b, \"SafeMath: modulo by zero\");\n    }\n    function mod(uint256 a, uint256 b, string memory errorMessage) internal pure returns (uint256) {\n        require(b != 0, errorMessage);\n        return a % b;\n    }\n}\n\nlibrary Address {\n    function isContract(address account) internal view returns (bool) {\n        bytes32 codehash;\n        bytes32 accountHash = 0xc5d2460186f7233c927e7db2dcc703c0e500b653ca82273b7bfad8045d85a470;\n        // solhint-disable-next-line no-inline-assembly\n        assembly { codehash := extcodehash(account) }\n        return (codehash != 0x0 && codehash != accountHash);\n    }\n    function toPayable(address account) internal pure returns (address payable) {\n        return address(uint160(account));\n    }\n    function sendValue(address payable recipient, uint256 amount) internal {\n        require(address(this).balance >= amount, \"Address: insufficient balance\");\n\n        // solhint-disable-next-line avoid-call-value\n        (bool success, ) = recipient.call.value(amount)(\"\");\n        require(success, \"Address: unable to send value, recipient may have reverted\");\n    }\n}\n\nlibrary SafeERC20 {\n    using SafeMath for uint256;\n    using Address for address;\n\n    function safeTransfer(IERC20 token, address to, uint256 value) internal {\n        callOptionalReturn(token, abi.encodeWithSelector(token.transfer.selector, to, value));\n    }\n\n    function safeTransferFrom(IERC20 token, address from, address to, uint256 value) internal {\n        callOptionalReturn(token, abi.encodeWithSelector(token.transferFrom.selector, from, to, value));\n    }\n\n    function safeApprove(IERC20 token, address spender, uint256 value) internal {\n        require((value == 0) || (token.allowance(address(this), spender) == 0),\n            \"SafeERC20: approve from non-zero to non-zero allowance\"\n        );\n        callOptionalReturn(token, abi.encodeWithSelector(token.approve.selector, spender, value));\n    }\n\n    function safeIncreaseAllowance(IERC20 token, address spender, uint256 value) internal {\n        uint256 newAllowance = token.allowance(address(this), spender).add(value);\n        callOptionalReturn(token, abi.encodeWithSelector(token.approve.selector, spender, newAllowance));\n    }\n\n    function safeDecreaseAllowance(IERC20 token, address spender, uint256 value) internal {\n        uint256 newAllowance = token.allowance(address(this), spender).sub(value, \"SafeERC20: decreased allowance below zero\");\n        callOptionalReturn(token, abi.encodeWithSelector(token.approve.selector, spender, newAllowance));\n    }\n    function callOptionalReturn(IERC20 token, bytes memory data) private {\n        require(address(token).isContract(), \"SafeERC20: call to non-contract\");\n\n        // solhint-disable-next-line avoid-low-level-calls\n        (bool success, bytes memory returndata) = address(token).call(data);\n        require(success, \"SafeERC20: low-level call failed\");\n\n        if (returndata.length > 0) { // Return data is optional\n            // solhint-disable-next-line max-line-length\n            require(abi.decode(returndata, (bool)), \"SafeERC20: ERC20 operation did not succeed\");\n        }\n    }\n}\n\ninterface Compound {\n    function approve ( address spender, uint256 amount ) external returns ( bool );\n    function mint ( uint256 mintAmount ) external returns ( uint256 );\n    function balanceOf(address _owner) external view returns (uint256 balance);\n    function transfer(address _to, uint _value) external returns (bool success);\n    function redeem(uint256 redeemTokens) external returns (uint256);\n    function exchangeRateStored() external view returns (uint);\n}\n\ninterface Fulcrum {\n    function mintWithEther(address receiver, uint256 maxPriceAllowed) external payable returns (uint256 mintAmount);\n    function mint(address receiver, uint256 amount) external payable returns (uint256 mintAmount);\n    function burnToEther(address receiver, uint256 burnAmount, uint256 minPriceAllowed) external returns (uint256 loanAmountPaid);\n    function burn(address receiver, uint256 burnAmount) external returns (uint256 loanAmountPaid);\n    function balanceOf(address _owner) external view returns (uint256 balance);\n    function assetBalanceOf(address _owner) external view returns (uint256 balance);\n}\n\ninterface ILendingPoolAddressesProvider {\n    function getLendingPool() external view returns (address);\n}\n\ninterface Aave {\n    function deposit(address _reserve, uint256 _amount, uint16 _referralCode) external;\n    function redeemUnderlying(address _reserve, address payable _user, uint256 _amount, uint256 _aTokenBalanceAfterRedeem) external;\n    function balanceOf(address _owner) external view returns (uint256 balance);\n}\n\ninterface AToken {\n    function redeem(uint256 amount) external;\n    function balanceOf(address _owner) external view returns (uint256 balance);\n}\n\ninterface IIEarnManager {\n    function recommend(address _token) external view returns (\n      string memory choice,\n      uint256 capr,\n      uint256 iapr,\n      uint256 aapr,\n      uint256 dapr\n    );\n}\n\ncontract Structs {\n    struct Val {\n        uint256 value;\n    }\n\n    struct TotalPar {\n        uint128 borrow;\n        uint128 supply;\n    }\n\n    enum ActionType {\n        Deposit,   // supply tokens\n        Withdraw,  // borrow tokens\n        Transfer,  // transfer balance between accounts\n        Buy,       // buy an amount of some token (externally)\n        Sell,      // sell an amount of some token (externally)\n        Trade,     // trade tokens against another account\n        Liquidate, // liquidate an undercollateralized or expiring account\n        Vaporize,  // use excess tokens to zero-out a completely negative account\n        Call       // send arbitrary data to an address\n    }\n\n    enum AssetDenomination {\n        Wei, // the amount is denominated in wei\n        Par  // the amount is denominated in par\n    }\n\n    enum AssetReference {\n        Delta, // the amount is given as a delta from the current value\n        Target // the amount is given as an exact number to end up at\n    }\n\n    struct AssetAmount {\n        bool sign; // true if positive\n        AssetDenomination denomination;\n        AssetReference ref;\n        uint256 value;\n    }\n\n    struct ActionArgs {\n        ActionType actionType;\n        uint256 accountId;\n        AssetAmount amount;\n        uint256 primaryMarketId;\n        uint256 secondaryMarketId;\n        address otherAddress;\n        uint256 otherAccountId;\n        bytes data;\n    }\n\n    struct Info {\n        address owner;  // The address that owns the account\n        uint256 number; // A nonce that allows a single address to control many accounts\n    }\n\n    struct Wei {\n        bool sign; // true if positive\n        uint256 value;\n    }\n}\n\ncontract DyDx is Structs {\n    function getEarningsRate() public view returns (Val memory);\n    function getMarketInterestRate(uint256 marketId) public view returns (Val memory);\n    function getMarketTotalPar(uint256 marketId) public view returns (TotalPar memory);\n    function getAccountWei(Info memory account, uint256 marketId) public view returns (Wei memory);\n    function operate(Info[] memory, ActionArgs[] memory) public;\n}\n\ncontract iDAI is ERC20, ERC20Detailed, ReentrancyGuard, Ownable, Structs {\n  using SafeERC20 for IERC20;\n  using Address for address;\n  using SafeMath for uint256;\n\n  uint256 public pool;\n  address public token;\n  address public compound;\n  address public fulcrum;\n  address public aave;\n  address public aaveToken;\n  address public dydx;\n  uint256 public dToken;\n  address public apr;\n\n  enum Lender {\n      NONE,\n      DYDX,\n      COMPOUND,\n      AAVE,\n      FULCRUM\n  }\n\n  Lender public provider = Lender.NONE;\n\n  constructor () public ERC20Detailed(\"iDAI\", \"iDAI\", 18) {\n    apr = address(0x9CaD8AB10daA9AF1a9D2B878541f41b697268eEC);\n    dydx = address(0x1E0447b19BB6EcFdAe1e4AE1694b0C3659614e4e);\n    aave = address(0x24a42fD28C976A61Df5D00D0599C34c4f90748c8);\n    fulcrum = address(0x493C57C4763932315A328269E1ADaD09653B9081);\n    aaveToken = address(0xfC1E690f61EFd961294b3e1Ce3313fBD8aa4f85d);\n    compound = address(0x5d3a536E4D6DbD6114cc1Ead35777bAB948E3643);\n    dToken = 1;\n  }\n\n  function() external payable {\n\n  }\n\n  function set_new_APR(address _new_APR) public onlyOwner {\n      apr = _new_APR;\n  }\n\n  function recommend() public view returns (Lender) {\n    (,uint256 capr,uint256 iapr,uint256 aapr,uint256 dapr) = IIEarnManager(apr).recommend(token);\n    uint256 max = 0;\n    if (capr > max) {\n      max = capr;\n    }\n    if (iapr > max) {\n      max = iapr;\n    }\n    if (aapr > max) {\n      max = aapr;\n    }\n    if (dapr > max) {\n      max = dapr;\n    }\n\n    Lender newLender = Lender.NONE;\n    if (max == dapr) {\n      newLender = Lender.DYDX;\n    }\n    if (max == aapr) {\n      newLender = Lender.AAVE;\n    }\n    if (max == iapr) {\n      newLender = Lender.FULCRUM;\n    }\n    if (max == capr) {\n      newLender = Lender.COMPOUND;\n    }\n    return newLender;\n  }\n\n  function supplyDydx(uint256 amount) public returns(uint) {\n      Info[] memory infos = new Info[](1);\n      infos[0] = Info(address(this), 0);\n\n      AssetAmount memory amt = AssetAmount(true, AssetDenomination.Wei, AssetReference.Delta, amount);\n      ActionArgs memory act;\n      act.actionType = ActionType.Deposit;\n      act.accountId = 0;\n      act.amount = amt;\n      act.primaryMarketId = dToken;\n      act.otherAddress = address(this);\n\n      ActionArgs[] memory args = new ActionArgs[](1);\n      args[0] = act;\n\n      DyDx(dydx).operate(infos, args);\n  }\n\n  function withdrawDydx(uint256 amount) public {\n      Info[] memory infos = new Info[](1);\n      infos[0] = Info(address(this), 0);\n\n      AssetAmount memory amt = AssetAmount(true, AssetDenomination.Wei, AssetReference.Delta, amount);\n      ActionArgs memory act;\n      act.actionType = ActionType.Withdraw;\n      act.accountId = 0;\n      act.amount = amt;\n      act.primaryMarketId = dToken;\n      act.otherAddress = address(this);\n\n      ActionArgs[] memory args = new ActionArgs[](1);\n      args[0] = act;\n\n      DyDx(dydx).operate(infos, args);\n  }\n\n  function balance() public view returns (uint256) {\n    return IERC20(token).balanceOf(address(this));\n  }\n\n  function approveToken() public {\n      IERC20(token).approve(compound, uint(-1)); //also add to constructor\n      IERC20(token).approve(dydx, uint(-1));\n      IERC20(token).approve(aave, uint(-1));\n      IERC20(token).approve(fulcrum, uint(-1));\n  }\n\n  function balanceDydx() public view returns (uint256) {\n      Wei memory bal = DyDx(dydx).getAccountWei(Info(address(this), 0), dToken);\n      return bal.value;\n  }\n  function balanceCompound() public view returns (uint256) {\n      return IERC20(compound).balanceOf(address(this));\n  }\n  function balanceCompoundInToken() public view returns (uint256) {\n    // Mantisa 1e18 to decimals\n    uint256 b = balanceCompound();\n    if (b > 0) {\n      b = b.mul(Compound(compound).exchangeRateStored()).div(1e18);\n    }\n    return b;\n  }\n  function balanceFulcrumInToken() public view returns (uint256) {\n    uint256 b = balanceFulcrum();\n    if (b > 0) {\n      b = Fulcrum(fulcrum).assetBalanceOf(address(this));\n    }\n    return b;\n  }\n  function balanceFulcrum() public view returns (uint256) {\n    return IERC20(fulcrum).balanceOf(address(this));\n  }\n  function balanceAave() public view returns (uint256) {\n    return IERC20(aave).balanceOf(address(this));\n  }\n\n\n  function withdrawAll() public {\n    uint256 amount = balanceCompound();\n    if (amount > 0) {\n      withdrawCompound(amount);\n    }\n    amount = balanceDydx();\n    if (amount > 0) {\n      withdrawDydx(amount);\n    }\n    amount = balanceFulcrum();\n    if (amount > 0) {\n      withdrawFulcrum(amount);\n    }\n    amount = balanceAave();\n    if (amount > 0) {\n      withdrawAave(amount);\n    }\n  }\n\n  function withdrawSome(uint256 _amount) public {\n    uint256 b;\n    uint256 bT;\n    uint256 amount;\n    if (provider == Lender.COMPOUND) {\n      b = balanceCompound();\n      bT = balanceCompoundInToken();\n      require(bT >= _amount, \"insufficient funds\");\n      amount = b.mul(bT).div(_amount);\n      withdrawCompound(amount);\n    }\n    if (provider == Lender.AAVE) {\n      require(balanceAave() >= _amount, \"insufficient funds\");\n      withdrawAave(_amount);\n    }\n    if (provider == Lender.DYDX) {\n      require(balanceDydx() >= _amount, \"insufficient funds\");\n      withdrawDydx(_amount);\n    }\n    if (provider == Lender.FULCRUM) {\n      require(balanceFulcrum() >= _amount, \"insufficient funds\");\n      b = balanceFulcrum();\n      bT = balanceFulcrumInToken();\n      require(bT >= _amount, \"insufficient funds\");\n      amount = b.mul(bT).div(_amount);\n      withdrawFulcrum(amount);\n    }\n  }\n\n  function rebalance() public {\n    Lender newProvider = recommend();\n\n    if (newProvider != provider) {\n      withdrawAll();\n    }\n\n    if (balance() > 0) {\n      if (newProvider == Lender.DYDX) {\n        supplyDydx(balance());\n      }\n      if (newProvider == Lender.FULCRUM) {\n        supplyFulcrum(balance());\n      }\n      if (newProvider == Lender.COMPOUND) {\n        supplyCompound(balance());\n      }\n      if (newProvider == Lender.AAVE) {\n        supplyAave(balance());\n      }\n    }\n  }\n\n  function supplyAave(uint amount) public {\n    Aave(aave).deposit(token, amount, 0);\n  }\n  function supplyFulcrum(uint amount) public {\n    require(Fulcrum(fulcrum).mint(address(this), amount) > 0, \"FULCRUM: supply failed\");\n  }\n  function supplyCompound(uint amount) public {\n      require(Compound(compound).mint(amount) == 0, \"COMPOUND: supply failed\");\n  }\n\n  function withdrawAave(uint amount) public {\n      AToken(aaveToken).redeem(amount);\n  }\n  function withdrawFulcrum(uint amount) public {\n      require(Fulcrum(fulcrum).burn(address(this), amount) > 0, \"FULCRUM: withdraw failed\");\n  }\n  function withdrawCompound(uint amount) public {\n      require(Compound(compound).redeem(amount) == 0, \"COMPOUND: withdraw failed\");\n  }\n\n  function set_new_AAVE(address _new_AAVE) public onlyOwner {\n      aave = _new_AAVE;\n  }\n  function set_new_DYDX(address _new_DYDX) public onlyOwner {\n      dydx = _new_DYDX;\n  }\n\n  // Invest ETH\n  function invest(uint256 _amount)\n      external\n      payable\n      nonReentrant\n  {\n      require(_amount > 0, \"deposit must be greater than 0\");\n      pool = calcPoolValueInToken();\n\n      IERC20(token).transferFrom(msg.sender, address(this), _amount);\n\n      rebalance();\n\n      // Calculate pool shares\n      uint256 shares = 0;\n      if (pool == 0) {\n        shares = _amount;\n        pool = _amount;\n      } else {\n        shares = (_amount.mul(_totalSupply)).div(pool);\n      }\n      pool = calcPoolValueInToken();\n      _mint(msg.sender, shares);\n  }\n\n  // Invest self eth from external profits\n  function investSelf()\n      external\n      nonReentrant\n      onlyOwner\n  {\n      uint b = IERC20(token).balanceOf(address(this));\n      require(b > 0, \"deposit must be greater than 0\");\n      rebalance();\n      pool = calcPoolValueInToken();\n  }\n\n  function calcPoolValueInToken() public view returns (uint) {\n\n    return balanceCompoundInToken()\n      .add(balanceFulcrumInToken())\n      .add(balanceDydx())\n      .add(balanceAave());\n  }\n\n  function getPricePerFullShare() public view returns (uint) {\n    uint _pool = calcPoolValueInToken();\n    return _pool.mul(1e18).div(_totalSupply);\n  }\n\n  // Redeem any invested tokens from the pool\n  function redeem(uint256 _shares)\n      external\n      nonReentrant\n  {\n      require(_shares > 0, \"withdraw must be greater than 0\");\n\n      uint256 ibalance = balanceOf(msg.sender);\n      require(_shares <= ibalance, \"insufficient balance\");\n\n      // Could have over value from cTokens\n      pool = calcPoolValueInToken();\n      // Calc eth to redeem before updating balances\n      uint256 r = (pool.mul(_shares)).div(_totalSupply);\n\n\n      _balances[msg.sender] = _balances[msg.sender].sub(_shares, \"redeem amount exceeds balance\");\n      _totalSupply = _totalSupply.sub(_shares);\n\n      emit Transfer(msg.sender, address(0), _shares);\n\n      // Check ETH balance\n      uint256 b = IERC20(token).balanceOf(address(this));\n      if (b < r) {\n        withdrawSome(r);\n      }\n\n      IERC20(token).transfer(msg.sender, r);\n  }\n\n  // incase of half-way error\n  function inCaseTokenGetsStuck(IERC20 _TokenAddress) onlyOwner public {\n      uint qty = _TokenAddress.balanceOf(address(this));\n      _TokenAddress.transfer(msg.sender, qty);\n  }\n  // incase of half-way error\n  function inCaseETHGetsStuck() onlyOwner public{\n      (bool result, ) = msg.sender.call.value(address(this).balance)(\"\");\n      require(result, \"transfer of ETH failed\");\n  }\n}\n",
  "sourcePath": "D:/ftm/itoken/contracts/IDAI.sol",
  "compiler": {
    "name": "solc",
    "version": "0.5.12+commit.7709ece9.Emscripten.clang"
  },
  "schemaVersion": "3.0.19",
  "updatedAt": "2020-01-29T22:55:36.780Z",
  "devdoc": {
    "methods": {}
  },
  "userdoc": {
    "methods": {}
  }
}