{
  "contractName": "oCurveFlashLiquidate",
  "abi": [
    {
      "inputs": [],
      "payable": false,
      "stateMutability": "nonpayable",
      "type": "constructor"
    },
    {
      "anonymous": false,
      "inputs": [
        {
          "indexed": true,
          "internalType": "address",
          "name": "previousOwner",
          "type": "address"
        },
        {
          "indexed": true,
          "internalType": "address",
          "name": "newOwner",
          "type": "address"
        }
      ],
      "name": "OwnershipTransferred",
      "type": "event"
    },
    {
      "payable": true,
      "stateMutability": "payable",
      "type": "fallback"
    },
    {
      "constant": true,
      "inputs": [],
      "name": "_amount",
      "outputs": [
        {
          "internalType": "uint256",
          "name": "",
          "type": "uint256"
        }
      ],
      "payable": false,
      "stateMutability": "view",
      "type": "function"
    },
    {
      "constant": true,
      "inputs": [],
      "name": "_oToken",
      "outputs": [
        {
          "internalType": "address payable",
          "name": "",
          "type": "address"
        }
      ],
      "payable": false,
      "stateMutability": "view",
      "type": "function"
    },
    {
      "constant": true,
      "inputs": [],
      "name": "_vault",
      "outputs": [
        {
          "internalType": "address payable",
          "name": "",
          "type": "address"
        }
      ],
      "payable": false,
      "stateMutability": "view",
      "type": "function"
    },
    {
      "constant": true,
      "inputs": [],
      "name": "dydx",
      "outputs": [
        {
          "internalType": "address",
          "name": "",
          "type": "address"
        }
      ],
      "payable": false,
      "stateMutability": "view",
      "type": "function"
    },
    {
      "constant": true,
      "inputs": [],
      "name": "isOwner",
      "outputs": [
        {
          "internalType": "bool",
          "name": "",
          "type": "bool"
        }
      ],
      "payable": false,
      "stateMutability": "view",
      "type": "function"
    },
    {
      "constant": true,
      "inputs": [],
      "name": "owner",
      "outputs": [
        {
          "internalType": "address",
          "name": "",
          "type": "address"
        }
      ],
      "payable": false,
      "stateMutability": "view",
      "type": "function"
    },
    {
      "constant": false,
      "inputs": [],
      "name": "renounceOwnership",
      "outputs": [],
      "payable": false,
      "stateMutability": "nonpayable",
      "type": "function"
    },
    {
      "constant": false,
      "inputs": [
        {
          "internalType": "address",
          "name": "newOwner",
          "type": "address"
        }
      ],
      "name": "transferOwnership",
      "outputs": [],
      "payable": false,
      "stateMutability": "nonpayable",
      "type": "function"
    },
    {
      "constant": true,
      "inputs": [],
      "name": "weth",
      "outputs": [
        {
          "internalType": "address",
          "name": "",
          "type": "address"
        }
      ],
      "payable": false,
      "stateMutability": "view",
      "type": "function"
    },
    {
      "constant": false,
      "inputs": [
        {
          "internalType": "uint256",
          "name": "amount",
          "type": "uint256"
        },
        {
          "internalType": "address payable",
          "name": "vault",
          "type": "address"
        },
        {
          "internalType": "address payable",
          "name": "oToken",
          "type": "address"
        }
      ],
      "name": "liquidate",
      "outputs": [],
      "payable": false,
      "stateMutability": "nonpayable",
      "type": "function"
    },
    {
      "constant": false,
      "inputs": [
        {
          "internalType": "address",
          "name": "sender",
          "type": "address"
        },
        {
          "components": [
            {
              "internalType": "address",
              "name": "owner",
              "type": "address"
            },
            {
              "internalType": "uint256",
              "name": "number",
              "type": "uint256"
            }
          ],
          "internalType": "struct Structs.Info",
          "name": "accountInfo",
          "type": "tuple"
        },
        {
          "internalType": "bytes",
          "name": "data",
          "type": "bytes"
        }
      ],
      "name": "callFunction",
      "outputs": [],
      "payable": false,
      "stateMutability": "nonpayable",
      "type": "function"
    },
    {
      "constant": false,
      "inputs": [
        {
          "internalType": "contract IERC20",
          "name": "_TokenAddress",
          "type": "address"
        }
      ],
      "name": "inCaseTokenGetsStuck",
      "outputs": [],
      "payable": false,
      "stateMutability": "nonpayable",
      "type": "function"
    },
    {
      "constant": false,
      "inputs": [],
      "name": "inCaseETHGetsStuck",
      "outputs": [],
      "payable": false,
      "stateMutability": "nonpayable",
      "type": "function"
    }
  ],
  "bytecode": "0x608060405234801561001057600080fd5b50600160008190555061002761019360201b60201c565b600160006101000a81548173ffffffffffffffffffffffffffffffffffffffff021916908373ffffffffffffffffffffffffffffffffffffffff160217905550600160009054906101000a900473ffffffffffffffffffffffffffffffffffffffff1673ffffffffffffffffffffffffffffffffffffffff16600073ffffffffffffffffffffffffffffffffffffffff167f8be0079c531659141344cd1fd0a4f28419497f9722a3daafe3b4186f6b6457e060405160405180910390a3731e0447b19bb6ecfdae1e4ae1694b0c3659614e4e600260006101000a81548173ffffffffffffffffffffffffffffffffffffffff021916908373ffffffffffffffffffffffffffffffffffffffff16021790555073c02aaa39b223fe8d0a0e5c4f27ead9083c756cc2600360006101000a81548173ffffffffffffffffffffffffffffffffffffffff021916908373ffffffffffffffffffffffffffffffffffffffff16021790555061019b565b600033905090565b6126c0806101aa6000396000f3fe6080604052600436106100c25760003560e01c80638da5cb5b1161007f5780639887f180116100595780639887f1801461022d578063f2fde38b14610258578063f60a15ed14610281578063fd243da314610298576100c2565b80638da5cb5b146101ac5780638e4ec6ef146101d75780638f32d59b14610202576100c2565b8063060336ec146100c45780632e8d6e18146100ed5780633a78aed0146101165780633fc8cef314610141578063715018a61461016c5780638b41871314610183575b005b3480156100d057600080fd5b506100eb60048036036100e691908101906119ea565b6102c3565b005b3480156100f957600080fd5b50610114600480360361010f9190810190611998565b610703565b005b34801561012257600080fd5b5061012b610806565b60405161013891906120f4565b60405180910390f35b34801561014d57600080fd5b5061015661082c565b60405161016391906120be565b60405180910390f35b34801561017857600080fd5b50610181610852565b005b34801561018f57600080fd5b506101aa60048036036101a59190810190611908565b61095a565b005b3480156101b857600080fd5b506101c1610efe565b6040516101ce91906120be565b60405180910390f35b3480156101e357600080fd5b506101ec610f28565b6040516101f991906120be565b60405180910390f35b34801561020e57600080fd5b50610217610f4e565b6040516102249190612198565b60405180910390f35b34801561023957600080fd5b50610242610fad565b60405161024f9190612310565b60405180910390f35b34801561026457600080fd5b5061027f600480360361027a91908101906118df565b610fb3565b005b34801561028d57600080fd5b50610296611006565b005b3480156102a457600080fd5b506102ad611113565b6040516102ba91906120f4565b60405180910390f35b81600560006101000a81548173ffffffffffffffffffffffffffffffffffffffff021916908373ffffffffffffffffffffffffffffffffffffffff1602179055508260068190555080600460006101000a81548173ffffffffffffffffffffffffffffffffffffffff021916908373ffffffffffffffffffffffffffffffffffffffff1602179055506060600160405190808252806020026020018201604052801561038957816020015b61037661163d565b81526020019060019003908161036e5790505b509050606060036040519080825280602002602001820160405280156103c957816020015b6103b661166d565b8152602001906001900390816103ae5790505b50905060405180604001604052803073ffffffffffffffffffffffffffffffffffffffff16815260200160008152508260008151811061040557fe5b60200260200101819052506104186116d9565b604051806080016040528060001515815260200160008081111561043857fe5b815260200160008081111561044957fe5b815260200187815250905061045c611717565b60018160000190600881111561046e57fe5b9081600881111561047b57fe5b8152505060008160200181815250508181604001819052506000816060018181525050308160a0019073ffffffffffffffffffffffffffffffffffffffff16908173ffffffffffffffffffffffffffffffffffffffff168152505080836000815181106104e457fe5b60200260200101819052506104f7611717565b60088160000190600881111561050957fe5b9081600881111561051657fe5b815250506000816020018181525050308160a0019073ffffffffffffffffffffffffffffffffffffffff16908173ffffffffffffffffffffffffffffffffffffffff1681525050808460018151811061056b57fe5b602002602001018190525061057e611717565b6105866116d9565b60405180608001604052806001151581526020016000808111156105a657fe5b81526020016000808111156105b757fe5b81526020016105d060018d61113990919063ffffffff16565b81525090506000826000019060088111156105e757fe5b908160088111156105f457fe5b8152505060008260200181815250508082604001819052506000826060018181525050308260a0019073ffffffffffffffffffffffffffffffffffffffff16908173ffffffffffffffffffffffffffffffffffffffff1681525050818660028151811061065d57fe5b6020026020010181905250600260009054906101000a900473ffffffffffffffffffffffffffffffffffffffff1673ffffffffffffffffffffffffffffffffffffffff1663a67a6a4588886040518363ffffffff1660e01b81526004016106c5929190612161565b600060405180830381600087803b1580156106df57600080fd5b505af11580156106f3573d6000803e3d6000fd5b5050505050505050505050505050565b61070b610f4e565b61074a576040517f08c379a000000000000000000000000000000000000000000000000000000000815260040161074190612290565b60405180910390fd5b60008173ffffffffffffffffffffffffffffffffffffffff166370a08231306040518263ffffffff1660e01b815260040161078591906120d9565b60206040518083038186803b15801561079d57600080fd5b505afa1580156107b1573d6000803e3d6000fd5b505050506040513d601f19601f820116820180604052506107d591908101906119c1565b905061080233828473ffffffffffffffffffffffffffffffffffffffff1661118e9092919063ffffffff16565b5050565b600460009054906101000a900473ffffffffffffffffffffffffffffffffffffffff1681565b600360009054906101000a900473ffffffffffffffffffffffffffffffffffffffff1681565b61085a610f4e565b610899576040517f08c379a000000000000000000000000000000000000000000000000000000000815260040161089090612290565b60405180910390fd5b600073ffffffffffffffffffffffffffffffffffffffff16600160009054906101000a900473ffffffffffffffffffffffffffffffffffffffff1673ffffffffffffffffffffffffffffffffffffffff167f8be0079c531659141344cd1fd0a4f28419497f9722a3daafe3b4186f6b6457e060405160405180910390a36000600160006101000a81548173ffffffffffffffffffffffffffffffffffffffff021916908373ffffffffffffffffffffffffffffffffffffffff160217905550565b6000600460009054906101000a900473ffffffffffffffffffffffffffffffffffffffff1690508073ffffffffffffffffffffffffffffffffffffffff1663cdb4b5c2600560009054906101000a900473ffffffffffffffffffffffffffffffffffffffff166040518263ffffffff1660e01b81526004016109dc91906120f4565b60206040518083038186803b1580156109f457600080fd5b505afa158015610a08573d6000803e3d6000fd5b505050506040513d601f19601f82011682018060405250610a2c919081019061196f565b610a6b576040517f08c379a0000000000000000000000000000000000000000000000000000000008152600401610a62906122b0565b60405180910390fd5b600360009054906101000a900473ffffffffffffffffffffffffffffffffffffffff1673ffffffffffffffffffffffffffffffffffffffff16632e1a7d4d6006546040518263ffffffff1660e01b8152600401610ac89190612310565b600060405180830381600087803b158015610ae257600080fd5b505af1158015610af6573d6000803e3d6000fd5b5050505060008173ffffffffffffffffffffffffffffffffffffffff1663686c1e21670de0b6b3a76400006040518263ffffffff1660e01b8152600401610b3d91906121b3565b60206040518083038186803b158015610b5557600080fd5b505afa158015610b69573d6000803e3d6000fd5b505050506040513d601f19601f82011682018060405250610b8d91908101906119c1565b905060008273ffffffffffffffffffffffffffffffffffffffff1663dec44c0b600560009054906101000a900473ffffffffffffffffffffffffffffffffffffffff166040518263ffffffff1660e01b8152600401610bec91906120f4565b60206040518083038186803b158015610c0457600080fd5b505afa158015610c18573d6000803e3d6000fd5b505050506040513d601f19601f82011682018060405250610c3c91908101906119c1565b90506000610c6d83610c5f670de0b6b3a76400008561122d90919063ffffffff16565b61129d90919063ffffffff16565b90508373ffffffffffffffffffffffffffffffffffffffff16630d453efb306040518263ffffffff1660e01b8152600401610ca891906120d9565b602060405180830381600087803b158015610cc257600080fd5b505af1158015610cd6573d6000803e3d6000fd5b505050506040513d601f19601f82011682018060405250610cfa919081019061196f565b15610d72578373ffffffffffffffffffffffffffffffffffffffff1663b96661ba8284306040518463ffffffff1660e01b8152600401610d3b92919061232b565b6000604051808303818588803b158015610d5457600080fd5b505af1158015610d68573d6000803e3d6000fd5b5050505050610de1565b8373ffffffffffffffffffffffffffffffffffffffff1663ed1f41c38284306040518463ffffffff1660e01b8152600401610dae92919061232b565b6000604051808303818588803b158015610dc757600080fd5b505af1158015610ddb573d6000803e3d6000fd5b50505050505b8373ffffffffffffffffffffffffffffffffffffffff1663bcbaf487600560009054906101000a900473ffffffffffffffffffffffffffffffffffffffff16846040518363ffffffff1660e01b8152600401610e3e92919061210f565b600060405180830381600087803b158015610e5857600080fd5b505af1158015610e6c573d6000803e3d6000fd5b50505050600360009054906101000a900473ffffffffffffffffffffffffffffffffffffffff1673ffffffffffffffffffffffffffffffffffffffff1663d0e30db06006546040518263ffffffff1660e01b81526004016000604051808303818588803b158015610edc57600080fd5b505af1158015610ef0573d6000803e3d6000fd5b505050505050505050505050565b6000600160009054906101000a900473ffffffffffffffffffffffffffffffffffffffff16905090565b600260009054906101000a900473ffffffffffffffffffffffffffffffffffffffff1681565b6000600160009054906101000a900473ffffffffffffffffffffffffffffffffffffffff1673ffffffffffffffffffffffffffffffffffffffff16610f916112e7565b73ffffffffffffffffffffffffffffffffffffffff1614905090565b60065481565b610fbb610f4e565b610ffa576040517f08c379a0000000000000000000000000000000000000000000000000000000008152600401610ff190612290565b60405180910390fd5b611003816112ef565b50565b61100e610f4e565b61104d576040517f08c379a000000000000000000000000000000000000000000000000000000000815260040161104490612290565b60405180910390fd5b60003373ffffffffffffffffffffffffffffffffffffffff163073ffffffffffffffffffffffffffffffffffffffff163160405161108a906120a9565b60006040518083038185875af1925050503d80600081146110c7576040519150601f19603f3d011682016040523d82523d6000602084013e6110cc565b606091505b5050905080611110576040517f08c379a000000000000000000000000000000000000000000000000000000000815260040161110790612250565b60405180910390fd5b50565b600560009054906101000a900473ffffffffffffffffffffffffffffffffffffffff1681565b600080828401905083811015611184576040517f08c379a000000000000000000000000000000000000000000000000000000000815260040161117b90612210565b60405180910390fd5b8091505092915050565b611228838473ffffffffffffffffffffffffffffffffffffffff1663a9059cbb905060e01b84846040516024016111c6929190612138565b604051602081830303815290604052907bffffffffffffffffffffffffffffffffffffffffffffffffffffffff19166020820180517bffffffffffffffffffffffffffffffffffffffffffffffffffffffff838183161783525050505061141f565b505050565b6000808314156112405760009050611297565b600082840290508284828161125157fe5b0414611292576040517f08c379a000000000000000000000000000000000000000000000000000000000815260040161128990612270565b60405180910390fd5b809150505b92915050565b60006112df83836040518060400160405280601a81526020017f536166654d6174683a206469766973696f6e206279207a65726f000000000000815250611591565b905092915050565b600033905090565b600073ffffffffffffffffffffffffffffffffffffffff168173ffffffffffffffffffffffffffffffffffffffff16141561135f576040517f08c379a0000000000000000000000000000000000000000000000000000000008152600401611356906121f0565b60405180910390fd5b8073ffffffffffffffffffffffffffffffffffffffff16600160009054906101000a900473ffffffffffffffffffffffffffffffffffffffff1673ffffffffffffffffffffffffffffffffffffffff167f8be0079c531659141344cd1fd0a4f28419497f9722a3daafe3b4186f6b6457e060405160405180910390a380600160006101000a81548173ffffffffffffffffffffffffffffffffffffffff021916908373ffffffffffffffffffffffffffffffffffffffff16021790555050565b61143e8273ffffffffffffffffffffffffffffffffffffffff166115f2565b61147d576040517f08c379a0000000000000000000000000000000000000000000000000000000008152600401611474906122f0565b60405180910390fd5b600060608373ffffffffffffffffffffffffffffffffffffffff16836040516114a69190612092565b6000604051808303816000865af19150503d80600081146114e3576040519150601f19603f3d011682016040523d82523d6000602084013e6114e8565b606091505b50915091508161152d576040517f08c379a000000000000000000000000000000000000000000000000000000000815260040161152490612230565b60405180910390fd5b60008151111561158b578080602001905161154b919081019061196f565b61158a576040517f08c379a0000000000000000000000000000000000000000000000000000000008152600401611581906122d0565b60405180910390fd5b5b50505050565b600080831182906115d8576040517f08c379a00000000000000000000000000000000000000000000000000000000081526004016115cf91906121ce565b60405180910390fd5b5060008385816115e457fe5b049050809150509392505050565b60008060007fc5d2460186f7233c927e7db2dcc703c0e500b653ca82273b7bfad8045d85a47060001b9050833f91506000801b82141580156116345750808214155b92505050919050565b6040518060400160405280600073ffffffffffffffffffffffffffffffffffffffff168152602001600081525090565b6040518061010001604052806000600881111561168657fe5b81526020016000815260200161169a611783565b81526020016000815260200160008152602001600073ffffffffffffffffffffffffffffffffffffffff16815260200160008152602001606081525090565b60405180608001604052806000151581526020016000808111156116f957fe5b815260200160008081111561170a57fe5b8152602001600081525090565b6040518061010001604052806000600881111561173057fe5b815260200160008152602001611744611783565b81526020016000815260200160008152602001600073ffffffffffffffffffffffffffffffffffffffff16815260200160008152602001606081525090565b60405180608001604052806000151581526020016000808111156117a357fe5b81526020016000808111156117b457fe5b8152602001600081525090565b6000813590506117d08161260a565b92915050565b6000813590506117e581612621565b92915050565b6000815190506117fa81612638565b92915050565b600082601f83011261181157600080fd5b813561182461181f82612381565b612354565b9150808252602083016020830185838301111561184057600080fd5b61184b838284612590565b50505092915050565b6000813590506118638161264f565b92915050565b60006040828403121561187b57600080fd5b6118856040612354565b90506000611895848285016117c1565b60008301525060206118a9848285016118b5565b60208301525092915050565b6000813590506118c481612666565b92915050565b6000815190506118d981612666565b92915050565b6000602082840312156118f157600080fd5b60006118ff848285016117c1565b91505092915050565b60008060006080848603121561191d57600080fd5b600061192b868287016117c1565b935050602061193c86828701611869565b925050606084013567ffffffffffffffff81111561195957600080fd5b61196586828701611800565b9150509250925092565b60006020828403121561198157600080fd5b600061198f848285016117eb565b91505092915050565b6000602082840312156119aa57600080fd5b60006119b884828501611854565b91505092915050565b6000602082840312156119d357600080fd5b60006119e1848285016118ca565b91505092915050565b6000806000606084860312156119ff57600080fd5b6000611a0d868287016118b5565b9350506020611a1e868287016117d6565b9250506040611a2f868287016117d6565b9150509250925092565b6000611a458383611f3d565b905092915050565b6000611a598383612045565b60408301905092915050565b611a6e81612512565b82525050565b611a7d8161247f565b82525050565b611a8c8161246d565b82525050565b611a9b8161246d565b82525050565b6000611aac826123cd565b611ab6818561241e565b935083602082028501611ac8856123ad565b8060005b85811015611b045784840389528151611ae58582611a39565b9450611af083612404565b925060208a01995050600181019050611acc565b50829750879550505050505092915050565b6000611b21826123d8565b611b2b818561242f565b9350611b36836123bd565b8060005b83811015611b67578151611b4e8882611a4d565b9750611b5983612411565b925050600181019050611b3a565b5085935050505092915050565b611b7d81612491565b82525050565b611b8c81612491565b82525050565b6000611b9d826123ee565b611ba78185612451565b9350611bb781856020860161259f565b80840191505092915050565b6000611bce826123e3565b611bd88185612440565b9350611be881856020860161259f565b611bf1816125d2565b840191505092915050565b611c0581612524565b82525050565b611c1481612536565b82525050565b611c2381612548565b82525050565b611c328161255a565b82525050565b6000611c43826123f9565b611c4d818561245c565b9350611c5d81856020860161259f565b611c66816125d2565b840191505092915050565b6000611c7e60268361245c565b91507f4f776e61626c653a206e6577206f776e657220697320746865207a65726f206160008301527f64647265737300000000000000000000000000000000000000000000000000006020830152604082019050919050565b6000611ce4601b8361245c565b91507f536166654d6174683a206164646974696f6e206f766572666c6f7700000000006000830152602082019050919050565b6000611d2460208361245c565b91507f5361666545524332303a206c6f772d6c6576656c2063616c6c206661696c65646000830152602082019050919050565b6000611d6460168361245c565b91507f7472616e73666572206f6620455448206661696c6564000000000000000000006000830152602082019050919050565b6000611da460218361245c565b91507f536166654d6174683a206d756c7469706c69636174696f6e206f766572666c6f60008301527f77000000000000000000000000000000000000000000000000000000000000006020830152604082019050919050565b6000611e0a60208361245c565b91507f4f776e61626c653a2063616c6c6572206973206e6f7420746865206f776e65726000830152602082019050919050565b6000611e4a601d8361245c565b91507f63616e6e6f74206c697175696461746520612073616665207661756c740000006000830152602082019050919050565b6000611e8a600083612451565b9150600082019050919050565b6000611ea4602a8361245c565b91507f5361666545524332303a204552433230206f7065726174696f6e20646964206e60008301527f6f742073756363656564000000000000000000000000000000000000000000006020830152604082019050919050565b6000611f0a601f8361245c565b91507f5361666545524332303a2063616c6c20746f206e6f6e2d636f6e7472616374006000830152602082019050919050565b600061016083016000830151611f566000860182611bfc565b506020830151611f696020860182612074565b506040830151611f7c6040860182611ff0565b506060830151611f8f60c0860182612074565b506080830151611fa260e0860182612074565b5060a0830151611fb6610100860182611a83565b5060c0830151611fca610120860182612074565b5060e0830151848203610140860152611fe38282611bc3565b9150508091505092915050565b6080820160008201516120066000850182611b74565b5060208201516120196020850182611c0b565b50604082015161202c6040850182611c1a565b50606082015161203f6060850182612074565b50505050565b60408201600082015161205b6000850182611a83565b50602082015161206e6020850182612074565b50505050565b61207d81612508565b82525050565b61208c81612508565b82525050565b600061209e8284611b92565b915081905092915050565b60006120b482611e7d565b9150819050919050565b60006020820190506120d36000830184611a92565b92915050565b60006020820190506120ee6000830184611a65565b92915050565b60006020820190506121096000830184611a74565b92915050565b60006040820190506121246000830185611a74565b6121316020830184612083565b9392505050565b600060408201905061214d6000830185611a92565b61215a6020830184612083565b9392505050565b6000604082019050818103600083015261217b8185611b16565b9050818103602083015261218f8184611aa1565b90509392505050565b60006020820190506121ad6000830184611b83565b92915050565b60006020820190506121c86000830184611c29565b92915050565b600060208201905081810360008301526121e88184611c38565b905092915050565b6000602082019050818103600083015261220981611c71565b9050919050565b6000602082019050818103600083015261222981611cd7565b9050919050565b6000602082019050818103600083015261224981611d17565b9050919050565b6000602082019050818103600083015261226981611d57565b9050919050565b6000602082019050818103600083015261228981611d97565b9050919050565b600060208201905081810360008301526122a981611dfd565b9050919050565b600060208201905081810360008301526122c981611e3d565b9050919050565b600060208201905081810360008301526122e981611e97565b9050919050565b6000602082019050818103600083015261230981611efd565b9050919050565b60006020820190506123256000830184612083565b92915050565b60006040820190506123406000830185612083565b61234d6020830184611a65565b9392505050565b6000604051905081810181811067ffffffffffffffff8211171561237757600080fd5b8060405250919050565b600067ffffffffffffffff82111561239857600080fd5b601f19601f8301169050602081019050919050565b6000819050602082019050919050565b6000819050602082019050919050565b600081519050919050565b600081519050919050565b600081519050919050565b600081519050919050565b600081519050919050565b6000602082019050919050565b6000602082019050919050565b600082825260208201905092915050565b600082825260208201905092915050565b600082825260208201905092915050565b600081905092915050565b600082825260208201905092915050565b6000612478826124e8565b9050919050565b600061248a826124e8565b9050919050565b60008115159050919050565b60006124a88261246d565b9050919050565b60008190506124bd826125e3565b919050565b60008190506124d0826125f0565b919050565b60008190506124e3826125fd565b919050565b600073ffffffffffffffffffffffffffffffffffffffff82169050919050565b6000819050919050565b600061251d8261256c565b9050919050565b600061252f826124af565b9050919050565b6000612541826124c2565b9050919050565b6000612553826124d5565b9050919050565b600061256582612508565b9050919050565b60006125778261257e565b9050919050565b6000612589826124e8565b9050919050565b82818337600083830152505050565b60005b838110156125bd5780820151818401526020810190506125a2565b838111156125cc576000848401525b50505050565b6000601f19601f8301169050919050565b600981106125ed57fe5b50565b600181106125fa57fe5b50565b6001811061260757fe5b50565b6126138161246d565b811461261e57600080fd5b50565b61262a8161247f565b811461263557600080fd5b50565b61264181612491565b811461264c57600080fd5b50565b6126588161249d565b811461266357600080fd5b50565b61266f81612508565b811461267a57600080fd5b5056fea365627a7a72315820c8cf2136e445aaa2a1569bf3aab58376de0344931a8d596b2d29e4efb84fdf426c6578706572696d656e74616cf564736f6c634300050c0040",
  "source": "pragma solidity ^0.5.0;\npragma experimental ABIEncoderV2;\n\ninterface IERC20 {\n    function totalSupply() external view returns (uint256);\n    function balanceOf(address account) external view returns (uint256);\n    function transfer(address recipient, uint256 amount) external returns (bool);\n    function allowance(address owner, address spender) external view returns (uint256);\n    function approve(address spender, uint256 amount) external returns (bool);\n    function transferFrom(address sender, address recipient, uint256 amount) external returns (bool);\n    event Transfer(address indexed from, address indexed to, uint256 value);\n    event Approval(address indexed owner, address indexed spender, uint256 value);\n}\n\ncontract Context {\n    constructor () internal { }\n    // solhint-disable-previous-line no-empty-blocks\n\n    function _msgSender() internal view returns (address payable) {\n        return msg.sender;\n    }\n\n    function _msgData() internal view returns (bytes memory) {\n        this; // silence state mutability warning without generating bytecode - see https://github.com/ethereum/solidity/issues/2691\n        return msg.data;\n    }\n}\n\ncontract ReentrancyGuard {\n    uint256 private _guardCounter;\n\n    constructor () internal {\n        _guardCounter = 1;\n    }\n\n    modifier nonReentrant() {\n        _guardCounter += 1;\n        uint256 localCounter = _guardCounter;\n        _;\n        require(localCounter == _guardCounter, \"ReentrancyGuard: reentrant call\");\n    }\n}\n\ncontract Ownable is Context {\n    address private _owner;\n\n    event OwnershipTransferred(address indexed previousOwner, address indexed newOwner);\n    constructor () internal {\n        _owner = _msgSender();\n        emit OwnershipTransferred(address(0), _owner);\n    }\n    function owner() public view returns (address) {\n        return _owner;\n    }\n    modifier onlyOwner() {\n        require(isOwner(), \"Ownable: caller is not the owner\");\n        _;\n    }\n    function isOwner() public view returns (bool) {\n        return _msgSender() == _owner;\n    }\n    function renounceOwnership() public onlyOwner {\n        emit OwnershipTransferred(_owner, address(0));\n        _owner = address(0);\n    }\n    function transferOwnership(address newOwner) public onlyOwner {\n        _transferOwnership(newOwner);\n    }\n    function _transferOwnership(address newOwner) internal {\n        require(newOwner != address(0), \"Ownable: new owner is the zero address\");\n        emit OwnershipTransferred(_owner, newOwner);\n        _owner = newOwner;\n    }\n}\n\nlibrary SafeMath {\n    function add(uint256 a, uint256 b) internal pure returns (uint256) {\n        uint256 c = a + b;\n        require(c >= a, \"SafeMath: addition overflow\");\n\n        return c;\n    }\n    function sub(uint256 a, uint256 b) internal pure returns (uint256) {\n        return sub(a, b, \"SafeMath: subtraction overflow\");\n    }\n    function sub(uint256 a, uint256 b, string memory errorMessage) internal pure returns (uint256) {\n        require(b <= a, errorMessage);\n        uint256 c = a - b;\n\n        return c;\n    }\n    function mul(uint256 a, uint256 b) internal pure returns (uint256) {\n        if (a == 0) {\n            return 0;\n        }\n\n        uint256 c = a * b;\n        require(c / a == b, \"SafeMath: multiplication overflow\");\n\n        return c;\n    }\n    function div(uint256 a, uint256 b) internal pure returns (uint256) {\n        return div(a, b, \"SafeMath: division by zero\");\n    }\n    function div(uint256 a, uint256 b, string memory errorMessage) internal pure returns (uint256) {\n        // Solidity only automatically asserts when dividing by 0\n        require(b > 0, errorMessage);\n        uint256 c = a / b;\n\n        return c;\n    }\n    function mod(uint256 a, uint256 b) internal pure returns (uint256) {\n        return mod(a, b, \"SafeMath: modulo by zero\");\n    }\n    function mod(uint256 a, uint256 b, string memory errorMessage) internal pure returns (uint256) {\n        require(b != 0, errorMessage);\n        return a % b;\n    }\n}\n\nlibrary Address {\n    function isContract(address account) internal view returns (bool) {\n        bytes32 codehash;\n        bytes32 accountHash = 0xc5d2460186f7233c927e7db2dcc703c0e500b653ca82273b7bfad8045d85a470;\n        // solhint-disable-next-line no-inline-assembly\n        assembly { codehash := extcodehash(account) }\n        return (codehash != 0x0 && codehash != accountHash);\n    }\n    function toPayable(address account) internal pure returns (address payable) {\n        return address(uint160(account));\n    }\n    function sendValue(address payable recipient, uint256 amount) internal {\n        require(address(this).balance >= amount, \"Address: insufficient balance\");\n\n        // solhint-disable-next-line avoid-call-value\n        (bool success, ) = recipient.call.value(amount)(\"\");\n        require(success, \"Address: unable to send value, recipient may have reverted\");\n    }\n}\n\nlibrary SafeERC20 {\n    using SafeMath for uint256;\n    using Address for address;\n\n    function safeTransfer(IERC20 token, address to, uint256 value) internal {\n        callOptionalReturn(token, abi.encodeWithSelector(token.transfer.selector, to, value));\n    }\n    function safeTransferFrom(IERC20 token, address from, address to, uint256 value) internal {\n        callOptionalReturn(token, abi.encodeWithSelector(token.transferFrom.selector, from, to, value));\n    }\n    function safeApprove(IERC20 token, address spender, uint256 value) internal {\n        require((value == 0) || (token.allowance(address(this), spender) == 0),\n            \"SafeERC20: approve from non-zero to non-zero allowance\"\n        );\n        callOptionalReturn(token, abi.encodeWithSelector(token.approve.selector, spender, value));\n    }\n    function callOptionalReturn(IERC20 token, bytes memory data) private {\n        require(address(token).isContract(), \"SafeERC20: call to non-contract\");\n\n        // solhint-disable-next-line avoid-low-level-calls\n        (bool success, bytes memory returndata) = address(token).call(data);\n        require(success, \"SafeERC20: low-level call failed\");\n\n        if (returndata.length > 0) { // Return data is optional\n            // solhint-disable-next-line max-line-length\n            require(abi.decode(returndata, (bool)), \"SafeERC20: ERC20 operation did not succeed\");\n        }\n    }\n}\n\ninterface OptionsContract {\n    function liquidate(address payable vaultOwner, uint256 oTokensToLiquidate) external;\n    function maxOTokensLiquidatable(address payable vaultOwner) external view returns (uint256);\n    function isUnsafe(address payable vaultOwner) external view returns (bool);\n    function approve(address spender, uint256 amount) external returns (bool);\n    function hasVault(address owner) external returns (bool);\n    function balanceOf(address owner) external view returns (uint256);\n    function maxOTokensIssuable(uint256 _amount) external view returns (uint256);\n    function addETHCollateralOption(uint256 tokensToMint, address receiver) external payable;\n    function createETHCollateralOption(uint256 tokensToMint, address receiver) external payable;\n}\n\ninterface WETH {\n  function withdraw(uint256 amount) external;\n  function deposit() external payable;\n}\n\ncontract Structs {\n    struct Val {\n        uint256 value;\n    }\n\n    enum ActionType {\n      Deposit,   // supply tokens\n      Withdraw,  // borrow tokens\n      Transfer,  // transfer balance between accounts\n      Buy,       // buy an amount of some token (externally)\n      Sell,      // sell an amount of some token (externally)\n      Trade,     // trade tokens against another account\n      Liquidate, // liquidate an undercollateralized or expiring account\n      Vaporize,  // use excess tokens to zero-out a completely negative account\n      Call       // send arbitrary data to an address\n    }\n\n    enum AssetDenomination {\n        Wei // the amount is denominated in wei\n    }\n\n    enum AssetReference {\n        Delta // the amount is given as a delta from the current value\n    }\n\n    struct AssetAmount {\n        bool sign; // true if positive\n        AssetDenomination denomination;\n        AssetReference ref;\n        uint256 value;\n    }\n\n    struct ActionArgs {\n        ActionType actionType;\n        uint256 accountId;\n        AssetAmount amount;\n        uint256 primaryMarketId;\n        uint256 secondaryMarketId;\n        address otherAddress;\n        uint256 otherAccountId;\n        bytes data;\n    }\n\n    struct Info {\n        address owner;  // The address that owns the account\n        uint256 number; // A nonce that allows a single address to control many accounts\n    }\n\n    struct Wei {\n        bool sign; // true if positive\n        uint256 value;\n    }\n}\n\ncontract DyDx is Structs {\n    function getAccountWei(Info memory account, uint256 marketId) public view returns (Wei memory);\n    function operate(Info[] memory, ActionArgs[] memory) public;\n}\n\n\ncontract oCurveFlashLiquidate is ReentrancyGuard, Ownable, Structs {\n  using SafeERC20 for IERC20;\n  using Address for address;\n  using SafeMath for uint256;\n\n  address public dydx;\n  address public weth;\n  address payable public _oToken;\n  address payable public _vault;\n  uint256 public _amount;\n\n  constructor () public {\n    dydx = address(0x1E0447b19BB6EcFdAe1e4AE1694b0C3659614e4e);\n    weth = address(0xC02aaA39b223FE8D0A0e5C4F27eAD9083C756Cc2);\n  }\n\n  function liquidate(uint256 amount, address payable vault, address payable oToken) public {\n    _vault = vault;\n    _amount = amount;\n    _oToken = oToken;\n\n    Info[] memory infos = new Info[](1);\n    ActionArgs[] memory args = new ActionArgs[](3);\n\n    infos[0] = Info(address(this), 0);\n\n    AssetAmount memory wamt = AssetAmount(false, AssetDenomination.Wei, AssetReference.Delta, amount);\n    ActionArgs memory withdraw;\n    withdraw.actionType = ActionType.Withdraw;\n    withdraw.accountId = 0;\n    withdraw.amount = wamt;\n    withdraw.primaryMarketId = 0;\n    withdraw.otherAddress = address(this);\n\n    args[0] = withdraw;\n\n    ActionArgs memory call;\n    call.actionType = ActionType.Call;\n    call.accountId = 0;\n    call.otherAddress = address(this);\n\n    args[1] = call;\n\n    ActionArgs memory deposit;\n    AssetAmount memory damt = AssetAmount(true, AssetDenomination.Wei, AssetReference.Delta, amount.add(1));\n    deposit.actionType = ActionType.Deposit;\n    deposit.accountId = 0;\n    deposit.amount = damt;\n    deposit.primaryMarketId = 0;\n    deposit.otherAddress = address(this);\n\n    args[2] = deposit;\n\n    DyDx(dydx).operate(infos, args);\n  }\n\n  function callFunction(\n      address sender,\n      Info memory accountInfo,\n      bytes memory data\n  ) public {\n    OptionsContract oToken = OptionsContract(_oToken);\n    require(oToken.isUnsafe(_vault), 'cannot liquidate a safe vault');\n\n    WETH(weth).withdraw(_amount);\n\n    uint256 tokensPerETH = oToken.maxOTokensIssuable(1e18);\n    uint256 maxToLiquidate = oToken.maxOTokensLiquidatable(_vault); //100 * 1e15\n    uint256 ethRequired = maxToLiquidate.mul(1e18).div(tokensPerETH);\n    if (oToken.hasVault(address(this))) {\n      oToken.addETHCollateralOption.value(ethRequired)(maxToLiquidate, address(this));\n    } else {\n      oToken.createETHCollateralOption.value(ethRequired)(maxToLiquidate, address(this));\n    }\n    oToken.liquidate(_vault, maxToLiquidate);\n\n    WETH(weth).deposit.value(_amount)();\n  }\n\n  function() external payable {\n\n  }\n\n  // incase of half-way error\n  function inCaseTokenGetsStuck(IERC20 _TokenAddress) onlyOwner public {\n      uint qty = _TokenAddress.balanceOf(address(this));\n      _TokenAddress.safeTransfer(msg.sender, qty);\n  }\n\n  // incase of half-way error\n  function inCaseETHGetsStuck() onlyOwner public{\n      (bool result, ) = msg.sender.call.value(address(this).balance)(\"\");\n      require(result, \"transfer of ETH failed\");\n  }\n}\n",
  "sourcePath": "D:/ftm/itoken/contracts/oCurveFlashLiquidate.sol",
  "compiler": {
    "name": "solc",
    "version": "0.5.12+commit.7709ece9.Emscripten.clang"
  },
  "schemaVersion": "3.0.19",
  "updatedAt": "2020-02-27T07:42:44.738Z",
  "devdoc": {
    "methods": {}
  },
  "userdoc": {
    "methods": {}
  }
}