{
  "contractName": "yCRV",
  "abi": [
    {
      "inputs": [],
      "payable": false,
      "stateMutability": "nonpayable",
      "type": "constructor"
    },
    {
      "anonymous": false,
      "inputs": [
        {
          "indexed": true,
          "internalType": "address",
          "name": "owner",
          "type": "address"
        },
        {
          "indexed": true,
          "internalType": "address",
          "name": "spender",
          "type": "address"
        },
        {
          "indexed": false,
          "internalType": "uint256",
          "name": "value",
          "type": "uint256"
        }
      ],
      "name": "Approval",
      "type": "event"
    },
    {
      "anonymous": false,
      "inputs": [
        {
          "indexed": true,
          "internalType": "address",
          "name": "previousOwner",
          "type": "address"
        },
        {
          "indexed": true,
          "internalType": "address",
          "name": "newOwner",
          "type": "address"
        }
      ],
      "name": "OwnershipTransferred",
      "type": "event"
    },
    {
      "anonymous": false,
      "inputs": [
        {
          "indexed": true,
          "internalType": "address",
          "name": "from",
          "type": "address"
        },
        {
          "indexed": true,
          "internalType": "address",
          "name": "to",
          "type": "address"
        },
        {
          "indexed": false,
          "internalType": "uint256",
          "name": "value",
          "type": "uint256"
        }
      ],
      "name": "Transfer",
      "type": "event"
    },
    {
      "payable": true,
      "stateMutability": "payable",
      "type": "fallback"
    },
    {
      "constant": true,
      "inputs": [
        {
          "internalType": "address",
          "name": "owner",
          "type": "address"
        },
        {
          "internalType": "address",
          "name": "spender",
          "type": "address"
        }
      ],
      "name": "allowance",
      "outputs": [
        {
          "internalType": "uint256",
          "name": "",
          "type": "uint256"
        }
      ],
      "payable": false,
      "stateMutability": "view",
      "type": "function"
    },
    {
      "constant": false,
      "inputs": [
        {
          "internalType": "address",
          "name": "spender",
          "type": "address"
        },
        {
          "internalType": "uint256",
          "name": "amount",
          "type": "uint256"
        }
      ],
      "name": "approve",
      "outputs": [
        {
          "internalType": "bool",
          "name": "",
          "type": "bool"
        }
      ],
      "payable": false,
      "stateMutability": "nonpayable",
      "type": "function"
    },
    {
      "constant": true,
      "inputs": [],
      "name": "apr",
      "outputs": [
        {
          "internalType": "address",
          "name": "",
          "type": "address"
        }
      ],
      "payable": false,
      "stateMutability": "view",
      "type": "function"
    },
    {
      "constant": true,
      "inputs": [
        {
          "internalType": "address",
          "name": "account",
          "type": "address"
        }
      ],
      "name": "balanceOf",
      "outputs": [
        {
          "internalType": "uint256",
          "name": "",
          "type": "uint256"
        }
      ],
      "payable": false,
      "stateMutability": "view",
      "type": "function"
    },
    {
      "constant": true,
      "inputs": [],
      "name": "cDAI",
      "outputs": [
        {
          "internalType": "address",
          "name": "",
          "type": "address"
        }
      ],
      "payable": false,
      "stateMutability": "view",
      "type": "function"
    },
    {
      "constant": true,
      "inputs": [],
      "name": "curve",
      "outputs": [
        {
          "internalType": "address",
          "name": "",
          "type": "address"
        }
      ],
      "payable": false,
      "stateMutability": "view",
      "type": "function"
    },
    {
      "constant": true,
      "inputs": [],
      "name": "curveToken",
      "outputs": [
        {
          "internalType": "address",
          "name": "",
          "type": "address"
        }
      ],
      "payable": false,
      "stateMutability": "view",
      "type": "function"
    },
    {
      "constant": true,
      "inputs": [],
      "name": "decimals",
      "outputs": [
        {
          "internalType": "uint8",
          "name": "",
          "type": "uint8"
        }
      ],
      "payable": false,
      "stateMutability": "view",
      "type": "function"
    },
    {
      "constant": false,
      "inputs": [
        {
          "internalType": "address",
          "name": "spender",
          "type": "address"
        },
        {
          "internalType": "uint256",
          "name": "subtractedValue",
          "type": "uint256"
        }
      ],
      "name": "decreaseAllowance",
      "outputs": [
        {
          "internalType": "bool",
          "name": "",
          "type": "bool"
        }
      ],
      "payable": false,
      "stateMutability": "nonpayable",
      "type": "function"
    },
    {
      "constant": false,
      "inputs": [
        {
          "internalType": "address",
          "name": "spender",
          "type": "address"
        },
        {
          "internalType": "uint256",
          "name": "addedValue",
          "type": "uint256"
        }
      ],
      "name": "increaseAllowance",
      "outputs": [
        {
          "internalType": "bool",
          "name": "",
          "type": "bool"
        }
      ],
      "payable": false,
      "stateMutability": "nonpayable",
      "type": "function"
    },
    {
      "constant": true,
      "inputs": [],
      "name": "isOwner",
      "outputs": [
        {
          "internalType": "bool",
          "name": "",
          "type": "bool"
        }
      ],
      "payable": false,
      "stateMutability": "view",
      "type": "function"
    },
    {
      "constant": true,
      "inputs": [],
      "name": "name",
      "outputs": [
        {
          "internalType": "string",
          "name": "",
          "type": "string"
        }
      ],
      "payable": false,
      "stateMutability": "view",
      "type": "function"
    },
    {
      "constant": true,
      "inputs": [],
      "name": "owner",
      "outputs": [
        {
          "internalType": "address",
          "name": "",
          "type": "address"
        }
      ],
      "payable": false,
      "stateMutability": "view",
      "type": "function"
    },
    {
      "constant": true,
      "inputs": [],
      "name": "pool",
      "outputs": [
        {
          "internalType": "uint256",
          "name": "",
          "type": "uint256"
        }
      ],
      "payable": false,
      "stateMutability": "view",
      "type": "function"
    },
    {
      "constant": false,
      "inputs": [],
      "name": "renounceOwnership",
      "outputs": [],
      "payable": false,
      "stateMutability": "nonpayable",
      "type": "function"
    },
    {
      "constant": true,
      "inputs": [],
      "name": "symbol",
      "outputs": [
        {
          "internalType": "string",
          "name": "",
          "type": "string"
        }
      ],
      "payable": false,
      "stateMutability": "view",
      "type": "function"
    },
    {
      "constant": true,
      "inputs": [],
      "name": "token",
      "outputs": [
        {
          "internalType": "address",
          "name": "",
          "type": "address"
        }
      ],
      "payable": false,
      "stateMutability": "view",
      "type": "function"
    },
    {
      "constant": true,
      "inputs": [],
      "name": "totalSupply",
      "outputs": [
        {
          "internalType": "uint256",
          "name": "",
          "type": "uint256"
        }
      ],
      "payable": false,
      "stateMutability": "view",
      "type": "function"
    },
    {
      "constant": false,
      "inputs": [
        {
          "internalType": "address",
          "name": "recipient",
          "type": "address"
        },
        {
          "internalType": "uint256",
          "name": "amount",
          "type": "uint256"
        }
      ],
      "name": "transfer",
      "outputs": [
        {
          "internalType": "bool",
          "name": "",
          "type": "bool"
        }
      ],
      "payable": false,
      "stateMutability": "nonpayable",
      "type": "function"
    },
    {
      "constant": false,
      "inputs": [
        {
          "internalType": "address",
          "name": "sender",
          "type": "address"
        },
        {
          "internalType": "address",
          "name": "recipient",
          "type": "address"
        },
        {
          "internalType": "uint256",
          "name": "amount",
          "type": "uint256"
        }
      ],
      "name": "transferFrom",
      "outputs": [
        {
          "internalType": "bool",
          "name": "",
          "type": "bool"
        }
      ],
      "payable": false,
      "stateMutability": "nonpayable",
      "type": "function"
    },
    {
      "constant": false,
      "inputs": [
        {
          "internalType": "address",
          "name": "newOwner",
          "type": "address"
        }
      ],
      "name": "transferOwnership",
      "outputs": [],
      "payable": false,
      "stateMutability": "nonpayable",
      "type": "function"
    },
    {
      "constant": false,
      "inputs": [
        {
          "internalType": "address",
          "name": "_new_TOKEN",
          "type": "address"
        }
      ],
      "name": "set_new_TOKEN",
      "outputs": [],
      "payable": false,
      "stateMutability": "nonpayable",
      "type": "function"
    },
    {
      "constant": false,
      "inputs": [
        {
          "internalType": "address",
          "name": "_new_APR",
          "type": "address"
        }
      ],
      "name": "set_new_APR",
      "outputs": [],
      "payable": false,
      "stateMutability": "nonpayable",
      "type": "function"
    },
    {
      "constant": false,
      "inputs": [
        {
          "internalType": "address",
          "name": "_new_cDAI",
          "type": "address"
        }
      ],
      "name": "set_new_cDAI",
      "outputs": [],
      "payable": false,
      "stateMutability": "nonpayable",
      "type": "function"
    },
    {
      "constant": false,
      "inputs": [
        {
          "internalType": "address",
          "name": "_new_set_new_curveToken",
          "type": "address"
        }
      ],
      "name": "set_new_curveToken",
      "outputs": [],
      "payable": false,
      "stateMutability": "nonpayable",
      "type": "function"
    },
    {
      "constant": false,
      "inputs": [],
      "name": "approveToken",
      "outputs": [],
      "payable": false,
      "stateMutability": "nonpayable",
      "type": "function"
    },
    {
      "constant": true,
      "inputs": [],
      "name": "balanceCompound",
      "outputs": [
        {
          "internalType": "uint256",
          "name": "",
          "type": "uint256"
        }
      ],
      "payable": false,
      "stateMutability": "view",
      "type": "function"
    },
    {
      "constant": false,
      "inputs": [
        {
          "internalType": "uint256",
          "name": "amount",
          "type": "uint256"
        }
      ],
      "name": "supplyCompound",
      "outputs": [],
      "payable": false,
      "stateMutability": "nonpayable",
      "type": "function"
    },
    {
      "constant": false,
      "inputs": [
        {
          "internalType": "uint256",
          "name": "_amount",
          "type": "uint256"
        }
      ],
      "name": "invest",
      "outputs": [],
      "payable": false,
      "stateMutability": "nonpayable",
      "type": "function"
    },
    {
      "constant": false,
      "inputs": [],
      "name": "investSelf",
      "outputs": [],
      "payable": false,
      "stateMutability": "nonpayable",
      "type": "function"
    },
    {
      "constant": true,
      "inputs": [],
      "name": "crvapr",
      "outputs": [
        {
          "internalType": "uint256",
          "name": "",
          "type": "uint256"
        }
      ],
      "payable": false,
      "stateMutability": "view",
      "type": "function"
    },
    {
      "constant": true,
      "inputs": [],
      "name": "calcPoolValueInToken",
      "outputs": [
        {
          "internalType": "uint256",
          "name": "",
          "type": "uint256"
        }
      ],
      "payable": false,
      "stateMutability": "view",
      "type": "function"
    },
    {
      "constant": true,
      "inputs": [],
      "name": "getPricePerFullShare",
      "outputs": [
        {
          "internalType": "uint256",
          "name": "",
          "type": "uint256"
        }
      ],
      "payable": false,
      "stateMutability": "view",
      "type": "function"
    },
    {
      "constant": false,
      "inputs": [
        {
          "internalType": "uint256",
          "name": "_shares",
          "type": "uint256"
        }
      ],
      "name": "redeem",
      "outputs": [],
      "payable": false,
      "stateMutability": "nonpayable",
      "type": "function"
    },
    {
      "constant": false,
      "inputs": [
        {
          "internalType": "contract IERC20",
          "name": "_TokenAddress",
          "type": "address"
        }
      ],
      "name": "inCaseTokenGetsStuck",
      "outputs": [],
      "payable": false,
      "stateMutability": "nonpayable",
      "type": "function"
    },
    {
      "constant": false,
      "inputs": [],
      "name": "inCaseETHGetsStuck",
      "outputs": [],
      "payable": false,
      "stateMutability": "nonpayable",
      "type": "function"
    }
  ],
  "bytecode": "0x60806040523480156200001157600080fd5b506040518060400160405280600481526020017f79435256000000000000000000000000000000000000000000000000000000008152506040518060400160405280600a81526020017f634441492f63555344430000000000000000000000000000000000000000000081525060128260039080519060200190620000989291906200055e565b508160049080519060200190620000b19291906200055e565b5080600560006101000a81548160ff021916908360ff1602179055505050506001600681905550620000e86200036460201b60201c565b600760006101000a81548173ffffffffffffffffffffffffffffffffffffffff021916908373ffffffffffffffffffffffffffffffffffffffff160217905550600760009054906101000a900473ffffffffffffffffffffffffffffffffffffffff1673ffffffffffffffffffffffffffffffffffffffff16600073ffffffffffffffffffffffffffffffffffffffff167f8be0079c531659141344cd1fd0a4f28419497f9722a3daafe3b4186f6b6457e060405160405180910390a3736b175474e89094c44da98b954eedeac495271d0f600960006101000a81548173ffffffffffffffffffffffffffffffffffffffff021916908373ffffffffffffffffffffffffffffffffffffffff16021790555073318135fbd0b40d48fcef431ccdf6c7926450edfb600b60006101000a81548173ffffffffffffffffffffffffffffffffffffffff021916908373ffffffffffffffffffffffffffffffffffffffff160217905550735d3a536e4d6dbd6114cc1ead35777bab948e3643600a60006101000a81548173ffffffffffffffffffffffffffffffffffffffff021916908373ffffffffffffffffffffffffffffffffffffffff160217905550732e60cf74d81ac34eb21eeff58db4d385920ef419600c60006101000a81548173ffffffffffffffffffffffffffffffffffffffff021916908373ffffffffffffffffffffffffffffffffffffffff160217905550733740fb63ab7a09891d7c0d4299442a551d06f5fd600d60006101000a81548173ffffffffffffffffffffffffffffffffffffffff021916908373ffffffffffffffffffffffffffffffffffffffff1602179055506200035e6200036c60201b60201c565b62000703565b600033905090565b600960009054906101000a900473ffffffffffffffffffffffffffffffffffffffff1673ffffffffffffffffffffffffffffffffffffffff1663095ea7b3600a60009054906101000a900473ffffffffffffffffffffffffffffffffffffffff167fffffffffffffffffffffffffffffffffffffffffffffffffffffffffffffffff6040518363ffffffff1660e01b81526004016200040d92919062000672565b602060405180830381600087803b1580156200042857600080fd5b505af11580156200043d573d6000803e3d6000fd5b505050506040513d601f19601f8201168201806040525062000463919081019062000624565b50600a60009054906101000a900473ffffffffffffffffffffffffffffffffffffffff1673ffffffffffffffffffffffffffffffffffffffff1663095ea7b3600c60009054906101000a900473ffffffffffffffffffffffffffffffffffffffff167fffffffffffffffffffffffffffffffffffffffffffffffffffffffffffffffff6040518363ffffffff1660e01b81526004016200050592919062000672565b602060405180830381600087803b1580156200052057600080fd5b505af115801562000535573d6000803e3d6000fd5b505050506040513d601f19601f820116820180604052506200055b919081019062000624565b50565b828054600181600116156101000203166002900490600052602060002090601f016020900481019282601f10620005a157805160ff1916838001178555620005d2565b82800160010185558215620005d2579182015b82811115620005d1578251825591602001919060010190620005b4565b5b509050620005e19190620005e5565b5090565b6200060a91905b8082111562000606576000816000905550600101620005ec565b5090565b90565b6000815190506200061e81620006e9565b92915050565b6000602082840312156200063757600080fd5b600062000647848285016200060d565b91505092915050565b6200065b816200069f565b82525050565b6200066c81620006df565b82525050565b600060408201905062000689600083018562000650565b62000698602083018462000661565b9392505050565b6000620006ac82620006bf565b9050919050565b60008115159050919050565b600073ffffffffffffffffffffffffffffffffffffffff82169050919050565b6000819050919050565b620006f481620006b3565b81146200070057600080fd5b50565b613dee80620007136000396000f3fe60806040526004361061020f5760003560e01c80637137ef991161011857806399b71d5c116100a0578063dd62ed3e1161006f578063dd62ed3e14610768578063e849d659146107a5578063f2fde38b146107ce578063f60a15ed146107f7578063fc0c546a1461080e5761020f565b806399b71d5c146106ae578063a457c2d7146106c5578063a9059cbb14610702578063db006a751461073f5761020f565b8063855fed81116100e7578063855fed81146105db57806389a642a9146106045780638da5cb5b1461062d5780638f32d59b1461065857806395d89b41146106835761020f565b80637137ef9914610543578063715018a61461056e5780637165485d1461058557806377c7b8fc146105b05761020f565b8063395093511161019b5780634f39059c1161016a5780634f39059c1461045a57806357ded9c91461048557806361c1ec55146104b05780636f6941b9146104db57806370a08231146105065761020f565b806339509351146103b45780633990ab4f146103f1578063458e32341461040857806346357473146104315761020f565b806318160ddd116101e257806318160ddd146102cf57806323b872dd146102fa5780632afcf480146103375780632e8d6e1814610360578063313ce567146103895761020f565b806306fdde0314610211578063095ea7b31461023c57806310d959691461027957806316f0115b146102a4575b005b34801561021d57600080fd5b50610226610839565b604051610233919061394f565b60405180910390f35b34801561024857600080fd5b50610263600480360361025e9190810190613157565b6108db565b6040516102709190613934565b60405180910390f35b34801561028557600080fd5b5061028e6108f9565b60405161029b9190613b71565b60405180910390f35b3480156102b057600080fd5b506102b96109f1565b6040516102c69190613b71565b60405180910390f35b3480156102db57600080fd5b506102e46109f7565b6040516102f19190613b71565b60405180910390f35b34801561030657600080fd5b50610321600480360361031c9190810190613108565b610a01565b60405161032e9190613934565b60405180910390f35b34801561034357600080fd5b5061035e600480360361035991908101906131e5565b610ada565b005b34801561036c57600080fd5b50610387600480360361038291908101906131bc565b610d69565b005b34801561039557600080fd5b5061039e610ecf565b6040516103ab9190613b8c565b60405180910390f35b3480156103c057600080fd5b506103db60048036036103d69190810190613157565b610ee6565b6040516103e89190613934565b60405180910390f35b3480156103fd57600080fd5b50610406610f99565b005b34801561041457600080fd5b5061042f600480360361042a91908101906130a3565b611208565b005b34801561043d57600080fd5b50610458600480360361045391908101906130a3565b611293565b005b34801561046657600080fd5b5061046f61131e565b60405161047c919061384c565b60405180910390f35b34801561049157600080fd5b5061049a611344565b6040516104a7919061384c565b60405180910390f35b3480156104bc57600080fd5b506104c561136a565b6040516104d29190613b71565b60405180910390f35b3480156104e757600080fd5b506104f061141c565b6040516104fd919061384c565b60405180910390f35b34801561051257600080fd5b5061052d600480360361052891908101906130a3565b611442565b60405161053a9190613b71565b60405180910390f35b34801561054f57600080fd5b5061055861148a565b6040516105659190613b71565b60405180910390f35b34801561057a57600080fd5b506105836116d4565b005b34801561059157600080fd5b5061059a6117dc565b6040516105a7919061384c565b60405180910390f35b3480156105bc57600080fd5b506105c5611802565b6040516105d29190613b71565b60405180910390f35b3480156105e757600080fd5b5061060260048036036105fd91908101906130a3565b611844565b005b34801561061057600080fd5b5061062b600480360361062691908101906130a3565b6118cf565b005b34801561063957600080fd5b5061064261195a565b60405161064f919061384c565b60405180910390f35b34801561066457600080fd5b5061066d611984565b60405161067a9190613934565b60405180910390f35b34801561068f57600080fd5b506106986119e3565b6040516106a5919061394f565b60405180910390f35b3480156106ba57600080fd5b506106c3611a85565b005b3480156106d157600080fd5b506106ec60048036036106e79190810190613157565b611c6b565b6040516106f99190613934565b60405180910390f35b34801561070e57600080fd5b5061072960048036036107249190810190613157565b611d38565b6040516107369190613934565b60405180910390f35b34801561074b57600080fd5b50610766600480360361076191908101906131e5565b611d56565b005b34801561077457600080fd5b5061078f600480360361078a91908101906130cc565b612151565b60405161079c9190613b71565b60405180910390f35b3480156107b157600080fd5b506107cc60048036036107c791908101906131e5565b6121d8565b005b3480156107da57600080fd5b506107f560048036036107f091908101906130a3565b6122ca565b005b34801561080357600080fd5b5061080c61231d565b005b34801561081a57600080fd5b5061082361242a565b604051610830919061384c565b60405180910390f35b606060038054600181600116156101000203166002900480601f0160208091040260200160405190810160405280929190818152602001828054600181600116156101000203166002900480156108d15780601f106108a6576101008083540402835291602001916108d1565b820191906000526020600020905b8154815290600101906020018083116108b457829003601f168201915b5050505050905090565b60006108ef6108e8612450565b8484612458565b6001905092915050565b600080628e4d3b4303905060006109c0670de0b6b3a7640000600c60009054906101000a900473ffffffffffffffffffffffffffffffffffffffff1673ffffffffffffffffffffffffffffffffffffffff1663bb7b8b806040518163ffffffff1660e01b815260040160206040518083038186803b15801561097a57600080fd5b505afa15801561098e573d6000803e3d6000fd5b505050506040513d601f19601f820116820180604052506109b2919081019061320e565b61262390919063ffffffff16565b90506109ea826109dc622014808461266d90919063ffffffff16565b6126dd90919063ffffffff16565b9250505090565b60085481565b6000600254905090565b6000610a0e848484612727565b610acf84610a1a612450565b610aca85604051806060016040528060288152602001613d5f60289139600160008b73ffffffffffffffffffffffffffffffffffffffff1673ffffffffffffffffffffffffffffffffffffffff1681526020019081526020016000206000610a80612450565b73ffffffffffffffffffffffffffffffffffffffff1673ffffffffffffffffffffffffffffffffffffffff168152602001908152602001600020546129b19092919063ffffffff16565b612458565b600190509392505050565b60016006600082825401925050819055506000600654905060008211610b35576040517f08c379a0000000000000000000000000000000000000000000000000000000008152600401610b2c90613b11565b60405180910390fd5b610b3d61148a565b600881905550600960009054906101000a900473ffffffffffffffffffffffffffffffffffffffff1673ffffffffffffffffffffffffffffffffffffffff166323b872dd3330856040518463ffffffff1660e01b8152600401610ba293929190613882565b602060405180830381600087803b158015610bbc57600080fd5b505af1158015610bd0573d6000803e3d6000fd5b505050506040513d601f19601f82011682018060405250610bf49190810190613193565b50610bfe826121d8565b600c60009054906101000a900473ffffffffffffffffffffffffffffffffffffffff1673ffffffffffffffffffffffffffffffffffffffff16630b4c7e4d6040518060400160405280610c4f61136a565b81526020016000815250610c6e61070842612a0c90919063ffffffff16565b6040518363ffffffff1660e01b8152600401610c8b92919061390b565b600060405180830381600087803b158015610ca557600080fd5b505af1158015610cb9573d6000803e3d6000fd5b50505050600080905060006008541415610cdc5782905082600881905550610d08565b610d05600854610cf76002548661266d90919063ffffffff16565b6126dd90919063ffffffff16565b90505b610d1061148a565b600881905550610d203382612a61565b506006548114610d65576040517f08c379a0000000000000000000000000000000000000000000000000000000008152600401610d5c90613b31565b60405180910390fd5b5050565b610d71611984565b610db0576040517f08c379a0000000000000000000000000000000000000000000000000000000008152600401610da790613a71565b60405180910390fd5b60008173ffffffffffffffffffffffffffffffffffffffff166370a08231306040518263ffffffff1660e01b8152600401610deb9190613867565b60206040518083038186803b158015610e0357600080fd5b505afa158015610e17573d6000803e3d6000fd5b505050506040513d601f19601f82011682018060405250610e3b919081019061320e565b90508173ffffffffffffffffffffffffffffffffffffffff1663a9059cbb33836040518363ffffffff1660e01b8152600401610e789291906138b9565b602060405180830381600087803b158015610e9257600080fd5b505af1158015610ea6573d6000803e3d6000fd5b505050506040513d601f19601f82011682018060405250610eca9190810190613193565b505050565b6000600560009054906101000a900460ff16905090565b6000610f8f610ef3612450565b84610f8a8560016000610f04612450565b73ffffffffffffffffffffffffffffffffffffffff1673ffffffffffffffffffffffffffffffffffffffff16815260200190815260200160002060008973ffffffffffffffffffffffffffffffffffffffff1673ffffffffffffffffffffffffffffffffffffffff16815260200190815260200160002054612a0c90919063ffffffff16565b612458565b6001905092915050565b600160066000828254019250508190555060006006549050610fb9611984565b610ff8576040517f08c379a0000000000000000000000000000000000000000000000000000000008152600401610fef90613a71565b60405180910390fd5b6000600960009054906101000a900473ffffffffffffffffffffffffffffffffffffffff1673ffffffffffffffffffffffffffffffffffffffff166370a08231306040518263ffffffff1660e01b81526004016110559190613867565b60206040518083038186803b15801561106d57600080fd5b505afa158015611081573d6000803e3d6000fd5b505050506040513d601f19601f820116820180604052506110a5919081019061320e565b9050600081116110ea576040517f08c379a00000000000000000000000000000000000000000000000000000000081526004016110e190613b11565b60405180910390fd5b6110f3816121d8565b600c60009054906101000a900473ffffffffffffffffffffffffffffffffffffffff1673ffffffffffffffffffffffffffffffffffffffff16630b4c7e4d604051806040016040528061114461136a565b8152602001600081525061116361070842612a0c90919063ffffffff16565b6040518363ffffffff1660e01b815260040161118092919061390b565b600060405180830381600087803b15801561119a57600080fd5b505af11580156111ae573d6000803e3d6000fd5b505050506111ba61148a565b600881905550506006548114611205576040517f08c379a00000000000000000000000000000000000000000000000000000000081526004016111fc90613b31565b60405180910390fd5b50565b611210611984565b61124f576040517f08c379a000000000000000000000000000000000000000000000000000000000815260040161124690613a71565b60405180910390fd5b80600960006101000a81548173ffffffffffffffffffffffffffffffffffffffff021916908373ffffffffffffffffffffffffffffffffffffffff16021790555050565b61129b611984565b6112da576040517f08c379a00000000000000000000000000000000000000000000000000000000081526004016112d190613a71565b60405180910390fd5b80600b60006101000a81548173ffffffffffffffffffffffffffffffffffffffff021916908373ffffffffffffffffffffffffffffffffffffffff16021790555050565b600d60009054906101000a900473ffffffffffffffffffffffffffffffffffffffff1681565b600b60009054906101000a900473ffffffffffffffffffffffffffffffffffffffff1681565b6000600a60009054906101000a900473ffffffffffffffffffffffffffffffffffffffff1673ffffffffffffffffffffffffffffffffffffffff166370a08231306040518263ffffffff1660e01b81526004016113c79190613867565b60206040518083038186803b1580156113df57600080fd5b505afa1580156113f3573d6000803e3d6000fd5b505050506040513d601f19601f82011682018060405250611417919081019061320e565b905090565b600a60009054906101000a900473ffffffffffffffffffffffffffffffffffffffff1681565b60008060008373ffffffffffffffffffffffffffffffffffffffff1673ffffffffffffffffffffffffffffffffffffffff168152602001908152602001600020549050919050565b600080600c60009054906101000a900473ffffffffffffffffffffffffffffffffffffffff1673ffffffffffffffffffffffffffffffffffffffff1663bb7b8b806040518163ffffffff1660e01b815260040160206040518083038186803b1580156114f557600080fd5b505afa158015611509573d6000803e3d6000fd5b505050506040513d601f19601f8201168201806040525061152d919081019061320e565b90506000600d60009054906101000a900473ffffffffffffffffffffffffffffffffffffffff1673ffffffffffffffffffffffffffffffffffffffff166370a08231306040518263ffffffff1660e01b815260040161158c9190613867565b60206040518083038186803b1580156115a457600080fd5b505afa1580156115b8573d6000803e3d6000fd5b505050506040513d601f19601f820116820180604052506115dc919081019061320e565b90506000600960009054906101000a900473ffffffffffffffffffffffffffffffffffffffff1673ffffffffffffffffffffffffffffffffffffffff166370a08231306040518263ffffffff1660e01b815260040161163b9190613867565b60206040518083038186803b15801561165357600080fd5b505afa158015611667573d6000803e3d6000fd5b505050506040513d601f19601f8201168201806040525061168b919081019061320e565b90506116cc816116be670de0b6b3a76400006116b0868861266d90919063ffffffff16565b6126dd90919063ffffffff16565b612a0c90919063ffffffff16565b935050505090565b6116dc611984565b61171b576040517f08c379a000000000000000000000000000000000000000000000000000000000815260040161171290613a71565b60405180910390fd5b600073ffffffffffffffffffffffffffffffffffffffff16600760009054906101000a900473ffffffffffffffffffffffffffffffffffffffff1673ffffffffffffffffffffffffffffffffffffffff167f8be0079c531659141344cd1fd0a4f28419497f9722a3daafe3b4186f6b6457e060405160405180910390a36000600760006101000a81548173ffffffffffffffffffffffffffffffffffffffff021916908373ffffffffffffffffffffffffffffffffffffffff160217905550565b600c60009054906101000a900473ffffffffffffffffffffffffffffffffffffffff1681565b60008061180d61148a565b905061183e600254611830670de0b6b3a76400008461266d90919063ffffffff16565b6126dd90919063ffffffff16565b91505090565b61184c611984565b61188b576040517f08c379a000000000000000000000000000000000000000000000000000000000815260040161188290613a71565b60405180910390fd5b80600a60006101000a81548173ffffffffffffffffffffffffffffffffffffffff021916908373ffffffffffffffffffffffffffffffffffffffff16021790555050565b6118d7611984565b611916576040517f08c379a000000000000000000000000000000000000000000000000000000000815260040161190d90613a71565b60405180910390fd5b80600d60006101000a81548173ffffffffffffffffffffffffffffffffffffffff021916908373ffffffffffffffffffffffffffffffffffffffff16021790555050565b6000600760009054906101000a900473ffffffffffffffffffffffffffffffffffffffff16905090565b6000600760009054906101000a900473ffffffffffffffffffffffffffffffffffffffff1673ffffffffffffffffffffffffffffffffffffffff166119c7612450565b73ffffffffffffffffffffffffffffffffffffffff1614905090565b606060048054600181600116156101000203166002900480601f016020809104026020016040519081016040528092919081815260200182805460018160011615610100020316600290048015611a7b5780601f10611a5057610100808354040283529160200191611a7b565b820191906000526020600020905b815481529060010190602001808311611a5e57829003601f168201915b5050505050905090565b600960009054906101000a900473ffffffffffffffffffffffffffffffffffffffff1673ffffffffffffffffffffffffffffffffffffffff1663095ea7b3600a60009054906101000a900473ffffffffffffffffffffffffffffffffffffffff167fffffffffffffffffffffffffffffffffffffffffffffffffffffffffffffffff6040518363ffffffff1660e01b8152600401611b249291906138e2565b602060405180830381600087803b158015611b3e57600080fd5b505af1158015611b52573d6000803e3d6000fd5b505050506040513d601f19601f82011682018060405250611b769190810190613193565b50600a60009054906101000a900473ffffffffffffffffffffffffffffffffffffffff1673ffffffffffffffffffffffffffffffffffffffff1663095ea7b3600c60009054906101000a900473ffffffffffffffffffffffffffffffffffffffff167fffffffffffffffffffffffffffffffffffffffffffffffffffffffffffffffff6040518363ffffffff1660e01b8152600401611c169291906138e2565b602060405180830381600087803b158015611c3057600080fd5b505af1158015611c44573d6000803e3d6000fd5b505050506040513d601f19601f82011682018060405250611c689190810190613193565b50565b6000611d2e611c78612450565b84611d2985604051806060016040528060258152602001613d876025913960016000611ca2612450565b73ffffffffffffffffffffffffffffffffffffffff1673ffffffffffffffffffffffffffffffffffffffff16815260200190815260200160002060008a73ffffffffffffffffffffffffffffffffffffffff1673ffffffffffffffffffffffffffffffffffffffff168152602001908152602001600020546129b19092919063ffffffff16565b612458565b6001905092915050565b6000611d4c611d45612450565b8484612727565b6001905092915050565b60016006600082825401925050819055506000600654905060008211611db1576040517f08c379a0000000000000000000000000000000000000000000000000000000008152600401611da890613ab1565b60405180910390fd5b6000611dbc33611442565b905080831115611e01576040517f08c379a0000000000000000000000000000000000000000000000000000000008152600401611df890613a91565b60405180910390fd5b611e0961148a565b6008819055506000611e3a600254611e2c8660085461266d90919063ffffffff16565b6126dd90919063ffffffff16565b9050611ec4846040518060400160405280601d81526020017f72656465656d20616d6f756e7420657863656564732062616c616e63650000008152506000803373ffffffffffffffffffffffffffffffffffffffff1673ffffffffffffffffffffffffffffffffffffffff168152602001908152602001600020546129b19092919063ffffffff16565b6000803373ffffffffffffffffffffffffffffffffffffffff1673ffffffffffffffffffffffffffffffffffffffff16815260200190815260200160002081905550611f1b8460025461262390919063ffffffff16565b600281905550600073ffffffffffffffffffffffffffffffffffffffff163373ffffffffffffffffffffffffffffffffffffffff167fddf252ad1be2c89b69c2b068fc378daa952ba7f163c4a11628f55a4df523b3ef86604051611f7f9190613b71565b60405180910390a36000600960009054906101000a900473ffffffffffffffffffffffffffffffffffffffff1673ffffffffffffffffffffffffffffffffffffffff166370a08231306040518263ffffffff1660e01b8152600401611fe49190613867565b60206040518083038186803b158015611ffc57600080fd5b505afa158015612010573d6000803e3d6000fd5b505050506040513d601f19601f82011682018060405250612034919081019061320e565b9050818110156120485761204782612be9565b5b600960009054906101000a900473ffffffffffffffffffffffffffffffffffffffff1673ffffffffffffffffffffffffffffffffffffffff1663a9059cbb33846040518363ffffffff1660e01b81526004016120a59291906138b9565b602060405180830381600087803b1580156120bf57600080fd5b505af11580156120d3573d6000803e3d6000fd5b505050506040513d601f19601f820116820180604052506120f79190810190613193565b5061210061148a565b600881905550505050600654811461214d576040517f08c379a000000000000000000000000000000000000000000000000000000000815260040161214490613b31565b60405180910390fd5b5050565b6000600160008473ffffffffffffffffffffffffffffffffffffffff1673ffffffffffffffffffffffffffffffffffffffff16815260200190815260200160002060008373ffffffffffffffffffffffffffffffffffffffff1673ffffffffffffffffffffffffffffffffffffffff16815260200190815260200160002054905092915050565b6000600a60009054906101000a900473ffffffffffffffffffffffffffffffffffffffff1673ffffffffffffffffffffffffffffffffffffffff1663a0712d68836040518263ffffffff1660e01b81526004016122359190613b71565b602060405180830381600087803b15801561224f57600080fd5b505af1158015612263573d6000803e3d6000fd5b505050506040513d601f19601f82011682018060405250612287919081019061320e565b146122c7576040517f08c379a00000000000000000000000000000000000000000000000000000000081526004016122be906139f1565b60405180910390fd5b50565b6122d2611984565b612311576040517f08c379a000000000000000000000000000000000000000000000000000000000815260040161230890613a71565b60405180910390fd5b61231a81612db7565b50565b612325611984565b612364576040517f08c379a000000000000000000000000000000000000000000000000000000000815260040161235b90613a71565b60405180910390fd5b60003373ffffffffffffffffffffffffffffffffffffffff163073ffffffffffffffffffffffffffffffffffffffff16316040516123a190613837565b60006040518083038185875af1925050503d80600081146123de576040519150601f19603f3d011682016040523d82523d6000602084013e6123e3565b606091505b5050905080612427576040517f08c379a000000000000000000000000000000000000000000000000000000000815260040161241e90613a31565b60405180910390fd5b50565b600960009054906101000a900473ffffffffffffffffffffffffffffffffffffffff1681565b600033905090565b600073ffffffffffffffffffffffffffffffffffffffff168373ffffffffffffffffffffffffffffffffffffffff1614156124c8576040517f08c379a00000000000000000000000000000000000000000000000000000000081526004016124bf90613af1565b60405180910390fd5b600073ffffffffffffffffffffffffffffffffffffffff168273ffffffffffffffffffffffffffffffffffffffff161415612538576040517f08c379a000000000000000000000000000000000000000000000000000000000815260040161252f906139d1565b60405180910390fd5b80600160008573ffffffffffffffffffffffffffffffffffffffff1673ffffffffffffffffffffffffffffffffffffffff16815260200190815260200160002060008473ffffffffffffffffffffffffffffffffffffffff1673ffffffffffffffffffffffffffffffffffffffff168152602001908152602001600020819055508173ffffffffffffffffffffffffffffffffffffffff168373ffffffffffffffffffffffffffffffffffffffff167f8c5be1e5ebec7d5bd14f71427d1e84f3dd0314c0f7b2291e5b200ac8c7c3b925836040516126169190613b71565b60405180910390a3505050565b600061266583836040518060400160405280601e81526020017f536166654d6174683a207375627472616374696f6e206f766572666c6f7700008152506129b1565b905092915050565b60008083141561268057600090506126d7565b600082840290508284828161269157fe5b04146126d2576040517f08c379a00000000000000000000000000000000000000000000000000000000081526004016126c990613a51565b60405180910390fd5b809150505b92915050565b600061271f83836040518060400160405280601a81526020017f536166654d6174683a206469766973696f6e206279207a65726f000000000000815250612ee7565b905092915050565b600073ffffffffffffffffffffffffffffffffffffffff168373ffffffffffffffffffffffffffffffffffffffff161415612797576040517f08c379a000000000000000000000000000000000000000000000000000000000815260040161278e90613ad1565b60405180910390fd5b600073ffffffffffffffffffffffffffffffffffffffff168273ffffffffffffffffffffffffffffffffffffffff161415612807576040517f08c379a00000000000000000000000000000000000000000000000000000000081526004016127fe90613971565b60405180910390fd5b61287281604051806060016040528060268152602001613d39602691396000808773ffffffffffffffffffffffffffffffffffffffff1673ffffffffffffffffffffffffffffffffffffffff168152602001908152602001600020546129b19092919063ffffffff16565b6000808573ffffffffffffffffffffffffffffffffffffffff1673ffffffffffffffffffffffffffffffffffffffff16815260200190815260200160002081905550612905816000808573ffffffffffffffffffffffffffffffffffffffff1673ffffffffffffffffffffffffffffffffffffffff16815260200190815260200160002054612a0c90919063ffffffff16565b6000808473ffffffffffffffffffffffffffffffffffffffff1673ffffffffffffffffffffffffffffffffffffffff168152602001908152602001600020819055508173ffffffffffffffffffffffffffffffffffffffff168373ffffffffffffffffffffffffffffffffffffffff167fddf252ad1be2c89b69c2b068fc378daa952ba7f163c4a11628f55a4df523b3ef836040516129a49190613b71565b60405180910390a3505050565b60008383111582906129f9576040517f08c379a00000000000000000000000000000000000000000000000000000000081526004016129f0919061394f565b60405180910390fd5b5060008385039050809150509392505050565b600080828401905083811015612a57576040517f08c379a0000000000000000000000000000000000000000000000000000000008152600401612a4e90613a11565b60405180910390fd5b8091505092915050565b600073ffffffffffffffffffffffffffffffffffffffff168273ffffffffffffffffffffffffffffffffffffffff161415612ad1576040517f08c379a0000000000000000000000000000000000000000000000000000000008152600401612ac890613b51565b60405180910390fd5b612ae681600254612a0c90919063ffffffff16565b600281905550612b3d816000808573ffffffffffffffffffffffffffffffffffffffff1673ffffffffffffffffffffffffffffffffffffffff16815260200190815260200160002054612a0c90919063ffffffff16565b6000808473ffffffffffffffffffffffffffffffffffffffff1673ffffffffffffffffffffffffffffffffffffffff168152602001908152602001600020819055508173ffffffffffffffffffffffffffffffffffffffff16600073ffffffffffffffffffffffffffffffffffffffff167fddf252ad1be2c89b69c2b068fc378daa952ba7f163c4a11628f55a4df523b3ef83604051612bdd9190613b71565b60405180910390a35050565b6000612c1f670de0b6b3a7640000612c11612c02611802565b8561266d90919063ffffffff16565b6126dd90919063ffffffff16565b90506000612cef600a60009054906101000a900473ffffffffffffffffffffffffffffffffffffffff1673ffffffffffffffffffffffffffffffffffffffff1663182df0f56040518163ffffffff1660e01b815260040160206040518083038186803b158015612c8e57600080fd5b505afa158015612ca2573d6000803e3d6000fd5b505050506040513d601f19601f82011682018060405250612cc6919081019061320e565b612ce1670de0b6b3a76400008561266d90919063ffffffff16565b6126dd90919063ffffffff16565b9050600c60009054906101000a900473ffffffffffffffffffffffffffffffffffffffff1673ffffffffffffffffffffffffffffffffffffffff1663e310327360405180604001604052808481526020016000815250612d5a61070842612a0c90919063ffffffff16565b6040518363ffffffff1660e01b8152600401612d7792919061390b565b600060405180830381600087803b158015612d9157600080fd5b505af1158015612da5573d6000803e3d6000fd5b50505050612db281612f48565b505050565b600073ffffffffffffffffffffffffffffffffffffffff168173ffffffffffffffffffffffffffffffffffffffff161415612e27576040517f08c379a0000000000000000000000000000000000000000000000000000000008152600401612e1e906139b1565b60405180910390fd5b8073ffffffffffffffffffffffffffffffffffffffff16600760009054906101000a900473ffffffffffffffffffffffffffffffffffffffff1673ffffffffffffffffffffffffffffffffffffffff167f8be0079c531659141344cd1fd0a4f28419497f9722a3daafe3b4186f6b6457e060405160405180910390a380600760006101000a81548173ffffffffffffffffffffffffffffffffffffffff021916908373ffffffffffffffffffffffffffffffffffffffff16021790555050565b60008083118290612f2e576040517f08c379a0000000000000000000000000000000000000000000000000000000008152600401612f25919061394f565b60405180910390fd5b506000838581612f3a57fe5b049050809150509392505050565b6000600a60009054906101000a900473ffffffffffffffffffffffffffffffffffffffff1673ffffffffffffffffffffffffffffffffffffffff1663db006a75836040518263ffffffff1660e01b8152600401612fa59190613b71565b602060405180830381600087803b158015612fbf57600080fd5b505af1158015612fd3573d6000803e3d6000fd5b505050506040513d601f19601f82011682018060405250612ff7919081019061320e565b14613037576040517f08c379a000000000000000000000000000000000000000000000000000000000815260040161302e90613991565b60405180910390fd5b50565b60008135905061304981613cdc565b92915050565b60008151905061305e81613cf3565b92915050565b60008135905061307381613d0a565b92915050565b60008135905061308881613d21565b92915050565b60008151905061309d81613d21565b92915050565b6000602082840312156130b557600080fd5b60006130c38482850161303a565b91505092915050565b600080604083850312156130df57600080fd5b60006130ed8582860161303a565b92505060206130fe8582860161303a565b9150509250929050565b60008060006060848603121561311d57600080fd5b600061312b8682870161303a565b935050602061313c8682870161303a565b925050604061314d86828701613079565b9150509250925092565b6000806040838503121561316a57600080fd5b60006131788582860161303a565b925050602061318985828601613079565b9150509250929050565b6000602082840312156131a557600080fd5b60006131b38482850161304f565b91505092915050565b6000602082840312156131ce57600080fd5b60006131dc84828501613064565b91505092915050565b6000602082840312156131f757600080fd5b600061320584828501613079565b91505092915050565b60006020828403121561322057600080fd5b600061322e8482850161308e565b91505092915050565b6000613243838361380a565b60208301905092915050565b61325881613c62565b82525050565b61326781613bfb565b82525050565b61327681613bb1565b6132808184613bd4565b925061328b82613ba7565b8060005b838110156132bc5781516132a38782613237565b96506132ae83613bc7565b92505060018101905061328f565b505050505050565b6132cd81613c0d565b82525050565b60006132de82613bbc565b6132e88185613bea565b93506132f8818560208601613c98565b61330181613ccb565b840191505092915050565b6000613319602383613bea565b91507f45524332303a207472616e7366657220746f20746865207a65726f206164647260008301527f65737300000000000000000000000000000000000000000000000000000000006020830152604082019050919050565b600061337f601983613bea565b91507f434f4d504f554e443a207769746864726177206661696c6564000000000000006000830152602082019050919050565b60006133bf602683613bea565b91507f4f776e61626c653a206e6577206f776e657220697320746865207a65726f206160008301527f64647265737300000000000000000000000000000000000000000000000000006020830152604082019050919050565b6000613425602283613bea565b91507f45524332303a20617070726f766520746f20746865207a65726f20616464726560008301527f73730000000000000000000000000000000000000000000000000000000000006020830152604082019050919050565b600061348b601783613bea565b91507f434f4d504f554e443a20737570706c79206661696c65640000000000000000006000830152602082019050919050565b60006134cb601b83613bea565b91507f536166654d6174683a206164646974696f6e206f766572666c6f7700000000006000830152602082019050919050565b600061350b601683613bea565b91507f7472616e73666572206f6620455448206661696c6564000000000000000000006000830152602082019050919050565b600061354b602183613bea565b91507f536166654d6174683a206d756c7469706c69636174696f6e206f766572666c6f60008301527f77000000000000000000000000000000000000000000000000000000000000006020830152604082019050919050565b60006135b1602083613bea565b91507f4f776e61626c653a2063616c6c6572206973206e6f7420746865206f776e65726000830152602082019050919050565b60006135f1601483613bea565b91507f696e73756666696369656e742062616c616e63650000000000000000000000006000830152602082019050919050565b6000613631601f83613bea565b91507f7769746864726177206d7573742062652067726561746572207468616e2030006000830152602082019050919050565b6000613671602583613bea565b91507f45524332303a207472616e736665722066726f6d20746865207a65726f20616460008301527f64726573730000000000000000000000000000000000000000000000000000006020830152604082019050919050565b60006136d7600083613bdf565b9150600082019050919050565b60006136f1602483613bea565b91507f45524332303a20617070726f76652066726f6d20746865207a65726f2061646460008301527f72657373000000000000000000000000000000000000000000000000000000006020830152604082019050919050565b6000613757601e83613bea565b91507f6465706f736974206d7573742062652067726561746572207468616e203000006000830152602082019050919050565b6000613797601f83613bea565b91507f5265656e7472616e637947756172643a207265656e7472616e742063616c6c006000830152602082019050919050565b60006137d7601f83613bea565b91507f45524332303a206d696e7420746f20746865207a65726f2061646472657373006000830152602082019050919050565b61381381613c4b565b82525050565b61382281613c4b565b82525050565b61383181613c55565b82525050565b6000613842826136ca565b9150819050919050565b6000602082019050613861600083018461325e565b92915050565b600060208201905061387c600083018461324f565b92915050565b6000606082019050613897600083018661324f565b6138a4602083018561324f565b6138b16040830184613819565b949350505050565b60006040820190506138ce600083018561324f565b6138db6020830184613819565b9392505050565b60006040820190506138f7600083018561325e565b6139046020830184613819565b9392505050565b6000606082019050613920600083018561326d565b61392d6040830184613819565b9392505050565b600060208201905061394960008301846132c4565b92915050565b6000602082019050818103600083015261396981846132d3565b905092915050565b6000602082019050818103600083015261398a8161330c565b9050919050565b600060208201905081810360008301526139aa81613372565b9050919050565b600060208201905081810360008301526139ca816133b2565b9050919050565b600060208201905081810360008301526139ea81613418565b9050919050565b60006020820190508181036000830152613a0a8161347e565b9050919050565b60006020820190508181036000830152613a2a816134be565b9050919050565b60006020820190508181036000830152613a4a816134fe565b9050919050565b60006020820190508181036000830152613a6a8161353e565b9050919050565b60006020820190508181036000830152613a8a816135a4565b9050919050565b60006020820190508181036000830152613aaa816135e4565b9050919050565b60006020820190508181036000830152613aca81613624565b9050919050565b60006020820190508181036000830152613aea81613664565b9050919050565b60006020820190508181036000830152613b0a816136e4565b9050919050565b60006020820190508181036000830152613b2a8161374a565b9050919050565b60006020820190508181036000830152613b4a8161378a565b9050919050565b60006020820190508181036000830152613b6a816137ca565b9050919050565b6000602082019050613b866000830184613819565b92915050565b6000602082019050613ba16000830184613828565b92915050565b6000819050919050565b600060029050919050565b600081519050919050565b6000602082019050919050565b600081905092915050565b600081905092915050565b600082825260208201905092915050565b6000613c0682613c2b565b9050919050565b60008115159050919050565b6000613c2482613bfb565b9050919050565b600073ffffffffffffffffffffffffffffffffffffffff82169050919050565b6000819050919050565b600060ff82169050919050565b6000613c6d82613c74565b9050919050565b6000613c7f82613c86565b9050919050565b6000613c9182613c2b565b9050919050565b60005b83811015613cb6578082015181840152602081019050613c9b565b83811115613cc5576000848401525b50505050565b6000601f19601f8301169050919050565b613ce581613bfb565b8114613cf057600080fd5b50565b613cfc81613c0d565b8114613d0757600080fd5b50565b613d1381613c19565b8114613d1e57600080fd5b50565b613d2a81613c4b565b8114613d3557600080fd5b5056fe45524332303a207472616e7366657220616d6f756e7420657863656564732062616c616e636545524332303a207472616e7366657220616d6f756e74206578636565647320616c6c6f77616e636545524332303a2064656372656173656420616c6c6f77616e63652062656c6f77207a65726fa365627a7a723158203b5d2caecb8a7d990cf7a1a02ea54eba673ce70f9033dfebce93770a6e956a326c6578706572696d656e74616cf564736f6c634300050c0040",
  "source": "pragma solidity ^0.5.0;\npragma experimental ABIEncoderV2;\n\ninterface IERC20 {\n    function totalSupply() external view returns (uint256);\n    function balanceOf(address account) external view returns (uint256);\n    function transfer(address recipient, uint256 amount) external returns (bool);\n    function allowance(address owner, address spender) external view returns (uint256);\n    function approve(address spender, uint256 amount) external returns (bool);\n    function transferFrom(address sender, address recipient, uint256 amount) external returns (bool);\n    event Transfer(address indexed from, address indexed to, uint256 value);\n    event Approval(address indexed owner, address indexed spender, uint256 value);\n}\n\ncontract Context {\n    constructor () internal { }\n    // solhint-disable-previous-line no-empty-blocks\n\n    function _msgSender() internal view returns (address payable) {\n        return msg.sender;\n    }\n\n    function _msgData() internal view returns (bytes memory) {\n        this; // silence state mutability warning without generating bytecode - see https://github.com/ethereum/solidity/issues/2691\n        return msg.data;\n    }\n}\n\ncontract ERC20 is Context, IERC20 {\n    using SafeMath for uint256;\n\n    mapping (address => uint256) _balances;\n\n    mapping (address => mapping (address => uint256)) private _allowances;\n\n    uint256 _totalSupply;\n    function totalSupply() public view returns (uint256) {\n        return _totalSupply;\n    }\n    function balanceOf(address account) public view returns (uint256) {\n        return _balances[account];\n    }\n    function transfer(address recipient, uint256 amount) public returns (bool) {\n        _transfer(_msgSender(), recipient, amount);\n        return true;\n    }\n    function allowance(address owner, address spender) public view returns (uint256) {\n        return _allowances[owner][spender];\n    }\n    function approve(address spender, uint256 amount) public returns (bool) {\n        _approve(_msgSender(), spender, amount);\n        return true;\n    }\n    function transferFrom(address sender, address recipient, uint256 amount) public returns (bool) {\n        _transfer(sender, recipient, amount);\n        _approve(sender, _msgSender(), _allowances[sender][_msgSender()].sub(amount, \"ERC20: transfer amount exceeds allowance\"));\n        return true;\n    }\n    function increaseAllowance(address spender, uint256 addedValue) public returns (bool) {\n        _approve(_msgSender(), spender, _allowances[_msgSender()][spender].add(addedValue));\n        return true;\n    }\n    function decreaseAllowance(address spender, uint256 subtractedValue) public returns (bool) {\n        _approve(_msgSender(), spender, _allowances[_msgSender()][spender].sub(subtractedValue, \"ERC20: decreased allowance below zero\"));\n        return true;\n    }\n    function _transfer(address sender, address recipient, uint256 amount) internal {\n        require(sender != address(0), \"ERC20: transfer from the zero address\");\n        require(recipient != address(0), \"ERC20: transfer to the zero address\");\n\n        _balances[sender] = _balances[sender].sub(amount, \"ERC20: transfer amount exceeds balance\");\n        _balances[recipient] = _balances[recipient].add(amount);\n        emit Transfer(sender, recipient, amount);\n    }\n    function _mint(address account, uint256 amount) internal {\n        require(account != address(0), \"ERC20: mint to the zero address\");\n\n        _totalSupply = _totalSupply.add(amount);\n        _balances[account] = _balances[account].add(amount);\n        emit Transfer(address(0), account, amount);\n    }\n    function _burn(address account, uint256 amount) internal {\n        require(account != address(0), \"ERC20: burn from the zero address\");\n\n        _balances[account] = _balances[account].sub(amount, \"ERC20: burn amount exceeds balance\");\n        _totalSupply = _totalSupply.sub(amount);\n        emit Transfer(account, address(0), amount);\n    }\n    function _approve(address owner, address spender, uint256 amount) internal {\n        require(owner != address(0), \"ERC20: approve from the zero address\");\n        require(spender != address(0), \"ERC20: approve to the zero address\");\n\n        _allowances[owner][spender] = amount;\n        emit Approval(owner, spender, amount);\n    }\n    function _burnFrom(address account, uint256 amount) internal {\n        _burn(account, amount);\n        _approve(account, _msgSender(), _allowances[account][_msgSender()].sub(amount, \"ERC20: burn amount exceeds allowance\"));\n    }\n}\n\ncontract ERC20Detailed is IERC20 {\n    string private _name;\n    string private _symbol;\n    uint8 private _decimals;\n\n    constructor (string memory name, string memory symbol, uint8 decimals) public {\n        _name = name;\n        _symbol = symbol;\n        _decimals = decimals;\n    }\n    function name() public view returns (string memory) {\n        return _name;\n    }\n    function symbol() public view returns (string memory) {\n        return _symbol;\n    }\n    function decimals() public view returns (uint8) {\n        return _decimals;\n    }\n}\n\ncontract ReentrancyGuard {\n    uint256 private _guardCounter;\n\n    constructor () internal {\n        _guardCounter = 1;\n    }\n\n    modifier nonReentrant() {\n        _guardCounter += 1;\n        uint256 localCounter = _guardCounter;\n        _;\n        require(localCounter == _guardCounter, \"ReentrancyGuard: reentrant call\");\n    }\n}\n\ncontract Ownable is Context {\n    address private _owner;\n\n    event OwnershipTransferred(address indexed previousOwner, address indexed newOwner);\n    constructor () internal {\n        _owner = _msgSender();\n        emit OwnershipTransferred(address(0), _owner);\n    }\n    function owner() public view returns (address) {\n        return _owner;\n    }\n    modifier onlyOwner() {\n        require(isOwner(), \"Ownable: caller is not the owner\");\n        _;\n    }\n    function isOwner() public view returns (bool) {\n        return _msgSender() == _owner;\n    }\n    function renounceOwnership() public onlyOwner {\n        emit OwnershipTransferred(_owner, address(0));\n        _owner = address(0);\n    }\n    function transferOwnership(address newOwner) public onlyOwner {\n        _transferOwnership(newOwner);\n    }\n    function _transferOwnership(address newOwner) internal {\n        require(newOwner != address(0), \"Ownable: new owner is the zero address\");\n        emit OwnershipTransferred(_owner, newOwner);\n        _owner = newOwner;\n    }\n}\n\nlibrary SafeMath {\n    function add(uint256 a, uint256 b) internal pure returns (uint256) {\n        uint256 c = a + b;\n        require(c >= a, \"SafeMath: addition overflow\");\n\n        return c;\n    }\n    function sub(uint256 a, uint256 b) internal pure returns (uint256) {\n        return sub(a, b, \"SafeMath: subtraction overflow\");\n    }\n    function sub(uint256 a, uint256 b, string memory errorMessage) internal pure returns (uint256) {\n        require(b <= a, errorMessage);\n        uint256 c = a - b;\n\n        return c;\n    }\n    function mul(uint256 a, uint256 b) internal pure returns (uint256) {\n        if (a == 0) {\n            return 0;\n        }\n\n        uint256 c = a * b;\n        require(c / a == b, \"SafeMath: multiplication overflow\");\n\n        return c;\n    }\n    function div(uint256 a, uint256 b) internal pure returns (uint256) {\n        return div(a, b, \"SafeMath: division by zero\");\n    }\n    function div(uint256 a, uint256 b, string memory errorMessage) internal pure returns (uint256) {\n        // Solidity only automatically asserts when dividing by 0\n        require(b > 0, errorMessage);\n        uint256 c = a / b;\n\n        return c;\n    }\n    function mod(uint256 a, uint256 b) internal pure returns (uint256) {\n        return mod(a, b, \"SafeMath: modulo by zero\");\n    }\n    function mod(uint256 a, uint256 b, string memory errorMessage) internal pure returns (uint256) {\n        require(b != 0, errorMessage);\n        return a % b;\n    }\n}\n\nlibrary Address {\n    function isContract(address account) internal view returns (bool) {\n        bytes32 codehash;\n        bytes32 accountHash = 0xc5d2460186f7233c927e7db2dcc703c0e500b653ca82273b7bfad8045d85a470;\n        // solhint-disable-next-line no-inline-assembly\n        assembly { codehash := extcodehash(account) }\n        return (codehash != 0x0 && codehash != accountHash);\n    }\n    function toPayable(address account) internal pure returns (address payable) {\n        return address(uint160(account));\n    }\n    function sendValue(address payable recipient, uint256 amount) internal {\n        require(address(this).balance >= amount, \"Address: insufficient balance\");\n\n        // solhint-disable-next-line avoid-call-value\n        (bool success, ) = recipient.call.value(amount)(\"\");\n        require(success, \"Address: unable to send value, recipient may have reverted\");\n    }\n}\n\nlibrary SafeERC20 {\n    using SafeMath for uint256;\n    using Address for address;\n\n    function safeTransfer(IERC20 token, address to, uint256 value) internal {\n        callOptionalReturn(token, abi.encodeWithSelector(token.transfer.selector, to, value));\n    }\n\n    function safeTransferFrom(IERC20 token, address from, address to, uint256 value) internal {\n        callOptionalReturn(token, abi.encodeWithSelector(token.transferFrom.selector, from, to, value));\n    }\n\n    function safeApprove(IERC20 token, address spender, uint256 value) internal {\n        require((value == 0) || (token.allowance(address(this), spender) == 0),\n            \"SafeERC20: approve from non-zero to non-zero allowance\"\n        );\n        callOptionalReturn(token, abi.encodeWithSelector(token.approve.selector, spender, value));\n    }\n\n    function safeIncreaseAllowance(IERC20 token, address spender, uint256 value) internal {\n        uint256 newAllowance = token.allowance(address(this), spender).add(value);\n        callOptionalReturn(token, abi.encodeWithSelector(token.approve.selector, spender, newAllowance));\n    }\n\n    function safeDecreaseAllowance(IERC20 token, address spender, uint256 value) internal {\n        uint256 newAllowance = token.allowance(address(this), spender).sub(value, \"SafeERC20: decreased allowance below zero\");\n        callOptionalReturn(token, abi.encodeWithSelector(token.approve.selector, spender, newAllowance));\n    }\n    function callOptionalReturn(IERC20 token, bytes memory data) private {\n        require(address(token).isContract(), \"SafeERC20: call to non-contract\");\n\n        // solhint-disable-next-line avoid-low-level-calls\n        (bool success, bytes memory returndata) = address(token).call(data);\n        require(success, \"SafeERC20: low-level call failed\");\n\n        if (returndata.length > 0) { // Return data is optional\n            // solhint-disable-next-line max-line-length\n            require(abi.decode(returndata, (bool)), \"SafeERC20: ERC20 operation did not succeed\");\n        }\n    }\n}\n\ninterface Compound {\n    function mint ( uint256 mintAmount ) external returns ( uint256 );\n    function redeem(uint256 redeemTokens) external returns (uint256);\n    function exchangeRateStored() external view returns (uint);\n}\n\n// Solidity Interface\n\ninterface ICurveFi {\n\n  function get_virtual_price() external view returns (uint256);\n  function get_dy(\n    int128 i,\n    int128 j,\n    uint256 dx\n  ) external view returns (uint256);\n  function get_dy_underlying(\n    int128 i,\n    int128 j,\n    uint256 dx\n  ) external view returns (uint256);\n  function coins(int128 arg0) external view returns (address);\n  function underlying_coins(int128 arg0) external view returns (address);\n  function balances(int128 arg0) external view returns (uint256);\n\n  // 0 = cDAI, 1 - cUSDC\n  function add_liquidity(\n    uint256[2] calldata amounts,\n    uint256 deadline\n  ) external;\n  function exchange(\n    int128 i,\n    int128 j,\n    uint256 dx,\n    uint256 min_dy,\n    uint256 deadline\n  ) external;\n  function exchange_underlying(\n    int128 i,\n    int128 j,\n    uint256 dx,\n    uint256 min_dy,\n    uint256 deadline\n  ) external;\n  function remove_liquidity(\n    uint256 _amount,\n    uint256 deadline,\n    uint256[2] calldata min_amounts\n  ) external;\n  function remove_liquidity_imbalance(\n    uint256[2] calldata amounts,\n    uint256 deadline\n  ) external;\n}\n\ncontract yCRV is ERC20, ERC20Detailed, ReentrancyGuard, Ownable {\n  using SafeERC20 for IERC20;\n  using Address for address;\n  using SafeMath for uint256;\n\n  uint256 public pool;\n  address public token;\n  address public cDAI;\n  address public apr;\n  address public curve;\n  address public curveToken;\n\n  constructor () public ERC20Detailed(\"yCRV\", \"cDAI/cUSDC\", 18) {\n    token = address(0x6B175474E89094C44Da98b954EedeAC495271d0F);\n    apr = address(0x318135fbD0b40D48fCEF431CCdF6C7926450edFB);\n    cDAI = address(0x5d3a536E4D6DbD6114cc1Ead35777bAB948E3643);\n    curve = address(0x2e60CF74d81ac34eB21eEff58Db4D385920ef419);\n    curveToken = address(0x3740fb63ab7a09891d7c0d4299442A551D06F5fD);\n    approveToken();\n  }\n\n  function set_new_TOKEN(address _new_TOKEN) public onlyOwner {\n      token = _new_TOKEN;\n  }\n  function set_new_APR(address _new_APR) public onlyOwner {\n      apr = _new_APR;\n  }\n  function set_new_cDAI(address _new_cDAI) public onlyOwner {\n      cDAI = _new_cDAI;\n  }\n  function set_new_curveToken(address _new_set_new_curveToken) public onlyOwner {\n      curveToken = _new_set_new_curveToken;\n  }\n\n  function() external payable {\n\n  }\n\n  function approveToken() public {\n      IERC20(token).approve(cDAI, uint(-1));\n      IERC20(cDAI).approve(curve, uint(-1));\n  }\n  function balanceCompound() public view returns (uint256) {\n      return IERC20(cDAI).balanceOf(address(this));\n  }\n  function supplyCompound(uint amount) public {\n      require(Compound(cDAI).mint(amount) == 0, \"COMPOUND: supply failed\");\n  }\n  function withdrawCompound(uint amount) internal {\n      require(Compound(cDAI).redeem(amount) == 0, \"COMPOUND: withdraw failed\");\n  }\n\n  // Invest ETH\n  function invest(uint256 _amount)\n      external\n      nonReentrant\n  {\n      require(_amount > 0, \"deposit must be greater than 0\");\n      pool = calcPoolValueInToken();\n\n      IERC20(token).transferFrom(msg.sender, address(this), _amount);\n      // Got DAI\n      supplyCompound(_amount);\n      ICurveFi(curve).add_liquidity([balanceCompound(),0],now.add(1800));\n\n      // Calculate pool shares\n      uint256 shares = 0;\n      if (pool == 0) {\n        shares = _amount;\n        pool = _amount;\n      } else {\n        shares = (_amount.mul(_totalSupply)).div(pool);\n      }\n      pool = calcPoolValueInToken();\n      _mint(msg.sender, shares);\n  }\n\n  // Invest self eth from external profits\n  function investSelf()\n      external\n      nonReentrant\n      onlyOwner\n  {\n      uint b = IERC20(token).balanceOf(address(this));\n      require(b > 0, \"deposit must be greater than 0\");\n      supplyCompound(b);\n      ICurveFi(curve).add_liquidity([balanceCompound(),0],now.add(1800));\n      pool = calcPoolValueInToken();\n  }\n\n  function crvapr() public view returns (uint256) {\n    uint256 blocks = block.number - 9325883;\n    uint256 price = ICurveFi(curve).get_virtual_price().sub(1e18);\n    return price.mul(2102400).div(blocks);\n  }\n\n  function calcPoolValueInToken() public view returns (uint) {\n    uint256 price = ICurveFi(curve).get_virtual_price();\n    uint256 supply = IERC20(curveToken).balanceOf(address(this));\n    uint256 dai = IERC20(token).balanceOf(address(this));\n    return price.mul(supply).div(1e18).add(dai);\n  }\n\n  function withdraw(uint256 _amount) internal {\n    // _amount is amount of yCRV\n    // exchangeRateStored.div(1e18).mul(_amountOfCDai) = DAI\n    uint256 dai = _amount.mul(getPricePerFullShare()).div(1e18);\n    uint256 compoundDai = dai.mul(1e18).div(Compound(cDAI).exchangeRateStored());\n    ICurveFi(curve).remove_liquidity_imbalance([compoundDai,0], now.add(1800));\n    withdrawCompound(compoundDai);\n  }\n\n  function getPricePerFullShare() public view returns (uint) {\n    uint _pool = calcPoolValueInToken();\n    return _pool.mul(1e18).div(_totalSupply);\n  }\n\n  // Redeem any invested tokens from the pool\n  function redeem(uint256 _shares)\n      external\n      nonReentrant\n  {\n      require(_shares > 0, \"withdraw must be greater than 0\");\n\n      uint256 ibalance = balanceOf(msg.sender);\n      require(_shares <= ibalance, \"insufficient balance\");\n\n      // Could have over value from cTokens\n      pool = calcPoolValueInToken();\n      // Calc eth to redeem before updating balances\n      uint256 r = (pool.mul(_shares)).div(_totalSupply);\n\n\n      _balances[msg.sender] = _balances[msg.sender].sub(_shares, \"redeem amount exceeds balance\");\n      _totalSupply = _totalSupply.sub(_shares);\n\n      emit Transfer(msg.sender, address(0), _shares);\n\n      // Check balance\n      uint256 b = IERC20(token).balanceOf(address(this));\n      if (b < r) {\n        withdraw(r);\n      }\n\n      IERC20(token).transfer(msg.sender, r);\n      pool = calcPoolValueInToken();\n  }\n\n  // incase of half-way error\n  function inCaseTokenGetsStuck(IERC20 _TokenAddress) onlyOwner public {\n      uint qty = _TokenAddress.balanceOf(address(this));\n      _TokenAddress.transfer(msg.sender, qty);\n  }\n  // incase of half-way error\n  function inCaseETHGetsStuck() onlyOwner public{\n      (bool result, ) = msg.sender.call.value(address(this).balance)(\"\");\n      require(result, \"transfer of ETH failed\");\n  }\n}\n",
  "sourcePath": "D:/ftm/itoken/contracts/YCRV.sol",
  "compiler": {
    "name": "solc",
    "version": "0.5.12+commit.7709ece9.Emscripten.clang"
  },
  "schemaVersion": "3.0.19",
  "updatedAt": "2020-02-01T12:05:47.280Z",
  "devdoc": {
    "methods": {}
  },
  "userdoc": {
    "methods": {}
  }
}