{
  "contractName": "yCurveZapOutV4",
  "abi": [
    {
      "inputs": [],
      "payable": false,
      "stateMutability": "nonpayable",
      "type": "constructor"
    },
    {
      "anonymous": false,
      "inputs": [
        {
          "indexed": true,
          "internalType": "address",
          "name": "previousOwner",
          "type": "address"
        },
        {
          "indexed": true,
          "internalType": "address",
          "name": "newOwner",
          "type": "address"
        }
      ],
      "name": "OwnershipTransferred",
      "type": "event"
    },
    {
      "payable": true,
      "stateMutability": "payable",
      "type": "fallback"
    },
    {
      "constant": true,
      "inputs": [],
      "name": "BUSD",
      "outputs": [
        {
          "internalType": "address",
          "name": "",
          "type": "address"
        }
      ],
      "payable": false,
      "stateMutability": "view",
      "type": "function"
    },
    {
      "constant": true,
      "inputs": [],
      "name": "CURVE",
      "outputs": [
        {
          "internalType": "address",
          "name": "",
          "type": "address"
        }
      ],
      "payable": false,
      "stateMutability": "view",
      "type": "function"
    },
    {
      "constant": true,
      "inputs": [],
      "name": "DAI",
      "outputs": [
        {
          "internalType": "address",
          "name": "",
          "type": "address"
        }
      ],
      "payable": false,
      "stateMutability": "view",
      "type": "function"
    },
    {
      "constant": true,
      "inputs": [],
      "name": "SWAP",
      "outputs": [
        {
          "internalType": "address",
          "name": "",
          "type": "address"
        }
      ],
      "payable": false,
      "stateMutability": "view",
      "type": "function"
    },
    {
      "constant": true,
      "inputs": [],
      "name": "USDC",
      "outputs": [
        {
          "internalType": "address",
          "name": "",
          "type": "address"
        }
      ],
      "payable": false,
      "stateMutability": "view",
      "type": "function"
    },
    {
      "constant": true,
      "inputs": [],
      "name": "USDT",
      "outputs": [
        {
          "internalType": "address",
          "name": "",
          "type": "address"
        }
      ],
      "payable": false,
      "stateMutability": "view",
      "type": "function"
    },
    {
      "constant": true,
      "inputs": [],
      "name": "isOwner",
      "outputs": [
        {
          "internalType": "bool",
          "name": "",
          "type": "bool"
        }
      ],
      "payable": false,
      "stateMutability": "view",
      "type": "function"
    },
    {
      "constant": true,
      "inputs": [],
      "name": "owner",
      "outputs": [
        {
          "internalType": "address",
          "name": "",
          "type": "address"
        }
      ],
      "payable": false,
      "stateMutability": "view",
      "type": "function"
    },
    {
      "constant": false,
      "inputs": [],
      "name": "renounceOwnership",
      "outputs": [],
      "payable": false,
      "stateMutability": "nonpayable",
      "type": "function"
    },
    {
      "constant": false,
      "inputs": [
        {
          "internalType": "address",
          "name": "newOwner",
          "type": "address"
        }
      ],
      "name": "transferOwnership",
      "outputs": [],
      "payable": false,
      "stateMutability": "nonpayable",
      "type": "function"
    },
    {
      "constant": true,
      "inputs": [],
      "name": "yBUSD",
      "outputs": [
        {
          "internalType": "address",
          "name": "",
          "type": "address"
        }
      ],
      "payable": false,
      "stateMutability": "view",
      "type": "function"
    },
    {
      "constant": true,
      "inputs": [],
      "name": "yDAI",
      "outputs": [
        {
          "internalType": "address",
          "name": "",
          "type": "address"
        }
      ],
      "payable": false,
      "stateMutability": "view",
      "type": "function"
    },
    {
      "constant": true,
      "inputs": [],
      "name": "yUSDC",
      "outputs": [
        {
          "internalType": "address",
          "name": "",
          "type": "address"
        }
      ],
      "payable": false,
      "stateMutability": "view",
      "type": "function"
    },
    {
      "constant": true,
      "inputs": [],
      "name": "yUSDT",
      "outputs": [
        {
          "internalType": "address",
          "name": "",
          "type": "address"
        }
      ],
      "payable": false,
      "stateMutability": "view",
      "type": "function"
    },
    {
      "constant": false,
      "inputs": [],
      "name": "approveToken",
      "outputs": [],
      "payable": false,
      "stateMutability": "nonpayable",
      "type": "function"
    },
    {
      "constant": true,
      "inputs": [
        {
          "internalType": "uint256",
          "name": "_amount",
          "type": "uint256"
        },
        {
          "internalType": "address",
          "name": "_token",
          "type": "address"
        },
        {
          "internalType": "uint256",
          "name": "_dec",
          "type": "uint256"
        }
      ],
      "name": "checkSlippage",
      "outputs": [
        {
          "internalType": "bool",
          "name": "",
          "type": "bool"
        }
      ],
      "payable": false,
      "stateMutability": "view",
      "type": "function"
    },
    {
      "constant": false,
      "inputs": [
        {
          "internalType": "uint256",
          "name": "_amount",
          "type": "uint256"
        }
      ],
      "name": "withdrawCurve",
      "outputs": [],
      "payable": false,
      "stateMutability": "nonpayable",
      "type": "function"
    },
    {
      "constant": false,
      "inputs": [
        {
          "internalType": "uint256",
          "name": "_amount",
          "type": "uint256"
        }
      ],
      "name": "withdrawDAI",
      "outputs": [],
      "payable": false,
      "stateMutability": "nonpayable",
      "type": "function"
    },
    {
      "constant": false,
      "inputs": [
        {
          "internalType": "uint256",
          "name": "_amount",
          "type": "uint256"
        }
      ],
      "name": "withdrawUSDC",
      "outputs": [],
      "payable": false,
      "stateMutability": "nonpayable",
      "type": "function"
    },
    {
      "constant": false,
      "inputs": [
        {
          "internalType": "uint256",
          "name": "_amount",
          "type": "uint256"
        }
      ],
      "name": "withdrawUSDT",
      "outputs": [],
      "payable": false,
      "stateMutability": "nonpayable",
      "type": "function"
    },
    {
      "constant": false,
      "inputs": [
        {
          "internalType": "uint256",
          "name": "_amount",
          "type": "uint256"
        }
      ],
      "name": "withdrawBUSD",
      "outputs": [],
      "payable": false,
      "stateMutability": "nonpayable",
      "type": "function"
    },
    {
      "constant": false,
      "inputs": [
        {
          "internalType": "contract IERC20",
          "name": "_TokenAddress",
          "type": "address"
        }
      ],
      "name": "inCaseTokenGetsStuck",
      "outputs": [],
      "payable": false,
      "stateMutability": "nonpayable",
      "type": "function"
    },
    {
      "constant": false,
      "inputs": [],
      "name": "inCaseETHGetsStuck",
      "outputs": [],
      "payable": false,
      "stateMutability": "nonpayable",
      "type": "function"
    }
  ],
  "bytecode": "0x60806040523480156200001157600080fd5b5060016000819055506200002a6200044f60201b60201c565b600160006101000a81548173ffffffffffffffffffffffffffffffffffffffff021916908373ffffffffffffffffffffffffffffffffffffffff160217905550600160009054906101000a900473ffffffffffffffffffffffffffffffffffffffff1673ffffffffffffffffffffffffffffffffffffffff16600073ffffffffffffffffffffffffffffffffffffffff167f8be0079c531659141344cd1fd0a4f28419497f9722a3daafe3b4186f6b6457e060405160405180910390a3736b175474e89094c44da98b954eedeac495271d0f600260006101000a81548173ffffffffffffffffffffffffffffffffffffffff021916908373ffffffffffffffffffffffffffffffffffffffff16021790555073c2cb1040220768554cf699b0d863a3cd4324ce32600360006101000a81548173ffffffffffffffffffffffffffffffffffffffff021916908373ffffffffffffffffffffffffffffffffffffffff16021790555073a0b86991c6218b36c1d19d4a2e9eb0ce3606eb48600460006101000a81548173ffffffffffffffffffffffffffffffffffffffff021916908373ffffffffffffffffffffffffffffffffffffffff1602179055507326ea744e5b887e5205727f55dfbe8685e3b21951600560006101000a81548173ffffffffffffffffffffffffffffffffffffffff021916908373ffffffffffffffffffffffffffffffffffffffff16021790555073dac17f958d2ee523a2206206994597c13d831ec7600660006101000a81548173ffffffffffffffffffffffffffffffffffffffff021916908373ffffffffffffffffffffffffffffffffffffffff16021790555073e6354ed5bc4b393a5aad09f21c46e101e692d447600760006101000a81548173ffffffffffffffffffffffffffffffffffffffff021916908373ffffffffffffffffffffffffffffffffffffffff160217905550734fabb145d64652a948d72533023f6e7a623c7c53600860006101000a81548173ffffffffffffffffffffffffffffffffffffffff021916908373ffffffffffffffffffffffffffffffffffffffff1602179055507304bc0ab673d88ae9dbc9da2380cb6b79c4bca9ae600960006101000a81548173ffffffffffffffffffffffffffffffffffffffff021916908373ffffffffffffffffffffffffffffffffffffffff1602179055507379a8c46dea5ada233abaffd40f3a0a2b1e5a4f27600a60006101000a81548173ffffffffffffffffffffffffffffffffffffffff021916908373ffffffffffffffffffffffffffffffffffffffff160217905550733b3ac5386837dc563660fb6a0937dfaa5924333b600b60006101000a81548173ffffffffffffffffffffffffffffffffffffffff021916908373ffffffffffffffffffffffffffffffffffffffff160217905550620004496200045760201b60201c565b62000e20565b600033905090565b620004ed600a60009054906101000a900473ffffffffffffffffffffffffffffffffffffffff167fffffffffffffffffffffffffffffffffffffffffffffffffffffffffffffffff600360009054906101000a900473ffffffffffffffffffffffffffffffffffffffff1673ffffffffffffffffffffffffffffffffffffffff16620006b160201b62004519179092919060201c565b62000583600a60009054906101000a900473ffffffffffffffffffffffffffffffffffffffff167fffffffffffffffffffffffffffffffffffffffffffffffffffffffffffffffff600560009054906101000a900473ffffffffffffffffffffffffffffffffffffffff1673ffffffffffffffffffffffffffffffffffffffff16620006b160201b62004519179092919060201c565b62000619600a60009054906101000a900473ffffffffffffffffffffffffffffffffffffffff167fffffffffffffffffffffffffffffffffffffffffffffffffffffffffffffffff600760009054906101000a900473ffffffffffffffffffffffffffffffffffffffff1673ffffffffffffffffffffffffffffffffffffffff16620006b160201b62004519179092919060201c565b620006af600a60009054906101000a900473ffffffffffffffffffffffffffffffffffffffff167fffffffffffffffffffffffffffffffffffffffffffffffffffffffffffffffff600960009054906101000a900473ffffffffffffffffffffffffffffffffffffffff1673ffffffffffffffffffffffffffffffffffffffff16620006b160201b62004519179092919060201c565b565b600081148062000751575060008373ffffffffffffffffffffffffffffffffffffffff1663dd62ed3e30856040518363ffffffff1660e01b8152600401620006fb92919062000c63565b60206040518083038186803b1580156200071457600080fd5b505afa15801562000729573d6000803e3d6000fd5b505050506040513d601f19601f820116820180604052506200074f919081019062000a71565b145b62000793576040517f08c379a00000000000000000000000000000000000000000000000000000000081526004016200078a9062000d01565b60405180910390fd5b62000837838473ffffffffffffffffffffffffffffffffffffffff1663095ea7b3905060e01b8484604051602401620007ce92919062000c90565b604051602081830303815290604052907bffffffffffffffffffffffffffffffffffffffffffffffffffffffff19166020820180517bffffffffffffffffffffffffffffffffffffffffffffffffffffffff83818316178352505050506200083c60201b60201c565b505050565b620008688273ffffffffffffffffffffffffffffffffffffffff16620009cb60201b620049ee1760201c565b620008aa576040517f08c379a0000000000000000000000000000000000000000000000000000000008152600401620008a19062000d23565b60405180910390fd5b600060608373ffffffffffffffffffffffffffffffffffffffff1683604051620008d5919062000c4a565b6000604051808303816000865af19150503d806000811462000914576040519150601f19603f3d011682016040523d82523d6000602084013e62000919565b606091505b50915091508162000961576040517f08c379a0000000000000000000000000000000000000000000000000000000008152600401620009589062000cbd565b60405180910390fd5b600081511115620009c5578080602001905162000982919081019062000a45565b620009c4576040517f08c379a0000000000000000000000000000000000000000000000000000000008152600401620009bb9062000cdf565b60405180910390fd5b5b50505050565b60008060007fc5d2460186f7233c927e7db2dcc703c0e500b653ca82273b7bfad8045d85a47060001b9050833f91506000801b821415801562000a0e5750808214155b92505050919050565b60008151905062000a288162000dec565b92915050565b60008151905062000a3f8162000e06565b92915050565b60006020828403121562000a5857600080fd5b600062000a688482850162000a17565b91505092915050565b60006020828403121562000a8457600080fd5b600062000a948482850162000a2e565b91505092915050565b62000aa88162000d6c565b82525050565b600062000abb8262000d45565b62000ac7818562000d50565b935062000ad981856020860162000db6565b80840191505092915050565b600062000af460208362000d5b565b91507f5361666545524332303a206c6f772d6c6576656c2063616c6c206661696c65646000830152602082019050919050565b600062000b36602a8362000d5b565b91507f5361666545524332303a204552433230206f7065726174696f6e20646964206e60008301527f6f742073756363656564000000000000000000000000000000000000000000006020830152604082019050919050565b600062000b9e60368362000d5b565b91507f5361666545524332303a20617070726f76652066726f6d206e6f6e2d7a65726f60008301527f20746f206e6f6e2d7a65726f20616c6c6f77616e6365000000000000000000006020830152604082019050919050565b600062000c06601f8362000d5b565b91507f5361666545524332303a2063616c6c20746f206e6f6e2d636f6e7472616374006000830152602082019050919050565b62000c448162000dac565b82525050565b600062000c58828462000aae565b915081905092915050565b600060408201905062000c7a600083018562000a9d565b62000c89602083018462000a9d565b9392505050565b600060408201905062000ca7600083018562000a9d565b62000cb6602083018462000c39565b9392505050565b6000602082019050818103600083015262000cd88162000ae5565b9050919050565b6000602082019050818103600083015262000cfa8162000b27565b9050919050565b6000602082019050818103600083015262000d1c8162000b8f565b9050919050565b6000602082019050818103600083015262000d3e8162000bf7565b9050919050565b600081519050919050565b600081905092915050565b600082825260208201905092915050565b600062000d798262000d8c565b9050919050565b60008115159050919050565b600073ffffffffffffffffffffffffffffffffffffffff82169050919050565b6000819050919050565b60005b8381101562000dd657808201518184015260208101905062000db9565b8381111562000de6576000848401525b50505050565b62000df78162000d80565b811462000e0357600080fd5b50565b62000e118162000dac565b811462000e1d57600080fd5b50565b615d008062000e306000396000f3fe6080604052600436106101405760003560e01c8063756bb1cc116100b6578063c54e44eb1161006f578063c54e44eb146103ff578063cc3bcaf31461042a578063db81f99b14610453578063e0bab4c41461047c578063f2fde38b146104a7578063f60a15ed146104d057610140565b8063756bb1cc1461031357806389a302711461033e5780638da5cb5b146103695780638f32d59b1461039457806399b71d5c146103bf5780639add7438146103d657610140565b80631ddf8cd8116101085780631ddf8cd8146102175780632e8d6e18146102545780633a3c3b871461027d5780633ea521ef146102a8578063484f4ea9146102d1578063715018a6146102fc57610140565b8063041401c81461014257806304d841081461016b57806306bafb491461019657806317e5a9a4146101c157806319d9e008146101ec575b005b34801561014e57600080fd5b5061016960048036036101649190810190614b1d565b6104e7565b005b34801561017757600080fd5b506101806107c6565b60405161018d919061538b565b60405180910390f35b3480156101a257600080fd5b506101ab6107ec565b6040516101b8919061538b565b60405180910390f35b3480156101cd57600080fd5b506101d6610812565b6040516101e3919061538b565b60405180910390f35b3480156101f857600080fd5b50610201610838565b60405161020e919061538b565b60405180910390f35b34801561022357600080fd5b5061023e60048036036102399190810190614b6f565b61085e565b60405161024b919061544a565b60405180910390f35b34801561026057600080fd5b5061027b60048036036102769190810190614af4565b6109b5565b005b34801561028957600080fd5b50610292610ab8565b60405161029f919061538b565b60405180910390f35b3480156102b457600080fd5b506102cf60048036036102ca9190810190614b1d565b610ade565b005b3480156102dd57600080fd5b506102e661174b565b6040516102f3919061538b565b60405180910390f35b34801561030857600080fd5b50610311611771565b005b34801561031f57600080fd5b50610328611879565b604051610335919061538b565b60405180910390f35b34801561034a57600080fd5b5061035361189f565b604051610360919061538b565b60405180910390f35b34801561037557600080fd5b5061037e6118c5565b60405161038b919061538b565b60405180910390f35b3480156103a057600080fd5b506103a96118ef565b6040516103b6919061544a565b60405180910390f35b3480156103cb57600080fd5b506103d461194e565b005b3480156103e257600080fd5b506103fd60048036036103f89190810190614b1d565b611b8c565b005b34801561040b57600080fd5b506104146127f5565b604051610421919061538b565b60405180910390f35b34801561043657600080fd5b50610451600480360361044c9190810190614b1d565b61281b565b005b34801561045f57600080fd5b5061047a60048036036104759190810190614b1d565b613484565b005b34801561048857600080fd5b506104916140f1565b60405161049e919061538b565b60405180910390f35b3480156104b357600080fd5b506104ce60048036036104c99190810190614aa2565b614117565b005b3480156104dc57600080fd5b506104e561416a565b005b6000811161052a576040517f08c379a0000000000000000000000000000000000000000000000000000000008152600401610521906159a3565b60405180910390fd5b610579333083600b60009054906101000a900473ffffffffffffffffffffffffffffffffffffffff1673ffffffffffffffffffffffffffffffffffffffff16614277909392919063ffffffff16565b600a60009054906101000a900473ffffffffffffffffffffffffffffffffffffffff1673ffffffffffffffffffffffffffffffffffffffff16637d49d875600b60009054906101000a900473ffffffffffffffffffffffffffffffffffffffff1673ffffffffffffffffffffffffffffffffffffffff166370a08231306040518263ffffffff1660e01b815260040161061291906153a6565b60206040518083038186803b15801561062a57600080fd5b505afa15801561063e573d6000803e3d6000fd5b505050506040513d601f19601f820116820180604052506106629190810190614b46565b604051806080016040528060008152602001600081526020016000815260200160008152506040518363ffffffff1660e01b81526004016106a4929190615a9e565b600060405180830381600087803b1580156106be57600080fd5b505af11580156106d2573d6000803e3d6000fd5b505050506000600b60009054906101000a900473ffffffffffffffffffffffffffffffffffffffff1673ffffffffffffffffffffffffffffffffffffffff166370a08231306040518263ffffffff1660e01b815260040161073391906153a6565b60206040518083038186803b15801561074b57600080fd5b505afa15801561075f573d6000803e3d6000fd5b505050506040513d601f19601f820116820180604052506107839190810190614b46565b146107c3576040517f08c379a00000000000000000000000000000000000000000000000000000000081526004016107ba90615903565b60405180910390fd5b50565b600a60009054906101000a900473ffffffffffffffffffffffffffffffffffffffff1681565b600960009054906101000a900473ffffffffffffffffffffffffffffffffffffffff1681565b600760009054906101000a900473ffffffffffffffffffffffffffffffffffffffff1681565b600560009054906101000a900473ffffffffffffffffffffffffffffffffffffffff1681565b6000806108fc838573ffffffffffffffffffffffffffffffffffffffff166370a08231306040518263ffffffff1660e01b815260040161089e91906153a6565b60206040518083038186803b1580156108b657600080fd5b505afa1580156108ca573d6000803e3d6000fd5b505050506040513d601f19601f820116820180604052506108ee9190810190614b46565b61431990919063ffffffff16565b90506000610927606461091960058961431990919063ffffffff16565b61438990919063ffffffff16565b9050600061093e82886143d390919063ffffffff16565b90506000610955838961441d90919063ffffffff16565b90508084111580156109675750818410155b6109a6576040517f08c379a000000000000000000000000000000000000000000000000000000000815260040161099d906159c3565b60405180910390fd5b60019450505050509392505050565b6109bd6118ef565b6109fc576040517f08c379a00000000000000000000000000000000000000000000000000000000081526004016109f390615963565b60405180910390fd5b60008173ffffffffffffffffffffffffffffffffffffffff166370a08231306040518263ffffffff1660e01b8152600401610a3791906153a6565b60206040518083038186803b158015610a4f57600080fd5b505afa158015610a63573d6000803e3d6000fd5b505050506040513d601f19601f82011682018060405250610a879190810190614b46565b9050610ab433828473ffffffffffffffffffffffffffffffffffffffff166144729092919063ffffffff16565b5050565b600b60009054906101000a900473ffffffffffffffffffffffffffffffffffffffff1681565b60016000808282540192505081905550600080549050610afd826104e7565b6000600360009054906101000a900473ffffffffffffffffffffffffffffffffffffffff1673ffffffffffffffffffffffffffffffffffffffff166370a08231306040518263ffffffff1660e01b8152600401610b5a91906153a6565b60206040518083038186803b158015610b7257600080fd5b505afa158015610b86573d6000803e3d6000fd5b505050506040513d601f19601f82011682018060405250610baa9190810190614b46565b90506000600560009054906101000a900473ffffffffffffffffffffffffffffffffffffffff1673ffffffffffffffffffffffffffffffffffffffff166370a08231306040518263ffffffff1660e01b8152600401610c0991906153a6565b60206040518083038186803b158015610c2157600080fd5b505afa158015610c35573d6000803e3d6000fd5b505050506040513d601f19601f82011682018060405250610c599190810190614b46565b90506000600760009054906101000a900473ffffffffffffffffffffffffffffffffffffffff1673ffffffffffffffffffffffffffffffffffffffff166370a08231306040518263ffffffff1660e01b8152600401610cb891906153a6565b60206040518083038186803b158015610cd057600080fd5b505afa158015610ce4573d6000803e3d6000fd5b505050506040513d601f19601f82011682018060405250610d089190810190614b46565b90506000600960009054906101000a900473ffffffffffffffffffffffffffffffffffffffff1673ffffffffffffffffffffffffffffffffffffffff166370a08231306040518263ffffffff1660e01b8152600401610d6791906153a6565b60206040518083038186803b158015610d7f57600080fd5b505afa158015610d93573d6000803e3d6000fd5b505050506040513d601f19601f82011682018060405250610db79190810190614b46565b90506000841180610dc85750600083115b80610dd35750600082115b80610dde5750600081115b610e1d576040517f08c379a0000000000000000000000000000000000000000000000000000000008152600401610e14906157e3565b60405180910390fd5b6000841115610faa57600a60009054906101000a900473ffffffffffffffffffffffffffffffffffffffff1673ffffffffffffffffffffffffffffffffffffffff16633df02124600060028760006040518563ffffffff1660e01b8152600401610e8a94939291906154aa565b600060405180830381600087803b158015610ea457600080fd5b505af1158015610eb8573d6000803e3d6000fd5b505050506000600360009054906101000a900473ffffffffffffffffffffffffffffffffffffffff1673ffffffffffffffffffffffffffffffffffffffff166370a08231306040518263ffffffff1660e01b8152600401610f1991906153a6565b60206040518083038186803b158015610f3157600080fd5b505afa158015610f45573d6000803e3d6000fd5b505050506040513d601f19601f82011682018060405250610f699190810190614b46565b14610fa9576040517f08c379a0000000000000000000000000000000000000000000000000000000008152600401610fa090615a23565b60405180910390fd5b5b600083111561113757600a60009054906101000a900473ffffffffffffffffffffffffffffffffffffffff1673ffffffffffffffffffffffffffffffffffffffff16633df02124600160028660006040518563ffffffff1660e01b81526004016110179493929190615579565b600060405180830381600087803b15801561103157600080fd5b505af1158015611045573d6000803e3d6000fd5b505050506000600560009054906101000a900473ffffffffffffffffffffffffffffffffffffffff1673ffffffffffffffffffffffffffffffffffffffff166370a08231306040518263ffffffff1660e01b81526004016110a691906153a6565b60206040518083038186803b1580156110be57600080fd5b505afa1580156110d2573d6000803e3d6000fd5b505050506040513d601f19601f820116820180604052506110f69190810190614b46565b14611136576040517f08c379a000000000000000000000000000000000000000000000000000000000815260040161112d906158c3565b60405180910390fd5b5b60008111156112c457600a60009054906101000a900473ffffffffffffffffffffffffffffffffffffffff1673ffffffffffffffffffffffffffffffffffffffff16633df02124600360028460006040518563ffffffff1660e01b81526004016111a4949392919061575c565b600060405180830381600087803b1580156111be57600080fd5b505af11580156111d2573d6000803e3d6000fd5b505050506000600960009054906101000a900473ffffffffffffffffffffffffffffffffffffffff1673ffffffffffffffffffffffffffffffffffffffff166370a08231306040518263ffffffff1660e01b815260040161123391906153a6565b60206040518083038186803b15801561124b57600080fd5b505afa15801561125f573d6000803e3d6000fd5b505050506040513d601f19601f820116820180604052506112839190810190614b46565b146112c3576040517f08c379a00000000000000000000000000000000000000000000000000000000081526004016112ba90615943565b60405180910390fd5b5b600760009054906101000a900473ffffffffffffffffffffffffffffffffffffffff1673ffffffffffffffffffffffffffffffffffffffff16632e1a7d4d600760009054906101000a900473ffffffffffffffffffffffffffffffffffffffff1673ffffffffffffffffffffffffffffffffffffffff166370a08231306040518263ffffffff1660e01b815260040161135d91906153a6565b60206040518083038186803b15801561137557600080fd5b505afa158015611389573d6000803e3d6000fd5b505050506040513d601f19601f820116820180604052506113ad9190810190614b46565b6040518263ffffffff1660e01b81526004016113c99190615a83565b600060405180830381600087803b1580156113e357600080fd5b505af11580156113f7573d6000803e3d6000fd5b505050506000600760009054906101000a900473ffffffffffffffffffffffffffffffffffffffff1673ffffffffffffffffffffffffffffffffffffffff166370a08231306040518263ffffffff1660e01b815260040161145891906153a6565b60206040518083038186803b15801561147057600080fd5b505afa158015611484573d6000803e3d6000fd5b505050506040513d601f19601f820116820180604052506114a89190810190614b46565b146114e8576040517f08c379a00000000000000000000000000000000000000000000000000000000081526004016114df906158a3565b60405180910390fd5b61151a86600660009054906101000a900473ffffffffffffffffffffffffffffffffffffffff1664e8d4a5100061085e565b5061161233600660009054906101000a900473ffffffffffffffffffffffffffffffffffffffff1673ffffffffffffffffffffffffffffffffffffffff166370a08231306040518263ffffffff1660e01b815260040161157a91906153a6565b60206040518083038186803b15801561159257600080fd5b505afa1580156115a6573d6000803e3d6000fd5b505050506040513d601f19601f820116820180604052506115ca9190810190614b46565b600660009054906101000a900473ffffffffffffffffffffffffffffffffffffffff1673ffffffffffffffffffffffffffffffffffffffff166144729092919063ffffffff16565b6000600660009054906101000a900473ffffffffffffffffffffffffffffffffffffffff1673ffffffffffffffffffffffffffffffffffffffff166370a08231306040518263ffffffff1660e01b815260040161166f91906153a6565b60206040518083038186803b15801561168757600080fd5b505afa15801561169b573d6000803e3d6000fd5b505050506040513d601f19601f820116820180604052506116bf9190810190614b46565b146116ff576040517f08c379a00000000000000000000000000000000000000000000000000000000081526004016116f690615843565b60405180910390fd5b505050506000548114611747576040517f08c379a000000000000000000000000000000000000000000000000000000000815260040161173e90615a03565b60405180910390fd5b5050565b600860009054906101000a900473ffffffffffffffffffffffffffffffffffffffff1681565b6117796118ef565b6117b8576040517f08c379a00000000000000000000000000000000000000000000000000000000081526004016117af90615963565b60405180910390fd5b600073ffffffffffffffffffffffffffffffffffffffff16600160009054906101000a900473ffffffffffffffffffffffffffffffffffffffff1673ffffffffffffffffffffffffffffffffffffffff167f8be0079c531659141344cd1fd0a4f28419497f9722a3daafe3b4186f6b6457e060405160405180910390a36000600160006101000a81548173ffffffffffffffffffffffffffffffffffffffff021916908373ffffffffffffffffffffffffffffffffffffffff160217905550565b600360009054906101000a900473ffffffffffffffffffffffffffffffffffffffff1681565b600460009054906101000a900473ffffffffffffffffffffffffffffffffffffffff1681565b6000600160009054906101000a900473ffffffffffffffffffffffffffffffffffffffff16905090565b6000600160009054906101000a900473ffffffffffffffffffffffffffffffffffffffff1673ffffffffffffffffffffffffffffffffffffffff16611932614511565b73ffffffffffffffffffffffffffffffffffffffff1614905090565b6119dd600a60009054906101000a900473ffffffffffffffffffffffffffffffffffffffff167fffffffffffffffffffffffffffffffffffffffffffffffffffffffffffffffff600360009054906101000a900473ffffffffffffffffffffffffffffffffffffffff1673ffffffffffffffffffffffffffffffffffffffff166145199092919063ffffffff16565b611a6c600a60009054906101000a900473ffffffffffffffffffffffffffffffffffffffff167fffffffffffffffffffffffffffffffffffffffffffffffffffffffffffffffff600560009054906101000a900473ffffffffffffffffffffffffffffffffffffffff1673ffffffffffffffffffffffffffffffffffffffff166145199092919063ffffffff16565b611afb600a60009054906101000a900473ffffffffffffffffffffffffffffffffffffffff167fffffffffffffffffffffffffffffffffffffffffffffffffffffffffffffffff600760009054906101000a900473ffffffffffffffffffffffffffffffffffffffff1673ffffffffffffffffffffffffffffffffffffffff166145199092919063ffffffff16565b611b8a600a60009054906101000a900473ffffffffffffffffffffffffffffffffffffffff167fffffffffffffffffffffffffffffffffffffffffffffffffffffffffffffffff600960009054906101000a900473ffffffffffffffffffffffffffffffffffffffff1673ffffffffffffffffffffffffffffffffffffffff166145199092919063ffffffff16565b565b60016000808282540192505081905550600080549050611bab826104e7565b6000600360009054906101000a900473ffffffffffffffffffffffffffffffffffffffff1673ffffffffffffffffffffffffffffffffffffffff166370a08231306040518263ffffffff1660e01b8152600401611c0891906153a6565b60206040518083038186803b158015611c2057600080fd5b505afa158015611c34573d6000803e3d6000fd5b505050506040513d601f19601f82011682018060405250611c589190810190614b46565b90506000600560009054906101000a900473ffffffffffffffffffffffffffffffffffffffff1673ffffffffffffffffffffffffffffffffffffffff166370a08231306040518263ffffffff1660e01b8152600401611cb791906153a6565b60206040518083038186803b158015611ccf57600080fd5b505afa158015611ce3573d6000803e3d6000fd5b505050506040513d601f19601f82011682018060405250611d079190810190614b46565b90506000600760009054906101000a900473ffffffffffffffffffffffffffffffffffffffff1673ffffffffffffffffffffffffffffffffffffffff166370a08231306040518263ffffffff1660e01b8152600401611d6691906153a6565b60206040518083038186803b158015611d7e57600080fd5b505afa158015611d92573d6000803e3d6000fd5b505050506040513d601f19601f82011682018060405250611db69190810190614b46565b90506000600960009054906101000a900473ffffffffffffffffffffffffffffffffffffffff1673ffffffffffffffffffffffffffffffffffffffff166370a08231306040518263ffffffff1660e01b8152600401611e1591906153a6565b60206040518083038186803b158015611e2d57600080fd5b505afa158015611e41573d6000803e3d6000fd5b505050506040513d601f19601f82011682018060405250611e659190810190614b46565b90506000841180611e765750600083115b80611e815750600082115b80611e8c5750600081115b611ecb576040517f08c379a0000000000000000000000000000000000000000000000000000000008152600401611ec2906157e3565b60405180910390fd5b600083111561205857600a60009054906101000a900473ffffffffffffffffffffffffffffffffffffffff1673ffffffffffffffffffffffffffffffffffffffff16633df02124600160008660006040518563ffffffff1660e01b8152600401611f389493929190615534565b600060405180830381600087803b158015611f5257600080fd5b505af1158015611f66573d6000803e3d6000fd5b505050506000600560009054906101000a900473ffffffffffffffffffffffffffffffffffffffff1673ffffffffffffffffffffffffffffffffffffffff166370a08231306040518263ffffffff1660e01b8152600401611fc791906153a6565b60206040518083038186803b158015611fdf57600080fd5b505afa158015611ff3573d6000803e3d6000fd5b505050506040513d601f19601f820116820180604052506120179190810190614b46565b14612057576040517f08c379a000000000000000000000000000000000000000000000000000000000815260040161204e906158c3565b60405180910390fd5b5b60008211156121e557600a60009054906101000a900473ffffffffffffffffffffffffffffffffffffffff1673ffffffffffffffffffffffffffffffffffffffff16633df02124600260008560006040518563ffffffff1660e01b81526004016120c59493929190615603565b600060405180830381600087803b1580156120df57600080fd5b505af11580156120f3573d6000803e3d6000fd5b505050506000600760009054906101000a900473ffffffffffffffffffffffffffffffffffffffff1673ffffffffffffffffffffffffffffffffffffffff166370a08231306040518263ffffffff1660e01b815260040161215491906153a6565b60206040518083038186803b15801561216c57600080fd5b505afa158015612180573d6000803e3d6000fd5b505050506040513d601f19601f820116820180604052506121a49190810190614b46565b146121e4576040517f08c379a00000000000000000000000000000000000000000000000000000000081526004016121db906158a3565b60405180910390fd5b5b600081111561237257600a60009054906101000a900473ffffffffffffffffffffffffffffffffffffffff1673ffffffffffffffffffffffffffffffffffffffff16633df02124600360008460006040518563ffffffff1660e01b815260040161225294939291906156d2565b600060405180830381600087803b15801561226c57600080fd5b505af1158015612280573d6000803e3d6000fd5b505050506000600960009054906101000a900473ffffffffffffffffffffffffffffffffffffffff1673ffffffffffffffffffffffffffffffffffffffff166370a08231306040518263ffffffff1660e01b81526004016122e191906153a6565b60206040518083038186803b1580156122f957600080fd5b505afa15801561230d573d6000803e3d6000fd5b505050506040513d601f19601f820116820180604052506123319190810190614b46565b14612371576040517f08c379a000000000000000000000000000000000000000000000000000000000815260040161236890615943565b60405180910390fd5b5b600360009054906101000a900473ffffffffffffffffffffffffffffffffffffffff1673ffffffffffffffffffffffffffffffffffffffff16632e1a7d4d600360009054906101000a900473ffffffffffffffffffffffffffffffffffffffff1673ffffffffffffffffffffffffffffffffffffffff166370a08231306040518263ffffffff1660e01b815260040161240b91906153a6565b60206040518083038186803b15801561242357600080fd5b505afa158015612437573d6000803e3d6000fd5b505050506040513d601f19601f8201168201806040525061245b9190810190614b46565b6040518263ffffffff1660e01b81526004016124779190615a83565b600060405180830381600087803b15801561249157600080fd5b505af11580156124a5573d6000803e3d6000fd5b505050506000600360009054906101000a900473ffffffffffffffffffffffffffffffffffffffff1673ffffffffffffffffffffffffffffffffffffffff166370a08231306040518263ffffffff1660e01b815260040161250691906153a6565b60206040518083038186803b15801561251e57600080fd5b505afa158015612532573d6000803e3d6000fd5b505050506040513d601f19601f820116820180604052506125569190810190614b46565b14612596576040517f08c379a000000000000000000000000000000000000000000000000000000000815260040161258d90615a23565b60405180910390fd5b6125c486600260009054906101000a900473ffffffffffffffffffffffffffffffffffffffff16600161085e565b506126bc33600260009054906101000a900473ffffffffffffffffffffffffffffffffffffffff1673ffffffffffffffffffffffffffffffffffffffff166370a08231306040518263ffffffff1660e01b815260040161262491906153a6565b60206040518083038186803b15801561263c57600080fd5b505afa158015612650573d6000803e3d6000fd5b505050506040513d601f19601f820116820180604052506126749190810190614b46565b600260009054906101000a900473ffffffffffffffffffffffffffffffffffffffff1673ffffffffffffffffffffffffffffffffffffffff166144729092919063ffffffff16565b6000600260009054906101000a900473ffffffffffffffffffffffffffffffffffffffff1673ffffffffffffffffffffffffffffffffffffffff166370a08231306040518263ffffffff1660e01b815260040161271991906153a6565b60206040518083038186803b15801561273157600080fd5b505afa158015612745573d6000803e3d6000fd5b505050506040513d601f19601f820116820180604052506127699190810190614b46565b146127a9576040517f08c379a00000000000000000000000000000000000000000000000000000000081526004016127a0906157c3565b60405180910390fd5b5050505060005481146127f1576040517f08c379a00000000000000000000000000000000000000000000000000000000081526004016127e890615a03565b60405180910390fd5b5050565b600660009054906101000a900473ffffffffffffffffffffffffffffffffffffffff1681565b6001600080828254019250508190555060008054905061283a826104e7565b6000600360009054906101000a900473ffffffffffffffffffffffffffffffffffffffff1673ffffffffffffffffffffffffffffffffffffffff166370a08231306040518263ffffffff1660e01b815260040161289791906153a6565b60206040518083038186803b1580156128af57600080fd5b505afa1580156128c3573d6000803e3d6000fd5b505050506040513d601f19601f820116820180604052506128e79190810190614b46565b90506000600560009054906101000a900473ffffffffffffffffffffffffffffffffffffffff1673ffffffffffffffffffffffffffffffffffffffff166370a08231306040518263ffffffff1660e01b815260040161294691906153a6565b60206040518083038186803b15801561295e57600080fd5b505afa158015612972573d6000803e3d6000fd5b505050506040513d601f19601f820116820180604052506129969190810190614b46565b90506000600760009054906101000a900473ffffffffffffffffffffffffffffffffffffffff1673ffffffffffffffffffffffffffffffffffffffff166370a08231306040518263ffffffff1660e01b81526004016129f591906153a6565b60206040518083038186803b158015612a0d57600080fd5b505afa158015612a21573d6000803e3d6000fd5b505050506040513d601f19601f82011682018060405250612a459190810190614b46565b90506000600960009054906101000a900473ffffffffffffffffffffffffffffffffffffffff1673ffffffffffffffffffffffffffffffffffffffff166370a08231306040518263ffffffff1660e01b8152600401612aa491906153a6565b60206040518083038186803b158015612abc57600080fd5b505afa158015612ad0573d6000803e3d6000fd5b505050506040513d601f19601f82011682018060405250612af49190810190614b46565b90506000841180612b055750600083115b80612b105750600082115b80612b1b5750600081115b612b5a576040517f08c379a0000000000000000000000000000000000000000000000000000000008152600401612b51906157e3565b60405180910390fd5b6000841115612ce757600a60009054906101000a900473ffffffffffffffffffffffffffffffffffffffff1673ffffffffffffffffffffffffffffffffffffffff16633df02124600060038760006040518563ffffffff1660e01b8152600401612bc794939291906154ef565b600060405180830381600087803b158015612be157600080fd5b505af1158015612bf5573d6000803e3d6000fd5b505050506000600360009054906101000a900473ffffffffffffffffffffffffffffffffffffffff1673ffffffffffffffffffffffffffffffffffffffff166370a08231306040518263ffffffff1660e01b8152600401612c5691906153a6565b60206040518083038186803b158015612c6e57600080fd5b505afa158015612c82573d6000803e3d6000fd5b505050506040513d601f19601f82011682018060405250612ca69190810190614b46565b14612ce6576040517f08c379a0000000000000000000000000000000000000000000000000000000008152600401612cdd90615a23565b60405180910390fd5b5b6000831115612e7457600a60009054906101000a900473ffffffffffffffffffffffffffffffffffffffff1673ffffffffffffffffffffffffffffffffffffffff16633df02124600160038660006040518563ffffffff1660e01b8152600401612d5494939291906155be565b600060405180830381600087803b158015612d6e57600080fd5b505af1158015612d82573d6000803e3d6000fd5b505050506000600560009054906101000a900473ffffffffffffffffffffffffffffffffffffffff1673ffffffffffffffffffffffffffffffffffffffff166370a08231306040518263ffffffff1660e01b8152600401612de391906153a6565b60206040518083038186803b158015612dfb57600080fd5b505afa158015612e0f573d6000803e3d6000fd5b505050506040513d601f19601f82011682018060405250612e339190810190614b46565b14612e73576040517f08c379a0000000000000000000000000000000000000000000000000000000008152600401612e6a906158c3565b60405180910390fd5b5b600082111561300157600a60009054906101000a900473ffffffffffffffffffffffffffffffffffffffff1673ffffffffffffffffffffffffffffffffffffffff16633df02124600260038560006040518563ffffffff1660e01b8152600401612ee1949392919061568d565b600060405180830381600087803b158015612efb57600080fd5b505af1158015612f0f573d6000803e3d6000fd5b505050506000600760009054906101000a900473ffffffffffffffffffffffffffffffffffffffff1673ffffffffffffffffffffffffffffffffffffffff166370a08231306040518263ffffffff1660e01b8152600401612f7091906153a6565b60206040518083038186803b158015612f8857600080fd5b505afa158015612f9c573d6000803e3d6000fd5b505050506040513d601f19601f82011682018060405250612fc09190810190614b46565b14613000576040517f08c379a0000000000000000000000000000000000000000000000000000000008152600401612ff7906158a3565b60405180910390fd5b5b600960009054906101000a900473ffffffffffffffffffffffffffffffffffffffff1673ffffffffffffffffffffffffffffffffffffffff16632e1a7d4d600960009054906101000a900473ffffffffffffffffffffffffffffffffffffffff1673ffffffffffffffffffffffffffffffffffffffff166370a08231306040518263ffffffff1660e01b815260040161309a91906153a6565b60206040518083038186803b1580156130b257600080fd5b505afa1580156130c6573d6000803e3d6000fd5b505050506040513d601f19601f820116820180604052506130ea9190810190614b46565b6040518263ffffffff1660e01b81526004016131069190615a83565b600060405180830381600087803b15801561312057600080fd5b505af1158015613134573d6000803e3d6000fd5b505050506000600960009054906101000a900473ffffffffffffffffffffffffffffffffffffffff1673ffffffffffffffffffffffffffffffffffffffff166370a08231306040518263ffffffff1660e01b815260040161319591906153a6565b60206040518083038186803b1580156131ad57600080fd5b505afa1580156131c1573d6000803e3d6000fd5b505050506040513d601f19601f820116820180604052506131e59190810190614b46565b14613225576040517f08c379a000000000000000000000000000000000000000000000000000000000815260040161321c90615943565b60405180910390fd5b61325386600860009054906101000a900473ffffffffffffffffffffffffffffffffffffffff16600161085e565b5061334b33600860009054906101000a900473ffffffffffffffffffffffffffffffffffffffff1673ffffffffffffffffffffffffffffffffffffffff166370a08231306040518263ffffffff1660e01b81526004016132b391906153a6565b60206040518083038186803b1580156132cb57600080fd5b505afa1580156132df573d6000803e3d6000fd5b505050506040513d601f19601f820116820180604052506133039190810190614b46565b600860009054906101000a900473ffffffffffffffffffffffffffffffffffffffff1673ffffffffffffffffffffffffffffffffffffffff166144729092919063ffffffff16565b6000600860009054906101000a900473ffffffffffffffffffffffffffffffffffffffff1673ffffffffffffffffffffffffffffffffffffffff166370a08231306040518263ffffffff1660e01b81526004016133a891906153a6565b60206040518083038186803b1580156133c057600080fd5b505afa1580156133d4573d6000803e3d6000fd5b505050506040513d601f19601f820116820180604052506133f89190810190614b46565b14613438576040517f08c379a000000000000000000000000000000000000000000000000000000000815260040161342f90615823565b60405180910390fd5b505050506000548114613480576040517f08c379a000000000000000000000000000000000000000000000000000000000815260040161347790615a03565b60405180910390fd5b5050565b600160008082825401925050819055506000805490506134a3826104e7565b6000600360009054906101000a900473ffffffffffffffffffffffffffffffffffffffff1673ffffffffffffffffffffffffffffffffffffffff166370a08231306040518263ffffffff1660e01b815260040161350091906153a6565b60206040518083038186803b15801561351857600080fd5b505afa15801561352c573d6000803e3d6000fd5b505050506040513d601f19601f820116820180604052506135509190810190614b46565b90506000600560009054906101000a900473ffffffffffffffffffffffffffffffffffffffff1673ffffffffffffffffffffffffffffffffffffffff166370a08231306040518263ffffffff1660e01b81526004016135af91906153a6565b60206040518083038186803b1580156135c757600080fd5b505afa1580156135db573d6000803e3d6000fd5b505050506040513d601f19601f820116820180604052506135ff9190810190614b46565b90506000600760009054906101000a900473ffffffffffffffffffffffffffffffffffffffff1673ffffffffffffffffffffffffffffffffffffffff166370a08231306040518263ffffffff1660e01b815260040161365e91906153a6565b60206040518083038186803b15801561367657600080fd5b505afa15801561368a573d6000803e3d6000fd5b505050506040513d601f19601f820116820180604052506136ae9190810190614b46565b90506000600960009054906101000a900473ffffffffffffffffffffffffffffffffffffffff1673ffffffffffffffffffffffffffffffffffffffff166370a08231306040518263ffffffff1660e01b815260040161370d91906153a6565b60206040518083038186803b15801561372557600080fd5b505afa158015613739573d6000803e3d6000fd5b505050506040513d601f19601f8201168201806040525061375d9190810190614b46565b9050600084118061376e5750600083115b806137795750600082115b806137845750600081115b6137c3576040517f08c379a00000000000000000000000000000000000000000000000000000000081526004016137ba906157e3565b60405180910390fd5b600084111561395057600a60009054906101000a900473ffffffffffffffffffffffffffffffffffffffff1673ffffffffffffffffffffffffffffffffffffffff16633df02124600060018760006040518563ffffffff1660e01b81526004016138309493929190615465565b600060405180830381600087803b15801561384a57600080fd5b505af115801561385e573d6000803e3d6000fd5b505050506000600360009054906101000a900473ffffffffffffffffffffffffffffffffffffffff1673ffffffffffffffffffffffffffffffffffffffff166370a08231306040518263ffffffff1660e01b81526004016138bf91906153a6565b60206040518083038186803b1580156138d757600080fd5b505afa1580156138eb573d6000803e3d6000fd5b505050506040513d601f19601f8201168201806040525061390f9190810190614b46565b1461394f576040517f08c379a000000000000000000000000000000000000000000000000000000000815260040161394690615a23565b60405180910390fd5b5b6000821115613add57600a60009054906101000a900473ffffffffffffffffffffffffffffffffffffffff1673ffffffffffffffffffffffffffffffffffffffff16633df02124600260018560006040518563ffffffff1660e01b81526004016139bd9493929190615648565b600060405180830381600087803b1580156139d757600080fd5b505af11580156139eb573d6000803e3d6000fd5b505050506000600760009054906101000a900473ffffffffffffffffffffffffffffffffffffffff1673ffffffffffffffffffffffffffffffffffffffff166370a08231306040518263ffffffff1660e01b8152600401613a4c91906153a6565b60206040518083038186803b158015613a6457600080fd5b505afa158015613a78573d6000803e3d6000fd5b505050506040513d601f19601f82011682018060405250613a9c9190810190614b46565b14613adc576040517f08c379a0000000000000000000000000000000000000000000000000000000008152600401613ad3906158a3565b60405180910390fd5b5b6000811115613c6a57600a60009054906101000a900473ffffffffffffffffffffffffffffffffffffffff1673ffffffffffffffffffffffffffffffffffffffff16633df02124600360018460006040518563ffffffff1660e01b8152600401613b4a9493929190615717565b600060405180830381600087803b158015613b6457600080fd5b505af1158015613b78573d6000803e3d6000fd5b505050506000600960009054906101000a900473ffffffffffffffffffffffffffffffffffffffff1673ffffffffffffffffffffffffffffffffffffffff166370a08231306040518263ffffffff1660e01b8152600401613bd991906153a6565b60206040518083038186803b158015613bf157600080fd5b505afa158015613c05573d6000803e3d6000fd5b505050506040513d601f19601f82011682018060405250613c299190810190614b46565b14613c69576040517f08c379a0000000000000000000000000000000000000000000000000000000008152600401613c6090615943565b60405180910390fd5b5b600560009054906101000a900473ffffffffffffffffffffffffffffffffffffffff1673ffffffffffffffffffffffffffffffffffffffff16632e1a7d4d600560009054906101000a900473ffffffffffffffffffffffffffffffffffffffff1673ffffffffffffffffffffffffffffffffffffffff166370a08231306040518263ffffffff1660e01b8152600401613d0391906153a6565b60206040518083038186803b158015613d1b57600080fd5b505afa158015613d2f573d6000803e3d6000fd5b505050506040513d601f19601f82011682018060405250613d539190810190614b46565b6040518263ffffffff1660e01b8152600401613d6f9190615a83565b600060405180830381600087803b158015613d8957600080fd5b505af1158015613d9d573d6000803e3d6000fd5b505050506000600560009054906101000a900473ffffffffffffffffffffffffffffffffffffffff1673ffffffffffffffffffffffffffffffffffffffff166370a08231306040518263ffffffff1660e01b8152600401613dfe91906153a6565b60206040518083038186803b158015613e1657600080fd5b505afa158015613e2a573d6000803e3d6000fd5b505050506040513d601f19601f82011682018060405250613e4e9190810190614b46565b14613e8e576040517f08c379a0000000000000000000000000000000000000000000000000000000008152600401613e85906158c3565b60405180910390fd5b613ec086600460009054906101000a900473ffffffffffffffffffffffffffffffffffffffff1664e8d4a5100061085e565b50613fb833600460009054906101000a900473ffffffffffffffffffffffffffffffffffffffff1673ffffffffffffffffffffffffffffffffffffffff166370a08231306040518263ffffffff1660e01b8152600401613f2091906153a6565b60206040518083038186803b158015613f3857600080fd5b505afa158015613f4c573d6000803e3d6000fd5b505050506040513d601f19601f82011682018060405250613f709190810190614b46565b600460009054906101000a900473ffffffffffffffffffffffffffffffffffffffff1673ffffffffffffffffffffffffffffffffffffffff166144729092919063ffffffff16565b6000600460009054906101000a900473ffffffffffffffffffffffffffffffffffffffff1673ffffffffffffffffffffffffffffffffffffffff166370a08231306040518263ffffffff1660e01b815260040161401591906153a6565b60206040518083038186803b15801561402d57600080fd5b505afa158015614041573d6000803e3d6000fd5b505050506040513d601f19601f820116820180604052506140659190810190614b46565b146140a5576040517f08c379a000000000000000000000000000000000000000000000000000000000815260040161409c90615983565b60405180910390fd5b5050505060005481146140ed576040517f08c379a00000000000000000000000000000000000000000000000000000000081526004016140e490615a03565b60405180910390fd5b5050565b600260009054906101000a900473ffffffffffffffffffffffffffffffffffffffff1681565b61411f6118ef565b61415e576040517f08c379a000000000000000000000000000000000000000000000000000000000815260040161415590615963565b60405180910390fd5b61416781614690565b50565b6141726118ef565b6141b1576040517f08c379a00000000000000000000000000000000000000000000000000000000081526004016141a890615963565b60405180910390fd5b60003373ffffffffffffffffffffffffffffffffffffffff163073ffffffffffffffffffffffffffffffffffffffff16316040516141ee90615376565b60006040518083038185875af1925050503d806000811461422b576040519150601f19603f3d011682016040523d82523d6000602084013e614230565b606091505b5050905080614274576040517f08c379a000000000000000000000000000000000000000000000000000000000815260040161426b906158e3565b60405180910390fd5b50565b614313848573ffffffffffffffffffffffffffffffffffffffff166323b872dd905060e01b8585856040516024016142b1939291906153ea565b604051602081830303815290604052907bffffffffffffffffffffffffffffffffffffffffffffffffffffffff19166020820180517bffffffffffffffffffffffffffffffffffffffffffffffffffffffff83818316178352505050506147c0565b50505050565b60008083141561432c5760009050614383565b600082840290508284828161433d57fe5b041461437e576040517f08c379a000000000000000000000000000000000000000000000000000000000815260040161437590615923565b60405180910390fd5b809150505b92915050565b60006143cb83836040518060400160405280601a81526020017f536166654d6174683a206469766973696f6e206279207a65726f000000000000815250614932565b905092915050565b600061441583836040518060400160405280601e81526020017f536166654d6174683a207375627472616374696f6e206f766572666c6f770000815250614993565b905092915050565b600080828401905083811015614468576040517f08c379a000000000000000000000000000000000000000000000000000000000815260040161445f90615863565b60405180910390fd5b8091505092915050565b61450c838473ffffffffffffffffffffffffffffffffffffffff1663a9059cbb905060e01b84846040516024016144aa929190615421565b604051602081830303815290604052907bffffffffffffffffffffffffffffffffffffffffffffffffffffffff19166020820180517bffffffffffffffffffffffffffffffffffffffffffffffffffffffff83818316178352505050506147c0565b505050565b600033905090565b60008114806145b2575060008373ffffffffffffffffffffffffffffffffffffffff1663dd62ed3e30856040518363ffffffff1660e01b81526004016145609291906153c1565b60206040518083038186803b15801561457857600080fd5b505afa15801561458c573d6000803e3d6000fd5b505050506040513d601f19601f820116820180604052506145b09190810190614b46565b145b6145f1576040517f08c379a00000000000000000000000000000000000000000000000000000000081526004016145e890615a43565b60405180910390fd5b61468b838473ffffffffffffffffffffffffffffffffffffffff1663095ea7b3905060e01b8484604051602401614629929190615421565b604051602081830303815290604052907bffffffffffffffffffffffffffffffffffffffffffffffffffffffff19166020820180517bffffffffffffffffffffffffffffffffffffffffffffffffffffffff83818316178352505050506147c0565b505050565b600073ffffffffffffffffffffffffffffffffffffffff168173ffffffffffffffffffffffffffffffffffffffff161415614700576040517f08c379a00000000000000000000000000000000000000000000000000000000081526004016146f790615803565b60405180910390fd5b8073ffffffffffffffffffffffffffffffffffffffff16600160009054906101000a900473ffffffffffffffffffffffffffffffffffffffff1673ffffffffffffffffffffffffffffffffffffffff167f8be0079c531659141344cd1fd0a4f28419497f9722a3daafe3b4186f6b6457e060405160405180910390a380600160006101000a81548173ffffffffffffffffffffffffffffffffffffffff021916908373ffffffffffffffffffffffffffffffffffffffff16021790555050565b6147df8273ffffffffffffffffffffffffffffffffffffffff166149ee565b61481e576040517f08c379a000000000000000000000000000000000000000000000000000000000815260040161481590615a63565b60405180910390fd5b600060608373ffffffffffffffffffffffffffffffffffffffff1683604051614847919061535f565b6000604051808303816000865af19150503d8060008114614884576040519150601f19603f3d011682016040523d82523d6000602084013e614889565b606091505b5091509150816148ce576040517f08c379a00000000000000000000000000000000000000000000000000000000081526004016148c590615883565b60405180910390fd5b60008151111561492c57808060200190516148ec9190810190614acb565b61492b576040517f08c379a0000000000000000000000000000000000000000000000000000000008152600401614922906159e3565b60405180910390fd5b5b50505050565b60008083118290614979576040517f08c379a000000000000000000000000000000000000000000000000000000000815260040161497091906157a1565b60405180910390fd5b50600083858161498557fe5b049050809150509392505050565b60008383111582906149db576040517f08c379a00000000000000000000000000000000000000000000000000000000081526004016149d291906157a1565b60405180910390fd5b5060008385039050809150509392505050565b60008060007fc5d2460186f7233c927e7db2dcc703c0e500b653ca82273b7bfad8045d85a47060001b9050833f91506000801b8214158015614a305750808214155b92505050919050565b600081359050614a4881615c61565b92915050565b600081519050614a5d81615c78565b92915050565b600081359050614a7281615c8f565b92915050565b600081359050614a8781615ca6565b92915050565b600081519050614a9c81615ca6565b92915050565b600060208284031215614ab457600080fd5b6000614ac284828501614a39565b91505092915050565b600060208284031215614add57600080fd5b6000614aeb84828501614a4e565b91505092915050565b600060208284031215614b0657600080fd5b6000614b1484828501614a63565b91505092915050565b600060208284031215614b2f57600080fd5b6000614b3d84828501614a78565b91505092915050565b600060208284031215614b5857600080fd5b6000614b6684828501614a8d565b91505092915050565b600080600060608486031215614b8457600080fd5b6000614b9286828701614a78565b9350506020614ba386828701614a39565b9250506040614bb486828701614a78565b9150509250925092565b6000614bca8383615341565b60208301905092915050565b614bdf81615b8d565b82525050565b614bee81615b26565b82525050565b614bfd81615ad1565b614c078184615aff565b9250614c1282615ac7565b8060005b83811015614c43578151614c2a8782614bbe565b9650614c3583615af2565b925050600181019050614c16565b505050505050565b614c5481615b38565b82525050565b6000614c6582615adc565b614c6f8185615b0a565b9350614c7f818560208601615c1d565b80840191505092915050565b614c9481615b9f565b82525050565b614ca381615bb1565b82525050565b614cb281615bc3565b82525050565b614cc181615bd5565b82525050565b614cd081615be7565b82525050565b6000614ce182615ae7565b614ceb8185615b15565b9350614cfb818560208601615c1d565b614d0481615c50565b840191505092915050565b6000614d1c600d83615b15565b91507f4441492072656d61696e646572000000000000000000000000000000000000006000830152602082019050919050565b6000614d5c601183615b15565b91507f6e6f20792e746f6b656e7320666f756e640000000000000000000000000000006000830152602082019050919050565b6000614d9c602683615b15565b91507f4f776e61626c653a206e6577206f776e657220697320746865207a65726f206160008301527f64647265737300000000000000000000000000000000000000000000000000006020830152604082019050919050565b6000614e02600e83615b15565b91507f425553442072656d61696e6465720000000000000000000000000000000000006000830152602082019050919050565b6000614e42600e83615b15565b91507f555344542072656d61696e6465720000000000000000000000000000000000006000830152602082019050919050565b6000614e82601b83615b15565b91507f536166654d6174683a206164646974696f6e206f766572666c6f7700000000006000830152602082019050919050565b6000614ec2602083615b15565b91507f5361666545524332303a206c6f772d6c6576656c2063616c6c206661696c65646000830152602082019050919050565b6000614f02601083615b15565b91507f792e555344542072656d61696e646572000000000000000000000000000000006000830152602082019050919050565b6000614f42601083615b15565b91507f792e555344432072656d61696e646572000000000000000000000000000000006000830152602082019050919050565b6000614f82601683615b15565b91507f7472616e73666572206f6620455448206661696c6564000000000000000000006000830152602082019050919050565b6000614fc2600f83615b15565b91507f43555256452072656d61696e64657200000000000000000000000000000000006000830152602082019050919050565b6000615002602183615b15565b91507f536166654d6174683a206d756c7469706c69636174696f6e206f766572666c6f60008301527f77000000000000000000000000000000000000000000000000000000000000006020830152604082019050919050565b6000615068601083615b15565b91507f792e425553442072656d61696e646572000000000000000000000000000000006000830152602082019050919050565b60006150a8602083615b15565b91507f4f776e61626c653a2063616c6c6572206973206e6f7420746865206f776e65726000830152602082019050919050565b60006150e8600e83615b15565b91507f555344432072656d61696e6465720000000000000000000000000000000000006000830152602082019050919050565b6000615128600083615b0a565b9150600082019050919050565b6000615142601e83615b15565b91507f6465706f736974206d7573742062652067726561746572207468616e203000006000830152602082019050919050565b6000615182601883615b15565b91507f736c6970706167652067726561746572207468616e20352500000000000000006000830152602082019050919050565b60006151c2602a83615b15565b91507f5361666545524332303a204552433230206f7065726174696f6e20646964206e60008301527f6f742073756363656564000000000000000000000000000000000000000000006020830152604082019050919050565b6000615228601f83615b15565b91507f5265656e7472616e637947756172643a207265656e7472616e742063616c6c006000830152602082019050919050565b6000615268600f83615b15565b91507f792e4441492072656d61696e64657200000000000000000000000000000000006000830152602082019050919050565b60006152a8603683615b15565b91507f5361666545524332303a20617070726f76652066726f6d206e6f6e2d7a65726f60008301527f20746f206e6f6e2d7a65726f20616c6c6f77616e6365000000000000000000006020830152604082019050919050565b600061530e601f83615b15565b91507f5361666545524332303a2063616c6c20746f206e6f6e2d636f6e7472616374006000830152602082019050919050565b61534a81615b83565b82525050565b61535981615b83565b82525050565b600061536b8284614c5a565b915081905092915050565b60006153818261511b565b9150819050919050565b60006020820190506153a06000830184614be5565b92915050565b60006020820190506153bb6000830184614bd6565b92915050565b60006040820190506153d66000830185614be5565b6153e36020830184614be5565b9392505050565b60006060820190506153ff6000830186614be5565b61540c6020830185614be5565b6154196040830184615350565b949350505050565b60006040820190506154366000830185614be5565b6154436020830184615350565b9392505050565b600060208201905061545f6000830184614c4b565b92915050565b600060808201905061547a6000830187614c8b565b6154876020830186614ca9565b6154946040830185615350565b6154a16060830184614c9a565b95945050505050565b60006080820190506154bf6000830187614c8b565b6154cc6020830186614cb8565b6154d96040830185615350565b6154e66060830184614c9a565b95945050505050565b60006080820190506155046000830187614c8b565b6155116020830186614cc7565b61551e6040830185615350565b61552b6060830184614c9a565b95945050505050565b60006080820190506155496000830187614ca9565b6155566020830186614c8b565b6155636040830185615350565b6155706060830184614c9a565b95945050505050565b600060808201905061558e6000830187614ca9565b61559b6020830186614cb8565b6155a86040830185615350565b6155b56060830184614c9a565b95945050505050565b60006080820190506155d36000830187614ca9565b6155e06020830186614cc7565b6155ed6040830185615350565b6155fa6060830184614c9a565b95945050505050565b60006080820190506156186000830187614cb8565b6156256020830186614c8b565b6156326040830185615350565b61563f6060830184614c9a565b95945050505050565b600060808201905061565d6000830187614cb8565b61566a6020830186614ca9565b6156776040830185615350565b6156846060830184614c9a565b95945050505050565b60006080820190506156a26000830187614cb8565b6156af6020830186614cc7565b6156bc6040830185615350565b6156c96060830184614c9a565b95945050505050565b60006080820190506156e76000830187614cc7565b6156f46020830186614c8b565b6157016040830185615350565b61570e6060830184614c9a565b95945050505050565b600060808201905061572c6000830187614cc7565b6157396020830186614ca9565b6157466040830185615350565b6157536060830184614c9a565b95945050505050565b60006080820190506157716000830187614cc7565b61577e6020830186614cb8565b61578b6040830185615350565b6157986060830184614c9a565b95945050505050565b600060208201905081810360008301526157bb8184614cd6565b905092915050565b600060208201905081810360008301526157dc81614d0f565b9050919050565b600060208201905081810360008301526157fc81614d4f565b9050919050565b6000602082019050818103600083015261581c81614d8f565b9050919050565b6000602082019050818103600083015261583c81614df5565b9050919050565b6000602082019050818103600083015261585c81614e35565b9050919050565b6000602082019050818103600083015261587c81614e75565b9050919050565b6000602082019050818103600083015261589c81614eb5565b9050919050565b600060208201905081810360008301526158bc81614ef5565b9050919050565b600060208201905081810360008301526158dc81614f35565b9050919050565b600060208201905081810360008301526158fc81614f75565b9050919050565b6000602082019050818103600083015261591c81614fb5565b9050919050565b6000602082019050818103600083015261593c81614ff5565b9050919050565b6000602082019050818103600083015261595c8161505b565b9050919050565b6000602082019050818103600083015261597c8161509b565b9050919050565b6000602082019050818103600083015261599c816150db565b9050919050565b600060208201905081810360008301526159bc81615135565b9050919050565b600060208201905081810360008301526159dc81615175565b9050919050565b600060208201905081810360008301526159fc816151b5565b9050919050565b60006020820190508181036000830152615a1c8161521b565b9050919050565b60006020820190508181036000830152615a3c8161525b565b9050919050565b60006020820190508181036000830152615a5c8161529b565b9050919050565b60006020820190508181036000830152615a7c81615301565b9050919050565b6000602082019050615a986000830184615350565b92915050565b600060a082019050615ab36000830185615350565b615ac06020830184614bf4565b9392505050565b6000819050919050565b600060049050919050565b600081519050919050565b600081519050919050565b6000602082019050919050565b600081905092915050565b600081905092915050565b600082825260208201905092915050565b6000615b3182615b63565b9050919050565b60008115159050919050565b6000615b4f82615b26565b9050919050565b600081600f0b9050919050565b600073ffffffffffffffffffffffffffffffffffffffff82169050919050565b6000819050919050565b6000615b9882615bf9565b9050919050565b6000615baa82615b56565b9050919050565b6000615bbc82615b83565b9050919050565b6000615bce82615b56565b9050919050565b6000615be082615b56565b9050919050565b6000615bf282615b56565b9050919050565b6000615c0482615c0b565b9050919050565b6000615c1682615b63565b9050919050565b60005b83811015615c3b578082015181840152602081019050615c20565b83811115615c4a576000848401525b50505050565b6000601f19601f8301169050919050565b615c6a81615b26565b8114615c7557600080fd5b50565b615c8181615b38565b8114615c8c57600080fd5b50565b615c9881615b44565b8114615ca357600080fd5b50565b615caf81615b83565b8114615cba57600080fd5b5056fea365627a7a7231582022185514f2df7d22e5353b8bd104c1d012468f095f4a2671c27247471fabd75c6c6578706572696d656e74616cf564736f6c634300050c0040",
  "source": "pragma solidity ^0.5.0;\npragma experimental ABIEncoderV2;\n\ninterface IERC20 {\n    function totalSupply() external view returns (uint256);\n    function balanceOf(address account) external view returns (uint256);\n    function transfer(address recipient, uint256 amount) external returns (bool);\n    function allowance(address owner, address spender) external view returns (uint256);\n    function approve(address spender, uint256 amount) external returns (bool);\n    function transferFrom(address sender, address recipient, uint256 amount) external returns (bool);\n    event Transfer(address indexed from, address indexed to, uint256 value);\n    event Approval(address indexed owner, address indexed spender, uint256 value);\n}\n\ncontract Context {\n    constructor () internal { }\n    // solhint-disable-previous-line no-empty-blocks\n\n    function _msgSender() internal view returns (address payable) {\n        return msg.sender;\n    }\n\n    function _msgData() internal view returns (bytes memory) {\n        this; // silence state mutability warning without generating bytecode - see https://github.com/ethereum/solidity/issues/2691\n        return msg.data;\n    }\n}\n\ncontract ReentrancyGuard {\n    uint256 private _guardCounter;\n\n    constructor () internal {\n        _guardCounter = 1;\n    }\n\n    modifier nonReentrant() {\n        _guardCounter += 1;\n        uint256 localCounter = _guardCounter;\n        _;\n        require(localCounter == _guardCounter, \"ReentrancyGuard: reentrant call\");\n    }\n}\n\ncontract Ownable is Context {\n    address private _owner;\n\n    event OwnershipTransferred(address indexed previousOwner, address indexed newOwner);\n    constructor () internal {\n        _owner = _msgSender();\n        emit OwnershipTransferred(address(0), _owner);\n    }\n    function owner() public view returns (address) {\n        return _owner;\n    }\n    modifier onlyOwner() {\n        require(isOwner(), \"Ownable: caller is not the owner\");\n        _;\n    }\n    function isOwner() public view returns (bool) {\n        return _msgSender() == _owner;\n    }\n    function renounceOwnership() public onlyOwner {\n        emit OwnershipTransferred(_owner, address(0));\n        _owner = address(0);\n    }\n    function transferOwnership(address newOwner) public onlyOwner {\n        _transferOwnership(newOwner);\n    }\n    function _transferOwnership(address newOwner) internal {\n        require(newOwner != address(0), \"Ownable: new owner is the zero address\");\n        emit OwnershipTransferred(_owner, newOwner);\n        _owner = newOwner;\n    }\n}\n\nlibrary SafeMath {\n    function add(uint256 a, uint256 b) internal pure returns (uint256) {\n        uint256 c = a + b;\n        require(c >= a, \"SafeMath: addition overflow\");\n\n        return c;\n    }\n    function sub(uint256 a, uint256 b) internal pure returns (uint256) {\n        return sub(a, b, \"SafeMath: subtraction overflow\");\n    }\n    function sub(uint256 a, uint256 b, string memory errorMessage) internal pure returns (uint256) {\n        require(b <= a, errorMessage);\n        uint256 c = a - b;\n\n        return c;\n    }\n    function mul(uint256 a, uint256 b) internal pure returns (uint256) {\n        if (a == 0) {\n            return 0;\n        }\n\n        uint256 c = a * b;\n        require(c / a == b, \"SafeMath: multiplication overflow\");\n\n        return c;\n    }\n    function div(uint256 a, uint256 b) internal pure returns (uint256) {\n        return div(a, b, \"SafeMath: division by zero\");\n    }\n    function div(uint256 a, uint256 b, string memory errorMessage) internal pure returns (uint256) {\n        // Solidity only automatically asserts when dividing by 0\n        require(b > 0, errorMessage);\n        uint256 c = a / b;\n\n        return c;\n    }\n    function mod(uint256 a, uint256 b) internal pure returns (uint256) {\n        return mod(a, b, \"SafeMath: modulo by zero\");\n    }\n    function mod(uint256 a, uint256 b, string memory errorMessage) internal pure returns (uint256) {\n        require(b != 0, errorMessage);\n        return a % b;\n    }\n}\n\nlibrary Address {\n    function isContract(address account) internal view returns (bool) {\n        bytes32 codehash;\n        bytes32 accountHash = 0xc5d2460186f7233c927e7db2dcc703c0e500b653ca82273b7bfad8045d85a470;\n        // solhint-disable-next-line no-inline-assembly\n        assembly { codehash := extcodehash(account) }\n        return (codehash != 0x0 && codehash != accountHash);\n    }\n    function toPayable(address account) internal pure returns (address payable) {\n        return address(uint160(account));\n    }\n    function sendValue(address payable recipient, uint256 amount) internal {\n        require(address(this).balance >= amount, \"Address: insufficient balance\");\n\n        // solhint-disable-next-line avoid-call-value\n        (bool success, ) = recipient.call.value(amount)(\"\");\n        require(success, \"Address: unable to send value, recipient may have reverted\");\n    }\n}\n\nlibrary SafeERC20 {\n    using SafeMath for uint256;\n    using Address for address;\n\n    function safeTransfer(IERC20 token, address to, uint256 value) internal {\n        callOptionalReturn(token, abi.encodeWithSelector(token.transfer.selector, to, value));\n    }\n    function safeTransferFrom(IERC20 token, address from, address to, uint256 value) internal {\n        callOptionalReturn(token, abi.encodeWithSelector(token.transferFrom.selector, from, to, value));\n    }\n    function safeApprove(IERC20 token, address spender, uint256 value) internal {\n        require((value == 0) || (token.allowance(address(this), spender) == 0),\n            \"SafeERC20: approve from non-zero to non-zero allowance\"\n        );\n        callOptionalReturn(token, abi.encodeWithSelector(token.approve.selector, spender, value));\n    }\n    function callOptionalReturn(IERC20 token, bytes memory data) private {\n        require(address(token).isContract(), \"SafeERC20: call to non-contract\");\n\n        // solhint-disable-next-line avoid-low-level-calls\n        (bool success, bytes memory returndata) = address(token).call(data);\n        require(success, \"SafeERC20: low-level call failed\");\n\n        if (returndata.length > 0) { // Return data is optional\n            // solhint-disable-next-line max-line-length\n            require(abi.decode(returndata, (bool)), \"SafeERC20: ERC20 operation did not succeed\");\n        }\n    }\n}\n\ninterface yERC20 {\n  function withdraw(uint256 _amount) external;\n}\n\n// Solidity Interface\n\ninterface ICurveFi {\n\n  function remove_liquidity(\n    uint256 _amount,\n    uint256[4] calldata amounts\n  ) external;\n  function exchange(\n    int128 from, int128 to, uint256 _from_amount, uint256 _min_to_amount\n  ) external;\n}\n\ncontract yCurveZapOutV4 is ReentrancyGuard, Ownable {\n  using SafeERC20 for IERC20;\n  using Address for address;\n  using SafeMath for uint256;\n\n  address public DAI;\n  address public yDAI;\n  address public USDC;\n  address public yUSDC;\n  address public USDT;\n  address public yUSDT;\n  address public BUSD;\n  address public yBUSD;\n  address public SWAP;\n  address public CURVE;\n\n  constructor () public {\n    DAI = address(0x6B175474E89094C44Da98b954EedeAC495271d0F);\n    yDAI = address(0xC2cB1040220768554cf699b0d863A3cd4324ce32);\n\n    USDC = address(0xA0b86991c6218b36c1d19D4a2e9Eb0cE3606eB48);\n    yUSDC = address(0x26EA744E5B887E5205727f55dFBE8685e3b21951);\n\n    USDT = address(0xdAC17F958D2ee523a2206206994597C13D831ec7);\n    yUSDT = address(0xE6354ed5bC4b393a5Aad09f21c46E101e692d447);\n\n    BUSD = address(0x4Fabb145d64652a948d72533023f6E7A623C7C53);\n    yBUSD = address(0x04bC0Ab673d88aE9dbC9DA2380cB6B79C4BCa9aE);\n\n    SWAP = address(0x79a8C46DeA5aDa233ABaFFD40F3A0A2B1e5A4F27);\n    CURVE = address(0x3B3Ac5386837Dc563660FB6a0937DFAa5924333B);\n\n    approveToken();\n  }\n\n  function() external payable {\n\n  }\n\n  function approveToken() public {\n      IERC20(yDAI).safeApprove(SWAP, uint(-1));\n      IERC20(yUSDC).safeApprove(SWAP, uint(-1));\n      IERC20(yUSDT).safeApprove(SWAP, uint(-1));\n      IERC20(yBUSD).safeApprove(SWAP, uint(-1));\n  }\n\n  function checkSlippage(uint256 _amount, address _token, uint256 _dec) public view returns (bool) {\n    uint256 received = (IERC20(_token).balanceOf(address(this))).mul(_dec);\n    uint256 fivePercent = _amount.mul(5).div(100);\n    uint256 min = _amount.sub(fivePercent);\n    uint256 max = _amount.add(fivePercent);\n    require(received <= max && received >= min, \"slippage greater than 5%\");\n    return true;\n  }\n\n  function withdrawCurve(uint256 _amount) public {\n    require(_amount > 0, \"deposit must be greater than 0\");\n    IERC20(CURVE).safeTransferFrom(msg.sender, address(this), _amount);\n    ICurveFi(SWAP).remove_liquidity(IERC20(CURVE).balanceOf(address(this)), [uint256(0),0,0,0]);\n    require(IERC20(CURVE).balanceOf(address(this)) == 0, \"CURVE remainder\");\n  }\n\n  function withdrawDAI(uint256 _amount)\n      external\n      nonReentrant\n  {\n      withdrawCurve(_amount);\n\n      uint256 _ydai = IERC20(yDAI).balanceOf(address(this));\n      uint256 _yusdc = IERC20(yUSDC).balanceOf(address(this));\n      uint256 _yusdt = IERC20(yUSDT).balanceOf(address(this));\n      uint256 _ybusd = IERC20(yBUSD).balanceOf(address(this));\n\n      require(_ydai > 0 || _yusdc > 0 || _yusdt > 0 || _ybusd > 0, \"no y.tokens found\");\n\n      if (_yusdc > 0) {\n        ICurveFi(SWAP).exchange(1, 0, _yusdc, 0);\n        require(IERC20(yUSDC).balanceOf(address(this)) == 0, \"y.USDC remainder\");\n      }\n      if (_yusdt > 0) {\n        ICurveFi(SWAP).exchange(2, 0, _yusdt, 0);\n        require(IERC20(yUSDT).balanceOf(address(this)) == 0, \"y.USDT remainder\");\n      }\n      if (_ybusd > 0) {\n        ICurveFi(SWAP).exchange(3, 0, _ybusd, 0);\n        require(IERC20(yBUSD).balanceOf(address(this)) == 0, \"y.BUSD remainder\");\n      }\n\n      yERC20(yDAI).withdraw(IERC20(yDAI).balanceOf(address(this)));\n      require(IERC20(yDAI).balanceOf(address(this)) == 0, \"y.DAI remainder\");\n\n      checkSlippage(_amount, DAI, 1);\n\n      IERC20(DAI).safeTransfer(msg.sender, IERC20(DAI).balanceOf(address(this)));\n      require(IERC20(DAI).balanceOf(address(this)) == 0, \"DAI remainder\");\n  }\n\n  function withdrawUSDC(uint256 _amount)\n      external\n      nonReentrant\n  {\n      withdrawCurve(_amount);\n\n      uint256 _ydai = IERC20(yDAI).balanceOf(address(this));\n      uint256 _yusdc = IERC20(yUSDC).balanceOf(address(this));\n      uint256 _yusdt = IERC20(yUSDT).balanceOf(address(this));\n      uint256 _ybusd = IERC20(yBUSD).balanceOf(address(this));\n\n      require(_ydai > 0 || _yusdc > 0 || _yusdt > 0 || _ybusd > 0, \"no y.tokens found\");\n\n      if (_ydai > 0) {\n        ICurveFi(SWAP).exchange(0, 1, _ydai, 0);\n        require(IERC20(yDAI).balanceOf(address(this)) == 0, \"y.DAI remainder\");\n      }\n      if (_yusdt > 0) {\n        ICurveFi(SWAP).exchange(2, 1, _yusdt, 0);\n        require(IERC20(yUSDT).balanceOf(address(this)) == 0, \"y.USDT remainder\");\n      }\n      if (_ybusd > 0) {\n        ICurveFi(SWAP).exchange(3, 1, _ybusd, 0);\n        require(IERC20(yBUSD).balanceOf(address(this)) == 0, \"y.BUSD remainder\");\n      }\n\n      yERC20(yUSDC).withdraw(IERC20(yUSDC).balanceOf(address(this)));\n      require(IERC20(yUSDC).balanceOf(address(this)) == 0, \"y.USDC remainder\");\n\n      checkSlippage(_amount, USDC, 1e12);\n\n      IERC20(USDC).safeTransfer(msg.sender, IERC20(USDC).balanceOf(address(this)));\n      require(IERC20(USDC).balanceOf(address(this)) == 0, \"USDC remainder\");\n  }\n\n  function withdrawUSDT(uint256 _amount)\n      external\n      nonReentrant\n  {\n      withdrawCurve(_amount);\n\n      uint256 _ydai = IERC20(yDAI).balanceOf(address(this));\n      uint256 _yusdc = IERC20(yUSDC).balanceOf(address(this));\n      uint256 _yusdt = IERC20(yUSDT).balanceOf(address(this));\n      uint256 _ybusd = IERC20(yBUSD).balanceOf(address(this));\n\n      require(_ydai > 0 || _yusdc > 0 || _yusdt > 0 || _ybusd > 0, \"no y.tokens found\");\n\n      if (_ydai > 0) {\n        ICurveFi(SWAP).exchange(0, 2, _ydai, 0);\n        require(IERC20(yDAI).balanceOf(address(this)) == 0, \"y.DAI remainder\");\n      }\n      if (_yusdc > 0) {\n        ICurveFi(SWAP).exchange(1, 2, _yusdc, 0);\n        require(IERC20(yUSDC).balanceOf(address(this)) == 0, \"y.USDC remainder\");\n      }\n      if (_ybusd > 0) {\n        ICurveFi(SWAP).exchange(3, 2, _ybusd, 0);\n        require(IERC20(yBUSD).balanceOf(address(this)) == 0, \"y.BUSD remainder\");\n      }\n\n      yERC20(yUSDT).withdraw(IERC20(yUSDT).balanceOf(address(this)));\n      require(IERC20(yUSDT).balanceOf(address(this)) == 0, \"y.USDT remainder\");\n\n      checkSlippage(_amount, USDT, 1e12);\n\n      IERC20(USDT).safeTransfer(msg.sender, IERC20(USDT).balanceOf(address(this)));\n      require(IERC20(USDT).balanceOf(address(this)) == 0, \"USDT remainder\");\n  }\n\n  function withdrawBUSD(uint256 _amount)\n      external\n      nonReentrant\n  {\n      withdrawCurve(_amount);\n\n      uint256 _ydai = IERC20(yDAI).balanceOf(address(this));\n      uint256 _yusdc = IERC20(yUSDC).balanceOf(address(this));\n      uint256 _yusdt = IERC20(yUSDT).balanceOf(address(this));\n      uint256 _ybusd = IERC20(yBUSD).balanceOf(address(this));\n\n      require(_ydai > 0 || _yusdc > 0 || _yusdt > 0 || _ybusd > 0, \"no y.tokens found\");\n\n      if (_ydai > 0) {\n        ICurveFi(SWAP).exchange(0, 3, _ydai, 0);\n        require(IERC20(yDAI).balanceOf(address(this)) == 0, \"y.DAI remainder\");\n      }\n      if (_yusdc > 0) {\n        ICurveFi(SWAP).exchange(1, 3, _yusdc, 0);\n        require(IERC20(yUSDC).balanceOf(address(this)) == 0, \"y.USDC remainder\");\n      }\n      if (_yusdt > 0) {\n        ICurveFi(SWAP).exchange(2, 3, _yusdt, 0);\n        require(IERC20(yUSDT).balanceOf(address(this)) == 0, \"y.USDT remainder\");\n      }\n\n      yERC20(yBUSD).withdraw(IERC20(yBUSD).balanceOf(address(this)));\n      require(IERC20(yBUSD).balanceOf(address(this)) == 0, \"y.BUSD remainder\");\n\n      checkSlippage(_amount, BUSD, 1);\n\n      IERC20(BUSD).safeTransfer(msg.sender, IERC20(BUSD).balanceOf(address(this)));\n      require(IERC20(BUSD).balanceOf(address(this)) == 0, \"BUSD remainder\");\n  }\n\n  // incase of half-way error\n  function inCaseTokenGetsStuck(IERC20 _TokenAddress) onlyOwner public {\n      uint qty = _TokenAddress.balanceOf(address(this));\n      _TokenAddress.safeTransfer(msg.sender, qty);\n  }\n\n  // incase of half-way error\n  function inCaseETHGetsStuck() onlyOwner public{\n      (bool result, ) = msg.sender.call.value(address(this).balance)(\"\");\n      require(result, \"transfer of ETH failed\");\n  }\n}\n",
  "sourcePath": "D:/ftm/itoken/contracts/yCurveZapOutV4.sol",
  "compiler": {
    "name": "solc",
    "version": "0.5.12+commit.7709ece9.Emscripten.clang"
  },
  "schemaVersion": "3.0.19",
  "updatedAt": "2020-03-02T06:17:35.451Z",
  "devdoc": {
    "methods": {}
  },
  "userdoc": {
    "methods": {}
  }
}