{
  "contractName": "yCurveZapSwapV4",
  "abi": [
    {
      "inputs": [],
      "payable": false,
      "stateMutability": "nonpayable",
      "type": "constructor"
    },
    {
      "anonymous": false,
      "inputs": [
        {
          "indexed": true,
          "internalType": "address",
          "name": "previousOwner",
          "type": "address"
        },
        {
          "indexed": true,
          "internalType": "address",
          "name": "newOwner",
          "type": "address"
        }
      ],
      "name": "OwnershipTransferred",
      "type": "event"
    },
    {
      "payable": true,
      "stateMutability": "payable",
      "type": "fallback"
    },
    {
      "constant": true,
      "inputs": [],
      "name": "BUSD",
      "outputs": [
        {
          "internalType": "address",
          "name": "",
          "type": "address"
        }
      ],
      "payable": false,
      "stateMutability": "view",
      "type": "function"
    },
    {
      "constant": true,
      "inputs": [],
      "name": "CURVEv1",
      "outputs": [
        {
          "internalType": "address",
          "name": "",
          "type": "address"
        }
      ],
      "payable": false,
      "stateMutability": "view",
      "type": "function"
    },
    {
      "constant": true,
      "inputs": [],
      "name": "CURVEv2",
      "outputs": [
        {
          "internalType": "address",
          "name": "",
          "type": "address"
        }
      ],
      "payable": false,
      "stateMutability": "view",
      "type": "function"
    },
    {
      "constant": true,
      "inputs": [],
      "name": "CURVEv3",
      "outputs": [
        {
          "internalType": "address",
          "name": "",
          "type": "address"
        }
      ],
      "payable": false,
      "stateMutability": "view",
      "type": "function"
    },
    {
      "constant": true,
      "inputs": [],
      "name": "CURVEv4",
      "outputs": [
        {
          "internalType": "address",
          "name": "",
          "type": "address"
        }
      ],
      "payable": false,
      "stateMutability": "view",
      "type": "function"
    },
    {
      "constant": true,
      "inputs": [],
      "name": "DAI",
      "outputs": [
        {
          "internalType": "address",
          "name": "",
          "type": "address"
        }
      ],
      "payable": false,
      "stateMutability": "view",
      "type": "function"
    },
    {
      "constant": true,
      "inputs": [],
      "name": "SWAPv1",
      "outputs": [
        {
          "internalType": "address",
          "name": "",
          "type": "address"
        }
      ],
      "payable": false,
      "stateMutability": "view",
      "type": "function"
    },
    {
      "constant": true,
      "inputs": [],
      "name": "SWAPv2",
      "outputs": [
        {
          "internalType": "address",
          "name": "",
          "type": "address"
        }
      ],
      "payable": false,
      "stateMutability": "view",
      "type": "function"
    },
    {
      "constant": true,
      "inputs": [],
      "name": "SWAPv3",
      "outputs": [
        {
          "internalType": "address",
          "name": "",
          "type": "address"
        }
      ],
      "payable": false,
      "stateMutability": "view",
      "type": "function"
    },
    {
      "constant": true,
      "inputs": [],
      "name": "SWAPv4",
      "outputs": [
        {
          "internalType": "address",
          "name": "",
          "type": "address"
        }
      ],
      "payable": false,
      "stateMutability": "view",
      "type": "function"
    },
    {
      "constant": true,
      "inputs": [],
      "name": "TUSD",
      "outputs": [
        {
          "internalType": "address",
          "name": "",
          "type": "address"
        }
      ],
      "payable": false,
      "stateMutability": "view",
      "type": "function"
    },
    {
      "constant": true,
      "inputs": [],
      "name": "USDC",
      "outputs": [
        {
          "internalType": "address",
          "name": "",
          "type": "address"
        }
      ],
      "payable": false,
      "stateMutability": "view",
      "type": "function"
    },
    {
      "constant": true,
      "inputs": [],
      "name": "USDT",
      "outputs": [
        {
          "internalType": "address",
          "name": "",
          "type": "address"
        }
      ],
      "payable": false,
      "stateMutability": "view",
      "type": "function"
    },
    {
      "constant": true,
      "inputs": [],
      "name": "cDAI",
      "outputs": [
        {
          "internalType": "address",
          "name": "",
          "type": "address"
        }
      ],
      "payable": false,
      "stateMutability": "view",
      "type": "function"
    },
    {
      "constant": true,
      "inputs": [],
      "name": "cUSDC",
      "outputs": [
        {
          "internalType": "address",
          "name": "",
          "type": "address"
        }
      ],
      "payable": false,
      "stateMutability": "view",
      "type": "function"
    },
    {
      "constant": true,
      "inputs": [],
      "name": "isOwner",
      "outputs": [
        {
          "internalType": "bool",
          "name": "",
          "type": "bool"
        }
      ],
      "payable": false,
      "stateMutability": "view",
      "type": "function"
    },
    {
      "constant": true,
      "inputs": [],
      "name": "owner",
      "outputs": [
        {
          "internalType": "address",
          "name": "",
          "type": "address"
        }
      ],
      "payable": false,
      "stateMutability": "view",
      "type": "function"
    },
    {
      "constant": false,
      "inputs": [],
      "name": "renounceOwnership",
      "outputs": [],
      "payable": false,
      "stateMutability": "nonpayable",
      "type": "function"
    },
    {
      "constant": false,
      "inputs": [
        {
          "internalType": "address",
          "name": "newOwner",
          "type": "address"
        }
      ],
      "name": "transferOwnership",
      "outputs": [],
      "payable": false,
      "stateMutability": "nonpayable",
      "type": "function"
    },
    {
      "constant": true,
      "inputs": [],
      "name": "yBUSDv3",
      "outputs": [
        {
          "internalType": "address",
          "name": "",
          "type": "address"
        }
      ],
      "payable": false,
      "stateMutability": "view",
      "type": "function"
    },
    {
      "constant": true,
      "inputs": [],
      "name": "yDAIv2",
      "outputs": [
        {
          "internalType": "address",
          "name": "",
          "type": "address"
        }
      ],
      "payable": false,
      "stateMutability": "view",
      "type": "function"
    },
    {
      "constant": true,
      "inputs": [],
      "name": "yDAIv3",
      "outputs": [
        {
          "internalType": "address",
          "name": "",
          "type": "address"
        }
      ],
      "payable": false,
      "stateMutability": "view",
      "type": "function"
    },
    {
      "constant": true,
      "inputs": [],
      "name": "yTUSDv2",
      "outputs": [
        {
          "internalType": "address",
          "name": "",
          "type": "address"
        }
      ],
      "payable": false,
      "stateMutability": "view",
      "type": "function"
    },
    {
      "constant": true,
      "inputs": [],
      "name": "yUSDCv2",
      "outputs": [
        {
          "internalType": "address",
          "name": "",
          "type": "address"
        }
      ],
      "payable": false,
      "stateMutability": "view",
      "type": "function"
    },
    {
      "constant": true,
      "inputs": [],
      "name": "yUSDCv3",
      "outputs": [
        {
          "internalType": "address",
          "name": "",
          "type": "address"
        }
      ],
      "payable": false,
      "stateMutability": "view",
      "type": "function"
    },
    {
      "constant": true,
      "inputs": [],
      "name": "yUSDTv2",
      "outputs": [
        {
          "internalType": "address",
          "name": "",
          "type": "address"
        }
      ],
      "payable": false,
      "stateMutability": "view",
      "type": "function"
    },
    {
      "constant": true,
      "inputs": [],
      "name": "yUSDTv3",
      "outputs": [
        {
          "internalType": "address",
          "name": "",
          "type": "address"
        }
      ],
      "payable": false,
      "stateMutability": "view",
      "type": "function"
    },
    {
      "constant": false,
      "inputs": [],
      "name": "approveToken",
      "outputs": [],
      "payable": false,
      "stateMutability": "nonpayable",
      "type": "function"
    },
    {
      "constant": false,
      "inputs": [
        {
          "internalType": "uint256",
          "name": "_amount",
          "type": "uint256"
        }
      ],
      "name": "swapv1tov3",
      "outputs": [],
      "payable": false,
      "stateMutability": "nonpayable",
      "type": "function"
    },
    {
      "constant": false,
      "inputs": [
        {
          "internalType": "uint256",
          "name": "_amount",
          "type": "uint256"
        }
      ],
      "name": "swapv2tov3",
      "outputs": [],
      "payable": false,
      "stateMutability": "nonpayable",
      "type": "function"
    },
    {
      "constant": false,
      "inputs": [
        {
          "internalType": "uint256",
          "name": "_amount",
          "type": "uint256"
        }
      ],
      "name": "swapv3tov4",
      "outputs": [],
      "payable": false,
      "stateMutability": "nonpayable",
      "type": "function"
    },
    {
      "constant": false,
      "inputs": [
        {
          "internalType": "contract IERC20",
          "name": "_TokenAddress",
          "type": "address"
        }
      ],
      "name": "inCaseTokenGetsStuck",
      "outputs": [],
      "payable": false,
      "stateMutability": "nonpayable",
      "type": "function"
    },
    {
      "constant": false,
      "inputs": [],
      "name": "inCaseETHGetsStuck",
      "outputs": [],
      "payable": false,
      "stateMutability": "nonpayable",
      "type": "function"
    }
  ],
  "bytecode": "0x60806040523480156200001157600080fd5b5060016000819055506200002a6200089b60201b60201c565b600160006101000a81548173ffffffffffffffffffffffffffffffffffffffff021916908373ffffffffffffffffffffffffffffffffffffffff160217905550600160009054906101000a900473ffffffffffffffffffffffffffffffffffffffff1673ffffffffffffffffffffffffffffffffffffffff16600073ffffffffffffffffffffffffffffffffffffffff167f8be0079c531659141344cd1fd0a4f28419497f9722a3daafe3b4186f6b6457e060405160405180910390a3736b175474e89094c44da98b954eedeac495271d0f600260006101000a81548173ffffffffffffffffffffffffffffffffffffffff021916908373ffffffffffffffffffffffffffffffffffffffff1602179055507316de59092dae5ccf4a1e6439d611fd0653f0bd01600460006101000a81548173ffffffffffffffffffffffffffffffffffffffff021916908373ffffffffffffffffffffffffffffffffffffffff16021790555073c2cb1040220768554cf699b0d863a3cd4324ce32600560006101000a81548173ffffffffffffffffffffffffffffffffffffffff021916908373ffffffffffffffffffffffffffffffffffffffff160217905550735d3a536e4d6dbd6114cc1ead35777bab948e3643600360006101000a81548173ffffffffffffffffffffffffffffffffffffffff021916908373ffffffffffffffffffffffffffffffffffffffff1602179055506e085d4780b73119b644ae5ecd22b376600d60006101000a81548173ffffffffffffffffffffffffffffffffffffffff021916908373ffffffffffffffffffffffffffffffffffffffff1602179055507373a052500105205d34daf004eab301916da8190f600e60006101000a81548173ffffffffffffffffffffffffffffffffffffffff021916908373ffffffffffffffffffffffffffffffffffffffff16021790555073a0b86991c6218b36c1d19d4a2e9eb0ce3606eb48600660006101000a81548173ffffffffffffffffffffffffffffffffffffffff021916908373ffffffffffffffffffffffffffffffffffffffff16021790555073d6ad7a6750a7593e092a9b218d66c0a814a3436e600860006101000a81548173ffffffffffffffffffffffffffffffffffffffff021916908373ffffffffffffffffffffffffffffffffffffffff16021790555073f7c9c5b31f12701dd2dd65aadf6116ee6ab81bb4600960006101000a81548173ffffffffffffffffffffffffffffffffffffffff021916908373ffffffffffffffffffffffffffffffffffffffff1602179055507339aa39c021dfbae8fac545936693ac917d5e7563600760006101000a81548173ffffffffffffffffffffffffffffffffffffffff021916908373ffffffffffffffffffffffffffffffffffffffff16021790555073dac17f958d2ee523a2206206994597c13d831ec7600a60006101000a81548173ffffffffffffffffffffffffffffffffffffffff021916908373ffffffffffffffffffffffffffffffffffffffff1602179055507383f798e925bcd4017eb265844fddabb448f1707d600b60006101000a81548173ffffffffffffffffffffffffffffffffffffffff021916908373ffffffffffffffffffffffffffffffffffffffff16021790555073e6354ed5bc4b393a5aad09f21c46e101e692d447600c60006101000a81548173ffffffffffffffffffffffffffffffffffffffff021916908373ffffffffffffffffffffffffffffffffffffffff160217905550734fabb145d64652a948d72533023f6e7a623c7c53600f60006101000a81548173ffffffffffffffffffffffffffffffffffffffff021916908373ffffffffffffffffffffffffffffffffffffffff1602179055507304bc0ab673d88ae9dbc9da2380cb6b79c4bca9ae601060006101000a81548173ffffffffffffffffffffffffffffffffffffffff021916908373ffffffffffffffffffffffffffffffffffffffff160217905550732e60cf74d81ac34eb21eeff58db4d385920ef419601160006101000a81548173ffffffffffffffffffffffffffffffffffffffff021916908373ffffffffffffffffffffffffffffffffffffffff160217905550733740fb63ab7a09891d7c0d4299442a551d06f5fd601260006101000a81548173ffffffffffffffffffffffffffffffffffffffff021916908373ffffffffffffffffffffffffffffffffffffffff1602179055507352ea46506b9cc5ef470c5bf89f17dc28bb35d85c601360006101000a81548173ffffffffffffffffffffffffffffffffffffffff021916908373ffffffffffffffffffffffffffffffffffffffff160217905550739fc689ccada600b6df723d9e47d84d76664a1f23601460006101000a81548173ffffffffffffffffffffffffffffffffffffffff021916908373ffffffffffffffffffffffffffffffffffffffff1602179055507345f783cce6b7ff23b2ab2d70e416cdb7d6055f51601560006101000a81548173ffffffffffffffffffffffffffffffffffffffff021916908373ffffffffffffffffffffffffffffffffffffffff16021790555073df5e0e81dff6faf3a7e52ba697820c5e32d806a8601660006101000a81548173ffffffffffffffffffffffffffffffffffffffff021916908373ffffffffffffffffffffffffffffffffffffffff16021790555073dc31f5c17254a89d53a1248195f239618c96838e601760006101000a81548173ffffffffffffffffffffffffffffffffffffffff021916908373ffffffffffffffffffffffffffffffffffffffff16021790555073b241a8c2fa87de870c7cbb29bebe70ec1ee7188f601860006101000a81548173ffffffffffffffffffffffffffffffffffffffff021916908373ffffffffffffffffffffffffffffffffffffffff16021790555062000895620008a360201b60201c565b62001936565b600033905090565b62000939600460009054906101000a900473ffffffffffffffffffffffffffffffffffffffff167fffffffffffffffffffffffffffffffffffffffffffffffffffffffffffffffff600260009054906101000a900473ffffffffffffffffffffffffffffffffffffffff1673ffffffffffffffffffffffffffffffffffffffff16620011c760201b62005934179092919060201c565b620009cf600560009054906101000a900473ffffffffffffffffffffffffffffffffffffffff167fffffffffffffffffffffffffffffffffffffffffffffffffffffffffffffffff600260009054906101000a900473ffffffffffffffffffffffffffffffffffffffff1673ffffffffffffffffffffffffffffffffffffffff16620011c760201b62005934179092919060201c565b62000a65601560009054906101000a900473ffffffffffffffffffffffffffffffffffffffff167fffffffffffffffffffffffffffffffffffffffffffffffffffffffffffffffff600460009054906101000a900473ffffffffffffffffffffffffffffffffffffffff1673ffffffffffffffffffffffffffffffffffffffff16620011c760201b62005934179092919060201c565b62000afb601760009054906101000a900473ffffffffffffffffffffffffffffffffffffffff167fffffffffffffffffffffffffffffffffffffffffffffffffffffffffffffffff600560009054906101000a900473ffffffffffffffffffffffffffffffffffffffff1673ffffffffffffffffffffffffffffffffffffffff16620011c760201b62005934179092919060201c565b62000b91600860009054906101000a900473ffffffffffffffffffffffffffffffffffffffff167fffffffffffffffffffffffffffffffffffffffffffffffffffffffffffffffff600660009054906101000a900473ffffffffffffffffffffffffffffffffffffffff1673ffffffffffffffffffffffffffffffffffffffff16620011c760201b62005934179092919060201c565b62000c27600960009054906101000a900473ffffffffffffffffffffffffffffffffffffffff167fffffffffffffffffffffffffffffffffffffffffffffffffffffffffffffffff600660009054906101000a900473ffffffffffffffffffffffffffffffffffffffff1673ffffffffffffffffffffffffffffffffffffffff16620011c760201b62005934179092919060201c565b62000cbd601560009054906101000a900473ffffffffffffffffffffffffffffffffffffffff167fffffffffffffffffffffffffffffffffffffffffffffffffffffffffffffffff600860009054906101000a900473ffffffffffffffffffffffffffffffffffffffff1673ffffffffffffffffffffffffffffffffffffffff16620011c760201b62005934179092919060201c565b62000d53601760009054906101000a900473ffffffffffffffffffffffffffffffffffffffff167fffffffffffffffffffffffffffffffffffffffffffffffffffffffffffffffff600960009054906101000a900473ffffffffffffffffffffffffffffffffffffffff1673ffffffffffffffffffffffffffffffffffffffff16620011c760201b62005934179092919060201c565b62000de9601060009054906101000a900473ffffffffffffffffffffffffffffffffffffffff167fffffffffffffffffffffffffffffffffffffffffffffffffffffffffffffffff600f60009054906101000a900473ffffffffffffffffffffffffffffffffffffffff1673ffffffffffffffffffffffffffffffffffffffff16620011c760201b62005934179092919060201c565b62000e7f601760009054906101000a900473ffffffffffffffffffffffffffffffffffffffff167fffffffffffffffffffffffffffffffffffffffffffffffffffffffffffffffff601060009054906101000a900473ffffffffffffffffffffffffffffffffffffffff1673ffffffffffffffffffffffffffffffffffffffff16620011c760201b62005934179092919060201c565b62000ef6600b60009054906101000a900473ffffffffffffffffffffffffffffffffffffffff166000600a60009054906101000a900473ffffffffffffffffffffffffffffffffffffffff1673ffffffffffffffffffffffffffffffffffffffff16620011c760201b62005934179092919060201c565b62000f8c600b60009054906101000a900473ffffffffffffffffffffffffffffffffffffffff167fffffffffffffffffffffffffffffffffffffffffffffffffffffffffffffffff600a60009054906101000a900473ffffffffffffffffffffffffffffffffffffffff1673ffffffffffffffffffffffffffffffffffffffff16620011c760201b62005934179092919060201c565b62001003600c60009054906101000a900473ffffffffffffffffffffffffffffffffffffffff166000600a60009054906101000a900473ffffffffffffffffffffffffffffffffffffffff1673ffffffffffffffffffffffffffffffffffffffff16620011c760201b62005934179092919060201c565b62001099600c60009054906101000a900473ffffffffffffffffffffffffffffffffffffffff167fffffffffffffffffffffffffffffffffffffffffffffffffffffffffffffffff600a60009054906101000a900473ffffffffffffffffffffffffffffffffffffffff1673ffffffffffffffffffffffffffffffffffffffff16620011c760201b62005934179092919060201c565b6200112f601560009054906101000a900473ffffffffffffffffffffffffffffffffffffffff167fffffffffffffffffffffffffffffffffffffffffffffffffffffffffffffffff600b60009054906101000a900473ffffffffffffffffffffffffffffffffffffffff1673ffffffffffffffffffffffffffffffffffffffff16620011c760201b62005934179092919060201c565b620011c5601760009054906101000a900473ffffffffffffffffffffffffffffffffffffffff167fffffffffffffffffffffffffffffffffffffffffffffffffffffffffffffffff600c60009054906101000a900473ffffffffffffffffffffffffffffffffffffffff1673ffffffffffffffffffffffffffffffffffffffff16620011c760201b62005934179092919060201c565b565b600081148062001267575060008373ffffffffffffffffffffffffffffffffffffffff1663dd62ed3e30856040518363ffffffff1660e01b81526004016200121192919062001779565b60206040518083038186803b1580156200122a57600080fd5b505afa1580156200123f573d6000803e3d6000fd5b505050506040513d601f19601f8201168201806040525062001265919081019062001587565b145b620012a9576040517f08c379a0000000000000000000000000000000000000000000000000000000008152600401620012a09062001817565b60405180910390fd5b6200134d838473ffffffffffffffffffffffffffffffffffffffff1663095ea7b3905060e01b8484604051602401620012e4929190620017a6565b604051602081830303815290604052907bffffffffffffffffffffffffffffffffffffffffffffffffffffffff19166020820180517bffffffffffffffffffffffffffffffffffffffffffffffffffffffff83818316178352505050506200135260201b60201c565b505050565b6200137e8273ffffffffffffffffffffffffffffffffffffffff16620014e160201b62005d4d1760201c565b620013c0576040517f08c379a0000000000000000000000000000000000000000000000000000000008152600401620013b79062001839565b60405180910390fd5b600060608373ffffffffffffffffffffffffffffffffffffffff1683604051620013eb919062001760565b6000604051808303816000865af19150503d80600081146200142a576040519150601f19603f3d011682016040523d82523d6000602084013e6200142f565b606091505b50915091508162001477576040517f08c379a00000000000000000000000000000000000000000000000000000000081526004016200146e90620017d3565b60405180910390fd5b600081511115620014db57808060200190516200149891908101906200155b565b620014da576040517f08c379a0000000000000000000000000000000000000000000000000000000008152600401620014d190620017f5565b60405180910390fd5b5b50505050565b60008060007fc5d2460186f7233c927e7db2dcc703c0e500b653ca82273b7bfad8045d85a47060001b9050833f91506000801b8214158015620015245750808214155b92505050919050565b6000815190506200153e8162001902565b92915050565b60008151905062001555816200191c565b92915050565b6000602082840312156200156e57600080fd5b60006200157e848285016200152d565b91505092915050565b6000602082840312156200159a57600080fd5b6000620015aa8482850162001544565b91505092915050565b620015be8162001882565b82525050565b6000620015d1826200185b565b620015dd818562001866565b9350620015ef818560208601620018cc565b80840191505092915050565b60006200160a60208362001871565b91507f5361666545524332303a206c6f772d6c6576656c2063616c6c206661696c65646000830152602082019050919050565b60006200164c602a8362001871565b91507f5361666545524332303a204552433230206f7065726174696f6e20646964206e60008301527f6f742073756363656564000000000000000000000000000000000000000000006020830152604082019050919050565b6000620016b460368362001871565b91507f5361666545524332303a20617070726f76652066726f6d206e6f6e2d7a65726f60008301527f20746f206e6f6e2d7a65726f20616c6c6f77616e6365000000000000000000006020830152604082019050919050565b60006200171c601f8362001871565b91507f5361666545524332303a2063616c6c20746f206e6f6e2d636f6e7472616374006000830152602082019050919050565b6200175a81620018c2565b82525050565b60006200176e8284620015c4565b915081905092915050565b6000604082019050620017906000830185620015b3565b6200179f6020830184620015b3565b9392505050565b6000604082019050620017bd6000830185620015b3565b620017cc60208301846200174f565b9392505050565b60006020820190508181036000830152620017ee81620015fb565b9050919050565b6000602082019050818103600083015262001810816200163d565b9050919050565b600060208201905081810360008301526200183281620016a5565b9050919050565b6000602082019050818103600083015262001854816200170d565b9050919050565b600081519050919050565b600081905092915050565b600082825260208201905092915050565b60006200188f82620018a2565b9050919050565b60008115159050919050565b600073ffffffffffffffffffffffffffffffffffffffff82169050919050565b6000819050919050565b60005b83811015620018ec578082015181840152602081019050620018cf565b83811115620018fc576000848401525b50505050565b6200190d8162001896565b81146200191957600080fd5b50565b6200192781620018c2565b81146200193357600080fd5b50565b616d0e80620019466000396000f3fe6080604052600436106101ee5760003560e01c806389a302711161010d578063c54e44eb116100a0578063e0bab4c41161006f578063e0bab4c414610674578063f0df201b1461069f578063f2fde38b146106ca578063f60a15ed146106f3578063f9d3c1251461070a576101ee565b8063c54e44eb146105ca578063ce347a3e146105f5578063dc93d6c514610620578063dfd8d49f1461064b576101ee565b806395f1f30e116100dc57806395f1f30e1461053257806399b71d5c1461055d578063b477622b14610574578063b93f70e81461059f576101ee565b806389a30271146104865780638cb60909146104b15780638da5cb5b146104dc5780638f32d59b14610507576101ee565b8063555023d411610185578063715018a611610154578063715018a6146103ee5780637327b8fc146104055780638323550b1461043057806388b6d9fc1461045b576101ee565b8063555023d41461034457806364040a321461036f578063671cd70a146103985780636f6941b9146103c3576101ee565b806334725006116101c1578063347250061461029a5780633cd7a0d7146102c5578063448058b1146102f0578063484f4ea914610319576101ee565b8063104daa17146101f05780631393f5fd1461021b57806316514d48146102465780632e8d6e1814610271575b005b3480156101fc57600080fd5b50610205610735565b60405161021291906166ae565b60405180910390f35b34801561022757600080fd5b5061023061075b565b60405161023d91906166ae565b60405180910390f35b34801561025257600080fd5b5061025b610781565b60405161026891906166ae565b60405180910390f35b34801561027d57600080fd5b5061029860048036036102939190810190615e53565b6107a7565b005b3480156102a657600080fd5b506102af6108aa565b6040516102bc91906166ae565b60405180910390f35b3480156102d157600080fd5b506102da6108d0565b6040516102e791906166ae565b60405180910390f35b3480156102fc57600080fd5b5061031760048036036103129190810190615e7c565b6108f6565b005b34801561032557600080fd5b5061032e612462565b60405161033b91906166ae565b60405180910390f35b34801561035057600080fd5b50610359612488565b60405161036691906166ae565b60405180910390f35b34801561037b57600080fd5b5061039660048036036103919190810190615e7c565b6124ae565b005b3480156103a457600080fd5b506103ad6134d4565b6040516103ba91906166ae565b60405180910390f35b3480156103cf57600080fd5b506103d86134fa565b6040516103e591906166ae565b60405180910390f35b3480156103fa57600080fd5b50610403613520565b005b34801561041157600080fd5b5061041a613628565b60405161042791906166ae565b60405180910390f35b34801561043c57600080fd5b5061044561364e565b60405161045291906166ae565b60405180910390f35b34801561046757600080fd5b50610470613674565b60405161047d91906166ae565b60405180910390f35b34801561049257600080fd5b5061049b61369a565b6040516104a891906166ae565b60405180910390f35b3480156104bd57600080fd5b506104c66136c0565b6040516104d391906166ae565b60405180910390f35b3480156104e857600080fd5b506104f16136e6565b6040516104fe91906166ae565b60405180910390f35b34801561051357600080fd5b5061051c613710565b6040516105299190616796565b60405180910390f35b34801561053e57600080fd5b5061054761376f565b60405161055491906166ae565b60405180910390f35b34801561056957600080fd5b50610572613795565b005b34801561058057600080fd5b50610589614049565b60405161059691906166ae565b60405180910390f35b3480156105ab57600080fd5b506105b461406f565b6040516105c191906166ae565b60405180910390f35b3480156105d657600080fd5b506105df614095565b6040516105ec91906166ae565b60405180910390f35b34801561060157600080fd5b5061060a6140bb565b60405161061791906166ae565b60405180910390f35b34801561062c57600080fd5b506106356140e1565b60405161064291906166ae565b60405180910390f35b34801561065757600080fd5b50610672600480360361066d9190810190615e7c565b614107565b005b34801561068057600080fd5b506106896154f3565b60405161069691906166ae565b60405180910390f35b3480156106ab57600080fd5b506106b4615519565b6040516106c191906166ae565b60405180910390f35b3480156106d657600080fd5b506106f160048036036106ec9190810190615e01565b61553f565b005b3480156106ff57600080fd5b50610708615592565b005b34801561071657600080fd5b5061071f61569f565b60405161072c91906166ae565b60405180910390f35b601260009054906101000a900473ffffffffffffffffffffffffffffffffffffffff1681565b600960009054906101000a900473ffffffffffffffffffffffffffffffffffffffff1681565b601360009054906101000a900473ffffffffffffffffffffffffffffffffffffffff1681565b6107af613710565b6107ee576040517f08c379a00000000000000000000000000000000000000000000000000000000081526004016107e590616971565b60405180910390fd5b60008173ffffffffffffffffffffffffffffffffffffffff166370a08231306040518263ffffffff1660e01b815260040161082991906166c9565b60206040518083038186803b15801561084157600080fd5b505afa158015610855573d6000803e3d6000fd5b505050506040513d601f19601f820116820180604052506108799190810190615ea5565b90506108a633828473ffffffffffffffffffffffffffffffffffffffff166156c59092919063ffffffff16565b5050565b600460009054906101000a900473ffffffffffffffffffffffffffffffffffffffff1681565b601660009054906101000a900473ffffffffffffffffffffffffffffffffffffffff1681565b600160008082825401925050819055506000805490506000821161094f576040517f08c379a000000000000000000000000000000000000000000000000000000000815260040161094690616951565b60405180910390fd5b61099e333084601660009054906101000a900473ffffffffffffffffffffffffffffffffffffffff1673ffffffffffffffffffffffffffffffffffffffff16615764909392919063ffffffff16565b601560009054906101000a900473ffffffffffffffffffffffffffffffffffffffff1673ffffffffffffffffffffffffffffffffffffffff1663ecb586a5836040518060600160405280600081526020016000815260200160008152506040518363ffffffff1660e01b8152600401610a18929190616a8c565b600060405180830381600087803b158015610a3257600080fd5b505af1158015610a46573d6000803e3d6000fd5b505050506000601660009054906101000a900473ffffffffffffffffffffffffffffffffffffffff1673ffffffffffffffffffffffffffffffffffffffff166370a08231306040518263ffffffff1660e01b8152600401610aa791906166c9565b60206040518083038186803b158015610abf57600080fd5b505afa158015610ad3573d6000803e3d6000fd5b505050506040513d601f19601f82011682018060405250610af79190810190615ea5565b14610b37576040517f08c379a0000000000000000000000000000000000000000000000000000000008152600401610b2e90616911565b60405180910390fd5b6000600460009054906101000a900473ffffffffffffffffffffffffffffffffffffffff1673ffffffffffffffffffffffffffffffffffffffff166370a08231306040518263ffffffff1660e01b8152600401610b9491906166c9565b60206040518083038186803b158015610bac57600080fd5b505afa158015610bc0573d6000803e3d6000fd5b505050506040513d601f19601f82011682018060405250610be49190810190615ea5565b1115610d2257600460009054906101000a900473ffffffffffffffffffffffffffffffffffffffff1673ffffffffffffffffffffffffffffffffffffffff16632e1a7d4d600460009054906101000a900473ffffffffffffffffffffffffffffffffffffffff1673ffffffffffffffffffffffffffffffffffffffff166370a08231306040518263ffffffff1660e01b8152600401610c8391906166c9565b60206040518083038186803b158015610c9b57600080fd5b505afa158015610caf573d6000803e3d6000fd5b505050506040513d601f19601f82011682018060405250610cd39190810190615ea5565b6040518263ffffffff1660e01b8152600401610cef9190616a71565b600060405180830381600087803b158015610d0957600080fd5b505af1158015610d1d573d6000803e3d6000fd5b505050505b6000600860009054906101000a900473ffffffffffffffffffffffffffffffffffffffff1673ffffffffffffffffffffffffffffffffffffffff166370a08231306040518263ffffffff1660e01b8152600401610d7f91906166c9565b60206040518083038186803b158015610d9757600080fd5b505afa158015610dab573d6000803e3d6000fd5b505050506040513d601f19601f82011682018060405250610dcf9190810190615ea5565b1115610f0d57600860009054906101000a900473ffffffffffffffffffffffffffffffffffffffff1673ffffffffffffffffffffffffffffffffffffffff16632e1a7d4d600860009054906101000a900473ffffffffffffffffffffffffffffffffffffffff1673ffffffffffffffffffffffffffffffffffffffff166370a08231306040518263ffffffff1660e01b8152600401610e6e91906166c9565b60206040518083038186803b158015610e8657600080fd5b505afa158015610e9a573d6000803e3d6000fd5b505050506040513d601f19601f82011682018060405250610ebe9190810190615ea5565b6040518263ffffffff1660e01b8152600401610eda9190616a71565b600060405180830381600087803b158015610ef457600080fd5b505af1158015610f08573d6000803e3d6000fd5b505050505b6000600b60009054906101000a900473ffffffffffffffffffffffffffffffffffffffff1673ffffffffffffffffffffffffffffffffffffffff166370a08231306040518263ffffffff1660e01b8152600401610f6a91906166c9565b60206040518083038186803b158015610f8257600080fd5b505afa158015610f96573d6000803e3d6000fd5b505050506040513d601f19601f82011682018060405250610fba9190810190615ea5565b11156110f857600b60009054906101000a900473ffffffffffffffffffffffffffffffffffffffff1673ffffffffffffffffffffffffffffffffffffffff16632e1a7d4d600b60009054906101000a900473ffffffffffffffffffffffffffffffffffffffff1673ffffffffffffffffffffffffffffffffffffffff166370a08231306040518263ffffffff1660e01b815260040161105991906166c9565b60206040518083038186803b15801561107157600080fd5b505afa158015611085573d6000803e3d6000fd5b505050506040513d601f19601f820116820180604052506110a99190810190615ea5565b6040518263ffffffff1660e01b81526004016110c59190616a71565b600060405180830381600087803b1580156110df57600080fd5b505af11580156110f3573d6000803e3d6000fd5b505050505b6000600e60009054906101000a900473ffffffffffffffffffffffffffffffffffffffff1673ffffffffffffffffffffffffffffffffffffffff166370a08231306040518263ffffffff1660e01b815260040161115591906166c9565b60206040518083038186803b15801561116d57600080fd5b505afa158015611181573d6000803e3d6000fd5b505050506040513d601f19601f820116820180604052506111a59190810190615ea5565b11156112e357600e60009054906101000a900473ffffffffffffffffffffffffffffffffffffffff1673ffffffffffffffffffffffffffffffffffffffff16632e1a7d4d600e60009054906101000a900473ffffffffffffffffffffffffffffffffffffffff1673ffffffffffffffffffffffffffffffffffffffff166370a08231306040518263ffffffff1660e01b815260040161124491906166c9565b60206040518083038186803b15801561125c57600080fd5b505afa158015611270573d6000803e3d6000fd5b505050506040513d601f19601f820116820180604052506112949190810190615ea5565b6040518263ffffffff1660e01b81526004016112b09190616a71565b600060405180830381600087803b1580156112ca57600080fd5b505af11580156112de573d6000803e3d6000fd5b505050505b6000600260009054906101000a900473ffffffffffffffffffffffffffffffffffffffff1673ffffffffffffffffffffffffffffffffffffffff166370a08231306040518263ffffffff1660e01b815260040161134091906166c9565b60206040518083038186803b15801561135857600080fd5b505afa15801561136c573d6000803e3d6000fd5b505050506040513d601f19601f820116820180604052506113909190810190615ea5565b90506000600660009054906101000a900473ffffffffffffffffffffffffffffffffffffffff1673ffffffffffffffffffffffffffffffffffffffff166370a08231306040518263ffffffff1660e01b81526004016113ef91906166c9565b60206040518083038186803b15801561140757600080fd5b505afa15801561141b573d6000803e3d6000fd5b505050506040513d601f19601f8201168201806040525061143f9190810190615ea5565b90506000600a60009054906101000a900473ffffffffffffffffffffffffffffffffffffffff1673ffffffffffffffffffffffffffffffffffffffff166370a08231306040518263ffffffff1660e01b815260040161149e91906166c9565b60206040518083038186803b1580156114b657600080fd5b505afa1580156114ca573d6000803e3d6000fd5b505050506040513d601f19601f820116820180604052506114ee9190810190615ea5565b90506000600d60009054906101000a900473ffffffffffffffffffffffffffffffffffffffff1673ffffffffffffffffffffffffffffffffffffffff166370a08231306040518263ffffffff1660e01b815260040161154d91906166c9565b60206040518083038186803b15801561156557600080fd5b505afa158015611579573d6000803e3d6000fd5b505050506040513d601f19601f8201168201806040525061159d9190810190615ea5565b905060008411806115ae5750600083115b806115b95750600082115b806115c45750600081115b611603576040517f08c379a00000000000000000000000000000000000000000000000000000000081526004016115fa90616931565b60405180910390fd5b600084111561178757600560009054906101000a900473ffffffffffffffffffffffffffffffffffffffff1673ffffffffffffffffffffffffffffffffffffffff1663b6b55f25856040518263ffffffff1660e01b81526004016116679190616a71565b600060405180830381600087803b15801561168157600080fd5b505af1158015611695573d6000803e3d6000fd5b505050506000600260009054906101000a900473ffffffffffffffffffffffffffffffffffffffff1673ffffffffffffffffffffffffffffffffffffffff166370a08231306040518263ffffffff1660e01b81526004016116f691906166c9565b60206040518083038186803b15801561170e57600080fd5b505afa158015611722573d6000803e3d6000fd5b505050506040513d601f19601f820116820180604052506117469190810190615ea5565b14611786576040517f08c379a000000000000000000000000000000000000000000000000000000000815260040161177d906167b1565b60405180910390fd5b5b600083111561190b57600960009054906101000a900473ffffffffffffffffffffffffffffffffffffffff1673ffffffffffffffffffffffffffffffffffffffff1663b6b55f25846040518263ffffffff1660e01b81526004016117eb9190616a71565b600060405180830381600087803b15801561180557600080fd5b505af1158015611819573d6000803e3d6000fd5b505050506000600660009054906101000a900473ffffffffffffffffffffffffffffffffffffffff1673ffffffffffffffffffffffffffffffffffffffff166370a08231306040518263ffffffff1660e01b815260040161187a91906166c9565b60206040518083038186803b15801561189257600080fd5b505afa1580156118a6573d6000803e3d6000fd5b505050506040513d601f19601f820116820180604052506118ca9190810190615ea5565b1461190a576040517f08c379a0000000000000000000000000000000000000000000000000000000008152600401611901906168d1565b60405180910390fd5b5b6000821115611a8f57600c60009054906101000a900473ffffffffffffffffffffffffffffffffffffffff1673ffffffffffffffffffffffffffffffffffffffff1663b6b55f25836040518263ffffffff1660e01b815260040161196f9190616a71565b600060405180830381600087803b15801561198957600080fd5b505af115801561199d573d6000803e3d6000fd5b505050506000600a60009054906101000a900473ffffffffffffffffffffffffffffffffffffffff1673ffffffffffffffffffffffffffffffffffffffff166370a08231306040518263ffffffff1660e01b81526004016119fe91906166c9565b60206040518083038186803b158015611a1657600080fd5b505afa158015611a2a573d6000803e3d6000fd5b505050506040513d601f19601f82011682018060405250611a4e9190810190615ea5565b14611a8e576040517f08c379a0000000000000000000000000000000000000000000000000000000008152600401611a85906168d1565b60405180910390fd5b5b6000811115611b2657601060009054906101000a900473ffffffffffffffffffffffffffffffffffffffff1673ffffffffffffffffffffffffffffffffffffffff1663b6b55f25826040518263ffffffff1660e01b8152600401611af39190616a71565b600060405180830381600087803b158015611b0d57600080fd5b505af1158015611b21573d6000803e3d6000fd5b505050505b601760009054906101000a900473ffffffffffffffffffffffffffffffffffffffff1673ffffffffffffffffffffffffffffffffffffffff1663029b2f346040518060800160405280600560009054906101000a900473ffffffffffffffffffffffffffffffffffffffff1673ffffffffffffffffffffffffffffffffffffffff166370a08231306040518263ffffffff1660e01b8152600401611bca91906166c9565b60206040518083038186803b158015611be257600080fd5b505afa158015611bf6573d6000803e3d6000fd5b505050506040513d601f19601f82011682018060405250611c1a9190810190615ea5565b8152602001600960009054906101000a900473ffffffffffffffffffffffffffffffffffffffff1673ffffffffffffffffffffffffffffffffffffffff166370a08231306040518263ffffffff1660e01b8152600401611c7a91906166c9565b60206040518083038186803b158015611c9257600080fd5b505afa158015611ca6573d6000803e3d6000fd5b505050506040513d601f19601f82011682018060405250611cca9190810190615ea5565b8152602001600c60009054906101000a900473ffffffffffffffffffffffffffffffffffffffff1673ffffffffffffffffffffffffffffffffffffffff166370a08231306040518263ffffffff1660e01b8152600401611d2a91906166c9565b60206040518083038186803b158015611d4257600080fd5b505afa158015611d56573d6000803e3d6000fd5b505050506040513d601f19601f82011682018060405250611d7a9190810190615ea5565b8152602001601060009054906101000a900473ffffffffffffffffffffffffffffffffffffffff1673ffffffffffffffffffffffffffffffffffffffff166370a08231306040518263ffffffff1660e01b8152600401611dda91906166c9565b60206040518083038186803b158015611df257600080fd5b505afa158015611e06573d6000803e3d6000fd5b505050506040513d601f19601f82011682018060405250611e2a9190810190615ea5565b81525060006040518363ffffffff1660e01b8152600401611e4c92919061676d565b600060405180830381600087803b158015611e6657600080fd5b505af1158015611e7a573d6000803e3d6000fd5b505050506000600560009054906101000a900473ffffffffffffffffffffffffffffffffffffffff1673ffffffffffffffffffffffffffffffffffffffff166370a08231306040518263ffffffff1660e01b8152600401611edb91906166c9565b60206040518083038186803b158015611ef357600080fd5b505afa158015611f07573d6000803e3d6000fd5b505050506040513d601f19601f82011682018060405250611f2b9190810190615ea5565b14611f6b576040517f08c379a0000000000000000000000000000000000000000000000000000000008152600401611f6290616851565b60405180910390fd5b6000600960009054906101000a900473ffffffffffffffffffffffffffffffffffffffff1673ffffffffffffffffffffffffffffffffffffffff166370a08231306040518263ffffffff1660e01b8152600401611fc891906166c9565b60206040518083038186803b158015611fe057600080fd5b505afa158015611ff4573d6000803e3d6000fd5b505050506040513d601f19601f820116820180604052506120189190810190615ea5565b14612058576040517f08c379a000000000000000000000000000000000000000000000000000000000815260040161204f90616831565b60405180910390fd5b6000600c60009054906101000a900473ffffffffffffffffffffffffffffffffffffffff1673ffffffffffffffffffffffffffffffffffffffff166370a08231306040518263ffffffff1660e01b81526004016120b591906166c9565b60206040518083038186803b1580156120cd57600080fd5b505afa1580156120e1573d6000803e3d6000fd5b505050506040513d601f19601f820116820180604052506121059190810190615ea5565b14612145576040517f08c379a000000000000000000000000000000000000000000000000000000000815260040161213c906169d1565b60405180910390fd5b6000601060009054906101000a900473ffffffffffffffffffffffffffffffffffffffff1673ffffffffffffffffffffffffffffffffffffffff166370a08231306040518263ffffffff1660e01b81526004016121a291906166c9565b60206040518083038186803b1580156121ba57600080fd5b505afa1580156121ce573d6000803e3d6000fd5b505050506040513d601f19601f820116820180604052506121f29190810190615ea5565b14612232576040517f08c379a0000000000000000000000000000000000000000000000000000000008152600401612229906167d1565b60405180910390fd5b61232933601860009054906101000a900473ffffffffffffffffffffffffffffffffffffffff1673ffffffffffffffffffffffffffffffffffffffff166370a08231306040518263ffffffff1660e01b815260040161229191906166c9565b60206040518083038186803b1580156122a957600080fd5b505afa1580156122bd573d6000803e3d6000fd5b505050506040513d601f19601f820116820180604052506122e19190810190615ea5565b601860009054906101000a900473ffffffffffffffffffffffffffffffffffffffff1673ffffffffffffffffffffffffffffffffffffffff166156c59092919063ffffffff16565b6000601860009054906101000a900473ffffffffffffffffffffffffffffffffffffffff1673ffffffffffffffffffffffffffffffffffffffff166370a08231306040518263ffffffff1660e01b815260040161238691906166c9565b60206040518083038186803b15801561239e57600080fd5b505afa1580156123b2573d6000803e3d6000fd5b505050506040513d601f19601f820116820180604052506123d69190810190615ea5565b14612416576040517f08c379a000000000000000000000000000000000000000000000000000000000815260040161240d90616991565b60405180910390fd5b50505050600054811461245e576040517f08c379a0000000000000000000000000000000000000000000000000000000008152600401612455906169f1565b60405180910390fd5b5050565b600f60009054906101000a900473ffffffffffffffffffffffffffffffffffffffff1681565b601760009054906101000a900473ffffffffffffffffffffffffffffffffffffffff1681565b6001600080828254019250508190555060008054905060008211612507576040517f08c379a00000000000000000000000000000000000000000000000000000000081526004016124fe90616a11565b60405180910390fd5b612556333084601260009054906101000a900473ffffffffffffffffffffffffffffffffffffffff1673ffffffffffffffffffffffffffffffffffffffff16615764909392919063ffffffff16565b601160009054906101000a900473ffffffffffffffffffffffffffffffffffffffff1673ffffffffffffffffffffffffffffffffffffffff166359639fa9836125aa6107084261580690919063ffffffff16565b60405180604001604052806000815260200160008152506040518463ffffffff1660e01b81526004016125df93929190616ab5565b600060405180830381600087803b1580156125f957600080fd5b505af115801561260d573d6000803e3d6000fd5b505050506000601260009054906101000a900473ffffffffffffffffffffffffffffffffffffffff1673ffffffffffffffffffffffffffffffffffffffff166370a08231306040518263ffffffff1660e01b815260040161266e91906166c9565b60206040518083038186803b15801561268657600080fd5b505afa15801561269a573d6000803e3d6000fd5b505050506040513d601f19601f820116820180604052506126be9190810190615ea5565b146126fe576040517f08c379a00000000000000000000000000000000000000000000000000000000081526004016126f590616911565b60405180910390fd5b6000600360009054906101000a900473ffffffffffffffffffffffffffffffffffffffff1673ffffffffffffffffffffffffffffffffffffffff166370a08231306040518263ffffffff1660e01b815260040161275b91906166c9565b60206040518083038186803b15801561277357600080fd5b505afa158015612787573d6000803e3d6000fd5b505050506040513d601f19601f820116820180604052506127ab9190810190615ea5565b111561288857612887600360009054906101000a900473ffffffffffffffffffffffffffffffffffffffff16600360009054906101000a900473ffffffffffffffffffffffffffffffffffffffff1673ffffffffffffffffffffffffffffffffffffffff166370a08231306040518263ffffffff1660e01b815260040161283291906166c9565b60206040518083038186803b15801561284a57600080fd5b505afa15801561285e573d6000803e3d6000fd5b505050506040513d601f19601f820116820180604052506128829190810190615ea5565b61585b565b5b6000600760009054906101000a900473ffffffffffffffffffffffffffffffffffffffff1673ffffffffffffffffffffffffffffffffffffffff166370a08231306040518263ffffffff1660e01b81526004016128e591906166c9565b60206040518083038186803b1580156128fd57600080fd5b505afa158015612911573d6000803e3d6000fd5b505050506040513d601f19601f820116820180604052506129359190810190615ea5565b1115612a1257612a11600760009054906101000a900473ffffffffffffffffffffffffffffffffffffffff16600760009054906101000a900473ffffffffffffffffffffffffffffffffffffffff1673ffffffffffffffffffffffffffffffffffffffff166370a08231306040518263ffffffff1660e01b81526004016129bc91906166c9565b60206040518083038186803b1580156129d457600080fd5b505afa1580156129e8573d6000803e3d6000fd5b505050506040513d601f19601f82011682018060405250612a0c9190810190615ea5565b61585b565b5b6000600260009054906101000a900473ffffffffffffffffffffffffffffffffffffffff1673ffffffffffffffffffffffffffffffffffffffff166370a08231306040518263ffffffff1660e01b8152600401612a6f91906166c9565b60206040518083038186803b158015612a8757600080fd5b505afa158015612a9b573d6000803e3d6000fd5b505050506040513d601f19601f82011682018060405250612abf9190810190615ea5565b90506000600660009054906101000a900473ffffffffffffffffffffffffffffffffffffffff1673ffffffffffffffffffffffffffffffffffffffff166370a08231306040518263ffffffff1660e01b8152600401612b1e91906166c9565b60206040518083038186803b158015612b3657600080fd5b505afa158015612b4a573d6000803e3d6000fd5b505050506040513d601f19601f82011682018060405250612b6e9190810190615ea5565b90506000821180612b7f5750600081115b612bbe576040517f08c379a0000000000000000000000000000000000000000000000000000000008152600401612bb590616931565b60405180910390fd5b6000821115612d4257600460009054906101000a900473ffffffffffffffffffffffffffffffffffffffff1673ffffffffffffffffffffffffffffffffffffffff1663b6b55f25836040518263ffffffff1660e01b8152600401612c229190616a71565b600060405180830381600087803b158015612c3c57600080fd5b505af1158015612c50573d6000803e3d6000fd5b505050506000600260009054906101000a900473ffffffffffffffffffffffffffffffffffffffff1673ffffffffffffffffffffffffffffffffffffffff166370a08231306040518263ffffffff1660e01b8152600401612cb191906166c9565b60206040518083038186803b158015612cc957600080fd5b505afa158015612cdd573d6000803e3d6000fd5b505050506040513d601f19601f82011682018060405250612d019190810190615ea5565b14612d41576040517f08c379a0000000000000000000000000000000000000000000000000000000008152600401612d38906167b1565b60405180910390fd5b5b6000811115612ec657600860009054906101000a900473ffffffffffffffffffffffffffffffffffffffff1673ffffffffffffffffffffffffffffffffffffffff1663b6b55f25826040518263ffffffff1660e01b8152600401612da69190616a71565b600060405180830381600087803b158015612dc057600080fd5b505af1158015612dd4573d6000803e3d6000fd5b505050506000600660009054906101000a900473ffffffffffffffffffffffffffffffffffffffff1673ffffffffffffffffffffffffffffffffffffffff166370a08231306040518263ffffffff1660e01b8152600401612e3591906166c9565b60206040518083038186803b158015612e4d57600080fd5b505afa158015612e61573d6000803e3d6000fd5b505050506040513d601f19601f82011682018060405250612e859190810190615ea5565b14612ec5576040517f08c379a0000000000000000000000000000000000000000000000000000000008152600401612ebc906168d1565b60405180910390fd5b5b601560009054906101000a900473ffffffffffffffffffffffffffffffffffffffff1673ffffffffffffffffffffffffffffffffffffffff1663029b2f346040518060800160405280600460009054906101000a900473ffffffffffffffffffffffffffffffffffffffff1673ffffffffffffffffffffffffffffffffffffffff166370a08231306040518263ffffffff1660e01b8152600401612f6a91906166c9565b60206040518083038186803b158015612f8257600080fd5b505afa158015612f96573d6000803e3d6000fd5b505050506040513d601f19601f82011682018060405250612fba9190810190615ea5565b8152602001600860009054906101000a900473ffffffffffffffffffffffffffffffffffffffff1673ffffffffffffffffffffffffffffffffffffffff166370a08231306040518263ffffffff1660e01b815260040161301a91906166c9565b60206040518083038186803b15801561303257600080fd5b505afa158015613046573d6000803e3d6000fd5b505050506040513d601f19601f8201168201806040525061306a9190810190615ea5565b815260200160008152602001600081525060006040518363ffffffff1660e01b815260040161309a92919061676d565b600060405180830381600087803b1580156130b457600080fd5b505af11580156130c8573d6000803e3d6000fd5b505050506000600460009054906101000a900473ffffffffffffffffffffffffffffffffffffffff1673ffffffffffffffffffffffffffffffffffffffff166370a08231306040518263ffffffff1660e01b815260040161312991906166c9565b60206040518083038186803b15801561314157600080fd5b505afa158015613155573d6000803e3d6000fd5b505050506040513d601f19601f820116820180604052506131799190810190615ea5565b146131b9576040517f08c379a00000000000000000000000000000000000000000000000000000000081526004016131b090616851565b60405180910390fd5b6000600860009054906101000a900473ffffffffffffffffffffffffffffffffffffffff1673ffffffffffffffffffffffffffffffffffffffff166370a08231306040518263ffffffff1660e01b815260040161321691906166c9565b60206040518083038186803b15801561322e57600080fd5b505afa158015613242573d6000803e3d6000fd5b505050506040513d601f19601f820116820180604052506132669190810190615ea5565b146132a6576040517f08c379a000000000000000000000000000000000000000000000000000000000815260040161329d90616831565b60405180910390fd5b61339d33601660009054906101000a900473ffffffffffffffffffffffffffffffffffffffff1673ffffffffffffffffffffffffffffffffffffffff166370a08231306040518263ffffffff1660e01b815260040161330591906166c9565b60206040518083038186803b15801561331d57600080fd5b505afa158015613331573d6000803e3d6000fd5b505050506040513d601f19601f820116820180604052506133559190810190615ea5565b601660009054906101000a900473ffffffffffffffffffffffffffffffffffffffff1673ffffffffffffffffffffffffffffffffffffffff166156c59092919063ffffffff16565b6000601660009054906101000a900473ffffffffffffffffffffffffffffffffffffffff1673ffffffffffffffffffffffffffffffffffffffff166370a08231306040518263ffffffff1660e01b81526004016133fa91906166c9565b60206040518083038186803b15801561341257600080fd5b505afa158015613426573d6000803e3d6000fd5b505050506040513d601f19601f8201168201806040525061344a9190810190615ea5565b1461348a576040517f08c379a000000000000000000000000000000000000000000000000000000000815260040161348190616991565b60405180910390fd5b505060005481146134d0576040517f08c379a00000000000000000000000000000000000000000000000000000000081526004016134c7906169f1565b60405180910390fd5b5050565b601460009054906101000a900473ffffffffffffffffffffffffffffffffffffffff1681565b600360009054906101000a900473ffffffffffffffffffffffffffffffffffffffff1681565b613528613710565b613567576040517f08c379a000000000000000000000000000000000000000000000000000000000815260040161355e90616971565b60405180910390fd5b600073ffffffffffffffffffffffffffffffffffffffff16600160009054906101000a900473ffffffffffffffffffffffffffffffffffffffff1673ffffffffffffffffffffffffffffffffffffffff167f8be0079c531659141344cd1fd0a4f28419497f9722a3daafe3b4186f6b6457e060405160405180910390a36000600160006101000a81548173ffffffffffffffffffffffffffffffffffffffff021916908373ffffffffffffffffffffffffffffffffffffffff160217905550565b600560009054906101000a900473ffffffffffffffffffffffffffffffffffffffff1681565b600d60009054906101000a900473ffffffffffffffffffffffffffffffffffffffff1681565b600c60009054906101000a900473ffffffffffffffffffffffffffffffffffffffff1681565b600660009054906101000a900473ffffffffffffffffffffffffffffffffffffffff1681565b600e60009054906101000a900473ffffffffffffffffffffffffffffffffffffffff1681565b6000600160009054906101000a900473ffffffffffffffffffffffffffffffffffffffff16905090565b6000600160009054906101000a900473ffffffffffffffffffffffffffffffffffffffff1673ffffffffffffffffffffffffffffffffffffffff1661375361592c565b73ffffffffffffffffffffffffffffffffffffffff1614905090565b601160009054906101000a900473ffffffffffffffffffffffffffffffffffffffff1681565b613824600460009054906101000a900473ffffffffffffffffffffffffffffffffffffffff167fffffffffffffffffffffffffffffffffffffffffffffffffffffffffffffffff600260009054906101000a900473ffffffffffffffffffffffffffffffffffffffff1673ffffffffffffffffffffffffffffffffffffffff166159349092919063ffffffff16565b6138b3600560009054906101000a900473ffffffffffffffffffffffffffffffffffffffff167fffffffffffffffffffffffffffffffffffffffffffffffffffffffffffffffff600260009054906101000a900473ffffffffffffffffffffffffffffffffffffffff1673ffffffffffffffffffffffffffffffffffffffff166159349092919063ffffffff16565b613942601560009054906101000a900473ffffffffffffffffffffffffffffffffffffffff167fffffffffffffffffffffffffffffffffffffffffffffffffffffffffffffffff600460009054906101000a900473ffffffffffffffffffffffffffffffffffffffff1673ffffffffffffffffffffffffffffffffffffffff166159349092919063ffffffff16565b6139d1601760009054906101000a900473ffffffffffffffffffffffffffffffffffffffff167fffffffffffffffffffffffffffffffffffffffffffffffffffffffffffffffff600560009054906101000a900473ffffffffffffffffffffffffffffffffffffffff1673ffffffffffffffffffffffffffffffffffffffff166159349092919063ffffffff16565b613a60600860009054906101000a900473ffffffffffffffffffffffffffffffffffffffff167fffffffffffffffffffffffffffffffffffffffffffffffffffffffffffffffff600660009054906101000a900473ffffffffffffffffffffffffffffffffffffffff1673ffffffffffffffffffffffffffffffffffffffff166159349092919063ffffffff16565b613aef600960009054906101000a900473ffffffffffffffffffffffffffffffffffffffff167fffffffffffffffffffffffffffffffffffffffffffffffffffffffffffffffff600660009054906101000a900473ffffffffffffffffffffffffffffffffffffffff1673ffffffffffffffffffffffffffffffffffffffff166159349092919063ffffffff16565b613b7e601560009054906101000a900473ffffffffffffffffffffffffffffffffffffffff167fffffffffffffffffffffffffffffffffffffffffffffffffffffffffffffffff600860009054906101000a900473ffffffffffffffffffffffffffffffffffffffff1673ffffffffffffffffffffffffffffffffffffffff166159349092919063ffffffff16565b613c0d601760009054906101000a900473ffffffffffffffffffffffffffffffffffffffff167fffffffffffffffffffffffffffffffffffffffffffffffffffffffffffffffff600960009054906101000a900473ffffffffffffffffffffffffffffffffffffffff1673ffffffffffffffffffffffffffffffffffffffff166159349092919063ffffffff16565b613c9c601060009054906101000a900473ffffffffffffffffffffffffffffffffffffffff167fffffffffffffffffffffffffffffffffffffffffffffffffffffffffffffffff600f60009054906101000a900473ffffffffffffffffffffffffffffffffffffffff1673ffffffffffffffffffffffffffffffffffffffff166159349092919063ffffffff16565b613d2b601760009054906101000a900473ffffffffffffffffffffffffffffffffffffffff167fffffffffffffffffffffffffffffffffffffffffffffffffffffffffffffffff601060009054906101000a900473ffffffffffffffffffffffffffffffffffffffff1673ffffffffffffffffffffffffffffffffffffffff166159349092919063ffffffff16565b613d9b600b60009054906101000a900473ffffffffffffffffffffffffffffffffffffffff166000600a60009054906101000a900473ffffffffffffffffffffffffffffffffffffffff1673ffffffffffffffffffffffffffffffffffffffff166159349092919063ffffffff16565b613e2a600b60009054906101000a900473ffffffffffffffffffffffffffffffffffffffff167fffffffffffffffffffffffffffffffffffffffffffffffffffffffffffffffff600a60009054906101000a900473ffffffffffffffffffffffffffffffffffffffff1673ffffffffffffffffffffffffffffffffffffffff166159349092919063ffffffff16565b613e9a600c60009054906101000a900473ffffffffffffffffffffffffffffffffffffffff166000600a60009054906101000a900473ffffffffffffffffffffffffffffffffffffffff1673ffffffffffffffffffffffffffffffffffffffff166159349092919063ffffffff16565b613f29600c60009054906101000a900473ffffffffffffffffffffffffffffffffffffffff167fffffffffffffffffffffffffffffffffffffffffffffffffffffffffffffffff600a60009054906101000a900473ffffffffffffffffffffffffffffffffffffffff1673ffffffffffffffffffffffffffffffffffffffff166159349092919063ffffffff16565b613fb8601560009054906101000a900473ffffffffffffffffffffffffffffffffffffffff167fffffffffffffffffffffffffffffffffffffffffffffffffffffffffffffffff600b60009054906101000a900473ffffffffffffffffffffffffffffffffffffffff1673ffffffffffffffffffffffffffffffffffffffff166159349092919063ffffffff16565b614047601760009054906101000a900473ffffffffffffffffffffffffffffffffffffffff167fffffffffffffffffffffffffffffffffffffffffffffffffffffffffffffffff600c60009054906101000a900473ffffffffffffffffffffffffffffffffffffffff1673ffffffffffffffffffffffffffffffffffffffff166159349092919063ffffffff16565b565b601560009054906101000a900473ffffffffffffffffffffffffffffffffffffffff1681565b601860009054906101000a900473ffffffffffffffffffffffffffffffffffffffff1681565b600a60009054906101000a900473ffffffffffffffffffffffffffffffffffffffff1681565b600760009054906101000a900473ffffffffffffffffffffffffffffffffffffffff1681565b600b60009054906101000a900473ffffffffffffffffffffffffffffffffffffffff1681565b6001600080828254019250508190555060008054905060008211614160576040517f08c379a0000000000000000000000000000000000000000000000000000000008152600401614157906168b1565b60405180910390fd5b6141af333084601460009054906101000a900473ffffffffffffffffffffffffffffffffffffffff1673ffffffffffffffffffffffffffffffffffffffff16615764909392919063ffffffff16565b601360009054906101000a900473ffffffffffffffffffffffffffffffffffffffff1673ffffffffffffffffffffffffffffffffffffffff1663ecb586a5836040518060600160405280600081526020016000815260200160008152506040518363ffffffff1660e01b8152600401614229929190616a8c565b600060405180830381600087803b15801561424357600080fd5b505af1158015614257573d6000803e3d6000fd5b505050506000601460009054906101000a900473ffffffffffffffffffffffffffffffffffffffff1673ffffffffffffffffffffffffffffffffffffffff166370a08231306040518263ffffffff1660e01b81526004016142b891906166c9565b60206040518083038186803b1580156142d057600080fd5b505afa1580156142e4573d6000803e3d6000fd5b505050506040513d601f19601f820116820180604052506143089190810190615ea5565b14614348576040517f08c379a000000000000000000000000000000000000000000000000000000000815260040161433f90616911565b60405180910390fd5b6000600360009054906101000a900473ffffffffffffffffffffffffffffffffffffffff1673ffffffffffffffffffffffffffffffffffffffff166370a08231306040518263ffffffff1660e01b81526004016143a591906166c9565b60206040518083038186803b1580156143bd57600080fd5b505afa1580156143d1573d6000803e3d6000fd5b505050506040513d601f19601f820116820180604052506143f59190810190615ea5565b11156144d2576144d1600360009054906101000a900473ffffffffffffffffffffffffffffffffffffffff16600360009054906101000a900473ffffffffffffffffffffffffffffffffffffffff1673ffffffffffffffffffffffffffffffffffffffff166370a08231306040518263ffffffff1660e01b815260040161447c91906166c9565b60206040518083038186803b15801561449457600080fd5b505afa1580156144a8573d6000803e3d6000fd5b505050506040513d601f19601f820116820180604052506144cc9190810190615ea5565b61585b565b5b6000600760009054906101000a900473ffffffffffffffffffffffffffffffffffffffff1673ffffffffffffffffffffffffffffffffffffffff166370a08231306040518263ffffffff1660e01b815260040161452f91906166c9565b60206040518083038186803b15801561454757600080fd5b505afa15801561455b573d6000803e3d6000fd5b505050506040513d601f19601f8201168201806040525061457f9190810190615ea5565b111561465c5761465b600760009054906101000a900473ffffffffffffffffffffffffffffffffffffffff16600760009054906101000a900473ffffffffffffffffffffffffffffffffffffffff1673ffffffffffffffffffffffffffffffffffffffff166370a08231306040518263ffffffff1660e01b815260040161460691906166c9565b60206040518083038186803b15801561461e57600080fd5b505afa158015614632573d6000803e3d6000fd5b505050506040513d601f19601f820116820180604052506146569190810190615ea5565b61585b565b5b6000600260009054906101000a900473ffffffffffffffffffffffffffffffffffffffff1673ffffffffffffffffffffffffffffffffffffffff166370a08231306040518263ffffffff1660e01b81526004016146b991906166c9565b60206040518083038186803b1580156146d157600080fd5b505afa1580156146e5573d6000803e3d6000fd5b505050506040513d601f19601f820116820180604052506147099190810190615ea5565b90506000600660009054906101000a900473ffffffffffffffffffffffffffffffffffffffff1673ffffffffffffffffffffffffffffffffffffffff166370a08231306040518263ffffffff1660e01b815260040161476891906166c9565b60206040518083038186803b15801561478057600080fd5b505afa158015614794573d6000803e3d6000fd5b505050506040513d601f19601f820116820180604052506147b89190810190615ea5565b90506000600a60009054906101000a900473ffffffffffffffffffffffffffffffffffffffff1673ffffffffffffffffffffffffffffffffffffffff166370a08231306040518263ffffffff1660e01b815260040161481791906166c9565b60206040518083038186803b15801561482f57600080fd5b505afa158015614843573d6000803e3d6000fd5b505050506040513d601f19601f820116820180604052506148679190810190615ea5565b905060008311806148785750600082115b806148835750600081115b6148c2576040517f08c379a00000000000000000000000000000000000000000000000000000000081526004016148b990616931565b60405180910390fd5b6000831115614a4657600460009054906101000a900473ffffffffffffffffffffffffffffffffffffffff1673ffffffffffffffffffffffffffffffffffffffff1663b6b55f25846040518263ffffffff1660e01b81526004016149269190616a71565b600060405180830381600087803b15801561494057600080fd5b505af1158015614954573d6000803e3d6000fd5b505050506000600260009054906101000a900473ffffffffffffffffffffffffffffffffffffffff1673ffffffffffffffffffffffffffffffffffffffff166370a08231306040518263ffffffff1660e01b81526004016149b591906166c9565b60206040518083038186803b1580156149cd57600080fd5b505afa1580156149e1573d6000803e3d6000fd5b505050506040513d601f19601f82011682018060405250614a059190810190615ea5565b14614a45576040517f08c379a0000000000000000000000000000000000000000000000000000000008152600401614a3c906167b1565b60405180910390fd5b5b6000821115614bca57600860009054906101000a900473ffffffffffffffffffffffffffffffffffffffff1673ffffffffffffffffffffffffffffffffffffffff1663b6b55f25836040518263ffffffff1660e01b8152600401614aaa9190616a71565b600060405180830381600087803b158015614ac457600080fd5b505af1158015614ad8573d6000803e3d6000fd5b505050506000600660009054906101000a900473ffffffffffffffffffffffffffffffffffffffff1673ffffffffffffffffffffffffffffffffffffffff166370a08231306040518263ffffffff1660e01b8152600401614b3991906166c9565b60206040518083038186803b158015614b5157600080fd5b505afa158015614b65573d6000803e3d6000fd5b505050506040513d601f19601f82011682018060405250614b899190810190615ea5565b14614bc9576040517f08c379a0000000000000000000000000000000000000000000000000000000008152600401614bc0906168d1565b60405180910390fd5b5b6000811115614d4e57600b60009054906101000a900473ffffffffffffffffffffffffffffffffffffffff1673ffffffffffffffffffffffffffffffffffffffff1663b6b55f25826040518263ffffffff1660e01b8152600401614c2e9190616a71565b600060405180830381600087803b158015614c4857600080fd5b505af1158015614c5c573d6000803e3d6000fd5b505050506000600a60009054906101000a900473ffffffffffffffffffffffffffffffffffffffff1673ffffffffffffffffffffffffffffffffffffffff166370a08231306040518263ffffffff1660e01b8152600401614cbd91906166c9565b60206040518083038186803b158015614cd557600080fd5b505afa158015614ce9573d6000803e3d6000fd5b505050506040513d601f19601f82011682018060405250614d0d9190810190615ea5565b14614d4d576040517f08c379a0000000000000000000000000000000000000000000000000000000008152600401614d44906168d1565b60405180910390fd5b5b601560009054906101000a900473ffffffffffffffffffffffffffffffffffffffff1673ffffffffffffffffffffffffffffffffffffffff1663029b2f346040518060800160405280600460009054906101000a900473ffffffffffffffffffffffffffffffffffffffff1673ffffffffffffffffffffffffffffffffffffffff166370a08231306040518263ffffffff1660e01b8152600401614df291906166c9565b60206040518083038186803b158015614e0a57600080fd5b505afa158015614e1e573d6000803e3d6000fd5b505050506040513d601f19601f82011682018060405250614e429190810190615ea5565b8152602001600860009054906101000a900473ffffffffffffffffffffffffffffffffffffffff1673ffffffffffffffffffffffffffffffffffffffff166370a08231306040518263ffffffff1660e01b8152600401614ea291906166c9565b60206040518083038186803b158015614eba57600080fd5b505afa158015614ece573d6000803e3d6000fd5b505050506040513d601f19601f82011682018060405250614ef29190810190615ea5565b8152602001600b60009054906101000a900473ffffffffffffffffffffffffffffffffffffffff1673ffffffffffffffffffffffffffffffffffffffff166370a08231306040518263ffffffff1660e01b8152600401614f5291906166c9565b60206040518083038186803b158015614f6a57600080fd5b505afa158015614f7e573d6000803e3d6000fd5b505050506040513d601f19601f82011682018060405250614fa29190810190615ea5565b8152602001600081525060006040518363ffffffff1660e01b8152600401614fcb92919061676d565b600060405180830381600087803b158015614fe557600080fd5b505af1158015614ff9573d6000803e3d6000fd5b505050506000600460009054906101000a900473ffffffffffffffffffffffffffffffffffffffff1673ffffffffffffffffffffffffffffffffffffffff166370a08231306040518263ffffffff1660e01b815260040161505a91906166c9565b60206040518083038186803b15801561507257600080fd5b505afa158015615086573d6000803e3d6000fd5b505050506040513d601f19601f820116820180604052506150aa9190810190615ea5565b146150ea576040517f08c379a00000000000000000000000000000000000000000000000000000000081526004016150e190616851565b60405180910390fd5b6000600860009054906101000a900473ffffffffffffffffffffffffffffffffffffffff1673ffffffffffffffffffffffffffffffffffffffff166370a08231306040518263ffffffff1660e01b815260040161514791906166c9565b60206040518083038186803b15801561515f57600080fd5b505afa158015615173573d6000803e3d6000fd5b505050506040513d601f19601f820116820180604052506151979190810190615ea5565b146151d7576040517f08c379a00000000000000000000000000000000000000000000000000000000081526004016151ce90616831565b60405180910390fd5b6000600b60009054906101000a900473ffffffffffffffffffffffffffffffffffffffff1673ffffffffffffffffffffffffffffffffffffffff166370a08231306040518263ffffffff1660e01b815260040161523491906166c9565b60206040518083038186803b15801561524c57600080fd5b505afa158015615260573d6000803e3d6000fd5b505050506040513d601f19601f820116820180604052506152849190810190615ea5565b146152c4576040517f08c379a00000000000000000000000000000000000000000000000000000000081526004016152bb906169d1565b60405180910390fd5b6153bb33601660009054906101000a900473ffffffffffffffffffffffffffffffffffffffff1673ffffffffffffffffffffffffffffffffffffffff166370a08231306040518263ffffffff1660e01b815260040161532391906166c9565b60206040518083038186803b15801561533b57600080fd5b505afa15801561534f573d6000803e3d6000fd5b505050506040513d601f19601f820116820180604052506153739190810190615ea5565b601660009054906101000a900473ffffffffffffffffffffffffffffffffffffffff1673ffffffffffffffffffffffffffffffffffffffff166156c59092919063ffffffff16565b6000601660009054906101000a900473ffffffffffffffffffffffffffffffffffffffff1673ffffffffffffffffffffffffffffffffffffffff166370a08231306040518263ffffffff1660e01b815260040161541891906166c9565b60206040518083038186803b15801561543057600080fd5b505afa158015615444573d6000803e3d6000fd5b505050506040513d601f19601f820116820180604052506154689190810190615ea5565b146154a8576040517f08c379a000000000000000000000000000000000000000000000000000000000815260040161549f90616991565b60405180910390fd5b50505060005481146154ef576040517f08c379a00000000000000000000000000000000000000000000000000000000081526004016154e6906169f1565b60405180910390fd5b5050565b600260009054906101000a900473ffffffffffffffffffffffffffffffffffffffff1681565b600860009054906101000a900473ffffffffffffffffffffffffffffffffffffffff1681565b615547613710565b615586576040517f08c379a000000000000000000000000000000000000000000000000000000000815260040161557d90616971565b60405180910390fd5b61558f81615aab565b50565b61559a613710565b6155d9576040517f08c379a00000000000000000000000000000000000000000000000000000000081526004016155d090616971565b60405180910390fd5b60003373ffffffffffffffffffffffffffffffffffffffff163073ffffffffffffffffffffffffffffffffffffffff163160405161561690616699565b60006040518083038185875af1925050503d8060008114615653576040519150601f19603f3d011682016040523d82523d6000602084013e615658565b606091505b505090508061569c576040517f08c379a0000000000000000000000000000000000000000000000000000000008152600401615693906168f1565b60405180910390fd5b50565b601060009054906101000a900473ffffffffffffffffffffffffffffffffffffffff1681565b61575f838473ffffffffffffffffffffffffffffffffffffffff1663a9059cbb905060e01b84846040516024016156fd929190616744565b604051602081830303815290604052907bffffffffffffffffffffffffffffffffffffffffffffffffffffffff19166020820180517bffffffffffffffffffffffffffffffffffffffffffffffffffffffff8381831617835250505050615bdb565b505050565b615800848573ffffffffffffffffffffffffffffffffffffffff166323b872dd905060e01b85858560405160240161579e9392919061670d565b604051602081830303815290604052907bffffffffffffffffffffffffffffffffffffffffffffffffffffffff19166020820180517bffffffffffffffffffffffffffffffffffffffffffffffffffffffff8381831617835250505050615bdb565b50505050565b600080828401905083811015615851576040517f08c379a000000000000000000000000000000000000000000000000000000000815260040161584890616871565b60405180910390fd5b8091505092915050565b60008273ffffffffffffffffffffffffffffffffffffffff1663db006a75836040518263ffffffff1660e01b81526004016158969190616a71565b602060405180830381600087803b1580156158b057600080fd5b505af11580156158c4573d6000803e3d6000fd5b505050506040513d601f19601f820116820180604052506158e89190810190615ea5565b14615928576040517f08c379a000000000000000000000000000000000000000000000000000000000815260040161591f906167f1565b60405180910390fd5b5050565b600033905090565b60008114806159cd575060008373ffffffffffffffffffffffffffffffffffffffff1663dd62ed3e30856040518363ffffffff1660e01b815260040161597b9291906166e4565b60206040518083038186803b15801561599357600080fd5b505afa1580156159a7573d6000803e3d6000fd5b505050506040513d601f19601f820116820180604052506159cb9190810190615ea5565b145b615a0c576040517f08c379a0000000000000000000000000000000000000000000000000000000008152600401615a0390616a31565b60405180910390fd5b615aa6838473ffffffffffffffffffffffffffffffffffffffff1663095ea7b3905060e01b8484604051602401615a44929190616744565b604051602081830303815290604052907bffffffffffffffffffffffffffffffffffffffffffffffffffffffff19166020820180517bffffffffffffffffffffffffffffffffffffffffffffffffffffffff8381831617835250505050615bdb565b505050565b600073ffffffffffffffffffffffffffffffffffffffff168173ffffffffffffffffffffffffffffffffffffffff161415615b1b576040517f08c379a0000000000000000000000000000000000000000000000000000000008152600401615b1290616811565b60405180910390fd5b8073ffffffffffffffffffffffffffffffffffffffff16600160009054906101000a900473ffffffffffffffffffffffffffffffffffffffff1673ffffffffffffffffffffffffffffffffffffffff167f8be0079c531659141344cd1fd0a4f28419497f9722a3daafe3b4186f6b6457e060405160405180910390a380600160006101000a81548173ffffffffffffffffffffffffffffffffffffffff021916908373ffffffffffffffffffffffffffffffffffffffff16021790555050565b615bfa8273ffffffffffffffffffffffffffffffffffffffff16615d4d565b615c39576040517f08c379a0000000000000000000000000000000000000000000000000000000008152600401615c3090616a51565b60405180910390fd5b600060608373ffffffffffffffffffffffffffffffffffffffff1683604051615c629190616682565b6000604051808303816000865af19150503d8060008114615c9f576040519150601f19603f3d011682016040523d82523d6000602084013e615ca4565b606091505b509150915081615ce9576040517f08c379a0000000000000000000000000000000000000000000000000000000008152600401615ce090616891565b60405180910390fd5b600081511115615d475780806020019051615d079190810190615e2a565b615d46576040517f08c379a0000000000000000000000000000000000000000000000000000000008152600401615d3d906169b1565b60405180910390fd5b5b50505050565b60008060007fc5d2460186f7233c927e7db2dcc703c0e500b653ca82273b7bfad8045d85a47060001b9050833f91506000801b8214158015615d8f5750808214155b92505050919050565b600081359050615da781616c6f565b92915050565b600081519050615dbc81616c86565b92915050565b600081359050615dd181616c9d565b92915050565b600081359050615de681616cb4565b92915050565b600081519050615dfb81616cb4565b92915050565b600060208284031215615e1357600080fd5b6000615e2184828501615d98565b91505092915050565b600060208284031215615e3c57600080fd5b6000615e4a84828501615dad565b91505092915050565b600060208284031215615e6557600080fd5b6000615e7384828501615dc2565b91505092915050565b600060208284031215615e8e57600080fd5b6000615e9c84828501615dd7565b91505092915050565b600060208284031215615eb757600080fd5b6000615ec584828501615dec565b91505092915050565b6000615eda8383616664565b60208301905092915050565b615eef81616bf4565b82525050565b615efe81616b9a565b82525050565b615f0d81616b0a565b615f178184616b5d565b9250615f2282616aec565b8060005b83811015615f53578151615f3a8782615ece565b9650615f4583616b36565b925050600181019050615f26565b505050505050565b615f6481616b15565b615f6e8184616b68565b9250615f7982616af6565b8060005b83811015615faa578151615f918782615ece565b9650615f9c83616b43565b925050600181019050615f7d565b505050505050565b615fbb81616b20565b615fc58184616b73565b9250615fd082616b00565b8060005b83811015616001578151615fe88782615ece565b9650615ff383616b50565b925050600181019050615fd4565b505050505050565b61601281616bac565b82525050565b600061602382616b2b565b61602d8185616b7e565b935061603d818560208601616c3c565b80840191505092915050565b61605281616c06565b82525050565b6000616065600d83616b89565b91507f6461692072656d61696e646572000000000000000000000000000000000000006000830152602082019050919050565b60006160a5600f83616b89565b91507f79425553442072656d61696e64657200000000000000000000000000000000006000830152602082019050919050565b60006160e5601983616b89565b91507f434f4d504f554e443a207769746864726177206661696c6564000000000000006000830152602082019050919050565b6000616125602683616b89565b91507f4f776e61626c653a206e6577206f776e657220697320746865207a65726f206160008301527f64647265737300000000000000000000000000000000000000000000000000006020830152604082019050919050565b600061618b600f83616b89565b91507f79555344432072656d61696e64657200000000000000000000000000000000006000830152602082019050919050565b60006161cb600e83616b89565b91507f794441492072656d61696e6465720000000000000000000000000000000000006000830152602082019050919050565b600061620b601b83616b89565b91507f536166654d6174683a206164646974696f6e206f766572666c6f7700000000006000830152602082019050919050565b600061624b602083616b89565b91507f5361666545524332303a206c6f772d6c6576656c2063616c6c206661696c65646000830152602082019050919050565b600061628b601e83616b89565b91507f63757276657632206d7573742062652067726561746572207468616e203000006000830152602082019050919050565b60006162cb600e83616b89565b91507f757364632072656d61696e6465720000000000000000000000000000000000006000830152602082019050919050565b600061630b601683616b89565b91507f7472616e73666572206f6620455448206661696c6564000000000000000000006000830152602082019050919050565b600061634b600f83616b89565b91507f43555256452072656d61696e64657200000000000000000000000000000000006000830152602082019050919050565b600061638b601383616b89565b91507f6e6f20756e6465726c79696e6720666f756e64000000000000000000000000006000830152602082019050919050565b60006163cb601e83616b89565b91507f63757276657633206d7573742062652067726561746572207468616e203000006000830152602082019050919050565b600061640b602083616b89565b91507f4f776e61626c653a2063616c6c6572206973206e6f7420746865206f776e65726000830152602082019050919050565b600061644b600083616b7e565b9150600082019050919050565b6000616465601183616b89565b91507f435552564576332072656d61696e6465720000000000000000000000000000006000830152602082019050919050565b60006164a5602a83616b89565b91507f5361666545524332303a204552433230206f7065726174696f6e20646964206e60008301527f6f742073756363656564000000000000000000000000000000000000000000006020830152604082019050919050565b600061650b600f83616b89565b91507f79555344542072656d61696e64657200000000000000000000000000000000006000830152602082019050919050565b600061654b601f83616b89565b91507f5265656e7472616e637947756172643a207265656e7472616e742063616c6c006000830152602082019050919050565b600061658b601e83616b89565b91507f63757276657631206d7573742062652067726561746572207468616e203000006000830152602082019050919050565b60006165cb603683616b89565b91507f5361666545524332303a20617070726f76652066726f6d206e6f6e2d7a65726f60008301527f20746f206e6f6e2d7a65726f20616c6c6f77616e6365000000000000000000006020830152604082019050919050565b6000616631601f83616b89565b91507f5361666545524332303a2063616c6c20746f206e6f6e2d636f6e7472616374006000830152602082019050919050565b61666d81616bea565b82525050565b61667c81616bea565b82525050565b600061668e8284616018565b915081905092915050565b60006166a48261643e565b9150819050919050565b60006020820190506166c36000830184615ef5565b92915050565b60006020820190506166de6000830184615ee6565b92915050565b60006040820190506166f96000830185615ef5565b6167066020830184615ef5565b9392505050565b60006060820190506167226000830186615ef5565b61672f6020830185615ef5565b61673c6040830184616673565b949350505050565b60006040820190506167596000830185615ef5565b6167666020830184616673565b9392505050565b600060a0820190506167826000830185615fb2565b61678f6080830184616049565b9392505050565b60006020820190506167ab6000830184616009565b92915050565b600060208201905081810360008301526167ca81616058565b9050919050565b600060208201905081810360008301526167ea81616098565b9050919050565b6000602082019050818103600083015261680a816160d8565b9050919050565b6000602082019050818103600083015261682a81616118565b9050919050565b6000602082019050818103600083015261684a8161617e565b9050919050565b6000602082019050818103600083015261686a816161be565b9050919050565b6000602082019050818103600083015261688a816161fe565b9050919050565b600060208201905081810360008301526168aa8161623e565b9050919050565b600060208201905081810360008301526168ca8161627e565b9050919050565b600060208201905081810360008301526168ea816162be565b9050919050565b6000602082019050818103600083015261690a816162fe565b9050919050565b6000602082019050818103600083015261692a8161633e565b9050919050565b6000602082019050818103600083015261694a8161637e565b9050919050565b6000602082019050818103600083015261696a816163be565b9050919050565b6000602082019050818103600083015261698a816163fe565b9050919050565b600060208201905081810360008301526169aa81616458565b9050919050565b600060208201905081810360008301526169ca81616498565b9050919050565b600060208201905081810360008301526169ea816164fe565b9050919050565b60006020820190508181036000830152616a0a8161653e565b9050919050565b60006020820190508181036000830152616a2a8161657e565b9050919050565b60006020820190508181036000830152616a4a816165be565b9050919050565b60006020820190508181036000830152616a6a81616624565b9050919050565b6000602082019050616a866000830184616673565b92915050565b6000608082019050616aa16000830185616673565b616aae6020830184615f5b565b9392505050565b6000608082019050616aca6000830186616673565b616ad76020830185616673565b616ae46040830184615f04565b949350505050565b6000819050919050565b6000819050919050565b6000819050919050565b600060029050919050565b600060039050919050565b600060049050919050565b600081519050919050565b6000602082019050919050565b6000602082019050919050565b6000602082019050919050565b600081905092915050565b600081905092915050565b600081905092915050565b600081905092915050565b600082825260208201905092915050565b6000616ba582616bca565b9050919050565b60008115159050919050565b6000616bc382616b9a565b9050919050565b600073ffffffffffffffffffffffffffffffffffffffff82169050919050565b6000819050919050565b6000616bff82616c18565b9050919050565b6000616c1182616bea565b9050919050565b6000616c2382616c2a565b9050919050565b6000616c3582616bca565b9050919050565b60005b83811015616c5a578082015181840152602081019050616c3f565b83811115616c69576000848401525b50505050565b616c7881616b9a565b8114616c8357600080fd5b50565b616c8f81616bac565b8114616c9a57600080fd5b50565b616ca681616bb8565b8114616cb157600080fd5b50565b616cbd81616bea565b8114616cc857600080fd5b5056fea365627a7a72315820ebd1161c2ab80d40742c0d95d40220521f821235855ea9e3d19ffc4a21aed33c6c6578706572696d656e74616cf564736f6c634300050c0040",
  "source": "pragma solidity ^0.5.0;\npragma experimental ABIEncoderV2;\n\ninterface IERC20 {\n    function totalSupply() external view returns (uint256);\n    function balanceOf(address account) external view returns (uint256);\n    function transfer(address recipient, uint256 amount) external returns (bool);\n    function allowance(address owner, address spender) external view returns (uint256);\n    function approve(address spender, uint256 amount) external returns (bool);\n    function transferFrom(address sender, address recipient, uint256 amount) external returns (bool);\n    event Transfer(address indexed from, address indexed to, uint256 value);\n    event Approval(address indexed owner, address indexed spender, uint256 value);\n}\n\ncontract Context {\n    constructor () internal { }\n    // solhint-disable-previous-line no-empty-blocks\n\n    function _msgSender() internal view returns (address payable) {\n        return msg.sender;\n    }\n\n    function _msgData() internal view returns (bytes memory) {\n        this; // silence state mutability warning without generating bytecode - see https://github.com/ethereum/solidity/issues/2691\n        return msg.data;\n    }\n}\n\ncontract ReentrancyGuard {\n    uint256 private _guardCounter;\n\n    constructor () internal {\n        _guardCounter = 1;\n    }\n\n    modifier nonReentrant() {\n        _guardCounter += 1;\n        uint256 localCounter = _guardCounter;\n        _;\n        require(localCounter == _guardCounter, \"ReentrancyGuard: reentrant call\");\n    }\n}\n\ncontract Ownable is Context {\n    address private _owner;\n\n    event OwnershipTransferred(address indexed previousOwner, address indexed newOwner);\n    constructor () internal {\n        _owner = _msgSender();\n        emit OwnershipTransferred(address(0), _owner);\n    }\n    function owner() public view returns (address) {\n        return _owner;\n    }\n    modifier onlyOwner() {\n        require(isOwner(), \"Ownable: caller is not the owner\");\n        _;\n    }\n    function isOwner() public view returns (bool) {\n        return _msgSender() == _owner;\n    }\n    function renounceOwnership() public onlyOwner {\n        emit OwnershipTransferred(_owner, address(0));\n        _owner = address(0);\n    }\n    function transferOwnership(address newOwner) public onlyOwner {\n        _transferOwnership(newOwner);\n    }\n    function _transferOwnership(address newOwner) internal {\n        require(newOwner != address(0), \"Ownable: new owner is the zero address\");\n        emit OwnershipTransferred(_owner, newOwner);\n        _owner = newOwner;\n    }\n}\n\nlibrary SafeMath {\n    function add(uint256 a, uint256 b) internal pure returns (uint256) {\n        uint256 c = a + b;\n        require(c >= a, \"SafeMath: addition overflow\");\n\n        return c;\n    }\n    function sub(uint256 a, uint256 b) internal pure returns (uint256) {\n        return sub(a, b, \"SafeMath: subtraction overflow\");\n    }\n    function sub(uint256 a, uint256 b, string memory errorMessage) internal pure returns (uint256) {\n        require(b <= a, errorMessage);\n        uint256 c = a - b;\n\n        return c;\n    }\n    function mul(uint256 a, uint256 b) internal pure returns (uint256) {\n        if (a == 0) {\n            return 0;\n        }\n\n        uint256 c = a * b;\n        require(c / a == b, \"SafeMath: multiplication overflow\");\n\n        return c;\n    }\n    function div(uint256 a, uint256 b) internal pure returns (uint256) {\n        return div(a, b, \"SafeMath: division by zero\");\n    }\n    function div(uint256 a, uint256 b, string memory errorMessage) internal pure returns (uint256) {\n        // Solidity only automatically asserts when dividing by 0\n        require(b > 0, errorMessage);\n        uint256 c = a / b;\n\n        return c;\n    }\n    function mod(uint256 a, uint256 b) internal pure returns (uint256) {\n        return mod(a, b, \"SafeMath: modulo by zero\");\n    }\n    function mod(uint256 a, uint256 b, string memory errorMessage) internal pure returns (uint256) {\n        require(b != 0, errorMessage);\n        return a % b;\n    }\n}\n\nlibrary Address {\n    function isContract(address account) internal view returns (bool) {\n        bytes32 codehash;\n        bytes32 accountHash = 0xc5d2460186f7233c927e7db2dcc703c0e500b653ca82273b7bfad8045d85a470;\n        // solhint-disable-next-line no-inline-assembly\n        assembly { codehash := extcodehash(account) }\n        return (codehash != 0x0 && codehash != accountHash);\n    }\n    function toPayable(address account) internal pure returns (address payable) {\n        return address(uint160(account));\n    }\n    function sendValue(address payable recipient, uint256 amount) internal {\n        require(address(this).balance >= amount, \"Address: insufficient balance\");\n\n        // solhint-disable-next-line avoid-call-value\n        (bool success, ) = recipient.call.value(amount)(\"\");\n        require(success, \"Address: unable to send value, recipient may have reverted\");\n    }\n}\n\nlibrary SafeERC20 {\n    using SafeMath for uint256;\n    using Address for address;\n\n    function safeTransfer(IERC20 token, address to, uint256 value) internal {\n        callOptionalReturn(token, abi.encodeWithSelector(token.transfer.selector, to, value));\n    }\n    function safeTransferFrom(IERC20 token, address from, address to, uint256 value) internal {\n        callOptionalReturn(token, abi.encodeWithSelector(token.transferFrom.selector, from, to, value));\n    }\n    function safeApprove(IERC20 token, address spender, uint256 value) internal {\n        require((value == 0) || (token.allowance(address(this), spender) == 0),\n            \"SafeERC20: approve from non-zero to non-zero allowance\"\n        );\n        callOptionalReturn(token, abi.encodeWithSelector(token.approve.selector, spender, value));\n    }\n    function callOptionalReturn(IERC20 token, bytes memory data) private {\n        require(address(token).isContract(), \"SafeERC20: call to non-contract\");\n\n        // solhint-disable-next-line avoid-low-level-calls\n        (bool success, bytes memory returndata) = address(token).call(data);\n        require(success, \"SafeERC20: low-level call failed\");\n\n        if (returndata.length > 0) { // Return data is optional\n            // solhint-disable-next-line max-line-length\n            require(abi.decode(returndata, (bool)), \"SafeERC20: ERC20 operation did not succeed\");\n        }\n    }\n}\n\ninterface yERC20 {\n  function deposit(uint256 _amount) external;\n  function withdraw(uint256 _amount) external;\n}\n\n// Solidity Interface\n\ninterface ICurveFiv1 {\n  function remove_liquidity(\n    uint256 _amount,\n    uint256 deadline,\n    uint256[2] calldata min_amounts\n  ) external;\n}\n\ninterface ICurveFiv2 {\n  function remove_liquidity(\n    uint256 _amount,\n    uint256[3] calldata min_amounts\n  ) external;\n}\n\ninterface Compound {\n    function mint ( uint256 mintAmount ) external returns ( uint256 );\n    function redeem(uint256 redeemTokens) external returns (uint256);\n    function exchangeRateStored() external view returns (uint);\n}\n\n\ninterface ICurveFiv3 {\n  function add_liquidity(\n    uint256[4] calldata amounts,\n    uint256 min_mint_amount\n  ) external;\n}\n\ninterface ICurveFiv4 {\n  function add_liquidity(\n    uint256[4] calldata amounts,\n    uint256 min_mint_amount\n  ) external;\n}\n\ncontract yCurveZapSwapV4 is ReentrancyGuard, Ownable {\n  using SafeERC20 for IERC20;\n  using Address for address;\n  using SafeMath for uint256;\n\n  address public DAI;\n  address public cDAI;\n  address public yDAIv2;\n  address public yDAIv3;\n  address public USDC;\n  address public cUSDC;\n  address public yUSDCv2;\n  address public yUSDCv3;\n  address public USDT;\n  address public yUSDTv2;\n  address public yUSDTv3;\n  address public TUSD;\n  address public yTUSDv2;\n  address public BUSD;\n  address public yBUSDv3;\n  address public SWAPv1;\n  address public CURVEv1;\n  address public SWAPv2;\n  address public CURVEv2;\n  address public SWAPv3;\n  address public CURVEv3;\n  address public SWAPv4;\n  address public CURVEv4;\n\n  constructor () public {\n    DAI = address(0x6B175474E89094C44Da98b954EedeAC495271d0F);\n    yDAIv2 = address(0x16de59092dAE5CcF4A1E6439D611fd0653f0Bd01);\n    yDAIv3 = address(0xC2cB1040220768554cf699b0d863A3cd4324ce32);\n    cDAI = address(0x5d3a536E4D6DbD6114cc1Ead35777bAB948E3643);\n\n    TUSD = address(0x0000000000085d4780B73119b644AE5ecd22b376);\n    yTUSDv2 = address(0x73a052500105205d34Daf004eAb301916DA8190f);\n\n    USDC = address(0xA0b86991c6218b36c1d19D4a2e9Eb0cE3606eB48);\n    yUSDCv2 = address(0xd6aD7a6750A7593E092a9B218d66C0A814a3436e);\n    yUSDCv3 = address(0xf7c9C5B31F12701dD2dD65AAdF6116ee6aB81BB4);\n    cUSDC = address(0x39AA39c021dfbaE8faC545936693aC917d5E7563);\n\n    USDT = address(0xdAC17F958D2ee523a2206206994597C13D831ec7);\n    yUSDTv2 = address(0x83f798e925BcD4017Eb265844FDDAbb448f1707D);\n    yUSDTv3 = address(0xE6354ed5bC4b393a5Aad09f21c46E101e692d447);\n\n    BUSD = address(0x4Fabb145d64652a948d72533023f6E7A623C7C53);\n    yBUSDv3 = address(0x04bC0Ab673d88aE9dbC9DA2380cB6B79C4BCa9aE);\n\n\n    SWAPv1 = address(0x2e60CF74d81ac34eB21eEff58Db4D385920ef419);\n    CURVEv1 = address(0x3740fb63ab7a09891d7c0d4299442A551D06F5fD);\n\n    SWAPv2 = address(0x52EA46506B9CC5Ef470C5bf89f17Dc28bB35D85C);\n    CURVEv2 = address(0x9fC689CCaDa600B6DF723D9E47D84d76664a1F23);\n\n    SWAPv3 = address(0x45F783CCE6B7FF23B2ab2D70e416cdb7D6055f51);\n    CURVEv3 = address(0xdF5e0e81Dff6FAF3A7e52BA697820c5e32D806A8);\n\n    SWAPv4 = address(0xDc31F5C17254A89D53a1248195f239618c96838e);\n    CURVEv4 = address(0xb241A8c2FA87De870c7cBB29bebe70Ec1eE7188F);\n\n    approveToken();\n  }\n\n  function() external payable {\n\n  }\n\n  function withdrawCompound(address token, uint amount) internal {\n      require(Compound(token).redeem(amount) == 0, \"COMPOUND: withdraw failed\");\n  }\n\n  function approveToken() public {\n      IERC20(DAI).safeApprove(yDAIv2, uint(-1));\n      IERC20(DAI).safeApprove(yDAIv3, uint(-1));\n      IERC20(yDAIv2).safeApprove(SWAPv3, uint(-1));\n      IERC20(yDAIv3).safeApprove(SWAPv4, uint(-1));\n\n      IERC20(USDC).safeApprove(yUSDCv2, uint(-1));\n      IERC20(USDC).safeApprove(yUSDCv3, uint(-1));\n      IERC20(yUSDCv2).safeApprove(SWAPv3, uint(-1));\n      IERC20(yUSDCv3).safeApprove(SWAPv4, uint(-1));\n\n      IERC20(BUSD).safeApprove(yBUSDv3, uint(-1));\n      IERC20(yBUSDv3).safeApprove(SWAPv4, uint(-1));\n\n      IERC20(USDT).safeApprove(yUSDTv2, uint(0));\n      IERC20(USDT).safeApprove(yUSDTv2, uint(-1));\n      IERC20(USDT).safeApprove(yUSDTv3, uint(0));\n      IERC20(USDT).safeApprove(yUSDTv3, uint(-1));\n      IERC20(yUSDTv2).safeApprove(SWAPv3, uint(-1));\n      IERC20(yUSDTv3).safeApprove(SWAPv4, uint(-1));\n\n  }\n\n  function swapv1tov3(uint256 _amount)\n      external\n      nonReentrant\n  {\n      require(_amount > 0, \"curvev1 must be greater than 0\");\n      IERC20(CURVEv1).safeTransferFrom(msg.sender, address(this), _amount);\n      ICurveFiv1(SWAPv1).remove_liquidity(_amount, now.add(1800), [uint256(0),0]);\n      require(IERC20(CURVEv1).balanceOf(address(this)) == 0, \"CURVE remainder\");\n\n      if (IERC20(cDAI).balanceOf(address(this)) > 0) {\n        withdrawCompound(cDAI, IERC20(cDAI).balanceOf(address(this)));\n      }\n      if (IERC20(cUSDC).balanceOf(address(this)) > 0) {\n        withdrawCompound(cUSDC, IERC20(cUSDC).balanceOf(address(this)));\n      }\n\n      uint256 _dai = IERC20(DAI).balanceOf(address(this));\n      uint256 _usdc = IERC20(USDC).balanceOf(address(this));\n\n      require(_dai > 0 || _usdc > 0, \"no underlying found\");\n\n      if (_dai > 0) {\n        yERC20(yDAIv2).deposit(_dai);\n        require(IERC20(DAI).balanceOf(address(this)) == 0, \"dai remainder\");\n      }\n\n      if (_usdc > 0) {\n        yERC20(yUSDCv2).deposit(_usdc);\n        require(IERC20(USDC).balanceOf(address(this)) == 0, \"usdc remainder\");\n      }\n\n      ICurveFiv3(SWAPv3).add_liquidity([\n        IERC20(yDAIv2).balanceOf(address(this)),\n        IERC20(yUSDCv2).balanceOf(address(this)),0,0],0);\n\n      require(IERC20(yDAIv2).balanceOf(address(this)) == 0, \"yDAI remainder\");\n      require(IERC20(yUSDCv2).balanceOf(address(this)) == 0, \"yUSDC remainder\");\n\n      IERC20(CURVEv3).safeTransfer(msg.sender, IERC20(CURVEv3).balanceOf(address(this)));\n      require(IERC20(CURVEv3).balanceOf(address(this)) == 0, \"CURVEv3 remainder\");\n  }\n\n  function swapv2tov3(uint256 _amount)\n      external\n      nonReentrant\n  {\n      require(_amount > 0, \"curvev2 must be greater than 0\");\n      IERC20(CURVEv2).safeTransferFrom(msg.sender, address(this), _amount);\n      ICurveFiv2(SWAPv2).remove_liquidity(_amount, [uint256(0),0,0]);\n      require(IERC20(CURVEv2).balanceOf(address(this)) == 0, \"CURVE remainder\");\n\n      if (IERC20(cDAI).balanceOf(address(this)) > 0) {\n        withdrawCompound(cDAI, IERC20(cDAI).balanceOf(address(this)));\n      }\n      if (IERC20(cUSDC).balanceOf(address(this)) > 0) {\n        withdrawCompound(cUSDC, IERC20(cUSDC).balanceOf(address(this)));\n      }\n\n      uint256 _dai = IERC20(DAI).balanceOf(address(this));\n      uint256 _usdc = IERC20(USDC).balanceOf(address(this));\n      uint256 _usdt = IERC20(USDT).balanceOf(address(this));\n\n      require(_dai > 0 || _usdc > 0 || _usdt > 0, \"no underlying found\");\n\n      if (_dai > 0) {\n        yERC20(yDAIv2).deposit(_dai);\n        require(IERC20(DAI).balanceOf(address(this)) == 0, \"dai remainder\");\n      }\n\n      if (_usdc > 0) {\n        yERC20(yUSDCv2).deposit(_usdc);\n        require(IERC20(USDC).balanceOf(address(this)) == 0, \"usdc remainder\");\n      }\n\n      if (_usdt > 0) {\n        yERC20(yUSDTv2).deposit(_usdt);\n        require(IERC20(USDT).balanceOf(address(this)) == 0, \"usdc remainder\");\n      }\n\n      ICurveFiv3(SWAPv3).add_liquidity([\n        IERC20(yDAIv2).balanceOf(address(this)),\n        IERC20(yUSDCv2).balanceOf(address(this)),\n        IERC20(yUSDTv2).balanceOf(address(this)),0],0);\n\n      require(IERC20(yDAIv2).balanceOf(address(this)) == 0, \"yDAI remainder\");\n      require(IERC20(yUSDCv2).balanceOf(address(this)) == 0, \"yUSDC remainder\");\n      require(IERC20(yUSDTv2).balanceOf(address(this)) == 0, \"yUSDT remainder\");\n\n      IERC20(CURVEv3).safeTransfer(msg.sender, IERC20(CURVEv3).balanceOf(address(this)));\n      require(IERC20(CURVEv3).balanceOf(address(this)) == 0, \"CURVEv3 remainder\");\n  }\n\n  function swapv3tov4(uint256 _amount)\n      external\n      nonReentrant\n  {\n      require(_amount > 0, \"curvev3 must be greater than 0\");\n      IERC20(CURVEv3).safeTransferFrom(msg.sender, address(this), _amount);\n      ICurveFiv2(SWAPv3).remove_liquidity(_amount, [uint256(0),0,0]);\n      require(IERC20(CURVEv3).balanceOf(address(this)) == 0, \"CURVE remainder\");\n\n      if (IERC20(yDAIv2).balanceOf(address(this)) > 0) {\n        yERC20(yDAIv2).withdraw(IERC20(yDAIv2).balanceOf(address(this)));\n      }\n      if (IERC20(yUSDCv2).balanceOf(address(this)) > 0) {\n        yERC20(yUSDCv2).withdraw(IERC20(yUSDCv2).balanceOf(address(this)));\n      }\n      if (IERC20(yUSDTv2).balanceOf(address(this)) > 0) {\n        yERC20(yUSDTv2).withdraw(IERC20(yUSDTv2).balanceOf(address(this)));\n      }\n      if (IERC20(yTUSDv2).balanceOf(address(this)) > 0) {\n        yERC20(yTUSDv2).withdraw(IERC20(yTUSDv2).balanceOf(address(this)));\n      }\n\n      uint256 _dai = IERC20(DAI).balanceOf(address(this));\n      uint256 _usdc = IERC20(USDC).balanceOf(address(this));\n      uint256 _usdt = IERC20(USDT).balanceOf(address(this));\n      uint256 _tusd = IERC20(TUSD).balanceOf(address(this));\n\n      require(_dai > 0 || _usdc > 0 || _usdt > 0 || _tusd > 0, \"no underlying found\");\n\n      if (_dai > 0) {\n        yERC20(yDAIv3).deposit(_dai);\n        require(IERC20(DAI).balanceOf(address(this)) == 0, \"dai remainder\");\n      }\n\n      if (_usdc > 0) {\n        yERC20(yUSDCv3).deposit(_usdc);\n        require(IERC20(USDC).balanceOf(address(this)) == 0, \"usdc remainder\");\n      }\n\n      if (_usdt > 0) {\n        yERC20(yUSDTv3).deposit(_usdt);\n        require(IERC20(USDT).balanceOf(address(this)) == 0, \"usdc remainder\");\n      }\n\n      if (_tusd > 0) {\n        yERC20(yBUSDv3).deposit(_tusd);\n      }\n\n      ICurveFiv3(SWAPv4).add_liquidity([\n        IERC20(yDAIv3).balanceOf(address(this)),\n        IERC20(yUSDCv3).balanceOf(address(this)),\n        IERC20(yUSDTv3).balanceOf(address(this)),\n        IERC20(yBUSDv3).balanceOf(address(this))],0);\n\n      require(IERC20(yDAIv3).balanceOf(address(this)) == 0, \"yDAI remainder\");\n      require(IERC20(yUSDCv3).balanceOf(address(this)) == 0, \"yUSDC remainder\");\n      require(IERC20(yUSDTv3).balanceOf(address(this)) == 0, \"yUSDT remainder\");\n      require(IERC20(yBUSDv3).balanceOf(address(this)) == 0, \"yBUSD remainder\");\n\n      IERC20(CURVEv4).safeTransfer(msg.sender, IERC20(CURVEv4).balanceOf(address(this)));\n      require(IERC20(CURVEv4).balanceOf(address(this)) == 0, \"CURVEv3 remainder\");\n  }\n\n  // incase of half-way error\n  function inCaseTokenGetsStuck(IERC20 _TokenAddress) onlyOwner public {\n      uint qty = _TokenAddress.balanceOf(address(this));\n      _TokenAddress.safeTransfer(msg.sender, qty);\n  }\n\n  // incase of half-way error\n  function inCaseETHGetsStuck() onlyOwner public{\n      (bool result, ) = msg.sender.call.value(address(this).balance)(\"\");\n      require(result, \"transfer of ETH failed\");\n  }\n}\n",
  "sourcePath": "D:/ftm/itoken/contracts/yCurveZapSwapV4.sol",
  "compiler": {
    "name": "solc",
    "version": "0.5.12+commit.7709ece9.Emscripten.clang"
  },
  "schemaVersion": "3.0.19",
  "updatedAt": "2020-02-27T14:04:17.762Z",
  "devdoc": {
    "methods": {}
  },
  "userdoc": {
    "methods": {}
  }
}