{
  "contractName": "yCurveZapv1",
  "abi": [
    {
      "inputs": [],
      "payable": false,
      "stateMutability": "nonpayable",
      "type": "constructor"
    },
    {
      "anonymous": false,
      "inputs": [
        {
          "indexed": true,
          "internalType": "address",
          "name": "previousOwner",
          "type": "address"
        },
        {
          "indexed": true,
          "internalType": "address",
          "name": "newOwner",
          "type": "address"
        }
      ],
      "name": "OwnershipTransferred",
      "type": "event"
    },
    {
      "payable": true,
      "stateMutability": "payable",
      "type": "fallback"
    },
    {
      "constant": true,
      "inputs": [],
      "name": "CURVEv1",
      "outputs": [
        {
          "internalType": "address",
          "name": "",
          "type": "address"
        }
      ],
      "payable": false,
      "stateMutability": "view",
      "type": "function"
    },
    {
      "constant": true,
      "inputs": [],
      "name": "CURVEv3",
      "outputs": [
        {
          "internalType": "address",
          "name": "",
          "type": "address"
        }
      ],
      "payable": false,
      "stateMutability": "view",
      "type": "function"
    },
    {
      "constant": true,
      "inputs": [],
      "name": "DAI",
      "outputs": [
        {
          "internalType": "address",
          "name": "",
          "type": "address"
        }
      ],
      "payable": false,
      "stateMutability": "view",
      "type": "function"
    },
    {
      "constant": true,
      "inputs": [],
      "name": "SWAPv1",
      "outputs": [
        {
          "internalType": "address",
          "name": "",
          "type": "address"
        }
      ],
      "payable": false,
      "stateMutability": "view",
      "type": "function"
    },
    {
      "constant": true,
      "inputs": [],
      "name": "SWAPv3",
      "outputs": [
        {
          "internalType": "address",
          "name": "",
          "type": "address"
        }
      ],
      "payable": false,
      "stateMutability": "view",
      "type": "function"
    },
    {
      "constant": true,
      "inputs": [],
      "name": "USDC",
      "outputs": [
        {
          "internalType": "address",
          "name": "",
          "type": "address"
        }
      ],
      "payable": false,
      "stateMutability": "view",
      "type": "function"
    },
    {
      "constant": true,
      "inputs": [],
      "name": "cDAI",
      "outputs": [
        {
          "internalType": "address",
          "name": "",
          "type": "address"
        }
      ],
      "payable": false,
      "stateMutability": "view",
      "type": "function"
    },
    {
      "constant": true,
      "inputs": [],
      "name": "cUSDC",
      "outputs": [
        {
          "internalType": "address",
          "name": "",
          "type": "address"
        }
      ],
      "payable": false,
      "stateMutability": "view",
      "type": "function"
    },
    {
      "constant": true,
      "inputs": [],
      "name": "isOwner",
      "outputs": [
        {
          "internalType": "bool",
          "name": "",
          "type": "bool"
        }
      ],
      "payable": false,
      "stateMutability": "view",
      "type": "function"
    },
    {
      "constant": true,
      "inputs": [],
      "name": "owner",
      "outputs": [
        {
          "internalType": "address",
          "name": "",
          "type": "address"
        }
      ],
      "payable": false,
      "stateMutability": "view",
      "type": "function"
    },
    {
      "constant": false,
      "inputs": [],
      "name": "renounceOwnership",
      "outputs": [],
      "payable": false,
      "stateMutability": "nonpayable",
      "type": "function"
    },
    {
      "constant": false,
      "inputs": [
        {
          "internalType": "address",
          "name": "newOwner",
          "type": "address"
        }
      ],
      "name": "transferOwnership",
      "outputs": [],
      "payable": false,
      "stateMutability": "nonpayable",
      "type": "function"
    },
    {
      "constant": true,
      "inputs": [],
      "name": "yDAI",
      "outputs": [
        {
          "internalType": "address",
          "name": "",
          "type": "address"
        }
      ],
      "payable": false,
      "stateMutability": "view",
      "type": "function"
    },
    {
      "constant": true,
      "inputs": [],
      "name": "yUSDC",
      "outputs": [
        {
          "internalType": "address",
          "name": "",
          "type": "address"
        }
      ],
      "payable": false,
      "stateMutability": "view",
      "type": "function"
    },
    {
      "constant": false,
      "inputs": [],
      "name": "approveToken",
      "outputs": [],
      "payable": false,
      "stateMutability": "nonpayable",
      "type": "function"
    },
    {
      "constant": false,
      "inputs": [
        {
          "internalType": "uint256",
          "name": "_amount",
          "type": "uint256"
        }
      ],
      "name": "swapv1tov3",
      "outputs": [],
      "payable": false,
      "stateMutability": "nonpayable",
      "type": "function"
    },
    {
      "constant": false,
      "inputs": [
        {
          "internalType": "contract IERC20",
          "name": "_TokenAddress",
          "type": "address"
        }
      ],
      "name": "inCaseTokenGetsStuck",
      "outputs": [],
      "payable": false,
      "stateMutability": "nonpayable",
      "type": "function"
    },
    {
      "constant": false,
      "inputs": [],
      "name": "inCaseETHGetsStuck",
      "outputs": [],
      "payable": false,
      "stateMutability": "nonpayable",
      "type": "function"
    }
  ],
  "bytecode": "0x60806040523480156200001157600080fd5b5060016000819055506200002a6200044f60201b60201c565b600160006101000a81548173ffffffffffffffffffffffffffffffffffffffff021916908373ffffffffffffffffffffffffffffffffffffffff160217905550600160009054906101000a900473ffffffffffffffffffffffffffffffffffffffff1673ffffffffffffffffffffffffffffffffffffffff16600073ffffffffffffffffffffffffffffffffffffffff167f8be0079c531659141344cd1fd0a4f28419497f9722a3daafe3b4186f6b6457e060405160405180910390a3736b175474e89094c44da98b954eedeac495271d0f600260006101000a81548173ffffffffffffffffffffffffffffffffffffffff021916908373ffffffffffffffffffffffffffffffffffffffff1602179055507316de59092dae5ccf4a1e6439d611fd0653f0bd01600460006101000a81548173ffffffffffffffffffffffffffffffffffffffff021916908373ffffffffffffffffffffffffffffffffffffffff160217905550735d3a536e4d6dbd6114cc1ead35777bab948e3643600360006101000a81548173ffffffffffffffffffffffffffffffffffffffff021916908373ffffffffffffffffffffffffffffffffffffffff16021790555073a0b86991c6218b36c1d19d4a2e9eb0ce3606eb48600560006101000a81548173ffffffffffffffffffffffffffffffffffffffff021916908373ffffffffffffffffffffffffffffffffffffffff16021790555073d6ad7a6750a7593e092a9b218d66c0a814a3436e600760006101000a81548173ffffffffffffffffffffffffffffffffffffffff021916908373ffffffffffffffffffffffffffffffffffffffff1602179055507339aa39c021dfbae8fac545936693ac917d5e7563600660006101000a81548173ffffffffffffffffffffffffffffffffffffffff021916908373ffffffffffffffffffffffffffffffffffffffff160217905550732e60cf74d81ac34eb21eeff58db4d385920ef419600860006101000a81548173ffffffffffffffffffffffffffffffffffffffff021916908373ffffffffffffffffffffffffffffffffffffffff160217905550733740fb63ab7a09891d7c0d4299442a551d06f5fd600960006101000a81548173ffffffffffffffffffffffffffffffffffffffff021916908373ffffffffffffffffffffffffffffffffffffffff1602179055507345f783cce6b7ff23b2ab2d70e416cdb7d6055f51600a60006101000a81548173ffffffffffffffffffffffffffffffffffffffff021916908373ffffffffffffffffffffffffffffffffffffffff16021790555073df5e0e81dff6faf3a7e52ba697820c5e32d806a8600b60006101000a81548173ffffffffffffffffffffffffffffffffffffffff021916908373ffffffffffffffffffffffffffffffffffffffff160217905550620004496200045760201b60201c565b62000e20565b600033905090565b620004ed600460009054906101000a900473ffffffffffffffffffffffffffffffffffffffff167fffffffffffffffffffffffffffffffffffffffffffffffffffffffffffffffff600260009054906101000a900473ffffffffffffffffffffffffffffffffffffffff1673ffffffffffffffffffffffffffffffffffffffff16620006b160201b62001e12179092919060201c565b62000583600a60009054906101000a900473ffffffffffffffffffffffffffffffffffffffff167fffffffffffffffffffffffffffffffffffffffffffffffffffffffffffffffff600460009054906101000a900473ffffffffffffffffffffffffffffffffffffffff1673ffffffffffffffffffffffffffffffffffffffff16620006b160201b62001e12179092919060201c565b62000619600760009054906101000a900473ffffffffffffffffffffffffffffffffffffffff167fffffffffffffffffffffffffffffffffffffffffffffffffffffffffffffffff600560009054906101000a900473ffffffffffffffffffffffffffffffffffffffff1673ffffffffffffffffffffffffffffffffffffffff16620006b160201b62001e12179092919060201c565b620006af600a60009054906101000a900473ffffffffffffffffffffffffffffffffffffffff167fffffffffffffffffffffffffffffffffffffffffffffffffffffffffffffffff600760009054906101000a900473ffffffffffffffffffffffffffffffffffffffff1673ffffffffffffffffffffffffffffffffffffffff16620006b160201b62001e12179092919060201c565b565b600081148062000751575060008373ffffffffffffffffffffffffffffffffffffffff1663dd62ed3e30856040518363ffffffff1660e01b8152600401620006fb92919062000c63565b60206040518083038186803b1580156200071457600080fd5b505afa15801562000729573d6000803e3d6000fd5b505050506040513d601f19601f820116820180604052506200074f919081019062000a71565b145b62000793576040517f08c379a00000000000000000000000000000000000000000000000000000000081526004016200078a9062000d01565b60405180910390fd5b62000837838473ffffffffffffffffffffffffffffffffffffffff1663095ea7b3905060e01b8484604051602401620007ce92919062000c90565b604051602081830303815290604052907bffffffffffffffffffffffffffffffffffffffffffffffffffffffff19166020820180517bffffffffffffffffffffffffffffffffffffffffffffffffffffffff83818316178352505050506200083c60201b60201c565b505050565b620008688273ffffffffffffffffffffffffffffffffffffffff16620009cb60201b6200222b1760201c565b620008aa576040517f08c379a0000000000000000000000000000000000000000000000000000000008152600401620008a19062000d23565b60405180910390fd5b600060608373ffffffffffffffffffffffffffffffffffffffff1683604051620008d5919062000c4a565b6000604051808303816000865af19150503d806000811462000914576040519150601f19603f3d011682016040523d82523d6000602084013e62000919565b606091505b50915091508162000961576040517f08c379a0000000000000000000000000000000000000000000000000000000008152600401620009589062000cbd565b60405180910390fd5b600081511115620009c5578080602001905162000982919081019062000a45565b620009c4576040517f08c379a0000000000000000000000000000000000000000000000000000000008152600401620009bb9062000cdf565b60405180910390fd5b5b50505050565b60008060007fc5d2460186f7233c927e7db2dcc703c0e500b653ca82273b7bfad8045d85a47060001b9050833f91506000801b821415801562000a0e5750808214155b92505050919050565b60008151905062000a288162000dec565b92915050565b60008151905062000a3f8162000e06565b92915050565b60006020828403121562000a5857600080fd5b600062000a688482850162000a17565b91505092915050565b60006020828403121562000a8457600080fd5b600062000a948482850162000a2e565b91505092915050565b62000aa88162000d6c565b82525050565b600062000abb8262000d45565b62000ac7818562000d50565b935062000ad981856020860162000db6565b80840191505092915050565b600062000af460208362000d5b565b91507f5361666545524332303a206c6f772d6c6576656c2063616c6c206661696c65646000830152602082019050919050565b600062000b36602a8362000d5b565b91507f5361666545524332303a204552433230206f7065726174696f6e20646964206e60008301527f6f742073756363656564000000000000000000000000000000000000000000006020830152604082019050919050565b600062000b9e60368362000d5b565b91507f5361666545524332303a20617070726f76652066726f6d206e6f6e2d7a65726f60008301527f20746f206e6f6e2d7a65726f20616c6c6f77616e6365000000000000000000006020830152604082019050919050565b600062000c06601f8362000d5b565b91507f5361666545524332303a2063616c6c20746f206e6f6e2d636f6e7472616374006000830152602082019050919050565b62000c448162000dac565b82525050565b600062000c58828462000aae565b915081905092915050565b600060408201905062000c7a600083018562000a9d565b62000c89602083018462000a9d565b9392505050565b600060408201905062000ca7600083018562000a9d565b62000cb6602083018462000c39565b9392505050565b6000602082019050818103600083015262000cd88162000ae5565b9050919050565b6000602082019050818103600083015262000cfa8162000b27565b9050919050565b6000602082019050818103600083015262000d1c8162000b8f565b9050919050565b6000602082019050818103600083015262000d3e8162000bf7565b9050919050565b600081519050919050565b600081905092915050565b600082825260208201905092915050565b600062000d798262000d8c565b9050919050565b60008115159050919050565b600073ffffffffffffffffffffffffffffffffffffffff82169050919050565b6000819050919050565b60005b8381101562000dd657808201518184015260208101905062000db9565b8381111562000de6576000848401525b50505050565b62000df78162000d80565b811462000e0357600080fd5b50565b62000e118162000dac565b811462000e1d57600080fd5b50565b612fbf8062000e306000396000f3fe6080604052600436106101095760003560e01c80638da5cb5b11610095578063b477622b11610064578063b477622b1461030e578063ce347a3e14610339578063e0bab4c414610364578063f2fde38b1461038f578063f60a15ed146103b857610109565b80638da5cb5b146102765780638f32d59b146102a157806395f1f30e146102cc57806399b71d5c146102f757610109565b806364040a32116100dc57806364040a32146101b55780636f6941b9146101de578063715018a614610209578063756bb1cc1461022057806389a302711461024b57610109565b8063104daa171461010b57806319d9e008146101365780632e8d6e18146101615780633cd7a0d71461018a575b005b34801561011757600080fd5b506101206103cf565b60405161012d9190612a35565b60405180910390f35b34801561014257600080fd5b5061014b6103f5565b6040516101589190612a35565b60405180910390f35b34801561016d57600080fd5b5061018860048036036101839190810190612331565b61041b565b005b34801561019657600080fd5b5061019f61051e565b6040516101ac9190612a35565b60405180910390f35b3480156101c157600080fd5b506101dc60048036036101d7919081019061235a565b610544565b005b3480156101ea57600080fd5b506101f361156a565b6040516102009190612a35565b60405180910390f35b34801561021557600080fd5b5061021e611590565b005b34801561022c57600080fd5b50610235611698565b6040516102429190612a35565b60405180910390f35b34801561025757600080fd5b506102606116be565b60405161026d9190612a35565b60405180910390f35b34801561028257600080fd5b5061028b6116e4565b6040516102989190612a35565b60405180910390f35b3480156102ad57600080fd5b506102b661170e565b6040516102c39190612b1d565b60405180910390f35b3480156102d857600080fd5b506102e161176d565b6040516102ee9190612a35565b60405180910390f35b34801561030357600080fd5b5061030c611793565b005b34801561031a57600080fd5b506103236119d1565b6040516103309190612a35565b60405180910390f35b34801561034557600080fd5b5061034e6119f7565b60405161035b9190612a35565b60405180910390f35b34801561037057600080fd5b50610379611a1d565b6040516103869190612a35565b60405180910390f35b34801561039b57600080fd5b506103b660048036036103b191908101906122df565b611a43565b005b3480156103c457600080fd5b506103cd611a96565b005b600960009054906101000a900473ffffffffffffffffffffffffffffffffffffffff1681565b600760009054906101000a900473ffffffffffffffffffffffffffffffffffffffff1681565b61042361170e565b610462576040517f08c379a000000000000000000000000000000000000000000000000000000000815260040161045990612c98565b60405180910390fd5b60008173ffffffffffffffffffffffffffffffffffffffff166370a08231306040518263ffffffff1660e01b815260040161049d9190612a50565b60206040518083038186803b1580156104b557600080fd5b505afa1580156104c9573d6000803e3d6000fd5b505050506040513d601f19601f820116820180604052506104ed9190810190612383565b905061051a33828473ffffffffffffffffffffffffffffffffffffffff16611ba39092919063ffffffff16565b5050565b600b60009054906101000a900473ffffffffffffffffffffffffffffffffffffffff1681565b600160008082825401925050819055506000805490506000821161059d576040517f08c379a000000000000000000000000000000000000000000000000000000000815260040161059490612d18565b60405180910390fd5b6105ec333084600960009054906101000a900473ffffffffffffffffffffffffffffffffffffffff1673ffffffffffffffffffffffffffffffffffffffff16611c42909392919063ffffffff16565b600860009054906101000a900473ffffffffffffffffffffffffffffffffffffffff1673ffffffffffffffffffffffffffffffffffffffff166359639fa98361064061070842611ce490919063ffffffff16565b60405180604001604052806000815260200160008152506040518463ffffffff1660e01b815260040161067593929190612d93565b600060405180830381600087803b15801561068f57600080fd5b505af11580156106a3573d6000803e3d6000fd5b505050506000600960009054906101000a900473ffffffffffffffffffffffffffffffffffffffff1673ffffffffffffffffffffffffffffffffffffffff166370a08231306040518263ffffffff1660e01b81526004016107049190612a50565b60206040518083038186803b15801561071c57600080fd5b505afa158015610730573d6000803e3d6000fd5b505050506040513d601f19601f820116820180604052506107549190810190612383565b14610794576040517f08c379a000000000000000000000000000000000000000000000000000000000815260040161078b90612c58565b60405180910390fd5b6000600360009054906101000a900473ffffffffffffffffffffffffffffffffffffffff1673ffffffffffffffffffffffffffffffffffffffff166370a08231306040518263ffffffff1660e01b81526004016107f19190612a50565b60206040518083038186803b15801561080957600080fd5b505afa15801561081d573d6000803e3d6000fd5b505050506040513d601f19601f820116820180604052506108419190810190612383565b111561091e5761091d600360009054906101000a900473ffffffffffffffffffffffffffffffffffffffff16600360009054906101000a900473ffffffffffffffffffffffffffffffffffffffff1673ffffffffffffffffffffffffffffffffffffffff166370a08231306040518263ffffffff1660e01b81526004016108c89190612a50565b60206040518083038186803b1580156108e057600080fd5b505afa1580156108f4573d6000803e3d6000fd5b505050506040513d601f19601f820116820180604052506109189190810190612383565b611d39565b5b6000600660009054906101000a900473ffffffffffffffffffffffffffffffffffffffff1673ffffffffffffffffffffffffffffffffffffffff166370a08231306040518263ffffffff1660e01b815260040161097b9190612a50565b60206040518083038186803b15801561099357600080fd5b505afa1580156109a7573d6000803e3d6000fd5b505050506040513d601f19601f820116820180604052506109cb9190810190612383565b1115610aa857610aa7600660009054906101000a900473ffffffffffffffffffffffffffffffffffffffff16600660009054906101000a900473ffffffffffffffffffffffffffffffffffffffff1673ffffffffffffffffffffffffffffffffffffffff166370a08231306040518263ffffffff1660e01b8152600401610a529190612a50565b60206040518083038186803b158015610a6a57600080fd5b505afa158015610a7e573d6000803e3d6000fd5b505050506040513d601f19601f82011682018060405250610aa29190810190612383565b611d39565b5b6000600260009054906101000a900473ffffffffffffffffffffffffffffffffffffffff1673ffffffffffffffffffffffffffffffffffffffff166370a08231306040518263ffffffff1660e01b8152600401610b059190612a50565b60206040518083038186803b158015610b1d57600080fd5b505afa158015610b31573d6000803e3d6000fd5b505050506040513d601f19601f82011682018060405250610b559190810190612383565b90506000600560009054906101000a900473ffffffffffffffffffffffffffffffffffffffff1673ffffffffffffffffffffffffffffffffffffffff166370a08231306040518263ffffffff1660e01b8152600401610bb49190612a50565b60206040518083038186803b158015610bcc57600080fd5b505afa158015610be0573d6000803e3d6000fd5b505050506040513d601f19601f82011682018060405250610c049190810190612383565b90506000821180610c155750600081115b610c54576040517f08c379a0000000000000000000000000000000000000000000000000000000008152600401610c4b90612c78565b60405180910390fd5b6000821115610dd857600460009054906101000a900473ffffffffffffffffffffffffffffffffffffffff1673ffffffffffffffffffffffffffffffffffffffff1663b6b55f25836040518263ffffffff1660e01b8152600401610cb89190612d78565b600060405180830381600087803b158015610cd257600080fd5b505af1158015610ce6573d6000803e3d6000fd5b505050506000600260009054906101000a900473ffffffffffffffffffffffffffffffffffffffff1673ffffffffffffffffffffffffffffffffffffffff166370a08231306040518263ffffffff1660e01b8152600401610d479190612a50565b60206040518083038186803b158015610d5f57600080fd5b505afa158015610d73573d6000803e3d6000fd5b505050506040513d601f19601f82011682018060405250610d979190810190612383565b14610dd7576040517f08c379a0000000000000000000000000000000000000000000000000000000008152600401610dce90612b38565b60405180910390fd5b5b6000811115610f5c57600760009054906101000a900473ffffffffffffffffffffffffffffffffffffffff1673ffffffffffffffffffffffffffffffffffffffff1663b6b55f25826040518263ffffffff1660e01b8152600401610e3c9190612d78565b600060405180830381600087803b158015610e5657600080fd5b505af1158015610e6a573d6000803e3d6000fd5b505050506000600560009054906101000a900473ffffffffffffffffffffffffffffffffffffffff1673ffffffffffffffffffffffffffffffffffffffff166370a08231306040518263ffffffff1660e01b8152600401610ecb9190612a50565b60206040518083038186803b158015610ee357600080fd5b505afa158015610ef7573d6000803e3d6000fd5b505050506040513d601f19601f82011682018060405250610f1b9190810190612383565b14610f5b576040517f08c379a0000000000000000000000000000000000000000000000000000000008152600401610f5290612c18565b60405180910390fd5b5b600a60009054906101000a900473ffffffffffffffffffffffffffffffffffffffff1673ffffffffffffffffffffffffffffffffffffffff1663029b2f346040518060800160405280600460009054906101000a900473ffffffffffffffffffffffffffffffffffffffff1673ffffffffffffffffffffffffffffffffffffffff166370a08231306040518263ffffffff1660e01b81526004016110009190612a50565b60206040518083038186803b15801561101857600080fd5b505afa15801561102c573d6000803e3d6000fd5b505050506040513d601f19601f820116820180604052506110509190810190612383565b8152602001600760009054906101000a900473ffffffffffffffffffffffffffffffffffffffff1673ffffffffffffffffffffffffffffffffffffffff166370a08231306040518263ffffffff1660e01b81526004016110b09190612a50565b60206040518083038186803b1580156110c857600080fd5b505afa1580156110dc573d6000803e3d6000fd5b505050506040513d601f19601f820116820180604052506111009190810190612383565b815260200160008152602001600081525060006040518363ffffffff1660e01b8152600401611130929190612af4565b600060405180830381600087803b15801561114a57600080fd5b505af115801561115e573d6000803e3d6000fd5b505050506000600460009054906101000a900473ffffffffffffffffffffffffffffffffffffffff1673ffffffffffffffffffffffffffffffffffffffff166370a08231306040518263ffffffff1660e01b81526004016111bf9190612a50565b60206040518083038186803b1580156111d757600080fd5b505afa1580156111eb573d6000803e3d6000fd5b505050506040513d601f19601f8201168201806040525061120f9190810190612383565b1461124f576040517f08c379a000000000000000000000000000000000000000000000000000000000815260040161124690612bb8565b60405180910390fd5b6000600760009054906101000a900473ffffffffffffffffffffffffffffffffffffffff1673ffffffffffffffffffffffffffffffffffffffff166370a08231306040518263ffffffff1660e01b81526004016112ac9190612a50565b60206040518083038186803b1580156112c457600080fd5b505afa1580156112d8573d6000803e3d6000fd5b505050506040513d601f19601f820116820180604052506112fc9190810190612383565b1461133c576040517f08c379a000000000000000000000000000000000000000000000000000000000815260040161133390612b98565b60405180910390fd5b61143333600b60009054906101000a900473ffffffffffffffffffffffffffffffffffffffff1673ffffffffffffffffffffffffffffffffffffffff166370a08231306040518263ffffffff1660e01b815260040161139b9190612a50565b60206040518083038186803b1580156113b357600080fd5b505afa1580156113c7573d6000803e3d6000fd5b505050506040513d601f19601f820116820180604052506113eb9190810190612383565b600b60009054906101000a900473ffffffffffffffffffffffffffffffffffffffff1673ffffffffffffffffffffffffffffffffffffffff16611ba39092919063ffffffff16565b6000600b60009054906101000a900473ffffffffffffffffffffffffffffffffffffffff1673ffffffffffffffffffffffffffffffffffffffff166370a08231306040518263ffffffff1660e01b81526004016114909190612a50565b60206040518083038186803b1580156114a857600080fd5b505afa1580156114bc573d6000803e3d6000fd5b505050506040513d601f19601f820116820180604052506114e09190810190612383565b14611520576040517f08c379a000000000000000000000000000000000000000000000000000000000815260040161151790612cb8565b60405180910390fd5b50506000548114611566576040517f08c379a000000000000000000000000000000000000000000000000000000000815260040161155d90612cf8565b60405180910390fd5b5050565b600360009054906101000a900473ffffffffffffffffffffffffffffffffffffffff1681565b61159861170e565b6115d7576040517f08c379a00000000000000000000000000000000000000000000000000000000081526004016115ce90612c98565b60405180910390fd5b600073ffffffffffffffffffffffffffffffffffffffff16600160009054906101000a900473ffffffffffffffffffffffffffffffffffffffff1673ffffffffffffffffffffffffffffffffffffffff167f8be0079c531659141344cd1fd0a4f28419497f9722a3daafe3b4186f6b6457e060405160405180910390a36000600160006101000a81548173ffffffffffffffffffffffffffffffffffffffff021916908373ffffffffffffffffffffffffffffffffffffffff160217905550565b600460009054906101000a900473ffffffffffffffffffffffffffffffffffffffff1681565b600560009054906101000a900473ffffffffffffffffffffffffffffffffffffffff1681565b6000600160009054906101000a900473ffffffffffffffffffffffffffffffffffffffff16905090565b6000600160009054906101000a900473ffffffffffffffffffffffffffffffffffffffff1673ffffffffffffffffffffffffffffffffffffffff16611751611e0a565b73ffffffffffffffffffffffffffffffffffffffff1614905090565b600860009054906101000a900473ffffffffffffffffffffffffffffffffffffffff1681565b611822600460009054906101000a900473ffffffffffffffffffffffffffffffffffffffff167fffffffffffffffffffffffffffffffffffffffffffffffffffffffffffffffff600260009054906101000a900473ffffffffffffffffffffffffffffffffffffffff1673ffffffffffffffffffffffffffffffffffffffff16611e129092919063ffffffff16565b6118b1600a60009054906101000a900473ffffffffffffffffffffffffffffffffffffffff167fffffffffffffffffffffffffffffffffffffffffffffffffffffffffffffffff600460009054906101000a900473ffffffffffffffffffffffffffffffffffffffff1673ffffffffffffffffffffffffffffffffffffffff16611e129092919063ffffffff16565b611940600760009054906101000a900473ffffffffffffffffffffffffffffffffffffffff167fffffffffffffffffffffffffffffffffffffffffffffffffffffffffffffffff600560009054906101000a900473ffffffffffffffffffffffffffffffffffffffff1673ffffffffffffffffffffffffffffffffffffffff16611e129092919063ffffffff16565b6119cf600a60009054906101000a900473ffffffffffffffffffffffffffffffffffffffff167fffffffffffffffffffffffffffffffffffffffffffffffffffffffffffffffff600760009054906101000a900473ffffffffffffffffffffffffffffffffffffffff1673ffffffffffffffffffffffffffffffffffffffff16611e129092919063ffffffff16565b565b600a60009054906101000a900473ffffffffffffffffffffffffffffffffffffffff1681565b600660009054906101000a900473ffffffffffffffffffffffffffffffffffffffff1681565b600260009054906101000a900473ffffffffffffffffffffffffffffffffffffffff1681565b611a4b61170e565b611a8a576040517f08c379a0000000000000000000000000000000000000000000000000000000008152600401611a8190612c98565b60405180910390fd5b611a9381611f89565b50565b611a9e61170e565b611add576040517f08c379a0000000000000000000000000000000000000000000000000000000008152600401611ad490612c98565b60405180910390fd5b60003373ffffffffffffffffffffffffffffffffffffffff163073ffffffffffffffffffffffffffffffffffffffff1631604051611b1a90612a20565b60006040518083038185875af1925050503d8060008114611b57576040519150601f19603f3d011682016040523d82523d6000602084013e611b5c565b606091505b5050905080611ba0576040517f08c379a0000000000000000000000000000000000000000000000000000000008152600401611b9790612c38565b60405180910390fd5b50565b611c3d838473ffffffffffffffffffffffffffffffffffffffff1663a9059cbb905060e01b8484604051602401611bdb929190612acb565b604051602081830303815290604052907bffffffffffffffffffffffffffffffffffffffffffffffffffffffff19166020820180517bffffffffffffffffffffffffffffffffffffffffffffffffffffffff83818316178352505050506120b9565b505050565b611cde848573ffffffffffffffffffffffffffffffffffffffff166323b872dd905060e01b858585604051602401611c7c93929190612a94565b604051602081830303815290604052907bffffffffffffffffffffffffffffffffffffffffffffffffffffffff19166020820180517bffffffffffffffffffffffffffffffffffffffffffffffffffffffff83818316178352505050506120b9565b50505050565b600080828401905083811015611d2f576040517f08c379a0000000000000000000000000000000000000000000000000000000008152600401611d2690612bd8565b60405180910390fd5b8091505092915050565b60008273ffffffffffffffffffffffffffffffffffffffff1663db006a75836040518263ffffffff1660e01b8152600401611d749190612d78565b602060405180830381600087803b158015611d8e57600080fd5b505af1158015611da2573d6000803e3d6000fd5b505050506040513d601f19601f82011682018060405250611dc69190810190612383565b14611e06576040517f08c379a0000000000000000000000000000000000000000000000000000000008152600401611dfd90612b58565b60405180910390fd5b5050565b600033905090565b6000811480611eab575060008373ffffffffffffffffffffffffffffffffffffffff1663dd62ed3e30856040518363ffffffff1660e01b8152600401611e59929190612a6b565b60206040518083038186803b158015611e7157600080fd5b505afa158015611e85573d6000803e3d6000fd5b505050506040513d601f19601f82011682018060405250611ea99190810190612383565b145b611eea576040517f08c379a0000000000000000000000000000000000000000000000000000000008152600401611ee190612d38565b60405180910390fd5b611f84838473ffffffffffffffffffffffffffffffffffffffff1663095ea7b3905060e01b8484604051602401611f22929190612acb565b604051602081830303815290604052907bffffffffffffffffffffffffffffffffffffffffffffffffffffffff19166020820180517bffffffffffffffffffffffffffffffffffffffffffffffffffffffff83818316178352505050506120b9565b505050565b600073ffffffffffffffffffffffffffffffffffffffff168173ffffffffffffffffffffffffffffffffffffffff161415611ff9576040517f08c379a0000000000000000000000000000000000000000000000000000000008152600401611ff090612b78565b60405180910390fd5b8073ffffffffffffffffffffffffffffffffffffffff16600160009054906101000a900473ffffffffffffffffffffffffffffffffffffffff1673ffffffffffffffffffffffffffffffffffffffff167f8be0079c531659141344cd1fd0a4f28419497f9722a3daafe3b4186f6b6457e060405160405180910390a380600160006101000a81548173ffffffffffffffffffffffffffffffffffffffff021916908373ffffffffffffffffffffffffffffffffffffffff16021790555050565b6120d88273ffffffffffffffffffffffffffffffffffffffff1661222b565b612117576040517f08c379a000000000000000000000000000000000000000000000000000000000815260040161210e90612d58565b60405180910390fd5b600060608373ffffffffffffffffffffffffffffffffffffffff16836040516121409190612a09565b6000604051808303816000865af19150503d806000811461217d576040519150601f19603f3d011682016040523d82523d6000602084013e612182565b606091505b5091509150816121c7576040517f08c379a00000000000000000000000000000000000000000000000000000000081526004016121be90612bf8565b60405180910390fd5b60008151111561222557808060200190516121e59190810190612308565b612224576040517f08c379a000000000000000000000000000000000000000000000000000000000815260040161221b90612cd8565b60405180910390fd5b5b50505050565b60008060007fc5d2460186f7233c927e7db2dcc703c0e500b653ca82273b7bfad8045d85a47060001b9050833f91506000801b821415801561226d5750808214155b92505050919050565b60008135905061228581612f20565b92915050565b60008151905061229a81612f37565b92915050565b6000813590506122af81612f4e565b92915050565b6000813590506122c481612f65565b92915050565b6000815190506122d981612f65565b92915050565b6000602082840312156122f157600080fd5b60006122ff84828501612276565b91505092915050565b60006020828403121561231a57600080fd5b60006123288482850161228b565b91505092915050565b60006020828403121561234357600080fd5b6000612351848285016122a0565b91505092915050565b60006020828403121561236c57600080fd5b600061237a848285016122b5565b91505092915050565b60006020828403121561239557600080fd5b60006123a3848285016122ca565b91505092915050565b60006123b883836129eb565b60208301905092915050565b6123cd81612ea5565b82525050565b6123dc81612e4b565b82525050565b6123eb81612dde565b6123f58184612e19565b925061240082612dca565b8060005b8381101561243157815161241887826123ac565b965061242383612dff565b925050600181019050612404565b505050505050565b61244281612de9565b61244c8184612e24565b925061245782612dd4565b8060005b8381101561248857815161246f87826123ac565b965061247a83612e0c565b92505060018101905061245b565b505050505050565b61249981612e5d565b82525050565b60006124aa82612df4565b6124b48185612e2f565b93506124c4818560208601612eed565b80840191505092915050565b6124d981612eb7565b82525050565b60006124ec600d83612e3a565b91507f6461692072656d61696e646572000000000000000000000000000000000000006000830152602082019050919050565b600061252c601983612e3a565b91507f434f4d504f554e443a207769746864726177206661696c6564000000000000006000830152602082019050919050565b600061256c602683612e3a565b91507f4f776e61626c653a206e6577206f776e657220697320746865207a65726f206160008301527f64647265737300000000000000000000000000000000000000000000000000006020830152604082019050919050565b60006125d2600f83612e3a565b91507f79555344432072656d61696e64657200000000000000000000000000000000006000830152602082019050919050565b6000612612600e83612e3a565b91507f794441492072656d61696e6465720000000000000000000000000000000000006000830152602082019050919050565b6000612652601b83612e3a565b91507f536166654d6174683a206164646974696f6e206f766572666c6f7700000000006000830152602082019050919050565b6000612692602083612e3a565b91507f5361666545524332303a206c6f772d6c6576656c2063616c6c206661696c65646000830152602082019050919050565b60006126d2600e83612e3a565b91507f757364632072656d61696e6465720000000000000000000000000000000000006000830152602082019050919050565b6000612712601683612e3a565b91507f7472616e73666572206f6620455448206661696c6564000000000000000000006000830152602082019050919050565b6000612752600f83612e3a565b91507f43555256452072656d61696e64657200000000000000000000000000000000006000830152602082019050919050565b6000612792601383612e3a565b91507f6e6f20756e6465726c79696e6720666f756e64000000000000000000000000006000830152602082019050919050565b60006127d2602083612e3a565b91507f4f776e61626c653a2063616c6c6572206973206e6f7420746865206f776e65726000830152602082019050919050565b6000612812600083612e2f565b9150600082019050919050565b600061282c601183612e3a565b91507f435552564576332072656d61696e6465720000000000000000000000000000006000830152602082019050919050565b600061286c602a83612e3a565b91507f5361666545524332303a204552433230206f7065726174696f6e20646964206e60008301527f6f742073756363656564000000000000000000000000000000000000000000006020830152604082019050919050565b60006128d2601f83612e3a565b91507f5265656e7472616e637947756172643a207265656e7472616e742063616c6c006000830152602082019050919050565b6000612912601e83612e3a565b91507f63757276657631206d7573742062652067726561746572207468616e203000006000830152602082019050919050565b6000612952603683612e3a565b91507f5361666545524332303a20617070726f76652066726f6d206e6f6e2d7a65726f60008301527f20746f206e6f6e2d7a65726f20616c6c6f77616e6365000000000000000000006020830152604082019050919050565b60006129b8601f83612e3a565b91507f5361666545524332303a2063616c6c20746f206e6f6e2d636f6e7472616374006000830152602082019050919050565b6129f481612e9b565b82525050565b612a0381612e9b565b82525050565b6000612a15828461249f565b915081905092915050565b6000612a2b82612805565b9150819050919050565b6000602082019050612a4a60008301846123d3565b92915050565b6000602082019050612a6560008301846123c4565b92915050565b6000604082019050612a8060008301856123d3565b612a8d60208301846123d3565b9392505050565b6000606082019050612aa960008301866123d3565b612ab660208301856123d3565b612ac360408301846129fa565b949350505050565b6000604082019050612ae060008301856123d3565b612aed60208301846129fa565b9392505050565b600060a082019050612b096000830185612439565b612b1660808301846124d0565b9392505050565b6000602082019050612b326000830184612490565b92915050565b60006020820190508181036000830152612b51816124df565b9050919050565b60006020820190508181036000830152612b718161251f565b9050919050565b60006020820190508181036000830152612b918161255f565b9050919050565b60006020820190508181036000830152612bb1816125c5565b9050919050565b60006020820190508181036000830152612bd181612605565b9050919050565b60006020820190508181036000830152612bf181612645565b9050919050565b60006020820190508181036000830152612c1181612685565b9050919050565b60006020820190508181036000830152612c31816126c5565b9050919050565b60006020820190508181036000830152612c5181612705565b9050919050565b60006020820190508181036000830152612c7181612745565b9050919050565b60006020820190508181036000830152612c9181612785565b9050919050565b60006020820190508181036000830152612cb1816127c5565b9050919050565b60006020820190508181036000830152612cd18161281f565b9050919050565b60006020820190508181036000830152612cf18161285f565b9050919050565b60006020820190508181036000830152612d11816128c5565b9050919050565b60006020820190508181036000830152612d3181612905565b9050919050565b60006020820190508181036000830152612d5181612945565b9050919050565b60006020820190508181036000830152612d71816129ab565b9050919050565b6000602082019050612d8d60008301846129fa565b92915050565b6000608082019050612da860008301866129fa565b612db560208301856129fa565b612dc260408301846123e2565b949350505050565b6000819050919050565b6000819050919050565b600060029050919050565b600060049050919050565b600081519050919050565b6000602082019050919050565b6000602082019050919050565b600081905092915050565b600081905092915050565b600081905092915050565b600082825260208201905092915050565b6000612e5682612e7b565b9050919050565b60008115159050919050565b6000612e7482612e4b565b9050919050565b600073ffffffffffffffffffffffffffffffffffffffff82169050919050565b6000819050919050565b6000612eb082612ec9565b9050919050565b6000612ec282612e9b565b9050919050565b6000612ed482612edb565b9050919050565b6000612ee682612e7b565b9050919050565b60005b83811015612f0b578082015181840152602081019050612ef0565b83811115612f1a576000848401525b50505050565b612f2981612e4b565b8114612f3457600080fd5b50565b612f4081612e5d565b8114612f4b57600080fd5b50565b612f5781612e69565b8114612f6257600080fd5b50565b612f6e81612e9b565b8114612f7957600080fd5b5056fea365627a7a7231582088d8002e12d896520e0916667e670ec81a215d983bd3bd8d101244374ec9572f6c6578706572696d656e74616cf564736f6c634300050c0040",
  "source": "pragma solidity ^0.5.0;\npragma experimental ABIEncoderV2;\n\ninterface IERC20 {\n    function totalSupply() external view returns (uint256);\n    function balanceOf(address account) external view returns (uint256);\n    function transfer(address recipient, uint256 amount) external returns (bool);\n    function allowance(address owner, address spender) external view returns (uint256);\n    function approve(address spender, uint256 amount) external returns (bool);\n    function transferFrom(address sender, address recipient, uint256 amount) external returns (bool);\n    event Transfer(address indexed from, address indexed to, uint256 value);\n    event Approval(address indexed owner, address indexed spender, uint256 value);\n}\n\ncontract Context {\n    constructor () internal { }\n    // solhint-disable-previous-line no-empty-blocks\n\n    function _msgSender() internal view returns (address payable) {\n        return msg.sender;\n    }\n\n    function _msgData() internal view returns (bytes memory) {\n        this; // silence state mutability warning without generating bytecode - see https://github.com/ethereum/solidity/issues/2691\n        return msg.data;\n    }\n}\n\ncontract ReentrancyGuard {\n    uint256 private _guardCounter;\n\n    constructor () internal {\n        _guardCounter = 1;\n    }\n\n    modifier nonReentrant() {\n        _guardCounter += 1;\n        uint256 localCounter = _guardCounter;\n        _;\n        require(localCounter == _guardCounter, \"ReentrancyGuard: reentrant call\");\n    }\n}\n\ncontract Ownable is Context {\n    address private _owner;\n\n    event OwnershipTransferred(address indexed previousOwner, address indexed newOwner);\n    constructor () internal {\n        _owner = _msgSender();\n        emit OwnershipTransferred(address(0), _owner);\n    }\n    function owner() public view returns (address) {\n        return _owner;\n    }\n    modifier onlyOwner() {\n        require(isOwner(), \"Ownable: caller is not the owner\");\n        _;\n    }\n    function isOwner() public view returns (bool) {\n        return _msgSender() == _owner;\n    }\n    function renounceOwnership() public onlyOwner {\n        emit OwnershipTransferred(_owner, address(0));\n        _owner = address(0);\n    }\n    function transferOwnership(address newOwner) public onlyOwner {\n        _transferOwnership(newOwner);\n    }\n    function _transferOwnership(address newOwner) internal {\n        require(newOwner != address(0), \"Ownable: new owner is the zero address\");\n        emit OwnershipTransferred(_owner, newOwner);\n        _owner = newOwner;\n    }\n}\n\nlibrary SafeMath {\n    function add(uint256 a, uint256 b) internal pure returns (uint256) {\n        uint256 c = a + b;\n        require(c >= a, \"SafeMath: addition overflow\");\n\n        return c;\n    }\n    function sub(uint256 a, uint256 b) internal pure returns (uint256) {\n        return sub(a, b, \"SafeMath: subtraction overflow\");\n    }\n    function sub(uint256 a, uint256 b, string memory errorMessage) internal pure returns (uint256) {\n        require(b <= a, errorMessage);\n        uint256 c = a - b;\n\n        return c;\n    }\n    function mul(uint256 a, uint256 b) internal pure returns (uint256) {\n        if (a == 0) {\n            return 0;\n        }\n\n        uint256 c = a * b;\n        require(c / a == b, \"SafeMath: multiplication overflow\");\n\n        return c;\n    }\n    function div(uint256 a, uint256 b) internal pure returns (uint256) {\n        return div(a, b, \"SafeMath: division by zero\");\n    }\n    function div(uint256 a, uint256 b, string memory errorMessage) internal pure returns (uint256) {\n        // Solidity only automatically asserts when dividing by 0\n        require(b > 0, errorMessage);\n        uint256 c = a / b;\n\n        return c;\n    }\n    function mod(uint256 a, uint256 b) internal pure returns (uint256) {\n        return mod(a, b, \"SafeMath: modulo by zero\");\n    }\n    function mod(uint256 a, uint256 b, string memory errorMessage) internal pure returns (uint256) {\n        require(b != 0, errorMessage);\n        return a % b;\n    }\n}\n\nlibrary Address {\n    function isContract(address account) internal view returns (bool) {\n        bytes32 codehash;\n        bytes32 accountHash = 0xc5d2460186f7233c927e7db2dcc703c0e500b653ca82273b7bfad8045d85a470;\n        // solhint-disable-next-line no-inline-assembly\n        assembly { codehash := extcodehash(account) }\n        return (codehash != 0x0 && codehash != accountHash);\n    }\n    function toPayable(address account) internal pure returns (address payable) {\n        return address(uint160(account));\n    }\n    function sendValue(address payable recipient, uint256 amount) internal {\n        require(address(this).balance >= amount, \"Address: insufficient balance\");\n\n        // solhint-disable-next-line avoid-call-value\n        (bool success, ) = recipient.call.value(amount)(\"\");\n        require(success, \"Address: unable to send value, recipient may have reverted\");\n    }\n}\n\nlibrary SafeERC20 {\n    using SafeMath for uint256;\n    using Address for address;\n\n    function safeTransfer(IERC20 token, address to, uint256 value) internal {\n        callOptionalReturn(token, abi.encodeWithSelector(token.transfer.selector, to, value));\n    }\n    function safeTransferFrom(IERC20 token, address from, address to, uint256 value) internal {\n        callOptionalReturn(token, abi.encodeWithSelector(token.transferFrom.selector, from, to, value));\n    }\n    function safeApprove(IERC20 token, address spender, uint256 value) internal {\n        require((value == 0) || (token.allowance(address(this), spender) == 0),\n            \"SafeERC20: approve from non-zero to non-zero allowance\"\n        );\n        callOptionalReturn(token, abi.encodeWithSelector(token.approve.selector, spender, value));\n    }\n    function callOptionalReturn(IERC20 token, bytes memory data) private {\n        require(address(token).isContract(), \"SafeERC20: call to non-contract\");\n\n        // solhint-disable-next-line avoid-low-level-calls\n        (bool success, bytes memory returndata) = address(token).call(data);\n        require(success, \"SafeERC20: low-level call failed\");\n\n        if (returndata.length > 0) { // Return data is optional\n            // solhint-disable-next-line max-line-length\n            require(abi.decode(returndata, (bool)), \"SafeERC20: ERC20 operation did not succeed\");\n        }\n    }\n}\n\ninterface yERC20 {\n  function deposit(uint256 _amount) external;\n}\n\n// Solidity Interface\n\ninterface ICurveFiv1 {\n  function remove_liquidity(\n    uint256 _amount,\n    uint256 deadline,\n    uint256[2] calldata min_amounts\n  ) external;\n}\n\ninterface Compound {\n    function mint ( uint256 mintAmount ) external returns ( uint256 );\n    function redeem(uint256 redeemTokens) external returns (uint256);\n    function exchangeRateStored() external view returns (uint);\n}\n\n\ninterface ICurveFiv3 {\n  function add_liquidity(\n    uint256[4] calldata amounts,\n    uint256 min_mint_amount\n  ) external;\n}\n\ncontract yCurveZapv1 is ReentrancyGuard, Ownable {\n  using SafeERC20 for IERC20;\n  using Address for address;\n  using SafeMath for uint256;\n\n  address public DAI;\n  address public cDAI;\n  address public yDAI;\n  address public USDC;\n  address public cUSDC;\n  address public yUSDC;\n  address public SWAPv1;\n  address public CURVEv1;\n  address public SWAPv3;\n  address public CURVEv3;\n\n  constructor () public {\n    DAI = address(0x6B175474E89094C44Da98b954EedeAC495271d0F);\n    yDAI = address(0x16de59092dAE5CcF4A1E6439D611fd0653f0Bd01);\n    cDAI = address(0x5d3a536E4D6DbD6114cc1Ead35777bAB948E3643);\n\n    USDC = address(0xA0b86991c6218b36c1d19D4a2e9Eb0cE3606eB48);\n    yUSDC = address(0xd6aD7a6750A7593E092a9B218d66C0A814a3436e);\n    cUSDC = address(0x39AA39c021dfbaE8faC545936693aC917d5E7563);\n\n    SWAPv1 = address(0x2e60CF74d81ac34eB21eEff58Db4D385920ef419);\n    CURVEv1 = address(0x3740fb63ab7a09891d7c0d4299442A551D06F5fD);\n\n    SWAPv3 = address(0x45F783CCE6B7FF23B2ab2D70e416cdb7D6055f51);\n    CURVEv3 = address(0xdF5e0e81Dff6FAF3A7e52BA697820c5e32D806A8);\n\n    approveToken();\n  }\n\n  function() external payable {\n\n  }\n\n  function withdrawCompound(address token, uint amount) internal {\n      require(Compound(token).redeem(amount) == 0, \"COMPOUND: withdraw failed\");\n  }\n\n  function approveToken() public {\n      IERC20(DAI).safeApprove(yDAI, uint(-1));\n      IERC20(yDAI).safeApprove(SWAPv3, uint(-1));\n\n      IERC20(USDC).safeApprove(yUSDC, uint(-1));\n      IERC20(yUSDC).safeApprove(SWAPv3, uint(-1));\n\n  }\n\n  function swapv1tov3(uint256 _amount)\n      external\n      nonReentrant\n  {\n      require(_amount > 0, \"curvev1 must be greater than 0\");\n      IERC20(CURVEv1).safeTransferFrom(msg.sender, address(this), _amount);\n      ICurveFiv1(SWAPv1).remove_liquidity(_amount, now.add(1800), [uint256(0),0]);\n      require(IERC20(CURVEv1).balanceOf(address(this)) == 0, \"CURVE remainder\");\n\n      if (IERC20(cDAI).balanceOf(address(this)) > 0) {\n        withdrawCompound(cDAI, IERC20(cDAI).balanceOf(address(this)));\n      }\n      if (IERC20(cUSDC).balanceOf(address(this)) > 0) {\n        withdrawCompound(cUSDC, IERC20(cUSDC).balanceOf(address(this)));\n      }\n\n      uint256 _dai = IERC20(DAI).balanceOf(address(this));\n      uint256 _usdc = IERC20(USDC).balanceOf(address(this));\n\n      require(_dai > 0 || _usdc > 0, \"no underlying found\");\n\n      if (_dai > 0) {\n        yERC20(yDAI).deposit(_dai);\n        require(IERC20(DAI).balanceOf(address(this)) == 0, \"dai remainder\");\n      }\n\n      if (_usdc > 0) {\n        yERC20(yUSDC).deposit(_usdc);\n        require(IERC20(USDC).balanceOf(address(this)) == 0, \"usdc remainder\");\n      }\n\n      ICurveFiv3(SWAPv3).add_liquidity([\n        IERC20(yDAI).balanceOf(address(this)),\n        IERC20(yUSDC).balanceOf(address(this)),0,0],0);\n\n      require(IERC20(yDAI).balanceOf(address(this)) == 0, \"yDAI remainder\");\n      require(IERC20(yUSDC).balanceOf(address(this)) == 0, \"yUSDC remainder\");\n\n      IERC20(CURVEv3).safeTransfer(msg.sender, IERC20(CURVEv3).balanceOf(address(this)));\n      require(IERC20(CURVEv3).balanceOf(address(this)) == 0, \"CURVEv3 remainder\");\n  }\n\n  // incase of half-way error\n  function inCaseTokenGetsStuck(IERC20 _TokenAddress) onlyOwner public {\n      uint qty = _TokenAddress.balanceOf(address(this));\n      _TokenAddress.safeTransfer(msg.sender, qty);\n  }\n\n  // incase of half-way error\n  function inCaseETHGetsStuck() onlyOwner public{\n      (bool result, ) = msg.sender.call.value(address(this).balance)(\"\");\n      require(result, \"transfer of ETH failed\");\n  }\n}\n",
  "sourcePath": "D:/ftm/itoken/contracts/yCurveZapv1.sol",
  "compiler": {
    "name": "solc",
    "version": "0.5.12+commit.7709ece9.Emscripten.clang"
  },
  "schemaVersion": "3.0.19",
  "updatedAt": "2020-02-17T05:44:33.897Z",
  "devdoc": {
    "methods": {}
  },
  "userdoc": {
    "methods": {}
  }
}