{
  "contractName": "yCurveZapOut",
  "abi": [
    {
      "inputs": [],
      "payable": false,
      "stateMutability": "nonpayable",
      "type": "constructor"
    },
    {
      "anonymous": false,
      "inputs": [
        {
          "indexed": true,
          "internalType": "address",
          "name": "previousOwner",
          "type": "address"
        },
        {
          "indexed": true,
          "internalType": "address",
          "name": "newOwner",
          "type": "address"
        }
      ],
      "name": "OwnershipTransferred",
      "type": "event"
    },
    {
      "payable": true,
      "stateMutability": "payable",
      "type": "fallback"
    },
    {
      "constant": true,
      "inputs": [],
      "name": "CURVE",
      "outputs": [
        {
          "internalType": "address",
          "name": "",
          "type": "address"
        }
      ],
      "payable": false,
      "stateMutability": "view",
      "type": "function"
    },
    {
      "constant": true,
      "inputs": [],
      "name": "DAI",
      "outputs": [
        {
          "internalType": "address",
          "name": "",
          "type": "address"
        }
      ],
      "payable": false,
      "stateMutability": "view",
      "type": "function"
    },
    {
      "constant": true,
      "inputs": [],
      "name": "SWAP",
      "outputs": [
        {
          "internalType": "address",
          "name": "",
          "type": "address"
        }
      ],
      "payable": false,
      "stateMutability": "view",
      "type": "function"
    },
    {
      "constant": true,
      "inputs": [],
      "name": "TUSD",
      "outputs": [
        {
          "internalType": "address",
          "name": "",
          "type": "address"
        }
      ],
      "payable": false,
      "stateMutability": "view",
      "type": "function"
    },
    {
      "constant": true,
      "inputs": [],
      "name": "USDC",
      "outputs": [
        {
          "internalType": "address",
          "name": "",
          "type": "address"
        }
      ],
      "payable": false,
      "stateMutability": "view",
      "type": "function"
    },
    {
      "constant": true,
      "inputs": [],
      "name": "USDT",
      "outputs": [
        {
          "internalType": "address",
          "name": "",
          "type": "address"
        }
      ],
      "payable": false,
      "stateMutability": "view",
      "type": "function"
    },
    {
      "constant": true,
      "inputs": [],
      "name": "isOwner",
      "outputs": [
        {
          "internalType": "bool",
          "name": "",
          "type": "bool"
        }
      ],
      "payable": false,
      "stateMutability": "view",
      "type": "function"
    },
    {
      "constant": true,
      "inputs": [],
      "name": "owner",
      "outputs": [
        {
          "internalType": "address",
          "name": "",
          "type": "address"
        }
      ],
      "payable": false,
      "stateMutability": "view",
      "type": "function"
    },
    {
      "constant": false,
      "inputs": [],
      "name": "renounceOwnership",
      "outputs": [],
      "payable": false,
      "stateMutability": "nonpayable",
      "type": "function"
    },
    {
      "constant": false,
      "inputs": [
        {
          "internalType": "address",
          "name": "newOwner",
          "type": "address"
        }
      ],
      "name": "transferOwnership",
      "outputs": [],
      "payable": false,
      "stateMutability": "nonpayable",
      "type": "function"
    },
    {
      "constant": true,
      "inputs": [],
      "name": "yDAI",
      "outputs": [
        {
          "internalType": "address",
          "name": "",
          "type": "address"
        }
      ],
      "payable": false,
      "stateMutability": "view",
      "type": "function"
    },
    {
      "constant": true,
      "inputs": [],
      "name": "yTUSD",
      "outputs": [
        {
          "internalType": "address",
          "name": "",
          "type": "address"
        }
      ],
      "payable": false,
      "stateMutability": "view",
      "type": "function"
    },
    {
      "constant": true,
      "inputs": [],
      "name": "yUSDC",
      "outputs": [
        {
          "internalType": "address",
          "name": "",
          "type": "address"
        }
      ],
      "payable": false,
      "stateMutability": "view",
      "type": "function"
    },
    {
      "constant": true,
      "inputs": [],
      "name": "yUSDT",
      "outputs": [
        {
          "internalType": "address",
          "name": "",
          "type": "address"
        }
      ],
      "payable": false,
      "stateMutability": "view",
      "type": "function"
    },
    {
      "constant": false,
      "inputs": [],
      "name": "approveToken",
      "outputs": [],
      "payable": false,
      "stateMutability": "nonpayable",
      "type": "function"
    },
    {
      "constant": false,
      "inputs": [
        {
          "internalType": "uint256",
          "name": "_amount",
          "type": "uint256"
        }
      ],
      "name": "withdrawDAI",
      "outputs": [],
      "payable": false,
      "stateMutability": "nonpayable",
      "type": "function"
    },
    {
      "constant": false,
      "inputs": [
        {
          "internalType": "uint256",
          "name": "_amount",
          "type": "uint256"
        }
      ],
      "name": "withdrawUSDC",
      "outputs": [],
      "payable": false,
      "stateMutability": "nonpayable",
      "type": "function"
    },
    {
      "constant": false,
      "inputs": [
        {
          "internalType": "uint256",
          "name": "_amount",
          "type": "uint256"
        }
      ],
      "name": "withdrawUSDT",
      "outputs": [],
      "payable": false,
      "stateMutability": "nonpayable",
      "type": "function"
    },
    {
      "constant": false,
      "inputs": [
        {
          "internalType": "uint256",
          "name": "_amount",
          "type": "uint256"
        }
      ],
      "name": "withdrawTUSD",
      "outputs": [],
      "payable": false,
      "stateMutability": "nonpayable",
      "type": "function"
    },
    {
      "constant": false,
      "inputs": [
        {
          "internalType": "contract IERC20",
          "name": "_TokenAddress",
          "type": "address"
        }
      ],
      "name": "inCaseTokenGetsStuck",
      "outputs": [],
      "payable": false,
      "stateMutability": "nonpayable",
      "type": "function"
    },
    {
      "constant": false,
      "inputs": [],
      "name": "inCaseETHGetsStuck",
      "outputs": [],
      "payable": false,
      "stateMutability": "nonpayable",
      "type": "function"
    }
  ],
  "bytecode": "0x60806040523480156200001157600080fd5b5060016000819055506200002a6200044a60201b60201c565b600160006101000a81548173ffffffffffffffffffffffffffffffffffffffff021916908373ffffffffffffffffffffffffffffffffffffffff160217905550600160009054906101000a900473ffffffffffffffffffffffffffffffffffffffff1673ffffffffffffffffffffffffffffffffffffffff16600073ffffffffffffffffffffffffffffffffffffffff167f8be0079c531659141344cd1fd0a4f28419497f9722a3daafe3b4186f6b6457e060405160405180910390a3736b175474e89094c44da98b954eedeac495271d0f600260006101000a81548173ffffffffffffffffffffffffffffffffffffffff021916908373ffffffffffffffffffffffffffffffffffffffff1602179055507316de59092dae5ccf4a1e6439d611fd0653f0bd01600360006101000a81548173ffffffffffffffffffffffffffffffffffffffff021916908373ffffffffffffffffffffffffffffffffffffffff16021790555073a0b86991c6218b36c1d19d4a2e9eb0ce3606eb48600460006101000a81548173ffffffffffffffffffffffffffffffffffffffff021916908373ffffffffffffffffffffffffffffffffffffffff16021790555073d6ad7a6750a7593e092a9b218d66c0a814a3436e600560006101000a81548173ffffffffffffffffffffffffffffffffffffffff021916908373ffffffffffffffffffffffffffffffffffffffff16021790555073dac17f958d2ee523a2206206994597c13d831ec7600660006101000a81548173ffffffffffffffffffffffffffffffffffffffff021916908373ffffffffffffffffffffffffffffffffffffffff1602179055507383f798e925bcd4017eb265844fddabb448f1707d600760006101000a81548173ffffffffffffffffffffffffffffffffffffffff021916908373ffffffffffffffffffffffffffffffffffffffff1602179055506e085d4780b73119b644ae5ecd22b376600860006101000a81548173ffffffffffffffffffffffffffffffffffffffff021916908373ffffffffffffffffffffffffffffffffffffffff1602179055507373a052500105205d34daf004eab301916da8190f600960006101000a81548173ffffffffffffffffffffffffffffffffffffffff021916908373ffffffffffffffffffffffffffffffffffffffff1602179055507345f783cce6b7ff23b2ab2d70e416cdb7d6055f51600a60006101000a81548173ffffffffffffffffffffffffffffffffffffffff021916908373ffffffffffffffffffffffffffffffffffffffff16021790555073df5e0e81dff6faf3a7e52ba697820c5e32d806a8600b60006101000a81548173ffffffffffffffffffffffffffffffffffffffff021916908373ffffffffffffffffffffffffffffffffffffffff160217905550620004446200045260201b60201c565b62000e1b565b600033905090565b620004e8600a60009054906101000a900473ffffffffffffffffffffffffffffffffffffffff167fffffffffffffffffffffffffffffffffffffffffffffffffffffffffffffffff600360009054906101000a900473ffffffffffffffffffffffffffffffffffffffff1673ffffffffffffffffffffffffffffffffffffffff16620006ac60201b6200505b179092919060201c565b6200057e600a60009054906101000a900473ffffffffffffffffffffffffffffffffffffffff167fffffffffffffffffffffffffffffffffffffffffffffffffffffffffffffffff600560009054906101000a900473ffffffffffffffffffffffffffffffffffffffff1673ffffffffffffffffffffffffffffffffffffffff16620006ac60201b6200505b179092919060201c565b62000614600a60009054906101000a900473ffffffffffffffffffffffffffffffffffffffff167fffffffffffffffffffffffffffffffffffffffffffffffffffffffffffffffff600760009054906101000a900473ffffffffffffffffffffffffffffffffffffffff1673ffffffffffffffffffffffffffffffffffffffff16620006ac60201b6200505b179092919060201c565b620006aa600a60009054906101000a900473ffffffffffffffffffffffffffffffffffffffff167fffffffffffffffffffffffffffffffffffffffffffffffffffffffffffffffff600960009054906101000a900473ffffffffffffffffffffffffffffffffffffffff1673ffffffffffffffffffffffffffffffffffffffff16620006ac60201b6200505b179092919060201c565b565b60008114806200074c575060008373ffffffffffffffffffffffffffffffffffffffff1663dd62ed3e30856040518363ffffffff1660e01b8152600401620006f692919062000c5e565b60206040518083038186803b1580156200070f57600080fd5b505afa15801562000724573d6000803e3d6000fd5b505050506040513d601f19601f820116820180604052506200074a919081019062000a6c565b145b6200078e576040517f08c379a0000000000000000000000000000000000000000000000000000000008152600401620007859062000cfc565b60405180910390fd5b62000832838473ffffffffffffffffffffffffffffffffffffffff1663095ea7b3905060e01b8484604051602401620007c992919062000c8b565b604051602081830303815290604052907bffffffffffffffffffffffffffffffffffffffffffffffffffffffff19166020820180517bffffffffffffffffffffffffffffffffffffffffffffffffffffffff83818316178352505050506200083760201b60201c565b505050565b620008638273ffffffffffffffffffffffffffffffffffffffff16620009c660201b620055301760201c565b620008a5576040517f08c379a00000000000000000000000000000000000000000000000000000000081526004016200089c9062000d1e565b60405180910390fd5b600060608373ffffffffffffffffffffffffffffffffffffffff1683604051620008d0919062000c45565b6000604051808303816000865af19150503d80600081146200090f576040519150601f19603f3d011682016040523d82523d6000602084013e62000914565b606091505b5091509150816200095c576040517f08c379a0000000000000000000000000000000000000000000000000000000008152600401620009539062000cb8565b60405180910390fd5b600081511115620009c057808060200190516200097d919081019062000a40565b620009bf576040517f08c379a0000000000000000000000000000000000000000000000000000000008152600401620009b69062000cda565b60405180910390fd5b5b50505050565b60008060007fc5d2460186f7233c927e7db2dcc703c0e500b653ca82273b7bfad8045d85a47060001b9050833f91506000801b821415801562000a095750808214155b92505050919050565b60008151905062000a238162000de7565b92915050565b60008151905062000a3a8162000e01565b92915050565b60006020828403121562000a5357600080fd5b600062000a638482850162000a12565b91505092915050565b60006020828403121562000a7f57600080fd5b600062000a8f8482850162000a29565b91505092915050565b62000aa38162000d67565b82525050565b600062000ab68262000d40565b62000ac2818562000d4b565b935062000ad481856020860162000db1565b80840191505092915050565b600062000aef60208362000d56565b91507f5361666545524332303a206c6f772d6c6576656c2063616c6c206661696c65646000830152602082019050919050565b600062000b31602a8362000d56565b91507f5361666545524332303a204552433230206f7065726174696f6e20646964206e60008301527f6f742073756363656564000000000000000000000000000000000000000000006020830152604082019050919050565b600062000b9960368362000d56565b91507f5361666545524332303a20617070726f76652066726f6d206e6f6e2d7a65726f60008301527f20746f206e6f6e2d7a65726f20616c6c6f77616e6365000000000000000000006020830152604082019050919050565b600062000c01601f8362000d56565b91507f5361666545524332303a2063616c6c20746f206e6f6e2d636f6e7472616374006000830152602082019050919050565b62000c3f8162000da7565b82525050565b600062000c53828462000aa9565b915081905092915050565b600060408201905062000c75600083018562000a98565b62000c84602083018462000a98565b9392505050565b600060408201905062000ca2600083018562000a98565b62000cb1602083018462000c34565b9392505050565b6000602082019050818103600083015262000cd38162000ae0565b9050919050565b6000602082019050818103600083015262000cf58162000b22565b9050919050565b6000602082019050818103600083015262000d178162000b8a565b9050919050565b6000602082019050818103600083015262000d398162000bf2565b9050919050565b600081519050919050565b600081905092915050565b600082825260208201905092915050565b600062000d748262000d87565b9050919050565b60008115159050919050565b600073ffffffffffffffffffffffffffffffffffffffff82169050919050565b6000819050919050565b60005b8381101562000dd157808201518184015260208101905062000db4565b8381111562000de1576000848401525b50505050565b62000df28162000d7b565b811462000dfe57600080fd5b50565b62000e0c8162000da7565b811462000e1857600080fd5b50565b6167f38062000e2b6000396000f3fe60806040526004361061012a5760003560e01c806389a30271116100ab578063c54e44eb1161006f578063c54e44eb14610381578063db81f99b146103ac578063e0bab4c4146103d5578063e31ff1be14610400578063f2fde38b1461042b578063f60a15ed146104545761012a565b806389a30271146102c05780638da5cb5b146102eb5780638f32d59b1461031657806399b71d5c146103415780639add7438146103585761012a565b80633ea521ef116100f25780633ea521ef146102015780635c531d6a1461022a578063715018a614610253578063756bb1cc1461026a5780638323550b146102955761012a565b806304d841081461012c57806317e5a9a41461015757806319d9e008146101825780632e8d6e18146101ad5780633a3c3b87146101d6575b005b34801561013857600080fd5b5061014161046b565b60405161014e9190615e7e565b60405180910390f35b34801561016357600080fd5b5061016c610491565b6040516101799190615e7e565b60405180910390f35b34801561018e57600080fd5b506101976104b7565b6040516101a49190615e7e565b60405180910390f35b3480156101b957600080fd5b506101d460048036036101cf9190810190615636565b6104dd565b005b3480156101e257600080fd5b506101eb6105e0565b6040516101f89190615e7e565b60405180910390f35b34801561020d57600080fd5b506102286004803603610223919081019061565f565b610606565b005b34801561023657600080fd5b50610251600480360361024c919081019061565f565b61166e565b005b34801561025f57600080fd5b506102686126d6565b005b34801561027657600080fd5b5061027f6127de565b60405161028c9190615e7e565b60405180910390f35b3480156102a157600080fd5b506102aa612804565b6040516102b79190615e7e565b60405180910390f35b3480156102cc57600080fd5b506102d561282a565b6040516102e29190615e7e565b60405180910390f35b3480156102f757600080fd5b50610300612850565b60405161030d9190615e7e565b60405180910390f35b34801561032257600080fd5b5061032b61287a565b6040516103389190615f3d565b60405180910390f35b34801561034d57600080fd5b506103566128d9565b005b34801561036457600080fd5b5061037f600480360361037a919081019061565f565b612b17565b005b34801561038d57600080fd5b50610396613b7f565b6040516103a39190615e7e565b60405180910390f35b3480156103b857600080fd5b506103d360048036036103ce919081019061565f565b613ba5565b005b3480156103e157600080fd5b506103ea614c0d565b6040516103f79190615e7e565b60405180910390f35b34801561040c57600080fd5b50610415614c33565b6040516104229190615e7e565b60405180910390f35b34801561043757600080fd5b50610452600480360361044d91908101906155e4565b614c59565b005b34801561046057600080fd5b50610469614cac565b005b600a60009054906101000a900473ffffffffffffffffffffffffffffffffffffffff1681565b600760009054906101000a900473ffffffffffffffffffffffffffffffffffffffff1681565b600560009054906101000a900473ffffffffffffffffffffffffffffffffffffffff1681565b6104e561287a565b610524576040517f08c379a000000000000000000000000000000000000000000000000000000000815260040161051b90616456565b60405180910390fd5b60008173ffffffffffffffffffffffffffffffffffffffff166370a08231306040518263ffffffff1660e01b815260040161055f9190615e99565b60206040518083038186803b15801561057757600080fd5b505afa15801561058b573d6000803e3d6000fd5b505050506040513d601f19601f820116820180604052506105af9190810190615688565b90506105dc33828473ffffffffffffffffffffffffffffffffffffffff16614db99092919063ffffffff16565b5050565b600b60009054906101000a900473ffffffffffffffffffffffffffffffffffffffff1681565b600160008082825401925050819055506000805490506000821161065f576040517f08c379a000000000000000000000000000000000000000000000000000000000815260040161065690616496565b60405180910390fd5b6106ae333084600b60009054906101000a900473ffffffffffffffffffffffffffffffffffffffff1673ffffffffffffffffffffffffffffffffffffffff16614e58909392919063ffffffff16565b600a60009054906101000a900473ffffffffffffffffffffffffffffffffffffffff1673ffffffffffffffffffffffffffffffffffffffff16637d49d875600b60009054906101000a900473ffffffffffffffffffffffffffffffffffffffff1673ffffffffffffffffffffffffffffffffffffffff166370a08231306040518263ffffffff1660e01b81526004016107479190615e99565b60206040518083038186803b15801561075f57600080fd5b505afa158015610773573d6000803e3d6000fd5b505050506040513d601f19601f820116820180604052506107979190810190615688565b604051806080016040528060008152602001600081526020016000815260200160008152506040518363ffffffff1660e01b81526004016107d9929190616591565b600060405180830381600087803b1580156107f357600080fd5b505af1158015610807573d6000803e3d6000fd5b505050506000600b60009054906101000a900473ffffffffffffffffffffffffffffffffffffffff1673ffffffffffffffffffffffffffffffffffffffff166370a08231306040518263ffffffff1660e01b81526004016108689190615e99565b60206040518083038186803b15801561088057600080fd5b505afa158015610894573d6000803e3d6000fd5b505050506040513d601f19601f820116820180604052506108b89190810190615688565b146108f8576040517f08c379a00000000000000000000000000000000000000000000000000000000081526004016108ef906163f6565b60405180910390fd5b6000600360009054906101000a900473ffffffffffffffffffffffffffffffffffffffff1673ffffffffffffffffffffffffffffffffffffffff166370a08231306040518263ffffffff1660e01b81526004016109559190615e99565b60206040518083038186803b15801561096d57600080fd5b505afa158015610981573d6000803e3d6000fd5b505050506040513d601f19601f820116820180604052506109a59190810190615688565b90506000600560009054906101000a900473ffffffffffffffffffffffffffffffffffffffff1673ffffffffffffffffffffffffffffffffffffffff166370a08231306040518263ffffffff1660e01b8152600401610a049190615e99565b60206040518083038186803b158015610a1c57600080fd5b505afa158015610a30573d6000803e3d6000fd5b505050506040513d601f19601f82011682018060405250610a549190810190615688565b90506000600760009054906101000a900473ffffffffffffffffffffffffffffffffffffffff1673ffffffffffffffffffffffffffffffffffffffff166370a08231306040518263ffffffff1660e01b8152600401610ab39190615e99565b60206040518083038186803b158015610acb57600080fd5b505afa158015610adf573d6000803e3d6000fd5b505050506040513d601f19601f82011682018060405250610b039190810190615688565b90506000600960009054906101000a900473ffffffffffffffffffffffffffffffffffffffff1673ffffffffffffffffffffffffffffffffffffffff166370a08231306040518263ffffffff1660e01b8152600401610b629190615e99565b60206040518083038186803b158015610b7a57600080fd5b505afa158015610b8e573d6000803e3d6000fd5b505050506040513d601f19601f82011682018060405250610bb29190810190615688565b90506000841180610bc35750600083115b80610bce5750600082115b80610bd95750600081115b610c18576040517f08c379a0000000000000000000000000000000000000000000000000000000008152600401610c0f906162d6565b60405180910390fd5b6000841115610da557600a60009054906101000a900473ffffffffffffffffffffffffffffffffffffffff1673ffffffffffffffffffffffffffffffffffffffff16633df02124600060028760006040518563ffffffff1660e01b8152600401610c859493929190615f9d565b600060405180830381600087803b158015610c9f57600080fd5b505af1158015610cb3573d6000803e3d6000fd5b505050506000600360009054906101000a900473ffffffffffffffffffffffffffffffffffffffff1673ffffffffffffffffffffffffffffffffffffffff166370a08231306040518263ffffffff1660e01b8152600401610d149190615e99565b60206040518083038186803b158015610d2c57600080fd5b505afa158015610d40573d6000803e3d6000fd5b505050506040513d601f19601f82011682018060405250610d649190810190615688565b14610da4576040517f08c379a0000000000000000000000000000000000000000000000000000000008152600401610d9b90616516565b60405180910390fd5b5b6000831115610f3257600a60009054906101000a900473ffffffffffffffffffffffffffffffffffffffff1673ffffffffffffffffffffffffffffffffffffffff16633df02124600160028660006040518563ffffffff1660e01b8152600401610e12949392919061606c565b600060405180830381600087803b158015610e2c57600080fd5b505af1158015610e40573d6000803e3d6000fd5b505050506000600560009054906101000a900473ffffffffffffffffffffffffffffffffffffffff1673ffffffffffffffffffffffffffffffffffffffff166370a08231306040518263ffffffff1660e01b8152600401610ea19190615e99565b60206040518083038186803b158015610eb957600080fd5b505afa158015610ecd573d6000803e3d6000fd5b505050506040513d601f19601f82011682018060405250610ef19190810190615688565b14610f31576040517f08c379a0000000000000000000000000000000000000000000000000000000008152600401610f2890616396565b60405180910390fd5b5b60008111156110bf57600a60009054906101000a900473ffffffffffffffffffffffffffffffffffffffff1673ffffffffffffffffffffffffffffffffffffffff16633df02124600360028460006040518563ffffffff1660e01b8152600401610f9f949392919061624f565b600060405180830381600087803b158015610fb957600080fd5b505af1158015610fcd573d6000803e3d6000fd5b505050506000600960009054906101000a900473ffffffffffffffffffffffffffffffffffffffff1673ffffffffffffffffffffffffffffffffffffffff166370a08231306040518263ffffffff1660e01b815260040161102e9190615e99565b60206040518083038186803b15801561104657600080fd5b505afa15801561105a573d6000803e3d6000fd5b505050506040513d601f19601f8201168201806040525061107e9190810190615688565b146110be576040517f08c379a00000000000000000000000000000000000000000000000000000000081526004016110b5906163b6565b60405180910390fd5b5b600760009054906101000a900473ffffffffffffffffffffffffffffffffffffffff1673ffffffffffffffffffffffffffffffffffffffff16632e1a7d4d600760009054906101000a900473ffffffffffffffffffffffffffffffffffffffff1673ffffffffffffffffffffffffffffffffffffffff166370a08231306040518263ffffffff1660e01b81526004016111589190615e99565b60206040518083038186803b15801561117057600080fd5b505afa158015611184573d6000803e3d6000fd5b505050506040513d601f19601f820116820180604052506111a89190810190615688565b6040518263ffffffff1660e01b81526004016111c49190616576565b600060405180830381600087803b1580156111de57600080fd5b505af11580156111f2573d6000803e3d6000fd5b505050506000600760009054906101000a900473ffffffffffffffffffffffffffffffffffffffff1673ffffffffffffffffffffffffffffffffffffffff166370a08231306040518263ffffffff1660e01b81526004016112539190615e99565b60206040518083038186803b15801561126b57600080fd5b505afa15801561127f573d6000803e3d6000fd5b505050506040513d601f19601f820116820180604052506112a39190810190615688565b146112e3576040517f08c379a00000000000000000000000000000000000000000000000000000000081526004016112da90616376565b60405180910390fd5b6000600660009054906101000a900473ffffffffffffffffffffffffffffffffffffffff1673ffffffffffffffffffffffffffffffffffffffff166370a08231306040518263ffffffff1660e01b81526004016113409190615e99565b60206040518083038186803b15801561135857600080fd5b505afa15801561136c573d6000803e3d6000fd5b505050506040513d601f19601f820116820180604052506113909190810190615688565b905060006113bb60646113ad60058b614efa90919063ffffffff16565b614f6a90919063ffffffff16565b905060006113d2828a614fb490919063ffffffff16565b905060006113e9838b614ffe90919063ffffffff16565b90508084111580156113fb5750818410155b61143a576040517f08c379a0000000000000000000000000000000000000000000000000000000008152600401611431906164b6565b60405180910390fd5b61153133600660009054906101000a900473ffffffffffffffffffffffffffffffffffffffff1673ffffffffffffffffffffffffffffffffffffffff166370a08231306040518263ffffffff1660e01b81526004016114999190615e99565b60206040518083038186803b1580156114b157600080fd5b505afa1580156114c5573d6000803e3d6000fd5b505050506040513d601f19601f820116820180604052506114e99190810190615688565b600660009054906101000a900473ffffffffffffffffffffffffffffffffffffffff1673ffffffffffffffffffffffffffffffffffffffff16614db99092919063ffffffff16565b6000600660009054906101000a900473ffffffffffffffffffffffffffffffffffffffff1673ffffffffffffffffffffffffffffffffffffffff166370a08231306040518263ffffffff1660e01b815260040161158e9190615e99565b60206040518083038186803b1580156115a657600080fd5b505afa1580156115ba573d6000803e3d6000fd5b505050506040513d601f19601f820116820180604052506115de9190810190615688565b1461161e576040517f08c379a000000000000000000000000000000000000000000000000000000000815260040161161590616316565b60405180910390fd5b5050505050505050600054811461166a576040517f08c379a0000000000000000000000000000000000000000000000000000000008152600401611661906164f6565b60405180910390fd5b5050565b60016000808282540192505081905550600080549050600082116116c7576040517f08c379a00000000000000000000000000000000000000000000000000000000081526004016116be90616496565b60405180910390fd5b611716333084600b60009054906101000a900473ffffffffffffffffffffffffffffffffffffffff1673ffffffffffffffffffffffffffffffffffffffff16614e58909392919063ffffffff16565b600a60009054906101000a900473ffffffffffffffffffffffffffffffffffffffff1673ffffffffffffffffffffffffffffffffffffffff16637d49d875600b60009054906101000a900473ffffffffffffffffffffffffffffffffffffffff1673ffffffffffffffffffffffffffffffffffffffff166370a08231306040518263ffffffff1660e01b81526004016117af9190615e99565b60206040518083038186803b1580156117c757600080fd5b505afa1580156117db573d6000803e3d6000fd5b505050506040513d601f19601f820116820180604052506117ff9190810190615688565b604051806080016040528060008152602001600081526020016000815260200160008152506040518363ffffffff1660e01b8152600401611841929190616591565b600060405180830381600087803b15801561185b57600080fd5b505af115801561186f573d6000803e3d6000fd5b505050506000600b60009054906101000a900473ffffffffffffffffffffffffffffffffffffffff1673ffffffffffffffffffffffffffffffffffffffff166370a08231306040518263ffffffff1660e01b81526004016118d09190615e99565b60206040518083038186803b1580156118e857600080fd5b505afa1580156118fc573d6000803e3d6000fd5b505050506040513d601f19601f820116820180604052506119209190810190615688565b14611960576040517f08c379a0000000000000000000000000000000000000000000000000000000008152600401611957906163f6565b60405180910390fd5b6000600360009054906101000a900473ffffffffffffffffffffffffffffffffffffffff1673ffffffffffffffffffffffffffffffffffffffff166370a08231306040518263ffffffff1660e01b81526004016119bd9190615e99565b60206040518083038186803b1580156119d557600080fd5b505afa1580156119e9573d6000803e3d6000fd5b505050506040513d601f19601f82011682018060405250611a0d9190810190615688565b90506000600560009054906101000a900473ffffffffffffffffffffffffffffffffffffffff1673ffffffffffffffffffffffffffffffffffffffff166370a08231306040518263ffffffff1660e01b8152600401611a6c9190615e99565b60206040518083038186803b158015611a8457600080fd5b505afa158015611a98573d6000803e3d6000fd5b505050506040513d601f19601f82011682018060405250611abc9190810190615688565b90506000600760009054906101000a900473ffffffffffffffffffffffffffffffffffffffff1673ffffffffffffffffffffffffffffffffffffffff166370a08231306040518263ffffffff1660e01b8152600401611b1b9190615e99565b60206040518083038186803b158015611b3357600080fd5b505afa158015611b47573d6000803e3d6000fd5b505050506040513d601f19601f82011682018060405250611b6b9190810190615688565b90506000600960009054906101000a900473ffffffffffffffffffffffffffffffffffffffff1673ffffffffffffffffffffffffffffffffffffffff166370a08231306040518263ffffffff1660e01b8152600401611bca9190615e99565b60206040518083038186803b158015611be257600080fd5b505afa158015611bf6573d6000803e3d6000fd5b505050506040513d601f19601f82011682018060405250611c1a9190810190615688565b90506000841180611c2b5750600083115b80611c365750600082115b80611c415750600081115b611c80576040517f08c379a0000000000000000000000000000000000000000000000000000000008152600401611c77906162d6565b60405180910390fd5b6000841115611e0d57600a60009054906101000a900473ffffffffffffffffffffffffffffffffffffffff1673ffffffffffffffffffffffffffffffffffffffff16633df02124600060038760006040518563ffffffff1660e01b8152600401611ced9493929190615fe2565b600060405180830381600087803b158015611d0757600080fd5b505af1158015611d1b573d6000803e3d6000fd5b505050506000600360009054906101000a900473ffffffffffffffffffffffffffffffffffffffff1673ffffffffffffffffffffffffffffffffffffffff166370a08231306040518263ffffffff1660e01b8152600401611d7c9190615e99565b60206040518083038186803b158015611d9457600080fd5b505afa158015611da8573d6000803e3d6000fd5b505050506040513d601f19601f82011682018060405250611dcc9190810190615688565b14611e0c576040517f08c379a0000000000000000000000000000000000000000000000000000000008152600401611e0390616516565b60405180910390fd5b5b6000831115611f9a57600a60009054906101000a900473ffffffffffffffffffffffffffffffffffffffff1673ffffffffffffffffffffffffffffffffffffffff16633df02124600160038660006040518563ffffffff1660e01b8152600401611e7a94939291906160b1565b600060405180830381600087803b158015611e9457600080fd5b505af1158015611ea8573d6000803e3d6000fd5b505050506000600560009054906101000a900473ffffffffffffffffffffffffffffffffffffffff1673ffffffffffffffffffffffffffffffffffffffff166370a08231306040518263ffffffff1660e01b8152600401611f099190615e99565b60206040518083038186803b158015611f2157600080fd5b505afa158015611f35573d6000803e3d6000fd5b505050506040513d601f19601f82011682018060405250611f599190810190615688565b14611f99576040517f08c379a0000000000000000000000000000000000000000000000000000000008152600401611f9090616396565b60405180910390fd5b5b600082111561212757600a60009054906101000a900473ffffffffffffffffffffffffffffffffffffffff1673ffffffffffffffffffffffffffffffffffffffff16633df02124600260038560006040518563ffffffff1660e01b81526004016120079493929190616180565b600060405180830381600087803b15801561202157600080fd5b505af1158015612035573d6000803e3d6000fd5b505050506000600760009054906101000a900473ffffffffffffffffffffffffffffffffffffffff1673ffffffffffffffffffffffffffffffffffffffff166370a08231306040518263ffffffff1660e01b81526004016120969190615e99565b60206040518083038186803b1580156120ae57600080fd5b505afa1580156120c2573d6000803e3d6000fd5b505050506040513d601f19601f820116820180604052506120e69190810190615688565b14612126576040517f08c379a000000000000000000000000000000000000000000000000000000000815260040161211d90616376565b60405180910390fd5b5b600960009054906101000a900473ffffffffffffffffffffffffffffffffffffffff1673ffffffffffffffffffffffffffffffffffffffff16632e1a7d4d600960009054906101000a900473ffffffffffffffffffffffffffffffffffffffff1673ffffffffffffffffffffffffffffffffffffffff166370a08231306040518263ffffffff1660e01b81526004016121c09190615e99565b60206040518083038186803b1580156121d857600080fd5b505afa1580156121ec573d6000803e3d6000fd5b505050506040513d601f19601f820116820180604052506122109190810190615688565b6040518263ffffffff1660e01b815260040161222c9190616576565b600060405180830381600087803b15801561224657600080fd5b505af115801561225a573d6000803e3d6000fd5b505050506000600960009054906101000a900473ffffffffffffffffffffffffffffffffffffffff1673ffffffffffffffffffffffffffffffffffffffff166370a08231306040518263ffffffff1660e01b81526004016122bb9190615e99565b60206040518083038186803b1580156122d357600080fd5b505afa1580156122e7573d6000803e3d6000fd5b505050506040513d601f19601f8201168201806040525061230b9190810190615688565b1461234b576040517f08c379a0000000000000000000000000000000000000000000000000000000008152600401612342906163b6565b60405180910390fd5b6000600860009054906101000a900473ffffffffffffffffffffffffffffffffffffffff1673ffffffffffffffffffffffffffffffffffffffff166370a08231306040518263ffffffff1660e01b81526004016123a89190615e99565b60206040518083038186803b1580156123c057600080fd5b505afa1580156123d4573d6000803e3d6000fd5b505050506040513d601f19601f820116820180604052506123f89190810190615688565b90506000612423606461241560058b614efa90919063ffffffff16565b614f6a90919063ffffffff16565b9050600061243a828a614fb490919063ffffffff16565b90506000612451838b614ffe90919063ffffffff16565b90508084111580156124635750818410155b6124a2576040517f08c379a0000000000000000000000000000000000000000000000000000000008152600401612499906164b6565b60405180910390fd5b61259933600860009054906101000a900473ffffffffffffffffffffffffffffffffffffffff1673ffffffffffffffffffffffffffffffffffffffff166370a08231306040518263ffffffff1660e01b81526004016125019190615e99565b60206040518083038186803b15801561251957600080fd5b505afa15801561252d573d6000803e3d6000fd5b505050506040513d601f19601f820116820180604052506125519190810190615688565b600860009054906101000a900473ffffffffffffffffffffffffffffffffffffffff1673ffffffffffffffffffffffffffffffffffffffff16614db99092919063ffffffff16565b6000600860009054906101000a900473ffffffffffffffffffffffffffffffffffffffff1673ffffffffffffffffffffffffffffffffffffffff166370a08231306040518263ffffffff1660e01b81526004016125f69190615e99565b60206040518083038186803b15801561260e57600080fd5b505afa158015612622573d6000803e3d6000fd5b505050506040513d601f19601f820116820180604052506126469190810190615688565b14612686576040517f08c379a000000000000000000000000000000000000000000000000000000000815260040161267d90616416565b60405180910390fd5b505050505050505060005481146126d2576040517f08c379a00000000000000000000000000000000000000000000000000000000081526004016126c9906164f6565b60405180910390fd5b5050565b6126de61287a565b61271d576040517f08c379a000000000000000000000000000000000000000000000000000000000815260040161271490616456565b60405180910390fd5b600073ffffffffffffffffffffffffffffffffffffffff16600160009054906101000a900473ffffffffffffffffffffffffffffffffffffffff1673ffffffffffffffffffffffffffffffffffffffff167f8be0079c531659141344cd1fd0a4f28419497f9722a3daafe3b4186f6b6457e060405160405180910390a36000600160006101000a81548173ffffffffffffffffffffffffffffffffffffffff021916908373ffffffffffffffffffffffffffffffffffffffff160217905550565b600360009054906101000a900473ffffffffffffffffffffffffffffffffffffffff1681565b600860009054906101000a900473ffffffffffffffffffffffffffffffffffffffff1681565b600460009054906101000a900473ffffffffffffffffffffffffffffffffffffffff1681565b6000600160009054906101000a900473ffffffffffffffffffffffffffffffffffffffff16905090565b6000600160009054906101000a900473ffffffffffffffffffffffffffffffffffffffff1673ffffffffffffffffffffffffffffffffffffffff166128bd615053565b73ffffffffffffffffffffffffffffffffffffffff1614905090565b612968600a60009054906101000a900473ffffffffffffffffffffffffffffffffffffffff167fffffffffffffffffffffffffffffffffffffffffffffffffffffffffffffffff600360009054906101000a900473ffffffffffffffffffffffffffffffffffffffff1673ffffffffffffffffffffffffffffffffffffffff1661505b9092919063ffffffff16565b6129f7600a60009054906101000a900473ffffffffffffffffffffffffffffffffffffffff167fffffffffffffffffffffffffffffffffffffffffffffffffffffffffffffffff600560009054906101000a900473ffffffffffffffffffffffffffffffffffffffff1673ffffffffffffffffffffffffffffffffffffffff1661505b9092919063ffffffff16565b612a86600a60009054906101000a900473ffffffffffffffffffffffffffffffffffffffff167fffffffffffffffffffffffffffffffffffffffffffffffffffffffffffffffff600760009054906101000a900473ffffffffffffffffffffffffffffffffffffffff1673ffffffffffffffffffffffffffffffffffffffff1661505b9092919063ffffffff16565b612b15600a60009054906101000a900473ffffffffffffffffffffffffffffffffffffffff167fffffffffffffffffffffffffffffffffffffffffffffffffffffffffffffffff600960009054906101000a900473ffffffffffffffffffffffffffffffffffffffff1673ffffffffffffffffffffffffffffffffffffffff1661505b9092919063ffffffff16565b565b6001600080828254019250508190555060008054905060008211612b70576040517f08c379a0000000000000000000000000000000000000000000000000000000008152600401612b6790616496565b60405180910390fd5b612bbf333084600b60009054906101000a900473ffffffffffffffffffffffffffffffffffffffff1673ffffffffffffffffffffffffffffffffffffffff16614e58909392919063ffffffff16565b600a60009054906101000a900473ffffffffffffffffffffffffffffffffffffffff1673ffffffffffffffffffffffffffffffffffffffff16637d49d875600b60009054906101000a900473ffffffffffffffffffffffffffffffffffffffff1673ffffffffffffffffffffffffffffffffffffffff166370a08231306040518263ffffffff1660e01b8152600401612c589190615e99565b60206040518083038186803b158015612c7057600080fd5b505afa158015612c84573d6000803e3d6000fd5b505050506040513d601f19601f82011682018060405250612ca89190810190615688565b604051806080016040528060008152602001600081526020016000815260200160008152506040518363ffffffff1660e01b8152600401612cea929190616591565b600060405180830381600087803b158015612d0457600080fd5b505af1158015612d18573d6000803e3d6000fd5b505050506000600b60009054906101000a900473ffffffffffffffffffffffffffffffffffffffff1673ffffffffffffffffffffffffffffffffffffffff166370a08231306040518263ffffffff1660e01b8152600401612d799190615e99565b60206040518083038186803b158015612d9157600080fd5b505afa158015612da5573d6000803e3d6000fd5b505050506040513d601f19601f82011682018060405250612dc99190810190615688565b14612e09576040517f08c379a0000000000000000000000000000000000000000000000000000000008152600401612e00906163f6565b60405180910390fd5b6000600360009054906101000a900473ffffffffffffffffffffffffffffffffffffffff1673ffffffffffffffffffffffffffffffffffffffff166370a08231306040518263ffffffff1660e01b8152600401612e669190615e99565b60206040518083038186803b158015612e7e57600080fd5b505afa158015612e92573d6000803e3d6000fd5b505050506040513d601f19601f82011682018060405250612eb69190810190615688565b90506000600560009054906101000a900473ffffffffffffffffffffffffffffffffffffffff1673ffffffffffffffffffffffffffffffffffffffff166370a08231306040518263ffffffff1660e01b8152600401612f159190615e99565b60206040518083038186803b158015612f2d57600080fd5b505afa158015612f41573d6000803e3d6000fd5b505050506040513d601f19601f82011682018060405250612f659190810190615688565b90506000600760009054906101000a900473ffffffffffffffffffffffffffffffffffffffff1673ffffffffffffffffffffffffffffffffffffffff166370a08231306040518263ffffffff1660e01b8152600401612fc49190615e99565b60206040518083038186803b158015612fdc57600080fd5b505afa158015612ff0573d6000803e3d6000fd5b505050506040513d601f19601f820116820180604052506130149190810190615688565b90506000600960009054906101000a900473ffffffffffffffffffffffffffffffffffffffff1673ffffffffffffffffffffffffffffffffffffffff166370a08231306040518263ffffffff1660e01b81526004016130739190615e99565b60206040518083038186803b15801561308b57600080fd5b505afa15801561309f573d6000803e3d6000fd5b505050506040513d601f19601f820116820180604052506130c39190810190615688565b905060008411806130d45750600083115b806130df5750600082115b806130ea5750600081115b613129576040517f08c379a0000000000000000000000000000000000000000000000000000000008152600401613120906162d6565b60405180910390fd5b60008311156132b657600a60009054906101000a900473ffffffffffffffffffffffffffffffffffffffff1673ffffffffffffffffffffffffffffffffffffffff16633df02124600160008660006040518563ffffffff1660e01b81526004016131969493929190616027565b600060405180830381600087803b1580156131b057600080fd5b505af11580156131c4573d6000803e3d6000fd5b505050506000600560009054906101000a900473ffffffffffffffffffffffffffffffffffffffff1673ffffffffffffffffffffffffffffffffffffffff166370a08231306040518263ffffffff1660e01b81526004016132259190615e99565b60206040518083038186803b15801561323d57600080fd5b505afa158015613251573d6000803e3d6000fd5b505050506040513d601f19601f820116820180604052506132759190810190615688565b146132b5576040517f08c379a00000000000000000000000000000000000000000000000000000000081526004016132ac90616396565b60405180910390fd5b5b600082111561344357600a60009054906101000a900473ffffffffffffffffffffffffffffffffffffffff1673ffffffffffffffffffffffffffffffffffffffff16633df02124600260008560006040518563ffffffff1660e01b815260040161332394939291906160f6565b600060405180830381600087803b15801561333d57600080fd5b505af1158015613351573d6000803e3d6000fd5b505050506000600760009054906101000a900473ffffffffffffffffffffffffffffffffffffffff1673ffffffffffffffffffffffffffffffffffffffff166370a08231306040518263ffffffff1660e01b81526004016133b29190615e99565b60206040518083038186803b1580156133ca57600080fd5b505afa1580156133de573d6000803e3d6000fd5b505050506040513d601f19601f820116820180604052506134029190810190615688565b14613442576040517f08c379a000000000000000000000000000000000000000000000000000000000815260040161343990616376565b60405180910390fd5b5b60008111156135d057600a60009054906101000a900473ffffffffffffffffffffffffffffffffffffffff1673ffffffffffffffffffffffffffffffffffffffff16633df02124600360008460006040518563ffffffff1660e01b81526004016134b094939291906161c5565b600060405180830381600087803b1580156134ca57600080fd5b505af11580156134de573d6000803e3d6000fd5b505050506000600960009054906101000a900473ffffffffffffffffffffffffffffffffffffffff1673ffffffffffffffffffffffffffffffffffffffff166370a08231306040518263ffffffff1660e01b815260040161353f9190615e99565b60206040518083038186803b15801561355757600080fd5b505afa15801561356b573d6000803e3d6000fd5b505050506040513d601f19601f8201168201806040525061358f9190810190615688565b146135cf576040517f08c379a00000000000000000000000000000000000000000000000000000000081526004016135c6906163b6565b60405180910390fd5b5b600360009054906101000a900473ffffffffffffffffffffffffffffffffffffffff1673ffffffffffffffffffffffffffffffffffffffff16632e1a7d4d600360009054906101000a900473ffffffffffffffffffffffffffffffffffffffff1673ffffffffffffffffffffffffffffffffffffffff166370a08231306040518263ffffffff1660e01b81526004016136699190615e99565b60206040518083038186803b15801561368157600080fd5b505afa158015613695573d6000803e3d6000fd5b505050506040513d601f19601f820116820180604052506136b99190810190615688565b6040518263ffffffff1660e01b81526004016136d59190616576565b600060405180830381600087803b1580156136ef57600080fd5b505af1158015613703573d6000803e3d6000fd5b505050506000600360009054906101000a900473ffffffffffffffffffffffffffffffffffffffff1673ffffffffffffffffffffffffffffffffffffffff166370a08231306040518263ffffffff1660e01b81526004016137649190615e99565b60206040518083038186803b15801561377c57600080fd5b505afa158015613790573d6000803e3d6000fd5b505050506040513d601f19601f820116820180604052506137b49190810190615688565b146137f4576040517f08c379a00000000000000000000000000000000000000000000000000000000081526004016137eb90616516565b60405180910390fd5b6000600260009054906101000a900473ffffffffffffffffffffffffffffffffffffffff1673ffffffffffffffffffffffffffffffffffffffff166370a08231306040518263ffffffff1660e01b81526004016138519190615e99565b60206040518083038186803b15801561386957600080fd5b505afa15801561387d573d6000803e3d6000fd5b505050506040513d601f19601f820116820180604052506138a19190810190615688565b905060006138cc60646138be60058b614efa90919063ffffffff16565b614f6a90919063ffffffff16565b905060006138e3828a614fb490919063ffffffff16565b905060006138fa838b614ffe90919063ffffffff16565b905080841115801561390c5750818410155b61394b576040517f08c379a0000000000000000000000000000000000000000000000000000000008152600401613942906164b6565b60405180910390fd5b613a4233600260009054906101000a900473ffffffffffffffffffffffffffffffffffffffff1673ffffffffffffffffffffffffffffffffffffffff166370a08231306040518263ffffffff1660e01b81526004016139aa9190615e99565b60206040518083038186803b1580156139c257600080fd5b505afa1580156139d6573d6000803e3d6000fd5b505050506040513d601f19601f820116820180604052506139fa9190810190615688565b600260009054906101000a900473ffffffffffffffffffffffffffffffffffffffff1673ffffffffffffffffffffffffffffffffffffffff16614db99092919063ffffffff16565b6000600260009054906101000a900473ffffffffffffffffffffffffffffffffffffffff1673ffffffffffffffffffffffffffffffffffffffff166370a08231306040518263ffffffff1660e01b8152600401613a9f9190615e99565b60206040518083038186803b158015613ab757600080fd5b505afa158015613acb573d6000803e3d6000fd5b505050506040513d601f19601f82011682018060405250613aef9190810190615688565b14613b2f576040517f08c379a0000000000000000000000000000000000000000000000000000000008152600401613b26906162b6565b60405180910390fd5b50505050505050506000548114613b7b576040517f08c379a0000000000000000000000000000000000000000000000000000000008152600401613b72906164f6565b60405180910390fd5b5050565b600660009054906101000a900473ffffffffffffffffffffffffffffffffffffffff1681565b6001600080828254019250508190555060008054905060008211613bfe576040517f08c379a0000000000000000000000000000000000000000000000000000000008152600401613bf590616496565b60405180910390fd5b613c4d333084600b60009054906101000a900473ffffffffffffffffffffffffffffffffffffffff1673ffffffffffffffffffffffffffffffffffffffff16614e58909392919063ffffffff16565b600a60009054906101000a900473ffffffffffffffffffffffffffffffffffffffff1673ffffffffffffffffffffffffffffffffffffffff16637d49d875600b60009054906101000a900473ffffffffffffffffffffffffffffffffffffffff1673ffffffffffffffffffffffffffffffffffffffff166370a08231306040518263ffffffff1660e01b8152600401613ce69190615e99565b60206040518083038186803b158015613cfe57600080fd5b505afa158015613d12573d6000803e3d6000fd5b505050506040513d601f19601f82011682018060405250613d369190810190615688565b604051806080016040528060008152602001600081526020016000815260200160008152506040518363ffffffff1660e01b8152600401613d78929190616591565b600060405180830381600087803b158015613d9257600080fd5b505af1158015613da6573d6000803e3d6000fd5b505050506000600b60009054906101000a900473ffffffffffffffffffffffffffffffffffffffff1673ffffffffffffffffffffffffffffffffffffffff166370a08231306040518263ffffffff1660e01b8152600401613e079190615e99565b60206040518083038186803b158015613e1f57600080fd5b505afa158015613e33573d6000803e3d6000fd5b505050506040513d601f19601f82011682018060405250613e579190810190615688565b14613e97576040517f08c379a0000000000000000000000000000000000000000000000000000000008152600401613e8e906163f6565b60405180910390fd5b6000600360009054906101000a900473ffffffffffffffffffffffffffffffffffffffff1673ffffffffffffffffffffffffffffffffffffffff166370a08231306040518263ffffffff1660e01b8152600401613ef49190615e99565b60206040518083038186803b158015613f0c57600080fd5b505afa158015613f20573d6000803e3d6000fd5b505050506040513d601f19601f82011682018060405250613f449190810190615688565b90506000600560009054906101000a900473ffffffffffffffffffffffffffffffffffffffff1673ffffffffffffffffffffffffffffffffffffffff166370a08231306040518263ffffffff1660e01b8152600401613fa39190615e99565b60206040518083038186803b158015613fbb57600080fd5b505afa158015613fcf573d6000803e3d6000fd5b505050506040513d601f19601f82011682018060405250613ff39190810190615688565b90506000600760009054906101000a900473ffffffffffffffffffffffffffffffffffffffff1673ffffffffffffffffffffffffffffffffffffffff166370a08231306040518263ffffffff1660e01b81526004016140529190615e99565b60206040518083038186803b15801561406a57600080fd5b505afa15801561407e573d6000803e3d6000fd5b505050506040513d601f19601f820116820180604052506140a29190810190615688565b90506000600960009054906101000a900473ffffffffffffffffffffffffffffffffffffffff1673ffffffffffffffffffffffffffffffffffffffff166370a08231306040518263ffffffff1660e01b81526004016141019190615e99565b60206040518083038186803b15801561411957600080fd5b505afa15801561412d573d6000803e3d6000fd5b505050506040513d601f19601f820116820180604052506141519190810190615688565b905060008411806141625750600083115b8061416d5750600082115b806141785750600081115b6141b7576040517f08c379a00000000000000000000000000000000000000000000000000000000081526004016141ae906162d6565b60405180910390fd5b600084111561434457600a60009054906101000a900473ffffffffffffffffffffffffffffffffffffffff1673ffffffffffffffffffffffffffffffffffffffff16633df02124600060018760006040518563ffffffff1660e01b81526004016142249493929190615f58565b600060405180830381600087803b15801561423e57600080fd5b505af1158015614252573d6000803e3d6000fd5b505050506000600360009054906101000a900473ffffffffffffffffffffffffffffffffffffffff1673ffffffffffffffffffffffffffffffffffffffff166370a08231306040518263ffffffff1660e01b81526004016142b39190615e99565b60206040518083038186803b1580156142cb57600080fd5b505afa1580156142df573d6000803e3d6000fd5b505050506040513d601f19601f820116820180604052506143039190810190615688565b14614343576040517f08c379a000000000000000000000000000000000000000000000000000000000815260040161433a90616516565b60405180910390fd5b5b60008211156144d157600a60009054906101000a900473ffffffffffffffffffffffffffffffffffffffff1673ffffffffffffffffffffffffffffffffffffffff16633df02124600260018560006040518563ffffffff1660e01b81526004016143b1949392919061613b565b600060405180830381600087803b1580156143cb57600080fd5b505af11580156143df573d6000803e3d6000fd5b505050506000600760009054906101000a900473ffffffffffffffffffffffffffffffffffffffff1673ffffffffffffffffffffffffffffffffffffffff166370a08231306040518263ffffffff1660e01b81526004016144409190615e99565b60206040518083038186803b15801561445857600080fd5b505afa15801561446c573d6000803e3d6000fd5b505050506040513d601f19601f820116820180604052506144909190810190615688565b146144d0576040517f08c379a00000000000000000000000000000000000000000000000000000000081526004016144c790616376565b60405180910390fd5b5b600081111561465e57600a60009054906101000a900473ffffffffffffffffffffffffffffffffffffffff1673ffffffffffffffffffffffffffffffffffffffff16633df02124600360018460006040518563ffffffff1660e01b815260040161453e949392919061620a565b600060405180830381600087803b15801561455857600080fd5b505af115801561456c573d6000803e3d6000fd5b505050506000600960009054906101000a900473ffffffffffffffffffffffffffffffffffffffff1673ffffffffffffffffffffffffffffffffffffffff166370a08231306040518263ffffffff1660e01b81526004016145cd9190615e99565b60206040518083038186803b1580156145e557600080fd5b505afa1580156145f9573d6000803e3d6000fd5b505050506040513d601f19601f8201168201806040525061461d9190810190615688565b1461465d576040517f08c379a0000000000000000000000000000000000000000000000000000000008152600401614654906163b6565b60405180910390fd5b5b600560009054906101000a900473ffffffffffffffffffffffffffffffffffffffff1673ffffffffffffffffffffffffffffffffffffffff16632e1a7d4d600560009054906101000a900473ffffffffffffffffffffffffffffffffffffffff1673ffffffffffffffffffffffffffffffffffffffff166370a08231306040518263ffffffff1660e01b81526004016146f79190615e99565b60206040518083038186803b15801561470f57600080fd5b505afa158015614723573d6000803e3d6000fd5b505050506040513d601f19601f820116820180604052506147479190810190615688565b6040518263ffffffff1660e01b81526004016147639190616576565b600060405180830381600087803b15801561477d57600080fd5b505af1158015614791573d6000803e3d6000fd5b505050506000600560009054906101000a900473ffffffffffffffffffffffffffffffffffffffff1673ffffffffffffffffffffffffffffffffffffffff166370a08231306040518263ffffffff1660e01b81526004016147f29190615e99565b60206040518083038186803b15801561480a57600080fd5b505afa15801561481e573d6000803e3d6000fd5b505050506040513d601f19601f820116820180604052506148429190810190615688565b14614882576040517f08c379a000000000000000000000000000000000000000000000000000000000815260040161487990616396565b60405180910390fd5b6000600460009054906101000a900473ffffffffffffffffffffffffffffffffffffffff1673ffffffffffffffffffffffffffffffffffffffff166370a08231306040518263ffffffff1660e01b81526004016148df9190615e99565b60206040518083038186803b1580156148f757600080fd5b505afa15801561490b573d6000803e3d6000fd5b505050506040513d601f19601f8201168201806040525061492f9190810190615688565b9050600061495a606461494c60058b614efa90919063ffffffff16565b614f6a90919063ffffffff16565b90506000614971828a614fb490919063ffffffff16565b90506000614988838b614ffe90919063ffffffff16565b905080841115801561499a5750818410155b6149d9576040517f08c379a00000000000000000000000000000000000000000000000000000000081526004016149d0906164b6565b60405180910390fd5b614ad033600460009054906101000a900473ffffffffffffffffffffffffffffffffffffffff1673ffffffffffffffffffffffffffffffffffffffff166370a08231306040518263ffffffff1660e01b8152600401614a389190615e99565b60206040518083038186803b158015614a5057600080fd5b505afa158015614a64573d6000803e3d6000fd5b505050506040513d601f19601f82011682018060405250614a889190810190615688565b600460009054906101000a900473ffffffffffffffffffffffffffffffffffffffff1673ffffffffffffffffffffffffffffffffffffffff16614db99092919063ffffffff16565b6000600460009054906101000a900473ffffffffffffffffffffffffffffffffffffffff1673ffffffffffffffffffffffffffffffffffffffff166370a08231306040518263ffffffff1660e01b8152600401614b2d9190615e99565b60206040518083038186803b158015614b4557600080fd5b505afa158015614b59573d6000803e3d6000fd5b505050506040513d601f19601f82011682018060405250614b7d9190810190615688565b14614bbd576040517f08c379a0000000000000000000000000000000000000000000000000000000008152600401614bb490616476565b60405180910390fd5b50505050505050506000548114614c09576040517f08c379a0000000000000000000000000000000000000000000000000000000008152600401614c00906164f6565b60405180910390fd5b5050565b600260009054906101000a900473ffffffffffffffffffffffffffffffffffffffff1681565b600960009054906101000a900473ffffffffffffffffffffffffffffffffffffffff1681565b614c6161287a565b614ca0576040517f08c379a0000000000000000000000000000000000000000000000000000000008152600401614c9790616456565b60405180910390fd5b614ca9816151d2565b50565b614cb461287a565b614cf3576040517f08c379a0000000000000000000000000000000000000000000000000000000008152600401614cea90616456565b60405180910390fd5b60003373ffffffffffffffffffffffffffffffffffffffff163073ffffffffffffffffffffffffffffffffffffffff1631604051614d3090615e69565b60006040518083038185875af1925050503d8060008114614d6d576040519150601f19603f3d011682016040523d82523d6000602084013e614d72565b606091505b5050905080614db6576040517f08c379a0000000000000000000000000000000000000000000000000000000008152600401614dad906163d6565b60405180910390fd5b50565b614e53838473ffffffffffffffffffffffffffffffffffffffff1663a9059cbb905060e01b8484604051602401614df1929190615f14565b604051602081830303815290604052907bffffffffffffffffffffffffffffffffffffffffffffffffffffffff19166020820180517bffffffffffffffffffffffffffffffffffffffffffffffffffffffff8381831617835250505050615302565b505050565b614ef4848573ffffffffffffffffffffffffffffffffffffffff166323b872dd905060e01b858585604051602401614e9293929190615edd565b604051602081830303815290604052907bffffffffffffffffffffffffffffffffffffffffffffffffffffffff19166020820180517bffffffffffffffffffffffffffffffffffffffffffffffffffffffff8381831617835250505050615302565b50505050565b600080831415614f0d5760009050614f64565b6000828402905082848281614f1e57fe5b0414614f5f576040517f08c379a0000000000000000000000000000000000000000000000000000000008152600401614f5690616436565b60405180910390fd5b809150505b92915050565b6000614fac83836040518060400160405280601a81526020017f536166654d6174683a206469766973696f6e206279207a65726f000000000000815250615474565b905092915050565b6000614ff683836040518060400160405280601e81526020017f536166654d6174683a207375627472616374696f6e206f766572666c6f7700008152506154d5565b905092915050565b600080828401905083811015615049576040517f08c379a000000000000000000000000000000000000000000000000000000000815260040161504090616336565b60405180910390fd5b8091505092915050565b600033905090565b60008114806150f4575060008373ffffffffffffffffffffffffffffffffffffffff1663dd62ed3e30856040518363ffffffff1660e01b81526004016150a2929190615eb4565b60206040518083038186803b1580156150ba57600080fd5b505afa1580156150ce573d6000803e3d6000fd5b505050506040513d601f19601f820116820180604052506150f29190810190615688565b145b615133576040517f08c379a000000000000000000000000000000000000000000000000000000000815260040161512a90616536565b60405180910390fd5b6151cd838473ffffffffffffffffffffffffffffffffffffffff1663095ea7b3905060e01b848460405160240161516b929190615f14565b604051602081830303815290604052907bffffffffffffffffffffffffffffffffffffffffffffffffffffffff19166020820180517bffffffffffffffffffffffffffffffffffffffffffffffffffffffff8381831617835250505050615302565b505050565b600073ffffffffffffffffffffffffffffffffffffffff168173ffffffffffffffffffffffffffffffffffffffff161415615242576040517f08c379a0000000000000000000000000000000000000000000000000000000008152600401615239906162f6565b60405180910390fd5b8073ffffffffffffffffffffffffffffffffffffffff16600160009054906101000a900473ffffffffffffffffffffffffffffffffffffffff1673ffffffffffffffffffffffffffffffffffffffff167f8be0079c531659141344cd1fd0a4f28419497f9722a3daafe3b4186f6b6457e060405160405180910390a380600160006101000a81548173ffffffffffffffffffffffffffffffffffffffff021916908373ffffffffffffffffffffffffffffffffffffffff16021790555050565b6153218273ffffffffffffffffffffffffffffffffffffffff16615530565b615360576040517f08c379a000000000000000000000000000000000000000000000000000000000815260040161535790616556565b60405180910390fd5b600060608373ffffffffffffffffffffffffffffffffffffffff16836040516153899190615e52565b6000604051808303816000865af19150503d80600081146153c6576040519150601f19603f3d011682016040523d82523d6000602084013e6153cb565b606091505b509150915081615410576040517f08c379a000000000000000000000000000000000000000000000000000000000815260040161540790616356565b60405180910390fd5b60008151111561546e578080602001905161542e919081019061560d565b61546d576040517f08c379a0000000000000000000000000000000000000000000000000000000008152600401615464906164d6565b60405180910390fd5b5b50505050565b600080831182906154bb576040517f08c379a00000000000000000000000000000000000000000000000000000000081526004016154b29190616294565b60405180910390fd5b5060008385816154c757fe5b049050809150509392505050565b600083831115829061551d576040517f08c379a00000000000000000000000000000000000000000000000000000000081526004016155149190616294565b60405180910390fd5b5060008385039050809150509392505050565b60008060007fc5d2460186f7233c927e7db2dcc703c0e500b653ca82273b7bfad8045d85a47060001b9050833f91506000801b82141580156155725750808214155b92505050919050565b60008135905061558a81616754565b92915050565b60008151905061559f8161676b565b92915050565b6000813590506155b481616782565b92915050565b6000813590506155c981616799565b92915050565b6000815190506155de81616799565b92915050565b6000602082840312156155f657600080fd5b60006156048482850161557b565b91505092915050565b60006020828403121561561f57600080fd5b600061562d84828501615590565b91505092915050565b60006020828403121561564857600080fd5b6000615656848285016155a5565b91505092915050565b60006020828403121561567157600080fd5b600061567f848285016155ba565b91505092915050565b60006020828403121561569a57600080fd5b60006156a8848285016155cf565b91505092915050565b60006156bd8383615e34565b60208301905092915050565b6156d281616680565b82525050565b6156e181616619565b82525050565b6156f0816165c4565b6156fa81846165f2565b9250615705826165ba565b8060005b8381101561573657815161571d87826156b1565b9650615728836165e5565b925050600181019050615709565b505050505050565b6157478161662b565b82525050565b6000615758826165cf565b61576281856165fd565b9350615772818560208601616710565b80840191505092915050565b61578781616692565b82525050565b615796816166a4565b82525050565b6157a5816166b6565b82525050565b6157b4816166c8565b82525050565b6157c3816166da565b82525050565b60006157d4826165da565b6157de8185616608565b93506157ee818560208601616710565b6157f781616743565b840191505092915050565b600061580f600d83616608565b91507f4441492072656d61696e646572000000000000000000000000000000000000006000830152602082019050919050565b600061584f601183616608565b91507f6e6f20792e746f6b656e7320666f756e640000000000000000000000000000006000830152602082019050919050565b600061588f602683616608565b91507f4f776e61626c653a206e6577206f776e657220697320746865207a65726f206160008301527f64647265737300000000000000000000000000000000000000000000000000006020830152604082019050919050565b60006158f5600e83616608565b91507f555344542072656d61696e6465720000000000000000000000000000000000006000830152602082019050919050565b6000615935601b83616608565b91507f536166654d6174683a206164646974696f6e206f766572666c6f7700000000006000830152602082019050919050565b6000615975602083616608565b91507f5361666545524332303a206c6f772d6c6576656c2063616c6c206661696c65646000830152602082019050919050565b60006159b5601083616608565b91507f792e555344542072656d61696e646572000000000000000000000000000000006000830152602082019050919050565b60006159f5601083616608565b91507f792e555344432072656d61696e646572000000000000000000000000000000006000830152602082019050919050565b6000615a35601083616608565b91507f792e545553442072656d61696e646572000000000000000000000000000000006000830152602082019050919050565b6000615a75601683616608565b91507f7472616e73666572206f6620455448206661696c6564000000000000000000006000830152602082019050919050565b6000615ab5600f83616608565b91507f43555256452072656d61696e64657200000000000000000000000000000000006000830152602082019050919050565b6000615af5600e83616608565b91507f545553442072656d61696e6465720000000000000000000000000000000000006000830152602082019050919050565b6000615b35602183616608565b91507f536166654d6174683a206d756c7469706c69636174696f6e206f766572666c6f60008301527f77000000000000000000000000000000000000000000000000000000000000006020830152604082019050919050565b6000615b9b602083616608565b91507f4f776e61626c653a2063616c6c6572206973206e6f7420746865206f776e65726000830152602082019050919050565b6000615bdb600e83616608565b91507f555344432072656d61696e6465720000000000000000000000000000000000006000830152602082019050919050565b6000615c1b6000836165fd565b9150600082019050919050565b6000615c35601e83616608565b91507f6465706f736974206d7573742062652067726561746572207468616e203000006000830152602082019050919050565b6000615c75601883616608565b91507f736c6970706167652067726561746572207468616e20352500000000000000006000830152602082019050919050565b6000615cb5602a83616608565b91507f5361666545524332303a204552433230206f7065726174696f6e20646964206e60008301527f6f742073756363656564000000000000000000000000000000000000000000006020830152604082019050919050565b6000615d1b601f83616608565b91507f5265656e7472616e637947756172643a207265656e7472616e742063616c6c006000830152602082019050919050565b6000615d5b600f83616608565b91507f792e4441492072656d61696e64657200000000000000000000000000000000006000830152602082019050919050565b6000615d9b603683616608565b91507f5361666545524332303a20617070726f76652066726f6d206e6f6e2d7a65726f60008301527f20746f206e6f6e2d7a65726f20616c6c6f77616e6365000000000000000000006020830152604082019050919050565b6000615e01601f83616608565b91507f5361666545524332303a2063616c6c20746f206e6f6e2d636f6e7472616374006000830152602082019050919050565b615e3d81616676565b82525050565b615e4c81616676565b82525050565b6000615e5e828461574d565b915081905092915050565b6000615e7482615c0e565b9150819050919050565b6000602082019050615e9360008301846156d8565b92915050565b6000602082019050615eae60008301846156c9565b92915050565b6000604082019050615ec960008301856156d8565b615ed660208301846156d8565b9392505050565b6000606082019050615ef260008301866156d8565b615eff60208301856156d8565b615f0c6040830184615e43565b949350505050565b6000604082019050615f2960008301856156d8565b615f366020830184615e43565b9392505050565b6000602082019050615f52600083018461573e565b92915050565b6000608082019050615f6d600083018761577e565b615f7a602083018661579c565b615f876040830185615e43565b615f94606083018461578d565b95945050505050565b6000608082019050615fb2600083018761577e565b615fbf60208301866157ab565b615fcc6040830185615e43565b615fd9606083018461578d565b95945050505050565b6000608082019050615ff7600083018761577e565b61600460208301866157ba565b6160116040830185615e43565b61601e606083018461578d565b95945050505050565b600060808201905061603c600083018761579c565b616049602083018661577e565b6160566040830185615e43565b616063606083018461578d565b95945050505050565b6000608082019050616081600083018761579c565b61608e60208301866157ab565b61609b6040830185615e43565b6160a8606083018461578d565b95945050505050565b60006080820190506160c6600083018761579c565b6160d360208301866157ba565b6160e06040830185615e43565b6160ed606083018461578d565b95945050505050565b600060808201905061610b60008301876157ab565b616118602083018661577e565b6161256040830185615e43565b616132606083018461578d565b95945050505050565b600060808201905061615060008301876157ab565b61615d602083018661579c565b61616a6040830185615e43565b616177606083018461578d565b95945050505050565b600060808201905061619560008301876157ab565b6161a260208301866157ba565b6161af6040830185615e43565b6161bc606083018461578d565b95945050505050565b60006080820190506161da60008301876157ba565b6161e7602083018661577e565b6161f46040830185615e43565b616201606083018461578d565b95945050505050565b600060808201905061621f60008301876157ba565b61622c602083018661579c565b6162396040830185615e43565b616246606083018461578d565b95945050505050565b600060808201905061626460008301876157ba565b61627160208301866157ab565b61627e6040830185615e43565b61628b606083018461578d565b95945050505050565b600060208201905081810360008301526162ae81846157c9565b905092915050565b600060208201905081810360008301526162cf81615802565b9050919050565b600060208201905081810360008301526162ef81615842565b9050919050565b6000602082019050818103600083015261630f81615882565b9050919050565b6000602082019050818103600083015261632f816158e8565b9050919050565b6000602082019050818103600083015261634f81615928565b9050919050565b6000602082019050818103600083015261636f81615968565b9050919050565b6000602082019050818103600083015261638f816159a8565b9050919050565b600060208201905081810360008301526163af816159e8565b9050919050565b600060208201905081810360008301526163cf81615a28565b9050919050565b600060208201905081810360008301526163ef81615a68565b9050919050565b6000602082019050818103600083015261640f81615aa8565b9050919050565b6000602082019050818103600083015261642f81615ae8565b9050919050565b6000602082019050818103600083015261644f81615b28565b9050919050565b6000602082019050818103600083015261646f81615b8e565b9050919050565b6000602082019050818103600083015261648f81615bce565b9050919050565b600060208201905081810360008301526164af81615c28565b9050919050565b600060208201905081810360008301526164cf81615c68565b9050919050565b600060208201905081810360008301526164ef81615ca8565b9050919050565b6000602082019050818103600083015261650f81615d0e565b9050919050565b6000602082019050818103600083015261652f81615d4e565b9050919050565b6000602082019050818103600083015261654f81615d8e565b9050919050565b6000602082019050818103600083015261656f81615df4565b9050919050565b600060208201905061658b6000830184615e43565b92915050565b600060a0820190506165a66000830185615e43565b6165b360208301846156e7565b9392505050565b6000819050919050565b600060049050919050565b600081519050919050565b600081519050919050565b6000602082019050919050565b600081905092915050565b600081905092915050565b600082825260208201905092915050565b600061662482616656565b9050919050565b60008115159050919050565b600061664282616619565b9050919050565b600081600f0b9050919050565b600073ffffffffffffffffffffffffffffffffffffffff82169050919050565b6000819050919050565b600061668b826166ec565b9050919050565b600061669d82616649565b9050919050565b60006166af82616676565b9050919050565b60006166c182616649565b9050919050565b60006166d382616649565b9050919050565b60006166e582616649565b9050919050565b60006166f7826166fe565b9050919050565b600061670982616656565b9050919050565b60005b8381101561672e578082015181840152602081019050616713565b8381111561673d576000848401525b50505050565b6000601f19601f8301169050919050565b61675d81616619565b811461676857600080fd5b50565b6167748161662b565b811461677f57600080fd5b50565b61678b81616637565b811461679657600080fd5b50565b6167a281616676565b81146167ad57600080fd5b5056fea365627a7a723158207b7a900c2a7ed03d535052d627e59c08258363fd5da912d2cebefd5cc12cc37d6c6578706572696d656e74616cf564736f6c634300050c0040",
  "source": "pragma solidity ^0.5.0;\r\npragma experimental ABIEncoderV2;\r\n\r\ninterface IERC20 {\r\n    function totalSupply() external view returns (uint256);\r\n    function balanceOf(address account) external view returns (uint256);\r\n    function transfer(address recipient, uint256 amount) external returns (bool);\r\n    function allowance(address owner, address spender) external view returns (uint256);\r\n    function approve(address spender, uint256 amount) external returns (bool);\r\n    function transferFrom(address sender, address recipient, uint256 amount) external returns (bool);\r\n    event Transfer(address indexed from, address indexed to, uint256 value);\r\n    event Approval(address indexed owner, address indexed spender, uint256 value);\r\n}\r\n\r\ncontract Context {\r\n    constructor () internal { }\r\n    // solhint-disable-previous-line no-empty-blocks\r\n\r\n    function _msgSender() internal view returns (address payable) {\r\n        return msg.sender;\r\n    }\r\n\r\n    function _msgData() internal view returns (bytes memory) {\r\n        this; // silence state mutability warning without generating bytecode - see https://github.com/ethereum/solidity/issues/2691\r\n        return msg.data;\r\n    }\r\n}\r\n\r\ncontract ReentrancyGuard {\r\n    uint256 private _guardCounter;\r\n\r\n    constructor () internal {\r\n        _guardCounter = 1;\r\n    }\r\n\r\n    modifier nonReentrant() {\r\n        _guardCounter += 1;\r\n        uint256 localCounter = _guardCounter;\r\n        _;\r\n        require(localCounter == _guardCounter, \"ReentrancyGuard: reentrant call\");\r\n    }\r\n}\r\n\r\ncontract Ownable is Context {\r\n    address private _owner;\r\n\r\n    event OwnershipTransferred(address indexed previousOwner, address indexed newOwner);\r\n    constructor () internal {\r\n        _owner = _msgSender();\r\n        emit OwnershipTransferred(address(0), _owner);\r\n    }\r\n    function owner() public view returns (address) {\r\n        return _owner;\r\n    }\r\n    modifier onlyOwner() {\r\n        require(isOwner(), \"Ownable: caller is not the owner\");\r\n        _;\r\n    }\r\n    function isOwner() public view returns (bool) {\r\n        return _msgSender() == _owner;\r\n    }\r\n    function renounceOwnership() public onlyOwner {\r\n        emit OwnershipTransferred(_owner, address(0));\r\n        _owner = address(0);\r\n    }\r\n    function transferOwnership(address newOwner) public onlyOwner {\r\n        _transferOwnership(newOwner);\r\n    }\r\n    function _transferOwnership(address newOwner) internal {\r\n        require(newOwner != address(0), \"Ownable: new owner is the zero address\");\r\n        emit OwnershipTransferred(_owner, newOwner);\r\n        _owner = newOwner;\r\n    }\r\n}\r\n\r\nlibrary SafeMath {\r\n    function add(uint256 a, uint256 b) internal pure returns (uint256) {\r\n        uint256 c = a + b;\r\n        require(c >= a, \"SafeMath: addition overflow\");\r\n\r\n        return c;\r\n    }\r\n    function sub(uint256 a, uint256 b) internal pure returns (uint256) {\r\n        return sub(a, b, \"SafeMath: subtraction overflow\");\r\n    }\r\n    function sub(uint256 a, uint256 b, string memory errorMessage) internal pure returns (uint256) {\r\n        require(b <= a, errorMessage);\r\n        uint256 c = a - b;\r\n\r\n        return c;\r\n    }\r\n    function mul(uint256 a, uint256 b) internal pure returns (uint256) {\r\n        if (a == 0) {\r\n            return 0;\r\n        }\r\n\r\n        uint256 c = a * b;\r\n        require(c / a == b, \"SafeMath: multiplication overflow\");\r\n\r\n        return c;\r\n    }\r\n    function div(uint256 a, uint256 b) internal pure returns (uint256) {\r\n        return div(a, b, \"SafeMath: division by zero\");\r\n    }\r\n    function div(uint256 a, uint256 b, string memory errorMessage) internal pure returns (uint256) {\r\n        // Solidity only automatically asserts when dividing by 0\r\n        require(b > 0, errorMessage);\r\n        uint256 c = a / b;\r\n\r\n        return c;\r\n    }\r\n    function mod(uint256 a, uint256 b) internal pure returns (uint256) {\r\n        return mod(a, b, \"SafeMath: modulo by zero\");\r\n    }\r\n    function mod(uint256 a, uint256 b, string memory errorMessage) internal pure returns (uint256) {\r\n        require(b != 0, errorMessage);\r\n        return a % b;\r\n    }\r\n}\r\n\r\nlibrary Address {\r\n    function isContract(address account) internal view returns (bool) {\r\n        bytes32 codehash;\r\n        bytes32 accountHash = 0xc5d2460186f7233c927e7db2dcc703c0e500b653ca82273b7bfad8045d85a470;\r\n        // solhint-disable-next-line no-inline-assembly\r\n        assembly { codehash := extcodehash(account) }\r\n        return (codehash != 0x0 && codehash != accountHash);\r\n    }\r\n    function toPayable(address account) internal pure returns (address payable) {\r\n        return address(uint160(account));\r\n    }\r\n    function sendValue(address payable recipient, uint256 amount) internal {\r\n        require(address(this).balance >= amount, \"Address: insufficient balance\");\r\n\r\n        // solhint-disable-next-line avoid-call-value\r\n        (bool success, ) = recipient.call.value(amount)(\"\");\r\n        require(success, \"Address: unable to send value, recipient may have reverted\");\r\n    }\r\n}\r\n\r\nlibrary SafeERC20 {\r\n    using SafeMath for uint256;\r\n    using Address for address;\r\n\r\n    function safeTransfer(IERC20 token, address to, uint256 value) internal {\r\n        callOptionalReturn(token, abi.encodeWithSelector(token.transfer.selector, to, value));\r\n    }\r\n    function safeTransferFrom(IERC20 token, address from, address to, uint256 value) internal {\r\n        callOptionalReturn(token, abi.encodeWithSelector(token.transferFrom.selector, from, to, value));\r\n    }\r\n    function safeApprove(IERC20 token, address spender, uint256 value) internal {\r\n        require((value == 0) || (token.allowance(address(this), spender) == 0),\r\n            \"SafeERC20: approve from non-zero to non-zero allowance\"\r\n        );\r\n        callOptionalReturn(token, abi.encodeWithSelector(token.approve.selector, spender, value));\r\n    }\r\n    function callOptionalReturn(IERC20 token, bytes memory data) private {\r\n        require(address(token).isContract(), \"SafeERC20: call to non-contract\");\r\n\r\n        // solhint-disable-next-line avoid-low-level-calls\r\n        (bool success, bytes memory returndata) = address(token).call(data);\r\n        require(success, \"SafeERC20: low-level call failed\");\r\n\r\n        if (returndata.length > 0) { // Return data is optional\r\n            // solhint-disable-next-line max-line-length\r\n            require(abi.decode(returndata, (bool)), \"SafeERC20: ERC20 operation did not succeed\");\r\n        }\r\n    }\r\n}\r\n\r\ninterface yERC20 {\r\n  function withdraw(uint256 _amount) external;\r\n}\r\n\r\n// Solidity Interface\r\n\r\ninterface ICurveFi {\r\n\r\n  function remove_liquidity(\r\n    uint256 _amount,\r\n    uint256[4] calldata amounts\r\n  ) external;\r\n  function exchange(\r\n    int128 from, int128 to, uint256 _from_amount, uint256 _min_to_amount\r\n  ) external;\r\n}\r\n\r\ncontract yCurveZapOut is ReentrancyGuard, Ownable {\r\n  using SafeERC20 for IERC20;\r\n  using Address for address;\r\n  using SafeMath for uint256;\r\n\r\n  address public DAI;\r\n  address public yDAI;\r\n  address public USDC;\r\n  address public yUSDC;\r\n  address public USDT;\r\n  address public yUSDT;\r\n  address public TUSD;\r\n  address public yTUSD;\r\n  address public SWAP;\r\n  address public CURVE;\r\n\r\n  constructor () public {\r\n    DAI = address(0x6B175474E89094C44Da98b954EedeAC495271d0F);\r\n    yDAI = address(0x16de59092dAE5CcF4A1E6439D611fd0653f0Bd01);\r\n\r\n    USDC = address(0xA0b86991c6218b36c1d19D4a2e9Eb0cE3606eB48);\r\n    yUSDC = address(0xd6aD7a6750A7593E092a9B218d66C0A814a3436e);\r\n\r\n    USDT = address(0xdAC17F958D2ee523a2206206994597C13D831ec7);\r\n    yUSDT = address(0x83f798e925BcD4017Eb265844FDDAbb448f1707D);\r\n\r\n    TUSD = address(0x0000000000085d4780B73119b644AE5ecd22b376);\r\n    yTUSD = address(0x73a052500105205d34Daf004eAb301916DA8190f);\r\n\r\n    SWAP = address(0x45F783CCE6B7FF23B2ab2D70e416cdb7D6055f51);\r\n    CURVE = address(0xdF5e0e81Dff6FAF3A7e52BA697820c5e32D806A8);\r\n\r\n    approveToken();\r\n  }\r\n\r\n  function() external payable {\r\n\r\n  }\r\n\r\n  function approveToken() public {\r\n      IERC20(yDAI).safeApprove(SWAP, uint(-1));\r\n      IERC20(yUSDC).safeApprove(SWAP, uint(-1));\r\n      IERC20(yUSDT).safeApprove(SWAP, uint(-1));\r\n      IERC20(yTUSD).safeApprove(SWAP, uint(-1));\r\n  }\r\n\r\n  // 0 = dai\r\n  // 1 = usdc\r\n  // 2 = usdt\r\n  // 3 = tusd\r\n\r\n  function withdrawDAI(uint256 _amount)\r\n      external\r\n      nonReentrant\r\n  {\r\n      require(_amount > 0, \"deposit must be greater than 0\");\r\n      IERC20(CURVE).safeTransferFrom(msg.sender, address(this), _amount);\r\n\r\n      ICurveFi(SWAP).remove_liquidity(IERC20(CURVE).balanceOf(address(this)), [uint256(0),0,0,0]);\r\n      require(IERC20(CURVE).balanceOf(address(this)) == 0, \"CURVE remainder\");\r\n\r\n      uint256 _ydai = IERC20(yDAI).balanceOf(address(this));\r\n      uint256 _yusdc = IERC20(yUSDC).balanceOf(address(this));\r\n      uint256 _yusdt = IERC20(yUSDT).balanceOf(address(this));\r\n      uint256 _ytusd = IERC20(yTUSD).balanceOf(address(this));\r\n\r\n      require(_ydai > 0 || _yusdc > 0 || _yusdt > 0 || _ytusd > 0, \"no y.tokens found\");\r\n\r\n      if (_yusdc > 0) {\r\n        ICurveFi(SWAP).exchange(1, 0, _yusdc, 0);\r\n        require(IERC20(yUSDC).balanceOf(address(this)) == 0, \"y.USDC remainder\");\r\n      }\r\n      if (_yusdt > 0) {\r\n        ICurveFi(SWAP).exchange(2, 0, _yusdt, 0);\r\n        require(IERC20(yUSDT).balanceOf(address(this)) == 0, \"y.USDT remainder\");\r\n      }\r\n      if (_ytusd > 0) {\r\n        ICurveFi(SWAP).exchange(3, 0, _ytusd, 0);\r\n        require(IERC20(yTUSD).balanceOf(address(this)) == 0, \"y.TUSD remainder\");\r\n      }\r\n\r\n      yERC20(yDAI).withdraw(IERC20(yDAI).balanceOf(address(this)));\r\n      require(IERC20(yDAI).balanceOf(address(this)) == 0, \"y.DAI remainder\");\r\n\r\n      uint256 received = IERC20(DAI).balanceOf(address(this));\r\n      uint256 fivePercent = _amount.mul(5).div(100);\r\n      uint256 min = _amount.sub(fivePercent);\r\n      uint256 max = _amount.add(fivePercent);\r\n      require(received <= max && received >= min, \"slippage greater than 5%\");\r\n\r\n      IERC20(DAI).safeTransfer(msg.sender, IERC20(DAI).balanceOf(address(this)));\r\n      require(IERC20(DAI).balanceOf(address(this)) == 0, \"DAI remainder\");\r\n  }\r\n\r\n  function withdrawUSDC(uint256 _amount)\r\n      external\r\n      nonReentrant\r\n  {\r\n      require(_amount > 0, \"deposit must be greater than 0\");\r\n      IERC20(CURVE).safeTransferFrom(msg.sender, address(this), _amount);\r\n\r\n      ICurveFi(SWAP).remove_liquidity(IERC20(CURVE).balanceOf(address(this)), [uint256(0),0,0,0]);\r\n      require(IERC20(CURVE).balanceOf(address(this)) == 0, \"CURVE remainder\");\r\n\r\n      uint256 _ydai = IERC20(yDAI).balanceOf(address(this));\r\n      uint256 _yusdc = IERC20(yUSDC).balanceOf(address(this));\r\n      uint256 _yusdt = IERC20(yUSDT).balanceOf(address(this));\r\n      uint256 _ytusd = IERC20(yTUSD).balanceOf(address(this));\r\n\r\n      require(_ydai > 0 || _yusdc > 0 || _yusdt > 0 || _ytusd > 0, \"no y.tokens found\");\r\n\r\n      if (_ydai > 0) {\r\n        ICurveFi(SWAP).exchange(0, 1, _ydai, 0);\r\n        require(IERC20(yDAI).balanceOf(address(this)) == 0, \"y.DAI remainder\");\r\n      }\r\n      if (_yusdt > 0) {\r\n        ICurveFi(SWAP).exchange(2, 1, _yusdt, 0);\r\n        require(IERC20(yUSDT).balanceOf(address(this)) == 0, \"y.USDT remainder\");\r\n      }\r\n      if (_ytusd > 0) {\r\n        ICurveFi(SWAP).exchange(3, 1, _ytusd, 0);\r\n        require(IERC20(yTUSD).balanceOf(address(this)) == 0, \"y.TUSD remainder\");\r\n      }\r\n\r\n      yERC20(yUSDC).withdraw(IERC20(yUSDC).balanceOf(address(this)));\r\n      require(IERC20(yUSDC).balanceOf(address(this)) == 0, \"y.USDC remainder\");\r\n\r\n      uint256 received = IERC20(USDC).balanceOf(address(this));\r\n      uint256 fivePercent = _amount.mul(5).div(100);\r\n      uint256 min = _amount.sub(fivePercent);\r\n      uint256 max = _amount.add(fivePercent);\r\n      require(received <= max && received >= min, \"slippage greater than 5%\");\r\n\r\n      IERC20(USDC).safeTransfer(msg.sender, IERC20(USDC).balanceOf(address(this)));\r\n      require(IERC20(USDC).balanceOf(address(this)) == 0, \"USDC remainder\");\r\n  }\r\n\r\n  function withdrawUSDT(uint256 _amount)\r\n      external\r\n      nonReentrant\r\n  {\r\n      require(_amount > 0, \"deposit must be greater than 0\");\r\n      IERC20(CURVE).safeTransferFrom(msg.sender, address(this), _amount);\r\n\r\n      ICurveFi(SWAP).remove_liquidity(IERC20(CURVE).balanceOf(address(this)), [uint256(0),0,0,0]);\r\n      require(IERC20(CURVE).balanceOf(address(this)) == 0, \"CURVE remainder\");\r\n\r\n      uint256 _ydai = IERC20(yDAI).balanceOf(address(this));\r\n      uint256 _yusdc = IERC20(yUSDC).balanceOf(address(this));\r\n      uint256 _yusdt = IERC20(yUSDT).balanceOf(address(this));\r\n      uint256 _ytusd = IERC20(yTUSD).balanceOf(address(this));\r\n\r\n      require(_ydai > 0 || _yusdc > 0 || _yusdt > 0 || _ytusd > 0, \"no y.tokens found\");\r\n\r\n      if (_ydai > 0) {\r\n        ICurveFi(SWAP).exchange(0, 2, _ydai, 0);\r\n        require(IERC20(yDAI).balanceOf(address(this)) == 0, \"y.DAI remainder\");\r\n      }\r\n      if (_yusdc > 0) {\r\n        ICurveFi(SWAP).exchange(1, 2, _yusdc, 0);\r\n        require(IERC20(yUSDC).balanceOf(address(this)) == 0, \"y.USDC remainder\");\r\n      }\r\n      if (_ytusd > 0) {\r\n        ICurveFi(SWAP).exchange(3, 2, _ytusd, 0);\r\n        require(IERC20(yTUSD).balanceOf(address(this)) == 0, \"y.TUSD remainder\");\r\n      }\r\n\r\n      yERC20(yUSDT).withdraw(IERC20(yUSDT).balanceOf(address(this)));\r\n      require(IERC20(yUSDT).balanceOf(address(this)) == 0, \"y.USDT remainder\");\r\n\r\n      uint256 received = IERC20(USDT).balanceOf(address(this));\r\n      uint256 fivePercent = _amount.mul(5).div(100);\r\n      uint256 min = _amount.sub(fivePercent);\r\n      uint256 max = _amount.add(fivePercent);\r\n      require(received <= max && received >= min, \"slippage greater than 5%\");\r\n\r\n      IERC20(USDT).safeTransfer(msg.sender, IERC20(USDT).balanceOf(address(this)));\r\n      require(IERC20(USDT).balanceOf(address(this)) == 0, \"USDT remainder\");\r\n  }\r\n\r\n  function withdrawTUSD(uint256 _amount)\r\n      external\r\n      nonReentrant\r\n  {\r\n      require(_amount > 0, \"deposit must be greater than 0\");\r\n      IERC20(CURVE).safeTransferFrom(msg.sender, address(this), _amount);\r\n\r\n      ICurveFi(SWAP).remove_liquidity(IERC20(CURVE).balanceOf(address(this)), [uint256(0),0,0,0]);\r\n      require(IERC20(CURVE).balanceOf(address(this)) == 0, \"CURVE remainder\");\r\n\r\n      uint256 _ydai = IERC20(yDAI).balanceOf(address(this));\r\n      uint256 _yusdc = IERC20(yUSDC).balanceOf(address(this));\r\n      uint256 _yusdt = IERC20(yUSDT).balanceOf(address(this));\r\n      uint256 _ytusd = IERC20(yTUSD).balanceOf(address(this));\r\n\r\n      require(_ydai > 0 || _yusdc > 0 || _yusdt > 0 || _ytusd > 0, \"no y.tokens found\");\r\n\r\n      if (_ydai > 0) {\r\n        ICurveFi(SWAP).exchange(0, 3, _ydai, 0);\r\n        require(IERC20(yDAI).balanceOf(address(this)) == 0, \"y.DAI remainder\");\r\n      }\r\n      if (_yusdc > 0) {\r\n        ICurveFi(SWAP).exchange(1, 3, _yusdc, 0);\r\n        require(IERC20(yUSDC).balanceOf(address(this)) == 0, \"y.USDC remainder\");\r\n      }\r\n      if (_yusdt > 0) {\r\n        ICurveFi(SWAP).exchange(2, 3, _yusdt, 0);\r\n        require(IERC20(yUSDT).balanceOf(address(this)) == 0, \"y.USDT remainder\");\r\n      }\r\n\r\n      yERC20(yTUSD).withdraw(IERC20(yTUSD).balanceOf(address(this)));\r\n      require(IERC20(yTUSD).balanceOf(address(this)) == 0, \"y.TUSD remainder\");\r\n\r\n      uint256 received = IERC20(TUSD).balanceOf(address(this));\r\n      uint256 fivePercent = _amount.mul(5).div(100);\r\n      uint256 min = _amount.sub(fivePercent);\r\n      uint256 max = _amount.add(fivePercent);\r\n      require(received <= max && received >= min, \"slippage greater than 5%\");\r\n\r\n      IERC20(TUSD).safeTransfer(msg.sender, IERC20(TUSD).balanceOf(address(this)));\r\n      require(IERC20(TUSD).balanceOf(address(this)) == 0, \"TUSD remainder\");\r\n  }\r\n\r\n  // incase of half-way error\r\n  function inCaseTokenGetsStuck(IERC20 _TokenAddress) onlyOwner public {\r\n      uint qty = _TokenAddress.balanceOf(address(this));\r\n      _TokenAddress.safeTransfer(msg.sender, qty);\r\n  }\r\n\r\n  // incase of half-way error\r\n  function inCaseETHGetsStuck() onlyOwner public{\r\n      (bool result, ) = msg.sender.call.value(address(this).balance)(\"\");\r\n      require(result, \"transfer of ETH failed\");\r\n  }\r\n}\r\n",
  "sourcePath": "D:/ftm/itoken/contracts/yCurveZapOut.sol",
  "compiler": {
    "name": "solc",
    "version": "0.5.12+commit.7709ece9.Emscripten.clang"
  },
  "schemaVersion": "3.0.19",
  "updatedAt": "2020-03-02T05:08:17.451Z",
  "devdoc": {
    "methods": {}
  },
  "userdoc": {
    "methods": {}
  }
}