{
  "contractName": "yCurveZap",
  "abi": [
    {
      "inputs": [],
      "payable": false,
      "stateMutability": "nonpayable",
      "type": "constructor"
    },
    {
      "anonymous": false,
      "inputs": [
        {
          "indexed": true,
          "internalType": "address",
          "name": "previousOwner",
          "type": "address"
        },
        {
          "indexed": true,
          "internalType": "address",
          "name": "newOwner",
          "type": "address"
        }
      ],
      "name": "OwnershipTransferred",
      "type": "event"
    },
    {
      "payable": true,
      "stateMutability": "payable",
      "type": "fallback"
    },
    {
      "constant": true,
      "inputs": [],
      "name": "CURVE",
      "outputs": [
        {
          "internalType": "address",
          "name": "",
          "type": "address"
        }
      ],
      "payable": false,
      "stateMutability": "view",
      "type": "function"
    },
    {
      "constant": true,
      "inputs": [],
      "name": "DAI",
      "outputs": [
        {
          "internalType": "address",
          "name": "",
          "type": "address"
        }
      ],
      "payable": false,
      "stateMutability": "view",
      "type": "function"
    },
    {
      "constant": true,
      "inputs": [],
      "name": "SWAP",
      "outputs": [
        {
          "internalType": "address",
          "name": "",
          "type": "address"
        }
      ],
      "payable": false,
      "stateMutability": "view",
      "type": "function"
    },
    {
      "constant": true,
      "inputs": [],
      "name": "TUSD",
      "outputs": [
        {
          "internalType": "address",
          "name": "",
          "type": "address"
        }
      ],
      "payable": false,
      "stateMutability": "view",
      "type": "function"
    },
    {
      "constant": true,
      "inputs": [],
      "name": "USDC",
      "outputs": [
        {
          "internalType": "address",
          "name": "",
          "type": "address"
        }
      ],
      "payable": false,
      "stateMutability": "view",
      "type": "function"
    },
    {
      "constant": true,
      "inputs": [],
      "name": "USDT",
      "outputs": [
        {
          "internalType": "address",
          "name": "",
          "type": "address"
        }
      ],
      "payable": false,
      "stateMutability": "view",
      "type": "function"
    },
    {
      "constant": true,
      "inputs": [],
      "name": "isOwner",
      "outputs": [
        {
          "internalType": "bool",
          "name": "",
          "type": "bool"
        }
      ],
      "payable": false,
      "stateMutability": "view",
      "type": "function"
    },
    {
      "constant": true,
      "inputs": [],
      "name": "owner",
      "outputs": [
        {
          "internalType": "address",
          "name": "",
          "type": "address"
        }
      ],
      "payable": false,
      "stateMutability": "view",
      "type": "function"
    },
    {
      "constant": false,
      "inputs": [],
      "name": "renounceOwnership",
      "outputs": [],
      "payable": false,
      "stateMutability": "nonpayable",
      "type": "function"
    },
    {
      "constant": false,
      "inputs": [
        {
          "internalType": "address",
          "name": "newOwner",
          "type": "address"
        }
      ],
      "name": "transferOwnership",
      "outputs": [],
      "payable": false,
      "stateMutability": "nonpayable",
      "type": "function"
    },
    {
      "constant": true,
      "inputs": [],
      "name": "yDAI",
      "outputs": [
        {
          "internalType": "address",
          "name": "",
          "type": "address"
        }
      ],
      "payable": false,
      "stateMutability": "view",
      "type": "function"
    },
    {
      "constant": true,
      "inputs": [],
      "name": "yTUSD",
      "outputs": [
        {
          "internalType": "address",
          "name": "",
          "type": "address"
        }
      ],
      "payable": false,
      "stateMutability": "view",
      "type": "function"
    },
    {
      "constant": true,
      "inputs": [],
      "name": "yUSDC",
      "outputs": [
        {
          "internalType": "address",
          "name": "",
          "type": "address"
        }
      ],
      "payable": false,
      "stateMutability": "view",
      "type": "function"
    },
    {
      "constant": true,
      "inputs": [],
      "name": "yUSDT",
      "outputs": [
        {
          "internalType": "address",
          "name": "",
          "type": "address"
        }
      ],
      "payable": false,
      "stateMutability": "view",
      "type": "function"
    },
    {
      "constant": false,
      "inputs": [],
      "name": "approveToken",
      "outputs": [],
      "payable": false,
      "stateMutability": "nonpayable",
      "type": "function"
    },
    {
      "constant": false,
      "inputs": [
        {
          "internalType": "uint256",
          "name": "_amount",
          "type": "uint256"
        }
      ],
      "name": "depositDAI",
      "outputs": [],
      "payable": false,
      "stateMutability": "nonpayable",
      "type": "function"
    },
    {
      "constant": false,
      "inputs": [
        {
          "internalType": "uint256",
          "name": "_amount",
          "type": "uint256"
        }
      ],
      "name": "depositUSDC",
      "outputs": [],
      "payable": false,
      "stateMutability": "nonpayable",
      "type": "function"
    },
    {
      "constant": false,
      "inputs": [
        {
          "internalType": "uint256",
          "name": "_amount",
          "type": "uint256"
        }
      ],
      "name": "depositUSDT",
      "outputs": [],
      "payable": false,
      "stateMutability": "nonpayable",
      "type": "function"
    },
    {
      "constant": false,
      "inputs": [
        {
          "internalType": "uint256",
          "name": "_amount",
          "type": "uint256"
        }
      ],
      "name": "depositTUSD",
      "outputs": [],
      "payable": false,
      "stateMutability": "nonpayable",
      "type": "function"
    },
    {
      "constant": false,
      "inputs": [
        {
          "internalType": "uint256",
          "name": "_amount",
          "type": "uint256"
        }
      ],
      "name": "withdrawDAI",
      "outputs": [],
      "payable": false,
      "stateMutability": "nonpayable",
      "type": "function"
    },
    {
      "constant": false,
      "inputs": [
        {
          "internalType": "uint256",
          "name": "_amount",
          "type": "uint256"
        }
      ],
      "name": "withdrawUSDC",
      "outputs": [],
      "payable": false,
      "stateMutability": "nonpayable",
      "type": "function"
    },
    {
      "constant": false,
      "inputs": [
        {
          "internalType": "uint256",
          "name": "_amount",
          "type": "uint256"
        }
      ],
      "name": "withdrawUSDT",
      "outputs": [],
      "payable": false,
      "stateMutability": "nonpayable",
      "type": "function"
    },
    {
      "constant": false,
      "inputs": [
        {
          "internalType": "uint256",
          "name": "_amount",
          "type": "uint256"
        }
      ],
      "name": "withdrawTUSD",
      "outputs": [],
      "payable": false,
      "stateMutability": "nonpayable",
      "type": "function"
    },
    {
      "constant": false,
      "inputs": [
        {
          "internalType": "contract IERC20",
          "name": "_TokenAddress",
          "type": "address"
        }
      ],
      "name": "inCaseTokenGetsStuck",
      "outputs": [],
      "payable": false,
      "stateMutability": "nonpayable",
      "type": "function"
    },
    {
      "constant": false,
      "inputs": [],
      "name": "inCaseETHGetsStuck",
      "outputs": [],
      "payable": false,
      "stateMutability": "nonpayable",
      "type": "function"
    }
  ],
  "bytecode": "0x60806040523480156200001157600080fd5b5060016000819055506200002a6200044a60201b60201c565b600160006101000a81548173ffffffffffffffffffffffffffffffffffffffff021916908373ffffffffffffffffffffffffffffffffffffffff160217905550600160009054906101000a900473ffffffffffffffffffffffffffffffffffffffff1673ffffffffffffffffffffffffffffffffffffffff16600073ffffffffffffffffffffffffffffffffffffffff167f8be0079c531659141344cd1fd0a4f28419497f9722a3daafe3b4186f6b6457e060405160405180910390a3736b175474e89094c44da98b954eedeac495271d0f600260006101000a81548173ffffffffffffffffffffffffffffffffffffffff021916908373ffffffffffffffffffffffffffffffffffffffff1602179055507316de59092dae5ccf4a1e6439d611fd0653f0bd01600360006101000a81548173ffffffffffffffffffffffffffffffffffffffff021916908373ffffffffffffffffffffffffffffffffffffffff16021790555073a0b86991c6218b36c1d19d4a2e9eb0ce3606eb48600460006101000a81548173ffffffffffffffffffffffffffffffffffffffff021916908373ffffffffffffffffffffffffffffffffffffffff16021790555073d6ad7a6750a7593e092a9b218d66c0a814a3436e600560006101000a81548173ffffffffffffffffffffffffffffffffffffffff021916908373ffffffffffffffffffffffffffffffffffffffff16021790555073dac17f958d2ee523a2206206994597c13d831ec7600660006101000a81548173ffffffffffffffffffffffffffffffffffffffff021916908373ffffffffffffffffffffffffffffffffffffffff1602179055507383f798e925bcd4017eb265844fddabb448f1707d600760006101000a81548173ffffffffffffffffffffffffffffffffffffffff021916908373ffffffffffffffffffffffffffffffffffffffff1602179055506e085d4780b73119b644ae5ecd22b376600860006101000a81548173ffffffffffffffffffffffffffffffffffffffff021916908373ffffffffffffffffffffffffffffffffffffffff1602179055507373a052500105205d34daf004eab301916da8190f600960006101000a81548173ffffffffffffffffffffffffffffffffffffffff021916908373ffffffffffffffffffffffffffffffffffffffff1602179055507345f783cce6b7ff23b2ab2d70e416cdb7d6055f51600a60006101000a81548173ffffffffffffffffffffffffffffffffffffffff021916908373ffffffffffffffffffffffffffffffffffffffff16021790555073df5e0e81dff6faf3a7e52ba697820c5e32d806a8600b60006101000a81548173ffffffffffffffffffffffffffffffffffffffff021916908373ffffffffffffffffffffffffffffffffffffffff160217905550620004446200045260201b60201c565b62001073565b600033905090565b620004e8600360009054906101000a900473ffffffffffffffffffffffffffffffffffffffff167fffffffffffffffffffffffffffffffffffffffffffffffffffffffffffffffff600260009054906101000a900473ffffffffffffffffffffffffffffffffffffffff1673ffffffffffffffffffffffffffffffffffffffff166200090460201b62003f56179092919060201c565b6200057e600a60009054906101000a900473ffffffffffffffffffffffffffffffffffffffff167fffffffffffffffffffffffffffffffffffffffffffffffffffffffffffffffff600360009054906101000a900473ffffffffffffffffffffffffffffffffffffffff1673ffffffffffffffffffffffffffffffffffffffff166200090460201b62003f56179092919060201c565b62000614600560009054906101000a900473ffffffffffffffffffffffffffffffffffffffff167fffffffffffffffffffffffffffffffffffffffffffffffffffffffffffffffff600460009054906101000a900473ffffffffffffffffffffffffffffffffffffffff1673ffffffffffffffffffffffffffffffffffffffff166200090460201b62003f56179092919060201c565b620006aa600a60009054906101000a900473ffffffffffffffffffffffffffffffffffffffff167fffffffffffffffffffffffffffffffffffffffffffffffffffffffffffffffff600560009054906101000a900473ffffffffffffffffffffffffffffffffffffffff1673ffffffffffffffffffffffffffffffffffffffff166200090460201b62003f56179092919060201c565b62000740600760009054906101000a900473ffffffffffffffffffffffffffffffffffffffff167fffffffffffffffffffffffffffffffffffffffffffffffffffffffffffffffff600660009054906101000a900473ffffffffffffffffffffffffffffffffffffffff1673ffffffffffffffffffffffffffffffffffffffff166200090460201b62003f56179092919060201c565b620007d6600a60009054906101000a900473ffffffffffffffffffffffffffffffffffffffff167fffffffffffffffffffffffffffffffffffffffffffffffffffffffffffffffff600760009054906101000a900473ffffffffffffffffffffffffffffffffffffffff1673ffffffffffffffffffffffffffffffffffffffff166200090460201b62003f56179092919060201c565b6200086c600960009054906101000a900473ffffffffffffffffffffffffffffffffffffffff167fffffffffffffffffffffffffffffffffffffffffffffffffffffffffffffffff600860009054906101000a900473ffffffffffffffffffffffffffffffffffffffff1673ffffffffffffffffffffffffffffffffffffffff166200090460201b62003f56179092919060201c565b62000902600a60009054906101000a900473ffffffffffffffffffffffffffffffffffffffff167fffffffffffffffffffffffffffffffffffffffffffffffffffffffffffffffff600960009054906101000a900473ffffffffffffffffffffffffffffffffffffffff1673ffffffffffffffffffffffffffffffffffffffff166200090460201b62003f56179092919060201c565b565b6000811480620009a4575060008373ffffffffffffffffffffffffffffffffffffffff1663dd62ed3e30856040518363ffffffff1660e01b81526004016200094e92919062000eb6565b60206040518083038186803b1580156200096757600080fd5b505afa1580156200097c573d6000803e3d6000fd5b505050506040513d601f19601f82011682018060405250620009a2919081019062000cc4565b145b620009e6576040517f08c379a0000000000000000000000000000000000000000000000000000000008152600401620009dd9062000f54565b60405180910390fd5b62000a8a838473ffffffffffffffffffffffffffffffffffffffff1663095ea7b3905060e01b848460405160240162000a2192919062000ee3565b604051602081830303815290604052907bffffffffffffffffffffffffffffffffffffffffffffffffffffffff19166020820180517bffffffffffffffffffffffffffffffffffffffffffffffffffffffff838183161783525050505062000a8f60201b60201c565b505050565b62000abb8273ffffffffffffffffffffffffffffffffffffffff1662000c1e60201b6200436f1760201c565b62000afd576040517f08c379a000000000000000000000000000000000000000000000000000000000815260040162000af49062000f76565b60405180910390fd5b600060608373ffffffffffffffffffffffffffffffffffffffff168360405162000b28919062000e9d565b6000604051808303816000865af19150503d806000811462000b67576040519150601f19603f3d011682016040523d82523d6000602084013e62000b6c565b606091505b50915091508162000bb4576040517f08c379a000000000000000000000000000000000000000000000000000000000815260040162000bab9062000f10565b60405180910390fd5b60008151111562000c18578080602001905162000bd5919081019062000c98565b62000c17576040517f08c379a000000000000000000000000000000000000000000000000000000000815260040162000c0e9062000f32565b60405180910390fd5b5b50505050565b60008060007fc5d2460186f7233c927e7db2dcc703c0e500b653ca82273b7bfad8045d85a47060001b9050833f91506000801b821415801562000c615750808214155b92505050919050565b60008151905062000c7b816200103f565b92915050565b60008151905062000c928162001059565b92915050565b60006020828403121562000cab57600080fd5b600062000cbb8482850162000c6a565b91505092915050565b60006020828403121562000cd757600080fd5b600062000ce78482850162000c81565b91505092915050565b62000cfb8162000fbf565b82525050565b600062000d0e8262000f98565b62000d1a818562000fa3565b935062000d2c81856020860162001009565b80840191505092915050565b600062000d4760208362000fae565b91507f5361666545524332303a206c6f772d6c6576656c2063616c6c206661696c65646000830152602082019050919050565b600062000d89602a8362000fae565b91507f5361666545524332303a204552433230206f7065726174696f6e20646964206e60008301527f6f742073756363656564000000000000000000000000000000000000000000006020830152604082019050919050565b600062000df160368362000fae565b91507f5361666545524332303a20617070726f76652066726f6d206e6f6e2d7a65726f60008301527f20746f206e6f6e2d7a65726f20616c6c6f77616e6365000000000000000000006020830152604082019050919050565b600062000e59601f8362000fae565b91507f5361666545524332303a2063616c6c20746f206e6f6e2d636f6e7472616374006000830152602082019050919050565b62000e978162000fff565b82525050565b600062000eab828462000d01565b915081905092915050565b600060408201905062000ecd600083018562000cf0565b62000edc602083018462000cf0565b9392505050565b600060408201905062000efa600083018562000cf0565b62000f09602083018462000e8c565b9392505050565b6000602082019050818103600083015262000f2b8162000d38565b9050919050565b6000602082019050818103600083015262000f4d8162000d7a565b9050919050565b6000602082019050818103600083015262000f6f8162000de2565b9050919050565b6000602082019050818103600083015262000f918162000e4a565b9050919050565b600081519050919050565b600081905092915050565b600082825260208201905092915050565b600062000fcc8262000fdf565b9050919050565b60008115159050919050565b600073ffffffffffffffffffffffffffffffffffffffff82169050919050565b6000819050919050565b60005b83811015620010295780820151818401526020810190506200100c565b8381111562001039576000848401525b50505050565b6200104a8162000fd3565b81146200105657600080fd5b50565b620010648162000fff565b81146200107057600080fd5b50565b614e0880620010836000396000f3fe6080604052600436106101665760003560e01c80638da5cb5b116100d1578063db81f99b1161008a578063e7c80f1711610064578063e7c80f17146104b9578063f2fde38b146104e2578063f60a15ed1461050b578063f688bcfb1461052257610166565b8063db81f99b1461043a578063e0bab4c414610463578063e31ff1be1461048e57610166565b80638da5cb5b146103505780638f32d59b1461037b57806399b71d5c146103a65780639add7438146103bd578063a62281ed146103e6578063c54e44eb1461040f57610166565b80633ea521ef116101235780633ea521ef146102665780635c531d6a1461028f578063715018a6146102b8578063756bb1cc146102cf5780638323550b146102fa57806389a302711461032557610166565b806304d841081461016857806317e5a9a41461019357806319d9e008146101be5780632e8d6e18146101e9578063365833e1146102125780633a3c3b871461023b575b005b34801561017457600080fd5b5061017d61054b565b60405161018a91906149a2565b60405180910390f35b34801561019f57600080fd5b506101a8610571565b6040516101b591906149a2565b60405180910390f35b3480156101ca57600080fd5b506101d3610597565b6040516101e091906149a2565b60405180910390f35b3480156101f557600080fd5b50610210600480360361020b9190810190614475565b6105bd565b005b34801561021e57600080fd5b506102396004803603610234919081019061449e565b6106c0565b005b34801561024757600080fd5b50610250610d58565b60405161025d91906149a2565b60405180910390f35b34801561027257600080fd5b5061028d6004803603610288919081019061449e565b610d7e565b005b34801561029b57600080fd5b506102b660048036036102b1919081019061449e565b61129c565b005b3480156102c457600080fd5b506102cd6117ba565b005b3480156102db57600080fd5b506102e46118c2565b6040516102f191906149a2565b60405180910390f35b34801561030657600080fd5b5061030f6118e8565b60405161031c91906149a2565b60405180910390f35b34801561033157600080fd5b5061033a61190e565b60405161034791906149a2565b60405180910390f35b34801561035c57600080fd5b50610365611934565b60405161037291906149a2565b60405180910390f35b34801561038757600080fd5b5061039061195e565b60405161039d9190614a8a565b60405180910390f35b3480156103b257600080fd5b506103bb6119bd565b005b3480156103c957600080fd5b506103e460048036036103df919081019061449e565b611e37565b005b3480156103f257600080fd5b5061040d6004803603610408919081019061449e565b612355565b005b34801561041b57600080fd5b506104246129ed565b60405161043191906149a2565b60405180910390f35b34801561044657600080fd5b50610461600480360361045c919081019061449e565b612a13565b005b34801561046f57600080fd5b50610478612f31565b60405161048591906149a2565b60405180910390f35b34801561049a57600080fd5b506104a3612f57565b6040516104b091906149a2565b60405180910390f35b3480156104c557600080fd5b506104e060048036036104db919081019061449e565b612f7d565b005b3480156104ee57600080fd5b5061050960048036036105049190810190614423565b613615565b005b34801561051757600080fd5b50610520613668565b005b34801561052e57600080fd5b506105496004803603610544919081019061449e565b613775565b005b600a60009054906101000a900473ffffffffffffffffffffffffffffffffffffffff1681565b600760009054906101000a900473ffffffffffffffffffffffffffffffffffffffff1681565b600560009054906101000a900473ffffffffffffffffffffffffffffffffffffffff1681565b6105c561195e565b610604576040517f08c379a00000000000000000000000000000000000000000000000000000000081526004016105fb90614b65565b60405180910390fd5b60008173ffffffffffffffffffffffffffffffffffffffff166370a08231306040518263ffffffff1660e01b815260040161063f91906149bd565b60206040518083038186803b15801561065757600080fd5b505afa15801561066b573d6000803e3d6000fd5b505050506040513d601f19601f8201168201806040525061068f91908101906144c7565b90506106bc33828473ffffffffffffffffffffffffffffffffffffffff16613e0d9092919063ffffffff16565b5050565b6001600080828254019250508190555060008054905060008211610719576040517f08c379a000000000000000000000000000000000000000000000000000000000815260040161071090614b85565b60405180910390fd5b610768333084600260009054906101000a900473ffffffffffffffffffffffffffffffffffffffff1673ffffffffffffffffffffffffffffffffffffffff16613eac909392919063ffffffff16565b600360009054906101000a900473ffffffffffffffffffffffffffffffffffffffff1673ffffffffffffffffffffffffffffffffffffffff1663b6b55f25836040518263ffffffff1660e01b81526004016107c39190614c25565b600060405180830381600087803b1580156107dd57600080fd5b505af11580156107f1573d6000803e3d6000fd5b505050506000600260009054906101000a900473ffffffffffffffffffffffffffffffffffffffff1673ffffffffffffffffffffffffffffffffffffffff166370a08231306040518263ffffffff1660e01b815260040161085291906149bd565b60206040518083038186803b15801561086a57600080fd5b505afa15801561087e573d6000803e3d6000fd5b505050506040513d601f19601f820116820180604052506108a291908101906144c7565b146108e2576040517f08c379a00000000000000000000000000000000000000000000000000000000081526004016108d990614ac5565b60405180910390fd5b600a60009054906101000a900473ffffffffffffffffffffffffffffffffffffffff1673ffffffffffffffffffffffffffffffffffffffff1663029b2f346040518060800160405280600360009054906101000a900473ffffffffffffffffffffffffffffffffffffffff1673ffffffffffffffffffffffffffffffffffffffff166370a08231306040518263ffffffff1660e01b815260040161098691906149bd565b60206040518083038186803b15801561099e57600080fd5b505afa1580156109b2573d6000803e3d6000fd5b505050506040513d601f19601f820116820180604052506109d691908101906144c7565b81526020016000815260200160008152602001600081525060006040518363ffffffff1660e01b8152600401610a0d929190614a61565b600060405180830381600087803b158015610a2757600080fd5b505af1158015610a3b573d6000803e3d6000fd5b505050506000600360009054906101000a900473ffffffffffffffffffffffffffffffffffffffff1673ffffffffffffffffffffffffffffffffffffffff166370a08231306040518263ffffffff1660e01b8152600401610a9c91906149bd565b60206040518083038186803b158015610ab457600080fd5b505afa158015610ac8573d6000803e3d6000fd5b505050506040513d601f19601f82011682018060405250610aec91908101906144c7565b14610b2c576040517f08c379a0000000000000000000000000000000000000000000000000000000008152600401610b2390614b05565b60405180910390fd5b610c2333600b60009054906101000a900473ffffffffffffffffffffffffffffffffffffffff1673ffffffffffffffffffffffffffffffffffffffff166370a08231306040518263ffffffff1660e01b8152600401610b8b91906149bd565b60206040518083038186803b158015610ba357600080fd5b505afa158015610bb7573d6000803e3d6000fd5b505050506040513d601f19601f82011682018060405250610bdb91908101906144c7565b600b60009054906101000a900473ffffffffffffffffffffffffffffffffffffffff1673ffffffffffffffffffffffffffffffffffffffff16613e0d9092919063ffffffff16565b6000600b60009054906101000a900473ffffffffffffffffffffffffffffffffffffffff1673ffffffffffffffffffffffffffffffffffffffff166370a08231306040518263ffffffff1660e01b8152600401610c8091906149bd565b60206040518083038186803b158015610c9857600080fd5b505afa158015610cac573d6000803e3d6000fd5b505050506040513d601f19601f82011682018060405250610cd091908101906144c7565b14610d10576040517f08c379a0000000000000000000000000000000000000000000000000000000008152600401610d0790614b45565b60405180910390fd5b6000548114610d54576040517f08c379a0000000000000000000000000000000000000000000000000000000008152600401610d4b90614bc5565b60405180910390fd5b5050565b600b60009054906101000a900473ffffffffffffffffffffffffffffffffffffffff1681565b6001600080828254019250508190555060008054905060008211610dd7576040517f08c379a0000000000000000000000000000000000000000000000000000000008152600401610dce90614b85565b60405180910390fd5b610e26333084600b60009054906101000a900473ffffffffffffffffffffffffffffffffffffffff1673ffffffffffffffffffffffffffffffffffffffff16613eac909392919063ffffffff16565b600a60009054906101000a900473ffffffffffffffffffffffffffffffffffffffff1673ffffffffffffffffffffffffffffffffffffffff166318a7bd7660405180608001604052806000815260200160008152602001600b60009054906101000a900473ffffffffffffffffffffffffffffffffffffffff1673ffffffffffffffffffffffffffffffffffffffff166370a08231306040518263ffffffff1660e01b8152600401610ed891906149bd565b60206040518083038186803b158015610ef057600080fd5b505afa158015610f04573d6000803e3d6000fd5b505050506040513d601f19601f82011682018060405250610f2891908101906144c7565b8152602001600081525060006040518363ffffffff1660e01b8152600401610f51929190614a61565b600060405180830381600087803b158015610f6b57600080fd5b505af1158015610f7f573d6000803e3d6000fd5b505050506000600b60009054906101000a900473ffffffffffffffffffffffffffffffffffffffff1673ffffffffffffffffffffffffffffffffffffffff166370a08231306040518263ffffffff1660e01b8152600401610fe091906149bd565b60206040518083038186803b158015610ff857600080fd5b505afa15801561100c573d6000803e3d6000fd5b505050506040513d601f19601f8201168201806040525061103091908101906144c7565b14611070576040517f08c379a000000000000000000000000000000000000000000000000000000000815260040161106790614b45565b60405180910390fd5b61116733600760009054906101000a900473ffffffffffffffffffffffffffffffffffffffff1673ffffffffffffffffffffffffffffffffffffffff166370a08231306040518263ffffffff1660e01b81526004016110cf91906149bd565b60206040518083038186803b1580156110e757600080fd5b505afa1580156110fb573d6000803e3d6000fd5b505050506040513d601f19601f8201168201806040525061111f91908101906144c7565b600760009054906101000a900473ffffffffffffffffffffffffffffffffffffffff1673ffffffffffffffffffffffffffffffffffffffff16613e0d9092919063ffffffff16565b6000600760009054906101000a900473ffffffffffffffffffffffffffffffffffffffff1673ffffffffffffffffffffffffffffffffffffffff166370a08231306040518263ffffffff1660e01b81526004016111c491906149bd565b60206040518083038186803b1580156111dc57600080fd5b505afa1580156111f0573d6000803e3d6000fd5b505050506040513d601f19601f8201168201806040525061121491908101906144c7565b14611254576040517f08c379a000000000000000000000000000000000000000000000000000000000815260040161124b90614b05565b60405180910390fd5b6000548114611298576040517f08c379a000000000000000000000000000000000000000000000000000000000815260040161128f90614bc5565b60405180910390fd5b5050565b60016000808282540192505081905550600080549050600082116112f5576040517f08c379a00000000000000000000000000000000000000000000000000000000081526004016112ec90614b85565b60405180910390fd5b611344333084600b60009054906101000a900473ffffffffffffffffffffffffffffffffffffffff1673ffffffffffffffffffffffffffffffffffffffff16613eac909392919063ffffffff16565b600a60009054906101000a900473ffffffffffffffffffffffffffffffffffffffff1673ffffffffffffffffffffffffffffffffffffffff166318a7bd766040518060800160405280600081526020016000815260200160008152602001600b60009054906101000a900473ffffffffffffffffffffffffffffffffffffffff1673ffffffffffffffffffffffffffffffffffffffff166370a08231306040518263ffffffff1660e01b81526004016113fd91906149bd565b60206040518083038186803b15801561141557600080fd5b505afa158015611429573d6000803e3d6000fd5b505050506040513d601f19601f8201168201806040525061144d91908101906144c7565b81525060006040518363ffffffff1660e01b815260040161146f929190614a61565b600060405180830381600087803b15801561148957600080fd5b505af115801561149d573d6000803e3d6000fd5b505050506000600b60009054906101000a900473ffffffffffffffffffffffffffffffffffffffff1673ffffffffffffffffffffffffffffffffffffffff166370a08231306040518263ffffffff1660e01b81526004016114fe91906149bd565b60206040518083038186803b15801561151657600080fd5b505afa15801561152a573d6000803e3d6000fd5b505050506040513d601f19601f8201168201806040525061154e91908101906144c7565b1461158e576040517f08c379a000000000000000000000000000000000000000000000000000000000815260040161158590614b45565b60405180910390fd5b61168533600760009054906101000a900473ffffffffffffffffffffffffffffffffffffffff1673ffffffffffffffffffffffffffffffffffffffff166370a08231306040518263ffffffff1660e01b81526004016115ed91906149bd565b60206040518083038186803b15801561160557600080fd5b505afa158015611619573d6000803e3d6000fd5b505050506040513d601f19601f8201168201806040525061163d91908101906144c7565b600960009054906101000a900473ffffffffffffffffffffffffffffffffffffffff1673ffffffffffffffffffffffffffffffffffffffff16613e0d9092919063ffffffff16565b6000600960009054906101000a900473ffffffffffffffffffffffffffffffffffffffff1673ffffffffffffffffffffffffffffffffffffffff166370a08231306040518263ffffffff1660e01b81526004016116e291906149bd565b60206040518083038186803b1580156116fa57600080fd5b505afa15801561170e573d6000803e3d6000fd5b505050506040513d601f19601f8201168201806040525061173291908101906144c7565b14611772576040517f08c379a000000000000000000000000000000000000000000000000000000000815260040161176990614b05565b60405180910390fd5b60005481146117b6576040517f08c379a00000000000000000000000000000000000000000000000000000000081526004016117ad90614bc5565b60405180910390fd5b5050565b6117c261195e565b611801576040517f08c379a00000000000000000000000000000000000000000000000000000000081526004016117f890614b65565b60405180910390fd5b600073ffffffffffffffffffffffffffffffffffffffff16600160009054906101000a900473ffffffffffffffffffffffffffffffffffffffff1673ffffffffffffffffffffffffffffffffffffffff167f8be0079c531659141344cd1fd0a4f28419497f9722a3daafe3b4186f6b6457e060405160405180910390a36000600160006101000a81548173ffffffffffffffffffffffffffffffffffffffff021916908373ffffffffffffffffffffffffffffffffffffffff160217905550565b600360009054906101000a900473ffffffffffffffffffffffffffffffffffffffff1681565b600860009054906101000a900473ffffffffffffffffffffffffffffffffffffffff1681565b600460009054906101000a900473ffffffffffffffffffffffffffffffffffffffff1681565b6000600160009054906101000a900473ffffffffffffffffffffffffffffffffffffffff16905090565b6000600160009054906101000a900473ffffffffffffffffffffffffffffffffffffffff1673ffffffffffffffffffffffffffffffffffffffff166119a1613f4e565b73ffffffffffffffffffffffffffffffffffffffff1614905090565b611a4c600360009054906101000a900473ffffffffffffffffffffffffffffffffffffffff167fffffffffffffffffffffffffffffffffffffffffffffffffffffffffffffffff600260009054906101000a900473ffffffffffffffffffffffffffffffffffffffff1673ffffffffffffffffffffffffffffffffffffffff16613f569092919063ffffffff16565b611adb600a60009054906101000a900473ffffffffffffffffffffffffffffffffffffffff167fffffffffffffffffffffffffffffffffffffffffffffffffffffffffffffffff600360009054906101000a900473ffffffffffffffffffffffffffffffffffffffff1673ffffffffffffffffffffffffffffffffffffffff16613f569092919063ffffffff16565b611b6a600560009054906101000a900473ffffffffffffffffffffffffffffffffffffffff167fffffffffffffffffffffffffffffffffffffffffffffffffffffffffffffffff600460009054906101000a900473ffffffffffffffffffffffffffffffffffffffff1673ffffffffffffffffffffffffffffffffffffffff16613f569092919063ffffffff16565b611bf9600a60009054906101000a900473ffffffffffffffffffffffffffffffffffffffff167fffffffffffffffffffffffffffffffffffffffffffffffffffffffffffffffff600560009054906101000a900473ffffffffffffffffffffffffffffffffffffffff1673ffffffffffffffffffffffffffffffffffffffff16613f569092919063ffffffff16565b611c88600760009054906101000a900473ffffffffffffffffffffffffffffffffffffffff167fffffffffffffffffffffffffffffffffffffffffffffffffffffffffffffffff600660009054906101000a900473ffffffffffffffffffffffffffffffffffffffff1673ffffffffffffffffffffffffffffffffffffffff16613f569092919063ffffffff16565b611d17600a60009054906101000a900473ffffffffffffffffffffffffffffffffffffffff167fffffffffffffffffffffffffffffffffffffffffffffffffffffffffffffffff600760009054906101000a900473ffffffffffffffffffffffffffffffffffffffff1673ffffffffffffffffffffffffffffffffffffffff16613f569092919063ffffffff16565b611da6600960009054906101000a900473ffffffffffffffffffffffffffffffffffffffff167fffffffffffffffffffffffffffffffffffffffffffffffffffffffffffffffff600860009054906101000a900473ffffffffffffffffffffffffffffffffffffffff1673ffffffffffffffffffffffffffffffffffffffff16613f569092919063ffffffff16565b611e35600a60009054906101000a900473ffffffffffffffffffffffffffffffffffffffff167fffffffffffffffffffffffffffffffffffffffffffffffffffffffffffffffff600960009054906101000a900473ffffffffffffffffffffffffffffffffffffffff1673ffffffffffffffffffffffffffffffffffffffff16613f569092919063ffffffff16565b565b6001600080828254019250508190555060008054905060008211611e90576040517f08c379a0000000000000000000000000000000000000000000000000000000008152600401611e8790614b85565b60405180910390fd5b611edf333084600b60009054906101000a900473ffffffffffffffffffffffffffffffffffffffff1673ffffffffffffffffffffffffffffffffffffffff16613eac909392919063ffffffff16565b600a60009054906101000a900473ffffffffffffffffffffffffffffffffffffffff1673ffffffffffffffffffffffffffffffffffffffff166318a7bd766040518060800160405280600b60009054906101000a900473ffffffffffffffffffffffffffffffffffffffff1673ffffffffffffffffffffffffffffffffffffffff166370a08231306040518263ffffffff1660e01b8152600401611f8391906149bd565b60206040518083038186803b158015611f9b57600080fd5b505afa158015611faf573d6000803e3d6000fd5b505050506040513d601f19601f82011682018060405250611fd391908101906144c7565b81526020016000815260200160008152602001600081525060006040518363ffffffff1660e01b815260040161200a929190614a61565b600060405180830381600087803b15801561202457600080fd5b505af1158015612038573d6000803e3d6000fd5b505050506000600b60009054906101000a900473ffffffffffffffffffffffffffffffffffffffff1673ffffffffffffffffffffffffffffffffffffffff166370a08231306040518263ffffffff1660e01b815260040161209991906149bd565b60206040518083038186803b1580156120b157600080fd5b505afa1580156120c5573d6000803e3d6000fd5b505050506040513d601f19601f820116820180604052506120e991908101906144c7565b14612129576040517f08c379a000000000000000000000000000000000000000000000000000000000815260040161212090614b45565b60405180910390fd5b61222033600360009054906101000a900473ffffffffffffffffffffffffffffffffffffffff1673ffffffffffffffffffffffffffffffffffffffff166370a08231306040518263ffffffff1660e01b815260040161218891906149bd565b60206040518083038186803b1580156121a057600080fd5b505afa1580156121b4573d6000803e3d6000fd5b505050506040513d601f19601f820116820180604052506121d891908101906144c7565b600360009054906101000a900473ffffffffffffffffffffffffffffffffffffffff1673ffffffffffffffffffffffffffffffffffffffff16613e0d9092919063ffffffff16565b6000600360009054906101000a900473ffffffffffffffffffffffffffffffffffffffff1673ffffffffffffffffffffffffffffffffffffffff166370a08231306040518263ffffffff1660e01b815260040161227d91906149bd565b60206040518083038186803b15801561229557600080fd5b505afa1580156122a9573d6000803e3d6000fd5b505050506040513d601f19601f820116820180604052506122cd91908101906144c7565b1461230d576040517f08c379a000000000000000000000000000000000000000000000000000000000815260040161230490614b05565b60405180910390fd5b6000548114612351576040517f08c379a000000000000000000000000000000000000000000000000000000000815260040161234890614bc5565b60405180910390fd5b5050565b60016000808282540192505081905550600080549050600082116123ae576040517f08c379a00000000000000000000000000000000000000000000000000000000081526004016123a590614b85565b60405180910390fd5b6123fd333084600860009054906101000a900473ffffffffffffffffffffffffffffffffffffffff1673ffffffffffffffffffffffffffffffffffffffff16613eac909392919063ffffffff16565b600960009054906101000a900473ffffffffffffffffffffffffffffffffffffffff1673ffffffffffffffffffffffffffffffffffffffff1663b6b55f25836040518263ffffffff1660e01b81526004016124589190614c25565b600060405180830381600087803b15801561247257600080fd5b505af1158015612486573d6000803e3d6000fd5b505050506000600860009054906101000a900473ffffffffffffffffffffffffffffffffffffffff1673ffffffffffffffffffffffffffffffffffffffff166370a08231306040518263ffffffff1660e01b81526004016124e791906149bd565b60206040518083038186803b1580156124ff57600080fd5b505afa158015612513573d6000803e3d6000fd5b505050506040513d601f19601f8201168201806040525061253791908101906144c7565b14612577576040517f08c379a000000000000000000000000000000000000000000000000000000000815260040161256e90614ac5565b60405180910390fd5b600a60009054906101000a900473ffffffffffffffffffffffffffffffffffffffff1673ffffffffffffffffffffffffffffffffffffffff1663029b2f346040518060800160405280600081526020016000815260200160008152602001600960009054906101000a900473ffffffffffffffffffffffffffffffffffffffff1673ffffffffffffffffffffffffffffffffffffffff166370a08231306040518263ffffffff1660e01b815260040161263091906149bd565b60206040518083038186803b15801561264857600080fd5b505afa15801561265c573d6000803e3d6000fd5b505050506040513d601f19601f8201168201806040525061268091908101906144c7565b81525060006040518363ffffffff1660e01b81526004016126a2929190614a61565b600060405180830381600087803b1580156126bc57600080fd5b505af11580156126d0573d6000803e3d6000fd5b505050506000600960009054906101000a900473ffffffffffffffffffffffffffffffffffffffff1673ffffffffffffffffffffffffffffffffffffffff166370a08231306040518263ffffffff1660e01b815260040161273191906149bd565b60206040518083038186803b15801561274957600080fd5b505afa15801561275d573d6000803e3d6000fd5b505050506040513d601f19601f8201168201806040525061278191908101906144c7565b146127c1576040517f08c379a00000000000000000000000000000000000000000000000000000000081526004016127b890614b05565b60405180910390fd5b6128b833600b60009054906101000a900473ffffffffffffffffffffffffffffffffffffffff1673ffffffffffffffffffffffffffffffffffffffff166370a08231306040518263ffffffff1660e01b815260040161282091906149bd565b60206040518083038186803b15801561283857600080fd5b505afa15801561284c573d6000803e3d6000fd5b505050506040513d601f19601f8201168201806040525061287091908101906144c7565b600b60009054906101000a900473ffffffffffffffffffffffffffffffffffffffff1673ffffffffffffffffffffffffffffffffffffffff16613e0d9092919063ffffffff16565b6000600b60009054906101000a900473ffffffffffffffffffffffffffffffffffffffff1673ffffffffffffffffffffffffffffffffffffffff166370a08231306040518263ffffffff1660e01b815260040161291591906149bd565b60206040518083038186803b15801561292d57600080fd5b505afa158015612941573d6000803e3d6000fd5b505050506040513d601f19601f8201168201806040525061296591908101906144c7565b146129a5576040517f08c379a000000000000000000000000000000000000000000000000000000000815260040161299c90614b45565b60405180910390fd5b60005481146129e9576040517f08c379a00000000000000000000000000000000000000000000000000000000081526004016129e090614bc5565b60405180910390fd5b5050565b600660009054906101000a900473ffffffffffffffffffffffffffffffffffffffff1681565b6001600080828254019250508190555060008054905060008211612a6c576040517f08c379a0000000000000000000000000000000000000000000000000000000008152600401612a6390614b85565b60405180910390fd5b612abb333084600b60009054906101000a900473ffffffffffffffffffffffffffffffffffffffff1673ffffffffffffffffffffffffffffffffffffffff16613eac909392919063ffffffff16565b600a60009054906101000a900473ffffffffffffffffffffffffffffffffffffffff1673ffffffffffffffffffffffffffffffffffffffff166318a7bd76604051806080016040528060008152602001600b60009054906101000a900473ffffffffffffffffffffffffffffffffffffffff1673ffffffffffffffffffffffffffffffffffffffff166370a08231306040518263ffffffff1660e01b8152600401612b6691906149bd565b60206040518083038186803b158015612b7e57600080fd5b505afa158015612b92573d6000803e3d6000fd5b505050506040513d601f19601f82011682018060405250612bb691908101906144c7565b815260200160008152602001600081525060006040518363ffffffff1660e01b8152600401612be6929190614a61565b600060405180830381600087803b158015612c0057600080fd5b505af1158015612c14573d6000803e3d6000fd5b505050506000600b60009054906101000a900473ffffffffffffffffffffffffffffffffffffffff1673ffffffffffffffffffffffffffffffffffffffff166370a08231306040518263ffffffff1660e01b8152600401612c7591906149bd565b60206040518083038186803b158015612c8d57600080fd5b505afa158015612ca1573d6000803e3d6000fd5b505050506040513d601f19601f82011682018060405250612cc591908101906144c7565b14612d05576040517f08c379a0000000000000000000000000000000000000000000000000000000008152600401612cfc90614b45565b60405180910390fd5b612dfc33600560009054906101000a900473ffffffffffffffffffffffffffffffffffffffff1673ffffffffffffffffffffffffffffffffffffffff166370a08231306040518263ffffffff1660e01b8152600401612d6491906149bd565b60206040518083038186803b158015612d7c57600080fd5b505afa158015612d90573d6000803e3d6000fd5b505050506040513d601f19601f82011682018060405250612db491908101906144c7565b600560009054906101000a900473ffffffffffffffffffffffffffffffffffffffff1673ffffffffffffffffffffffffffffffffffffffff16613e0d9092919063ffffffff16565b6000600560009054906101000a900473ffffffffffffffffffffffffffffffffffffffff1673ffffffffffffffffffffffffffffffffffffffff166370a08231306040518263ffffffff1660e01b8152600401612e5991906149bd565b60206040518083038186803b158015612e7157600080fd5b505afa158015612e85573d6000803e3d6000fd5b505050506040513d601f19601f82011682018060405250612ea991908101906144c7565b14612ee9576040517f08c379a0000000000000000000000000000000000000000000000000000000008152600401612ee090614b05565b60405180910390fd5b6000548114612f2d576040517f08c379a0000000000000000000000000000000000000000000000000000000008152600401612f2490614bc5565b60405180910390fd5b5050565b600260009054906101000a900473ffffffffffffffffffffffffffffffffffffffff1681565b600960009054906101000a900473ffffffffffffffffffffffffffffffffffffffff1681565b6001600080828254019250508190555060008054905060008211612fd6576040517f08c379a0000000000000000000000000000000000000000000000000000000008152600401612fcd90614b85565b60405180910390fd5b613025333084600660009054906101000a900473ffffffffffffffffffffffffffffffffffffffff1673ffffffffffffffffffffffffffffffffffffffff16613eac909392919063ffffffff16565b600760009054906101000a900473ffffffffffffffffffffffffffffffffffffffff1673ffffffffffffffffffffffffffffffffffffffff1663b6b55f25836040518263ffffffff1660e01b81526004016130809190614c25565b600060405180830381600087803b15801561309a57600080fd5b505af11580156130ae573d6000803e3d6000fd5b505050506000600660009054906101000a900473ffffffffffffffffffffffffffffffffffffffff1673ffffffffffffffffffffffffffffffffffffffff166370a08231306040518263ffffffff1660e01b815260040161310f91906149bd565b60206040518083038186803b15801561312757600080fd5b505afa15801561313b573d6000803e3d6000fd5b505050506040513d601f19601f8201168201806040525061315f91908101906144c7565b1461319f576040517f08c379a000000000000000000000000000000000000000000000000000000000815260040161319690614ac5565b60405180910390fd5b600a60009054906101000a900473ffffffffffffffffffffffffffffffffffffffff1673ffffffffffffffffffffffffffffffffffffffff1663029b2f3460405180608001604052806000815260200160008152602001600760009054906101000a900473ffffffffffffffffffffffffffffffffffffffff1673ffffffffffffffffffffffffffffffffffffffff166370a08231306040518263ffffffff1660e01b815260040161325191906149bd565b60206040518083038186803b15801561326957600080fd5b505afa15801561327d573d6000803e3d6000fd5b505050506040513d601f19601f820116820180604052506132a191908101906144c7565b8152602001600081525060006040518363ffffffff1660e01b81526004016132ca929190614a61565b600060405180830381600087803b1580156132e457600080fd5b505af11580156132f8573d6000803e3d6000fd5b505050506000600760009054906101000a900473ffffffffffffffffffffffffffffffffffffffff1673ffffffffffffffffffffffffffffffffffffffff166370a08231306040518263ffffffff1660e01b815260040161335991906149bd565b60206040518083038186803b15801561337157600080fd5b505afa158015613385573d6000803e3d6000fd5b505050506040513d601f19601f820116820180604052506133a991908101906144c7565b146133e9576040517f08c379a00000000000000000000000000000000000000000000000000000000081526004016133e090614b05565b60405180910390fd5b6134e033600b60009054906101000a900473ffffffffffffffffffffffffffffffffffffffff1673ffffffffffffffffffffffffffffffffffffffff166370a08231306040518263ffffffff1660e01b815260040161344891906149bd565b60206040518083038186803b15801561346057600080fd5b505afa158015613474573d6000803e3d6000fd5b505050506040513d601f19601f8201168201806040525061349891908101906144c7565b600b60009054906101000a900473ffffffffffffffffffffffffffffffffffffffff1673ffffffffffffffffffffffffffffffffffffffff16613e0d9092919063ffffffff16565b6000600b60009054906101000a900473ffffffffffffffffffffffffffffffffffffffff1673ffffffffffffffffffffffffffffffffffffffff166370a08231306040518263ffffffff1660e01b815260040161353d91906149bd565b60206040518083038186803b15801561355557600080fd5b505afa158015613569573d6000803e3d6000fd5b505050506040513d601f19601f8201168201806040525061358d91908101906144c7565b146135cd576040517f08c379a00000000000000000000000000000000000000000000000000000000081526004016135c490614b45565b60405180910390fd5b6000548114613611576040517f08c379a000000000000000000000000000000000000000000000000000000000815260040161360890614bc5565b60405180910390fd5b5050565b61361d61195e565b61365c576040517f08c379a000000000000000000000000000000000000000000000000000000000815260040161365390614b65565b60405180910390fd5b613665816140cd565b50565b61367061195e565b6136af576040517f08c379a00000000000000000000000000000000000000000000000000000000081526004016136a690614b65565b60405180910390fd5b60003373ffffffffffffffffffffffffffffffffffffffff163073ffffffffffffffffffffffffffffffffffffffff16316040516136ec9061498d565b60006040518083038185875af1925050503d8060008114613729576040519150601f19603f3d011682016040523d82523d6000602084013e61372e565b606091505b5050905080613772576040517f08c379a000000000000000000000000000000000000000000000000000000000815260040161376990614b25565b60405180910390fd5b50565b60016000808282540192505081905550600080549050600082116137ce576040517f08c379a00000000000000000000000000000000000000000000000000000000081526004016137c590614b85565b60405180910390fd5b61381d333084600460009054906101000a900473ffffffffffffffffffffffffffffffffffffffff1673ffffffffffffffffffffffffffffffffffffffff16613eac909392919063ffffffff16565b600560009054906101000a900473ffffffffffffffffffffffffffffffffffffffff1673ffffffffffffffffffffffffffffffffffffffff1663b6b55f25836040518263ffffffff1660e01b81526004016138789190614c25565b600060405180830381600087803b15801561389257600080fd5b505af11580156138a6573d6000803e3d6000fd5b505050506000600460009054906101000a900473ffffffffffffffffffffffffffffffffffffffff1673ffffffffffffffffffffffffffffffffffffffff166370a08231306040518263ffffffff1660e01b815260040161390791906149bd565b60206040518083038186803b15801561391f57600080fd5b505afa158015613933573d6000803e3d6000fd5b505050506040513d601f19601f8201168201806040525061395791908101906144c7565b14613997576040517f08c379a000000000000000000000000000000000000000000000000000000000815260040161398e90614ac5565b60405180910390fd5b600a60009054906101000a900473ffffffffffffffffffffffffffffffffffffffff1673ffffffffffffffffffffffffffffffffffffffff1663029b2f34604051806080016040528060008152602001600560009054906101000a900473ffffffffffffffffffffffffffffffffffffffff1673ffffffffffffffffffffffffffffffffffffffff166370a08231306040518263ffffffff1660e01b8152600401613a4291906149bd565b60206040518083038186803b158015613a5a57600080fd5b505afa158015613a6e573d6000803e3d6000fd5b505050506040513d601f19601f82011682018060405250613a9291908101906144c7565b815260200160008152602001600081525060006040518363ffffffff1660e01b8152600401613ac2929190614a61565b600060405180830381600087803b158015613adc57600080fd5b505af1158015613af0573d6000803e3d6000fd5b505050506000600560009054906101000a900473ffffffffffffffffffffffffffffffffffffffff1673ffffffffffffffffffffffffffffffffffffffff166370a08231306040518263ffffffff1660e01b8152600401613b5191906149bd565b60206040518083038186803b158015613b6957600080fd5b505afa158015613b7d573d6000803e3d6000fd5b505050506040513d601f19601f82011682018060405250613ba191908101906144c7565b14613be1576040517f08c379a0000000000000000000000000000000000000000000000000000000008152600401613bd890614b05565b60405180910390fd5b613cd833600b60009054906101000a900473ffffffffffffffffffffffffffffffffffffffff1673ffffffffffffffffffffffffffffffffffffffff166370a08231306040518263ffffffff1660e01b8152600401613c4091906149bd565b60206040518083038186803b158015613c5857600080fd5b505afa158015613c6c573d6000803e3d6000fd5b505050506040513d601f19601f82011682018060405250613c9091908101906144c7565b600b60009054906101000a900473ffffffffffffffffffffffffffffffffffffffff1673ffffffffffffffffffffffffffffffffffffffff16613e0d9092919063ffffffff16565b6000600b60009054906101000a900473ffffffffffffffffffffffffffffffffffffffff1673ffffffffffffffffffffffffffffffffffffffff166370a08231306040518263ffffffff1660e01b8152600401613d3591906149bd565b60206040518083038186803b158015613d4d57600080fd5b505afa158015613d61573d6000803e3d6000fd5b505050506040513d601f19601f82011682018060405250613d8591908101906144c7565b14613dc5576040517f08c379a0000000000000000000000000000000000000000000000000000000008152600401613dbc90614b45565b60405180910390fd5b6000548114613e09576040517f08c379a0000000000000000000000000000000000000000000000000000000008152600401613e0090614bc5565b60405180910390fd5b5050565b613ea7838473ffffffffffffffffffffffffffffffffffffffff1663a9059cbb905060e01b8484604051602401613e45929190614a38565b604051602081830303815290604052907bffffffffffffffffffffffffffffffffffffffffffffffffffffffff19166020820180517bffffffffffffffffffffffffffffffffffffffffffffffffffffffff83818316178352505050506141fd565b505050565b613f48848573ffffffffffffffffffffffffffffffffffffffff166323b872dd905060e01b858585604051602401613ee693929190614a01565b604051602081830303815290604052907bffffffffffffffffffffffffffffffffffffffffffffffffffffffff19166020820180517bffffffffffffffffffffffffffffffffffffffffffffffffffffffff83818316178352505050506141fd565b50505050565b600033905090565b6000811480613fef575060008373ffffffffffffffffffffffffffffffffffffffff1663dd62ed3e30856040518363ffffffff1660e01b8152600401613f9d9291906149d8565b60206040518083038186803b158015613fb557600080fd5b505afa158015613fc9573d6000803e3d6000fd5b505050506040513d601f19601f82011682018060405250613fed91908101906144c7565b145b61402e576040517f08c379a000000000000000000000000000000000000000000000000000000000815260040161402590614be5565b60405180910390fd5b6140c8838473ffffffffffffffffffffffffffffffffffffffff1663095ea7b3905060e01b8484604051602401614066929190614a38565b604051602081830303815290604052907bffffffffffffffffffffffffffffffffffffffffffffffffffffffff19166020820180517bffffffffffffffffffffffffffffffffffffffffffffffffffffffff83818316178352505050506141fd565b505050565b600073ffffffffffffffffffffffffffffffffffffffff168173ffffffffffffffffffffffffffffffffffffffff16141561413d576040517f08c379a000000000000000000000000000000000000000000000000000000000815260040161413490614aa5565b60405180910390fd5b8073ffffffffffffffffffffffffffffffffffffffff16600160009054906101000a900473ffffffffffffffffffffffffffffffffffffffff1673ffffffffffffffffffffffffffffffffffffffff167f8be0079c531659141344cd1fd0a4f28419497f9722a3daafe3b4186f6b6457e060405160405180910390a380600160006101000a81548173ffffffffffffffffffffffffffffffffffffffff021916908373ffffffffffffffffffffffffffffffffffffffff16021790555050565b61421c8273ffffffffffffffffffffffffffffffffffffffff1661436f565b61425b576040517f08c379a000000000000000000000000000000000000000000000000000000000815260040161425290614c05565b60405180910390fd5b600060608373ffffffffffffffffffffffffffffffffffffffff16836040516142849190614976565b6000604051808303816000865af19150503d80600081146142c1576040519150601f19603f3d011682016040523d82523d6000602084013e6142c6565b606091505b50915091508161430b576040517f08c379a000000000000000000000000000000000000000000000000000000000815260040161430290614ae5565b60405180910390fd5b6000815111156143695780806020019051614329919081019061444c565b614368576040517f08c379a000000000000000000000000000000000000000000000000000000000815260040161435f90614ba5565b60405180910390fd5b5b50505050565b60008060007fc5d2460186f7233c927e7db2dcc703c0e500b653ca82273b7bfad8045d85a47060001b9050833f91506000801b82141580156143b15750808214155b92505050919050565b6000813590506143c981614d69565b92915050565b6000815190506143de81614d80565b92915050565b6000813590506143f381614d97565b92915050565b60008135905061440881614dae565b92915050565b60008151905061441d81614dae565b92915050565b60006020828403121561443557600080fd5b6000614443848285016143ba565b91505092915050565b60006020828403121561445e57600080fd5b600061446c848285016143cf565b91505092915050565b60006020828403121561448757600080fd5b6000614495848285016143e4565b91505092915050565b6000602082840312156144b057600080fd5b60006144be848285016143f9565b91505092915050565b6000602082840312156144d957600080fd5b60006144e78482850161440e565b91505092915050565b60006144fc8383614958565b60208301905092915050565b61451181614cee565b82525050565b61452081614c94565b82525050565b61452f81614c4a565b6145398184614c6d565b925061454482614c40565b8060005b8381101561457557815161455c87826144f0565b965061456783614c60565b925050600181019050614548565b505050505050565b61458681614ca6565b82525050565b600061459782614c55565b6145a18185614c78565b93506145b1818560208601614d36565b80840191505092915050565b6145c681614d00565b82525050565b60006145d9602683614c83565b91507f4f776e61626c653a206e6577206f776e657220697320746865207a65726f206160008301527f64647265737300000000000000000000000000000000000000000000000000006020830152604082019050919050565b600061463f600f83614c83565b91507f746f6b656e2072656d61696e64657200000000000000000000000000000000006000830152602082019050919050565b600061467f602083614c83565b91507f5361666545524332303a206c6f772d6c6576656c2063616c6c206661696c65646000830152602082019050919050565b60006146bf601083614c83565b91507f79546f6b656e2072656d61696e646572000000000000000000000000000000006000830152602082019050919050565b60006146ff601683614c83565b91507f7472616e73666572206f6620455448206661696c6564000000000000000000006000830152602082019050919050565b600061473f600f83614c83565b91507f43555256452072656d61696e64657200000000000000000000000000000000006000830152602082019050919050565b600061477f602083614c83565b91507f4f776e61626c653a2063616c6c6572206973206e6f7420746865206f776e65726000830152602082019050919050565b60006147bf600083614c78565b9150600082019050919050565b60006147d9601e83614c83565b91507f6465706f736974206d7573742062652067726561746572207468616e203000006000830152602082019050919050565b6000614819602a83614c83565b91507f5361666545524332303a204552433230206f7065726174696f6e20646964206e60008301527f6f742073756363656564000000000000000000000000000000000000000000006020830152604082019050919050565b600061487f601f83614c83565b91507f5265656e7472616e637947756172643a207265656e7472616e742063616c6c006000830152602082019050919050565b60006148bf603683614c83565b91507f5361666545524332303a20617070726f76652066726f6d206e6f6e2d7a65726f60008301527f20746f206e6f6e2d7a65726f20616c6c6f77616e6365000000000000000000006020830152604082019050919050565b6000614925601f83614c83565b91507f5361666545524332303a2063616c6c20746f206e6f6e2d636f6e7472616374006000830152602082019050919050565b61496181614ce4565b82525050565b61497081614ce4565b82525050565b6000614982828461458c565b915081905092915050565b6000614998826147b2565b9150819050919050565b60006020820190506149b76000830184614517565b92915050565b60006020820190506149d26000830184614508565b92915050565b60006040820190506149ed6000830185614517565b6149fa6020830184614517565b9392505050565b6000606082019050614a166000830186614517565b614a236020830185614517565b614a306040830184614967565b949350505050565b6000604082019050614a4d6000830185614517565b614a5a6020830184614967565b9392505050565b600060a082019050614a766000830185614526565b614a8360808301846145bd565b9392505050565b6000602082019050614a9f600083018461457d565b92915050565b60006020820190508181036000830152614abe816145cc565b9050919050565b60006020820190508181036000830152614ade81614632565b9050919050565b60006020820190508181036000830152614afe81614672565b9050919050565b60006020820190508181036000830152614b1e816146b2565b9050919050565b60006020820190508181036000830152614b3e816146f2565b9050919050565b60006020820190508181036000830152614b5e81614732565b9050919050565b60006020820190508181036000830152614b7e81614772565b9050919050565b60006020820190508181036000830152614b9e816147cc565b9050919050565b60006020820190508181036000830152614bbe8161480c565b9050919050565b60006020820190508181036000830152614bde81614872565b9050919050565b60006020820190508181036000830152614bfe816148b2565b9050919050565b60006020820190508181036000830152614c1e81614918565b9050919050565b6000602082019050614c3a6000830184614967565b92915050565b6000819050919050565b600060049050919050565b600081519050919050565b6000602082019050919050565b600081905092915050565b600081905092915050565b600082825260208201905092915050565b6000614c9f82614cc4565b9050919050565b60008115159050919050565b6000614cbd82614c94565b9050919050565b600073ffffffffffffffffffffffffffffffffffffffff82169050919050565b6000819050919050565b6000614cf982614d12565b9050919050565b6000614d0b82614ce4565b9050919050565b6000614d1d82614d24565b9050919050565b6000614d2f82614cc4565b9050919050565b60005b83811015614d54578082015181840152602081019050614d39565b83811115614d63576000848401525b50505050565b614d7281614c94565b8114614d7d57600080fd5b50565b614d8981614ca6565b8114614d9457600080fd5b50565b614da081614cb2565b8114614dab57600080fd5b50565b614db781614ce4565b8114614dc257600080fd5b5056fea365627a7a72315820caaeb4844386112adaf488cda0320331f12826672aeaf38b1e9cb02fcba007836c6578706572696d656e74616cf564736f6c634300050c0040",
  "source": "pragma solidity ^0.5.0;\npragma experimental ABIEncoderV2;\n\ninterface IERC20 {\n    function totalSupply() external view returns (uint256);\n    function balanceOf(address account) external view returns (uint256);\n    function transfer(address recipient, uint256 amount) external returns (bool);\n    function allowance(address owner, address spender) external view returns (uint256);\n    function approve(address spender, uint256 amount) external returns (bool);\n    function transferFrom(address sender, address recipient, uint256 amount) external returns (bool);\n    event Transfer(address indexed from, address indexed to, uint256 value);\n    event Approval(address indexed owner, address indexed spender, uint256 value);\n}\n\ncontract Context {\n    constructor () internal { }\n    // solhint-disable-previous-line no-empty-blocks\n\n    function _msgSender() internal view returns (address payable) {\n        return msg.sender;\n    }\n\n    function _msgData() internal view returns (bytes memory) {\n        this; // silence state mutability warning without generating bytecode - see https://github.com/ethereum/solidity/issues/2691\n        return msg.data;\n    }\n}\n\ncontract ReentrancyGuard {\n    uint256 private _guardCounter;\n\n    constructor () internal {\n        _guardCounter = 1;\n    }\n\n    modifier nonReentrant() {\n        _guardCounter += 1;\n        uint256 localCounter = _guardCounter;\n        _;\n        require(localCounter == _guardCounter, \"ReentrancyGuard: reentrant call\");\n    }\n}\n\ncontract Ownable is Context {\n    address private _owner;\n\n    event OwnershipTransferred(address indexed previousOwner, address indexed newOwner);\n    constructor () internal {\n        _owner = _msgSender();\n        emit OwnershipTransferred(address(0), _owner);\n    }\n    function owner() public view returns (address) {\n        return _owner;\n    }\n    modifier onlyOwner() {\n        require(isOwner(), \"Ownable: caller is not the owner\");\n        _;\n    }\n    function isOwner() public view returns (bool) {\n        return _msgSender() == _owner;\n    }\n    function renounceOwnership() public onlyOwner {\n        emit OwnershipTransferred(_owner, address(0));\n        _owner = address(0);\n    }\n    function transferOwnership(address newOwner) public onlyOwner {\n        _transferOwnership(newOwner);\n    }\n    function _transferOwnership(address newOwner) internal {\n        require(newOwner != address(0), \"Ownable: new owner is the zero address\");\n        emit OwnershipTransferred(_owner, newOwner);\n        _owner = newOwner;\n    }\n}\n\nlibrary SafeMath {\n    function add(uint256 a, uint256 b) internal pure returns (uint256) {\n        uint256 c = a + b;\n        require(c >= a, \"SafeMath: addition overflow\");\n\n        return c;\n    }\n    function sub(uint256 a, uint256 b) internal pure returns (uint256) {\n        return sub(a, b, \"SafeMath: subtraction overflow\");\n    }\n    function sub(uint256 a, uint256 b, string memory errorMessage) internal pure returns (uint256) {\n        require(b <= a, errorMessage);\n        uint256 c = a - b;\n\n        return c;\n    }\n    function mul(uint256 a, uint256 b) internal pure returns (uint256) {\n        if (a == 0) {\n            return 0;\n        }\n\n        uint256 c = a * b;\n        require(c / a == b, \"SafeMath: multiplication overflow\");\n\n        return c;\n    }\n    function div(uint256 a, uint256 b) internal pure returns (uint256) {\n        return div(a, b, \"SafeMath: division by zero\");\n    }\n    function div(uint256 a, uint256 b, string memory errorMessage) internal pure returns (uint256) {\n        // Solidity only automatically asserts when dividing by 0\n        require(b > 0, errorMessage);\n        uint256 c = a / b;\n\n        return c;\n    }\n    function mod(uint256 a, uint256 b) internal pure returns (uint256) {\n        return mod(a, b, \"SafeMath: modulo by zero\");\n    }\n    function mod(uint256 a, uint256 b, string memory errorMessage) internal pure returns (uint256) {\n        require(b != 0, errorMessage);\n        return a % b;\n    }\n}\n\nlibrary Address {\n    function isContract(address account) internal view returns (bool) {\n        bytes32 codehash;\n        bytes32 accountHash = 0xc5d2460186f7233c927e7db2dcc703c0e500b653ca82273b7bfad8045d85a470;\n        // solhint-disable-next-line no-inline-assembly\n        assembly { codehash := extcodehash(account) }\n        return (codehash != 0x0 && codehash != accountHash);\n    }\n    function toPayable(address account) internal pure returns (address payable) {\n        return address(uint160(account));\n    }\n    function sendValue(address payable recipient, uint256 amount) internal {\n        require(address(this).balance >= amount, \"Address: insufficient balance\");\n\n        // solhint-disable-next-line avoid-call-value\n        (bool success, ) = recipient.call.value(amount)(\"\");\n        require(success, \"Address: unable to send value, recipient may have reverted\");\n    }\n}\n\nlibrary SafeERC20 {\n    using SafeMath for uint256;\n    using Address for address;\n\n    function safeTransfer(IERC20 token, address to, uint256 value) internal {\n        callOptionalReturn(token, abi.encodeWithSelector(token.transfer.selector, to, value));\n    }\n    function safeTransferFrom(IERC20 token, address from, address to, uint256 value) internal {\n        callOptionalReturn(token, abi.encodeWithSelector(token.transferFrom.selector, from, to, value));\n    }\n    function safeApprove(IERC20 token, address spender, uint256 value) internal {\n        require((value == 0) || (token.allowance(address(this), spender) == 0),\n            \"SafeERC20: approve from non-zero to non-zero allowance\"\n        );\n        callOptionalReturn(token, abi.encodeWithSelector(token.approve.selector, spender, value));\n    }\n    function callOptionalReturn(IERC20 token, bytes memory data) private {\n        require(address(token).isContract(), \"SafeERC20: call to non-contract\");\n\n        // solhint-disable-next-line avoid-low-level-calls\n        (bool success, bytes memory returndata) = address(token).call(data);\n        require(success, \"SafeERC20: low-level call failed\");\n\n        if (returndata.length > 0) { // Return data is optional\n            // solhint-disable-next-line max-line-length\n            require(abi.decode(returndata, (bool)), \"SafeERC20: ERC20 operation did not succeed\");\n        }\n    }\n}\n\ninterface yERC20 {\n  function deposit(uint256 _amount) external;\n}\n\n// Solidity Interface\n\ninterface ICurveFi {\n\n  function add_liquidity(\n    uint256[4] calldata amounts,\n    uint256 min_mint_amount\n  ) external;\n  function remove_liquidity_imbalance(\n    uint256[4] calldata amounts,\n    uint256 max_burn_amount\n  ) external;\n}\n\ncontract yCurveZap is ReentrancyGuard, Ownable {\n  using SafeERC20 for IERC20;\n  using Address for address;\n  using SafeMath for uint256;\n\n  address public DAI;\n  address public yDAI;\n  address public USDC;\n  address public yUSDC;\n  address public USDT;\n  address public yUSDT;\n  address public TUSD;\n  address public yTUSD;\n  address public SWAP;\n  address public CURVE;\n\n  constructor () public {\n    DAI = address(0x6B175474E89094C44Da98b954EedeAC495271d0F);\n    yDAI = address(0x16de59092dAE5CcF4A1E6439D611fd0653f0Bd01);\n\n    USDC = address(0xA0b86991c6218b36c1d19D4a2e9Eb0cE3606eB48);\n    yUSDC = address(0xd6aD7a6750A7593E092a9B218d66C0A814a3436e);\n\n    USDT = address(0xdAC17F958D2ee523a2206206994597C13D831ec7);\n    yUSDT = address(0x83f798e925BcD4017Eb265844FDDAbb448f1707D);\n\n    TUSD = address(0x0000000000085d4780B73119b644AE5ecd22b376);\n    yTUSD = address(0x73a052500105205d34Daf004eAb301916DA8190f);\n\n    SWAP = address(0x45F783CCE6B7FF23B2ab2D70e416cdb7D6055f51);\n    CURVE = address(0xdF5e0e81Dff6FAF3A7e52BA697820c5e32D806A8);\n\n    approveToken();\n  }\n\n  function() external payable {\n\n  }\n\n  function approveToken() public {\n      IERC20(DAI).safeApprove(yDAI, uint(-1));\n      IERC20(yDAI).safeApprove(SWAP, uint(-1));\n\n      IERC20(USDC).safeApprove(yUSDC, uint(-1));\n      IERC20(yUSDC).safeApprove(SWAP, uint(-1));\n\n      IERC20(USDT).safeApprove(yUSDT, uint(-1));\n      IERC20(yUSDT).safeApprove(SWAP, uint(-1));\n\n      IERC20(TUSD).safeApprove(yTUSD, uint(-1));\n      IERC20(yTUSD).safeApprove(SWAP, uint(-1));\n  }\n\n  function depositDAI(uint256 _amount)\n      external\n      nonReentrant\n  {\n      require(_amount > 0, \"deposit must be greater than 0\");\n      IERC20(DAI).safeTransferFrom(msg.sender, address(this), _amount);\n      yERC20(yDAI).deposit(_amount);\n      require(IERC20(DAI).balanceOf(address(this)) == 0, \"token remainder\");\n      ICurveFi(SWAP).add_liquidity([IERC20(yDAI).balanceOf(address(this)),0,0,0],0);\n      require(IERC20(yDAI).balanceOf(address(this)) == 0, \"yToken remainder\");\n      IERC20(CURVE).safeTransfer(msg.sender, IERC20(CURVE).balanceOf(address(this)));\n      require(IERC20(CURVE).balanceOf(address(this)) == 0, \"CURVE remainder\");\n  }\n\n  function depositUSDC(uint256 _amount)\n      external\n      nonReentrant\n  {\n      require(_amount > 0, \"deposit must be greater than 0\");\n      IERC20(USDC).safeTransferFrom(msg.sender, address(this), _amount);\n      yERC20(yUSDC).deposit(_amount);\n      require(IERC20(USDC).balanceOf(address(this)) == 0, \"token remainder\");\n      ICurveFi(SWAP).add_liquidity([0,IERC20(yUSDC).balanceOf(address(this)),0,0],0);\n      require(IERC20(yUSDC).balanceOf(address(this)) == 0, \"yToken remainder\");\n      IERC20(CURVE).safeTransfer(msg.sender, IERC20(CURVE).balanceOf(address(this)));\n      require(IERC20(CURVE).balanceOf(address(this)) == 0, \"CURVE remainder\");\n  }\n\n  function depositUSDT(uint256 _amount)\n      external\n      nonReentrant\n  {\n      require(_amount > 0, \"deposit must be greater than 0\");\n      IERC20(USDT).safeTransferFrom(msg.sender, address(this), _amount);\n      yERC20(yUSDT).deposit(_amount);\n      require(IERC20(USDT).balanceOf(address(this)) == 0, \"token remainder\");\n      ICurveFi(SWAP).add_liquidity([0,0,IERC20(yUSDT).balanceOf(address(this)),0],0);\n      require(IERC20(yUSDT).balanceOf(address(this)) == 0, \"yToken remainder\");\n      IERC20(CURVE).safeTransfer(msg.sender, IERC20(CURVE).balanceOf(address(this)));\n      require(IERC20(CURVE).balanceOf(address(this)) == 0, \"CURVE remainder\");\n  }\n\n  function depositTUSD(uint256 _amount)\n      external\n      nonReentrant\n  {\n      require(_amount > 0, \"deposit must be greater than 0\");\n      IERC20(TUSD).safeTransferFrom(msg.sender, address(this), _amount);\n      yERC20(yTUSD).deposit(_amount);\n      require(IERC20(TUSD).balanceOf(address(this)) == 0, \"token remainder\");\n      ICurveFi(SWAP).add_liquidity([0,0,0,IERC20(yTUSD).balanceOf(address(this))],0);\n      require(IERC20(yTUSD).balanceOf(address(this)) == 0, \"yToken remainder\");\n      IERC20(CURVE).safeTransfer(msg.sender, IERC20(CURVE).balanceOf(address(this)));\n      require(IERC20(CURVE).balanceOf(address(this)) == 0, \"CURVE remainder\");\n  }\n\n  function withdrawDAI(uint256 _amount)\n      external\n      nonReentrant\n  {\n      require(_amount > 0, \"deposit must be greater than 0\");\n      IERC20(CURVE).safeTransferFrom(msg.sender, address(this), _amount);\n      ICurveFi(SWAP).remove_liquidity_imbalance([IERC20(CURVE).balanceOf(address(this)),0,0,0],0);\n      require(IERC20(CURVE).balanceOf(address(this)) == 0, \"CURVE remainder\");\n      IERC20(yDAI).safeTransfer(msg.sender, IERC20(yDAI).balanceOf(address(this)));\n      require(IERC20(yDAI).balanceOf(address(this)) == 0, \"yToken remainder\");\n  }\n\n  function withdrawUSDC(uint256 _amount)\n      external\n      nonReentrant\n  {\n      require(_amount > 0, \"deposit must be greater than 0\");\n      IERC20(CURVE).safeTransferFrom(msg.sender, address(this), _amount);\n      ICurveFi(SWAP).remove_liquidity_imbalance([0,IERC20(CURVE).balanceOf(address(this)),0,0],0);\n      require(IERC20(CURVE).balanceOf(address(this)) == 0, \"CURVE remainder\");\n      IERC20(yUSDC).safeTransfer(msg.sender, IERC20(yUSDC).balanceOf(address(this)));\n      require(IERC20(yUSDC).balanceOf(address(this)) == 0, \"yToken remainder\");\n  }\n\n  function withdrawUSDT(uint256 _amount)\n      external\n      nonReentrant\n  {\n      require(_amount > 0, \"deposit must be greater than 0\");\n      IERC20(CURVE).safeTransferFrom(msg.sender, address(this), _amount);\n      ICurveFi(SWAP).remove_liquidity_imbalance([0,0,IERC20(CURVE).balanceOf(address(this)),0],0);\n      require(IERC20(CURVE).balanceOf(address(this)) == 0, \"CURVE remainder\");\n      IERC20(yUSDT).safeTransfer(msg.sender, IERC20(yUSDT).balanceOf(address(this)));\n      require(IERC20(yUSDT).balanceOf(address(this)) == 0, \"yToken remainder\");\n  }\n\n  function withdrawTUSD(uint256 _amount)\n      external\n      nonReentrant\n  {\n      require(_amount > 0, \"deposit must be greater than 0\");\n      IERC20(CURVE).safeTransferFrom(msg.sender, address(this), _amount);\n      ICurveFi(SWAP).remove_liquidity_imbalance([0,0,0,IERC20(CURVE).balanceOf(address(this))],0);\n      require(IERC20(CURVE).balanceOf(address(this)) == 0, \"CURVE remainder\");\n      IERC20(yTUSD).safeTransfer(msg.sender, IERC20(yUSDT).balanceOf(address(this)));\n      require(IERC20(yTUSD).balanceOf(address(this)) == 0, \"yToken remainder\");\n  }\n\n  // incase of half-way error\n  function inCaseTokenGetsStuck(IERC20 _TokenAddress) onlyOwner public {\n      uint qty = _TokenAddress.balanceOf(address(this));\n      _TokenAddress.safeTransfer(msg.sender, qty);\n  }\n\n  // incase of half-way error\n  function inCaseETHGetsStuck() onlyOwner public{\n      (bool result, ) = msg.sender.call.value(address(this).balance)(\"\");\n      require(result, \"transfer of ETH failed\");\n  }\n}\n",
  "sourcePath": "D:/ftm/itoken/contracts/yCurveZap.sol",
  "compiler": {
    "name": "solc",
    "version": "0.5.12+commit.7709ece9.Emscripten.clang"
  },
  "schemaVersion": "3.0.19",
  "updatedAt": "2020-02-16T06:12:45.379Z",
  "devdoc": {
    "methods": {}
  },
  "userdoc": {
    "methods": {}
  }
}