{
  "contractName": "yCurveZapOut",
  "abi": [
    {
      "inputs": [],
      "payable": false,
      "stateMutability": "nonpayable",
      "type": "constructor"
    },
    {
      "anonymous": false,
      "inputs": [
        {
          "indexed": true,
          "internalType": "address",
          "name": "previousOwner",
          "type": "address"
        },
        {
          "indexed": true,
          "internalType": "address",
          "name": "newOwner",
          "type": "address"
        }
      ],
      "name": "OwnershipTransferred",
      "type": "event"
    },
    {
      "payable": true,
      "stateMutability": "payable",
      "type": "fallback"
    },
    {
      "constant": true,
      "inputs": [],
      "name": "CURVE",
      "outputs": [
        {
          "internalType": "address",
          "name": "",
          "type": "address"
        }
      ],
      "payable": false,
      "stateMutability": "view",
      "type": "function"
    },
    {
      "constant": true,
      "inputs": [],
      "name": "DAI",
      "outputs": [
        {
          "internalType": "address",
          "name": "",
          "type": "address"
        }
      ],
      "payable": false,
      "stateMutability": "view",
      "type": "function"
    },
    {
      "constant": true,
      "inputs": [],
      "name": "SWAP",
      "outputs": [
        {
          "internalType": "address",
          "name": "",
          "type": "address"
        }
      ],
      "payable": false,
      "stateMutability": "view",
      "type": "function"
    },
    {
      "constant": true,
      "inputs": [],
      "name": "TUSD",
      "outputs": [
        {
          "internalType": "address",
          "name": "",
          "type": "address"
        }
      ],
      "payable": false,
      "stateMutability": "view",
      "type": "function"
    },
    {
      "constant": true,
      "inputs": [],
      "name": "USDC",
      "outputs": [
        {
          "internalType": "address",
          "name": "",
          "type": "address"
        }
      ],
      "payable": false,
      "stateMutability": "view",
      "type": "function"
    },
    {
      "constant": true,
      "inputs": [],
      "name": "USDT",
      "outputs": [
        {
          "internalType": "address",
          "name": "",
          "type": "address"
        }
      ],
      "payable": false,
      "stateMutability": "view",
      "type": "function"
    },
    {
      "constant": true,
      "inputs": [],
      "name": "isOwner",
      "outputs": [
        {
          "internalType": "bool",
          "name": "",
          "type": "bool"
        }
      ],
      "payable": false,
      "stateMutability": "view",
      "type": "function"
    },
    {
      "constant": true,
      "inputs": [],
      "name": "owner",
      "outputs": [
        {
          "internalType": "address",
          "name": "",
          "type": "address"
        }
      ],
      "payable": false,
      "stateMutability": "view",
      "type": "function"
    },
    {
      "constant": false,
      "inputs": [],
      "name": "renounceOwnership",
      "outputs": [],
      "payable": false,
      "stateMutability": "nonpayable",
      "type": "function"
    },
    {
      "constant": false,
      "inputs": [
        {
          "internalType": "address",
          "name": "newOwner",
          "type": "address"
        }
      ],
      "name": "transferOwnership",
      "outputs": [],
      "payable": false,
      "stateMutability": "nonpayable",
      "type": "function"
    },
    {
      "constant": true,
      "inputs": [],
      "name": "yDAI",
      "outputs": [
        {
          "internalType": "address",
          "name": "",
          "type": "address"
        }
      ],
      "payable": false,
      "stateMutability": "view",
      "type": "function"
    },
    {
      "constant": true,
      "inputs": [],
      "name": "yTUSD",
      "outputs": [
        {
          "internalType": "address",
          "name": "",
          "type": "address"
        }
      ],
      "payable": false,
      "stateMutability": "view",
      "type": "function"
    },
    {
      "constant": true,
      "inputs": [],
      "name": "yUSDC",
      "outputs": [
        {
          "internalType": "address",
          "name": "",
          "type": "address"
        }
      ],
      "payable": false,
      "stateMutability": "view",
      "type": "function"
    },
    {
      "constant": true,
      "inputs": [],
      "name": "yUSDT",
      "outputs": [
        {
          "internalType": "address",
          "name": "",
          "type": "address"
        }
      ],
      "payable": false,
      "stateMutability": "view",
      "type": "function"
    },
    {
      "constant": false,
      "inputs": [],
      "name": "approveToken",
      "outputs": [],
      "payable": false,
      "stateMutability": "nonpayable",
      "type": "function"
    },
    {
      "constant": true,
      "inputs": [
        {
          "internalType": "uint256",
          "name": "_amount",
          "type": "uint256"
        },
        {
          "internalType": "address",
          "name": "_token",
          "type": "address"
        }
      ],
      "name": "checkSlippage",
      "outputs": [
        {
          "internalType": "bool",
          "name": "",
          "type": "bool"
        }
      ],
      "payable": false,
      "stateMutability": "view",
      "type": "function"
    },
    {
      "constant": false,
      "inputs": [
        {
          "internalType": "uint256",
          "name": "_amount",
          "type": "uint256"
        }
      ],
      "name": "withdrawCurve",
      "outputs": [],
      "payable": false,
      "stateMutability": "nonpayable",
      "type": "function"
    },
    {
      "constant": false,
      "inputs": [
        {
          "internalType": "uint256",
          "name": "_amount",
          "type": "uint256"
        }
      ],
      "name": "withdrawDAI",
      "outputs": [],
      "payable": false,
      "stateMutability": "nonpayable",
      "type": "function"
    },
    {
      "constant": false,
      "inputs": [
        {
          "internalType": "uint256",
          "name": "_amount",
          "type": "uint256"
        }
      ],
      "name": "withdrawUSDC",
      "outputs": [],
      "payable": false,
      "stateMutability": "nonpayable",
      "type": "function"
    },
    {
      "constant": false,
      "inputs": [
        {
          "internalType": "uint256",
          "name": "_amount",
          "type": "uint256"
        }
      ],
      "name": "withdrawUSDT",
      "outputs": [],
      "payable": false,
      "stateMutability": "nonpayable",
      "type": "function"
    },
    {
      "constant": false,
      "inputs": [
        {
          "internalType": "uint256",
          "name": "_amount",
          "type": "uint256"
        }
      ],
      "name": "withdrawTUSD",
      "outputs": [],
      "payable": false,
      "stateMutability": "nonpayable",
      "type": "function"
    },
    {
      "constant": false,
      "inputs": [
        {
          "internalType": "contract IERC20",
          "name": "_TokenAddress",
          "type": "address"
        }
      ],
      "name": "inCaseTokenGetsStuck",
      "outputs": [],
      "payable": false,
      "stateMutability": "nonpayable",
      "type": "function"
    },
    {
      "constant": false,
      "inputs": [],
      "name": "inCaseETHGetsStuck",
      "outputs": [],
      "payable": false,
      "stateMutability": "nonpayable",
      "type": "function"
    }
  ],
  "bytecode": "0x60806040523480156200001157600080fd5b5060016000819055506200002a6200044a60201b60201c565b600160006101000a81548173ffffffffffffffffffffffffffffffffffffffff021916908373ffffffffffffffffffffffffffffffffffffffff160217905550600160009054906101000a900473ffffffffffffffffffffffffffffffffffffffff1673ffffffffffffffffffffffffffffffffffffffff16600073ffffffffffffffffffffffffffffffffffffffff167f8be0079c531659141344cd1fd0a4f28419497f9722a3daafe3b4186f6b6457e060405160405180910390a3736b175474e89094c44da98b954eedeac495271d0f600260006101000a81548173ffffffffffffffffffffffffffffffffffffffff021916908373ffffffffffffffffffffffffffffffffffffffff1602179055507316de59092dae5ccf4a1e6439d611fd0653f0bd01600360006101000a81548173ffffffffffffffffffffffffffffffffffffffff021916908373ffffffffffffffffffffffffffffffffffffffff16021790555073a0b86991c6218b36c1d19d4a2e9eb0ce3606eb48600460006101000a81548173ffffffffffffffffffffffffffffffffffffffff021916908373ffffffffffffffffffffffffffffffffffffffff16021790555073d6ad7a6750a7593e092a9b218d66c0a814a3436e600560006101000a81548173ffffffffffffffffffffffffffffffffffffffff021916908373ffffffffffffffffffffffffffffffffffffffff16021790555073dac17f958d2ee523a2206206994597c13d831ec7600660006101000a81548173ffffffffffffffffffffffffffffffffffffffff021916908373ffffffffffffffffffffffffffffffffffffffff1602179055507383f798e925bcd4017eb265844fddabb448f1707d600760006101000a81548173ffffffffffffffffffffffffffffffffffffffff021916908373ffffffffffffffffffffffffffffffffffffffff1602179055506e085d4780b73119b644ae5ecd22b376600860006101000a81548173ffffffffffffffffffffffffffffffffffffffff021916908373ffffffffffffffffffffffffffffffffffffffff1602179055507373a052500105205d34daf004eab301916da8190f600960006101000a81548173ffffffffffffffffffffffffffffffffffffffff021916908373ffffffffffffffffffffffffffffffffffffffff1602179055507345f783cce6b7ff23b2ab2d70e416cdb7d6055f51600a60006101000a81548173ffffffffffffffffffffffffffffffffffffffff021916908373ffffffffffffffffffffffffffffffffffffffff16021790555073df5e0e81dff6faf3a7e52ba697820c5e32d806a8600b60006101000a81548173ffffffffffffffffffffffffffffffffffffffff021916908373ffffffffffffffffffffffffffffffffffffffff160217905550620004446200045260201b60201c565b62000e1b565b600033905090565b620004e8600a60009054906101000a900473ffffffffffffffffffffffffffffffffffffffff167fffffffffffffffffffffffffffffffffffffffffffffffffffffffffffffffff600360009054906101000a900473ffffffffffffffffffffffffffffffffffffffff1673ffffffffffffffffffffffffffffffffffffffff16620006ac60201b620044f6179092919060201c565b6200057e600a60009054906101000a900473ffffffffffffffffffffffffffffffffffffffff167fffffffffffffffffffffffffffffffffffffffffffffffffffffffffffffffff600560009054906101000a900473ffffffffffffffffffffffffffffffffffffffff1673ffffffffffffffffffffffffffffffffffffffff16620006ac60201b620044f6179092919060201c565b62000614600a60009054906101000a900473ffffffffffffffffffffffffffffffffffffffff167fffffffffffffffffffffffffffffffffffffffffffffffffffffffffffffffff600760009054906101000a900473ffffffffffffffffffffffffffffffffffffffff1673ffffffffffffffffffffffffffffffffffffffff16620006ac60201b620044f6179092919060201c565b620006aa600a60009054906101000a900473ffffffffffffffffffffffffffffffffffffffff167fffffffffffffffffffffffffffffffffffffffffffffffffffffffffffffffff600960009054906101000a900473ffffffffffffffffffffffffffffffffffffffff1673ffffffffffffffffffffffffffffffffffffffff16620006ac60201b620044f6179092919060201c565b565b60008114806200074c575060008373ffffffffffffffffffffffffffffffffffffffff1663dd62ed3e30856040518363ffffffff1660e01b8152600401620006f692919062000c5e565b60206040518083038186803b1580156200070f57600080fd5b505afa15801562000724573d6000803e3d6000fd5b505050506040513d601f19601f820116820180604052506200074a919081019062000a6c565b145b6200078e576040517f08c379a0000000000000000000000000000000000000000000000000000000008152600401620007859062000cfc565b60405180910390fd5b62000832838473ffffffffffffffffffffffffffffffffffffffff1663095ea7b3905060e01b8484604051602401620007c992919062000c8b565b604051602081830303815290604052907bffffffffffffffffffffffffffffffffffffffffffffffffffffffff19166020820180517bffffffffffffffffffffffffffffffffffffffffffffffffffffffff83818316178352505050506200083760201b60201c565b505050565b620008638273ffffffffffffffffffffffffffffffffffffffff16620009c660201b620049cb1760201c565b620008a5576040517f08c379a00000000000000000000000000000000000000000000000000000000081526004016200089c9062000d1e565b60405180910390fd5b600060608373ffffffffffffffffffffffffffffffffffffffff1683604051620008d0919062000c45565b6000604051808303816000865af19150503d80600081146200090f576040519150601f19603f3d011682016040523d82523d6000602084013e62000914565b606091505b5091509150816200095c576040517f08c379a0000000000000000000000000000000000000000000000000000000008152600401620009539062000cb8565b60405180910390fd5b600081511115620009c057808060200190516200097d919081019062000a40565b620009bf576040517f08c379a0000000000000000000000000000000000000000000000000000000008152600401620009b69062000cda565b60405180910390fd5b5b50505050565b60008060007fc5d2460186f7233c927e7db2dcc703c0e500b653ca82273b7bfad8045d85a47060001b9050833f91506000801b821415801562000a095750808214155b92505050919050565b60008151905062000a238162000de7565b92915050565b60008151905062000a3a8162000e01565b92915050565b60006020828403121562000a5357600080fd5b600062000a638482850162000a12565b91505092915050565b60006020828403121562000a7f57600080fd5b600062000a8f8482850162000a29565b91505092915050565b62000aa38162000d67565b82525050565b600062000ab68262000d40565b62000ac2818562000d4b565b935062000ad481856020860162000db1565b80840191505092915050565b600062000aef60208362000d56565b91507f5361666545524332303a206c6f772d6c6576656c2063616c6c206661696c65646000830152602082019050919050565b600062000b31602a8362000d56565b91507f5361666545524332303a204552433230206f7065726174696f6e20646964206e60008301527f6f742073756363656564000000000000000000000000000000000000000000006020830152604082019050919050565b600062000b9960368362000d56565b91507f5361666545524332303a20617070726f76652066726f6d206e6f6e2d7a65726f60008301527f20746f206e6f6e2d7a65726f20616c6c6f77616e6365000000000000000000006020830152604082019050919050565b600062000c01601f8362000d56565b91507f5361666545524332303a2063616c6c20746f206e6f6e2d636f6e7472616374006000830152602082019050919050565b62000c3f8162000da7565b82525050565b600062000c53828462000aa9565b915081905092915050565b600060408201905062000c75600083018562000a98565b62000c84602083018462000a98565b9392505050565b600060408201905062000ca2600083018562000a98565b62000cb1602083018462000c34565b9392505050565b6000602082019050818103600083015262000cd38162000ae0565b9050919050565b6000602082019050818103600083015262000cf58162000b22565b9050919050565b6000602082019050818103600083015262000d178162000b8a565b9050919050565b6000602082019050818103600083015262000d398162000bf2565b9050919050565b600081519050919050565b600081905092915050565b600082825260208201905092915050565b600062000d748262000d87565b9050919050565b60008115159050919050565b600073ffffffffffffffffffffffffffffffffffffffff82169050919050565b6000819050919050565b60005b8381101562000dd157808201518184015260208101905062000db4565b8381111562000de1576000848401525b50505050565b62000df28162000d7b565b811462000dfe57600080fd5b50565b62000e0c8162000da7565b811462000e1857600080fd5b50565b615cca8062000e2b6000396000f3fe6080604052600436106101405760003560e01c806389a30271116100b6578063c54e44eb1161006f578063c54e44eb146103fd578063db81f99b14610428578063e0bab4c414610451578063e31ff1be1461047c578063f2fde38b146104a7578063f60a15ed146104d057610140565b806389a30271146102ff5780638da5cb5b1461032a5780638f32d59b14610355578063994239711461038057806399b71d5c146103bd5780639add7438146103d457610140565b80633a3c3b87116101085780633a3c3b87146102155780633ea521ef146102405780635c531d6a14610269578063715018a614610292578063756bb1cc146102a95780638323550b146102d457610140565b8063041401c81461014257806304d841081461016b57806317e5a9a41461019657806319d9e008146101c15780632e8d6e18146101ec575b005b34801561014e57600080fd5b5061016960048036036101649190810190614afa565b6104e7565b005b34801561017757600080fd5b506101806107c6565b60405161018d9190615355565b60405180910390f35b3480156101a257600080fd5b506101ab6107ec565b6040516101b89190615355565b60405180910390f35b3480156101cd57600080fd5b506101d6610812565b6040516101e39190615355565b60405180910390f35b3480156101f857600080fd5b50610213600480360361020e9190810190614ad1565b610838565b005b34801561022157600080fd5b5061022a61093b565b6040516102379190615355565b60405180910390f35b34801561024c57600080fd5b5061026760048036036102629190810190614afa565b610961565b005b34801561027557600080fd5b50610290600480360361028b9190810190614afa565b6115c8565b005b34801561029e57600080fd5b506102a761222f565b005b3480156102b557600080fd5b506102be612337565b6040516102cb9190615355565b60405180910390f35b3480156102e057600080fd5b506102e961235d565b6040516102f69190615355565b60405180910390f35b34801561030b57600080fd5b50610314612383565b6040516103219190615355565b60405180910390f35b34801561033657600080fd5b5061033f6123a9565b60405161034c9190615355565b60405180910390f35b34801561036157600080fd5b5061036a6123d3565b6040516103779190615414565b60405180910390f35b34801561038c57600080fd5b506103a760048036036103a29190810190614b4c565b612432565b6040516103b49190615414565b60405180910390f35b3480156103c957600080fd5b506103d2612576565b005b3480156103e057600080fd5b506103fb60048036036103f69190810190614afa565b6127b4565b005b34801561040957600080fd5b5061041261341b565b60405161041f9190615355565b60405180910390f35b34801561043457600080fd5b5061044f600480360361044a9190810190614afa565b613441565b005b34801561045d57600080fd5b506104666140a8565b6040516104739190615355565b60405180910390f35b34801561048857600080fd5b506104916140ce565b60405161049e9190615355565b60405180910390f35b3480156104b357600080fd5b506104ce60048036036104c99190810190614a7f565b6140f4565b005b3480156104dc57600080fd5b506104e5614147565b005b6000811161052a576040517f08c379a00000000000000000000000000000000000000000000000000000000081526004016105219061596d565b60405180910390fd5b610579333083600b60009054906101000a900473ffffffffffffffffffffffffffffffffffffffff1673ffffffffffffffffffffffffffffffffffffffff16614254909392919063ffffffff16565b600a60009054906101000a900473ffffffffffffffffffffffffffffffffffffffff1673ffffffffffffffffffffffffffffffffffffffff16637d49d875600b60009054906101000a900473ffffffffffffffffffffffffffffffffffffffff1673ffffffffffffffffffffffffffffffffffffffff166370a08231306040518263ffffffff1660e01b81526004016106129190615370565b60206040518083038186803b15801561062a57600080fd5b505afa15801561063e573d6000803e3d6000fd5b505050506040513d601f19601f820116820180604052506106629190810190614b23565b604051806080016040528060008152602001600081526020016000815260200160008152506040518363ffffffff1660e01b81526004016106a4929190615a68565b600060405180830381600087803b1580156106be57600080fd5b505af11580156106d2573d6000803e3d6000fd5b505050506000600b60009054906101000a900473ffffffffffffffffffffffffffffffffffffffff1673ffffffffffffffffffffffffffffffffffffffff166370a08231306040518263ffffffff1660e01b81526004016107339190615370565b60206040518083038186803b15801561074b57600080fd5b505afa15801561075f573d6000803e3d6000fd5b505050506040513d601f19601f820116820180604052506107839190810190614b23565b146107c3576040517f08c379a00000000000000000000000000000000000000000000000000000000081526004016107ba906158cd565b60405180910390fd5b50565b600a60009054906101000a900473ffffffffffffffffffffffffffffffffffffffff1681565b600760009054906101000a900473ffffffffffffffffffffffffffffffffffffffff1681565b600560009054906101000a900473ffffffffffffffffffffffffffffffffffffffff1681565b6108406123d3565b61087f576040517f08c379a00000000000000000000000000000000000000000000000000000000081526004016108769061592d565b60405180910390fd5b60008173ffffffffffffffffffffffffffffffffffffffff166370a08231306040518263ffffffff1660e01b81526004016108ba9190615370565b60206040518083038186803b1580156108d257600080fd5b505afa1580156108e6573d6000803e3d6000fd5b505050506040513d601f19601f8201168201806040525061090a9190810190614b23565b905061093733828473ffffffffffffffffffffffffffffffffffffffff166142f69092919063ffffffff16565b5050565b600b60009054906101000a900473ffffffffffffffffffffffffffffffffffffffff1681565b60016000808282540192505081905550600080549050610980826104e7565b6000600360009054906101000a900473ffffffffffffffffffffffffffffffffffffffff1673ffffffffffffffffffffffffffffffffffffffff166370a08231306040518263ffffffff1660e01b81526004016109dd9190615370565b60206040518083038186803b1580156109f557600080fd5b505afa158015610a09573d6000803e3d6000fd5b505050506040513d601f19601f82011682018060405250610a2d9190810190614b23565b90506000600560009054906101000a900473ffffffffffffffffffffffffffffffffffffffff1673ffffffffffffffffffffffffffffffffffffffff166370a08231306040518263ffffffff1660e01b8152600401610a8c9190615370565b60206040518083038186803b158015610aa457600080fd5b505afa158015610ab8573d6000803e3d6000fd5b505050506040513d601f19601f82011682018060405250610adc9190810190614b23565b90506000600760009054906101000a900473ffffffffffffffffffffffffffffffffffffffff1673ffffffffffffffffffffffffffffffffffffffff166370a08231306040518263ffffffff1660e01b8152600401610b3b9190615370565b60206040518083038186803b158015610b5357600080fd5b505afa158015610b67573d6000803e3d6000fd5b505050506040513d601f19601f82011682018060405250610b8b9190810190614b23565b90506000600960009054906101000a900473ffffffffffffffffffffffffffffffffffffffff1673ffffffffffffffffffffffffffffffffffffffff166370a08231306040518263ffffffff1660e01b8152600401610bea9190615370565b60206040518083038186803b158015610c0257600080fd5b505afa158015610c16573d6000803e3d6000fd5b505050506040513d601f19601f82011682018060405250610c3a9190810190614b23565b90506000841180610c4b5750600083115b80610c565750600082115b80610c615750600081115b610ca0576040517f08c379a0000000000000000000000000000000000000000000000000000000008152600401610c97906157ad565b60405180910390fd5b6000841115610e2d57600a60009054906101000a900473ffffffffffffffffffffffffffffffffffffffff1673ffffffffffffffffffffffffffffffffffffffff16633df02124600060028760006040518563ffffffff1660e01b8152600401610d0d9493929190615474565b600060405180830381600087803b158015610d2757600080fd5b505af1158015610d3b573d6000803e3d6000fd5b505050506000600360009054906101000a900473ffffffffffffffffffffffffffffffffffffffff1673ffffffffffffffffffffffffffffffffffffffff166370a08231306040518263ffffffff1660e01b8152600401610d9c9190615370565b60206040518083038186803b158015610db457600080fd5b505afa158015610dc8573d6000803e3d6000fd5b505050506040513d601f19601f82011682018060405250610dec9190810190614b23565b14610e2c576040517f08c379a0000000000000000000000000000000000000000000000000000000008152600401610e23906159ed565b60405180910390fd5b5b6000831115610fba57600a60009054906101000a900473ffffffffffffffffffffffffffffffffffffffff1673ffffffffffffffffffffffffffffffffffffffff16633df02124600160028660006040518563ffffffff1660e01b8152600401610e9a9493929190615543565b600060405180830381600087803b158015610eb457600080fd5b505af1158015610ec8573d6000803e3d6000fd5b505050506000600560009054906101000a900473ffffffffffffffffffffffffffffffffffffffff1673ffffffffffffffffffffffffffffffffffffffff166370a08231306040518263ffffffff1660e01b8152600401610f299190615370565b60206040518083038186803b158015610f4157600080fd5b505afa158015610f55573d6000803e3d6000fd5b505050506040513d601f19601f82011682018060405250610f799190810190614b23565b14610fb9576040517f08c379a0000000000000000000000000000000000000000000000000000000008152600401610fb09061586d565b60405180910390fd5b5b600081111561114757600a60009054906101000a900473ffffffffffffffffffffffffffffffffffffffff1673ffffffffffffffffffffffffffffffffffffffff16633df02124600360028460006040518563ffffffff1660e01b81526004016110279493929190615726565b600060405180830381600087803b15801561104157600080fd5b505af1158015611055573d6000803e3d6000fd5b505050506000600960009054906101000a900473ffffffffffffffffffffffffffffffffffffffff1673ffffffffffffffffffffffffffffffffffffffff166370a08231306040518263ffffffff1660e01b81526004016110b69190615370565b60206040518083038186803b1580156110ce57600080fd5b505afa1580156110e2573d6000803e3d6000fd5b505050506040513d601f19601f820116820180604052506111069190810190614b23565b14611146576040517f08c379a000000000000000000000000000000000000000000000000000000000815260040161113d9061588d565b60405180910390fd5b5b600760009054906101000a900473ffffffffffffffffffffffffffffffffffffffff1673ffffffffffffffffffffffffffffffffffffffff16632e1a7d4d600760009054906101000a900473ffffffffffffffffffffffffffffffffffffffff1673ffffffffffffffffffffffffffffffffffffffff166370a08231306040518263ffffffff1660e01b81526004016111e09190615370565b60206040518083038186803b1580156111f857600080fd5b505afa15801561120c573d6000803e3d6000fd5b505050506040513d601f19601f820116820180604052506112309190810190614b23565b6040518263ffffffff1660e01b815260040161124c9190615a4d565b600060405180830381600087803b15801561126657600080fd5b505af115801561127a573d6000803e3d6000fd5b505050506000600760009054906101000a900473ffffffffffffffffffffffffffffffffffffffff1673ffffffffffffffffffffffffffffffffffffffff166370a08231306040518263ffffffff1660e01b81526004016112db9190615370565b60206040518083038186803b1580156112f357600080fd5b505afa158015611307573d6000803e3d6000fd5b505050506040513d601f19601f8201168201806040525061132b9190810190614b23565b1461136b576040517f08c379a00000000000000000000000000000000000000000000000000000000081526004016113629061584d565b60405180910390fd5b61139786600660009054906101000a900473ffffffffffffffffffffffffffffffffffffffff16612432565b5061148f33600660009054906101000a900473ffffffffffffffffffffffffffffffffffffffff1673ffffffffffffffffffffffffffffffffffffffff166370a08231306040518263ffffffff1660e01b81526004016113f79190615370565b60206040518083038186803b15801561140f57600080fd5b505afa158015611423573d6000803e3d6000fd5b505050506040513d601f19601f820116820180604052506114479190810190614b23565b600660009054906101000a900473ffffffffffffffffffffffffffffffffffffffff1673ffffffffffffffffffffffffffffffffffffffff166142f69092919063ffffffff16565b6000600660009054906101000a900473ffffffffffffffffffffffffffffffffffffffff1673ffffffffffffffffffffffffffffffffffffffff166370a08231306040518263ffffffff1660e01b81526004016114ec9190615370565b60206040518083038186803b15801561150457600080fd5b505afa158015611518573d6000803e3d6000fd5b505050506040513d601f19601f8201168201806040525061153c9190810190614b23565b1461157c576040517f08c379a0000000000000000000000000000000000000000000000000000000008152600401611573906157ed565b60405180910390fd5b5050505060005481146115c4576040517f08c379a00000000000000000000000000000000000000000000000000000000081526004016115bb906159cd565b60405180910390fd5b5050565b600160008082825401925050819055506000805490506115e7826104e7565b6000600360009054906101000a900473ffffffffffffffffffffffffffffffffffffffff1673ffffffffffffffffffffffffffffffffffffffff166370a08231306040518263ffffffff1660e01b81526004016116449190615370565b60206040518083038186803b15801561165c57600080fd5b505afa158015611670573d6000803e3d6000fd5b505050506040513d601f19601f820116820180604052506116949190810190614b23565b90506000600560009054906101000a900473ffffffffffffffffffffffffffffffffffffffff1673ffffffffffffffffffffffffffffffffffffffff166370a08231306040518263ffffffff1660e01b81526004016116f39190615370565b60206040518083038186803b15801561170b57600080fd5b505afa15801561171f573d6000803e3d6000fd5b505050506040513d601f19601f820116820180604052506117439190810190614b23565b90506000600760009054906101000a900473ffffffffffffffffffffffffffffffffffffffff1673ffffffffffffffffffffffffffffffffffffffff166370a08231306040518263ffffffff1660e01b81526004016117a29190615370565b60206040518083038186803b1580156117ba57600080fd5b505afa1580156117ce573d6000803e3d6000fd5b505050506040513d601f19601f820116820180604052506117f29190810190614b23565b90506000600960009054906101000a900473ffffffffffffffffffffffffffffffffffffffff1673ffffffffffffffffffffffffffffffffffffffff166370a08231306040518263ffffffff1660e01b81526004016118519190615370565b60206040518083038186803b15801561186957600080fd5b505afa15801561187d573d6000803e3d6000fd5b505050506040513d601f19601f820116820180604052506118a19190810190614b23565b905060008411806118b25750600083115b806118bd5750600082115b806118c85750600081115b611907576040517f08c379a00000000000000000000000000000000000000000000000000000000081526004016118fe906157ad565b60405180910390fd5b6000841115611a9457600a60009054906101000a900473ffffffffffffffffffffffffffffffffffffffff1673ffffffffffffffffffffffffffffffffffffffff16633df02124600060038760006040518563ffffffff1660e01b815260040161197494939291906154b9565b600060405180830381600087803b15801561198e57600080fd5b505af11580156119a2573d6000803e3d6000fd5b505050506000600360009054906101000a900473ffffffffffffffffffffffffffffffffffffffff1673ffffffffffffffffffffffffffffffffffffffff166370a08231306040518263ffffffff1660e01b8152600401611a039190615370565b60206040518083038186803b158015611a1b57600080fd5b505afa158015611a2f573d6000803e3d6000fd5b505050506040513d601f19601f82011682018060405250611a539190810190614b23565b14611a93576040517f08c379a0000000000000000000000000000000000000000000000000000000008152600401611a8a906159ed565b60405180910390fd5b5b6000831115611c2157600a60009054906101000a900473ffffffffffffffffffffffffffffffffffffffff1673ffffffffffffffffffffffffffffffffffffffff16633df02124600160038660006040518563ffffffff1660e01b8152600401611b019493929190615588565b600060405180830381600087803b158015611b1b57600080fd5b505af1158015611b2f573d6000803e3d6000fd5b505050506000600560009054906101000a900473ffffffffffffffffffffffffffffffffffffffff1673ffffffffffffffffffffffffffffffffffffffff166370a08231306040518263ffffffff1660e01b8152600401611b909190615370565b60206040518083038186803b158015611ba857600080fd5b505afa158015611bbc573d6000803e3d6000fd5b505050506040513d601f19601f82011682018060405250611be09190810190614b23565b14611c20576040517f08c379a0000000000000000000000000000000000000000000000000000000008152600401611c179061586d565b60405180910390fd5b5b6000821115611dae57600a60009054906101000a900473ffffffffffffffffffffffffffffffffffffffff1673ffffffffffffffffffffffffffffffffffffffff16633df02124600260038560006040518563ffffffff1660e01b8152600401611c8e9493929190615657565b600060405180830381600087803b158015611ca857600080fd5b505af1158015611cbc573d6000803e3d6000fd5b505050506000600760009054906101000a900473ffffffffffffffffffffffffffffffffffffffff1673ffffffffffffffffffffffffffffffffffffffff166370a08231306040518263ffffffff1660e01b8152600401611d1d9190615370565b60206040518083038186803b158015611d3557600080fd5b505afa158015611d49573d6000803e3d6000fd5b505050506040513d601f19601f82011682018060405250611d6d9190810190614b23565b14611dad576040517f08c379a0000000000000000000000000000000000000000000000000000000008152600401611da49061584d565b60405180910390fd5b5b600960009054906101000a900473ffffffffffffffffffffffffffffffffffffffff1673ffffffffffffffffffffffffffffffffffffffff16632e1a7d4d600960009054906101000a900473ffffffffffffffffffffffffffffffffffffffff1673ffffffffffffffffffffffffffffffffffffffff166370a08231306040518263ffffffff1660e01b8152600401611e479190615370565b60206040518083038186803b158015611e5f57600080fd5b505afa158015611e73573d6000803e3d6000fd5b505050506040513d601f19601f82011682018060405250611e979190810190614b23565b6040518263ffffffff1660e01b8152600401611eb39190615a4d565b600060405180830381600087803b158015611ecd57600080fd5b505af1158015611ee1573d6000803e3d6000fd5b505050506000600960009054906101000a900473ffffffffffffffffffffffffffffffffffffffff1673ffffffffffffffffffffffffffffffffffffffff166370a08231306040518263ffffffff1660e01b8152600401611f429190615370565b60206040518083038186803b158015611f5a57600080fd5b505afa158015611f6e573d6000803e3d6000fd5b505050506040513d601f19601f82011682018060405250611f929190810190614b23565b14611fd2576040517f08c379a0000000000000000000000000000000000000000000000000000000008152600401611fc99061588d565b60405180910390fd5b611ffe86600860009054906101000a900473ffffffffffffffffffffffffffffffffffffffff16612432565b506120f633600860009054906101000a900473ffffffffffffffffffffffffffffffffffffffff1673ffffffffffffffffffffffffffffffffffffffff166370a08231306040518263ffffffff1660e01b815260040161205e9190615370565b60206040518083038186803b15801561207657600080fd5b505afa15801561208a573d6000803e3d6000fd5b505050506040513d601f19601f820116820180604052506120ae9190810190614b23565b600860009054906101000a900473ffffffffffffffffffffffffffffffffffffffff1673ffffffffffffffffffffffffffffffffffffffff166142f69092919063ffffffff16565b6000600860009054906101000a900473ffffffffffffffffffffffffffffffffffffffff1673ffffffffffffffffffffffffffffffffffffffff166370a08231306040518263ffffffff1660e01b81526004016121539190615370565b60206040518083038186803b15801561216b57600080fd5b505afa15801561217f573d6000803e3d6000fd5b505050506040513d601f19601f820116820180604052506121a39190810190614b23565b146121e3576040517f08c379a00000000000000000000000000000000000000000000000000000000081526004016121da906158ed565b60405180910390fd5b50505050600054811461222b576040517f08c379a0000000000000000000000000000000000000000000000000000000008152600401612222906159cd565b60405180910390fd5b5050565b6122376123d3565b612276576040517f08c379a000000000000000000000000000000000000000000000000000000000815260040161226d9061592d565b60405180910390fd5b600073ffffffffffffffffffffffffffffffffffffffff16600160009054906101000a900473ffffffffffffffffffffffffffffffffffffffff1673ffffffffffffffffffffffffffffffffffffffff167f8be0079c531659141344cd1fd0a4f28419497f9722a3daafe3b4186f6b6457e060405160405180910390a36000600160006101000a81548173ffffffffffffffffffffffffffffffffffffffff021916908373ffffffffffffffffffffffffffffffffffffffff160217905550565b600360009054906101000a900473ffffffffffffffffffffffffffffffffffffffff1681565b600860009054906101000a900473ffffffffffffffffffffffffffffffffffffffff1681565b600460009054906101000a900473ffffffffffffffffffffffffffffffffffffffff1681565b6000600160009054906101000a900473ffffffffffffffffffffffffffffffffffffffff16905090565b6000600160009054906101000a900473ffffffffffffffffffffffffffffffffffffffff1673ffffffffffffffffffffffffffffffffffffffff16612416614395565b73ffffffffffffffffffffffffffffffffffffffff1614905090565b6000808273ffffffffffffffffffffffffffffffffffffffff166370a08231306040518263ffffffff1660e01b815260040161246e9190615370565b60206040518083038186803b15801561248657600080fd5b505afa15801561249a573d6000803e3d6000fd5b505050506040513d601f19601f820116820180604052506124be9190810190614b23565b905060006124e960646124db60058861439d90919063ffffffff16565b61440d90919063ffffffff16565b90506000612500828761445790919063ffffffff16565b9050600061251783886144a190919063ffffffff16565b90508084111580156125295750818410155b612568576040517f08c379a000000000000000000000000000000000000000000000000000000000815260040161255f9061598d565b60405180910390fd5b600194505050505092915050565b612605600a60009054906101000a900473ffffffffffffffffffffffffffffffffffffffff167fffffffffffffffffffffffffffffffffffffffffffffffffffffffffffffffff600360009054906101000a900473ffffffffffffffffffffffffffffffffffffffff1673ffffffffffffffffffffffffffffffffffffffff166144f69092919063ffffffff16565b612694600a60009054906101000a900473ffffffffffffffffffffffffffffffffffffffff167fffffffffffffffffffffffffffffffffffffffffffffffffffffffffffffffff600560009054906101000a900473ffffffffffffffffffffffffffffffffffffffff1673ffffffffffffffffffffffffffffffffffffffff166144f69092919063ffffffff16565b612723600a60009054906101000a900473ffffffffffffffffffffffffffffffffffffffff167fffffffffffffffffffffffffffffffffffffffffffffffffffffffffffffffff600760009054906101000a900473ffffffffffffffffffffffffffffffffffffffff1673ffffffffffffffffffffffffffffffffffffffff166144f69092919063ffffffff16565b6127b2600a60009054906101000a900473ffffffffffffffffffffffffffffffffffffffff167fffffffffffffffffffffffffffffffffffffffffffffffffffffffffffffffff600960009054906101000a900473ffffffffffffffffffffffffffffffffffffffff1673ffffffffffffffffffffffffffffffffffffffff166144f69092919063ffffffff16565b565b600160008082825401925050819055506000805490506127d3826104e7565b6000600360009054906101000a900473ffffffffffffffffffffffffffffffffffffffff1673ffffffffffffffffffffffffffffffffffffffff166370a08231306040518263ffffffff1660e01b81526004016128309190615370565b60206040518083038186803b15801561284857600080fd5b505afa15801561285c573d6000803e3d6000fd5b505050506040513d601f19601f820116820180604052506128809190810190614b23565b90506000600560009054906101000a900473ffffffffffffffffffffffffffffffffffffffff1673ffffffffffffffffffffffffffffffffffffffff166370a08231306040518263ffffffff1660e01b81526004016128df9190615370565b60206040518083038186803b1580156128f757600080fd5b505afa15801561290b573d6000803e3d6000fd5b505050506040513d601f19601f8201168201806040525061292f9190810190614b23565b90506000600760009054906101000a900473ffffffffffffffffffffffffffffffffffffffff1673ffffffffffffffffffffffffffffffffffffffff166370a08231306040518263ffffffff1660e01b815260040161298e9190615370565b60206040518083038186803b1580156129a657600080fd5b505afa1580156129ba573d6000803e3d6000fd5b505050506040513d601f19601f820116820180604052506129de9190810190614b23565b90506000600960009054906101000a900473ffffffffffffffffffffffffffffffffffffffff1673ffffffffffffffffffffffffffffffffffffffff166370a08231306040518263ffffffff1660e01b8152600401612a3d9190615370565b60206040518083038186803b158015612a5557600080fd5b505afa158015612a69573d6000803e3d6000fd5b505050506040513d601f19601f82011682018060405250612a8d9190810190614b23565b90506000841180612a9e5750600083115b80612aa95750600082115b80612ab45750600081115b612af3576040517f08c379a0000000000000000000000000000000000000000000000000000000008152600401612aea906157ad565b60405180910390fd5b6000831115612c8057600a60009054906101000a900473ffffffffffffffffffffffffffffffffffffffff1673ffffffffffffffffffffffffffffffffffffffff16633df02124600160008660006040518563ffffffff1660e01b8152600401612b6094939291906154fe565b600060405180830381600087803b158015612b7a57600080fd5b505af1158015612b8e573d6000803e3d6000fd5b505050506000600560009054906101000a900473ffffffffffffffffffffffffffffffffffffffff1673ffffffffffffffffffffffffffffffffffffffff166370a08231306040518263ffffffff1660e01b8152600401612bef9190615370565b60206040518083038186803b158015612c0757600080fd5b505afa158015612c1b573d6000803e3d6000fd5b505050506040513d601f19601f82011682018060405250612c3f9190810190614b23565b14612c7f576040517f08c379a0000000000000000000000000000000000000000000000000000000008152600401612c769061586d565b60405180910390fd5b5b6000821115612e0d57600a60009054906101000a900473ffffffffffffffffffffffffffffffffffffffff1673ffffffffffffffffffffffffffffffffffffffff16633df02124600260008560006040518563ffffffff1660e01b8152600401612ced94939291906155cd565b600060405180830381600087803b158015612d0757600080fd5b505af1158015612d1b573d6000803e3d6000fd5b505050506000600760009054906101000a900473ffffffffffffffffffffffffffffffffffffffff1673ffffffffffffffffffffffffffffffffffffffff166370a08231306040518263ffffffff1660e01b8152600401612d7c9190615370565b60206040518083038186803b158015612d9457600080fd5b505afa158015612da8573d6000803e3d6000fd5b505050506040513d601f19601f82011682018060405250612dcc9190810190614b23565b14612e0c576040517f08c379a0000000000000000000000000000000000000000000000000000000008152600401612e039061584d565b60405180910390fd5b5b6000811115612f9a57600a60009054906101000a900473ffffffffffffffffffffffffffffffffffffffff1673ffffffffffffffffffffffffffffffffffffffff16633df02124600360008460006040518563ffffffff1660e01b8152600401612e7a949392919061569c565b600060405180830381600087803b158015612e9457600080fd5b505af1158015612ea8573d6000803e3d6000fd5b505050506000600960009054906101000a900473ffffffffffffffffffffffffffffffffffffffff1673ffffffffffffffffffffffffffffffffffffffff166370a08231306040518263ffffffff1660e01b8152600401612f099190615370565b60206040518083038186803b158015612f2157600080fd5b505afa158015612f35573d6000803e3d6000fd5b505050506040513d601f19601f82011682018060405250612f599190810190614b23565b14612f99576040517f08c379a0000000000000000000000000000000000000000000000000000000008152600401612f909061588d565b60405180910390fd5b5b600360009054906101000a900473ffffffffffffffffffffffffffffffffffffffff1673ffffffffffffffffffffffffffffffffffffffff16632e1a7d4d600360009054906101000a900473ffffffffffffffffffffffffffffffffffffffff1673ffffffffffffffffffffffffffffffffffffffff166370a08231306040518263ffffffff1660e01b81526004016130339190615370565b60206040518083038186803b15801561304b57600080fd5b505afa15801561305f573d6000803e3d6000fd5b505050506040513d601f19601f820116820180604052506130839190810190614b23565b6040518263ffffffff1660e01b815260040161309f9190615a4d565b600060405180830381600087803b1580156130b957600080fd5b505af11580156130cd573d6000803e3d6000fd5b505050506000600360009054906101000a900473ffffffffffffffffffffffffffffffffffffffff1673ffffffffffffffffffffffffffffffffffffffff166370a08231306040518263ffffffff1660e01b815260040161312e9190615370565b60206040518083038186803b15801561314657600080fd5b505afa15801561315a573d6000803e3d6000fd5b505050506040513d601f19601f8201168201806040525061317e9190810190614b23565b146131be576040517f08c379a00000000000000000000000000000000000000000000000000000000081526004016131b5906159ed565b60405180910390fd5b6131ea86600260009054906101000a900473ffffffffffffffffffffffffffffffffffffffff16612432565b506132e233600260009054906101000a900473ffffffffffffffffffffffffffffffffffffffff1673ffffffffffffffffffffffffffffffffffffffff166370a08231306040518263ffffffff1660e01b815260040161324a9190615370565b60206040518083038186803b15801561326257600080fd5b505afa158015613276573d6000803e3d6000fd5b505050506040513d601f19601f8201168201806040525061329a9190810190614b23565b600260009054906101000a900473ffffffffffffffffffffffffffffffffffffffff1673ffffffffffffffffffffffffffffffffffffffff166142f69092919063ffffffff16565b6000600260009054906101000a900473ffffffffffffffffffffffffffffffffffffffff1673ffffffffffffffffffffffffffffffffffffffff166370a08231306040518263ffffffff1660e01b815260040161333f9190615370565b60206040518083038186803b15801561335757600080fd5b505afa15801561336b573d6000803e3d6000fd5b505050506040513d601f19601f8201168201806040525061338f9190810190614b23565b146133cf576040517f08c379a00000000000000000000000000000000000000000000000000000000081526004016133c69061578d565b60405180910390fd5b505050506000548114613417576040517f08c379a000000000000000000000000000000000000000000000000000000000815260040161340e906159cd565b60405180910390fd5b5050565b600660009054906101000a900473ffffffffffffffffffffffffffffffffffffffff1681565b60016000808282540192505081905550600080549050613460826104e7565b6000600360009054906101000a900473ffffffffffffffffffffffffffffffffffffffff1673ffffffffffffffffffffffffffffffffffffffff166370a08231306040518263ffffffff1660e01b81526004016134bd9190615370565b60206040518083038186803b1580156134d557600080fd5b505afa1580156134e9573d6000803e3d6000fd5b505050506040513d601f19601f8201168201806040525061350d9190810190614b23565b90506000600560009054906101000a900473ffffffffffffffffffffffffffffffffffffffff1673ffffffffffffffffffffffffffffffffffffffff166370a08231306040518263ffffffff1660e01b815260040161356c9190615370565b60206040518083038186803b15801561358457600080fd5b505afa158015613598573d6000803e3d6000fd5b505050506040513d601f19601f820116820180604052506135bc9190810190614b23565b90506000600760009054906101000a900473ffffffffffffffffffffffffffffffffffffffff1673ffffffffffffffffffffffffffffffffffffffff166370a08231306040518263ffffffff1660e01b815260040161361b9190615370565b60206040518083038186803b15801561363357600080fd5b505afa158015613647573d6000803e3d6000fd5b505050506040513d601f19601f8201168201806040525061366b9190810190614b23565b90506000600960009054906101000a900473ffffffffffffffffffffffffffffffffffffffff1673ffffffffffffffffffffffffffffffffffffffff166370a08231306040518263ffffffff1660e01b81526004016136ca9190615370565b60206040518083038186803b1580156136e257600080fd5b505afa1580156136f6573d6000803e3d6000fd5b505050506040513d601f19601f8201168201806040525061371a9190810190614b23565b9050600084118061372b5750600083115b806137365750600082115b806137415750600081115b613780576040517f08c379a0000000000000000000000000000000000000000000000000000000008152600401613777906157ad565b60405180910390fd5b600084111561390d57600a60009054906101000a900473ffffffffffffffffffffffffffffffffffffffff1673ffffffffffffffffffffffffffffffffffffffff16633df02124600060018760006040518563ffffffff1660e01b81526004016137ed949392919061542f565b600060405180830381600087803b15801561380757600080fd5b505af115801561381b573d6000803e3d6000fd5b505050506000600360009054906101000a900473ffffffffffffffffffffffffffffffffffffffff1673ffffffffffffffffffffffffffffffffffffffff166370a08231306040518263ffffffff1660e01b815260040161387c9190615370565b60206040518083038186803b15801561389457600080fd5b505afa1580156138a8573d6000803e3d6000fd5b505050506040513d601f19601f820116820180604052506138cc9190810190614b23565b1461390c576040517f08c379a0000000000000000000000000000000000000000000000000000000008152600401613903906159ed565b60405180910390fd5b5b6000821115613a9a57600a60009054906101000a900473ffffffffffffffffffffffffffffffffffffffff1673ffffffffffffffffffffffffffffffffffffffff16633df02124600260018560006040518563ffffffff1660e01b815260040161397a9493929190615612565b600060405180830381600087803b15801561399457600080fd5b505af11580156139a8573d6000803e3d6000fd5b505050506000600760009054906101000a900473ffffffffffffffffffffffffffffffffffffffff1673ffffffffffffffffffffffffffffffffffffffff166370a08231306040518263ffffffff1660e01b8152600401613a099190615370565b60206040518083038186803b158015613a2157600080fd5b505afa158015613a35573d6000803e3d6000fd5b505050506040513d601f19601f82011682018060405250613a599190810190614b23565b14613a99576040517f08c379a0000000000000000000000000000000000000000000000000000000008152600401613a909061584d565b60405180910390fd5b5b6000811115613c2757600a60009054906101000a900473ffffffffffffffffffffffffffffffffffffffff1673ffffffffffffffffffffffffffffffffffffffff16633df02124600360018460006040518563ffffffff1660e01b8152600401613b0794939291906156e1565b600060405180830381600087803b158015613b2157600080fd5b505af1158015613b35573d6000803e3d6000fd5b505050506000600960009054906101000a900473ffffffffffffffffffffffffffffffffffffffff1673ffffffffffffffffffffffffffffffffffffffff166370a08231306040518263ffffffff1660e01b8152600401613b969190615370565b60206040518083038186803b158015613bae57600080fd5b505afa158015613bc2573d6000803e3d6000fd5b505050506040513d601f19601f82011682018060405250613be69190810190614b23565b14613c26576040517f08c379a0000000000000000000000000000000000000000000000000000000008152600401613c1d9061588d565b60405180910390fd5b5b600560009054906101000a900473ffffffffffffffffffffffffffffffffffffffff1673ffffffffffffffffffffffffffffffffffffffff16632e1a7d4d600560009054906101000a900473ffffffffffffffffffffffffffffffffffffffff1673ffffffffffffffffffffffffffffffffffffffff166370a08231306040518263ffffffff1660e01b8152600401613cc09190615370565b60206040518083038186803b158015613cd857600080fd5b505afa158015613cec573d6000803e3d6000fd5b505050506040513d601f19601f82011682018060405250613d109190810190614b23565b6040518263ffffffff1660e01b8152600401613d2c9190615a4d565b600060405180830381600087803b158015613d4657600080fd5b505af1158015613d5a573d6000803e3d6000fd5b505050506000600560009054906101000a900473ffffffffffffffffffffffffffffffffffffffff1673ffffffffffffffffffffffffffffffffffffffff166370a08231306040518263ffffffff1660e01b8152600401613dbb9190615370565b60206040518083038186803b158015613dd357600080fd5b505afa158015613de7573d6000803e3d6000fd5b505050506040513d601f19601f82011682018060405250613e0b9190810190614b23565b14613e4b576040517f08c379a0000000000000000000000000000000000000000000000000000000008152600401613e429061586d565b60405180910390fd5b613e7786600460009054906101000a900473ffffffffffffffffffffffffffffffffffffffff16612432565b50613f6f33600460009054906101000a900473ffffffffffffffffffffffffffffffffffffffff1673ffffffffffffffffffffffffffffffffffffffff166370a08231306040518263ffffffff1660e01b8152600401613ed79190615370565b60206040518083038186803b158015613eef57600080fd5b505afa158015613f03573d6000803e3d6000fd5b505050506040513d601f19601f82011682018060405250613f279190810190614b23565b600460009054906101000a900473ffffffffffffffffffffffffffffffffffffffff1673ffffffffffffffffffffffffffffffffffffffff166142f69092919063ffffffff16565b6000600460009054906101000a900473ffffffffffffffffffffffffffffffffffffffff1673ffffffffffffffffffffffffffffffffffffffff166370a08231306040518263ffffffff1660e01b8152600401613fcc9190615370565b60206040518083038186803b158015613fe457600080fd5b505afa158015613ff8573d6000803e3d6000fd5b505050506040513d601f19601f8201168201806040525061401c9190810190614b23565b1461405c576040517f08c379a00000000000000000000000000000000000000000000000000000000081526004016140539061594d565b60405180910390fd5b5050505060005481146140a4576040517f08c379a000000000000000000000000000000000000000000000000000000000815260040161409b906159cd565b60405180910390fd5b5050565b600260009054906101000a900473ffffffffffffffffffffffffffffffffffffffff1681565b600960009054906101000a900473ffffffffffffffffffffffffffffffffffffffff1681565b6140fc6123d3565b61413b576040517f08c379a00000000000000000000000000000000000000000000000000000000081526004016141329061592d565b60405180910390fd5b6141448161466d565b50565b61414f6123d3565b61418e576040517f08c379a00000000000000000000000000000000000000000000000000000000081526004016141859061592d565b60405180910390fd5b60003373ffffffffffffffffffffffffffffffffffffffff163073ffffffffffffffffffffffffffffffffffffffff16316040516141cb90615340565b60006040518083038185875af1925050503d8060008114614208576040519150601f19603f3d011682016040523d82523d6000602084013e61420d565b606091505b5050905080614251576040517f08c379a0000000000000000000000000000000000000000000000000000000008152600401614248906158ad565b60405180910390fd5b50565b6142f0848573ffffffffffffffffffffffffffffffffffffffff166323b872dd905060e01b85858560405160240161428e939291906153b4565b604051602081830303815290604052907bffffffffffffffffffffffffffffffffffffffffffffffffffffffff19166020820180517bffffffffffffffffffffffffffffffffffffffffffffffffffffffff838183161783525050505061479d565b50505050565b614390838473ffffffffffffffffffffffffffffffffffffffff1663a9059cbb905060e01b848460405160240161432e9291906153eb565b604051602081830303815290604052907bffffffffffffffffffffffffffffffffffffffffffffffffffffffff19166020820180517bffffffffffffffffffffffffffffffffffffffffffffffffffffffff838183161783525050505061479d565b505050565b600033905090565b6000808314156143b05760009050614407565b60008284029050828482816143c157fe5b0414614402576040517f08c379a00000000000000000000000000000000000000000000000000000000081526004016143f99061590d565b60405180910390fd5b809150505b92915050565b600061444f83836040518060400160405280601a81526020017f536166654d6174683a206469766973696f6e206279207a65726f00000000000081525061490f565b905092915050565b600061449983836040518060400160405280601e81526020017f536166654d6174683a207375627472616374696f6e206f766572666c6f770000815250614970565b905092915050565b6000808284019050838110156144ec576040517f08c379a00000000000000000000000000000000000000000000000000000000081526004016144e39061580d565b60405180910390fd5b8091505092915050565b600081148061458f575060008373ffffffffffffffffffffffffffffffffffffffff1663dd62ed3e30856040518363ffffffff1660e01b815260040161453d92919061538b565b60206040518083038186803b15801561455557600080fd5b505afa158015614569573d6000803e3d6000fd5b505050506040513d601f19601f8201168201806040525061458d9190810190614b23565b145b6145ce576040517f08c379a00000000000000000000000000000000000000000000000000000000081526004016145c590615a0d565b60405180910390fd5b614668838473ffffffffffffffffffffffffffffffffffffffff1663095ea7b3905060e01b84846040516024016146069291906153eb565b604051602081830303815290604052907bffffffffffffffffffffffffffffffffffffffffffffffffffffffff19166020820180517bffffffffffffffffffffffffffffffffffffffffffffffffffffffff838183161783525050505061479d565b505050565b600073ffffffffffffffffffffffffffffffffffffffff168173ffffffffffffffffffffffffffffffffffffffff1614156146dd576040517f08c379a00000000000000000000000000000000000000000000000000000000081526004016146d4906157cd565b60405180910390fd5b8073ffffffffffffffffffffffffffffffffffffffff16600160009054906101000a900473ffffffffffffffffffffffffffffffffffffffff1673ffffffffffffffffffffffffffffffffffffffff167f8be0079c531659141344cd1fd0a4f28419497f9722a3daafe3b4186f6b6457e060405160405180910390a380600160006101000a81548173ffffffffffffffffffffffffffffffffffffffff021916908373ffffffffffffffffffffffffffffffffffffffff16021790555050565b6147bc8273ffffffffffffffffffffffffffffffffffffffff166149cb565b6147fb576040517f08c379a00000000000000000000000000000000000000000000000000000000081526004016147f290615a2d565b60405180910390fd5b600060608373ffffffffffffffffffffffffffffffffffffffff16836040516148249190615329565b6000604051808303816000865af19150503d8060008114614861576040519150601f19603f3d011682016040523d82523d6000602084013e614866565b606091505b5091509150816148ab576040517f08c379a00000000000000000000000000000000000000000000000000000000081526004016148a29061582d565b60405180910390fd5b60008151111561490957808060200190516148c99190810190614aa8565b614908576040517f08c379a00000000000000000000000000000000000000000000000000000000081526004016148ff906159ad565b60405180910390fd5b5b50505050565b60008083118290614956576040517f08c379a000000000000000000000000000000000000000000000000000000000815260040161494d919061576b565b60405180910390fd5b50600083858161496257fe5b049050809150509392505050565b60008383111582906149b8576040517f08c379a00000000000000000000000000000000000000000000000000000000081526004016149af919061576b565b60405180910390fd5b5060008385039050809150509392505050565b60008060007fc5d2460186f7233c927e7db2dcc703c0e500b653ca82273b7bfad8045d85a47060001b9050833f91506000801b8214158015614a0d5750808214155b92505050919050565b600081359050614a2581615c2b565b92915050565b600081519050614a3a81615c42565b92915050565b600081359050614a4f81615c59565b92915050565b600081359050614a6481615c70565b92915050565b600081519050614a7981615c70565b92915050565b600060208284031215614a9157600080fd5b6000614a9f84828501614a16565b91505092915050565b600060208284031215614aba57600080fd5b6000614ac884828501614a2b565b91505092915050565b600060208284031215614ae357600080fd5b6000614af184828501614a40565b91505092915050565b600060208284031215614b0c57600080fd5b6000614b1a84828501614a55565b91505092915050565b600060208284031215614b3557600080fd5b6000614b4384828501614a6a565b91505092915050565b60008060408385031215614b5f57600080fd5b6000614b6d85828601614a55565b9250506020614b7e85828601614a16565b9150509250929050565b6000614b94838361530b565b60208301905092915050565b614ba981615b57565b82525050565b614bb881615af0565b82525050565b614bc781615a9b565b614bd18184615ac9565b9250614bdc82615a91565b8060005b83811015614c0d578151614bf48782614b88565b9650614bff83615abc565b925050600181019050614be0565b505050505050565b614c1e81615b02565b82525050565b6000614c2f82615aa6565b614c398185615ad4565b9350614c49818560208601615be7565b80840191505092915050565b614c5e81615b69565b82525050565b614c6d81615b7b565b82525050565b614c7c81615b8d565b82525050565b614c8b81615b9f565b82525050565b614c9a81615bb1565b82525050565b6000614cab82615ab1565b614cb58185615adf565b9350614cc5818560208601615be7565b614cce81615c1a565b840191505092915050565b6000614ce6600d83615adf565b91507f4441492072656d61696e646572000000000000000000000000000000000000006000830152602082019050919050565b6000614d26601183615adf565b91507f6e6f20792e746f6b656e7320666f756e640000000000000000000000000000006000830152602082019050919050565b6000614d66602683615adf565b91507f4f776e61626c653a206e6577206f776e657220697320746865207a65726f206160008301527f64647265737300000000000000000000000000000000000000000000000000006020830152604082019050919050565b6000614dcc600e83615adf565b91507f555344542072656d61696e6465720000000000000000000000000000000000006000830152602082019050919050565b6000614e0c601b83615adf565b91507f536166654d6174683a206164646974696f6e206f766572666c6f7700000000006000830152602082019050919050565b6000614e4c602083615adf565b91507f5361666545524332303a206c6f772d6c6576656c2063616c6c206661696c65646000830152602082019050919050565b6000614e8c601083615adf565b91507f792e555344542072656d61696e646572000000000000000000000000000000006000830152602082019050919050565b6000614ecc601083615adf565b91507f792e555344432072656d61696e646572000000000000000000000000000000006000830152602082019050919050565b6000614f0c601083615adf565b91507f792e545553442072656d61696e646572000000000000000000000000000000006000830152602082019050919050565b6000614f4c601683615adf565b91507f7472616e73666572206f6620455448206661696c6564000000000000000000006000830152602082019050919050565b6000614f8c600f83615adf565b91507f43555256452072656d61696e64657200000000000000000000000000000000006000830152602082019050919050565b6000614fcc600e83615adf565b91507f545553442072656d61696e6465720000000000000000000000000000000000006000830152602082019050919050565b600061500c602183615adf565b91507f536166654d6174683a206d756c7469706c69636174696f6e206f766572666c6f60008301527f77000000000000000000000000000000000000000000000000000000000000006020830152604082019050919050565b6000615072602083615adf565b91507f4f776e61626c653a2063616c6c6572206973206e6f7420746865206f776e65726000830152602082019050919050565b60006150b2600e83615adf565b91507f555344432072656d61696e6465720000000000000000000000000000000000006000830152602082019050919050565b60006150f2600083615ad4565b9150600082019050919050565b600061510c601e83615adf565b91507f6465706f736974206d7573742062652067726561746572207468616e203000006000830152602082019050919050565b600061514c601883615adf565b91507f736c6970706167652067726561746572207468616e20352500000000000000006000830152602082019050919050565b600061518c602a83615adf565b91507f5361666545524332303a204552433230206f7065726174696f6e20646964206e60008301527f6f742073756363656564000000000000000000000000000000000000000000006020830152604082019050919050565b60006151f2601f83615adf565b91507f5265656e7472616e637947756172643a207265656e7472616e742063616c6c006000830152602082019050919050565b6000615232600f83615adf565b91507f792e4441492072656d61696e64657200000000000000000000000000000000006000830152602082019050919050565b6000615272603683615adf565b91507f5361666545524332303a20617070726f76652066726f6d206e6f6e2d7a65726f60008301527f20746f206e6f6e2d7a65726f20616c6c6f77616e6365000000000000000000006020830152604082019050919050565b60006152d8601f83615adf565b91507f5361666545524332303a2063616c6c20746f206e6f6e2d636f6e7472616374006000830152602082019050919050565b61531481615b4d565b82525050565b61532381615b4d565b82525050565b60006153358284614c24565b915081905092915050565b600061534b826150e5565b9150819050919050565b600060208201905061536a6000830184614baf565b92915050565b60006020820190506153856000830184614ba0565b92915050565b60006040820190506153a06000830185614baf565b6153ad6020830184614baf565b9392505050565b60006060820190506153c96000830186614baf565b6153d66020830185614baf565b6153e3604083018461531a565b949350505050565b60006040820190506154006000830185614baf565b61540d602083018461531a565b9392505050565b60006020820190506154296000830184614c15565b92915050565b60006080820190506154446000830187614c55565b6154516020830186614c73565b61545e604083018561531a565b61546b6060830184614c64565b95945050505050565b60006080820190506154896000830187614c55565b6154966020830186614c82565b6154a3604083018561531a565b6154b06060830184614c64565b95945050505050565b60006080820190506154ce6000830187614c55565b6154db6020830186614c91565b6154e8604083018561531a565b6154f56060830184614c64565b95945050505050565b60006080820190506155136000830187614c73565b6155206020830186614c55565b61552d604083018561531a565b61553a6060830184614c64565b95945050505050565b60006080820190506155586000830187614c73565b6155656020830186614c82565b615572604083018561531a565b61557f6060830184614c64565b95945050505050565b600060808201905061559d6000830187614c73565b6155aa6020830186614c91565b6155b7604083018561531a565b6155c46060830184614c64565b95945050505050565b60006080820190506155e26000830187614c82565b6155ef6020830186614c55565b6155fc604083018561531a565b6156096060830184614c64565b95945050505050565b60006080820190506156276000830187614c82565b6156346020830186614c73565b615641604083018561531a565b61564e6060830184614c64565b95945050505050565b600060808201905061566c6000830187614c82565b6156796020830186614c91565b615686604083018561531a565b6156936060830184614c64565b95945050505050565b60006080820190506156b16000830187614c91565b6156be6020830186614c55565b6156cb604083018561531a565b6156d86060830184614c64565b95945050505050565b60006080820190506156f66000830187614c91565b6157036020830186614c73565b615710604083018561531a565b61571d6060830184614c64565b95945050505050565b600060808201905061573b6000830187614c91565b6157486020830186614c82565b615755604083018561531a565b6157626060830184614c64565b95945050505050565b600060208201905081810360008301526157858184614ca0565b905092915050565b600060208201905081810360008301526157a681614cd9565b9050919050565b600060208201905081810360008301526157c681614d19565b9050919050565b600060208201905081810360008301526157e681614d59565b9050919050565b6000602082019050818103600083015261580681614dbf565b9050919050565b6000602082019050818103600083015261582681614dff565b9050919050565b6000602082019050818103600083015261584681614e3f565b9050919050565b6000602082019050818103600083015261586681614e7f565b9050919050565b6000602082019050818103600083015261588681614ebf565b9050919050565b600060208201905081810360008301526158a681614eff565b9050919050565b600060208201905081810360008301526158c681614f3f565b9050919050565b600060208201905081810360008301526158e681614f7f565b9050919050565b6000602082019050818103600083015261590681614fbf565b9050919050565b6000602082019050818103600083015261592681614fff565b9050919050565b6000602082019050818103600083015261594681615065565b9050919050565b60006020820190508181036000830152615966816150a5565b9050919050565b60006020820190508181036000830152615986816150ff565b9050919050565b600060208201905081810360008301526159a68161513f565b9050919050565b600060208201905081810360008301526159c68161517f565b9050919050565b600060208201905081810360008301526159e6816151e5565b9050919050565b60006020820190508181036000830152615a0681615225565b9050919050565b60006020820190508181036000830152615a2681615265565b9050919050565b60006020820190508181036000830152615a46816152cb565b9050919050565b6000602082019050615a62600083018461531a565b92915050565b600060a082019050615a7d600083018561531a565b615a8a6020830184614bbe565b9392505050565b6000819050919050565b600060049050919050565b600081519050919050565b600081519050919050565b6000602082019050919050565b600081905092915050565b600081905092915050565b600082825260208201905092915050565b6000615afb82615b2d565b9050919050565b60008115159050919050565b6000615b1982615af0565b9050919050565b600081600f0b9050919050565b600073ffffffffffffffffffffffffffffffffffffffff82169050919050565b6000819050919050565b6000615b6282615bc3565b9050919050565b6000615b7482615b20565b9050919050565b6000615b8682615b4d565b9050919050565b6000615b9882615b20565b9050919050565b6000615baa82615b20565b9050919050565b6000615bbc82615b20565b9050919050565b6000615bce82615bd5565b9050919050565b6000615be082615b2d565b9050919050565b60005b83811015615c05578082015181840152602081019050615bea565b83811115615c14576000848401525b50505050565b6000601f19601f8301169050919050565b615c3481615af0565b8114615c3f57600080fd5b50565b615c4b81615b02565b8114615c5657600080fd5b50565b615c6281615b0e565b8114615c6d57600080fd5b50565b615c7981615b4d565b8114615c8457600080fd5b5056fea365627a7a723158205c639ab0216bc6a8242620e985fc81f3d7f76225cc4bac318a69edd1fd4b20036c6578706572696d656e74616cf564736f6c634300050c0040",
  "source": "pragma solidity ^0.5.0;\r\npragma experimental ABIEncoderV2;\r\n\r\ninterface IERC20 {\r\n    function totalSupply() external view returns (uint256);\r\n    function balanceOf(address account) external view returns (uint256);\r\n    function transfer(address recipient, uint256 amount) external returns (bool);\r\n    function allowance(address owner, address spender) external view returns (uint256);\r\n    function approve(address spender, uint256 amount) external returns (bool);\r\n    function transferFrom(address sender, address recipient, uint256 amount) external returns (bool);\r\n    event Transfer(address indexed from, address indexed to, uint256 value);\r\n    event Approval(address indexed owner, address indexed spender, uint256 value);\r\n}\r\n\r\ncontract Context {\r\n    constructor () internal { }\r\n    // solhint-disable-previous-line no-empty-blocks\r\n\r\n    function _msgSender() internal view returns (address payable) {\r\n        return msg.sender;\r\n    }\r\n\r\n    function _msgData() internal view returns (bytes memory) {\r\n        this; // silence state mutability warning without generating bytecode - see https://github.com/ethereum/solidity/issues/2691\r\n        return msg.data;\r\n    }\r\n}\r\n\r\ncontract ReentrancyGuard {\r\n    uint256 private _guardCounter;\r\n\r\n    constructor () internal {\r\n        _guardCounter = 1;\r\n    }\r\n\r\n    modifier nonReentrant() {\r\n        _guardCounter += 1;\r\n        uint256 localCounter = _guardCounter;\r\n        _;\r\n        require(localCounter == _guardCounter, \"ReentrancyGuard: reentrant call\");\r\n    }\r\n}\r\n\r\ncontract Ownable is Context {\r\n    address private _owner;\r\n\r\n    event OwnershipTransferred(address indexed previousOwner, address indexed newOwner);\r\n    constructor () internal {\r\n        _owner = _msgSender();\r\n        emit OwnershipTransferred(address(0), _owner);\r\n    }\r\n    function owner() public view returns (address) {\r\n        return _owner;\r\n    }\r\n    modifier onlyOwner() {\r\n        require(isOwner(), \"Ownable: caller is not the owner\");\r\n        _;\r\n    }\r\n    function isOwner() public view returns (bool) {\r\n        return _msgSender() == _owner;\r\n    }\r\n    function renounceOwnership() public onlyOwner {\r\n        emit OwnershipTransferred(_owner, address(0));\r\n        _owner = address(0);\r\n    }\r\n    function transferOwnership(address newOwner) public onlyOwner {\r\n        _transferOwnership(newOwner);\r\n    }\r\n    function _transferOwnership(address newOwner) internal {\r\n        require(newOwner != address(0), \"Ownable: new owner is the zero address\");\r\n        emit OwnershipTransferred(_owner, newOwner);\r\n        _owner = newOwner;\r\n    }\r\n}\r\n\r\nlibrary SafeMath {\r\n    function add(uint256 a, uint256 b) internal pure returns (uint256) {\r\n        uint256 c = a + b;\r\n        require(c >= a, \"SafeMath: addition overflow\");\r\n\r\n        return c;\r\n    }\r\n    function sub(uint256 a, uint256 b) internal pure returns (uint256) {\r\n        return sub(a, b, \"SafeMath: subtraction overflow\");\r\n    }\r\n    function sub(uint256 a, uint256 b, string memory errorMessage) internal pure returns (uint256) {\r\n        require(b <= a, errorMessage);\r\n        uint256 c = a - b;\r\n\r\n        return c;\r\n    }\r\n    function mul(uint256 a, uint256 b) internal pure returns (uint256) {\r\n        if (a == 0) {\r\n            return 0;\r\n        }\r\n\r\n        uint256 c = a * b;\r\n        require(c / a == b, \"SafeMath: multiplication overflow\");\r\n\r\n        return c;\r\n    }\r\n    function div(uint256 a, uint256 b) internal pure returns (uint256) {\r\n        return div(a, b, \"SafeMath: division by zero\");\r\n    }\r\n    function div(uint256 a, uint256 b, string memory errorMessage) internal pure returns (uint256) {\r\n        // Solidity only automatically asserts when dividing by 0\r\n        require(b > 0, errorMessage);\r\n        uint256 c = a / b;\r\n\r\n        return c;\r\n    }\r\n    function mod(uint256 a, uint256 b) internal pure returns (uint256) {\r\n        return mod(a, b, \"SafeMath: modulo by zero\");\r\n    }\r\n    function mod(uint256 a, uint256 b, string memory errorMessage) internal pure returns (uint256) {\r\n        require(b != 0, errorMessage);\r\n        return a % b;\r\n    }\r\n}\r\n\r\nlibrary Address {\r\n    function isContract(address account) internal view returns (bool) {\r\n        bytes32 codehash;\r\n        bytes32 accountHash = 0xc5d2460186f7233c927e7db2dcc703c0e500b653ca82273b7bfad8045d85a470;\r\n        // solhint-disable-next-line no-inline-assembly\r\n        assembly { codehash := extcodehash(account) }\r\n        return (codehash != 0x0 && codehash != accountHash);\r\n    }\r\n    function toPayable(address account) internal pure returns (address payable) {\r\n        return address(uint160(account));\r\n    }\r\n    function sendValue(address payable recipient, uint256 amount) internal {\r\n        require(address(this).balance >= amount, \"Address: insufficient balance\");\r\n\r\n        // solhint-disable-next-line avoid-call-value\r\n        (bool success, ) = recipient.call.value(amount)(\"\");\r\n        require(success, \"Address: unable to send value, recipient may have reverted\");\r\n    }\r\n}\r\n\r\nlibrary SafeERC20 {\r\n    using SafeMath for uint256;\r\n    using Address for address;\r\n\r\n    function safeTransfer(IERC20 token, address to, uint256 value) internal {\r\n        callOptionalReturn(token, abi.encodeWithSelector(token.transfer.selector, to, value));\r\n    }\r\n    function safeTransferFrom(IERC20 token, address from, address to, uint256 value) internal {\r\n        callOptionalReturn(token, abi.encodeWithSelector(token.transferFrom.selector, from, to, value));\r\n    }\r\n    function safeApprove(IERC20 token, address spender, uint256 value) internal {\r\n        require((value == 0) || (token.allowance(address(this), spender) == 0),\r\n            \"SafeERC20: approve from non-zero to non-zero allowance\"\r\n        );\r\n        callOptionalReturn(token, abi.encodeWithSelector(token.approve.selector, spender, value));\r\n    }\r\n    function callOptionalReturn(IERC20 token, bytes memory data) private {\r\n        require(address(token).isContract(), \"SafeERC20: call to non-contract\");\r\n\r\n        // solhint-disable-next-line avoid-low-level-calls\r\n        (bool success, bytes memory returndata) = address(token).call(data);\r\n        require(success, \"SafeERC20: low-level call failed\");\r\n\r\n        if (returndata.length > 0) { // Return data is optional\r\n            // solhint-disable-next-line max-line-length\r\n            require(abi.decode(returndata, (bool)), \"SafeERC20: ERC20 operation did not succeed\");\r\n        }\r\n    }\r\n}\r\n\r\ninterface yERC20 {\r\n  function withdraw(uint256 _amount) external;\r\n}\r\n\r\n// Solidity Interface\r\n\r\ninterface ICurveFi {\r\n\r\n  function remove_liquidity(\r\n    uint256 _amount,\r\n    uint256[4] calldata amounts\r\n  ) external;\r\n  function exchange(\r\n    int128 from, int128 to, uint256 _from_amount, uint256 _min_to_amount\r\n  ) external;\r\n}\r\n\r\ncontract yCurveZapOut is ReentrancyGuard, Ownable {\r\n  using SafeERC20 for IERC20;\r\n  using Address for address;\r\n  using SafeMath for uint256;\r\n\r\n  address public DAI;\r\n  address public yDAI;\r\n  address public USDC;\r\n  address public yUSDC;\r\n  address public USDT;\r\n  address public yUSDT;\r\n  address public TUSD;\r\n  address public yTUSD;\r\n  address public SWAP;\r\n  address public CURVE;\r\n\r\n  constructor () public {\r\n    DAI = address(0x6B175474E89094C44Da98b954EedeAC495271d0F);\r\n    yDAI = address(0x16de59092dAE5CcF4A1E6439D611fd0653f0Bd01);\r\n\r\n    USDC = address(0xA0b86991c6218b36c1d19D4a2e9Eb0cE3606eB48);\r\n    yUSDC = address(0xd6aD7a6750A7593E092a9B218d66C0A814a3436e);\r\n\r\n    USDT = address(0xdAC17F958D2ee523a2206206994597C13D831ec7);\r\n    yUSDT = address(0x83f798e925BcD4017Eb265844FDDAbb448f1707D);\r\n\r\n    TUSD = address(0x0000000000085d4780B73119b644AE5ecd22b376);\r\n    yTUSD = address(0x73a052500105205d34Daf004eAb301916DA8190f);\r\n\r\n    SWAP = address(0x45F783CCE6B7FF23B2ab2D70e416cdb7D6055f51);\r\n    CURVE = address(0xdF5e0e81Dff6FAF3A7e52BA697820c5e32D806A8);\r\n\r\n    approveToken();\r\n  }\r\n\r\n  function() external payable {\r\n\r\n  }\r\n\r\n  function approveToken() public {\r\n      IERC20(yDAI).safeApprove(SWAP, uint(-1));\r\n      IERC20(yUSDC).safeApprove(SWAP, uint(-1));\r\n      IERC20(yUSDT).safeApprove(SWAP, uint(-1));\r\n      IERC20(yTUSD).safeApprove(SWAP, uint(-1));\r\n  }\r\n\r\n  function checkSlippage(uint256 _amount, address _token) public view returns (bool) {\r\n    uint256 received = IERC20(_token).balanceOf(address(this));\r\n    uint256 fivePercent = _amount.mul(5).div(100);\r\n    uint256 min = _amount.sub(fivePercent);\r\n    uint256 max = _amount.add(fivePercent);\r\n    require(received <= max && received >= min, \"slippage greater than 5%\");\r\n    return true;\r\n  }\r\n\r\n  function withdrawCurve(uint256 _amount) public {\r\n    require(_amount > 0, \"deposit must be greater than 0\");\r\n    IERC20(CURVE).safeTransferFrom(msg.sender, address(this), _amount);\r\n    ICurveFi(SWAP).remove_liquidity(IERC20(CURVE).balanceOf(address(this)), [uint256(0),0,0,0]);\r\n    require(IERC20(CURVE).balanceOf(address(this)) == 0, \"CURVE remainder\");\r\n  }\r\n\r\n  function withdrawDAI(uint256 _amount)\r\n      external\r\n      nonReentrant\r\n  {\r\n      withdrawCurve(_amount);\r\n\r\n      uint256 _ydai = IERC20(yDAI).balanceOf(address(this));\r\n      uint256 _yusdc = IERC20(yUSDC).balanceOf(address(this));\r\n      uint256 _yusdt = IERC20(yUSDT).balanceOf(address(this));\r\n      uint256 _ytusd = IERC20(yTUSD).balanceOf(address(this));\r\n\r\n      require(_ydai > 0 || _yusdc > 0 || _yusdt > 0 || _ytusd > 0, \"no y.tokens found\");\r\n\r\n      if (_yusdc > 0) {\r\n        ICurveFi(SWAP).exchange(1, 0, _yusdc, 0);\r\n        require(IERC20(yUSDC).balanceOf(address(this)) == 0, \"y.USDC remainder\");\r\n      }\r\n      if (_yusdt > 0) {\r\n        ICurveFi(SWAP).exchange(2, 0, _yusdt, 0);\r\n        require(IERC20(yUSDT).balanceOf(address(this)) == 0, \"y.USDT remainder\");\r\n      }\r\n      if (_ytusd > 0) {\r\n        ICurveFi(SWAP).exchange(3, 0, _ytusd, 0);\r\n        require(IERC20(yTUSD).balanceOf(address(this)) == 0, \"y.TUSD remainder\");\r\n      }\r\n\r\n      yERC20(yDAI).withdraw(IERC20(yDAI).balanceOf(address(this)));\r\n      require(IERC20(yDAI).balanceOf(address(this)) == 0, \"y.DAI remainder\");\r\n\r\n      checkSlippage(_amount, DAI);\r\n\r\n      IERC20(DAI).safeTransfer(msg.sender, IERC20(DAI).balanceOf(address(this)));\r\n      require(IERC20(DAI).balanceOf(address(this)) == 0, \"DAI remainder\");\r\n  }\r\n\r\n  function withdrawUSDC(uint256 _amount)\r\n      external\r\n      nonReentrant\r\n  {\r\n      withdrawCurve(_amount);\r\n\r\n      uint256 _ydai = IERC20(yDAI).balanceOf(address(this));\r\n      uint256 _yusdc = IERC20(yUSDC).balanceOf(address(this));\r\n      uint256 _yusdt = IERC20(yUSDT).balanceOf(address(this));\r\n      uint256 _ytusd = IERC20(yTUSD).balanceOf(address(this));\r\n\r\n      require(_ydai > 0 || _yusdc > 0 || _yusdt > 0 || _ytusd > 0, \"no y.tokens found\");\r\n\r\n      if (_ydai > 0) {\r\n        ICurveFi(SWAP).exchange(0, 1, _ydai, 0);\r\n        require(IERC20(yDAI).balanceOf(address(this)) == 0, \"y.DAI remainder\");\r\n      }\r\n      if (_yusdt > 0) {\r\n        ICurveFi(SWAP).exchange(2, 1, _yusdt, 0);\r\n        require(IERC20(yUSDT).balanceOf(address(this)) == 0, \"y.USDT remainder\");\r\n      }\r\n      if (_ytusd > 0) {\r\n        ICurveFi(SWAP).exchange(3, 1, _ytusd, 0);\r\n        require(IERC20(yTUSD).balanceOf(address(this)) == 0, \"y.TUSD remainder\");\r\n      }\r\n\r\n      yERC20(yUSDC).withdraw(IERC20(yUSDC).balanceOf(address(this)));\r\n      require(IERC20(yUSDC).balanceOf(address(this)) == 0, \"y.USDC remainder\");\r\n\r\n      checkSlippage(_amount, USDC);\r\n\r\n      IERC20(USDC).safeTransfer(msg.sender, IERC20(USDC).balanceOf(address(this)));\r\n      require(IERC20(USDC).balanceOf(address(this)) == 0, \"USDC remainder\");\r\n  }\r\n\r\n  function withdrawUSDT(uint256 _amount)\r\n      external\r\n      nonReentrant\r\n  {\r\n      withdrawCurve(_amount);\r\n\r\n      uint256 _ydai = IERC20(yDAI).balanceOf(address(this));\r\n      uint256 _yusdc = IERC20(yUSDC).balanceOf(address(this));\r\n      uint256 _yusdt = IERC20(yUSDT).balanceOf(address(this));\r\n      uint256 _ytusd = IERC20(yTUSD).balanceOf(address(this));\r\n\r\n      require(_ydai > 0 || _yusdc > 0 || _yusdt > 0 || _ytusd > 0, \"no y.tokens found\");\r\n\r\n      if (_ydai > 0) {\r\n        ICurveFi(SWAP).exchange(0, 2, _ydai, 0);\r\n        require(IERC20(yDAI).balanceOf(address(this)) == 0, \"y.DAI remainder\");\r\n      }\r\n      if (_yusdc > 0) {\r\n        ICurveFi(SWAP).exchange(1, 2, _yusdc, 0);\r\n        require(IERC20(yUSDC).balanceOf(address(this)) == 0, \"y.USDC remainder\");\r\n      }\r\n      if (_ytusd > 0) {\r\n        ICurveFi(SWAP).exchange(3, 2, _ytusd, 0);\r\n        require(IERC20(yTUSD).balanceOf(address(this)) == 0, \"y.TUSD remainder\");\r\n      }\r\n\r\n      yERC20(yUSDT).withdraw(IERC20(yUSDT).balanceOf(address(this)));\r\n      require(IERC20(yUSDT).balanceOf(address(this)) == 0, \"y.USDT remainder\");\r\n\r\n      checkSlippage(_amount, USDT);\r\n\r\n      IERC20(USDT).safeTransfer(msg.sender, IERC20(USDT).balanceOf(address(this)));\r\n      require(IERC20(USDT).balanceOf(address(this)) == 0, \"USDT remainder\");\r\n  }\r\n\r\n  function withdrawTUSD(uint256 _amount)\r\n      external\r\n      nonReentrant\r\n  {\r\n      withdrawCurve(_amount);\r\n\r\n      uint256 _ydai = IERC20(yDAI).balanceOf(address(this));\r\n      uint256 _yusdc = IERC20(yUSDC).balanceOf(address(this));\r\n      uint256 _yusdt = IERC20(yUSDT).balanceOf(address(this));\r\n      uint256 _ytusd = IERC20(yTUSD).balanceOf(address(this));\r\n\r\n      require(_ydai > 0 || _yusdc > 0 || _yusdt > 0 || _ytusd > 0, \"no y.tokens found\");\r\n\r\n      if (_ydai > 0) {\r\n        ICurveFi(SWAP).exchange(0, 3, _ydai, 0);\r\n        require(IERC20(yDAI).balanceOf(address(this)) == 0, \"y.DAI remainder\");\r\n      }\r\n      if (_yusdc > 0) {\r\n        ICurveFi(SWAP).exchange(1, 3, _yusdc, 0);\r\n        require(IERC20(yUSDC).balanceOf(address(this)) == 0, \"y.USDC remainder\");\r\n      }\r\n      if (_yusdt > 0) {\r\n        ICurveFi(SWAP).exchange(2, 3, _yusdt, 0);\r\n        require(IERC20(yUSDT).balanceOf(address(this)) == 0, \"y.USDT remainder\");\r\n      }\r\n\r\n      yERC20(yTUSD).withdraw(IERC20(yTUSD).balanceOf(address(this)));\r\n      require(IERC20(yTUSD).balanceOf(address(this)) == 0, \"y.TUSD remainder\");\r\n\r\n      checkSlippage(_amount, TUSD);\r\n\r\n      IERC20(TUSD).safeTransfer(msg.sender, IERC20(TUSD).balanceOf(address(this)));\r\n      require(IERC20(TUSD).balanceOf(address(this)) == 0, \"TUSD remainder\");\r\n  }\r\n\r\n  // incase of half-way error\r\n  function inCaseTokenGetsStuck(IERC20 _TokenAddress) onlyOwner public {\r\n      uint qty = _TokenAddress.balanceOf(address(this));\r\n      _TokenAddress.safeTransfer(msg.sender, qty);\r\n  }\r\n\r\n  // incase of half-way error\r\n  function inCaseETHGetsStuck() onlyOwner public{\r\n      (bool result, ) = msg.sender.call.value(address(this).balance)(\"\");\r\n      require(result, \"transfer of ETH failed\");\r\n  }\r\n}\r\n",
  "sourcePath": "D:/ftm/itoken/contracts/yCurveZapOut.sol",
  "compiler": {
    "name": "solc",
    "version": "0.5.12+commit.7709ece9.Emscripten.clang"
  },
  "schemaVersion": "3.0.19",
  "updatedAt": "2020-03-02T05:17:53.212Z",
  "devdoc": {
    "methods": {}
  },
  "userdoc": {
    "methods": {}
  }
}