{
  "contractName": "yCurveZapOutV4",
  "abi": [
    {
      "inputs": [],
      "payable": false,
      "stateMutability": "nonpayable",
      "type": "constructor"
    },
    {
      "anonymous": false,
      "inputs": [
        {
          "indexed": true,
          "internalType": "address",
          "name": "previousOwner",
          "type": "address"
        },
        {
          "indexed": true,
          "internalType": "address",
          "name": "newOwner",
          "type": "address"
        }
      ],
      "name": "OwnershipTransferred",
      "type": "event"
    },
    {
      "payable": true,
      "stateMutability": "payable",
      "type": "fallback"
    },
    {
      "constant": true,
      "inputs": [],
      "name": "BUSD",
      "outputs": [
        {
          "internalType": "address",
          "name": "",
          "type": "address"
        }
      ],
      "payable": false,
      "stateMutability": "view",
      "type": "function"
    },
    {
      "constant": true,
      "inputs": [],
      "name": "CURVE",
      "outputs": [
        {
          "internalType": "address",
          "name": "",
          "type": "address"
        }
      ],
      "payable": false,
      "stateMutability": "view",
      "type": "function"
    },
    {
      "constant": true,
      "inputs": [],
      "name": "DAI",
      "outputs": [
        {
          "internalType": "address",
          "name": "",
          "type": "address"
        }
      ],
      "payable": false,
      "stateMutability": "view",
      "type": "function"
    },
    {
      "constant": true,
      "inputs": [],
      "name": "SWAP",
      "outputs": [
        {
          "internalType": "address",
          "name": "",
          "type": "address"
        }
      ],
      "payable": false,
      "stateMutability": "view",
      "type": "function"
    },
    {
      "constant": true,
      "inputs": [],
      "name": "USDC",
      "outputs": [
        {
          "internalType": "address",
          "name": "",
          "type": "address"
        }
      ],
      "payable": false,
      "stateMutability": "view",
      "type": "function"
    },
    {
      "constant": true,
      "inputs": [],
      "name": "USDT",
      "outputs": [
        {
          "internalType": "address",
          "name": "",
          "type": "address"
        }
      ],
      "payable": false,
      "stateMutability": "view",
      "type": "function"
    },
    {
      "constant": true,
      "inputs": [],
      "name": "isOwner",
      "outputs": [
        {
          "internalType": "bool",
          "name": "",
          "type": "bool"
        }
      ],
      "payable": false,
      "stateMutability": "view",
      "type": "function"
    },
    {
      "constant": true,
      "inputs": [],
      "name": "owner",
      "outputs": [
        {
          "internalType": "address",
          "name": "",
          "type": "address"
        }
      ],
      "payable": false,
      "stateMutability": "view",
      "type": "function"
    },
    {
      "constant": false,
      "inputs": [],
      "name": "renounceOwnership",
      "outputs": [],
      "payable": false,
      "stateMutability": "nonpayable",
      "type": "function"
    },
    {
      "constant": false,
      "inputs": [
        {
          "internalType": "address",
          "name": "newOwner",
          "type": "address"
        }
      ],
      "name": "transferOwnership",
      "outputs": [],
      "payable": false,
      "stateMutability": "nonpayable",
      "type": "function"
    },
    {
      "constant": true,
      "inputs": [],
      "name": "yBUSD",
      "outputs": [
        {
          "internalType": "address",
          "name": "",
          "type": "address"
        }
      ],
      "payable": false,
      "stateMutability": "view",
      "type": "function"
    },
    {
      "constant": true,
      "inputs": [],
      "name": "yDAI",
      "outputs": [
        {
          "internalType": "address",
          "name": "",
          "type": "address"
        }
      ],
      "payable": false,
      "stateMutability": "view",
      "type": "function"
    },
    {
      "constant": true,
      "inputs": [],
      "name": "yUSDC",
      "outputs": [
        {
          "internalType": "address",
          "name": "",
          "type": "address"
        }
      ],
      "payable": false,
      "stateMutability": "view",
      "type": "function"
    },
    {
      "constant": true,
      "inputs": [],
      "name": "yUSDT",
      "outputs": [
        {
          "internalType": "address",
          "name": "",
          "type": "address"
        }
      ],
      "payable": false,
      "stateMutability": "view",
      "type": "function"
    },
    {
      "constant": false,
      "inputs": [],
      "name": "approveToken",
      "outputs": [],
      "payable": false,
      "stateMutability": "nonpayable",
      "type": "function"
    },
    {
      "constant": true,
      "inputs": [
        {
          "internalType": "uint256",
          "name": "_amount",
          "type": "uint256"
        },
        {
          "internalType": "address",
          "name": "_token",
          "type": "address"
        }
      ],
      "name": "checkSlippage",
      "outputs": [
        {
          "internalType": "bool",
          "name": "",
          "type": "bool"
        }
      ],
      "payable": false,
      "stateMutability": "view",
      "type": "function"
    },
    {
      "constant": false,
      "inputs": [
        {
          "internalType": "uint256",
          "name": "_amount",
          "type": "uint256"
        }
      ],
      "name": "withdrawCurve",
      "outputs": [],
      "payable": false,
      "stateMutability": "nonpayable",
      "type": "function"
    },
    {
      "constant": false,
      "inputs": [
        {
          "internalType": "uint256",
          "name": "_amount",
          "type": "uint256"
        }
      ],
      "name": "withdrawDAI",
      "outputs": [],
      "payable": false,
      "stateMutability": "nonpayable",
      "type": "function"
    },
    {
      "constant": false,
      "inputs": [
        {
          "internalType": "uint256",
          "name": "_amount",
          "type": "uint256"
        }
      ],
      "name": "withdrawUSDC",
      "outputs": [],
      "payable": false,
      "stateMutability": "nonpayable",
      "type": "function"
    },
    {
      "constant": false,
      "inputs": [
        {
          "internalType": "uint256",
          "name": "_amount",
          "type": "uint256"
        }
      ],
      "name": "withdrawUSDT",
      "outputs": [],
      "payable": false,
      "stateMutability": "nonpayable",
      "type": "function"
    },
    {
      "constant": false,
      "inputs": [
        {
          "internalType": "uint256",
          "name": "_amount",
          "type": "uint256"
        }
      ],
      "name": "withdrawBUSD",
      "outputs": [],
      "payable": false,
      "stateMutability": "nonpayable",
      "type": "function"
    },
    {
      "constant": false,
      "inputs": [
        {
          "internalType": "contract IERC20",
          "name": "_TokenAddress",
          "type": "address"
        }
      ],
      "name": "inCaseTokenGetsStuck",
      "outputs": [],
      "payable": false,
      "stateMutability": "nonpayable",
      "type": "function"
    },
    {
      "constant": false,
      "inputs": [],
      "name": "inCaseETHGetsStuck",
      "outputs": [],
      "payable": false,
      "stateMutability": "nonpayable",
      "type": "function"
    }
  ],
  "bytecode": "0x60806040523480156200001157600080fd5b5060016000819055506200002a6200044f60201b60201c565b600160006101000a81548173ffffffffffffffffffffffffffffffffffffffff021916908373ffffffffffffffffffffffffffffffffffffffff160217905550600160009054906101000a900473ffffffffffffffffffffffffffffffffffffffff1673ffffffffffffffffffffffffffffffffffffffff16600073ffffffffffffffffffffffffffffffffffffffff167f8be0079c531659141344cd1fd0a4f28419497f9722a3daafe3b4186f6b6457e060405160405180910390a3736b175474e89094c44da98b954eedeac495271d0f600260006101000a81548173ffffffffffffffffffffffffffffffffffffffff021916908373ffffffffffffffffffffffffffffffffffffffff16021790555073c2cb1040220768554cf699b0d863a3cd4324ce32600360006101000a81548173ffffffffffffffffffffffffffffffffffffffff021916908373ffffffffffffffffffffffffffffffffffffffff16021790555073a0b86991c6218b36c1d19d4a2e9eb0ce3606eb48600460006101000a81548173ffffffffffffffffffffffffffffffffffffffff021916908373ffffffffffffffffffffffffffffffffffffffff1602179055507326ea744e5b887e5205727f55dfbe8685e3b21951600560006101000a81548173ffffffffffffffffffffffffffffffffffffffff021916908373ffffffffffffffffffffffffffffffffffffffff16021790555073dac17f958d2ee523a2206206994597c13d831ec7600660006101000a81548173ffffffffffffffffffffffffffffffffffffffff021916908373ffffffffffffffffffffffffffffffffffffffff16021790555073e6354ed5bc4b393a5aad09f21c46e101e692d447600760006101000a81548173ffffffffffffffffffffffffffffffffffffffff021916908373ffffffffffffffffffffffffffffffffffffffff160217905550734fabb145d64652a948d72533023f6e7a623c7c53600860006101000a81548173ffffffffffffffffffffffffffffffffffffffff021916908373ffffffffffffffffffffffffffffffffffffffff1602179055507304bc0ab673d88ae9dbc9da2380cb6b79c4bca9ae600960006101000a81548173ffffffffffffffffffffffffffffffffffffffff021916908373ffffffffffffffffffffffffffffffffffffffff1602179055507379a8c46dea5ada233abaffd40f3a0a2b1e5a4f27600a60006101000a81548173ffffffffffffffffffffffffffffffffffffffff021916908373ffffffffffffffffffffffffffffffffffffffff160217905550733b3ac5386837dc563660fb6a0937dfaa5924333b600b60006101000a81548173ffffffffffffffffffffffffffffffffffffffff021916908373ffffffffffffffffffffffffffffffffffffffff160217905550620004496200045760201b60201c565b62000e20565b600033905090565b620004ed600a60009054906101000a900473ffffffffffffffffffffffffffffffffffffffff167fffffffffffffffffffffffffffffffffffffffffffffffffffffffffffffffff600360009054906101000a900473ffffffffffffffffffffffffffffffffffffffff1673ffffffffffffffffffffffffffffffffffffffff16620006b160201b620044f6179092919060201c565b62000583600a60009054906101000a900473ffffffffffffffffffffffffffffffffffffffff167fffffffffffffffffffffffffffffffffffffffffffffffffffffffffffffffff600560009054906101000a900473ffffffffffffffffffffffffffffffffffffffff1673ffffffffffffffffffffffffffffffffffffffff16620006b160201b620044f6179092919060201c565b62000619600a60009054906101000a900473ffffffffffffffffffffffffffffffffffffffff167fffffffffffffffffffffffffffffffffffffffffffffffffffffffffffffffff600760009054906101000a900473ffffffffffffffffffffffffffffffffffffffff1673ffffffffffffffffffffffffffffffffffffffff16620006b160201b620044f6179092919060201c565b620006af600a60009054906101000a900473ffffffffffffffffffffffffffffffffffffffff167fffffffffffffffffffffffffffffffffffffffffffffffffffffffffffffffff600960009054906101000a900473ffffffffffffffffffffffffffffffffffffffff1673ffffffffffffffffffffffffffffffffffffffff16620006b160201b620044f6179092919060201c565b565b600081148062000751575060008373ffffffffffffffffffffffffffffffffffffffff1663dd62ed3e30856040518363ffffffff1660e01b8152600401620006fb92919062000c63565b60206040518083038186803b1580156200071457600080fd5b505afa15801562000729573d6000803e3d6000fd5b505050506040513d601f19601f820116820180604052506200074f919081019062000a71565b145b62000793576040517f08c379a00000000000000000000000000000000000000000000000000000000081526004016200078a9062000d01565b60405180910390fd5b62000837838473ffffffffffffffffffffffffffffffffffffffff1663095ea7b3905060e01b8484604051602401620007ce92919062000c90565b604051602081830303815290604052907bffffffffffffffffffffffffffffffffffffffffffffffffffffffff19166020820180517bffffffffffffffffffffffffffffffffffffffffffffffffffffffff83818316178352505050506200083c60201b60201c565b505050565b620008688273ffffffffffffffffffffffffffffffffffffffff16620009cb60201b620049cb1760201c565b620008aa576040517f08c379a0000000000000000000000000000000000000000000000000000000008152600401620008a19062000d23565b60405180910390fd5b600060608373ffffffffffffffffffffffffffffffffffffffff1683604051620008d5919062000c4a565b6000604051808303816000865af19150503d806000811462000914576040519150601f19603f3d011682016040523d82523d6000602084013e62000919565b606091505b50915091508162000961576040517f08c379a0000000000000000000000000000000000000000000000000000000008152600401620009589062000cbd565b60405180910390fd5b600081511115620009c5578080602001905162000982919081019062000a45565b620009c4576040517f08c379a0000000000000000000000000000000000000000000000000000000008152600401620009bb9062000cdf565b60405180910390fd5b5b50505050565b60008060007fc5d2460186f7233c927e7db2dcc703c0e500b653ca82273b7bfad8045d85a47060001b9050833f91506000801b821415801562000a0e5750808214155b92505050919050565b60008151905062000a288162000dec565b92915050565b60008151905062000a3f8162000e06565b92915050565b60006020828403121562000a5857600080fd5b600062000a688482850162000a17565b91505092915050565b60006020828403121562000a8457600080fd5b600062000a948482850162000a2e565b91505092915050565b62000aa88162000d6c565b82525050565b600062000abb8262000d45565b62000ac7818562000d50565b935062000ad981856020860162000db6565b80840191505092915050565b600062000af460208362000d5b565b91507f5361666545524332303a206c6f772d6c6576656c2063616c6c206661696c65646000830152602082019050919050565b600062000b36602a8362000d5b565b91507f5361666545524332303a204552433230206f7065726174696f6e20646964206e60008301527f6f742073756363656564000000000000000000000000000000000000000000006020830152604082019050919050565b600062000b9e60368362000d5b565b91507f5361666545524332303a20617070726f76652066726f6d206e6f6e2d7a65726f60008301527f20746f206e6f6e2d7a65726f20616c6c6f77616e6365000000000000000000006020830152604082019050919050565b600062000c06601f8362000d5b565b91507f5361666545524332303a2063616c6c20746f206e6f6e2d636f6e7472616374006000830152602082019050919050565b62000c448162000dac565b82525050565b600062000c58828462000aae565b915081905092915050565b600060408201905062000c7a600083018562000a9d565b62000c89602083018462000a9d565b9392505050565b600060408201905062000ca7600083018562000a9d565b62000cb6602083018462000c39565b9392505050565b6000602082019050818103600083015262000cd88162000ae5565b9050919050565b6000602082019050818103600083015262000cfa8162000b27565b9050919050565b6000602082019050818103600083015262000d1c8162000b8f565b9050919050565b6000602082019050818103600083015262000d3e8162000bf7565b9050919050565b600081519050919050565b600081905092915050565b600082825260208201905092915050565b600062000d798262000d8c565b9050919050565b60008115159050919050565b600073ffffffffffffffffffffffffffffffffffffffff82169050919050565b6000819050919050565b60005b8381101562000dd657808201518184015260208101905062000db9565b8381111562000de6576000848401525b50505050565b62000df78162000d80565b811462000e0357600080fd5b50565b62000e118162000dac565b811462000e1d57600080fd5b50565b615cca8062000e306000396000f3fe6080604052600436106101405760003560e01c806389a30271116100b6578063c54e44eb1161006f578063c54e44eb146103ff578063cc3bcaf31461042a578063db81f99b14610453578063e0bab4c41461047c578063f2fde38b146104a7578063f60a15ed146104d057610140565b806389a30271146103015780638da5cb5b1461032c5780638f32d59b14610357578063994239711461038257806399b71d5c146103bf5780639add7438146103d657610140565b80632e8d6e18116101085780632e8d6e18146102175780633a3c3b87146102405780633ea521ef1461026b578063484f4ea914610294578063715018a6146102bf578063756bb1cc146102d657610140565b8063041401c81461014257806304d841081461016b57806306bafb491461019657806317e5a9a4146101c157806319d9e008146101ec575b005b34801561014e57600080fd5b5061016960048036036101649190810190614afa565b6104e7565b005b34801561017757600080fd5b506101806107c6565b60405161018d9190615355565b60405180910390f35b3480156101a257600080fd5b506101ab6107ec565b6040516101b89190615355565b60405180910390f35b3480156101cd57600080fd5b506101d6610812565b6040516101e39190615355565b60405180910390f35b3480156101f857600080fd5b50610201610838565b60405161020e9190615355565b60405180910390f35b34801561022357600080fd5b5061023e60048036036102399190810190614ad1565b61085e565b005b34801561024c57600080fd5b50610255610961565b6040516102629190615355565b60405180910390f35b34801561027757600080fd5b50610292600480360361028d9190810190614afa565b610987565b005b3480156102a057600080fd5b506102a96115ee565b6040516102b69190615355565b60405180910390f35b3480156102cb57600080fd5b506102d4611614565b005b3480156102e257600080fd5b506102eb61171c565b6040516102f89190615355565b60405180910390f35b34801561030d57600080fd5b50610316611742565b6040516103239190615355565b60405180910390f35b34801561033857600080fd5b50610341611768565b60405161034e9190615355565b60405180910390f35b34801561036357600080fd5b5061036c611792565b6040516103799190615414565b60405180910390f35b34801561038e57600080fd5b506103a960048036036103a49190810190614b4c565b6117f1565b6040516103b69190615414565b60405180910390f35b3480156103cb57600080fd5b506103d4611935565b005b3480156103e257600080fd5b506103fd60048036036103f89190810190614afa565b611b73565b005b34801561040b57600080fd5b506104146127da565b6040516104219190615355565b60405180910390f35b34801561043657600080fd5b50610451600480360361044c9190810190614afa565b612800565b005b34801561045f57600080fd5b5061047a60048036036104759190810190614afa565b613467565b005b34801561048857600080fd5b506104916140ce565b60405161049e9190615355565b60405180910390f35b3480156104b357600080fd5b506104ce60048036036104c99190810190614a7f565b6140f4565b005b3480156104dc57600080fd5b506104e5614147565b005b6000811161052a576040517f08c379a00000000000000000000000000000000000000000000000000000000081526004016105219061596d565b60405180910390fd5b610579333083600b60009054906101000a900473ffffffffffffffffffffffffffffffffffffffff1673ffffffffffffffffffffffffffffffffffffffff16614254909392919063ffffffff16565b600a60009054906101000a900473ffffffffffffffffffffffffffffffffffffffff1673ffffffffffffffffffffffffffffffffffffffff16637d49d875600b60009054906101000a900473ffffffffffffffffffffffffffffffffffffffff1673ffffffffffffffffffffffffffffffffffffffff166370a08231306040518263ffffffff1660e01b81526004016106129190615370565b60206040518083038186803b15801561062a57600080fd5b505afa15801561063e573d6000803e3d6000fd5b505050506040513d601f19601f820116820180604052506106629190810190614b23565b604051806080016040528060008152602001600081526020016000815260200160008152506040518363ffffffff1660e01b81526004016106a4929190615a68565b600060405180830381600087803b1580156106be57600080fd5b505af11580156106d2573d6000803e3d6000fd5b505050506000600b60009054906101000a900473ffffffffffffffffffffffffffffffffffffffff1673ffffffffffffffffffffffffffffffffffffffff166370a08231306040518263ffffffff1660e01b81526004016107339190615370565b60206040518083038186803b15801561074b57600080fd5b505afa15801561075f573d6000803e3d6000fd5b505050506040513d601f19601f820116820180604052506107839190810190614b23565b146107c3576040517f08c379a00000000000000000000000000000000000000000000000000000000081526004016107ba906158cd565b60405180910390fd5b50565b600a60009054906101000a900473ffffffffffffffffffffffffffffffffffffffff1681565b600960009054906101000a900473ffffffffffffffffffffffffffffffffffffffff1681565b600760009054906101000a900473ffffffffffffffffffffffffffffffffffffffff1681565b600560009054906101000a900473ffffffffffffffffffffffffffffffffffffffff1681565b610866611792565b6108a5576040517f08c379a000000000000000000000000000000000000000000000000000000000815260040161089c9061592d565b60405180910390fd5b60008173ffffffffffffffffffffffffffffffffffffffff166370a08231306040518263ffffffff1660e01b81526004016108e09190615370565b60206040518083038186803b1580156108f857600080fd5b505afa15801561090c573d6000803e3d6000fd5b505050506040513d601f19601f820116820180604052506109309190810190614b23565b905061095d33828473ffffffffffffffffffffffffffffffffffffffff166142f69092919063ffffffff16565b5050565b600b60009054906101000a900473ffffffffffffffffffffffffffffffffffffffff1681565b600160008082825401925050819055506000805490506109a6826104e7565b6000600360009054906101000a900473ffffffffffffffffffffffffffffffffffffffff1673ffffffffffffffffffffffffffffffffffffffff166370a08231306040518263ffffffff1660e01b8152600401610a039190615370565b60206040518083038186803b158015610a1b57600080fd5b505afa158015610a2f573d6000803e3d6000fd5b505050506040513d601f19601f82011682018060405250610a539190810190614b23565b90506000600560009054906101000a900473ffffffffffffffffffffffffffffffffffffffff1673ffffffffffffffffffffffffffffffffffffffff166370a08231306040518263ffffffff1660e01b8152600401610ab29190615370565b60206040518083038186803b158015610aca57600080fd5b505afa158015610ade573d6000803e3d6000fd5b505050506040513d601f19601f82011682018060405250610b029190810190614b23565b90506000600760009054906101000a900473ffffffffffffffffffffffffffffffffffffffff1673ffffffffffffffffffffffffffffffffffffffff166370a08231306040518263ffffffff1660e01b8152600401610b619190615370565b60206040518083038186803b158015610b7957600080fd5b505afa158015610b8d573d6000803e3d6000fd5b505050506040513d601f19601f82011682018060405250610bb19190810190614b23565b90506000600960009054906101000a900473ffffffffffffffffffffffffffffffffffffffff1673ffffffffffffffffffffffffffffffffffffffff166370a08231306040518263ffffffff1660e01b8152600401610c109190615370565b60206040518083038186803b158015610c2857600080fd5b505afa158015610c3c573d6000803e3d6000fd5b505050506040513d601f19601f82011682018060405250610c609190810190614b23565b90506000841180610c715750600083115b80610c7c5750600082115b80610c875750600081115b610cc6576040517f08c379a0000000000000000000000000000000000000000000000000000000008152600401610cbd906157ad565b60405180910390fd5b6000841115610e5357600a60009054906101000a900473ffffffffffffffffffffffffffffffffffffffff1673ffffffffffffffffffffffffffffffffffffffff16633df02124600060028760006040518563ffffffff1660e01b8152600401610d339493929190615474565b600060405180830381600087803b158015610d4d57600080fd5b505af1158015610d61573d6000803e3d6000fd5b505050506000600360009054906101000a900473ffffffffffffffffffffffffffffffffffffffff1673ffffffffffffffffffffffffffffffffffffffff166370a08231306040518263ffffffff1660e01b8152600401610dc29190615370565b60206040518083038186803b158015610dda57600080fd5b505afa158015610dee573d6000803e3d6000fd5b505050506040513d601f19601f82011682018060405250610e129190810190614b23565b14610e52576040517f08c379a0000000000000000000000000000000000000000000000000000000008152600401610e49906159ed565b60405180910390fd5b5b6000831115610fe057600a60009054906101000a900473ffffffffffffffffffffffffffffffffffffffff1673ffffffffffffffffffffffffffffffffffffffff16633df02124600160028660006040518563ffffffff1660e01b8152600401610ec09493929190615543565b600060405180830381600087803b158015610eda57600080fd5b505af1158015610eee573d6000803e3d6000fd5b505050506000600560009054906101000a900473ffffffffffffffffffffffffffffffffffffffff1673ffffffffffffffffffffffffffffffffffffffff166370a08231306040518263ffffffff1660e01b8152600401610f4f9190615370565b60206040518083038186803b158015610f6757600080fd5b505afa158015610f7b573d6000803e3d6000fd5b505050506040513d601f19601f82011682018060405250610f9f9190810190614b23565b14610fdf576040517f08c379a0000000000000000000000000000000000000000000000000000000008152600401610fd69061588d565b60405180910390fd5b5b600081111561116d57600a60009054906101000a900473ffffffffffffffffffffffffffffffffffffffff1673ffffffffffffffffffffffffffffffffffffffff16633df02124600360028460006040518563ffffffff1660e01b815260040161104d9493929190615726565b600060405180830381600087803b15801561106757600080fd5b505af115801561107b573d6000803e3d6000fd5b505050506000600960009054906101000a900473ffffffffffffffffffffffffffffffffffffffff1673ffffffffffffffffffffffffffffffffffffffff166370a08231306040518263ffffffff1660e01b81526004016110dc9190615370565b60206040518083038186803b1580156110f457600080fd5b505afa158015611108573d6000803e3d6000fd5b505050506040513d601f19601f8201168201806040525061112c9190810190614b23565b1461116c576040517f08c379a00000000000000000000000000000000000000000000000000000000081526004016111639061590d565b60405180910390fd5b5b600760009054906101000a900473ffffffffffffffffffffffffffffffffffffffff1673ffffffffffffffffffffffffffffffffffffffff16632e1a7d4d600760009054906101000a900473ffffffffffffffffffffffffffffffffffffffff1673ffffffffffffffffffffffffffffffffffffffff166370a08231306040518263ffffffff1660e01b81526004016112069190615370565b60206040518083038186803b15801561121e57600080fd5b505afa158015611232573d6000803e3d6000fd5b505050506040513d601f19601f820116820180604052506112569190810190614b23565b6040518263ffffffff1660e01b81526004016112729190615a4d565b600060405180830381600087803b15801561128c57600080fd5b505af11580156112a0573d6000803e3d6000fd5b505050506000600760009054906101000a900473ffffffffffffffffffffffffffffffffffffffff1673ffffffffffffffffffffffffffffffffffffffff166370a08231306040518263ffffffff1660e01b81526004016113019190615370565b60206040518083038186803b15801561131957600080fd5b505afa15801561132d573d6000803e3d6000fd5b505050506040513d601f19601f820116820180604052506113519190810190614b23565b14611391576040517f08c379a00000000000000000000000000000000000000000000000000000000081526004016113889061586d565b60405180910390fd5b6113bd86600660009054906101000a900473ffffffffffffffffffffffffffffffffffffffff166117f1565b506114b533600660009054906101000a900473ffffffffffffffffffffffffffffffffffffffff1673ffffffffffffffffffffffffffffffffffffffff166370a08231306040518263ffffffff1660e01b815260040161141d9190615370565b60206040518083038186803b15801561143557600080fd5b505afa158015611449573d6000803e3d6000fd5b505050506040513d601f19601f8201168201806040525061146d9190810190614b23565b600660009054906101000a900473ffffffffffffffffffffffffffffffffffffffff1673ffffffffffffffffffffffffffffffffffffffff166142f69092919063ffffffff16565b6000600660009054906101000a900473ffffffffffffffffffffffffffffffffffffffff1673ffffffffffffffffffffffffffffffffffffffff166370a08231306040518263ffffffff1660e01b81526004016115129190615370565b60206040518083038186803b15801561152a57600080fd5b505afa15801561153e573d6000803e3d6000fd5b505050506040513d601f19601f820116820180604052506115629190810190614b23565b146115a2576040517f08c379a00000000000000000000000000000000000000000000000000000000081526004016115999061580d565b60405180910390fd5b5050505060005481146115ea576040517f08c379a00000000000000000000000000000000000000000000000000000000081526004016115e1906159cd565b60405180910390fd5b5050565b600860009054906101000a900473ffffffffffffffffffffffffffffffffffffffff1681565b61161c611792565b61165b576040517f08c379a00000000000000000000000000000000000000000000000000000000081526004016116529061592d565b60405180910390fd5b600073ffffffffffffffffffffffffffffffffffffffff16600160009054906101000a900473ffffffffffffffffffffffffffffffffffffffff1673ffffffffffffffffffffffffffffffffffffffff167f8be0079c531659141344cd1fd0a4f28419497f9722a3daafe3b4186f6b6457e060405160405180910390a36000600160006101000a81548173ffffffffffffffffffffffffffffffffffffffff021916908373ffffffffffffffffffffffffffffffffffffffff160217905550565b600360009054906101000a900473ffffffffffffffffffffffffffffffffffffffff1681565b600460009054906101000a900473ffffffffffffffffffffffffffffffffffffffff1681565b6000600160009054906101000a900473ffffffffffffffffffffffffffffffffffffffff16905090565b6000600160009054906101000a900473ffffffffffffffffffffffffffffffffffffffff1673ffffffffffffffffffffffffffffffffffffffff166117d5614395565b73ffffffffffffffffffffffffffffffffffffffff1614905090565b6000808273ffffffffffffffffffffffffffffffffffffffff166370a08231306040518263ffffffff1660e01b815260040161182d9190615370565b60206040518083038186803b15801561184557600080fd5b505afa158015611859573d6000803e3d6000fd5b505050506040513d601f19601f8201168201806040525061187d9190810190614b23565b905060006118a8606461189a60058861439d90919063ffffffff16565b61440d90919063ffffffff16565b905060006118bf828761445790919063ffffffff16565b905060006118d683886144a190919063ffffffff16565b90508084111580156118e85750818410155b611927576040517f08c379a000000000000000000000000000000000000000000000000000000000815260040161191e9061598d565b60405180910390fd5b600194505050505092915050565b6119c4600a60009054906101000a900473ffffffffffffffffffffffffffffffffffffffff167fffffffffffffffffffffffffffffffffffffffffffffffffffffffffffffffff600360009054906101000a900473ffffffffffffffffffffffffffffffffffffffff1673ffffffffffffffffffffffffffffffffffffffff166144f69092919063ffffffff16565b611a53600a60009054906101000a900473ffffffffffffffffffffffffffffffffffffffff167fffffffffffffffffffffffffffffffffffffffffffffffffffffffffffffffff600560009054906101000a900473ffffffffffffffffffffffffffffffffffffffff1673ffffffffffffffffffffffffffffffffffffffff166144f69092919063ffffffff16565b611ae2600a60009054906101000a900473ffffffffffffffffffffffffffffffffffffffff167fffffffffffffffffffffffffffffffffffffffffffffffffffffffffffffffff600760009054906101000a900473ffffffffffffffffffffffffffffffffffffffff1673ffffffffffffffffffffffffffffffffffffffff166144f69092919063ffffffff16565b611b71600a60009054906101000a900473ffffffffffffffffffffffffffffffffffffffff167fffffffffffffffffffffffffffffffffffffffffffffffffffffffffffffffff600960009054906101000a900473ffffffffffffffffffffffffffffffffffffffff1673ffffffffffffffffffffffffffffffffffffffff166144f69092919063ffffffff16565b565b60016000808282540192505081905550600080549050611b92826104e7565b6000600360009054906101000a900473ffffffffffffffffffffffffffffffffffffffff1673ffffffffffffffffffffffffffffffffffffffff166370a08231306040518263ffffffff1660e01b8152600401611bef9190615370565b60206040518083038186803b158015611c0757600080fd5b505afa158015611c1b573d6000803e3d6000fd5b505050506040513d601f19601f82011682018060405250611c3f9190810190614b23565b90506000600560009054906101000a900473ffffffffffffffffffffffffffffffffffffffff1673ffffffffffffffffffffffffffffffffffffffff166370a08231306040518263ffffffff1660e01b8152600401611c9e9190615370565b60206040518083038186803b158015611cb657600080fd5b505afa158015611cca573d6000803e3d6000fd5b505050506040513d601f19601f82011682018060405250611cee9190810190614b23565b90506000600760009054906101000a900473ffffffffffffffffffffffffffffffffffffffff1673ffffffffffffffffffffffffffffffffffffffff166370a08231306040518263ffffffff1660e01b8152600401611d4d9190615370565b60206040518083038186803b158015611d6557600080fd5b505afa158015611d79573d6000803e3d6000fd5b505050506040513d601f19601f82011682018060405250611d9d9190810190614b23565b90506000600960009054906101000a900473ffffffffffffffffffffffffffffffffffffffff1673ffffffffffffffffffffffffffffffffffffffff166370a08231306040518263ffffffff1660e01b8152600401611dfc9190615370565b60206040518083038186803b158015611e1457600080fd5b505afa158015611e28573d6000803e3d6000fd5b505050506040513d601f19601f82011682018060405250611e4c9190810190614b23565b90506000841180611e5d5750600083115b80611e685750600082115b80611e735750600081115b611eb2576040517f08c379a0000000000000000000000000000000000000000000000000000000008152600401611ea9906157ad565b60405180910390fd5b600083111561203f57600a60009054906101000a900473ffffffffffffffffffffffffffffffffffffffff1673ffffffffffffffffffffffffffffffffffffffff16633df02124600160008660006040518563ffffffff1660e01b8152600401611f1f94939291906154fe565b600060405180830381600087803b158015611f3957600080fd5b505af1158015611f4d573d6000803e3d6000fd5b505050506000600560009054906101000a900473ffffffffffffffffffffffffffffffffffffffff1673ffffffffffffffffffffffffffffffffffffffff166370a08231306040518263ffffffff1660e01b8152600401611fae9190615370565b60206040518083038186803b158015611fc657600080fd5b505afa158015611fda573d6000803e3d6000fd5b505050506040513d601f19601f82011682018060405250611ffe9190810190614b23565b1461203e576040517f08c379a00000000000000000000000000000000000000000000000000000000081526004016120359061588d565b60405180910390fd5b5b60008211156121cc57600a60009054906101000a900473ffffffffffffffffffffffffffffffffffffffff1673ffffffffffffffffffffffffffffffffffffffff16633df02124600260008560006040518563ffffffff1660e01b81526004016120ac94939291906155cd565b600060405180830381600087803b1580156120c657600080fd5b505af11580156120da573d6000803e3d6000fd5b505050506000600760009054906101000a900473ffffffffffffffffffffffffffffffffffffffff1673ffffffffffffffffffffffffffffffffffffffff166370a08231306040518263ffffffff1660e01b815260040161213b9190615370565b60206040518083038186803b15801561215357600080fd5b505afa158015612167573d6000803e3d6000fd5b505050506040513d601f19601f8201168201806040525061218b9190810190614b23565b146121cb576040517f08c379a00000000000000000000000000000000000000000000000000000000081526004016121c29061586d565b60405180910390fd5b5b600081111561235957600a60009054906101000a900473ffffffffffffffffffffffffffffffffffffffff1673ffffffffffffffffffffffffffffffffffffffff16633df02124600360008460006040518563ffffffff1660e01b8152600401612239949392919061569c565b600060405180830381600087803b15801561225357600080fd5b505af1158015612267573d6000803e3d6000fd5b505050506000600960009054906101000a900473ffffffffffffffffffffffffffffffffffffffff1673ffffffffffffffffffffffffffffffffffffffff166370a08231306040518263ffffffff1660e01b81526004016122c89190615370565b60206040518083038186803b1580156122e057600080fd5b505afa1580156122f4573d6000803e3d6000fd5b505050506040513d601f19601f820116820180604052506123189190810190614b23565b14612358576040517f08c379a000000000000000000000000000000000000000000000000000000000815260040161234f9061590d565b60405180910390fd5b5b600360009054906101000a900473ffffffffffffffffffffffffffffffffffffffff1673ffffffffffffffffffffffffffffffffffffffff16632e1a7d4d600360009054906101000a900473ffffffffffffffffffffffffffffffffffffffff1673ffffffffffffffffffffffffffffffffffffffff166370a08231306040518263ffffffff1660e01b81526004016123f29190615370565b60206040518083038186803b15801561240a57600080fd5b505afa15801561241e573d6000803e3d6000fd5b505050506040513d601f19601f820116820180604052506124429190810190614b23565b6040518263ffffffff1660e01b815260040161245e9190615a4d565b600060405180830381600087803b15801561247857600080fd5b505af115801561248c573d6000803e3d6000fd5b505050506000600360009054906101000a900473ffffffffffffffffffffffffffffffffffffffff1673ffffffffffffffffffffffffffffffffffffffff166370a08231306040518263ffffffff1660e01b81526004016124ed9190615370565b60206040518083038186803b15801561250557600080fd5b505afa158015612519573d6000803e3d6000fd5b505050506040513d601f19601f8201168201806040525061253d9190810190614b23565b1461257d576040517f08c379a0000000000000000000000000000000000000000000000000000000008152600401612574906159ed565b60405180910390fd5b6125a986600260009054906101000a900473ffffffffffffffffffffffffffffffffffffffff166117f1565b506126a133600260009054906101000a900473ffffffffffffffffffffffffffffffffffffffff1673ffffffffffffffffffffffffffffffffffffffff166370a08231306040518263ffffffff1660e01b81526004016126099190615370565b60206040518083038186803b15801561262157600080fd5b505afa158015612635573d6000803e3d6000fd5b505050506040513d601f19601f820116820180604052506126599190810190614b23565b600260009054906101000a900473ffffffffffffffffffffffffffffffffffffffff1673ffffffffffffffffffffffffffffffffffffffff166142f69092919063ffffffff16565b6000600260009054906101000a900473ffffffffffffffffffffffffffffffffffffffff1673ffffffffffffffffffffffffffffffffffffffff166370a08231306040518263ffffffff1660e01b81526004016126fe9190615370565b60206040518083038186803b15801561271657600080fd5b505afa15801561272a573d6000803e3d6000fd5b505050506040513d601f19601f8201168201806040525061274e9190810190614b23565b1461278e576040517f08c379a00000000000000000000000000000000000000000000000000000000081526004016127859061578d565b60405180910390fd5b5050505060005481146127d6576040517f08c379a00000000000000000000000000000000000000000000000000000000081526004016127cd906159cd565b60405180910390fd5b5050565b600660009054906101000a900473ffffffffffffffffffffffffffffffffffffffff1681565b6001600080828254019250508190555060008054905061281f826104e7565b6000600360009054906101000a900473ffffffffffffffffffffffffffffffffffffffff1673ffffffffffffffffffffffffffffffffffffffff166370a08231306040518263ffffffff1660e01b815260040161287c9190615370565b60206040518083038186803b15801561289457600080fd5b505afa1580156128a8573d6000803e3d6000fd5b505050506040513d601f19601f820116820180604052506128cc9190810190614b23565b90506000600560009054906101000a900473ffffffffffffffffffffffffffffffffffffffff1673ffffffffffffffffffffffffffffffffffffffff166370a08231306040518263ffffffff1660e01b815260040161292b9190615370565b60206040518083038186803b15801561294357600080fd5b505afa158015612957573d6000803e3d6000fd5b505050506040513d601f19601f8201168201806040525061297b9190810190614b23565b90506000600760009054906101000a900473ffffffffffffffffffffffffffffffffffffffff1673ffffffffffffffffffffffffffffffffffffffff166370a08231306040518263ffffffff1660e01b81526004016129da9190615370565b60206040518083038186803b1580156129f257600080fd5b505afa158015612a06573d6000803e3d6000fd5b505050506040513d601f19601f82011682018060405250612a2a9190810190614b23565b90506000600960009054906101000a900473ffffffffffffffffffffffffffffffffffffffff1673ffffffffffffffffffffffffffffffffffffffff166370a08231306040518263ffffffff1660e01b8152600401612a899190615370565b60206040518083038186803b158015612aa157600080fd5b505afa158015612ab5573d6000803e3d6000fd5b505050506040513d601f19601f82011682018060405250612ad99190810190614b23565b90506000841180612aea5750600083115b80612af55750600082115b80612b005750600081115b612b3f576040517f08c379a0000000000000000000000000000000000000000000000000000000008152600401612b36906157ad565b60405180910390fd5b6000841115612ccc57600a60009054906101000a900473ffffffffffffffffffffffffffffffffffffffff1673ffffffffffffffffffffffffffffffffffffffff16633df02124600060038760006040518563ffffffff1660e01b8152600401612bac94939291906154b9565b600060405180830381600087803b158015612bc657600080fd5b505af1158015612bda573d6000803e3d6000fd5b505050506000600360009054906101000a900473ffffffffffffffffffffffffffffffffffffffff1673ffffffffffffffffffffffffffffffffffffffff166370a08231306040518263ffffffff1660e01b8152600401612c3b9190615370565b60206040518083038186803b158015612c5357600080fd5b505afa158015612c67573d6000803e3d6000fd5b505050506040513d601f19601f82011682018060405250612c8b9190810190614b23565b14612ccb576040517f08c379a0000000000000000000000000000000000000000000000000000000008152600401612cc2906159ed565b60405180910390fd5b5b6000831115612e5957600a60009054906101000a900473ffffffffffffffffffffffffffffffffffffffff1673ffffffffffffffffffffffffffffffffffffffff16633df02124600160038660006040518563ffffffff1660e01b8152600401612d399493929190615588565b600060405180830381600087803b158015612d5357600080fd5b505af1158015612d67573d6000803e3d6000fd5b505050506000600560009054906101000a900473ffffffffffffffffffffffffffffffffffffffff1673ffffffffffffffffffffffffffffffffffffffff166370a08231306040518263ffffffff1660e01b8152600401612dc89190615370565b60206040518083038186803b158015612de057600080fd5b505afa158015612df4573d6000803e3d6000fd5b505050506040513d601f19601f82011682018060405250612e189190810190614b23565b14612e58576040517f08c379a0000000000000000000000000000000000000000000000000000000008152600401612e4f9061588d565b60405180910390fd5b5b6000821115612fe657600a60009054906101000a900473ffffffffffffffffffffffffffffffffffffffff1673ffffffffffffffffffffffffffffffffffffffff16633df02124600260038560006040518563ffffffff1660e01b8152600401612ec69493929190615657565b600060405180830381600087803b158015612ee057600080fd5b505af1158015612ef4573d6000803e3d6000fd5b505050506000600760009054906101000a900473ffffffffffffffffffffffffffffffffffffffff1673ffffffffffffffffffffffffffffffffffffffff166370a08231306040518263ffffffff1660e01b8152600401612f559190615370565b60206040518083038186803b158015612f6d57600080fd5b505afa158015612f81573d6000803e3d6000fd5b505050506040513d601f19601f82011682018060405250612fa59190810190614b23565b14612fe5576040517f08c379a0000000000000000000000000000000000000000000000000000000008152600401612fdc9061586d565b60405180910390fd5b5b600960009054906101000a900473ffffffffffffffffffffffffffffffffffffffff1673ffffffffffffffffffffffffffffffffffffffff16632e1a7d4d600960009054906101000a900473ffffffffffffffffffffffffffffffffffffffff1673ffffffffffffffffffffffffffffffffffffffff166370a08231306040518263ffffffff1660e01b815260040161307f9190615370565b60206040518083038186803b15801561309757600080fd5b505afa1580156130ab573d6000803e3d6000fd5b505050506040513d601f19601f820116820180604052506130cf9190810190614b23565b6040518263ffffffff1660e01b81526004016130eb9190615a4d565b600060405180830381600087803b15801561310557600080fd5b505af1158015613119573d6000803e3d6000fd5b505050506000600960009054906101000a900473ffffffffffffffffffffffffffffffffffffffff1673ffffffffffffffffffffffffffffffffffffffff166370a08231306040518263ffffffff1660e01b815260040161317a9190615370565b60206040518083038186803b15801561319257600080fd5b505afa1580156131a6573d6000803e3d6000fd5b505050506040513d601f19601f820116820180604052506131ca9190810190614b23565b1461320a576040517f08c379a00000000000000000000000000000000000000000000000000000000081526004016132019061590d565b60405180910390fd5b61323686600860009054906101000a900473ffffffffffffffffffffffffffffffffffffffff166117f1565b5061332e33600860009054906101000a900473ffffffffffffffffffffffffffffffffffffffff1673ffffffffffffffffffffffffffffffffffffffff166370a08231306040518263ffffffff1660e01b81526004016132969190615370565b60206040518083038186803b1580156132ae57600080fd5b505afa1580156132c2573d6000803e3d6000fd5b505050506040513d601f19601f820116820180604052506132e69190810190614b23565b600860009054906101000a900473ffffffffffffffffffffffffffffffffffffffff1673ffffffffffffffffffffffffffffffffffffffff166142f69092919063ffffffff16565b6000600860009054906101000a900473ffffffffffffffffffffffffffffffffffffffff1673ffffffffffffffffffffffffffffffffffffffff166370a08231306040518263ffffffff1660e01b815260040161338b9190615370565b60206040518083038186803b1580156133a357600080fd5b505afa1580156133b7573d6000803e3d6000fd5b505050506040513d601f19601f820116820180604052506133db9190810190614b23565b1461341b576040517f08c379a0000000000000000000000000000000000000000000000000000000008152600401613412906157ed565b60405180910390fd5b505050506000548114613463576040517f08c379a000000000000000000000000000000000000000000000000000000000815260040161345a906159cd565b60405180910390fd5b5050565b60016000808282540192505081905550600080549050613486826104e7565b6000600360009054906101000a900473ffffffffffffffffffffffffffffffffffffffff1673ffffffffffffffffffffffffffffffffffffffff166370a08231306040518263ffffffff1660e01b81526004016134e39190615370565b60206040518083038186803b1580156134fb57600080fd5b505afa15801561350f573d6000803e3d6000fd5b505050506040513d601f19601f820116820180604052506135339190810190614b23565b90506000600560009054906101000a900473ffffffffffffffffffffffffffffffffffffffff1673ffffffffffffffffffffffffffffffffffffffff166370a08231306040518263ffffffff1660e01b81526004016135929190615370565b60206040518083038186803b1580156135aa57600080fd5b505afa1580156135be573d6000803e3d6000fd5b505050506040513d601f19601f820116820180604052506135e29190810190614b23565b90506000600760009054906101000a900473ffffffffffffffffffffffffffffffffffffffff1673ffffffffffffffffffffffffffffffffffffffff166370a08231306040518263ffffffff1660e01b81526004016136419190615370565b60206040518083038186803b15801561365957600080fd5b505afa15801561366d573d6000803e3d6000fd5b505050506040513d601f19601f820116820180604052506136919190810190614b23565b90506000600960009054906101000a900473ffffffffffffffffffffffffffffffffffffffff1673ffffffffffffffffffffffffffffffffffffffff166370a08231306040518263ffffffff1660e01b81526004016136f09190615370565b60206040518083038186803b15801561370857600080fd5b505afa15801561371c573d6000803e3d6000fd5b505050506040513d601f19601f820116820180604052506137409190810190614b23565b905060008411806137515750600083115b8061375c5750600082115b806137675750600081115b6137a6576040517f08c379a000000000000000000000000000000000000000000000000000000000815260040161379d906157ad565b60405180910390fd5b600084111561393357600a60009054906101000a900473ffffffffffffffffffffffffffffffffffffffff1673ffffffffffffffffffffffffffffffffffffffff16633df02124600060018760006040518563ffffffff1660e01b8152600401613813949392919061542f565b600060405180830381600087803b15801561382d57600080fd5b505af1158015613841573d6000803e3d6000fd5b505050506000600360009054906101000a900473ffffffffffffffffffffffffffffffffffffffff1673ffffffffffffffffffffffffffffffffffffffff166370a08231306040518263ffffffff1660e01b81526004016138a29190615370565b60206040518083038186803b1580156138ba57600080fd5b505afa1580156138ce573d6000803e3d6000fd5b505050506040513d601f19601f820116820180604052506138f29190810190614b23565b14613932576040517f08c379a0000000000000000000000000000000000000000000000000000000008152600401613929906159ed565b60405180910390fd5b5b6000821115613ac057600a60009054906101000a900473ffffffffffffffffffffffffffffffffffffffff1673ffffffffffffffffffffffffffffffffffffffff16633df02124600260018560006040518563ffffffff1660e01b81526004016139a09493929190615612565b600060405180830381600087803b1580156139ba57600080fd5b505af11580156139ce573d6000803e3d6000fd5b505050506000600760009054906101000a900473ffffffffffffffffffffffffffffffffffffffff1673ffffffffffffffffffffffffffffffffffffffff166370a08231306040518263ffffffff1660e01b8152600401613a2f9190615370565b60206040518083038186803b158015613a4757600080fd5b505afa158015613a5b573d6000803e3d6000fd5b505050506040513d601f19601f82011682018060405250613a7f9190810190614b23565b14613abf576040517f08c379a0000000000000000000000000000000000000000000000000000000008152600401613ab69061586d565b60405180910390fd5b5b6000811115613c4d57600a60009054906101000a900473ffffffffffffffffffffffffffffffffffffffff1673ffffffffffffffffffffffffffffffffffffffff16633df02124600360018460006040518563ffffffff1660e01b8152600401613b2d94939291906156e1565b600060405180830381600087803b158015613b4757600080fd5b505af1158015613b5b573d6000803e3d6000fd5b505050506000600960009054906101000a900473ffffffffffffffffffffffffffffffffffffffff1673ffffffffffffffffffffffffffffffffffffffff166370a08231306040518263ffffffff1660e01b8152600401613bbc9190615370565b60206040518083038186803b158015613bd457600080fd5b505afa158015613be8573d6000803e3d6000fd5b505050506040513d601f19601f82011682018060405250613c0c9190810190614b23565b14613c4c576040517f08c379a0000000000000000000000000000000000000000000000000000000008152600401613c439061590d565b60405180910390fd5b5b600560009054906101000a900473ffffffffffffffffffffffffffffffffffffffff1673ffffffffffffffffffffffffffffffffffffffff16632e1a7d4d600560009054906101000a900473ffffffffffffffffffffffffffffffffffffffff1673ffffffffffffffffffffffffffffffffffffffff166370a08231306040518263ffffffff1660e01b8152600401613ce69190615370565b60206040518083038186803b158015613cfe57600080fd5b505afa158015613d12573d6000803e3d6000fd5b505050506040513d601f19601f82011682018060405250613d369190810190614b23565b6040518263ffffffff1660e01b8152600401613d529190615a4d565b600060405180830381600087803b158015613d6c57600080fd5b505af1158015613d80573d6000803e3d6000fd5b505050506000600560009054906101000a900473ffffffffffffffffffffffffffffffffffffffff1673ffffffffffffffffffffffffffffffffffffffff166370a08231306040518263ffffffff1660e01b8152600401613de19190615370565b60206040518083038186803b158015613df957600080fd5b505afa158015613e0d573d6000803e3d6000fd5b505050506040513d601f19601f82011682018060405250613e319190810190614b23565b14613e71576040517f08c379a0000000000000000000000000000000000000000000000000000000008152600401613e689061588d565b60405180910390fd5b613e9d86600460009054906101000a900473ffffffffffffffffffffffffffffffffffffffff166117f1565b50613f9533600460009054906101000a900473ffffffffffffffffffffffffffffffffffffffff1673ffffffffffffffffffffffffffffffffffffffff166370a08231306040518263ffffffff1660e01b8152600401613efd9190615370565b60206040518083038186803b158015613f1557600080fd5b505afa158015613f29573d6000803e3d6000fd5b505050506040513d601f19601f82011682018060405250613f4d9190810190614b23565b600460009054906101000a900473ffffffffffffffffffffffffffffffffffffffff1673ffffffffffffffffffffffffffffffffffffffff166142f69092919063ffffffff16565b6000600460009054906101000a900473ffffffffffffffffffffffffffffffffffffffff1673ffffffffffffffffffffffffffffffffffffffff166370a08231306040518263ffffffff1660e01b8152600401613ff29190615370565b60206040518083038186803b15801561400a57600080fd5b505afa15801561401e573d6000803e3d6000fd5b505050506040513d601f19601f820116820180604052506140429190810190614b23565b14614082576040517f08c379a00000000000000000000000000000000000000000000000000000000081526004016140799061594d565b60405180910390fd5b5050505060005481146140ca576040517f08c379a00000000000000000000000000000000000000000000000000000000081526004016140c1906159cd565b60405180910390fd5b5050565b600260009054906101000a900473ffffffffffffffffffffffffffffffffffffffff1681565b6140fc611792565b61413b576040517f08c379a00000000000000000000000000000000000000000000000000000000081526004016141329061592d565b60405180910390fd5b6141448161466d565b50565b61414f611792565b61418e576040517f08c379a00000000000000000000000000000000000000000000000000000000081526004016141859061592d565b60405180910390fd5b60003373ffffffffffffffffffffffffffffffffffffffff163073ffffffffffffffffffffffffffffffffffffffff16316040516141cb90615340565b60006040518083038185875af1925050503d8060008114614208576040519150601f19603f3d011682016040523d82523d6000602084013e61420d565b606091505b5050905080614251576040517f08c379a0000000000000000000000000000000000000000000000000000000008152600401614248906158ad565b60405180910390fd5b50565b6142f0848573ffffffffffffffffffffffffffffffffffffffff166323b872dd905060e01b85858560405160240161428e939291906153b4565b604051602081830303815290604052907bffffffffffffffffffffffffffffffffffffffffffffffffffffffff19166020820180517bffffffffffffffffffffffffffffffffffffffffffffffffffffffff838183161783525050505061479d565b50505050565b614390838473ffffffffffffffffffffffffffffffffffffffff1663a9059cbb905060e01b848460405160240161432e9291906153eb565b604051602081830303815290604052907bffffffffffffffffffffffffffffffffffffffffffffffffffffffff19166020820180517bffffffffffffffffffffffffffffffffffffffffffffffffffffffff838183161783525050505061479d565b505050565b600033905090565b6000808314156143b05760009050614407565b60008284029050828482816143c157fe5b0414614402576040517f08c379a00000000000000000000000000000000000000000000000000000000081526004016143f9906158ed565b60405180910390fd5b809150505b92915050565b600061444f83836040518060400160405280601a81526020017f536166654d6174683a206469766973696f6e206279207a65726f00000000000081525061490f565b905092915050565b600061449983836040518060400160405280601e81526020017f536166654d6174683a207375627472616374696f6e206f766572666c6f770000815250614970565b905092915050565b6000808284019050838110156144ec576040517f08c379a00000000000000000000000000000000000000000000000000000000081526004016144e39061582d565b60405180910390fd5b8091505092915050565b600081148061458f575060008373ffffffffffffffffffffffffffffffffffffffff1663dd62ed3e30856040518363ffffffff1660e01b815260040161453d92919061538b565b60206040518083038186803b15801561455557600080fd5b505afa158015614569573d6000803e3d6000fd5b505050506040513d601f19601f8201168201806040525061458d9190810190614b23565b145b6145ce576040517f08c379a00000000000000000000000000000000000000000000000000000000081526004016145c590615a0d565b60405180910390fd5b614668838473ffffffffffffffffffffffffffffffffffffffff1663095ea7b3905060e01b84846040516024016146069291906153eb565b604051602081830303815290604052907bffffffffffffffffffffffffffffffffffffffffffffffffffffffff19166020820180517bffffffffffffffffffffffffffffffffffffffffffffffffffffffff838183161783525050505061479d565b505050565b600073ffffffffffffffffffffffffffffffffffffffff168173ffffffffffffffffffffffffffffffffffffffff1614156146dd576040517f08c379a00000000000000000000000000000000000000000000000000000000081526004016146d4906157cd565b60405180910390fd5b8073ffffffffffffffffffffffffffffffffffffffff16600160009054906101000a900473ffffffffffffffffffffffffffffffffffffffff1673ffffffffffffffffffffffffffffffffffffffff167f8be0079c531659141344cd1fd0a4f28419497f9722a3daafe3b4186f6b6457e060405160405180910390a380600160006101000a81548173ffffffffffffffffffffffffffffffffffffffff021916908373ffffffffffffffffffffffffffffffffffffffff16021790555050565b6147bc8273ffffffffffffffffffffffffffffffffffffffff166149cb565b6147fb576040517f08c379a00000000000000000000000000000000000000000000000000000000081526004016147f290615a2d565b60405180910390fd5b600060608373ffffffffffffffffffffffffffffffffffffffff16836040516148249190615329565b6000604051808303816000865af19150503d8060008114614861576040519150601f19603f3d011682016040523d82523d6000602084013e614866565b606091505b5091509150816148ab576040517f08c379a00000000000000000000000000000000000000000000000000000000081526004016148a29061584d565b60405180910390fd5b60008151111561490957808060200190516148c99190810190614aa8565b614908576040517f08c379a00000000000000000000000000000000000000000000000000000000081526004016148ff906159ad565b60405180910390fd5b5b50505050565b60008083118290614956576040517f08c379a000000000000000000000000000000000000000000000000000000000815260040161494d919061576b565b60405180910390fd5b50600083858161496257fe5b049050809150509392505050565b60008383111582906149b8576040517f08c379a00000000000000000000000000000000000000000000000000000000081526004016149af919061576b565b60405180910390fd5b5060008385039050809150509392505050565b60008060007fc5d2460186f7233c927e7db2dcc703c0e500b653ca82273b7bfad8045d85a47060001b9050833f91506000801b8214158015614a0d5750808214155b92505050919050565b600081359050614a2581615c2b565b92915050565b600081519050614a3a81615c42565b92915050565b600081359050614a4f81615c59565b92915050565b600081359050614a6481615c70565b92915050565b600081519050614a7981615c70565b92915050565b600060208284031215614a9157600080fd5b6000614a9f84828501614a16565b91505092915050565b600060208284031215614aba57600080fd5b6000614ac884828501614a2b565b91505092915050565b600060208284031215614ae357600080fd5b6000614af184828501614a40565b91505092915050565b600060208284031215614b0c57600080fd5b6000614b1a84828501614a55565b91505092915050565b600060208284031215614b3557600080fd5b6000614b4384828501614a6a565b91505092915050565b60008060408385031215614b5f57600080fd5b6000614b6d85828601614a55565b9250506020614b7e85828601614a16565b9150509250929050565b6000614b94838361530b565b60208301905092915050565b614ba981615b57565b82525050565b614bb881615af0565b82525050565b614bc781615a9b565b614bd18184615ac9565b9250614bdc82615a91565b8060005b83811015614c0d578151614bf48782614b88565b9650614bff83615abc565b925050600181019050614be0565b505050505050565b614c1e81615b02565b82525050565b6000614c2f82615aa6565b614c398185615ad4565b9350614c49818560208601615be7565b80840191505092915050565b614c5e81615b69565b82525050565b614c6d81615b7b565b82525050565b614c7c81615b8d565b82525050565b614c8b81615b9f565b82525050565b614c9a81615bb1565b82525050565b6000614cab82615ab1565b614cb58185615adf565b9350614cc5818560208601615be7565b614cce81615c1a565b840191505092915050565b6000614ce6600d83615adf565b91507f4441492072656d61696e646572000000000000000000000000000000000000006000830152602082019050919050565b6000614d26601183615adf565b91507f6e6f20792e746f6b656e7320666f756e640000000000000000000000000000006000830152602082019050919050565b6000614d66602683615adf565b91507f4f776e61626c653a206e6577206f776e657220697320746865207a65726f206160008301527f64647265737300000000000000000000000000000000000000000000000000006020830152604082019050919050565b6000614dcc600e83615adf565b91507f425553442072656d61696e6465720000000000000000000000000000000000006000830152602082019050919050565b6000614e0c600e83615adf565b91507f555344542072656d61696e6465720000000000000000000000000000000000006000830152602082019050919050565b6000614e4c601b83615adf565b91507f536166654d6174683a206164646974696f6e206f766572666c6f7700000000006000830152602082019050919050565b6000614e8c602083615adf565b91507f5361666545524332303a206c6f772d6c6576656c2063616c6c206661696c65646000830152602082019050919050565b6000614ecc601083615adf565b91507f792e555344542072656d61696e646572000000000000000000000000000000006000830152602082019050919050565b6000614f0c601083615adf565b91507f792e555344432072656d61696e646572000000000000000000000000000000006000830152602082019050919050565b6000614f4c601683615adf565b91507f7472616e73666572206f6620455448206661696c6564000000000000000000006000830152602082019050919050565b6000614f8c600f83615adf565b91507f43555256452072656d61696e64657200000000000000000000000000000000006000830152602082019050919050565b6000614fcc602183615adf565b91507f536166654d6174683a206d756c7469706c69636174696f6e206f766572666c6f60008301527f77000000000000000000000000000000000000000000000000000000000000006020830152604082019050919050565b6000615032601083615adf565b91507f792e425553442072656d61696e646572000000000000000000000000000000006000830152602082019050919050565b6000615072602083615adf565b91507f4f776e61626c653a2063616c6c6572206973206e6f7420746865206f776e65726000830152602082019050919050565b60006150b2600e83615adf565b91507f555344432072656d61696e6465720000000000000000000000000000000000006000830152602082019050919050565b60006150f2600083615ad4565b9150600082019050919050565b600061510c601e83615adf565b91507f6465706f736974206d7573742062652067726561746572207468616e203000006000830152602082019050919050565b600061514c601883615adf565b91507f736c6970706167652067726561746572207468616e20352500000000000000006000830152602082019050919050565b600061518c602a83615adf565b91507f5361666545524332303a204552433230206f7065726174696f6e20646964206e60008301527f6f742073756363656564000000000000000000000000000000000000000000006020830152604082019050919050565b60006151f2601f83615adf565b91507f5265656e7472616e637947756172643a207265656e7472616e742063616c6c006000830152602082019050919050565b6000615232600f83615adf565b91507f792e4441492072656d61696e64657200000000000000000000000000000000006000830152602082019050919050565b6000615272603683615adf565b91507f5361666545524332303a20617070726f76652066726f6d206e6f6e2d7a65726f60008301527f20746f206e6f6e2d7a65726f20616c6c6f77616e6365000000000000000000006020830152604082019050919050565b60006152d8601f83615adf565b91507f5361666545524332303a2063616c6c20746f206e6f6e2d636f6e7472616374006000830152602082019050919050565b61531481615b4d565b82525050565b61532381615b4d565b82525050565b60006153358284614c24565b915081905092915050565b600061534b826150e5565b9150819050919050565b600060208201905061536a6000830184614baf565b92915050565b60006020820190506153856000830184614ba0565b92915050565b60006040820190506153a06000830185614baf565b6153ad6020830184614baf565b9392505050565b60006060820190506153c96000830186614baf565b6153d66020830185614baf565b6153e3604083018461531a565b949350505050565b60006040820190506154006000830185614baf565b61540d602083018461531a565b9392505050565b60006020820190506154296000830184614c15565b92915050565b60006080820190506154446000830187614c55565b6154516020830186614c73565b61545e604083018561531a565b61546b6060830184614c64565b95945050505050565b60006080820190506154896000830187614c55565b6154966020830186614c82565b6154a3604083018561531a565b6154b06060830184614c64565b95945050505050565b60006080820190506154ce6000830187614c55565b6154db6020830186614c91565b6154e8604083018561531a565b6154f56060830184614c64565b95945050505050565b60006080820190506155136000830187614c73565b6155206020830186614c55565b61552d604083018561531a565b61553a6060830184614c64565b95945050505050565b60006080820190506155586000830187614c73565b6155656020830186614c82565b615572604083018561531a565b61557f6060830184614c64565b95945050505050565b600060808201905061559d6000830187614c73565b6155aa6020830186614c91565b6155b7604083018561531a565b6155c46060830184614c64565b95945050505050565b60006080820190506155e26000830187614c82565b6155ef6020830186614c55565b6155fc604083018561531a565b6156096060830184614c64565b95945050505050565b60006080820190506156276000830187614c82565b6156346020830186614c73565b615641604083018561531a565b61564e6060830184614c64565b95945050505050565b600060808201905061566c6000830187614c82565b6156796020830186614c91565b615686604083018561531a565b6156936060830184614c64565b95945050505050565b60006080820190506156b16000830187614c91565b6156be6020830186614c55565b6156cb604083018561531a565b6156d86060830184614c64565b95945050505050565b60006080820190506156f66000830187614c91565b6157036020830186614c73565b615710604083018561531a565b61571d6060830184614c64565b95945050505050565b600060808201905061573b6000830187614c91565b6157486020830186614c82565b615755604083018561531a565b6157626060830184614c64565b95945050505050565b600060208201905081810360008301526157858184614ca0565b905092915050565b600060208201905081810360008301526157a681614cd9565b9050919050565b600060208201905081810360008301526157c681614d19565b9050919050565b600060208201905081810360008301526157e681614d59565b9050919050565b6000602082019050818103600083015261580681614dbf565b9050919050565b6000602082019050818103600083015261582681614dff565b9050919050565b6000602082019050818103600083015261584681614e3f565b9050919050565b6000602082019050818103600083015261586681614e7f565b9050919050565b6000602082019050818103600083015261588681614ebf565b9050919050565b600060208201905081810360008301526158a681614eff565b9050919050565b600060208201905081810360008301526158c681614f3f565b9050919050565b600060208201905081810360008301526158e681614f7f565b9050919050565b6000602082019050818103600083015261590681614fbf565b9050919050565b6000602082019050818103600083015261592681615025565b9050919050565b6000602082019050818103600083015261594681615065565b9050919050565b60006020820190508181036000830152615966816150a5565b9050919050565b60006020820190508181036000830152615986816150ff565b9050919050565b600060208201905081810360008301526159a68161513f565b9050919050565b600060208201905081810360008301526159c68161517f565b9050919050565b600060208201905081810360008301526159e6816151e5565b9050919050565b60006020820190508181036000830152615a0681615225565b9050919050565b60006020820190508181036000830152615a2681615265565b9050919050565b60006020820190508181036000830152615a46816152cb565b9050919050565b6000602082019050615a62600083018461531a565b92915050565b600060a082019050615a7d600083018561531a565b615a8a6020830184614bbe565b9392505050565b6000819050919050565b600060049050919050565b600081519050919050565b600081519050919050565b6000602082019050919050565b600081905092915050565b600081905092915050565b600082825260208201905092915050565b6000615afb82615b2d565b9050919050565b60008115159050919050565b6000615b1982615af0565b9050919050565b600081600f0b9050919050565b600073ffffffffffffffffffffffffffffffffffffffff82169050919050565b6000819050919050565b6000615b6282615bc3565b9050919050565b6000615b7482615b20565b9050919050565b6000615b8682615b4d565b9050919050565b6000615b9882615b20565b9050919050565b6000615baa82615b20565b9050919050565b6000615bbc82615b20565b9050919050565b6000615bce82615bd5565b9050919050565b6000615be082615b2d565b9050919050565b60005b83811015615c05578082015181840152602081019050615bea565b83811115615c14576000848401525b50505050565b6000601f19601f8301169050919050565b615c3481615af0565b8114615c3f57600080fd5b50565b615c4b81615b02565b8114615c5657600080fd5b50565b615c6281615b0e565b8114615c6d57600080fd5b50565b615c7981615b4d565b8114615c8457600080fd5b5056fea365627a7a72315820b7f47bd24c290b9555326708602a72270311b8288d63691168c14f62e8446a306c6578706572696d656e74616cf564736f6c634300050c0040",
  "source": "pragma solidity ^0.5.0;\npragma experimental ABIEncoderV2;\n\ninterface IERC20 {\n    function totalSupply() external view returns (uint256);\n    function balanceOf(address account) external view returns (uint256);\n    function transfer(address recipient, uint256 amount) external returns (bool);\n    function allowance(address owner, address spender) external view returns (uint256);\n    function approve(address spender, uint256 amount) external returns (bool);\n    function transferFrom(address sender, address recipient, uint256 amount) external returns (bool);\n    event Transfer(address indexed from, address indexed to, uint256 value);\n    event Approval(address indexed owner, address indexed spender, uint256 value);\n}\n\ncontract Context {\n    constructor () internal { }\n    // solhint-disable-previous-line no-empty-blocks\n\n    function _msgSender() internal view returns (address payable) {\n        return msg.sender;\n    }\n\n    function _msgData() internal view returns (bytes memory) {\n        this; // silence state mutability warning without generating bytecode - see https://github.com/ethereum/solidity/issues/2691\n        return msg.data;\n    }\n}\n\ncontract ReentrancyGuard {\n    uint256 private _guardCounter;\n\n    constructor () internal {\n        _guardCounter = 1;\n    }\n\n    modifier nonReentrant() {\n        _guardCounter += 1;\n        uint256 localCounter = _guardCounter;\n        _;\n        require(localCounter == _guardCounter, \"ReentrancyGuard: reentrant call\");\n    }\n}\n\ncontract Ownable is Context {\n    address private _owner;\n\n    event OwnershipTransferred(address indexed previousOwner, address indexed newOwner);\n    constructor () internal {\n        _owner = _msgSender();\n        emit OwnershipTransferred(address(0), _owner);\n    }\n    function owner() public view returns (address) {\n        return _owner;\n    }\n    modifier onlyOwner() {\n        require(isOwner(), \"Ownable: caller is not the owner\");\n        _;\n    }\n    function isOwner() public view returns (bool) {\n        return _msgSender() == _owner;\n    }\n    function renounceOwnership() public onlyOwner {\n        emit OwnershipTransferred(_owner, address(0));\n        _owner = address(0);\n    }\n    function transferOwnership(address newOwner) public onlyOwner {\n        _transferOwnership(newOwner);\n    }\n    function _transferOwnership(address newOwner) internal {\n        require(newOwner != address(0), \"Ownable: new owner is the zero address\");\n        emit OwnershipTransferred(_owner, newOwner);\n        _owner = newOwner;\n    }\n}\n\nlibrary SafeMath {\n    function add(uint256 a, uint256 b) internal pure returns (uint256) {\n        uint256 c = a + b;\n        require(c >= a, \"SafeMath: addition overflow\");\n\n        return c;\n    }\n    function sub(uint256 a, uint256 b) internal pure returns (uint256) {\n        return sub(a, b, \"SafeMath: subtraction overflow\");\n    }\n    function sub(uint256 a, uint256 b, string memory errorMessage) internal pure returns (uint256) {\n        require(b <= a, errorMessage);\n        uint256 c = a - b;\n\n        return c;\n    }\n    function mul(uint256 a, uint256 b) internal pure returns (uint256) {\n        if (a == 0) {\n            return 0;\n        }\n\n        uint256 c = a * b;\n        require(c / a == b, \"SafeMath: multiplication overflow\");\n\n        return c;\n    }\n    function div(uint256 a, uint256 b) internal pure returns (uint256) {\n        return div(a, b, \"SafeMath: division by zero\");\n    }\n    function div(uint256 a, uint256 b, string memory errorMessage) internal pure returns (uint256) {\n        // Solidity only automatically asserts when dividing by 0\n        require(b > 0, errorMessage);\n        uint256 c = a / b;\n\n        return c;\n    }\n    function mod(uint256 a, uint256 b) internal pure returns (uint256) {\n        return mod(a, b, \"SafeMath: modulo by zero\");\n    }\n    function mod(uint256 a, uint256 b, string memory errorMessage) internal pure returns (uint256) {\n        require(b != 0, errorMessage);\n        return a % b;\n    }\n}\n\nlibrary Address {\n    function isContract(address account) internal view returns (bool) {\n        bytes32 codehash;\n        bytes32 accountHash = 0xc5d2460186f7233c927e7db2dcc703c0e500b653ca82273b7bfad8045d85a470;\n        // solhint-disable-next-line no-inline-assembly\n        assembly { codehash := extcodehash(account) }\n        return (codehash != 0x0 && codehash != accountHash);\n    }\n    function toPayable(address account) internal pure returns (address payable) {\n        return address(uint160(account));\n    }\n    function sendValue(address payable recipient, uint256 amount) internal {\n        require(address(this).balance >= amount, \"Address: insufficient balance\");\n\n        // solhint-disable-next-line avoid-call-value\n        (bool success, ) = recipient.call.value(amount)(\"\");\n        require(success, \"Address: unable to send value, recipient may have reverted\");\n    }\n}\n\nlibrary SafeERC20 {\n    using SafeMath for uint256;\n    using Address for address;\n\n    function safeTransfer(IERC20 token, address to, uint256 value) internal {\n        callOptionalReturn(token, abi.encodeWithSelector(token.transfer.selector, to, value));\n    }\n    function safeTransferFrom(IERC20 token, address from, address to, uint256 value) internal {\n        callOptionalReturn(token, abi.encodeWithSelector(token.transferFrom.selector, from, to, value));\n    }\n    function safeApprove(IERC20 token, address spender, uint256 value) internal {\n        require((value == 0) || (token.allowance(address(this), spender) == 0),\n            \"SafeERC20: approve from non-zero to non-zero allowance\"\n        );\n        callOptionalReturn(token, abi.encodeWithSelector(token.approve.selector, spender, value));\n    }\n    function callOptionalReturn(IERC20 token, bytes memory data) private {\n        require(address(token).isContract(), \"SafeERC20: call to non-contract\");\n\n        // solhint-disable-next-line avoid-low-level-calls\n        (bool success, bytes memory returndata) = address(token).call(data);\n        require(success, \"SafeERC20: low-level call failed\");\n\n        if (returndata.length > 0) { // Return data is optional\n            // solhint-disable-next-line max-line-length\n            require(abi.decode(returndata, (bool)), \"SafeERC20: ERC20 operation did not succeed\");\n        }\n    }\n}\n\ninterface yERC20 {\n  function withdraw(uint256 _amount) external;\n}\n\n// Solidity Interface\n\ninterface ICurveFi {\n\n  function remove_liquidity(\n    uint256 _amount,\n    uint256[4] calldata amounts\n  ) external;\n  function exchange(\n    int128 from, int128 to, uint256 _from_amount, uint256 _min_to_amount\n  ) external;\n}\n\ncontract yCurveZapOutV4 is ReentrancyGuard, Ownable {\n  using SafeERC20 for IERC20;\n  using Address for address;\n  using SafeMath for uint256;\n\n  address public DAI;\n  address public yDAI;\n  address public USDC;\n  address public yUSDC;\n  address public USDT;\n  address public yUSDT;\n  address public BUSD;\n  address public yBUSD;\n  address public SWAP;\n  address public CURVE;\n\n  constructor () public {\n    DAI = address(0x6B175474E89094C44Da98b954EedeAC495271d0F);\n    yDAI = address(0xC2cB1040220768554cf699b0d863A3cd4324ce32);\n\n    USDC = address(0xA0b86991c6218b36c1d19D4a2e9Eb0cE3606eB48);\n    yUSDC = address(0x26EA744E5B887E5205727f55dFBE8685e3b21951);\n\n    USDT = address(0xdAC17F958D2ee523a2206206994597C13D831ec7);\n    yUSDT = address(0xE6354ed5bC4b393a5Aad09f21c46E101e692d447);\n\n    BUSD = address(0x4Fabb145d64652a948d72533023f6E7A623C7C53);\n    yBUSD = address(0x04bC0Ab673d88aE9dbC9DA2380cB6B79C4BCa9aE);\n\n    SWAP = address(0x79a8C46DeA5aDa233ABaFFD40F3A0A2B1e5A4F27);\n    CURVE = address(0x3B3Ac5386837Dc563660FB6a0937DFAa5924333B);\n\n    approveToken();\n  }\n\n  function() external payable {\n\n  }\n\n  function approveToken() public {\n      IERC20(yDAI).safeApprove(SWAP, uint(-1));\n      IERC20(yUSDC).safeApprove(SWAP, uint(-1));\n      IERC20(yUSDT).safeApprove(SWAP, uint(-1));\n      IERC20(yBUSD).safeApprove(SWAP, uint(-1));\n  }\n\n  function checkSlippage(uint256 _amount, address _token) public view returns (bool) {\n    uint256 received = IERC20(_token).balanceOf(address(this));\n    uint256 fivePercent = _amount.mul(5).div(100);\n    uint256 min = _amount.sub(fivePercent);\n    uint256 max = _amount.add(fivePercent);\n    require(received <= max && received >= min, \"slippage greater than 5%\");\n    return true;\n  }\n\n  function withdrawCurve(uint256 _amount) public {\n    require(_amount > 0, \"deposit must be greater than 0\");\n    IERC20(CURVE).safeTransferFrom(msg.sender, address(this), _amount);\n    ICurveFi(SWAP).remove_liquidity(IERC20(CURVE).balanceOf(address(this)), [uint256(0),0,0,0]);\n    require(IERC20(CURVE).balanceOf(address(this)) == 0, \"CURVE remainder\");\n  }\n\n  function withdrawDAI(uint256 _amount)\n      external\n      nonReentrant\n  {\n      withdrawCurve(_amount);\n\n      uint256 _ydai = IERC20(yDAI).balanceOf(address(this));\n      uint256 _yusdc = IERC20(yUSDC).balanceOf(address(this));\n      uint256 _yusdt = IERC20(yUSDT).balanceOf(address(this));\n      uint256 _ybusd = IERC20(yBUSD).balanceOf(address(this));\n\n      require(_ydai > 0 || _yusdc > 0 || _yusdt > 0 || _ybusd > 0, \"no y.tokens found\");\n\n      if (_yusdc > 0) {\n        ICurveFi(SWAP).exchange(1, 0, _yusdc, 0);\n        require(IERC20(yUSDC).balanceOf(address(this)) == 0, \"y.USDC remainder\");\n      }\n      if (_yusdt > 0) {\n        ICurveFi(SWAP).exchange(2, 0, _yusdt, 0);\n        require(IERC20(yUSDT).balanceOf(address(this)) == 0, \"y.USDT remainder\");\n      }\n      if (_ybusd > 0) {\n        ICurveFi(SWAP).exchange(3, 0, _ybusd, 0);\n        require(IERC20(yBUSD).balanceOf(address(this)) == 0, \"y.BUSD remainder\");\n      }\n\n      yERC20(yDAI).withdraw(IERC20(yDAI).balanceOf(address(this)));\n      require(IERC20(yDAI).balanceOf(address(this)) == 0, \"y.DAI remainder\");\n\n      checkSlippage(_amount, DAI);\n\n      IERC20(DAI).safeTransfer(msg.sender, IERC20(DAI).balanceOf(address(this)));\n      require(IERC20(DAI).balanceOf(address(this)) == 0, \"DAI remainder\");\n  }\n\n  function withdrawUSDC(uint256 _amount)\n      external\n      nonReentrant\n  {\n      withdrawCurve(_amount);\n\n      uint256 _ydai = IERC20(yDAI).balanceOf(address(this));\n      uint256 _yusdc = IERC20(yUSDC).balanceOf(address(this));\n      uint256 _yusdt = IERC20(yUSDT).balanceOf(address(this));\n      uint256 _ybusd = IERC20(yBUSD).balanceOf(address(this));\n\n      require(_ydai > 0 || _yusdc > 0 || _yusdt > 0 || _ybusd > 0, \"no y.tokens found\");\n\n      if (_ydai > 0) {\n        ICurveFi(SWAP).exchange(0, 1, _ydai, 0);\n        require(IERC20(yDAI).balanceOf(address(this)) == 0, \"y.DAI remainder\");\n      }\n      if (_yusdt > 0) {\n        ICurveFi(SWAP).exchange(2, 1, _yusdt, 0);\n        require(IERC20(yUSDT).balanceOf(address(this)) == 0, \"y.USDT remainder\");\n      }\n      if (_ybusd > 0) {\n        ICurveFi(SWAP).exchange(3, 1, _ybusd, 0);\n        require(IERC20(yBUSD).balanceOf(address(this)) == 0, \"y.BUSD remainder\");\n      }\n\n      yERC20(yUSDC).withdraw(IERC20(yUSDC).balanceOf(address(this)));\n      require(IERC20(yUSDC).balanceOf(address(this)) == 0, \"y.USDC remainder\");\n\n      checkSlippage(_amount, USDC);\n\n      IERC20(USDC).safeTransfer(msg.sender, IERC20(USDC).balanceOf(address(this)));\n      require(IERC20(USDC).balanceOf(address(this)) == 0, \"USDC remainder\");\n  }\n\n  function withdrawUSDT(uint256 _amount)\n      external\n      nonReentrant\n  {\n      withdrawCurve(_amount);\n\n      uint256 _ydai = IERC20(yDAI).balanceOf(address(this));\n      uint256 _yusdc = IERC20(yUSDC).balanceOf(address(this));\n      uint256 _yusdt = IERC20(yUSDT).balanceOf(address(this));\n      uint256 _ybusd = IERC20(yBUSD).balanceOf(address(this));\n\n      require(_ydai > 0 || _yusdc > 0 || _yusdt > 0 || _ybusd > 0, \"no y.tokens found\");\n\n      if (_ydai > 0) {\n        ICurveFi(SWAP).exchange(0, 2, _ydai, 0);\n        require(IERC20(yDAI).balanceOf(address(this)) == 0, \"y.DAI remainder\");\n      }\n      if (_yusdc > 0) {\n        ICurveFi(SWAP).exchange(1, 2, _yusdc, 0);\n        require(IERC20(yUSDC).balanceOf(address(this)) == 0, \"y.USDC remainder\");\n      }\n      if (_ybusd > 0) {\n        ICurveFi(SWAP).exchange(3, 2, _ybusd, 0);\n        require(IERC20(yBUSD).balanceOf(address(this)) == 0, \"y.BUSD remainder\");\n      }\n\n      yERC20(yUSDT).withdraw(IERC20(yUSDT).balanceOf(address(this)));\n      require(IERC20(yUSDT).balanceOf(address(this)) == 0, \"y.USDT remainder\");\n\n      checkSlippage(_amount, USDT);\n\n      IERC20(USDT).safeTransfer(msg.sender, IERC20(USDT).balanceOf(address(this)));\n      require(IERC20(USDT).balanceOf(address(this)) == 0, \"USDT remainder\");\n  }\n\n  function withdrawBUSD(uint256 _amount)\n      external\n      nonReentrant\n  {\n      withdrawCurve(_amount);\n\n      uint256 _ydai = IERC20(yDAI).balanceOf(address(this));\n      uint256 _yusdc = IERC20(yUSDC).balanceOf(address(this));\n      uint256 _yusdt = IERC20(yUSDT).balanceOf(address(this));\n      uint256 _ybusd = IERC20(yBUSD).balanceOf(address(this));\n\n      require(_ydai > 0 || _yusdc > 0 || _yusdt > 0 || _ybusd > 0, \"no y.tokens found\");\n\n      if (_ydai > 0) {\n        ICurveFi(SWAP).exchange(0, 3, _ydai, 0);\n        require(IERC20(yDAI).balanceOf(address(this)) == 0, \"y.DAI remainder\");\n      }\n      if (_yusdc > 0) {\n        ICurveFi(SWAP).exchange(1, 3, _yusdc, 0);\n        require(IERC20(yUSDC).balanceOf(address(this)) == 0, \"y.USDC remainder\");\n      }\n      if (_yusdt > 0) {\n        ICurveFi(SWAP).exchange(2, 3, _yusdt, 0);\n        require(IERC20(yUSDT).balanceOf(address(this)) == 0, \"y.USDT remainder\");\n      }\n\n      yERC20(yBUSD).withdraw(IERC20(yBUSD).balanceOf(address(this)));\n      require(IERC20(yBUSD).balanceOf(address(this)) == 0, \"y.BUSD remainder\");\n\n      checkSlippage(_amount, BUSD);\n\n      IERC20(BUSD).safeTransfer(msg.sender, IERC20(BUSD).balanceOf(address(this)));\n      require(IERC20(BUSD).balanceOf(address(this)) == 0, \"BUSD remainder\");\n  }\n\n  // incase of half-way error\n  function inCaseTokenGetsStuck(IERC20 _TokenAddress) onlyOwner public {\n      uint qty = _TokenAddress.balanceOf(address(this));\n      _TokenAddress.safeTransfer(msg.sender, qty);\n  }\n\n  // incase of half-way error\n  function inCaseETHGetsStuck() onlyOwner public{\n      (bool result, ) = msg.sender.call.value(address(this).balance)(\"\");\n      require(result, \"transfer of ETH failed\");\n  }\n}\n",
  "sourcePath": "D:/ftm/itoken/contracts/yCurveZapOutV4.sol",
  "compiler": {
    "name": "solc",
    "version": "0.5.12+commit.7709ece9.Emscripten.clang"
  },
  "schemaVersion": "3.0.19",
  "updatedAt": "2020-03-02T05:17:53.238Z",
  "devdoc": {
    "methods": {}
  },
  "userdoc": {
    "methods": {}
  }
}