{
  "contractName": "yCurveZapSwapV4",
  "abi": [
    {
      "inputs": [],
      "payable": false,
      "stateMutability": "nonpayable",
      "type": "constructor"
    },
    {
      "anonymous": false,
      "inputs": [
        {
          "indexed": true,
          "internalType": "address",
          "name": "previousOwner",
          "type": "address"
        },
        {
          "indexed": true,
          "internalType": "address",
          "name": "newOwner",
          "type": "address"
        }
      ],
      "name": "OwnershipTransferred",
      "type": "event"
    },
    {
      "payable": true,
      "stateMutability": "payable",
      "type": "fallback"
    },
    {
      "constant": true,
      "inputs": [],
      "name": "CURVEv1",
      "outputs": [
        {
          "internalType": "address",
          "name": "",
          "type": "address"
        }
      ],
      "payable": false,
      "stateMutability": "view",
      "type": "function"
    },
    {
      "constant": true,
      "inputs": [],
      "name": "CURVEv2",
      "outputs": [
        {
          "internalType": "address",
          "name": "",
          "type": "address"
        }
      ],
      "payable": false,
      "stateMutability": "view",
      "type": "function"
    },
    {
      "constant": true,
      "inputs": [],
      "name": "CURVEv3",
      "outputs": [
        {
          "internalType": "address",
          "name": "",
          "type": "address"
        }
      ],
      "payable": false,
      "stateMutability": "view",
      "type": "function"
    },
    {
      "constant": true,
      "inputs": [],
      "name": "CURVEv4",
      "outputs": [
        {
          "internalType": "address",
          "name": "",
          "type": "address"
        }
      ],
      "payable": false,
      "stateMutability": "view",
      "type": "function"
    },
    {
      "constant": true,
      "inputs": [],
      "name": "DAI",
      "outputs": [
        {
          "internalType": "address",
          "name": "",
          "type": "address"
        }
      ],
      "payable": false,
      "stateMutability": "view",
      "type": "function"
    },
    {
      "constant": true,
      "inputs": [],
      "name": "SWAPv1",
      "outputs": [
        {
          "internalType": "address",
          "name": "",
          "type": "address"
        }
      ],
      "payable": false,
      "stateMutability": "view",
      "type": "function"
    },
    {
      "constant": true,
      "inputs": [],
      "name": "SWAPv2",
      "outputs": [
        {
          "internalType": "address",
          "name": "",
          "type": "address"
        }
      ],
      "payable": false,
      "stateMutability": "view",
      "type": "function"
    },
    {
      "constant": true,
      "inputs": [],
      "name": "SWAPv3",
      "outputs": [
        {
          "internalType": "address",
          "name": "",
          "type": "address"
        }
      ],
      "payable": false,
      "stateMutability": "view",
      "type": "function"
    },
    {
      "constant": true,
      "inputs": [],
      "name": "SWAPv4",
      "outputs": [
        {
          "internalType": "address",
          "name": "",
          "type": "address"
        }
      ],
      "payable": false,
      "stateMutability": "view",
      "type": "function"
    },
    {
      "constant": true,
      "inputs": [],
      "name": "TUSD",
      "outputs": [
        {
          "internalType": "address",
          "name": "",
          "type": "address"
        }
      ],
      "payable": false,
      "stateMutability": "view",
      "type": "function"
    },
    {
      "constant": true,
      "inputs": [],
      "name": "USDC",
      "outputs": [
        {
          "internalType": "address",
          "name": "",
          "type": "address"
        }
      ],
      "payable": false,
      "stateMutability": "view",
      "type": "function"
    },
    {
      "constant": true,
      "inputs": [],
      "name": "USDT",
      "outputs": [
        {
          "internalType": "address",
          "name": "",
          "type": "address"
        }
      ],
      "payable": false,
      "stateMutability": "view",
      "type": "function"
    },
    {
      "constant": true,
      "inputs": [],
      "name": "cDAI",
      "outputs": [
        {
          "internalType": "address",
          "name": "",
          "type": "address"
        }
      ],
      "payable": false,
      "stateMutability": "view",
      "type": "function"
    },
    {
      "constant": true,
      "inputs": [],
      "name": "cUSDC",
      "outputs": [
        {
          "internalType": "address",
          "name": "",
          "type": "address"
        }
      ],
      "payable": false,
      "stateMutability": "view",
      "type": "function"
    },
    {
      "constant": true,
      "inputs": [],
      "name": "isOwner",
      "outputs": [
        {
          "internalType": "bool",
          "name": "",
          "type": "bool"
        }
      ],
      "payable": false,
      "stateMutability": "view",
      "type": "function"
    },
    {
      "constant": true,
      "inputs": [],
      "name": "owner",
      "outputs": [
        {
          "internalType": "address",
          "name": "",
          "type": "address"
        }
      ],
      "payable": false,
      "stateMutability": "view",
      "type": "function"
    },
    {
      "constant": false,
      "inputs": [],
      "name": "renounceOwnership",
      "outputs": [],
      "payable": false,
      "stateMutability": "nonpayable",
      "type": "function"
    },
    {
      "constant": false,
      "inputs": [
        {
          "internalType": "address",
          "name": "newOwner",
          "type": "address"
        }
      ],
      "name": "transferOwnership",
      "outputs": [],
      "payable": false,
      "stateMutability": "nonpayable",
      "type": "function"
    },
    {
      "constant": true,
      "inputs": [],
      "name": "yDAIv2",
      "outputs": [
        {
          "internalType": "address",
          "name": "",
          "type": "address"
        }
      ],
      "payable": false,
      "stateMutability": "view",
      "type": "function"
    },
    {
      "constant": true,
      "inputs": [],
      "name": "yDAIv3",
      "outputs": [
        {
          "internalType": "address",
          "name": "",
          "type": "address"
        }
      ],
      "payable": false,
      "stateMutability": "view",
      "type": "function"
    },
    {
      "constant": true,
      "inputs": [],
      "name": "yTUSDv2",
      "outputs": [
        {
          "internalType": "address",
          "name": "",
          "type": "address"
        }
      ],
      "payable": false,
      "stateMutability": "view",
      "type": "function"
    },
    {
      "constant": true,
      "inputs": [],
      "name": "yUSDCv2",
      "outputs": [
        {
          "internalType": "address",
          "name": "",
          "type": "address"
        }
      ],
      "payable": false,
      "stateMutability": "view",
      "type": "function"
    },
    {
      "constant": true,
      "inputs": [],
      "name": "yUSDCv3",
      "outputs": [
        {
          "internalType": "address",
          "name": "",
          "type": "address"
        }
      ],
      "payable": false,
      "stateMutability": "view",
      "type": "function"
    },
    {
      "constant": true,
      "inputs": [],
      "name": "yUSDTv2",
      "outputs": [
        {
          "internalType": "address",
          "name": "",
          "type": "address"
        }
      ],
      "payable": false,
      "stateMutability": "view",
      "type": "function"
    },
    {
      "constant": true,
      "inputs": [],
      "name": "yUSDTv3",
      "outputs": [
        {
          "internalType": "address",
          "name": "",
          "type": "address"
        }
      ],
      "payable": false,
      "stateMutability": "view",
      "type": "function"
    },
    {
      "constant": false,
      "inputs": [],
      "name": "approveToken",
      "outputs": [],
      "payable": false,
      "stateMutability": "nonpayable",
      "type": "function"
    },
    {
      "constant": false,
      "inputs": [
        {
          "internalType": "uint256",
          "name": "_amount",
          "type": "uint256"
        }
      ],
      "name": "swapv3tov4",
      "outputs": [],
      "payable": false,
      "stateMutability": "nonpayable",
      "type": "function"
    },
    {
      "constant": false,
      "inputs": [
        {
          "internalType": "contract IERC20",
          "name": "_TokenAddress",
          "type": "address"
        }
      ],
      "name": "inCaseTokenGetsStuck",
      "outputs": [],
      "payable": false,
      "stateMutability": "nonpayable",
      "type": "function"
    },
    {
      "constant": false,
      "inputs": [],
      "name": "inCaseETHGetsStuck",
      "outputs": [],
      "payable": false,
      "stateMutability": "nonpayable",
      "type": "function"
    }
  ],
  "bytecode": "0x60806040523480156200001157600080fd5b5060016000819055506200002a620007f160201b60201c565b600160006101000a81548173ffffffffffffffffffffffffffffffffffffffff021916908373ffffffffffffffffffffffffffffffffffffffff160217905550600160009054906101000a900473ffffffffffffffffffffffffffffffffffffffff1673ffffffffffffffffffffffffffffffffffffffff16600073ffffffffffffffffffffffffffffffffffffffff167f8be0079c531659141344cd1fd0a4f28419497f9722a3daafe3b4186f6b6457e060405160405180910390a3736b175474e89094c44da98b954eedeac495271d0f600260006101000a81548173ffffffffffffffffffffffffffffffffffffffff021916908373ffffffffffffffffffffffffffffffffffffffff1602179055507316de59092dae5ccf4a1e6439d611fd0653f0bd01600460006101000a81548173ffffffffffffffffffffffffffffffffffffffff021916908373ffffffffffffffffffffffffffffffffffffffff16021790555073c2cb1040220768554cf699b0d863a3cd4324ce32600560006101000a81548173ffffffffffffffffffffffffffffffffffffffff021916908373ffffffffffffffffffffffffffffffffffffffff160217905550735d3a536e4d6dbd6114cc1ead35777bab948e3643600360006101000a81548173ffffffffffffffffffffffffffffffffffffffff021916908373ffffffffffffffffffffffffffffffffffffffff1602179055506e085d4780b73119b644ae5ecd22b376600d60006101000a81548173ffffffffffffffffffffffffffffffffffffffff021916908373ffffffffffffffffffffffffffffffffffffffff1602179055507373a052500105205d34daf004eab301916da8190f600e60006101000a81548173ffffffffffffffffffffffffffffffffffffffff021916908373ffffffffffffffffffffffffffffffffffffffff16021790555073a0b86991c6218b36c1d19d4a2e9eb0ce3606eb48600660006101000a81548173ffffffffffffffffffffffffffffffffffffffff021916908373ffffffffffffffffffffffffffffffffffffffff16021790555073d6ad7a6750a7593e092a9b218d66c0a814a3436e600860006101000a81548173ffffffffffffffffffffffffffffffffffffffff021916908373ffffffffffffffffffffffffffffffffffffffff1602179055507326ea744e5b887e5205727f55dfbe8685e3b21951600960006101000a81548173ffffffffffffffffffffffffffffffffffffffff021916908373ffffffffffffffffffffffffffffffffffffffff1602179055507339aa39c021dfbae8fac545936693ac917d5e7563600760006101000a81548173ffffffffffffffffffffffffffffffffffffffff021916908373ffffffffffffffffffffffffffffffffffffffff16021790555073dac17f958d2ee523a2206206994597c13d831ec7600a60006101000a81548173ffffffffffffffffffffffffffffffffffffffff021916908373ffffffffffffffffffffffffffffffffffffffff1602179055507383f798e925bcd4017eb265844fddabb448f1707d600b60006101000a81548173ffffffffffffffffffffffffffffffffffffffff021916908373ffffffffffffffffffffffffffffffffffffffff16021790555073e6354ed5bc4b393a5aad09f21c46e101e692d447600c60006101000a81548173ffffffffffffffffffffffffffffffffffffffff021916908373ffffffffffffffffffffffffffffffffffffffff160217905550732e60cf74d81ac34eb21eeff58db4d385920ef419600f60006101000a81548173ffffffffffffffffffffffffffffffffffffffff021916908373ffffffffffffffffffffffffffffffffffffffff160217905550733740fb63ab7a09891d7c0d4299442a551d06f5fd601060006101000a81548173ffffffffffffffffffffffffffffffffffffffff021916908373ffffffffffffffffffffffffffffffffffffffff1602179055507352ea46506b9cc5ef470c5bf89f17dc28bb35d85c601160006101000a81548173ffffffffffffffffffffffffffffffffffffffff021916908373ffffffffffffffffffffffffffffffffffffffff160217905550739fc689ccada600b6df723d9e47d84d76664a1f23601260006101000a81548173ffffffffffffffffffffffffffffffffffffffff021916908373ffffffffffffffffffffffffffffffffffffffff1602179055507345f783cce6b7ff23b2ab2d70e416cdb7d6055f51601360006101000a81548173ffffffffffffffffffffffffffffffffffffffff021916908373ffffffffffffffffffffffffffffffffffffffff16021790555073df5e0e81dff6faf3a7e52ba697820c5e32d806a8601460006101000a81548173ffffffffffffffffffffffffffffffffffffffff021916908373ffffffffffffffffffffffffffffffffffffffff1602179055507379a8c46dea5ada233abaffd40f3a0a2b1e5a4f27601560006101000a81548173ffffffffffffffffffffffffffffffffffffffff021916908373ffffffffffffffffffffffffffffffffffffffff160217905550733b3ac5386837dc563660fb6a0937dfaa5924333b601660006101000a81548173ffffffffffffffffffffffffffffffffffffffff021916908373ffffffffffffffffffffffffffffffffffffffff160217905550620007eb620007f960201b60201c565b62001760565b600033905090565b6200088f600460009054906101000a900473ffffffffffffffffffffffffffffffffffffffff167fffffffffffffffffffffffffffffffffffffffffffffffffffffffffffffffff600260009054906101000a900473ffffffffffffffffffffffffffffffffffffffff1673ffffffffffffffffffffffffffffffffffffffff1662000ff160201b62003488179092919060201c565b62000925600560009054906101000a900473ffffffffffffffffffffffffffffffffffffffff167fffffffffffffffffffffffffffffffffffffffffffffffffffffffffffffffff600260009054906101000a900473ffffffffffffffffffffffffffffffffffffffff1673ffffffffffffffffffffffffffffffffffffffff1662000ff160201b62003488179092919060201c565b620009bb601360009054906101000a900473ffffffffffffffffffffffffffffffffffffffff167fffffffffffffffffffffffffffffffffffffffffffffffffffffffffffffffff600460009054906101000a900473ffffffffffffffffffffffffffffffffffffffff1673ffffffffffffffffffffffffffffffffffffffff1662000ff160201b62003488179092919060201c565b62000a51601560009054906101000a900473ffffffffffffffffffffffffffffffffffffffff167fffffffffffffffffffffffffffffffffffffffffffffffffffffffffffffffff600560009054906101000a900473ffffffffffffffffffffffffffffffffffffffff1673ffffffffffffffffffffffffffffffffffffffff1662000ff160201b62003488179092919060201c565b62000ae7600860009054906101000a900473ffffffffffffffffffffffffffffffffffffffff167fffffffffffffffffffffffffffffffffffffffffffffffffffffffffffffffff600660009054906101000a900473ffffffffffffffffffffffffffffffffffffffff1673ffffffffffffffffffffffffffffffffffffffff1662000ff160201b62003488179092919060201c565b62000b7d600960009054906101000a900473ffffffffffffffffffffffffffffffffffffffff167fffffffffffffffffffffffffffffffffffffffffffffffffffffffffffffffff600660009054906101000a900473ffffffffffffffffffffffffffffffffffffffff1673ffffffffffffffffffffffffffffffffffffffff1662000ff160201b62003488179092919060201c565b62000c13601360009054906101000a900473ffffffffffffffffffffffffffffffffffffffff167fffffffffffffffffffffffffffffffffffffffffffffffffffffffffffffffff600860009054906101000a900473ffffffffffffffffffffffffffffffffffffffff1673ffffffffffffffffffffffffffffffffffffffff1662000ff160201b62003488179092919060201c565b62000ca9601560009054906101000a900473ffffffffffffffffffffffffffffffffffffffff167fffffffffffffffffffffffffffffffffffffffffffffffffffffffffffffffff600960009054906101000a900473ffffffffffffffffffffffffffffffffffffffff1673ffffffffffffffffffffffffffffffffffffffff1662000ff160201b62003488179092919060201c565b62000d20600b60009054906101000a900473ffffffffffffffffffffffffffffffffffffffff166000600a60009054906101000a900473ffffffffffffffffffffffffffffffffffffffff1673ffffffffffffffffffffffffffffffffffffffff1662000ff160201b62003488179092919060201c565b62000db6600b60009054906101000a900473ffffffffffffffffffffffffffffffffffffffff167fffffffffffffffffffffffffffffffffffffffffffffffffffffffffffffffff600a60009054906101000a900473ffffffffffffffffffffffffffffffffffffffff1673ffffffffffffffffffffffffffffffffffffffff1662000ff160201b62003488179092919060201c565b62000e2d600c60009054906101000a900473ffffffffffffffffffffffffffffffffffffffff166000600a60009054906101000a900473ffffffffffffffffffffffffffffffffffffffff1673ffffffffffffffffffffffffffffffffffffffff1662000ff160201b62003488179092919060201c565b62000ec3600c60009054906101000a900473ffffffffffffffffffffffffffffffffffffffff167fffffffffffffffffffffffffffffffffffffffffffffffffffffffffffffffff600a60009054906101000a900473ffffffffffffffffffffffffffffffffffffffff1673ffffffffffffffffffffffffffffffffffffffff1662000ff160201b62003488179092919060201c565b62000f59601360009054906101000a900473ffffffffffffffffffffffffffffffffffffffff167fffffffffffffffffffffffffffffffffffffffffffffffffffffffffffffffff600b60009054906101000a900473ffffffffffffffffffffffffffffffffffffffff1673ffffffffffffffffffffffffffffffffffffffff1662000ff160201b62003488179092919060201c565b62000fef601560009054906101000a900473ffffffffffffffffffffffffffffffffffffffff167fffffffffffffffffffffffffffffffffffffffffffffffffffffffffffffffff600c60009054906101000a900473ffffffffffffffffffffffffffffffffffffffff1673ffffffffffffffffffffffffffffffffffffffff1662000ff160201b62003488179092919060201c565b565b600081148062001091575060008373ffffffffffffffffffffffffffffffffffffffff1663dd62ed3e30856040518363ffffffff1660e01b81526004016200103b929190620015a3565b60206040518083038186803b1580156200105457600080fd5b505afa15801562001069573d6000803e3d6000fd5b505050506040513d601f19601f820116820180604052506200108f9190810190620013b1565b145b620010d3576040517f08c379a0000000000000000000000000000000000000000000000000000000008152600401620010ca9062001641565b60405180910390fd5b62001177838473ffffffffffffffffffffffffffffffffffffffff1663095ea7b3905060e01b84846040516024016200110e929190620015d0565b604051602081830303815290604052907bffffffffffffffffffffffffffffffffffffffffffffffffffffffff19166020820180517bffffffffffffffffffffffffffffffffffffffffffffffffffffffff83818316178352505050506200117c60201b60201c565b505050565b620011a88273ffffffffffffffffffffffffffffffffffffffff166200130b60201b6200395d1760201c565b620011ea576040517f08c379a0000000000000000000000000000000000000000000000000000000008152600401620011e19062001663565b60405180910390fd5b600060608373ffffffffffffffffffffffffffffffffffffffff16836040516200121591906200158a565b6000604051808303816000865af19150503d806000811462001254576040519150601f19603f3d011682016040523d82523d6000602084013e62001259565b606091505b509150915081620012a1576040517f08c379a00000000000000000000000000000000000000000000000000000000081526004016200129890620015fd565b60405180910390fd5b600081511115620013055780806020019051620012c2919081019062001385565b62001304576040517f08c379a0000000000000000000000000000000000000000000000000000000008152600401620012fb906200161f565b60405180910390fd5b5b50505050565b60008060007fc5d2460186f7233c927e7db2dcc703c0e500b653ca82273b7bfad8045d85a47060001b9050833f91506000801b82141580156200134e5750808214155b92505050919050565b60008151905062001368816200172c565b92915050565b6000815190506200137f8162001746565b92915050565b6000602082840312156200139857600080fd5b6000620013a88482850162001357565b91505092915050565b600060208284031215620013c457600080fd5b6000620013d4848285016200136e565b91505092915050565b620013e881620016ac565b82525050565b6000620013fb8262001685565b62001407818562001690565b935062001419818560208601620016f6565b80840191505092915050565b6000620014346020836200169b565b91507f5361666545524332303a206c6f772d6c6576656c2063616c6c206661696c65646000830152602082019050919050565b600062001476602a836200169b565b91507f5361666545524332303a204552433230206f7065726174696f6e20646964206e60008301527f6f742073756363656564000000000000000000000000000000000000000000006020830152604082019050919050565b6000620014de6036836200169b565b91507f5361666545524332303a20617070726f76652066726f6d206e6f6e2d7a65726f60008301527f20746f206e6f6e2d7a65726f20616c6c6f77616e6365000000000000000000006020830152604082019050919050565b600062001546601f836200169b565b91507f5361666545524332303a2063616c6c20746f206e6f6e2d636f6e7472616374006000830152602082019050919050565b6200158481620016ec565b82525050565b6000620015988284620013ee565b915081905092915050565b6000604082019050620015ba6000830185620013dd565b620015c96020830184620013dd565b9392505050565b6000604082019050620015e76000830185620013dd565b620015f6602083018462001579565b9392505050565b60006020820190508181036000830152620016188162001425565b9050919050565b600060208201905081810360008301526200163a8162001467565b9050919050565b600060208201905081810360008301526200165c81620014cf565b9050919050565b600060208201905081810360008301526200167e8162001537565b9050919050565b600081519050919050565b600081905092915050565b600082825260208201905092915050565b6000620016b982620016cc565b9050919050565b60008115159050919050565b600073ffffffffffffffffffffffffffffffffffffffff82169050919050565b6000819050919050565b60005b8381101562001716578082015181840152602081019050620016f9565b8381111562001726576000848401525b50505050565b6200173781620016c0565b81146200174357600080fd5b50565b6200175181620016ec565b81146200175d57600080fd5b50565b61481c80620017706000396000f3fe6080604052600436106101c25760003560e01c806389a30271116100f7578063b93f70e811610095578063e0bab4c411610064578063e0bab4c4146105cb578063f0df201b146105f6578063f2fde38b14610621578063f60a15ed1461064a576101c2565b8063b93f70e81461051f578063c54e44eb1461054a578063ce347a3e14610575578063dc93d6c5146105a0576101c2565b80638f32d59b116100d15780638f32d59b1461048757806395f1f30e146104b257806399b71d5c146104dd578063b477622b146104f4576101c2565b806389a30271146104065780638cb60909146104315780638da5cb5b1461045c576101c2565b8063555023d411610164578063715018a61161013e578063715018a61461036e5780637327b8fc146103855780638323550b146103b057806388b6d9fc146103db576101c2565b8063555023d4146102ed578063671cd70a146103185780636f6941b914610343576101c2565b80632e8d6e18116101a05780632e8d6e1814610245578063347250061461026e5780633cd7a0d714610299578063448058b1146102c4576101c2565b8063104daa17146101c45780631393f5fd146101ef57806316514d481461021a575b005b3480156101d057600080fd5b506101d9610661565b6040516101e6919061422f565b60405180910390f35b3480156101fb57600080fd5b50610204610687565b604051610211919061422f565b60405180910390f35b34801561022657600080fd5b5061022f6106ad565b60405161023c919061422f565b60405180910390f35b34801561025157600080fd5b5061026c60048036036102679190810190613a63565b6106d3565b005b34801561027a57600080fd5b506102836107d6565b604051610290919061422f565b60405180910390f35b3480156102a557600080fd5b506102ae6107fc565b6040516102bb919061422f565b60405180910390f35b3480156102d057600080fd5b506102eb60048036036102e69190810190613a8c565b610822565b005b3480156102f957600080fd5b506103026124ff565b60405161030f919061422f565b60405180910390f35b34801561032457600080fd5b5061032d612525565b60405161033a919061422f565b60405180910390f35b34801561034f57600080fd5b5061035861254b565b604051610365919061422f565b60405180910390f35b34801561037a57600080fd5b50610383612571565b005b34801561039157600080fd5b5061039a612679565b6040516103a7919061422f565b60405180910390f35b3480156103bc57600080fd5b506103c561269f565b6040516103d2919061422f565b60405180910390f35b3480156103e757600080fd5b506103f06126c5565b6040516103fd919061422f565b60405180910390f35b34801561041257600080fd5b5061041b6126eb565b604051610428919061422f565b60405180910390f35b34801561043d57600080fd5b50610446612711565b604051610453919061422f565b60405180910390f35b34801561046857600080fd5b50610471612737565b60405161047e919061422f565b60405180910390f35b34801561049357600080fd5b5061049c612761565b6040516104a99190614317565b60405180910390f35b3480156104be57600080fd5b506104c76127c0565b6040516104d4919061422f565b60405180910390f35b3480156104e957600080fd5b506104f26127e6565b005b34801561050057600080fd5b50610509612f7c565b604051610516919061422f565b60405180910390f35b34801561052b57600080fd5b50610534612fa2565b604051610541919061422f565b60405180910390f35b34801561055657600080fd5b5061055f612fc8565b60405161056c919061422f565b60405180910390f35b34801561058157600080fd5b5061058a612fee565b604051610597919061422f565b60405180910390f35b3480156105ac57600080fd5b506105b5613014565b6040516105c2919061422f565b60405180910390f35b3480156105d757600080fd5b506105e061303a565b6040516105ed919061422f565b60405180910390f35b34801561060257600080fd5b5061060b613060565b604051610618919061422f565b60405180910390f35b34801561062d57600080fd5b5061064860048036036106439190810190613a11565b613086565b005b34801561065657600080fd5b5061065f6130d9565b005b601060009054906101000a900473ffffffffffffffffffffffffffffffffffffffff1681565b600960009054906101000a900473ffffffffffffffffffffffffffffffffffffffff1681565b601160009054906101000a900473ffffffffffffffffffffffffffffffffffffffff1681565b6106db612761565b61071a576040517f08c379a0000000000000000000000000000000000000000000000000000000008152600401610711906144f4565b60405180910390fd5b60008173ffffffffffffffffffffffffffffffffffffffff166370a08231306040518263ffffffff1660e01b8152600401610755919061424a565b60206040518083038186803b15801561076d57600080fd5b505afa158015610781573d6000803e3d6000fd5b505050506040513d601f19601f820116820180604052506107a59190810190613ab5565b90506107d233828473ffffffffffffffffffffffffffffffffffffffff166131e69092919063ffffffff16565b5050565b600460009054906101000a900473ffffffffffffffffffffffffffffffffffffffff1681565b601460009054906101000a900473ffffffffffffffffffffffffffffffffffffffff1681565b600160008082825401925050819055506000805490506000821161087b576040517f08c379a0000000000000000000000000000000000000000000000000000000008152600401610872906144d4565b60405180910390fd5b6108ca333084601460009054906101000a900473ffffffffffffffffffffffffffffffffffffffff1673ffffffffffffffffffffffffffffffffffffffff16613285909392919063ffffffff16565b601360009054906101000a900473ffffffffffffffffffffffffffffffffffffffff1673ffffffffffffffffffffffffffffffffffffffff16637d49d87583604051806080016040528060008152602001600081526020016000815260200160008152506040518363ffffffff1660e01b815260040161094b92919061460f565b600060405180830381600087803b15801561096557600080fd5b505af1158015610979573d6000803e3d6000fd5b505050506000601460009054906101000a900473ffffffffffffffffffffffffffffffffffffffff1673ffffffffffffffffffffffffffffffffffffffff166370a08231306040518263ffffffff1660e01b81526004016109da919061424a565b60206040518083038186803b1580156109f257600080fd5b505afa158015610a06573d6000803e3d6000fd5b505050506040513d601f19601f82011682018060405250610a2a9190810190613ab5565b14610a6a576040517f08c379a0000000000000000000000000000000000000000000000000000000008152600401610a6190614454565b60405180910390fd5b6000600460009054906101000a900473ffffffffffffffffffffffffffffffffffffffff1673ffffffffffffffffffffffffffffffffffffffff166370a08231306040518263ffffffff1660e01b8152600401610ac7919061424a565b60206040518083038186803b158015610adf57600080fd5b505afa158015610af3573d6000803e3d6000fd5b505050506040513d601f19601f82011682018060405250610b179190810190613ab5565b1115610c5557600460009054906101000a900473ffffffffffffffffffffffffffffffffffffffff1673ffffffffffffffffffffffffffffffffffffffff16632e1a7d4d600460009054906101000a900473ffffffffffffffffffffffffffffffffffffffff1673ffffffffffffffffffffffffffffffffffffffff166370a08231306040518263ffffffff1660e01b8152600401610bb6919061424a565b60206040518083038186803b158015610bce57600080fd5b505afa158015610be2573d6000803e3d6000fd5b505050506040513d601f19601f82011682018060405250610c069190810190613ab5565b6040518263ffffffff1660e01b8152600401610c2291906145f4565b600060405180830381600087803b158015610c3c57600080fd5b505af1158015610c50573d6000803e3d6000fd5b505050505b6000600860009054906101000a900473ffffffffffffffffffffffffffffffffffffffff1673ffffffffffffffffffffffffffffffffffffffff166370a08231306040518263ffffffff1660e01b8152600401610cb2919061424a565b60206040518083038186803b158015610cca57600080fd5b505afa158015610cde573d6000803e3d6000fd5b505050506040513d601f19601f82011682018060405250610d029190810190613ab5565b1115610e4057600860009054906101000a900473ffffffffffffffffffffffffffffffffffffffff1673ffffffffffffffffffffffffffffffffffffffff16632e1a7d4d600860009054906101000a900473ffffffffffffffffffffffffffffffffffffffff1673ffffffffffffffffffffffffffffffffffffffff166370a08231306040518263ffffffff1660e01b8152600401610da1919061424a565b60206040518083038186803b158015610db957600080fd5b505afa158015610dcd573d6000803e3d6000fd5b505050506040513d601f19601f82011682018060405250610df19190810190613ab5565b6040518263ffffffff1660e01b8152600401610e0d91906145f4565b600060405180830381600087803b158015610e2757600080fd5b505af1158015610e3b573d6000803e3d6000fd5b505050505b6000600b60009054906101000a900473ffffffffffffffffffffffffffffffffffffffff1673ffffffffffffffffffffffffffffffffffffffff166370a08231306040518263ffffffff1660e01b8152600401610e9d919061424a565b60206040518083038186803b158015610eb557600080fd5b505afa158015610ec9573d6000803e3d6000fd5b505050506040513d601f19601f82011682018060405250610eed9190810190613ab5565b111561102b57600b60009054906101000a900473ffffffffffffffffffffffffffffffffffffffff1673ffffffffffffffffffffffffffffffffffffffff16632e1a7d4d600b60009054906101000a900473ffffffffffffffffffffffffffffffffffffffff1673ffffffffffffffffffffffffffffffffffffffff166370a08231306040518263ffffffff1660e01b8152600401610f8c919061424a565b60206040518083038186803b158015610fa457600080fd5b505afa158015610fb8573d6000803e3d6000fd5b505050506040513d601f19601f82011682018060405250610fdc9190810190613ab5565b6040518263ffffffff1660e01b8152600401610ff891906145f4565b600060405180830381600087803b15801561101257600080fd5b505af1158015611026573d6000803e3d6000fd5b505050505b6000600e60009054906101000a900473ffffffffffffffffffffffffffffffffffffffff1673ffffffffffffffffffffffffffffffffffffffff166370a08231306040518263ffffffff1660e01b8152600401611088919061424a565b60206040518083038186803b1580156110a057600080fd5b505afa1580156110b4573d6000803e3d6000fd5b505050506040513d601f19601f820116820180604052506110d89190810190613ab5565b111561121657600e60009054906101000a900473ffffffffffffffffffffffffffffffffffffffff1673ffffffffffffffffffffffffffffffffffffffff16632e1a7d4d600e60009054906101000a900473ffffffffffffffffffffffffffffffffffffffff1673ffffffffffffffffffffffffffffffffffffffff166370a08231306040518263ffffffff1660e01b8152600401611177919061424a565b60206040518083038186803b15801561118f57600080fd5b505afa1580156111a3573d6000803e3d6000fd5b505050506040513d601f19601f820116820180604052506111c79190810190613ab5565b6040518263ffffffff1660e01b81526004016111e391906145f4565b600060405180830381600087803b1580156111fd57600080fd5b505af1158015611211573d6000803e3d6000fd5b505050505b6000600260009054906101000a900473ffffffffffffffffffffffffffffffffffffffff1673ffffffffffffffffffffffffffffffffffffffff166370a08231306040518263ffffffff1660e01b8152600401611273919061424a565b60206040518083038186803b15801561128b57600080fd5b505afa15801561129f573d6000803e3d6000fd5b505050506040513d601f19601f820116820180604052506112c39190810190613ab5565b90506000600660009054906101000a900473ffffffffffffffffffffffffffffffffffffffff1673ffffffffffffffffffffffffffffffffffffffff166370a08231306040518263ffffffff1660e01b8152600401611322919061424a565b60206040518083038186803b15801561133a57600080fd5b505afa15801561134e573d6000803e3d6000fd5b505050506040513d601f19601f820116820180604052506113729190810190613ab5565b90506000600a60009054906101000a900473ffffffffffffffffffffffffffffffffffffffff1673ffffffffffffffffffffffffffffffffffffffff166370a08231306040518263ffffffff1660e01b81526004016113d1919061424a565b60206040518083038186803b1580156113e957600080fd5b505afa1580156113fd573d6000803e3d6000fd5b505050506040513d601f19601f820116820180604052506114219190810190613ab5565b90506000600d60009054906101000a900473ffffffffffffffffffffffffffffffffffffffff1673ffffffffffffffffffffffffffffffffffffffff166370a08231306040518263ffffffff1660e01b8152600401611480919061424a565b60206040518083038186803b15801561149857600080fd5b505afa1580156114ac573d6000803e3d6000fd5b505050506040513d601f19601f820116820180604052506114d09190810190613ab5565b905060008411806114e15750600083115b806114ec5750600082115b806114f75750600081115b611536576040517f08c379a000000000000000000000000000000000000000000000000000000000815260040161152d90614494565b60405180910390fd5b60008411156116ba57600560009054906101000a900473ffffffffffffffffffffffffffffffffffffffff1673ffffffffffffffffffffffffffffffffffffffff1663b6b55f25856040518263ffffffff1660e01b815260040161159a91906145f4565b600060405180830381600087803b1580156115b457600080fd5b505af11580156115c8573d6000803e3d6000fd5b505050506000600260009054906101000a900473ffffffffffffffffffffffffffffffffffffffff1673ffffffffffffffffffffffffffffffffffffffff166370a08231306040518263ffffffff1660e01b8152600401611629919061424a565b60206040518083038186803b15801561164157600080fd5b505afa158015611655573d6000803e3d6000fd5b505050506040513d601f19601f820116820180604052506116799190810190613ab5565b146116b9576040517f08c379a00000000000000000000000000000000000000000000000000000000081526004016116b090614354565b60405180910390fd5b5b600083111561183e57600960009054906101000a900473ffffffffffffffffffffffffffffffffffffffff1673ffffffffffffffffffffffffffffffffffffffff1663b6b55f25846040518263ffffffff1660e01b815260040161171e91906145f4565b600060405180830381600087803b15801561173857600080fd5b505af115801561174c573d6000803e3d6000fd5b505050506000600660009054906101000a900473ffffffffffffffffffffffffffffffffffffffff1673ffffffffffffffffffffffffffffffffffffffff166370a08231306040518263ffffffff1660e01b81526004016117ad919061424a565b60206040518083038186803b1580156117c557600080fd5b505afa1580156117d9573d6000803e3d6000fd5b505050506040513d601f19601f820116820180604052506117fd9190810190613ab5565b1461183d576040517f08c379a000000000000000000000000000000000000000000000000000000000815260040161183490614414565b60405180910390fd5b5b60008211156119c257600c60009054906101000a900473ffffffffffffffffffffffffffffffffffffffff1673ffffffffffffffffffffffffffffffffffffffff1663b6b55f25836040518263ffffffff1660e01b81526004016118a291906145f4565b600060405180830381600087803b1580156118bc57600080fd5b505af11580156118d0573d6000803e3d6000fd5b505050506000600a60009054906101000a900473ffffffffffffffffffffffffffffffffffffffff1673ffffffffffffffffffffffffffffffffffffffff166370a08231306040518263ffffffff1660e01b8152600401611931919061424a565b60206040518083038186803b15801561194957600080fd5b505afa15801561195d573d6000803e3d6000fd5b505050506040513d601f19601f820116820180604052506119819190810190613ab5565b146119c1576040517f08c379a00000000000000000000000000000000000000000000000000000000081526004016119b890614414565b60405180910390fd5b5b601560009054906101000a900473ffffffffffffffffffffffffffffffffffffffff1673ffffffffffffffffffffffffffffffffffffffff1663029b2f346040518060800160405280600560009054906101000a900473ffffffffffffffffffffffffffffffffffffffff1673ffffffffffffffffffffffffffffffffffffffff166370a08231306040518263ffffffff1660e01b8152600401611a66919061424a565b60206040518083038186803b158015611a7e57600080fd5b505afa158015611a92573d6000803e3d6000fd5b505050506040513d601f19601f82011682018060405250611ab69190810190613ab5565b8152602001600960009054906101000a900473ffffffffffffffffffffffffffffffffffffffff1673ffffffffffffffffffffffffffffffffffffffff166370a08231306040518263ffffffff1660e01b8152600401611b16919061424a565b60206040518083038186803b158015611b2e57600080fd5b505afa158015611b42573d6000803e3d6000fd5b505050506040513d601f19601f82011682018060405250611b669190810190613ab5565b8152602001600c60009054906101000a900473ffffffffffffffffffffffffffffffffffffffff1673ffffffffffffffffffffffffffffffffffffffff166370a08231306040518263ffffffff1660e01b8152600401611bc6919061424a565b60206040518083038186803b158015611bde57600080fd5b505afa158015611bf2573d6000803e3d6000fd5b505050506040513d601f19601f82011682018060405250611c169190810190613ab5565b8152602001600081525060006040518363ffffffff1660e01b8152600401611c3f9291906142ee565b600060405180830381600087803b158015611c5957600080fd5b505af1158015611c6d573d6000803e3d6000fd5b505050506000600560009054906101000a900473ffffffffffffffffffffffffffffffffffffffff1673ffffffffffffffffffffffffffffffffffffffff166370a08231306040518263ffffffff1660e01b8152600401611cce919061424a565b60206040518083038186803b158015611ce657600080fd5b505afa158015611cfa573d6000803e3d6000fd5b505050506040513d601f19601f82011682018060405250611d1e9190810190613ab5565b14611d5e576040517f08c379a0000000000000000000000000000000000000000000000000000000008152600401611d55906143b4565b60405180910390fd5b6000600960009054906101000a900473ffffffffffffffffffffffffffffffffffffffff1673ffffffffffffffffffffffffffffffffffffffff166370a08231306040518263ffffffff1660e01b8152600401611dbb919061424a565b60206040518083038186803b158015611dd357600080fd5b505afa158015611de7573d6000803e3d6000fd5b505050506040513d601f19601f82011682018060405250611e0b9190810190613ab5565b14611e4b576040517f08c379a0000000000000000000000000000000000000000000000000000000008152600401611e4290614394565b60405180910390fd5b6000600c60009054906101000a900473ffffffffffffffffffffffffffffffffffffffff1673ffffffffffffffffffffffffffffffffffffffff166370a08231306040518263ffffffff1660e01b8152600401611ea8919061424a565b60206040518083038186803b158015611ec057600080fd5b505afa158015611ed4573d6000803e3d6000fd5b505050506040513d601f19601f82011682018060405250611ef89190810190613ab5565b14611f38576040517f08c379a0000000000000000000000000000000000000000000000000000000008152600401611f2f90614574565b60405180910390fd5b61202f33600d60009054906101000a900473ffffffffffffffffffffffffffffffffffffffff1673ffffffffffffffffffffffffffffffffffffffff166370a08231306040518263ffffffff1660e01b8152600401611f97919061424a565b60206040518083038186803b158015611faf57600080fd5b505afa158015611fc3573d6000803e3d6000fd5b505050506040513d601f19601f82011682018060405250611fe79190810190613ab5565b600d60009054906101000a900473ffffffffffffffffffffffffffffffffffffffff1673ffffffffffffffffffffffffffffffffffffffff166131e69092919063ffffffff16565b6000600d60009054906101000a900473ffffffffffffffffffffffffffffffffffffffff1673ffffffffffffffffffffffffffffffffffffffff166370a08231306040518263ffffffff1660e01b815260040161208c919061424a565b60206040518083038186803b1580156120a457600080fd5b505afa1580156120b8573d6000803e3d6000fd5b505050506040513d601f19601f820116820180604052506120dc9190810190613ab5565b1461211c576040517f08c379a000000000000000000000000000000000000000000000000000000000815260040161211390614474565b60405180910390fd5b6000601660009054906101000a900473ffffffffffffffffffffffffffffffffffffffff1673ffffffffffffffffffffffffffffffffffffffff166370a08231306040518263ffffffff1660e01b8152600401612179919061424a565b60206040518083038186803b15801561219157600080fd5b505afa1580156121a5573d6000803e3d6000fd5b505050506040513d601f19601f820116820180604052506121c99190810190613ab5565b905060006122206121e864e8d4a510008661332790919063ffffffff16565b61221261220364e8d4a510008961332790919063ffffffff16565b8961339790919063ffffffff16565b61339790919063ffffffff16565b9050600061224b606461223d60058561332790919063ffffffff16565b6133ec90919063ffffffff16565b90506000612262828461343690919063ffffffff16565b90506000612279838561339790919063ffffffff16565b905080851115801561228b5750818510155b6122ca576040517f08c379a00000000000000000000000000000000000000000000000000000000081526004016122c190614534565b60405180910390fd5b6123c133601660009054906101000a900473ffffffffffffffffffffffffffffffffffffffff1673ffffffffffffffffffffffffffffffffffffffff166370a08231306040518263ffffffff1660e01b8152600401612329919061424a565b60206040518083038186803b15801561234157600080fd5b505afa158015612355573d6000803e3d6000fd5b505050506040513d601f19601f820116820180604052506123799190810190613ab5565b601660009054906101000a900473ffffffffffffffffffffffffffffffffffffffff1673ffffffffffffffffffffffffffffffffffffffff166131e69092919063ffffffff16565b6000601660009054906101000a900473ffffffffffffffffffffffffffffffffffffffff1673ffffffffffffffffffffffffffffffffffffffff166370a08231306040518263ffffffff1660e01b815260040161241e919061424a565b60206040518083038186803b15801561243657600080fd5b505afa15801561244a573d6000803e3d6000fd5b505050506040513d601f19601f8201168201806040525061246e9190810190613ab5565b146124ae576040517f08c379a00000000000000000000000000000000000000000000000000000000081526004016124a590614514565b60405180910390fd5b50505050505050505060005481146124fb576040517f08c379a00000000000000000000000000000000000000000000000000000000081526004016124f290614594565b60405180910390fd5b5050565b601560009054906101000a900473ffffffffffffffffffffffffffffffffffffffff1681565b601260009054906101000a900473ffffffffffffffffffffffffffffffffffffffff1681565b600360009054906101000a900473ffffffffffffffffffffffffffffffffffffffff1681565b612579612761565b6125b8576040517f08c379a00000000000000000000000000000000000000000000000000000000081526004016125af906144f4565b60405180910390fd5b600073ffffffffffffffffffffffffffffffffffffffff16600160009054906101000a900473ffffffffffffffffffffffffffffffffffffffff1673ffffffffffffffffffffffffffffffffffffffff167f8be0079c531659141344cd1fd0a4f28419497f9722a3daafe3b4186f6b6457e060405160405180910390a36000600160006101000a81548173ffffffffffffffffffffffffffffffffffffffff021916908373ffffffffffffffffffffffffffffffffffffffff160217905550565b600560009054906101000a900473ffffffffffffffffffffffffffffffffffffffff1681565b600d60009054906101000a900473ffffffffffffffffffffffffffffffffffffffff1681565b600c60009054906101000a900473ffffffffffffffffffffffffffffffffffffffff1681565b600660009054906101000a900473ffffffffffffffffffffffffffffffffffffffff1681565b600e60009054906101000a900473ffffffffffffffffffffffffffffffffffffffff1681565b6000600160009054906101000a900473ffffffffffffffffffffffffffffffffffffffff16905090565b6000600160009054906101000a900473ffffffffffffffffffffffffffffffffffffffff1673ffffffffffffffffffffffffffffffffffffffff166127a4613480565b73ffffffffffffffffffffffffffffffffffffffff1614905090565b600f60009054906101000a900473ffffffffffffffffffffffffffffffffffffffff1681565b612875600460009054906101000a900473ffffffffffffffffffffffffffffffffffffffff167fffffffffffffffffffffffffffffffffffffffffffffffffffffffffffffffff600260009054906101000a900473ffffffffffffffffffffffffffffffffffffffff1673ffffffffffffffffffffffffffffffffffffffff166134889092919063ffffffff16565b612904600560009054906101000a900473ffffffffffffffffffffffffffffffffffffffff167fffffffffffffffffffffffffffffffffffffffffffffffffffffffffffffffff600260009054906101000a900473ffffffffffffffffffffffffffffffffffffffff1673ffffffffffffffffffffffffffffffffffffffff166134889092919063ffffffff16565b612993601360009054906101000a900473ffffffffffffffffffffffffffffffffffffffff167fffffffffffffffffffffffffffffffffffffffffffffffffffffffffffffffff600460009054906101000a900473ffffffffffffffffffffffffffffffffffffffff1673ffffffffffffffffffffffffffffffffffffffff166134889092919063ffffffff16565b612a22601560009054906101000a900473ffffffffffffffffffffffffffffffffffffffff167fffffffffffffffffffffffffffffffffffffffffffffffffffffffffffffffff600560009054906101000a900473ffffffffffffffffffffffffffffffffffffffff1673ffffffffffffffffffffffffffffffffffffffff166134889092919063ffffffff16565b612ab1600860009054906101000a900473ffffffffffffffffffffffffffffffffffffffff167fffffffffffffffffffffffffffffffffffffffffffffffffffffffffffffffff600660009054906101000a900473ffffffffffffffffffffffffffffffffffffffff1673ffffffffffffffffffffffffffffffffffffffff166134889092919063ffffffff16565b612b40600960009054906101000a900473ffffffffffffffffffffffffffffffffffffffff167fffffffffffffffffffffffffffffffffffffffffffffffffffffffffffffffff600660009054906101000a900473ffffffffffffffffffffffffffffffffffffffff1673ffffffffffffffffffffffffffffffffffffffff166134889092919063ffffffff16565b612bcf601360009054906101000a900473ffffffffffffffffffffffffffffffffffffffff167fffffffffffffffffffffffffffffffffffffffffffffffffffffffffffffffff600860009054906101000a900473ffffffffffffffffffffffffffffffffffffffff1673ffffffffffffffffffffffffffffffffffffffff166134889092919063ffffffff16565b612c5e601560009054906101000a900473ffffffffffffffffffffffffffffffffffffffff167fffffffffffffffffffffffffffffffffffffffffffffffffffffffffffffffff600960009054906101000a900473ffffffffffffffffffffffffffffffffffffffff1673ffffffffffffffffffffffffffffffffffffffff166134889092919063ffffffff16565b612cce600b60009054906101000a900473ffffffffffffffffffffffffffffffffffffffff166000600a60009054906101000a900473ffffffffffffffffffffffffffffffffffffffff1673ffffffffffffffffffffffffffffffffffffffff166134889092919063ffffffff16565b612d5d600b60009054906101000a900473ffffffffffffffffffffffffffffffffffffffff167fffffffffffffffffffffffffffffffffffffffffffffffffffffffffffffffff600a60009054906101000a900473ffffffffffffffffffffffffffffffffffffffff1673ffffffffffffffffffffffffffffffffffffffff166134889092919063ffffffff16565b612dcd600c60009054906101000a900473ffffffffffffffffffffffffffffffffffffffff166000600a60009054906101000a900473ffffffffffffffffffffffffffffffffffffffff1673ffffffffffffffffffffffffffffffffffffffff166134889092919063ffffffff16565b612e5c600c60009054906101000a900473ffffffffffffffffffffffffffffffffffffffff167fffffffffffffffffffffffffffffffffffffffffffffffffffffffffffffffff600a60009054906101000a900473ffffffffffffffffffffffffffffffffffffffff1673ffffffffffffffffffffffffffffffffffffffff166134889092919063ffffffff16565b612eeb601360009054906101000a900473ffffffffffffffffffffffffffffffffffffffff167fffffffffffffffffffffffffffffffffffffffffffffffffffffffffffffffff600b60009054906101000a900473ffffffffffffffffffffffffffffffffffffffff1673ffffffffffffffffffffffffffffffffffffffff166134889092919063ffffffff16565b612f7a601560009054906101000a900473ffffffffffffffffffffffffffffffffffffffff167fffffffffffffffffffffffffffffffffffffffffffffffffffffffffffffffff600c60009054906101000a900473ffffffffffffffffffffffffffffffffffffffff1673ffffffffffffffffffffffffffffffffffffffff166134889092919063ffffffff16565b565b601360009054906101000a900473ffffffffffffffffffffffffffffffffffffffff1681565b601660009054906101000a900473ffffffffffffffffffffffffffffffffffffffff1681565b600a60009054906101000a900473ffffffffffffffffffffffffffffffffffffffff1681565b600760009054906101000a900473ffffffffffffffffffffffffffffffffffffffff1681565b600b60009054906101000a900473ffffffffffffffffffffffffffffffffffffffff1681565b600260009054906101000a900473ffffffffffffffffffffffffffffffffffffffff1681565b600860009054906101000a900473ffffffffffffffffffffffffffffffffffffffff1681565b61308e612761565b6130cd576040517f08c379a00000000000000000000000000000000000000000000000000000000081526004016130c4906144f4565b60405180910390fd5b6130d6816135ff565b50565b6130e1612761565b613120576040517f08c379a0000000000000000000000000000000000000000000000000000000008152600401613117906144f4565b60405180910390fd5b60003373ffffffffffffffffffffffffffffffffffffffff163073ffffffffffffffffffffffffffffffffffffffff163160405161315d9061421a565b60006040518083038185875af1925050503d806000811461319a576040519150601f19603f3d011682016040523d82523d6000602084013e61319f565b606091505b50509050806131e3576040517f08c379a00000000000000000000000000000000000000000000000000000000081526004016131da90614434565b60405180910390fd5b50565b613280838473ffffffffffffffffffffffffffffffffffffffff1663a9059cbb905060e01b848460405160240161321e9291906142c5565b604051602081830303815290604052907bffffffffffffffffffffffffffffffffffffffffffffffffffffffff19166020820180517bffffffffffffffffffffffffffffffffffffffffffffffffffffffff838183161783525050505061372f565b505050565b613321848573ffffffffffffffffffffffffffffffffffffffff166323b872dd905060e01b8585856040516024016132bf9392919061428e565b604051602081830303815290604052907bffffffffffffffffffffffffffffffffffffffffffffffffffffffff19166020820180517bffffffffffffffffffffffffffffffffffffffffffffffffffffffff838183161783525050505061372f565b50505050565b60008083141561333a5760009050613391565b600082840290508284828161334b57fe5b041461338c576040517f08c379a0000000000000000000000000000000000000000000000000000000008152600401613383906144b4565b60405180910390fd5b809150505b92915050565b6000808284019050838110156133e2576040517f08c379a00000000000000000000000000000000000000000000000000000000081526004016133d9906143d4565b60405180910390fd5b8091505092915050565b600061342e83836040518060400160405280601a81526020017f536166654d6174683a206469766973696f6e206279207a65726f0000000000008152506138a1565b905092915050565b600061347883836040518060400160405280601e81526020017f536166654d6174683a207375627472616374696f6e206f766572666c6f770000815250613902565b905092915050565b600033905090565b6000811480613521575060008373ffffffffffffffffffffffffffffffffffffffff1663dd62ed3e30856040518363ffffffff1660e01b81526004016134cf929190614265565b60206040518083038186803b1580156134e757600080fd5b505afa1580156134fb573d6000803e3d6000fd5b505050506040513d601f19601f8201168201806040525061351f9190810190613ab5565b145b613560576040517f08c379a0000000000000000000000000000000000000000000000000000000008152600401613557906145b4565b60405180910390fd5b6135fa838473ffffffffffffffffffffffffffffffffffffffff1663095ea7b3905060e01b84846040516024016135989291906142c5565b604051602081830303815290604052907bffffffffffffffffffffffffffffffffffffffffffffffffffffffff19166020820180517bffffffffffffffffffffffffffffffffffffffffffffffffffffffff838183161783525050505061372f565b505050565b600073ffffffffffffffffffffffffffffffffffffffff168173ffffffffffffffffffffffffffffffffffffffff16141561366f576040517f08c379a000000000000000000000000000000000000000000000000000000000815260040161366690614374565b60405180910390fd5b8073ffffffffffffffffffffffffffffffffffffffff16600160009054906101000a900473ffffffffffffffffffffffffffffffffffffffff1673ffffffffffffffffffffffffffffffffffffffff167f8be0079c531659141344cd1fd0a4f28419497f9722a3daafe3b4186f6b6457e060405160405180910390a380600160006101000a81548173ffffffffffffffffffffffffffffffffffffffff021916908373ffffffffffffffffffffffffffffffffffffffff16021790555050565b61374e8273ffffffffffffffffffffffffffffffffffffffff1661395d565b61378d576040517f08c379a0000000000000000000000000000000000000000000000000000000008152600401613784906145d4565b60405180910390fd5b600060608373ffffffffffffffffffffffffffffffffffffffff16836040516137b69190614203565b6000604051808303816000865af19150503d80600081146137f3576040519150601f19603f3d011682016040523d82523d6000602084013e6137f8565b606091505b50915091508161383d576040517f08c379a0000000000000000000000000000000000000000000000000000000008152600401613834906143f4565b60405180910390fd5b60008151111561389b578080602001905161385b9190810190613a3a565b61389a576040517f08c379a000000000000000000000000000000000000000000000000000000000815260040161389190614554565b60405180910390fd5b5b50505050565b600080831182906138e8576040517f08c379a00000000000000000000000000000000000000000000000000000000081526004016138df9190614332565b60405180910390fd5b5060008385816138f457fe5b049050809150509392505050565b600083831115829061394a576040517f08c379a00000000000000000000000000000000000000000000000000000000081526004016139419190614332565b60405180910390fd5b5060008385039050809150509392505050565b60008060007fc5d2460186f7233c927e7db2dcc703c0e500b653ca82273b7bfad8045d85a47060001b9050833f91506000801b821415801561399f5750808214155b92505050919050565b6000813590506139b78161477d565b92915050565b6000815190506139cc81614794565b92915050565b6000813590506139e1816147ab565b92915050565b6000813590506139f6816147c2565b92915050565b600081519050613a0b816147c2565b92915050565b600060208284031215613a2357600080fd5b6000613a31848285016139a8565b91505092915050565b600060208284031215613a4c57600080fd5b6000613a5a848285016139bd565b91505092915050565b600060208284031215613a7557600080fd5b6000613a83848285016139d2565b91505092915050565b600060208284031215613a9e57600080fd5b6000613aac848285016139e7565b91505092915050565b600060208284031215613ac757600080fd5b6000613ad5848285016139fc565b91505092915050565b6000613aea83836141e5565b60208301905092915050565b613aff816146f1565b82525050565b613b0e81614697565b82525050565b613b1d81614642565b613b278184614670565b9250613b3282614638565b8060005b83811015613b63578151613b4a8782613ade565b9650613b5583614663565b925050600181019050613b36565b505050505050565b613b74816146a9565b82525050565b6000613b858261464d565b613b8f818561467b565b9350613b9f818560208601614739565b80840191505092915050565b613bb481614703565b82525050565b6000613bc582614658565b613bcf8185614686565b9350613bdf818560208601614739565b613be88161476c565b840191505092915050565b6000613c00600d83614686565b91507f6461692072656d61696e646572000000000000000000000000000000000000006000830152602082019050919050565b6000613c40602683614686565b91507f4f776e61626c653a206e6577206f776e657220697320746865207a65726f206160008301527f64647265737300000000000000000000000000000000000000000000000000006020830152604082019050919050565b6000613ca6600f83614686565b91507f79555344432072656d61696e64657200000000000000000000000000000000006000830152602082019050919050565b6000613ce6600e83614686565b91507f794441492072656d61696e6465720000000000000000000000000000000000006000830152602082019050919050565b6000613d26601b83614686565b91507f536166654d6174683a206164646974696f6e206f766572666c6f7700000000006000830152602082019050919050565b6000613d66602083614686565b91507f5361666545524332303a206c6f772d6c6576656c2063616c6c206661696c65646000830152602082019050919050565b6000613da6600e83614686565b91507f757364632072656d61696e6465720000000000000000000000000000000000006000830152602082019050919050565b6000613de6601683614686565b91507f7472616e73666572206f6620455448206661696c6564000000000000000000006000830152602082019050919050565b6000613e26600f83614686565b91507f43555256452072656d61696e64657200000000000000000000000000000000006000830152602082019050919050565b6000613e66600e83614686565b91507f545553442072656d61696e6465720000000000000000000000000000000000006000830152602082019050919050565b6000613ea6601383614686565b91507f6e6f20756e6465726c79696e6720666f756e64000000000000000000000000006000830152602082019050919050565b6000613ee6602183614686565b91507f536166654d6174683a206d756c7469706c69636174696f6e206f766572666c6f60008301527f77000000000000000000000000000000000000000000000000000000000000006020830152604082019050919050565b6000613f4c601e83614686565b91507f63757276657633206d7573742062652067726561746572207468616e203000006000830152602082019050919050565b6000613f8c602083614686565b91507f4f776e61626c653a2063616c6c6572206973206e6f7420746865206f776e65726000830152602082019050919050565b6000613fcc60008361467b565b9150600082019050919050565b6000613fe6601183614686565b91507f435552564576332072656d61696e6465720000000000000000000000000000006000830152602082019050919050565b6000614026601883614686565b91507f736c6970706167652067726561746572207468616e20352500000000000000006000830152602082019050919050565b6000614066602a83614686565b91507f5361666545524332303a204552433230206f7065726174696f6e20646964206e60008301527f6f742073756363656564000000000000000000000000000000000000000000006020830152604082019050919050565b60006140cc600f83614686565b91507f79555344542072656d61696e64657200000000000000000000000000000000006000830152602082019050919050565b600061410c601f83614686565b91507f5265656e7472616e637947756172643a207265656e7472616e742063616c6c006000830152602082019050919050565b600061414c603683614686565b91507f5361666545524332303a20617070726f76652066726f6d206e6f6e2d7a65726f60008301527f20746f206e6f6e2d7a65726f20616c6c6f77616e6365000000000000000000006020830152604082019050919050565b60006141b2601f83614686565b91507f5361666545524332303a2063616c6c20746f206e6f6e2d636f6e7472616374006000830152602082019050919050565b6141ee816146e7565b82525050565b6141fd816146e7565b82525050565b600061420f8284613b7a565b915081905092915050565b600061422582613fbf565b9150819050919050565b60006020820190506142446000830184613b05565b92915050565b600060208201905061425f6000830184613af6565b92915050565b600060408201905061427a6000830185613b05565b6142876020830184613b05565b9392505050565b60006060820190506142a36000830186613b05565b6142b06020830185613b05565b6142bd60408301846141f4565b949350505050565b60006040820190506142da6000830185613b05565b6142e760208301846141f4565b9392505050565b600060a0820190506143036000830185613b14565b6143106080830184613bab565b9392505050565b600060208201905061432c6000830184613b6b565b92915050565b6000602082019050818103600083015261434c8184613bba565b905092915050565b6000602082019050818103600083015261436d81613bf3565b9050919050565b6000602082019050818103600083015261438d81613c33565b9050919050565b600060208201905081810360008301526143ad81613c99565b9050919050565b600060208201905081810360008301526143cd81613cd9565b9050919050565b600060208201905081810360008301526143ed81613d19565b9050919050565b6000602082019050818103600083015261440d81613d59565b9050919050565b6000602082019050818103600083015261442d81613d99565b9050919050565b6000602082019050818103600083015261444d81613dd9565b9050919050565b6000602082019050818103600083015261446d81613e19565b9050919050565b6000602082019050818103600083015261448d81613e59565b9050919050565b600060208201905081810360008301526144ad81613e99565b9050919050565b600060208201905081810360008301526144cd81613ed9565b9050919050565b600060208201905081810360008301526144ed81613f3f565b9050919050565b6000602082019050818103600083015261450d81613f7f565b9050919050565b6000602082019050818103600083015261452d81613fd9565b9050919050565b6000602082019050818103600083015261454d81614019565b9050919050565b6000602082019050818103600083015261456d81614059565b9050919050565b6000602082019050818103600083015261458d816140bf565b9050919050565b600060208201905081810360008301526145ad816140ff565b9050919050565b600060208201905081810360008301526145cd8161413f565b9050919050565b600060208201905081810360008301526145ed816141a5565b9050919050565b600060208201905061460960008301846141f4565b92915050565b600060a08201905061462460008301856141f4565b6146316020830184613b14565b9392505050565b6000819050919050565b600060049050919050565b600081519050919050565b600081519050919050565b6000602082019050919050565b600081905092915050565b600081905092915050565b600082825260208201905092915050565b60006146a2826146c7565b9050919050565b60008115159050919050565b60006146c082614697565b9050919050565b600073ffffffffffffffffffffffffffffffffffffffff82169050919050565b6000819050919050565b60006146fc82614715565b9050919050565b600061470e826146e7565b9050919050565b600061472082614727565b9050919050565b6000614732826146c7565b9050919050565b60005b8381101561475757808201518184015260208101905061473c565b83811115614766576000848401525b50505050565b6000601f19601f8301169050919050565b61478681614697565b811461479157600080fd5b50565b61479d816146a9565b81146147a857600080fd5b50565b6147b4816146b5565b81146147bf57600080fd5b50565b6147cb816146e7565b81146147d657600080fd5b5056fea365627a7a723158205dbbb7b29e73dd2c827b5b43f8ccee1b297688082336c1a432dc2f29094385c56c6578706572696d656e74616cf564736f6c634300050c0040",
  "source": "pragma solidity ^0.5.0;\npragma experimental ABIEncoderV2;\n\ninterface IERC20 {\n    function totalSupply() external view returns (uint256);\n    function balanceOf(address account) external view returns (uint256);\n    function transfer(address recipient, uint256 amount) external returns (bool);\n    function allowance(address owner, address spender) external view returns (uint256);\n    function approve(address spender, uint256 amount) external returns (bool);\n    function transferFrom(address sender, address recipient, uint256 amount) external returns (bool);\n    event Transfer(address indexed from, address indexed to, uint256 value);\n    event Approval(address indexed owner, address indexed spender, uint256 value);\n}\n\ncontract Context {\n    constructor () internal { }\n    // solhint-disable-previous-line no-empty-blocks\n\n    function _msgSender() internal view returns (address payable) {\n        return msg.sender;\n    }\n\n    function _msgData() internal view returns (bytes memory) {\n        this; // silence state mutability warning without generating bytecode - see https://github.com/ethereum/solidity/issues/2691\n        return msg.data;\n    }\n}\n\ncontract ReentrancyGuard {\n    uint256 private _guardCounter;\n\n    constructor () internal {\n        _guardCounter = 1;\n    }\n\n    modifier nonReentrant() {\n        _guardCounter += 1;\n        uint256 localCounter = _guardCounter;\n        _;\n        require(localCounter == _guardCounter, \"ReentrancyGuard: reentrant call\");\n    }\n}\n\ncontract Ownable is Context {\n    address private _owner;\n\n    event OwnershipTransferred(address indexed previousOwner, address indexed newOwner);\n    constructor () internal {\n        _owner = _msgSender();\n        emit OwnershipTransferred(address(0), _owner);\n    }\n    function owner() public view returns (address) {\n        return _owner;\n    }\n    modifier onlyOwner() {\n        require(isOwner(), \"Ownable: caller is not the owner\");\n        _;\n    }\n    function isOwner() public view returns (bool) {\n        return _msgSender() == _owner;\n    }\n    function renounceOwnership() public onlyOwner {\n        emit OwnershipTransferred(_owner, address(0));\n        _owner = address(0);\n    }\n    function transferOwnership(address newOwner) public onlyOwner {\n        _transferOwnership(newOwner);\n    }\n    function _transferOwnership(address newOwner) internal {\n        require(newOwner != address(0), \"Ownable: new owner is the zero address\");\n        emit OwnershipTransferred(_owner, newOwner);\n        _owner = newOwner;\n    }\n}\n\nlibrary SafeMath {\n    function add(uint256 a, uint256 b) internal pure returns (uint256) {\n        uint256 c = a + b;\n        require(c >= a, \"SafeMath: addition overflow\");\n\n        return c;\n    }\n    function sub(uint256 a, uint256 b) internal pure returns (uint256) {\n        return sub(a, b, \"SafeMath: subtraction overflow\");\n    }\n    function sub(uint256 a, uint256 b, string memory errorMessage) internal pure returns (uint256) {\n        require(b <= a, errorMessage);\n        uint256 c = a - b;\n\n        return c;\n    }\n    function mul(uint256 a, uint256 b) internal pure returns (uint256) {\n        if (a == 0) {\n            return 0;\n        }\n\n        uint256 c = a * b;\n        require(c / a == b, \"SafeMath: multiplication overflow\");\n\n        return c;\n    }\n    function div(uint256 a, uint256 b) internal pure returns (uint256) {\n        return div(a, b, \"SafeMath: division by zero\");\n    }\n    function div(uint256 a, uint256 b, string memory errorMessage) internal pure returns (uint256) {\n        // Solidity only automatically asserts when dividing by 0\n        require(b > 0, errorMessage);\n        uint256 c = a / b;\n\n        return c;\n    }\n    function mod(uint256 a, uint256 b) internal pure returns (uint256) {\n        return mod(a, b, \"SafeMath: modulo by zero\");\n    }\n    function mod(uint256 a, uint256 b, string memory errorMessage) internal pure returns (uint256) {\n        require(b != 0, errorMessage);\n        return a % b;\n    }\n}\n\nlibrary Address {\n    function isContract(address account) internal view returns (bool) {\n        bytes32 codehash;\n        bytes32 accountHash = 0xc5d2460186f7233c927e7db2dcc703c0e500b653ca82273b7bfad8045d85a470;\n        // solhint-disable-next-line no-inline-assembly\n        assembly { codehash := extcodehash(account) }\n        return (codehash != 0x0 && codehash != accountHash);\n    }\n    function toPayable(address account) internal pure returns (address payable) {\n        return address(uint160(account));\n    }\n    function sendValue(address payable recipient, uint256 amount) internal {\n        require(address(this).balance >= amount, \"Address: insufficient balance\");\n\n        // solhint-disable-next-line avoid-call-value\n        (bool success, ) = recipient.call.value(amount)(\"\");\n        require(success, \"Address: unable to send value, recipient may have reverted\");\n    }\n}\n\nlibrary SafeERC20 {\n    using SafeMath for uint256;\n    using Address for address;\n\n    function safeTransfer(IERC20 token, address to, uint256 value) internal {\n        callOptionalReturn(token, abi.encodeWithSelector(token.transfer.selector, to, value));\n    }\n    function safeTransferFrom(IERC20 token, address from, address to, uint256 value) internal {\n        callOptionalReturn(token, abi.encodeWithSelector(token.transferFrom.selector, from, to, value));\n    }\n    function safeApprove(IERC20 token, address spender, uint256 value) internal {\n        require((value == 0) || (token.allowance(address(this), spender) == 0),\n            \"SafeERC20: approve from non-zero to non-zero allowance\"\n        );\n        callOptionalReturn(token, abi.encodeWithSelector(token.approve.selector, spender, value));\n    }\n    function callOptionalReturn(IERC20 token, bytes memory data) private {\n        require(address(token).isContract(), \"SafeERC20: call to non-contract\");\n\n        // solhint-disable-next-line avoid-low-level-calls\n        (bool success, bytes memory returndata) = address(token).call(data);\n        require(success, \"SafeERC20: low-level call failed\");\n\n        if (returndata.length > 0) { // Return data is optional\n            // solhint-disable-next-line max-line-length\n            require(abi.decode(returndata, (bool)), \"SafeERC20: ERC20 operation did not succeed\");\n        }\n    }\n}\n\ninterface yERC20 {\n  function deposit(uint256 _amount) external;\n  function withdraw(uint256 _amount) external;\n}\n\n// Solidity Interface\n\ninterface ICurveFiv1 {\n  function remove_liquidity(\n    uint256 _amount,\n    uint256 deadline,\n    uint256[2] calldata min_amounts\n  ) external;\n}\n\ninterface ICurveFiv2 {\n  function remove_liquidity(\n    uint256 _amount,\n    uint256[3] calldata min_amounts\n  ) external;\n}\n\ninterface ICurveFiv3 {\n  function remove_liquidity(\n    uint256 _amount,\n    uint256[4] calldata min_amounts\n  ) external;\n}\n\ninterface Compound {\n    function mint ( uint256 mintAmount ) external returns ( uint256 );\n    function redeem(uint256 redeemTokens) external returns (uint256);\n    function exchangeRateStored() external view returns (uint);\n}\n\ninterface ICurveFiv4 {\n  function add_liquidity(\n    uint256[4] calldata amounts,\n    uint256 min_mint_amount\n  ) external;\n}\n\ncontract yCurveZapSwapV4 is ReentrancyGuard, Ownable {\n  using SafeERC20 for IERC20;\n  using Address for address;\n  using SafeMath for uint256;\n\n  address public DAI;\n  address public cDAI;\n  address public yDAIv2;\n  address public yDAIv3;\n  address public USDC;\n  address public cUSDC;\n  address public yUSDCv2;\n  address public yUSDCv3;\n  address public USDT;\n  address public yUSDTv2;\n  address public yUSDTv3;\n  address public TUSD;\n  address public yTUSDv2;\n  address public SWAPv1;\n  address public CURVEv1;\n  address public SWAPv2;\n  address public CURVEv2;\n  address public SWAPv3;\n  address public CURVEv3;\n  address public SWAPv4;\n  address public CURVEv4;\n\n  constructor () public {\n    DAI = address(0x6B175474E89094C44Da98b954EedeAC495271d0F);\n    yDAIv2 = address(0x16de59092dAE5CcF4A1E6439D611fd0653f0Bd01);\n    yDAIv3 = address(0xC2cB1040220768554cf699b0d863A3cd4324ce32);\n    cDAI = address(0x5d3a536E4D6DbD6114cc1Ead35777bAB948E3643);\n\n    TUSD = address(0x0000000000085d4780B73119b644AE5ecd22b376);\n    yTUSDv2 = address(0x73a052500105205d34Daf004eAb301916DA8190f);\n\n    USDC = address(0xA0b86991c6218b36c1d19D4a2e9Eb0cE3606eB48);\n    yUSDCv2 = address(0xd6aD7a6750A7593E092a9B218d66C0A814a3436e);\n    yUSDCv3 = address(0x26EA744E5B887E5205727f55dFBE8685e3b21951);\n    cUSDC = address(0x39AA39c021dfbaE8faC545936693aC917d5E7563);\n\n    USDT = address(0xdAC17F958D2ee523a2206206994597C13D831ec7);\n    yUSDTv2 = address(0x83f798e925BcD4017Eb265844FDDAbb448f1707D);\n    yUSDTv3 = address(0xE6354ed5bC4b393a5Aad09f21c46E101e692d447);\n\n    SWAPv1 = address(0x2e60CF74d81ac34eB21eEff58Db4D385920ef419);\n    CURVEv1 = address(0x3740fb63ab7a09891d7c0d4299442A551D06F5fD);\n\n    SWAPv2 = address(0x52EA46506B9CC5Ef470C5bf89f17Dc28bB35D85C);\n    CURVEv2 = address(0x9fC689CCaDa600B6DF723D9E47D84d76664a1F23);\n\n    SWAPv3 = address(0x45F783CCE6B7FF23B2ab2D70e416cdb7D6055f51);\n    CURVEv3 = address(0xdF5e0e81Dff6FAF3A7e52BA697820c5e32D806A8);\n\n    SWAPv4 = address(0x79a8C46DeA5aDa233ABaFFD40F3A0A2B1e5A4F27);\n    CURVEv4 = address(0x3B3Ac5386837Dc563660FB6a0937DFAa5924333B);\n\n    approveToken();\n  }\n\n  function() external payable {\n\n  }\n\n  function withdrawCompound(address token, uint amount) internal {\n      require(Compound(token).redeem(amount) == 0, \"COMPOUND: withdraw failed\");\n  }\n\n  function approveToken() public {\n      IERC20(DAI).safeApprove(yDAIv2, uint(-1));\n      IERC20(DAI).safeApprove(yDAIv3, uint(-1));\n      IERC20(yDAIv2).safeApprove(SWAPv3, uint(-1));\n      IERC20(yDAIv3).safeApprove(SWAPv4, uint(-1));\n\n      IERC20(USDC).safeApprove(yUSDCv2, uint(-1));\n      IERC20(USDC).safeApprove(yUSDCv3, uint(-1));\n      IERC20(yUSDCv2).safeApprove(SWAPv3, uint(-1));\n      IERC20(yUSDCv3).safeApprove(SWAPv4, uint(-1));\n\n      IERC20(USDT).safeApprove(yUSDTv2, uint(0));\n      IERC20(USDT).safeApprove(yUSDTv2, uint(-1));\n      IERC20(USDT).safeApprove(yUSDTv3, uint(0));\n      IERC20(USDT).safeApprove(yUSDTv3, uint(-1));\n      IERC20(yUSDTv2).safeApprove(SWAPv3, uint(-1));\n      IERC20(yUSDTv3).safeApprove(SWAPv4, uint(-1));\n\n  }\n\n  function swapv3tov4(uint256 _amount)\n      external\n      nonReentrant\n  {\n      require(_amount > 0, \"curvev3 must be greater than 0\");\n      IERC20(CURVEv3).safeTransferFrom(msg.sender, address(this), _amount);\n      ICurveFiv3(SWAPv3).remove_liquidity(_amount, [uint256(0),0,0,0]);\n      require(IERC20(CURVEv3).balanceOf(address(this)) == 0, \"CURVE remainder\");\n\n      if (IERC20(yDAIv2).balanceOf(address(this)) > 0) {\n        yERC20(yDAIv2).withdraw(IERC20(yDAIv2).balanceOf(address(this)));\n      }\n      if (IERC20(yUSDCv2).balanceOf(address(this)) > 0) {\n        yERC20(yUSDCv2).withdraw(IERC20(yUSDCv2).balanceOf(address(this)));\n      }\n      if (IERC20(yUSDTv2).balanceOf(address(this)) > 0) {\n        yERC20(yUSDTv2).withdraw(IERC20(yUSDTv2).balanceOf(address(this)));\n      }\n      if (IERC20(yTUSDv2).balanceOf(address(this)) > 0) {\n        yERC20(yTUSDv2).withdraw(IERC20(yTUSDv2).balanceOf(address(this)));\n      }\n\n      uint256 _dai = IERC20(DAI).balanceOf(address(this));\n      uint256 _usdc = IERC20(USDC).balanceOf(address(this));\n      uint256 _usdt = IERC20(USDT).balanceOf(address(this));\n      uint256 _tusd = IERC20(TUSD).balanceOf(address(this));\n\n      require(_dai > 0 || _usdc > 0 || _usdt > 0 || _tusd > 0, \"no underlying found\");\n\n      if (_dai > 0) {\n        yERC20(yDAIv3).deposit(_dai);\n        require(IERC20(DAI).balanceOf(address(this)) == 0, \"dai remainder\");\n      }\n\n      if (_usdc > 0) {\n        yERC20(yUSDCv3).deposit(_usdc);\n        require(IERC20(USDC).balanceOf(address(this)) == 0, \"usdc remainder\");\n      }\n\n      if (_usdt > 0) {\n        yERC20(yUSDTv3).deposit(_usdt);\n        require(IERC20(USDT).balanceOf(address(this)) == 0, \"usdc remainder\");\n      }\n\n\n      ICurveFiv4(SWAPv4).add_liquidity([\n        IERC20(yDAIv3).balanceOf(address(this)),\n        IERC20(yUSDCv3).balanceOf(address(this)),\n        IERC20(yUSDTv3).balanceOf(address(this)),\n        0],0);\n\n      require(IERC20(yDAIv3).balanceOf(address(this)) == 0, \"yDAI remainder\");\n      require(IERC20(yUSDCv3).balanceOf(address(this)) == 0, \"yUSDC remainder\");\n      require(IERC20(yUSDTv3).balanceOf(address(this)) == 0, \"yUSDT remainder\");\n\n      IERC20(TUSD).safeTransfer(msg.sender, IERC20(TUSD).balanceOf(address(this)));\n      require(IERC20(TUSD).balanceOf(address(this)) == 0, \"TUSD remainder\");\n\n      uint256 received = IERC20(CURVEv4).balanceOf(address(this));\n      uint256 deposit = _dai.add((_usdc.mul(1e12))).add((_usdt.mul(1e12)));\n      uint256 fivePercent = deposit.mul(5).div(100);\n      uint256 min = deposit.sub(fivePercent);\n      uint256 max = deposit.add(fivePercent);\n      require(received <= max && received >= min, \"slippage greater than 5%\");\n\n      IERC20(CURVEv4).safeTransfer(msg.sender, IERC20(CURVEv4).balanceOf(address(this)));\n      require(IERC20(CURVEv4).balanceOf(address(this)) == 0, \"CURVEv3 remainder\");\n  }\n\n  // incase of half-way error\n  function inCaseTokenGetsStuck(IERC20 _TokenAddress) onlyOwner public {\n      uint qty = _TokenAddress.balanceOf(address(this));\n      _TokenAddress.safeTransfer(msg.sender, qty);\n  }\n\n  // incase of half-way error\n  function inCaseETHGetsStuck() onlyOwner public{\n      (bool result, ) = msg.sender.call.value(address(this).balance)(\"\");\n      require(result, \"transfer of ETH failed\");\n  }\n}\n",
  "sourcePath": "D:/ftm/itoken/contracts/yCurveZapSwapV4.sol",
  "compiler": {
    "name": "solc",
    "version": "0.5.12+commit.7709ece9.Emscripten.clang"
  },
  "schemaVersion": "3.0.19",
  "updatedAt": "2020-03-02T12:38:48.833Z",
  "devdoc": {
    "methods": {}
  },
  "userdoc": {
    "methods": {}
  }
}