{
  "contractName": "yCurveZapOut",
  "abi": [
    {
      "inputs": [],
      "payable": false,
      "stateMutability": "nonpayable",
      "type": "constructor"
    },
    {
      "anonymous": false,
      "inputs": [
        {
          "indexed": true,
          "internalType": "address",
          "name": "previousOwner",
          "type": "address"
        },
        {
          "indexed": true,
          "internalType": "address",
          "name": "newOwner",
          "type": "address"
        }
      ],
      "name": "OwnershipTransferred",
      "type": "event"
    },
    {
      "payable": true,
      "stateMutability": "payable",
      "type": "fallback"
    },
    {
      "constant": true,
      "inputs": [],
      "name": "CURVE",
      "outputs": [
        {
          "internalType": "address",
          "name": "",
          "type": "address"
        }
      ],
      "payable": false,
      "stateMutability": "view",
      "type": "function"
    },
    {
      "constant": true,
      "inputs": [],
      "name": "DAI",
      "outputs": [
        {
          "internalType": "address",
          "name": "",
          "type": "address"
        }
      ],
      "payable": false,
      "stateMutability": "view",
      "type": "function"
    },
    {
      "constant": true,
      "inputs": [],
      "name": "SWAP",
      "outputs": [
        {
          "internalType": "address",
          "name": "",
          "type": "address"
        }
      ],
      "payable": false,
      "stateMutability": "view",
      "type": "function"
    },
    {
      "constant": true,
      "inputs": [],
      "name": "TUSD",
      "outputs": [
        {
          "internalType": "address",
          "name": "",
          "type": "address"
        }
      ],
      "payable": false,
      "stateMutability": "view",
      "type": "function"
    },
    {
      "constant": true,
      "inputs": [],
      "name": "USDC",
      "outputs": [
        {
          "internalType": "address",
          "name": "",
          "type": "address"
        }
      ],
      "payable": false,
      "stateMutability": "view",
      "type": "function"
    },
    {
      "constant": true,
      "inputs": [],
      "name": "USDT",
      "outputs": [
        {
          "internalType": "address",
          "name": "",
          "type": "address"
        }
      ],
      "payable": false,
      "stateMutability": "view",
      "type": "function"
    },
    {
      "constant": true,
      "inputs": [],
      "name": "isOwner",
      "outputs": [
        {
          "internalType": "bool",
          "name": "",
          "type": "bool"
        }
      ],
      "payable": false,
      "stateMutability": "view",
      "type": "function"
    },
    {
      "constant": true,
      "inputs": [],
      "name": "owner",
      "outputs": [
        {
          "internalType": "address",
          "name": "",
          "type": "address"
        }
      ],
      "payable": false,
      "stateMutability": "view",
      "type": "function"
    },
    {
      "constant": false,
      "inputs": [],
      "name": "renounceOwnership",
      "outputs": [],
      "payable": false,
      "stateMutability": "nonpayable",
      "type": "function"
    },
    {
      "constant": false,
      "inputs": [
        {
          "internalType": "address",
          "name": "newOwner",
          "type": "address"
        }
      ],
      "name": "transferOwnership",
      "outputs": [],
      "payable": false,
      "stateMutability": "nonpayable",
      "type": "function"
    },
    {
      "constant": true,
      "inputs": [],
      "name": "yDAI",
      "outputs": [
        {
          "internalType": "address",
          "name": "",
          "type": "address"
        }
      ],
      "payable": false,
      "stateMutability": "view",
      "type": "function"
    },
    {
      "constant": true,
      "inputs": [],
      "name": "yTUSD",
      "outputs": [
        {
          "internalType": "address",
          "name": "",
          "type": "address"
        }
      ],
      "payable": false,
      "stateMutability": "view",
      "type": "function"
    },
    {
      "constant": true,
      "inputs": [],
      "name": "yUSDC",
      "outputs": [
        {
          "internalType": "address",
          "name": "",
          "type": "address"
        }
      ],
      "payable": false,
      "stateMutability": "view",
      "type": "function"
    },
    {
      "constant": true,
      "inputs": [],
      "name": "yUSDT",
      "outputs": [
        {
          "internalType": "address",
          "name": "",
          "type": "address"
        }
      ],
      "payable": false,
      "stateMutability": "view",
      "type": "function"
    },
    {
      "constant": false,
      "inputs": [],
      "name": "approveToken",
      "outputs": [],
      "payable": false,
      "stateMutability": "nonpayable",
      "type": "function"
    },
    {
      "constant": true,
      "inputs": [
        {
          "internalType": "uint256",
          "name": "_amount",
          "type": "uint256"
        },
        {
          "internalType": "address",
          "name": "_token",
          "type": "address"
        },
        {
          "internalType": "uint256",
          "name": "_dec",
          "type": "uint256"
        }
      ],
      "name": "checkSlippage",
      "outputs": [
        {
          "internalType": "bool",
          "name": "",
          "type": "bool"
        }
      ],
      "payable": false,
      "stateMutability": "view",
      "type": "function"
    },
    {
      "constant": false,
      "inputs": [
        {
          "internalType": "uint256",
          "name": "_amount",
          "type": "uint256"
        }
      ],
      "name": "withdrawCurve",
      "outputs": [],
      "payable": false,
      "stateMutability": "nonpayable",
      "type": "function"
    },
    {
      "constant": false,
      "inputs": [
        {
          "internalType": "uint256",
          "name": "_amount",
          "type": "uint256"
        }
      ],
      "name": "withdrawDAI",
      "outputs": [],
      "payable": false,
      "stateMutability": "nonpayable",
      "type": "function"
    },
    {
      "constant": false,
      "inputs": [
        {
          "internalType": "uint256",
          "name": "_amount",
          "type": "uint256"
        }
      ],
      "name": "withdrawUSDC",
      "outputs": [],
      "payable": false,
      "stateMutability": "nonpayable",
      "type": "function"
    },
    {
      "constant": false,
      "inputs": [
        {
          "internalType": "uint256",
          "name": "_amount",
          "type": "uint256"
        }
      ],
      "name": "withdrawUSDT",
      "outputs": [],
      "payable": false,
      "stateMutability": "nonpayable",
      "type": "function"
    },
    {
      "constant": false,
      "inputs": [
        {
          "internalType": "uint256",
          "name": "_amount",
          "type": "uint256"
        }
      ],
      "name": "withdrawTUSD",
      "outputs": [],
      "payable": false,
      "stateMutability": "nonpayable",
      "type": "function"
    },
    {
      "constant": false,
      "inputs": [
        {
          "internalType": "contract IERC20",
          "name": "_TokenAddress",
          "type": "address"
        }
      ],
      "name": "inCaseTokenGetsStuck",
      "outputs": [],
      "payable": false,
      "stateMutability": "nonpayable",
      "type": "function"
    },
    {
      "constant": false,
      "inputs": [],
      "name": "inCaseETHGetsStuck",
      "outputs": [],
      "payable": false,
      "stateMutability": "nonpayable",
      "type": "function"
    }
  ],
  "bytecode": "0x60806040523480156200001157600080fd5b5060016000819055506200002a6200044a60201b60201c565b600160006101000a81548173ffffffffffffffffffffffffffffffffffffffff021916908373ffffffffffffffffffffffffffffffffffffffff160217905550600160009054906101000a900473ffffffffffffffffffffffffffffffffffffffff1673ffffffffffffffffffffffffffffffffffffffff16600073ffffffffffffffffffffffffffffffffffffffff167f8be0079c531659141344cd1fd0a4f28419497f9722a3daafe3b4186f6b6457e060405160405180910390a3736b175474e89094c44da98b954eedeac495271d0f600260006101000a81548173ffffffffffffffffffffffffffffffffffffffff021916908373ffffffffffffffffffffffffffffffffffffffff1602179055507316de59092dae5ccf4a1e6439d611fd0653f0bd01600360006101000a81548173ffffffffffffffffffffffffffffffffffffffff021916908373ffffffffffffffffffffffffffffffffffffffff16021790555073a0b86991c6218b36c1d19d4a2e9eb0ce3606eb48600460006101000a81548173ffffffffffffffffffffffffffffffffffffffff021916908373ffffffffffffffffffffffffffffffffffffffff16021790555073d6ad7a6750a7593e092a9b218d66c0a814a3436e600560006101000a81548173ffffffffffffffffffffffffffffffffffffffff021916908373ffffffffffffffffffffffffffffffffffffffff16021790555073dac17f958d2ee523a2206206994597c13d831ec7600660006101000a81548173ffffffffffffffffffffffffffffffffffffffff021916908373ffffffffffffffffffffffffffffffffffffffff1602179055507383f798e925bcd4017eb265844fddabb448f1707d600760006101000a81548173ffffffffffffffffffffffffffffffffffffffff021916908373ffffffffffffffffffffffffffffffffffffffff1602179055506e085d4780b73119b644ae5ecd22b376600860006101000a81548173ffffffffffffffffffffffffffffffffffffffff021916908373ffffffffffffffffffffffffffffffffffffffff1602179055507373a052500105205d34daf004eab301916da8190f600960006101000a81548173ffffffffffffffffffffffffffffffffffffffff021916908373ffffffffffffffffffffffffffffffffffffffff1602179055507345f783cce6b7ff23b2ab2d70e416cdb7d6055f51600a60006101000a81548173ffffffffffffffffffffffffffffffffffffffff021916908373ffffffffffffffffffffffffffffffffffffffff16021790555073df5e0e81dff6faf3a7e52ba697820c5e32d806a8600b60006101000a81548173ffffffffffffffffffffffffffffffffffffffff021916908373ffffffffffffffffffffffffffffffffffffffff160217905550620004446200045260201b60201c565b62000e1b565b600033905090565b620004e8600a60009054906101000a900473ffffffffffffffffffffffffffffffffffffffff167fffffffffffffffffffffffffffffffffffffffffffffffffffffffffffffffff600360009054906101000a900473ffffffffffffffffffffffffffffffffffffffff1673ffffffffffffffffffffffffffffffffffffffff16620006ac60201b62004519179092919060201c565b6200057e600a60009054906101000a900473ffffffffffffffffffffffffffffffffffffffff167fffffffffffffffffffffffffffffffffffffffffffffffffffffffffffffffff600560009054906101000a900473ffffffffffffffffffffffffffffffffffffffff1673ffffffffffffffffffffffffffffffffffffffff16620006ac60201b62004519179092919060201c565b62000614600a60009054906101000a900473ffffffffffffffffffffffffffffffffffffffff167fffffffffffffffffffffffffffffffffffffffffffffffffffffffffffffffff600760009054906101000a900473ffffffffffffffffffffffffffffffffffffffff1673ffffffffffffffffffffffffffffffffffffffff16620006ac60201b62004519179092919060201c565b620006aa600a60009054906101000a900473ffffffffffffffffffffffffffffffffffffffff167fffffffffffffffffffffffffffffffffffffffffffffffffffffffffffffffff600960009054906101000a900473ffffffffffffffffffffffffffffffffffffffff1673ffffffffffffffffffffffffffffffffffffffff16620006ac60201b62004519179092919060201c565b565b60008114806200074c575060008373ffffffffffffffffffffffffffffffffffffffff1663dd62ed3e30856040518363ffffffff1660e01b8152600401620006f692919062000c5e565b60206040518083038186803b1580156200070f57600080fd5b505afa15801562000724573d6000803e3d6000fd5b505050506040513d601f19601f820116820180604052506200074a919081019062000a6c565b145b6200078e576040517f08c379a0000000000000000000000000000000000000000000000000000000008152600401620007859062000cfc565b60405180910390fd5b62000832838473ffffffffffffffffffffffffffffffffffffffff1663095ea7b3905060e01b8484604051602401620007c992919062000c8b565b604051602081830303815290604052907bffffffffffffffffffffffffffffffffffffffffffffffffffffffff19166020820180517bffffffffffffffffffffffffffffffffffffffffffffffffffffffff83818316178352505050506200083760201b60201c565b505050565b620008638273ffffffffffffffffffffffffffffffffffffffff16620009c660201b620049ee1760201c565b620008a5576040517f08c379a00000000000000000000000000000000000000000000000000000000081526004016200089c9062000d1e565b60405180910390fd5b600060608373ffffffffffffffffffffffffffffffffffffffff1683604051620008d0919062000c45565b6000604051808303816000865af19150503d80600081146200090f576040519150601f19603f3d011682016040523d82523d6000602084013e62000914565b606091505b5091509150816200095c576040517f08c379a0000000000000000000000000000000000000000000000000000000008152600401620009539062000cb8565b60405180910390fd5b600081511115620009c057808060200190516200097d919081019062000a40565b620009bf576040517f08c379a0000000000000000000000000000000000000000000000000000000008152600401620009b69062000cda565b60405180910390fd5b5b50505050565b60008060007fc5d2460186f7233c927e7db2dcc703c0e500b653ca82273b7bfad8045d85a47060001b9050833f91506000801b821415801562000a095750808214155b92505050919050565b60008151905062000a238162000de7565b92915050565b60008151905062000a3a8162000e01565b92915050565b60006020828403121562000a5357600080fd5b600062000a638482850162000a12565b91505092915050565b60006020828403121562000a7f57600080fd5b600062000a8f8482850162000a29565b91505092915050565b62000aa38162000d67565b82525050565b600062000ab68262000d40565b62000ac2818562000d4b565b935062000ad481856020860162000db1565b80840191505092915050565b600062000aef60208362000d56565b91507f5361666545524332303a206c6f772d6c6576656c2063616c6c206661696c65646000830152602082019050919050565b600062000b31602a8362000d56565b91507f5361666545524332303a204552433230206f7065726174696f6e20646964206e60008301527f6f742073756363656564000000000000000000000000000000000000000000006020830152604082019050919050565b600062000b9960368362000d56565b91507f5361666545524332303a20617070726f76652066726f6d206e6f6e2d7a65726f60008301527f20746f206e6f6e2d7a65726f20616c6c6f77616e6365000000000000000000006020830152604082019050919050565b600062000c01601f8362000d56565b91507f5361666545524332303a2063616c6c20746f206e6f6e2d636f6e7472616374006000830152602082019050919050565b62000c3f8162000da7565b82525050565b600062000c53828462000aa9565b915081905092915050565b600060408201905062000c75600083018562000a98565b62000c84602083018462000a98565b9392505050565b600060408201905062000ca2600083018562000a98565b62000cb1602083018462000c34565b9392505050565b6000602082019050818103600083015262000cd38162000ae0565b9050919050565b6000602082019050818103600083015262000cf58162000b22565b9050919050565b6000602082019050818103600083015262000d178162000b8a565b9050919050565b6000602082019050818103600083015262000d398162000bf2565b9050919050565b600081519050919050565b600081905092915050565b600082825260208201905092915050565b600062000d748262000d87565b9050919050565b60008115159050919050565b600073ffffffffffffffffffffffffffffffffffffffff82169050919050565b6000819050919050565b60005b8381101562000dd157808201518184015260208101905062000db4565b8381111562000de1576000848401525b50505050565b62000df28162000d7b565b811462000dfe57600080fd5b50565b62000e0c8162000da7565b811462000e1857600080fd5b50565b615d008062000e2b6000396000f3fe6080604052600436106101405760003560e01c80638323550b116100b6578063c54e44eb1161006f578063c54e44eb146103fd578063db81f99b14610428578063e0bab4c414610451578063e31ff1be1461047c578063f2fde38b146104a7578063f60a15ed146104d057610140565b80638323550b1461031157806389a302711461033c5780638da5cb5b146103675780638f32d59b1461039257806399b71d5c146103bd5780639add7438146103d457610140565b80632e8d6e18116101085780632e8d6e18146102295780633a3c3b87146102525780633ea521ef1461027d5780635c531d6a146102a6578063715018a6146102cf578063756bb1cc146102e657610140565b8063041401c81461014257806304d841081461016b57806317e5a9a41461019657806319d9e008146101c15780631ddf8cd8146101ec575b005b34801561014e57600080fd5b5061016960048036036101649190810190614b1d565b6104e7565b005b34801561017757600080fd5b506101806107c6565b60405161018d919061538b565b60405180910390f35b3480156101a257600080fd5b506101ab6107ec565b6040516101b8919061538b565b60405180910390f35b3480156101cd57600080fd5b506101d6610812565b6040516101e3919061538b565b60405180910390f35b3480156101f857600080fd5b50610213600480360361020e9190810190614b6f565b610838565b604051610220919061544a565b60405180910390f35b34801561023557600080fd5b50610250600480360361024b9190810190614af4565b61098f565b005b34801561025e57600080fd5b50610267610a92565b604051610274919061538b565b60405180910390f35b34801561028957600080fd5b506102a4600480360361029f9190810190614b1d565b610ab8565b005b3480156102b257600080fd5b506102cd60048036036102c89190810190614b1d565b611725565b005b3480156102db57600080fd5b506102e461238e565b005b3480156102f257600080fd5b506102fb612496565b604051610308919061538b565b60405180910390f35b34801561031d57600080fd5b506103266124bc565b604051610333919061538b565b60405180910390f35b34801561034857600080fd5b506103516124e2565b60405161035e919061538b565b60405180910390f35b34801561037357600080fd5b5061037c612508565b604051610389919061538b565b60405180910390f35b34801561039e57600080fd5b506103a7612532565b6040516103b4919061544a565b60405180910390f35b3480156103c957600080fd5b506103d2612591565b005b3480156103e057600080fd5b506103fb60048036036103f69190810190614b1d565b6127cf565b005b34801561040957600080fd5b50610412613438565b60405161041f919061538b565b60405180910390f35b34801561043457600080fd5b5061044f600480360361044a9190810190614b1d565b61345e565b005b34801561045d57600080fd5b506104666140cb565b604051610473919061538b565b60405180910390f35b34801561048857600080fd5b506104916140f1565b60405161049e919061538b565b60405180910390f35b3480156104b357600080fd5b506104ce60048036036104c99190810190614aa2565b614117565b005b3480156104dc57600080fd5b506104e561416a565b005b6000811161052a576040517f08c379a0000000000000000000000000000000000000000000000000000000008152600401610521906159a3565b60405180910390fd5b610579333083600b60009054906101000a900473ffffffffffffffffffffffffffffffffffffffff1673ffffffffffffffffffffffffffffffffffffffff16614277909392919063ffffffff16565b600a60009054906101000a900473ffffffffffffffffffffffffffffffffffffffff1673ffffffffffffffffffffffffffffffffffffffff16637d49d875600b60009054906101000a900473ffffffffffffffffffffffffffffffffffffffff1673ffffffffffffffffffffffffffffffffffffffff166370a08231306040518263ffffffff1660e01b815260040161061291906153a6565b60206040518083038186803b15801561062a57600080fd5b505afa15801561063e573d6000803e3d6000fd5b505050506040513d601f19601f820116820180604052506106629190810190614b46565b604051806080016040528060008152602001600081526020016000815260200160008152506040518363ffffffff1660e01b81526004016106a4929190615a9e565b600060405180830381600087803b1580156106be57600080fd5b505af11580156106d2573d6000803e3d6000fd5b505050506000600b60009054906101000a900473ffffffffffffffffffffffffffffffffffffffff1673ffffffffffffffffffffffffffffffffffffffff166370a08231306040518263ffffffff1660e01b815260040161073391906153a6565b60206040518083038186803b15801561074b57600080fd5b505afa15801561075f573d6000803e3d6000fd5b505050506040513d601f19601f820116820180604052506107839190810190614b46565b146107c3576040517f08c379a00000000000000000000000000000000000000000000000000000000081526004016107ba90615903565b60405180910390fd5b50565b600a60009054906101000a900473ffffffffffffffffffffffffffffffffffffffff1681565b600760009054906101000a900473ffffffffffffffffffffffffffffffffffffffff1681565b600560009054906101000a900473ffffffffffffffffffffffffffffffffffffffff1681565b6000806108d6838573ffffffffffffffffffffffffffffffffffffffff166370a08231306040518263ffffffff1660e01b815260040161087891906153a6565b60206040518083038186803b15801561089057600080fd5b505afa1580156108a4573d6000803e3d6000fd5b505050506040513d601f19601f820116820180604052506108c89190810190614b46565b61431990919063ffffffff16565b9050600061090160646108f360058961431990919063ffffffff16565b61438990919063ffffffff16565b9050600061091882886143d390919063ffffffff16565b9050600061092f838961441d90919063ffffffff16565b90508084111580156109415750818410155b610980576040517f08c379a0000000000000000000000000000000000000000000000000000000008152600401610977906159c3565b60405180910390fd5b60019450505050509392505050565b610997612532565b6109d6576040517f08c379a00000000000000000000000000000000000000000000000000000000081526004016109cd90615963565b60405180910390fd5b60008173ffffffffffffffffffffffffffffffffffffffff166370a08231306040518263ffffffff1660e01b8152600401610a1191906153a6565b60206040518083038186803b158015610a2957600080fd5b505afa158015610a3d573d6000803e3d6000fd5b505050506040513d601f19601f82011682018060405250610a619190810190614b46565b9050610a8e33828473ffffffffffffffffffffffffffffffffffffffff166144729092919063ffffffff16565b5050565b600b60009054906101000a900473ffffffffffffffffffffffffffffffffffffffff1681565b60016000808282540192505081905550600080549050610ad7826104e7565b6000600360009054906101000a900473ffffffffffffffffffffffffffffffffffffffff1673ffffffffffffffffffffffffffffffffffffffff166370a08231306040518263ffffffff1660e01b8152600401610b3491906153a6565b60206040518083038186803b158015610b4c57600080fd5b505afa158015610b60573d6000803e3d6000fd5b505050506040513d601f19601f82011682018060405250610b849190810190614b46565b90506000600560009054906101000a900473ffffffffffffffffffffffffffffffffffffffff1673ffffffffffffffffffffffffffffffffffffffff166370a08231306040518263ffffffff1660e01b8152600401610be391906153a6565b60206040518083038186803b158015610bfb57600080fd5b505afa158015610c0f573d6000803e3d6000fd5b505050506040513d601f19601f82011682018060405250610c339190810190614b46565b90506000600760009054906101000a900473ffffffffffffffffffffffffffffffffffffffff1673ffffffffffffffffffffffffffffffffffffffff166370a08231306040518263ffffffff1660e01b8152600401610c9291906153a6565b60206040518083038186803b158015610caa57600080fd5b505afa158015610cbe573d6000803e3d6000fd5b505050506040513d601f19601f82011682018060405250610ce29190810190614b46565b90506000600960009054906101000a900473ffffffffffffffffffffffffffffffffffffffff1673ffffffffffffffffffffffffffffffffffffffff166370a08231306040518263ffffffff1660e01b8152600401610d4191906153a6565b60206040518083038186803b158015610d5957600080fd5b505afa158015610d6d573d6000803e3d6000fd5b505050506040513d601f19601f82011682018060405250610d919190810190614b46565b90506000841180610da25750600083115b80610dad5750600082115b80610db85750600081115b610df7576040517f08c379a0000000000000000000000000000000000000000000000000000000008152600401610dee906157e3565b60405180910390fd5b6000841115610f8457600a60009054906101000a900473ffffffffffffffffffffffffffffffffffffffff1673ffffffffffffffffffffffffffffffffffffffff16633df02124600060028760006040518563ffffffff1660e01b8152600401610e6494939291906154aa565b600060405180830381600087803b158015610e7e57600080fd5b505af1158015610e92573d6000803e3d6000fd5b505050506000600360009054906101000a900473ffffffffffffffffffffffffffffffffffffffff1673ffffffffffffffffffffffffffffffffffffffff166370a08231306040518263ffffffff1660e01b8152600401610ef391906153a6565b60206040518083038186803b158015610f0b57600080fd5b505afa158015610f1f573d6000803e3d6000fd5b505050506040513d601f19601f82011682018060405250610f439190810190614b46565b14610f83576040517f08c379a0000000000000000000000000000000000000000000000000000000008152600401610f7a90615a23565b60405180910390fd5b5b600083111561111157600a60009054906101000a900473ffffffffffffffffffffffffffffffffffffffff1673ffffffffffffffffffffffffffffffffffffffff16633df02124600160028660006040518563ffffffff1660e01b8152600401610ff19493929190615579565b600060405180830381600087803b15801561100b57600080fd5b505af115801561101f573d6000803e3d6000fd5b505050506000600560009054906101000a900473ffffffffffffffffffffffffffffffffffffffff1673ffffffffffffffffffffffffffffffffffffffff166370a08231306040518263ffffffff1660e01b815260040161108091906153a6565b60206040518083038186803b15801561109857600080fd5b505afa1580156110ac573d6000803e3d6000fd5b505050506040513d601f19601f820116820180604052506110d09190810190614b46565b14611110576040517f08c379a0000000000000000000000000000000000000000000000000000000008152600401611107906158a3565b60405180910390fd5b5b600081111561129e57600a60009054906101000a900473ffffffffffffffffffffffffffffffffffffffff1673ffffffffffffffffffffffffffffffffffffffff16633df02124600360028460006040518563ffffffff1660e01b815260040161117e949392919061575c565b600060405180830381600087803b15801561119857600080fd5b505af11580156111ac573d6000803e3d6000fd5b505050506000600960009054906101000a900473ffffffffffffffffffffffffffffffffffffffff1673ffffffffffffffffffffffffffffffffffffffff166370a08231306040518263ffffffff1660e01b815260040161120d91906153a6565b60206040518083038186803b15801561122557600080fd5b505afa158015611239573d6000803e3d6000fd5b505050506040513d601f19601f8201168201806040525061125d9190810190614b46565b1461129d576040517f08c379a0000000000000000000000000000000000000000000000000000000008152600401611294906158c3565b60405180910390fd5b5b600760009054906101000a900473ffffffffffffffffffffffffffffffffffffffff1673ffffffffffffffffffffffffffffffffffffffff16632e1a7d4d600760009054906101000a900473ffffffffffffffffffffffffffffffffffffffff1673ffffffffffffffffffffffffffffffffffffffff166370a08231306040518263ffffffff1660e01b815260040161133791906153a6565b60206040518083038186803b15801561134f57600080fd5b505afa158015611363573d6000803e3d6000fd5b505050506040513d601f19601f820116820180604052506113879190810190614b46565b6040518263ffffffff1660e01b81526004016113a39190615a83565b600060405180830381600087803b1580156113bd57600080fd5b505af11580156113d1573d6000803e3d6000fd5b505050506000600760009054906101000a900473ffffffffffffffffffffffffffffffffffffffff1673ffffffffffffffffffffffffffffffffffffffff166370a08231306040518263ffffffff1660e01b815260040161143291906153a6565b60206040518083038186803b15801561144a57600080fd5b505afa15801561145e573d6000803e3d6000fd5b505050506040513d601f19601f820116820180604052506114829190810190614b46565b146114c2576040517f08c379a00000000000000000000000000000000000000000000000000000000081526004016114b990615883565b60405180910390fd5b6114f486600660009054906101000a900473ffffffffffffffffffffffffffffffffffffffff1664e8d4a51000610838565b506115ec33600660009054906101000a900473ffffffffffffffffffffffffffffffffffffffff1673ffffffffffffffffffffffffffffffffffffffff166370a08231306040518263ffffffff1660e01b815260040161155491906153a6565b60206040518083038186803b15801561156c57600080fd5b505afa158015611580573d6000803e3d6000fd5b505050506040513d601f19601f820116820180604052506115a49190810190614b46565b600660009054906101000a900473ffffffffffffffffffffffffffffffffffffffff1673ffffffffffffffffffffffffffffffffffffffff166144729092919063ffffffff16565b6000600660009054906101000a900473ffffffffffffffffffffffffffffffffffffffff1673ffffffffffffffffffffffffffffffffffffffff166370a08231306040518263ffffffff1660e01b815260040161164991906153a6565b60206040518083038186803b15801561166157600080fd5b505afa158015611675573d6000803e3d6000fd5b505050506040513d601f19601f820116820180604052506116999190810190614b46565b146116d9576040517f08c379a00000000000000000000000000000000000000000000000000000000081526004016116d090615823565b60405180910390fd5b505050506000548114611721576040517f08c379a000000000000000000000000000000000000000000000000000000000815260040161171890615a03565b60405180910390fd5b5050565b60016000808282540192505081905550600080549050611744826104e7565b6000600360009054906101000a900473ffffffffffffffffffffffffffffffffffffffff1673ffffffffffffffffffffffffffffffffffffffff166370a08231306040518263ffffffff1660e01b81526004016117a191906153a6565b60206040518083038186803b1580156117b957600080fd5b505afa1580156117cd573d6000803e3d6000fd5b505050506040513d601f19601f820116820180604052506117f19190810190614b46565b90506000600560009054906101000a900473ffffffffffffffffffffffffffffffffffffffff1673ffffffffffffffffffffffffffffffffffffffff166370a08231306040518263ffffffff1660e01b815260040161185091906153a6565b60206040518083038186803b15801561186857600080fd5b505afa15801561187c573d6000803e3d6000fd5b505050506040513d601f19601f820116820180604052506118a09190810190614b46565b90506000600760009054906101000a900473ffffffffffffffffffffffffffffffffffffffff1673ffffffffffffffffffffffffffffffffffffffff166370a08231306040518263ffffffff1660e01b81526004016118ff91906153a6565b60206040518083038186803b15801561191757600080fd5b505afa15801561192b573d6000803e3d6000fd5b505050506040513d601f19601f8201168201806040525061194f9190810190614b46565b90506000600960009054906101000a900473ffffffffffffffffffffffffffffffffffffffff1673ffffffffffffffffffffffffffffffffffffffff166370a08231306040518263ffffffff1660e01b81526004016119ae91906153a6565b60206040518083038186803b1580156119c657600080fd5b505afa1580156119da573d6000803e3d6000fd5b505050506040513d601f19601f820116820180604052506119fe9190810190614b46565b90506000841180611a0f5750600083115b80611a1a5750600082115b80611a255750600081115b611a64576040517f08c379a0000000000000000000000000000000000000000000000000000000008152600401611a5b906157e3565b60405180910390fd5b6000841115611bf157600a60009054906101000a900473ffffffffffffffffffffffffffffffffffffffff1673ffffffffffffffffffffffffffffffffffffffff16633df02124600060038760006040518563ffffffff1660e01b8152600401611ad194939291906154ef565b600060405180830381600087803b158015611aeb57600080fd5b505af1158015611aff573d6000803e3d6000fd5b505050506000600360009054906101000a900473ffffffffffffffffffffffffffffffffffffffff1673ffffffffffffffffffffffffffffffffffffffff166370a08231306040518263ffffffff1660e01b8152600401611b6091906153a6565b60206040518083038186803b158015611b7857600080fd5b505afa158015611b8c573d6000803e3d6000fd5b505050506040513d601f19601f82011682018060405250611bb09190810190614b46565b14611bf0576040517f08c379a0000000000000000000000000000000000000000000000000000000008152600401611be790615a23565b60405180910390fd5b5b6000831115611d7e57600a60009054906101000a900473ffffffffffffffffffffffffffffffffffffffff1673ffffffffffffffffffffffffffffffffffffffff16633df02124600160038660006040518563ffffffff1660e01b8152600401611c5e94939291906155be565b600060405180830381600087803b158015611c7857600080fd5b505af1158015611c8c573d6000803e3d6000fd5b505050506000600560009054906101000a900473ffffffffffffffffffffffffffffffffffffffff1673ffffffffffffffffffffffffffffffffffffffff166370a08231306040518263ffffffff1660e01b8152600401611ced91906153a6565b60206040518083038186803b158015611d0557600080fd5b505afa158015611d19573d6000803e3d6000fd5b505050506040513d601f19601f82011682018060405250611d3d9190810190614b46565b14611d7d576040517f08c379a0000000000000000000000000000000000000000000000000000000008152600401611d74906158a3565b60405180910390fd5b5b6000821115611f0b57600a60009054906101000a900473ffffffffffffffffffffffffffffffffffffffff1673ffffffffffffffffffffffffffffffffffffffff16633df02124600260038560006040518563ffffffff1660e01b8152600401611deb949392919061568d565b600060405180830381600087803b158015611e0557600080fd5b505af1158015611e19573d6000803e3d6000fd5b505050506000600760009054906101000a900473ffffffffffffffffffffffffffffffffffffffff1673ffffffffffffffffffffffffffffffffffffffff166370a08231306040518263ffffffff1660e01b8152600401611e7a91906153a6565b60206040518083038186803b158015611e9257600080fd5b505afa158015611ea6573d6000803e3d6000fd5b505050506040513d601f19601f82011682018060405250611eca9190810190614b46565b14611f0a576040517f08c379a0000000000000000000000000000000000000000000000000000000008152600401611f0190615883565b60405180910390fd5b5b600960009054906101000a900473ffffffffffffffffffffffffffffffffffffffff1673ffffffffffffffffffffffffffffffffffffffff16632e1a7d4d600960009054906101000a900473ffffffffffffffffffffffffffffffffffffffff1673ffffffffffffffffffffffffffffffffffffffff166370a08231306040518263ffffffff1660e01b8152600401611fa491906153a6565b60206040518083038186803b158015611fbc57600080fd5b505afa158015611fd0573d6000803e3d6000fd5b505050506040513d601f19601f82011682018060405250611ff49190810190614b46565b6040518263ffffffff1660e01b81526004016120109190615a83565b600060405180830381600087803b15801561202a57600080fd5b505af115801561203e573d6000803e3d6000fd5b505050506000600960009054906101000a900473ffffffffffffffffffffffffffffffffffffffff1673ffffffffffffffffffffffffffffffffffffffff166370a08231306040518263ffffffff1660e01b815260040161209f91906153a6565b60206040518083038186803b1580156120b757600080fd5b505afa1580156120cb573d6000803e3d6000fd5b505050506040513d601f19601f820116820180604052506120ef9190810190614b46565b1461212f576040517f08c379a0000000000000000000000000000000000000000000000000000000008152600401612126906158c3565b60405180910390fd5b61215d86600860009054906101000a900473ffffffffffffffffffffffffffffffffffffffff166001610838565b5061225533600860009054906101000a900473ffffffffffffffffffffffffffffffffffffffff1673ffffffffffffffffffffffffffffffffffffffff166370a08231306040518263ffffffff1660e01b81526004016121bd91906153a6565b60206040518083038186803b1580156121d557600080fd5b505afa1580156121e9573d6000803e3d6000fd5b505050506040513d601f19601f8201168201806040525061220d9190810190614b46565b600860009054906101000a900473ffffffffffffffffffffffffffffffffffffffff1673ffffffffffffffffffffffffffffffffffffffff166144729092919063ffffffff16565b6000600860009054906101000a900473ffffffffffffffffffffffffffffffffffffffff1673ffffffffffffffffffffffffffffffffffffffff166370a08231306040518263ffffffff1660e01b81526004016122b291906153a6565b60206040518083038186803b1580156122ca57600080fd5b505afa1580156122de573d6000803e3d6000fd5b505050506040513d601f19601f820116820180604052506123029190810190614b46565b14612342576040517f08c379a000000000000000000000000000000000000000000000000000000000815260040161233990615923565b60405180910390fd5b50505050600054811461238a576040517f08c379a000000000000000000000000000000000000000000000000000000000815260040161238190615a03565b60405180910390fd5b5050565b612396612532565b6123d5576040517f08c379a00000000000000000000000000000000000000000000000000000000081526004016123cc90615963565b60405180910390fd5b600073ffffffffffffffffffffffffffffffffffffffff16600160009054906101000a900473ffffffffffffffffffffffffffffffffffffffff1673ffffffffffffffffffffffffffffffffffffffff167f8be0079c531659141344cd1fd0a4f28419497f9722a3daafe3b4186f6b6457e060405160405180910390a36000600160006101000a81548173ffffffffffffffffffffffffffffffffffffffff021916908373ffffffffffffffffffffffffffffffffffffffff160217905550565b600360009054906101000a900473ffffffffffffffffffffffffffffffffffffffff1681565b600860009054906101000a900473ffffffffffffffffffffffffffffffffffffffff1681565b600460009054906101000a900473ffffffffffffffffffffffffffffffffffffffff1681565b6000600160009054906101000a900473ffffffffffffffffffffffffffffffffffffffff16905090565b6000600160009054906101000a900473ffffffffffffffffffffffffffffffffffffffff1673ffffffffffffffffffffffffffffffffffffffff16612575614511565b73ffffffffffffffffffffffffffffffffffffffff1614905090565b612620600a60009054906101000a900473ffffffffffffffffffffffffffffffffffffffff167fffffffffffffffffffffffffffffffffffffffffffffffffffffffffffffffff600360009054906101000a900473ffffffffffffffffffffffffffffffffffffffff1673ffffffffffffffffffffffffffffffffffffffff166145199092919063ffffffff16565b6126af600a60009054906101000a900473ffffffffffffffffffffffffffffffffffffffff167fffffffffffffffffffffffffffffffffffffffffffffffffffffffffffffffff600560009054906101000a900473ffffffffffffffffffffffffffffffffffffffff1673ffffffffffffffffffffffffffffffffffffffff166145199092919063ffffffff16565b61273e600a60009054906101000a900473ffffffffffffffffffffffffffffffffffffffff167fffffffffffffffffffffffffffffffffffffffffffffffffffffffffffffffff600760009054906101000a900473ffffffffffffffffffffffffffffffffffffffff1673ffffffffffffffffffffffffffffffffffffffff166145199092919063ffffffff16565b6127cd600a60009054906101000a900473ffffffffffffffffffffffffffffffffffffffff167fffffffffffffffffffffffffffffffffffffffffffffffffffffffffffffffff600960009054906101000a900473ffffffffffffffffffffffffffffffffffffffff1673ffffffffffffffffffffffffffffffffffffffff166145199092919063ffffffff16565b565b600160008082825401925050819055506000805490506127ee826104e7565b6000600360009054906101000a900473ffffffffffffffffffffffffffffffffffffffff1673ffffffffffffffffffffffffffffffffffffffff166370a08231306040518263ffffffff1660e01b815260040161284b91906153a6565b60206040518083038186803b15801561286357600080fd5b505afa158015612877573d6000803e3d6000fd5b505050506040513d601f19601f8201168201806040525061289b9190810190614b46565b90506000600560009054906101000a900473ffffffffffffffffffffffffffffffffffffffff1673ffffffffffffffffffffffffffffffffffffffff166370a08231306040518263ffffffff1660e01b81526004016128fa91906153a6565b60206040518083038186803b15801561291257600080fd5b505afa158015612926573d6000803e3d6000fd5b505050506040513d601f19601f8201168201806040525061294a9190810190614b46565b90506000600760009054906101000a900473ffffffffffffffffffffffffffffffffffffffff1673ffffffffffffffffffffffffffffffffffffffff166370a08231306040518263ffffffff1660e01b81526004016129a991906153a6565b60206040518083038186803b1580156129c157600080fd5b505afa1580156129d5573d6000803e3d6000fd5b505050506040513d601f19601f820116820180604052506129f99190810190614b46565b90506000600960009054906101000a900473ffffffffffffffffffffffffffffffffffffffff1673ffffffffffffffffffffffffffffffffffffffff166370a08231306040518263ffffffff1660e01b8152600401612a5891906153a6565b60206040518083038186803b158015612a7057600080fd5b505afa158015612a84573d6000803e3d6000fd5b505050506040513d601f19601f82011682018060405250612aa89190810190614b46565b90506000841180612ab95750600083115b80612ac45750600082115b80612acf5750600081115b612b0e576040517f08c379a0000000000000000000000000000000000000000000000000000000008152600401612b05906157e3565b60405180910390fd5b6000831115612c9b57600a60009054906101000a900473ffffffffffffffffffffffffffffffffffffffff1673ffffffffffffffffffffffffffffffffffffffff16633df02124600160008660006040518563ffffffff1660e01b8152600401612b7b9493929190615534565b600060405180830381600087803b158015612b9557600080fd5b505af1158015612ba9573d6000803e3d6000fd5b505050506000600560009054906101000a900473ffffffffffffffffffffffffffffffffffffffff1673ffffffffffffffffffffffffffffffffffffffff166370a08231306040518263ffffffff1660e01b8152600401612c0a91906153a6565b60206040518083038186803b158015612c2257600080fd5b505afa158015612c36573d6000803e3d6000fd5b505050506040513d601f19601f82011682018060405250612c5a9190810190614b46565b14612c9a576040517f08c379a0000000000000000000000000000000000000000000000000000000008152600401612c91906158a3565b60405180910390fd5b5b6000821115612e2857600a60009054906101000a900473ffffffffffffffffffffffffffffffffffffffff1673ffffffffffffffffffffffffffffffffffffffff16633df02124600260008560006040518563ffffffff1660e01b8152600401612d089493929190615603565b600060405180830381600087803b158015612d2257600080fd5b505af1158015612d36573d6000803e3d6000fd5b505050506000600760009054906101000a900473ffffffffffffffffffffffffffffffffffffffff1673ffffffffffffffffffffffffffffffffffffffff166370a08231306040518263ffffffff1660e01b8152600401612d9791906153a6565b60206040518083038186803b158015612daf57600080fd5b505afa158015612dc3573d6000803e3d6000fd5b505050506040513d601f19601f82011682018060405250612de79190810190614b46565b14612e27576040517f08c379a0000000000000000000000000000000000000000000000000000000008152600401612e1e90615883565b60405180910390fd5b5b6000811115612fb557600a60009054906101000a900473ffffffffffffffffffffffffffffffffffffffff1673ffffffffffffffffffffffffffffffffffffffff16633df02124600360008460006040518563ffffffff1660e01b8152600401612e9594939291906156d2565b600060405180830381600087803b158015612eaf57600080fd5b505af1158015612ec3573d6000803e3d6000fd5b505050506000600960009054906101000a900473ffffffffffffffffffffffffffffffffffffffff1673ffffffffffffffffffffffffffffffffffffffff166370a08231306040518263ffffffff1660e01b8152600401612f2491906153a6565b60206040518083038186803b158015612f3c57600080fd5b505afa158015612f50573d6000803e3d6000fd5b505050506040513d601f19601f82011682018060405250612f749190810190614b46565b14612fb4576040517f08c379a0000000000000000000000000000000000000000000000000000000008152600401612fab906158c3565b60405180910390fd5b5b600360009054906101000a900473ffffffffffffffffffffffffffffffffffffffff1673ffffffffffffffffffffffffffffffffffffffff16632e1a7d4d600360009054906101000a900473ffffffffffffffffffffffffffffffffffffffff1673ffffffffffffffffffffffffffffffffffffffff166370a08231306040518263ffffffff1660e01b815260040161304e91906153a6565b60206040518083038186803b15801561306657600080fd5b505afa15801561307a573d6000803e3d6000fd5b505050506040513d601f19601f8201168201806040525061309e9190810190614b46565b6040518263ffffffff1660e01b81526004016130ba9190615a83565b600060405180830381600087803b1580156130d457600080fd5b505af11580156130e8573d6000803e3d6000fd5b505050506000600360009054906101000a900473ffffffffffffffffffffffffffffffffffffffff1673ffffffffffffffffffffffffffffffffffffffff166370a08231306040518263ffffffff1660e01b815260040161314991906153a6565b60206040518083038186803b15801561316157600080fd5b505afa158015613175573d6000803e3d6000fd5b505050506040513d601f19601f820116820180604052506131999190810190614b46565b146131d9576040517f08c379a00000000000000000000000000000000000000000000000000000000081526004016131d090615a23565b60405180910390fd5b61320786600260009054906101000a900473ffffffffffffffffffffffffffffffffffffffff166001610838565b506132ff33600260009054906101000a900473ffffffffffffffffffffffffffffffffffffffff1673ffffffffffffffffffffffffffffffffffffffff166370a08231306040518263ffffffff1660e01b815260040161326791906153a6565b60206040518083038186803b15801561327f57600080fd5b505afa158015613293573d6000803e3d6000fd5b505050506040513d601f19601f820116820180604052506132b79190810190614b46565b600260009054906101000a900473ffffffffffffffffffffffffffffffffffffffff1673ffffffffffffffffffffffffffffffffffffffff166144729092919063ffffffff16565b6000600260009054906101000a900473ffffffffffffffffffffffffffffffffffffffff1673ffffffffffffffffffffffffffffffffffffffff166370a08231306040518263ffffffff1660e01b815260040161335c91906153a6565b60206040518083038186803b15801561337457600080fd5b505afa158015613388573d6000803e3d6000fd5b505050506040513d601f19601f820116820180604052506133ac9190810190614b46565b146133ec576040517f08c379a00000000000000000000000000000000000000000000000000000000081526004016133e3906157c3565b60405180910390fd5b505050506000548114613434576040517f08c379a000000000000000000000000000000000000000000000000000000000815260040161342b90615a03565b60405180910390fd5b5050565b600660009054906101000a900473ffffffffffffffffffffffffffffffffffffffff1681565b6001600080828254019250508190555060008054905061347d826104e7565b6000600360009054906101000a900473ffffffffffffffffffffffffffffffffffffffff1673ffffffffffffffffffffffffffffffffffffffff166370a08231306040518263ffffffff1660e01b81526004016134da91906153a6565b60206040518083038186803b1580156134f257600080fd5b505afa158015613506573d6000803e3d6000fd5b505050506040513d601f19601f8201168201806040525061352a9190810190614b46565b90506000600560009054906101000a900473ffffffffffffffffffffffffffffffffffffffff1673ffffffffffffffffffffffffffffffffffffffff166370a08231306040518263ffffffff1660e01b815260040161358991906153a6565b60206040518083038186803b1580156135a157600080fd5b505afa1580156135b5573d6000803e3d6000fd5b505050506040513d601f19601f820116820180604052506135d99190810190614b46565b90506000600760009054906101000a900473ffffffffffffffffffffffffffffffffffffffff1673ffffffffffffffffffffffffffffffffffffffff166370a08231306040518263ffffffff1660e01b815260040161363891906153a6565b60206040518083038186803b15801561365057600080fd5b505afa158015613664573d6000803e3d6000fd5b505050506040513d601f19601f820116820180604052506136889190810190614b46565b90506000600960009054906101000a900473ffffffffffffffffffffffffffffffffffffffff1673ffffffffffffffffffffffffffffffffffffffff166370a08231306040518263ffffffff1660e01b81526004016136e791906153a6565b60206040518083038186803b1580156136ff57600080fd5b505afa158015613713573d6000803e3d6000fd5b505050506040513d601f19601f820116820180604052506137379190810190614b46565b905060008411806137485750600083115b806137535750600082115b8061375e5750600081115b61379d576040517f08c379a0000000000000000000000000000000000000000000000000000000008152600401613794906157e3565b60405180910390fd5b600084111561392a57600a60009054906101000a900473ffffffffffffffffffffffffffffffffffffffff1673ffffffffffffffffffffffffffffffffffffffff16633df02124600060018760006040518563ffffffff1660e01b815260040161380a9493929190615465565b600060405180830381600087803b15801561382457600080fd5b505af1158015613838573d6000803e3d6000fd5b505050506000600360009054906101000a900473ffffffffffffffffffffffffffffffffffffffff1673ffffffffffffffffffffffffffffffffffffffff166370a08231306040518263ffffffff1660e01b815260040161389991906153a6565b60206040518083038186803b1580156138b157600080fd5b505afa1580156138c5573d6000803e3d6000fd5b505050506040513d601f19601f820116820180604052506138e99190810190614b46565b14613929576040517f08c379a000000000000000000000000000000000000000000000000000000000815260040161392090615a23565b60405180910390fd5b5b6000821115613ab757600a60009054906101000a900473ffffffffffffffffffffffffffffffffffffffff1673ffffffffffffffffffffffffffffffffffffffff16633df02124600260018560006040518563ffffffff1660e01b81526004016139979493929190615648565b600060405180830381600087803b1580156139b157600080fd5b505af11580156139c5573d6000803e3d6000fd5b505050506000600760009054906101000a900473ffffffffffffffffffffffffffffffffffffffff1673ffffffffffffffffffffffffffffffffffffffff166370a08231306040518263ffffffff1660e01b8152600401613a2691906153a6565b60206040518083038186803b158015613a3e57600080fd5b505afa158015613a52573d6000803e3d6000fd5b505050506040513d601f19601f82011682018060405250613a769190810190614b46565b14613ab6576040517f08c379a0000000000000000000000000000000000000000000000000000000008152600401613aad90615883565b60405180910390fd5b5b6000811115613c4457600a60009054906101000a900473ffffffffffffffffffffffffffffffffffffffff1673ffffffffffffffffffffffffffffffffffffffff16633df02124600360018460006040518563ffffffff1660e01b8152600401613b249493929190615717565b600060405180830381600087803b158015613b3e57600080fd5b505af1158015613b52573d6000803e3d6000fd5b505050506000600960009054906101000a900473ffffffffffffffffffffffffffffffffffffffff1673ffffffffffffffffffffffffffffffffffffffff166370a08231306040518263ffffffff1660e01b8152600401613bb391906153a6565b60206040518083038186803b158015613bcb57600080fd5b505afa158015613bdf573d6000803e3d6000fd5b505050506040513d601f19601f82011682018060405250613c039190810190614b46565b14613c43576040517f08c379a0000000000000000000000000000000000000000000000000000000008152600401613c3a906158c3565b60405180910390fd5b5b600560009054906101000a900473ffffffffffffffffffffffffffffffffffffffff1673ffffffffffffffffffffffffffffffffffffffff16632e1a7d4d600560009054906101000a900473ffffffffffffffffffffffffffffffffffffffff1673ffffffffffffffffffffffffffffffffffffffff166370a08231306040518263ffffffff1660e01b8152600401613cdd91906153a6565b60206040518083038186803b158015613cf557600080fd5b505afa158015613d09573d6000803e3d6000fd5b505050506040513d601f19601f82011682018060405250613d2d9190810190614b46565b6040518263ffffffff1660e01b8152600401613d499190615a83565b600060405180830381600087803b158015613d6357600080fd5b505af1158015613d77573d6000803e3d6000fd5b505050506000600560009054906101000a900473ffffffffffffffffffffffffffffffffffffffff1673ffffffffffffffffffffffffffffffffffffffff166370a08231306040518263ffffffff1660e01b8152600401613dd891906153a6565b60206040518083038186803b158015613df057600080fd5b505afa158015613e04573d6000803e3d6000fd5b505050506040513d601f19601f82011682018060405250613e289190810190614b46565b14613e68576040517f08c379a0000000000000000000000000000000000000000000000000000000008152600401613e5f906158a3565b60405180910390fd5b613e9a86600460009054906101000a900473ffffffffffffffffffffffffffffffffffffffff1664e8d4a51000610838565b50613f9233600460009054906101000a900473ffffffffffffffffffffffffffffffffffffffff1673ffffffffffffffffffffffffffffffffffffffff166370a08231306040518263ffffffff1660e01b8152600401613efa91906153a6565b60206040518083038186803b158015613f1257600080fd5b505afa158015613f26573d6000803e3d6000fd5b505050506040513d601f19601f82011682018060405250613f4a9190810190614b46565b600460009054906101000a900473ffffffffffffffffffffffffffffffffffffffff1673ffffffffffffffffffffffffffffffffffffffff166144729092919063ffffffff16565b6000600460009054906101000a900473ffffffffffffffffffffffffffffffffffffffff1673ffffffffffffffffffffffffffffffffffffffff166370a08231306040518263ffffffff1660e01b8152600401613fef91906153a6565b60206040518083038186803b15801561400757600080fd5b505afa15801561401b573d6000803e3d6000fd5b505050506040513d601f19601f8201168201806040525061403f9190810190614b46565b1461407f576040517f08c379a000000000000000000000000000000000000000000000000000000000815260040161407690615983565b60405180910390fd5b5050505060005481146140c7576040517f08c379a00000000000000000000000000000000000000000000000000000000081526004016140be90615a03565b60405180910390fd5b5050565b600260009054906101000a900473ffffffffffffffffffffffffffffffffffffffff1681565b600960009054906101000a900473ffffffffffffffffffffffffffffffffffffffff1681565b61411f612532565b61415e576040517f08c379a000000000000000000000000000000000000000000000000000000000815260040161415590615963565b60405180910390fd5b61416781614690565b50565b614172612532565b6141b1576040517f08c379a00000000000000000000000000000000000000000000000000000000081526004016141a890615963565b60405180910390fd5b60003373ffffffffffffffffffffffffffffffffffffffff163073ffffffffffffffffffffffffffffffffffffffff16316040516141ee90615376565b60006040518083038185875af1925050503d806000811461422b576040519150601f19603f3d011682016040523d82523d6000602084013e614230565b606091505b5050905080614274576040517f08c379a000000000000000000000000000000000000000000000000000000000815260040161426b906158e3565b60405180910390fd5b50565b614313848573ffffffffffffffffffffffffffffffffffffffff166323b872dd905060e01b8585856040516024016142b1939291906153ea565b604051602081830303815290604052907bffffffffffffffffffffffffffffffffffffffffffffffffffffffff19166020820180517bffffffffffffffffffffffffffffffffffffffffffffffffffffffff83818316178352505050506147c0565b50505050565b60008083141561432c5760009050614383565b600082840290508284828161433d57fe5b041461437e576040517f08c379a000000000000000000000000000000000000000000000000000000000815260040161437590615943565b60405180910390fd5b809150505b92915050565b60006143cb83836040518060400160405280601a81526020017f536166654d6174683a206469766973696f6e206279207a65726f000000000000815250614932565b905092915050565b600061441583836040518060400160405280601e81526020017f536166654d6174683a207375627472616374696f6e206f766572666c6f770000815250614993565b905092915050565b600080828401905083811015614468576040517f08c379a000000000000000000000000000000000000000000000000000000000815260040161445f90615843565b60405180910390fd5b8091505092915050565b61450c838473ffffffffffffffffffffffffffffffffffffffff1663a9059cbb905060e01b84846040516024016144aa929190615421565b604051602081830303815290604052907bffffffffffffffffffffffffffffffffffffffffffffffffffffffff19166020820180517bffffffffffffffffffffffffffffffffffffffffffffffffffffffff83818316178352505050506147c0565b505050565b600033905090565b60008114806145b2575060008373ffffffffffffffffffffffffffffffffffffffff1663dd62ed3e30856040518363ffffffff1660e01b81526004016145609291906153c1565b60206040518083038186803b15801561457857600080fd5b505afa15801561458c573d6000803e3d6000fd5b505050506040513d601f19601f820116820180604052506145b09190810190614b46565b145b6145f1576040517f08c379a00000000000000000000000000000000000000000000000000000000081526004016145e890615a43565b60405180910390fd5b61468b838473ffffffffffffffffffffffffffffffffffffffff1663095ea7b3905060e01b8484604051602401614629929190615421565b604051602081830303815290604052907bffffffffffffffffffffffffffffffffffffffffffffffffffffffff19166020820180517bffffffffffffffffffffffffffffffffffffffffffffffffffffffff83818316178352505050506147c0565b505050565b600073ffffffffffffffffffffffffffffffffffffffff168173ffffffffffffffffffffffffffffffffffffffff161415614700576040517f08c379a00000000000000000000000000000000000000000000000000000000081526004016146f790615803565b60405180910390fd5b8073ffffffffffffffffffffffffffffffffffffffff16600160009054906101000a900473ffffffffffffffffffffffffffffffffffffffff1673ffffffffffffffffffffffffffffffffffffffff167f8be0079c531659141344cd1fd0a4f28419497f9722a3daafe3b4186f6b6457e060405160405180910390a380600160006101000a81548173ffffffffffffffffffffffffffffffffffffffff021916908373ffffffffffffffffffffffffffffffffffffffff16021790555050565b6147df8273ffffffffffffffffffffffffffffffffffffffff166149ee565b61481e576040517f08c379a000000000000000000000000000000000000000000000000000000000815260040161481590615a63565b60405180910390fd5b600060608373ffffffffffffffffffffffffffffffffffffffff1683604051614847919061535f565b6000604051808303816000865af19150503d8060008114614884576040519150601f19603f3d011682016040523d82523d6000602084013e614889565b606091505b5091509150816148ce576040517f08c379a00000000000000000000000000000000000000000000000000000000081526004016148c590615863565b60405180910390fd5b60008151111561492c57808060200190516148ec9190810190614acb565b61492b576040517f08c379a0000000000000000000000000000000000000000000000000000000008152600401614922906159e3565b60405180910390fd5b5b50505050565b60008083118290614979576040517f08c379a000000000000000000000000000000000000000000000000000000000815260040161497091906157a1565b60405180910390fd5b50600083858161498557fe5b049050809150509392505050565b60008383111582906149db576040517f08c379a00000000000000000000000000000000000000000000000000000000081526004016149d291906157a1565b60405180910390fd5b5060008385039050809150509392505050565b60008060007fc5d2460186f7233c927e7db2dcc703c0e500b653ca82273b7bfad8045d85a47060001b9050833f91506000801b8214158015614a305750808214155b92505050919050565b600081359050614a4881615c61565b92915050565b600081519050614a5d81615c78565b92915050565b600081359050614a7281615c8f565b92915050565b600081359050614a8781615ca6565b92915050565b600081519050614a9c81615ca6565b92915050565b600060208284031215614ab457600080fd5b6000614ac284828501614a39565b91505092915050565b600060208284031215614add57600080fd5b6000614aeb84828501614a4e565b91505092915050565b600060208284031215614b0657600080fd5b6000614b1484828501614a63565b91505092915050565b600060208284031215614b2f57600080fd5b6000614b3d84828501614a78565b91505092915050565b600060208284031215614b5857600080fd5b6000614b6684828501614a8d565b91505092915050565b600080600060608486031215614b8457600080fd5b6000614b9286828701614a78565b9350506020614ba386828701614a39565b9250506040614bb486828701614a78565b9150509250925092565b6000614bca8383615341565b60208301905092915050565b614bdf81615b8d565b82525050565b614bee81615b26565b82525050565b614bfd81615ad1565b614c078184615aff565b9250614c1282615ac7565b8060005b83811015614c43578151614c2a8782614bbe565b9650614c3583615af2565b925050600181019050614c16565b505050505050565b614c5481615b38565b82525050565b6000614c6582615adc565b614c6f8185615b0a565b9350614c7f818560208601615c1d565b80840191505092915050565b614c9481615b9f565b82525050565b614ca381615bb1565b82525050565b614cb281615bc3565b82525050565b614cc181615bd5565b82525050565b614cd081615be7565b82525050565b6000614ce182615ae7565b614ceb8185615b15565b9350614cfb818560208601615c1d565b614d0481615c50565b840191505092915050565b6000614d1c600d83615b15565b91507f4441492072656d61696e646572000000000000000000000000000000000000006000830152602082019050919050565b6000614d5c601183615b15565b91507f6e6f20792e746f6b656e7320666f756e640000000000000000000000000000006000830152602082019050919050565b6000614d9c602683615b15565b91507f4f776e61626c653a206e6577206f776e657220697320746865207a65726f206160008301527f64647265737300000000000000000000000000000000000000000000000000006020830152604082019050919050565b6000614e02600e83615b15565b91507f555344542072656d61696e6465720000000000000000000000000000000000006000830152602082019050919050565b6000614e42601b83615b15565b91507f536166654d6174683a206164646974696f6e206f766572666c6f7700000000006000830152602082019050919050565b6000614e82602083615b15565b91507f5361666545524332303a206c6f772d6c6576656c2063616c6c206661696c65646000830152602082019050919050565b6000614ec2601083615b15565b91507f792e555344542072656d61696e646572000000000000000000000000000000006000830152602082019050919050565b6000614f02601083615b15565b91507f792e555344432072656d61696e646572000000000000000000000000000000006000830152602082019050919050565b6000614f42601083615b15565b91507f792e545553442072656d61696e646572000000000000000000000000000000006000830152602082019050919050565b6000614f82601683615b15565b91507f7472616e73666572206f6620455448206661696c6564000000000000000000006000830152602082019050919050565b6000614fc2600f83615b15565b91507f43555256452072656d61696e64657200000000000000000000000000000000006000830152602082019050919050565b6000615002600e83615b15565b91507f545553442072656d61696e6465720000000000000000000000000000000000006000830152602082019050919050565b6000615042602183615b15565b91507f536166654d6174683a206d756c7469706c69636174696f6e206f766572666c6f60008301527f77000000000000000000000000000000000000000000000000000000000000006020830152604082019050919050565b60006150a8602083615b15565b91507f4f776e61626c653a2063616c6c6572206973206e6f7420746865206f776e65726000830152602082019050919050565b60006150e8600e83615b15565b91507f555344432072656d61696e6465720000000000000000000000000000000000006000830152602082019050919050565b6000615128600083615b0a565b9150600082019050919050565b6000615142601e83615b15565b91507f6465706f736974206d7573742062652067726561746572207468616e203000006000830152602082019050919050565b6000615182601883615b15565b91507f736c6970706167652067726561746572207468616e20352500000000000000006000830152602082019050919050565b60006151c2602a83615b15565b91507f5361666545524332303a204552433230206f7065726174696f6e20646964206e60008301527f6f742073756363656564000000000000000000000000000000000000000000006020830152604082019050919050565b6000615228601f83615b15565b91507f5265656e7472616e637947756172643a207265656e7472616e742063616c6c006000830152602082019050919050565b6000615268600f83615b15565b91507f792e4441492072656d61696e64657200000000000000000000000000000000006000830152602082019050919050565b60006152a8603683615b15565b91507f5361666545524332303a20617070726f76652066726f6d206e6f6e2d7a65726f60008301527f20746f206e6f6e2d7a65726f20616c6c6f77616e6365000000000000000000006020830152604082019050919050565b600061530e601f83615b15565b91507f5361666545524332303a2063616c6c20746f206e6f6e2d636f6e7472616374006000830152602082019050919050565b61534a81615b83565b82525050565b61535981615b83565b82525050565b600061536b8284614c5a565b915081905092915050565b60006153818261511b565b9150819050919050565b60006020820190506153a06000830184614be5565b92915050565b60006020820190506153bb6000830184614bd6565b92915050565b60006040820190506153d66000830185614be5565b6153e36020830184614be5565b9392505050565b60006060820190506153ff6000830186614be5565b61540c6020830185614be5565b6154196040830184615350565b949350505050565b60006040820190506154366000830185614be5565b6154436020830184615350565b9392505050565b600060208201905061545f6000830184614c4b565b92915050565b600060808201905061547a6000830187614c8b565b6154876020830186614ca9565b6154946040830185615350565b6154a16060830184614c9a565b95945050505050565b60006080820190506154bf6000830187614c8b565b6154cc6020830186614cb8565b6154d96040830185615350565b6154e66060830184614c9a565b95945050505050565b60006080820190506155046000830187614c8b565b6155116020830186614cc7565b61551e6040830185615350565b61552b6060830184614c9a565b95945050505050565b60006080820190506155496000830187614ca9565b6155566020830186614c8b565b6155636040830185615350565b6155706060830184614c9a565b95945050505050565b600060808201905061558e6000830187614ca9565b61559b6020830186614cb8565b6155a86040830185615350565b6155b56060830184614c9a565b95945050505050565b60006080820190506155d36000830187614ca9565b6155e06020830186614cc7565b6155ed6040830185615350565b6155fa6060830184614c9a565b95945050505050565b60006080820190506156186000830187614cb8565b6156256020830186614c8b565b6156326040830185615350565b61563f6060830184614c9a565b95945050505050565b600060808201905061565d6000830187614cb8565b61566a6020830186614ca9565b6156776040830185615350565b6156846060830184614c9a565b95945050505050565b60006080820190506156a26000830187614cb8565b6156af6020830186614cc7565b6156bc6040830185615350565b6156c96060830184614c9a565b95945050505050565b60006080820190506156e76000830187614cc7565b6156f46020830186614c8b565b6157016040830185615350565b61570e6060830184614c9a565b95945050505050565b600060808201905061572c6000830187614cc7565b6157396020830186614ca9565b6157466040830185615350565b6157536060830184614c9a565b95945050505050565b60006080820190506157716000830187614cc7565b61577e6020830186614cb8565b61578b6040830185615350565b6157986060830184614c9a565b95945050505050565b600060208201905081810360008301526157bb8184614cd6565b905092915050565b600060208201905081810360008301526157dc81614d0f565b9050919050565b600060208201905081810360008301526157fc81614d4f565b9050919050565b6000602082019050818103600083015261581c81614d8f565b9050919050565b6000602082019050818103600083015261583c81614df5565b9050919050565b6000602082019050818103600083015261585c81614e35565b9050919050565b6000602082019050818103600083015261587c81614e75565b9050919050565b6000602082019050818103600083015261589c81614eb5565b9050919050565b600060208201905081810360008301526158bc81614ef5565b9050919050565b600060208201905081810360008301526158dc81614f35565b9050919050565b600060208201905081810360008301526158fc81614f75565b9050919050565b6000602082019050818103600083015261591c81614fb5565b9050919050565b6000602082019050818103600083015261593c81614ff5565b9050919050565b6000602082019050818103600083015261595c81615035565b9050919050565b6000602082019050818103600083015261597c8161509b565b9050919050565b6000602082019050818103600083015261599c816150db565b9050919050565b600060208201905081810360008301526159bc81615135565b9050919050565b600060208201905081810360008301526159dc81615175565b9050919050565b600060208201905081810360008301526159fc816151b5565b9050919050565b60006020820190508181036000830152615a1c8161521b565b9050919050565b60006020820190508181036000830152615a3c8161525b565b9050919050565b60006020820190508181036000830152615a5c8161529b565b9050919050565b60006020820190508181036000830152615a7c81615301565b9050919050565b6000602082019050615a986000830184615350565b92915050565b600060a082019050615ab36000830185615350565b615ac06020830184614bf4565b9392505050565b6000819050919050565b600060049050919050565b600081519050919050565b600081519050919050565b6000602082019050919050565b600081905092915050565b600081905092915050565b600082825260208201905092915050565b6000615b3182615b63565b9050919050565b60008115159050919050565b6000615b4f82615b26565b9050919050565b600081600f0b9050919050565b600073ffffffffffffffffffffffffffffffffffffffff82169050919050565b6000819050919050565b6000615b9882615bf9565b9050919050565b6000615baa82615b56565b9050919050565b6000615bbc82615b83565b9050919050565b6000615bce82615b56565b9050919050565b6000615be082615b56565b9050919050565b6000615bf282615b56565b9050919050565b6000615c0482615c0b565b9050919050565b6000615c1682615b63565b9050919050565b60005b83811015615c3b578082015181840152602081019050615c20565b83811115615c4a576000848401525b50505050565b6000601f19601f8301169050919050565b615c6a81615b26565b8114615c7557600080fd5b50565b615c8181615b38565b8114615c8c57600080fd5b50565b615c9881615b44565b8114615ca357600080fd5b50565b615caf81615b83565b8114615cba57600080fd5b5056fea365627a7a7231582031e9adc91badd88bd1063384b776d6e077fad35c6faea2ec87d717ba2edc8c706c6578706572696d656e74616cf564736f6c634300050c0040",
  "source": "pragma solidity ^0.5.0;\r\npragma experimental ABIEncoderV2;\r\n\r\ninterface IERC20 {\r\n    function totalSupply() external view returns (uint256);\r\n    function balanceOf(address account) external view returns (uint256);\r\n    function transfer(address recipient, uint256 amount) external returns (bool);\r\n    function allowance(address owner, address spender) external view returns (uint256);\r\n    function approve(address spender, uint256 amount) external returns (bool);\r\n    function transferFrom(address sender, address recipient, uint256 amount) external returns (bool);\r\n    event Transfer(address indexed from, address indexed to, uint256 value);\r\n    event Approval(address indexed owner, address indexed spender, uint256 value);\r\n}\r\n\r\ncontract Context {\r\n    constructor () internal { }\r\n    // solhint-disable-previous-line no-empty-blocks\r\n\r\n    function _msgSender() internal view returns (address payable) {\r\n        return msg.sender;\r\n    }\r\n\r\n    function _msgData() internal view returns (bytes memory) {\r\n        this; // silence state mutability warning without generating bytecode - see https://github.com/ethereum/solidity/issues/2691\r\n        return msg.data;\r\n    }\r\n}\r\n\r\ncontract ReentrancyGuard {\r\n    uint256 private _guardCounter;\r\n\r\n    constructor () internal {\r\n        _guardCounter = 1;\r\n    }\r\n\r\n    modifier nonReentrant() {\r\n        _guardCounter += 1;\r\n        uint256 localCounter = _guardCounter;\r\n        _;\r\n        require(localCounter == _guardCounter, \"ReentrancyGuard: reentrant call\");\r\n    }\r\n}\r\n\r\ncontract Ownable is Context {\r\n    address private _owner;\r\n\r\n    event OwnershipTransferred(address indexed previousOwner, address indexed newOwner);\r\n    constructor () internal {\r\n        _owner = _msgSender();\r\n        emit OwnershipTransferred(address(0), _owner);\r\n    }\r\n    function owner() public view returns (address) {\r\n        return _owner;\r\n    }\r\n    modifier onlyOwner() {\r\n        require(isOwner(), \"Ownable: caller is not the owner\");\r\n        _;\r\n    }\r\n    function isOwner() public view returns (bool) {\r\n        return _msgSender() == _owner;\r\n    }\r\n    function renounceOwnership() public onlyOwner {\r\n        emit OwnershipTransferred(_owner, address(0));\r\n        _owner = address(0);\r\n    }\r\n    function transferOwnership(address newOwner) public onlyOwner {\r\n        _transferOwnership(newOwner);\r\n    }\r\n    function _transferOwnership(address newOwner) internal {\r\n        require(newOwner != address(0), \"Ownable: new owner is the zero address\");\r\n        emit OwnershipTransferred(_owner, newOwner);\r\n        _owner = newOwner;\r\n    }\r\n}\r\n\r\nlibrary SafeMath {\r\n    function add(uint256 a, uint256 b) internal pure returns (uint256) {\r\n        uint256 c = a + b;\r\n        require(c >= a, \"SafeMath: addition overflow\");\r\n\r\n        return c;\r\n    }\r\n    function sub(uint256 a, uint256 b) internal pure returns (uint256) {\r\n        return sub(a, b, \"SafeMath: subtraction overflow\");\r\n    }\r\n    function sub(uint256 a, uint256 b, string memory errorMessage) internal pure returns (uint256) {\r\n        require(b <= a, errorMessage);\r\n        uint256 c = a - b;\r\n\r\n        return c;\r\n    }\r\n    function mul(uint256 a, uint256 b) internal pure returns (uint256) {\r\n        if (a == 0) {\r\n            return 0;\r\n        }\r\n\r\n        uint256 c = a * b;\r\n        require(c / a == b, \"SafeMath: multiplication overflow\");\r\n\r\n        return c;\r\n    }\r\n    function div(uint256 a, uint256 b) internal pure returns (uint256) {\r\n        return div(a, b, \"SafeMath: division by zero\");\r\n    }\r\n    function div(uint256 a, uint256 b, string memory errorMessage) internal pure returns (uint256) {\r\n        // Solidity only automatically asserts when dividing by 0\r\n        require(b > 0, errorMessage);\r\n        uint256 c = a / b;\r\n\r\n        return c;\r\n    }\r\n    function mod(uint256 a, uint256 b) internal pure returns (uint256) {\r\n        return mod(a, b, \"SafeMath: modulo by zero\");\r\n    }\r\n    function mod(uint256 a, uint256 b, string memory errorMessage) internal pure returns (uint256) {\r\n        require(b != 0, errorMessage);\r\n        return a % b;\r\n    }\r\n}\r\n\r\nlibrary Address {\r\n    function isContract(address account) internal view returns (bool) {\r\n        bytes32 codehash;\r\n        bytes32 accountHash = 0xc5d2460186f7233c927e7db2dcc703c0e500b653ca82273b7bfad8045d85a470;\r\n        // solhint-disable-next-line no-inline-assembly\r\n        assembly { codehash := extcodehash(account) }\r\n        return (codehash != 0x0 && codehash != accountHash);\r\n    }\r\n    function toPayable(address account) internal pure returns (address payable) {\r\n        return address(uint160(account));\r\n    }\r\n    function sendValue(address payable recipient, uint256 amount) internal {\r\n        require(address(this).balance >= amount, \"Address: insufficient balance\");\r\n\r\n        // solhint-disable-next-line avoid-call-value\r\n        (bool success, ) = recipient.call.value(amount)(\"\");\r\n        require(success, \"Address: unable to send value, recipient may have reverted\");\r\n    }\r\n}\r\n\r\nlibrary SafeERC20 {\r\n    using SafeMath for uint256;\r\n    using Address for address;\r\n\r\n    function safeTransfer(IERC20 token, address to, uint256 value) internal {\r\n        callOptionalReturn(token, abi.encodeWithSelector(token.transfer.selector, to, value));\r\n    }\r\n    function safeTransferFrom(IERC20 token, address from, address to, uint256 value) internal {\r\n        callOptionalReturn(token, abi.encodeWithSelector(token.transferFrom.selector, from, to, value));\r\n    }\r\n    function safeApprove(IERC20 token, address spender, uint256 value) internal {\r\n        require((value == 0) || (token.allowance(address(this), spender) == 0),\r\n            \"SafeERC20: approve from non-zero to non-zero allowance\"\r\n        );\r\n        callOptionalReturn(token, abi.encodeWithSelector(token.approve.selector, spender, value));\r\n    }\r\n    function callOptionalReturn(IERC20 token, bytes memory data) private {\r\n        require(address(token).isContract(), \"SafeERC20: call to non-contract\");\r\n\r\n        // solhint-disable-next-line avoid-low-level-calls\r\n        (bool success, bytes memory returndata) = address(token).call(data);\r\n        require(success, \"SafeERC20: low-level call failed\");\r\n\r\n        if (returndata.length > 0) { // Return data is optional\r\n            // solhint-disable-next-line max-line-length\r\n            require(abi.decode(returndata, (bool)), \"SafeERC20: ERC20 operation did not succeed\");\r\n        }\r\n    }\r\n}\r\n\r\ninterface yERC20 {\r\n  function withdraw(uint256 _amount) external;\r\n}\r\n\r\n// Solidity Interface\r\n\r\ninterface ICurveFi {\r\n\r\n  function remove_liquidity(\r\n    uint256 _amount,\r\n    uint256[4] calldata amounts\r\n  ) external;\r\n  function exchange(\r\n    int128 from, int128 to, uint256 _from_amount, uint256 _min_to_amount\r\n  ) external;\r\n}\r\n\r\ncontract yCurveZapOut is ReentrancyGuard, Ownable {\r\n  using SafeERC20 for IERC20;\r\n  using Address for address;\r\n  using SafeMath for uint256;\r\n\r\n  address public DAI;\r\n  address public yDAI;\r\n  address public USDC;\r\n  address public yUSDC;\r\n  address public USDT;\r\n  address public yUSDT;\r\n  address public TUSD;\r\n  address public yTUSD;\r\n  address public SWAP;\r\n  address public CURVE;\r\n\r\n  constructor () public {\r\n    DAI = address(0x6B175474E89094C44Da98b954EedeAC495271d0F);\r\n    yDAI = address(0x16de59092dAE5CcF4A1E6439D611fd0653f0Bd01);\r\n\r\n    USDC = address(0xA0b86991c6218b36c1d19D4a2e9Eb0cE3606eB48);\r\n    yUSDC = address(0xd6aD7a6750A7593E092a9B218d66C0A814a3436e);\r\n\r\n    USDT = address(0xdAC17F958D2ee523a2206206994597C13D831ec7);\r\n    yUSDT = address(0x83f798e925BcD4017Eb265844FDDAbb448f1707D);\r\n\r\n    TUSD = address(0x0000000000085d4780B73119b644AE5ecd22b376);\r\n    yTUSD = address(0x73a052500105205d34Daf004eAb301916DA8190f);\r\n\r\n    SWAP = address(0x45F783CCE6B7FF23B2ab2D70e416cdb7D6055f51);\r\n    CURVE = address(0xdF5e0e81Dff6FAF3A7e52BA697820c5e32D806A8);\r\n\r\n    approveToken();\r\n  }\r\n\r\n  function() external payable {\r\n\r\n  }\r\n\r\n  function approveToken() public {\r\n      IERC20(yDAI).safeApprove(SWAP, uint(-1));\r\n      IERC20(yUSDC).safeApprove(SWAP, uint(-1));\r\n      IERC20(yUSDT).safeApprove(SWAP, uint(-1));\r\n      IERC20(yTUSD).safeApprove(SWAP, uint(-1));\r\n  }\r\n\r\n  function checkSlippage(uint256 _amount, address _token, uint256 _dec) public view returns (bool) {\r\n    uint256 received = (IERC20(_token).balanceOf(address(this))).mul(_dec);\r\n    uint256 fivePercent = _amount.mul(5).div(100);\r\n    uint256 min = _amount.sub(fivePercent);\r\n    uint256 max = _amount.add(fivePercent);\r\n    require(received <= max && received >= min, \"slippage greater than 5%\");\r\n    return true;\r\n  }\r\n\r\n  function withdrawCurve(uint256 _amount) public {\r\n    require(_amount > 0, \"deposit must be greater than 0\");\r\n    IERC20(CURVE).safeTransferFrom(msg.sender, address(this), _amount);\r\n    ICurveFi(SWAP).remove_liquidity(IERC20(CURVE).balanceOf(address(this)), [uint256(0),0,0,0]);\r\n    require(IERC20(CURVE).balanceOf(address(this)) == 0, \"CURVE remainder\");\r\n  }\r\n\r\n  function withdrawDAI(uint256 _amount)\r\n      external\r\n      nonReentrant\r\n  {\r\n      withdrawCurve(_amount);\r\n\r\n      uint256 _ydai = IERC20(yDAI).balanceOf(address(this));\r\n      uint256 _yusdc = IERC20(yUSDC).balanceOf(address(this));\r\n      uint256 _yusdt = IERC20(yUSDT).balanceOf(address(this));\r\n      uint256 _ytusd = IERC20(yTUSD).balanceOf(address(this));\r\n\r\n      require(_ydai > 0 || _yusdc > 0 || _yusdt > 0 || _ytusd > 0, \"no y.tokens found\");\r\n\r\n      if (_yusdc > 0) {\r\n        ICurveFi(SWAP).exchange(1, 0, _yusdc, 0);\r\n        require(IERC20(yUSDC).balanceOf(address(this)) == 0, \"y.USDC remainder\");\r\n      }\r\n      if (_yusdt > 0) {\r\n        ICurveFi(SWAP).exchange(2, 0, _yusdt, 0);\r\n        require(IERC20(yUSDT).balanceOf(address(this)) == 0, \"y.USDT remainder\");\r\n      }\r\n      if (_ytusd > 0) {\r\n        ICurveFi(SWAP).exchange(3, 0, _ytusd, 0);\r\n        require(IERC20(yTUSD).balanceOf(address(this)) == 0, \"y.TUSD remainder\");\r\n      }\r\n\r\n      yERC20(yDAI).withdraw(IERC20(yDAI).balanceOf(address(this)));\r\n      require(IERC20(yDAI).balanceOf(address(this)) == 0, \"y.DAI remainder\");\r\n\r\n      checkSlippage(_amount, DAI, 1);\r\n\r\n      IERC20(DAI).safeTransfer(msg.sender, IERC20(DAI).balanceOf(address(this)));\r\n      require(IERC20(DAI).balanceOf(address(this)) == 0, \"DAI remainder\");\r\n  }\r\n\r\n  function withdrawUSDC(uint256 _amount)\r\n      external\r\n      nonReentrant\r\n  {\r\n      withdrawCurve(_amount);\r\n\r\n      uint256 _ydai = IERC20(yDAI).balanceOf(address(this));\r\n      uint256 _yusdc = IERC20(yUSDC).balanceOf(address(this));\r\n      uint256 _yusdt = IERC20(yUSDT).balanceOf(address(this));\r\n      uint256 _ytusd = IERC20(yTUSD).balanceOf(address(this));\r\n\r\n      require(_ydai > 0 || _yusdc > 0 || _yusdt > 0 || _ytusd > 0, \"no y.tokens found\");\r\n\r\n      if (_ydai > 0) {\r\n        ICurveFi(SWAP).exchange(0, 1, _ydai, 0);\r\n        require(IERC20(yDAI).balanceOf(address(this)) == 0, \"y.DAI remainder\");\r\n      }\r\n      if (_yusdt > 0) {\r\n        ICurveFi(SWAP).exchange(2, 1, _yusdt, 0);\r\n        require(IERC20(yUSDT).balanceOf(address(this)) == 0, \"y.USDT remainder\");\r\n      }\r\n      if (_ytusd > 0) {\r\n        ICurveFi(SWAP).exchange(3, 1, _ytusd, 0);\r\n        require(IERC20(yTUSD).balanceOf(address(this)) == 0, \"y.TUSD remainder\");\r\n      }\r\n\r\n      yERC20(yUSDC).withdraw(IERC20(yUSDC).balanceOf(address(this)));\r\n      require(IERC20(yUSDC).balanceOf(address(this)) == 0, \"y.USDC remainder\");\r\n\r\n      checkSlippage(_amount, USDC, 1e12);\r\n\r\n      IERC20(USDC).safeTransfer(msg.sender, IERC20(USDC).balanceOf(address(this)));\r\n      require(IERC20(USDC).balanceOf(address(this)) == 0, \"USDC remainder\");\r\n  }\r\n\r\n  function withdrawUSDT(uint256 _amount)\r\n      external\r\n      nonReentrant\r\n  {\r\n      withdrawCurve(_amount);\r\n\r\n      uint256 _ydai = IERC20(yDAI).balanceOf(address(this));\r\n      uint256 _yusdc = IERC20(yUSDC).balanceOf(address(this));\r\n      uint256 _yusdt = IERC20(yUSDT).balanceOf(address(this));\r\n      uint256 _ytusd = IERC20(yTUSD).balanceOf(address(this));\r\n\r\n      require(_ydai > 0 || _yusdc > 0 || _yusdt > 0 || _ytusd > 0, \"no y.tokens found\");\r\n\r\n      if (_ydai > 0) {\r\n        ICurveFi(SWAP).exchange(0, 2, _ydai, 0);\r\n        require(IERC20(yDAI).balanceOf(address(this)) == 0, \"y.DAI remainder\");\r\n      }\r\n      if (_yusdc > 0) {\r\n        ICurveFi(SWAP).exchange(1, 2, _yusdc, 0);\r\n        require(IERC20(yUSDC).balanceOf(address(this)) == 0, \"y.USDC remainder\");\r\n      }\r\n      if (_ytusd > 0) {\r\n        ICurveFi(SWAP).exchange(3, 2, _ytusd, 0);\r\n        require(IERC20(yTUSD).balanceOf(address(this)) == 0, \"y.TUSD remainder\");\r\n      }\r\n\r\n      yERC20(yUSDT).withdraw(IERC20(yUSDT).balanceOf(address(this)));\r\n      require(IERC20(yUSDT).balanceOf(address(this)) == 0, \"y.USDT remainder\");\r\n\r\n      checkSlippage(_amount, USDT, 1e12);\r\n\r\n      IERC20(USDT).safeTransfer(msg.sender, IERC20(USDT).balanceOf(address(this)));\r\n      require(IERC20(USDT).balanceOf(address(this)) == 0, \"USDT remainder\");\r\n  }\r\n\r\n  function withdrawTUSD(uint256 _amount)\r\n      external\r\n      nonReentrant\r\n  {\r\n      withdrawCurve(_amount);\r\n\r\n      uint256 _ydai = IERC20(yDAI).balanceOf(address(this));\r\n      uint256 _yusdc = IERC20(yUSDC).balanceOf(address(this));\r\n      uint256 _yusdt = IERC20(yUSDT).balanceOf(address(this));\r\n      uint256 _ytusd = IERC20(yTUSD).balanceOf(address(this));\r\n\r\n      require(_ydai > 0 || _yusdc > 0 || _yusdt > 0 || _ytusd > 0, \"no y.tokens found\");\r\n\r\n      if (_ydai > 0) {\r\n        ICurveFi(SWAP).exchange(0, 3, _ydai, 0);\r\n        require(IERC20(yDAI).balanceOf(address(this)) == 0, \"y.DAI remainder\");\r\n      }\r\n      if (_yusdc > 0) {\r\n        ICurveFi(SWAP).exchange(1, 3, _yusdc, 0);\r\n        require(IERC20(yUSDC).balanceOf(address(this)) == 0, \"y.USDC remainder\");\r\n      }\r\n      if (_yusdt > 0) {\r\n        ICurveFi(SWAP).exchange(2, 3, _yusdt, 0);\r\n        require(IERC20(yUSDT).balanceOf(address(this)) == 0, \"y.USDT remainder\");\r\n      }\r\n\r\n      yERC20(yTUSD).withdraw(IERC20(yTUSD).balanceOf(address(this)));\r\n      require(IERC20(yTUSD).balanceOf(address(this)) == 0, \"y.TUSD remainder\");\r\n\r\n      checkSlippage(_amount, TUSD, 1);\r\n\r\n      IERC20(TUSD).safeTransfer(msg.sender, IERC20(TUSD).balanceOf(address(this)));\r\n      require(IERC20(TUSD).balanceOf(address(this)) == 0, \"TUSD remainder\");\r\n  }\r\n\r\n  // incase of half-way error\r\n  function inCaseTokenGetsStuck(IERC20 _TokenAddress) onlyOwner public {\r\n      uint qty = _TokenAddress.balanceOf(address(this));\r\n      _TokenAddress.safeTransfer(msg.sender, qty);\r\n  }\r\n\r\n  // incase of half-way error\r\n  function inCaseETHGetsStuck() onlyOwner public{\r\n      (bool result, ) = msg.sender.call.value(address(this).balance)(\"\");\r\n      require(result, \"transfer of ETH failed\");\r\n  }\r\n}\r\n",
  "sourcePath": "D:/ftm/itoken/contracts/yCurveZapOut.sol",
  "compiler": {
    "name": "solc",
    "version": "0.5.12+commit.7709ece9.Emscripten.clang"
  },
  "schemaVersion": "3.0.19",
  "updatedAt": "2020-03-02T06:17:35.425Z",
  "devdoc": {
    "methods": {}
  },
  "userdoc": {
    "methods": {}
  }
}