{
  "contractName": "yCurveZap",
  "abi": [
    {
      "inputs": [],
      "payable": false,
      "stateMutability": "nonpayable",
      "type": "constructor"
    },
    {
      "anonymous": false,
      "inputs": [
        {
          "indexed": true,
          "internalType": "address",
          "name": "previousOwner",
          "type": "address"
        },
        {
          "indexed": true,
          "internalType": "address",
          "name": "newOwner",
          "type": "address"
        }
      ],
      "name": "OwnershipTransferred",
      "type": "event"
    },
    {
      "payable": true,
      "stateMutability": "payable",
      "type": "fallback"
    },
    {
      "constant": true,
      "inputs": [],
      "name": "CURVE",
      "outputs": [
        {
          "internalType": "address",
          "name": "",
          "type": "address"
        }
      ],
      "payable": false,
      "stateMutability": "view",
      "type": "function"
    },
    {
      "constant": true,
      "inputs": [],
      "name": "DAI",
      "outputs": [
        {
          "internalType": "address",
          "name": "",
          "type": "address"
        }
      ],
      "payable": false,
      "stateMutability": "view",
      "type": "function"
    },
    {
      "constant": true,
      "inputs": [],
      "name": "SWAP",
      "outputs": [
        {
          "internalType": "address",
          "name": "",
          "type": "address"
        }
      ],
      "payable": false,
      "stateMutability": "view",
      "type": "function"
    },
    {
      "constant": true,
      "inputs": [],
      "name": "TUSD",
      "outputs": [
        {
          "internalType": "address",
          "name": "",
          "type": "address"
        }
      ],
      "payable": false,
      "stateMutability": "view",
      "type": "function"
    },
    {
      "constant": true,
      "inputs": [],
      "name": "USDC",
      "outputs": [
        {
          "internalType": "address",
          "name": "",
          "type": "address"
        }
      ],
      "payable": false,
      "stateMutability": "view",
      "type": "function"
    },
    {
      "constant": true,
      "inputs": [],
      "name": "USDT",
      "outputs": [
        {
          "internalType": "address",
          "name": "",
          "type": "address"
        }
      ],
      "payable": false,
      "stateMutability": "view",
      "type": "function"
    },
    {
      "constant": true,
      "inputs": [],
      "name": "isOwner",
      "outputs": [
        {
          "internalType": "bool",
          "name": "",
          "type": "bool"
        }
      ],
      "payable": false,
      "stateMutability": "view",
      "type": "function"
    },
    {
      "constant": true,
      "inputs": [],
      "name": "owner",
      "outputs": [
        {
          "internalType": "address",
          "name": "",
          "type": "address"
        }
      ],
      "payable": false,
      "stateMutability": "view",
      "type": "function"
    },
    {
      "constant": false,
      "inputs": [],
      "name": "renounceOwnership",
      "outputs": [],
      "payable": false,
      "stateMutability": "nonpayable",
      "type": "function"
    },
    {
      "constant": false,
      "inputs": [
        {
          "internalType": "address",
          "name": "newOwner",
          "type": "address"
        }
      ],
      "name": "transferOwnership",
      "outputs": [],
      "payable": false,
      "stateMutability": "nonpayable",
      "type": "function"
    },
    {
      "constant": true,
      "inputs": [],
      "name": "yDAI",
      "outputs": [
        {
          "internalType": "address",
          "name": "",
          "type": "address"
        }
      ],
      "payable": false,
      "stateMutability": "view",
      "type": "function"
    },
    {
      "constant": true,
      "inputs": [],
      "name": "yTUSD",
      "outputs": [
        {
          "internalType": "address",
          "name": "",
          "type": "address"
        }
      ],
      "payable": false,
      "stateMutability": "view",
      "type": "function"
    },
    {
      "constant": true,
      "inputs": [],
      "name": "yUSDC",
      "outputs": [
        {
          "internalType": "address",
          "name": "",
          "type": "address"
        }
      ],
      "payable": false,
      "stateMutability": "view",
      "type": "function"
    },
    {
      "constant": true,
      "inputs": [],
      "name": "yUSDT",
      "outputs": [
        {
          "internalType": "address",
          "name": "",
          "type": "address"
        }
      ],
      "payable": false,
      "stateMutability": "view",
      "type": "function"
    },
    {
      "constant": false,
      "inputs": [],
      "name": "approveToken",
      "outputs": [],
      "payable": false,
      "stateMutability": "nonpayable",
      "type": "function"
    },
    {
      "constant": false,
      "inputs": [
        {
          "internalType": "uint256",
          "name": "_amount",
          "type": "uint256"
        }
      ],
      "name": "depositDAI",
      "outputs": [],
      "payable": false,
      "stateMutability": "nonpayable",
      "type": "function"
    },
    {
      "constant": false,
      "inputs": [
        {
          "internalType": "uint256",
          "name": "_amount",
          "type": "uint256"
        }
      ],
      "name": "depositUSDC",
      "outputs": [],
      "payable": false,
      "stateMutability": "nonpayable",
      "type": "function"
    },
    {
      "constant": false,
      "inputs": [
        {
          "internalType": "uint256",
          "name": "_amount",
          "type": "uint256"
        }
      ],
      "name": "depositUSDT",
      "outputs": [],
      "payable": false,
      "stateMutability": "nonpayable",
      "type": "function"
    },
    {
      "constant": false,
      "inputs": [
        {
          "internalType": "uint256",
          "name": "_amount",
          "type": "uint256"
        }
      ],
      "name": "depositTUSD",
      "outputs": [],
      "payable": false,
      "stateMutability": "nonpayable",
      "type": "function"
    },
    {
      "constant": false,
      "inputs": [
        {
          "internalType": "uint256",
          "name": "_amount",
          "type": "uint256"
        }
      ],
      "name": "withdrawDAI",
      "outputs": [],
      "payable": false,
      "stateMutability": "nonpayable",
      "type": "function"
    },
    {
      "constant": false,
      "inputs": [
        {
          "internalType": "uint256",
          "name": "_amount",
          "type": "uint256"
        }
      ],
      "name": "withdrawUSDC",
      "outputs": [],
      "payable": false,
      "stateMutability": "nonpayable",
      "type": "function"
    },
    {
      "constant": false,
      "inputs": [
        {
          "internalType": "uint256",
          "name": "_amount",
          "type": "uint256"
        }
      ],
      "name": "withdrawUSDT",
      "outputs": [],
      "payable": false,
      "stateMutability": "nonpayable",
      "type": "function"
    },
    {
      "constant": false,
      "inputs": [
        {
          "internalType": "uint256",
          "name": "_amount",
          "type": "uint256"
        }
      ],
      "name": "withdrawTUSD",
      "outputs": [],
      "payable": false,
      "stateMutability": "nonpayable",
      "type": "function"
    },
    {
      "constant": false,
      "inputs": [
        {
          "internalType": "contract IERC20",
          "name": "_TokenAddress",
          "type": "address"
        }
      ],
      "name": "inCaseTokenGetsStuck",
      "outputs": [],
      "payable": false,
      "stateMutability": "nonpayable",
      "type": "function"
    },
    {
      "constant": false,
      "inputs": [],
      "name": "inCaseETHGetsStuck",
      "outputs": [],
      "payable": false,
      "stateMutability": "nonpayable",
      "type": "function"
    }
  ],
  "bytecode": "0x60806040523480156200001157600080fd5b5060016000819055506200002a6200044a60201b60201c565b600160006101000a81548173ffffffffffffffffffffffffffffffffffffffff021916908373ffffffffffffffffffffffffffffffffffffffff160217905550600160009054906101000a900473ffffffffffffffffffffffffffffffffffffffff1673ffffffffffffffffffffffffffffffffffffffff16600073ffffffffffffffffffffffffffffffffffffffff167f8be0079c531659141344cd1fd0a4f28419497f9722a3daafe3b4186f6b6457e060405160405180910390a3736b175474e89094c44da98b954eedeac495271d0f600260006101000a81548173ffffffffffffffffffffffffffffffffffffffff021916908373ffffffffffffffffffffffffffffffffffffffff1602179055507316de59092dae5ccf4a1e6439d611fd0653f0bd01600360006101000a81548173ffffffffffffffffffffffffffffffffffffffff021916908373ffffffffffffffffffffffffffffffffffffffff16021790555073a0b86991c6218b36c1d19d4a2e9eb0ce3606eb48600460006101000a81548173ffffffffffffffffffffffffffffffffffffffff021916908373ffffffffffffffffffffffffffffffffffffffff16021790555073d6ad7a6750a7593e092a9b218d66c0a814a3436e600560006101000a81548173ffffffffffffffffffffffffffffffffffffffff021916908373ffffffffffffffffffffffffffffffffffffffff16021790555073dac17f958d2ee523a2206206994597c13d831ec7600660006101000a81548173ffffffffffffffffffffffffffffffffffffffff021916908373ffffffffffffffffffffffffffffffffffffffff1602179055507383f798e925bcd4017eb265844fddabb448f1707d600760006101000a81548173ffffffffffffffffffffffffffffffffffffffff021916908373ffffffffffffffffffffffffffffffffffffffff1602179055506e085d4780b73119b644ae5ecd22b376600860006101000a81548173ffffffffffffffffffffffffffffffffffffffff021916908373ffffffffffffffffffffffffffffffffffffffff1602179055507373a052500105205d34daf004eab301916da8190f600960006101000a81548173ffffffffffffffffffffffffffffffffffffffff021916908373ffffffffffffffffffffffffffffffffffffffff1602179055507345f783cce6b7ff23b2ab2d70e416cdb7d6055f51600a60006101000a81548173ffffffffffffffffffffffffffffffffffffffff021916908373ffffffffffffffffffffffffffffffffffffffff16021790555073df5e0e81dff6faf3a7e52ba697820c5e32d806a8600b60006101000a81548173ffffffffffffffffffffffffffffffffffffffff021916908373ffffffffffffffffffffffffffffffffffffffff160217905550620004446200045260201b60201c565b62001073565b600033905090565b620004e8600360009054906101000a900473ffffffffffffffffffffffffffffffffffffffff167fffffffffffffffffffffffffffffffffffffffffffffffffffffffffffffffff600260009054906101000a900473ffffffffffffffffffffffffffffffffffffffff1673ffffffffffffffffffffffffffffffffffffffff166200090460201b62003fd2179092919060201c565b6200057e600a60009054906101000a900473ffffffffffffffffffffffffffffffffffffffff167fffffffffffffffffffffffffffffffffffffffffffffffffffffffffffffffff600360009054906101000a900473ffffffffffffffffffffffffffffffffffffffff1673ffffffffffffffffffffffffffffffffffffffff166200090460201b62003fd2179092919060201c565b62000614600560009054906101000a900473ffffffffffffffffffffffffffffffffffffffff167fffffffffffffffffffffffffffffffffffffffffffffffffffffffffffffffff600460009054906101000a900473ffffffffffffffffffffffffffffffffffffffff1673ffffffffffffffffffffffffffffffffffffffff166200090460201b62003fd2179092919060201c565b620006aa600a60009054906101000a900473ffffffffffffffffffffffffffffffffffffffff167fffffffffffffffffffffffffffffffffffffffffffffffffffffffffffffffff600560009054906101000a900473ffffffffffffffffffffffffffffffffffffffff1673ffffffffffffffffffffffffffffffffffffffff166200090460201b62003fd2179092919060201c565b62000740600760009054906101000a900473ffffffffffffffffffffffffffffffffffffffff167fffffffffffffffffffffffffffffffffffffffffffffffffffffffffffffffff600660009054906101000a900473ffffffffffffffffffffffffffffffffffffffff1673ffffffffffffffffffffffffffffffffffffffff166200090460201b62003fd2179092919060201c565b620007d6600a60009054906101000a900473ffffffffffffffffffffffffffffffffffffffff167fffffffffffffffffffffffffffffffffffffffffffffffffffffffffffffffff600760009054906101000a900473ffffffffffffffffffffffffffffffffffffffff1673ffffffffffffffffffffffffffffffffffffffff166200090460201b62003fd2179092919060201c565b6200086c600960009054906101000a900473ffffffffffffffffffffffffffffffffffffffff167fffffffffffffffffffffffffffffffffffffffffffffffffffffffffffffffff600860009054906101000a900473ffffffffffffffffffffffffffffffffffffffff1673ffffffffffffffffffffffffffffffffffffffff166200090460201b62003fd2179092919060201c565b62000902600a60009054906101000a900473ffffffffffffffffffffffffffffffffffffffff167fffffffffffffffffffffffffffffffffffffffffffffffffffffffffffffffff600960009054906101000a900473ffffffffffffffffffffffffffffffffffffffff1673ffffffffffffffffffffffffffffffffffffffff166200090460201b62003fd2179092919060201c565b565b6000811480620009a4575060008373ffffffffffffffffffffffffffffffffffffffff1663dd62ed3e30856040518363ffffffff1660e01b81526004016200094e92919062000eb6565b60206040518083038186803b1580156200096757600080fd5b505afa1580156200097c573d6000803e3d6000fd5b505050506040513d601f19601f82011682018060405250620009a2919081019062000cc4565b145b620009e6576040517f08c379a0000000000000000000000000000000000000000000000000000000008152600401620009dd9062000f54565b60405180910390fd5b62000a8a838473ffffffffffffffffffffffffffffffffffffffff1663095ea7b3905060e01b848460405160240162000a2192919062000ee3565b604051602081830303815290604052907bffffffffffffffffffffffffffffffffffffffffffffffffffffffff19166020820180517bffffffffffffffffffffffffffffffffffffffffffffffffffffffff838183161783525050505062000a8f60201b60201c565b505050565b62000abb8273ffffffffffffffffffffffffffffffffffffffff1662000c1e60201b620043eb1760201c565b62000afd576040517f08c379a000000000000000000000000000000000000000000000000000000000815260040162000af49062000f76565b60405180910390fd5b600060608373ffffffffffffffffffffffffffffffffffffffff168360405162000b28919062000e9d565b6000604051808303816000865af19150503d806000811462000b67576040519150601f19603f3d011682016040523d82523d6000602084013e62000b6c565b606091505b50915091508162000bb4576040517f08c379a000000000000000000000000000000000000000000000000000000000815260040162000bab9062000f10565b60405180910390fd5b60008151111562000c18578080602001905162000bd5919081019062000c98565b62000c17576040517f08c379a000000000000000000000000000000000000000000000000000000000815260040162000c0e9062000f32565b60405180910390fd5b5b50505050565b60008060007fc5d2460186f7233c927e7db2dcc703c0e500b653ca82273b7bfad8045d85a47060001b9050833f91506000801b821415801562000c615750808214155b92505050919050565b60008151905062000c7b816200103f565b92915050565b60008151905062000c928162001059565b92915050565b60006020828403121562000cab57600080fd5b600062000cbb8482850162000c6a565b91505092915050565b60006020828403121562000cd757600080fd5b600062000ce78482850162000c81565b91505092915050565b62000cfb8162000fbf565b82525050565b600062000d0e8262000f98565b62000d1a818562000fa3565b935062000d2c81856020860162001009565b80840191505092915050565b600062000d4760208362000fae565b91507f5361666545524332303a206c6f772d6c6576656c2063616c6c206661696c65646000830152602082019050919050565b600062000d89602a8362000fae565b91507f5361666545524332303a204552433230206f7065726174696f6e20646964206e60008301527f6f742073756363656564000000000000000000000000000000000000000000006020830152604082019050919050565b600062000df160368362000fae565b91507f5361666545524332303a20617070726f76652066726f6d206e6f6e2d7a65726f60008301527f20746f206e6f6e2d7a65726f20616c6c6f77616e6365000000000000000000006020830152604082019050919050565b600062000e59601f8362000fae565b91507f5361666545524332303a2063616c6c20746f206e6f6e2d636f6e7472616374006000830152602082019050919050565b62000e978162000fff565b82525050565b600062000eab828462000d01565b915081905092915050565b600060408201905062000ecd600083018562000cf0565b62000edc602083018462000cf0565b9392505050565b600060408201905062000efa600083018562000cf0565b62000f09602083018462000e8c565b9392505050565b6000602082019050818103600083015262000f2b8162000d38565b9050919050565b6000602082019050818103600083015262000f4d8162000d7a565b9050919050565b6000602082019050818103600083015262000f6f8162000de2565b9050919050565b6000602082019050818103600083015262000f918162000e4a565b9050919050565b600081519050919050565b600081905092915050565b600082825260208201905092915050565b600062000fcc8262000fdf565b9050919050565b60008115159050919050565b600073ffffffffffffffffffffffffffffffffffffffff82169050919050565b6000819050919050565b60005b83811015620010295780820151818401526020810190506200100c565b8381111562001039576000848401525b50505050565b6200104a8162000fd3565b81146200105657600080fd5b50565b620010648162000fff565b81146200107057600080fd5b50565b614ead80620010836000396000f3fe6080604052600436106101665760003560e01c80638da5cb5b116100d1578063db81f99b1161008a578063e7c80f1711610064578063e7c80f17146104b9578063f2fde38b146104e2578063f60a15ed1461050b578063f688bcfb1461052257610166565b8063db81f99b1461043a578063e0bab4c414610463578063e31ff1be1461048e57610166565b80638da5cb5b146103505780638f32d59b1461037b57806399b71d5c146103a65780639add7438146103bd578063a62281ed146103e6578063c54e44eb1461040f57610166565b80633ea521ef116101235780633ea521ef146102665780635c531d6a1461028f578063715018a6146102b8578063756bb1cc146102cf5780638323550b146102fa57806389a302711461032557610166565b806304d841081461016857806317e5a9a41461019357806319d9e008146101be5780632e8d6e18146101e9578063365833e1146102125780633a3c3b871461023b575b005b34801561017457600080fd5b5061017d61054b565b60405161018a9190614a1e565b60405180910390f35b34801561019f57600080fd5b506101a8610571565b6040516101b59190614a1e565b60405180910390f35b3480156101ca57600080fd5b506101d3610597565b6040516101e09190614a1e565b60405180910390f35b3480156101f557600080fd5b50610210600480360361020b91908101906144f1565b6105bd565b005b34801561021e57600080fd5b506102396004803603610234919081019061451a565b6106c0565b005b34801561024757600080fd5b50610250610d58565b60405161025d9190614a1e565b60405180910390f35b34801561027257600080fd5b5061028d6004803603610288919081019061451a565b610d7e565b005b34801561029b57600080fd5b506102b660048036036102b1919081019061451a565b6112bb565b005b3480156102c457600080fd5b506102cd6117f8565b005b3480156102db57600080fd5b506102e4611900565b6040516102f19190614a1e565b60405180910390f35b34801561030657600080fd5b5061030f611926565b60405161031c9190614a1e565b60405180910390f35b34801561033157600080fd5b5061033a61194c565b6040516103479190614a1e565b60405180910390f35b34801561035c57600080fd5b50610365611972565b6040516103729190614a1e565b60405180910390f35b34801561038757600080fd5b5061039061199c565b60405161039d9190614b2f565b60405180910390f35b3480156103b257600080fd5b506103bb6119fb565b005b3480156103c957600080fd5b506103e460048036036103df919081019061451a565b611e75565b005b3480156103f257600080fd5b5061040d6004803603610408919081019061451a565b6123b2565b005b34801561041b57600080fd5b50610424612a4a565b6040516104319190614a1e565b60405180910390f35b34801561044657600080fd5b50610461600480360361045c919081019061451a565b612a70565b005b34801561046f57600080fd5b50610478612fad565b6040516104859190614a1e565b60405180910390f35b34801561049a57600080fd5b506104a3612fd3565b6040516104b09190614a1e565b60405180910390f35b3480156104c557600080fd5b506104e060048036036104db919081019061451a565b612ff9565b005b3480156104ee57600080fd5b506105096004803603610504919081019061449f565b613691565b005b34801561051757600080fd5b506105206136e4565b005b34801561052e57600080fd5b506105496004803603610544919081019061451a565b6137f1565b005b600a60009054906101000a900473ffffffffffffffffffffffffffffffffffffffff1681565b600760009054906101000a900473ffffffffffffffffffffffffffffffffffffffff1681565b600560009054906101000a900473ffffffffffffffffffffffffffffffffffffffff1681565b6105c561199c565b610604576040517f08c379a00000000000000000000000000000000000000000000000000000000081526004016105fb90614c0a565b60405180910390fd5b60008173ffffffffffffffffffffffffffffffffffffffff166370a08231306040518263ffffffff1660e01b815260040161063f9190614a39565b60206040518083038186803b15801561065757600080fd5b505afa15801561066b573d6000803e3d6000fd5b505050506040513d601f19601f8201168201806040525061068f9190810190614543565b90506106bc33828473ffffffffffffffffffffffffffffffffffffffff16613e899092919063ffffffff16565b5050565b6001600080828254019250508190555060008054905060008211610719576040517f08c379a000000000000000000000000000000000000000000000000000000000815260040161071090614c2a565b60405180910390fd5b610768333084600260009054906101000a900473ffffffffffffffffffffffffffffffffffffffff1673ffffffffffffffffffffffffffffffffffffffff16613f28909392919063ffffffff16565b600360009054906101000a900473ffffffffffffffffffffffffffffffffffffffff1673ffffffffffffffffffffffffffffffffffffffff1663b6b55f25836040518263ffffffff1660e01b81526004016107c39190614cca565b600060405180830381600087803b1580156107dd57600080fd5b505af11580156107f1573d6000803e3d6000fd5b505050506000600260009054906101000a900473ffffffffffffffffffffffffffffffffffffffff1673ffffffffffffffffffffffffffffffffffffffff166370a08231306040518263ffffffff1660e01b81526004016108529190614a39565b60206040518083038186803b15801561086a57600080fd5b505afa15801561087e573d6000803e3d6000fd5b505050506040513d601f19601f820116820180604052506108a29190810190614543565b146108e2576040517f08c379a00000000000000000000000000000000000000000000000000000000081526004016108d990614b6a565b60405180910390fd5b600a60009054906101000a900473ffffffffffffffffffffffffffffffffffffffff1673ffffffffffffffffffffffffffffffffffffffff1663029b2f346040518060800160405280600360009054906101000a900473ffffffffffffffffffffffffffffffffffffffff1673ffffffffffffffffffffffffffffffffffffffff166370a08231306040518263ffffffff1660e01b81526004016109869190614a39565b60206040518083038186803b15801561099e57600080fd5b505afa1580156109b2573d6000803e3d6000fd5b505050506040513d601f19601f820116820180604052506109d69190810190614543565b81526020016000815260200160008152602001600081525060006040518363ffffffff1660e01b8152600401610a0d929190614add565b600060405180830381600087803b158015610a2757600080fd5b505af1158015610a3b573d6000803e3d6000fd5b505050506000600360009054906101000a900473ffffffffffffffffffffffffffffffffffffffff1673ffffffffffffffffffffffffffffffffffffffff166370a08231306040518263ffffffff1660e01b8152600401610a9c9190614a39565b60206040518083038186803b158015610ab457600080fd5b505afa158015610ac8573d6000803e3d6000fd5b505050506040513d601f19601f82011682018060405250610aec9190810190614543565b14610b2c576040517f08c379a0000000000000000000000000000000000000000000000000000000008152600401610b2390614baa565b60405180910390fd5b610c2333600b60009054906101000a900473ffffffffffffffffffffffffffffffffffffffff1673ffffffffffffffffffffffffffffffffffffffff166370a08231306040518263ffffffff1660e01b8152600401610b8b9190614a39565b60206040518083038186803b158015610ba357600080fd5b505afa158015610bb7573d6000803e3d6000fd5b505050506040513d601f19601f82011682018060405250610bdb9190810190614543565b600b60009054906101000a900473ffffffffffffffffffffffffffffffffffffffff1673ffffffffffffffffffffffffffffffffffffffff16613e899092919063ffffffff16565b6000600b60009054906101000a900473ffffffffffffffffffffffffffffffffffffffff1673ffffffffffffffffffffffffffffffffffffffff166370a08231306040518263ffffffff1660e01b8152600401610c809190614a39565b60206040518083038186803b158015610c9857600080fd5b505afa158015610cac573d6000803e3d6000fd5b505050506040513d601f19601f82011682018060405250610cd09190810190614543565b14610d10576040517f08c379a0000000000000000000000000000000000000000000000000000000008152600401610d0790614bea565b60405180910390fd5b6000548114610d54576040517f08c379a0000000000000000000000000000000000000000000000000000000008152600401610d4b90614c6a565b60405180910390fd5b5050565b600b60009054906101000a900473ffffffffffffffffffffffffffffffffffffffff1681565b6001600080828254019250508190555060008054905060008211610dd7576040517f08c379a0000000000000000000000000000000000000000000000000000000008152600401610dce90614c2a565b60405180910390fd5b610e26333084600b60009054906101000a900473ffffffffffffffffffffffffffffffffffffffff1673ffffffffffffffffffffffffffffffffffffffff16613f28909392919063ffffffff16565b600a60009054906101000a900473ffffffffffffffffffffffffffffffffffffffff1673ffffffffffffffffffffffffffffffffffffffff166318a7bd7660405180608001604052806000815260200160008152602001600b60009054906101000a900473ffffffffffffffffffffffffffffffffffffffff1673ffffffffffffffffffffffffffffffffffffffff166370a08231306040518263ffffffff1660e01b8152600401610ed89190614a39565b60206040518083038186803b158015610ef057600080fd5b505afa158015610f04573d6000803e3d6000fd5b505050506040513d601f19601f82011682018060405250610f289190810190614543565b815260200160008152507fffffffffffffffffffffffffffffffffffffffffffffffffffffffffffffffff6040518363ffffffff1660e01b8152600401610f70929190614b06565b600060405180830381600087803b158015610f8a57600080fd5b505af1158015610f9e573d6000803e3d6000fd5b505050506000600b60009054906101000a900473ffffffffffffffffffffffffffffffffffffffff1673ffffffffffffffffffffffffffffffffffffffff166370a08231306040518263ffffffff1660e01b8152600401610fff9190614a39565b60206040518083038186803b15801561101757600080fd5b505afa15801561102b573d6000803e3d6000fd5b505050506040513d601f19601f8201168201806040525061104f9190810190614543565b1461108f576040517f08c379a000000000000000000000000000000000000000000000000000000000815260040161108690614bea565b60405180910390fd5b61118633600760009054906101000a900473ffffffffffffffffffffffffffffffffffffffff1673ffffffffffffffffffffffffffffffffffffffff166370a08231306040518263ffffffff1660e01b81526004016110ee9190614a39565b60206040518083038186803b15801561110657600080fd5b505afa15801561111a573d6000803e3d6000fd5b505050506040513d601f19601f8201168201806040525061113e9190810190614543565b600760009054906101000a900473ffffffffffffffffffffffffffffffffffffffff1673ffffffffffffffffffffffffffffffffffffffff16613e899092919063ffffffff16565b6000600760009054906101000a900473ffffffffffffffffffffffffffffffffffffffff1673ffffffffffffffffffffffffffffffffffffffff166370a08231306040518263ffffffff1660e01b81526004016111e39190614a39565b60206040518083038186803b1580156111fb57600080fd5b505afa15801561120f573d6000803e3d6000fd5b505050506040513d601f19601f820116820180604052506112339190810190614543565b14611273576040517f08c379a000000000000000000000000000000000000000000000000000000000815260040161126a90614baa565b60405180910390fd5b60005481146112b7576040517f08c379a00000000000000000000000000000000000000000000000000000000081526004016112ae90614c6a565b60405180910390fd5b5050565b6001600080828254019250508190555060008054905060008211611314576040517f08c379a000000000000000000000000000000000000000000000000000000000815260040161130b90614c2a565b60405180910390fd5b611363333084600b60009054906101000a900473ffffffffffffffffffffffffffffffffffffffff1673ffffffffffffffffffffffffffffffffffffffff16613f28909392919063ffffffff16565b600a60009054906101000a900473ffffffffffffffffffffffffffffffffffffffff1673ffffffffffffffffffffffffffffffffffffffff166318a7bd766040518060800160405280600081526020016000815260200160008152602001600b60009054906101000a900473ffffffffffffffffffffffffffffffffffffffff1673ffffffffffffffffffffffffffffffffffffffff166370a08231306040518263ffffffff1660e01b815260040161141c9190614a39565b60206040518083038186803b15801561143457600080fd5b505afa158015611448573d6000803e3d6000fd5b505050506040513d601f19601f8201168201806040525061146c9190810190614543565b8152507fffffffffffffffffffffffffffffffffffffffffffffffffffffffffffffffff6040518363ffffffff1660e01b81526004016114ad929190614b06565b600060405180830381600087803b1580156114c757600080fd5b505af11580156114db573d6000803e3d6000fd5b505050506000600b60009054906101000a900473ffffffffffffffffffffffffffffffffffffffff1673ffffffffffffffffffffffffffffffffffffffff166370a08231306040518263ffffffff1660e01b815260040161153c9190614a39565b60206040518083038186803b15801561155457600080fd5b505afa158015611568573d6000803e3d6000fd5b505050506040513d601f19601f8201168201806040525061158c9190810190614543565b146115cc576040517f08c379a00000000000000000000000000000000000000000000000000000000081526004016115c390614bea565b60405180910390fd5b6116c333600760009054906101000a900473ffffffffffffffffffffffffffffffffffffffff1673ffffffffffffffffffffffffffffffffffffffff166370a08231306040518263ffffffff1660e01b815260040161162b9190614a39565b60206040518083038186803b15801561164357600080fd5b505afa158015611657573d6000803e3d6000fd5b505050506040513d601f19601f8201168201806040525061167b9190810190614543565b600960009054906101000a900473ffffffffffffffffffffffffffffffffffffffff1673ffffffffffffffffffffffffffffffffffffffff16613e899092919063ffffffff16565b6000600960009054906101000a900473ffffffffffffffffffffffffffffffffffffffff1673ffffffffffffffffffffffffffffffffffffffff166370a08231306040518263ffffffff1660e01b81526004016117209190614a39565b60206040518083038186803b15801561173857600080fd5b505afa15801561174c573d6000803e3d6000fd5b505050506040513d601f19601f820116820180604052506117709190810190614543565b146117b0576040517f08c379a00000000000000000000000000000000000000000000000000000000081526004016117a790614baa565b60405180910390fd5b60005481146117f4576040517f08c379a00000000000000000000000000000000000000000000000000000000081526004016117eb90614c6a565b60405180910390fd5b5050565b61180061199c565b61183f576040517f08c379a000000000000000000000000000000000000000000000000000000000815260040161183690614c0a565b60405180910390fd5b600073ffffffffffffffffffffffffffffffffffffffff16600160009054906101000a900473ffffffffffffffffffffffffffffffffffffffff1673ffffffffffffffffffffffffffffffffffffffff167f8be0079c531659141344cd1fd0a4f28419497f9722a3daafe3b4186f6b6457e060405160405180910390a36000600160006101000a81548173ffffffffffffffffffffffffffffffffffffffff021916908373ffffffffffffffffffffffffffffffffffffffff160217905550565b600360009054906101000a900473ffffffffffffffffffffffffffffffffffffffff1681565b600860009054906101000a900473ffffffffffffffffffffffffffffffffffffffff1681565b600460009054906101000a900473ffffffffffffffffffffffffffffffffffffffff1681565b6000600160009054906101000a900473ffffffffffffffffffffffffffffffffffffffff16905090565b6000600160009054906101000a900473ffffffffffffffffffffffffffffffffffffffff1673ffffffffffffffffffffffffffffffffffffffff166119df613fca565b73ffffffffffffffffffffffffffffffffffffffff1614905090565b611a8a600360009054906101000a900473ffffffffffffffffffffffffffffffffffffffff167fffffffffffffffffffffffffffffffffffffffffffffffffffffffffffffffff600260009054906101000a900473ffffffffffffffffffffffffffffffffffffffff1673ffffffffffffffffffffffffffffffffffffffff16613fd29092919063ffffffff16565b611b19600a60009054906101000a900473ffffffffffffffffffffffffffffffffffffffff167fffffffffffffffffffffffffffffffffffffffffffffffffffffffffffffffff600360009054906101000a900473ffffffffffffffffffffffffffffffffffffffff1673ffffffffffffffffffffffffffffffffffffffff16613fd29092919063ffffffff16565b611ba8600560009054906101000a900473ffffffffffffffffffffffffffffffffffffffff167fffffffffffffffffffffffffffffffffffffffffffffffffffffffffffffffff600460009054906101000a900473ffffffffffffffffffffffffffffffffffffffff1673ffffffffffffffffffffffffffffffffffffffff16613fd29092919063ffffffff16565b611c37600a60009054906101000a900473ffffffffffffffffffffffffffffffffffffffff167fffffffffffffffffffffffffffffffffffffffffffffffffffffffffffffffff600560009054906101000a900473ffffffffffffffffffffffffffffffffffffffff1673ffffffffffffffffffffffffffffffffffffffff16613fd29092919063ffffffff16565b611cc6600760009054906101000a900473ffffffffffffffffffffffffffffffffffffffff167fffffffffffffffffffffffffffffffffffffffffffffffffffffffffffffffff600660009054906101000a900473ffffffffffffffffffffffffffffffffffffffff1673ffffffffffffffffffffffffffffffffffffffff16613fd29092919063ffffffff16565b611d55600a60009054906101000a900473ffffffffffffffffffffffffffffffffffffffff167fffffffffffffffffffffffffffffffffffffffffffffffffffffffffffffffff600760009054906101000a900473ffffffffffffffffffffffffffffffffffffffff1673ffffffffffffffffffffffffffffffffffffffff16613fd29092919063ffffffff16565b611de4600960009054906101000a900473ffffffffffffffffffffffffffffffffffffffff167fffffffffffffffffffffffffffffffffffffffffffffffffffffffffffffffff600860009054906101000a900473ffffffffffffffffffffffffffffffffffffffff1673ffffffffffffffffffffffffffffffffffffffff16613fd29092919063ffffffff16565b611e73600a60009054906101000a900473ffffffffffffffffffffffffffffffffffffffff167fffffffffffffffffffffffffffffffffffffffffffffffffffffffffffffffff600960009054906101000a900473ffffffffffffffffffffffffffffffffffffffff1673ffffffffffffffffffffffffffffffffffffffff16613fd29092919063ffffffff16565b565b6001600080828254019250508190555060008054905060008211611ece576040517f08c379a0000000000000000000000000000000000000000000000000000000008152600401611ec590614c2a565b60405180910390fd5b611f1d333084600b60009054906101000a900473ffffffffffffffffffffffffffffffffffffffff1673ffffffffffffffffffffffffffffffffffffffff16613f28909392919063ffffffff16565b600a60009054906101000a900473ffffffffffffffffffffffffffffffffffffffff1673ffffffffffffffffffffffffffffffffffffffff166318a7bd766040518060800160405280600b60009054906101000a900473ffffffffffffffffffffffffffffffffffffffff1673ffffffffffffffffffffffffffffffffffffffff166370a08231306040518263ffffffff1660e01b8152600401611fc19190614a39565b60206040518083038186803b158015611fd957600080fd5b505afa158015611fed573d6000803e3d6000fd5b505050506040513d601f19601f820116820180604052506120119190810190614543565b8152602001600081526020016000815260200160008152507fffffffffffffffffffffffffffffffffffffffffffffffffffffffffffffffff6040518363ffffffff1660e01b8152600401612067929190614b06565b600060405180830381600087803b15801561208157600080fd5b505af1158015612095573d6000803e3d6000fd5b505050506000600b60009054906101000a900473ffffffffffffffffffffffffffffffffffffffff1673ffffffffffffffffffffffffffffffffffffffff166370a08231306040518263ffffffff1660e01b81526004016120f69190614a39565b60206040518083038186803b15801561210e57600080fd5b505afa158015612122573d6000803e3d6000fd5b505050506040513d601f19601f820116820180604052506121469190810190614543565b14612186576040517f08c379a000000000000000000000000000000000000000000000000000000000815260040161217d90614bea565b60405180910390fd5b61227d33600360009054906101000a900473ffffffffffffffffffffffffffffffffffffffff1673ffffffffffffffffffffffffffffffffffffffff166370a08231306040518263ffffffff1660e01b81526004016121e59190614a39565b60206040518083038186803b1580156121fd57600080fd5b505afa158015612211573d6000803e3d6000fd5b505050506040513d601f19601f820116820180604052506122359190810190614543565b600360009054906101000a900473ffffffffffffffffffffffffffffffffffffffff1673ffffffffffffffffffffffffffffffffffffffff16613e899092919063ffffffff16565b6000600360009054906101000a900473ffffffffffffffffffffffffffffffffffffffff1673ffffffffffffffffffffffffffffffffffffffff166370a08231306040518263ffffffff1660e01b81526004016122da9190614a39565b60206040518083038186803b1580156122f257600080fd5b505afa158015612306573d6000803e3d6000fd5b505050506040513d601f19601f8201168201806040525061232a9190810190614543565b1461236a576040517f08c379a000000000000000000000000000000000000000000000000000000000815260040161236190614baa565b60405180910390fd5b60005481146123ae576040517f08c379a00000000000000000000000000000000000000000000000000000000081526004016123a590614c6a565b60405180910390fd5b5050565b600160008082825401925050819055506000805490506000821161240b576040517f08c379a000000000000000000000000000000000000000000000000000000000815260040161240290614c2a565b60405180910390fd5b61245a333084600860009054906101000a900473ffffffffffffffffffffffffffffffffffffffff1673ffffffffffffffffffffffffffffffffffffffff16613f28909392919063ffffffff16565b600960009054906101000a900473ffffffffffffffffffffffffffffffffffffffff1673ffffffffffffffffffffffffffffffffffffffff1663b6b55f25836040518263ffffffff1660e01b81526004016124b59190614cca565b600060405180830381600087803b1580156124cf57600080fd5b505af11580156124e3573d6000803e3d6000fd5b505050506000600860009054906101000a900473ffffffffffffffffffffffffffffffffffffffff1673ffffffffffffffffffffffffffffffffffffffff166370a08231306040518263ffffffff1660e01b81526004016125449190614a39565b60206040518083038186803b15801561255c57600080fd5b505afa158015612570573d6000803e3d6000fd5b505050506040513d601f19601f820116820180604052506125949190810190614543565b146125d4576040517f08c379a00000000000000000000000000000000000000000000000000000000081526004016125cb90614b6a565b60405180910390fd5b600a60009054906101000a900473ffffffffffffffffffffffffffffffffffffffff1673ffffffffffffffffffffffffffffffffffffffff1663029b2f346040518060800160405280600081526020016000815260200160008152602001600960009054906101000a900473ffffffffffffffffffffffffffffffffffffffff1673ffffffffffffffffffffffffffffffffffffffff166370a08231306040518263ffffffff1660e01b815260040161268d9190614a39565b60206040518083038186803b1580156126a557600080fd5b505afa1580156126b9573d6000803e3d6000fd5b505050506040513d601f19601f820116820180604052506126dd9190810190614543565b81525060006040518363ffffffff1660e01b81526004016126ff929190614add565b600060405180830381600087803b15801561271957600080fd5b505af115801561272d573d6000803e3d6000fd5b505050506000600960009054906101000a900473ffffffffffffffffffffffffffffffffffffffff1673ffffffffffffffffffffffffffffffffffffffff166370a08231306040518263ffffffff1660e01b815260040161278e9190614a39565b60206040518083038186803b1580156127a657600080fd5b505afa1580156127ba573d6000803e3d6000fd5b505050506040513d601f19601f820116820180604052506127de9190810190614543565b1461281e576040517f08c379a000000000000000000000000000000000000000000000000000000000815260040161281590614baa565b60405180910390fd5b61291533600b60009054906101000a900473ffffffffffffffffffffffffffffffffffffffff1673ffffffffffffffffffffffffffffffffffffffff166370a08231306040518263ffffffff1660e01b815260040161287d9190614a39565b60206040518083038186803b15801561289557600080fd5b505afa1580156128a9573d6000803e3d6000fd5b505050506040513d601f19601f820116820180604052506128cd9190810190614543565b600b60009054906101000a900473ffffffffffffffffffffffffffffffffffffffff1673ffffffffffffffffffffffffffffffffffffffff16613e899092919063ffffffff16565b6000600b60009054906101000a900473ffffffffffffffffffffffffffffffffffffffff1673ffffffffffffffffffffffffffffffffffffffff166370a08231306040518263ffffffff1660e01b81526004016129729190614a39565b60206040518083038186803b15801561298a57600080fd5b505afa15801561299e573d6000803e3d6000fd5b505050506040513d601f19601f820116820180604052506129c29190810190614543565b14612a02576040517f08c379a00000000000000000000000000000000000000000000000000000000081526004016129f990614bea565b60405180910390fd5b6000548114612a46576040517f08c379a0000000000000000000000000000000000000000000000000000000008152600401612a3d90614c6a565b60405180910390fd5b5050565b600660009054906101000a900473ffffffffffffffffffffffffffffffffffffffff1681565b6001600080828254019250508190555060008054905060008211612ac9576040517f08c379a0000000000000000000000000000000000000000000000000000000008152600401612ac090614c2a565b60405180910390fd5b612b18333084600b60009054906101000a900473ffffffffffffffffffffffffffffffffffffffff1673ffffffffffffffffffffffffffffffffffffffff16613f28909392919063ffffffff16565b600a60009054906101000a900473ffffffffffffffffffffffffffffffffffffffff1673ffffffffffffffffffffffffffffffffffffffff166318a7bd76604051806080016040528060008152602001600b60009054906101000a900473ffffffffffffffffffffffffffffffffffffffff1673ffffffffffffffffffffffffffffffffffffffff166370a08231306040518263ffffffff1660e01b8152600401612bc39190614a39565b60206040518083038186803b158015612bdb57600080fd5b505afa158015612bef573d6000803e3d6000fd5b505050506040513d601f19601f82011682018060405250612c139190810190614543565b81526020016000815260200160008152507fffffffffffffffffffffffffffffffffffffffffffffffffffffffffffffffff6040518363ffffffff1660e01b8152600401612c62929190614b06565b600060405180830381600087803b158015612c7c57600080fd5b505af1158015612c90573d6000803e3d6000fd5b505050506000600b60009054906101000a900473ffffffffffffffffffffffffffffffffffffffff1673ffffffffffffffffffffffffffffffffffffffff166370a08231306040518263ffffffff1660e01b8152600401612cf19190614a39565b60206040518083038186803b158015612d0957600080fd5b505afa158015612d1d573d6000803e3d6000fd5b505050506040513d601f19601f82011682018060405250612d419190810190614543565b14612d81576040517f08c379a0000000000000000000000000000000000000000000000000000000008152600401612d7890614bea565b60405180910390fd5b612e7833600560009054906101000a900473ffffffffffffffffffffffffffffffffffffffff1673ffffffffffffffffffffffffffffffffffffffff166370a08231306040518263ffffffff1660e01b8152600401612de09190614a39565b60206040518083038186803b158015612df857600080fd5b505afa158015612e0c573d6000803e3d6000fd5b505050506040513d601f19601f82011682018060405250612e309190810190614543565b600560009054906101000a900473ffffffffffffffffffffffffffffffffffffffff1673ffffffffffffffffffffffffffffffffffffffff16613e899092919063ffffffff16565b6000600560009054906101000a900473ffffffffffffffffffffffffffffffffffffffff1673ffffffffffffffffffffffffffffffffffffffff166370a08231306040518263ffffffff1660e01b8152600401612ed59190614a39565b60206040518083038186803b158015612eed57600080fd5b505afa158015612f01573d6000803e3d6000fd5b505050506040513d601f19601f82011682018060405250612f259190810190614543565b14612f65576040517f08c379a0000000000000000000000000000000000000000000000000000000008152600401612f5c90614baa565b60405180910390fd5b6000548114612fa9576040517f08c379a0000000000000000000000000000000000000000000000000000000008152600401612fa090614c6a565b60405180910390fd5b5050565b600260009054906101000a900473ffffffffffffffffffffffffffffffffffffffff1681565b600960009054906101000a900473ffffffffffffffffffffffffffffffffffffffff1681565b6001600080828254019250508190555060008054905060008211613052576040517f08c379a000000000000000000000000000000000000000000000000000000000815260040161304990614c2a565b60405180910390fd5b6130a1333084600660009054906101000a900473ffffffffffffffffffffffffffffffffffffffff1673ffffffffffffffffffffffffffffffffffffffff16613f28909392919063ffffffff16565b600760009054906101000a900473ffffffffffffffffffffffffffffffffffffffff1673ffffffffffffffffffffffffffffffffffffffff1663b6b55f25836040518263ffffffff1660e01b81526004016130fc9190614cca565b600060405180830381600087803b15801561311657600080fd5b505af115801561312a573d6000803e3d6000fd5b505050506000600660009054906101000a900473ffffffffffffffffffffffffffffffffffffffff1673ffffffffffffffffffffffffffffffffffffffff166370a08231306040518263ffffffff1660e01b815260040161318b9190614a39565b60206040518083038186803b1580156131a357600080fd5b505afa1580156131b7573d6000803e3d6000fd5b505050506040513d601f19601f820116820180604052506131db9190810190614543565b1461321b576040517f08c379a000000000000000000000000000000000000000000000000000000000815260040161321290614b6a565b60405180910390fd5b600a60009054906101000a900473ffffffffffffffffffffffffffffffffffffffff1673ffffffffffffffffffffffffffffffffffffffff1663029b2f3460405180608001604052806000815260200160008152602001600760009054906101000a900473ffffffffffffffffffffffffffffffffffffffff1673ffffffffffffffffffffffffffffffffffffffff166370a08231306040518263ffffffff1660e01b81526004016132cd9190614a39565b60206040518083038186803b1580156132e557600080fd5b505afa1580156132f9573d6000803e3d6000fd5b505050506040513d601f19601f8201168201806040525061331d9190810190614543565b8152602001600081525060006040518363ffffffff1660e01b8152600401613346929190614add565b600060405180830381600087803b15801561336057600080fd5b505af1158015613374573d6000803e3d6000fd5b505050506000600760009054906101000a900473ffffffffffffffffffffffffffffffffffffffff1673ffffffffffffffffffffffffffffffffffffffff166370a08231306040518263ffffffff1660e01b81526004016133d59190614a39565b60206040518083038186803b1580156133ed57600080fd5b505afa158015613401573d6000803e3d6000fd5b505050506040513d601f19601f820116820180604052506134259190810190614543565b14613465576040517f08c379a000000000000000000000000000000000000000000000000000000000815260040161345c90614baa565b60405180910390fd5b61355c33600b60009054906101000a900473ffffffffffffffffffffffffffffffffffffffff1673ffffffffffffffffffffffffffffffffffffffff166370a08231306040518263ffffffff1660e01b81526004016134c49190614a39565b60206040518083038186803b1580156134dc57600080fd5b505afa1580156134f0573d6000803e3d6000fd5b505050506040513d601f19601f820116820180604052506135149190810190614543565b600b60009054906101000a900473ffffffffffffffffffffffffffffffffffffffff1673ffffffffffffffffffffffffffffffffffffffff16613e899092919063ffffffff16565b6000600b60009054906101000a900473ffffffffffffffffffffffffffffffffffffffff1673ffffffffffffffffffffffffffffffffffffffff166370a08231306040518263ffffffff1660e01b81526004016135b99190614a39565b60206040518083038186803b1580156135d157600080fd5b505afa1580156135e5573d6000803e3d6000fd5b505050506040513d601f19601f820116820180604052506136099190810190614543565b14613649576040517f08c379a000000000000000000000000000000000000000000000000000000000815260040161364090614bea565b60405180910390fd5b600054811461368d576040517f08c379a000000000000000000000000000000000000000000000000000000000815260040161368490614c6a565b60405180910390fd5b5050565b61369961199c565b6136d8576040517f08c379a00000000000000000000000000000000000000000000000000000000081526004016136cf90614c0a565b60405180910390fd5b6136e181614149565b50565b6136ec61199c565b61372b576040517f08c379a000000000000000000000000000000000000000000000000000000000815260040161372290614c0a565b60405180910390fd5b60003373ffffffffffffffffffffffffffffffffffffffff163073ffffffffffffffffffffffffffffffffffffffff163160405161376890614a09565b60006040518083038185875af1925050503d80600081146137a5576040519150601f19603f3d011682016040523d82523d6000602084013e6137aa565b606091505b50509050806137ee576040517f08c379a00000000000000000000000000000000000000000000000000000000081526004016137e590614bca565b60405180910390fd5b50565b600160008082825401925050819055506000805490506000821161384a576040517f08c379a000000000000000000000000000000000000000000000000000000000815260040161384190614c2a565b60405180910390fd5b613899333084600460009054906101000a900473ffffffffffffffffffffffffffffffffffffffff1673ffffffffffffffffffffffffffffffffffffffff16613f28909392919063ffffffff16565b600560009054906101000a900473ffffffffffffffffffffffffffffffffffffffff1673ffffffffffffffffffffffffffffffffffffffff1663b6b55f25836040518263ffffffff1660e01b81526004016138f49190614cca565b600060405180830381600087803b15801561390e57600080fd5b505af1158015613922573d6000803e3d6000fd5b505050506000600460009054906101000a900473ffffffffffffffffffffffffffffffffffffffff1673ffffffffffffffffffffffffffffffffffffffff166370a08231306040518263ffffffff1660e01b81526004016139839190614a39565b60206040518083038186803b15801561399b57600080fd5b505afa1580156139af573d6000803e3d6000fd5b505050506040513d601f19601f820116820180604052506139d39190810190614543565b14613a13576040517f08c379a0000000000000000000000000000000000000000000000000000000008152600401613a0a90614b6a565b60405180910390fd5b600a60009054906101000a900473ffffffffffffffffffffffffffffffffffffffff1673ffffffffffffffffffffffffffffffffffffffff1663029b2f34604051806080016040528060008152602001600560009054906101000a900473ffffffffffffffffffffffffffffffffffffffff1673ffffffffffffffffffffffffffffffffffffffff166370a08231306040518263ffffffff1660e01b8152600401613abe9190614a39565b60206040518083038186803b158015613ad657600080fd5b505afa158015613aea573d6000803e3d6000fd5b505050506040513d601f19601f82011682018060405250613b0e9190810190614543565b815260200160008152602001600081525060006040518363ffffffff1660e01b8152600401613b3e929190614add565b600060405180830381600087803b158015613b5857600080fd5b505af1158015613b6c573d6000803e3d6000fd5b505050506000600560009054906101000a900473ffffffffffffffffffffffffffffffffffffffff1673ffffffffffffffffffffffffffffffffffffffff166370a08231306040518263ffffffff1660e01b8152600401613bcd9190614a39565b60206040518083038186803b158015613be557600080fd5b505afa158015613bf9573d6000803e3d6000fd5b505050506040513d601f19601f82011682018060405250613c1d9190810190614543565b14613c5d576040517f08c379a0000000000000000000000000000000000000000000000000000000008152600401613c5490614baa565b60405180910390fd5b613d5433600b60009054906101000a900473ffffffffffffffffffffffffffffffffffffffff1673ffffffffffffffffffffffffffffffffffffffff166370a08231306040518263ffffffff1660e01b8152600401613cbc9190614a39565b60206040518083038186803b158015613cd457600080fd5b505afa158015613ce8573d6000803e3d6000fd5b505050506040513d601f19601f82011682018060405250613d0c9190810190614543565b600b60009054906101000a900473ffffffffffffffffffffffffffffffffffffffff1673ffffffffffffffffffffffffffffffffffffffff16613e899092919063ffffffff16565b6000600b60009054906101000a900473ffffffffffffffffffffffffffffffffffffffff1673ffffffffffffffffffffffffffffffffffffffff166370a08231306040518263ffffffff1660e01b8152600401613db19190614a39565b60206040518083038186803b158015613dc957600080fd5b505afa158015613ddd573d6000803e3d6000fd5b505050506040513d601f19601f82011682018060405250613e019190810190614543565b14613e41576040517f08c379a0000000000000000000000000000000000000000000000000000000008152600401613e3890614bea565b60405180910390fd5b6000548114613e85576040517f08c379a0000000000000000000000000000000000000000000000000000000008152600401613e7c90614c6a565b60405180910390fd5b5050565b613f23838473ffffffffffffffffffffffffffffffffffffffff1663a9059cbb905060e01b8484604051602401613ec1929190614ab4565b604051602081830303815290604052907bffffffffffffffffffffffffffffffffffffffffffffffffffffffff19166020820180517bffffffffffffffffffffffffffffffffffffffffffffffffffffffff8381831617835250505050614279565b505050565b613fc4848573ffffffffffffffffffffffffffffffffffffffff166323b872dd905060e01b858585604051602401613f6293929190614a7d565b604051602081830303815290604052907bffffffffffffffffffffffffffffffffffffffffffffffffffffffff19166020820180517bffffffffffffffffffffffffffffffffffffffffffffffffffffffff8381831617835250505050614279565b50505050565b600033905090565b600081148061406b575060008373ffffffffffffffffffffffffffffffffffffffff1663dd62ed3e30856040518363ffffffff1660e01b8152600401614019929190614a54565b60206040518083038186803b15801561403157600080fd5b505afa158015614045573d6000803e3d6000fd5b505050506040513d601f19601f820116820180604052506140699190810190614543565b145b6140aa576040517f08c379a00000000000000000000000000000000000000000000000000000000081526004016140a190614c8a565b60405180910390fd5b614144838473ffffffffffffffffffffffffffffffffffffffff1663095ea7b3905060e01b84846040516024016140e2929190614ab4565b604051602081830303815290604052907bffffffffffffffffffffffffffffffffffffffffffffffffffffffff19166020820180517bffffffffffffffffffffffffffffffffffffffffffffffffffffffff8381831617835250505050614279565b505050565b600073ffffffffffffffffffffffffffffffffffffffff168173ffffffffffffffffffffffffffffffffffffffff1614156141b9576040517f08c379a00000000000000000000000000000000000000000000000000000000081526004016141b090614b4a565b60405180910390fd5b8073ffffffffffffffffffffffffffffffffffffffff16600160009054906101000a900473ffffffffffffffffffffffffffffffffffffffff1673ffffffffffffffffffffffffffffffffffffffff167f8be0079c531659141344cd1fd0a4f28419497f9722a3daafe3b4186f6b6457e060405160405180910390a380600160006101000a81548173ffffffffffffffffffffffffffffffffffffffff021916908373ffffffffffffffffffffffffffffffffffffffff16021790555050565b6142988273ffffffffffffffffffffffffffffffffffffffff166143eb565b6142d7576040517f08c379a00000000000000000000000000000000000000000000000000000000081526004016142ce90614caa565b60405180910390fd5b600060608373ffffffffffffffffffffffffffffffffffffffff168360405161430091906149f2565b6000604051808303816000865af19150503d806000811461433d576040519150601f19603f3d011682016040523d82523d6000602084013e614342565b606091505b509150915081614387576040517f08c379a000000000000000000000000000000000000000000000000000000000815260040161437e90614b8a565b60405180910390fd5b6000815111156143e557808060200190516143a591908101906144c8565b6143e4576040517f08c379a00000000000000000000000000000000000000000000000000000000081526004016143db90614c4a565b60405180910390fd5b5b50505050565b60008060007fc5d2460186f7233c927e7db2dcc703c0e500b653ca82273b7bfad8045d85a47060001b9050833f91506000801b821415801561442d5750808214155b92505050919050565b60008135905061444581614e0e565b92915050565b60008151905061445a81614e25565b92915050565b60008135905061446f81614e3c565b92915050565b60008135905061448481614e53565b92915050565b60008151905061449981614e53565b92915050565b6000602082840312156144b157600080fd5b60006144bf84828501614436565b91505092915050565b6000602082840312156144da57600080fd5b60006144e88482850161444b565b91505092915050565b60006020828403121561450357600080fd5b600061451184828501614460565b91505092915050565b60006020828403121561452c57600080fd5b600061453a84828501614475565b91505092915050565b60006020828403121561455557600080fd5b60006145638482850161448a565b91505092915050565b600061457883836149d4565b60208301905092915050565b61458d81614d93565b82525050565b61459c81614d39565b82525050565b6145ab81614cef565b6145b58184614d12565b92506145c082614ce5565b8060005b838110156145f15781516145d8878261456c565b96506145e383614d05565b9250506001810190506145c4565b505050505050565b61460281614d4b565b82525050565b600061461382614cfa565b61461d8185614d1d565b935061462d818560208601614ddb565b80840191505092915050565b61464281614da5565b82525050565b6000614655602683614d28565b91507f4f776e61626c653a206e6577206f776e657220697320746865207a65726f206160008301527f64647265737300000000000000000000000000000000000000000000000000006020830152604082019050919050565b60006146bb600f83614d28565b91507f746f6b656e2072656d61696e64657200000000000000000000000000000000006000830152602082019050919050565b60006146fb602083614d28565b91507f5361666545524332303a206c6f772d6c6576656c2063616c6c206661696c65646000830152602082019050919050565b600061473b601083614d28565b91507f79546f6b656e2072656d61696e646572000000000000000000000000000000006000830152602082019050919050565b600061477b601683614d28565b91507f7472616e73666572206f6620455448206661696c6564000000000000000000006000830152602082019050919050565b60006147bb600f83614d28565b91507f43555256452072656d61696e64657200000000000000000000000000000000006000830152602082019050919050565b60006147fb602083614d28565b91507f4f776e61626c653a2063616c6c6572206973206e6f7420746865206f776e65726000830152602082019050919050565b600061483b600083614d1d565b9150600082019050919050565b6000614855601e83614d28565b91507f6465706f736974206d7573742062652067726561746572207468616e203000006000830152602082019050919050565b6000614895602a83614d28565b91507f5361666545524332303a204552433230206f7065726174696f6e20646964206e60008301527f6f742073756363656564000000000000000000000000000000000000000000006020830152604082019050919050565b60006148fb601f83614d28565b91507f5265656e7472616e637947756172643a207265656e7472616e742063616c6c006000830152602082019050919050565b600061493b603683614d28565b91507f5361666545524332303a20617070726f76652066726f6d206e6f6e2d7a65726f60008301527f20746f206e6f6e2d7a65726f20616c6c6f77616e6365000000000000000000006020830152604082019050919050565b60006149a1601f83614d28565b91507f5361666545524332303a2063616c6c20746f206e6f6e2d636f6e7472616374006000830152602082019050919050565b6149dd81614d89565b82525050565b6149ec81614d89565b82525050565b60006149fe8284614608565b915081905092915050565b6000614a148261482e565b9150819050919050565b6000602082019050614a336000830184614593565b92915050565b6000602082019050614a4e6000830184614584565b92915050565b6000604082019050614a696000830185614593565b614a766020830184614593565b9392505050565b6000606082019050614a926000830186614593565b614a9f6020830185614593565b614aac60408301846149e3565b949350505050565b6000604082019050614ac96000830185614593565b614ad660208301846149e3565b9392505050565b600060a082019050614af260008301856145a2565b614aff6080830184614639565b9392505050565b600060a082019050614b1b60008301856145a2565b614b2860808301846149e3565b9392505050565b6000602082019050614b4460008301846145f9565b92915050565b60006020820190508181036000830152614b6381614648565b9050919050565b60006020820190508181036000830152614b83816146ae565b9050919050565b60006020820190508181036000830152614ba3816146ee565b9050919050565b60006020820190508181036000830152614bc38161472e565b9050919050565b60006020820190508181036000830152614be38161476e565b9050919050565b60006020820190508181036000830152614c03816147ae565b9050919050565b60006020820190508181036000830152614c23816147ee565b9050919050565b60006020820190508181036000830152614c4381614848565b9050919050565b60006020820190508181036000830152614c6381614888565b9050919050565b60006020820190508181036000830152614c83816148ee565b9050919050565b60006020820190508181036000830152614ca38161492e565b9050919050565b60006020820190508181036000830152614cc381614994565b9050919050565b6000602082019050614cdf60008301846149e3565b92915050565b6000819050919050565b600060049050919050565b600081519050919050565b6000602082019050919050565b600081905092915050565b600081905092915050565b600082825260208201905092915050565b6000614d4482614d69565b9050919050565b60008115159050919050565b6000614d6282614d39565b9050919050565b600073ffffffffffffffffffffffffffffffffffffffff82169050919050565b6000819050919050565b6000614d9e82614db7565b9050919050565b6000614db082614d89565b9050919050565b6000614dc282614dc9565b9050919050565b6000614dd482614d69565b9050919050565b60005b83811015614df9578082015181840152602081019050614dde565b83811115614e08576000848401525b50505050565b614e1781614d39565b8114614e2257600080fd5b50565b614e2e81614d4b565b8114614e3957600080fd5b50565b614e4581614d57565b8114614e5057600080fd5b50565b614e5c81614d89565b8114614e6757600080fd5b5056fea365627a7a7231582049e7d9220d67eb0b53b8789c6732107d8de57c13a07de1f5dc83581e0f6272be6c6578706572696d656e74616cf564736f6c634300050c0040",
  "source": "pragma solidity ^0.5.0;\npragma experimental ABIEncoderV2;\n\ninterface IERC20 {\n    function totalSupply() external view returns (uint256);\n    function balanceOf(address account) external view returns (uint256);\n    function transfer(address recipient, uint256 amount) external returns (bool);\n    function allowance(address owner, address spender) external view returns (uint256);\n    function approve(address spender, uint256 amount) external returns (bool);\n    function transferFrom(address sender, address recipient, uint256 amount) external returns (bool);\n    event Transfer(address indexed from, address indexed to, uint256 value);\n    event Approval(address indexed owner, address indexed spender, uint256 value);\n}\n\ncontract Context {\n    constructor () internal { }\n    // solhint-disable-previous-line no-empty-blocks\n\n    function _msgSender() internal view returns (address payable) {\n        return msg.sender;\n    }\n\n    function _msgData() internal view returns (bytes memory) {\n        this; // silence state mutability warning without generating bytecode - see https://github.com/ethereum/solidity/issues/2691\n        return msg.data;\n    }\n}\n\ncontract ReentrancyGuard {\n    uint256 private _guardCounter;\n\n    constructor () internal {\n        _guardCounter = 1;\n    }\n\n    modifier nonReentrant() {\n        _guardCounter += 1;\n        uint256 localCounter = _guardCounter;\n        _;\n        require(localCounter == _guardCounter, \"ReentrancyGuard: reentrant call\");\n    }\n}\n\ncontract Ownable is Context {\n    address private _owner;\n\n    event OwnershipTransferred(address indexed previousOwner, address indexed newOwner);\n    constructor () internal {\n        _owner = _msgSender();\n        emit OwnershipTransferred(address(0), _owner);\n    }\n    function owner() public view returns (address) {\n        return _owner;\n    }\n    modifier onlyOwner() {\n        require(isOwner(), \"Ownable: caller is not the owner\");\n        _;\n    }\n    function isOwner() public view returns (bool) {\n        return _msgSender() == _owner;\n    }\n    function renounceOwnership() public onlyOwner {\n        emit OwnershipTransferred(_owner, address(0));\n        _owner = address(0);\n    }\n    function transferOwnership(address newOwner) public onlyOwner {\n        _transferOwnership(newOwner);\n    }\n    function _transferOwnership(address newOwner) internal {\n        require(newOwner != address(0), \"Ownable: new owner is the zero address\");\n        emit OwnershipTransferred(_owner, newOwner);\n        _owner = newOwner;\n    }\n}\n\nlibrary SafeMath {\n    function add(uint256 a, uint256 b) internal pure returns (uint256) {\n        uint256 c = a + b;\n        require(c >= a, \"SafeMath: addition overflow\");\n\n        return c;\n    }\n    function sub(uint256 a, uint256 b) internal pure returns (uint256) {\n        return sub(a, b, \"SafeMath: subtraction overflow\");\n    }\n    function sub(uint256 a, uint256 b, string memory errorMessage) internal pure returns (uint256) {\n        require(b <= a, errorMessage);\n        uint256 c = a - b;\n\n        return c;\n    }\n    function mul(uint256 a, uint256 b) internal pure returns (uint256) {\n        if (a == 0) {\n            return 0;\n        }\n\n        uint256 c = a * b;\n        require(c / a == b, \"SafeMath: multiplication overflow\");\n\n        return c;\n    }\n    function div(uint256 a, uint256 b) internal pure returns (uint256) {\n        return div(a, b, \"SafeMath: division by zero\");\n    }\n    function div(uint256 a, uint256 b, string memory errorMessage) internal pure returns (uint256) {\n        // Solidity only automatically asserts when dividing by 0\n        require(b > 0, errorMessage);\n        uint256 c = a / b;\n\n        return c;\n    }\n    function mod(uint256 a, uint256 b) internal pure returns (uint256) {\n        return mod(a, b, \"SafeMath: modulo by zero\");\n    }\n    function mod(uint256 a, uint256 b, string memory errorMessage) internal pure returns (uint256) {\n        require(b != 0, errorMessage);\n        return a % b;\n    }\n}\n\nlibrary Address {\n    function isContract(address account) internal view returns (bool) {\n        bytes32 codehash;\n        bytes32 accountHash = 0xc5d2460186f7233c927e7db2dcc703c0e500b653ca82273b7bfad8045d85a470;\n        // solhint-disable-next-line no-inline-assembly\n        assembly { codehash := extcodehash(account) }\n        return (codehash != 0x0 && codehash != accountHash);\n    }\n    function toPayable(address account) internal pure returns (address payable) {\n        return address(uint160(account));\n    }\n    function sendValue(address payable recipient, uint256 amount) internal {\n        require(address(this).balance >= amount, \"Address: insufficient balance\");\n\n        // solhint-disable-next-line avoid-call-value\n        (bool success, ) = recipient.call.value(amount)(\"\");\n        require(success, \"Address: unable to send value, recipient may have reverted\");\n    }\n}\n\nlibrary SafeERC20 {\n    using SafeMath for uint256;\n    using Address for address;\n\n    function safeTransfer(IERC20 token, address to, uint256 value) internal {\n        callOptionalReturn(token, abi.encodeWithSelector(token.transfer.selector, to, value));\n    }\n    function safeTransferFrom(IERC20 token, address from, address to, uint256 value) internal {\n        callOptionalReturn(token, abi.encodeWithSelector(token.transferFrom.selector, from, to, value));\n    }\n    function safeApprove(IERC20 token, address spender, uint256 value) internal {\n        require((value == 0) || (token.allowance(address(this), spender) == 0),\n            \"SafeERC20: approve from non-zero to non-zero allowance\"\n        );\n        callOptionalReturn(token, abi.encodeWithSelector(token.approve.selector, spender, value));\n    }\n    function callOptionalReturn(IERC20 token, bytes memory data) private {\n        require(address(token).isContract(), \"SafeERC20: call to non-contract\");\n\n        // solhint-disable-next-line avoid-low-level-calls\n        (bool success, bytes memory returndata) = address(token).call(data);\n        require(success, \"SafeERC20: low-level call failed\");\n\n        if (returndata.length > 0) { // Return data is optional\n            // solhint-disable-next-line max-line-length\n            require(abi.decode(returndata, (bool)), \"SafeERC20: ERC20 operation did not succeed\");\n        }\n    }\n}\n\ninterface yERC20 {\n  function deposit(uint256 _amount) external;\n}\n\n// Solidity Interface\n\ninterface ICurveFi {\n\n  function add_liquidity(\n    uint256[4] calldata amounts,\n    uint256 min_mint_amount\n  ) external;\n  function remove_liquidity_imbalance(\n    uint256[4] calldata amounts,\n    uint256 max_burn_amount\n  ) external;\n}\n\ncontract yCurveZap is ReentrancyGuard, Ownable {\n  using SafeERC20 for IERC20;\n  using Address for address;\n  using SafeMath for uint256;\n\n  address public DAI;\n  address public yDAI;\n  address public USDC;\n  address public yUSDC;\n  address public USDT;\n  address public yUSDT;\n  address public TUSD;\n  address public yTUSD;\n  address public SWAP;\n  address public CURVE;\n\n  constructor () public {\n    DAI = address(0x6B175474E89094C44Da98b954EedeAC495271d0F);\n    yDAI = address(0x16de59092dAE5CcF4A1E6439D611fd0653f0Bd01);\n\n    USDC = address(0xA0b86991c6218b36c1d19D4a2e9Eb0cE3606eB48);\n    yUSDC = address(0xd6aD7a6750A7593E092a9B218d66C0A814a3436e);\n\n    USDT = address(0xdAC17F958D2ee523a2206206994597C13D831ec7);\n    yUSDT = address(0x83f798e925BcD4017Eb265844FDDAbb448f1707D);\n\n    TUSD = address(0x0000000000085d4780B73119b644AE5ecd22b376);\n    yTUSD = address(0x73a052500105205d34Daf004eAb301916DA8190f);\n\n    SWAP = address(0x45F783CCE6B7FF23B2ab2D70e416cdb7D6055f51);\n    CURVE = address(0xdF5e0e81Dff6FAF3A7e52BA697820c5e32D806A8);\n\n    approveToken();\n  }\n\n  function() external payable {\n\n  }\n\n  function approveToken() public {\n      IERC20(DAI).safeApprove(yDAI, uint(-1));\n      IERC20(yDAI).safeApprove(SWAP, uint(-1));\n\n      IERC20(USDC).safeApprove(yUSDC, uint(-1));\n      IERC20(yUSDC).safeApprove(SWAP, uint(-1));\n\n      IERC20(USDT).safeApprove(yUSDT, uint(-1));\n      IERC20(yUSDT).safeApprove(SWAP, uint(-1));\n\n      IERC20(TUSD).safeApprove(yTUSD, uint(-1));\n      IERC20(yTUSD).safeApprove(SWAP, uint(-1));\n  }\n\n  function depositDAI(uint256 _amount)\n      external\n      nonReentrant\n  {\n      require(_amount > 0, \"deposit must be greater than 0\");\n      IERC20(DAI).safeTransferFrom(msg.sender, address(this), _amount);\n      yERC20(yDAI).deposit(_amount);\n      require(IERC20(DAI).balanceOf(address(this)) == 0, \"token remainder\");\n      ICurveFi(SWAP).add_liquidity([IERC20(yDAI).balanceOf(address(this)),0,0,0],0);\n      require(IERC20(yDAI).balanceOf(address(this)) == 0, \"yToken remainder\");\n      IERC20(CURVE).safeTransfer(msg.sender, IERC20(CURVE).balanceOf(address(this)));\n      require(IERC20(CURVE).balanceOf(address(this)) == 0, \"CURVE remainder\");\n  }\n\n  function depositUSDC(uint256 _amount)\n      external\n      nonReentrant\n  {\n      require(_amount > 0, \"deposit must be greater than 0\");\n      IERC20(USDC).safeTransferFrom(msg.sender, address(this), _amount);\n      yERC20(yUSDC).deposit(_amount);\n      require(IERC20(USDC).balanceOf(address(this)) == 0, \"token remainder\");\n      ICurveFi(SWAP).add_liquidity([0,IERC20(yUSDC).balanceOf(address(this)),0,0],0);\n      require(IERC20(yUSDC).balanceOf(address(this)) == 0, \"yToken remainder\");\n      IERC20(CURVE).safeTransfer(msg.sender, IERC20(CURVE).balanceOf(address(this)));\n      require(IERC20(CURVE).balanceOf(address(this)) == 0, \"CURVE remainder\");\n  }\n\n  function depositUSDT(uint256 _amount)\n      external\n      nonReentrant\n  {\n      require(_amount > 0, \"deposit must be greater than 0\");\n      IERC20(USDT).safeTransferFrom(msg.sender, address(this), _amount);\n      yERC20(yUSDT).deposit(_amount);\n      require(IERC20(USDT).balanceOf(address(this)) == 0, \"token remainder\");\n      ICurveFi(SWAP).add_liquidity([0,0,IERC20(yUSDT).balanceOf(address(this)),0],0);\n      require(IERC20(yUSDT).balanceOf(address(this)) == 0, \"yToken remainder\");\n      IERC20(CURVE).safeTransfer(msg.sender, IERC20(CURVE).balanceOf(address(this)));\n      require(IERC20(CURVE).balanceOf(address(this)) == 0, \"CURVE remainder\");\n  }\n\n  function depositTUSD(uint256 _amount)\n      external\n      nonReentrant\n  {\n      require(_amount > 0, \"deposit must be greater than 0\");\n      IERC20(TUSD).safeTransferFrom(msg.sender, address(this), _amount);\n      yERC20(yTUSD).deposit(_amount);\n      require(IERC20(TUSD).balanceOf(address(this)) == 0, \"token remainder\");\n      ICurveFi(SWAP).add_liquidity([0,0,0,IERC20(yTUSD).balanceOf(address(this))],0);\n      require(IERC20(yTUSD).balanceOf(address(this)) == 0, \"yToken remainder\");\n      IERC20(CURVE).safeTransfer(msg.sender, IERC20(CURVE).balanceOf(address(this)));\n      require(IERC20(CURVE).balanceOf(address(this)) == 0, \"CURVE remainder\");\n  }\n\n  function withdrawDAI(uint256 _amount)\n      external\n      nonReentrant\n  {\n      require(_amount > 0, \"deposit must be greater than 0\");\n      IERC20(CURVE).safeTransferFrom(msg.sender, address(this), _amount);\n      ICurveFi(SWAP).remove_liquidity_imbalance([IERC20(CURVE).balanceOf(address(this)),0,0,0],uint256(-1));\n      require(IERC20(CURVE).balanceOf(address(this)) == 0, \"CURVE remainder\");\n      IERC20(yDAI).safeTransfer(msg.sender, IERC20(yDAI).balanceOf(address(this)));\n      require(IERC20(yDAI).balanceOf(address(this)) == 0, \"yToken remainder\");\n  }\n\n  function withdrawUSDC(uint256 _amount)\n      external\n      nonReentrant\n  {\n      require(_amount > 0, \"deposit must be greater than 0\");\n      IERC20(CURVE).safeTransferFrom(msg.sender, address(this), _amount);\n      ICurveFi(SWAP).remove_liquidity_imbalance([0,IERC20(CURVE).balanceOf(address(this)),0,0],uint256(-1));\n      require(IERC20(CURVE).balanceOf(address(this)) == 0, \"CURVE remainder\");\n      IERC20(yUSDC).safeTransfer(msg.sender, IERC20(yUSDC).balanceOf(address(this)));\n      require(IERC20(yUSDC).balanceOf(address(this)) == 0, \"yToken remainder\");\n  }\n\n  function withdrawUSDT(uint256 _amount)\n      external\n      nonReentrant\n  {\n      require(_amount > 0, \"deposit must be greater than 0\");\n      IERC20(CURVE).safeTransferFrom(msg.sender, address(this), _amount);\n      ICurveFi(SWAP).remove_liquidity_imbalance([0,0,IERC20(CURVE).balanceOf(address(this)),0],uint256(-1));\n      require(IERC20(CURVE).balanceOf(address(this)) == 0, \"CURVE remainder\");\n      IERC20(yUSDT).safeTransfer(msg.sender, IERC20(yUSDT).balanceOf(address(this)));\n      require(IERC20(yUSDT).balanceOf(address(this)) == 0, \"yToken remainder\");\n  }\n\n  function withdrawTUSD(uint256 _amount)\n      external\n      nonReentrant\n  {\n      require(_amount > 0, \"deposit must be greater than 0\");\n      IERC20(CURVE).safeTransferFrom(msg.sender, address(this), _amount);\n      ICurveFi(SWAP).remove_liquidity_imbalance([0,0,0,IERC20(CURVE).balanceOf(address(this))],uint256(-1));\n      require(IERC20(CURVE).balanceOf(address(this)) == 0, \"CURVE remainder\");\n      IERC20(yTUSD).safeTransfer(msg.sender, IERC20(yUSDT).balanceOf(address(this)));\n      require(IERC20(yTUSD).balanceOf(address(this)) == 0, \"yToken remainder\");\n  }\n\n  // incase of half-way error\n  function inCaseTokenGetsStuck(IERC20 _TokenAddress) onlyOwner public {\n      uint qty = _TokenAddress.balanceOf(address(this));\n      _TokenAddress.safeTransfer(msg.sender, qty);\n  }\n\n  // incase of half-way error\n  function inCaseETHGetsStuck() onlyOwner public{\n      (bool result, ) = msg.sender.call.value(address(this).balance)(\"\");\n      require(result, \"transfer of ETH failed\");\n  }\n}\n",
  "sourcePath": "D:/ftm/itoken/contracts/yCurveZap.sol",
  "compiler": {
    "name": "solc",
    "version": "0.5.12+commit.7709ece9.Emscripten.clang"
  },
  "schemaVersion": "3.0.19",
  "updatedAt": "2020-02-19T09:09:08.954Z",
  "devdoc": {
    "methods": {}
  },
  "userdoc": {
    "methods": {}
  }
}