{
  "contractName": "yCurveZapOut",
  "abi": [
    {
      "inputs": [],
      "payable": false,
      "stateMutability": "nonpayable",
      "type": "constructor"
    },
    {
      "anonymous": false,
      "inputs": [
        {
          "indexed": true,
          "internalType": "address",
          "name": "previousOwner",
          "type": "address"
        },
        {
          "indexed": true,
          "internalType": "address",
          "name": "newOwner",
          "type": "address"
        }
      ],
      "name": "OwnershipTransferred",
      "type": "event"
    },
    {
      "payable": true,
      "stateMutability": "payable",
      "type": "fallback"
    },
    {
      "constant": true,
      "inputs": [],
      "name": "CURVE",
      "outputs": [
        {
          "internalType": "address",
          "name": "",
          "type": "address"
        }
      ],
      "payable": false,
      "stateMutability": "view",
      "type": "function"
    },
    {
      "constant": true,
      "inputs": [],
      "name": "DAI",
      "outputs": [
        {
          "internalType": "address",
          "name": "",
          "type": "address"
        }
      ],
      "payable": false,
      "stateMutability": "view",
      "type": "function"
    },
    {
      "constant": true,
      "inputs": [],
      "name": "SWAP",
      "outputs": [
        {
          "internalType": "address",
          "name": "",
          "type": "address"
        }
      ],
      "payable": false,
      "stateMutability": "view",
      "type": "function"
    },
    {
      "constant": true,
      "inputs": [],
      "name": "TUSD",
      "outputs": [
        {
          "internalType": "address",
          "name": "",
          "type": "address"
        }
      ],
      "payable": false,
      "stateMutability": "view",
      "type": "function"
    },
    {
      "constant": true,
      "inputs": [],
      "name": "USDC",
      "outputs": [
        {
          "internalType": "address",
          "name": "",
          "type": "address"
        }
      ],
      "payable": false,
      "stateMutability": "view",
      "type": "function"
    },
    {
      "constant": true,
      "inputs": [],
      "name": "USDT",
      "outputs": [
        {
          "internalType": "address",
          "name": "",
          "type": "address"
        }
      ],
      "payable": false,
      "stateMutability": "view",
      "type": "function"
    },
    {
      "constant": true,
      "inputs": [],
      "name": "isOwner",
      "outputs": [
        {
          "internalType": "bool",
          "name": "",
          "type": "bool"
        }
      ],
      "payable": false,
      "stateMutability": "view",
      "type": "function"
    },
    {
      "constant": true,
      "inputs": [],
      "name": "owner",
      "outputs": [
        {
          "internalType": "address",
          "name": "",
          "type": "address"
        }
      ],
      "payable": false,
      "stateMutability": "view",
      "type": "function"
    },
    {
      "constant": false,
      "inputs": [],
      "name": "renounceOwnership",
      "outputs": [],
      "payable": false,
      "stateMutability": "nonpayable",
      "type": "function"
    },
    {
      "constant": false,
      "inputs": [
        {
          "internalType": "address",
          "name": "newOwner",
          "type": "address"
        }
      ],
      "name": "transferOwnership",
      "outputs": [],
      "payable": false,
      "stateMutability": "nonpayable",
      "type": "function"
    },
    {
      "constant": true,
      "inputs": [],
      "name": "yDAI",
      "outputs": [
        {
          "internalType": "address",
          "name": "",
          "type": "address"
        }
      ],
      "payable": false,
      "stateMutability": "view",
      "type": "function"
    },
    {
      "constant": true,
      "inputs": [],
      "name": "yTUSD",
      "outputs": [
        {
          "internalType": "address",
          "name": "",
          "type": "address"
        }
      ],
      "payable": false,
      "stateMutability": "view",
      "type": "function"
    },
    {
      "constant": true,
      "inputs": [],
      "name": "yUSDC",
      "outputs": [
        {
          "internalType": "address",
          "name": "",
          "type": "address"
        }
      ],
      "payable": false,
      "stateMutability": "view",
      "type": "function"
    },
    {
      "constant": true,
      "inputs": [],
      "name": "yUSDT",
      "outputs": [
        {
          "internalType": "address",
          "name": "",
          "type": "address"
        }
      ],
      "payable": false,
      "stateMutability": "view",
      "type": "function"
    },
    {
      "constant": false,
      "inputs": [],
      "name": "approveToken",
      "outputs": [],
      "payable": false,
      "stateMutability": "nonpayable",
      "type": "function"
    },
    {
      "constant": false,
      "inputs": [
        {
          "internalType": "uint256",
          "name": "_amount",
          "type": "uint256"
        }
      ],
      "name": "withdrawDAI",
      "outputs": [],
      "payable": false,
      "stateMutability": "nonpayable",
      "type": "function"
    },
    {
      "constant": false,
      "inputs": [
        {
          "internalType": "uint256",
          "name": "_amount",
          "type": "uint256"
        }
      ],
      "name": "withdrawUSDC",
      "outputs": [],
      "payable": false,
      "stateMutability": "nonpayable",
      "type": "function"
    },
    {
      "constant": false,
      "inputs": [
        {
          "internalType": "uint256",
          "name": "_amount",
          "type": "uint256"
        }
      ],
      "name": "withdrawUSDT",
      "outputs": [],
      "payable": false,
      "stateMutability": "nonpayable",
      "type": "function"
    },
    {
      "constant": false,
      "inputs": [
        {
          "internalType": "uint256",
          "name": "_amount",
          "type": "uint256"
        }
      ],
      "name": "withdrawTUSD",
      "outputs": [],
      "payable": false,
      "stateMutability": "nonpayable",
      "type": "function"
    },
    {
      "constant": false,
      "inputs": [
        {
          "internalType": "contract IERC20",
          "name": "_TokenAddress",
          "type": "address"
        }
      ],
      "name": "inCaseTokenGetsStuck",
      "outputs": [],
      "payable": false,
      "stateMutability": "nonpayable",
      "type": "function"
    },
    {
      "constant": false,
      "inputs": [],
      "name": "inCaseETHGetsStuck",
      "outputs": [],
      "payable": false,
      "stateMutability": "nonpayable",
      "type": "function"
    }
  ],
  "bytecode": "0x60806040523480156200001157600080fd5b5060016000819055506200002a6200044a60201b60201c565b600160006101000a81548173ffffffffffffffffffffffffffffffffffffffff021916908373ffffffffffffffffffffffffffffffffffffffff160217905550600160009054906101000a900473ffffffffffffffffffffffffffffffffffffffff1673ffffffffffffffffffffffffffffffffffffffff16600073ffffffffffffffffffffffffffffffffffffffff167f8be0079c531659141344cd1fd0a4f28419497f9722a3daafe3b4186f6b6457e060405160405180910390a3736b175474e89094c44da98b954eedeac495271d0f600260006101000a81548173ffffffffffffffffffffffffffffffffffffffff021916908373ffffffffffffffffffffffffffffffffffffffff1602179055507316de59092dae5ccf4a1e6439d611fd0653f0bd01600360006101000a81548173ffffffffffffffffffffffffffffffffffffffff021916908373ffffffffffffffffffffffffffffffffffffffff16021790555073a0b86991c6218b36c1d19d4a2e9eb0ce3606eb48600460006101000a81548173ffffffffffffffffffffffffffffffffffffffff021916908373ffffffffffffffffffffffffffffffffffffffff16021790555073d6ad7a6750a7593e092a9b218d66c0a814a3436e600560006101000a81548173ffffffffffffffffffffffffffffffffffffffff021916908373ffffffffffffffffffffffffffffffffffffffff16021790555073dac17f958d2ee523a2206206994597c13d831ec7600660006101000a81548173ffffffffffffffffffffffffffffffffffffffff021916908373ffffffffffffffffffffffffffffffffffffffff1602179055507383f798e925bcd4017eb265844fddabb448f1707d600760006101000a81548173ffffffffffffffffffffffffffffffffffffffff021916908373ffffffffffffffffffffffffffffffffffffffff1602179055506e085d4780b73119b644ae5ecd22b376600860006101000a81548173ffffffffffffffffffffffffffffffffffffffff021916908373ffffffffffffffffffffffffffffffffffffffff1602179055507373a052500105205d34daf004eab301916da8190f600960006101000a81548173ffffffffffffffffffffffffffffffffffffffff021916908373ffffffffffffffffffffffffffffffffffffffff1602179055507345f783cce6b7ff23b2ab2d70e416cdb7d6055f51600a60006101000a81548173ffffffffffffffffffffffffffffffffffffffff021916908373ffffffffffffffffffffffffffffffffffffffff16021790555073df5e0e81dff6faf3a7e52ba697820c5e32d806a8600b60006101000a81548173ffffffffffffffffffffffffffffffffffffffff021916908373ffffffffffffffffffffffffffffffffffffffff160217905550620004446200045260201b60201c565b62000e1b565b600033905090565b620004e8600a60009054906101000a900473ffffffffffffffffffffffffffffffffffffffff167fffffffffffffffffffffffffffffffffffffffffffffffffffffffffffffffff600360009054906101000a900473ffffffffffffffffffffffffffffffffffffffff1673ffffffffffffffffffffffffffffffffffffffff16620006ac60201b62004996179092919060201c565b6200057e600a60009054906101000a900473ffffffffffffffffffffffffffffffffffffffff167fffffffffffffffffffffffffffffffffffffffffffffffffffffffffffffffff600560009054906101000a900473ffffffffffffffffffffffffffffffffffffffff1673ffffffffffffffffffffffffffffffffffffffff16620006ac60201b62004996179092919060201c565b62000614600a60009054906101000a900473ffffffffffffffffffffffffffffffffffffffff167fffffffffffffffffffffffffffffffffffffffffffffffffffffffffffffffff600760009054906101000a900473ffffffffffffffffffffffffffffffffffffffff1673ffffffffffffffffffffffffffffffffffffffff16620006ac60201b62004996179092919060201c565b620006aa600a60009054906101000a900473ffffffffffffffffffffffffffffffffffffffff167fffffffffffffffffffffffffffffffffffffffffffffffffffffffffffffffff600960009054906101000a900473ffffffffffffffffffffffffffffffffffffffff1673ffffffffffffffffffffffffffffffffffffffff16620006ac60201b62004996179092919060201c565b565b60008114806200074c575060008373ffffffffffffffffffffffffffffffffffffffff1663dd62ed3e30856040518363ffffffff1660e01b8152600401620006f692919062000c5e565b60206040518083038186803b1580156200070f57600080fd5b505afa15801562000724573d6000803e3d6000fd5b505050506040513d601f19601f820116820180604052506200074a919081019062000a6c565b145b6200078e576040517f08c379a0000000000000000000000000000000000000000000000000000000008152600401620007859062000cfc565b60405180910390fd5b62000832838473ffffffffffffffffffffffffffffffffffffffff1663095ea7b3905060e01b8484604051602401620007c992919062000c8b565b604051602081830303815290604052907bffffffffffffffffffffffffffffffffffffffffffffffffffffffff19166020820180517bffffffffffffffffffffffffffffffffffffffffffffffffffffffff83818316178352505050506200083760201b60201c565b505050565b620008638273ffffffffffffffffffffffffffffffffffffffff16620009c660201b62004daf1760201c565b620008a5576040517f08c379a00000000000000000000000000000000000000000000000000000000081526004016200089c9062000d1e565b60405180910390fd5b600060608373ffffffffffffffffffffffffffffffffffffffff1683604051620008d0919062000c45565b6000604051808303816000865af19150503d80600081146200090f576040519150601f19603f3d011682016040523d82523d6000602084013e62000914565b606091505b5091509150816200095c576040517f08c379a0000000000000000000000000000000000000000000000000000000008152600401620009539062000cb8565b60405180910390fd5b600081511115620009c057808060200190516200097d919081019062000a40565b620009bf576040517f08c379a0000000000000000000000000000000000000000000000000000000008152600401620009b69062000cda565b60405180910390fd5b5b50505050565b60008060007fc5d2460186f7233c927e7db2dcc703c0e500b653ca82273b7bfad8045d85a47060001b9050833f91506000801b821415801562000a095750808214155b92505050919050565b60008151905062000a238162000de7565b92915050565b60008151905062000a3a8162000e01565b92915050565b60006020828403121562000a5357600080fd5b600062000a638482850162000a12565b91505092915050565b60006020828403121562000a7f57600080fd5b600062000a8f8482850162000a29565b91505092915050565b62000aa38162000d67565b82525050565b600062000ab68262000d40565b62000ac2818562000d4b565b935062000ad481856020860162000db1565b80840191505092915050565b600062000aef60208362000d56565b91507f5361666545524332303a206c6f772d6c6576656c2063616c6c206661696c65646000830152602082019050919050565b600062000b31602a8362000d56565b91507f5361666545524332303a204552433230206f7065726174696f6e20646964206e60008301527f6f742073756363656564000000000000000000000000000000000000000000006020830152604082019050919050565b600062000b9960368362000d56565b91507f5361666545524332303a20617070726f76652066726f6d206e6f6e2d7a65726f60008301527f20746f206e6f6e2d7a65726f20616c6c6f77616e6365000000000000000000006020830152604082019050919050565b600062000c01601f8362000d56565b91507f5361666545524332303a2063616c6c20746f206e6f6e2d636f6e7472616374006000830152602082019050919050565b62000c3f8162000da7565b82525050565b600062000c53828462000aa9565b915081905092915050565b600060408201905062000c75600083018562000a98565b62000c84602083018462000a98565b9392505050565b600060408201905062000ca2600083018562000a98565b62000cb1602083018462000c34565b9392505050565b6000602082019050818103600083015262000cd38162000ae0565b9050919050565b6000602082019050818103600083015262000cf58162000b22565b9050919050565b6000602082019050818103600083015262000d178162000b8a565b9050919050565b6000602082019050818103600083015262000d398162000bf2565b9050919050565b600081519050919050565b600081905092915050565b600082825260208201905092915050565b600062000d748262000d87565b9050919050565b60008115159050919050565b600073ffffffffffffffffffffffffffffffffffffffff82169050919050565b6000819050919050565b60005b8381101562000dd157808201518184015260208101905062000db4565b8381111562000de1576000848401525b50505050565b62000df28162000d7b565b811462000dfe57600080fd5b50565b62000e0c8162000da7565b811462000e1857600080fd5b50565b615de68062000e2b6000396000f3fe60806040526004361061012a5760003560e01c806389a30271116100ab578063c54e44eb1161006f578063c54e44eb14610381578063db81f99b146103ac578063e0bab4c4146103d5578063e31ff1be14610400578063f2fde38b1461042b578063f60a15ed146104545761012a565b806389a30271146102c05780638da5cb5b146102eb5780638f32d59b1461031657806399b71d5c146103415780639add7438146103585761012a565b80633ea521ef116100f25780633ea521ef146102015780635c531d6a1461022a578063715018a614610253578063756bb1cc1461026a5780638323550b146102955761012a565b806304d841081461012c57806317e5a9a41461015757806319d9e008146101825780632e8d6e18146101ad5780633a3c3b87146101d6575b005b34801561013857600080fd5b5061014161046b565b60405161014e91906155de565b60405180910390f35b34801561016357600080fd5b5061016c610491565b60405161017991906155de565b60405180910390f35b34801561018e57600080fd5b506101976104b7565b6040516101a491906155de565b60405180910390f35b3480156101b957600080fd5b506101d460048036036101cf9190810190614eb5565b6104dd565b005b3480156101e257600080fd5b506101eb6105e0565b6040516101f891906155de565b60405180910390f35b34801561020d57600080fd5b5061022860048036036102239190810190614ede565b610606565b005b34801561023657600080fd5b50610251600480360361024c9190810190614ede565b611513565b005b34801561025f57600080fd5b50610268612420565b005b34801561027657600080fd5b5061027f612528565b60405161028c91906155de565b60405180910390f35b3480156102a157600080fd5b506102aa61254e565b6040516102b791906155de565b60405180910390f35b3480156102cc57600080fd5b506102d5612574565b6040516102e291906155de565b60405180910390f35b3480156102f757600080fd5b5061030061259a565b60405161030d91906155de565b60405180910390f35b34801561032257600080fd5b5061032b6125c4565b604051610338919061569d565b60405180910390f35b34801561034d57600080fd5b50610356612623565b005b34801561036457600080fd5b5061037f600480360361037a9190810190614ede565b612861565b005b34801561038d57600080fd5b5061039661376e565b6040516103a391906155de565b60405180910390f35b3480156103b857600080fd5b506103d360048036036103ce9190810190614ede565b613794565b005b3480156103e157600080fd5b506103ea6146a1565b6040516103f791906155de565b60405180910390f35b34801561040c57600080fd5b506104156146c7565b60405161042291906155de565b60405180910390f35b34801561043757600080fd5b50610452600480360361044d9190810190614e63565b6146ed565b005b34801561046057600080fd5b50610469614740565b005b600a60009054906101000a900473ffffffffffffffffffffffffffffffffffffffff1681565b600760009054906101000a900473ffffffffffffffffffffffffffffffffffffffff1681565b600560009054906101000a900473ffffffffffffffffffffffffffffffffffffffff1681565b6104e56125c4565b610524576040517f08c379a000000000000000000000000000000000000000000000000000000000815260040161051b90615a85565b60405180910390fd5b60008173ffffffffffffffffffffffffffffffffffffffff166370a08231306040518263ffffffff1660e01b815260040161055f91906155f9565b60206040518083038186803b15801561057757600080fd5b505afa15801561058b573d6000803e3d6000fd5b505050506040513d601f19601f820116820180604052506105af9190810190614f07565b90506105dc33828473ffffffffffffffffffffffffffffffffffffffff1661484d9092919063ffffffff16565b5050565b600b60009054906101000a900473ffffffffffffffffffffffffffffffffffffffff1681565b600160008082825401925050819055506000805490506000821161065f576040517f08c379a000000000000000000000000000000000000000000000000000000000815260040161065690615ac5565b60405180910390fd5b6106ae333084600b60009054906101000a900473ffffffffffffffffffffffffffffffffffffffff1673ffffffffffffffffffffffffffffffffffffffff166148ec909392919063ffffffff16565b600a60009054906101000a900473ffffffffffffffffffffffffffffffffffffffff1673ffffffffffffffffffffffffffffffffffffffff16637d49d875600b60009054906101000a900473ffffffffffffffffffffffffffffffffffffffff1673ffffffffffffffffffffffffffffffffffffffff166370a08231306040518263ffffffff1660e01b815260040161074791906155f9565b60206040518083038186803b15801561075f57600080fd5b505afa158015610773573d6000803e3d6000fd5b505050506040513d601f19601f820116820180604052506107979190810190614f07565b604051806080016040528060008152602001600081526020016000815260200160008152506040518363ffffffff1660e01b81526004016107d9929190615ba0565b600060405180830381600087803b1580156107f357600080fd5b505af1158015610807573d6000803e3d6000fd5b505050506000600b60009054906101000a900473ffffffffffffffffffffffffffffffffffffffff1673ffffffffffffffffffffffffffffffffffffffff166370a08231306040518263ffffffff1660e01b815260040161086891906155f9565b60206040518083038186803b15801561088057600080fd5b505afa158015610894573d6000803e3d6000fd5b505050506040513d601f19601f820116820180604052506108b89190810190614f07565b146108f8576040517f08c379a00000000000000000000000000000000000000000000000000000000081526004016108ef90615a45565b60405180910390fd5b6000600360009054906101000a900473ffffffffffffffffffffffffffffffffffffffff1673ffffffffffffffffffffffffffffffffffffffff166370a08231306040518263ffffffff1660e01b815260040161095591906155f9565b60206040518083038186803b15801561096d57600080fd5b505afa158015610981573d6000803e3d6000fd5b505050506040513d601f19601f820116820180604052506109a59190810190614f07565b90506000600560009054906101000a900473ffffffffffffffffffffffffffffffffffffffff1673ffffffffffffffffffffffffffffffffffffffff166370a08231306040518263ffffffff1660e01b8152600401610a0491906155f9565b60206040518083038186803b158015610a1c57600080fd5b505afa158015610a30573d6000803e3d6000fd5b505050506040513d601f19601f82011682018060405250610a549190810190614f07565b90506000600760009054906101000a900473ffffffffffffffffffffffffffffffffffffffff1673ffffffffffffffffffffffffffffffffffffffff166370a08231306040518263ffffffff1660e01b8152600401610ab391906155f9565b60206040518083038186803b158015610acb57600080fd5b505afa158015610adf573d6000803e3d6000fd5b505050506040513d601f19601f82011682018060405250610b039190810190614f07565b90506000600960009054906101000a900473ffffffffffffffffffffffffffffffffffffffff1673ffffffffffffffffffffffffffffffffffffffff166370a08231306040518263ffffffff1660e01b8152600401610b6291906155f9565b60206040518083038186803b158015610b7a57600080fd5b505afa158015610b8e573d6000803e3d6000fd5b505050506040513d601f19601f82011682018060405250610bb29190810190614f07565b90506000841180610bc35750600083115b80610bce5750600082115b80610bd95750600081115b610c18576040517f08c379a0000000000000000000000000000000000000000000000000000000008152600401610c0f90615945565b60405180910390fd5b6000841115610da557600a60009054906101000a900473ffffffffffffffffffffffffffffffffffffffff1673ffffffffffffffffffffffffffffffffffffffff16633df02124600060028760006040518563ffffffff1660e01b8152600401610c8594939291906156fd565b600060405180830381600087803b158015610c9f57600080fd5b505af1158015610cb3573d6000803e3d6000fd5b505050506000600360009054906101000a900473ffffffffffffffffffffffffffffffffffffffff1673ffffffffffffffffffffffffffffffffffffffff166370a08231306040518263ffffffff1660e01b8152600401610d1491906155f9565b60206040518083038186803b158015610d2c57600080fd5b505afa158015610d40573d6000803e3d6000fd5b505050506040513d601f19601f82011682018060405250610d649190810190614f07565b14610da4576040517f08c379a0000000000000000000000000000000000000000000000000000000008152600401610d9b90615b25565b60405180910390fd5b5b6000831115610f3257600a60009054906101000a900473ffffffffffffffffffffffffffffffffffffffff1673ffffffffffffffffffffffffffffffffffffffff16633df02124600160028660006040518563ffffffff1660e01b8152600401610e129493929190615787565b600060405180830381600087803b158015610e2c57600080fd5b505af1158015610e40573d6000803e3d6000fd5b505050506000600560009054906101000a900473ffffffffffffffffffffffffffffffffffffffff1673ffffffffffffffffffffffffffffffffffffffff166370a08231306040518263ffffffff1660e01b8152600401610ea191906155f9565b60206040518083038186803b158015610eb957600080fd5b505afa158015610ecd573d6000803e3d6000fd5b505050506040513d601f19601f82011682018060405250610ef19190810190614f07565b14610f31576040517f08c379a0000000000000000000000000000000000000000000000000000000008152600401610f28906159e5565b60405180910390fd5b5b60008111156110bf57600a60009054906101000a900473ffffffffffffffffffffffffffffffffffffffff1673ffffffffffffffffffffffffffffffffffffffff16633df02124600360028460006040518563ffffffff1660e01b8152600401610f9f94939291906158e0565b600060405180830381600087803b158015610fb957600080fd5b505af1158015610fcd573d6000803e3d6000fd5b505050506000600960009054906101000a900473ffffffffffffffffffffffffffffffffffffffff1673ffffffffffffffffffffffffffffffffffffffff166370a08231306040518263ffffffff1660e01b815260040161102e91906155f9565b60206040518083038186803b15801561104657600080fd5b505afa15801561105a573d6000803e3d6000fd5b505050506040513d601f19601f8201168201806040525061107e9190810190614f07565b146110be576040517f08c379a00000000000000000000000000000000000000000000000000000000081526004016110b590615a05565b60405180910390fd5b5b600760009054906101000a900473ffffffffffffffffffffffffffffffffffffffff1673ffffffffffffffffffffffffffffffffffffffff16632e1a7d4d600760009054906101000a900473ffffffffffffffffffffffffffffffffffffffff1673ffffffffffffffffffffffffffffffffffffffff166370a08231306040518263ffffffff1660e01b815260040161115891906155f9565b60206040518083038186803b15801561117057600080fd5b505afa158015611184573d6000803e3d6000fd5b505050506040513d601f19601f820116820180604052506111a89190810190614f07565b6040518263ffffffff1660e01b81526004016111c49190615b85565b600060405180830381600087803b1580156111de57600080fd5b505af11580156111f2573d6000803e3d6000fd5b505050506000600760009054906101000a900473ffffffffffffffffffffffffffffffffffffffff1673ffffffffffffffffffffffffffffffffffffffff166370a08231306040518263ffffffff1660e01b815260040161125391906155f9565b60206040518083038186803b15801561126b57600080fd5b505afa15801561127f573d6000803e3d6000fd5b505050506040513d601f19601f820116820180604052506112a39190810190614f07565b146112e3576040517f08c379a00000000000000000000000000000000000000000000000000000000081526004016112da906159c5565b60405180910390fd5b6113da33600660009054906101000a900473ffffffffffffffffffffffffffffffffffffffff1673ffffffffffffffffffffffffffffffffffffffff166370a08231306040518263ffffffff1660e01b815260040161134291906155f9565b60206040518083038186803b15801561135a57600080fd5b505afa15801561136e573d6000803e3d6000fd5b505050506040513d601f19601f820116820180604052506113929190810190614f07565b600660009054906101000a900473ffffffffffffffffffffffffffffffffffffffff1673ffffffffffffffffffffffffffffffffffffffff1661484d9092919063ffffffff16565b6000600660009054906101000a900473ffffffffffffffffffffffffffffffffffffffff1673ffffffffffffffffffffffffffffffffffffffff166370a08231306040518263ffffffff1660e01b815260040161143791906155f9565b60206040518083038186803b15801561144f57600080fd5b505afa158015611463573d6000803e3d6000fd5b505050506040513d601f19601f820116820180604052506114879190810190614f07565b146114c7576040517f08c379a00000000000000000000000000000000000000000000000000000000081526004016114be90615985565b60405180910390fd5b50505050600054811461150f576040517f08c379a000000000000000000000000000000000000000000000000000000000815260040161150690615b05565b60405180910390fd5b5050565b600160008082825401925050819055506000805490506000821161156c576040517f08c379a000000000000000000000000000000000000000000000000000000000815260040161156390615ac5565b60405180910390fd5b6115bb333084600b60009054906101000a900473ffffffffffffffffffffffffffffffffffffffff1673ffffffffffffffffffffffffffffffffffffffff166148ec909392919063ffffffff16565b600a60009054906101000a900473ffffffffffffffffffffffffffffffffffffffff1673ffffffffffffffffffffffffffffffffffffffff16637d49d875600b60009054906101000a900473ffffffffffffffffffffffffffffffffffffffff1673ffffffffffffffffffffffffffffffffffffffff166370a08231306040518263ffffffff1660e01b815260040161165491906155f9565b60206040518083038186803b15801561166c57600080fd5b505afa158015611680573d6000803e3d6000fd5b505050506040513d601f19601f820116820180604052506116a49190810190614f07565b604051806080016040528060008152602001600081526020016000815260200160008152506040518363ffffffff1660e01b81526004016116e6929190615ba0565b600060405180830381600087803b15801561170057600080fd5b505af1158015611714573d6000803e3d6000fd5b505050506000600b60009054906101000a900473ffffffffffffffffffffffffffffffffffffffff1673ffffffffffffffffffffffffffffffffffffffff166370a08231306040518263ffffffff1660e01b815260040161177591906155f9565b60206040518083038186803b15801561178d57600080fd5b505afa1580156117a1573d6000803e3d6000fd5b505050506040513d601f19601f820116820180604052506117c59190810190614f07565b14611805576040517f08c379a00000000000000000000000000000000000000000000000000000000081526004016117fc90615a45565b60405180910390fd5b6000600360009054906101000a900473ffffffffffffffffffffffffffffffffffffffff1673ffffffffffffffffffffffffffffffffffffffff166370a08231306040518263ffffffff1660e01b815260040161186291906155f9565b60206040518083038186803b15801561187a57600080fd5b505afa15801561188e573d6000803e3d6000fd5b505050506040513d601f19601f820116820180604052506118b29190810190614f07565b90506000600560009054906101000a900473ffffffffffffffffffffffffffffffffffffffff1673ffffffffffffffffffffffffffffffffffffffff166370a08231306040518263ffffffff1660e01b815260040161191191906155f9565b60206040518083038186803b15801561192957600080fd5b505afa15801561193d573d6000803e3d6000fd5b505050506040513d601f19601f820116820180604052506119619190810190614f07565b90506000600760009054906101000a900473ffffffffffffffffffffffffffffffffffffffff1673ffffffffffffffffffffffffffffffffffffffff166370a08231306040518263ffffffff1660e01b81526004016119c091906155f9565b60206040518083038186803b1580156119d857600080fd5b505afa1580156119ec573d6000803e3d6000fd5b505050506040513d601f19601f82011682018060405250611a109190810190614f07565b90506000600960009054906101000a900473ffffffffffffffffffffffffffffffffffffffff1673ffffffffffffffffffffffffffffffffffffffff166370a08231306040518263ffffffff1660e01b8152600401611a6f91906155f9565b60206040518083038186803b158015611a8757600080fd5b505afa158015611a9b573d6000803e3d6000fd5b505050506040513d601f19601f82011682018060405250611abf9190810190614f07565b90506000841180611ad05750600083115b80611adb5750600082115b80611ae65750600081115b611b25576040517f08c379a0000000000000000000000000000000000000000000000000000000008152600401611b1c90615945565b60405180910390fd5b6000841115611cb257600a60009054906101000a900473ffffffffffffffffffffffffffffffffffffffff1673ffffffffffffffffffffffffffffffffffffffff16633df02124600060028760006040518563ffffffff1660e01b8152600401611b9294939291906156fd565b600060405180830381600087803b158015611bac57600080fd5b505af1158015611bc0573d6000803e3d6000fd5b505050506000600360009054906101000a900473ffffffffffffffffffffffffffffffffffffffff1673ffffffffffffffffffffffffffffffffffffffff166370a08231306040518263ffffffff1660e01b8152600401611c2191906155f9565b60206040518083038186803b158015611c3957600080fd5b505afa158015611c4d573d6000803e3d6000fd5b505050506040513d601f19601f82011682018060405250611c719190810190614f07565b14611cb1576040517f08c379a0000000000000000000000000000000000000000000000000000000008152600401611ca890615b25565b60405180910390fd5b5b6000831115611e3f57600a60009054906101000a900473ffffffffffffffffffffffffffffffffffffffff1673ffffffffffffffffffffffffffffffffffffffff16633df02124600160028660006040518563ffffffff1660e01b8152600401611d1f9493929190615787565b600060405180830381600087803b158015611d3957600080fd5b505af1158015611d4d573d6000803e3d6000fd5b505050506000600560009054906101000a900473ffffffffffffffffffffffffffffffffffffffff1673ffffffffffffffffffffffffffffffffffffffff166370a08231306040518263ffffffff1660e01b8152600401611dae91906155f9565b60206040518083038186803b158015611dc657600080fd5b505afa158015611dda573d6000803e3d6000fd5b505050506040513d601f19601f82011682018060405250611dfe9190810190614f07565b14611e3e576040517f08c379a0000000000000000000000000000000000000000000000000000000008152600401611e35906159e5565b60405180910390fd5b5b6000821115611fcc57600a60009054906101000a900473ffffffffffffffffffffffffffffffffffffffff1673ffffffffffffffffffffffffffffffffffffffff16633df02124600260018560006040518563ffffffff1660e01b8152600401611eac9493929190615811565b600060405180830381600087803b158015611ec657600080fd5b505af1158015611eda573d6000803e3d6000fd5b505050506000600760009054906101000a900473ffffffffffffffffffffffffffffffffffffffff1673ffffffffffffffffffffffffffffffffffffffff166370a08231306040518263ffffffff1660e01b8152600401611f3b91906155f9565b60206040518083038186803b158015611f5357600080fd5b505afa158015611f67573d6000803e3d6000fd5b505050506040513d601f19601f82011682018060405250611f8b9190810190614f07565b14611fcb576040517f08c379a0000000000000000000000000000000000000000000000000000000008152600401611fc2906159c5565b60405180910390fd5b5b600960009054906101000a900473ffffffffffffffffffffffffffffffffffffffff1673ffffffffffffffffffffffffffffffffffffffff16632e1a7d4d600960009054906101000a900473ffffffffffffffffffffffffffffffffffffffff1673ffffffffffffffffffffffffffffffffffffffff166370a08231306040518263ffffffff1660e01b815260040161206591906155f9565b60206040518083038186803b15801561207d57600080fd5b505afa158015612091573d6000803e3d6000fd5b505050506040513d601f19601f820116820180604052506120b59190810190614f07565b6040518263ffffffff1660e01b81526004016120d19190615b85565b600060405180830381600087803b1580156120eb57600080fd5b505af11580156120ff573d6000803e3d6000fd5b505050506000600960009054906101000a900473ffffffffffffffffffffffffffffffffffffffff1673ffffffffffffffffffffffffffffffffffffffff166370a08231306040518263ffffffff1660e01b815260040161216091906155f9565b60206040518083038186803b15801561217857600080fd5b505afa15801561218c573d6000803e3d6000fd5b505050506040513d601f19601f820116820180604052506121b09190810190614f07565b146121f0576040517f08c379a00000000000000000000000000000000000000000000000000000000081526004016121e790615a05565b60405180910390fd5b6122e733600860009054906101000a900473ffffffffffffffffffffffffffffffffffffffff1673ffffffffffffffffffffffffffffffffffffffff166370a08231306040518263ffffffff1660e01b815260040161224f91906155f9565b60206040518083038186803b15801561226757600080fd5b505afa15801561227b573d6000803e3d6000fd5b505050506040513d601f19601f8201168201806040525061229f9190810190614f07565b600860009054906101000a900473ffffffffffffffffffffffffffffffffffffffff1673ffffffffffffffffffffffffffffffffffffffff1661484d9092919063ffffffff16565b6000600860009054906101000a900473ffffffffffffffffffffffffffffffffffffffff1673ffffffffffffffffffffffffffffffffffffffff166370a08231306040518263ffffffff1660e01b815260040161234491906155f9565b60206040518083038186803b15801561235c57600080fd5b505afa158015612370573d6000803e3d6000fd5b505050506040513d601f19601f820116820180604052506123949190810190614f07565b146123d4576040517f08c379a00000000000000000000000000000000000000000000000000000000081526004016123cb90615a65565b60405180910390fd5b50505050600054811461241c576040517f08c379a000000000000000000000000000000000000000000000000000000000815260040161241390615b05565b60405180910390fd5b5050565b6124286125c4565b612467576040517f08c379a000000000000000000000000000000000000000000000000000000000815260040161245e90615a85565b60405180910390fd5b600073ffffffffffffffffffffffffffffffffffffffff16600160009054906101000a900473ffffffffffffffffffffffffffffffffffffffff1673ffffffffffffffffffffffffffffffffffffffff167f8be0079c531659141344cd1fd0a4f28419497f9722a3daafe3b4186f6b6457e060405160405180910390a36000600160006101000a81548173ffffffffffffffffffffffffffffffffffffffff021916908373ffffffffffffffffffffffffffffffffffffffff160217905550565b600360009054906101000a900473ffffffffffffffffffffffffffffffffffffffff1681565b600860009054906101000a900473ffffffffffffffffffffffffffffffffffffffff1681565b600460009054906101000a900473ffffffffffffffffffffffffffffffffffffffff1681565b6000600160009054906101000a900473ffffffffffffffffffffffffffffffffffffffff16905090565b6000600160009054906101000a900473ffffffffffffffffffffffffffffffffffffffff1673ffffffffffffffffffffffffffffffffffffffff1661260761498e565b73ffffffffffffffffffffffffffffffffffffffff1614905090565b6126b2600a60009054906101000a900473ffffffffffffffffffffffffffffffffffffffff167fffffffffffffffffffffffffffffffffffffffffffffffffffffffffffffffff600360009054906101000a900473ffffffffffffffffffffffffffffffffffffffff1673ffffffffffffffffffffffffffffffffffffffff166149969092919063ffffffff16565b612741600a60009054906101000a900473ffffffffffffffffffffffffffffffffffffffff167fffffffffffffffffffffffffffffffffffffffffffffffffffffffffffffffff600560009054906101000a900473ffffffffffffffffffffffffffffffffffffffff1673ffffffffffffffffffffffffffffffffffffffff166149969092919063ffffffff16565b6127d0600a60009054906101000a900473ffffffffffffffffffffffffffffffffffffffff167fffffffffffffffffffffffffffffffffffffffffffffffffffffffffffffffff600760009054906101000a900473ffffffffffffffffffffffffffffffffffffffff1673ffffffffffffffffffffffffffffffffffffffff166149969092919063ffffffff16565b61285f600a60009054906101000a900473ffffffffffffffffffffffffffffffffffffffff167fffffffffffffffffffffffffffffffffffffffffffffffffffffffffffffffff600960009054906101000a900473ffffffffffffffffffffffffffffffffffffffff1673ffffffffffffffffffffffffffffffffffffffff166149969092919063ffffffff16565b565b60016000808282540192505081905550600080549050600082116128ba576040517f08c379a00000000000000000000000000000000000000000000000000000000081526004016128b190615ac5565b60405180910390fd5b612909333084600b60009054906101000a900473ffffffffffffffffffffffffffffffffffffffff1673ffffffffffffffffffffffffffffffffffffffff166148ec909392919063ffffffff16565b600a60009054906101000a900473ffffffffffffffffffffffffffffffffffffffff1673ffffffffffffffffffffffffffffffffffffffff16637d49d875600b60009054906101000a900473ffffffffffffffffffffffffffffffffffffffff1673ffffffffffffffffffffffffffffffffffffffff166370a08231306040518263ffffffff1660e01b81526004016129a291906155f9565b60206040518083038186803b1580156129ba57600080fd5b505afa1580156129ce573d6000803e3d6000fd5b505050506040513d601f19601f820116820180604052506129f29190810190614f07565b604051806080016040528060008152602001600081526020016000815260200160008152506040518363ffffffff1660e01b8152600401612a34929190615ba0565b600060405180830381600087803b158015612a4e57600080fd5b505af1158015612a62573d6000803e3d6000fd5b505050506000600b60009054906101000a900473ffffffffffffffffffffffffffffffffffffffff1673ffffffffffffffffffffffffffffffffffffffff166370a08231306040518263ffffffff1660e01b8152600401612ac391906155f9565b60206040518083038186803b158015612adb57600080fd5b505afa158015612aef573d6000803e3d6000fd5b505050506040513d601f19601f82011682018060405250612b139190810190614f07565b14612b53576040517f08c379a0000000000000000000000000000000000000000000000000000000008152600401612b4a90615a45565b60405180910390fd5b6000600360009054906101000a900473ffffffffffffffffffffffffffffffffffffffff1673ffffffffffffffffffffffffffffffffffffffff166370a08231306040518263ffffffff1660e01b8152600401612bb091906155f9565b60206040518083038186803b158015612bc857600080fd5b505afa158015612bdc573d6000803e3d6000fd5b505050506040513d601f19601f82011682018060405250612c009190810190614f07565b90506000600560009054906101000a900473ffffffffffffffffffffffffffffffffffffffff1673ffffffffffffffffffffffffffffffffffffffff166370a08231306040518263ffffffff1660e01b8152600401612c5f91906155f9565b60206040518083038186803b158015612c7757600080fd5b505afa158015612c8b573d6000803e3d6000fd5b505050506040513d601f19601f82011682018060405250612caf9190810190614f07565b90506000600760009054906101000a900473ffffffffffffffffffffffffffffffffffffffff1673ffffffffffffffffffffffffffffffffffffffff166370a08231306040518263ffffffff1660e01b8152600401612d0e91906155f9565b60206040518083038186803b158015612d2657600080fd5b505afa158015612d3a573d6000803e3d6000fd5b505050506040513d601f19601f82011682018060405250612d5e9190810190614f07565b90506000600960009054906101000a900473ffffffffffffffffffffffffffffffffffffffff1673ffffffffffffffffffffffffffffffffffffffff166370a08231306040518263ffffffff1660e01b8152600401612dbd91906155f9565b60206040518083038186803b158015612dd557600080fd5b505afa158015612de9573d6000803e3d6000fd5b505050506040513d601f19601f82011682018060405250612e0d9190810190614f07565b90506000841180612e1e5750600083115b80612e295750600082115b80612e345750600081115b612e73576040517f08c379a0000000000000000000000000000000000000000000000000000000008152600401612e6a90615945565b60405180910390fd5b600083111561300057600a60009054906101000a900473ffffffffffffffffffffffffffffffffffffffff1673ffffffffffffffffffffffffffffffffffffffff16633df02124600160008660006040518563ffffffff1660e01b8152600401612ee09493929190615742565b600060405180830381600087803b158015612efa57600080fd5b505af1158015612f0e573d6000803e3d6000fd5b505050506000600560009054906101000a900473ffffffffffffffffffffffffffffffffffffffff1673ffffffffffffffffffffffffffffffffffffffff166370a08231306040518263ffffffff1660e01b8152600401612f6f91906155f9565b60206040518083038186803b158015612f8757600080fd5b505afa158015612f9b573d6000803e3d6000fd5b505050506040513d601f19601f82011682018060405250612fbf9190810190614f07565b14612fff576040517f08c379a0000000000000000000000000000000000000000000000000000000008152600401612ff6906159e5565b60405180910390fd5b5b600082111561318d57600a60009054906101000a900473ffffffffffffffffffffffffffffffffffffffff1673ffffffffffffffffffffffffffffffffffffffff16633df02124600260008560006040518563ffffffff1660e01b815260040161306d94939291906157cc565b600060405180830381600087803b15801561308757600080fd5b505af115801561309b573d6000803e3d6000fd5b505050506000600760009054906101000a900473ffffffffffffffffffffffffffffffffffffffff1673ffffffffffffffffffffffffffffffffffffffff166370a08231306040518263ffffffff1660e01b81526004016130fc91906155f9565b60206040518083038186803b15801561311457600080fd5b505afa158015613128573d6000803e3d6000fd5b505050506040513d601f19601f8201168201806040525061314c9190810190614f07565b1461318c576040517f08c379a0000000000000000000000000000000000000000000000000000000008152600401613183906159c5565b60405180910390fd5b5b600081111561331a57600a60009054906101000a900473ffffffffffffffffffffffffffffffffffffffff1673ffffffffffffffffffffffffffffffffffffffff16633df02124600360008460006040518563ffffffff1660e01b81526004016131fa9493929190615856565b600060405180830381600087803b15801561321457600080fd5b505af1158015613228573d6000803e3d6000fd5b505050506000600960009054906101000a900473ffffffffffffffffffffffffffffffffffffffff1673ffffffffffffffffffffffffffffffffffffffff166370a08231306040518263ffffffff1660e01b815260040161328991906155f9565b60206040518083038186803b1580156132a157600080fd5b505afa1580156132b5573d6000803e3d6000fd5b505050506040513d601f19601f820116820180604052506132d99190810190614f07565b14613319576040517f08c379a000000000000000000000000000000000000000000000000000000000815260040161331090615a05565b60405180910390fd5b5b600360009054906101000a900473ffffffffffffffffffffffffffffffffffffffff1673ffffffffffffffffffffffffffffffffffffffff16632e1a7d4d600360009054906101000a900473ffffffffffffffffffffffffffffffffffffffff1673ffffffffffffffffffffffffffffffffffffffff166370a08231306040518263ffffffff1660e01b81526004016133b391906155f9565b60206040518083038186803b1580156133cb57600080fd5b505afa1580156133df573d6000803e3d6000fd5b505050506040513d601f19601f820116820180604052506134039190810190614f07565b6040518263ffffffff1660e01b815260040161341f9190615b85565b600060405180830381600087803b15801561343957600080fd5b505af115801561344d573d6000803e3d6000fd5b505050506000600360009054906101000a900473ffffffffffffffffffffffffffffffffffffffff1673ffffffffffffffffffffffffffffffffffffffff166370a08231306040518263ffffffff1660e01b81526004016134ae91906155f9565b60206040518083038186803b1580156134c657600080fd5b505afa1580156134da573d6000803e3d6000fd5b505050506040513d601f19601f820116820180604052506134fe9190810190614f07565b1461353e576040517f08c379a000000000000000000000000000000000000000000000000000000000815260040161353590615b25565b60405180910390fd5b61363533600260009054906101000a900473ffffffffffffffffffffffffffffffffffffffff1673ffffffffffffffffffffffffffffffffffffffff166370a08231306040518263ffffffff1660e01b815260040161359d91906155f9565b60206040518083038186803b1580156135b557600080fd5b505afa1580156135c9573d6000803e3d6000fd5b505050506040513d601f19601f820116820180604052506135ed9190810190614f07565b600260009054906101000a900473ffffffffffffffffffffffffffffffffffffffff1673ffffffffffffffffffffffffffffffffffffffff1661484d9092919063ffffffff16565b6000600260009054906101000a900473ffffffffffffffffffffffffffffffffffffffff1673ffffffffffffffffffffffffffffffffffffffff166370a08231306040518263ffffffff1660e01b815260040161369291906155f9565b60206040518083038186803b1580156136aa57600080fd5b505afa1580156136be573d6000803e3d6000fd5b505050506040513d601f19601f820116820180604052506136e29190810190614f07565b14613722576040517f08c379a000000000000000000000000000000000000000000000000000000000815260040161371990615925565b60405180910390fd5b50505050600054811461376a576040517f08c379a000000000000000000000000000000000000000000000000000000000815260040161376190615b05565b60405180910390fd5b5050565b600660009054906101000a900473ffffffffffffffffffffffffffffffffffffffff1681565b60016000808282540192505081905550600080549050600082116137ed576040517f08c379a00000000000000000000000000000000000000000000000000000000081526004016137e490615ac5565b60405180910390fd5b61383c333084600b60009054906101000a900473ffffffffffffffffffffffffffffffffffffffff1673ffffffffffffffffffffffffffffffffffffffff166148ec909392919063ffffffff16565b600a60009054906101000a900473ffffffffffffffffffffffffffffffffffffffff1673ffffffffffffffffffffffffffffffffffffffff16637d49d875600b60009054906101000a900473ffffffffffffffffffffffffffffffffffffffff1673ffffffffffffffffffffffffffffffffffffffff166370a08231306040518263ffffffff1660e01b81526004016138d591906155f9565b60206040518083038186803b1580156138ed57600080fd5b505afa158015613901573d6000803e3d6000fd5b505050506040513d601f19601f820116820180604052506139259190810190614f07565b604051806080016040528060008152602001600081526020016000815260200160008152506040518363ffffffff1660e01b8152600401613967929190615ba0565b600060405180830381600087803b15801561398157600080fd5b505af1158015613995573d6000803e3d6000fd5b505050506000600b60009054906101000a900473ffffffffffffffffffffffffffffffffffffffff1673ffffffffffffffffffffffffffffffffffffffff166370a08231306040518263ffffffff1660e01b81526004016139f691906155f9565b60206040518083038186803b158015613a0e57600080fd5b505afa158015613a22573d6000803e3d6000fd5b505050506040513d601f19601f82011682018060405250613a469190810190614f07565b14613a86576040517f08c379a0000000000000000000000000000000000000000000000000000000008152600401613a7d90615a45565b60405180910390fd5b6000600360009054906101000a900473ffffffffffffffffffffffffffffffffffffffff1673ffffffffffffffffffffffffffffffffffffffff166370a08231306040518263ffffffff1660e01b8152600401613ae391906155f9565b60206040518083038186803b158015613afb57600080fd5b505afa158015613b0f573d6000803e3d6000fd5b505050506040513d601f19601f82011682018060405250613b339190810190614f07565b90506000600560009054906101000a900473ffffffffffffffffffffffffffffffffffffffff1673ffffffffffffffffffffffffffffffffffffffff166370a08231306040518263ffffffff1660e01b8152600401613b9291906155f9565b60206040518083038186803b158015613baa57600080fd5b505afa158015613bbe573d6000803e3d6000fd5b505050506040513d601f19601f82011682018060405250613be29190810190614f07565b90506000600760009054906101000a900473ffffffffffffffffffffffffffffffffffffffff1673ffffffffffffffffffffffffffffffffffffffff166370a08231306040518263ffffffff1660e01b8152600401613c4191906155f9565b60206040518083038186803b158015613c5957600080fd5b505afa158015613c6d573d6000803e3d6000fd5b505050506040513d601f19601f82011682018060405250613c919190810190614f07565b90506000600960009054906101000a900473ffffffffffffffffffffffffffffffffffffffff1673ffffffffffffffffffffffffffffffffffffffff166370a08231306040518263ffffffff1660e01b8152600401613cf091906155f9565b60206040518083038186803b158015613d0857600080fd5b505afa158015613d1c573d6000803e3d6000fd5b505050506040513d601f19601f82011682018060405250613d409190810190614f07565b90506000841180613d515750600083115b80613d5c5750600082115b80613d675750600081115b613da6576040517f08c379a0000000000000000000000000000000000000000000000000000000008152600401613d9d90615945565b60405180910390fd5b6000841115613f3357600a60009054906101000a900473ffffffffffffffffffffffffffffffffffffffff1673ffffffffffffffffffffffffffffffffffffffff16633df02124600060018760006040518563ffffffff1660e01b8152600401613e1394939291906156b8565b600060405180830381600087803b158015613e2d57600080fd5b505af1158015613e41573d6000803e3d6000fd5b505050506000600360009054906101000a900473ffffffffffffffffffffffffffffffffffffffff1673ffffffffffffffffffffffffffffffffffffffff166370a08231306040518263ffffffff1660e01b8152600401613ea291906155f9565b60206040518083038186803b158015613eba57600080fd5b505afa158015613ece573d6000803e3d6000fd5b505050506040513d601f19601f82011682018060405250613ef29190810190614f07565b14613f32576040517f08c379a0000000000000000000000000000000000000000000000000000000008152600401613f2990615b25565b60405180910390fd5b5b60008211156140c057600a60009054906101000a900473ffffffffffffffffffffffffffffffffffffffff1673ffffffffffffffffffffffffffffffffffffffff16633df02124600260018560006040518563ffffffff1660e01b8152600401613fa09493929190615811565b600060405180830381600087803b158015613fba57600080fd5b505af1158015613fce573d6000803e3d6000fd5b505050506000600760009054906101000a900473ffffffffffffffffffffffffffffffffffffffff1673ffffffffffffffffffffffffffffffffffffffff166370a08231306040518263ffffffff1660e01b815260040161402f91906155f9565b60206040518083038186803b15801561404757600080fd5b505afa15801561405b573d6000803e3d6000fd5b505050506040513d601f19601f8201168201806040525061407f9190810190614f07565b146140bf576040517f08c379a00000000000000000000000000000000000000000000000000000000081526004016140b6906159c5565b60405180910390fd5b5b600081111561424d57600a60009054906101000a900473ffffffffffffffffffffffffffffffffffffffff1673ffffffffffffffffffffffffffffffffffffffff16633df02124600360018460006040518563ffffffff1660e01b815260040161412d949392919061589b565b600060405180830381600087803b15801561414757600080fd5b505af115801561415b573d6000803e3d6000fd5b505050506000600960009054906101000a900473ffffffffffffffffffffffffffffffffffffffff1673ffffffffffffffffffffffffffffffffffffffff166370a08231306040518263ffffffff1660e01b81526004016141bc91906155f9565b60206040518083038186803b1580156141d457600080fd5b505afa1580156141e8573d6000803e3d6000fd5b505050506040513d601f19601f8201168201806040525061420c9190810190614f07565b1461424c576040517f08c379a000000000000000000000000000000000000000000000000000000000815260040161424390615a05565b60405180910390fd5b5b600560009054906101000a900473ffffffffffffffffffffffffffffffffffffffff1673ffffffffffffffffffffffffffffffffffffffff16632e1a7d4d600560009054906101000a900473ffffffffffffffffffffffffffffffffffffffff1673ffffffffffffffffffffffffffffffffffffffff166370a08231306040518263ffffffff1660e01b81526004016142e691906155f9565b60206040518083038186803b1580156142fe57600080fd5b505afa158015614312573d6000803e3d6000fd5b505050506040513d601f19601f820116820180604052506143369190810190614f07565b6040518263ffffffff1660e01b81526004016143529190615b85565b600060405180830381600087803b15801561436c57600080fd5b505af1158015614380573d6000803e3d6000fd5b505050506000600560009054906101000a900473ffffffffffffffffffffffffffffffffffffffff1673ffffffffffffffffffffffffffffffffffffffff166370a08231306040518263ffffffff1660e01b81526004016143e191906155f9565b60206040518083038186803b1580156143f957600080fd5b505afa15801561440d573d6000803e3d6000fd5b505050506040513d601f19601f820116820180604052506144319190810190614f07565b14614471576040517f08c379a0000000000000000000000000000000000000000000000000000000008152600401614468906159e5565b60405180910390fd5b61456833600460009054906101000a900473ffffffffffffffffffffffffffffffffffffffff1673ffffffffffffffffffffffffffffffffffffffff166370a08231306040518263ffffffff1660e01b81526004016144d091906155f9565b60206040518083038186803b1580156144e857600080fd5b505afa1580156144fc573d6000803e3d6000fd5b505050506040513d601f19601f820116820180604052506145209190810190614f07565b600460009054906101000a900473ffffffffffffffffffffffffffffffffffffffff1673ffffffffffffffffffffffffffffffffffffffff1661484d9092919063ffffffff16565b6000600460009054906101000a900473ffffffffffffffffffffffffffffffffffffffff1673ffffffffffffffffffffffffffffffffffffffff166370a08231306040518263ffffffff1660e01b81526004016145c591906155f9565b60206040518083038186803b1580156145dd57600080fd5b505afa1580156145f1573d6000803e3d6000fd5b505050506040513d601f19601f820116820180604052506146159190810190614f07565b14614655576040517f08c379a000000000000000000000000000000000000000000000000000000000815260040161464c90615aa5565b60405180910390fd5b50505050600054811461469d576040517f08c379a000000000000000000000000000000000000000000000000000000000815260040161469490615b05565b60405180910390fd5b5050565b600260009054906101000a900473ffffffffffffffffffffffffffffffffffffffff1681565b600960009054906101000a900473ffffffffffffffffffffffffffffffffffffffff1681565b6146f56125c4565b614734576040517f08c379a000000000000000000000000000000000000000000000000000000000815260040161472b90615a85565b60405180910390fd5b61473d81614b0d565b50565b6147486125c4565b614787576040517f08c379a000000000000000000000000000000000000000000000000000000000815260040161477e90615a85565b60405180910390fd5b60003373ffffffffffffffffffffffffffffffffffffffff163073ffffffffffffffffffffffffffffffffffffffff16316040516147c4906155c9565b60006040518083038185875af1925050503d8060008114614801576040519150601f19603f3d011682016040523d82523d6000602084013e614806565b606091505b505090508061484a576040517f08c379a000000000000000000000000000000000000000000000000000000000815260040161484190615a25565b60405180910390fd5b50565b6148e7838473ffffffffffffffffffffffffffffffffffffffff1663a9059cbb905060e01b8484604051602401614885929190615674565b604051602081830303815290604052907bffffffffffffffffffffffffffffffffffffffffffffffffffffffff19166020820180517bffffffffffffffffffffffffffffffffffffffffffffffffffffffff8381831617835250505050614c3d565b505050565b614988848573ffffffffffffffffffffffffffffffffffffffff166323b872dd905060e01b8585856040516024016149269392919061563d565b604051602081830303815290604052907bffffffffffffffffffffffffffffffffffffffffffffffffffffffff19166020820180517bffffffffffffffffffffffffffffffffffffffffffffffffffffffff8381831617835250505050614c3d565b50505050565b600033905090565b6000811480614a2f575060008373ffffffffffffffffffffffffffffffffffffffff1663dd62ed3e30856040518363ffffffff1660e01b81526004016149dd929190615614565b60206040518083038186803b1580156149f557600080fd5b505afa158015614a09573d6000803e3d6000fd5b505050506040513d601f19601f82011682018060405250614a2d9190810190614f07565b145b614a6e576040517f08c379a0000000000000000000000000000000000000000000000000000000008152600401614a6590615b45565b60405180910390fd5b614b08838473ffffffffffffffffffffffffffffffffffffffff1663095ea7b3905060e01b8484604051602401614aa6929190615674565b604051602081830303815290604052907bffffffffffffffffffffffffffffffffffffffffffffffffffffffff19166020820180517bffffffffffffffffffffffffffffffffffffffffffffffffffffffff8381831617835250505050614c3d565b505050565b600073ffffffffffffffffffffffffffffffffffffffff168173ffffffffffffffffffffffffffffffffffffffff161415614b7d576040517f08c379a0000000000000000000000000000000000000000000000000000000008152600401614b7490615965565b60405180910390fd5b8073ffffffffffffffffffffffffffffffffffffffff16600160009054906101000a900473ffffffffffffffffffffffffffffffffffffffff1673ffffffffffffffffffffffffffffffffffffffff167f8be0079c531659141344cd1fd0a4f28419497f9722a3daafe3b4186f6b6457e060405160405180910390a380600160006101000a81548173ffffffffffffffffffffffffffffffffffffffff021916908373ffffffffffffffffffffffffffffffffffffffff16021790555050565b614c5c8273ffffffffffffffffffffffffffffffffffffffff16614daf565b614c9b576040517f08c379a0000000000000000000000000000000000000000000000000000000008152600401614c9290615b65565b60405180910390fd5b600060608373ffffffffffffffffffffffffffffffffffffffff1683604051614cc491906155b2565b6000604051808303816000865af19150503d8060008114614d01576040519150601f19603f3d011682016040523d82523d6000602084013e614d06565b606091505b509150915081614d4b576040517f08c379a0000000000000000000000000000000000000000000000000000000008152600401614d42906159a5565b60405180910390fd5b600081511115614da95780806020019051614d699190810190614e8c565b614da8576040517f08c379a0000000000000000000000000000000000000000000000000000000008152600401614d9f90615ae5565b60405180910390fd5b5b50505050565b60008060007fc5d2460186f7233c927e7db2dcc703c0e500b653ca82273b7bfad8045d85a47060001b9050833f91506000801b8214158015614df15750808214155b92505050919050565b600081359050614e0981615d47565b92915050565b600081519050614e1e81615d5e565b92915050565b600081359050614e3381615d75565b92915050565b600081359050614e4881615d8c565b92915050565b600081519050614e5d81615d8c565b92915050565b600060208284031215614e7557600080fd5b6000614e8384828501614dfa565b91505092915050565b600060208284031215614e9e57600080fd5b6000614eac84828501614e0f565b91505092915050565b600060208284031215614ec757600080fd5b6000614ed584828501614e24565b91505092915050565b600060208284031215614ef057600080fd5b6000614efe84828501614e39565b91505092915050565b600060208284031215614f1957600080fd5b6000614f2784828501614e4e565b91505092915050565b6000614f3c8383615594565b60208301905092915050565b614f5181615c84565b82525050565b614f6081615c1d565b82525050565b614f6f81615bd3565b614f798184615bf6565b9250614f8482615bc9565b8060005b83811015614fb5578151614f9c8782614f30565b9650614fa783615be9565b925050600181019050614f88565b505050505050565b614fc681615c2f565b82525050565b6000614fd782615bde565b614fe18185615c01565b9350614ff1818560208601615d14565b80840191505092915050565b61500681615c96565b82525050565b61501581615ca8565b82525050565b61502481615cba565b82525050565b61503381615ccc565b82525050565b61504281615cde565b82525050565b6000615055600d83615c0c565b91507f4441492072656d61696e646572000000000000000000000000000000000000006000830152602082019050919050565b6000615095601183615c0c565b91507f6e6f20792e746f6b656e7320666f756e640000000000000000000000000000006000830152602082019050919050565b60006150d5602683615c0c565b91507f4f776e61626c653a206e6577206f776e657220697320746865207a65726f206160008301527f64647265737300000000000000000000000000000000000000000000000000006020830152604082019050919050565b600061513b600e83615c0c565b91507f555344542072656d61696e6465720000000000000000000000000000000000006000830152602082019050919050565b600061517b602083615c0c565b91507f5361666545524332303a206c6f772d6c6576656c2063616c6c206661696c65646000830152602082019050919050565b60006151bb601083615c0c565b91507f792e555344542072656d61696e646572000000000000000000000000000000006000830152602082019050919050565b60006151fb601083615c0c565b91507f792e555344432072656d61696e646572000000000000000000000000000000006000830152602082019050919050565b600061523b601083615c0c565b91507f792e545553442072656d61696e646572000000000000000000000000000000006000830152602082019050919050565b600061527b601683615c0c565b91507f7472616e73666572206f6620455448206661696c6564000000000000000000006000830152602082019050919050565b60006152bb600f83615c0c565b91507f43555256452072656d61696e64657200000000000000000000000000000000006000830152602082019050919050565b60006152fb600e83615c0c565b91507f545553442072656d61696e6465720000000000000000000000000000000000006000830152602082019050919050565b600061533b602083615c0c565b91507f4f776e61626c653a2063616c6c6572206973206e6f7420746865206f776e65726000830152602082019050919050565b600061537b600e83615c0c565b91507f555344432072656d61696e6465720000000000000000000000000000000000006000830152602082019050919050565b60006153bb600083615c01565b9150600082019050919050565b60006153d5601e83615c0c565b91507f6465706f736974206d7573742062652067726561746572207468616e203000006000830152602082019050919050565b6000615415602a83615c0c565b91507f5361666545524332303a204552433230206f7065726174696f6e20646964206e60008301527f6f742073756363656564000000000000000000000000000000000000000000006020830152604082019050919050565b600061547b601f83615c0c565b91507f5265656e7472616e637947756172643a207265656e7472616e742063616c6c006000830152602082019050919050565b60006154bb600f83615c0c565b91507f792e4441492072656d61696e64657200000000000000000000000000000000006000830152602082019050919050565b60006154fb603683615c0c565b91507f5361666545524332303a20617070726f76652066726f6d206e6f6e2d7a65726f60008301527f20746f206e6f6e2d7a65726f20616c6c6f77616e6365000000000000000000006020830152604082019050919050565b6000615561601f83615c0c565b91507f5361666545524332303a2063616c6c20746f206e6f6e2d636f6e7472616374006000830152602082019050919050565b61559d81615c7a565b82525050565b6155ac81615c7a565b82525050565b60006155be8284614fcc565b915081905092915050565b60006155d4826153ae565b9150819050919050565b60006020820190506155f36000830184614f57565b92915050565b600060208201905061560e6000830184614f48565b92915050565b60006040820190506156296000830185614f57565b6156366020830184614f57565b9392505050565b60006060820190506156526000830186614f57565b61565f6020830185614f57565b61566c60408301846155a3565b949350505050565b60006040820190506156896000830185614f57565b61569660208301846155a3565b9392505050565b60006020820190506156b26000830184614fbd565b92915050565b60006080820190506156cd6000830187614ffd565b6156da602083018661501b565b6156e760408301856155a3565b6156f4606083018461500c565b95945050505050565b60006080820190506157126000830187614ffd565b61571f602083018661502a565b61572c60408301856155a3565b615739606083018461500c565b95945050505050565b6000608082019050615757600083018761501b565b6157646020830186614ffd565b61577160408301856155a3565b61577e606083018461500c565b95945050505050565b600060808201905061579c600083018761501b565b6157a9602083018661502a565b6157b660408301856155a3565b6157c3606083018461500c565b95945050505050565b60006080820190506157e1600083018761502a565b6157ee6020830186614ffd565b6157fb60408301856155a3565b615808606083018461500c565b95945050505050565b6000608082019050615826600083018761502a565b615833602083018661501b565b61584060408301856155a3565b61584d606083018461500c565b95945050505050565b600060808201905061586b6000830187615039565b6158786020830186614ffd565b61588560408301856155a3565b615892606083018461500c565b95945050505050565b60006080820190506158b06000830187615039565b6158bd602083018661501b565b6158ca60408301856155a3565b6158d7606083018461500c565b95945050505050565b60006080820190506158f56000830187615039565b615902602083018661502a565b61590f60408301856155a3565b61591c606083018461500c565b95945050505050565b6000602082019050818103600083015261593e81615048565b9050919050565b6000602082019050818103600083015261595e81615088565b9050919050565b6000602082019050818103600083015261597e816150c8565b9050919050565b6000602082019050818103600083015261599e8161512e565b9050919050565b600060208201905081810360008301526159be8161516e565b9050919050565b600060208201905081810360008301526159de816151ae565b9050919050565b600060208201905081810360008301526159fe816151ee565b9050919050565b60006020820190508181036000830152615a1e8161522e565b9050919050565b60006020820190508181036000830152615a3e8161526e565b9050919050565b60006020820190508181036000830152615a5e816152ae565b9050919050565b60006020820190508181036000830152615a7e816152ee565b9050919050565b60006020820190508181036000830152615a9e8161532e565b9050919050565b60006020820190508181036000830152615abe8161536e565b9050919050565b60006020820190508181036000830152615ade816153c8565b9050919050565b60006020820190508181036000830152615afe81615408565b9050919050565b60006020820190508181036000830152615b1e8161546e565b9050919050565b60006020820190508181036000830152615b3e816154ae565b9050919050565b60006020820190508181036000830152615b5e816154ee565b9050919050565b60006020820190508181036000830152615b7e81615554565b9050919050565b6000602082019050615b9a60008301846155a3565b92915050565b600060a082019050615bb560008301856155a3565b615bc26020830184614f66565b9392505050565b6000819050919050565b600060049050919050565b600081519050919050565b6000602082019050919050565b600081905092915050565b600081905092915050565b600082825260208201905092915050565b6000615c2882615c5a565b9050919050565b60008115159050919050565b6000615c4682615c1d565b9050919050565b600081600f0b9050919050565b600073ffffffffffffffffffffffffffffffffffffffff82169050919050565b6000819050919050565b6000615c8f82615cf0565b9050919050565b6000615ca182615c4d565b9050919050565b6000615cb382615c7a565b9050919050565b6000615cc582615c4d565b9050919050565b6000615cd782615c4d565b9050919050565b6000615ce982615c4d565b9050919050565b6000615cfb82615d02565b9050919050565b6000615d0d82615c5a565b9050919050565b60005b83811015615d32578082015181840152602081019050615d17565b83811115615d41576000848401525b50505050565b615d5081615c1d565b8114615d5b57600080fd5b50565b615d6781615c2f565b8114615d7257600080fd5b50565b615d7e81615c3b565b8114615d8957600080fd5b50565b615d9581615c7a565b8114615da057600080fd5b5056fea365627a7a7231582041bde61d12e58674f970f01ed3e5344ab4f28a5bac51868bedf13c145de267d06c6578706572696d656e74616cf564736f6c634300050c0040",
  "source": "pragma solidity ^0.5.0;\npragma experimental ABIEncoderV2;\n\ninterface IERC20 {\n    function totalSupply() external view returns (uint256);\n    function balanceOf(address account) external view returns (uint256);\n    function transfer(address recipient, uint256 amount) external returns (bool);\n    function allowance(address owner, address spender) external view returns (uint256);\n    function approve(address spender, uint256 amount) external returns (bool);\n    function transferFrom(address sender, address recipient, uint256 amount) external returns (bool);\n    event Transfer(address indexed from, address indexed to, uint256 value);\n    event Approval(address indexed owner, address indexed spender, uint256 value);\n}\n\ncontract Context {\n    constructor () internal { }\n    // solhint-disable-previous-line no-empty-blocks\n\n    function _msgSender() internal view returns (address payable) {\n        return msg.sender;\n    }\n\n    function _msgData() internal view returns (bytes memory) {\n        this; // silence state mutability warning without generating bytecode - see https://github.com/ethereum/solidity/issues/2691\n        return msg.data;\n    }\n}\n\ncontract ReentrancyGuard {\n    uint256 private _guardCounter;\n\n    constructor () internal {\n        _guardCounter = 1;\n    }\n\n    modifier nonReentrant() {\n        _guardCounter += 1;\n        uint256 localCounter = _guardCounter;\n        _;\n        require(localCounter == _guardCounter, \"ReentrancyGuard: reentrant call\");\n    }\n}\n\ncontract Ownable is Context {\n    address private _owner;\n\n    event OwnershipTransferred(address indexed previousOwner, address indexed newOwner);\n    constructor () internal {\n        _owner = _msgSender();\n        emit OwnershipTransferred(address(0), _owner);\n    }\n    function owner() public view returns (address) {\n        return _owner;\n    }\n    modifier onlyOwner() {\n        require(isOwner(), \"Ownable: caller is not the owner\");\n        _;\n    }\n    function isOwner() public view returns (bool) {\n        return _msgSender() == _owner;\n    }\n    function renounceOwnership() public onlyOwner {\n        emit OwnershipTransferred(_owner, address(0));\n        _owner = address(0);\n    }\n    function transferOwnership(address newOwner) public onlyOwner {\n        _transferOwnership(newOwner);\n    }\n    function _transferOwnership(address newOwner) internal {\n        require(newOwner != address(0), \"Ownable: new owner is the zero address\");\n        emit OwnershipTransferred(_owner, newOwner);\n        _owner = newOwner;\n    }\n}\n\nlibrary SafeMath {\n    function add(uint256 a, uint256 b) internal pure returns (uint256) {\n        uint256 c = a + b;\n        require(c >= a, \"SafeMath: addition overflow\");\n\n        return c;\n    }\n    function sub(uint256 a, uint256 b) internal pure returns (uint256) {\n        return sub(a, b, \"SafeMath: subtraction overflow\");\n    }\n    function sub(uint256 a, uint256 b, string memory errorMessage) internal pure returns (uint256) {\n        require(b <= a, errorMessage);\n        uint256 c = a - b;\n\n        return c;\n    }\n    function mul(uint256 a, uint256 b) internal pure returns (uint256) {\n        if (a == 0) {\n            return 0;\n        }\n\n        uint256 c = a * b;\n        require(c / a == b, \"SafeMath: multiplication overflow\");\n\n        return c;\n    }\n    function div(uint256 a, uint256 b) internal pure returns (uint256) {\n        return div(a, b, \"SafeMath: division by zero\");\n    }\n    function div(uint256 a, uint256 b, string memory errorMessage) internal pure returns (uint256) {\n        // Solidity only automatically asserts when dividing by 0\n        require(b > 0, errorMessage);\n        uint256 c = a / b;\n\n        return c;\n    }\n    function mod(uint256 a, uint256 b) internal pure returns (uint256) {\n        return mod(a, b, \"SafeMath: modulo by zero\");\n    }\n    function mod(uint256 a, uint256 b, string memory errorMessage) internal pure returns (uint256) {\n        require(b != 0, errorMessage);\n        return a % b;\n    }\n}\n\nlibrary Address {\n    function isContract(address account) internal view returns (bool) {\n        bytes32 codehash;\n        bytes32 accountHash = 0xc5d2460186f7233c927e7db2dcc703c0e500b653ca82273b7bfad8045d85a470;\n        // solhint-disable-next-line no-inline-assembly\n        assembly { codehash := extcodehash(account) }\n        return (codehash != 0x0 && codehash != accountHash);\n    }\n    function toPayable(address account) internal pure returns (address payable) {\n        return address(uint160(account));\n    }\n    function sendValue(address payable recipient, uint256 amount) internal {\n        require(address(this).balance >= amount, \"Address: insufficient balance\");\n\n        // solhint-disable-next-line avoid-call-value\n        (bool success, ) = recipient.call.value(amount)(\"\");\n        require(success, \"Address: unable to send value, recipient may have reverted\");\n    }\n}\n\nlibrary SafeERC20 {\n    using SafeMath for uint256;\n    using Address for address;\n\n    function safeTransfer(IERC20 token, address to, uint256 value) internal {\n        callOptionalReturn(token, abi.encodeWithSelector(token.transfer.selector, to, value));\n    }\n    function safeTransferFrom(IERC20 token, address from, address to, uint256 value) internal {\n        callOptionalReturn(token, abi.encodeWithSelector(token.transferFrom.selector, from, to, value));\n    }\n    function safeApprove(IERC20 token, address spender, uint256 value) internal {\n        require((value == 0) || (token.allowance(address(this), spender) == 0),\n            \"SafeERC20: approve from non-zero to non-zero allowance\"\n        );\n        callOptionalReturn(token, abi.encodeWithSelector(token.approve.selector, spender, value));\n    }\n    function callOptionalReturn(IERC20 token, bytes memory data) private {\n        require(address(token).isContract(), \"SafeERC20: call to non-contract\");\n\n        // solhint-disable-next-line avoid-low-level-calls\n        (bool success, bytes memory returndata) = address(token).call(data);\n        require(success, \"SafeERC20: low-level call failed\");\n\n        if (returndata.length > 0) { // Return data is optional\n            // solhint-disable-next-line max-line-length\n            require(abi.decode(returndata, (bool)), \"SafeERC20: ERC20 operation did not succeed\");\n        }\n    }\n}\n\ninterface yERC20 {\n  function withdraw(uint256 _amount) external;\n}\n\n// Solidity Interface\n\ninterface ICurveFi {\n\n  function remove_liquidity(\n    uint256 _amount,\n    uint256[4] calldata amounts\n  ) external;\n  function exchange(\n    int128 from, int128 to, uint256 _from_amount, uint256 _min_to_amount\n  ) external;\n}\n\ncontract yCurveZapOut is ReentrancyGuard, Ownable {\n  using SafeERC20 for IERC20;\n  using Address for address;\n  using SafeMath for uint256;\n\n  address public DAI;\n  address public yDAI;\n  address public USDC;\n  address public yUSDC;\n  address public USDT;\n  address public yUSDT;\n  address public TUSD;\n  address public yTUSD;\n  address public SWAP;\n  address public CURVE;\n\n  constructor () public {\n    DAI = address(0x6B175474E89094C44Da98b954EedeAC495271d0F);\n    yDAI = address(0x16de59092dAE5CcF4A1E6439D611fd0653f0Bd01);\n\n    USDC = address(0xA0b86991c6218b36c1d19D4a2e9Eb0cE3606eB48);\n    yUSDC = address(0xd6aD7a6750A7593E092a9B218d66C0A814a3436e);\n\n    USDT = address(0xdAC17F958D2ee523a2206206994597C13D831ec7);\n    yUSDT = address(0x83f798e925BcD4017Eb265844FDDAbb448f1707D);\n\n    TUSD = address(0x0000000000085d4780B73119b644AE5ecd22b376);\n    yTUSD = address(0x73a052500105205d34Daf004eAb301916DA8190f);\n\n    SWAP = address(0x45F783CCE6B7FF23B2ab2D70e416cdb7D6055f51);\n    CURVE = address(0xdF5e0e81Dff6FAF3A7e52BA697820c5e32D806A8);\n\n    approveToken();\n  }\n\n  function() external payable {\n\n  }\n\n  function approveToken() public {\n      IERC20(yDAI).safeApprove(SWAP, uint(-1));\n      IERC20(yUSDC).safeApprove(SWAP, uint(-1));\n      IERC20(yUSDT).safeApprove(SWAP, uint(-1));\n      IERC20(yTUSD).safeApprove(SWAP, uint(-1));\n  }\n\n  // 0 = dai\n  // 1 = usdc\n  // 2 = usdt\n  // 3 = tusd\n\n  function withdrawDAI(uint256 _amount)\n      external\n      nonReentrant\n  {\n      require(_amount > 0, \"deposit must be greater than 0\");\n      IERC20(CURVE).safeTransferFrom(msg.sender, address(this), _amount);\n\n      ICurveFi(SWAP).remove_liquidity(IERC20(CURVE).balanceOf(address(this)), [uint256(0),0,0,0]);\n      require(IERC20(CURVE).balanceOf(address(this)) == 0, \"CURVE remainder\");\n\n      uint256 _ydai = IERC20(yDAI).balanceOf(address(this));\n      uint256 _yusdc = IERC20(yUSDC).balanceOf(address(this));\n      uint256 _yusdt = IERC20(yUSDT).balanceOf(address(this));\n      uint256 _ytusd = IERC20(yTUSD).balanceOf(address(this));\n\n      require(_ydai > 0 || _yusdc > 0 || _yusdt > 0 || _ytusd > 0, \"no y.tokens found\");\n\n      if (_yusdc > 0) {\n        ICurveFi(SWAP).exchange(1, 0, _yusdc, 0);\n        require(IERC20(yUSDC).balanceOf(address(this)) == 0, \"y.USDC remainder\");\n      }\n      if (_yusdt > 0) {\n        ICurveFi(SWAP).exchange(2, 0, _yusdt, 0);\n        require(IERC20(yUSDT).balanceOf(address(this)) == 0, \"y.USDT remainder\");\n      }\n      if (_ytusd > 0) {\n        ICurveFi(SWAP).exchange(3, 0, _ytusd, 0);\n        require(IERC20(yTUSD).balanceOf(address(this)) == 0, \"y.TUSD remainder\");\n      }\n\n      yERC20(yDAI).withdraw(IERC20(yDAI).balanceOf(address(this)));\n      require(IERC20(yDAI).balanceOf(address(this)) == 0, \"y.DAI remainder\");\n\n      IERC20(DAI).safeTransfer(msg.sender, IERC20(DAI).balanceOf(address(this)));\n      require(IERC20(DAI).balanceOf(address(this)) == 0, \"DAI remainder\");\n  }\n\n  function withdrawUSDC(uint256 _amount)\n      external\n      nonReentrant\n  {\n      require(_amount > 0, \"deposit must be greater than 0\");\n      IERC20(CURVE).safeTransferFrom(msg.sender, address(this), _amount);\n\n      ICurveFi(SWAP).remove_liquidity(IERC20(CURVE).balanceOf(address(this)), [uint256(0),0,0,0]);\n      require(IERC20(CURVE).balanceOf(address(this)) == 0, \"CURVE remainder\");\n\n      uint256 _ydai = IERC20(yDAI).balanceOf(address(this));\n      uint256 _yusdc = IERC20(yUSDC).balanceOf(address(this));\n      uint256 _yusdt = IERC20(yUSDT).balanceOf(address(this));\n      uint256 _ytusd = IERC20(yTUSD).balanceOf(address(this));\n\n      require(_ydai > 0 || _yusdc > 0 || _yusdt > 0 || _ytusd > 0, \"no y.tokens found\");\n\n      if (_ydai > 0) {\n        ICurveFi(SWAP).exchange(0, 1, _ydai, 0);\n        require(IERC20(yDAI).balanceOf(address(this)) == 0, \"y.DAI remainder\");\n      }\n      if (_yusdt > 0) {\n        ICurveFi(SWAP).exchange(2, 1, _yusdt, 0);\n        require(IERC20(yUSDT).balanceOf(address(this)) == 0, \"y.USDT remainder\");\n      }\n      if (_ytusd > 0) {\n        ICurveFi(SWAP).exchange(3, 1, _ytusd, 0);\n        require(IERC20(yTUSD).balanceOf(address(this)) == 0, \"y.TUSD remainder\");\n      }\n\n      yERC20(yUSDC).withdraw(IERC20(yUSDC).balanceOf(address(this)));\n      require(IERC20(yUSDC).balanceOf(address(this)) == 0, \"y.USDC remainder\");\n\n      IERC20(USDC).safeTransfer(msg.sender, IERC20(USDC).balanceOf(address(this)));\n      require(IERC20(USDC).balanceOf(address(this)) == 0, \"USDC remainder\");\n  }\n\n  function withdrawUSDT(uint256 _amount)\n      external\n      nonReentrant\n  {\n      require(_amount > 0, \"deposit must be greater than 0\");\n      IERC20(CURVE).safeTransferFrom(msg.sender, address(this), _amount);\n\n      ICurveFi(SWAP).remove_liquidity(IERC20(CURVE).balanceOf(address(this)), [uint256(0),0,0,0]);\n      require(IERC20(CURVE).balanceOf(address(this)) == 0, \"CURVE remainder\");\n\n      uint256 _ydai = IERC20(yDAI).balanceOf(address(this));\n      uint256 _yusdc = IERC20(yUSDC).balanceOf(address(this));\n      uint256 _yusdt = IERC20(yUSDT).balanceOf(address(this));\n      uint256 _ytusd = IERC20(yTUSD).balanceOf(address(this));\n\n      require(_ydai > 0 || _yusdc > 0 || _yusdt > 0 || _ytusd > 0, \"no y.tokens found\");\n\n      if (_ydai > 0) {\n        ICurveFi(SWAP).exchange(0, 2, _ydai, 0);\n        require(IERC20(yDAI).balanceOf(address(this)) == 0, \"y.DAI remainder\");\n      }\n      if (_yusdc > 0) {\n        ICurveFi(SWAP).exchange(1, 2, _yusdc, 0);\n        require(IERC20(yUSDC).balanceOf(address(this)) == 0, \"y.USDC remainder\");\n      }\n      if (_ytusd > 0) {\n        ICurveFi(SWAP).exchange(3, 2, _ytusd, 0);\n        require(IERC20(yTUSD).balanceOf(address(this)) == 0, \"y.TUSD remainder\");\n      }\n\n      yERC20(yUSDT).withdraw(IERC20(yUSDT).balanceOf(address(this)));\n      require(IERC20(yUSDT).balanceOf(address(this)) == 0, \"y.USDT remainder\");\n\n      IERC20(USDT).safeTransfer(msg.sender, IERC20(USDT).balanceOf(address(this)));\n      require(IERC20(USDT).balanceOf(address(this)) == 0, \"USDT remainder\");\n  }\n\n  function withdrawTUSD(uint256 _amount)\n      external\n      nonReentrant\n  {\n      require(_amount > 0, \"deposit must be greater than 0\");\n      IERC20(CURVE).safeTransferFrom(msg.sender, address(this), _amount);\n\n      ICurveFi(SWAP).remove_liquidity(IERC20(CURVE).balanceOf(address(this)), [uint256(0),0,0,0]);\n      require(IERC20(CURVE).balanceOf(address(this)) == 0, \"CURVE remainder\");\n\n      uint256 _ydai = IERC20(yDAI).balanceOf(address(this));\n      uint256 _yusdc = IERC20(yUSDC).balanceOf(address(this));\n      uint256 _yusdt = IERC20(yUSDT).balanceOf(address(this));\n      uint256 _ytusd = IERC20(yTUSD).balanceOf(address(this));\n\n      require(_ydai > 0 || _yusdc > 0 || _yusdt > 0 || _ytusd > 0, \"no y.tokens found\");\n\n      if (_ydai > 0) {\n        ICurveFi(SWAP).exchange(0, 2, _ydai, 0);\n        require(IERC20(yDAI).balanceOf(address(this)) == 0, \"y.DAI remainder\");\n      }\n      if (_yusdc > 0) {\n        ICurveFi(SWAP).exchange(1, 2, _yusdc, 0);\n        require(IERC20(yUSDC).balanceOf(address(this)) == 0, \"y.USDC remainder\");\n      }\n      if (_yusdt > 0) {\n        ICurveFi(SWAP).exchange(2, 1, _yusdt, 0);\n        require(IERC20(yUSDT).balanceOf(address(this)) == 0, \"y.USDT remainder\");\n      }\n\n      yERC20(yTUSD).withdraw(IERC20(yTUSD).balanceOf(address(this)));\n      require(IERC20(yTUSD).balanceOf(address(this)) == 0, \"y.TUSD remainder\");\n\n      IERC20(TUSD).safeTransfer(msg.sender, IERC20(TUSD).balanceOf(address(this)));\n      require(IERC20(TUSD).balanceOf(address(this)) == 0, \"TUSD remainder\");\n  }\n\n  // incase of half-way error\n  function inCaseTokenGetsStuck(IERC20 _TokenAddress) onlyOwner public {\n      uint qty = _TokenAddress.balanceOf(address(this));\n      _TokenAddress.safeTransfer(msg.sender, qty);\n  }\n\n  // incase of half-way error\n  function inCaseETHGetsStuck() onlyOwner public{\n      (bool result, ) = msg.sender.call.value(address(this).balance)(\"\");\n      require(result, \"transfer of ETH failed\");\n  }\n}\n",
  "sourcePath": "D:/ftm/itoken/contracts/yCurveZapOut.sol",
  "compiler": {
    "name": "solc",
    "version": "0.5.12+commit.7709ece9.Emscripten.clang"
  },
  "schemaVersion": "3.0.19",
  "updatedAt": "2020-02-19T09:10:04.223Z",
  "devdoc": {
    "methods": {}
  },
  "userdoc": {
    "methods": {}
  }
}