{
  "contractName": "yCurveZapInV4",
  "abi": [
    {
      "inputs": [],
      "payable": false,
      "stateMutability": "nonpayable",
      "type": "constructor"
    },
    {
      "anonymous": false,
      "inputs": [
        {
          "indexed": true,
          "internalType": "address",
          "name": "previousOwner",
          "type": "address"
        },
        {
          "indexed": true,
          "internalType": "address",
          "name": "newOwner",
          "type": "address"
        }
      ],
      "name": "OwnershipTransferred",
      "type": "event"
    },
    {
      "payable": true,
      "stateMutability": "payable",
      "type": "fallback"
    },
    {
      "constant": true,
      "inputs": [],
      "name": "BUSD",
      "outputs": [
        {
          "internalType": "address",
          "name": "",
          "type": "address"
        }
      ],
      "payable": false,
      "stateMutability": "view",
      "type": "function"
    },
    {
      "constant": true,
      "inputs": [],
      "name": "CURVE",
      "outputs": [
        {
          "internalType": "address",
          "name": "",
          "type": "address"
        }
      ],
      "payable": false,
      "stateMutability": "view",
      "type": "function"
    },
    {
      "constant": true,
      "inputs": [],
      "name": "DAI",
      "outputs": [
        {
          "internalType": "address",
          "name": "",
          "type": "address"
        }
      ],
      "payable": false,
      "stateMutability": "view",
      "type": "function"
    },
    {
      "constant": true,
      "inputs": [],
      "name": "SWAP",
      "outputs": [
        {
          "internalType": "address",
          "name": "",
          "type": "address"
        }
      ],
      "payable": false,
      "stateMutability": "view",
      "type": "function"
    },
    {
      "constant": true,
      "inputs": [],
      "name": "USDC",
      "outputs": [
        {
          "internalType": "address",
          "name": "",
          "type": "address"
        }
      ],
      "payable": false,
      "stateMutability": "view",
      "type": "function"
    },
    {
      "constant": true,
      "inputs": [],
      "name": "USDT",
      "outputs": [
        {
          "internalType": "address",
          "name": "",
          "type": "address"
        }
      ],
      "payable": false,
      "stateMutability": "view",
      "type": "function"
    },
    {
      "constant": true,
      "inputs": [],
      "name": "isOwner",
      "outputs": [
        {
          "internalType": "bool",
          "name": "",
          "type": "bool"
        }
      ],
      "payable": false,
      "stateMutability": "view",
      "type": "function"
    },
    {
      "constant": true,
      "inputs": [],
      "name": "owner",
      "outputs": [
        {
          "internalType": "address",
          "name": "",
          "type": "address"
        }
      ],
      "payable": false,
      "stateMutability": "view",
      "type": "function"
    },
    {
      "constant": false,
      "inputs": [],
      "name": "renounceOwnership",
      "outputs": [],
      "payable": false,
      "stateMutability": "nonpayable",
      "type": "function"
    },
    {
      "constant": false,
      "inputs": [
        {
          "internalType": "address",
          "name": "newOwner",
          "type": "address"
        }
      ],
      "name": "transferOwnership",
      "outputs": [],
      "payable": false,
      "stateMutability": "nonpayable",
      "type": "function"
    },
    {
      "constant": true,
      "inputs": [],
      "name": "yBUSD",
      "outputs": [
        {
          "internalType": "address",
          "name": "",
          "type": "address"
        }
      ],
      "payable": false,
      "stateMutability": "view",
      "type": "function"
    },
    {
      "constant": true,
      "inputs": [],
      "name": "yDAI",
      "outputs": [
        {
          "internalType": "address",
          "name": "",
          "type": "address"
        }
      ],
      "payable": false,
      "stateMutability": "view",
      "type": "function"
    },
    {
      "constant": true,
      "inputs": [],
      "name": "yUSDC",
      "outputs": [
        {
          "internalType": "address",
          "name": "",
          "type": "address"
        }
      ],
      "payable": false,
      "stateMutability": "view",
      "type": "function"
    },
    {
      "constant": true,
      "inputs": [],
      "name": "yUSDT",
      "outputs": [
        {
          "internalType": "address",
          "name": "",
          "type": "address"
        }
      ],
      "payable": false,
      "stateMutability": "view",
      "type": "function"
    },
    {
      "constant": false,
      "inputs": [],
      "name": "approveToken",
      "outputs": [],
      "payable": false,
      "stateMutability": "nonpayable",
      "type": "function"
    },
    {
      "constant": false,
      "inputs": [
        {
          "internalType": "uint256",
          "name": "_amount",
          "type": "uint256"
        }
      ],
      "name": "depositDAI",
      "outputs": [],
      "payable": false,
      "stateMutability": "nonpayable",
      "type": "function"
    },
    {
      "constant": false,
      "inputs": [
        {
          "internalType": "uint256",
          "name": "_amount",
          "type": "uint256"
        }
      ],
      "name": "depositUSDC",
      "outputs": [],
      "payable": false,
      "stateMutability": "nonpayable",
      "type": "function"
    },
    {
      "constant": false,
      "inputs": [
        {
          "internalType": "uint256",
          "name": "_amount",
          "type": "uint256"
        }
      ],
      "name": "depositUSDT",
      "outputs": [],
      "payable": false,
      "stateMutability": "nonpayable",
      "type": "function"
    },
    {
      "constant": false,
      "inputs": [
        {
          "internalType": "uint256",
          "name": "_amount",
          "type": "uint256"
        }
      ],
      "name": "depositBUSD",
      "outputs": [],
      "payable": false,
      "stateMutability": "nonpayable",
      "type": "function"
    },
    {
      "constant": false,
      "inputs": [
        {
          "internalType": "contract IERC20",
          "name": "_TokenAddress",
          "type": "address"
        }
      ],
      "name": "inCaseTokenGetsStuck",
      "outputs": [],
      "payable": false,
      "stateMutability": "nonpayable",
      "type": "function"
    },
    {
      "constant": false,
      "inputs": [],
      "name": "inCaseETHGetsStuck",
      "outputs": [],
      "payable": false,
      "stateMutability": "nonpayable",
      "type": "function"
    }
  ],
  "bytecode": "0x60806040523480156200001157600080fd5b5060016000819055506200002a6200044f60201b60201c565b600160006101000a81548173ffffffffffffffffffffffffffffffffffffffff021916908373ffffffffffffffffffffffffffffffffffffffff160217905550600160009054906101000a900473ffffffffffffffffffffffffffffffffffffffff1673ffffffffffffffffffffffffffffffffffffffff16600073ffffffffffffffffffffffffffffffffffffffff167f8be0079c531659141344cd1fd0a4f28419497f9722a3daafe3b4186f6b6457e060405160405180910390a3736b175474e89094c44da98b954eedeac495271d0f600260006101000a81548173ffffffffffffffffffffffffffffffffffffffff021916908373ffffffffffffffffffffffffffffffffffffffff16021790555073c2cb1040220768554cf699b0d863a3cd4324ce32600360006101000a81548173ffffffffffffffffffffffffffffffffffffffff021916908373ffffffffffffffffffffffffffffffffffffffff16021790555073a0b86991c6218b36c1d19d4a2e9eb0ce3606eb48600460006101000a81548173ffffffffffffffffffffffffffffffffffffffff021916908373ffffffffffffffffffffffffffffffffffffffff1602179055507326ea744e5b887e5205727f55dfbe8685e3b21951600560006101000a81548173ffffffffffffffffffffffffffffffffffffffff021916908373ffffffffffffffffffffffffffffffffffffffff16021790555073dac17f958d2ee523a2206206994597c13d831ec7600660006101000a81548173ffffffffffffffffffffffffffffffffffffffff021916908373ffffffffffffffffffffffffffffffffffffffff16021790555073e6354ed5bc4b393a5aad09f21c46e101e692d447600760006101000a81548173ffffffffffffffffffffffffffffffffffffffff021916908373ffffffffffffffffffffffffffffffffffffffff160217905550734fabb145d64652a948d72533023f6e7a623c7c53600860006101000a81548173ffffffffffffffffffffffffffffffffffffffff021916908373ffffffffffffffffffffffffffffffffffffffff1602179055507304bc0ab673d88ae9dbc9da2380cb6b79c4bca9ae600960006101000a81548173ffffffffffffffffffffffffffffffffffffffff021916908373ffffffffffffffffffffffffffffffffffffffff1602179055507379a8c46dea5ada233abaffd40f3a0a2b1e5a4f27600a60006101000a81548173ffffffffffffffffffffffffffffffffffffffff021916908373ffffffffffffffffffffffffffffffffffffffff160217905550733b3ac5386837dc563660fb6a0937dfaa5924333b600b60006101000a81548173ffffffffffffffffffffffffffffffffffffffff021916908373ffffffffffffffffffffffffffffffffffffffff160217905550620004496200045760201b60201c565b620010ef565b600033905090565b620004ed600360009054906101000a900473ffffffffffffffffffffffffffffffffffffffff167fffffffffffffffffffffffffffffffffffffffffffffffffffffffffffffffff600260009054906101000a900473ffffffffffffffffffffffffffffffffffffffff1673ffffffffffffffffffffffffffffffffffffffff166200098060201b62002a6e179092919060201c565b62000583600a60009054906101000a900473ffffffffffffffffffffffffffffffffffffffff167fffffffffffffffffffffffffffffffffffffffffffffffffffffffffffffffff600360009054906101000a900473ffffffffffffffffffffffffffffffffffffffff1673ffffffffffffffffffffffffffffffffffffffff166200098060201b62002a6e179092919060201c565b62000619600560009054906101000a900473ffffffffffffffffffffffffffffffffffffffff167fffffffffffffffffffffffffffffffffffffffffffffffffffffffffffffffff600460009054906101000a900473ffffffffffffffffffffffffffffffffffffffff1673ffffffffffffffffffffffffffffffffffffffff166200098060201b62002a6e179092919060201c565b620006af600a60009054906101000a900473ffffffffffffffffffffffffffffffffffffffff167fffffffffffffffffffffffffffffffffffffffffffffffffffffffffffffffff600560009054906101000a900473ffffffffffffffffffffffffffffffffffffffff1673ffffffffffffffffffffffffffffffffffffffff166200098060201b62002a6e179092919060201c565b62000726600760009054906101000a900473ffffffffffffffffffffffffffffffffffffffff166000600660009054906101000a900473ffffffffffffffffffffffffffffffffffffffff1673ffffffffffffffffffffffffffffffffffffffff166200098060201b62002a6e179092919060201c565b620007bc600760009054906101000a900473ffffffffffffffffffffffffffffffffffffffff167fffffffffffffffffffffffffffffffffffffffffffffffffffffffffffffffff600660009054906101000a900473ffffffffffffffffffffffffffffffffffffffff1673ffffffffffffffffffffffffffffffffffffffff166200098060201b62002a6e179092919060201c565b62000852600a60009054906101000a900473ffffffffffffffffffffffffffffffffffffffff167fffffffffffffffffffffffffffffffffffffffffffffffffffffffffffffffff600760009054906101000a900473ffffffffffffffffffffffffffffffffffffffff1673ffffffffffffffffffffffffffffffffffffffff166200098060201b62002a6e179092919060201c565b620008e8600960009054906101000a900473ffffffffffffffffffffffffffffffffffffffff167fffffffffffffffffffffffffffffffffffffffffffffffffffffffffffffffff600860009054906101000a900473ffffffffffffffffffffffffffffffffffffffff1673ffffffffffffffffffffffffffffffffffffffff166200098060201b62002a6e179092919060201c565b6200097e600a60009054906101000a900473ffffffffffffffffffffffffffffffffffffffff167fffffffffffffffffffffffffffffffffffffffffffffffffffffffffffffffff600960009054906101000a900473ffffffffffffffffffffffffffffffffffffffff1673ffffffffffffffffffffffffffffffffffffffff166200098060201b62002a6e179092919060201c565b565b600081148062000a20575060008373ffffffffffffffffffffffffffffffffffffffff1663dd62ed3e30856040518363ffffffff1660e01b8152600401620009ca92919062000f32565b60206040518083038186803b158015620009e357600080fd5b505afa158015620009f8573d6000803e3d6000fd5b505050506040513d601f19601f8201168201806040525062000a1e919081019062000d40565b145b62000a62576040517f08c379a000000000000000000000000000000000000000000000000000000000815260040162000a599062000fd0565b60405180910390fd5b62000b06838473ffffffffffffffffffffffffffffffffffffffff1663095ea7b3905060e01b848460405160240162000a9d92919062000f5f565b604051602081830303815290604052907bffffffffffffffffffffffffffffffffffffffffffffffffffffffff19166020820180517bffffffffffffffffffffffffffffffffffffffffffffffffffffffff838183161783525050505062000b0b60201b60201c565b505050565b62000b378273ffffffffffffffffffffffffffffffffffffffff1662000c9a60201b62002e871760201c565b62000b79576040517f08c379a000000000000000000000000000000000000000000000000000000000815260040162000b709062000ff2565b60405180910390fd5b600060608373ffffffffffffffffffffffffffffffffffffffff168360405162000ba4919062000f19565b6000604051808303816000865af19150503d806000811462000be3576040519150601f19603f3d011682016040523d82523d6000602084013e62000be8565b606091505b50915091508162000c30576040517f08c379a000000000000000000000000000000000000000000000000000000000815260040162000c279062000f8c565b60405180910390fd5b60008151111562000c94578080602001905162000c51919081019062000d14565b62000c93576040517f08c379a000000000000000000000000000000000000000000000000000000000815260040162000c8a9062000fae565b60405180910390fd5b5b50505050565b60008060007fc5d2460186f7233c927e7db2dcc703c0e500b653ca82273b7bfad8045d85a47060001b9050833f91506000801b821415801562000cdd5750808214155b92505050919050565b60008151905062000cf781620010bb565b92915050565b60008151905062000d0e81620010d5565b92915050565b60006020828403121562000d2757600080fd5b600062000d378482850162000ce6565b91505092915050565b60006020828403121562000d5357600080fd5b600062000d638482850162000cfd565b91505092915050565b62000d77816200103b565b82525050565b600062000d8a8262001014565b62000d9681856200101f565b935062000da881856020860162001085565b80840191505092915050565b600062000dc36020836200102a565b91507f5361666545524332303a206c6f772d6c6576656c2063616c6c206661696c65646000830152602082019050919050565b600062000e05602a836200102a565b91507f5361666545524332303a204552433230206f7065726174696f6e20646964206e60008301527f6f742073756363656564000000000000000000000000000000000000000000006020830152604082019050919050565b600062000e6d6036836200102a565b91507f5361666545524332303a20617070726f76652066726f6d206e6f6e2d7a65726f60008301527f20746f206e6f6e2d7a65726f20616c6c6f77616e6365000000000000000000006020830152604082019050919050565b600062000ed5601f836200102a565b91507f5361666545524332303a2063616c6c20746f206e6f6e2d636f6e7472616374006000830152602082019050919050565b62000f13816200107b565b82525050565b600062000f27828462000d7d565b915081905092915050565b600060408201905062000f49600083018562000d6c565b62000f58602083018462000d6c565b9392505050565b600060408201905062000f76600083018562000d6c565b62000f85602083018462000f08565b9392505050565b6000602082019050818103600083015262000fa78162000db4565b9050919050565b6000602082019050818103600083015262000fc98162000df6565b9050919050565b6000602082019050818103600083015262000feb8162000e5e565b9050919050565b600060208201905081810360008301526200100d8162000ec6565b9050919050565b600081519050919050565b600081905092915050565b600082825260208201905092915050565b600062001048826200105b565b9050919050565b60008115159050919050565b600073ffffffffffffffffffffffffffffffffffffffff82169050919050565b6000819050919050565b60005b83811015620010a557808201518184015260208101905062001088565b83811115620010b5576000848401525b50505050565b620010c6816200104f565b8114620010d257600080fd5b50565b620010e0816200107b565b8114620010ec57600080fd5b50565b61392080620010ff6000396000f3fe60806040526004361061012a5760003560e01c8063756bb1cc116100ab578063c54e44eb1161006f578063c54e44eb14610383578063e0bab4c4146103ae578063e7c80f17146103d9578063f2fde38b14610402578063f60a15ed1461042b578063f688bcfb146104425761012a565b8063756bb1cc146102c057806389a30271146102eb5780638da5cb5b146103165780638f32d59b1461034157806399b71d5c1461036c5761012a565b8063365833e1116100f2578063365833e1146102015780633a3c3b871461022a57806346bfe1df14610255578063484f4ea91461027e578063715018a6146102a95761012a565b806304d841081461012c57806306bafb491461015757806317e5a9a41461018257806319d9e008146101ad5780632e8d6e18146101d8575b005b34801561013857600080fd5b5061014161046b565b60405161014e91906134ba565b60405180910390f35b34801561016357600080fd5b5061016c610491565b60405161017991906134ba565b60405180910390f35b34801561018e57600080fd5b506101976104b7565b6040516101a491906134ba565b60405180910390f35b3480156101b957600080fd5b506101c26104dd565b6040516101cf91906134ba565b60405180910390f35b3480156101e457600080fd5b506101ff60048036036101fa9190810190612f8d565b610503565b005b34801561020d57600080fd5b5061022860048036036102239190810190612fb6565b610606565b005b34801561023657600080fd5b5061023f610c9e565b60405161024c91906134ba565b60405180910390f35b34801561026157600080fd5b5061027c60048036036102779190810190612fb6565b610cc4565b005b34801561028a57600080fd5b5061029361135c565b6040516102a091906134ba565b60405180910390f35b3480156102b557600080fd5b506102be611382565b005b3480156102cc57600080fd5b506102d561148a565b6040516102e291906134ba565b60405180910390f35b3480156102f757600080fd5b506103006114b0565b60405161030d91906134ba565b60405180910390f35b34801561032257600080fd5b5061032b6114d6565b60405161033891906134ba565b60405180910390f35b34801561034d57600080fd5b50610356611500565b60405161036391906135a2565b60405180910390f35b34801561037857600080fd5b5061038161155f565b005b34801561038f57600080fd5b50610398611a49565b6040516103a591906134ba565b60405180910390f35b3480156103ba57600080fd5b506103c3611a6f565b6040516103d091906134ba565b60405180910390f35b3480156103e557600080fd5b5061040060048036036103fb9190810190612fb6565b611a95565b005b34801561040e57600080fd5b5061042960048036036104249190810190612f3b565b61212d565b005b34801561043757600080fd5b50610440612180565b005b34801561044e57600080fd5b5061046960048036036104649190810190612fb6565b61228d565b005b600a60009054906101000a900473ffffffffffffffffffffffffffffffffffffffff1681565b600960009054906101000a900473ffffffffffffffffffffffffffffffffffffffff1681565b600760009054906101000a900473ffffffffffffffffffffffffffffffffffffffff1681565b600560009054906101000a900473ffffffffffffffffffffffffffffffffffffffff1681565b61050b611500565b61054a576040517f08c379a00000000000000000000000000000000000000000000000000000000081526004016105419061367d565b60405180910390fd5b60008173ffffffffffffffffffffffffffffffffffffffff166370a08231306040518263ffffffff1660e01b815260040161058591906134d5565b60206040518083038186803b15801561059d57600080fd5b505afa1580156105b1573d6000803e3d6000fd5b505050506040513d601f19601f820116820180604052506105d59190810190612fdf565b905061060233828473ffffffffffffffffffffffffffffffffffffffff166129259092919063ffffffff16565b5050565b600160008082825401925050819055506000805490506000821161065f576040517f08c379a00000000000000000000000000000000000000000000000000000000081526004016106569061369d565b60405180910390fd5b6106ae333084600260009054906101000a900473ffffffffffffffffffffffffffffffffffffffff1673ffffffffffffffffffffffffffffffffffffffff166129c4909392919063ffffffff16565b600360009054906101000a900473ffffffffffffffffffffffffffffffffffffffff1673ffffffffffffffffffffffffffffffffffffffff1663b6b55f25836040518263ffffffff1660e01b8152600401610709919061373d565b600060405180830381600087803b15801561072357600080fd5b505af1158015610737573d6000803e3d6000fd5b505050506000600260009054906101000a900473ffffffffffffffffffffffffffffffffffffffff1673ffffffffffffffffffffffffffffffffffffffff166370a08231306040518263ffffffff1660e01b815260040161079891906134d5565b60206040518083038186803b1580156107b057600080fd5b505afa1580156107c4573d6000803e3d6000fd5b505050506040513d601f19601f820116820180604052506107e89190810190612fdf565b14610828576040517f08c379a000000000000000000000000000000000000000000000000000000000815260040161081f906135dd565b60405180910390fd5b600a60009054906101000a900473ffffffffffffffffffffffffffffffffffffffff1673ffffffffffffffffffffffffffffffffffffffff1663029b2f346040518060800160405280600360009054906101000a900473ffffffffffffffffffffffffffffffffffffffff1673ffffffffffffffffffffffffffffffffffffffff166370a08231306040518263ffffffff1660e01b81526004016108cc91906134d5565b60206040518083038186803b1580156108e457600080fd5b505afa1580156108f8573d6000803e3d6000fd5b505050506040513d601f19601f8201168201806040525061091c9190810190612fdf565b81526020016000815260200160008152602001600081525060006040518363ffffffff1660e01b8152600401610953929190613579565b600060405180830381600087803b15801561096d57600080fd5b505af1158015610981573d6000803e3d6000fd5b505050506000600360009054906101000a900473ffffffffffffffffffffffffffffffffffffffff1673ffffffffffffffffffffffffffffffffffffffff166370a08231306040518263ffffffff1660e01b81526004016109e291906134d5565b60206040518083038186803b1580156109fa57600080fd5b505afa158015610a0e573d6000803e3d6000fd5b505050506040513d601f19601f82011682018060405250610a329190810190612fdf565b14610a72576040517f08c379a0000000000000000000000000000000000000000000000000000000008152600401610a699061361d565b60405180910390fd5b610b6933600b60009054906101000a900473ffffffffffffffffffffffffffffffffffffffff1673ffffffffffffffffffffffffffffffffffffffff166370a08231306040518263ffffffff1660e01b8152600401610ad191906134d5565b60206040518083038186803b158015610ae957600080fd5b505afa158015610afd573d6000803e3d6000fd5b505050506040513d601f19601f82011682018060405250610b219190810190612fdf565b600b60009054906101000a900473ffffffffffffffffffffffffffffffffffffffff1673ffffffffffffffffffffffffffffffffffffffff166129259092919063ffffffff16565b6000600b60009054906101000a900473ffffffffffffffffffffffffffffffffffffffff1673ffffffffffffffffffffffffffffffffffffffff166370a08231306040518263ffffffff1660e01b8152600401610bc691906134d5565b60206040518083038186803b158015610bde57600080fd5b505afa158015610bf2573d6000803e3d6000fd5b505050506040513d601f19601f82011682018060405250610c169190810190612fdf565b14610c56576040517f08c379a0000000000000000000000000000000000000000000000000000000008152600401610c4d9061365d565b60405180910390fd5b6000548114610c9a576040517f08c379a0000000000000000000000000000000000000000000000000000000008152600401610c91906136dd565b60405180910390fd5b5050565b600b60009054906101000a900473ffffffffffffffffffffffffffffffffffffffff1681565b6001600080828254019250508190555060008054905060008211610d1d576040517f08c379a0000000000000000000000000000000000000000000000000000000008152600401610d149061369d565b60405180910390fd5b610d6c333084600860009054906101000a900473ffffffffffffffffffffffffffffffffffffffff1673ffffffffffffffffffffffffffffffffffffffff166129c4909392919063ffffffff16565b600960009054906101000a900473ffffffffffffffffffffffffffffffffffffffff1673ffffffffffffffffffffffffffffffffffffffff1663b6b55f25836040518263ffffffff1660e01b8152600401610dc7919061373d565b600060405180830381600087803b158015610de157600080fd5b505af1158015610df5573d6000803e3d6000fd5b505050506000600860009054906101000a900473ffffffffffffffffffffffffffffffffffffffff1673ffffffffffffffffffffffffffffffffffffffff166370a08231306040518263ffffffff1660e01b8152600401610e5691906134d5565b60206040518083038186803b158015610e6e57600080fd5b505afa158015610e82573d6000803e3d6000fd5b505050506040513d601f19601f82011682018060405250610ea69190810190612fdf565b14610ee6576040517f08c379a0000000000000000000000000000000000000000000000000000000008152600401610edd906135dd565b60405180910390fd5b600a60009054906101000a900473ffffffffffffffffffffffffffffffffffffffff1673ffffffffffffffffffffffffffffffffffffffff1663029b2f346040518060800160405280600081526020016000815260200160008152602001600960009054906101000a900473ffffffffffffffffffffffffffffffffffffffff1673ffffffffffffffffffffffffffffffffffffffff166370a08231306040518263ffffffff1660e01b8152600401610f9f91906134d5565b60206040518083038186803b158015610fb757600080fd5b505afa158015610fcb573d6000803e3d6000fd5b505050506040513d601f19601f82011682018060405250610fef9190810190612fdf565b81525060006040518363ffffffff1660e01b8152600401611011929190613579565b600060405180830381600087803b15801561102b57600080fd5b505af115801561103f573d6000803e3d6000fd5b505050506000600960009054906101000a900473ffffffffffffffffffffffffffffffffffffffff1673ffffffffffffffffffffffffffffffffffffffff166370a08231306040518263ffffffff1660e01b81526004016110a091906134d5565b60206040518083038186803b1580156110b857600080fd5b505afa1580156110cc573d6000803e3d6000fd5b505050506040513d601f19601f820116820180604052506110f09190810190612fdf565b14611130576040517f08c379a00000000000000000000000000000000000000000000000000000000081526004016111279061361d565b60405180910390fd5b61122733600b60009054906101000a900473ffffffffffffffffffffffffffffffffffffffff1673ffffffffffffffffffffffffffffffffffffffff166370a08231306040518263ffffffff1660e01b815260040161118f91906134d5565b60206040518083038186803b1580156111a757600080fd5b505afa1580156111bb573d6000803e3d6000fd5b505050506040513d601f19601f820116820180604052506111df9190810190612fdf565b600b60009054906101000a900473ffffffffffffffffffffffffffffffffffffffff1673ffffffffffffffffffffffffffffffffffffffff166129259092919063ffffffff16565b6000600b60009054906101000a900473ffffffffffffffffffffffffffffffffffffffff1673ffffffffffffffffffffffffffffffffffffffff166370a08231306040518263ffffffff1660e01b815260040161128491906134d5565b60206040518083038186803b15801561129c57600080fd5b505afa1580156112b0573d6000803e3d6000fd5b505050506040513d601f19601f820116820180604052506112d49190810190612fdf565b14611314576040517f08c379a000000000000000000000000000000000000000000000000000000000815260040161130b9061365d565b60405180910390fd5b6000548114611358576040517f08c379a000000000000000000000000000000000000000000000000000000000815260040161134f906136dd565b60405180910390fd5b5050565b600860009054906101000a900473ffffffffffffffffffffffffffffffffffffffff1681565b61138a611500565b6113c9576040517f08c379a00000000000000000000000000000000000000000000000000000000081526004016113c09061367d565b60405180910390fd5b600073ffffffffffffffffffffffffffffffffffffffff16600160009054906101000a900473ffffffffffffffffffffffffffffffffffffffff1673ffffffffffffffffffffffffffffffffffffffff167f8be0079c531659141344cd1fd0a4f28419497f9722a3daafe3b4186f6b6457e060405160405180910390a36000600160006101000a81548173ffffffffffffffffffffffffffffffffffffffff021916908373ffffffffffffffffffffffffffffffffffffffff160217905550565b600360009054906101000a900473ffffffffffffffffffffffffffffffffffffffff1681565b600460009054906101000a900473ffffffffffffffffffffffffffffffffffffffff1681565b6000600160009054906101000a900473ffffffffffffffffffffffffffffffffffffffff16905090565b6000600160009054906101000a900473ffffffffffffffffffffffffffffffffffffffff1673ffffffffffffffffffffffffffffffffffffffff16611543612a66565b73ffffffffffffffffffffffffffffffffffffffff1614905090565b6115ee600360009054906101000a900473ffffffffffffffffffffffffffffffffffffffff167fffffffffffffffffffffffffffffffffffffffffffffffffffffffffffffffff600260009054906101000a900473ffffffffffffffffffffffffffffffffffffffff1673ffffffffffffffffffffffffffffffffffffffff16612a6e9092919063ffffffff16565b61167d600a60009054906101000a900473ffffffffffffffffffffffffffffffffffffffff167fffffffffffffffffffffffffffffffffffffffffffffffffffffffffffffffff600360009054906101000a900473ffffffffffffffffffffffffffffffffffffffff1673ffffffffffffffffffffffffffffffffffffffff16612a6e9092919063ffffffff16565b61170c600560009054906101000a900473ffffffffffffffffffffffffffffffffffffffff167fffffffffffffffffffffffffffffffffffffffffffffffffffffffffffffffff600460009054906101000a900473ffffffffffffffffffffffffffffffffffffffff1673ffffffffffffffffffffffffffffffffffffffff16612a6e9092919063ffffffff16565b61179b600a60009054906101000a900473ffffffffffffffffffffffffffffffffffffffff167fffffffffffffffffffffffffffffffffffffffffffffffffffffffffffffffff600560009054906101000a900473ffffffffffffffffffffffffffffffffffffffff1673ffffffffffffffffffffffffffffffffffffffff16612a6e9092919063ffffffff16565b61180b600760009054906101000a900473ffffffffffffffffffffffffffffffffffffffff166000600660009054906101000a900473ffffffffffffffffffffffffffffffffffffffff1673ffffffffffffffffffffffffffffffffffffffff16612a6e9092919063ffffffff16565b61189a600760009054906101000a900473ffffffffffffffffffffffffffffffffffffffff167fffffffffffffffffffffffffffffffffffffffffffffffffffffffffffffffff600660009054906101000a900473ffffffffffffffffffffffffffffffffffffffff1673ffffffffffffffffffffffffffffffffffffffff16612a6e9092919063ffffffff16565b611929600a60009054906101000a900473ffffffffffffffffffffffffffffffffffffffff167fffffffffffffffffffffffffffffffffffffffffffffffffffffffffffffffff600760009054906101000a900473ffffffffffffffffffffffffffffffffffffffff1673ffffffffffffffffffffffffffffffffffffffff16612a6e9092919063ffffffff16565b6119b8600960009054906101000a900473ffffffffffffffffffffffffffffffffffffffff167fffffffffffffffffffffffffffffffffffffffffffffffffffffffffffffffff600860009054906101000a900473ffffffffffffffffffffffffffffffffffffffff1673ffffffffffffffffffffffffffffffffffffffff16612a6e9092919063ffffffff16565b611a47600a60009054906101000a900473ffffffffffffffffffffffffffffffffffffffff167fffffffffffffffffffffffffffffffffffffffffffffffffffffffffffffffff600960009054906101000a900473ffffffffffffffffffffffffffffffffffffffff1673ffffffffffffffffffffffffffffffffffffffff16612a6e9092919063ffffffff16565b565b600660009054906101000a900473ffffffffffffffffffffffffffffffffffffffff1681565b600260009054906101000a900473ffffffffffffffffffffffffffffffffffffffff1681565b6001600080828254019250508190555060008054905060008211611aee576040517f08c379a0000000000000000000000000000000000000000000000000000000008152600401611ae59061369d565b60405180910390fd5b611b3d333084600660009054906101000a900473ffffffffffffffffffffffffffffffffffffffff1673ffffffffffffffffffffffffffffffffffffffff166129c4909392919063ffffffff16565b600760009054906101000a900473ffffffffffffffffffffffffffffffffffffffff1673ffffffffffffffffffffffffffffffffffffffff1663b6b55f25836040518263ffffffff1660e01b8152600401611b98919061373d565b600060405180830381600087803b158015611bb257600080fd5b505af1158015611bc6573d6000803e3d6000fd5b505050506000600660009054906101000a900473ffffffffffffffffffffffffffffffffffffffff1673ffffffffffffffffffffffffffffffffffffffff166370a08231306040518263ffffffff1660e01b8152600401611c2791906134d5565b60206040518083038186803b158015611c3f57600080fd5b505afa158015611c53573d6000803e3d6000fd5b505050506040513d601f19601f82011682018060405250611c779190810190612fdf565b14611cb7576040517f08c379a0000000000000000000000000000000000000000000000000000000008152600401611cae906135dd565b60405180910390fd5b600a60009054906101000a900473ffffffffffffffffffffffffffffffffffffffff1673ffffffffffffffffffffffffffffffffffffffff1663029b2f3460405180608001604052806000815260200160008152602001600760009054906101000a900473ffffffffffffffffffffffffffffffffffffffff1673ffffffffffffffffffffffffffffffffffffffff166370a08231306040518263ffffffff1660e01b8152600401611d6991906134d5565b60206040518083038186803b158015611d8157600080fd5b505afa158015611d95573d6000803e3d6000fd5b505050506040513d601f19601f82011682018060405250611db99190810190612fdf565b8152602001600081525060006040518363ffffffff1660e01b8152600401611de2929190613579565b600060405180830381600087803b158015611dfc57600080fd5b505af1158015611e10573d6000803e3d6000fd5b505050506000600760009054906101000a900473ffffffffffffffffffffffffffffffffffffffff1673ffffffffffffffffffffffffffffffffffffffff166370a08231306040518263ffffffff1660e01b8152600401611e7191906134d5565b60206040518083038186803b158015611e8957600080fd5b505afa158015611e9d573d6000803e3d6000fd5b505050506040513d601f19601f82011682018060405250611ec19190810190612fdf565b14611f01576040517f08c379a0000000000000000000000000000000000000000000000000000000008152600401611ef89061361d565b60405180910390fd5b611ff833600b60009054906101000a900473ffffffffffffffffffffffffffffffffffffffff1673ffffffffffffffffffffffffffffffffffffffff166370a08231306040518263ffffffff1660e01b8152600401611f6091906134d5565b60206040518083038186803b158015611f7857600080fd5b505afa158015611f8c573d6000803e3d6000fd5b505050506040513d601f19601f82011682018060405250611fb09190810190612fdf565b600b60009054906101000a900473ffffffffffffffffffffffffffffffffffffffff1673ffffffffffffffffffffffffffffffffffffffff166129259092919063ffffffff16565b6000600b60009054906101000a900473ffffffffffffffffffffffffffffffffffffffff1673ffffffffffffffffffffffffffffffffffffffff166370a08231306040518263ffffffff1660e01b815260040161205591906134d5565b60206040518083038186803b15801561206d57600080fd5b505afa158015612081573d6000803e3d6000fd5b505050506040513d601f19601f820116820180604052506120a59190810190612fdf565b146120e5576040517f08c379a00000000000000000000000000000000000000000000000000000000081526004016120dc9061365d565b60405180910390fd5b6000548114612129576040517f08c379a0000000000000000000000000000000000000000000000000000000008152600401612120906136dd565b60405180910390fd5b5050565b612135611500565b612174576040517f08c379a000000000000000000000000000000000000000000000000000000000815260040161216b9061367d565b60405180910390fd5b61217d81612be5565b50565b612188611500565b6121c7576040517f08c379a00000000000000000000000000000000000000000000000000000000081526004016121be9061367d565b60405180910390fd5b60003373ffffffffffffffffffffffffffffffffffffffff163073ffffffffffffffffffffffffffffffffffffffff1631604051612204906134a5565b60006040518083038185875af1925050503d8060008114612241576040519150601f19603f3d011682016040523d82523d6000602084013e612246565b606091505b505090508061228a576040517f08c379a00000000000000000000000000000000000000000000000000000000081526004016122819061363d565b60405180910390fd5b50565b60016000808282540192505081905550600080549050600082116122e6576040517f08c379a00000000000000000000000000000000000000000000000000000000081526004016122dd9061369d565b60405180910390fd5b612335333084600460009054906101000a900473ffffffffffffffffffffffffffffffffffffffff1673ffffffffffffffffffffffffffffffffffffffff166129c4909392919063ffffffff16565b600560009054906101000a900473ffffffffffffffffffffffffffffffffffffffff1673ffffffffffffffffffffffffffffffffffffffff1663b6b55f25836040518263ffffffff1660e01b8152600401612390919061373d565b600060405180830381600087803b1580156123aa57600080fd5b505af11580156123be573d6000803e3d6000fd5b505050506000600460009054906101000a900473ffffffffffffffffffffffffffffffffffffffff1673ffffffffffffffffffffffffffffffffffffffff166370a08231306040518263ffffffff1660e01b815260040161241f91906134d5565b60206040518083038186803b15801561243757600080fd5b505afa15801561244b573d6000803e3d6000fd5b505050506040513d601f19601f8201168201806040525061246f9190810190612fdf565b146124af576040517f08c379a00000000000000000000000000000000000000000000000000000000081526004016124a6906135dd565b60405180910390fd5b600a60009054906101000a900473ffffffffffffffffffffffffffffffffffffffff1673ffffffffffffffffffffffffffffffffffffffff1663029b2f34604051806080016040528060008152602001600560009054906101000a900473ffffffffffffffffffffffffffffffffffffffff1673ffffffffffffffffffffffffffffffffffffffff166370a08231306040518263ffffffff1660e01b815260040161255a91906134d5565b60206040518083038186803b15801561257257600080fd5b505afa158015612586573d6000803e3d6000fd5b505050506040513d601f19601f820116820180604052506125aa9190810190612fdf565b815260200160008152602001600081525060006040518363ffffffff1660e01b81526004016125da929190613579565b600060405180830381600087803b1580156125f457600080fd5b505af1158015612608573d6000803e3d6000fd5b505050506000600560009054906101000a900473ffffffffffffffffffffffffffffffffffffffff1673ffffffffffffffffffffffffffffffffffffffff166370a08231306040518263ffffffff1660e01b815260040161266991906134d5565b60206040518083038186803b15801561268157600080fd5b505afa158015612695573d6000803e3d6000fd5b505050506040513d601f19601f820116820180604052506126b99190810190612fdf565b146126f9576040517f08c379a00000000000000000000000000000000000000000000000000000000081526004016126f09061361d565b60405180910390fd5b6127f033600b60009054906101000a900473ffffffffffffffffffffffffffffffffffffffff1673ffffffffffffffffffffffffffffffffffffffff166370a08231306040518263ffffffff1660e01b815260040161275891906134d5565b60206040518083038186803b15801561277057600080fd5b505afa158015612784573d6000803e3d6000fd5b505050506040513d601f19601f820116820180604052506127a89190810190612fdf565b600b60009054906101000a900473ffffffffffffffffffffffffffffffffffffffff1673ffffffffffffffffffffffffffffffffffffffff166129259092919063ffffffff16565b6000600b60009054906101000a900473ffffffffffffffffffffffffffffffffffffffff1673ffffffffffffffffffffffffffffffffffffffff166370a08231306040518263ffffffff1660e01b815260040161284d91906134d5565b60206040518083038186803b15801561286557600080fd5b505afa158015612879573d6000803e3d6000fd5b505050506040513d601f19601f8201168201806040525061289d9190810190612fdf565b146128dd576040517f08c379a00000000000000000000000000000000000000000000000000000000081526004016128d49061365d565b60405180910390fd5b6000548114612921576040517f08c379a0000000000000000000000000000000000000000000000000000000008152600401612918906136dd565b60405180910390fd5b5050565b6129bf838473ffffffffffffffffffffffffffffffffffffffff1663a9059cbb905060e01b848460405160240161295d929190613550565b604051602081830303815290604052907bffffffffffffffffffffffffffffffffffffffffffffffffffffffff19166020820180517bffffffffffffffffffffffffffffffffffffffffffffffffffffffff8381831617835250505050612d15565b505050565b612a60848573ffffffffffffffffffffffffffffffffffffffff166323b872dd905060e01b8585856040516024016129fe93929190613519565b604051602081830303815290604052907bffffffffffffffffffffffffffffffffffffffffffffffffffffffff19166020820180517bffffffffffffffffffffffffffffffffffffffffffffffffffffffff8381831617835250505050612d15565b50505050565b600033905090565b6000811480612b07575060008373ffffffffffffffffffffffffffffffffffffffff1663dd62ed3e30856040518363ffffffff1660e01b8152600401612ab59291906134f0565b60206040518083038186803b158015612acd57600080fd5b505afa158015612ae1573d6000803e3d6000fd5b505050506040513d601f19601f82011682018060405250612b059190810190612fdf565b145b612b46576040517f08c379a0000000000000000000000000000000000000000000000000000000008152600401612b3d906136fd565b60405180910390fd5b612be0838473ffffffffffffffffffffffffffffffffffffffff1663095ea7b3905060e01b8484604051602401612b7e929190613550565b604051602081830303815290604052907bffffffffffffffffffffffffffffffffffffffffffffffffffffffff19166020820180517bffffffffffffffffffffffffffffffffffffffffffffffffffffffff8381831617835250505050612d15565b505050565b600073ffffffffffffffffffffffffffffffffffffffff168173ffffffffffffffffffffffffffffffffffffffff161415612c55576040517f08c379a0000000000000000000000000000000000000000000000000000000008152600401612c4c906135bd565b60405180910390fd5b8073ffffffffffffffffffffffffffffffffffffffff16600160009054906101000a900473ffffffffffffffffffffffffffffffffffffffff1673ffffffffffffffffffffffffffffffffffffffff167f8be0079c531659141344cd1fd0a4f28419497f9722a3daafe3b4186f6b6457e060405160405180910390a380600160006101000a81548173ffffffffffffffffffffffffffffffffffffffff021916908373ffffffffffffffffffffffffffffffffffffffff16021790555050565b612d348273ffffffffffffffffffffffffffffffffffffffff16612e87565b612d73576040517f08c379a0000000000000000000000000000000000000000000000000000000008152600401612d6a9061371d565b60405180910390fd5b600060608373ffffffffffffffffffffffffffffffffffffffff1683604051612d9c919061348e565b6000604051808303816000865af19150503d8060008114612dd9576040519150601f19603f3d011682016040523d82523d6000602084013e612dde565b606091505b509150915081612e23576040517f08c379a0000000000000000000000000000000000000000000000000000000008152600401612e1a906135fd565b60405180910390fd5b600081511115612e815780806020019051612e419190810190612f64565b612e80576040517f08c379a0000000000000000000000000000000000000000000000000000000008152600401612e77906136bd565b60405180910390fd5b5b50505050565b60008060007fc5d2460186f7233c927e7db2dcc703c0e500b653ca82273b7bfad8045d85a47060001b9050833f91506000801b8214158015612ec95750808214155b92505050919050565b600081359050612ee181613881565b92915050565b600081519050612ef681613898565b92915050565b600081359050612f0b816138af565b92915050565b600081359050612f20816138c6565b92915050565b600081519050612f35816138c6565b92915050565b600060208284031215612f4d57600080fd5b6000612f5b84828501612ed2565b91505092915050565b600060208284031215612f7657600080fd5b6000612f8484828501612ee7565b91505092915050565b600060208284031215612f9f57600080fd5b6000612fad84828501612efc565b91505092915050565b600060208284031215612fc857600080fd5b6000612fd684828501612f11565b91505092915050565b600060208284031215612ff157600080fd5b6000612fff84828501612f26565b91505092915050565b60006130148383613470565b60208301905092915050565b61302981613806565b82525050565b613038816137ac565b82525050565b61304781613762565b6130518184613785565b925061305c82613758565b8060005b8381101561308d5781516130748782613008565b965061307f83613778565b925050600181019050613060565b505050505050565b61309e816137be565b82525050565b60006130af8261376d565b6130b98185613790565b93506130c981856020860161384e565b80840191505092915050565b6130de81613818565b82525050565b60006130f160268361379b565b91507f4f776e61626c653a206e6577206f776e657220697320746865207a65726f206160008301527f64647265737300000000000000000000000000000000000000000000000000006020830152604082019050919050565b6000613157600f8361379b565b91507f746f6b656e2072656d61696e64657200000000000000000000000000000000006000830152602082019050919050565b600061319760208361379b565b91507f5361666545524332303a206c6f772d6c6576656c2063616c6c206661696c65646000830152602082019050919050565b60006131d760108361379b565b91507f79546f6b656e2072656d61696e646572000000000000000000000000000000006000830152602082019050919050565b600061321760168361379b565b91507f7472616e73666572206f6620455448206661696c6564000000000000000000006000830152602082019050919050565b6000613257600f8361379b565b91507f43555256452072656d61696e64657200000000000000000000000000000000006000830152602082019050919050565b600061329760208361379b565b91507f4f776e61626c653a2063616c6c6572206973206e6f7420746865206f776e65726000830152602082019050919050565b60006132d7600083613790565b9150600082019050919050565b60006132f1601e8361379b565b91507f6465706f736974206d7573742062652067726561746572207468616e203000006000830152602082019050919050565b6000613331602a8361379b565b91507f5361666545524332303a204552433230206f7065726174696f6e20646964206e60008301527f6f742073756363656564000000000000000000000000000000000000000000006020830152604082019050919050565b6000613397601f8361379b565b91507f5265656e7472616e637947756172643a207265656e7472616e742063616c6c006000830152602082019050919050565b60006133d760368361379b565b91507f5361666545524332303a20617070726f76652066726f6d206e6f6e2d7a65726f60008301527f20746f206e6f6e2d7a65726f20616c6c6f77616e6365000000000000000000006020830152604082019050919050565b600061343d601f8361379b565b91507f5361666545524332303a2063616c6c20746f206e6f6e2d636f6e7472616374006000830152602082019050919050565b613479816137fc565b82525050565b613488816137fc565b82525050565b600061349a82846130a4565b915081905092915050565b60006134b0826132ca565b9150819050919050565b60006020820190506134cf600083018461302f565b92915050565b60006020820190506134ea6000830184613020565b92915050565b6000604082019050613505600083018561302f565b613512602083018461302f565b9392505050565b600060608201905061352e600083018661302f565b61353b602083018561302f565b613548604083018461347f565b949350505050565b6000604082019050613565600083018561302f565b613572602083018461347f565b9392505050565b600060a08201905061358e600083018561303e565b61359b60808301846130d5565b9392505050565b60006020820190506135b76000830184613095565b92915050565b600060208201905081810360008301526135d6816130e4565b9050919050565b600060208201905081810360008301526135f68161314a565b9050919050565b600060208201905081810360008301526136168161318a565b9050919050565b60006020820190508181036000830152613636816131ca565b9050919050565b600060208201905081810360008301526136568161320a565b9050919050565b600060208201905081810360008301526136768161324a565b9050919050565b600060208201905081810360008301526136968161328a565b9050919050565b600060208201905081810360008301526136b6816132e4565b9050919050565b600060208201905081810360008301526136d681613324565b9050919050565b600060208201905081810360008301526136f68161338a565b9050919050565b60006020820190508181036000830152613716816133ca565b9050919050565b6000602082019050818103600083015261373681613430565b9050919050565b6000602082019050613752600083018461347f565b92915050565b6000819050919050565b600060049050919050565b600081519050919050565b6000602082019050919050565b600081905092915050565b600081905092915050565b600082825260208201905092915050565b60006137b7826137dc565b9050919050565b60008115159050919050565b60006137d5826137ac565b9050919050565b600073ffffffffffffffffffffffffffffffffffffffff82169050919050565b6000819050919050565b60006138118261382a565b9050919050565b6000613823826137fc565b9050919050565b60006138358261383c565b9050919050565b6000613847826137dc565b9050919050565b60005b8381101561386c578082015181840152602081019050613851565b8381111561387b576000848401525b50505050565b61388a816137ac565b811461389557600080fd5b50565b6138a1816137be565b81146138ac57600080fd5b50565b6138b8816137ca565b81146138c357600080fd5b50565b6138cf816137fc565b81146138da57600080fd5b5056fea365627a7a72315820c1348a0123d054773af2977dc4bdcaeda571a7876f9fd3db4298ef539be522c86c6578706572696d656e74616cf564736f6c634300050c0040",
  "source": "pragma solidity ^0.5.0;\npragma experimental ABIEncoderV2;\n\ninterface IERC20 {\n    function totalSupply() external view returns (uint256);\n    function balanceOf(address account) external view returns (uint256);\n    function transfer(address recipient, uint256 amount) external returns (bool);\n    function allowance(address owner, address spender) external view returns (uint256);\n    function approve(address spender, uint256 amount) external returns (bool);\n    function transferFrom(address sender, address recipient, uint256 amount) external returns (bool);\n    event Transfer(address indexed from, address indexed to, uint256 value);\n    event Approval(address indexed owner, address indexed spender, uint256 value);\n}\n\ncontract Context {\n    constructor () internal { }\n    // solhint-disable-previous-line no-empty-blocks\n\n    function _msgSender() internal view returns (address payable) {\n        return msg.sender;\n    }\n\n    function _msgData() internal view returns (bytes memory) {\n        this; // silence state mutability warning without generating bytecode - see https://github.com/ethereum/solidity/issues/2691\n        return msg.data;\n    }\n}\n\ncontract ReentrancyGuard {\n    uint256 private _guardCounter;\n\n    constructor () internal {\n        _guardCounter = 1;\n    }\n\n    modifier nonReentrant() {\n        _guardCounter += 1;\n        uint256 localCounter = _guardCounter;\n        _;\n        require(localCounter == _guardCounter, \"ReentrancyGuard: reentrant call\");\n    }\n}\n\ncontract Ownable is Context {\n    address private _owner;\n\n    event OwnershipTransferred(address indexed previousOwner, address indexed newOwner);\n    constructor () internal {\n        _owner = _msgSender();\n        emit OwnershipTransferred(address(0), _owner);\n    }\n    function owner() public view returns (address) {\n        return _owner;\n    }\n    modifier onlyOwner() {\n        require(isOwner(), \"Ownable: caller is not the owner\");\n        _;\n    }\n    function isOwner() public view returns (bool) {\n        return _msgSender() == _owner;\n    }\n    function renounceOwnership() public onlyOwner {\n        emit OwnershipTransferred(_owner, address(0));\n        _owner = address(0);\n    }\n    function transferOwnership(address newOwner) public onlyOwner {\n        _transferOwnership(newOwner);\n    }\n    function _transferOwnership(address newOwner) internal {\n        require(newOwner != address(0), \"Ownable: new owner is the zero address\");\n        emit OwnershipTransferred(_owner, newOwner);\n        _owner = newOwner;\n    }\n}\n\nlibrary SafeMath {\n    function add(uint256 a, uint256 b) internal pure returns (uint256) {\n        uint256 c = a + b;\n        require(c >= a, \"SafeMath: addition overflow\");\n\n        return c;\n    }\n    function sub(uint256 a, uint256 b) internal pure returns (uint256) {\n        return sub(a, b, \"SafeMath: subtraction overflow\");\n    }\n    function sub(uint256 a, uint256 b, string memory errorMessage) internal pure returns (uint256) {\n        require(b <= a, errorMessage);\n        uint256 c = a - b;\n\n        return c;\n    }\n    function mul(uint256 a, uint256 b) internal pure returns (uint256) {\n        if (a == 0) {\n            return 0;\n        }\n\n        uint256 c = a * b;\n        require(c / a == b, \"SafeMath: multiplication overflow\");\n\n        return c;\n    }\n    function div(uint256 a, uint256 b) internal pure returns (uint256) {\n        return div(a, b, \"SafeMath: division by zero\");\n    }\n    function div(uint256 a, uint256 b, string memory errorMessage) internal pure returns (uint256) {\n        // Solidity only automatically asserts when dividing by 0\n        require(b > 0, errorMessage);\n        uint256 c = a / b;\n\n        return c;\n    }\n    function mod(uint256 a, uint256 b) internal pure returns (uint256) {\n        return mod(a, b, \"SafeMath: modulo by zero\");\n    }\n    function mod(uint256 a, uint256 b, string memory errorMessage) internal pure returns (uint256) {\n        require(b != 0, errorMessage);\n        return a % b;\n    }\n}\n\nlibrary Address {\n    function isContract(address account) internal view returns (bool) {\n        bytes32 codehash;\n        bytes32 accountHash = 0xc5d2460186f7233c927e7db2dcc703c0e500b653ca82273b7bfad8045d85a470;\n        // solhint-disable-next-line no-inline-assembly\n        assembly { codehash := extcodehash(account) }\n        return (codehash != 0x0 && codehash != accountHash);\n    }\n    function toPayable(address account) internal pure returns (address payable) {\n        return address(uint160(account));\n    }\n    function sendValue(address payable recipient, uint256 amount) internal {\n        require(address(this).balance >= amount, \"Address: insufficient balance\");\n\n        // solhint-disable-next-line avoid-call-value\n        (bool success, ) = recipient.call.value(amount)(\"\");\n        require(success, \"Address: unable to send value, recipient may have reverted\");\n    }\n}\n\nlibrary SafeERC20 {\n    using SafeMath for uint256;\n    using Address for address;\n\n    function safeTransfer(IERC20 token, address to, uint256 value) internal {\n        callOptionalReturn(token, abi.encodeWithSelector(token.transfer.selector, to, value));\n    }\n    function safeTransferFrom(IERC20 token, address from, address to, uint256 value) internal {\n        callOptionalReturn(token, abi.encodeWithSelector(token.transferFrom.selector, from, to, value));\n    }\n    function safeApprove(IERC20 token, address spender, uint256 value) internal {\n        require((value == 0) || (token.allowance(address(this), spender) == 0),\n            \"SafeERC20: approve from non-zero to non-zero allowance\"\n        );\n        callOptionalReturn(token, abi.encodeWithSelector(token.approve.selector, spender, value));\n    }\n    function callOptionalReturn(IERC20 token, bytes memory data) private {\n        require(address(token).isContract(), \"SafeERC20: call to non-contract\");\n\n        // solhint-disable-next-line avoid-low-level-calls\n        (bool success, bytes memory returndata) = address(token).call(data);\n        require(success, \"SafeERC20: low-level call failed\");\n\n        if (returndata.length > 0) { // Return data is optional\n            // solhint-disable-next-line max-line-length\n            require(abi.decode(returndata, (bool)), \"SafeERC20: ERC20 operation did not succeed\");\n        }\n    }\n}\n\ninterface yERC20 {\n  function deposit(uint256 _amount) external;\n}\n\n// Solidity Interface\n\ninterface ICurveFi {\n\n  function add_liquidity(\n    uint256[4] calldata amounts,\n    uint256 min_mint_amount\n  ) external;\n  function remove_liquidity_imbalance(\n    uint256[4] calldata amounts,\n    uint256 max_burn_amount\n  ) external;\n}\n\ncontract yCurveZapInV4 is ReentrancyGuard, Ownable {\n  using SafeERC20 for IERC20;\n  using Address for address;\n  using SafeMath for uint256;\n\n  address public DAI;\n  address public yDAI;\n  address public USDC;\n  address public yUSDC;\n  address public USDT;\n  address public yUSDT;\n  address public BUSD;\n  address public yBUSD;\n  address public SWAP;\n  address public CURVE;\n\n  constructor () public {\n    DAI = address(0x6B175474E89094C44Da98b954EedeAC495271d0F);\n    yDAI = address(0xC2cB1040220768554cf699b0d863A3cd4324ce32);\n\n    USDC = address(0xA0b86991c6218b36c1d19D4a2e9Eb0cE3606eB48);\n    yUSDC = address(0x26EA744E5B887E5205727f55dFBE8685e3b21951);\n\n    USDT = address(0xdAC17F958D2ee523a2206206994597C13D831ec7);\n    yUSDT = address(0xE6354ed5bC4b393a5Aad09f21c46E101e692d447);\n\n    BUSD = address(0x4Fabb145d64652a948d72533023f6E7A623C7C53);\n    yBUSD = address(0x04bC0Ab673d88aE9dbC9DA2380cB6B79C4BCa9aE);\n\n    SWAP = address(0x79a8C46DeA5aDa233ABaFFD40F3A0A2B1e5A4F27);\n    CURVE = address(0x3B3Ac5386837Dc563660FB6a0937DFAa5924333B);\n\n    approveToken();\n  }\n\n  function() external payable {\n\n  }\n\n  function approveToken() public {\n      IERC20(DAI).safeApprove(yDAI, uint(-1));\n      IERC20(yDAI).safeApprove(SWAP, uint(-1));\n\n      IERC20(USDC).safeApprove(yUSDC, uint(-1));\n      IERC20(yUSDC).safeApprove(SWAP, uint(-1));\n\n      IERC20(USDT).safeApprove(yUSDT, uint(0));\n      IERC20(USDT).safeApprove(yUSDT, uint(-1));\n      IERC20(yUSDT).safeApprove(SWAP, uint(-1));\n\n      IERC20(BUSD).safeApprove(yBUSD, uint(-1));\n      IERC20(yBUSD).safeApprove(SWAP, uint(-1));\n  }\n\n  function depositDAI(uint256 _amount)\n      external\n      nonReentrant\n  {\n      require(_amount > 0, \"deposit must be greater than 0\");\n      IERC20(DAI).safeTransferFrom(msg.sender, address(this), _amount);\n      yERC20(yDAI).deposit(_amount);\n      require(IERC20(DAI).balanceOf(address(this)) == 0, \"token remainder\");\n      ICurveFi(SWAP).add_liquidity([IERC20(yDAI).balanceOf(address(this)),0,0,0],0);\n      require(IERC20(yDAI).balanceOf(address(this)) == 0, \"yToken remainder\");\n      IERC20(CURVE).safeTransfer(msg.sender, IERC20(CURVE).balanceOf(address(this)));\n      require(IERC20(CURVE).balanceOf(address(this)) == 0, \"CURVE remainder\");\n  }\n\n  function depositUSDC(uint256 _amount)\n      external\n      nonReentrant\n  {\n      require(_amount > 0, \"deposit must be greater than 0\");\n      IERC20(USDC).safeTransferFrom(msg.sender, address(this), _amount);\n      yERC20(yUSDC).deposit(_amount);\n      require(IERC20(USDC).balanceOf(address(this)) == 0, \"token remainder\");\n      ICurveFi(SWAP).add_liquidity([0,IERC20(yUSDC).balanceOf(address(this)),0,0],0);\n      require(IERC20(yUSDC).balanceOf(address(this)) == 0, \"yToken remainder\");\n      IERC20(CURVE).safeTransfer(msg.sender, IERC20(CURVE).balanceOf(address(this)));\n      require(IERC20(CURVE).balanceOf(address(this)) == 0, \"CURVE remainder\");\n  }\n\n  function depositUSDT(uint256 _amount)\n      external\n      nonReentrant\n  {\n      require(_amount > 0, \"deposit must be greater than 0\");\n      IERC20(USDT).safeTransferFrom(msg.sender, address(this), _amount);\n      yERC20(yUSDT).deposit(_amount);\n      require(IERC20(USDT).balanceOf(address(this)) == 0, \"token remainder\");\n      ICurveFi(SWAP).add_liquidity([0,0,IERC20(yUSDT).balanceOf(address(this)),0],0);\n      require(IERC20(yUSDT).balanceOf(address(this)) == 0, \"yToken remainder\");\n      IERC20(CURVE).safeTransfer(msg.sender, IERC20(CURVE).balanceOf(address(this)));\n      require(IERC20(CURVE).balanceOf(address(this)) == 0, \"CURVE remainder\");\n  }\n\n  function depositBUSD(uint256 _amount)\n      external\n      nonReentrant\n  {\n      require(_amount > 0, \"deposit must be greater than 0\");\n      IERC20(BUSD).safeTransferFrom(msg.sender, address(this), _amount);\n      yERC20(yBUSD).deposit(_amount);\n      require(IERC20(BUSD).balanceOf(address(this)) == 0, \"token remainder\");\n      ICurveFi(SWAP).add_liquidity([0,0,0,IERC20(yBUSD).balanceOf(address(this))],0);\n      require(IERC20(yBUSD).balanceOf(address(this)) == 0, \"yToken remainder\");\n      IERC20(CURVE).safeTransfer(msg.sender, IERC20(CURVE).balanceOf(address(this)));\n      require(IERC20(CURVE).balanceOf(address(this)) == 0, \"CURVE remainder\");\n  }\n\n  // incase of half-way error\n  function inCaseTokenGetsStuck(IERC20 _TokenAddress) onlyOwner public {\n      uint qty = _TokenAddress.balanceOf(address(this));\n      _TokenAddress.safeTransfer(msg.sender, qty);\n  }\n\n  // incase of half-way error\n  function inCaseETHGetsStuck() onlyOwner public{\n      (bool result, ) = msg.sender.call.value(address(this).balance)(\"\");\n      require(result, \"transfer of ETH failed\");\n  }\n}\n",
  "sourcePath": "D:/ftm/itoken/contracts/yCurveZapInV4.sol",
  "compiler": {
    "name": "solc",
    "version": "0.5.12+commit.7709ece9.Emscripten.clang"
  },
  "schemaVersion": "3.0.19",
  "updatedAt": "2020-02-27T18:42:15.995Z",
  "devdoc": {
    "methods": {}
  },
  "userdoc": {
    "methods": {}
  }
}