{
  "contractName": "yCurveZapSwapV4toV3",
  "abi": [
    {
      "inputs": [],
      "payable": false,
      "stateMutability": "nonpayable",
      "type": "constructor"
    },
    {
      "anonymous": false,
      "inputs": [
        {
          "indexed": true,
          "internalType": "address",
          "name": "previousOwner",
          "type": "address"
        },
        {
          "indexed": true,
          "internalType": "address",
          "name": "newOwner",
          "type": "address"
        }
      ],
      "name": "OwnershipTransferred",
      "type": "event"
    },
    {
      "payable": true,
      "stateMutability": "payable",
      "type": "fallback"
    },
    {
      "constant": true,
      "inputs": [],
      "name": "BUSD",
      "outputs": [
        {
          "internalType": "address",
          "name": "",
          "type": "address"
        }
      ],
      "payable": false,
      "stateMutability": "view",
      "type": "function"
    },
    {
      "constant": true,
      "inputs": [],
      "name": "CURVEv3",
      "outputs": [
        {
          "internalType": "address",
          "name": "",
          "type": "address"
        }
      ],
      "payable": false,
      "stateMutability": "view",
      "type": "function"
    },
    {
      "constant": true,
      "inputs": [],
      "name": "CURVEv4",
      "outputs": [
        {
          "internalType": "address",
          "name": "",
          "type": "address"
        }
      ],
      "payable": false,
      "stateMutability": "view",
      "type": "function"
    },
    {
      "constant": true,
      "inputs": [],
      "name": "DAI",
      "outputs": [
        {
          "internalType": "address",
          "name": "",
          "type": "address"
        }
      ],
      "payable": false,
      "stateMutability": "view",
      "type": "function"
    },
    {
      "constant": true,
      "inputs": [],
      "name": "SWAPv3",
      "outputs": [
        {
          "internalType": "address",
          "name": "",
          "type": "address"
        }
      ],
      "payable": false,
      "stateMutability": "view",
      "type": "function"
    },
    {
      "constant": true,
      "inputs": [],
      "name": "SWAPv4",
      "outputs": [
        {
          "internalType": "address",
          "name": "",
          "type": "address"
        }
      ],
      "payable": false,
      "stateMutability": "view",
      "type": "function"
    },
    {
      "constant": true,
      "inputs": [],
      "name": "TUSD",
      "outputs": [
        {
          "internalType": "address",
          "name": "",
          "type": "address"
        }
      ],
      "payable": false,
      "stateMutability": "view",
      "type": "function"
    },
    {
      "constant": true,
      "inputs": [],
      "name": "USDC",
      "outputs": [
        {
          "internalType": "address",
          "name": "",
          "type": "address"
        }
      ],
      "payable": false,
      "stateMutability": "view",
      "type": "function"
    },
    {
      "constant": true,
      "inputs": [],
      "name": "USDT",
      "outputs": [
        {
          "internalType": "address",
          "name": "",
          "type": "address"
        }
      ],
      "payable": false,
      "stateMutability": "view",
      "type": "function"
    },
    {
      "constant": true,
      "inputs": [],
      "name": "isOwner",
      "outputs": [
        {
          "internalType": "bool",
          "name": "",
          "type": "bool"
        }
      ],
      "payable": false,
      "stateMutability": "view",
      "type": "function"
    },
    {
      "constant": true,
      "inputs": [],
      "name": "owner",
      "outputs": [
        {
          "internalType": "address",
          "name": "",
          "type": "address"
        }
      ],
      "payable": false,
      "stateMutability": "view",
      "type": "function"
    },
    {
      "constant": false,
      "inputs": [],
      "name": "renounceOwnership",
      "outputs": [],
      "payable": false,
      "stateMutability": "nonpayable",
      "type": "function"
    },
    {
      "constant": false,
      "inputs": [
        {
          "internalType": "address",
          "name": "newOwner",
          "type": "address"
        }
      ],
      "name": "transferOwnership",
      "outputs": [],
      "payable": false,
      "stateMutability": "nonpayable",
      "type": "function"
    },
    {
      "constant": true,
      "inputs": [],
      "name": "yBUSDv3",
      "outputs": [
        {
          "internalType": "address",
          "name": "",
          "type": "address"
        }
      ],
      "payable": false,
      "stateMutability": "view",
      "type": "function"
    },
    {
      "constant": true,
      "inputs": [],
      "name": "yDAIv2",
      "outputs": [
        {
          "internalType": "address",
          "name": "",
          "type": "address"
        }
      ],
      "payable": false,
      "stateMutability": "view",
      "type": "function"
    },
    {
      "constant": true,
      "inputs": [],
      "name": "yDAIv3",
      "outputs": [
        {
          "internalType": "address",
          "name": "",
          "type": "address"
        }
      ],
      "payable": false,
      "stateMutability": "view",
      "type": "function"
    },
    {
      "constant": true,
      "inputs": [],
      "name": "yTUSDv2",
      "outputs": [
        {
          "internalType": "address",
          "name": "",
          "type": "address"
        }
      ],
      "payable": false,
      "stateMutability": "view",
      "type": "function"
    },
    {
      "constant": true,
      "inputs": [],
      "name": "yUSDCv2",
      "outputs": [
        {
          "internalType": "address",
          "name": "",
          "type": "address"
        }
      ],
      "payable": false,
      "stateMutability": "view",
      "type": "function"
    },
    {
      "constant": true,
      "inputs": [],
      "name": "yUSDCv3",
      "outputs": [
        {
          "internalType": "address",
          "name": "",
          "type": "address"
        }
      ],
      "payable": false,
      "stateMutability": "view",
      "type": "function"
    },
    {
      "constant": true,
      "inputs": [],
      "name": "yUSDTv2",
      "outputs": [
        {
          "internalType": "address",
          "name": "",
          "type": "address"
        }
      ],
      "payable": false,
      "stateMutability": "view",
      "type": "function"
    },
    {
      "constant": true,
      "inputs": [],
      "name": "yUSDTv3",
      "outputs": [
        {
          "internalType": "address",
          "name": "",
          "type": "address"
        }
      ],
      "payable": false,
      "stateMutability": "view",
      "type": "function"
    },
    {
      "constant": false,
      "inputs": [],
      "name": "approveToken",
      "outputs": [],
      "payable": false,
      "stateMutability": "nonpayable",
      "type": "function"
    },
    {
      "constant": false,
      "inputs": [
        {
          "internalType": "uint256",
          "name": "_amount",
          "type": "uint256"
        }
      ],
      "name": "swapv4tov3",
      "outputs": [],
      "payable": false,
      "stateMutability": "nonpayable",
      "type": "function"
    },
    {
      "constant": false,
      "inputs": [
        {
          "internalType": "contract IERC20",
          "name": "_TokenAddress",
          "type": "address"
        }
      ],
      "name": "inCaseTokenGetsStuck",
      "outputs": [],
      "payable": false,
      "stateMutability": "nonpayable",
      "type": "function"
    },
    {
      "constant": false,
      "inputs": [],
      "name": "inCaseETHGetsStuck",
      "outputs": [],
      "payable": false,
      "stateMutability": "nonpayable",
      "type": "function"
    }
  ],
  "bytecode": "0x60806040523480156200001157600080fd5b5060016000819055506200002a6200069d60201b60201c565b600160006101000a81548173ffffffffffffffffffffffffffffffffffffffff021916908373ffffffffffffffffffffffffffffffffffffffff160217905550600160009054906101000a900473ffffffffffffffffffffffffffffffffffffffff1673ffffffffffffffffffffffffffffffffffffffff16600073ffffffffffffffffffffffffffffffffffffffff167f8be0079c531659141344cd1fd0a4f28419497f9722a3daafe3b4186f6b6457e060405160405180910390a3736b175474e89094c44da98b954eedeac495271d0f600260006101000a81548173ffffffffffffffffffffffffffffffffffffffff021916908373ffffffffffffffffffffffffffffffffffffffff1602179055507316de59092dae5ccf4a1e6439d611fd0653f0bd01600360006101000a81548173ffffffffffffffffffffffffffffffffffffffff021916908373ffffffffffffffffffffffffffffffffffffffff16021790555073c2cb1040220768554cf699b0d863a3cd4324ce32600460006101000a81548173ffffffffffffffffffffffffffffffffffffffff021916908373ffffffffffffffffffffffffffffffffffffffff1602179055506e085d4780b73119b644ae5ecd22b376600b60006101000a81548173ffffffffffffffffffffffffffffffffffffffff021916908373ffffffffffffffffffffffffffffffffffffffff1602179055507373a052500105205d34daf004eab301916da8190f600c60006101000a81548173ffffffffffffffffffffffffffffffffffffffff021916908373ffffffffffffffffffffffffffffffffffffffff16021790555073a0b86991c6218b36c1d19d4a2e9eb0ce3606eb48600560006101000a81548173ffffffffffffffffffffffffffffffffffffffff021916908373ffffffffffffffffffffffffffffffffffffffff16021790555073d6ad7a6750a7593e092a9b218d66c0a814a3436e600660006101000a81548173ffffffffffffffffffffffffffffffffffffffff021916908373ffffffffffffffffffffffffffffffffffffffff1602179055507326ea744e5b887e5205727f55dfbe8685e3b21951600760006101000a81548173ffffffffffffffffffffffffffffffffffffffff021916908373ffffffffffffffffffffffffffffffffffffffff160217905550734fabb145d64652a948d72533023f6e7a623c7c53600e60006101000a81548173ffffffffffffffffffffffffffffffffffffffff021916908373ffffffffffffffffffffffffffffffffffffffff1602179055507304bc0ab673d88ae9dbc9da2380cb6b79c4bca9ae600d60006101000a81548173ffffffffffffffffffffffffffffffffffffffff021916908373ffffffffffffffffffffffffffffffffffffffff16021790555073dac17f958d2ee523a2206206994597c13d831ec7600860006101000a81548173ffffffffffffffffffffffffffffffffffffffff021916908373ffffffffffffffffffffffffffffffffffffffff1602179055507383f798e925bcd4017eb265844fddabb448f1707d600960006101000a81548173ffffffffffffffffffffffffffffffffffffffff021916908373ffffffffffffffffffffffffffffffffffffffff16021790555073e6354ed5bc4b393a5aad09f21c46e101e692d447600a60006101000a81548173ffffffffffffffffffffffffffffffffffffffff021916908373ffffffffffffffffffffffffffffffffffffffff1602179055507345f783cce6b7ff23b2ab2d70e416cdb7d6055f51600f60006101000a81548173ffffffffffffffffffffffffffffffffffffffff021916908373ffffffffffffffffffffffffffffffffffffffff16021790555073df5e0e81dff6faf3a7e52ba697820c5e32d806a8601060006101000a81548173ffffffffffffffffffffffffffffffffffffffff021916908373ffffffffffffffffffffffffffffffffffffffff1602179055507379a8c46dea5ada233abaffd40f3a0a2b1e5a4f27601160006101000a81548173ffffffffffffffffffffffffffffffffffffffff021916908373ffffffffffffffffffffffffffffffffffffffff160217905550733b3ac5386837dc563660fb6a0937dfaa5924333b601260006101000a81548173ffffffffffffffffffffffffffffffffffffffff021916908373ffffffffffffffffffffffffffffffffffffffff16021790555062000697620006a560201b60201c565b6200160c565b600033905090565b6200073b600360009054906101000a900473ffffffffffffffffffffffffffffffffffffffff167fffffffffffffffffffffffffffffffffffffffffffffffffffffffffffffffff600260009054906101000a900473ffffffffffffffffffffffffffffffffffffffff1673ffffffffffffffffffffffffffffffffffffffff1662000e9d60201b6200322d179092919060201c565b620007d1600460009054906101000a900473ffffffffffffffffffffffffffffffffffffffff167fffffffffffffffffffffffffffffffffffffffffffffffffffffffffffffffff600260009054906101000a900473ffffffffffffffffffffffffffffffffffffffff1673ffffffffffffffffffffffffffffffffffffffff1662000e9d60201b6200322d179092919060201c565b62000867600f60009054906101000a900473ffffffffffffffffffffffffffffffffffffffff167fffffffffffffffffffffffffffffffffffffffffffffffffffffffffffffffff600360009054906101000a900473ffffffffffffffffffffffffffffffffffffffff1673ffffffffffffffffffffffffffffffffffffffff1662000e9d60201b6200322d179092919060201c565b620008fd601160009054906101000a900473ffffffffffffffffffffffffffffffffffffffff167fffffffffffffffffffffffffffffffffffffffffffffffffffffffffffffffff600460009054906101000a900473ffffffffffffffffffffffffffffffffffffffff1673ffffffffffffffffffffffffffffffffffffffff1662000e9d60201b6200322d179092919060201c565b62000993600660009054906101000a900473ffffffffffffffffffffffffffffffffffffffff167fffffffffffffffffffffffffffffffffffffffffffffffffffffffffffffffff600560009054906101000a900473ffffffffffffffffffffffffffffffffffffffff1673ffffffffffffffffffffffffffffffffffffffff1662000e9d60201b6200322d179092919060201c565b62000a29600760009054906101000a900473ffffffffffffffffffffffffffffffffffffffff167fffffffffffffffffffffffffffffffffffffffffffffffffffffffffffffffff600560009054906101000a900473ffffffffffffffffffffffffffffffffffffffff1673ffffffffffffffffffffffffffffffffffffffff1662000e9d60201b6200322d179092919060201c565b62000abf600f60009054906101000a900473ffffffffffffffffffffffffffffffffffffffff167fffffffffffffffffffffffffffffffffffffffffffffffffffffffffffffffff600660009054906101000a900473ffffffffffffffffffffffffffffffffffffffff1673ffffffffffffffffffffffffffffffffffffffff1662000e9d60201b6200322d179092919060201c565b62000b55601160009054906101000a900473ffffffffffffffffffffffffffffffffffffffff167fffffffffffffffffffffffffffffffffffffffffffffffffffffffffffffffff600760009054906101000a900473ffffffffffffffffffffffffffffffffffffffff1673ffffffffffffffffffffffffffffffffffffffff1662000e9d60201b6200322d179092919060201c565b62000bcc600960009054906101000a900473ffffffffffffffffffffffffffffffffffffffff166000600860009054906101000a900473ffffffffffffffffffffffffffffffffffffffff1673ffffffffffffffffffffffffffffffffffffffff1662000e9d60201b6200322d179092919060201c565b62000c62600960009054906101000a900473ffffffffffffffffffffffffffffffffffffffff167fffffffffffffffffffffffffffffffffffffffffffffffffffffffffffffffff600860009054906101000a900473ffffffffffffffffffffffffffffffffffffffff1673ffffffffffffffffffffffffffffffffffffffff1662000e9d60201b6200322d179092919060201c565b62000cd9600a60009054906101000a900473ffffffffffffffffffffffffffffffffffffffff166000600860009054906101000a900473ffffffffffffffffffffffffffffffffffffffff1673ffffffffffffffffffffffffffffffffffffffff1662000e9d60201b6200322d179092919060201c565b62000d6f600a60009054906101000a900473ffffffffffffffffffffffffffffffffffffffff167fffffffffffffffffffffffffffffffffffffffffffffffffffffffffffffffff600860009054906101000a900473ffffffffffffffffffffffffffffffffffffffff1673ffffffffffffffffffffffffffffffffffffffff1662000e9d60201b6200322d179092919060201c565b62000e05600f60009054906101000a900473ffffffffffffffffffffffffffffffffffffffff167fffffffffffffffffffffffffffffffffffffffffffffffffffffffffffffffff600960009054906101000a900473ffffffffffffffffffffffffffffffffffffffff1673ffffffffffffffffffffffffffffffffffffffff1662000e9d60201b6200322d179092919060201c565b62000e9b601160009054906101000a900473ffffffffffffffffffffffffffffffffffffffff167fffffffffffffffffffffffffffffffffffffffffffffffffffffffffffffffff600a60009054906101000a900473ffffffffffffffffffffffffffffffffffffffff1673ffffffffffffffffffffffffffffffffffffffff1662000e9d60201b6200322d179092919060201c565b565b600081148062000f3d575060008373ffffffffffffffffffffffffffffffffffffffff1663dd62ed3e30856040518363ffffffff1660e01b815260040162000ee79291906200144f565b60206040518083038186803b15801562000f0057600080fd5b505afa15801562000f15573d6000803e3d6000fd5b505050506040513d601f19601f8201168201806040525062000f3b91908101906200125d565b145b62000f7f576040517f08c379a000000000000000000000000000000000000000000000000000000000815260040162000f7690620014ed565b60405180910390fd5b62001023838473ffffffffffffffffffffffffffffffffffffffff1663095ea7b3905060e01b848460405160240162000fba9291906200147c565b604051602081830303815290604052907bffffffffffffffffffffffffffffffffffffffffffffffffffffffff19166020820180517bffffffffffffffffffffffffffffffffffffffffffffffffffffffff83818316178352505050506200102860201b60201c565b505050565b620010548273ffffffffffffffffffffffffffffffffffffffff16620011b760201b620037021760201c565b62001096576040517f08c379a00000000000000000000000000000000000000000000000000000000081526004016200108d906200150f565b60405180910390fd5b600060608373ffffffffffffffffffffffffffffffffffffffff1683604051620010c1919062001436565b6000604051808303816000865af19150503d806000811462001100576040519150601f19603f3d011682016040523d82523d6000602084013e62001105565b606091505b5091509150816200114d576040517f08c379a00000000000000000000000000000000000000000000000000000000081526004016200114490620014a9565b60405180910390fd5b600081511115620011b157808060200190516200116e919081019062001231565b620011b0576040517f08c379a0000000000000000000000000000000000000000000000000000000008152600401620011a790620014cb565b60405180910390fd5b5b50505050565b60008060007fc5d2460186f7233c927e7db2dcc703c0e500b653ca82273b7bfad8045d85a47060001b9050833f91506000801b8214158015620011fa5750808214155b92505050919050565b6000815190506200121481620015d8565b92915050565b6000815190506200122b81620015f2565b92915050565b6000602082840312156200124457600080fd5b6000620012548482850162001203565b91505092915050565b6000602082840312156200127057600080fd5b600062001280848285016200121a565b91505092915050565b620012948162001558565b82525050565b6000620012a78262001531565b620012b381856200153c565b9350620012c5818560208601620015a2565b80840191505092915050565b6000620012e060208362001547565b91507f5361666545524332303a206c6f772d6c6576656c2063616c6c206661696c65646000830152602082019050919050565b600062001322602a8362001547565b91507f5361666545524332303a204552433230206f7065726174696f6e20646964206e60008301527f6f742073756363656564000000000000000000000000000000000000000000006020830152604082019050919050565b60006200138a60368362001547565b91507f5361666545524332303a20617070726f76652066726f6d206e6f6e2d7a65726f60008301527f20746f206e6f6e2d7a65726f20616c6c6f77616e6365000000000000000000006020830152604082019050919050565b6000620013f2601f8362001547565b91507f5361666545524332303a2063616c6c20746f206e6f6e2d636f6e7472616374006000830152602082019050919050565b620014308162001598565b82525050565b60006200144482846200129a565b915081905092915050565b600060408201905062001466600083018562001289565b62001475602083018462001289565b9392505050565b600060408201905062001493600083018562001289565b620014a2602083018462001425565b9392505050565b60006020820190508181036000830152620014c481620012d1565b9050919050565b60006020820190508181036000830152620014e68162001313565b9050919050565b6000602082019050818103600083015262001508816200137b565b9050919050565b600060208201905081810360008301526200152a81620013e3565b9050919050565b600081519050919050565b600081905092915050565b600082825260208201905092915050565b6000620015658262001578565b9050919050565b60008115159050919050565b600073ffffffffffffffffffffffffffffffffffffffff82169050919050565b6000819050919050565b60005b83811015620015c2578082015181840152602081019050620015a5565b83811115620015d2576000848401525b50505050565b620015e3816200156c565b8114620015ef57600080fd5b50565b620015fd8162001598565b81146200160957600080fd5b50565b6145c1806200161c6000396000f3fe6080604052600436106101665760003560e01c80638cb60909116100d1578063c54e44eb1161008a578063f0df201b11610064578063f0df201b146104c3578063f2fde38b146104ee578063f60a15ed14610517578063f9d3c1251461052e57610166565b8063c54e44eb14610442578063dc93d6c51461046d578063e0bab4c41461049857610166565b80638cb60909146103545780638da5cb5b1461037f5780638f32d59b146103aa57806399b71d5c146103d5578063b477622b146103ec578063b93f70e81461041757610166565b8063555023d411610123578063555023d414610266578063715018a6146102915780637327b8fc146102a85780638323550b146102d357806388b6d9fc146102fe57806389a302711461032957610166565b80631393f5fd146101685780632834b3bb146101935780632e8d6e18146101bc57806334725006146101e55780633cd7a0d714610210578063484f4ea91461023b575b005b34801561017457600080fd5b5061017d610559565b60405161018a9190613fd4565b60405180910390f35b34801561019f57600080fd5b506101ba60048036036101b59190810190613831565b61057f565b005b3480156101c857600080fd5b506101e360048036036101de9190810190613808565b6121a1565b005b3480156101f157600080fd5b506101fa6122a4565b6040516102079190613fd4565b60405180910390f35b34801561021c57600080fd5b506102256122ca565b6040516102329190613fd4565b60405180910390f35b34801561024757600080fd5b506102506122f0565b60405161025d9190613fd4565b60405180910390f35b34801561027257600080fd5b5061027b612316565b6040516102889190613fd4565b60405180910390f35b34801561029d57600080fd5b506102a661233c565b005b3480156102b457600080fd5b506102bd612444565b6040516102ca9190613fd4565b60405180910390f35b3480156102df57600080fd5b506102e861246a565b6040516102f59190613fd4565b60405180910390f35b34801561030a57600080fd5b50610313612490565b6040516103209190613fd4565b60405180910390f35b34801561033557600080fd5b5061033e6124b6565b60405161034b9190613fd4565b60405180910390f35b34801561036057600080fd5b506103696124dc565b6040516103769190613fd4565b60405180910390f35b34801561038b57600080fd5b50610394612502565b6040516103a19190613fd4565b60405180910390f35b3480156103b657600080fd5b506103bf61252c565b6040516103cc91906140bc565b60405180910390f35b3480156103e157600080fd5b506103ea61258b565b005b3480156103f857600080fd5b50610401612d21565b60405161040e9190613fd4565b60405180910390f35b34801561042357600080fd5b5061042c612d47565b6040516104399190613fd4565b60405180910390f35b34801561044e57600080fd5b50610457612d6d565b6040516104649190613fd4565b60405180910390f35b34801561047957600080fd5b50610482612d93565b60405161048f9190613fd4565b60405180910390f35b3480156104a457600080fd5b506104ad612db9565b6040516104ba9190613fd4565b60405180910390f35b3480156104cf57600080fd5b506104d8612ddf565b6040516104e59190613fd4565b60405180910390f35b3480156104fa57600080fd5b50610515600480360361051091908101906137b6565b612e05565b005b34801561052357600080fd5b5061052c612e58565b005b34801561053a57600080fd5b50610543612f65565b6040516105509190613fd4565b60405180910390f35b600760009054906101000a900473ffffffffffffffffffffffffffffffffffffffff1681565b60016000808282540192505081905550600080549050600082116105d8576040517f08c379a00000000000000000000000000000000000000000000000000000000081526004016105cf906142f9565b60405180910390fd5b610627333084601260009054906101000a900473ffffffffffffffffffffffffffffffffffffffff1673ffffffffffffffffffffffffffffffffffffffff16612f8b909392919063ffffffff16565b601160009054906101000a900473ffffffffffffffffffffffffffffffffffffffff1673ffffffffffffffffffffffffffffffffffffffff16637d49d87583604051806080016040528060008152602001600081526020016000815260200160008152506040518363ffffffff1660e01b81526004016106a89291906143b4565b600060405180830381600087803b1580156106c257600080fd5b505af11580156106d6573d6000803e3d6000fd5b505050506000601260009054906101000a900473ffffffffffffffffffffffffffffffffffffffff1673ffffffffffffffffffffffffffffffffffffffff166370a08231306040518263ffffffff1660e01b81526004016107379190613fef565b60206040518083038186803b15801561074f57600080fd5b505afa158015610763573d6000803e3d6000fd5b505050506040513d601f19601f82011682018060405250610787919081019061385a565b146107c7576040517f08c379a00000000000000000000000000000000000000000000000000000000081526004016107be90614299565b60405180910390fd5b6000600460009054906101000a900473ffffffffffffffffffffffffffffffffffffffff1673ffffffffffffffffffffffffffffffffffffffff166370a08231306040518263ffffffff1660e01b81526004016108249190613fef565b60206040518083038186803b15801561083c57600080fd5b505afa158015610850573d6000803e3d6000fd5b505050506040513d601f19601f82011682018060405250610874919081019061385a565b11156109b257600460009054906101000a900473ffffffffffffffffffffffffffffffffffffffff1673ffffffffffffffffffffffffffffffffffffffff16632e1a7d4d600460009054906101000a900473ffffffffffffffffffffffffffffffffffffffff1673ffffffffffffffffffffffffffffffffffffffff166370a08231306040518263ffffffff1660e01b81526004016109139190613fef565b60206040518083038186803b15801561092b57600080fd5b505afa15801561093f573d6000803e3d6000fd5b505050506040513d601f19601f82011682018060405250610963919081019061385a565b6040518263ffffffff1660e01b815260040161097f9190614399565b600060405180830381600087803b15801561099957600080fd5b505af11580156109ad573d6000803e3d6000fd5b505050505b6000600760009054906101000a900473ffffffffffffffffffffffffffffffffffffffff1673ffffffffffffffffffffffffffffffffffffffff166370a08231306040518263ffffffff1660e01b8152600401610a0f9190613fef565b60206040518083038186803b158015610a2757600080fd5b505afa158015610a3b573d6000803e3d6000fd5b505050506040513d601f19601f82011682018060405250610a5f919081019061385a565b1115610b9d57600760009054906101000a900473ffffffffffffffffffffffffffffffffffffffff1673ffffffffffffffffffffffffffffffffffffffff16632e1a7d4d600760009054906101000a900473ffffffffffffffffffffffffffffffffffffffff1673ffffffffffffffffffffffffffffffffffffffff166370a08231306040518263ffffffff1660e01b8152600401610afe9190613fef565b60206040518083038186803b158015610b1657600080fd5b505afa158015610b2a573d6000803e3d6000fd5b505050506040513d601f19601f82011682018060405250610b4e919081019061385a565b6040518263ffffffff1660e01b8152600401610b6a9190614399565b600060405180830381600087803b158015610b8457600080fd5b505af1158015610b98573d6000803e3d6000fd5b505050505b6000600a60009054906101000a900473ffffffffffffffffffffffffffffffffffffffff1673ffffffffffffffffffffffffffffffffffffffff166370a08231306040518263ffffffff1660e01b8152600401610bfa9190613fef565b60206040518083038186803b158015610c1257600080fd5b505afa158015610c26573d6000803e3d6000fd5b505050506040513d601f19601f82011682018060405250610c4a919081019061385a565b1115610d8857600a60009054906101000a900473ffffffffffffffffffffffffffffffffffffffff1673ffffffffffffffffffffffffffffffffffffffff16632e1a7d4d600a60009054906101000a900473ffffffffffffffffffffffffffffffffffffffff1673ffffffffffffffffffffffffffffffffffffffff166370a08231306040518263ffffffff1660e01b8152600401610ce99190613fef565b60206040518083038186803b158015610d0157600080fd5b505afa158015610d15573d6000803e3d6000fd5b505050506040513d601f19601f82011682018060405250610d39919081019061385a565b6040518263ffffffff1660e01b8152600401610d559190614399565b600060405180830381600087803b158015610d6f57600080fd5b505af1158015610d83573d6000803e3d6000fd5b505050505b6000600d60009054906101000a900473ffffffffffffffffffffffffffffffffffffffff1673ffffffffffffffffffffffffffffffffffffffff166370a08231306040518263ffffffff1660e01b8152600401610de59190613fef565b60206040518083038186803b158015610dfd57600080fd5b505afa158015610e11573d6000803e3d6000fd5b505050506040513d601f19601f82011682018060405250610e35919081019061385a565b1115610f7357600d60009054906101000a900473ffffffffffffffffffffffffffffffffffffffff1673ffffffffffffffffffffffffffffffffffffffff16632e1a7d4d600d60009054906101000a900473ffffffffffffffffffffffffffffffffffffffff1673ffffffffffffffffffffffffffffffffffffffff166370a08231306040518263ffffffff1660e01b8152600401610ed49190613fef565b60206040518083038186803b158015610eec57600080fd5b505afa158015610f00573d6000803e3d6000fd5b505050506040513d601f19601f82011682018060405250610f24919081019061385a565b6040518263ffffffff1660e01b8152600401610f409190614399565b600060405180830381600087803b158015610f5a57600080fd5b505af1158015610f6e573d6000803e3d6000fd5b505050505b6000600260009054906101000a900473ffffffffffffffffffffffffffffffffffffffff1673ffffffffffffffffffffffffffffffffffffffff166370a08231306040518263ffffffff1660e01b8152600401610fd09190613fef565b60206040518083038186803b158015610fe857600080fd5b505afa158015610ffc573d6000803e3d6000fd5b505050506040513d601f19601f82011682018060405250611020919081019061385a565b90506000600560009054906101000a900473ffffffffffffffffffffffffffffffffffffffff1673ffffffffffffffffffffffffffffffffffffffff166370a08231306040518263ffffffff1660e01b815260040161107f9190613fef565b60206040518083038186803b15801561109757600080fd5b505afa1580156110ab573d6000803e3d6000fd5b505050506040513d601f19601f820116820180604052506110cf919081019061385a565b90506000600860009054906101000a900473ffffffffffffffffffffffffffffffffffffffff1673ffffffffffffffffffffffffffffffffffffffff166370a08231306040518263ffffffff1660e01b815260040161112e9190613fef565b60206040518083038186803b15801561114657600080fd5b505afa15801561115a573d6000803e3d6000fd5b505050506040513d601f19601f8201168201806040525061117e919081019061385a565b9050600083118061118f5750600082115b8061119a5750600081115b6111d9576040517f08c379a00000000000000000000000000000000000000000000000000000000081526004016111d0906141f9565b60405180910390fd5b600083111561135d57600360009054906101000a900473ffffffffffffffffffffffffffffffffffffffff1673ffffffffffffffffffffffffffffffffffffffff1663b6b55f25846040518263ffffffff1660e01b815260040161123d9190614399565b600060405180830381600087803b15801561125757600080fd5b505af115801561126b573d6000803e3d6000fd5b505050506000600260009054906101000a900473ffffffffffffffffffffffffffffffffffffffff1673ffffffffffffffffffffffffffffffffffffffff166370a08231306040518263ffffffff1660e01b81526004016112cc9190613fef565b60206040518083038186803b1580156112e457600080fd5b505afa1580156112f8573d6000803e3d6000fd5b505050506040513d601f19601f8201168201806040525061131c919081019061385a565b1461135c576040517f08c379a0000000000000000000000000000000000000000000000000000000008152600401611353906140f9565b60405180910390fd5b5b60008211156114e157600660009054906101000a900473ffffffffffffffffffffffffffffffffffffffff1673ffffffffffffffffffffffffffffffffffffffff1663b6b55f25836040518263ffffffff1660e01b81526004016113c19190614399565b600060405180830381600087803b1580156113db57600080fd5b505af11580156113ef573d6000803e3d6000fd5b505050506000600560009054906101000a900473ffffffffffffffffffffffffffffffffffffffff1673ffffffffffffffffffffffffffffffffffffffff166370a08231306040518263ffffffff1660e01b81526004016114509190613fef565b60206040518083038186803b15801561146857600080fd5b505afa15801561147c573d6000803e3d6000fd5b505050506040513d601f19601f820116820180604052506114a0919081019061385a565b146114e0576040517f08c379a00000000000000000000000000000000000000000000000000000000081526004016114d7906141b9565b60405180910390fd5b5b600081111561166557600960009054906101000a900473ffffffffffffffffffffffffffffffffffffffff1673ffffffffffffffffffffffffffffffffffffffff1663b6b55f25826040518263ffffffff1660e01b81526004016115459190614399565b600060405180830381600087803b15801561155f57600080fd5b505af1158015611573573d6000803e3d6000fd5b505050506000600860009054906101000a900473ffffffffffffffffffffffffffffffffffffffff1673ffffffffffffffffffffffffffffffffffffffff166370a08231306040518263ffffffff1660e01b81526004016115d49190613fef565b60206040518083038186803b1580156115ec57600080fd5b505afa158015611600573d6000803e3d6000fd5b505050506040513d601f19601f82011682018060405250611624919081019061385a565b14611664576040517f08c379a000000000000000000000000000000000000000000000000000000000815260040161165b906141b9565b60405180910390fd5b5b600f60009054906101000a900473ffffffffffffffffffffffffffffffffffffffff1673ffffffffffffffffffffffffffffffffffffffff1663029b2f346040518060800160405280600360009054906101000a900473ffffffffffffffffffffffffffffffffffffffff1673ffffffffffffffffffffffffffffffffffffffff166370a08231306040518263ffffffff1660e01b81526004016117099190613fef565b60206040518083038186803b15801561172157600080fd5b505afa158015611735573d6000803e3d6000fd5b505050506040513d601f19601f82011682018060405250611759919081019061385a565b8152602001600660009054906101000a900473ffffffffffffffffffffffffffffffffffffffff1673ffffffffffffffffffffffffffffffffffffffff166370a08231306040518263ffffffff1660e01b81526004016117b99190613fef565b60206040518083038186803b1580156117d157600080fd5b505afa1580156117e5573d6000803e3d6000fd5b505050506040513d601f19601f82011682018060405250611809919081019061385a565b8152602001600960009054906101000a900473ffffffffffffffffffffffffffffffffffffffff1673ffffffffffffffffffffffffffffffffffffffff166370a08231306040518263ffffffff1660e01b81526004016118699190613fef565b60206040518083038186803b15801561188157600080fd5b505afa158015611895573d6000803e3d6000fd5b505050506040513d601f19601f820116820180604052506118b9919081019061385a565b8152602001600081525060006040518363ffffffff1660e01b81526004016118e2929190614093565b600060405180830381600087803b1580156118fc57600080fd5b505af1158015611910573d6000803e3d6000fd5b505050506000600360009054906101000a900473ffffffffffffffffffffffffffffffffffffffff1673ffffffffffffffffffffffffffffffffffffffff166370a08231306040518263ffffffff1660e01b81526004016119719190613fef565b60206040518083038186803b15801561198957600080fd5b505afa15801561199d573d6000803e3d6000fd5b505050506040513d601f19601f820116820180604052506119c1919081019061385a565b14611a01576040517f08c379a00000000000000000000000000000000000000000000000000000000081526004016119f890614119565b60405180910390fd5b6000600660009054906101000a900473ffffffffffffffffffffffffffffffffffffffff1673ffffffffffffffffffffffffffffffffffffffff166370a08231306040518263ffffffff1660e01b8152600401611a5e9190613fef565b60206040518083038186803b158015611a7657600080fd5b505afa158015611a8a573d6000803e3d6000fd5b505050506040513d601f19601f82011682018060405250611aae919081019061385a565b14611aee576040517f08c379a0000000000000000000000000000000000000000000000000000000008152600401611ae590614279565b60405180910390fd5b6000600960009054906101000a900473ffffffffffffffffffffffffffffffffffffffff1673ffffffffffffffffffffffffffffffffffffffff166370a08231306040518263ffffffff1660e01b8152600401611b4b9190613fef565b60206040518083038186803b158015611b6357600080fd5b505afa158015611b77573d6000803e3d6000fd5b505050506040513d601f19601f82011682018060405250611b9b919081019061385a565b14611bdb576040517f08c379a0000000000000000000000000000000000000000000000000000000008152600401611bd290614259565b60405180910390fd5b611cd233600e60009054906101000a900473ffffffffffffffffffffffffffffffffffffffff1673ffffffffffffffffffffffffffffffffffffffff166370a08231306040518263ffffffff1660e01b8152600401611c3a9190613fef565b60206040518083038186803b158015611c5257600080fd5b505afa158015611c66573d6000803e3d6000fd5b505050506040513d601f19601f82011682018060405250611c8a919081019061385a565b600e60009054906101000a900473ffffffffffffffffffffffffffffffffffffffff1673ffffffffffffffffffffffffffffffffffffffff1661302d9092919063ffffffff16565b6000600e60009054906101000a900473ffffffffffffffffffffffffffffffffffffffff1673ffffffffffffffffffffffffffffffffffffffff166370a08231306040518263ffffffff1660e01b8152600401611d2f9190613fef565b60206040518083038186803b158015611d4757600080fd5b505afa158015611d5b573d6000803e3d6000fd5b505050506040513d601f19601f82011682018060405250611d7f919081019061385a565b14611dbf576040517f08c379a0000000000000000000000000000000000000000000000000000000008152600401611db690614159565b60405180910390fd5b6000601060009054906101000a900473ffffffffffffffffffffffffffffffffffffffff1673ffffffffffffffffffffffffffffffffffffffff166370a08231306040518263ffffffff1660e01b8152600401611e1c9190613fef565b60206040518083038186803b158015611e3457600080fd5b505afa158015611e48573d6000803e3d6000fd5b505050506040513d601f19601f82011682018060405250611e6c919081019061385a565b90506000611ec3611e8b64e8d4a51000856130cc90919063ffffffff16565b611eb5611ea664e8d4a51000886130cc90919063ffffffff16565b8861313c90919063ffffffff16565b61313c90919063ffffffff16565b90506000611eee6064611ee06005856130cc90919063ffffffff16565b61319190919063ffffffff16565b90506000611f0582846131db90919063ffffffff16565b90506000611f1c838561313c90919063ffffffff16565b9050808511158015611f2e5750818510155b611f6d576040517f08c379a0000000000000000000000000000000000000000000000000000000008152600401611f64906142d9565b60405180910390fd5b61206433601060009054906101000a900473ffffffffffffffffffffffffffffffffffffffff1673ffffffffffffffffffffffffffffffffffffffff166370a08231306040518263ffffffff1660e01b8152600401611fcc9190613fef565b60206040518083038186803b158015611fe457600080fd5b505afa158015611ff8573d6000803e3d6000fd5b505050506040513d601f19601f8201168201806040525061201c919081019061385a565b601060009054906101000a900473ffffffffffffffffffffffffffffffffffffffff1673ffffffffffffffffffffffffffffffffffffffff1661302d9092919063ffffffff16565b6000601060009054906101000a900473ffffffffffffffffffffffffffffffffffffffff1673ffffffffffffffffffffffffffffffffffffffff166370a08231306040518263ffffffff1660e01b81526004016120c19190613fef565b60206040518083038186803b1580156120d957600080fd5b505afa1580156120ed573d6000803e3d6000fd5b505050506040513d601f19601f82011682018060405250612111919081019061385a565b14612151576040517f08c379a0000000000000000000000000000000000000000000000000000000008152600401612148906142b9565b60405180910390fd5b5050505050505050600054811461219d576040517f08c379a000000000000000000000000000000000000000000000000000000000815260040161219490614339565b60405180910390fd5b5050565b6121a961252c565b6121e8576040517f08c379a00000000000000000000000000000000000000000000000000000000081526004016121df90614239565b60405180910390fd5b60008173ffffffffffffffffffffffffffffffffffffffff166370a08231306040518263ffffffff1660e01b81526004016122239190613fef565b60206040518083038186803b15801561223b57600080fd5b505afa15801561224f573d6000803e3d6000fd5b505050506040513d601f19601f82011682018060405250612273919081019061385a565b90506122a033828473ffffffffffffffffffffffffffffffffffffffff1661302d9092919063ffffffff16565b5050565b600360009054906101000a900473ffffffffffffffffffffffffffffffffffffffff1681565b601060009054906101000a900473ffffffffffffffffffffffffffffffffffffffff1681565b600e60009054906101000a900473ffffffffffffffffffffffffffffffffffffffff1681565b601160009054906101000a900473ffffffffffffffffffffffffffffffffffffffff1681565b61234461252c565b612383576040517f08c379a000000000000000000000000000000000000000000000000000000000815260040161237a90614239565b60405180910390fd5b600073ffffffffffffffffffffffffffffffffffffffff16600160009054906101000a900473ffffffffffffffffffffffffffffffffffffffff1673ffffffffffffffffffffffffffffffffffffffff167f8be0079c531659141344cd1fd0a4f28419497f9722a3daafe3b4186f6b6457e060405160405180910390a36000600160006101000a81548173ffffffffffffffffffffffffffffffffffffffff021916908373ffffffffffffffffffffffffffffffffffffffff160217905550565b600460009054906101000a900473ffffffffffffffffffffffffffffffffffffffff1681565b600b60009054906101000a900473ffffffffffffffffffffffffffffffffffffffff1681565b600a60009054906101000a900473ffffffffffffffffffffffffffffffffffffffff1681565b600560009054906101000a900473ffffffffffffffffffffffffffffffffffffffff1681565b600c60009054906101000a900473ffffffffffffffffffffffffffffffffffffffff1681565b6000600160009054906101000a900473ffffffffffffffffffffffffffffffffffffffff16905090565b6000600160009054906101000a900473ffffffffffffffffffffffffffffffffffffffff1673ffffffffffffffffffffffffffffffffffffffff1661256f613225565b73ffffffffffffffffffffffffffffffffffffffff1614905090565b61261a600360009054906101000a900473ffffffffffffffffffffffffffffffffffffffff167fffffffffffffffffffffffffffffffffffffffffffffffffffffffffffffffff600260009054906101000a900473ffffffffffffffffffffffffffffffffffffffff1673ffffffffffffffffffffffffffffffffffffffff1661322d9092919063ffffffff16565b6126a9600460009054906101000a900473ffffffffffffffffffffffffffffffffffffffff167fffffffffffffffffffffffffffffffffffffffffffffffffffffffffffffffff600260009054906101000a900473ffffffffffffffffffffffffffffffffffffffff1673ffffffffffffffffffffffffffffffffffffffff1661322d9092919063ffffffff16565b612738600f60009054906101000a900473ffffffffffffffffffffffffffffffffffffffff167fffffffffffffffffffffffffffffffffffffffffffffffffffffffffffffffff600360009054906101000a900473ffffffffffffffffffffffffffffffffffffffff1673ffffffffffffffffffffffffffffffffffffffff1661322d9092919063ffffffff16565b6127c7601160009054906101000a900473ffffffffffffffffffffffffffffffffffffffff167fffffffffffffffffffffffffffffffffffffffffffffffffffffffffffffffff600460009054906101000a900473ffffffffffffffffffffffffffffffffffffffff1673ffffffffffffffffffffffffffffffffffffffff1661322d9092919063ffffffff16565b612856600660009054906101000a900473ffffffffffffffffffffffffffffffffffffffff167fffffffffffffffffffffffffffffffffffffffffffffffffffffffffffffffff600560009054906101000a900473ffffffffffffffffffffffffffffffffffffffff1673ffffffffffffffffffffffffffffffffffffffff1661322d9092919063ffffffff16565b6128e5600760009054906101000a900473ffffffffffffffffffffffffffffffffffffffff167fffffffffffffffffffffffffffffffffffffffffffffffffffffffffffffffff600560009054906101000a900473ffffffffffffffffffffffffffffffffffffffff1673ffffffffffffffffffffffffffffffffffffffff1661322d9092919063ffffffff16565b612974600f60009054906101000a900473ffffffffffffffffffffffffffffffffffffffff167fffffffffffffffffffffffffffffffffffffffffffffffffffffffffffffffff600660009054906101000a900473ffffffffffffffffffffffffffffffffffffffff1673ffffffffffffffffffffffffffffffffffffffff1661322d9092919063ffffffff16565b612a03601160009054906101000a900473ffffffffffffffffffffffffffffffffffffffff167fffffffffffffffffffffffffffffffffffffffffffffffffffffffffffffffff600760009054906101000a900473ffffffffffffffffffffffffffffffffffffffff1673ffffffffffffffffffffffffffffffffffffffff1661322d9092919063ffffffff16565b612a73600960009054906101000a900473ffffffffffffffffffffffffffffffffffffffff166000600860009054906101000a900473ffffffffffffffffffffffffffffffffffffffff1673ffffffffffffffffffffffffffffffffffffffff1661322d9092919063ffffffff16565b612b02600960009054906101000a900473ffffffffffffffffffffffffffffffffffffffff167fffffffffffffffffffffffffffffffffffffffffffffffffffffffffffffffff600860009054906101000a900473ffffffffffffffffffffffffffffffffffffffff1673ffffffffffffffffffffffffffffffffffffffff1661322d9092919063ffffffff16565b612b72600a60009054906101000a900473ffffffffffffffffffffffffffffffffffffffff166000600860009054906101000a900473ffffffffffffffffffffffffffffffffffffffff1673ffffffffffffffffffffffffffffffffffffffff1661322d9092919063ffffffff16565b612c01600a60009054906101000a900473ffffffffffffffffffffffffffffffffffffffff167fffffffffffffffffffffffffffffffffffffffffffffffffffffffffffffffff600860009054906101000a900473ffffffffffffffffffffffffffffffffffffffff1673ffffffffffffffffffffffffffffffffffffffff1661322d9092919063ffffffff16565b612c90600f60009054906101000a900473ffffffffffffffffffffffffffffffffffffffff167fffffffffffffffffffffffffffffffffffffffffffffffffffffffffffffffff600960009054906101000a900473ffffffffffffffffffffffffffffffffffffffff1673ffffffffffffffffffffffffffffffffffffffff1661322d9092919063ffffffff16565b612d1f601160009054906101000a900473ffffffffffffffffffffffffffffffffffffffff167fffffffffffffffffffffffffffffffffffffffffffffffffffffffffffffffff600a60009054906101000a900473ffffffffffffffffffffffffffffffffffffffff1673ffffffffffffffffffffffffffffffffffffffff1661322d9092919063ffffffff16565b565b600f60009054906101000a900473ffffffffffffffffffffffffffffffffffffffff1681565b601260009054906101000a900473ffffffffffffffffffffffffffffffffffffffff1681565b600860009054906101000a900473ffffffffffffffffffffffffffffffffffffffff1681565b600960009054906101000a900473ffffffffffffffffffffffffffffffffffffffff1681565b600260009054906101000a900473ffffffffffffffffffffffffffffffffffffffff1681565b600660009054906101000a900473ffffffffffffffffffffffffffffffffffffffff1681565b612e0d61252c565b612e4c576040517f08c379a0000000000000000000000000000000000000000000000000000000008152600401612e4390614239565b60405180910390fd5b612e55816133a4565b50565b612e6061252c565b612e9f576040517f08c379a0000000000000000000000000000000000000000000000000000000008152600401612e9690614239565b60405180910390fd5b60003373ffffffffffffffffffffffffffffffffffffffff163073ffffffffffffffffffffffffffffffffffffffff1631604051612edc90613fbf565b60006040518083038185875af1925050503d8060008114612f19576040519150601f19603f3d011682016040523d82523d6000602084013e612f1e565b606091505b5050905080612f62576040517f08c379a0000000000000000000000000000000000000000000000000000000008152600401612f59906141d9565b60405180910390fd5b50565b600d60009054906101000a900473ffffffffffffffffffffffffffffffffffffffff1681565b613027848573ffffffffffffffffffffffffffffffffffffffff166323b872dd905060e01b858585604051602401612fc593929190614033565b604051602081830303815290604052907bffffffffffffffffffffffffffffffffffffffffffffffffffffffff19166020820180517bffffffffffffffffffffffffffffffffffffffffffffffffffffffff83818316178352505050506134d4565b50505050565b6130c7838473ffffffffffffffffffffffffffffffffffffffff1663a9059cbb905060e01b848460405160240161306592919061406a565b604051602081830303815290604052907bffffffffffffffffffffffffffffffffffffffffffffffffffffffff19166020820180517bffffffffffffffffffffffffffffffffffffffffffffffffffffffff83818316178352505050506134d4565b505050565b6000808314156130df5760009050613136565b60008284029050828482816130f057fe5b0414613131576040517f08c379a000000000000000000000000000000000000000000000000000000000815260040161312890614219565b60405180910390fd5b809150505b92915050565b600080828401905083811015613187576040517f08c379a000000000000000000000000000000000000000000000000000000000815260040161317e90614179565b60405180910390fd5b8091505092915050565b60006131d383836040518060400160405280601a81526020017f536166654d6174683a206469766973696f6e206279207a65726f000000000000815250613646565b905092915050565b600061321d83836040518060400160405280601e81526020017f536166654d6174683a207375627472616374696f6e206f766572666c6f7700008152506136a7565b905092915050565b600033905090565b60008114806132c6575060008373ffffffffffffffffffffffffffffffffffffffff1663dd62ed3e30856040518363ffffffff1660e01b815260040161327492919061400a565b60206040518083038186803b15801561328c57600080fd5b505afa1580156132a0573d6000803e3d6000fd5b505050506040513d601f19601f820116820180604052506132c4919081019061385a565b145b613305576040517f08c379a00000000000000000000000000000000000000000000000000000000081526004016132fc90614359565b60405180910390fd5b61339f838473ffffffffffffffffffffffffffffffffffffffff1663095ea7b3905060e01b848460405160240161333d92919061406a565b604051602081830303815290604052907bffffffffffffffffffffffffffffffffffffffffffffffffffffffff19166020820180517bffffffffffffffffffffffffffffffffffffffffffffffffffffffff83818316178352505050506134d4565b505050565b600073ffffffffffffffffffffffffffffffffffffffff168173ffffffffffffffffffffffffffffffffffffffff161415613414576040517f08c379a000000000000000000000000000000000000000000000000000000000815260040161340b90614139565b60405180910390fd5b8073ffffffffffffffffffffffffffffffffffffffff16600160009054906101000a900473ffffffffffffffffffffffffffffffffffffffff1673ffffffffffffffffffffffffffffffffffffffff167f8be0079c531659141344cd1fd0a4f28419497f9722a3daafe3b4186f6b6457e060405160405180910390a380600160006101000a81548173ffffffffffffffffffffffffffffffffffffffff021916908373ffffffffffffffffffffffffffffffffffffffff16021790555050565b6134f38273ffffffffffffffffffffffffffffffffffffffff16613702565b613532576040517f08c379a000000000000000000000000000000000000000000000000000000000815260040161352990614379565b60405180910390fd5b600060608373ffffffffffffffffffffffffffffffffffffffff168360405161355b9190613fa8565b6000604051808303816000865af19150503d8060008114613598576040519150601f19603f3d011682016040523d82523d6000602084013e61359d565b606091505b5091509150816135e2576040517f08c379a00000000000000000000000000000000000000000000000000000000081526004016135d990614199565b60405180910390fd5b600081511115613640578080602001905161360091908101906137df565b61363f576040517f08c379a000000000000000000000000000000000000000000000000000000000815260040161363690614319565b60405180910390fd5b5b50505050565b6000808311829061368d576040517f08c379a000000000000000000000000000000000000000000000000000000000815260040161368491906140d7565b60405180910390fd5b50600083858161369957fe5b049050809150509392505050565b60008383111582906136ef576040517f08c379a00000000000000000000000000000000000000000000000000000000081526004016136e691906140d7565b60405180910390fd5b5060008385039050809150509392505050565b60008060007fc5d2460186f7233c927e7db2dcc703c0e500b653ca82273b7bfad8045d85a47060001b9050833f91506000801b82141580156137445750808214155b92505050919050565b60008135905061375c81614522565b92915050565b60008151905061377181614539565b92915050565b60008135905061378681614550565b92915050565b60008135905061379b81614567565b92915050565b6000815190506137b081614567565b92915050565b6000602082840312156137c857600080fd5b60006137d68482850161374d565b91505092915050565b6000602082840312156137f157600080fd5b60006137ff84828501613762565b91505092915050565b60006020828403121561381a57600080fd5b600061382884828501613777565b91505092915050565b60006020828403121561384357600080fd5b60006138518482850161378c565b91505092915050565b60006020828403121561386c57600080fd5b600061387a848285016137a1565b91505092915050565b600061388f8383613f8a565b60208301905092915050565b6138a481614496565b82525050565b6138b38161443c565b82525050565b6138c2816143e7565b6138cc8184614415565b92506138d7826143dd565b8060005b838110156139085781516138ef8782613883565b96506138fa83614408565b9250506001810190506138db565b505050505050565b6139198161444e565b82525050565b600061392a826143f2565b6139348185614420565b93506139448185602086016144de565b80840191505092915050565b613959816144a8565b82525050565b600061396a826143fd565b613974818561442b565b93506139848185602086016144de565b61398d81614511565b840191505092915050565b60006139a5600d8361442b565b91507f6461692072656d61696e646572000000000000000000000000000000000000006000830152602082019050919050565b60006139e560108361442b565b91507f7944414976322072656d61696e646572000000000000000000000000000000006000830152602082019050919050565b6000613a2560268361442b565b91507f4f776e61626c653a206e6577206f776e657220697320746865207a65726f206160008301527f64647265737300000000000000000000000000000000000000000000000000006020830152604082019050919050565b6000613a8b600e8361442b565b91507f425553442072656d61696e6465720000000000000000000000000000000000006000830152602082019050919050565b6000613acb601b8361442b565b91507f536166654d6174683a206164646974696f6e206f766572666c6f7700000000006000830152602082019050919050565b6000613b0b60208361442b565b91507f5361666545524332303a206c6f772d6c6576656c2063616c6c206661696c65646000830152602082019050919050565b6000613b4b600e8361442b565b91507f757364632072656d61696e6465720000000000000000000000000000000000006000830152602082019050919050565b6000613b8b60168361442b565b91507f7472616e73666572206f6620455448206661696c6564000000000000000000006000830152602082019050919050565b6000613bcb60138361442b565b91507f6e6f20756e6465726c79696e6720666f756e64000000000000000000000000006000830152602082019050919050565b6000613c0b60218361442b565b91507f536166654d6174683a206d756c7469706c69636174696f6e206f766572666c6f60008301527f77000000000000000000000000000000000000000000000000000000000000006020830152604082019050919050565b6000613c7160208361442b565b91507f4f776e61626c653a2063616c6c6572206973206e6f7420746865206f776e65726000830152602082019050919050565b6000613cb160118361442b565b91507f795553445476322072656d61696e6465720000000000000000000000000000006000830152602082019050919050565b6000613cf160118361442b565b91507f795553444376322072656d61696e6465720000000000000000000000000000006000830152602082019050919050565b6000613d3160118361442b565b91507f435552564576342072656d61696e6465720000000000000000000000000000006000830152602082019050919050565b6000613d71600083614420565b9150600082019050919050565b6000613d8b60118361442b565b91507f435552564576332072656d61696e6465720000000000000000000000000000006000830152602082019050919050565b6000613dcb60188361442b565b91507f736c6970706167652067726561746572207468616e20352500000000000000006000830152602082019050919050565b6000613e0b601e8361442b565b91507f43555256457634206d7573742062652067726561746572207468616e203000006000830152602082019050919050565b6000613e4b602a8361442b565b91507f5361666545524332303a204552433230206f7065726174696f6e20646964206e60008301527f6f742073756363656564000000000000000000000000000000000000000000006020830152604082019050919050565b6000613eb1601f8361442b565b91507f5265656e7472616e637947756172643a207265656e7472616e742063616c6c006000830152602082019050919050565b6000613ef160368361442b565b91507f5361666545524332303a20617070726f76652066726f6d206e6f6e2d7a65726f60008301527f20746f206e6f6e2d7a65726f20616c6c6f77616e6365000000000000000000006020830152604082019050919050565b6000613f57601f8361442b565b91507f5361666545524332303a2063616c6c20746f206e6f6e2d636f6e7472616374006000830152602082019050919050565b613f938161448c565b82525050565b613fa28161448c565b82525050565b6000613fb4828461391f565b915081905092915050565b6000613fca82613d64565b9150819050919050565b6000602082019050613fe960008301846138aa565b92915050565b6000602082019050614004600083018461389b565b92915050565b600060408201905061401f60008301856138aa565b61402c60208301846138aa565b9392505050565b600060608201905061404860008301866138aa565b61405560208301856138aa565b6140626040830184613f99565b949350505050565b600060408201905061407f60008301856138aa565b61408c6020830184613f99565b9392505050565b600060a0820190506140a860008301856138b9565b6140b56080830184613950565b9392505050565b60006020820190506140d16000830184613910565b92915050565b600060208201905081810360008301526140f1818461395f565b905092915050565b6000602082019050818103600083015261411281613998565b9050919050565b60006020820190508181036000830152614132816139d8565b9050919050565b6000602082019050818103600083015261415281613a18565b9050919050565b6000602082019050818103600083015261417281613a7e565b9050919050565b6000602082019050818103600083015261419281613abe565b9050919050565b600060208201905081810360008301526141b281613afe565b9050919050565b600060208201905081810360008301526141d281613b3e565b9050919050565b600060208201905081810360008301526141f281613b7e565b9050919050565b6000602082019050818103600083015261421281613bbe565b9050919050565b6000602082019050818103600083015261423281613bfe565b9050919050565b6000602082019050818103600083015261425281613c64565b9050919050565b6000602082019050818103600083015261427281613ca4565b9050919050565b6000602082019050818103600083015261429281613ce4565b9050919050565b600060208201905081810360008301526142b281613d24565b9050919050565b600060208201905081810360008301526142d281613d7e565b9050919050565b600060208201905081810360008301526142f281613dbe565b9050919050565b6000602082019050818103600083015261431281613dfe565b9050919050565b6000602082019050818103600083015261433281613e3e565b9050919050565b6000602082019050818103600083015261435281613ea4565b9050919050565b6000602082019050818103600083015261437281613ee4565b9050919050565b6000602082019050818103600083015261439281613f4a565b9050919050565b60006020820190506143ae6000830184613f99565b92915050565b600060a0820190506143c96000830185613f99565b6143d660208301846138b9565b9392505050565b6000819050919050565b600060049050919050565b600081519050919050565b600081519050919050565b6000602082019050919050565b600081905092915050565b600081905092915050565b600082825260208201905092915050565b60006144478261446c565b9050919050565b60008115159050919050565b60006144658261443c565b9050919050565b600073ffffffffffffffffffffffffffffffffffffffff82169050919050565b6000819050919050565b60006144a1826144ba565b9050919050565b60006144b38261448c565b9050919050565b60006144c5826144cc565b9050919050565b60006144d78261446c565b9050919050565b60005b838110156144fc5780820151818401526020810190506144e1565b8381111561450b576000848401525b50505050565b6000601f19601f8301169050919050565b61452b8161443c565b811461453657600080fd5b50565b6145428161444e565b811461454d57600080fd5b50565b6145598161445a565b811461456457600080fd5b50565b6145708161448c565b811461457b57600080fd5b5056fea365627a7a723158208858cd0f51244f8c7c563965dff545bf083f964abcc7cc1a193f21953677bb486c6578706572696d656e74616cf564736f6c634300050c0040",
  "source": "pragma solidity ^0.5.0;\npragma experimental ABIEncoderV2;\n\ninterface IERC20 {\n    function totalSupply() external view returns (uint256);\n    function balanceOf(address account) external view returns (uint256);\n    function transfer(address recipient, uint256 amount) external returns (bool);\n    function allowance(address owner, address spender) external view returns (uint256);\n    function approve(address spender, uint256 amount) external returns (bool);\n    function transferFrom(address sender, address recipient, uint256 amount) external returns (bool);\n    event Transfer(address indexed from, address indexed to, uint256 value);\n    event Approval(address indexed owner, address indexed spender, uint256 value);\n}\n\ncontract Context {\n    constructor () internal { }\n    // solhint-disable-previous-line no-empty-blocks\n\n    function _msgSender() internal view returns (address payable) {\n        return msg.sender;\n    }\n\n    function _msgData() internal view returns (bytes memory) {\n        this; // silence state mutability warning without generating bytecode - see https://github.com/ethereum/solidity/issues/2691\n        return msg.data;\n    }\n}\n\ncontract ReentrancyGuard {\n    uint256 private _guardCounter;\n\n    constructor () internal {\n        _guardCounter = 1;\n    }\n\n    modifier nonReentrant() {\n        _guardCounter += 1;\n        uint256 localCounter = _guardCounter;\n        _;\n        require(localCounter == _guardCounter, \"ReentrancyGuard: reentrant call\");\n    }\n}\n\ncontract Ownable is Context {\n    address private _owner;\n\n    event OwnershipTransferred(address indexed previousOwner, address indexed newOwner);\n    constructor () internal {\n        _owner = _msgSender();\n        emit OwnershipTransferred(address(0), _owner);\n    }\n    function owner() public view returns (address) {\n        return _owner;\n    }\n    modifier onlyOwner() {\n        require(isOwner(), \"Ownable: caller is not the owner\");\n        _;\n    }\n    function isOwner() public view returns (bool) {\n        return _msgSender() == _owner;\n    }\n    function renounceOwnership() public onlyOwner {\n        emit OwnershipTransferred(_owner, address(0));\n        _owner = address(0);\n    }\n    function transferOwnership(address newOwner) public onlyOwner {\n        _transferOwnership(newOwner);\n    }\n    function _transferOwnership(address newOwner) internal {\n        require(newOwner != address(0), \"Ownable: new owner is the zero address\");\n        emit OwnershipTransferred(_owner, newOwner);\n        _owner = newOwner;\n    }\n}\n\nlibrary SafeMath {\n    function add(uint256 a, uint256 b) internal pure returns (uint256) {\n        uint256 c = a + b;\n        require(c >= a, \"SafeMath: addition overflow\");\n\n        return c;\n    }\n    function sub(uint256 a, uint256 b) internal pure returns (uint256) {\n        return sub(a, b, \"SafeMath: subtraction overflow\");\n    }\n    function sub(uint256 a, uint256 b, string memory errorMessage) internal pure returns (uint256) {\n        require(b <= a, errorMessage);\n        uint256 c = a - b;\n\n        return c;\n    }\n    function mul(uint256 a, uint256 b) internal pure returns (uint256) {\n        if (a == 0) {\n            return 0;\n        }\n\n        uint256 c = a * b;\n        require(c / a == b, \"SafeMath: multiplication overflow\");\n\n        return c;\n    }\n    function div(uint256 a, uint256 b) internal pure returns (uint256) {\n        return div(a, b, \"SafeMath: division by zero\");\n    }\n    function div(uint256 a, uint256 b, string memory errorMessage) internal pure returns (uint256) {\n        // Solidity only automatically asserts when dividing by 0\n        require(b > 0, errorMessage);\n        uint256 c = a / b;\n\n        return c;\n    }\n    function mod(uint256 a, uint256 b) internal pure returns (uint256) {\n        return mod(a, b, \"SafeMath: modulo by zero\");\n    }\n    function mod(uint256 a, uint256 b, string memory errorMessage) internal pure returns (uint256) {\n        require(b != 0, errorMessage);\n        return a % b;\n    }\n}\n\nlibrary Address {\n    function isContract(address account) internal view returns (bool) {\n        bytes32 codehash;\n        bytes32 accountHash = 0xc5d2460186f7233c927e7db2dcc703c0e500b653ca82273b7bfad8045d85a470;\n        // solhint-disable-next-line no-inline-assembly\n        assembly { codehash := extcodehash(account) }\n        return (codehash != 0x0 && codehash != accountHash);\n    }\n    function toPayable(address account) internal pure returns (address payable) {\n        return address(uint160(account));\n    }\n    function sendValue(address payable recipient, uint256 amount) internal {\n        require(address(this).balance >= amount, \"Address: insufficient balance\");\n\n        // solhint-disable-next-line avoid-call-value\n        (bool success, ) = recipient.call.value(amount)(\"\");\n        require(success, \"Address: unable to send value, recipient may have reverted\");\n    }\n}\n\nlibrary SafeERC20 {\n    using SafeMath for uint256;\n    using Address for address;\n\n    function safeTransfer(IERC20 token, address to, uint256 value) internal {\n        callOptionalReturn(token, abi.encodeWithSelector(token.transfer.selector, to, value));\n    }\n    function safeTransferFrom(IERC20 token, address from, address to, uint256 value) internal {\n        callOptionalReturn(token, abi.encodeWithSelector(token.transferFrom.selector, from, to, value));\n    }\n    function safeApprove(IERC20 token, address spender, uint256 value) internal {\n        require((value == 0) || (token.allowance(address(this), spender) == 0),\n            \"SafeERC20: approve from non-zero to non-zero allowance\"\n        );\n        callOptionalReturn(token, abi.encodeWithSelector(token.approve.selector, spender, value));\n    }\n    function callOptionalReturn(IERC20 token, bytes memory data) private {\n        require(address(token).isContract(), \"SafeERC20: call to non-contract\");\n\n        // solhint-disable-next-line avoid-low-level-calls\n        (bool success, bytes memory returndata) = address(token).call(data);\n        require(success, \"SafeERC20: low-level call failed\");\n\n        if (returndata.length > 0) { // Return data is optional\n            // solhint-disable-next-line max-line-length\n            require(abi.decode(returndata, (bool)), \"SafeERC20: ERC20 operation did not succeed\");\n        }\n    }\n}\n\ninterface yERC20 {\n  function deposit(uint256 _amount) external;\n  function withdraw(uint256 _amount) external;\n}\n\n// Solidity Interface\n\ninterface ICurveFiv1 {\n  function remove_liquidity(\n    uint256 _amount,\n    uint256 deadline,\n    uint256[2] calldata min_amounts\n  ) external;\n}\n\ninterface ICurveFiv2 {\n  function remove_liquidity(\n    uint256 _amount,\n    uint256[3] calldata min_amounts\n  ) external;\n}\n\ninterface ICurveFiv3 {\n  function remove_liquidity(\n    uint256 _amount,\n    uint256[4] calldata min_amounts\n  ) external;\n}\n\ninterface Compound {\n    function mint ( uint256 mintAmount ) external returns ( uint256 );\n    function redeem(uint256 redeemTokens) external returns (uint256);\n    function exchangeRateStored() external view returns (uint);\n}\n\ninterface ICurveFiv4 {\n  function add_liquidity(\n    uint256[4] calldata amounts,\n    uint256 min_mint_amount\n  ) external;\n}\n\ncontract yCurveZapSwapV4toV3 is ReentrancyGuard, Ownable {\n  using SafeERC20 for IERC20;\n  using Address for address;\n  using SafeMath for uint256;\n\n  address public DAI;\n  address public yDAIv2;\n  address public yDAIv3;\n  address public USDC;\n  address public yUSDCv2;\n  address public yUSDCv3;\n  address public USDT;\n  address public yUSDTv2;\n  address public yUSDTv3;\n  address public TUSD;\n  address public yTUSDv2;\n  address public yBUSDv3;\n  address public BUSD;\n  address public SWAPv3;\n  address public CURVEv3;\n  address public SWAPv4;\n  address public CURVEv4;\n\n  constructor () public {\n    DAI = address(0x6B175474E89094C44Da98b954EedeAC495271d0F);\n    yDAIv2 = address(0x16de59092dAE5CcF4A1E6439D611fd0653f0Bd01);\n    yDAIv3 = address(0xC2cB1040220768554cf699b0d863A3cd4324ce32);\n\n    TUSD = address(0x0000000000085d4780B73119b644AE5ecd22b376);\n    yTUSDv2 = address(0x73a052500105205d34Daf004eAb301916DA8190f);\n\n    USDC = address(0xA0b86991c6218b36c1d19D4a2e9Eb0cE3606eB48);\n    yUSDCv2 = address(0xd6aD7a6750A7593E092a9B218d66C0A814a3436e);\n    yUSDCv3 = address(0x26EA744E5B887E5205727f55dFBE8685e3b21951);\n\n    BUSD = address(0x4Fabb145d64652a948d72533023f6E7A623C7C53);\n    yBUSDv3 = address(0x04bC0Ab673d88aE9dbC9DA2380cB6B79C4BCa9aE);\n\n    USDT = address(0xdAC17F958D2ee523a2206206994597C13D831ec7);\n    yUSDTv2 = address(0x83f798e925BcD4017Eb265844FDDAbb448f1707D);\n    yUSDTv3 = address(0xE6354ed5bC4b393a5Aad09f21c46E101e692d447);\n\n    SWAPv3 = address(0x45F783CCE6B7FF23B2ab2D70e416cdb7D6055f51);\n    CURVEv3 = address(0xdF5e0e81Dff6FAF3A7e52BA697820c5e32D806A8);\n\n    SWAPv4 = address(0x79a8C46DeA5aDa233ABaFFD40F3A0A2B1e5A4F27);\n    CURVEv4 = address(0x3B3Ac5386837Dc563660FB6a0937DFAa5924333B);\n\n    approveToken();\n  }\n\n  function() external payable {\n\n  }\n\n  function withdrawCompound(address token, uint amount) internal {\n      require(Compound(token).redeem(amount) == 0, \"COMPOUND: withdraw failed\");\n  }\n\n  function approveToken() public {\n      IERC20(DAI).safeApprove(yDAIv2, uint(-1));\n      IERC20(DAI).safeApprove(yDAIv3, uint(-1));\n      IERC20(yDAIv2).safeApprove(SWAPv3, uint(-1));\n      IERC20(yDAIv3).safeApprove(SWAPv4, uint(-1));\n\n      IERC20(USDC).safeApprove(yUSDCv2, uint(-1));\n      IERC20(USDC).safeApprove(yUSDCv3, uint(-1));\n      IERC20(yUSDCv2).safeApprove(SWAPv3, uint(-1));\n      IERC20(yUSDCv3).safeApprove(SWAPv4, uint(-1));\n\n      IERC20(USDT).safeApprove(yUSDTv2, uint(0));\n      IERC20(USDT).safeApprove(yUSDTv2, uint(-1));\n      IERC20(USDT).safeApprove(yUSDTv3, uint(0));\n      IERC20(USDT).safeApprove(yUSDTv3, uint(-1));\n      IERC20(yUSDTv2).safeApprove(SWAPv3, uint(-1));\n      IERC20(yUSDTv3).safeApprove(SWAPv4, uint(-1));\n\n  }\n\n  function swapv4tov3(uint256 _amount)\n      external\n      nonReentrant\n  {\n      require(_amount > 0, \"CURVEv4 must be greater than 0\");\n      IERC20(CURVEv4).safeTransferFrom(msg.sender, address(this), _amount);\n      ICurveFiv3(SWAPv4).remove_liquidity(_amount, [uint256(0),0,0,0]);\n      require(IERC20(CURVEv4).balanceOf(address(this)) == 0, \"CURVEv4 remainder\");\n\n      if (IERC20(yDAIv3).balanceOf(address(this)) > 0) {\n        yERC20(yDAIv3).withdraw(IERC20(yDAIv3).balanceOf(address(this)));\n      }\n      if (IERC20(yUSDCv3).balanceOf(address(this)) > 0) {\n        yERC20(yUSDCv3).withdraw(IERC20(yUSDCv3).balanceOf(address(this)));\n      }\n      if (IERC20(yUSDTv3).balanceOf(address(this)) > 0) {\n        yERC20(yUSDTv3).withdraw(IERC20(yUSDTv3).balanceOf(address(this)));\n      }\n      if (IERC20(yBUSDv3).balanceOf(address(this)) > 0) {\n        yERC20(yBUSDv3).withdraw(IERC20(yBUSDv3).balanceOf(address(this)));\n      }\n\n      uint256 _dai = IERC20(DAI).balanceOf(address(this));\n      uint256 _usdc = IERC20(USDC).balanceOf(address(this));\n      uint256 _usdt = IERC20(USDT).balanceOf(address(this));\n\n      require(_dai > 0 || _usdc > 0 || _usdt > 0, \"no underlying found\");\n\n      if (_dai > 0) {\n        yERC20(yDAIv2).deposit(_dai);\n        require(IERC20(DAI).balanceOf(address(this)) == 0, \"dai remainder\");\n      }\n\n      if (_usdc > 0) {\n        yERC20(yUSDCv2).deposit(_usdc);\n        require(IERC20(USDC).balanceOf(address(this)) == 0, \"usdc remainder\");\n      }\n\n      if (_usdt > 0) {\n        yERC20(yUSDTv2).deposit(_usdt);\n        require(IERC20(USDT).balanceOf(address(this)) == 0, \"usdc remainder\");\n      }\n\n\n      ICurveFiv4(SWAPv3).add_liquidity([\n        IERC20(yDAIv2).balanceOf(address(this)),\n        IERC20(yUSDCv2).balanceOf(address(this)),\n        IERC20(yUSDTv2).balanceOf(address(this)),\n        0],0);\n\n      require(IERC20(yDAIv2).balanceOf(address(this)) == 0, \"yDAIv2 remainder\");\n      require(IERC20(yUSDCv2).balanceOf(address(this)) == 0, \"yUSDCv2 remainder\");\n      require(IERC20(yUSDTv2).balanceOf(address(this)) == 0, \"yUSDTv2 remainder\");\n\n      IERC20(BUSD).safeTransfer(msg.sender, IERC20(BUSD).balanceOf(address(this)));\n      require(IERC20(BUSD).balanceOf(address(this)) == 0, \"BUSD remainder\");\n\n      uint256 received = IERC20(CURVEv3).balanceOf(address(this));\n      uint256 deposit = _dai.add((_usdc.mul(1e12))).add((_usdt.mul(1e12)));\n      uint256 fivePercent = deposit.mul(5).div(100);\n      uint256 min = deposit.sub(fivePercent);\n      uint256 max = deposit.add(fivePercent);\n      require(received <= max && received >= min, \"slippage greater than 5%\");\n\n      IERC20(CURVEv3).safeTransfer(msg.sender, IERC20(CURVEv3).balanceOf(address(this)));\n      require(IERC20(CURVEv3).balanceOf(address(this)) == 0, \"CURVEv3 remainder\");\n  }\n\n  // incase of half-way error\n  function inCaseTokenGetsStuck(IERC20 _TokenAddress) onlyOwner public {\n      uint qty = _TokenAddress.balanceOf(address(this));\n      _TokenAddress.safeTransfer(msg.sender, qty);\n  }\n\n  // incase of half-way error\n  function inCaseETHGetsStuck() onlyOwner public{\n      (bool result, ) = msg.sender.call.value(address(this).balance)(\"\");\n      require(result, \"transfer of ETH failed\");\n  }\n}\n",
  "sourcePath": "D:/ftm/itoken/contracts/yCurveZapSwapV4toV3.sol",
  "compiler": {
    "name": "solc",
    "version": "0.5.12+commit.7709ece9.Emscripten.clang"
  },
  "schemaVersion": "3.0.19",
  "updatedAt": "2020-03-07T05:43:26.465Z",
  "devdoc": {
    "methods": {}
  },
  "userdoc": {
    "methods": {}
  }
}