{
  "contractName": "yCurveZapSwap",
  "abi": [
    {
      "inputs": [],
      "payable": false,
      "stateMutability": "nonpayable",
      "type": "constructor"
    },
    {
      "anonymous": false,
      "inputs": [
        {
          "indexed": true,
          "internalType": "address",
          "name": "previousOwner",
          "type": "address"
        },
        {
          "indexed": true,
          "internalType": "address",
          "name": "newOwner",
          "type": "address"
        }
      ],
      "name": "OwnershipTransferred",
      "type": "event"
    },
    {
      "payable": true,
      "stateMutability": "payable",
      "type": "fallback"
    },
    {
      "constant": true,
      "inputs": [],
      "name": "CURVEv1",
      "outputs": [
        {
          "internalType": "address",
          "name": "",
          "type": "address"
        }
      ],
      "payable": false,
      "stateMutability": "view",
      "type": "function"
    },
    {
      "constant": true,
      "inputs": [],
      "name": "CURVEv2",
      "outputs": [
        {
          "internalType": "address",
          "name": "",
          "type": "address"
        }
      ],
      "payable": false,
      "stateMutability": "view",
      "type": "function"
    },
    {
      "constant": true,
      "inputs": [],
      "name": "CURVEv3",
      "outputs": [
        {
          "internalType": "address",
          "name": "",
          "type": "address"
        }
      ],
      "payable": false,
      "stateMutability": "view",
      "type": "function"
    },
    {
      "constant": true,
      "inputs": [],
      "name": "DAI",
      "outputs": [
        {
          "internalType": "address",
          "name": "",
          "type": "address"
        }
      ],
      "payable": false,
      "stateMutability": "view",
      "type": "function"
    },
    {
      "constant": true,
      "inputs": [],
      "name": "SWAPv1",
      "outputs": [
        {
          "internalType": "address",
          "name": "",
          "type": "address"
        }
      ],
      "payable": false,
      "stateMutability": "view",
      "type": "function"
    },
    {
      "constant": true,
      "inputs": [],
      "name": "SWAPv2",
      "outputs": [
        {
          "internalType": "address",
          "name": "",
          "type": "address"
        }
      ],
      "payable": false,
      "stateMutability": "view",
      "type": "function"
    },
    {
      "constant": true,
      "inputs": [],
      "name": "SWAPv3",
      "outputs": [
        {
          "internalType": "address",
          "name": "",
          "type": "address"
        }
      ],
      "payable": false,
      "stateMutability": "view",
      "type": "function"
    },
    {
      "constant": true,
      "inputs": [],
      "name": "USDC",
      "outputs": [
        {
          "internalType": "address",
          "name": "",
          "type": "address"
        }
      ],
      "payable": false,
      "stateMutability": "view",
      "type": "function"
    },
    {
      "constant": true,
      "inputs": [],
      "name": "USDT",
      "outputs": [
        {
          "internalType": "address",
          "name": "",
          "type": "address"
        }
      ],
      "payable": false,
      "stateMutability": "view",
      "type": "function"
    },
    {
      "constant": true,
      "inputs": [],
      "name": "cDAI",
      "outputs": [
        {
          "internalType": "address",
          "name": "",
          "type": "address"
        }
      ],
      "payable": false,
      "stateMutability": "view",
      "type": "function"
    },
    {
      "constant": true,
      "inputs": [],
      "name": "cUSDC",
      "outputs": [
        {
          "internalType": "address",
          "name": "",
          "type": "address"
        }
      ],
      "payable": false,
      "stateMutability": "view",
      "type": "function"
    },
    {
      "constant": true,
      "inputs": [],
      "name": "isOwner",
      "outputs": [
        {
          "internalType": "bool",
          "name": "",
          "type": "bool"
        }
      ],
      "payable": false,
      "stateMutability": "view",
      "type": "function"
    },
    {
      "constant": true,
      "inputs": [],
      "name": "owner",
      "outputs": [
        {
          "internalType": "address",
          "name": "",
          "type": "address"
        }
      ],
      "payable": false,
      "stateMutability": "view",
      "type": "function"
    },
    {
      "constant": false,
      "inputs": [],
      "name": "renounceOwnership",
      "outputs": [],
      "payable": false,
      "stateMutability": "nonpayable",
      "type": "function"
    },
    {
      "constant": false,
      "inputs": [
        {
          "internalType": "address",
          "name": "newOwner",
          "type": "address"
        }
      ],
      "name": "transferOwnership",
      "outputs": [],
      "payable": false,
      "stateMutability": "nonpayable",
      "type": "function"
    },
    {
      "constant": true,
      "inputs": [],
      "name": "yDAI",
      "outputs": [
        {
          "internalType": "address",
          "name": "",
          "type": "address"
        }
      ],
      "payable": false,
      "stateMutability": "view",
      "type": "function"
    },
    {
      "constant": true,
      "inputs": [],
      "name": "yUSDC",
      "outputs": [
        {
          "internalType": "address",
          "name": "",
          "type": "address"
        }
      ],
      "payable": false,
      "stateMutability": "view",
      "type": "function"
    },
    {
      "constant": true,
      "inputs": [],
      "name": "yUSDT",
      "outputs": [
        {
          "internalType": "address",
          "name": "",
          "type": "address"
        }
      ],
      "payable": false,
      "stateMutability": "view",
      "type": "function"
    },
    {
      "constant": false,
      "inputs": [],
      "name": "approveToken",
      "outputs": [],
      "payable": false,
      "stateMutability": "nonpayable",
      "type": "function"
    },
    {
      "constant": false,
      "inputs": [
        {
          "internalType": "uint256",
          "name": "_amount",
          "type": "uint256"
        }
      ],
      "name": "swapv1tov3",
      "outputs": [],
      "payable": false,
      "stateMutability": "nonpayable",
      "type": "function"
    },
    {
      "constant": false,
      "inputs": [
        {
          "internalType": "uint256",
          "name": "_amount",
          "type": "uint256"
        }
      ],
      "name": "swapv2tov3",
      "outputs": [],
      "payable": false,
      "stateMutability": "nonpayable",
      "type": "function"
    },
    {
      "constant": false,
      "inputs": [
        {
          "internalType": "contract IERC20",
          "name": "_TokenAddress",
          "type": "address"
        }
      ],
      "name": "inCaseTokenGetsStuck",
      "outputs": [],
      "payable": false,
      "stateMutability": "nonpayable",
      "type": "function"
    },
    {
      "constant": false,
      "inputs": [],
      "name": "inCaseETHGetsStuck",
      "outputs": [],
      "payable": false,
      "stateMutability": "nonpayable",
      "type": "function"
    }
  ],
  "bytecode": "0x60806040523480156200001157600080fd5b5060016000819055506200002a620005a360201b60201c565b600160006101000a81548173ffffffffffffffffffffffffffffffffffffffff021916908373ffffffffffffffffffffffffffffffffffffffff160217905550600160009054906101000a900473ffffffffffffffffffffffffffffffffffffffff1673ffffffffffffffffffffffffffffffffffffffff16600073ffffffffffffffffffffffffffffffffffffffff167f8be0079c531659141344cd1fd0a4f28419497f9722a3daafe3b4186f6b6457e060405160405180910390a3736b175474e89094c44da98b954eedeac495271d0f600260006101000a81548173ffffffffffffffffffffffffffffffffffffffff021916908373ffffffffffffffffffffffffffffffffffffffff1602179055507316de59092dae5ccf4a1e6439d611fd0653f0bd01600460006101000a81548173ffffffffffffffffffffffffffffffffffffffff021916908373ffffffffffffffffffffffffffffffffffffffff160217905550735d3a536e4d6dbd6114cc1ead35777bab948e3643600360006101000a81548173ffffffffffffffffffffffffffffffffffffffff021916908373ffffffffffffffffffffffffffffffffffffffff16021790555073a0b86991c6218b36c1d19d4a2e9eb0ce3606eb48600560006101000a81548173ffffffffffffffffffffffffffffffffffffffff021916908373ffffffffffffffffffffffffffffffffffffffff16021790555073d6ad7a6750a7593e092a9b218d66c0a814a3436e600760006101000a81548173ffffffffffffffffffffffffffffffffffffffff021916908373ffffffffffffffffffffffffffffffffffffffff1602179055507339aa39c021dfbae8fac545936693ac917d5e7563600660006101000a81548173ffffffffffffffffffffffffffffffffffffffff021916908373ffffffffffffffffffffffffffffffffffffffff16021790555073dac17f958d2ee523a2206206994597c13d831ec7600860006101000a81548173ffffffffffffffffffffffffffffffffffffffff021916908373ffffffffffffffffffffffffffffffffffffffff1602179055507383f798e925bcd4017eb265844fddabb448f1707d600960006101000a81548173ffffffffffffffffffffffffffffffffffffffff021916908373ffffffffffffffffffffffffffffffffffffffff160217905550732e60cf74d81ac34eb21eeff58db4d385920ef419600a60006101000a81548173ffffffffffffffffffffffffffffffffffffffff021916908373ffffffffffffffffffffffffffffffffffffffff160217905550733740fb63ab7a09891d7c0d4299442a551d06f5fd600b60006101000a81548173ffffffffffffffffffffffffffffffffffffffff021916908373ffffffffffffffffffffffffffffffffffffffff1602179055507352ea46506b9cc5ef470c5bf89f17dc28bb35d85c600c60006101000a81548173ffffffffffffffffffffffffffffffffffffffff021916908373ffffffffffffffffffffffffffffffffffffffff160217905550739fc689ccada600b6df723d9e47d84d76664a1f23600d60006101000a81548173ffffffffffffffffffffffffffffffffffffffff021916908373ffffffffffffffffffffffffffffffffffffffff1602179055507345f783cce6b7ff23b2ab2d70e416cdb7d6055f51600e60006101000a81548173ffffffffffffffffffffffffffffffffffffffff021916908373ffffffffffffffffffffffffffffffffffffffff16021790555073df5e0e81dff6faf3a7e52ba697820c5e32d806a8600f60006101000a81548173ffffffffffffffffffffffffffffffffffffffff021916908373ffffffffffffffffffffffffffffffffffffffff1602179055506200059d620005ab60201b60201c565b620010a0565b600033905090565b62000641600460009054906101000a900473ffffffffffffffffffffffffffffffffffffffff167fffffffffffffffffffffffffffffffffffffffffffffffffffffffffffffffff600260009054906101000a900473ffffffffffffffffffffffffffffffffffffffff1673ffffffffffffffffffffffffffffffffffffffff166200093160201b6200387a179092919060201c565b620006d7600e60009054906101000a900473ffffffffffffffffffffffffffffffffffffffff167fffffffffffffffffffffffffffffffffffffffffffffffffffffffffffffffff600460009054906101000a900473ffffffffffffffffffffffffffffffffffffffff1673ffffffffffffffffffffffffffffffffffffffff166200093160201b6200387a179092919060201c565b6200076d600760009054906101000a900473ffffffffffffffffffffffffffffffffffffffff167fffffffffffffffffffffffffffffffffffffffffffffffffffffffffffffffff600560009054906101000a900473ffffffffffffffffffffffffffffffffffffffff1673ffffffffffffffffffffffffffffffffffffffff166200093160201b6200387a179092919060201c565b62000803600e60009054906101000a900473ffffffffffffffffffffffffffffffffffffffff167fffffffffffffffffffffffffffffffffffffffffffffffffffffffffffffffff600760009054906101000a900473ffffffffffffffffffffffffffffffffffffffff1673ffffffffffffffffffffffffffffffffffffffff166200093160201b6200387a179092919060201c565b62000899600960009054906101000a900473ffffffffffffffffffffffffffffffffffffffff167fffffffffffffffffffffffffffffffffffffffffffffffffffffffffffffffff600860009054906101000a900473ffffffffffffffffffffffffffffffffffffffff1673ffffffffffffffffffffffffffffffffffffffff166200093160201b6200387a179092919060201c565b6200092f600e60009054906101000a900473ffffffffffffffffffffffffffffffffffffffff167fffffffffffffffffffffffffffffffffffffffffffffffffffffffffffffffff600960009054906101000a900473ffffffffffffffffffffffffffffffffffffffff1673ffffffffffffffffffffffffffffffffffffffff166200093160201b6200387a179092919060201c565b565b6000811480620009d1575060008373ffffffffffffffffffffffffffffffffffffffff1663dd62ed3e30856040518363ffffffff1660e01b81526004016200097b92919062000ee3565b60206040518083038186803b1580156200099457600080fd5b505afa158015620009a9573d6000803e3d6000fd5b505050506040513d601f19601f82011682018060405250620009cf919081019062000cf1565b145b62000a13576040517f08c379a000000000000000000000000000000000000000000000000000000000815260040162000a0a9062000f81565b60405180910390fd5b62000ab7838473ffffffffffffffffffffffffffffffffffffffff1663095ea7b3905060e01b848460405160240162000a4e92919062000f10565b604051602081830303815290604052907bffffffffffffffffffffffffffffffffffffffffffffffffffffffff19166020820180517bffffffffffffffffffffffffffffffffffffffffffffffffffffffff838183161783525050505062000abc60201b60201c565b505050565b62000ae88273ffffffffffffffffffffffffffffffffffffffff1662000c4b60201b62003d4f1760201c565b62000b2a576040517f08c379a000000000000000000000000000000000000000000000000000000000815260040162000b219062000fa3565b60405180910390fd5b600060608373ffffffffffffffffffffffffffffffffffffffff168360405162000b55919062000eca565b6000604051808303816000865af19150503d806000811462000b94576040519150601f19603f3d011682016040523d82523d6000602084013e62000b99565b606091505b50915091508162000be1576040517f08c379a000000000000000000000000000000000000000000000000000000000815260040162000bd89062000f3d565b60405180910390fd5b60008151111562000c45578080602001905162000c02919081019062000cc5565b62000c44576040517f08c379a000000000000000000000000000000000000000000000000000000000815260040162000c3b9062000f5f565b60405180910390fd5b5b50505050565b60008060007fc5d2460186f7233c927e7db2dcc703c0e500b653ca82273b7bfad8045d85a47060001b9050833f91506000801b821415801562000c8e5750808214155b92505050919050565b60008151905062000ca8816200106c565b92915050565b60008151905062000cbf8162001086565b92915050565b60006020828403121562000cd857600080fd5b600062000ce88482850162000c97565b91505092915050565b60006020828403121562000d0457600080fd5b600062000d148482850162000cae565b91505092915050565b62000d288162000fec565b82525050565b600062000d3b8262000fc5565b62000d47818562000fd0565b935062000d5981856020860162001036565b80840191505092915050565b600062000d7460208362000fdb565b91507f5361666545524332303a206c6f772d6c6576656c2063616c6c206661696c65646000830152602082019050919050565b600062000db6602a8362000fdb565b91507f5361666545524332303a204552433230206f7065726174696f6e20646964206e60008301527f6f742073756363656564000000000000000000000000000000000000000000006020830152604082019050919050565b600062000e1e60368362000fdb565b91507f5361666545524332303a20617070726f76652066726f6d206e6f6e2d7a65726f60008301527f20746f206e6f6e2d7a65726f20616c6c6f77616e6365000000000000000000006020830152604082019050919050565b600062000e86601f8362000fdb565b91507f5361666545524332303a2063616c6c20746f206e6f6e2d636f6e7472616374006000830152602082019050919050565b62000ec4816200102c565b82525050565b600062000ed8828462000d2e565b915081905092915050565b600060408201905062000efa600083018562000d1d565b62000f09602083018462000d1d565b9392505050565b600060408201905062000f27600083018562000d1d565b62000f36602083018462000eb9565b9392505050565b6000602082019050818103600083015262000f588162000d65565b9050919050565b6000602082019050818103600083015262000f7a8162000da7565b9050919050565b6000602082019050818103600083015262000f9c8162000e0f565b9050919050565b6000602082019050818103600083015262000fbe8162000e77565b9050919050565b600081519050919050565b600081905092915050565b600082825260208201905092915050565b600062000ff9826200100c565b9050919050565b60008115159050919050565b600073ffffffffffffffffffffffffffffffffffffffff82169050919050565b6000819050919050565b60005b838110156200105657808201518184015260208101905062001039565b8381111562001066576000848401525b50505050565b620010778162001000565b81146200108357600080fd5b50565b62001091816200102c565b81146200109d57600080fd5b50565b614d4d80620010b06000396000f3fe6080604052600436106101405760003560e01c806389a30271116100b6578063c54e44eb1161006f578063c54e44eb146103f1578063ce347a3e1461041c578063dfd8d49f14610447578063e0bab4c414610470578063f2fde38b1461049b578063f60a15ed146104c457610140565b806389a30271146103035780638da5cb5b1461032e5780638f32d59b1461035957806395f1f30e1461038457806399b71d5c146103af578063b477622b146103c657610140565b80633cd7a0d7116101085780633cd7a0d71461021757806364040a3214610242578063671cd70a1461026b5780636f6941b914610296578063715018a6146102c1578063756bb1cc146102d857610140565b8063104daa171461014257806316514d481461016d57806317e5a9a41461019857806319d9e008146101c35780632e8d6e18146101ee575b005b34801561014e57600080fd5b506101576104db565b60405161016491906146cf565b60405180910390f35b34801561017957600080fd5b50610182610501565b60405161018f91906146cf565b60405180910390f35b3480156101a457600080fd5b506101ad610527565b6040516101ba91906146cf565b60405180910390f35b3480156101cf57600080fd5b506101d861054d565b6040516101e591906146cf565b60405180910390f35b3480156101fa57600080fd5b5061021560048036036102109190810190613e55565b610573565b005b34801561022357600080fd5b5061022c610676565b60405161023991906146cf565b60405180910390f35b34801561024e57600080fd5b5061026960048036036102649190810190613e7e565b61069c565b005b34801561027757600080fd5b5061028061181d565b60405161028d91906146cf565b60405180910390f35b3480156102a257600080fd5b506102ab611843565b6040516102b891906146cf565b60405180910390f35b3480156102cd57600080fd5b506102d6611869565b005b3480156102e457600080fd5b506102ed611971565b6040516102fa91906146cf565b60405180910390f35b34801561030f57600080fd5b50610318611997565b60405161032591906146cf565b60405180910390f35b34801561033a57600080fd5b506103436119bd565b60405161035091906146cf565b60405180910390f35b34801561036557600080fd5b5061036e6119e7565b60405161037b91906147b7565b60405180910390f35b34801561039057600080fd5b50610399611a46565b6040516103a691906146cf565b60405180910390f35b3480156103bb57600080fd5b506103c4611a6c565b005b3480156103d257600080fd5b506103db611dc8565b6040516103e891906146cf565b60405180910390f35b3480156103fd57600080fd5b50610406611dee565b60405161041391906146cf565b60405180910390f35b34801561042857600080fd5b50610431611e14565b60405161043e91906146cf565b60405180910390f35b34801561045357600080fd5b5061046e60048036036104699190810190613e7e565b611e3a565b005b34801561047c57600080fd5b50610485613381565b60405161049291906146cf565b60405180910390f35b3480156104a757600080fd5b506104c260048036036104bd9190810190613e03565b6133a7565b005b3480156104d057600080fd5b506104d96133fa565b005b600b60009054906101000a900473ffffffffffffffffffffffffffffffffffffffff1681565b600c60009054906101000a900473ffffffffffffffffffffffffffffffffffffffff1681565b600960009054906101000a900473ffffffffffffffffffffffffffffffffffffffff1681565b600760009054906101000a900473ffffffffffffffffffffffffffffffffffffffff1681565b61057b6119e7565b6105ba576040517f08c379a00000000000000000000000000000000000000000000000000000000081526004016105b190614974565b60405180910390fd5b60008173ffffffffffffffffffffffffffffffffffffffff166370a08231306040518263ffffffff1660e01b81526004016105f591906146ea565b60206040518083038186803b15801561060d57600080fd5b505afa158015610621573d6000803e3d6000fd5b505050506040513d601f19601f820116820180604052506106459190810190613ea7565b905061067233828473ffffffffffffffffffffffffffffffffffffffff166135079092919063ffffffff16565b5050565b600f60009054906101000a900473ffffffffffffffffffffffffffffffffffffffff1681565b60016000808282540192505081905550600080549050600082116106f5576040517f08c379a00000000000000000000000000000000000000000000000000000000081526004016106ec90614a34565b60405180910390fd5b610744333084600b60009054906101000a900473ffffffffffffffffffffffffffffffffffffffff1673ffffffffffffffffffffffffffffffffffffffff166135a6909392919063ffffffff16565b600a60009054906101000a900473ffffffffffffffffffffffffffffffffffffffff1673ffffffffffffffffffffffffffffffffffffffff166359639fa9836107986107084261364890919063ffffffff16565b60405180604001604052806000815260200160008152506040518463ffffffff1660e01b81526004016107cd93929190614ad8565b600060405180830381600087803b1580156107e757600080fd5b505af11580156107fb573d6000803e3d6000fd5b505050506000600b60009054906101000a900473ffffffffffffffffffffffffffffffffffffffff1673ffffffffffffffffffffffffffffffffffffffff166370a08231306040518263ffffffff1660e01b815260040161085c91906146ea565b60206040518083038186803b15801561087457600080fd5b505afa158015610888573d6000803e3d6000fd5b505050506040513d601f19601f820116820180604052506108ac9190810190613ea7565b146108ec576040517f08c379a00000000000000000000000000000000000000000000000000000000081526004016108e390614914565b60405180910390fd5b6000600360009054906101000a900473ffffffffffffffffffffffffffffffffffffffff1673ffffffffffffffffffffffffffffffffffffffff166370a08231306040518263ffffffff1660e01b815260040161094991906146ea565b60206040518083038186803b15801561096157600080fd5b505afa158015610975573d6000803e3d6000fd5b505050506040513d601f19601f820116820180604052506109999190810190613ea7565b1115610a7657610a75600360009054906101000a900473ffffffffffffffffffffffffffffffffffffffff16600360009054906101000a900473ffffffffffffffffffffffffffffffffffffffff1673ffffffffffffffffffffffffffffffffffffffff166370a08231306040518263ffffffff1660e01b8152600401610a2091906146ea565b60206040518083038186803b158015610a3857600080fd5b505afa158015610a4c573d6000803e3d6000fd5b505050506040513d601f19601f82011682018060405250610a709190810190613ea7565b61369d565b5b6000600660009054906101000a900473ffffffffffffffffffffffffffffffffffffffff1673ffffffffffffffffffffffffffffffffffffffff166370a08231306040518263ffffffff1660e01b8152600401610ad391906146ea565b60206040518083038186803b158015610aeb57600080fd5b505afa158015610aff573d6000803e3d6000fd5b505050506040513d601f19601f82011682018060405250610b239190810190613ea7565b1115610c0057610bff600660009054906101000a900473ffffffffffffffffffffffffffffffffffffffff16600660009054906101000a900473ffffffffffffffffffffffffffffffffffffffff1673ffffffffffffffffffffffffffffffffffffffff166370a08231306040518263ffffffff1660e01b8152600401610baa91906146ea565b60206040518083038186803b158015610bc257600080fd5b505afa158015610bd6573d6000803e3d6000fd5b505050506040513d601f19601f82011682018060405250610bfa9190810190613ea7565b61369d565b5b6000600260009054906101000a900473ffffffffffffffffffffffffffffffffffffffff1673ffffffffffffffffffffffffffffffffffffffff166370a08231306040518263ffffffff1660e01b8152600401610c5d91906146ea565b60206040518083038186803b158015610c7557600080fd5b505afa158015610c89573d6000803e3d6000fd5b505050506040513d601f19601f82011682018060405250610cad9190810190613ea7565b90506000600560009054906101000a900473ffffffffffffffffffffffffffffffffffffffff1673ffffffffffffffffffffffffffffffffffffffff166370a08231306040518263ffffffff1660e01b8152600401610d0c91906146ea565b60206040518083038186803b158015610d2457600080fd5b505afa158015610d38573d6000803e3d6000fd5b505050506040513d601f19601f82011682018060405250610d5c9190810190613ea7565b90506000821180610d6d5750600081115b610dac576040517f08c379a0000000000000000000000000000000000000000000000000000000008152600401610da390614934565b60405180910390fd5b6000821115610f3057600460009054906101000a900473ffffffffffffffffffffffffffffffffffffffff1673ffffffffffffffffffffffffffffffffffffffff1663b6b55f25836040518263ffffffff1660e01b8152600401610e109190614a94565b600060405180830381600087803b158015610e2a57600080fd5b505af1158015610e3e573d6000803e3d6000fd5b505050506000600260009054906101000a900473ffffffffffffffffffffffffffffffffffffffff1673ffffffffffffffffffffffffffffffffffffffff166370a08231306040518263ffffffff1660e01b8152600401610e9f91906146ea565b60206040518083038186803b158015610eb757600080fd5b505afa158015610ecb573d6000803e3d6000fd5b505050506040513d601f19601f82011682018060405250610eef9190810190613ea7565b14610f2f576040517f08c379a0000000000000000000000000000000000000000000000000000000008152600401610f26906147f4565b60405180910390fd5b5b60008111156110b457600760009054906101000a900473ffffffffffffffffffffffffffffffffffffffff1673ffffffffffffffffffffffffffffffffffffffff1663b6b55f25826040518263ffffffff1660e01b8152600401610f949190614a94565b600060405180830381600087803b158015610fae57600080fd5b505af1158015610fc2573d6000803e3d6000fd5b505050506000600560009054906101000a900473ffffffffffffffffffffffffffffffffffffffff1673ffffffffffffffffffffffffffffffffffffffff166370a08231306040518263ffffffff1660e01b815260040161102391906146ea565b60206040518083038186803b15801561103b57600080fd5b505afa15801561104f573d6000803e3d6000fd5b505050506040513d601f19601f820116820180604052506110739190810190613ea7565b146110b3576040517f08c379a00000000000000000000000000000000000000000000000000000000081526004016110aa906148d4565b60405180910390fd5b5b600e60009054906101000a900473ffffffffffffffffffffffffffffffffffffffff1673ffffffffffffffffffffffffffffffffffffffff1663029b2f346040518060800160405280600460009054906101000a900473ffffffffffffffffffffffffffffffffffffffff1673ffffffffffffffffffffffffffffffffffffffff166370a08231306040518263ffffffff1660e01b815260040161115891906146ea565b60206040518083038186803b15801561117057600080fd5b505afa158015611184573d6000803e3d6000fd5b505050506040513d601f19601f820116820180604052506111a89190810190613ea7565b8152602001600760009054906101000a900473ffffffffffffffffffffffffffffffffffffffff1673ffffffffffffffffffffffffffffffffffffffff166370a08231306040518263ffffffff1660e01b815260040161120891906146ea565b60206040518083038186803b15801561122057600080fd5b505afa158015611234573d6000803e3d6000fd5b505050506040513d601f19601f820116820180604052506112589190810190613ea7565b815260200160008152602001600081525060006040518363ffffffff1660e01b815260040161128892919061478e565b600060405180830381600087803b1580156112a257600080fd5b505af11580156112b6573d6000803e3d6000fd5b505050506000600460009054906101000a900473ffffffffffffffffffffffffffffffffffffffff1673ffffffffffffffffffffffffffffffffffffffff166370a08231306040518263ffffffff1660e01b815260040161131791906146ea565b60206040518083038186803b15801561132f57600080fd5b505afa158015611343573d6000803e3d6000fd5b505050506040513d601f19601f820116820180604052506113679190810190613ea7565b146113a7576040517f08c379a000000000000000000000000000000000000000000000000000000000815260040161139e90614874565b60405180910390fd5b6000600760009054906101000a900473ffffffffffffffffffffffffffffffffffffffff1673ffffffffffffffffffffffffffffffffffffffff166370a08231306040518263ffffffff1660e01b815260040161140491906146ea565b60206040518083038186803b15801561141c57600080fd5b505afa158015611430573d6000803e3d6000fd5b505050506040513d601f19601f820116820180604052506114549190810190613ea7565b14611494576040517f08c379a000000000000000000000000000000000000000000000000000000000815260040161148b90614854565b60405180910390fd5b6000600f60009054906101000a900473ffffffffffffffffffffffffffffffffffffffff1673ffffffffffffffffffffffffffffffffffffffff166370a08231306040518263ffffffff1660e01b81526004016114f191906146ea565b60206040518083038186803b15801561150957600080fd5b505afa15801561151d573d6000803e3d6000fd5b505050506040513d601f19601f820116820180604052506115419190810190613ea7565b9050600061156c606461155e60058961376e90919063ffffffff16565b6137de90919063ffffffff16565b90506000611583828861382890919063ffffffff16565b9050600061159a838961364890919063ffffffff16565b90508084111580156115ac5750818410155b6115eb576040517f08c379a00000000000000000000000000000000000000000000000000000000081526004016115e2906149b4565b60405180910390fd5b6116e233600f60009054906101000a900473ffffffffffffffffffffffffffffffffffffffff1673ffffffffffffffffffffffffffffffffffffffff166370a08231306040518263ffffffff1660e01b815260040161164a91906146ea565b60206040518083038186803b15801561166257600080fd5b505afa158015611676573d6000803e3d6000fd5b505050506040513d601f19601f8201168201806040525061169a9190810190613ea7565b600f60009054906101000a900473ffffffffffffffffffffffffffffffffffffffff1673ffffffffffffffffffffffffffffffffffffffff166135079092919063ffffffff16565b6000600f60009054906101000a900473ffffffffffffffffffffffffffffffffffffffff1673ffffffffffffffffffffffffffffffffffffffff166370a08231306040518263ffffffff1660e01b815260040161173f91906146ea565b60206040518083038186803b15801561175757600080fd5b505afa15801561176b573d6000803e3d6000fd5b505050506040513d601f19601f8201168201806040525061178f9190810190613ea7565b146117cf576040517f08c379a00000000000000000000000000000000000000000000000000000000081526004016117c690614994565b60405180910390fd5b5050505050506000548114611819576040517f08c379a000000000000000000000000000000000000000000000000000000000815260040161181090614a14565b60405180910390fd5b5050565b600d60009054906101000a900473ffffffffffffffffffffffffffffffffffffffff1681565b600360009054906101000a900473ffffffffffffffffffffffffffffffffffffffff1681565b6118716119e7565b6118b0576040517f08c379a00000000000000000000000000000000000000000000000000000000081526004016118a790614974565b60405180910390fd5b600073ffffffffffffffffffffffffffffffffffffffff16600160009054906101000a900473ffffffffffffffffffffffffffffffffffffffff1673ffffffffffffffffffffffffffffffffffffffff167f8be0079c531659141344cd1fd0a4f28419497f9722a3daafe3b4186f6b6457e060405160405180910390a36000600160006101000a81548173ffffffffffffffffffffffffffffffffffffffff021916908373ffffffffffffffffffffffffffffffffffffffff160217905550565b600460009054906101000a900473ffffffffffffffffffffffffffffffffffffffff1681565b600560009054906101000a900473ffffffffffffffffffffffffffffffffffffffff1681565b6000600160009054906101000a900473ffffffffffffffffffffffffffffffffffffffff16905090565b6000600160009054906101000a900473ffffffffffffffffffffffffffffffffffffffff1673ffffffffffffffffffffffffffffffffffffffff16611a2a613872565b73ffffffffffffffffffffffffffffffffffffffff1614905090565b600a60009054906101000a900473ffffffffffffffffffffffffffffffffffffffff1681565b611afb600460009054906101000a900473ffffffffffffffffffffffffffffffffffffffff167fffffffffffffffffffffffffffffffffffffffffffffffffffffffffffffffff600260009054906101000a900473ffffffffffffffffffffffffffffffffffffffff1673ffffffffffffffffffffffffffffffffffffffff1661387a9092919063ffffffff16565b611b8a600e60009054906101000a900473ffffffffffffffffffffffffffffffffffffffff167fffffffffffffffffffffffffffffffffffffffffffffffffffffffffffffffff600460009054906101000a900473ffffffffffffffffffffffffffffffffffffffff1673ffffffffffffffffffffffffffffffffffffffff1661387a9092919063ffffffff16565b611c19600760009054906101000a900473ffffffffffffffffffffffffffffffffffffffff167fffffffffffffffffffffffffffffffffffffffffffffffffffffffffffffffff600560009054906101000a900473ffffffffffffffffffffffffffffffffffffffff1673ffffffffffffffffffffffffffffffffffffffff1661387a9092919063ffffffff16565b611ca8600e60009054906101000a900473ffffffffffffffffffffffffffffffffffffffff167fffffffffffffffffffffffffffffffffffffffffffffffffffffffffffffffff600760009054906101000a900473ffffffffffffffffffffffffffffffffffffffff1673ffffffffffffffffffffffffffffffffffffffff1661387a9092919063ffffffff16565b611d37600960009054906101000a900473ffffffffffffffffffffffffffffffffffffffff167fffffffffffffffffffffffffffffffffffffffffffffffffffffffffffffffff600860009054906101000a900473ffffffffffffffffffffffffffffffffffffffff1673ffffffffffffffffffffffffffffffffffffffff1661387a9092919063ffffffff16565b611dc6600e60009054906101000a900473ffffffffffffffffffffffffffffffffffffffff167fffffffffffffffffffffffffffffffffffffffffffffffffffffffffffffffff600960009054906101000a900473ffffffffffffffffffffffffffffffffffffffff1673ffffffffffffffffffffffffffffffffffffffff1661387a9092919063ffffffff16565b565b600e60009054906101000a900473ffffffffffffffffffffffffffffffffffffffff1681565b600860009054906101000a900473ffffffffffffffffffffffffffffffffffffffff1681565b600660009054906101000a900473ffffffffffffffffffffffffffffffffffffffff1681565b6001600080828254019250508190555060008054905060008211611e93576040517f08c379a0000000000000000000000000000000000000000000000000000000008152600401611e8a90614a34565b60405180910390fd5b611ee2333084600d60009054906101000a900473ffffffffffffffffffffffffffffffffffffffff1673ffffffffffffffffffffffffffffffffffffffff166135a6909392919063ffffffff16565b600c60009054906101000a900473ffffffffffffffffffffffffffffffffffffffff1673ffffffffffffffffffffffffffffffffffffffff1663ecb586a5836040518060600160405280600081526020016000815260200160008152506040518363ffffffff1660e01b8152600401611f5c929190614aaf565b600060405180830381600087803b158015611f7657600080fd5b505af1158015611f8a573d6000803e3d6000fd5b505050506000600d60009054906101000a900473ffffffffffffffffffffffffffffffffffffffff1673ffffffffffffffffffffffffffffffffffffffff166370a08231306040518263ffffffff1660e01b8152600401611feb91906146ea565b60206040518083038186803b15801561200357600080fd5b505afa158015612017573d6000803e3d6000fd5b505050506040513d601f19601f8201168201806040525061203b9190810190613ea7565b1461207b576040517f08c379a000000000000000000000000000000000000000000000000000000000815260040161207290614914565b60405180910390fd5b6000600360009054906101000a900473ffffffffffffffffffffffffffffffffffffffff1673ffffffffffffffffffffffffffffffffffffffff166370a08231306040518263ffffffff1660e01b81526004016120d891906146ea565b60206040518083038186803b1580156120f057600080fd5b505afa158015612104573d6000803e3d6000fd5b505050506040513d601f19601f820116820180604052506121289190810190613ea7565b111561220557612204600360009054906101000a900473ffffffffffffffffffffffffffffffffffffffff16600360009054906101000a900473ffffffffffffffffffffffffffffffffffffffff1673ffffffffffffffffffffffffffffffffffffffff166370a08231306040518263ffffffff1660e01b81526004016121af91906146ea565b60206040518083038186803b1580156121c757600080fd5b505afa1580156121db573d6000803e3d6000fd5b505050506040513d601f19601f820116820180604052506121ff9190810190613ea7565b61369d565b5b6000600660009054906101000a900473ffffffffffffffffffffffffffffffffffffffff1673ffffffffffffffffffffffffffffffffffffffff166370a08231306040518263ffffffff1660e01b815260040161226291906146ea565b60206040518083038186803b15801561227a57600080fd5b505afa15801561228e573d6000803e3d6000fd5b505050506040513d601f19601f820116820180604052506122b29190810190613ea7565b111561238f5761238e600660009054906101000a900473ffffffffffffffffffffffffffffffffffffffff16600660009054906101000a900473ffffffffffffffffffffffffffffffffffffffff1673ffffffffffffffffffffffffffffffffffffffff166370a08231306040518263ffffffff1660e01b815260040161233991906146ea565b60206040518083038186803b15801561235157600080fd5b505afa158015612365573d6000803e3d6000fd5b505050506040513d601f19601f820116820180604052506123899190810190613ea7565b61369d565b5b6000600260009054906101000a900473ffffffffffffffffffffffffffffffffffffffff1673ffffffffffffffffffffffffffffffffffffffff166370a08231306040518263ffffffff1660e01b81526004016123ec91906146ea565b60206040518083038186803b15801561240457600080fd5b505afa158015612418573d6000803e3d6000fd5b505050506040513d601f19601f8201168201806040525061243c9190810190613ea7565b90506000600560009054906101000a900473ffffffffffffffffffffffffffffffffffffffff1673ffffffffffffffffffffffffffffffffffffffff166370a08231306040518263ffffffff1660e01b815260040161249b91906146ea565b60206040518083038186803b1580156124b357600080fd5b505afa1580156124c7573d6000803e3d6000fd5b505050506040513d601f19601f820116820180604052506124eb9190810190613ea7565b90506000600860009054906101000a900473ffffffffffffffffffffffffffffffffffffffff1673ffffffffffffffffffffffffffffffffffffffff166370a08231306040518263ffffffff1660e01b815260040161254a91906146ea565b60206040518083038186803b15801561256257600080fd5b505afa158015612576573d6000803e3d6000fd5b505050506040513d601f19601f8201168201806040525061259a9190810190613ea7565b905060008311806125ab5750600082115b806125b65750600081115b6125f5576040517f08c379a00000000000000000000000000000000000000000000000000000000081526004016125ec90614934565b60405180910390fd5b600083111561277957600460009054906101000a900473ffffffffffffffffffffffffffffffffffffffff1673ffffffffffffffffffffffffffffffffffffffff1663b6b55f25846040518263ffffffff1660e01b81526004016126599190614a94565b600060405180830381600087803b15801561267357600080fd5b505af1158015612687573d6000803e3d6000fd5b505050506000600260009054906101000a900473ffffffffffffffffffffffffffffffffffffffff1673ffffffffffffffffffffffffffffffffffffffff166370a08231306040518263ffffffff1660e01b81526004016126e891906146ea565b60206040518083038186803b15801561270057600080fd5b505afa158015612714573d6000803e3d6000fd5b505050506040513d601f19601f820116820180604052506127389190810190613ea7565b14612778576040517f08c379a000000000000000000000000000000000000000000000000000000000815260040161276f906147f4565b60405180910390fd5b5b60008211156128fd57600760009054906101000a900473ffffffffffffffffffffffffffffffffffffffff1673ffffffffffffffffffffffffffffffffffffffff1663b6b55f25836040518263ffffffff1660e01b81526004016127dd9190614a94565b600060405180830381600087803b1580156127f757600080fd5b505af115801561280b573d6000803e3d6000fd5b505050506000600560009054906101000a900473ffffffffffffffffffffffffffffffffffffffff1673ffffffffffffffffffffffffffffffffffffffff166370a08231306040518263ffffffff1660e01b815260040161286c91906146ea565b60206040518083038186803b15801561288457600080fd5b505afa158015612898573d6000803e3d6000fd5b505050506040513d601f19601f820116820180604052506128bc9190810190613ea7565b146128fc576040517f08c379a00000000000000000000000000000000000000000000000000000000081526004016128f3906148d4565b60405180910390fd5b5b6000811115612a8157600960009054906101000a900473ffffffffffffffffffffffffffffffffffffffff1673ffffffffffffffffffffffffffffffffffffffff1663b6b55f25826040518263ffffffff1660e01b81526004016129619190614a94565b600060405180830381600087803b15801561297b57600080fd5b505af115801561298f573d6000803e3d6000fd5b505050506000600860009054906101000a900473ffffffffffffffffffffffffffffffffffffffff1673ffffffffffffffffffffffffffffffffffffffff166370a08231306040518263ffffffff1660e01b81526004016129f091906146ea565b60206040518083038186803b158015612a0857600080fd5b505afa158015612a1c573d6000803e3d6000fd5b505050506040513d601f19601f82011682018060405250612a409190810190613ea7565b14612a80576040517f08c379a0000000000000000000000000000000000000000000000000000000008152600401612a77906148d4565b60405180910390fd5b5b600e60009054906101000a900473ffffffffffffffffffffffffffffffffffffffff1673ffffffffffffffffffffffffffffffffffffffff1663029b2f346040518060800160405280600460009054906101000a900473ffffffffffffffffffffffffffffffffffffffff1673ffffffffffffffffffffffffffffffffffffffff166370a08231306040518263ffffffff1660e01b8152600401612b2591906146ea565b60206040518083038186803b158015612b3d57600080fd5b505afa158015612b51573d6000803e3d6000fd5b505050506040513d601f19601f82011682018060405250612b759190810190613ea7565b8152602001600760009054906101000a900473ffffffffffffffffffffffffffffffffffffffff1673ffffffffffffffffffffffffffffffffffffffff166370a08231306040518263ffffffff1660e01b8152600401612bd591906146ea565b60206040518083038186803b158015612bed57600080fd5b505afa158015612c01573d6000803e3d6000fd5b505050506040513d601f19601f82011682018060405250612c259190810190613ea7565b8152602001600960009054906101000a900473ffffffffffffffffffffffffffffffffffffffff1673ffffffffffffffffffffffffffffffffffffffff166370a08231306040518263ffffffff1660e01b8152600401612c8591906146ea565b60206040518083038186803b158015612c9d57600080fd5b505afa158015612cb1573d6000803e3d6000fd5b505050506040513d601f19601f82011682018060405250612cd59190810190613ea7565b8152602001600081525060006040518363ffffffff1660e01b8152600401612cfe92919061478e565b600060405180830381600087803b158015612d1857600080fd5b505af1158015612d2c573d6000803e3d6000fd5b505050506000600460009054906101000a900473ffffffffffffffffffffffffffffffffffffffff1673ffffffffffffffffffffffffffffffffffffffff166370a08231306040518263ffffffff1660e01b8152600401612d8d91906146ea565b60206040518083038186803b158015612da557600080fd5b505afa158015612db9573d6000803e3d6000fd5b505050506040513d601f19601f82011682018060405250612ddd9190810190613ea7565b14612e1d576040517f08c379a0000000000000000000000000000000000000000000000000000000008152600401612e1490614874565b60405180910390fd5b6000600760009054906101000a900473ffffffffffffffffffffffffffffffffffffffff1673ffffffffffffffffffffffffffffffffffffffff166370a08231306040518263ffffffff1660e01b8152600401612e7a91906146ea565b60206040518083038186803b158015612e9257600080fd5b505afa158015612ea6573d6000803e3d6000fd5b505050506040513d601f19601f82011682018060405250612eca9190810190613ea7565b14612f0a576040517f08c379a0000000000000000000000000000000000000000000000000000000008152600401612f0190614854565b60405180910390fd5b6000600960009054906101000a900473ffffffffffffffffffffffffffffffffffffffff1673ffffffffffffffffffffffffffffffffffffffff166370a08231306040518263ffffffff1660e01b8152600401612f6791906146ea565b60206040518083038186803b158015612f7f57600080fd5b505afa158015612f93573d6000803e3d6000fd5b505050506040513d601f19601f82011682018060405250612fb79190810190613ea7565b14612ff7576040517f08c379a0000000000000000000000000000000000000000000000000000000008152600401612fee906149f4565b60405180910390fd5b6000600f60009054906101000a900473ffffffffffffffffffffffffffffffffffffffff1673ffffffffffffffffffffffffffffffffffffffff166370a08231306040518263ffffffff1660e01b815260040161305491906146ea565b60206040518083038186803b15801561306c57600080fd5b505afa158015613080573d6000803e3d6000fd5b505050506040513d601f19601f820116820180604052506130a49190810190613ea7565b905060006130cf60646130c160058a61376e90919063ffffffff16565b6137de90919063ffffffff16565b905060006130e6828961382890919063ffffffff16565b905060006130fd838a61364890919063ffffffff16565b905080841115801561310f5750818410155b61314e576040517f08c379a0000000000000000000000000000000000000000000000000000000008152600401613145906149b4565b60405180910390fd5b61324533600f60009054906101000a900473ffffffffffffffffffffffffffffffffffffffff1673ffffffffffffffffffffffffffffffffffffffff166370a08231306040518263ffffffff1660e01b81526004016131ad91906146ea565b60206040518083038186803b1580156131c557600080fd5b505afa1580156131d9573d6000803e3d6000fd5b505050506040513d601f19601f820116820180604052506131fd9190810190613ea7565b600f60009054906101000a900473ffffffffffffffffffffffffffffffffffffffff1673ffffffffffffffffffffffffffffffffffffffff166135079092919063ffffffff16565b6000600f60009054906101000a900473ffffffffffffffffffffffffffffffffffffffff1673ffffffffffffffffffffffffffffffffffffffff166370a08231306040518263ffffffff1660e01b81526004016132a291906146ea565b60206040518083038186803b1580156132ba57600080fd5b505afa1580156132ce573d6000803e3d6000fd5b505050506040513d601f19601f820116820180604052506132f29190810190613ea7565b14613332576040517f08c379a000000000000000000000000000000000000000000000000000000000815260040161332990614994565b60405180910390fd5b50505050505050600054811461337d576040517f08c379a000000000000000000000000000000000000000000000000000000000815260040161337490614a14565b60405180910390fd5b5050565b600260009054906101000a900473ffffffffffffffffffffffffffffffffffffffff1681565b6133af6119e7565b6133ee576040517f08c379a00000000000000000000000000000000000000000000000000000000081526004016133e590614974565b60405180910390fd5b6133f7816139f1565b50565b6134026119e7565b613441576040517f08c379a000000000000000000000000000000000000000000000000000000000815260040161343890614974565b60405180910390fd5b60003373ffffffffffffffffffffffffffffffffffffffff163073ffffffffffffffffffffffffffffffffffffffff163160405161347e906146ba565b60006040518083038185875af1925050503d80600081146134bb576040519150601f19603f3d011682016040523d82523d6000602084013e6134c0565b606091505b5050905080613504576040517f08c379a00000000000000000000000000000000000000000000000000000000081526004016134fb906148f4565b60405180910390fd5b50565b6135a1838473ffffffffffffffffffffffffffffffffffffffff1663a9059cbb905060e01b848460405160240161353f929190614765565b604051602081830303815290604052907bffffffffffffffffffffffffffffffffffffffffffffffffffffffff19166020820180517bffffffffffffffffffffffffffffffffffffffffffffffffffffffff8381831617835250505050613b21565b505050565b613642848573ffffffffffffffffffffffffffffffffffffffff166323b872dd905060e01b8585856040516024016135e09392919061472e565b604051602081830303815290604052907bffffffffffffffffffffffffffffffffffffffffffffffffffffffff19166020820180517bffffffffffffffffffffffffffffffffffffffffffffffffffffffff8381831617835250505050613b21565b50505050565b600080828401905083811015613693576040517f08c379a000000000000000000000000000000000000000000000000000000000815260040161368a90614894565b60405180910390fd5b8091505092915050565b60008273ffffffffffffffffffffffffffffffffffffffff1663db006a75836040518263ffffffff1660e01b81526004016136d89190614a94565b602060405180830381600087803b1580156136f257600080fd5b505af1158015613706573d6000803e3d6000fd5b505050506040513d601f19601f8201168201806040525061372a9190810190613ea7565b1461376a576040517f08c379a000000000000000000000000000000000000000000000000000000000815260040161376190614814565b60405180910390fd5b5050565b60008083141561378157600090506137d8565b600082840290508284828161379257fe5b04146137d3576040517f08c379a00000000000000000000000000000000000000000000000000000000081526004016137ca90614954565b60405180910390fd5b809150505b92915050565b600061382083836040518060400160405280601a81526020017f536166654d6174683a206469766973696f6e206279207a65726f000000000000815250613c93565b905092915050565b600061386a83836040518060400160405280601e81526020017f536166654d6174683a207375627472616374696f6e206f766572666c6f770000815250613cf4565b905092915050565b600033905090565b6000811480613913575060008373ffffffffffffffffffffffffffffffffffffffff1663dd62ed3e30856040518363ffffffff1660e01b81526004016138c1929190614705565b60206040518083038186803b1580156138d957600080fd5b505afa1580156138ed573d6000803e3d6000fd5b505050506040513d601f19601f820116820180604052506139119190810190613ea7565b145b613952576040517f08c379a000000000000000000000000000000000000000000000000000000000815260040161394990614a54565b60405180910390fd5b6139ec838473ffffffffffffffffffffffffffffffffffffffff1663095ea7b3905060e01b848460405160240161398a929190614765565b604051602081830303815290604052907bffffffffffffffffffffffffffffffffffffffffffffffffffffffff19166020820180517bffffffffffffffffffffffffffffffffffffffffffffffffffffffff8381831617835250505050613b21565b505050565b600073ffffffffffffffffffffffffffffffffffffffff168173ffffffffffffffffffffffffffffffffffffffff161415613a61576040517f08c379a0000000000000000000000000000000000000000000000000000000008152600401613a5890614834565b60405180910390fd5b8073ffffffffffffffffffffffffffffffffffffffff16600160009054906101000a900473ffffffffffffffffffffffffffffffffffffffff1673ffffffffffffffffffffffffffffffffffffffff167f8be0079c531659141344cd1fd0a4f28419497f9722a3daafe3b4186f6b6457e060405160405180910390a380600160006101000a81548173ffffffffffffffffffffffffffffffffffffffff021916908373ffffffffffffffffffffffffffffffffffffffff16021790555050565b613b408273ffffffffffffffffffffffffffffffffffffffff16613d4f565b613b7f576040517f08c379a0000000000000000000000000000000000000000000000000000000008152600401613b7690614a74565b60405180910390fd5b600060608373ffffffffffffffffffffffffffffffffffffffff1683604051613ba891906146a3565b6000604051808303816000865af19150503d8060008114613be5576040519150601f19603f3d011682016040523d82523d6000602084013e613bea565b606091505b509150915081613c2f576040517f08c379a0000000000000000000000000000000000000000000000000000000008152600401613c26906148b4565b60405180910390fd5b600081511115613c8d5780806020019051613c4d9190810190613e2c565b613c8c576040517f08c379a0000000000000000000000000000000000000000000000000000000008152600401613c83906149d4565b60405180910390fd5b5b50505050565b60008083118290613cda576040517f08c379a0000000000000000000000000000000000000000000000000000000008152600401613cd191906147d2565b60405180910390fd5b506000838581613ce657fe5b049050809150509392505050565b6000838311158290613d3c576040517f08c379a0000000000000000000000000000000000000000000000000000000008152600401613d3391906147d2565b60405180910390fd5b5060008385039050809150509392505050565b60008060007fc5d2460186f7233c927e7db2dcc703c0e500b653ca82273b7bfad8045d85a47060001b9050833f91506000801b8214158015613d915750808214155b92505050919050565b600081359050613da981614cae565b92915050565b600081519050613dbe81614cc5565b92915050565b600081359050613dd381614cdc565b92915050565b600081359050613de881614cf3565b92915050565b600081519050613dfd81614cf3565b92915050565b600060208284031215613e1557600080fd5b6000613e2384828501613d9a565b91505092915050565b600060208284031215613e3e57600080fd5b6000613e4c84828501613daf565b91505092915050565b600060208284031215613e6757600080fd5b6000613e7584828501613dc4565b91505092915050565b600060208284031215613e9057600080fd5b6000613e9e84828501613dd9565b91505092915050565b600060208284031215613eb957600080fd5b6000613ec784828501613dee565b91505092915050565b6000613edc8383614685565b60208301905092915050565b613ef181614c22565b82525050565b613f0081614bc8565b82525050565b613f0f81614b2d565b613f198184614b8b565b9250613f2482614b0f565b8060005b83811015613f55578151613f3c8782613ed0565b9650613f4783614b64565b925050600181019050613f28565b505050505050565b613f6681614b38565b613f708184614b96565b9250613f7b82614b19565b8060005b83811015613fac578151613f938782613ed0565b9650613f9e83614b71565b925050600181019050613f7f565b505050505050565b613fbd81614b43565b613fc78184614ba1565b9250613fd282614b23565b8060005b83811015614003578151613fea8782613ed0565b9650613ff583614b7e565b925050600181019050613fd6565b505050505050565b61401481614bda565b82525050565b600061402582614b4e565b61402f8185614bac565b935061403f818560208601614c6a565b80840191505092915050565b61405481614c34565b82525050565b600061406582614b59565b61406f8185614bb7565b935061407f818560208601614c6a565b61408881614c9d565b840191505092915050565b60006140a0600d83614bb7565b91507f6461692072656d61696e646572000000000000000000000000000000000000006000830152602082019050919050565b60006140e0601983614bb7565b91507f434f4d504f554e443a207769746864726177206661696c6564000000000000006000830152602082019050919050565b6000614120602683614bb7565b91507f4f776e61626c653a206e6577206f776e657220697320746865207a65726f206160008301527f64647265737300000000000000000000000000000000000000000000000000006020830152604082019050919050565b6000614186600f83614bb7565b91507f79555344432072656d61696e64657200000000000000000000000000000000006000830152602082019050919050565b60006141c6600e83614bb7565b91507f794441492072656d61696e6465720000000000000000000000000000000000006000830152602082019050919050565b6000614206601b83614bb7565b91507f536166654d6174683a206164646974696f6e206f766572666c6f7700000000006000830152602082019050919050565b6000614246602083614bb7565b91507f5361666545524332303a206c6f772d6c6576656c2063616c6c206661696c65646000830152602082019050919050565b6000614286600e83614bb7565b91507f757364632072656d61696e6465720000000000000000000000000000000000006000830152602082019050919050565b60006142c6601683614bb7565b91507f7472616e73666572206f6620455448206661696c6564000000000000000000006000830152602082019050919050565b6000614306600f83614bb7565b91507f43555256452072656d61696e64657200000000000000000000000000000000006000830152602082019050919050565b6000614346601383614bb7565b91507f6e6f20756e6465726c79696e6720666f756e64000000000000000000000000006000830152602082019050919050565b6000614386602183614bb7565b91507f536166654d6174683a206d756c7469706c69636174696f6e206f766572666c6f60008301527f77000000000000000000000000000000000000000000000000000000000000006020830152604082019050919050565b60006143ec602083614bb7565b91507f4f776e61626c653a2063616c6c6572206973206e6f7420746865206f776e65726000830152602082019050919050565b600061442c600083614bac565b9150600082019050919050565b6000614446601183614bb7565b91507f435552564576332072656d61696e6465720000000000000000000000000000006000830152602082019050919050565b6000614486601883614bb7565b91507f736c6970706167652067726561746572207468616e20352500000000000000006000830152602082019050919050565b60006144c6602a83614bb7565b91507f5361666545524332303a204552433230206f7065726174696f6e20646964206e60008301527f6f742073756363656564000000000000000000000000000000000000000000006020830152604082019050919050565b600061452c600f83614bb7565b91507f79555344542072656d61696e64657200000000000000000000000000000000006000830152602082019050919050565b600061456c601f83614bb7565b91507f5265656e7472616e637947756172643a207265656e7472616e742063616c6c006000830152602082019050919050565b60006145ac601e83614bb7565b91507f63757276657631206d7573742062652067726561746572207468616e203000006000830152602082019050919050565b60006145ec603683614bb7565b91507f5361666545524332303a20617070726f76652066726f6d206e6f6e2d7a65726f60008301527f20746f206e6f6e2d7a65726f20616c6c6f77616e6365000000000000000000006020830152604082019050919050565b6000614652601f83614bb7565b91507f5361666545524332303a2063616c6c20746f206e6f6e2d636f6e7472616374006000830152602082019050919050565b61468e81614c18565b82525050565b61469d81614c18565b82525050565b60006146af828461401a565b915081905092915050565b60006146c58261441f565b9150819050919050565b60006020820190506146e46000830184613ef7565b92915050565b60006020820190506146ff6000830184613ee8565b92915050565b600060408201905061471a6000830185613ef7565b6147276020830184613ef7565b9392505050565b60006060820190506147436000830186613ef7565b6147506020830185613ef7565b61475d6040830184614694565b949350505050565b600060408201905061477a6000830185613ef7565b6147876020830184614694565b9392505050565b600060a0820190506147a36000830185613fb4565b6147b0608083018461404b565b9392505050565b60006020820190506147cc600083018461400b565b92915050565b600060208201905081810360008301526147ec818461405a565b905092915050565b6000602082019050818103600083015261480d81614093565b9050919050565b6000602082019050818103600083015261482d816140d3565b9050919050565b6000602082019050818103600083015261484d81614113565b9050919050565b6000602082019050818103600083015261486d81614179565b9050919050565b6000602082019050818103600083015261488d816141b9565b9050919050565b600060208201905081810360008301526148ad816141f9565b9050919050565b600060208201905081810360008301526148cd81614239565b9050919050565b600060208201905081810360008301526148ed81614279565b9050919050565b6000602082019050818103600083015261490d816142b9565b9050919050565b6000602082019050818103600083015261492d816142f9565b9050919050565b6000602082019050818103600083015261494d81614339565b9050919050565b6000602082019050818103600083015261496d81614379565b9050919050565b6000602082019050818103600083015261498d816143df565b9050919050565b600060208201905081810360008301526149ad81614439565b9050919050565b600060208201905081810360008301526149cd81614479565b9050919050565b600060208201905081810360008301526149ed816144b9565b9050919050565b60006020820190508181036000830152614a0d8161451f565b9050919050565b60006020820190508181036000830152614a2d8161455f565b9050919050565b60006020820190508181036000830152614a4d8161459f565b9050919050565b60006020820190508181036000830152614a6d816145df565b9050919050565b60006020820190508181036000830152614a8d81614645565b9050919050565b6000602082019050614aa96000830184614694565b92915050565b6000608082019050614ac46000830185614694565b614ad16020830184613f5d565b9392505050565b6000608082019050614aed6000830186614694565b614afa6020830185614694565b614b076040830184613f06565b949350505050565b6000819050919050565b6000819050919050565b6000819050919050565b600060029050919050565b600060039050919050565b600060049050919050565b600081519050919050565b600081519050919050565b6000602082019050919050565b6000602082019050919050565b6000602082019050919050565b600081905092915050565b600081905092915050565b600081905092915050565b600081905092915050565b600082825260208201905092915050565b6000614bd382614bf8565b9050919050565b60008115159050919050565b6000614bf182614bc8565b9050919050565b600073ffffffffffffffffffffffffffffffffffffffff82169050919050565b6000819050919050565b6000614c2d82614c46565b9050919050565b6000614c3f82614c18565b9050919050565b6000614c5182614c58565b9050919050565b6000614c6382614bf8565b9050919050565b60005b83811015614c88578082015181840152602081019050614c6d565b83811115614c97576000848401525b50505050565b6000601f19601f8301169050919050565b614cb781614bc8565b8114614cc257600080fd5b50565b614cce81614bda565b8114614cd957600080fd5b50565b614ce581614be6565b8114614cf057600080fd5b50565b614cfc81614c18565b8114614d0757600080fd5b5056fea365627a7a72315820339a42116ac02e9e6c0a4779cddd17caabd45dfc46b46bd730d148a1bb5237776c6578706572696d656e74616cf564736f6c634300050c0040",
  "source": "pragma solidity ^0.5.0;\npragma experimental ABIEncoderV2;\n\ninterface IERC20 {\n    function totalSupply() external view returns (uint256);\n    function balanceOf(address account) external view returns (uint256);\n    function transfer(address recipient, uint256 amount) external returns (bool);\n    function allowance(address owner, address spender) external view returns (uint256);\n    function approve(address spender, uint256 amount) external returns (bool);\n    function transferFrom(address sender, address recipient, uint256 amount) external returns (bool);\n    event Transfer(address indexed from, address indexed to, uint256 value);\n    event Approval(address indexed owner, address indexed spender, uint256 value);\n}\n\ncontract Context {\n    constructor () internal { }\n    // solhint-disable-previous-line no-empty-blocks\n\n    function _msgSender() internal view returns (address payable) {\n        return msg.sender;\n    }\n\n    function _msgData() internal view returns (bytes memory) {\n        this; // silence state mutability warning without generating bytecode - see https://github.com/ethereum/solidity/issues/2691\n        return msg.data;\n    }\n}\n\ncontract ReentrancyGuard {\n    uint256 private _guardCounter;\n\n    constructor () internal {\n        _guardCounter = 1;\n    }\n\n    modifier nonReentrant() {\n        _guardCounter += 1;\n        uint256 localCounter = _guardCounter;\n        _;\n        require(localCounter == _guardCounter, \"ReentrancyGuard: reentrant call\");\n    }\n}\n\ncontract Ownable is Context {\n    address private _owner;\n\n    event OwnershipTransferred(address indexed previousOwner, address indexed newOwner);\n    constructor () internal {\n        _owner = _msgSender();\n        emit OwnershipTransferred(address(0), _owner);\n    }\n    function owner() public view returns (address) {\n        return _owner;\n    }\n    modifier onlyOwner() {\n        require(isOwner(), \"Ownable: caller is not the owner\");\n        _;\n    }\n    function isOwner() public view returns (bool) {\n        return _msgSender() == _owner;\n    }\n    function renounceOwnership() public onlyOwner {\n        emit OwnershipTransferred(_owner, address(0));\n        _owner = address(0);\n    }\n    function transferOwnership(address newOwner) public onlyOwner {\n        _transferOwnership(newOwner);\n    }\n    function _transferOwnership(address newOwner) internal {\n        require(newOwner != address(0), \"Ownable: new owner is the zero address\");\n        emit OwnershipTransferred(_owner, newOwner);\n        _owner = newOwner;\n    }\n}\n\nlibrary SafeMath {\n    function add(uint256 a, uint256 b) internal pure returns (uint256) {\n        uint256 c = a + b;\n        require(c >= a, \"SafeMath: addition overflow\");\n\n        return c;\n    }\n    function sub(uint256 a, uint256 b) internal pure returns (uint256) {\n        return sub(a, b, \"SafeMath: subtraction overflow\");\n    }\n    function sub(uint256 a, uint256 b, string memory errorMessage) internal pure returns (uint256) {\n        require(b <= a, errorMessage);\n        uint256 c = a - b;\n\n        return c;\n    }\n    function mul(uint256 a, uint256 b) internal pure returns (uint256) {\n        if (a == 0) {\n            return 0;\n        }\n\n        uint256 c = a * b;\n        require(c / a == b, \"SafeMath: multiplication overflow\");\n\n        return c;\n    }\n    function div(uint256 a, uint256 b) internal pure returns (uint256) {\n        return div(a, b, \"SafeMath: division by zero\");\n    }\n    function div(uint256 a, uint256 b, string memory errorMessage) internal pure returns (uint256) {\n        // Solidity only automatically asserts when dividing by 0\n        require(b > 0, errorMessage);\n        uint256 c = a / b;\n\n        return c;\n    }\n    function mod(uint256 a, uint256 b) internal pure returns (uint256) {\n        return mod(a, b, \"SafeMath: modulo by zero\");\n    }\n    function mod(uint256 a, uint256 b, string memory errorMessage) internal pure returns (uint256) {\n        require(b != 0, errorMessage);\n        return a % b;\n    }\n}\n\nlibrary Address {\n    function isContract(address account) internal view returns (bool) {\n        bytes32 codehash;\n        bytes32 accountHash = 0xc5d2460186f7233c927e7db2dcc703c0e500b653ca82273b7bfad8045d85a470;\n        // solhint-disable-next-line no-inline-assembly\n        assembly { codehash := extcodehash(account) }\n        return (codehash != 0x0 && codehash != accountHash);\n    }\n    function toPayable(address account) internal pure returns (address payable) {\n        return address(uint160(account));\n    }\n    function sendValue(address payable recipient, uint256 amount) internal {\n        require(address(this).balance >= amount, \"Address: insufficient balance\");\n\n        // solhint-disable-next-line avoid-call-value\n        (bool success, ) = recipient.call.value(amount)(\"\");\n        require(success, \"Address: unable to send value, recipient may have reverted\");\n    }\n}\n\nlibrary SafeERC20 {\n    using SafeMath for uint256;\n    using Address for address;\n\n    function safeTransfer(IERC20 token, address to, uint256 value) internal {\n        callOptionalReturn(token, abi.encodeWithSelector(token.transfer.selector, to, value));\n    }\n    function safeTransferFrom(IERC20 token, address from, address to, uint256 value) internal {\n        callOptionalReturn(token, abi.encodeWithSelector(token.transferFrom.selector, from, to, value));\n    }\n    function safeApprove(IERC20 token, address spender, uint256 value) internal {\n        require((value == 0) || (token.allowance(address(this), spender) == 0),\n            \"SafeERC20: approve from non-zero to non-zero allowance\"\n        );\n        callOptionalReturn(token, abi.encodeWithSelector(token.approve.selector, spender, value));\n    }\n    function callOptionalReturn(IERC20 token, bytes memory data) private {\n        require(address(token).isContract(), \"SafeERC20: call to non-contract\");\n\n        // solhint-disable-next-line avoid-low-level-calls\n        (bool success, bytes memory returndata) = address(token).call(data);\n        require(success, \"SafeERC20: low-level call failed\");\n\n        if (returndata.length > 0) { // Return data is optional\n            // solhint-disable-next-line max-line-length\n            require(abi.decode(returndata, (bool)), \"SafeERC20: ERC20 operation did not succeed\");\n        }\n    }\n}\n\ninterface yERC20 {\n  function deposit(uint256 _amount) external;\n}\n\n// Solidity Interface\n\ninterface ICurveFiv1 {\n  function remove_liquidity(\n    uint256 _amount,\n    uint256 deadline,\n    uint256[2] calldata min_amounts\n  ) external;\n}\n\ninterface ICurveFiv2 {\n  function remove_liquidity(\n    uint256 _amount,\n    uint256[3] calldata min_amounts\n  ) external;\n}\n\ninterface Compound {\n    function mint ( uint256 mintAmount ) external returns ( uint256 );\n    function redeem(uint256 redeemTokens) external returns (uint256);\n    function exchangeRateStored() external view returns (uint);\n}\n\n\ninterface ICurveFiv3 {\n  function add_liquidity(\n    uint256[4] calldata amounts,\n    uint256 min_mint_amount\n  ) external;\n}\n\ncontract yCurveZapSwap is ReentrancyGuard, Ownable {\n  using SafeERC20 for IERC20;\n  using Address for address;\n  using SafeMath for uint256;\n\n  address public DAI;\n  address public cDAI;\n  address public yDAI;\n  address public USDC;\n  address public cUSDC;\n  address public yUSDC;\n  address public USDT;\n  address public yUSDT;\n  address public SWAPv1;\n  address public CURVEv1;\n  address public SWAPv2;\n  address public CURVEv2;\n  address public SWAPv3;\n  address public CURVEv3;\n\n  constructor () public {\n    DAI = address(0x6B175474E89094C44Da98b954EedeAC495271d0F);\n    yDAI = address(0x16de59092dAE5CcF4A1E6439D611fd0653f0Bd01);\n    cDAI = address(0x5d3a536E4D6DbD6114cc1Ead35777bAB948E3643);\n\n    USDC = address(0xA0b86991c6218b36c1d19D4a2e9Eb0cE3606eB48);\n    yUSDC = address(0xd6aD7a6750A7593E092a9B218d66C0A814a3436e);\n    cUSDC = address(0x39AA39c021dfbaE8faC545936693aC917d5E7563);\n\n    USDT = address(0xdAC17F958D2ee523a2206206994597C13D831ec7);\n    yUSDT = address(0x83f798e925BcD4017Eb265844FDDAbb448f1707D);\n\n    SWAPv1 = address(0x2e60CF74d81ac34eB21eEff58Db4D385920ef419);\n    CURVEv1 = address(0x3740fb63ab7a09891d7c0d4299442A551D06F5fD);\n\n    SWAPv2 = address(0x52EA46506B9CC5Ef470C5bf89f17Dc28bB35D85C);\n    CURVEv2 = address(0x9fC689CCaDa600B6DF723D9E47D84d76664a1F23);\n\n    SWAPv3 = address(0x45F783CCE6B7FF23B2ab2D70e416cdb7D6055f51);\n    CURVEv3 = address(0xdF5e0e81Dff6FAF3A7e52BA697820c5e32D806A8);\n\n    approveToken();\n  }\n\n  function() external payable {\n\n  }\n\n  function withdrawCompound(address token, uint amount) internal {\n      require(Compound(token).redeem(amount) == 0, \"COMPOUND: withdraw failed\");\n  }\n\n  function approveToken() public {\n      IERC20(DAI).safeApprove(yDAI, uint(-1));\n      IERC20(yDAI).safeApprove(SWAPv3, uint(-1));\n\n      IERC20(USDC).safeApprove(yUSDC, uint(-1));\n      IERC20(yUSDC).safeApprove(SWAPv3, uint(-1));\n\n      IERC20(USDT).safeApprove(yUSDT, uint(-1));\n      IERC20(yUSDT).safeApprove(SWAPv3, uint(-1));\n\n  }\n\n  function swapv1tov3(uint256 _amount)\n      external\n      nonReentrant\n  {\n      require(_amount > 0, \"curvev1 must be greater than 0\");\n      IERC20(CURVEv1).safeTransferFrom(msg.sender, address(this), _amount);\n      ICurveFiv1(SWAPv1).remove_liquidity(_amount, now.add(1800), [uint256(0),0]);\n      require(IERC20(CURVEv1).balanceOf(address(this)) == 0, \"CURVE remainder\");\n\n      if (IERC20(cDAI).balanceOf(address(this)) > 0) {\n        withdrawCompound(cDAI, IERC20(cDAI).balanceOf(address(this)));\n      }\n      if (IERC20(cUSDC).balanceOf(address(this)) > 0) {\n        withdrawCompound(cUSDC, IERC20(cUSDC).balanceOf(address(this)));\n      }\n\n      uint256 _dai = IERC20(DAI).balanceOf(address(this));\n      uint256 _usdc = IERC20(USDC).balanceOf(address(this));\n\n      require(_dai > 0 || _usdc > 0, \"no underlying found\");\n\n      if (_dai > 0) {\n        yERC20(yDAI).deposit(_dai);\n        require(IERC20(DAI).balanceOf(address(this)) == 0, \"dai remainder\");\n      }\n\n      if (_usdc > 0) {\n        yERC20(yUSDC).deposit(_usdc);\n        require(IERC20(USDC).balanceOf(address(this)) == 0, \"usdc remainder\");\n      }\n\n      ICurveFiv3(SWAPv3).add_liquidity([\n        IERC20(yDAI).balanceOf(address(this)),\n        IERC20(yUSDC).balanceOf(address(this)),0,0],0);\n\n      require(IERC20(yDAI).balanceOf(address(this)) == 0, \"yDAI remainder\");\n      require(IERC20(yUSDC).balanceOf(address(this)) == 0, \"yUSDC remainder\");\n\n      uint256 received = IERC20(CURVEv3).balanceOf(address(this));\n      uint256 fivePercent = _amount.mul(5).div(100);\n      uint256 min = _amount.sub(fivePercent);\n      uint256 max = _amount.add(fivePercent);\n      require(received <= max && received >= min, \"slippage greater than 5%\");\n\n      IERC20(CURVEv3).safeTransfer(msg.sender, IERC20(CURVEv3).balanceOf(address(this)));\n      require(IERC20(CURVEv3).balanceOf(address(this)) == 0, \"CURVEv3 remainder\");\n  }\n\n  function swapv2tov3(uint256 _amount)\n      external\n      nonReentrant\n  {\n      require(_amount > 0, \"curvev1 must be greater than 0\");\n      IERC20(CURVEv2).safeTransferFrom(msg.sender, address(this), _amount);\n      ICurveFiv2(SWAPv2).remove_liquidity(_amount, [uint256(0),0,0]);\n      require(IERC20(CURVEv2).balanceOf(address(this)) == 0, \"CURVE remainder\");\n\n      if (IERC20(cDAI).balanceOf(address(this)) > 0) {\n        withdrawCompound(cDAI, IERC20(cDAI).balanceOf(address(this)));\n      }\n      if (IERC20(cUSDC).balanceOf(address(this)) > 0) {\n        withdrawCompound(cUSDC, IERC20(cUSDC).balanceOf(address(this)));\n      }\n\n      uint256 _dai = IERC20(DAI).balanceOf(address(this));\n      uint256 _usdc = IERC20(USDC).balanceOf(address(this));\n      uint256 _usdt = IERC20(USDT).balanceOf(address(this));\n\n      require(_dai > 0 || _usdc > 0 || _usdt > 0, \"no underlying found\");\n\n      if (_dai > 0) {\n        yERC20(yDAI).deposit(_dai);\n        require(IERC20(DAI).balanceOf(address(this)) == 0, \"dai remainder\");\n      }\n\n      if (_usdc > 0) {\n        yERC20(yUSDC).deposit(_usdc);\n        require(IERC20(USDC).balanceOf(address(this)) == 0, \"usdc remainder\");\n      }\n\n      if (_usdt > 0) {\n        yERC20(yUSDT).deposit(_usdt);\n        require(IERC20(USDT).balanceOf(address(this)) == 0, \"usdc remainder\");\n      }\n\n      ICurveFiv3(SWAPv3).add_liquidity([\n        IERC20(yDAI).balanceOf(address(this)),\n        IERC20(yUSDC).balanceOf(address(this)),\n        IERC20(yUSDT).balanceOf(address(this)),0],0);\n\n      require(IERC20(yDAI).balanceOf(address(this)) == 0, \"yDAI remainder\");\n      require(IERC20(yUSDC).balanceOf(address(this)) == 0, \"yUSDC remainder\");\n      require(IERC20(yUSDT).balanceOf(address(this)) == 0, \"yUSDT remainder\");\n\n      uint256 received = IERC20(CURVEv3).balanceOf(address(this));\n      uint256 fivePercent = _amount.mul(5).div(100);\n      uint256 min = _amount.sub(fivePercent);\n      uint256 max = _amount.add(fivePercent);\n      require(received <= max && received >= min, \"slippage greater than 5%\");\n\n      IERC20(CURVEv3).safeTransfer(msg.sender, IERC20(CURVEv3).balanceOf(address(this)));\n      require(IERC20(CURVEv3).balanceOf(address(this)) == 0, \"CURVEv3 remainder\");\n  }\n\n  // incase of half-way error\n  function inCaseTokenGetsStuck(IERC20 _TokenAddress) onlyOwner public {\n      uint qty = _TokenAddress.balanceOf(address(this));\n      _TokenAddress.safeTransfer(msg.sender, qty);\n  }\n\n  // incase of half-way error\n  function inCaseETHGetsStuck() onlyOwner public{\n      (bool result, ) = msg.sender.call.value(address(this).balance)(\"\");\n      require(result, \"transfer of ETH failed\");\n  }\n}\n",
  "sourcePath": "D:/ftm/itoken/contracts/yCurveZapSwap.sol",
  "compiler": {
    "name": "solc",
    "version": "0.5.12+commit.7709ece9.Emscripten.clang"
  },
  "schemaVersion": "3.0.19",
  "updatedAt": "2020-03-02T11:52:56.274Z",
  "devdoc": {
    "methods": {}
  },
  "userdoc": {
    "methods": {}
  }
}