{
  "contractName": "yCurveZapOutV4",
  "abi": [
    {
      "inputs": [],
      "payable": false,
      "stateMutability": "nonpayable",
      "type": "constructor"
    },
    {
      "anonymous": false,
      "inputs": [
        {
          "indexed": true,
          "internalType": "address",
          "name": "previousOwner",
          "type": "address"
        },
        {
          "indexed": true,
          "internalType": "address",
          "name": "newOwner",
          "type": "address"
        }
      ],
      "name": "OwnershipTransferred",
      "type": "event"
    },
    {
      "payable": true,
      "stateMutability": "payable",
      "type": "fallback"
    },
    {
      "constant": true,
      "inputs": [],
      "name": "BUSD",
      "outputs": [
        {
          "internalType": "address",
          "name": "",
          "type": "address"
        }
      ],
      "payable": false,
      "stateMutability": "view",
      "type": "function"
    },
    {
      "constant": true,
      "inputs": [],
      "name": "CURVE",
      "outputs": [
        {
          "internalType": "address",
          "name": "",
          "type": "address"
        }
      ],
      "payable": false,
      "stateMutability": "view",
      "type": "function"
    },
    {
      "constant": true,
      "inputs": [],
      "name": "DAI",
      "outputs": [
        {
          "internalType": "address",
          "name": "",
          "type": "address"
        }
      ],
      "payable": false,
      "stateMutability": "view",
      "type": "function"
    },
    {
      "constant": true,
      "inputs": [],
      "name": "SWAP",
      "outputs": [
        {
          "internalType": "address",
          "name": "",
          "type": "address"
        }
      ],
      "payable": false,
      "stateMutability": "view",
      "type": "function"
    },
    {
      "constant": true,
      "inputs": [],
      "name": "USDC",
      "outputs": [
        {
          "internalType": "address",
          "name": "",
          "type": "address"
        }
      ],
      "payable": false,
      "stateMutability": "view",
      "type": "function"
    },
    {
      "constant": true,
      "inputs": [],
      "name": "USDT",
      "outputs": [
        {
          "internalType": "address",
          "name": "",
          "type": "address"
        }
      ],
      "payable": false,
      "stateMutability": "view",
      "type": "function"
    },
    {
      "constant": true,
      "inputs": [],
      "name": "isOwner",
      "outputs": [
        {
          "internalType": "bool",
          "name": "",
          "type": "bool"
        }
      ],
      "payable": false,
      "stateMutability": "view",
      "type": "function"
    },
    {
      "constant": true,
      "inputs": [],
      "name": "owner",
      "outputs": [
        {
          "internalType": "address",
          "name": "",
          "type": "address"
        }
      ],
      "payable": false,
      "stateMutability": "view",
      "type": "function"
    },
    {
      "constant": false,
      "inputs": [],
      "name": "renounceOwnership",
      "outputs": [],
      "payable": false,
      "stateMutability": "nonpayable",
      "type": "function"
    },
    {
      "constant": false,
      "inputs": [
        {
          "internalType": "address",
          "name": "newOwner",
          "type": "address"
        }
      ],
      "name": "transferOwnership",
      "outputs": [],
      "payable": false,
      "stateMutability": "nonpayable",
      "type": "function"
    },
    {
      "constant": true,
      "inputs": [],
      "name": "yBUSD",
      "outputs": [
        {
          "internalType": "address",
          "name": "",
          "type": "address"
        }
      ],
      "payable": false,
      "stateMutability": "view",
      "type": "function"
    },
    {
      "constant": true,
      "inputs": [],
      "name": "yDAI",
      "outputs": [
        {
          "internalType": "address",
          "name": "",
          "type": "address"
        }
      ],
      "payable": false,
      "stateMutability": "view",
      "type": "function"
    },
    {
      "constant": true,
      "inputs": [],
      "name": "yUSDC",
      "outputs": [
        {
          "internalType": "address",
          "name": "",
          "type": "address"
        }
      ],
      "payable": false,
      "stateMutability": "view",
      "type": "function"
    },
    {
      "constant": true,
      "inputs": [],
      "name": "yUSDT",
      "outputs": [
        {
          "internalType": "address",
          "name": "",
          "type": "address"
        }
      ],
      "payable": false,
      "stateMutability": "view",
      "type": "function"
    },
    {
      "constant": false,
      "inputs": [],
      "name": "approveToken",
      "outputs": [],
      "payable": false,
      "stateMutability": "nonpayable",
      "type": "function"
    },
    {
      "constant": false,
      "inputs": [
        {
          "internalType": "uint256",
          "name": "_amount",
          "type": "uint256"
        }
      ],
      "name": "withdrawDAI",
      "outputs": [],
      "payable": false,
      "stateMutability": "nonpayable",
      "type": "function"
    },
    {
      "constant": false,
      "inputs": [
        {
          "internalType": "uint256",
          "name": "_amount",
          "type": "uint256"
        }
      ],
      "name": "withdrawUSDC",
      "outputs": [],
      "payable": false,
      "stateMutability": "nonpayable",
      "type": "function"
    },
    {
      "constant": false,
      "inputs": [
        {
          "internalType": "uint256",
          "name": "_amount",
          "type": "uint256"
        }
      ],
      "name": "withdrawUSDT",
      "outputs": [],
      "payable": false,
      "stateMutability": "nonpayable",
      "type": "function"
    },
    {
      "constant": false,
      "inputs": [
        {
          "internalType": "uint256",
          "name": "_amount",
          "type": "uint256"
        }
      ],
      "name": "withdrawBUSD",
      "outputs": [],
      "payable": false,
      "stateMutability": "nonpayable",
      "type": "function"
    },
    {
      "constant": false,
      "inputs": [
        {
          "internalType": "contract IERC20",
          "name": "_TokenAddress",
          "type": "address"
        }
      ],
      "name": "inCaseTokenGetsStuck",
      "outputs": [],
      "payable": false,
      "stateMutability": "nonpayable",
      "type": "function"
    },
    {
      "constant": false,
      "inputs": [],
      "name": "inCaseETHGetsStuck",
      "outputs": [],
      "payable": false,
      "stateMutability": "nonpayable",
      "type": "function"
    }
  ],
  "bytecode": "0x60806040523480156200001157600080fd5b5060016000819055506200002a6200044f60201b60201c565b600160006101000a81548173ffffffffffffffffffffffffffffffffffffffff021916908373ffffffffffffffffffffffffffffffffffffffff160217905550600160009054906101000a900473ffffffffffffffffffffffffffffffffffffffff1673ffffffffffffffffffffffffffffffffffffffff16600073ffffffffffffffffffffffffffffffffffffffff167f8be0079c531659141344cd1fd0a4f28419497f9722a3daafe3b4186f6b6457e060405160405180910390a3736b175474e89094c44da98b954eedeac495271d0f600260006101000a81548173ffffffffffffffffffffffffffffffffffffffff021916908373ffffffffffffffffffffffffffffffffffffffff16021790555073c2cb1040220768554cf699b0d863a3cd4324ce32600360006101000a81548173ffffffffffffffffffffffffffffffffffffffff021916908373ffffffffffffffffffffffffffffffffffffffff16021790555073a0b86991c6218b36c1d19d4a2e9eb0ce3606eb48600460006101000a81548173ffffffffffffffffffffffffffffffffffffffff021916908373ffffffffffffffffffffffffffffffffffffffff16021790555073f7c9c5b31f12701dd2dd65aadf6116ee6ab81bb4600560006101000a81548173ffffffffffffffffffffffffffffffffffffffff021916908373ffffffffffffffffffffffffffffffffffffffff16021790555073dac17f958d2ee523a2206206994597c13d831ec7600660006101000a81548173ffffffffffffffffffffffffffffffffffffffff021916908373ffffffffffffffffffffffffffffffffffffffff16021790555073e6354ed5bc4b393a5aad09f21c46e101e692d447600760006101000a81548173ffffffffffffffffffffffffffffffffffffffff021916908373ffffffffffffffffffffffffffffffffffffffff160217905550734fabb145d64652a948d72533023f6e7a623c7c53600860006101000a81548173ffffffffffffffffffffffffffffffffffffffff021916908373ffffffffffffffffffffffffffffffffffffffff1602179055507304bc0ab673d88ae9dbc9da2380cb6b79c4bca9ae600960006101000a81548173ffffffffffffffffffffffffffffffffffffffff021916908373ffffffffffffffffffffffffffffffffffffffff16021790555073dc31f5c17254a89d53a1248195f239618c96838e600a60006101000a81548173ffffffffffffffffffffffffffffffffffffffff021916908373ffffffffffffffffffffffffffffffffffffffff16021790555073b241a8c2fa87de870c7cbb29bebe70ec1ee7188f600b60006101000a81548173ffffffffffffffffffffffffffffffffffffffff021916908373ffffffffffffffffffffffffffffffffffffffff160217905550620004496200045760201b60201c565b62000e20565b600033905090565b620004ed600a60009054906101000a900473ffffffffffffffffffffffffffffffffffffffff167fffffffffffffffffffffffffffffffffffffffffffffffffffffffffffffffff600360009054906101000a900473ffffffffffffffffffffffffffffffffffffffff1673ffffffffffffffffffffffffffffffffffffffff16620006b160201b62004996179092919060201c565b62000583600a60009054906101000a900473ffffffffffffffffffffffffffffffffffffffff167fffffffffffffffffffffffffffffffffffffffffffffffffffffffffffffffff600560009054906101000a900473ffffffffffffffffffffffffffffffffffffffff1673ffffffffffffffffffffffffffffffffffffffff16620006b160201b62004996179092919060201c565b62000619600a60009054906101000a900473ffffffffffffffffffffffffffffffffffffffff167fffffffffffffffffffffffffffffffffffffffffffffffffffffffffffffffff600760009054906101000a900473ffffffffffffffffffffffffffffffffffffffff1673ffffffffffffffffffffffffffffffffffffffff16620006b160201b62004996179092919060201c565b620006af600a60009054906101000a900473ffffffffffffffffffffffffffffffffffffffff167fffffffffffffffffffffffffffffffffffffffffffffffffffffffffffffffff600960009054906101000a900473ffffffffffffffffffffffffffffffffffffffff1673ffffffffffffffffffffffffffffffffffffffff16620006b160201b62004996179092919060201c565b565b600081148062000751575060008373ffffffffffffffffffffffffffffffffffffffff1663dd62ed3e30856040518363ffffffff1660e01b8152600401620006fb92919062000c63565b60206040518083038186803b1580156200071457600080fd5b505afa15801562000729573d6000803e3d6000fd5b505050506040513d601f19601f820116820180604052506200074f919081019062000a71565b145b62000793576040517f08c379a00000000000000000000000000000000000000000000000000000000081526004016200078a9062000d01565b60405180910390fd5b62000837838473ffffffffffffffffffffffffffffffffffffffff1663095ea7b3905060e01b8484604051602401620007ce92919062000c90565b604051602081830303815290604052907bffffffffffffffffffffffffffffffffffffffffffffffffffffffff19166020820180517bffffffffffffffffffffffffffffffffffffffffffffffffffffffff83818316178352505050506200083c60201b60201c565b505050565b620008688273ffffffffffffffffffffffffffffffffffffffff16620009cb60201b62004daf1760201c565b620008aa576040517f08c379a0000000000000000000000000000000000000000000000000000000008152600401620008a19062000d23565b60405180910390fd5b600060608373ffffffffffffffffffffffffffffffffffffffff1683604051620008d5919062000c4a565b6000604051808303816000865af19150503d806000811462000914576040519150601f19603f3d011682016040523d82523d6000602084013e62000919565b606091505b50915091508162000961576040517f08c379a0000000000000000000000000000000000000000000000000000000008152600401620009589062000cbd565b60405180910390fd5b600081511115620009c5578080602001905162000982919081019062000a45565b620009c4576040517f08c379a0000000000000000000000000000000000000000000000000000000008152600401620009bb9062000cdf565b60405180910390fd5b5b50505050565b60008060007fc5d2460186f7233c927e7db2dcc703c0e500b653ca82273b7bfad8045d85a47060001b9050833f91506000801b821415801562000a0e5750808214155b92505050919050565b60008151905062000a288162000dec565b92915050565b60008151905062000a3f8162000e06565b92915050565b60006020828403121562000a5857600080fd5b600062000a688482850162000a17565b91505092915050565b60006020828403121562000a8457600080fd5b600062000a948482850162000a2e565b91505092915050565b62000aa88162000d6c565b82525050565b600062000abb8262000d45565b62000ac7818562000d50565b935062000ad981856020860162000db6565b80840191505092915050565b600062000af460208362000d5b565b91507f5361666545524332303a206c6f772d6c6576656c2063616c6c206661696c65646000830152602082019050919050565b600062000b36602a8362000d5b565b91507f5361666545524332303a204552433230206f7065726174696f6e20646964206e60008301527f6f742073756363656564000000000000000000000000000000000000000000006020830152604082019050919050565b600062000b9e60368362000d5b565b91507f5361666545524332303a20617070726f76652066726f6d206e6f6e2d7a65726f60008301527f20746f206e6f6e2d7a65726f20616c6c6f77616e6365000000000000000000006020830152604082019050919050565b600062000c06601f8362000d5b565b91507f5361666545524332303a2063616c6c20746f206e6f6e2d636f6e7472616374006000830152602082019050919050565b62000c448162000dac565b82525050565b600062000c58828462000aae565b915081905092915050565b600060408201905062000c7a600083018562000a9d565b62000c89602083018462000a9d565b9392505050565b600060408201905062000ca7600083018562000a9d565b62000cb6602083018462000c39565b9392505050565b6000602082019050818103600083015262000cd88162000ae5565b9050919050565b6000602082019050818103600083015262000cfa8162000b27565b9050919050565b6000602082019050818103600083015262000d1c8162000b8f565b9050919050565b6000602082019050818103600083015262000d3e8162000bf7565b9050919050565b600081519050919050565b600081905092915050565b600082825260208201905092915050565b600062000d798262000d8c565b9050919050565b60008115159050919050565b600073ffffffffffffffffffffffffffffffffffffffff82169050919050565b6000819050919050565b60005b8381101562000dd657808201518184015260208101905062000db9565b8381111562000de6576000848401525b50505050565b62000df78162000d80565b811462000e0357600080fd5b50565b62000e118162000dac565b811462000e1d57600080fd5b50565b615eb58062000e306000396000f3fe60806040526004361061012a5760003560e01c806389a30271116100ab578063c54e44eb1161006f578063c54e44eb14610383578063cc3bcaf3146103ae578063db81f99b146103d7578063e0bab4c414610400578063f2fde38b1461042b578063f60a15ed146104545761012a565b806389a30271146102c25780638da5cb5b146102ed5780638f32d59b1461031857806399b71d5c146103435780639add74381461035a5761012a565b80633a3c3b87116100f25780633a3c3b87146102015780633ea521ef1461022c578063484f4ea914610255578063715018a614610280578063756bb1cc146102975761012a565b806304d841081461012c57806306bafb491461015757806317e5a9a41461018257806319d9e008146101ad5780632e8d6e18146101d8575b005b34801561013857600080fd5b5061014161046b565b60405161014e91906155de565b60405180910390f35b34801561016357600080fd5b5061016c610491565b60405161017991906155de565b60405180910390f35b34801561018e57600080fd5b506101976104b7565b6040516101a491906155de565b60405180910390f35b3480156101b957600080fd5b506101c26104dd565b6040516101cf91906155de565b60405180910390f35b3480156101e457600080fd5b506101ff60048036036101fa9190810190614eb5565b610503565b005b34801561020d57600080fd5b50610216610606565b60405161022391906155de565b60405180910390f35b34801561023857600080fd5b50610253600480360361024e9190810190614ede565b61062c565b005b34801561026157600080fd5b5061026a611539565b60405161027791906155de565b60405180910390f35b34801561028c57600080fd5b5061029561155f565b005b3480156102a357600080fd5b506102ac611667565b6040516102b991906155de565b60405180910390f35b3480156102ce57600080fd5b506102d761168d565b6040516102e491906155de565b60405180910390f35b3480156102f957600080fd5b506103026116b3565b60405161030f91906155de565b60405180910390f35b34801561032457600080fd5b5061032d6116dd565b60405161033a919061569d565b60405180910390f35b34801561034f57600080fd5b5061035861173c565b005b34801561036657600080fd5b50610381600480360361037c9190810190614ede565b61197a565b005b34801561038f57600080fd5b50610398612887565b6040516103a591906155de565b60405180910390f35b3480156103ba57600080fd5b506103d560048036036103d09190810190614ede565b6128ad565b005b3480156103e357600080fd5b506103fe60048036036103f99190810190614ede565b6137ba565b005b34801561040c57600080fd5b506104156146c7565b60405161042291906155de565b60405180910390f35b34801561043757600080fd5b50610452600480360361044d9190810190614e63565b6146ed565b005b34801561046057600080fd5b50610469614740565b005b600a60009054906101000a900473ffffffffffffffffffffffffffffffffffffffff1681565b600960009054906101000a900473ffffffffffffffffffffffffffffffffffffffff1681565b600760009054906101000a900473ffffffffffffffffffffffffffffffffffffffff1681565b600560009054906101000a900473ffffffffffffffffffffffffffffffffffffffff1681565b61050b6116dd565b61054a576040517f08c379a000000000000000000000000000000000000000000000000000000000815260040161054190615b54565b60405180910390fd5b60008173ffffffffffffffffffffffffffffffffffffffff166370a08231306040518263ffffffff1660e01b815260040161058591906155f9565b60206040518083038186803b15801561059d57600080fd5b505afa1580156105b1573d6000803e3d6000fd5b505050506040513d601f19601f820116820180604052506105d59190810190614f07565b905061060233828473ffffffffffffffffffffffffffffffffffffffff1661484d9092919063ffffffff16565b5050565b600b60009054906101000a900473ffffffffffffffffffffffffffffffffffffffff1681565b6001600080828254019250508190555060008054905060008211610685576040517f08c379a000000000000000000000000000000000000000000000000000000000815260040161067c90615b94565b60405180910390fd5b6106d4333084600b60009054906101000a900473ffffffffffffffffffffffffffffffffffffffff1673ffffffffffffffffffffffffffffffffffffffff166148ec909392919063ffffffff16565b600a60009054906101000a900473ffffffffffffffffffffffffffffffffffffffff1673ffffffffffffffffffffffffffffffffffffffff16637d49d875600b60009054906101000a900473ffffffffffffffffffffffffffffffffffffffff1673ffffffffffffffffffffffffffffffffffffffff166370a08231306040518263ffffffff1660e01b815260040161076d91906155f9565b60206040518083038186803b15801561078557600080fd5b505afa158015610799573d6000803e3d6000fd5b505050506040513d601f19601f820116820180604052506107bd9190810190614f07565b604051806080016040528060008152602001600081526020016000815260200160008152506040518363ffffffff1660e01b81526004016107ff929190615c6f565b600060405180830381600087803b15801561081957600080fd5b505af115801561082d573d6000803e3d6000fd5b505050506000600b60009054906101000a900473ffffffffffffffffffffffffffffffffffffffff1673ffffffffffffffffffffffffffffffffffffffff166370a08231306040518263ffffffff1660e01b815260040161088e91906155f9565b60206040518083038186803b1580156108a657600080fd5b505afa1580156108ba573d6000803e3d6000fd5b505050506040513d601f19601f820116820180604052506108de9190810190614f07565b1461091e576040517f08c379a000000000000000000000000000000000000000000000000000000000815260040161091590615b14565b60405180910390fd5b6000600360009054906101000a900473ffffffffffffffffffffffffffffffffffffffff1673ffffffffffffffffffffffffffffffffffffffff166370a08231306040518263ffffffff1660e01b815260040161097b91906155f9565b60206040518083038186803b15801561099357600080fd5b505afa1580156109a7573d6000803e3d6000fd5b505050506040513d601f19601f820116820180604052506109cb9190810190614f07565b90506000600560009054906101000a900473ffffffffffffffffffffffffffffffffffffffff1673ffffffffffffffffffffffffffffffffffffffff166370a08231306040518263ffffffff1660e01b8152600401610a2a91906155f9565b60206040518083038186803b158015610a4257600080fd5b505afa158015610a56573d6000803e3d6000fd5b505050506040513d601f19601f82011682018060405250610a7a9190810190614f07565b90506000600760009054906101000a900473ffffffffffffffffffffffffffffffffffffffff1673ffffffffffffffffffffffffffffffffffffffff166370a08231306040518263ffffffff1660e01b8152600401610ad991906155f9565b60206040518083038186803b158015610af157600080fd5b505afa158015610b05573d6000803e3d6000fd5b505050506040513d601f19601f82011682018060405250610b299190810190614f07565b90506000600960009054906101000a900473ffffffffffffffffffffffffffffffffffffffff1673ffffffffffffffffffffffffffffffffffffffff166370a08231306040518263ffffffff1660e01b8152600401610b8891906155f9565b60206040518083038186803b158015610ba057600080fd5b505afa158015610bb4573d6000803e3d6000fd5b505050506040513d601f19601f82011682018060405250610bd89190810190614f07565b90506000841180610be95750600083115b80610bf45750600082115b80610bff5750600081115b610c3e576040517f08c379a0000000000000000000000000000000000000000000000000000000008152600401610c3590615a14565b60405180910390fd5b6000841115610dcb57600a60009054906101000a900473ffffffffffffffffffffffffffffffffffffffff1673ffffffffffffffffffffffffffffffffffffffff16633df02124600060028760006040518563ffffffff1660e01b8152600401610cab94939291906156fd565b600060405180830381600087803b158015610cc557600080fd5b505af1158015610cd9573d6000803e3d6000fd5b505050506000600360009054906101000a900473ffffffffffffffffffffffffffffffffffffffff1673ffffffffffffffffffffffffffffffffffffffff166370a08231306040518263ffffffff1660e01b8152600401610d3a91906155f9565b60206040518083038186803b158015610d5257600080fd5b505afa158015610d66573d6000803e3d6000fd5b505050506040513d601f19601f82011682018060405250610d8a9190810190614f07565b14610dca576040517f08c379a0000000000000000000000000000000000000000000000000000000008152600401610dc190615bf4565b60405180910390fd5b5b6000831115610f5857600a60009054906101000a900473ffffffffffffffffffffffffffffffffffffffff1673ffffffffffffffffffffffffffffffffffffffff16633df02124600160028660006040518563ffffffff1660e01b8152600401610e3894939291906157cc565b600060405180830381600087803b158015610e5257600080fd5b505af1158015610e66573d6000803e3d6000fd5b505050506000600560009054906101000a900473ffffffffffffffffffffffffffffffffffffffff1673ffffffffffffffffffffffffffffffffffffffff166370a08231306040518263ffffffff1660e01b8152600401610ec791906155f9565b60206040518083038186803b158015610edf57600080fd5b505afa158015610ef3573d6000803e3d6000fd5b505050506040513d601f19601f82011682018060405250610f179190810190614f07565b14610f57576040517f08c379a0000000000000000000000000000000000000000000000000000000008152600401610f4e90615ad4565b60405180910390fd5b5b60008111156110e557600a60009054906101000a900473ffffffffffffffffffffffffffffffffffffffff1673ffffffffffffffffffffffffffffffffffffffff16633df02124600360028460006040518563ffffffff1660e01b8152600401610fc594939291906159af565b600060405180830381600087803b158015610fdf57600080fd5b505af1158015610ff3573d6000803e3d6000fd5b505050506000600960009054906101000a900473ffffffffffffffffffffffffffffffffffffffff1673ffffffffffffffffffffffffffffffffffffffff166370a08231306040518263ffffffff1660e01b815260040161105491906155f9565b60206040518083038186803b15801561106c57600080fd5b505afa158015611080573d6000803e3d6000fd5b505050506040513d601f19601f820116820180604052506110a49190810190614f07565b146110e4576040517f08c379a00000000000000000000000000000000000000000000000000000000081526004016110db90615b34565b60405180910390fd5b5b600760009054906101000a900473ffffffffffffffffffffffffffffffffffffffff1673ffffffffffffffffffffffffffffffffffffffff16632e1a7d4d600760009054906101000a900473ffffffffffffffffffffffffffffffffffffffff1673ffffffffffffffffffffffffffffffffffffffff166370a08231306040518263ffffffff1660e01b815260040161117e91906155f9565b60206040518083038186803b15801561119657600080fd5b505afa1580156111aa573d6000803e3d6000fd5b505050506040513d601f19601f820116820180604052506111ce9190810190614f07565b6040518263ffffffff1660e01b81526004016111ea9190615c54565b600060405180830381600087803b15801561120457600080fd5b505af1158015611218573d6000803e3d6000fd5b505050506000600760009054906101000a900473ffffffffffffffffffffffffffffffffffffffff1673ffffffffffffffffffffffffffffffffffffffff166370a08231306040518263ffffffff1660e01b815260040161127991906155f9565b60206040518083038186803b15801561129157600080fd5b505afa1580156112a5573d6000803e3d6000fd5b505050506040513d601f19601f820116820180604052506112c99190810190614f07565b14611309576040517f08c379a000000000000000000000000000000000000000000000000000000000815260040161130090615ab4565b60405180910390fd5b61140033600660009054906101000a900473ffffffffffffffffffffffffffffffffffffffff1673ffffffffffffffffffffffffffffffffffffffff166370a08231306040518263ffffffff1660e01b815260040161136891906155f9565b60206040518083038186803b15801561138057600080fd5b505afa158015611394573d6000803e3d6000fd5b505050506040513d601f19601f820116820180604052506113b89190810190614f07565b600660009054906101000a900473ffffffffffffffffffffffffffffffffffffffff1673ffffffffffffffffffffffffffffffffffffffff1661484d9092919063ffffffff16565b6000600660009054906101000a900473ffffffffffffffffffffffffffffffffffffffff1673ffffffffffffffffffffffffffffffffffffffff166370a08231306040518263ffffffff1660e01b815260040161145d91906155f9565b60206040518083038186803b15801561147557600080fd5b505afa158015611489573d6000803e3d6000fd5b505050506040513d601f19601f820116820180604052506114ad9190810190614f07565b146114ed576040517f08c379a00000000000000000000000000000000000000000000000000000000081526004016114e490615a74565b60405180910390fd5b505050506000548114611535576040517f08c379a000000000000000000000000000000000000000000000000000000000815260040161152c90615bd4565b60405180910390fd5b5050565b600860009054906101000a900473ffffffffffffffffffffffffffffffffffffffff1681565b6115676116dd565b6115a6576040517f08c379a000000000000000000000000000000000000000000000000000000000815260040161159d90615b54565b60405180910390fd5b600073ffffffffffffffffffffffffffffffffffffffff16600160009054906101000a900473ffffffffffffffffffffffffffffffffffffffff1673ffffffffffffffffffffffffffffffffffffffff167f8be0079c531659141344cd1fd0a4f28419497f9722a3daafe3b4186f6b6457e060405160405180910390a36000600160006101000a81548173ffffffffffffffffffffffffffffffffffffffff021916908373ffffffffffffffffffffffffffffffffffffffff160217905550565b600360009054906101000a900473ffffffffffffffffffffffffffffffffffffffff1681565b600460009054906101000a900473ffffffffffffffffffffffffffffffffffffffff1681565b6000600160009054906101000a900473ffffffffffffffffffffffffffffffffffffffff16905090565b6000600160009054906101000a900473ffffffffffffffffffffffffffffffffffffffff1673ffffffffffffffffffffffffffffffffffffffff1661172061498e565b73ffffffffffffffffffffffffffffffffffffffff1614905090565b6117cb600a60009054906101000a900473ffffffffffffffffffffffffffffffffffffffff167fffffffffffffffffffffffffffffffffffffffffffffffffffffffffffffffff600360009054906101000a900473ffffffffffffffffffffffffffffffffffffffff1673ffffffffffffffffffffffffffffffffffffffff166149969092919063ffffffff16565b61185a600a60009054906101000a900473ffffffffffffffffffffffffffffffffffffffff167fffffffffffffffffffffffffffffffffffffffffffffffffffffffffffffffff600560009054906101000a900473ffffffffffffffffffffffffffffffffffffffff1673ffffffffffffffffffffffffffffffffffffffff166149969092919063ffffffff16565b6118e9600a60009054906101000a900473ffffffffffffffffffffffffffffffffffffffff167fffffffffffffffffffffffffffffffffffffffffffffffffffffffffffffffff600760009054906101000a900473ffffffffffffffffffffffffffffffffffffffff1673ffffffffffffffffffffffffffffffffffffffff166149969092919063ffffffff16565b611978600a60009054906101000a900473ffffffffffffffffffffffffffffffffffffffff167fffffffffffffffffffffffffffffffffffffffffffffffffffffffffffffffff600960009054906101000a900473ffffffffffffffffffffffffffffffffffffffff1673ffffffffffffffffffffffffffffffffffffffff166149969092919063ffffffff16565b565b60016000808282540192505081905550600080549050600082116119d3576040517f08c379a00000000000000000000000000000000000000000000000000000000081526004016119ca90615b94565b60405180910390fd5b611a22333084600b60009054906101000a900473ffffffffffffffffffffffffffffffffffffffff1673ffffffffffffffffffffffffffffffffffffffff166148ec909392919063ffffffff16565b600a60009054906101000a900473ffffffffffffffffffffffffffffffffffffffff1673ffffffffffffffffffffffffffffffffffffffff16637d49d875600b60009054906101000a900473ffffffffffffffffffffffffffffffffffffffff1673ffffffffffffffffffffffffffffffffffffffff166370a08231306040518263ffffffff1660e01b8152600401611abb91906155f9565b60206040518083038186803b158015611ad357600080fd5b505afa158015611ae7573d6000803e3d6000fd5b505050506040513d601f19601f82011682018060405250611b0b9190810190614f07565b604051806080016040528060008152602001600081526020016000815260200160008152506040518363ffffffff1660e01b8152600401611b4d929190615c6f565b600060405180830381600087803b158015611b6757600080fd5b505af1158015611b7b573d6000803e3d6000fd5b505050506000600b60009054906101000a900473ffffffffffffffffffffffffffffffffffffffff1673ffffffffffffffffffffffffffffffffffffffff166370a08231306040518263ffffffff1660e01b8152600401611bdc91906155f9565b60206040518083038186803b158015611bf457600080fd5b505afa158015611c08573d6000803e3d6000fd5b505050506040513d601f19601f82011682018060405250611c2c9190810190614f07565b14611c6c576040517f08c379a0000000000000000000000000000000000000000000000000000000008152600401611c6390615b14565b60405180910390fd5b6000600360009054906101000a900473ffffffffffffffffffffffffffffffffffffffff1673ffffffffffffffffffffffffffffffffffffffff166370a08231306040518263ffffffff1660e01b8152600401611cc991906155f9565b60206040518083038186803b158015611ce157600080fd5b505afa158015611cf5573d6000803e3d6000fd5b505050506040513d601f19601f82011682018060405250611d199190810190614f07565b90506000600560009054906101000a900473ffffffffffffffffffffffffffffffffffffffff1673ffffffffffffffffffffffffffffffffffffffff166370a08231306040518263ffffffff1660e01b8152600401611d7891906155f9565b60206040518083038186803b158015611d9057600080fd5b505afa158015611da4573d6000803e3d6000fd5b505050506040513d601f19601f82011682018060405250611dc89190810190614f07565b90506000600760009054906101000a900473ffffffffffffffffffffffffffffffffffffffff1673ffffffffffffffffffffffffffffffffffffffff166370a08231306040518263ffffffff1660e01b8152600401611e2791906155f9565b60206040518083038186803b158015611e3f57600080fd5b505afa158015611e53573d6000803e3d6000fd5b505050506040513d601f19601f82011682018060405250611e779190810190614f07565b90506000600960009054906101000a900473ffffffffffffffffffffffffffffffffffffffff1673ffffffffffffffffffffffffffffffffffffffff166370a08231306040518263ffffffff1660e01b8152600401611ed691906155f9565b60206040518083038186803b158015611eee57600080fd5b505afa158015611f02573d6000803e3d6000fd5b505050506040513d601f19601f82011682018060405250611f269190810190614f07565b90506000841180611f375750600083115b80611f425750600082115b80611f4d5750600081115b611f8c576040517f08c379a0000000000000000000000000000000000000000000000000000000008152600401611f8390615a14565b60405180910390fd5b600083111561211957600a60009054906101000a900473ffffffffffffffffffffffffffffffffffffffff1673ffffffffffffffffffffffffffffffffffffffff16633df02124600160008660006040518563ffffffff1660e01b8152600401611ff99493929190615787565b600060405180830381600087803b15801561201357600080fd5b505af1158015612027573d6000803e3d6000fd5b505050506000600560009054906101000a900473ffffffffffffffffffffffffffffffffffffffff1673ffffffffffffffffffffffffffffffffffffffff166370a08231306040518263ffffffff1660e01b815260040161208891906155f9565b60206040518083038186803b1580156120a057600080fd5b505afa1580156120b4573d6000803e3d6000fd5b505050506040513d601f19601f820116820180604052506120d89190810190614f07565b14612118576040517f08c379a000000000000000000000000000000000000000000000000000000000815260040161210f90615ad4565b60405180910390fd5b5b60008211156122a657600a60009054906101000a900473ffffffffffffffffffffffffffffffffffffffff1673ffffffffffffffffffffffffffffffffffffffff16633df02124600260008560006040518563ffffffff1660e01b81526004016121869493929190615856565b600060405180830381600087803b1580156121a057600080fd5b505af11580156121b4573d6000803e3d6000fd5b505050506000600760009054906101000a900473ffffffffffffffffffffffffffffffffffffffff1673ffffffffffffffffffffffffffffffffffffffff166370a08231306040518263ffffffff1660e01b815260040161221591906155f9565b60206040518083038186803b15801561222d57600080fd5b505afa158015612241573d6000803e3d6000fd5b505050506040513d601f19601f820116820180604052506122659190810190614f07565b146122a5576040517f08c379a000000000000000000000000000000000000000000000000000000000815260040161229c90615ab4565b60405180910390fd5b5b600081111561243357600a60009054906101000a900473ffffffffffffffffffffffffffffffffffffffff1673ffffffffffffffffffffffffffffffffffffffff16633df02124600360008460006040518563ffffffff1660e01b81526004016123139493929190615925565b600060405180830381600087803b15801561232d57600080fd5b505af1158015612341573d6000803e3d6000fd5b505050506000600960009054906101000a900473ffffffffffffffffffffffffffffffffffffffff1673ffffffffffffffffffffffffffffffffffffffff166370a08231306040518263ffffffff1660e01b81526004016123a291906155f9565b60206040518083038186803b1580156123ba57600080fd5b505afa1580156123ce573d6000803e3d6000fd5b505050506040513d601f19601f820116820180604052506123f29190810190614f07565b14612432576040517f08c379a000000000000000000000000000000000000000000000000000000000815260040161242990615b34565b60405180910390fd5b5b600360009054906101000a900473ffffffffffffffffffffffffffffffffffffffff1673ffffffffffffffffffffffffffffffffffffffff16632e1a7d4d600360009054906101000a900473ffffffffffffffffffffffffffffffffffffffff1673ffffffffffffffffffffffffffffffffffffffff166370a08231306040518263ffffffff1660e01b81526004016124cc91906155f9565b60206040518083038186803b1580156124e457600080fd5b505afa1580156124f8573d6000803e3d6000fd5b505050506040513d601f19601f8201168201806040525061251c9190810190614f07565b6040518263ffffffff1660e01b81526004016125389190615c54565b600060405180830381600087803b15801561255257600080fd5b505af1158015612566573d6000803e3d6000fd5b505050506000600360009054906101000a900473ffffffffffffffffffffffffffffffffffffffff1673ffffffffffffffffffffffffffffffffffffffff166370a08231306040518263ffffffff1660e01b81526004016125c791906155f9565b60206040518083038186803b1580156125df57600080fd5b505afa1580156125f3573d6000803e3d6000fd5b505050506040513d601f19601f820116820180604052506126179190810190614f07565b14612657576040517f08c379a000000000000000000000000000000000000000000000000000000000815260040161264e90615bf4565b60405180910390fd5b61274e33600260009054906101000a900473ffffffffffffffffffffffffffffffffffffffff1673ffffffffffffffffffffffffffffffffffffffff166370a08231306040518263ffffffff1660e01b81526004016126b691906155f9565b60206040518083038186803b1580156126ce57600080fd5b505afa1580156126e2573d6000803e3d6000fd5b505050506040513d601f19601f820116820180604052506127069190810190614f07565b600260009054906101000a900473ffffffffffffffffffffffffffffffffffffffff1673ffffffffffffffffffffffffffffffffffffffff1661484d9092919063ffffffff16565b6000600260009054906101000a900473ffffffffffffffffffffffffffffffffffffffff1673ffffffffffffffffffffffffffffffffffffffff166370a08231306040518263ffffffff1660e01b81526004016127ab91906155f9565b60206040518083038186803b1580156127c357600080fd5b505afa1580156127d7573d6000803e3d6000fd5b505050506040513d601f19601f820116820180604052506127fb9190810190614f07565b1461283b576040517f08c379a0000000000000000000000000000000000000000000000000000000008152600401612832906159f4565b60405180910390fd5b505050506000548114612883576040517f08c379a000000000000000000000000000000000000000000000000000000000815260040161287a90615bd4565b60405180910390fd5b5050565b600660009054906101000a900473ffffffffffffffffffffffffffffffffffffffff1681565b6001600080828254019250508190555060008054905060008211612906576040517f08c379a00000000000000000000000000000000000000000000000000000000081526004016128fd90615b94565b60405180910390fd5b612955333084600b60009054906101000a900473ffffffffffffffffffffffffffffffffffffffff1673ffffffffffffffffffffffffffffffffffffffff166148ec909392919063ffffffff16565b600a60009054906101000a900473ffffffffffffffffffffffffffffffffffffffff1673ffffffffffffffffffffffffffffffffffffffff16637d49d875600b60009054906101000a900473ffffffffffffffffffffffffffffffffffffffff1673ffffffffffffffffffffffffffffffffffffffff166370a08231306040518263ffffffff1660e01b81526004016129ee91906155f9565b60206040518083038186803b158015612a0657600080fd5b505afa158015612a1a573d6000803e3d6000fd5b505050506040513d601f19601f82011682018060405250612a3e9190810190614f07565b604051806080016040528060008152602001600081526020016000815260200160008152506040518363ffffffff1660e01b8152600401612a80929190615c6f565b600060405180830381600087803b158015612a9a57600080fd5b505af1158015612aae573d6000803e3d6000fd5b505050506000600b60009054906101000a900473ffffffffffffffffffffffffffffffffffffffff1673ffffffffffffffffffffffffffffffffffffffff166370a08231306040518263ffffffff1660e01b8152600401612b0f91906155f9565b60206040518083038186803b158015612b2757600080fd5b505afa158015612b3b573d6000803e3d6000fd5b505050506040513d601f19601f82011682018060405250612b5f9190810190614f07565b14612b9f576040517f08c379a0000000000000000000000000000000000000000000000000000000008152600401612b9690615b14565b60405180910390fd5b6000600360009054906101000a900473ffffffffffffffffffffffffffffffffffffffff1673ffffffffffffffffffffffffffffffffffffffff166370a08231306040518263ffffffff1660e01b8152600401612bfc91906155f9565b60206040518083038186803b158015612c1457600080fd5b505afa158015612c28573d6000803e3d6000fd5b505050506040513d601f19601f82011682018060405250612c4c9190810190614f07565b90506000600560009054906101000a900473ffffffffffffffffffffffffffffffffffffffff1673ffffffffffffffffffffffffffffffffffffffff166370a08231306040518263ffffffff1660e01b8152600401612cab91906155f9565b60206040518083038186803b158015612cc357600080fd5b505afa158015612cd7573d6000803e3d6000fd5b505050506040513d601f19601f82011682018060405250612cfb9190810190614f07565b90506000600760009054906101000a900473ffffffffffffffffffffffffffffffffffffffff1673ffffffffffffffffffffffffffffffffffffffff166370a08231306040518263ffffffff1660e01b8152600401612d5a91906155f9565b60206040518083038186803b158015612d7257600080fd5b505afa158015612d86573d6000803e3d6000fd5b505050506040513d601f19601f82011682018060405250612daa9190810190614f07565b90506000600960009054906101000a900473ffffffffffffffffffffffffffffffffffffffff1673ffffffffffffffffffffffffffffffffffffffff166370a08231306040518263ffffffff1660e01b8152600401612e0991906155f9565b60206040518083038186803b158015612e2157600080fd5b505afa158015612e35573d6000803e3d6000fd5b505050506040513d601f19601f82011682018060405250612e599190810190614f07565b90506000841180612e6a5750600083115b80612e755750600082115b80612e805750600081115b612ebf576040517f08c379a0000000000000000000000000000000000000000000000000000000008152600401612eb690615a14565b60405180910390fd5b600084111561304c57600a60009054906101000a900473ffffffffffffffffffffffffffffffffffffffff1673ffffffffffffffffffffffffffffffffffffffff16633df02124600060038760006040518563ffffffff1660e01b8152600401612f2c9493929190615742565b600060405180830381600087803b158015612f4657600080fd5b505af1158015612f5a573d6000803e3d6000fd5b505050506000600360009054906101000a900473ffffffffffffffffffffffffffffffffffffffff1673ffffffffffffffffffffffffffffffffffffffff166370a08231306040518263ffffffff1660e01b8152600401612fbb91906155f9565b60206040518083038186803b158015612fd357600080fd5b505afa158015612fe7573d6000803e3d6000fd5b505050506040513d601f19601f8201168201806040525061300b9190810190614f07565b1461304b576040517f08c379a000000000000000000000000000000000000000000000000000000000815260040161304290615bf4565b60405180910390fd5b5b60008311156131d957600a60009054906101000a900473ffffffffffffffffffffffffffffffffffffffff1673ffffffffffffffffffffffffffffffffffffffff16633df02124600160038660006040518563ffffffff1660e01b81526004016130b99493929190615811565b600060405180830381600087803b1580156130d357600080fd5b505af11580156130e7573d6000803e3d6000fd5b505050506000600560009054906101000a900473ffffffffffffffffffffffffffffffffffffffff1673ffffffffffffffffffffffffffffffffffffffff166370a08231306040518263ffffffff1660e01b815260040161314891906155f9565b60206040518083038186803b15801561316057600080fd5b505afa158015613174573d6000803e3d6000fd5b505050506040513d601f19601f820116820180604052506131989190810190614f07565b146131d8576040517f08c379a00000000000000000000000000000000000000000000000000000000081526004016131cf90615ad4565b60405180910390fd5b5b600082111561336657600a60009054906101000a900473ffffffffffffffffffffffffffffffffffffffff1673ffffffffffffffffffffffffffffffffffffffff16633df02124600260038560006040518563ffffffff1660e01b815260040161324694939291906158e0565b600060405180830381600087803b15801561326057600080fd5b505af1158015613274573d6000803e3d6000fd5b505050506000600760009054906101000a900473ffffffffffffffffffffffffffffffffffffffff1673ffffffffffffffffffffffffffffffffffffffff166370a08231306040518263ffffffff1660e01b81526004016132d591906155f9565b60206040518083038186803b1580156132ed57600080fd5b505afa158015613301573d6000803e3d6000fd5b505050506040513d601f19601f820116820180604052506133259190810190614f07565b14613365576040517f08c379a000000000000000000000000000000000000000000000000000000000815260040161335c90615ab4565b60405180910390fd5b5b600960009054906101000a900473ffffffffffffffffffffffffffffffffffffffff1673ffffffffffffffffffffffffffffffffffffffff16632e1a7d4d600960009054906101000a900473ffffffffffffffffffffffffffffffffffffffff1673ffffffffffffffffffffffffffffffffffffffff166370a08231306040518263ffffffff1660e01b81526004016133ff91906155f9565b60206040518083038186803b15801561341757600080fd5b505afa15801561342b573d6000803e3d6000fd5b505050506040513d601f19601f8201168201806040525061344f9190810190614f07565b6040518263ffffffff1660e01b815260040161346b9190615c54565b600060405180830381600087803b15801561348557600080fd5b505af1158015613499573d6000803e3d6000fd5b505050506000600960009054906101000a900473ffffffffffffffffffffffffffffffffffffffff1673ffffffffffffffffffffffffffffffffffffffff166370a08231306040518263ffffffff1660e01b81526004016134fa91906155f9565b60206040518083038186803b15801561351257600080fd5b505afa158015613526573d6000803e3d6000fd5b505050506040513d601f19601f8201168201806040525061354a9190810190614f07565b1461358a576040517f08c379a000000000000000000000000000000000000000000000000000000000815260040161358190615b34565b60405180910390fd5b61368133600860009054906101000a900473ffffffffffffffffffffffffffffffffffffffff1673ffffffffffffffffffffffffffffffffffffffff166370a08231306040518263ffffffff1660e01b81526004016135e991906155f9565b60206040518083038186803b15801561360157600080fd5b505afa158015613615573d6000803e3d6000fd5b505050506040513d601f19601f820116820180604052506136399190810190614f07565b600860009054906101000a900473ffffffffffffffffffffffffffffffffffffffff1673ffffffffffffffffffffffffffffffffffffffff1661484d9092919063ffffffff16565b6000600860009054906101000a900473ffffffffffffffffffffffffffffffffffffffff1673ffffffffffffffffffffffffffffffffffffffff166370a08231306040518263ffffffff1660e01b81526004016136de91906155f9565b60206040518083038186803b1580156136f657600080fd5b505afa15801561370a573d6000803e3d6000fd5b505050506040513d601f19601f8201168201806040525061372e9190810190614f07565b1461376e576040517f08c379a000000000000000000000000000000000000000000000000000000000815260040161376590615a54565b60405180910390fd5b5050505060005481146137b6576040517f08c379a00000000000000000000000000000000000000000000000000000000081526004016137ad90615bd4565b60405180910390fd5b5050565b6001600080828254019250508190555060008054905060008211613813576040517f08c379a000000000000000000000000000000000000000000000000000000000815260040161380a90615b94565b60405180910390fd5b613862333084600b60009054906101000a900473ffffffffffffffffffffffffffffffffffffffff1673ffffffffffffffffffffffffffffffffffffffff166148ec909392919063ffffffff16565b600a60009054906101000a900473ffffffffffffffffffffffffffffffffffffffff1673ffffffffffffffffffffffffffffffffffffffff16637d49d875600b60009054906101000a900473ffffffffffffffffffffffffffffffffffffffff1673ffffffffffffffffffffffffffffffffffffffff166370a08231306040518263ffffffff1660e01b81526004016138fb91906155f9565b60206040518083038186803b15801561391357600080fd5b505afa158015613927573d6000803e3d6000fd5b505050506040513d601f19601f8201168201806040525061394b9190810190614f07565b604051806080016040528060008152602001600081526020016000815260200160008152506040518363ffffffff1660e01b815260040161398d929190615c6f565b600060405180830381600087803b1580156139a757600080fd5b505af11580156139bb573d6000803e3d6000fd5b505050506000600b60009054906101000a900473ffffffffffffffffffffffffffffffffffffffff1673ffffffffffffffffffffffffffffffffffffffff166370a08231306040518263ffffffff1660e01b8152600401613a1c91906155f9565b60206040518083038186803b158015613a3457600080fd5b505afa158015613a48573d6000803e3d6000fd5b505050506040513d601f19601f82011682018060405250613a6c9190810190614f07565b14613aac576040517f08c379a0000000000000000000000000000000000000000000000000000000008152600401613aa390615b14565b60405180910390fd5b6000600360009054906101000a900473ffffffffffffffffffffffffffffffffffffffff1673ffffffffffffffffffffffffffffffffffffffff166370a08231306040518263ffffffff1660e01b8152600401613b0991906155f9565b60206040518083038186803b158015613b2157600080fd5b505afa158015613b35573d6000803e3d6000fd5b505050506040513d601f19601f82011682018060405250613b599190810190614f07565b90506000600560009054906101000a900473ffffffffffffffffffffffffffffffffffffffff1673ffffffffffffffffffffffffffffffffffffffff166370a08231306040518263ffffffff1660e01b8152600401613bb891906155f9565b60206040518083038186803b158015613bd057600080fd5b505afa158015613be4573d6000803e3d6000fd5b505050506040513d601f19601f82011682018060405250613c089190810190614f07565b90506000600760009054906101000a900473ffffffffffffffffffffffffffffffffffffffff1673ffffffffffffffffffffffffffffffffffffffff166370a08231306040518263ffffffff1660e01b8152600401613c6791906155f9565b60206040518083038186803b158015613c7f57600080fd5b505afa158015613c93573d6000803e3d6000fd5b505050506040513d601f19601f82011682018060405250613cb79190810190614f07565b90506000600960009054906101000a900473ffffffffffffffffffffffffffffffffffffffff1673ffffffffffffffffffffffffffffffffffffffff166370a08231306040518263ffffffff1660e01b8152600401613d1691906155f9565b60206040518083038186803b158015613d2e57600080fd5b505afa158015613d42573d6000803e3d6000fd5b505050506040513d601f19601f82011682018060405250613d669190810190614f07565b90506000841180613d775750600083115b80613d825750600082115b80613d8d5750600081115b613dcc576040517f08c379a0000000000000000000000000000000000000000000000000000000008152600401613dc390615a14565b60405180910390fd5b6000841115613f5957600a60009054906101000a900473ffffffffffffffffffffffffffffffffffffffff1673ffffffffffffffffffffffffffffffffffffffff16633df02124600060018760006040518563ffffffff1660e01b8152600401613e3994939291906156b8565b600060405180830381600087803b158015613e5357600080fd5b505af1158015613e67573d6000803e3d6000fd5b505050506000600360009054906101000a900473ffffffffffffffffffffffffffffffffffffffff1673ffffffffffffffffffffffffffffffffffffffff166370a08231306040518263ffffffff1660e01b8152600401613ec891906155f9565b60206040518083038186803b158015613ee057600080fd5b505afa158015613ef4573d6000803e3d6000fd5b505050506040513d601f19601f82011682018060405250613f189190810190614f07565b14613f58576040517f08c379a0000000000000000000000000000000000000000000000000000000008152600401613f4f90615bf4565b60405180910390fd5b5b60008211156140e657600a60009054906101000a900473ffffffffffffffffffffffffffffffffffffffff1673ffffffffffffffffffffffffffffffffffffffff16633df02124600260018560006040518563ffffffff1660e01b8152600401613fc6949392919061589b565b600060405180830381600087803b158015613fe057600080fd5b505af1158015613ff4573d6000803e3d6000fd5b505050506000600760009054906101000a900473ffffffffffffffffffffffffffffffffffffffff1673ffffffffffffffffffffffffffffffffffffffff166370a08231306040518263ffffffff1660e01b815260040161405591906155f9565b60206040518083038186803b15801561406d57600080fd5b505afa158015614081573d6000803e3d6000fd5b505050506040513d601f19601f820116820180604052506140a59190810190614f07565b146140e5576040517f08c379a00000000000000000000000000000000000000000000000000000000081526004016140dc90615ab4565b60405180910390fd5b5b600081111561427357600a60009054906101000a900473ffffffffffffffffffffffffffffffffffffffff1673ffffffffffffffffffffffffffffffffffffffff16633df02124600360018460006040518563ffffffff1660e01b8152600401614153949392919061596a565b600060405180830381600087803b15801561416d57600080fd5b505af1158015614181573d6000803e3d6000fd5b505050506000600960009054906101000a900473ffffffffffffffffffffffffffffffffffffffff1673ffffffffffffffffffffffffffffffffffffffff166370a08231306040518263ffffffff1660e01b81526004016141e291906155f9565b60206040518083038186803b1580156141fa57600080fd5b505afa15801561420e573d6000803e3d6000fd5b505050506040513d601f19601f820116820180604052506142329190810190614f07565b14614272576040517f08c379a000000000000000000000000000000000000000000000000000000000815260040161426990615b34565b60405180910390fd5b5b600560009054906101000a900473ffffffffffffffffffffffffffffffffffffffff1673ffffffffffffffffffffffffffffffffffffffff16632e1a7d4d600560009054906101000a900473ffffffffffffffffffffffffffffffffffffffff1673ffffffffffffffffffffffffffffffffffffffff166370a08231306040518263ffffffff1660e01b815260040161430c91906155f9565b60206040518083038186803b15801561432457600080fd5b505afa158015614338573d6000803e3d6000fd5b505050506040513d601f19601f8201168201806040525061435c9190810190614f07565b6040518263ffffffff1660e01b81526004016143789190615c54565b600060405180830381600087803b15801561439257600080fd5b505af11580156143a6573d6000803e3d6000fd5b505050506000600560009054906101000a900473ffffffffffffffffffffffffffffffffffffffff1673ffffffffffffffffffffffffffffffffffffffff166370a08231306040518263ffffffff1660e01b815260040161440791906155f9565b60206040518083038186803b15801561441f57600080fd5b505afa158015614433573d6000803e3d6000fd5b505050506040513d601f19601f820116820180604052506144579190810190614f07565b14614497576040517f08c379a000000000000000000000000000000000000000000000000000000000815260040161448e90615ad4565b60405180910390fd5b61458e33600460009054906101000a900473ffffffffffffffffffffffffffffffffffffffff1673ffffffffffffffffffffffffffffffffffffffff166370a08231306040518263ffffffff1660e01b81526004016144f691906155f9565b60206040518083038186803b15801561450e57600080fd5b505afa158015614522573d6000803e3d6000fd5b505050506040513d601f19601f820116820180604052506145469190810190614f07565b600460009054906101000a900473ffffffffffffffffffffffffffffffffffffffff1673ffffffffffffffffffffffffffffffffffffffff1661484d9092919063ffffffff16565b6000600460009054906101000a900473ffffffffffffffffffffffffffffffffffffffff1673ffffffffffffffffffffffffffffffffffffffff166370a08231306040518263ffffffff1660e01b81526004016145eb91906155f9565b60206040518083038186803b15801561460357600080fd5b505afa158015614617573d6000803e3d6000fd5b505050506040513d601f19601f8201168201806040525061463b9190810190614f07565b1461467b576040517f08c379a000000000000000000000000000000000000000000000000000000000815260040161467290615b74565b60405180910390fd5b5050505060005481146146c3576040517f08c379a00000000000000000000000000000000000000000000000000000000081526004016146ba90615bd4565b60405180910390fd5b5050565b600260009054906101000a900473ffffffffffffffffffffffffffffffffffffffff1681565b6146f56116dd565b614734576040517f08c379a000000000000000000000000000000000000000000000000000000000815260040161472b90615b54565b60405180910390fd5b61473d81614b0d565b50565b6147486116dd565b614787576040517f08c379a000000000000000000000000000000000000000000000000000000000815260040161477e90615b54565b60405180910390fd5b60003373ffffffffffffffffffffffffffffffffffffffff163073ffffffffffffffffffffffffffffffffffffffff16316040516147c4906155c9565b60006040518083038185875af1925050503d8060008114614801576040519150601f19603f3d011682016040523d82523d6000602084013e614806565b606091505b505090508061484a576040517f08c379a000000000000000000000000000000000000000000000000000000000815260040161484190615af4565b60405180910390fd5b50565b6148e7838473ffffffffffffffffffffffffffffffffffffffff1663a9059cbb905060e01b8484604051602401614885929190615674565b604051602081830303815290604052907bffffffffffffffffffffffffffffffffffffffffffffffffffffffff19166020820180517bffffffffffffffffffffffffffffffffffffffffffffffffffffffff8381831617835250505050614c3d565b505050565b614988848573ffffffffffffffffffffffffffffffffffffffff166323b872dd905060e01b8585856040516024016149269392919061563d565b604051602081830303815290604052907bffffffffffffffffffffffffffffffffffffffffffffffffffffffff19166020820180517bffffffffffffffffffffffffffffffffffffffffffffffffffffffff8381831617835250505050614c3d565b50505050565b600033905090565b6000811480614a2f575060008373ffffffffffffffffffffffffffffffffffffffff1663dd62ed3e30856040518363ffffffff1660e01b81526004016149dd929190615614565b60206040518083038186803b1580156149f557600080fd5b505afa158015614a09573d6000803e3d6000fd5b505050506040513d601f19601f82011682018060405250614a2d9190810190614f07565b145b614a6e576040517f08c379a0000000000000000000000000000000000000000000000000000000008152600401614a6590615c14565b60405180910390fd5b614b08838473ffffffffffffffffffffffffffffffffffffffff1663095ea7b3905060e01b8484604051602401614aa6929190615674565b604051602081830303815290604052907bffffffffffffffffffffffffffffffffffffffffffffffffffffffff19166020820180517bffffffffffffffffffffffffffffffffffffffffffffffffffffffff8381831617835250505050614c3d565b505050565b600073ffffffffffffffffffffffffffffffffffffffff168173ffffffffffffffffffffffffffffffffffffffff161415614b7d576040517f08c379a0000000000000000000000000000000000000000000000000000000008152600401614b7490615a34565b60405180910390fd5b8073ffffffffffffffffffffffffffffffffffffffff16600160009054906101000a900473ffffffffffffffffffffffffffffffffffffffff1673ffffffffffffffffffffffffffffffffffffffff167f8be0079c531659141344cd1fd0a4f28419497f9722a3daafe3b4186f6b6457e060405160405180910390a380600160006101000a81548173ffffffffffffffffffffffffffffffffffffffff021916908373ffffffffffffffffffffffffffffffffffffffff16021790555050565b614c5c8273ffffffffffffffffffffffffffffffffffffffff16614daf565b614c9b576040517f08c379a0000000000000000000000000000000000000000000000000000000008152600401614c9290615c34565b60405180910390fd5b600060608373ffffffffffffffffffffffffffffffffffffffff1683604051614cc491906155b2565b6000604051808303816000865af19150503d8060008114614d01576040519150601f19603f3d011682016040523d82523d6000602084013e614d06565b606091505b509150915081614d4b576040517f08c379a0000000000000000000000000000000000000000000000000000000008152600401614d4290615a94565b60405180910390fd5b600081511115614da95780806020019051614d699190810190614e8c565b614da8576040517f08c379a0000000000000000000000000000000000000000000000000000000008152600401614d9f90615bb4565b60405180910390fd5b5b50505050565b60008060007fc5d2460186f7233c927e7db2dcc703c0e500b653ca82273b7bfad8045d85a47060001b9050833f91506000801b8214158015614df15750808214155b92505050919050565b600081359050614e0981615e16565b92915050565b600081519050614e1e81615e2d565b92915050565b600081359050614e3381615e44565b92915050565b600081359050614e4881615e5b565b92915050565b600081519050614e5d81615e5b565b92915050565b600060208284031215614e7557600080fd5b6000614e8384828501614dfa565b91505092915050565b600060208284031215614e9e57600080fd5b6000614eac84828501614e0f565b91505092915050565b600060208284031215614ec757600080fd5b6000614ed584828501614e24565b91505092915050565b600060208284031215614ef057600080fd5b6000614efe84828501614e39565b91505092915050565b600060208284031215614f1957600080fd5b6000614f2784828501614e4e565b91505092915050565b6000614f3c8383615594565b60208301905092915050565b614f5181615d53565b82525050565b614f6081615cec565b82525050565b614f6f81615ca2565b614f798184615cc5565b9250614f8482615c98565b8060005b83811015614fb5578151614f9c8782614f30565b9650614fa783615cb8565b925050600181019050614f88565b505050505050565b614fc681615cfe565b82525050565b6000614fd782615cad565b614fe18185615cd0565b9350614ff1818560208601615de3565b80840191505092915050565b61500681615d65565b82525050565b61501581615d77565b82525050565b61502481615d89565b82525050565b61503381615d9b565b82525050565b61504281615dad565b82525050565b6000615055600d83615cdb565b91507f4441492072656d61696e646572000000000000000000000000000000000000006000830152602082019050919050565b6000615095601183615cdb565b91507f6e6f20792e746f6b656e7320666f756e640000000000000000000000000000006000830152602082019050919050565b60006150d5602683615cdb565b91507f4f776e61626c653a206e6577206f776e657220697320746865207a65726f206160008301527f64647265737300000000000000000000000000000000000000000000000000006020830152604082019050919050565b600061513b600e83615cdb565b91507f425553442072656d61696e6465720000000000000000000000000000000000006000830152602082019050919050565b600061517b600e83615cdb565b91507f555344542072656d61696e6465720000000000000000000000000000000000006000830152602082019050919050565b60006151bb602083615cdb565b91507f5361666545524332303a206c6f772d6c6576656c2063616c6c206661696c65646000830152602082019050919050565b60006151fb601083615cdb565b91507f792e555344542072656d61696e646572000000000000000000000000000000006000830152602082019050919050565b600061523b601083615cdb565b91507f792e555344432072656d61696e646572000000000000000000000000000000006000830152602082019050919050565b600061527b601683615cdb565b91507f7472616e73666572206f6620455448206661696c6564000000000000000000006000830152602082019050919050565b60006152bb600f83615cdb565b91507f43555256452072656d61696e64657200000000000000000000000000000000006000830152602082019050919050565b60006152fb601083615cdb565b91507f792e425553442072656d61696e646572000000000000000000000000000000006000830152602082019050919050565b600061533b602083615cdb565b91507f4f776e61626c653a2063616c6c6572206973206e6f7420746865206f776e65726000830152602082019050919050565b600061537b600e83615cdb565b91507f555344432072656d61696e6465720000000000000000000000000000000000006000830152602082019050919050565b60006153bb600083615cd0565b9150600082019050919050565b60006153d5601e83615cdb565b91507f6465706f736974206d7573742062652067726561746572207468616e203000006000830152602082019050919050565b6000615415602a83615cdb565b91507f5361666545524332303a204552433230206f7065726174696f6e20646964206e60008301527f6f742073756363656564000000000000000000000000000000000000000000006020830152604082019050919050565b600061547b601f83615cdb565b91507f5265656e7472616e637947756172643a207265656e7472616e742063616c6c006000830152602082019050919050565b60006154bb600f83615cdb565b91507f792e4441492072656d61696e64657200000000000000000000000000000000006000830152602082019050919050565b60006154fb603683615cdb565b91507f5361666545524332303a20617070726f76652066726f6d206e6f6e2d7a65726f60008301527f20746f206e6f6e2d7a65726f20616c6c6f77616e6365000000000000000000006020830152604082019050919050565b6000615561601f83615cdb565b91507f5361666545524332303a2063616c6c20746f206e6f6e2d636f6e7472616374006000830152602082019050919050565b61559d81615d49565b82525050565b6155ac81615d49565b82525050565b60006155be8284614fcc565b915081905092915050565b60006155d4826153ae565b9150819050919050565b60006020820190506155f36000830184614f57565b92915050565b600060208201905061560e6000830184614f48565b92915050565b60006040820190506156296000830185614f57565b6156366020830184614f57565b9392505050565b60006060820190506156526000830186614f57565b61565f6020830185614f57565b61566c60408301846155a3565b949350505050565b60006040820190506156896000830185614f57565b61569660208301846155a3565b9392505050565b60006020820190506156b26000830184614fbd565b92915050565b60006080820190506156cd6000830187614ffd565b6156da602083018661501b565b6156e760408301856155a3565b6156f4606083018461500c565b95945050505050565b60006080820190506157126000830187614ffd565b61571f602083018661502a565b61572c60408301856155a3565b615739606083018461500c565b95945050505050565b60006080820190506157576000830187614ffd565b6157646020830186615039565b61577160408301856155a3565b61577e606083018461500c565b95945050505050565b600060808201905061579c600083018761501b565b6157a96020830186614ffd565b6157b660408301856155a3565b6157c3606083018461500c565b95945050505050565b60006080820190506157e1600083018761501b565b6157ee602083018661502a565b6157fb60408301856155a3565b615808606083018461500c565b95945050505050565b6000608082019050615826600083018761501b565b6158336020830186615039565b61584060408301856155a3565b61584d606083018461500c565b95945050505050565b600060808201905061586b600083018761502a565b6158786020830186614ffd565b61588560408301856155a3565b615892606083018461500c565b95945050505050565b60006080820190506158b0600083018761502a565b6158bd602083018661501b565b6158ca60408301856155a3565b6158d7606083018461500c565b95945050505050565b60006080820190506158f5600083018761502a565b6159026020830186615039565b61590f60408301856155a3565b61591c606083018461500c565b95945050505050565b600060808201905061593a6000830187615039565b6159476020830186614ffd565b61595460408301856155a3565b615961606083018461500c565b95945050505050565b600060808201905061597f6000830187615039565b61598c602083018661501b565b61599960408301856155a3565b6159a6606083018461500c565b95945050505050565b60006080820190506159c46000830187615039565b6159d1602083018661502a565b6159de60408301856155a3565b6159eb606083018461500c565b95945050505050565b60006020820190508181036000830152615a0d81615048565b9050919050565b60006020820190508181036000830152615a2d81615088565b9050919050565b60006020820190508181036000830152615a4d816150c8565b9050919050565b60006020820190508181036000830152615a6d8161512e565b9050919050565b60006020820190508181036000830152615a8d8161516e565b9050919050565b60006020820190508181036000830152615aad816151ae565b9050919050565b60006020820190508181036000830152615acd816151ee565b9050919050565b60006020820190508181036000830152615aed8161522e565b9050919050565b60006020820190508181036000830152615b0d8161526e565b9050919050565b60006020820190508181036000830152615b2d816152ae565b9050919050565b60006020820190508181036000830152615b4d816152ee565b9050919050565b60006020820190508181036000830152615b6d8161532e565b9050919050565b60006020820190508181036000830152615b8d8161536e565b9050919050565b60006020820190508181036000830152615bad816153c8565b9050919050565b60006020820190508181036000830152615bcd81615408565b9050919050565b60006020820190508181036000830152615bed8161546e565b9050919050565b60006020820190508181036000830152615c0d816154ae565b9050919050565b60006020820190508181036000830152615c2d816154ee565b9050919050565b60006020820190508181036000830152615c4d81615554565b9050919050565b6000602082019050615c6960008301846155a3565b92915050565b600060a082019050615c8460008301856155a3565b615c916020830184614f66565b9392505050565b6000819050919050565b600060049050919050565b600081519050919050565b6000602082019050919050565b600081905092915050565b600081905092915050565b600082825260208201905092915050565b6000615cf782615d29565b9050919050565b60008115159050919050565b6000615d1582615cec565b9050919050565b600081600f0b9050919050565b600073ffffffffffffffffffffffffffffffffffffffff82169050919050565b6000819050919050565b6000615d5e82615dbf565b9050919050565b6000615d7082615d1c565b9050919050565b6000615d8282615d49565b9050919050565b6000615d9482615d1c565b9050919050565b6000615da682615d1c565b9050919050565b6000615db882615d1c565b9050919050565b6000615dca82615dd1565b9050919050565b6000615ddc82615d29565b9050919050565b60005b83811015615e01578082015181840152602081019050615de6565b83811115615e10576000848401525b50505050565b615e1f81615cec565b8114615e2a57600080fd5b50565b615e3681615cfe565b8114615e4157600080fd5b50565b615e4d81615d0a565b8114615e5857600080fd5b50565b615e6481615d49565b8114615e6f57600080fd5b5056fea365627a7a72315820a417d850ad233d2b219280c46449c4306777268417e1949df94680e58430c65e6c6578706572696d656e74616cf564736f6c634300050c0040",
  "source": "pragma solidity ^0.5.0;\npragma experimental ABIEncoderV2;\n\ninterface IERC20 {\n    function totalSupply() external view returns (uint256);\n    function balanceOf(address account) external view returns (uint256);\n    function transfer(address recipient, uint256 amount) external returns (bool);\n    function allowance(address owner, address spender) external view returns (uint256);\n    function approve(address spender, uint256 amount) external returns (bool);\n    function transferFrom(address sender, address recipient, uint256 amount) external returns (bool);\n    event Transfer(address indexed from, address indexed to, uint256 value);\n    event Approval(address indexed owner, address indexed spender, uint256 value);\n}\n\ncontract Context {\n    constructor () internal { }\n    // solhint-disable-previous-line no-empty-blocks\n\n    function _msgSender() internal view returns (address payable) {\n        return msg.sender;\n    }\n\n    function _msgData() internal view returns (bytes memory) {\n        this; // silence state mutability warning without generating bytecode - see https://github.com/ethereum/solidity/issues/2691\n        return msg.data;\n    }\n}\n\ncontract ReentrancyGuard {\n    uint256 private _guardCounter;\n\n    constructor () internal {\n        _guardCounter = 1;\n    }\n\n    modifier nonReentrant() {\n        _guardCounter += 1;\n        uint256 localCounter = _guardCounter;\n        _;\n        require(localCounter == _guardCounter, \"ReentrancyGuard: reentrant call\");\n    }\n}\n\ncontract Ownable is Context {\n    address private _owner;\n\n    event OwnershipTransferred(address indexed previousOwner, address indexed newOwner);\n    constructor () internal {\n        _owner = _msgSender();\n        emit OwnershipTransferred(address(0), _owner);\n    }\n    function owner() public view returns (address) {\n        return _owner;\n    }\n    modifier onlyOwner() {\n        require(isOwner(), \"Ownable: caller is not the owner\");\n        _;\n    }\n    function isOwner() public view returns (bool) {\n        return _msgSender() == _owner;\n    }\n    function renounceOwnership() public onlyOwner {\n        emit OwnershipTransferred(_owner, address(0));\n        _owner = address(0);\n    }\n    function transferOwnership(address newOwner) public onlyOwner {\n        _transferOwnership(newOwner);\n    }\n    function _transferOwnership(address newOwner) internal {\n        require(newOwner != address(0), \"Ownable: new owner is the zero address\");\n        emit OwnershipTransferred(_owner, newOwner);\n        _owner = newOwner;\n    }\n}\n\nlibrary SafeMath {\n    function add(uint256 a, uint256 b) internal pure returns (uint256) {\n        uint256 c = a + b;\n        require(c >= a, \"SafeMath: addition overflow\");\n\n        return c;\n    }\n    function sub(uint256 a, uint256 b) internal pure returns (uint256) {\n        return sub(a, b, \"SafeMath: subtraction overflow\");\n    }\n    function sub(uint256 a, uint256 b, string memory errorMessage) internal pure returns (uint256) {\n        require(b <= a, errorMessage);\n        uint256 c = a - b;\n\n        return c;\n    }\n    function mul(uint256 a, uint256 b) internal pure returns (uint256) {\n        if (a == 0) {\n            return 0;\n        }\n\n        uint256 c = a * b;\n        require(c / a == b, \"SafeMath: multiplication overflow\");\n\n        return c;\n    }\n    function div(uint256 a, uint256 b) internal pure returns (uint256) {\n        return div(a, b, \"SafeMath: division by zero\");\n    }\n    function div(uint256 a, uint256 b, string memory errorMessage) internal pure returns (uint256) {\n        // Solidity only automatically asserts when dividing by 0\n        require(b > 0, errorMessage);\n        uint256 c = a / b;\n\n        return c;\n    }\n    function mod(uint256 a, uint256 b) internal pure returns (uint256) {\n        return mod(a, b, \"SafeMath: modulo by zero\");\n    }\n    function mod(uint256 a, uint256 b, string memory errorMessage) internal pure returns (uint256) {\n        require(b != 0, errorMessage);\n        return a % b;\n    }\n}\n\nlibrary Address {\n    function isContract(address account) internal view returns (bool) {\n        bytes32 codehash;\n        bytes32 accountHash = 0xc5d2460186f7233c927e7db2dcc703c0e500b653ca82273b7bfad8045d85a470;\n        // solhint-disable-next-line no-inline-assembly\n        assembly { codehash := extcodehash(account) }\n        return (codehash != 0x0 && codehash != accountHash);\n    }\n    function toPayable(address account) internal pure returns (address payable) {\n        return address(uint160(account));\n    }\n    function sendValue(address payable recipient, uint256 amount) internal {\n        require(address(this).balance >= amount, \"Address: insufficient balance\");\n\n        // solhint-disable-next-line avoid-call-value\n        (bool success, ) = recipient.call.value(amount)(\"\");\n        require(success, \"Address: unable to send value, recipient may have reverted\");\n    }\n}\n\nlibrary SafeERC20 {\n    using SafeMath for uint256;\n    using Address for address;\n\n    function safeTransfer(IERC20 token, address to, uint256 value) internal {\n        callOptionalReturn(token, abi.encodeWithSelector(token.transfer.selector, to, value));\n    }\n    function safeTransferFrom(IERC20 token, address from, address to, uint256 value) internal {\n        callOptionalReturn(token, abi.encodeWithSelector(token.transferFrom.selector, from, to, value));\n    }\n    function safeApprove(IERC20 token, address spender, uint256 value) internal {\n        require((value == 0) || (token.allowance(address(this), spender) == 0),\n            \"SafeERC20: approve from non-zero to non-zero allowance\"\n        );\n        callOptionalReturn(token, abi.encodeWithSelector(token.approve.selector, spender, value));\n    }\n    function callOptionalReturn(IERC20 token, bytes memory data) private {\n        require(address(token).isContract(), \"SafeERC20: call to non-contract\");\n\n        // solhint-disable-next-line avoid-low-level-calls\n        (bool success, bytes memory returndata) = address(token).call(data);\n        require(success, \"SafeERC20: low-level call failed\");\n\n        if (returndata.length > 0) { // Return data is optional\n            // solhint-disable-next-line max-line-length\n            require(abi.decode(returndata, (bool)), \"SafeERC20: ERC20 operation did not succeed\");\n        }\n    }\n}\n\ninterface yERC20 {\n  function withdraw(uint256 _amount) external;\n}\n\n// Solidity Interface\n\ninterface ICurveFi {\n\n  function remove_liquidity(\n    uint256 _amount,\n    uint256[4] calldata amounts\n  ) external;\n  function exchange(\n    int128 from, int128 to, uint256 _from_amount, uint256 _min_to_amount\n  ) external;\n}\n\ncontract yCurveZapOutV4 is ReentrancyGuard, Ownable {\n  using SafeERC20 for IERC20;\n  using Address for address;\n  using SafeMath for uint256;\n\n  address public DAI;\n  address public yDAI;\n  address public USDC;\n  address public yUSDC;\n  address public USDT;\n  address public yUSDT;\n  address public BUSD;\n  address public yBUSD;\n  address public SWAP;\n  address public CURVE;\n\n  constructor () public {\n    DAI = address(0x6B175474E89094C44Da98b954EedeAC495271d0F);\n    yDAI = address(0xC2cB1040220768554cf699b0d863A3cd4324ce32);\n\n    USDC = address(0xA0b86991c6218b36c1d19D4a2e9Eb0cE3606eB48);\n    yUSDC = address(0xf7c9C5B31F12701dD2dD65AAdF6116ee6aB81BB4);\n\n    USDT = address(0xdAC17F958D2ee523a2206206994597C13D831ec7);\n    yUSDT = address(0xE6354ed5bC4b393a5Aad09f21c46E101e692d447);\n\n    BUSD = address(0x4Fabb145d64652a948d72533023f6E7A623C7C53);\n    yBUSD = address(0x04bC0Ab673d88aE9dbC9DA2380cB6B79C4BCa9aE);\n\n    SWAP = address(0xDc31F5C17254A89D53a1248195f239618c96838e);\n    CURVE = address(0xb241A8c2FA87De870c7cBB29bebe70Ec1eE7188F);\n\n    approveToken();\n  }\n\n  function() external payable {\n\n  }\n\n  function approveToken() public {\n      IERC20(yDAI).safeApprove(SWAP, uint(-1));\n      IERC20(yUSDC).safeApprove(SWAP, uint(-1));\n      IERC20(yUSDT).safeApprove(SWAP, uint(-1));\n      IERC20(yBUSD).safeApprove(SWAP, uint(-1));\n  }\n\n  // 0 = dai\n  // 1 = usdc\n  // 2 = usdt\n  // 3 = busd\n\n  function withdrawDAI(uint256 _amount)\n      external\n      nonReentrant\n  {\n      require(_amount > 0, \"deposit must be greater than 0\");\n      IERC20(CURVE).safeTransferFrom(msg.sender, address(this), _amount);\n\n      ICurveFi(SWAP).remove_liquidity(IERC20(CURVE).balanceOf(address(this)), [uint256(0),0,0,0]);\n      require(IERC20(CURVE).balanceOf(address(this)) == 0, \"CURVE remainder\");\n\n      uint256 _ydai = IERC20(yDAI).balanceOf(address(this));\n      uint256 _yusdc = IERC20(yUSDC).balanceOf(address(this));\n      uint256 _yusdt = IERC20(yUSDT).balanceOf(address(this));\n      uint256 _ybusd = IERC20(yBUSD).balanceOf(address(this));\n\n      require(_ydai > 0 || _yusdc > 0 || _yusdt > 0 || _ybusd > 0, \"no y.tokens found\");\n\n      if (_yusdc > 0) {\n        ICurveFi(SWAP).exchange(1, 0, _yusdc, 0);\n        require(IERC20(yUSDC).balanceOf(address(this)) == 0, \"y.USDC remainder\");\n      }\n      if (_yusdt > 0) {\n        ICurveFi(SWAP).exchange(2, 0, _yusdt, 0);\n        require(IERC20(yUSDT).balanceOf(address(this)) == 0, \"y.USDT remainder\");\n      }\n      if (_ybusd > 0) {\n        ICurveFi(SWAP).exchange(3, 0, _ybusd, 0);\n        require(IERC20(yBUSD).balanceOf(address(this)) == 0, \"y.BUSD remainder\");\n      }\n\n      yERC20(yDAI).withdraw(IERC20(yDAI).balanceOf(address(this)));\n      require(IERC20(yDAI).balanceOf(address(this)) == 0, \"y.DAI remainder\");\n\n      IERC20(DAI).safeTransfer(msg.sender, IERC20(DAI).balanceOf(address(this)));\n      require(IERC20(DAI).balanceOf(address(this)) == 0, \"DAI remainder\");\n  }\n\n  function withdrawUSDC(uint256 _amount)\n      external\n      nonReentrant\n  {\n      require(_amount > 0, \"deposit must be greater than 0\");\n      IERC20(CURVE).safeTransferFrom(msg.sender, address(this), _amount);\n\n      ICurveFi(SWAP).remove_liquidity(IERC20(CURVE).balanceOf(address(this)), [uint256(0),0,0,0]);\n      require(IERC20(CURVE).balanceOf(address(this)) == 0, \"CURVE remainder\");\n\n      uint256 _ydai = IERC20(yDAI).balanceOf(address(this));\n      uint256 _yusdc = IERC20(yUSDC).balanceOf(address(this));\n      uint256 _yusdt = IERC20(yUSDT).balanceOf(address(this));\n      uint256 _ybusd = IERC20(yBUSD).balanceOf(address(this));\n\n      require(_ydai > 0 || _yusdc > 0 || _yusdt > 0 || _ybusd > 0, \"no y.tokens found\");\n\n      if (_ydai > 0) {\n        ICurveFi(SWAP).exchange(0, 1, _ydai, 0);\n        require(IERC20(yDAI).balanceOf(address(this)) == 0, \"y.DAI remainder\");\n      }\n      if (_yusdt > 0) {\n        ICurveFi(SWAP).exchange(2, 1, _yusdt, 0);\n        require(IERC20(yUSDT).balanceOf(address(this)) == 0, \"y.USDT remainder\");\n      }\n      if (_ybusd > 0) {\n        ICurveFi(SWAP).exchange(3, 1, _ybusd, 0);\n        require(IERC20(yBUSD).balanceOf(address(this)) == 0, \"y.BUSD remainder\");\n      }\n\n      yERC20(yUSDC).withdraw(IERC20(yUSDC).balanceOf(address(this)));\n      require(IERC20(yUSDC).balanceOf(address(this)) == 0, \"y.USDC remainder\");\n\n      IERC20(USDC).safeTransfer(msg.sender, IERC20(USDC).balanceOf(address(this)));\n      require(IERC20(USDC).balanceOf(address(this)) == 0, \"USDC remainder\");\n  }\n\n  function withdrawUSDT(uint256 _amount)\n      external\n      nonReentrant\n  {\n      require(_amount > 0, \"deposit must be greater than 0\");\n      IERC20(CURVE).safeTransferFrom(msg.sender, address(this), _amount);\n\n      ICurveFi(SWAP).remove_liquidity(IERC20(CURVE).balanceOf(address(this)), [uint256(0),0,0,0]);\n      require(IERC20(CURVE).balanceOf(address(this)) == 0, \"CURVE remainder\");\n\n      uint256 _ydai = IERC20(yDAI).balanceOf(address(this));\n      uint256 _yusdc = IERC20(yUSDC).balanceOf(address(this));\n      uint256 _yusdt = IERC20(yUSDT).balanceOf(address(this));\n      uint256 _ybusd = IERC20(yBUSD).balanceOf(address(this));\n\n      require(_ydai > 0 || _yusdc > 0 || _yusdt > 0 || _ybusd > 0, \"no y.tokens found\");\n\n      if (_ydai > 0) {\n        ICurveFi(SWAP).exchange(0, 2, _ydai, 0);\n        require(IERC20(yDAI).balanceOf(address(this)) == 0, \"y.DAI remainder\");\n      }\n      if (_yusdc > 0) {\n        ICurveFi(SWAP).exchange(1, 2, _yusdc, 0);\n        require(IERC20(yUSDC).balanceOf(address(this)) == 0, \"y.USDC remainder\");\n      }\n      if (_ybusd > 0) {\n        ICurveFi(SWAP).exchange(3, 2, _ybusd, 0);\n        require(IERC20(yBUSD).balanceOf(address(this)) == 0, \"y.BUSD remainder\");\n      }\n\n      yERC20(yUSDT).withdraw(IERC20(yUSDT).balanceOf(address(this)));\n      require(IERC20(yUSDT).balanceOf(address(this)) == 0, \"y.USDT remainder\");\n\n      IERC20(USDT).safeTransfer(msg.sender, IERC20(USDT).balanceOf(address(this)));\n      require(IERC20(USDT).balanceOf(address(this)) == 0, \"USDT remainder\");\n  }\n\n  function withdrawBUSD(uint256 _amount)\n      external\n      nonReentrant\n  {\n      require(_amount > 0, \"deposit must be greater than 0\");\n      IERC20(CURVE).safeTransferFrom(msg.sender, address(this), _amount);\n\n      ICurveFi(SWAP).remove_liquidity(IERC20(CURVE).balanceOf(address(this)), [uint256(0),0,0,0]);\n      require(IERC20(CURVE).balanceOf(address(this)) == 0, \"CURVE remainder\");\n\n      uint256 _ydai = IERC20(yDAI).balanceOf(address(this));\n      uint256 _yusdc = IERC20(yUSDC).balanceOf(address(this));\n      uint256 _yusdt = IERC20(yUSDT).balanceOf(address(this));\n      uint256 _ybusd = IERC20(yBUSD).balanceOf(address(this));\n\n      require(_ydai > 0 || _yusdc > 0 || _yusdt > 0 || _ybusd > 0, \"no y.tokens found\");\n\n      if (_ydai > 0) {\n        ICurveFi(SWAP).exchange(0, 3, _ydai, 0);\n        require(IERC20(yDAI).balanceOf(address(this)) == 0, \"y.DAI remainder\");\n      }\n      if (_yusdc > 0) {\n        ICurveFi(SWAP).exchange(1, 3, _yusdc, 0);\n        require(IERC20(yUSDC).balanceOf(address(this)) == 0, \"y.USDC remainder\");\n      }\n      if (_yusdt > 0) {\n        ICurveFi(SWAP).exchange(2, 3, _yusdt, 0);\n        require(IERC20(yUSDT).balanceOf(address(this)) == 0, \"y.USDT remainder\");\n      }\n\n      yERC20(yBUSD).withdraw(IERC20(yBUSD).balanceOf(address(this)));\n      require(IERC20(yBUSD).balanceOf(address(this)) == 0, \"y.BUSD remainder\");\n\n      IERC20(BUSD).safeTransfer(msg.sender, IERC20(BUSD).balanceOf(address(this)));\n      require(IERC20(BUSD).balanceOf(address(this)) == 0, \"BUSD remainder\");\n  }\n\n  // incase of half-way error\n  function inCaseTokenGetsStuck(IERC20 _TokenAddress) onlyOwner public {\n      uint qty = _TokenAddress.balanceOf(address(this));\n      _TokenAddress.safeTransfer(msg.sender, qty);\n  }\n\n  // incase of half-way error\n  function inCaseETHGetsStuck() onlyOwner public{\n      (bool result, ) = msg.sender.call.value(address(this).balance)(\"\");\n      require(result, \"transfer of ETH failed\");\n  }\n}\n",
  "sourcePath": "D:/ftm/itoken/contracts/yCurveZapOutV4.sol",
  "compiler": {
    "name": "solc",
    "version": "0.5.12+commit.7709ece9.Emscripten.clang"
  },
  "schemaVersion": "3.0.19",
  "updatedAt": "2020-02-27T11:29:42.551Z",
  "devdoc": {
    "methods": {}
  },
  "userdoc": {
    "methods": {}
  }
}