{
  "contractName": "yCurveZapOutV4",
  "abi": [
    {
      "inputs": [],
      "payable": false,
      "stateMutability": "nonpayable",
      "type": "constructor"
    },
    {
      "anonymous": false,
      "inputs": [
        {
          "indexed": true,
          "internalType": "address",
          "name": "previousOwner",
          "type": "address"
        },
        {
          "indexed": true,
          "internalType": "address",
          "name": "newOwner",
          "type": "address"
        }
      ],
      "name": "OwnershipTransferred",
      "type": "event"
    },
    {
      "payable": true,
      "stateMutability": "payable",
      "type": "fallback"
    },
    {
      "constant": true,
      "inputs": [],
      "name": "BUSD",
      "outputs": [
        {
          "internalType": "address",
          "name": "",
          "type": "address"
        }
      ],
      "payable": false,
      "stateMutability": "view",
      "type": "function"
    },
    {
      "constant": true,
      "inputs": [],
      "name": "CURVE",
      "outputs": [
        {
          "internalType": "address",
          "name": "",
          "type": "address"
        }
      ],
      "payable": false,
      "stateMutability": "view",
      "type": "function"
    },
    {
      "constant": true,
      "inputs": [],
      "name": "DAI",
      "outputs": [
        {
          "internalType": "address",
          "name": "",
          "type": "address"
        }
      ],
      "payable": false,
      "stateMutability": "view",
      "type": "function"
    },
    {
      "constant": true,
      "inputs": [],
      "name": "SWAP",
      "outputs": [
        {
          "internalType": "address",
          "name": "",
          "type": "address"
        }
      ],
      "payable": false,
      "stateMutability": "view",
      "type": "function"
    },
    {
      "constant": true,
      "inputs": [],
      "name": "USDC",
      "outputs": [
        {
          "internalType": "address",
          "name": "",
          "type": "address"
        }
      ],
      "payable": false,
      "stateMutability": "view",
      "type": "function"
    },
    {
      "constant": true,
      "inputs": [],
      "name": "USDT",
      "outputs": [
        {
          "internalType": "address",
          "name": "",
          "type": "address"
        }
      ],
      "payable": false,
      "stateMutability": "view",
      "type": "function"
    },
    {
      "constant": true,
      "inputs": [],
      "name": "isOwner",
      "outputs": [
        {
          "internalType": "bool",
          "name": "",
          "type": "bool"
        }
      ],
      "payable": false,
      "stateMutability": "view",
      "type": "function"
    },
    {
      "constant": true,
      "inputs": [],
      "name": "owner",
      "outputs": [
        {
          "internalType": "address",
          "name": "",
          "type": "address"
        }
      ],
      "payable": false,
      "stateMutability": "view",
      "type": "function"
    },
    {
      "constant": false,
      "inputs": [],
      "name": "renounceOwnership",
      "outputs": [],
      "payable": false,
      "stateMutability": "nonpayable",
      "type": "function"
    },
    {
      "constant": false,
      "inputs": [
        {
          "internalType": "address",
          "name": "newOwner",
          "type": "address"
        }
      ],
      "name": "transferOwnership",
      "outputs": [],
      "payable": false,
      "stateMutability": "nonpayable",
      "type": "function"
    },
    {
      "constant": true,
      "inputs": [],
      "name": "yBUSD",
      "outputs": [
        {
          "internalType": "address",
          "name": "",
          "type": "address"
        }
      ],
      "payable": false,
      "stateMutability": "view",
      "type": "function"
    },
    {
      "constant": true,
      "inputs": [],
      "name": "yDAI",
      "outputs": [
        {
          "internalType": "address",
          "name": "",
          "type": "address"
        }
      ],
      "payable": false,
      "stateMutability": "view",
      "type": "function"
    },
    {
      "constant": true,
      "inputs": [],
      "name": "yUSDC",
      "outputs": [
        {
          "internalType": "address",
          "name": "",
          "type": "address"
        }
      ],
      "payable": false,
      "stateMutability": "view",
      "type": "function"
    },
    {
      "constant": true,
      "inputs": [],
      "name": "yUSDT",
      "outputs": [
        {
          "internalType": "address",
          "name": "",
          "type": "address"
        }
      ],
      "payable": false,
      "stateMutability": "view",
      "type": "function"
    },
    {
      "constant": false,
      "inputs": [],
      "name": "approveToken",
      "outputs": [],
      "payable": false,
      "stateMutability": "nonpayable",
      "type": "function"
    },
    {
      "constant": false,
      "inputs": [
        {
          "internalType": "uint256",
          "name": "_amount",
          "type": "uint256"
        }
      ],
      "name": "withdrawDAI",
      "outputs": [],
      "payable": false,
      "stateMutability": "nonpayable",
      "type": "function"
    },
    {
      "constant": false,
      "inputs": [
        {
          "internalType": "uint256",
          "name": "_amount",
          "type": "uint256"
        }
      ],
      "name": "withdrawUSDC",
      "outputs": [],
      "payable": false,
      "stateMutability": "nonpayable",
      "type": "function"
    },
    {
      "constant": false,
      "inputs": [
        {
          "internalType": "uint256",
          "name": "_amount",
          "type": "uint256"
        }
      ],
      "name": "withdrawUSDT",
      "outputs": [],
      "payable": false,
      "stateMutability": "nonpayable",
      "type": "function"
    },
    {
      "constant": false,
      "inputs": [
        {
          "internalType": "uint256",
          "name": "_amount",
          "type": "uint256"
        }
      ],
      "name": "withdrawBUSD",
      "outputs": [],
      "payable": false,
      "stateMutability": "nonpayable",
      "type": "function"
    },
    {
      "constant": false,
      "inputs": [
        {
          "internalType": "contract IERC20",
          "name": "_TokenAddress",
          "type": "address"
        }
      ],
      "name": "inCaseTokenGetsStuck",
      "outputs": [],
      "payable": false,
      "stateMutability": "nonpayable",
      "type": "function"
    },
    {
      "constant": false,
      "inputs": [],
      "name": "inCaseETHGetsStuck",
      "outputs": [],
      "payable": false,
      "stateMutability": "nonpayable",
      "type": "function"
    }
  ],
  "bytecode": "0x60806040523480156200001157600080fd5b5060016000819055506200002a6200044f60201b60201c565b600160006101000a81548173ffffffffffffffffffffffffffffffffffffffff021916908373ffffffffffffffffffffffffffffffffffffffff160217905550600160009054906101000a900473ffffffffffffffffffffffffffffffffffffffff1673ffffffffffffffffffffffffffffffffffffffff16600073ffffffffffffffffffffffffffffffffffffffff167f8be0079c531659141344cd1fd0a4f28419497f9722a3daafe3b4186f6b6457e060405160405180910390a3736b175474e89094c44da98b954eedeac495271d0f600260006101000a81548173ffffffffffffffffffffffffffffffffffffffff021916908373ffffffffffffffffffffffffffffffffffffffff16021790555073c2cb1040220768554cf699b0d863a3cd4324ce32600360006101000a81548173ffffffffffffffffffffffffffffffffffffffff021916908373ffffffffffffffffffffffffffffffffffffffff16021790555073a0b86991c6218b36c1d19d4a2e9eb0ce3606eb48600460006101000a81548173ffffffffffffffffffffffffffffffffffffffff021916908373ffffffffffffffffffffffffffffffffffffffff1602179055507326ea744e5b887e5205727f55dfbe8685e3b21951600560006101000a81548173ffffffffffffffffffffffffffffffffffffffff021916908373ffffffffffffffffffffffffffffffffffffffff16021790555073dac17f958d2ee523a2206206994597c13d831ec7600660006101000a81548173ffffffffffffffffffffffffffffffffffffffff021916908373ffffffffffffffffffffffffffffffffffffffff16021790555073e6354ed5bc4b393a5aad09f21c46e101e692d447600760006101000a81548173ffffffffffffffffffffffffffffffffffffffff021916908373ffffffffffffffffffffffffffffffffffffffff160217905550734fabb145d64652a948d72533023f6e7a623c7c53600860006101000a81548173ffffffffffffffffffffffffffffffffffffffff021916908373ffffffffffffffffffffffffffffffffffffffff1602179055507304bc0ab673d88ae9dbc9da2380cb6b79c4bca9ae600960006101000a81548173ffffffffffffffffffffffffffffffffffffffff021916908373ffffffffffffffffffffffffffffffffffffffff1602179055507379a8c46dea5ada233abaffd40f3a0a2b1e5a4f27600a60006101000a81548173ffffffffffffffffffffffffffffffffffffffff021916908373ffffffffffffffffffffffffffffffffffffffff160217905550733b3ac5386837dc563660fb6a0937dfaa5924333b600b60006101000a81548173ffffffffffffffffffffffffffffffffffffffff021916908373ffffffffffffffffffffffffffffffffffffffff160217905550620004496200045760201b60201c565b62000e20565b600033905090565b620004ed600a60009054906101000a900473ffffffffffffffffffffffffffffffffffffffff167fffffffffffffffffffffffffffffffffffffffffffffffffffffffffffffffff600360009054906101000a900473ffffffffffffffffffffffffffffffffffffffff1673ffffffffffffffffffffffffffffffffffffffff16620006b160201b6200505b179092919060201c565b62000583600a60009054906101000a900473ffffffffffffffffffffffffffffffffffffffff167fffffffffffffffffffffffffffffffffffffffffffffffffffffffffffffffff600560009054906101000a900473ffffffffffffffffffffffffffffffffffffffff1673ffffffffffffffffffffffffffffffffffffffff16620006b160201b6200505b179092919060201c565b62000619600a60009054906101000a900473ffffffffffffffffffffffffffffffffffffffff167fffffffffffffffffffffffffffffffffffffffffffffffffffffffffffffffff600760009054906101000a900473ffffffffffffffffffffffffffffffffffffffff1673ffffffffffffffffffffffffffffffffffffffff16620006b160201b6200505b179092919060201c565b620006af600a60009054906101000a900473ffffffffffffffffffffffffffffffffffffffff167fffffffffffffffffffffffffffffffffffffffffffffffffffffffffffffffff600960009054906101000a900473ffffffffffffffffffffffffffffffffffffffff1673ffffffffffffffffffffffffffffffffffffffff16620006b160201b6200505b179092919060201c565b565b600081148062000751575060008373ffffffffffffffffffffffffffffffffffffffff1663dd62ed3e30856040518363ffffffff1660e01b8152600401620006fb92919062000c63565b60206040518083038186803b1580156200071457600080fd5b505afa15801562000729573d6000803e3d6000fd5b505050506040513d601f19601f820116820180604052506200074f919081019062000a71565b145b62000793576040517f08c379a00000000000000000000000000000000000000000000000000000000081526004016200078a9062000d01565b60405180910390fd5b62000837838473ffffffffffffffffffffffffffffffffffffffff1663095ea7b3905060e01b8484604051602401620007ce92919062000c90565b604051602081830303815290604052907bffffffffffffffffffffffffffffffffffffffffffffffffffffffff19166020820180517bffffffffffffffffffffffffffffffffffffffffffffffffffffffff83818316178352505050506200083c60201b60201c565b505050565b620008688273ffffffffffffffffffffffffffffffffffffffff16620009cb60201b620055301760201c565b620008aa576040517f08c379a0000000000000000000000000000000000000000000000000000000008152600401620008a19062000d23565b60405180910390fd5b600060608373ffffffffffffffffffffffffffffffffffffffff1683604051620008d5919062000c4a565b6000604051808303816000865af19150503d806000811462000914576040519150601f19603f3d011682016040523d82523d6000602084013e62000919565b606091505b50915091508162000961576040517f08c379a0000000000000000000000000000000000000000000000000000000008152600401620009589062000cbd565b60405180910390fd5b600081511115620009c5578080602001905162000982919081019062000a45565b620009c4576040517f08c379a0000000000000000000000000000000000000000000000000000000008152600401620009bb9062000cdf565b60405180910390fd5b5b50505050565b60008060007fc5d2460186f7233c927e7db2dcc703c0e500b653ca82273b7bfad8045d85a47060001b9050833f91506000801b821415801562000a0e5750808214155b92505050919050565b60008151905062000a288162000dec565b92915050565b60008151905062000a3f8162000e06565b92915050565b60006020828403121562000a5857600080fd5b600062000a688482850162000a17565b91505092915050565b60006020828403121562000a8457600080fd5b600062000a948482850162000a2e565b91505092915050565b62000aa88162000d6c565b82525050565b600062000abb8262000d45565b62000ac7818562000d50565b935062000ad981856020860162000db6565b80840191505092915050565b600062000af460208362000d5b565b91507f5361666545524332303a206c6f772d6c6576656c2063616c6c206661696c65646000830152602082019050919050565b600062000b36602a8362000d5b565b91507f5361666545524332303a204552433230206f7065726174696f6e20646964206e60008301527f6f742073756363656564000000000000000000000000000000000000000000006020830152604082019050919050565b600062000b9e60368362000d5b565b91507f5361666545524332303a20617070726f76652066726f6d206e6f6e2d7a65726f60008301527f20746f206e6f6e2d7a65726f20616c6c6f77616e6365000000000000000000006020830152604082019050919050565b600062000c06601f8362000d5b565b91507f5361666545524332303a2063616c6c20746f206e6f6e2d636f6e7472616374006000830152602082019050919050565b62000c448162000dac565b82525050565b600062000c58828462000aae565b915081905092915050565b600060408201905062000c7a600083018562000a9d565b62000c89602083018462000a9d565b9392505050565b600060408201905062000ca7600083018562000a9d565b62000cb6602083018462000c39565b9392505050565b6000602082019050818103600083015262000cd88162000ae5565b9050919050565b6000602082019050818103600083015262000cfa8162000b27565b9050919050565b6000602082019050818103600083015262000d1c8162000b8f565b9050919050565b6000602082019050818103600083015262000d3e8162000bf7565b9050919050565b600081519050919050565b600081905092915050565b600082825260208201905092915050565b600062000d798262000d8c565b9050919050565b60008115159050919050565b600073ffffffffffffffffffffffffffffffffffffffff82169050919050565b6000819050919050565b60005b8381101562000dd657808201518184015260208101905062000db9565b8381111562000de6576000848401525b50505050565b62000df78162000d80565b811462000e0357600080fd5b50565b62000e118162000dac565b811462000e1d57600080fd5b50565b6167f38062000e306000396000f3fe60806040526004361061012a5760003560e01c806389a30271116100ab578063c54e44eb1161006f578063c54e44eb14610383578063cc3bcaf3146103ae578063db81f99b146103d7578063e0bab4c414610400578063f2fde38b1461042b578063f60a15ed146104545761012a565b806389a30271146102c25780638da5cb5b146102ed5780638f32d59b1461031857806399b71d5c146103435780639add74381461035a5761012a565b80633a3c3b87116100f25780633a3c3b87146102015780633ea521ef1461022c578063484f4ea914610255578063715018a614610280578063756bb1cc146102975761012a565b806304d841081461012c57806306bafb491461015757806317e5a9a41461018257806319d9e008146101ad5780632e8d6e18146101d8575b005b34801561013857600080fd5b5061014161046b565b60405161014e9190615e7e565b60405180910390f35b34801561016357600080fd5b5061016c610491565b6040516101799190615e7e565b60405180910390f35b34801561018e57600080fd5b506101976104b7565b6040516101a49190615e7e565b60405180910390f35b3480156101b957600080fd5b506101c26104dd565b6040516101cf9190615e7e565b60405180910390f35b3480156101e457600080fd5b506101ff60048036036101fa9190810190615636565b610503565b005b34801561020d57600080fd5b50610216610606565b6040516102239190615e7e565b60405180910390f35b34801561023857600080fd5b50610253600480360361024e919081019061565f565b61062c565b005b34801561026157600080fd5b5061026a611694565b6040516102779190615e7e565b60405180910390f35b34801561028c57600080fd5b506102956116ba565b005b3480156102a357600080fd5b506102ac6117c2565b6040516102b99190615e7e565b60405180910390f35b3480156102ce57600080fd5b506102d76117e8565b6040516102e49190615e7e565b60405180910390f35b3480156102f957600080fd5b5061030261180e565b60405161030f9190615e7e565b60405180910390f35b34801561032457600080fd5b5061032d611838565b60405161033a9190615f3d565b60405180910390f35b34801561034f57600080fd5b50610358611897565b005b34801561036657600080fd5b50610381600480360361037c919081019061565f565b611ad5565b005b34801561038f57600080fd5b50610398612b3d565b6040516103a59190615e7e565b60405180910390f35b3480156103ba57600080fd5b506103d560048036036103d0919081019061565f565b612b63565b005b3480156103e357600080fd5b506103fe60048036036103f9919081019061565f565b613bcb565b005b34801561040c57600080fd5b50610415614c33565b6040516104229190615e7e565b60405180910390f35b34801561043757600080fd5b50610452600480360361044d91908101906155e4565b614c59565b005b34801561046057600080fd5b50610469614cac565b005b600a60009054906101000a900473ffffffffffffffffffffffffffffffffffffffff1681565b600960009054906101000a900473ffffffffffffffffffffffffffffffffffffffff1681565b600760009054906101000a900473ffffffffffffffffffffffffffffffffffffffff1681565b600560009054906101000a900473ffffffffffffffffffffffffffffffffffffffff1681565b61050b611838565b61054a576040517f08c379a000000000000000000000000000000000000000000000000000000000815260040161054190616456565b60405180910390fd5b60008173ffffffffffffffffffffffffffffffffffffffff166370a08231306040518263ffffffff1660e01b81526004016105859190615e99565b60206040518083038186803b15801561059d57600080fd5b505afa1580156105b1573d6000803e3d6000fd5b505050506040513d601f19601f820116820180604052506105d59190810190615688565b905061060233828473ffffffffffffffffffffffffffffffffffffffff16614db99092919063ffffffff16565b5050565b600b60009054906101000a900473ffffffffffffffffffffffffffffffffffffffff1681565b6001600080828254019250508190555060008054905060008211610685576040517f08c379a000000000000000000000000000000000000000000000000000000000815260040161067c90616496565b60405180910390fd5b6106d4333084600b60009054906101000a900473ffffffffffffffffffffffffffffffffffffffff1673ffffffffffffffffffffffffffffffffffffffff16614e58909392919063ffffffff16565b600a60009054906101000a900473ffffffffffffffffffffffffffffffffffffffff1673ffffffffffffffffffffffffffffffffffffffff16637d49d875600b60009054906101000a900473ffffffffffffffffffffffffffffffffffffffff1673ffffffffffffffffffffffffffffffffffffffff166370a08231306040518263ffffffff1660e01b815260040161076d9190615e99565b60206040518083038186803b15801561078557600080fd5b505afa158015610799573d6000803e3d6000fd5b505050506040513d601f19601f820116820180604052506107bd9190810190615688565b604051806080016040528060008152602001600081526020016000815260200160008152506040518363ffffffff1660e01b81526004016107ff929190616591565b600060405180830381600087803b15801561081957600080fd5b505af115801561082d573d6000803e3d6000fd5b505050506000600b60009054906101000a900473ffffffffffffffffffffffffffffffffffffffff1673ffffffffffffffffffffffffffffffffffffffff166370a08231306040518263ffffffff1660e01b815260040161088e9190615e99565b60206040518083038186803b1580156108a657600080fd5b505afa1580156108ba573d6000803e3d6000fd5b505050506040513d601f19601f820116820180604052506108de9190810190615688565b1461091e576040517f08c379a0000000000000000000000000000000000000000000000000000000008152600401610915906163f6565b60405180910390fd5b6000600360009054906101000a900473ffffffffffffffffffffffffffffffffffffffff1673ffffffffffffffffffffffffffffffffffffffff166370a08231306040518263ffffffff1660e01b815260040161097b9190615e99565b60206040518083038186803b15801561099357600080fd5b505afa1580156109a7573d6000803e3d6000fd5b505050506040513d601f19601f820116820180604052506109cb9190810190615688565b90506000600560009054906101000a900473ffffffffffffffffffffffffffffffffffffffff1673ffffffffffffffffffffffffffffffffffffffff166370a08231306040518263ffffffff1660e01b8152600401610a2a9190615e99565b60206040518083038186803b158015610a4257600080fd5b505afa158015610a56573d6000803e3d6000fd5b505050506040513d601f19601f82011682018060405250610a7a9190810190615688565b90506000600760009054906101000a900473ffffffffffffffffffffffffffffffffffffffff1673ffffffffffffffffffffffffffffffffffffffff166370a08231306040518263ffffffff1660e01b8152600401610ad99190615e99565b60206040518083038186803b158015610af157600080fd5b505afa158015610b05573d6000803e3d6000fd5b505050506040513d601f19601f82011682018060405250610b299190810190615688565b90506000600960009054906101000a900473ffffffffffffffffffffffffffffffffffffffff1673ffffffffffffffffffffffffffffffffffffffff166370a08231306040518263ffffffff1660e01b8152600401610b889190615e99565b60206040518083038186803b158015610ba057600080fd5b505afa158015610bb4573d6000803e3d6000fd5b505050506040513d601f19601f82011682018060405250610bd89190810190615688565b90506000841180610be95750600083115b80610bf45750600082115b80610bff5750600081115b610c3e576040517f08c379a0000000000000000000000000000000000000000000000000000000008152600401610c35906162d6565b60405180910390fd5b6000841115610dcb57600a60009054906101000a900473ffffffffffffffffffffffffffffffffffffffff1673ffffffffffffffffffffffffffffffffffffffff16633df02124600060028760006040518563ffffffff1660e01b8152600401610cab9493929190615f9d565b600060405180830381600087803b158015610cc557600080fd5b505af1158015610cd9573d6000803e3d6000fd5b505050506000600360009054906101000a900473ffffffffffffffffffffffffffffffffffffffff1673ffffffffffffffffffffffffffffffffffffffff166370a08231306040518263ffffffff1660e01b8152600401610d3a9190615e99565b60206040518083038186803b158015610d5257600080fd5b505afa158015610d66573d6000803e3d6000fd5b505050506040513d601f19601f82011682018060405250610d8a9190810190615688565b14610dca576040517f08c379a0000000000000000000000000000000000000000000000000000000008152600401610dc190616516565b60405180910390fd5b5b6000831115610f5857600a60009054906101000a900473ffffffffffffffffffffffffffffffffffffffff1673ffffffffffffffffffffffffffffffffffffffff16633df02124600160028660006040518563ffffffff1660e01b8152600401610e38949392919061606c565b600060405180830381600087803b158015610e5257600080fd5b505af1158015610e66573d6000803e3d6000fd5b505050506000600560009054906101000a900473ffffffffffffffffffffffffffffffffffffffff1673ffffffffffffffffffffffffffffffffffffffff166370a08231306040518263ffffffff1660e01b8152600401610ec79190615e99565b60206040518083038186803b158015610edf57600080fd5b505afa158015610ef3573d6000803e3d6000fd5b505050506040513d601f19601f82011682018060405250610f179190810190615688565b14610f57576040517f08c379a0000000000000000000000000000000000000000000000000000000008152600401610f4e906163b6565b60405180910390fd5b5b60008111156110e557600a60009054906101000a900473ffffffffffffffffffffffffffffffffffffffff1673ffffffffffffffffffffffffffffffffffffffff16633df02124600360028460006040518563ffffffff1660e01b8152600401610fc5949392919061624f565b600060405180830381600087803b158015610fdf57600080fd5b505af1158015610ff3573d6000803e3d6000fd5b505050506000600960009054906101000a900473ffffffffffffffffffffffffffffffffffffffff1673ffffffffffffffffffffffffffffffffffffffff166370a08231306040518263ffffffff1660e01b81526004016110549190615e99565b60206040518083038186803b15801561106c57600080fd5b505afa158015611080573d6000803e3d6000fd5b505050506040513d601f19601f820116820180604052506110a49190810190615688565b146110e4576040517f08c379a00000000000000000000000000000000000000000000000000000000081526004016110db90616436565b60405180910390fd5b5b600760009054906101000a900473ffffffffffffffffffffffffffffffffffffffff1673ffffffffffffffffffffffffffffffffffffffff16632e1a7d4d600760009054906101000a900473ffffffffffffffffffffffffffffffffffffffff1673ffffffffffffffffffffffffffffffffffffffff166370a08231306040518263ffffffff1660e01b815260040161117e9190615e99565b60206040518083038186803b15801561119657600080fd5b505afa1580156111aa573d6000803e3d6000fd5b505050506040513d601f19601f820116820180604052506111ce9190810190615688565b6040518263ffffffff1660e01b81526004016111ea9190616576565b600060405180830381600087803b15801561120457600080fd5b505af1158015611218573d6000803e3d6000fd5b505050506000600760009054906101000a900473ffffffffffffffffffffffffffffffffffffffff1673ffffffffffffffffffffffffffffffffffffffff166370a08231306040518263ffffffff1660e01b81526004016112799190615e99565b60206040518083038186803b15801561129157600080fd5b505afa1580156112a5573d6000803e3d6000fd5b505050506040513d601f19601f820116820180604052506112c99190810190615688565b14611309576040517f08c379a000000000000000000000000000000000000000000000000000000000815260040161130090616396565b60405180910390fd5b6000600660009054906101000a900473ffffffffffffffffffffffffffffffffffffffff1673ffffffffffffffffffffffffffffffffffffffff166370a08231306040518263ffffffff1660e01b81526004016113669190615e99565b60206040518083038186803b15801561137e57600080fd5b505afa158015611392573d6000803e3d6000fd5b505050506040513d601f19601f820116820180604052506113b69190810190615688565b905060006113e160646113d360058b614efa90919063ffffffff16565b614f6a90919063ffffffff16565b905060006113f8828a614fb490919063ffffffff16565b9050600061140f838b614ffe90919063ffffffff16565b90508084111580156114215750818410155b611460576040517f08c379a0000000000000000000000000000000000000000000000000000000008152600401611457906164b6565b60405180910390fd5b61155733600660009054906101000a900473ffffffffffffffffffffffffffffffffffffffff1673ffffffffffffffffffffffffffffffffffffffff166370a08231306040518263ffffffff1660e01b81526004016114bf9190615e99565b60206040518083038186803b1580156114d757600080fd5b505afa1580156114eb573d6000803e3d6000fd5b505050506040513d601f19601f8201168201806040525061150f9190810190615688565b600660009054906101000a900473ffffffffffffffffffffffffffffffffffffffff1673ffffffffffffffffffffffffffffffffffffffff16614db99092919063ffffffff16565b6000600660009054906101000a900473ffffffffffffffffffffffffffffffffffffffff1673ffffffffffffffffffffffffffffffffffffffff166370a08231306040518263ffffffff1660e01b81526004016115b49190615e99565b60206040518083038186803b1580156115cc57600080fd5b505afa1580156115e0573d6000803e3d6000fd5b505050506040513d601f19601f820116820180604052506116049190810190615688565b14611644576040517f08c379a000000000000000000000000000000000000000000000000000000000815260040161163b90616336565b60405180910390fd5b50505050505050506000548114611690576040517f08c379a0000000000000000000000000000000000000000000000000000000008152600401611687906164f6565b60405180910390fd5b5050565b600860009054906101000a900473ffffffffffffffffffffffffffffffffffffffff1681565b6116c2611838565b611701576040517f08c379a00000000000000000000000000000000000000000000000000000000081526004016116f890616456565b60405180910390fd5b600073ffffffffffffffffffffffffffffffffffffffff16600160009054906101000a900473ffffffffffffffffffffffffffffffffffffffff1673ffffffffffffffffffffffffffffffffffffffff167f8be0079c531659141344cd1fd0a4f28419497f9722a3daafe3b4186f6b6457e060405160405180910390a36000600160006101000a81548173ffffffffffffffffffffffffffffffffffffffff021916908373ffffffffffffffffffffffffffffffffffffffff160217905550565b600360009054906101000a900473ffffffffffffffffffffffffffffffffffffffff1681565b600460009054906101000a900473ffffffffffffffffffffffffffffffffffffffff1681565b6000600160009054906101000a900473ffffffffffffffffffffffffffffffffffffffff16905090565b6000600160009054906101000a900473ffffffffffffffffffffffffffffffffffffffff1673ffffffffffffffffffffffffffffffffffffffff1661187b615053565b73ffffffffffffffffffffffffffffffffffffffff1614905090565b611926600a60009054906101000a900473ffffffffffffffffffffffffffffffffffffffff167fffffffffffffffffffffffffffffffffffffffffffffffffffffffffffffffff600360009054906101000a900473ffffffffffffffffffffffffffffffffffffffff1673ffffffffffffffffffffffffffffffffffffffff1661505b9092919063ffffffff16565b6119b5600a60009054906101000a900473ffffffffffffffffffffffffffffffffffffffff167fffffffffffffffffffffffffffffffffffffffffffffffffffffffffffffffff600560009054906101000a900473ffffffffffffffffffffffffffffffffffffffff1673ffffffffffffffffffffffffffffffffffffffff1661505b9092919063ffffffff16565b611a44600a60009054906101000a900473ffffffffffffffffffffffffffffffffffffffff167fffffffffffffffffffffffffffffffffffffffffffffffffffffffffffffffff600760009054906101000a900473ffffffffffffffffffffffffffffffffffffffff1673ffffffffffffffffffffffffffffffffffffffff1661505b9092919063ffffffff16565b611ad3600a60009054906101000a900473ffffffffffffffffffffffffffffffffffffffff167fffffffffffffffffffffffffffffffffffffffffffffffffffffffffffffffff600960009054906101000a900473ffffffffffffffffffffffffffffffffffffffff1673ffffffffffffffffffffffffffffffffffffffff1661505b9092919063ffffffff16565b565b6001600080828254019250508190555060008054905060008211611b2e576040517f08c379a0000000000000000000000000000000000000000000000000000000008152600401611b2590616496565b60405180910390fd5b611b7d333084600b60009054906101000a900473ffffffffffffffffffffffffffffffffffffffff1673ffffffffffffffffffffffffffffffffffffffff16614e58909392919063ffffffff16565b600a60009054906101000a900473ffffffffffffffffffffffffffffffffffffffff1673ffffffffffffffffffffffffffffffffffffffff16637d49d875600b60009054906101000a900473ffffffffffffffffffffffffffffffffffffffff1673ffffffffffffffffffffffffffffffffffffffff166370a08231306040518263ffffffff1660e01b8152600401611c169190615e99565b60206040518083038186803b158015611c2e57600080fd5b505afa158015611c42573d6000803e3d6000fd5b505050506040513d601f19601f82011682018060405250611c669190810190615688565b604051806080016040528060008152602001600081526020016000815260200160008152506040518363ffffffff1660e01b8152600401611ca8929190616591565b600060405180830381600087803b158015611cc257600080fd5b505af1158015611cd6573d6000803e3d6000fd5b505050506000600b60009054906101000a900473ffffffffffffffffffffffffffffffffffffffff1673ffffffffffffffffffffffffffffffffffffffff166370a08231306040518263ffffffff1660e01b8152600401611d379190615e99565b60206040518083038186803b158015611d4f57600080fd5b505afa158015611d63573d6000803e3d6000fd5b505050506040513d601f19601f82011682018060405250611d879190810190615688565b14611dc7576040517f08c379a0000000000000000000000000000000000000000000000000000000008152600401611dbe906163f6565b60405180910390fd5b6000600360009054906101000a900473ffffffffffffffffffffffffffffffffffffffff1673ffffffffffffffffffffffffffffffffffffffff166370a08231306040518263ffffffff1660e01b8152600401611e249190615e99565b60206040518083038186803b158015611e3c57600080fd5b505afa158015611e50573d6000803e3d6000fd5b505050506040513d601f19601f82011682018060405250611e749190810190615688565b90506000600560009054906101000a900473ffffffffffffffffffffffffffffffffffffffff1673ffffffffffffffffffffffffffffffffffffffff166370a08231306040518263ffffffff1660e01b8152600401611ed39190615e99565b60206040518083038186803b158015611eeb57600080fd5b505afa158015611eff573d6000803e3d6000fd5b505050506040513d601f19601f82011682018060405250611f239190810190615688565b90506000600760009054906101000a900473ffffffffffffffffffffffffffffffffffffffff1673ffffffffffffffffffffffffffffffffffffffff166370a08231306040518263ffffffff1660e01b8152600401611f829190615e99565b60206040518083038186803b158015611f9a57600080fd5b505afa158015611fae573d6000803e3d6000fd5b505050506040513d601f19601f82011682018060405250611fd29190810190615688565b90506000600960009054906101000a900473ffffffffffffffffffffffffffffffffffffffff1673ffffffffffffffffffffffffffffffffffffffff166370a08231306040518263ffffffff1660e01b81526004016120319190615e99565b60206040518083038186803b15801561204957600080fd5b505afa15801561205d573d6000803e3d6000fd5b505050506040513d601f19601f820116820180604052506120819190810190615688565b905060008411806120925750600083115b8061209d5750600082115b806120a85750600081115b6120e7576040517f08c379a00000000000000000000000000000000000000000000000000000000081526004016120de906162d6565b60405180910390fd5b600083111561227457600a60009054906101000a900473ffffffffffffffffffffffffffffffffffffffff1673ffffffffffffffffffffffffffffffffffffffff16633df02124600160008660006040518563ffffffff1660e01b81526004016121549493929190616027565b600060405180830381600087803b15801561216e57600080fd5b505af1158015612182573d6000803e3d6000fd5b505050506000600560009054906101000a900473ffffffffffffffffffffffffffffffffffffffff1673ffffffffffffffffffffffffffffffffffffffff166370a08231306040518263ffffffff1660e01b81526004016121e39190615e99565b60206040518083038186803b1580156121fb57600080fd5b505afa15801561220f573d6000803e3d6000fd5b505050506040513d601f19601f820116820180604052506122339190810190615688565b14612273576040517f08c379a000000000000000000000000000000000000000000000000000000000815260040161226a906163b6565b60405180910390fd5b5b600082111561240157600a60009054906101000a900473ffffffffffffffffffffffffffffffffffffffff1673ffffffffffffffffffffffffffffffffffffffff16633df02124600260008560006040518563ffffffff1660e01b81526004016122e194939291906160f6565b600060405180830381600087803b1580156122fb57600080fd5b505af115801561230f573d6000803e3d6000fd5b505050506000600760009054906101000a900473ffffffffffffffffffffffffffffffffffffffff1673ffffffffffffffffffffffffffffffffffffffff166370a08231306040518263ffffffff1660e01b81526004016123709190615e99565b60206040518083038186803b15801561238857600080fd5b505afa15801561239c573d6000803e3d6000fd5b505050506040513d601f19601f820116820180604052506123c09190810190615688565b14612400576040517f08c379a00000000000000000000000000000000000000000000000000000000081526004016123f790616396565b60405180910390fd5b5b600081111561258e57600a60009054906101000a900473ffffffffffffffffffffffffffffffffffffffff1673ffffffffffffffffffffffffffffffffffffffff16633df02124600360008460006040518563ffffffff1660e01b815260040161246e94939291906161c5565b600060405180830381600087803b15801561248857600080fd5b505af115801561249c573d6000803e3d6000fd5b505050506000600960009054906101000a900473ffffffffffffffffffffffffffffffffffffffff1673ffffffffffffffffffffffffffffffffffffffff166370a08231306040518263ffffffff1660e01b81526004016124fd9190615e99565b60206040518083038186803b15801561251557600080fd5b505afa158015612529573d6000803e3d6000fd5b505050506040513d601f19601f8201168201806040525061254d9190810190615688565b1461258d576040517f08c379a000000000000000000000000000000000000000000000000000000000815260040161258490616436565b60405180910390fd5b5b600360009054906101000a900473ffffffffffffffffffffffffffffffffffffffff1673ffffffffffffffffffffffffffffffffffffffff16632e1a7d4d600360009054906101000a900473ffffffffffffffffffffffffffffffffffffffff1673ffffffffffffffffffffffffffffffffffffffff166370a08231306040518263ffffffff1660e01b81526004016126279190615e99565b60206040518083038186803b15801561263f57600080fd5b505afa158015612653573d6000803e3d6000fd5b505050506040513d601f19601f820116820180604052506126779190810190615688565b6040518263ffffffff1660e01b81526004016126939190616576565b600060405180830381600087803b1580156126ad57600080fd5b505af11580156126c1573d6000803e3d6000fd5b505050506000600360009054906101000a900473ffffffffffffffffffffffffffffffffffffffff1673ffffffffffffffffffffffffffffffffffffffff166370a08231306040518263ffffffff1660e01b81526004016127229190615e99565b60206040518083038186803b15801561273a57600080fd5b505afa15801561274e573d6000803e3d6000fd5b505050506040513d601f19601f820116820180604052506127729190810190615688565b146127b2576040517f08c379a00000000000000000000000000000000000000000000000000000000081526004016127a990616516565b60405180910390fd5b6000600260009054906101000a900473ffffffffffffffffffffffffffffffffffffffff1673ffffffffffffffffffffffffffffffffffffffff166370a08231306040518263ffffffff1660e01b815260040161280f9190615e99565b60206040518083038186803b15801561282757600080fd5b505afa15801561283b573d6000803e3d6000fd5b505050506040513d601f19601f8201168201806040525061285f9190810190615688565b9050600061288a606461287c60058b614efa90919063ffffffff16565b614f6a90919063ffffffff16565b905060006128a1828a614fb490919063ffffffff16565b905060006128b8838b614ffe90919063ffffffff16565b90508084111580156128ca5750818410155b612909576040517f08c379a0000000000000000000000000000000000000000000000000000000008152600401612900906164b6565b60405180910390fd5b612a0033600260009054906101000a900473ffffffffffffffffffffffffffffffffffffffff1673ffffffffffffffffffffffffffffffffffffffff166370a08231306040518263ffffffff1660e01b81526004016129689190615e99565b60206040518083038186803b15801561298057600080fd5b505afa158015612994573d6000803e3d6000fd5b505050506040513d601f19601f820116820180604052506129b89190810190615688565b600260009054906101000a900473ffffffffffffffffffffffffffffffffffffffff1673ffffffffffffffffffffffffffffffffffffffff16614db99092919063ffffffff16565b6000600260009054906101000a900473ffffffffffffffffffffffffffffffffffffffff1673ffffffffffffffffffffffffffffffffffffffff166370a08231306040518263ffffffff1660e01b8152600401612a5d9190615e99565b60206040518083038186803b158015612a7557600080fd5b505afa158015612a89573d6000803e3d6000fd5b505050506040513d601f19601f82011682018060405250612aad9190810190615688565b14612aed576040517f08c379a0000000000000000000000000000000000000000000000000000000008152600401612ae4906162b6565b60405180910390fd5b50505050505050506000548114612b39576040517f08c379a0000000000000000000000000000000000000000000000000000000008152600401612b30906164f6565b60405180910390fd5b5050565b600660009054906101000a900473ffffffffffffffffffffffffffffffffffffffff1681565b6001600080828254019250508190555060008054905060008211612bbc576040517f08c379a0000000000000000000000000000000000000000000000000000000008152600401612bb390616496565b60405180910390fd5b612c0b333084600b60009054906101000a900473ffffffffffffffffffffffffffffffffffffffff1673ffffffffffffffffffffffffffffffffffffffff16614e58909392919063ffffffff16565b600a60009054906101000a900473ffffffffffffffffffffffffffffffffffffffff1673ffffffffffffffffffffffffffffffffffffffff16637d49d875600b60009054906101000a900473ffffffffffffffffffffffffffffffffffffffff1673ffffffffffffffffffffffffffffffffffffffff166370a08231306040518263ffffffff1660e01b8152600401612ca49190615e99565b60206040518083038186803b158015612cbc57600080fd5b505afa158015612cd0573d6000803e3d6000fd5b505050506040513d601f19601f82011682018060405250612cf49190810190615688565b604051806080016040528060008152602001600081526020016000815260200160008152506040518363ffffffff1660e01b8152600401612d36929190616591565b600060405180830381600087803b158015612d5057600080fd5b505af1158015612d64573d6000803e3d6000fd5b505050506000600b60009054906101000a900473ffffffffffffffffffffffffffffffffffffffff1673ffffffffffffffffffffffffffffffffffffffff166370a08231306040518263ffffffff1660e01b8152600401612dc59190615e99565b60206040518083038186803b158015612ddd57600080fd5b505afa158015612df1573d6000803e3d6000fd5b505050506040513d601f19601f82011682018060405250612e159190810190615688565b14612e55576040517f08c379a0000000000000000000000000000000000000000000000000000000008152600401612e4c906163f6565b60405180910390fd5b6000600360009054906101000a900473ffffffffffffffffffffffffffffffffffffffff1673ffffffffffffffffffffffffffffffffffffffff166370a08231306040518263ffffffff1660e01b8152600401612eb29190615e99565b60206040518083038186803b158015612eca57600080fd5b505afa158015612ede573d6000803e3d6000fd5b505050506040513d601f19601f82011682018060405250612f029190810190615688565b90506000600560009054906101000a900473ffffffffffffffffffffffffffffffffffffffff1673ffffffffffffffffffffffffffffffffffffffff166370a08231306040518263ffffffff1660e01b8152600401612f619190615e99565b60206040518083038186803b158015612f7957600080fd5b505afa158015612f8d573d6000803e3d6000fd5b505050506040513d601f19601f82011682018060405250612fb19190810190615688565b90506000600760009054906101000a900473ffffffffffffffffffffffffffffffffffffffff1673ffffffffffffffffffffffffffffffffffffffff166370a08231306040518263ffffffff1660e01b81526004016130109190615e99565b60206040518083038186803b15801561302857600080fd5b505afa15801561303c573d6000803e3d6000fd5b505050506040513d601f19601f820116820180604052506130609190810190615688565b90506000600960009054906101000a900473ffffffffffffffffffffffffffffffffffffffff1673ffffffffffffffffffffffffffffffffffffffff166370a08231306040518263ffffffff1660e01b81526004016130bf9190615e99565b60206040518083038186803b1580156130d757600080fd5b505afa1580156130eb573d6000803e3d6000fd5b505050506040513d601f19601f8201168201806040525061310f9190810190615688565b905060008411806131205750600083115b8061312b5750600082115b806131365750600081115b613175576040517f08c379a000000000000000000000000000000000000000000000000000000000815260040161316c906162d6565b60405180910390fd5b600084111561330257600a60009054906101000a900473ffffffffffffffffffffffffffffffffffffffff1673ffffffffffffffffffffffffffffffffffffffff16633df02124600060038760006040518563ffffffff1660e01b81526004016131e29493929190615fe2565b600060405180830381600087803b1580156131fc57600080fd5b505af1158015613210573d6000803e3d6000fd5b505050506000600360009054906101000a900473ffffffffffffffffffffffffffffffffffffffff1673ffffffffffffffffffffffffffffffffffffffff166370a08231306040518263ffffffff1660e01b81526004016132719190615e99565b60206040518083038186803b15801561328957600080fd5b505afa15801561329d573d6000803e3d6000fd5b505050506040513d601f19601f820116820180604052506132c19190810190615688565b14613301576040517f08c379a00000000000000000000000000000000000000000000000000000000081526004016132f890616516565b60405180910390fd5b5b600083111561348f57600a60009054906101000a900473ffffffffffffffffffffffffffffffffffffffff1673ffffffffffffffffffffffffffffffffffffffff16633df02124600160038660006040518563ffffffff1660e01b815260040161336f94939291906160b1565b600060405180830381600087803b15801561338957600080fd5b505af115801561339d573d6000803e3d6000fd5b505050506000600560009054906101000a900473ffffffffffffffffffffffffffffffffffffffff1673ffffffffffffffffffffffffffffffffffffffff166370a08231306040518263ffffffff1660e01b81526004016133fe9190615e99565b60206040518083038186803b15801561341657600080fd5b505afa15801561342a573d6000803e3d6000fd5b505050506040513d601f19601f8201168201806040525061344e9190810190615688565b1461348e576040517f08c379a0000000000000000000000000000000000000000000000000000000008152600401613485906163b6565b60405180910390fd5b5b600082111561361c57600a60009054906101000a900473ffffffffffffffffffffffffffffffffffffffff1673ffffffffffffffffffffffffffffffffffffffff16633df02124600260038560006040518563ffffffff1660e01b81526004016134fc9493929190616180565b600060405180830381600087803b15801561351657600080fd5b505af115801561352a573d6000803e3d6000fd5b505050506000600760009054906101000a900473ffffffffffffffffffffffffffffffffffffffff1673ffffffffffffffffffffffffffffffffffffffff166370a08231306040518263ffffffff1660e01b815260040161358b9190615e99565b60206040518083038186803b1580156135a357600080fd5b505afa1580156135b7573d6000803e3d6000fd5b505050506040513d601f19601f820116820180604052506135db9190810190615688565b1461361b576040517f08c379a000000000000000000000000000000000000000000000000000000000815260040161361290616396565b60405180910390fd5b5b600960009054906101000a900473ffffffffffffffffffffffffffffffffffffffff1673ffffffffffffffffffffffffffffffffffffffff16632e1a7d4d600960009054906101000a900473ffffffffffffffffffffffffffffffffffffffff1673ffffffffffffffffffffffffffffffffffffffff166370a08231306040518263ffffffff1660e01b81526004016136b59190615e99565b60206040518083038186803b1580156136cd57600080fd5b505afa1580156136e1573d6000803e3d6000fd5b505050506040513d601f19601f820116820180604052506137059190810190615688565b6040518263ffffffff1660e01b81526004016137219190616576565b600060405180830381600087803b15801561373b57600080fd5b505af115801561374f573d6000803e3d6000fd5b505050506000600960009054906101000a900473ffffffffffffffffffffffffffffffffffffffff1673ffffffffffffffffffffffffffffffffffffffff166370a08231306040518263ffffffff1660e01b81526004016137b09190615e99565b60206040518083038186803b1580156137c857600080fd5b505afa1580156137dc573d6000803e3d6000fd5b505050506040513d601f19601f820116820180604052506138009190810190615688565b14613840576040517f08c379a000000000000000000000000000000000000000000000000000000000815260040161383790616436565b60405180910390fd5b6000600860009054906101000a900473ffffffffffffffffffffffffffffffffffffffff1673ffffffffffffffffffffffffffffffffffffffff166370a08231306040518263ffffffff1660e01b815260040161389d9190615e99565b60206040518083038186803b1580156138b557600080fd5b505afa1580156138c9573d6000803e3d6000fd5b505050506040513d601f19601f820116820180604052506138ed9190810190615688565b90506000613918606461390a60058b614efa90919063ffffffff16565b614f6a90919063ffffffff16565b9050600061392f828a614fb490919063ffffffff16565b90506000613946838b614ffe90919063ffffffff16565b90508084111580156139585750818410155b613997576040517f08c379a000000000000000000000000000000000000000000000000000000000815260040161398e906164b6565b60405180910390fd5b613a8e33600860009054906101000a900473ffffffffffffffffffffffffffffffffffffffff1673ffffffffffffffffffffffffffffffffffffffff166370a08231306040518263ffffffff1660e01b81526004016139f69190615e99565b60206040518083038186803b158015613a0e57600080fd5b505afa158015613a22573d6000803e3d6000fd5b505050506040513d601f19601f82011682018060405250613a469190810190615688565b600860009054906101000a900473ffffffffffffffffffffffffffffffffffffffff1673ffffffffffffffffffffffffffffffffffffffff16614db99092919063ffffffff16565b6000600860009054906101000a900473ffffffffffffffffffffffffffffffffffffffff1673ffffffffffffffffffffffffffffffffffffffff166370a08231306040518263ffffffff1660e01b8152600401613aeb9190615e99565b60206040518083038186803b158015613b0357600080fd5b505afa158015613b17573d6000803e3d6000fd5b505050506040513d601f19601f82011682018060405250613b3b9190810190615688565b14613b7b576040517f08c379a0000000000000000000000000000000000000000000000000000000008152600401613b7290616316565b60405180910390fd5b50505050505050506000548114613bc7576040517f08c379a0000000000000000000000000000000000000000000000000000000008152600401613bbe906164f6565b60405180910390fd5b5050565b6001600080828254019250508190555060008054905060008211613c24576040517f08c379a0000000000000000000000000000000000000000000000000000000008152600401613c1b90616496565b60405180910390fd5b613c73333084600b60009054906101000a900473ffffffffffffffffffffffffffffffffffffffff1673ffffffffffffffffffffffffffffffffffffffff16614e58909392919063ffffffff16565b600a60009054906101000a900473ffffffffffffffffffffffffffffffffffffffff1673ffffffffffffffffffffffffffffffffffffffff16637d49d875600b60009054906101000a900473ffffffffffffffffffffffffffffffffffffffff1673ffffffffffffffffffffffffffffffffffffffff166370a08231306040518263ffffffff1660e01b8152600401613d0c9190615e99565b60206040518083038186803b158015613d2457600080fd5b505afa158015613d38573d6000803e3d6000fd5b505050506040513d601f19601f82011682018060405250613d5c9190810190615688565b604051806080016040528060008152602001600081526020016000815260200160008152506040518363ffffffff1660e01b8152600401613d9e929190616591565b600060405180830381600087803b158015613db857600080fd5b505af1158015613dcc573d6000803e3d6000fd5b505050506000600b60009054906101000a900473ffffffffffffffffffffffffffffffffffffffff1673ffffffffffffffffffffffffffffffffffffffff166370a08231306040518263ffffffff1660e01b8152600401613e2d9190615e99565b60206040518083038186803b158015613e4557600080fd5b505afa158015613e59573d6000803e3d6000fd5b505050506040513d601f19601f82011682018060405250613e7d9190810190615688565b14613ebd576040517f08c379a0000000000000000000000000000000000000000000000000000000008152600401613eb4906163f6565b60405180910390fd5b6000600360009054906101000a900473ffffffffffffffffffffffffffffffffffffffff1673ffffffffffffffffffffffffffffffffffffffff166370a08231306040518263ffffffff1660e01b8152600401613f1a9190615e99565b60206040518083038186803b158015613f3257600080fd5b505afa158015613f46573d6000803e3d6000fd5b505050506040513d601f19601f82011682018060405250613f6a9190810190615688565b90506000600560009054906101000a900473ffffffffffffffffffffffffffffffffffffffff1673ffffffffffffffffffffffffffffffffffffffff166370a08231306040518263ffffffff1660e01b8152600401613fc99190615e99565b60206040518083038186803b158015613fe157600080fd5b505afa158015613ff5573d6000803e3d6000fd5b505050506040513d601f19601f820116820180604052506140199190810190615688565b90506000600760009054906101000a900473ffffffffffffffffffffffffffffffffffffffff1673ffffffffffffffffffffffffffffffffffffffff166370a08231306040518263ffffffff1660e01b81526004016140789190615e99565b60206040518083038186803b15801561409057600080fd5b505afa1580156140a4573d6000803e3d6000fd5b505050506040513d601f19601f820116820180604052506140c89190810190615688565b90506000600960009054906101000a900473ffffffffffffffffffffffffffffffffffffffff1673ffffffffffffffffffffffffffffffffffffffff166370a08231306040518263ffffffff1660e01b81526004016141279190615e99565b60206040518083038186803b15801561413f57600080fd5b505afa158015614153573d6000803e3d6000fd5b505050506040513d601f19601f820116820180604052506141779190810190615688565b905060008411806141885750600083115b806141935750600082115b8061419e5750600081115b6141dd576040517f08c379a00000000000000000000000000000000000000000000000000000000081526004016141d4906162d6565b60405180910390fd5b600084111561436a57600a60009054906101000a900473ffffffffffffffffffffffffffffffffffffffff1673ffffffffffffffffffffffffffffffffffffffff16633df02124600060018760006040518563ffffffff1660e01b815260040161424a9493929190615f58565b600060405180830381600087803b15801561426457600080fd5b505af1158015614278573d6000803e3d6000fd5b505050506000600360009054906101000a900473ffffffffffffffffffffffffffffffffffffffff1673ffffffffffffffffffffffffffffffffffffffff166370a08231306040518263ffffffff1660e01b81526004016142d99190615e99565b60206040518083038186803b1580156142f157600080fd5b505afa158015614305573d6000803e3d6000fd5b505050506040513d601f19601f820116820180604052506143299190810190615688565b14614369576040517f08c379a000000000000000000000000000000000000000000000000000000000815260040161436090616516565b60405180910390fd5b5b60008211156144f757600a60009054906101000a900473ffffffffffffffffffffffffffffffffffffffff1673ffffffffffffffffffffffffffffffffffffffff16633df02124600260018560006040518563ffffffff1660e01b81526004016143d7949392919061613b565b600060405180830381600087803b1580156143f157600080fd5b505af1158015614405573d6000803e3d6000fd5b505050506000600760009054906101000a900473ffffffffffffffffffffffffffffffffffffffff1673ffffffffffffffffffffffffffffffffffffffff166370a08231306040518263ffffffff1660e01b81526004016144669190615e99565b60206040518083038186803b15801561447e57600080fd5b505afa158015614492573d6000803e3d6000fd5b505050506040513d601f19601f820116820180604052506144b69190810190615688565b146144f6576040517f08c379a00000000000000000000000000000000000000000000000000000000081526004016144ed90616396565b60405180910390fd5b5b600081111561468457600a60009054906101000a900473ffffffffffffffffffffffffffffffffffffffff1673ffffffffffffffffffffffffffffffffffffffff16633df02124600360018460006040518563ffffffff1660e01b8152600401614564949392919061620a565b600060405180830381600087803b15801561457e57600080fd5b505af1158015614592573d6000803e3d6000fd5b505050506000600960009054906101000a900473ffffffffffffffffffffffffffffffffffffffff1673ffffffffffffffffffffffffffffffffffffffff166370a08231306040518263ffffffff1660e01b81526004016145f39190615e99565b60206040518083038186803b15801561460b57600080fd5b505afa15801561461f573d6000803e3d6000fd5b505050506040513d601f19601f820116820180604052506146439190810190615688565b14614683576040517f08c379a000000000000000000000000000000000000000000000000000000000815260040161467a90616436565b60405180910390fd5b5b600560009054906101000a900473ffffffffffffffffffffffffffffffffffffffff1673ffffffffffffffffffffffffffffffffffffffff16632e1a7d4d600560009054906101000a900473ffffffffffffffffffffffffffffffffffffffff1673ffffffffffffffffffffffffffffffffffffffff166370a08231306040518263ffffffff1660e01b815260040161471d9190615e99565b60206040518083038186803b15801561473557600080fd5b505afa158015614749573d6000803e3d6000fd5b505050506040513d601f19601f8201168201806040525061476d9190810190615688565b6040518263ffffffff1660e01b81526004016147899190616576565b600060405180830381600087803b1580156147a357600080fd5b505af11580156147b7573d6000803e3d6000fd5b505050506000600560009054906101000a900473ffffffffffffffffffffffffffffffffffffffff1673ffffffffffffffffffffffffffffffffffffffff166370a08231306040518263ffffffff1660e01b81526004016148189190615e99565b60206040518083038186803b15801561483057600080fd5b505afa158015614844573d6000803e3d6000fd5b505050506040513d601f19601f820116820180604052506148689190810190615688565b146148a8576040517f08c379a000000000000000000000000000000000000000000000000000000000815260040161489f906163b6565b60405180910390fd5b6000600460009054906101000a900473ffffffffffffffffffffffffffffffffffffffff1673ffffffffffffffffffffffffffffffffffffffff166370a08231306040518263ffffffff1660e01b81526004016149059190615e99565b60206040518083038186803b15801561491d57600080fd5b505afa158015614931573d6000803e3d6000fd5b505050506040513d601f19601f820116820180604052506149559190810190615688565b90506000614980606461497260058b614efa90919063ffffffff16565b614f6a90919063ffffffff16565b90506000614997828a614fb490919063ffffffff16565b905060006149ae838b614ffe90919063ffffffff16565b90508084111580156149c05750818410155b6149ff576040517f08c379a00000000000000000000000000000000000000000000000000000000081526004016149f6906164b6565b60405180910390fd5b614af633600460009054906101000a900473ffffffffffffffffffffffffffffffffffffffff1673ffffffffffffffffffffffffffffffffffffffff166370a08231306040518263ffffffff1660e01b8152600401614a5e9190615e99565b60206040518083038186803b158015614a7657600080fd5b505afa158015614a8a573d6000803e3d6000fd5b505050506040513d601f19601f82011682018060405250614aae9190810190615688565b600460009054906101000a900473ffffffffffffffffffffffffffffffffffffffff1673ffffffffffffffffffffffffffffffffffffffff16614db99092919063ffffffff16565b6000600460009054906101000a900473ffffffffffffffffffffffffffffffffffffffff1673ffffffffffffffffffffffffffffffffffffffff166370a08231306040518263ffffffff1660e01b8152600401614b539190615e99565b60206040518083038186803b158015614b6b57600080fd5b505afa158015614b7f573d6000803e3d6000fd5b505050506040513d601f19601f82011682018060405250614ba39190810190615688565b14614be3576040517f08c379a0000000000000000000000000000000000000000000000000000000008152600401614bda90616476565b60405180910390fd5b50505050505050506000548114614c2f576040517f08c379a0000000000000000000000000000000000000000000000000000000008152600401614c26906164f6565b60405180910390fd5b5050565b600260009054906101000a900473ffffffffffffffffffffffffffffffffffffffff1681565b614c61611838565b614ca0576040517f08c379a0000000000000000000000000000000000000000000000000000000008152600401614c9790616456565b60405180910390fd5b614ca9816151d2565b50565b614cb4611838565b614cf3576040517f08c379a0000000000000000000000000000000000000000000000000000000008152600401614cea90616456565b60405180910390fd5b60003373ffffffffffffffffffffffffffffffffffffffff163073ffffffffffffffffffffffffffffffffffffffff1631604051614d3090615e69565b60006040518083038185875af1925050503d8060008114614d6d576040519150601f19603f3d011682016040523d82523d6000602084013e614d72565b606091505b5050905080614db6576040517f08c379a0000000000000000000000000000000000000000000000000000000008152600401614dad906163d6565b60405180910390fd5b50565b614e53838473ffffffffffffffffffffffffffffffffffffffff1663a9059cbb905060e01b8484604051602401614df1929190615f14565b604051602081830303815290604052907bffffffffffffffffffffffffffffffffffffffffffffffffffffffff19166020820180517bffffffffffffffffffffffffffffffffffffffffffffffffffffffff8381831617835250505050615302565b505050565b614ef4848573ffffffffffffffffffffffffffffffffffffffff166323b872dd905060e01b858585604051602401614e9293929190615edd565b604051602081830303815290604052907bffffffffffffffffffffffffffffffffffffffffffffffffffffffff19166020820180517bffffffffffffffffffffffffffffffffffffffffffffffffffffffff8381831617835250505050615302565b50505050565b600080831415614f0d5760009050614f64565b6000828402905082848281614f1e57fe5b0414614f5f576040517f08c379a0000000000000000000000000000000000000000000000000000000008152600401614f5690616416565b60405180910390fd5b809150505b92915050565b6000614fac83836040518060400160405280601a81526020017f536166654d6174683a206469766973696f6e206279207a65726f000000000000815250615474565b905092915050565b6000614ff683836040518060400160405280601e81526020017f536166654d6174683a207375627472616374696f6e206f766572666c6f7700008152506154d5565b905092915050565b600080828401905083811015615049576040517f08c379a000000000000000000000000000000000000000000000000000000000815260040161504090616356565b60405180910390fd5b8091505092915050565b600033905090565b60008114806150f4575060008373ffffffffffffffffffffffffffffffffffffffff1663dd62ed3e30856040518363ffffffff1660e01b81526004016150a2929190615eb4565b60206040518083038186803b1580156150ba57600080fd5b505afa1580156150ce573d6000803e3d6000fd5b505050506040513d601f19601f820116820180604052506150f29190810190615688565b145b615133576040517f08c379a000000000000000000000000000000000000000000000000000000000815260040161512a90616536565b60405180910390fd5b6151cd838473ffffffffffffffffffffffffffffffffffffffff1663095ea7b3905060e01b848460405160240161516b929190615f14565b604051602081830303815290604052907bffffffffffffffffffffffffffffffffffffffffffffffffffffffff19166020820180517bffffffffffffffffffffffffffffffffffffffffffffffffffffffff8381831617835250505050615302565b505050565b600073ffffffffffffffffffffffffffffffffffffffff168173ffffffffffffffffffffffffffffffffffffffff161415615242576040517f08c379a0000000000000000000000000000000000000000000000000000000008152600401615239906162f6565b60405180910390fd5b8073ffffffffffffffffffffffffffffffffffffffff16600160009054906101000a900473ffffffffffffffffffffffffffffffffffffffff1673ffffffffffffffffffffffffffffffffffffffff167f8be0079c531659141344cd1fd0a4f28419497f9722a3daafe3b4186f6b6457e060405160405180910390a380600160006101000a81548173ffffffffffffffffffffffffffffffffffffffff021916908373ffffffffffffffffffffffffffffffffffffffff16021790555050565b6153218273ffffffffffffffffffffffffffffffffffffffff16615530565b615360576040517f08c379a000000000000000000000000000000000000000000000000000000000815260040161535790616556565b60405180910390fd5b600060608373ffffffffffffffffffffffffffffffffffffffff16836040516153899190615e52565b6000604051808303816000865af19150503d80600081146153c6576040519150601f19603f3d011682016040523d82523d6000602084013e6153cb565b606091505b509150915081615410576040517f08c379a000000000000000000000000000000000000000000000000000000000815260040161540790616376565b60405180910390fd5b60008151111561546e578080602001905161542e919081019061560d565b61546d576040517f08c379a0000000000000000000000000000000000000000000000000000000008152600401615464906164d6565b60405180910390fd5b5b50505050565b600080831182906154bb576040517f08c379a00000000000000000000000000000000000000000000000000000000081526004016154b29190616294565b60405180910390fd5b5060008385816154c757fe5b049050809150509392505050565b600083831115829061551d576040517f08c379a00000000000000000000000000000000000000000000000000000000081526004016155149190616294565b60405180910390fd5b5060008385039050809150509392505050565b60008060007fc5d2460186f7233c927e7db2dcc703c0e500b653ca82273b7bfad8045d85a47060001b9050833f91506000801b82141580156155725750808214155b92505050919050565b60008135905061558a81616754565b92915050565b60008151905061559f8161676b565b92915050565b6000813590506155b481616782565b92915050565b6000813590506155c981616799565b92915050565b6000815190506155de81616799565b92915050565b6000602082840312156155f657600080fd5b60006156048482850161557b565b91505092915050565b60006020828403121561561f57600080fd5b600061562d84828501615590565b91505092915050565b60006020828403121561564857600080fd5b6000615656848285016155a5565b91505092915050565b60006020828403121561567157600080fd5b600061567f848285016155ba565b91505092915050565b60006020828403121561569a57600080fd5b60006156a8848285016155cf565b91505092915050565b60006156bd8383615e34565b60208301905092915050565b6156d281616680565b82525050565b6156e181616619565b82525050565b6156f0816165c4565b6156fa81846165f2565b9250615705826165ba565b8060005b8381101561573657815161571d87826156b1565b9650615728836165e5565b925050600181019050615709565b505050505050565b6157478161662b565b82525050565b6000615758826165cf565b61576281856165fd565b9350615772818560208601616710565b80840191505092915050565b61578781616692565b82525050565b615796816166a4565b82525050565b6157a5816166b6565b82525050565b6157b4816166c8565b82525050565b6157c3816166da565b82525050565b60006157d4826165da565b6157de8185616608565b93506157ee818560208601616710565b6157f781616743565b840191505092915050565b600061580f600d83616608565b91507f4441492072656d61696e646572000000000000000000000000000000000000006000830152602082019050919050565b600061584f601183616608565b91507f6e6f20792e746f6b656e7320666f756e640000000000000000000000000000006000830152602082019050919050565b600061588f602683616608565b91507f4f776e61626c653a206e6577206f776e657220697320746865207a65726f206160008301527f64647265737300000000000000000000000000000000000000000000000000006020830152604082019050919050565b60006158f5600e83616608565b91507f425553442072656d61696e6465720000000000000000000000000000000000006000830152602082019050919050565b6000615935600e83616608565b91507f555344542072656d61696e6465720000000000000000000000000000000000006000830152602082019050919050565b6000615975601b83616608565b91507f536166654d6174683a206164646974696f6e206f766572666c6f7700000000006000830152602082019050919050565b60006159b5602083616608565b91507f5361666545524332303a206c6f772d6c6576656c2063616c6c206661696c65646000830152602082019050919050565b60006159f5601083616608565b91507f792e555344542072656d61696e646572000000000000000000000000000000006000830152602082019050919050565b6000615a35601083616608565b91507f792e555344432072656d61696e646572000000000000000000000000000000006000830152602082019050919050565b6000615a75601683616608565b91507f7472616e73666572206f6620455448206661696c6564000000000000000000006000830152602082019050919050565b6000615ab5600f83616608565b91507f43555256452072656d61696e64657200000000000000000000000000000000006000830152602082019050919050565b6000615af5602183616608565b91507f536166654d6174683a206d756c7469706c69636174696f6e206f766572666c6f60008301527f77000000000000000000000000000000000000000000000000000000000000006020830152604082019050919050565b6000615b5b601083616608565b91507f792e425553442072656d61696e646572000000000000000000000000000000006000830152602082019050919050565b6000615b9b602083616608565b91507f4f776e61626c653a2063616c6c6572206973206e6f7420746865206f776e65726000830152602082019050919050565b6000615bdb600e83616608565b91507f555344432072656d61696e6465720000000000000000000000000000000000006000830152602082019050919050565b6000615c1b6000836165fd565b9150600082019050919050565b6000615c35601e83616608565b91507f6465706f736974206d7573742062652067726561746572207468616e203000006000830152602082019050919050565b6000615c75601883616608565b91507f736c6970706167652067726561746572207468616e20352500000000000000006000830152602082019050919050565b6000615cb5602a83616608565b91507f5361666545524332303a204552433230206f7065726174696f6e20646964206e60008301527f6f742073756363656564000000000000000000000000000000000000000000006020830152604082019050919050565b6000615d1b601f83616608565b91507f5265656e7472616e637947756172643a207265656e7472616e742063616c6c006000830152602082019050919050565b6000615d5b600f83616608565b91507f792e4441492072656d61696e64657200000000000000000000000000000000006000830152602082019050919050565b6000615d9b603683616608565b91507f5361666545524332303a20617070726f76652066726f6d206e6f6e2d7a65726f60008301527f20746f206e6f6e2d7a65726f20616c6c6f77616e6365000000000000000000006020830152604082019050919050565b6000615e01601f83616608565b91507f5361666545524332303a2063616c6c20746f206e6f6e2d636f6e7472616374006000830152602082019050919050565b615e3d81616676565b82525050565b615e4c81616676565b82525050565b6000615e5e828461574d565b915081905092915050565b6000615e7482615c0e565b9150819050919050565b6000602082019050615e9360008301846156d8565b92915050565b6000602082019050615eae60008301846156c9565b92915050565b6000604082019050615ec960008301856156d8565b615ed660208301846156d8565b9392505050565b6000606082019050615ef260008301866156d8565b615eff60208301856156d8565b615f0c6040830184615e43565b949350505050565b6000604082019050615f2960008301856156d8565b615f366020830184615e43565b9392505050565b6000602082019050615f52600083018461573e565b92915050565b6000608082019050615f6d600083018761577e565b615f7a602083018661579c565b615f876040830185615e43565b615f94606083018461578d565b95945050505050565b6000608082019050615fb2600083018761577e565b615fbf60208301866157ab565b615fcc6040830185615e43565b615fd9606083018461578d565b95945050505050565b6000608082019050615ff7600083018761577e565b61600460208301866157ba565b6160116040830185615e43565b61601e606083018461578d565b95945050505050565b600060808201905061603c600083018761579c565b616049602083018661577e565b6160566040830185615e43565b616063606083018461578d565b95945050505050565b6000608082019050616081600083018761579c565b61608e60208301866157ab565b61609b6040830185615e43565b6160a8606083018461578d565b95945050505050565b60006080820190506160c6600083018761579c565b6160d360208301866157ba565b6160e06040830185615e43565b6160ed606083018461578d565b95945050505050565b600060808201905061610b60008301876157ab565b616118602083018661577e565b6161256040830185615e43565b616132606083018461578d565b95945050505050565b600060808201905061615060008301876157ab565b61615d602083018661579c565b61616a6040830185615e43565b616177606083018461578d565b95945050505050565b600060808201905061619560008301876157ab565b6161a260208301866157ba565b6161af6040830185615e43565b6161bc606083018461578d565b95945050505050565b60006080820190506161da60008301876157ba565b6161e7602083018661577e565b6161f46040830185615e43565b616201606083018461578d565b95945050505050565b600060808201905061621f60008301876157ba565b61622c602083018661579c565b6162396040830185615e43565b616246606083018461578d565b95945050505050565b600060808201905061626460008301876157ba565b61627160208301866157ab565b61627e6040830185615e43565b61628b606083018461578d565b95945050505050565b600060208201905081810360008301526162ae81846157c9565b905092915050565b600060208201905081810360008301526162cf81615802565b9050919050565b600060208201905081810360008301526162ef81615842565b9050919050565b6000602082019050818103600083015261630f81615882565b9050919050565b6000602082019050818103600083015261632f816158e8565b9050919050565b6000602082019050818103600083015261634f81615928565b9050919050565b6000602082019050818103600083015261636f81615968565b9050919050565b6000602082019050818103600083015261638f816159a8565b9050919050565b600060208201905081810360008301526163af816159e8565b9050919050565b600060208201905081810360008301526163cf81615a28565b9050919050565b600060208201905081810360008301526163ef81615a68565b9050919050565b6000602082019050818103600083015261640f81615aa8565b9050919050565b6000602082019050818103600083015261642f81615ae8565b9050919050565b6000602082019050818103600083015261644f81615b4e565b9050919050565b6000602082019050818103600083015261646f81615b8e565b9050919050565b6000602082019050818103600083015261648f81615bce565b9050919050565b600060208201905081810360008301526164af81615c28565b9050919050565b600060208201905081810360008301526164cf81615c68565b9050919050565b600060208201905081810360008301526164ef81615ca8565b9050919050565b6000602082019050818103600083015261650f81615d0e565b9050919050565b6000602082019050818103600083015261652f81615d4e565b9050919050565b6000602082019050818103600083015261654f81615d8e565b9050919050565b6000602082019050818103600083015261656f81615df4565b9050919050565b600060208201905061658b6000830184615e43565b92915050565b600060a0820190506165a66000830185615e43565b6165b360208301846156e7565b9392505050565b6000819050919050565b600060049050919050565b600081519050919050565b600081519050919050565b6000602082019050919050565b600081905092915050565b600081905092915050565b600082825260208201905092915050565b600061662482616656565b9050919050565b60008115159050919050565b600061664282616619565b9050919050565b600081600f0b9050919050565b600073ffffffffffffffffffffffffffffffffffffffff82169050919050565b6000819050919050565b600061668b826166ec565b9050919050565b600061669d82616649565b9050919050565b60006166af82616676565b9050919050565b60006166c182616649565b9050919050565b60006166d382616649565b9050919050565b60006166e582616649565b9050919050565b60006166f7826166fe565b9050919050565b600061670982616656565b9050919050565b60005b8381101561672e578082015181840152602081019050616713565b8381111561673d576000848401525b50505050565b6000601f19601f8301169050919050565b61675d81616619565b811461676857600080fd5b50565b6167748161662b565b811461677f57600080fd5b50565b61678b81616637565b811461679657600080fd5b50565b6167a281616676565b81146167ad57600080fd5b5056fea365627a7a723158203b2dc8b694bcbc8fed1949f5a95c9d2e3132e2b401f2058ea28539d99744293e6c6578706572696d656e74616cf564736f6c634300050c0040",
  "source": "pragma solidity ^0.5.0;\npragma experimental ABIEncoderV2;\n\ninterface IERC20 {\n    function totalSupply() external view returns (uint256);\n    function balanceOf(address account) external view returns (uint256);\n    function transfer(address recipient, uint256 amount) external returns (bool);\n    function allowance(address owner, address spender) external view returns (uint256);\n    function approve(address spender, uint256 amount) external returns (bool);\n    function transferFrom(address sender, address recipient, uint256 amount) external returns (bool);\n    event Transfer(address indexed from, address indexed to, uint256 value);\n    event Approval(address indexed owner, address indexed spender, uint256 value);\n}\n\ncontract Context {\n    constructor () internal { }\n    // solhint-disable-previous-line no-empty-blocks\n\n    function _msgSender() internal view returns (address payable) {\n        return msg.sender;\n    }\n\n    function _msgData() internal view returns (bytes memory) {\n        this; // silence state mutability warning without generating bytecode - see https://github.com/ethereum/solidity/issues/2691\n        return msg.data;\n    }\n}\n\ncontract ReentrancyGuard {\n    uint256 private _guardCounter;\n\n    constructor () internal {\n        _guardCounter = 1;\n    }\n\n    modifier nonReentrant() {\n        _guardCounter += 1;\n        uint256 localCounter = _guardCounter;\n        _;\n        require(localCounter == _guardCounter, \"ReentrancyGuard: reentrant call\");\n    }\n}\n\ncontract Ownable is Context {\n    address private _owner;\n\n    event OwnershipTransferred(address indexed previousOwner, address indexed newOwner);\n    constructor () internal {\n        _owner = _msgSender();\n        emit OwnershipTransferred(address(0), _owner);\n    }\n    function owner() public view returns (address) {\n        return _owner;\n    }\n    modifier onlyOwner() {\n        require(isOwner(), \"Ownable: caller is not the owner\");\n        _;\n    }\n    function isOwner() public view returns (bool) {\n        return _msgSender() == _owner;\n    }\n    function renounceOwnership() public onlyOwner {\n        emit OwnershipTransferred(_owner, address(0));\n        _owner = address(0);\n    }\n    function transferOwnership(address newOwner) public onlyOwner {\n        _transferOwnership(newOwner);\n    }\n    function _transferOwnership(address newOwner) internal {\n        require(newOwner != address(0), \"Ownable: new owner is the zero address\");\n        emit OwnershipTransferred(_owner, newOwner);\n        _owner = newOwner;\n    }\n}\n\nlibrary SafeMath {\n    function add(uint256 a, uint256 b) internal pure returns (uint256) {\n        uint256 c = a + b;\n        require(c >= a, \"SafeMath: addition overflow\");\n\n        return c;\n    }\n    function sub(uint256 a, uint256 b) internal pure returns (uint256) {\n        return sub(a, b, \"SafeMath: subtraction overflow\");\n    }\n    function sub(uint256 a, uint256 b, string memory errorMessage) internal pure returns (uint256) {\n        require(b <= a, errorMessage);\n        uint256 c = a - b;\n\n        return c;\n    }\n    function mul(uint256 a, uint256 b) internal pure returns (uint256) {\n        if (a == 0) {\n            return 0;\n        }\n\n        uint256 c = a * b;\n        require(c / a == b, \"SafeMath: multiplication overflow\");\n\n        return c;\n    }\n    function div(uint256 a, uint256 b) internal pure returns (uint256) {\n        return div(a, b, \"SafeMath: division by zero\");\n    }\n    function div(uint256 a, uint256 b, string memory errorMessage) internal pure returns (uint256) {\n        // Solidity only automatically asserts when dividing by 0\n        require(b > 0, errorMessage);\n        uint256 c = a / b;\n\n        return c;\n    }\n    function mod(uint256 a, uint256 b) internal pure returns (uint256) {\n        return mod(a, b, \"SafeMath: modulo by zero\");\n    }\n    function mod(uint256 a, uint256 b, string memory errorMessage) internal pure returns (uint256) {\n        require(b != 0, errorMessage);\n        return a % b;\n    }\n}\n\nlibrary Address {\n    function isContract(address account) internal view returns (bool) {\n        bytes32 codehash;\n        bytes32 accountHash = 0xc5d2460186f7233c927e7db2dcc703c0e500b653ca82273b7bfad8045d85a470;\n        // solhint-disable-next-line no-inline-assembly\n        assembly { codehash := extcodehash(account) }\n        return (codehash != 0x0 && codehash != accountHash);\n    }\n    function toPayable(address account) internal pure returns (address payable) {\n        return address(uint160(account));\n    }\n    function sendValue(address payable recipient, uint256 amount) internal {\n        require(address(this).balance >= amount, \"Address: insufficient balance\");\n\n        // solhint-disable-next-line avoid-call-value\n        (bool success, ) = recipient.call.value(amount)(\"\");\n        require(success, \"Address: unable to send value, recipient may have reverted\");\n    }\n}\n\nlibrary SafeERC20 {\n    using SafeMath for uint256;\n    using Address for address;\n\n    function safeTransfer(IERC20 token, address to, uint256 value) internal {\n        callOptionalReturn(token, abi.encodeWithSelector(token.transfer.selector, to, value));\n    }\n    function safeTransferFrom(IERC20 token, address from, address to, uint256 value) internal {\n        callOptionalReturn(token, abi.encodeWithSelector(token.transferFrom.selector, from, to, value));\n    }\n    function safeApprove(IERC20 token, address spender, uint256 value) internal {\n        require((value == 0) || (token.allowance(address(this), spender) == 0),\n            \"SafeERC20: approve from non-zero to non-zero allowance\"\n        );\n        callOptionalReturn(token, abi.encodeWithSelector(token.approve.selector, spender, value));\n    }\n    function callOptionalReturn(IERC20 token, bytes memory data) private {\n        require(address(token).isContract(), \"SafeERC20: call to non-contract\");\n\n        // solhint-disable-next-line avoid-low-level-calls\n        (bool success, bytes memory returndata) = address(token).call(data);\n        require(success, \"SafeERC20: low-level call failed\");\n\n        if (returndata.length > 0) { // Return data is optional\n            // solhint-disable-next-line max-line-length\n            require(abi.decode(returndata, (bool)), \"SafeERC20: ERC20 operation did not succeed\");\n        }\n    }\n}\n\ninterface yERC20 {\n  function withdraw(uint256 _amount) external;\n}\n\n// Solidity Interface\n\ninterface ICurveFi {\n\n  function remove_liquidity(\n    uint256 _amount,\n    uint256[4] calldata amounts\n  ) external;\n  function exchange(\n    int128 from, int128 to, uint256 _from_amount, uint256 _min_to_amount\n  ) external;\n}\n\ncontract yCurveZapOutV4 is ReentrancyGuard, Ownable {\n  using SafeERC20 for IERC20;\n  using Address for address;\n  using SafeMath for uint256;\n\n  address public DAI;\n  address public yDAI;\n  address public USDC;\n  address public yUSDC;\n  address public USDT;\n  address public yUSDT;\n  address public BUSD;\n  address public yBUSD;\n  address public SWAP;\n  address public CURVE;\n\n  constructor () public {\n    DAI = address(0x6B175474E89094C44Da98b954EedeAC495271d0F);\n    yDAI = address(0xC2cB1040220768554cf699b0d863A3cd4324ce32);\n\n    USDC = address(0xA0b86991c6218b36c1d19D4a2e9Eb0cE3606eB48);\n    yUSDC = address(0x26EA744E5B887E5205727f55dFBE8685e3b21951);\n\n    USDT = address(0xdAC17F958D2ee523a2206206994597C13D831ec7);\n    yUSDT = address(0xE6354ed5bC4b393a5Aad09f21c46E101e692d447);\n\n    BUSD = address(0x4Fabb145d64652a948d72533023f6E7A623C7C53);\n    yBUSD = address(0x04bC0Ab673d88aE9dbC9DA2380cB6B79C4BCa9aE);\n\n    SWAP = address(0x79a8C46DeA5aDa233ABaFFD40F3A0A2B1e5A4F27);\n    CURVE = address(0x3B3Ac5386837Dc563660FB6a0937DFAa5924333B);\n\n    approveToken();\n  }\n\n  function() external payable {\n\n  }\n\n  function approveToken() public {\n      IERC20(yDAI).safeApprove(SWAP, uint(-1));\n      IERC20(yUSDC).safeApprove(SWAP, uint(-1));\n      IERC20(yUSDT).safeApprove(SWAP, uint(-1));\n      IERC20(yBUSD).safeApprove(SWAP, uint(-1));\n  }\n\n  // 0 = dai\n  // 1 = usdc\n  // 2 = usdt\n  // 3 = busd\n\n  function withdrawDAI(uint256 _amount)\n      external\n      nonReentrant\n  {\n      require(_amount > 0, \"deposit must be greater than 0\");\n      IERC20(CURVE).safeTransferFrom(msg.sender, address(this), _amount);\n\n      ICurveFi(SWAP).remove_liquidity(IERC20(CURVE).balanceOf(address(this)), [uint256(0),0,0,0]);\n      require(IERC20(CURVE).balanceOf(address(this)) == 0, \"CURVE remainder\");\n\n      uint256 _ydai = IERC20(yDAI).balanceOf(address(this));\n      uint256 _yusdc = IERC20(yUSDC).balanceOf(address(this));\n      uint256 _yusdt = IERC20(yUSDT).balanceOf(address(this));\n      uint256 _ybusd = IERC20(yBUSD).balanceOf(address(this));\n\n      require(_ydai > 0 || _yusdc > 0 || _yusdt > 0 || _ybusd > 0, \"no y.tokens found\");\n\n      if (_yusdc > 0) {\n        ICurveFi(SWAP).exchange(1, 0, _yusdc, 0);\n        require(IERC20(yUSDC).balanceOf(address(this)) == 0, \"y.USDC remainder\");\n      }\n      if (_yusdt > 0) {\n        ICurveFi(SWAP).exchange(2, 0, _yusdt, 0);\n        require(IERC20(yUSDT).balanceOf(address(this)) == 0, \"y.USDT remainder\");\n      }\n      if (_ybusd > 0) {\n        ICurveFi(SWAP).exchange(3, 0, _ybusd, 0);\n        require(IERC20(yBUSD).balanceOf(address(this)) == 0, \"y.BUSD remainder\");\n      }\n\n      yERC20(yDAI).withdraw(IERC20(yDAI).balanceOf(address(this)));\n      require(IERC20(yDAI).balanceOf(address(this)) == 0, \"y.DAI remainder\");\n\n      uint256 received = IERC20(DAI).balanceOf(address(this));\n      uint256 fivePercent = _amount.mul(5).div(100);\n      uint256 min = _amount.sub(fivePercent);\n      uint256 max = _amount.add(fivePercent);\n      require(received <= max && received >= min, \"slippage greater than 5%\");\n\n      IERC20(DAI).safeTransfer(msg.sender, IERC20(DAI).balanceOf(address(this)));\n      require(IERC20(DAI).balanceOf(address(this)) == 0, \"DAI remainder\");\n  }\n\n  function withdrawUSDC(uint256 _amount)\n      external\n      nonReentrant\n  {\n      require(_amount > 0, \"deposit must be greater than 0\");\n      IERC20(CURVE).safeTransferFrom(msg.sender, address(this), _amount);\n\n      ICurveFi(SWAP).remove_liquidity(IERC20(CURVE).balanceOf(address(this)), [uint256(0),0,0,0]);\n      require(IERC20(CURVE).balanceOf(address(this)) == 0, \"CURVE remainder\");\n\n      uint256 _ydai = IERC20(yDAI).balanceOf(address(this));\n      uint256 _yusdc = IERC20(yUSDC).balanceOf(address(this));\n      uint256 _yusdt = IERC20(yUSDT).balanceOf(address(this));\n      uint256 _ybusd = IERC20(yBUSD).balanceOf(address(this));\n\n      require(_ydai > 0 || _yusdc > 0 || _yusdt > 0 || _ybusd > 0, \"no y.tokens found\");\n\n      if (_ydai > 0) {\n        ICurveFi(SWAP).exchange(0, 1, _ydai, 0);\n        require(IERC20(yDAI).balanceOf(address(this)) == 0, \"y.DAI remainder\");\n      }\n      if (_yusdt > 0) {\n        ICurveFi(SWAP).exchange(2, 1, _yusdt, 0);\n        require(IERC20(yUSDT).balanceOf(address(this)) == 0, \"y.USDT remainder\");\n      }\n      if (_ybusd > 0) {\n        ICurveFi(SWAP).exchange(3, 1, _ybusd, 0);\n        require(IERC20(yBUSD).balanceOf(address(this)) == 0, \"y.BUSD remainder\");\n      }\n\n      yERC20(yUSDC).withdraw(IERC20(yUSDC).balanceOf(address(this)));\n      require(IERC20(yUSDC).balanceOf(address(this)) == 0, \"y.USDC remainder\");\n\n      uint256 received = IERC20(USDC).balanceOf(address(this));\n      uint256 fivePercent = _amount.mul(5).div(100);\n      uint256 min = _amount.sub(fivePercent);\n      uint256 max = _amount.add(fivePercent);\n      require(received <= max && received >= min, \"slippage greater than 5%\");\n\n      IERC20(USDC).safeTransfer(msg.sender, IERC20(USDC).balanceOf(address(this)));\n      require(IERC20(USDC).balanceOf(address(this)) == 0, \"USDC remainder\");\n  }\n\n  function withdrawUSDT(uint256 _amount)\n      external\n      nonReentrant\n  {\n      require(_amount > 0, \"deposit must be greater than 0\");\n      IERC20(CURVE).safeTransferFrom(msg.sender, address(this), _amount);\n\n      ICurveFi(SWAP).remove_liquidity(IERC20(CURVE).balanceOf(address(this)), [uint256(0),0,0,0]);\n      require(IERC20(CURVE).balanceOf(address(this)) == 0, \"CURVE remainder\");\n\n      uint256 _ydai = IERC20(yDAI).balanceOf(address(this));\n      uint256 _yusdc = IERC20(yUSDC).balanceOf(address(this));\n      uint256 _yusdt = IERC20(yUSDT).balanceOf(address(this));\n      uint256 _ybusd = IERC20(yBUSD).balanceOf(address(this));\n\n      require(_ydai > 0 || _yusdc > 0 || _yusdt > 0 || _ybusd > 0, \"no y.tokens found\");\n\n      if (_ydai > 0) {\n        ICurveFi(SWAP).exchange(0, 2, _ydai, 0);\n        require(IERC20(yDAI).balanceOf(address(this)) == 0, \"y.DAI remainder\");\n      }\n      if (_yusdc > 0) {\n        ICurveFi(SWAP).exchange(1, 2, _yusdc, 0);\n        require(IERC20(yUSDC).balanceOf(address(this)) == 0, \"y.USDC remainder\");\n      }\n      if (_ybusd > 0) {\n        ICurveFi(SWAP).exchange(3, 2, _ybusd, 0);\n        require(IERC20(yBUSD).balanceOf(address(this)) == 0, \"y.BUSD remainder\");\n      }\n\n      yERC20(yUSDT).withdraw(IERC20(yUSDT).balanceOf(address(this)));\n      require(IERC20(yUSDT).balanceOf(address(this)) == 0, \"y.USDT remainder\");\n\n      uint256 received = IERC20(USDT).balanceOf(address(this));\n      uint256 fivePercent = _amount.mul(5).div(100);\n      uint256 min = _amount.sub(fivePercent);\n      uint256 max = _amount.add(fivePercent);\n      require(received <= max && received >= min, \"slippage greater than 5%\");\n\n      IERC20(USDT).safeTransfer(msg.sender, IERC20(USDT).balanceOf(address(this)));\n      require(IERC20(USDT).balanceOf(address(this)) == 0, \"USDT remainder\");\n  }\n\n  function withdrawBUSD(uint256 _amount)\n      external\n      nonReentrant\n  {\n      require(_amount > 0, \"deposit must be greater than 0\");\n      IERC20(CURVE).safeTransferFrom(msg.sender, address(this), _amount);\n\n      ICurveFi(SWAP).remove_liquidity(IERC20(CURVE).balanceOf(address(this)), [uint256(0),0,0,0]);\n      require(IERC20(CURVE).balanceOf(address(this)) == 0, \"CURVE remainder\");\n\n      uint256 _ydai = IERC20(yDAI).balanceOf(address(this));\n      uint256 _yusdc = IERC20(yUSDC).balanceOf(address(this));\n      uint256 _yusdt = IERC20(yUSDT).balanceOf(address(this));\n      uint256 _ybusd = IERC20(yBUSD).balanceOf(address(this));\n\n      require(_ydai > 0 || _yusdc > 0 || _yusdt > 0 || _ybusd > 0, \"no y.tokens found\");\n\n      if (_ydai > 0) {\n        ICurveFi(SWAP).exchange(0, 3, _ydai, 0);\n        require(IERC20(yDAI).balanceOf(address(this)) == 0, \"y.DAI remainder\");\n      }\n      if (_yusdc > 0) {\n        ICurveFi(SWAP).exchange(1, 3, _yusdc, 0);\n        require(IERC20(yUSDC).balanceOf(address(this)) == 0, \"y.USDC remainder\");\n      }\n      if (_yusdt > 0) {\n        ICurveFi(SWAP).exchange(2, 3, _yusdt, 0);\n        require(IERC20(yUSDT).balanceOf(address(this)) == 0, \"y.USDT remainder\");\n      }\n\n      yERC20(yBUSD).withdraw(IERC20(yBUSD).balanceOf(address(this)));\n      require(IERC20(yBUSD).balanceOf(address(this)) == 0, \"y.BUSD remainder\");\n\n      uint256 received = IERC20(BUSD).balanceOf(address(this));\n      uint256 fivePercent = _amount.mul(5).div(100);\n      uint256 min = _amount.sub(fivePercent);\n      uint256 max = _amount.add(fivePercent);\n      require(received <= max && received >= min, \"slippage greater than 5%\");\n\n      IERC20(BUSD).safeTransfer(msg.sender, IERC20(BUSD).balanceOf(address(this)));\n      require(IERC20(BUSD).balanceOf(address(this)) == 0, \"BUSD remainder\");\n  }\n\n  // incase of half-way error\n  function inCaseTokenGetsStuck(IERC20 _TokenAddress) onlyOwner public {\n      uint qty = _TokenAddress.balanceOf(address(this));\n      _TokenAddress.safeTransfer(msg.sender, qty);\n  }\n\n  // incase of half-way error\n  function inCaseETHGetsStuck() onlyOwner public{\n      (bool result, ) = msg.sender.call.value(address(this).balance)(\"\");\n      require(result, \"transfer of ETH failed\");\n  }\n}\n",
  "sourcePath": "D:/ftm/itoken/contracts/yCurveZapOutV4.sol",
  "compiler": {
    "name": "solc",
    "version": "0.5.12+commit.7709ece9.Emscripten.clang"
  },
  "schemaVersion": "3.0.19",
  "updatedAt": "2020-03-02T05:09:08.721Z",
  "devdoc": {
    "methods": {}
  },
  "userdoc": {
    "methods": {}
  }
}