{
  "contractName": "yCurveZapSwapV4",
  "abi": [
    {
      "inputs": [],
      "payable": false,
      "stateMutability": "nonpayable",
      "type": "constructor"
    },
    {
      "anonymous": false,
      "inputs": [
        {
          "indexed": true,
          "internalType": "address",
          "name": "previousOwner",
          "type": "address"
        },
        {
          "indexed": true,
          "internalType": "address",
          "name": "newOwner",
          "type": "address"
        }
      ],
      "name": "OwnershipTransferred",
      "type": "event"
    },
    {
      "payable": true,
      "stateMutability": "payable",
      "type": "fallback"
    },
    {
      "constant": true,
      "inputs": [],
      "name": "BUSD",
      "outputs": [
        {
          "internalType": "address",
          "name": "",
          "type": "address"
        }
      ],
      "payable": false,
      "stateMutability": "view",
      "type": "function"
    },
    {
      "constant": true,
      "inputs": [],
      "name": "CURVEv1",
      "outputs": [
        {
          "internalType": "address",
          "name": "",
          "type": "address"
        }
      ],
      "payable": false,
      "stateMutability": "view",
      "type": "function"
    },
    {
      "constant": true,
      "inputs": [],
      "name": "CURVEv2",
      "outputs": [
        {
          "internalType": "address",
          "name": "",
          "type": "address"
        }
      ],
      "payable": false,
      "stateMutability": "view",
      "type": "function"
    },
    {
      "constant": true,
      "inputs": [],
      "name": "CURVEv3",
      "outputs": [
        {
          "internalType": "address",
          "name": "",
          "type": "address"
        }
      ],
      "payable": false,
      "stateMutability": "view",
      "type": "function"
    },
    {
      "constant": true,
      "inputs": [],
      "name": "CURVEv4",
      "outputs": [
        {
          "internalType": "address",
          "name": "",
          "type": "address"
        }
      ],
      "payable": false,
      "stateMutability": "view",
      "type": "function"
    },
    {
      "constant": true,
      "inputs": [],
      "name": "DAI",
      "outputs": [
        {
          "internalType": "address",
          "name": "",
          "type": "address"
        }
      ],
      "payable": false,
      "stateMutability": "view",
      "type": "function"
    },
    {
      "constant": true,
      "inputs": [],
      "name": "SWAPv1",
      "outputs": [
        {
          "internalType": "address",
          "name": "",
          "type": "address"
        }
      ],
      "payable": false,
      "stateMutability": "view",
      "type": "function"
    },
    {
      "constant": true,
      "inputs": [],
      "name": "SWAPv2",
      "outputs": [
        {
          "internalType": "address",
          "name": "",
          "type": "address"
        }
      ],
      "payable": false,
      "stateMutability": "view",
      "type": "function"
    },
    {
      "constant": true,
      "inputs": [],
      "name": "SWAPv3",
      "outputs": [
        {
          "internalType": "address",
          "name": "",
          "type": "address"
        }
      ],
      "payable": false,
      "stateMutability": "view",
      "type": "function"
    },
    {
      "constant": true,
      "inputs": [],
      "name": "SWAPv4",
      "outputs": [
        {
          "internalType": "address",
          "name": "",
          "type": "address"
        }
      ],
      "payable": false,
      "stateMutability": "view",
      "type": "function"
    },
    {
      "constant": true,
      "inputs": [],
      "name": "TUSD",
      "outputs": [
        {
          "internalType": "address",
          "name": "",
          "type": "address"
        }
      ],
      "payable": false,
      "stateMutability": "view",
      "type": "function"
    },
    {
      "constant": true,
      "inputs": [],
      "name": "USDC",
      "outputs": [
        {
          "internalType": "address",
          "name": "",
          "type": "address"
        }
      ],
      "payable": false,
      "stateMutability": "view",
      "type": "function"
    },
    {
      "constant": true,
      "inputs": [],
      "name": "USDT",
      "outputs": [
        {
          "internalType": "address",
          "name": "",
          "type": "address"
        }
      ],
      "payable": false,
      "stateMutability": "view",
      "type": "function"
    },
    {
      "constant": true,
      "inputs": [],
      "name": "cDAI",
      "outputs": [
        {
          "internalType": "address",
          "name": "",
          "type": "address"
        }
      ],
      "payable": false,
      "stateMutability": "view",
      "type": "function"
    },
    {
      "constant": true,
      "inputs": [],
      "name": "cUSDC",
      "outputs": [
        {
          "internalType": "address",
          "name": "",
          "type": "address"
        }
      ],
      "payable": false,
      "stateMutability": "view",
      "type": "function"
    },
    {
      "constant": true,
      "inputs": [],
      "name": "isOwner",
      "outputs": [
        {
          "internalType": "bool",
          "name": "",
          "type": "bool"
        }
      ],
      "payable": false,
      "stateMutability": "view",
      "type": "function"
    },
    {
      "constant": true,
      "inputs": [],
      "name": "owner",
      "outputs": [
        {
          "internalType": "address",
          "name": "",
          "type": "address"
        }
      ],
      "payable": false,
      "stateMutability": "view",
      "type": "function"
    },
    {
      "constant": false,
      "inputs": [],
      "name": "renounceOwnership",
      "outputs": [],
      "payable": false,
      "stateMutability": "nonpayable",
      "type": "function"
    },
    {
      "constant": false,
      "inputs": [
        {
          "internalType": "address",
          "name": "newOwner",
          "type": "address"
        }
      ],
      "name": "transferOwnership",
      "outputs": [],
      "payable": false,
      "stateMutability": "nonpayable",
      "type": "function"
    },
    {
      "constant": true,
      "inputs": [],
      "name": "yBUSDv3",
      "outputs": [
        {
          "internalType": "address",
          "name": "",
          "type": "address"
        }
      ],
      "payable": false,
      "stateMutability": "view",
      "type": "function"
    },
    {
      "constant": true,
      "inputs": [],
      "name": "yDAIv2",
      "outputs": [
        {
          "internalType": "address",
          "name": "",
          "type": "address"
        }
      ],
      "payable": false,
      "stateMutability": "view",
      "type": "function"
    },
    {
      "constant": true,
      "inputs": [],
      "name": "yDAIv3",
      "outputs": [
        {
          "internalType": "address",
          "name": "",
          "type": "address"
        }
      ],
      "payable": false,
      "stateMutability": "view",
      "type": "function"
    },
    {
      "constant": true,
      "inputs": [],
      "name": "yTUSDv2",
      "outputs": [
        {
          "internalType": "address",
          "name": "",
          "type": "address"
        }
      ],
      "payable": false,
      "stateMutability": "view",
      "type": "function"
    },
    {
      "constant": true,
      "inputs": [],
      "name": "yUSDCv2",
      "outputs": [
        {
          "internalType": "address",
          "name": "",
          "type": "address"
        }
      ],
      "payable": false,
      "stateMutability": "view",
      "type": "function"
    },
    {
      "constant": true,
      "inputs": [],
      "name": "yUSDCv3",
      "outputs": [
        {
          "internalType": "address",
          "name": "",
          "type": "address"
        }
      ],
      "payable": false,
      "stateMutability": "view",
      "type": "function"
    },
    {
      "constant": true,
      "inputs": [],
      "name": "yUSDTv2",
      "outputs": [
        {
          "internalType": "address",
          "name": "",
          "type": "address"
        }
      ],
      "payable": false,
      "stateMutability": "view",
      "type": "function"
    },
    {
      "constant": true,
      "inputs": [],
      "name": "yUSDTv3",
      "outputs": [
        {
          "internalType": "address",
          "name": "",
          "type": "address"
        }
      ],
      "payable": false,
      "stateMutability": "view",
      "type": "function"
    },
    {
      "constant": false,
      "inputs": [],
      "name": "approveToken",
      "outputs": [],
      "payable": false,
      "stateMutability": "nonpayable",
      "type": "function"
    },
    {
      "constant": false,
      "inputs": [
        {
          "internalType": "uint256",
          "name": "_amount",
          "type": "uint256"
        }
      ],
      "name": "swapv3tov4",
      "outputs": [],
      "payable": false,
      "stateMutability": "nonpayable",
      "type": "function"
    },
    {
      "constant": false,
      "inputs": [
        {
          "internalType": "contract IERC20",
          "name": "_TokenAddress",
          "type": "address"
        }
      ],
      "name": "inCaseTokenGetsStuck",
      "outputs": [],
      "payable": false,
      "stateMutability": "nonpayable",
      "type": "function"
    },
    {
      "constant": false,
      "inputs": [],
      "name": "inCaseETHGetsStuck",
      "outputs": [],
      "payable": false,
      "stateMutability": "nonpayable",
      "type": "function"
    }
  ],
  "bytecode": "0x60806040523480156200001157600080fd5b5060016000819055506200002a6200089b60201b60201c565b600160006101000a81548173ffffffffffffffffffffffffffffffffffffffff021916908373ffffffffffffffffffffffffffffffffffffffff160217905550600160009054906101000a900473ffffffffffffffffffffffffffffffffffffffff1673ffffffffffffffffffffffffffffffffffffffff16600073ffffffffffffffffffffffffffffffffffffffff167f8be0079c531659141344cd1fd0a4f28419497f9722a3daafe3b4186f6b6457e060405160405180910390a3736b175474e89094c44da98b954eedeac495271d0f600260006101000a81548173ffffffffffffffffffffffffffffffffffffffff021916908373ffffffffffffffffffffffffffffffffffffffff1602179055507316de59092dae5ccf4a1e6439d611fd0653f0bd01600460006101000a81548173ffffffffffffffffffffffffffffffffffffffff021916908373ffffffffffffffffffffffffffffffffffffffff16021790555073c2cb1040220768554cf699b0d863a3cd4324ce32600560006101000a81548173ffffffffffffffffffffffffffffffffffffffff021916908373ffffffffffffffffffffffffffffffffffffffff160217905550735d3a536e4d6dbd6114cc1ead35777bab948e3643600360006101000a81548173ffffffffffffffffffffffffffffffffffffffff021916908373ffffffffffffffffffffffffffffffffffffffff1602179055506e085d4780b73119b644ae5ecd22b376600d60006101000a81548173ffffffffffffffffffffffffffffffffffffffff021916908373ffffffffffffffffffffffffffffffffffffffff1602179055507373a052500105205d34daf004eab301916da8190f600e60006101000a81548173ffffffffffffffffffffffffffffffffffffffff021916908373ffffffffffffffffffffffffffffffffffffffff16021790555073a0b86991c6218b36c1d19d4a2e9eb0ce3606eb48600660006101000a81548173ffffffffffffffffffffffffffffffffffffffff021916908373ffffffffffffffffffffffffffffffffffffffff16021790555073d6ad7a6750a7593e092a9b218d66c0a814a3436e600860006101000a81548173ffffffffffffffffffffffffffffffffffffffff021916908373ffffffffffffffffffffffffffffffffffffffff1602179055507326ea744e5b887e5205727f55dfbe8685e3b21951600960006101000a81548173ffffffffffffffffffffffffffffffffffffffff021916908373ffffffffffffffffffffffffffffffffffffffff1602179055507339aa39c021dfbae8fac545936693ac917d5e7563600760006101000a81548173ffffffffffffffffffffffffffffffffffffffff021916908373ffffffffffffffffffffffffffffffffffffffff16021790555073dac17f958d2ee523a2206206994597c13d831ec7600a60006101000a81548173ffffffffffffffffffffffffffffffffffffffff021916908373ffffffffffffffffffffffffffffffffffffffff1602179055507383f798e925bcd4017eb265844fddabb448f1707d600b60006101000a81548173ffffffffffffffffffffffffffffffffffffffff021916908373ffffffffffffffffffffffffffffffffffffffff16021790555073e6354ed5bc4b393a5aad09f21c46e101e692d447600c60006101000a81548173ffffffffffffffffffffffffffffffffffffffff021916908373ffffffffffffffffffffffffffffffffffffffff160217905550734fabb145d64652a948d72533023f6e7a623c7c53600f60006101000a81548173ffffffffffffffffffffffffffffffffffffffff021916908373ffffffffffffffffffffffffffffffffffffffff1602179055507304bc0ab673d88ae9dbc9da2380cb6b79c4bca9ae601060006101000a81548173ffffffffffffffffffffffffffffffffffffffff021916908373ffffffffffffffffffffffffffffffffffffffff160217905550732e60cf74d81ac34eb21eeff58db4d385920ef419601160006101000a81548173ffffffffffffffffffffffffffffffffffffffff021916908373ffffffffffffffffffffffffffffffffffffffff160217905550733740fb63ab7a09891d7c0d4299442a551d06f5fd601260006101000a81548173ffffffffffffffffffffffffffffffffffffffff021916908373ffffffffffffffffffffffffffffffffffffffff1602179055507352ea46506b9cc5ef470c5bf89f17dc28bb35d85c601360006101000a81548173ffffffffffffffffffffffffffffffffffffffff021916908373ffffffffffffffffffffffffffffffffffffffff160217905550739fc689ccada600b6df723d9e47d84d76664a1f23601460006101000a81548173ffffffffffffffffffffffffffffffffffffffff021916908373ffffffffffffffffffffffffffffffffffffffff1602179055507345f783cce6b7ff23b2ab2d70e416cdb7d6055f51601560006101000a81548173ffffffffffffffffffffffffffffffffffffffff021916908373ffffffffffffffffffffffffffffffffffffffff16021790555073df5e0e81dff6faf3a7e52ba697820c5e32d806a8601660006101000a81548173ffffffffffffffffffffffffffffffffffffffff021916908373ffffffffffffffffffffffffffffffffffffffff1602179055507379a8c46dea5ada233abaffd40f3a0a2b1e5a4f27601760006101000a81548173ffffffffffffffffffffffffffffffffffffffff021916908373ffffffffffffffffffffffffffffffffffffffff160217905550733b3ac5386837dc563660fb6a0937dfaa5924333b601860006101000a81548173ffffffffffffffffffffffffffffffffffffffff021916908373ffffffffffffffffffffffffffffffffffffffff16021790555062000895620008a360201b60201c565b62001936565b600033905090565b62000939600460009054906101000a900473ffffffffffffffffffffffffffffffffffffffff167fffffffffffffffffffffffffffffffffffffffffffffffffffffffffffffffff600260009054906101000a900473ffffffffffffffffffffffffffffffffffffffff1673ffffffffffffffffffffffffffffffffffffffff16620011c760201b6200339b179092919060201c565b620009cf600560009054906101000a900473ffffffffffffffffffffffffffffffffffffffff167fffffffffffffffffffffffffffffffffffffffffffffffffffffffffffffffff600260009054906101000a900473ffffffffffffffffffffffffffffffffffffffff1673ffffffffffffffffffffffffffffffffffffffff16620011c760201b6200339b179092919060201c565b62000a65601560009054906101000a900473ffffffffffffffffffffffffffffffffffffffff167fffffffffffffffffffffffffffffffffffffffffffffffffffffffffffffffff600460009054906101000a900473ffffffffffffffffffffffffffffffffffffffff1673ffffffffffffffffffffffffffffffffffffffff16620011c760201b6200339b179092919060201c565b62000afb601760009054906101000a900473ffffffffffffffffffffffffffffffffffffffff167fffffffffffffffffffffffffffffffffffffffffffffffffffffffffffffffff600560009054906101000a900473ffffffffffffffffffffffffffffffffffffffff1673ffffffffffffffffffffffffffffffffffffffff16620011c760201b6200339b179092919060201c565b62000b91600860009054906101000a900473ffffffffffffffffffffffffffffffffffffffff167fffffffffffffffffffffffffffffffffffffffffffffffffffffffffffffffff600660009054906101000a900473ffffffffffffffffffffffffffffffffffffffff1673ffffffffffffffffffffffffffffffffffffffff16620011c760201b6200339b179092919060201c565b62000c27600960009054906101000a900473ffffffffffffffffffffffffffffffffffffffff167fffffffffffffffffffffffffffffffffffffffffffffffffffffffffffffffff600660009054906101000a900473ffffffffffffffffffffffffffffffffffffffff1673ffffffffffffffffffffffffffffffffffffffff16620011c760201b6200339b179092919060201c565b62000cbd601560009054906101000a900473ffffffffffffffffffffffffffffffffffffffff167fffffffffffffffffffffffffffffffffffffffffffffffffffffffffffffffff600860009054906101000a900473ffffffffffffffffffffffffffffffffffffffff1673ffffffffffffffffffffffffffffffffffffffff16620011c760201b6200339b179092919060201c565b62000d53601760009054906101000a900473ffffffffffffffffffffffffffffffffffffffff167fffffffffffffffffffffffffffffffffffffffffffffffffffffffffffffffff600960009054906101000a900473ffffffffffffffffffffffffffffffffffffffff1673ffffffffffffffffffffffffffffffffffffffff16620011c760201b6200339b179092919060201c565b62000de9601060009054906101000a900473ffffffffffffffffffffffffffffffffffffffff167fffffffffffffffffffffffffffffffffffffffffffffffffffffffffffffffff600f60009054906101000a900473ffffffffffffffffffffffffffffffffffffffff1673ffffffffffffffffffffffffffffffffffffffff16620011c760201b6200339b179092919060201c565b62000e7f601760009054906101000a900473ffffffffffffffffffffffffffffffffffffffff167fffffffffffffffffffffffffffffffffffffffffffffffffffffffffffffffff601060009054906101000a900473ffffffffffffffffffffffffffffffffffffffff1673ffffffffffffffffffffffffffffffffffffffff16620011c760201b6200339b179092919060201c565b62000ef6600b60009054906101000a900473ffffffffffffffffffffffffffffffffffffffff166000600a60009054906101000a900473ffffffffffffffffffffffffffffffffffffffff1673ffffffffffffffffffffffffffffffffffffffff16620011c760201b6200339b179092919060201c565b62000f8c600b60009054906101000a900473ffffffffffffffffffffffffffffffffffffffff167fffffffffffffffffffffffffffffffffffffffffffffffffffffffffffffffff600a60009054906101000a900473ffffffffffffffffffffffffffffffffffffffff1673ffffffffffffffffffffffffffffffffffffffff16620011c760201b6200339b179092919060201c565b62001003600c60009054906101000a900473ffffffffffffffffffffffffffffffffffffffff166000600a60009054906101000a900473ffffffffffffffffffffffffffffffffffffffff1673ffffffffffffffffffffffffffffffffffffffff16620011c760201b6200339b179092919060201c565b62001099600c60009054906101000a900473ffffffffffffffffffffffffffffffffffffffff167fffffffffffffffffffffffffffffffffffffffffffffffffffffffffffffffff600a60009054906101000a900473ffffffffffffffffffffffffffffffffffffffff1673ffffffffffffffffffffffffffffffffffffffff16620011c760201b6200339b179092919060201c565b6200112f601560009054906101000a900473ffffffffffffffffffffffffffffffffffffffff167fffffffffffffffffffffffffffffffffffffffffffffffffffffffffffffffff600b60009054906101000a900473ffffffffffffffffffffffffffffffffffffffff1673ffffffffffffffffffffffffffffffffffffffff16620011c760201b6200339b179092919060201c565b620011c5601760009054906101000a900473ffffffffffffffffffffffffffffffffffffffff167fffffffffffffffffffffffffffffffffffffffffffffffffffffffffffffffff600c60009054906101000a900473ffffffffffffffffffffffffffffffffffffffff1673ffffffffffffffffffffffffffffffffffffffff16620011c760201b6200339b179092919060201c565b565b600081148062001267575060008373ffffffffffffffffffffffffffffffffffffffff1663dd62ed3e30856040518363ffffffff1660e01b81526004016200121192919062001779565b60206040518083038186803b1580156200122a57600080fd5b505afa1580156200123f573d6000803e3d6000fd5b505050506040513d601f19601f8201168201806040525062001265919081019062001587565b145b620012a9576040517f08c379a0000000000000000000000000000000000000000000000000000000008152600401620012a09062001817565b60405180910390fd5b6200134d838473ffffffffffffffffffffffffffffffffffffffff1663095ea7b3905060e01b8484604051602401620012e4929190620017a6565b604051602081830303815290604052907bffffffffffffffffffffffffffffffffffffffffffffffffffffffff19166020820180517bffffffffffffffffffffffffffffffffffffffffffffffffffffffff83818316178352505050506200135260201b60201c565b505050565b6200137e8273ffffffffffffffffffffffffffffffffffffffff16620014e160201b620037b41760201c565b620013c0576040517f08c379a0000000000000000000000000000000000000000000000000000000008152600401620013b79062001839565b60405180910390fd5b600060608373ffffffffffffffffffffffffffffffffffffffff1683604051620013eb919062001760565b6000604051808303816000865af19150503d80600081146200142a576040519150601f19603f3d011682016040523d82523d6000602084013e6200142f565b606091505b50915091508162001477576040517f08c379a00000000000000000000000000000000000000000000000000000000081526004016200146e90620017d3565b60405180910390fd5b600081511115620014db57808060200190516200149891908101906200155b565b620014da576040517f08c379a0000000000000000000000000000000000000000000000000000000008152600401620014d190620017f5565b60405180910390fd5b5b50505050565b60008060007fc5d2460186f7233c927e7db2dcc703c0e500b653ca82273b7bfad8045d85a47060001b9050833f91506000801b8214158015620015245750808214155b92505050919050565b6000815190506200153e8162001902565b92915050565b60008151905062001555816200191c565b92915050565b6000602082840312156200156e57600080fd5b60006200157e848285016200152d565b91505092915050565b6000602082840312156200159a57600080fd5b6000620015aa8482850162001544565b91505092915050565b620015be8162001882565b82525050565b6000620015d1826200185b565b620015dd818562001866565b9350620015ef818560208601620018cc565b80840191505092915050565b60006200160a60208362001871565b91507f5361666545524332303a206c6f772d6c6576656c2063616c6c206661696c65646000830152602082019050919050565b60006200164c602a8362001871565b91507f5361666545524332303a204552433230206f7065726174696f6e20646964206e60008301527f6f742073756363656564000000000000000000000000000000000000000000006020830152604082019050919050565b6000620016b460368362001871565b91507f5361666545524332303a20617070726f76652066726f6d206e6f6e2d7a65726f60008301527f20746f206e6f6e2d7a65726f20616c6c6f77616e6365000000000000000000006020830152604082019050919050565b60006200171c601f8362001871565b91507f5361666545524332303a2063616c6c20746f206e6f6e2d636f6e7472616374006000830152602082019050919050565b6200175a81620018c2565b82525050565b60006200176e8284620015c4565b915081905092915050565b6000604082019050620017906000830185620015b3565b6200179f6020830184620015b3565b9392505050565b6000604082019050620017bd6000830185620015b3565b620017cc60208301846200174f565b9392505050565b60006020820190508181036000830152620017ee81620015fb565b9050919050565b6000602082019050818103600083015262001810816200163d565b9050919050565b600060208201905081810360008301526200183281620016a5565b9050919050565b6000602082019050818103600083015262001854816200170d565b9050919050565b600081519050919050565b600081905092915050565b600082825260208201905092915050565b60006200188f82620018a2565b9050919050565b60008115159050919050565b600073ffffffffffffffffffffffffffffffffffffffff82169050919050565b6000819050919050565b60005b83811015620018ec578082015181840152602081019050620018cf565b83811115620018fc576000848401525b50505050565b6200190d8162001896565b81146200191957600080fd5b50565b6200192781620018c2565b81146200193357600080fd5b50565b6144b680620019466000396000f3fe6080604052600436106101d85760003560e01c806389a3027111610102578063c54e44eb11610095578063f0df201b11610064578063f0df201b14610637578063f2fde38b14610662578063f60a15ed1461068b578063f9d3c125146106a2576101d8565b8063c54e44eb1461058b578063ce347a3e146105b6578063dc93d6c5146105e1578063e0bab4c41461060c576101d8565b806395f1f30e116100d157806395f1f30e146104f357806399b71d5c1461051e578063b477622b14610535578063b93f70e814610560576101d8565b806389a30271146104475780638cb60909146104725780638da5cb5b1461049d5780638f32d59b146104c8576101d8565b8063484f4ea91161017a578063715018a611610149578063715018a6146103af5780637327b8fc146103c65780638323550b146103f157806388b6d9fc1461041c576101d8565b8063484f4ea914610303578063555023d41461032e578063671cd70a146103595780636f6941b914610384576101d8565b80632e8d6e18116101b65780632e8d6e181461025b57806334725006146102845780633cd7a0d7146102af578063448058b1146102da576101d8565b8063104daa17146101da5780631393f5fd1461020557806316514d4814610230575b005b3480156101e657600080fd5b506101ef6106cd565b6040516101fc9190613f67565b60405180910390f35b34801561021157600080fd5b5061021a6106f3565b6040516102279190613f67565b60405180910390f35b34801561023c57600080fd5b50610245610719565b6040516102529190613f67565b60405180910390f35b34801561026757600080fd5b50610282600480360361027d91908101906138ba565b61073f565b005b34801561029057600080fd5b50610299610842565b6040516102a69190613f67565b60405180910390f35b3480156102bb57600080fd5b506102c4610868565b6040516102d19190613f67565b60405180910390f35b3480156102e657600080fd5b5061030160048036036102fc91908101906138e3565b61088e565b005b34801561030f57600080fd5b50610318612401565b6040516103259190613f67565b60405180910390f35b34801561033a57600080fd5b50610343612427565b6040516103509190613f67565b60405180910390f35b34801561036557600080fd5b5061036e61244d565b60405161037b9190613f67565b60405180910390f35b34801561039057600080fd5b50610399612473565b6040516103a69190613f67565b60405180910390f35b3480156103bb57600080fd5b506103c4612499565b005b3480156103d257600080fd5b506103db6125a1565b6040516103e89190613f67565b60405180910390f35b3480156103fd57600080fd5b506104066125c7565b6040516104139190613f67565b60405180910390f35b34801561042857600080fd5b506104316125ed565b60405161043e9190613f67565b60405180910390f35b34801561045357600080fd5b5061045c612613565b6040516104699190613f67565b60405180910390f35b34801561047e57600080fd5b50610487612639565b6040516104949190613f67565b60405180910390f35b3480156104a957600080fd5b506104b261265f565b6040516104bf9190613f67565b60405180910390f35b3480156104d457600080fd5b506104dd612689565b6040516104ea919061404f565b60405180910390f35b3480156104ff57600080fd5b506105086126e8565b6040516105159190613f67565b60405180910390f35b34801561052a57600080fd5b5061053361270e565b005b34801561054157600080fd5b5061054a612fc2565b6040516105579190613f67565b60405180910390f35b34801561056c57600080fd5b50610575612fe8565b6040516105829190613f67565b60405180910390f35b34801561059757600080fd5b506105a061300e565b6040516105ad9190613f67565b60405180910390f35b3480156105c257600080fd5b506105cb613034565b6040516105d89190613f67565b60405180910390f35b3480156105ed57600080fd5b506105f661305a565b6040516106039190613f67565b60405180910390f35b34801561061857600080fd5b50610621613080565b60405161062e9190613f67565b60405180910390f35b34801561064357600080fd5b5061064c6130a6565b6040516106599190613f67565b60405180910390f35b34801561066e57600080fd5b5061068960048036036106849190810190613868565b6130cc565b005b34801561069757600080fd5b506106a061311f565b005b3480156106ae57600080fd5b506106b761322c565b6040516106c49190613f67565b60405180910390f35b601260009054906101000a900473ffffffffffffffffffffffffffffffffffffffff1681565b600960009054906101000a900473ffffffffffffffffffffffffffffffffffffffff1681565b601360009054906101000a900473ffffffffffffffffffffffffffffffffffffffff1681565b610747612689565b610786576040517f08c379a000000000000000000000000000000000000000000000000000000000815260040161077d906141ca565b60405180910390fd5b60008173ffffffffffffffffffffffffffffffffffffffff166370a08231306040518263ffffffff1660e01b81526004016107c19190613f82565b60206040518083038186803b1580156107d957600080fd5b505afa1580156107ed573d6000803e3d6000fd5b505050506040513d601f19601f82011682018060405250610811919081019061390c565b905061083e33828473ffffffffffffffffffffffffffffffffffffffff166132529092919063ffffffff16565b5050565b600460009054906101000a900473ffffffffffffffffffffffffffffffffffffffff1681565b601660009054906101000a900473ffffffffffffffffffffffffffffffffffffffff1681565b60016000808282540192505081905550600080549050600082116108e7576040517f08c379a00000000000000000000000000000000000000000000000000000000081526004016108de906141aa565b60405180910390fd5b610936333084601660009054906101000a900473ffffffffffffffffffffffffffffffffffffffff1673ffffffffffffffffffffffffffffffffffffffff166132f1909392919063ffffffff16565b601560009054906101000a900473ffffffffffffffffffffffffffffffffffffffff1673ffffffffffffffffffffffffffffffffffffffff16637d49d87583604051806080016040528060008152602001600081526020016000815260200160008152506040518363ffffffff1660e01b81526004016109b79291906142c5565b600060405180830381600087803b1580156109d157600080fd5b505af11580156109e5573d6000803e3d6000fd5b505050506000601660009054906101000a900473ffffffffffffffffffffffffffffffffffffffff1673ffffffffffffffffffffffffffffffffffffffff166370a08231306040518263ffffffff1660e01b8152600401610a469190613f82565b60206040518083038186803b158015610a5e57600080fd5b505afa158015610a72573d6000803e3d6000fd5b505050506040513d601f19601f82011682018060405250610a96919081019061390c565b14610ad6576040517f08c379a0000000000000000000000000000000000000000000000000000000008152600401610acd9061416a565b60405180910390fd5b6000600460009054906101000a900473ffffffffffffffffffffffffffffffffffffffff1673ffffffffffffffffffffffffffffffffffffffff166370a08231306040518263ffffffff1660e01b8152600401610b339190613f82565b60206040518083038186803b158015610b4b57600080fd5b505afa158015610b5f573d6000803e3d6000fd5b505050506040513d601f19601f82011682018060405250610b83919081019061390c565b1115610cc157600460009054906101000a900473ffffffffffffffffffffffffffffffffffffffff1673ffffffffffffffffffffffffffffffffffffffff16632e1a7d4d600460009054906101000a900473ffffffffffffffffffffffffffffffffffffffff1673ffffffffffffffffffffffffffffffffffffffff166370a08231306040518263ffffffff1660e01b8152600401610c229190613f82565b60206040518083038186803b158015610c3a57600080fd5b505afa158015610c4e573d6000803e3d6000fd5b505050506040513d601f19601f82011682018060405250610c72919081019061390c565b6040518263ffffffff1660e01b8152600401610c8e91906142aa565b600060405180830381600087803b158015610ca857600080fd5b505af1158015610cbc573d6000803e3d6000fd5b505050505b6000600860009054906101000a900473ffffffffffffffffffffffffffffffffffffffff1673ffffffffffffffffffffffffffffffffffffffff166370a08231306040518263ffffffff1660e01b8152600401610d1e9190613f82565b60206040518083038186803b158015610d3657600080fd5b505afa158015610d4a573d6000803e3d6000fd5b505050506040513d601f19601f82011682018060405250610d6e919081019061390c565b1115610eac57600860009054906101000a900473ffffffffffffffffffffffffffffffffffffffff1673ffffffffffffffffffffffffffffffffffffffff16632e1a7d4d600860009054906101000a900473ffffffffffffffffffffffffffffffffffffffff1673ffffffffffffffffffffffffffffffffffffffff166370a08231306040518263ffffffff1660e01b8152600401610e0d9190613f82565b60206040518083038186803b158015610e2557600080fd5b505afa158015610e39573d6000803e3d6000fd5b505050506040513d601f19601f82011682018060405250610e5d919081019061390c565b6040518263ffffffff1660e01b8152600401610e7991906142aa565b600060405180830381600087803b158015610e9357600080fd5b505af1158015610ea7573d6000803e3d6000fd5b505050505b6000600b60009054906101000a900473ffffffffffffffffffffffffffffffffffffffff1673ffffffffffffffffffffffffffffffffffffffff166370a08231306040518263ffffffff1660e01b8152600401610f099190613f82565b60206040518083038186803b158015610f2157600080fd5b505afa158015610f35573d6000803e3d6000fd5b505050506040513d601f19601f82011682018060405250610f59919081019061390c565b111561109757600b60009054906101000a900473ffffffffffffffffffffffffffffffffffffffff1673ffffffffffffffffffffffffffffffffffffffff16632e1a7d4d600b60009054906101000a900473ffffffffffffffffffffffffffffffffffffffff1673ffffffffffffffffffffffffffffffffffffffff166370a08231306040518263ffffffff1660e01b8152600401610ff89190613f82565b60206040518083038186803b15801561101057600080fd5b505afa158015611024573d6000803e3d6000fd5b505050506040513d601f19601f82011682018060405250611048919081019061390c565b6040518263ffffffff1660e01b815260040161106491906142aa565b600060405180830381600087803b15801561107e57600080fd5b505af1158015611092573d6000803e3d6000fd5b505050505b6000600e60009054906101000a900473ffffffffffffffffffffffffffffffffffffffff1673ffffffffffffffffffffffffffffffffffffffff166370a08231306040518263ffffffff1660e01b81526004016110f49190613f82565b60206040518083038186803b15801561110c57600080fd5b505afa158015611120573d6000803e3d6000fd5b505050506040513d601f19601f82011682018060405250611144919081019061390c565b111561128257600e60009054906101000a900473ffffffffffffffffffffffffffffffffffffffff1673ffffffffffffffffffffffffffffffffffffffff16632e1a7d4d600e60009054906101000a900473ffffffffffffffffffffffffffffffffffffffff1673ffffffffffffffffffffffffffffffffffffffff166370a08231306040518263ffffffff1660e01b81526004016111e39190613f82565b60206040518083038186803b1580156111fb57600080fd5b505afa15801561120f573d6000803e3d6000fd5b505050506040513d601f19601f82011682018060405250611233919081019061390c565b6040518263ffffffff1660e01b815260040161124f91906142aa565b600060405180830381600087803b15801561126957600080fd5b505af115801561127d573d6000803e3d6000fd5b505050505b6000600260009054906101000a900473ffffffffffffffffffffffffffffffffffffffff1673ffffffffffffffffffffffffffffffffffffffff166370a08231306040518263ffffffff1660e01b81526004016112df9190613f82565b60206040518083038186803b1580156112f757600080fd5b505afa15801561130b573d6000803e3d6000fd5b505050506040513d601f19601f8201168201806040525061132f919081019061390c565b90506000600660009054906101000a900473ffffffffffffffffffffffffffffffffffffffff1673ffffffffffffffffffffffffffffffffffffffff166370a08231306040518263ffffffff1660e01b815260040161138e9190613f82565b60206040518083038186803b1580156113a657600080fd5b505afa1580156113ba573d6000803e3d6000fd5b505050506040513d601f19601f820116820180604052506113de919081019061390c565b90506000600a60009054906101000a900473ffffffffffffffffffffffffffffffffffffffff1673ffffffffffffffffffffffffffffffffffffffff166370a08231306040518263ffffffff1660e01b815260040161143d9190613f82565b60206040518083038186803b15801561145557600080fd5b505afa158015611469573d6000803e3d6000fd5b505050506040513d601f19601f8201168201806040525061148d919081019061390c565b90506000600d60009054906101000a900473ffffffffffffffffffffffffffffffffffffffff1673ffffffffffffffffffffffffffffffffffffffff166370a08231306040518263ffffffff1660e01b81526004016114ec9190613f82565b60206040518083038186803b15801561150457600080fd5b505afa158015611518573d6000803e3d6000fd5b505050506040513d601f19601f8201168201806040525061153c919081019061390c565b9050600084118061154d5750600083115b806115585750600082115b806115635750600081115b6115a2576040517f08c379a00000000000000000000000000000000000000000000000000000000081526004016115999061418a565b60405180910390fd5b600084111561172657600560009054906101000a900473ffffffffffffffffffffffffffffffffffffffff1673ffffffffffffffffffffffffffffffffffffffff1663b6b55f25856040518263ffffffff1660e01b815260040161160691906142aa565b600060405180830381600087803b15801561162057600080fd5b505af1158015611634573d6000803e3d6000fd5b505050506000600260009054906101000a900473ffffffffffffffffffffffffffffffffffffffff1673ffffffffffffffffffffffffffffffffffffffff166370a08231306040518263ffffffff1660e01b81526004016116959190613f82565b60206040518083038186803b1580156116ad57600080fd5b505afa1580156116c1573d6000803e3d6000fd5b505050506040513d601f19601f820116820180604052506116e5919081019061390c565b14611725576040517f08c379a000000000000000000000000000000000000000000000000000000000815260040161171c9061406a565b60405180910390fd5b5b60008311156118aa57600960009054906101000a900473ffffffffffffffffffffffffffffffffffffffff1673ffffffffffffffffffffffffffffffffffffffff1663b6b55f25846040518263ffffffff1660e01b815260040161178a91906142aa565b600060405180830381600087803b1580156117a457600080fd5b505af11580156117b8573d6000803e3d6000fd5b505050506000600660009054906101000a900473ffffffffffffffffffffffffffffffffffffffff1673ffffffffffffffffffffffffffffffffffffffff166370a08231306040518263ffffffff1660e01b81526004016118199190613f82565b60206040518083038186803b15801561183157600080fd5b505afa158015611845573d6000803e3d6000fd5b505050506040513d601f19601f82011682018060405250611869919081019061390c565b146118a9576040517f08c379a00000000000000000000000000000000000000000000000000000000081526004016118a09061412a565b60405180910390fd5b5b6000821115611a2e57600c60009054906101000a900473ffffffffffffffffffffffffffffffffffffffff1673ffffffffffffffffffffffffffffffffffffffff1663b6b55f25836040518263ffffffff1660e01b815260040161190e91906142aa565b600060405180830381600087803b15801561192857600080fd5b505af115801561193c573d6000803e3d6000fd5b505050506000600a60009054906101000a900473ffffffffffffffffffffffffffffffffffffffff1673ffffffffffffffffffffffffffffffffffffffff166370a08231306040518263ffffffff1660e01b815260040161199d9190613f82565b60206040518083038186803b1580156119b557600080fd5b505afa1580156119c9573d6000803e3d6000fd5b505050506040513d601f19601f820116820180604052506119ed919081019061390c565b14611a2d576040517f08c379a0000000000000000000000000000000000000000000000000000000008152600401611a249061412a565b60405180910390fd5b5b6000811115611ac557601060009054906101000a900473ffffffffffffffffffffffffffffffffffffffff1673ffffffffffffffffffffffffffffffffffffffff1663b6b55f25826040518263ffffffff1660e01b8152600401611a9291906142aa565b600060405180830381600087803b158015611aac57600080fd5b505af1158015611ac0573d6000803e3d6000fd5b505050505b601760009054906101000a900473ffffffffffffffffffffffffffffffffffffffff1673ffffffffffffffffffffffffffffffffffffffff1663029b2f346040518060800160405280600560009054906101000a900473ffffffffffffffffffffffffffffffffffffffff1673ffffffffffffffffffffffffffffffffffffffff166370a08231306040518263ffffffff1660e01b8152600401611b699190613f82565b60206040518083038186803b158015611b8157600080fd5b505afa158015611b95573d6000803e3d6000fd5b505050506040513d601f19601f82011682018060405250611bb9919081019061390c565b8152602001600960009054906101000a900473ffffffffffffffffffffffffffffffffffffffff1673ffffffffffffffffffffffffffffffffffffffff166370a08231306040518263ffffffff1660e01b8152600401611c199190613f82565b60206040518083038186803b158015611c3157600080fd5b505afa158015611c45573d6000803e3d6000fd5b505050506040513d601f19601f82011682018060405250611c69919081019061390c565b8152602001600c60009054906101000a900473ffffffffffffffffffffffffffffffffffffffff1673ffffffffffffffffffffffffffffffffffffffff166370a08231306040518263ffffffff1660e01b8152600401611cc99190613f82565b60206040518083038186803b158015611ce157600080fd5b505afa158015611cf5573d6000803e3d6000fd5b505050506040513d601f19601f82011682018060405250611d19919081019061390c565b8152602001601060009054906101000a900473ffffffffffffffffffffffffffffffffffffffff1673ffffffffffffffffffffffffffffffffffffffff166370a08231306040518263ffffffff1660e01b8152600401611d799190613f82565b60206040518083038186803b158015611d9157600080fd5b505afa158015611da5573d6000803e3d6000fd5b505050506040513d601f19601f82011682018060405250611dc9919081019061390c565b81525060006040518363ffffffff1660e01b8152600401611deb929190614026565b600060405180830381600087803b158015611e0557600080fd5b505af1158015611e19573d6000803e3d6000fd5b505050506000600560009054906101000a900473ffffffffffffffffffffffffffffffffffffffff1673ffffffffffffffffffffffffffffffffffffffff166370a08231306040518263ffffffff1660e01b8152600401611e7a9190613f82565b60206040518083038186803b158015611e9257600080fd5b505afa158015611ea6573d6000803e3d6000fd5b505050506040513d601f19601f82011682018060405250611eca919081019061390c565b14611f0a576040517f08c379a0000000000000000000000000000000000000000000000000000000008152600401611f01906140ea565b60405180910390fd5b6000600960009054906101000a900473ffffffffffffffffffffffffffffffffffffffff1673ffffffffffffffffffffffffffffffffffffffff166370a08231306040518263ffffffff1660e01b8152600401611f679190613f82565b60206040518083038186803b158015611f7f57600080fd5b505afa158015611f93573d6000803e3d6000fd5b505050506040513d601f19601f82011682018060405250611fb7919081019061390c565b14611ff7576040517f08c379a0000000000000000000000000000000000000000000000000000000008152600401611fee906140ca565b60405180910390fd5b6000600c60009054906101000a900473ffffffffffffffffffffffffffffffffffffffff1673ffffffffffffffffffffffffffffffffffffffff166370a08231306040518263ffffffff1660e01b81526004016120549190613f82565b60206040518083038186803b15801561206c57600080fd5b505afa158015612080573d6000803e3d6000fd5b505050506040513d601f19601f820116820180604052506120a4919081019061390c565b146120e4576040517f08c379a00000000000000000000000000000000000000000000000000000000081526004016120db9061422a565b60405180910390fd5b6000601060009054906101000a900473ffffffffffffffffffffffffffffffffffffffff1673ffffffffffffffffffffffffffffffffffffffff166370a08231306040518263ffffffff1660e01b81526004016121419190613f82565b60206040518083038186803b15801561215957600080fd5b505afa15801561216d573d6000803e3d6000fd5b505050506040513d601f19601f82011682018060405250612191919081019061390c565b146121d1576040517f08c379a00000000000000000000000000000000000000000000000000000000081526004016121c89061408a565b60405180910390fd5b6122c833601860009054906101000a900473ffffffffffffffffffffffffffffffffffffffff1673ffffffffffffffffffffffffffffffffffffffff166370a08231306040518263ffffffff1660e01b81526004016122309190613f82565b60206040518083038186803b15801561224857600080fd5b505afa15801561225c573d6000803e3d6000fd5b505050506040513d601f19601f82011682018060405250612280919081019061390c565b601860009054906101000a900473ffffffffffffffffffffffffffffffffffffffff1673ffffffffffffffffffffffffffffffffffffffff166132529092919063ffffffff16565b6000601860009054906101000a900473ffffffffffffffffffffffffffffffffffffffff1673ffffffffffffffffffffffffffffffffffffffff166370a08231306040518263ffffffff1660e01b81526004016123259190613f82565b60206040518083038186803b15801561233d57600080fd5b505afa158015612351573d6000803e3d6000fd5b505050506040513d601f19601f82011682018060405250612375919081019061390c565b146123b5576040517f08c379a00000000000000000000000000000000000000000000000000000000081526004016123ac906141ea565b60405180910390fd5b5050505060005481146123fd576040517f08c379a00000000000000000000000000000000000000000000000000000000081526004016123f49061424a565b60405180910390fd5b5050565b600f60009054906101000a900473ffffffffffffffffffffffffffffffffffffffff1681565b601760009054906101000a900473ffffffffffffffffffffffffffffffffffffffff1681565b601460009054906101000a900473ffffffffffffffffffffffffffffffffffffffff1681565b600360009054906101000a900473ffffffffffffffffffffffffffffffffffffffff1681565b6124a1612689565b6124e0576040517f08c379a00000000000000000000000000000000000000000000000000000000081526004016124d7906141ca565b60405180910390fd5b600073ffffffffffffffffffffffffffffffffffffffff16600160009054906101000a900473ffffffffffffffffffffffffffffffffffffffff1673ffffffffffffffffffffffffffffffffffffffff167f8be0079c531659141344cd1fd0a4f28419497f9722a3daafe3b4186f6b6457e060405160405180910390a36000600160006101000a81548173ffffffffffffffffffffffffffffffffffffffff021916908373ffffffffffffffffffffffffffffffffffffffff160217905550565b600560009054906101000a900473ffffffffffffffffffffffffffffffffffffffff1681565b600d60009054906101000a900473ffffffffffffffffffffffffffffffffffffffff1681565b600c60009054906101000a900473ffffffffffffffffffffffffffffffffffffffff1681565b600660009054906101000a900473ffffffffffffffffffffffffffffffffffffffff1681565b600e60009054906101000a900473ffffffffffffffffffffffffffffffffffffffff1681565b6000600160009054906101000a900473ffffffffffffffffffffffffffffffffffffffff16905090565b6000600160009054906101000a900473ffffffffffffffffffffffffffffffffffffffff1673ffffffffffffffffffffffffffffffffffffffff166126cc613393565b73ffffffffffffffffffffffffffffffffffffffff1614905090565b601160009054906101000a900473ffffffffffffffffffffffffffffffffffffffff1681565b61279d600460009054906101000a900473ffffffffffffffffffffffffffffffffffffffff167fffffffffffffffffffffffffffffffffffffffffffffffffffffffffffffffff600260009054906101000a900473ffffffffffffffffffffffffffffffffffffffff1673ffffffffffffffffffffffffffffffffffffffff1661339b9092919063ffffffff16565b61282c600560009054906101000a900473ffffffffffffffffffffffffffffffffffffffff167fffffffffffffffffffffffffffffffffffffffffffffffffffffffffffffffff600260009054906101000a900473ffffffffffffffffffffffffffffffffffffffff1673ffffffffffffffffffffffffffffffffffffffff1661339b9092919063ffffffff16565b6128bb601560009054906101000a900473ffffffffffffffffffffffffffffffffffffffff167fffffffffffffffffffffffffffffffffffffffffffffffffffffffffffffffff600460009054906101000a900473ffffffffffffffffffffffffffffffffffffffff1673ffffffffffffffffffffffffffffffffffffffff1661339b9092919063ffffffff16565b61294a601760009054906101000a900473ffffffffffffffffffffffffffffffffffffffff167fffffffffffffffffffffffffffffffffffffffffffffffffffffffffffffffff600560009054906101000a900473ffffffffffffffffffffffffffffffffffffffff1673ffffffffffffffffffffffffffffffffffffffff1661339b9092919063ffffffff16565b6129d9600860009054906101000a900473ffffffffffffffffffffffffffffffffffffffff167fffffffffffffffffffffffffffffffffffffffffffffffffffffffffffffffff600660009054906101000a900473ffffffffffffffffffffffffffffffffffffffff1673ffffffffffffffffffffffffffffffffffffffff1661339b9092919063ffffffff16565b612a68600960009054906101000a900473ffffffffffffffffffffffffffffffffffffffff167fffffffffffffffffffffffffffffffffffffffffffffffffffffffffffffffff600660009054906101000a900473ffffffffffffffffffffffffffffffffffffffff1673ffffffffffffffffffffffffffffffffffffffff1661339b9092919063ffffffff16565b612af7601560009054906101000a900473ffffffffffffffffffffffffffffffffffffffff167fffffffffffffffffffffffffffffffffffffffffffffffffffffffffffffffff600860009054906101000a900473ffffffffffffffffffffffffffffffffffffffff1673ffffffffffffffffffffffffffffffffffffffff1661339b9092919063ffffffff16565b612b86601760009054906101000a900473ffffffffffffffffffffffffffffffffffffffff167fffffffffffffffffffffffffffffffffffffffffffffffffffffffffffffffff600960009054906101000a900473ffffffffffffffffffffffffffffffffffffffff1673ffffffffffffffffffffffffffffffffffffffff1661339b9092919063ffffffff16565b612c15601060009054906101000a900473ffffffffffffffffffffffffffffffffffffffff167fffffffffffffffffffffffffffffffffffffffffffffffffffffffffffffffff600f60009054906101000a900473ffffffffffffffffffffffffffffffffffffffff1673ffffffffffffffffffffffffffffffffffffffff1661339b9092919063ffffffff16565b612ca4601760009054906101000a900473ffffffffffffffffffffffffffffffffffffffff167fffffffffffffffffffffffffffffffffffffffffffffffffffffffffffffffff601060009054906101000a900473ffffffffffffffffffffffffffffffffffffffff1673ffffffffffffffffffffffffffffffffffffffff1661339b9092919063ffffffff16565b612d14600b60009054906101000a900473ffffffffffffffffffffffffffffffffffffffff166000600a60009054906101000a900473ffffffffffffffffffffffffffffffffffffffff1673ffffffffffffffffffffffffffffffffffffffff1661339b9092919063ffffffff16565b612da3600b60009054906101000a900473ffffffffffffffffffffffffffffffffffffffff167fffffffffffffffffffffffffffffffffffffffffffffffffffffffffffffffff600a60009054906101000a900473ffffffffffffffffffffffffffffffffffffffff1673ffffffffffffffffffffffffffffffffffffffff1661339b9092919063ffffffff16565b612e13600c60009054906101000a900473ffffffffffffffffffffffffffffffffffffffff166000600a60009054906101000a900473ffffffffffffffffffffffffffffffffffffffff1673ffffffffffffffffffffffffffffffffffffffff1661339b9092919063ffffffff16565b612ea2600c60009054906101000a900473ffffffffffffffffffffffffffffffffffffffff167fffffffffffffffffffffffffffffffffffffffffffffffffffffffffffffffff600a60009054906101000a900473ffffffffffffffffffffffffffffffffffffffff1673ffffffffffffffffffffffffffffffffffffffff1661339b9092919063ffffffff16565b612f31601560009054906101000a900473ffffffffffffffffffffffffffffffffffffffff167fffffffffffffffffffffffffffffffffffffffffffffffffffffffffffffffff600b60009054906101000a900473ffffffffffffffffffffffffffffffffffffffff1673ffffffffffffffffffffffffffffffffffffffff1661339b9092919063ffffffff16565b612fc0601760009054906101000a900473ffffffffffffffffffffffffffffffffffffffff167fffffffffffffffffffffffffffffffffffffffffffffffffffffffffffffffff600c60009054906101000a900473ffffffffffffffffffffffffffffffffffffffff1673ffffffffffffffffffffffffffffffffffffffff1661339b9092919063ffffffff16565b565b601560009054906101000a900473ffffffffffffffffffffffffffffffffffffffff1681565b601860009054906101000a900473ffffffffffffffffffffffffffffffffffffffff1681565b600a60009054906101000a900473ffffffffffffffffffffffffffffffffffffffff1681565b600760009054906101000a900473ffffffffffffffffffffffffffffffffffffffff1681565b600b60009054906101000a900473ffffffffffffffffffffffffffffffffffffffff1681565b600260009054906101000a900473ffffffffffffffffffffffffffffffffffffffff1681565b600860009054906101000a900473ffffffffffffffffffffffffffffffffffffffff1681565b6130d4612689565b613113576040517f08c379a000000000000000000000000000000000000000000000000000000000815260040161310a906141ca565b60405180910390fd5b61311c81613512565b50565b613127612689565b613166576040517f08c379a000000000000000000000000000000000000000000000000000000000815260040161315d906141ca565b60405180910390fd5b60003373ffffffffffffffffffffffffffffffffffffffff163073ffffffffffffffffffffffffffffffffffffffff16316040516131a390613f52565b60006040518083038185875af1925050503d80600081146131e0576040519150601f19603f3d011682016040523d82523d6000602084013e6131e5565b606091505b5050905080613229576040517f08c379a00000000000000000000000000000000000000000000000000000000081526004016132209061414a565b60405180910390fd5b50565b601060009054906101000a900473ffffffffffffffffffffffffffffffffffffffff1681565b6132ec838473ffffffffffffffffffffffffffffffffffffffff1663a9059cbb905060e01b848460405160240161328a929190613ffd565b604051602081830303815290604052907bffffffffffffffffffffffffffffffffffffffffffffffffffffffff19166020820180517bffffffffffffffffffffffffffffffffffffffffffffffffffffffff8381831617835250505050613642565b505050565b61338d848573ffffffffffffffffffffffffffffffffffffffff166323b872dd905060e01b85858560405160240161332b93929190613fc6565b604051602081830303815290604052907bffffffffffffffffffffffffffffffffffffffffffffffffffffffff19166020820180517bffffffffffffffffffffffffffffffffffffffffffffffffffffffff8381831617835250505050613642565b50505050565b600033905090565b6000811480613434575060008373ffffffffffffffffffffffffffffffffffffffff1663dd62ed3e30856040518363ffffffff1660e01b81526004016133e2929190613f9d565b60206040518083038186803b1580156133fa57600080fd5b505afa15801561340e573d6000803e3d6000fd5b505050506040513d601f19601f82011682018060405250613432919081019061390c565b145b613473576040517f08c379a000000000000000000000000000000000000000000000000000000000815260040161346a9061426a565b60405180910390fd5b61350d838473ffffffffffffffffffffffffffffffffffffffff1663095ea7b3905060e01b84846040516024016134ab929190613ffd565b604051602081830303815290604052907bffffffffffffffffffffffffffffffffffffffffffffffffffffffff19166020820180517bffffffffffffffffffffffffffffffffffffffffffffffffffffffff8381831617835250505050613642565b505050565b600073ffffffffffffffffffffffffffffffffffffffff168173ffffffffffffffffffffffffffffffffffffffff161415613582576040517f08c379a0000000000000000000000000000000000000000000000000000000008152600401613579906140aa565b60405180910390fd5b8073ffffffffffffffffffffffffffffffffffffffff16600160009054906101000a900473ffffffffffffffffffffffffffffffffffffffff1673ffffffffffffffffffffffffffffffffffffffff167f8be0079c531659141344cd1fd0a4f28419497f9722a3daafe3b4186f6b6457e060405160405180910390a380600160006101000a81548173ffffffffffffffffffffffffffffffffffffffff021916908373ffffffffffffffffffffffffffffffffffffffff16021790555050565b6136618273ffffffffffffffffffffffffffffffffffffffff166137b4565b6136a0576040517f08c379a00000000000000000000000000000000000000000000000000000000081526004016136979061428a565b60405180910390fd5b600060608373ffffffffffffffffffffffffffffffffffffffff16836040516136c99190613f3b565b6000604051808303816000865af19150503d8060008114613706576040519150601f19603f3d011682016040523d82523d6000602084013e61370b565b606091505b509150915081613750576040517f08c379a00000000000000000000000000000000000000000000000000000000081526004016137479061410a565b60405180910390fd5b6000815111156137ae578080602001905161376e9190810190613891565b6137ad576040517f08c379a00000000000000000000000000000000000000000000000000000000081526004016137a49061420a565b60405180910390fd5b5b50505050565b60008060007fc5d2460186f7233c927e7db2dcc703c0e500b653ca82273b7bfad8045d85a47060001b9050833f91506000801b82141580156137f65750808214155b92505050919050565b60008135905061380e81614417565b92915050565b6000815190506138238161442e565b92915050565b60008135905061383881614445565b92915050565b60008135905061384d8161445c565b92915050565b6000815190506138628161445c565b92915050565b60006020828403121561387a57600080fd5b6000613888848285016137ff565b91505092915050565b6000602082840312156138a357600080fd5b60006138b184828501613814565b91505092915050565b6000602082840312156138cc57600080fd5b60006138da84828501613829565b91505092915050565b6000602082840312156138f557600080fd5b60006139038482850161383e565b91505092915050565b60006020828403121561391e57600080fd5b600061392c84828501613853565b91505092915050565b60006139418383613f1d565b60208301905092915050565b6139568161439c565b82525050565b61396581614342565b82525050565b613974816142f8565b61397e818461431b565b9250613989826142ee565b8060005b838110156139ba5781516139a18782613935565b96506139ac8361430e565b92505060018101905061398d565b505050505050565b6139cb81614354565b82525050565b60006139dc82614303565b6139e68185614326565b93506139f68185602086016143e4565b80840191505092915050565b613a0b816143ae565b82525050565b6000613a1e600d83614331565b91507f6461692072656d61696e646572000000000000000000000000000000000000006000830152602082019050919050565b6000613a5e600f83614331565b91507f79425553442072656d61696e64657200000000000000000000000000000000006000830152602082019050919050565b6000613a9e602683614331565b91507f4f776e61626c653a206e6577206f776e657220697320746865207a65726f206160008301527f64647265737300000000000000000000000000000000000000000000000000006020830152604082019050919050565b6000613b04600f83614331565b91507f79555344432072656d61696e64657200000000000000000000000000000000006000830152602082019050919050565b6000613b44600e83614331565b91507f794441492072656d61696e6465720000000000000000000000000000000000006000830152602082019050919050565b6000613b84602083614331565b91507f5361666545524332303a206c6f772d6c6576656c2063616c6c206661696c65646000830152602082019050919050565b6000613bc4600e83614331565b91507f757364632072656d61696e6465720000000000000000000000000000000000006000830152602082019050919050565b6000613c04601683614331565b91507f7472616e73666572206f6620455448206661696c6564000000000000000000006000830152602082019050919050565b6000613c44600f83614331565b91507f43555256452072656d61696e64657200000000000000000000000000000000006000830152602082019050919050565b6000613c84601383614331565b91507f6e6f20756e6465726c79696e6720666f756e64000000000000000000000000006000830152602082019050919050565b6000613cc4601e83614331565b91507f63757276657633206d7573742062652067726561746572207468616e203000006000830152602082019050919050565b6000613d04602083614331565b91507f4f776e61626c653a2063616c6c6572206973206e6f7420746865206f776e65726000830152602082019050919050565b6000613d44600083614326565b9150600082019050919050565b6000613d5e601183614331565b91507f435552564576332072656d61696e6465720000000000000000000000000000006000830152602082019050919050565b6000613d9e602a83614331565b91507f5361666545524332303a204552433230206f7065726174696f6e20646964206e60008301527f6f742073756363656564000000000000000000000000000000000000000000006020830152604082019050919050565b6000613e04600f83614331565b91507f79555344542072656d61696e64657200000000000000000000000000000000006000830152602082019050919050565b6000613e44601f83614331565b91507f5265656e7472616e637947756172643a207265656e7472616e742063616c6c006000830152602082019050919050565b6000613e84603683614331565b91507f5361666545524332303a20617070726f76652066726f6d206e6f6e2d7a65726f60008301527f20746f206e6f6e2d7a65726f20616c6c6f77616e6365000000000000000000006020830152604082019050919050565b6000613eea601f83614331565b91507f5361666545524332303a2063616c6c20746f206e6f6e2d636f6e7472616374006000830152602082019050919050565b613f2681614392565b82525050565b613f3581614392565b82525050565b6000613f4782846139d1565b915081905092915050565b6000613f5d82613d37565b9150819050919050565b6000602082019050613f7c600083018461395c565b92915050565b6000602082019050613f97600083018461394d565b92915050565b6000604082019050613fb2600083018561395c565b613fbf602083018461395c565b9392505050565b6000606082019050613fdb600083018661395c565b613fe8602083018561395c565b613ff56040830184613f2c565b949350505050565b6000604082019050614012600083018561395c565b61401f6020830184613f2c565b9392505050565b600060a08201905061403b600083018561396b565b6140486080830184613a02565b9392505050565b600060208201905061406460008301846139c2565b92915050565b6000602082019050818103600083015261408381613a11565b9050919050565b600060208201905081810360008301526140a381613a51565b9050919050565b600060208201905081810360008301526140c381613a91565b9050919050565b600060208201905081810360008301526140e381613af7565b9050919050565b6000602082019050818103600083015261410381613b37565b9050919050565b6000602082019050818103600083015261412381613b77565b9050919050565b6000602082019050818103600083015261414381613bb7565b9050919050565b6000602082019050818103600083015261416381613bf7565b9050919050565b6000602082019050818103600083015261418381613c37565b9050919050565b600060208201905081810360008301526141a381613c77565b9050919050565b600060208201905081810360008301526141c381613cb7565b9050919050565b600060208201905081810360008301526141e381613cf7565b9050919050565b6000602082019050818103600083015261420381613d51565b9050919050565b6000602082019050818103600083015261422381613d91565b9050919050565b6000602082019050818103600083015261424381613df7565b9050919050565b6000602082019050818103600083015261426381613e37565b9050919050565b6000602082019050818103600083015261428381613e77565b9050919050565b600060208201905081810360008301526142a381613edd565b9050919050565b60006020820190506142bf6000830184613f2c565b92915050565b600060a0820190506142da6000830185613f2c565b6142e7602083018461396b565b9392505050565b6000819050919050565b600060049050919050565b600081519050919050565b6000602082019050919050565b600081905092915050565b600081905092915050565b600082825260208201905092915050565b600061434d82614372565b9050919050565b60008115159050919050565b600061436b82614342565b9050919050565b600073ffffffffffffffffffffffffffffffffffffffff82169050919050565b6000819050919050565b60006143a7826143c0565b9050919050565b60006143b982614392565b9050919050565b60006143cb826143d2565b9050919050565b60006143dd82614372565b9050919050565b60005b838110156144025780820151818401526020810190506143e7565b83811115614411576000848401525b50505050565b61442081614342565b811461442b57600080fd5b50565b61443781614354565b811461444257600080fd5b50565b61444e81614360565b811461445957600080fd5b50565b61446581614392565b811461447057600080fd5b5056fea365627a7a72315820aa845a7c64965feef31f64876e9742632c97b10f7a3ec5813b05c0ed2327e8246c6578706572696d656e74616cf564736f6c634300050c0040",
  "source": "pragma solidity ^0.5.0;\npragma experimental ABIEncoderV2;\n\ninterface IERC20 {\n    function totalSupply() external view returns (uint256);\n    function balanceOf(address account) external view returns (uint256);\n    function transfer(address recipient, uint256 amount) external returns (bool);\n    function allowance(address owner, address spender) external view returns (uint256);\n    function approve(address spender, uint256 amount) external returns (bool);\n    function transferFrom(address sender, address recipient, uint256 amount) external returns (bool);\n    event Transfer(address indexed from, address indexed to, uint256 value);\n    event Approval(address indexed owner, address indexed spender, uint256 value);\n}\n\ncontract Context {\n    constructor () internal { }\n    // solhint-disable-previous-line no-empty-blocks\n\n    function _msgSender() internal view returns (address payable) {\n        return msg.sender;\n    }\n\n    function _msgData() internal view returns (bytes memory) {\n        this; // silence state mutability warning without generating bytecode - see https://github.com/ethereum/solidity/issues/2691\n        return msg.data;\n    }\n}\n\ncontract ReentrancyGuard {\n    uint256 private _guardCounter;\n\n    constructor () internal {\n        _guardCounter = 1;\n    }\n\n    modifier nonReentrant() {\n        _guardCounter += 1;\n        uint256 localCounter = _guardCounter;\n        _;\n        require(localCounter == _guardCounter, \"ReentrancyGuard: reentrant call\");\n    }\n}\n\ncontract Ownable is Context {\n    address private _owner;\n\n    event OwnershipTransferred(address indexed previousOwner, address indexed newOwner);\n    constructor () internal {\n        _owner = _msgSender();\n        emit OwnershipTransferred(address(0), _owner);\n    }\n    function owner() public view returns (address) {\n        return _owner;\n    }\n    modifier onlyOwner() {\n        require(isOwner(), \"Ownable: caller is not the owner\");\n        _;\n    }\n    function isOwner() public view returns (bool) {\n        return _msgSender() == _owner;\n    }\n    function renounceOwnership() public onlyOwner {\n        emit OwnershipTransferred(_owner, address(0));\n        _owner = address(0);\n    }\n    function transferOwnership(address newOwner) public onlyOwner {\n        _transferOwnership(newOwner);\n    }\n    function _transferOwnership(address newOwner) internal {\n        require(newOwner != address(0), \"Ownable: new owner is the zero address\");\n        emit OwnershipTransferred(_owner, newOwner);\n        _owner = newOwner;\n    }\n}\n\nlibrary SafeMath {\n    function add(uint256 a, uint256 b) internal pure returns (uint256) {\n        uint256 c = a + b;\n        require(c >= a, \"SafeMath: addition overflow\");\n\n        return c;\n    }\n    function sub(uint256 a, uint256 b) internal pure returns (uint256) {\n        return sub(a, b, \"SafeMath: subtraction overflow\");\n    }\n    function sub(uint256 a, uint256 b, string memory errorMessage) internal pure returns (uint256) {\n        require(b <= a, errorMessage);\n        uint256 c = a - b;\n\n        return c;\n    }\n    function mul(uint256 a, uint256 b) internal pure returns (uint256) {\n        if (a == 0) {\n            return 0;\n        }\n\n        uint256 c = a * b;\n        require(c / a == b, \"SafeMath: multiplication overflow\");\n\n        return c;\n    }\n    function div(uint256 a, uint256 b) internal pure returns (uint256) {\n        return div(a, b, \"SafeMath: division by zero\");\n    }\n    function div(uint256 a, uint256 b, string memory errorMessage) internal pure returns (uint256) {\n        // Solidity only automatically asserts when dividing by 0\n        require(b > 0, errorMessage);\n        uint256 c = a / b;\n\n        return c;\n    }\n    function mod(uint256 a, uint256 b) internal pure returns (uint256) {\n        return mod(a, b, \"SafeMath: modulo by zero\");\n    }\n    function mod(uint256 a, uint256 b, string memory errorMessage) internal pure returns (uint256) {\n        require(b != 0, errorMessage);\n        return a % b;\n    }\n}\n\nlibrary Address {\n    function isContract(address account) internal view returns (bool) {\n        bytes32 codehash;\n        bytes32 accountHash = 0xc5d2460186f7233c927e7db2dcc703c0e500b653ca82273b7bfad8045d85a470;\n        // solhint-disable-next-line no-inline-assembly\n        assembly { codehash := extcodehash(account) }\n        return (codehash != 0x0 && codehash != accountHash);\n    }\n    function toPayable(address account) internal pure returns (address payable) {\n        return address(uint160(account));\n    }\n    function sendValue(address payable recipient, uint256 amount) internal {\n        require(address(this).balance >= amount, \"Address: insufficient balance\");\n\n        // solhint-disable-next-line avoid-call-value\n        (bool success, ) = recipient.call.value(amount)(\"\");\n        require(success, \"Address: unable to send value, recipient may have reverted\");\n    }\n}\n\nlibrary SafeERC20 {\n    using SafeMath for uint256;\n    using Address for address;\n\n    function safeTransfer(IERC20 token, address to, uint256 value) internal {\n        callOptionalReturn(token, abi.encodeWithSelector(token.transfer.selector, to, value));\n    }\n    function safeTransferFrom(IERC20 token, address from, address to, uint256 value) internal {\n        callOptionalReturn(token, abi.encodeWithSelector(token.transferFrom.selector, from, to, value));\n    }\n    function safeApprove(IERC20 token, address spender, uint256 value) internal {\n        require((value == 0) || (token.allowance(address(this), spender) == 0),\n            \"SafeERC20: approve from non-zero to non-zero allowance\"\n        );\n        callOptionalReturn(token, abi.encodeWithSelector(token.approve.selector, spender, value));\n    }\n    function callOptionalReturn(IERC20 token, bytes memory data) private {\n        require(address(token).isContract(), \"SafeERC20: call to non-contract\");\n\n        // solhint-disable-next-line avoid-low-level-calls\n        (bool success, bytes memory returndata) = address(token).call(data);\n        require(success, \"SafeERC20: low-level call failed\");\n\n        if (returndata.length > 0) { // Return data is optional\n            // solhint-disable-next-line max-line-length\n            require(abi.decode(returndata, (bool)), \"SafeERC20: ERC20 operation did not succeed\");\n        }\n    }\n}\n\ninterface yERC20 {\n  function deposit(uint256 _amount) external;\n  function withdraw(uint256 _amount) external;\n}\n\n// Solidity Interface\n\ninterface ICurveFiv1 {\n  function remove_liquidity(\n    uint256 _amount,\n    uint256 deadline,\n    uint256[2] calldata min_amounts\n  ) external;\n}\n\ninterface ICurveFiv2 {\n  function remove_liquidity(\n    uint256 _amount,\n    uint256[3] calldata min_amounts\n  ) external;\n}\n\ninterface ICurveFiv3 {\n  function remove_liquidity(\n    uint256 _amount,\n    uint256[4] calldata min_amounts\n  ) external;\n}\n\ninterface Compound {\n    function mint ( uint256 mintAmount ) external returns ( uint256 );\n    function redeem(uint256 redeemTokens) external returns (uint256);\n    function exchangeRateStored() external view returns (uint);\n}\n\ninterface ICurveFiv4 {\n  function add_liquidity(\n    uint256[4] calldata amounts,\n    uint256 min_mint_amount\n  ) external;\n}\n\ncontract yCurveZapSwapV4 is ReentrancyGuard, Ownable {\n  using SafeERC20 for IERC20;\n  using Address for address;\n  using SafeMath for uint256;\n\n  address public DAI;\n  address public cDAI;\n  address public yDAIv2;\n  address public yDAIv3;\n  address public USDC;\n  address public cUSDC;\n  address public yUSDCv2;\n  address public yUSDCv3;\n  address public USDT;\n  address public yUSDTv2;\n  address public yUSDTv3;\n  address public TUSD;\n  address public yTUSDv2;\n  address public BUSD;\n  address public yBUSDv3;\n  address public SWAPv1;\n  address public CURVEv1;\n  address public SWAPv2;\n  address public CURVEv2;\n  address public SWAPv3;\n  address public CURVEv3;\n  address public SWAPv4;\n  address public CURVEv4;\n\n  constructor () public {\n    DAI = address(0x6B175474E89094C44Da98b954EedeAC495271d0F);\n    yDAIv2 = address(0x16de59092dAE5CcF4A1E6439D611fd0653f0Bd01);\n    yDAIv3 = address(0xC2cB1040220768554cf699b0d863A3cd4324ce32);\n    cDAI = address(0x5d3a536E4D6DbD6114cc1Ead35777bAB948E3643);\n\n    TUSD = address(0x0000000000085d4780B73119b644AE5ecd22b376);\n    yTUSDv2 = address(0x73a052500105205d34Daf004eAb301916DA8190f);\n\n    USDC = address(0xA0b86991c6218b36c1d19D4a2e9Eb0cE3606eB48);\n    yUSDCv2 = address(0xd6aD7a6750A7593E092a9B218d66C0A814a3436e);\n    yUSDCv3 = address(0x26EA744E5B887E5205727f55dFBE8685e3b21951);\n    cUSDC = address(0x39AA39c021dfbaE8faC545936693aC917d5E7563);\n\n    USDT = address(0xdAC17F958D2ee523a2206206994597C13D831ec7);\n    yUSDTv2 = address(0x83f798e925BcD4017Eb265844FDDAbb448f1707D);\n    yUSDTv3 = address(0xE6354ed5bC4b393a5Aad09f21c46E101e692d447);\n\n    BUSD = address(0x4Fabb145d64652a948d72533023f6E7A623C7C53);\n    yBUSDv3 = address(0x04bC0Ab673d88aE9dbC9DA2380cB6B79C4BCa9aE);\n\n\n    SWAPv1 = address(0x2e60CF74d81ac34eB21eEff58Db4D385920ef419);\n    CURVEv1 = address(0x3740fb63ab7a09891d7c0d4299442A551D06F5fD);\n\n    SWAPv2 = address(0x52EA46506B9CC5Ef470C5bf89f17Dc28bB35D85C);\n    CURVEv2 = address(0x9fC689CCaDa600B6DF723D9E47D84d76664a1F23);\n\n    SWAPv3 = address(0x45F783CCE6B7FF23B2ab2D70e416cdb7D6055f51);\n    CURVEv3 = address(0xdF5e0e81Dff6FAF3A7e52BA697820c5e32D806A8);\n\n    SWAPv4 = address(0x79a8C46DeA5aDa233ABaFFD40F3A0A2B1e5A4F27);\n    CURVEv4 = address(0x3B3Ac5386837Dc563660FB6a0937DFAa5924333B);\n\n    approveToken();\n  }\n\n  function() external payable {\n\n  }\n\n  function withdrawCompound(address token, uint amount) internal {\n      require(Compound(token).redeem(amount) == 0, \"COMPOUND: withdraw failed\");\n  }\n\n  function approveToken() public {\n      IERC20(DAI).safeApprove(yDAIv2, uint(-1));\n      IERC20(DAI).safeApprove(yDAIv3, uint(-1));\n      IERC20(yDAIv2).safeApprove(SWAPv3, uint(-1));\n      IERC20(yDAIv3).safeApprove(SWAPv4, uint(-1));\n\n      IERC20(USDC).safeApprove(yUSDCv2, uint(-1));\n      IERC20(USDC).safeApprove(yUSDCv3, uint(-1));\n      IERC20(yUSDCv2).safeApprove(SWAPv3, uint(-1));\n      IERC20(yUSDCv3).safeApprove(SWAPv4, uint(-1));\n\n      IERC20(BUSD).safeApprove(yBUSDv3, uint(-1));\n      IERC20(yBUSDv3).safeApprove(SWAPv4, uint(-1));\n\n      IERC20(USDT).safeApprove(yUSDTv2, uint(0));\n      IERC20(USDT).safeApprove(yUSDTv2, uint(-1));\n      IERC20(USDT).safeApprove(yUSDTv3, uint(0));\n      IERC20(USDT).safeApprove(yUSDTv3, uint(-1));\n      IERC20(yUSDTv2).safeApprove(SWAPv3, uint(-1));\n      IERC20(yUSDTv3).safeApprove(SWAPv4, uint(-1));\n\n  }\n\n  function swapv3tov4(uint256 _amount)\n      external\n      nonReentrant\n  {\n      require(_amount > 0, \"curvev3 must be greater than 0\");\n      IERC20(CURVEv3).safeTransferFrom(msg.sender, address(this), _amount);\n      ICurveFiv3(SWAPv3).remove_liquidity(_amount, [uint256(0),0,0,0]);\n      require(IERC20(CURVEv3).balanceOf(address(this)) == 0, \"CURVE remainder\");\n\n      if (IERC20(yDAIv2).balanceOf(address(this)) > 0) {\n        yERC20(yDAIv2).withdraw(IERC20(yDAIv2).balanceOf(address(this)));\n      }\n      if (IERC20(yUSDCv2).balanceOf(address(this)) > 0) {\n        yERC20(yUSDCv2).withdraw(IERC20(yUSDCv2).balanceOf(address(this)));\n      }\n      if (IERC20(yUSDTv2).balanceOf(address(this)) > 0) {\n        yERC20(yUSDTv2).withdraw(IERC20(yUSDTv2).balanceOf(address(this)));\n      }\n      if (IERC20(yTUSDv2).balanceOf(address(this)) > 0) {\n        yERC20(yTUSDv2).withdraw(IERC20(yTUSDv2).balanceOf(address(this)));\n      }\n\n      uint256 _dai = IERC20(DAI).balanceOf(address(this));\n      uint256 _usdc = IERC20(USDC).balanceOf(address(this));\n      uint256 _usdt = IERC20(USDT).balanceOf(address(this));\n      uint256 _tusd = IERC20(TUSD).balanceOf(address(this));\n\n      require(_dai > 0 || _usdc > 0 || _usdt > 0 || _tusd > 0, \"no underlying found\");\n\n      if (_dai > 0) {\n        yERC20(yDAIv3).deposit(_dai);\n        require(IERC20(DAI).balanceOf(address(this)) == 0, \"dai remainder\");\n      }\n\n      if (_usdc > 0) {\n        yERC20(yUSDCv3).deposit(_usdc);\n        require(IERC20(USDC).balanceOf(address(this)) == 0, \"usdc remainder\");\n      }\n\n      if (_usdt > 0) {\n        yERC20(yUSDTv3).deposit(_usdt);\n        require(IERC20(USDT).balanceOf(address(this)) == 0, \"usdc remainder\");\n      }\n\n      if (_tusd > 0) {\n        yERC20(yBUSDv3).deposit(_tusd);\n      }\n\n      ICurveFiv4(SWAPv4).add_liquidity([\n        IERC20(yDAIv3).balanceOf(address(this)),\n        IERC20(yUSDCv3).balanceOf(address(this)),\n        IERC20(yUSDTv3).balanceOf(address(this)),\n        IERC20(yBUSDv3).balanceOf(address(this))],0);\n\n      require(IERC20(yDAIv3).balanceOf(address(this)) == 0, \"yDAI remainder\");\n      require(IERC20(yUSDCv3).balanceOf(address(this)) == 0, \"yUSDC remainder\");\n      require(IERC20(yUSDTv3).balanceOf(address(this)) == 0, \"yUSDT remainder\");\n      require(IERC20(yBUSDv3).balanceOf(address(this)) == 0, \"yBUSD remainder\");\n\n      IERC20(CURVEv4).safeTransfer(msg.sender, IERC20(CURVEv4).balanceOf(address(this)));\n      require(IERC20(CURVEv4).balanceOf(address(this)) == 0, \"CURVEv3 remainder\");\n  }\n\n  // incase of half-way error\n  function inCaseTokenGetsStuck(IERC20 _TokenAddress) onlyOwner public {\n      uint qty = _TokenAddress.balanceOf(address(this));\n      _TokenAddress.safeTransfer(msg.sender, qty);\n  }\n\n  // incase of half-way error\n  function inCaseETHGetsStuck() onlyOwner public{\n      (bool result, ) = msg.sender.call.value(address(this).balance)(\"\");\n      require(result, \"transfer of ETH failed\");\n  }\n}\n",
  "sourcePath": "D:/ftm/itoken/contracts/yCurveZapSwapV4.sol",
  "compiler": {
    "name": "solc",
    "version": "0.5.12+commit.7709ece9.Emscripten.clang"
  },
  "schemaVersion": "3.0.19",
  "updatedAt": "2020-02-27T19:20:55.691Z",
  "devdoc": {
    "methods": {}
  },
  "userdoc": {
    "methods": {}
  }
}