{
  "contractName": "yDAI",
  "abi": [
    {
      "inputs": [],
      "payable": false,
      "stateMutability": "nonpayable",
      "type": "constructor"
    },
    {
      "anonymous": false,
      "inputs": [
        {
          "indexed": true,
          "internalType": "address",
          "name": "owner",
          "type": "address"
        },
        {
          "indexed": true,
          "internalType": "address",
          "name": "spender",
          "type": "address"
        },
        {
          "indexed": false,
          "internalType": "uint256",
          "name": "value",
          "type": "uint256"
        }
      ],
      "name": "Approval",
      "type": "event"
    },
    {
      "anonymous": false,
      "inputs": [
        {
          "indexed": true,
          "internalType": "address",
          "name": "from",
          "type": "address"
        },
        {
          "indexed": true,
          "internalType": "address",
          "name": "to",
          "type": "address"
        },
        {
          "indexed": false,
          "internalType": "uint256",
          "name": "value",
          "type": "uint256"
        }
      ],
      "name": "Transfer",
      "type": "event"
    },
    {
      "payable": true,
      "stateMutability": "payable",
      "type": "fallback"
    },
    {
      "constant": true,
      "inputs": [],
      "name": "aave",
      "outputs": [
        {
          "internalType": "address",
          "name": "",
          "type": "address"
        }
      ],
      "payable": false,
      "stateMutability": "view",
      "type": "function"
    },
    {
      "constant": true,
      "inputs": [],
      "name": "aaveToken",
      "outputs": [
        {
          "internalType": "address",
          "name": "",
          "type": "address"
        }
      ],
      "payable": false,
      "stateMutability": "view",
      "type": "function"
    },
    {
      "constant": true,
      "inputs": [
        {
          "internalType": "address",
          "name": "owner",
          "type": "address"
        },
        {
          "internalType": "address",
          "name": "spender",
          "type": "address"
        }
      ],
      "name": "allowance",
      "outputs": [
        {
          "internalType": "uint256",
          "name": "",
          "type": "uint256"
        }
      ],
      "payable": false,
      "stateMutability": "view",
      "type": "function"
    },
    {
      "constant": false,
      "inputs": [
        {
          "internalType": "address",
          "name": "spender",
          "type": "address"
        },
        {
          "internalType": "uint256",
          "name": "amount",
          "type": "uint256"
        }
      ],
      "name": "approve",
      "outputs": [
        {
          "internalType": "bool",
          "name": "",
          "type": "bool"
        }
      ],
      "payable": false,
      "stateMutability": "nonpayable",
      "type": "function"
    },
    {
      "constant": true,
      "inputs": [],
      "name": "apr",
      "outputs": [
        {
          "internalType": "address",
          "name": "",
          "type": "address"
        }
      ],
      "payable": false,
      "stateMutability": "view",
      "type": "function"
    },
    {
      "constant": true,
      "inputs": [
        {
          "internalType": "address",
          "name": "account",
          "type": "address"
        }
      ],
      "name": "balanceOf",
      "outputs": [
        {
          "internalType": "uint256",
          "name": "",
          "type": "uint256"
        }
      ],
      "payable": false,
      "stateMutability": "view",
      "type": "function"
    },
    {
      "constant": true,
      "inputs": [],
      "name": "compound",
      "outputs": [
        {
          "internalType": "address",
          "name": "",
          "type": "address"
        }
      ],
      "payable": false,
      "stateMutability": "view",
      "type": "function"
    },
    {
      "constant": true,
      "inputs": [],
      "name": "dToken",
      "outputs": [
        {
          "internalType": "uint256",
          "name": "",
          "type": "uint256"
        }
      ],
      "payable": false,
      "stateMutability": "view",
      "type": "function"
    },
    {
      "constant": true,
      "inputs": [],
      "name": "decimals",
      "outputs": [
        {
          "internalType": "uint8",
          "name": "",
          "type": "uint8"
        }
      ],
      "payable": false,
      "stateMutability": "view",
      "type": "function"
    },
    {
      "constant": false,
      "inputs": [
        {
          "internalType": "address",
          "name": "spender",
          "type": "address"
        },
        {
          "internalType": "uint256",
          "name": "subtractedValue",
          "type": "uint256"
        }
      ],
      "name": "decreaseAllowance",
      "outputs": [
        {
          "internalType": "bool",
          "name": "",
          "type": "bool"
        }
      ],
      "payable": false,
      "stateMutability": "nonpayable",
      "type": "function"
    },
    {
      "constant": true,
      "inputs": [],
      "name": "dydx",
      "outputs": [
        {
          "internalType": "address",
          "name": "",
          "type": "address"
        }
      ],
      "payable": false,
      "stateMutability": "view",
      "type": "function"
    },
    {
      "constant": true,
      "inputs": [],
      "name": "fulcrum",
      "outputs": [
        {
          "internalType": "address",
          "name": "",
          "type": "address"
        }
      ],
      "payable": false,
      "stateMutability": "view",
      "type": "function"
    },
    {
      "constant": false,
      "inputs": [
        {
          "internalType": "address",
          "name": "spender",
          "type": "address"
        },
        {
          "internalType": "uint256",
          "name": "addedValue",
          "type": "uint256"
        }
      ],
      "name": "increaseAllowance",
      "outputs": [
        {
          "internalType": "bool",
          "name": "",
          "type": "bool"
        }
      ],
      "payable": false,
      "stateMutability": "nonpayable",
      "type": "function"
    },
    {
      "constant": true,
      "inputs": [],
      "name": "name",
      "outputs": [
        {
          "internalType": "string",
          "name": "",
          "type": "string"
        }
      ],
      "payable": false,
      "stateMutability": "view",
      "type": "function"
    },
    {
      "constant": true,
      "inputs": [],
      "name": "pool",
      "outputs": [
        {
          "internalType": "uint256",
          "name": "",
          "type": "uint256"
        }
      ],
      "payable": false,
      "stateMutability": "view",
      "type": "function"
    },
    {
      "constant": true,
      "inputs": [],
      "name": "provider",
      "outputs": [
        {
          "internalType": "enum yDAI.Lender",
          "name": "",
          "type": "uint8"
        }
      ],
      "payable": false,
      "stateMutability": "view",
      "type": "function"
    },
    {
      "constant": true,
      "inputs": [],
      "name": "symbol",
      "outputs": [
        {
          "internalType": "string",
          "name": "",
          "type": "string"
        }
      ],
      "payable": false,
      "stateMutability": "view",
      "type": "function"
    },
    {
      "constant": true,
      "inputs": [],
      "name": "token",
      "outputs": [
        {
          "internalType": "address",
          "name": "",
          "type": "address"
        }
      ],
      "payable": false,
      "stateMutability": "view",
      "type": "function"
    },
    {
      "constant": true,
      "inputs": [],
      "name": "totalSupply",
      "outputs": [
        {
          "internalType": "uint256",
          "name": "",
          "type": "uint256"
        }
      ],
      "payable": false,
      "stateMutability": "view",
      "type": "function"
    },
    {
      "constant": false,
      "inputs": [
        {
          "internalType": "address",
          "name": "recipient",
          "type": "address"
        },
        {
          "internalType": "uint256",
          "name": "amount",
          "type": "uint256"
        }
      ],
      "name": "transfer",
      "outputs": [
        {
          "internalType": "bool",
          "name": "",
          "type": "bool"
        }
      ],
      "payable": false,
      "stateMutability": "nonpayable",
      "type": "function"
    },
    {
      "constant": false,
      "inputs": [
        {
          "internalType": "address",
          "name": "sender",
          "type": "address"
        },
        {
          "internalType": "address",
          "name": "recipient",
          "type": "address"
        },
        {
          "internalType": "uint256",
          "name": "amount",
          "type": "uint256"
        }
      ],
      "name": "transferFrom",
      "outputs": [
        {
          "internalType": "bool",
          "name": "",
          "type": "bool"
        }
      ],
      "payable": false,
      "stateMutability": "nonpayable",
      "type": "function"
    },
    {
      "constant": true,
      "inputs": [],
      "name": "recommend",
      "outputs": [
        {
          "internalType": "enum yDAI.Lender",
          "name": "",
          "type": "uint8"
        }
      ],
      "payable": false,
      "stateMutability": "view",
      "type": "function"
    },
    {
      "constant": false,
      "inputs": [
        {
          "internalType": "uint256",
          "name": "amount",
          "type": "uint256"
        }
      ],
      "name": "supplyDydx",
      "outputs": [
        {
          "internalType": "uint256",
          "name": "",
          "type": "uint256"
        }
      ],
      "payable": false,
      "stateMutability": "nonpayable",
      "type": "function"
    },
    {
      "constant": true,
      "inputs": [],
      "name": "balance",
      "outputs": [
        {
          "internalType": "uint256",
          "name": "",
          "type": "uint256"
        }
      ],
      "payable": false,
      "stateMutability": "view",
      "type": "function"
    },
    {
      "constant": true,
      "inputs": [],
      "name": "getAave",
      "outputs": [
        {
          "internalType": "address",
          "name": "",
          "type": "address"
        }
      ],
      "payable": false,
      "stateMutability": "view",
      "type": "function"
    },
    {
      "constant": true,
      "inputs": [],
      "name": "getAaveCore",
      "outputs": [
        {
          "internalType": "address",
          "name": "",
          "type": "address"
        }
      ],
      "payable": false,
      "stateMutability": "view",
      "type": "function"
    },
    {
      "constant": false,
      "inputs": [],
      "name": "approveToken",
      "outputs": [],
      "payable": false,
      "stateMutability": "nonpayable",
      "type": "function"
    },
    {
      "constant": true,
      "inputs": [],
      "name": "balanceDydx",
      "outputs": [
        {
          "internalType": "uint256",
          "name": "",
          "type": "uint256"
        }
      ],
      "payable": false,
      "stateMutability": "view",
      "type": "function"
    },
    {
      "constant": true,
      "inputs": [],
      "name": "balanceCompound",
      "outputs": [
        {
          "internalType": "uint256",
          "name": "",
          "type": "uint256"
        }
      ],
      "payable": false,
      "stateMutability": "view",
      "type": "function"
    },
    {
      "constant": true,
      "inputs": [],
      "name": "balanceCompoundInToken",
      "outputs": [
        {
          "internalType": "uint256",
          "name": "",
          "type": "uint256"
        }
      ],
      "payable": false,
      "stateMutability": "view",
      "type": "function"
    },
    {
      "constant": true,
      "inputs": [],
      "name": "balanceFulcrumInToken",
      "outputs": [
        {
          "internalType": "uint256",
          "name": "",
          "type": "uint256"
        }
      ],
      "payable": false,
      "stateMutability": "view",
      "type": "function"
    },
    {
      "constant": true,
      "inputs": [],
      "name": "balanceFulcrum",
      "outputs": [
        {
          "internalType": "uint256",
          "name": "",
          "type": "uint256"
        }
      ],
      "payable": false,
      "stateMutability": "view",
      "type": "function"
    },
    {
      "constant": true,
      "inputs": [],
      "name": "balanceAave",
      "outputs": [
        {
          "internalType": "uint256",
          "name": "",
          "type": "uint256"
        }
      ],
      "payable": false,
      "stateMutability": "view",
      "type": "function"
    },
    {
      "constant": false,
      "inputs": [],
      "name": "rebalance",
      "outputs": [],
      "payable": false,
      "stateMutability": "nonpayable",
      "type": "function"
    },
    {
      "constant": false,
      "inputs": [
        {
          "internalType": "uint256",
          "name": "amount",
          "type": "uint256"
        }
      ],
      "name": "supplyAave",
      "outputs": [],
      "payable": false,
      "stateMutability": "nonpayable",
      "type": "function"
    },
    {
      "constant": false,
      "inputs": [
        {
          "internalType": "uint256",
          "name": "amount",
          "type": "uint256"
        }
      ],
      "name": "supplyFulcrum",
      "outputs": [],
      "payable": false,
      "stateMutability": "nonpayable",
      "type": "function"
    },
    {
      "constant": false,
      "inputs": [
        {
          "internalType": "uint256",
          "name": "amount",
          "type": "uint256"
        }
      ],
      "name": "supplyCompound",
      "outputs": [],
      "payable": false,
      "stateMutability": "nonpayable",
      "type": "function"
    },
    {
      "constant": false,
      "inputs": [
        {
          "internalType": "uint256",
          "name": "_amount",
          "type": "uint256"
        }
      ],
      "name": "deposit",
      "outputs": [],
      "payable": false,
      "stateMutability": "nonpayable",
      "type": "function"
    },
    {
      "constant": false,
      "inputs": [
        {
          "internalType": "uint256",
          "name": "_amount",
          "type": "uint256"
        }
      ],
      "name": "invest",
      "outputs": [],
      "payable": false,
      "stateMutability": "nonpayable",
      "type": "function"
    },
    {
      "constant": true,
      "inputs": [],
      "name": "calcPoolValueInToken",
      "outputs": [
        {
          "internalType": "uint256",
          "name": "",
          "type": "uint256"
        }
      ],
      "payable": false,
      "stateMutability": "view",
      "type": "function"
    },
    {
      "constant": true,
      "inputs": [],
      "name": "getPricePerFullShare",
      "outputs": [
        {
          "internalType": "uint256",
          "name": "",
          "type": "uint256"
        }
      ],
      "payable": false,
      "stateMutability": "view",
      "type": "function"
    },
    {
      "constant": false,
      "inputs": [
        {
          "internalType": "uint256",
          "name": "_shares",
          "type": "uint256"
        }
      ],
      "name": "withdraw",
      "outputs": [],
      "payable": false,
      "stateMutability": "nonpayable",
      "type": "function"
    },
    {
      "constant": false,
      "inputs": [
        {
          "internalType": "uint256",
          "name": "_shares",
          "type": "uint256"
        }
      ],
      "name": "redeem",
      "outputs": [],
      "payable": false,
      "stateMutability": "nonpayable",
      "type": "function"
    }
  ],
  "bytecode": "0x60806040526000600f60146101000a81548160ff021916908360048111156200002457fe5b02179055503480156200003657600080fd5b506040518060400160405280600481526020017f79444149000000000000000000000000000000000000000000000000000000008152506040518060400160405280600481526020017f794441490000000000000000000000000000000000000000000000000000000081525060128260039080519060200190620000bd929190620007e8565b508160049080519060200190620000d6929190620007e8565b5080600560006101000a81548160ff021916908360ff1602179055505050506001600681905550736b175474e89094c44da98b954eedeac495271d0f600860006101000a81548173ffffffffffffffffffffffffffffffffffffffff021916908373ffffffffffffffffffffffffffffffffffffffff16021790555073318135fbd0b40d48fcef431ccdf6c7926450edfb600f60006101000a81548173ffffffffffffffffffffffffffffffffffffffff021916908373ffffffffffffffffffffffffffffffffffffffff160217905550731e0447b19bb6ecfdae1e4ae1694b0c3659614e4e600d60006101000a81548173ffffffffffffffffffffffffffffffffffffffff021916908373ffffffffffffffffffffffffffffffffffffffff1602179055507324a42fd28c976a61df5d00d0599c34c4f90748c8600b60006101000a81548173ffffffffffffffffffffffffffffffffffffffff021916908373ffffffffffffffffffffffffffffffffffffffff16021790555073493c57c4763932315a328269e1adad09653b9081600a60006101000a81548173ffffffffffffffffffffffffffffffffffffffff021916908373ffffffffffffffffffffffffffffffffffffffff16021790555073fc1e690f61efd961294b3e1ce3313fbd8aa4f85d600c60006101000a81548173ffffffffffffffffffffffffffffffffffffffff021916908373ffffffffffffffffffffffffffffffffffffffff160217905550735d3a536e4d6dbd6114cc1ead35777bab948e3643600960006101000a81548173ffffffffffffffffffffffffffffffffffffffff021916908373ffffffffffffffffffffffffffffffffffffffff1602179055506003600e81905550620003686200036e60201b60201c565b620009ea565b600860009054906101000a900473ffffffffffffffffffffffffffffffffffffffff1673ffffffffffffffffffffffffffffffffffffffff1663095ea7b3600960009054906101000a900473ffffffffffffffffffffffffffffffffffffffff167fffffffffffffffffffffffffffffffffffffffffffffffffffffffffffffffff6040518363ffffffff1660e01b81526004016200040f9291906200093f565b602060405180830381600087803b1580156200042a57600080fd5b505af11580156200043f573d6000803e3d6000fd5b505050506040513d601f19601f82011682018060405250620004659190810190620008f1565b50600860009054906101000a900473ffffffffffffffffffffffffffffffffffffffff1673ffffffffffffffffffffffffffffffffffffffff1663095ea7b3600d60009054906101000a900473ffffffffffffffffffffffffffffffffffffffff167fffffffffffffffffffffffffffffffffffffffffffffffffffffffffffffffff6040518363ffffffff1660e01b8152600401620005079291906200093f565b602060405180830381600087803b1580156200052257600080fd5b505af115801562000537573d6000803e3d6000fd5b505050506040513d601f19601f820116820180604052506200055d9190810190620008f1565b50600860009054906101000a900473ffffffffffffffffffffffffffffffffffffffff1673ffffffffffffffffffffffffffffffffffffffff1663095ea7b3620005ac6200073d60201b60201c565b7fffffffffffffffffffffffffffffffffffffffffffffffffffffffffffffffff6040518363ffffffff1660e01b8152600401620005ec9291906200093f565b602060405180830381600087803b1580156200060757600080fd5b505af11580156200061c573d6000803e3d6000fd5b505050506040513d601f19601f82011682018060405250620006429190810190620008f1565b50600860009054906101000a900473ffffffffffffffffffffffffffffffffffffffff1673ffffffffffffffffffffffffffffffffffffffff1663095ea7b3600a60009054906101000a900473ffffffffffffffffffffffffffffffffffffffff167fffffffffffffffffffffffffffffffffffffffffffffffffffffffffffffffff6040518363ffffffff1660e01b8152600401620006e49291906200093f565b602060405180830381600087803b158015620006ff57600080fd5b505af115801562000714573d6000803e3d6000fd5b505050506040513d601f19601f820116820180604052506200073a9190810190620008f1565b50565b6000600b60009054906101000a900473ffffffffffffffffffffffffffffffffffffffff1673ffffffffffffffffffffffffffffffffffffffff1663ed6ff7606040518163ffffffff1660e01b815260040160206040518083038186803b158015620007a857600080fd5b505afa158015620007bd573d6000803e3d6000fd5b505050506040513d601f19601f82011682018060405250620007e39190810190620008c5565b905090565b828054600181600116156101000203166002900490600052602060002090601f016020900481019282601f106200082b57805160ff19168380011785556200085c565b828001600101855582156200085c579182015b828111156200085b5782518255916020019190600101906200083e565b5b5090506200086b91906200086f565b5090565b6200089491905b808211156200089057600081600090555060010162000876565b5090565b90565b600081519050620008a881620009b6565b92915050565b600081519050620008bf81620009d0565b92915050565b600060208284031215620008d857600080fd5b6000620008e88482850162000897565b91505092915050565b6000602082840312156200090457600080fd5b60006200091484828501620008ae565b91505092915050565b62000928816200096c565b82525050565b6200093981620009ac565b82525050565b60006040820190506200095660008301856200091d565b6200096560208301846200092e565b9392505050565b600062000979826200098c565b9050919050565b60008115159050919050565b600073ffffffffffffffffffffffffffffffffffffffff82169050919050565b6000819050919050565b620009c1816200096c565b8114620009cd57600080fd5b50565b620009db8162000980565b8114620009e757600080fd5b50565b61522380620009fa6000396000f3fe60806040526004361061025c5760003560e01c80637d7c2a1c11610144578063b6b55f25116100b6578063e849d6591161007a578063e849d659146108f1578063f5a41dea1461091a578063f69e204614610945578063f7c1ec7714610970578063f82ce27d1461099b578063fc0c546a146109c65761025c565b8063b6b55f251461080c578063cf8ca42614610835578063d9d7858a14610860578063db006a751461088b578063dd62ed3e146108b45761025c565b806399b71d5c1161010857806399b71d5c146106fa578063a160176d14610711578063a457c2d71461073c578063a728797114610779578063a9059cbb146107a4578063b69ef8a8146107e15761025c565b80637d7c2a1c146106395780638124955c14610650578063819faf7b146106795780638e4ec6ef146106a457806395d89b41146106cf5761025c565b80632e1a7d4d116101dd57806358782c21116101a157806358782c211461052757806361c1ec551461055257806365aab7491461057d57806370a08231146105a65780637137ef99146105e357806377c7b8fc1461060e5761025c565b80632e1a7d4d14610440578063313ce56714610469578063395093511461049457806339c0a7e1146104d157806357ded9c9146104fc5761025c565b80630eb2a267116102245780630eb2a2671461035957806316f0115b1461038457806318160ddd146103af57806323b872dd146103da5780632afcf480146104175761025c565b806306636c1c1461025e57806306a3fe591461029b57806306fdde03146102c6578063085d4883146102f1578063095ea7b31461031c575b005b34801561026a57600080fd5b50610285600480360361028091908101906141e0565b6109f1565b6040516102929190614e38565b60405180910390f35b3480156102a757600080fd5b506102b0610c2f565b6040516102bd9190614a8a565b60405180910390f35b3480156102d257600080fd5b506102db610c55565b6040516102e89190614bed565b60405180910390f35b3480156102fd57600080fd5b50610306610cf7565b6040516103139190614bd2565b60405180910390f35b34801561032857600080fd5b50610343600480360361033e91908101906140c3565b610d0a565b6040516103509190614bb7565b60405180910390f35b34801561036557600080fd5b5061036e610d28565b60405161037b9190614e38565b60405180910390f35b34801561039057600080fd5b50610399610dda565b6040516103a69190614e38565b60405180910390f35b3480156103bb57600080fd5b506103c4610de0565b6040516103d19190614e38565b60405180910390f35b3480156103e657600080fd5b5061040160048036036103fc9190810190614074565b610dea565b60405161040e9190614bb7565b60405180910390f35b34801561042357600080fd5b5061043e600480360361043991908101906141e0565b610ec3565b005b34801561044c57600080fd5b50610467600480360361046291908101906141e0565b611092565b005b34801561047557600080fd5b5061047e61149f565b60405161048b9190614e53565b60405180910390f35b3480156104a057600080fd5b506104bb60048036036104b691908101906140c3565b6114b6565b6040516104c89190614bb7565b60405180910390f35b3480156104dd57600080fd5b506104e6611569565b6040516104f39190614e38565b60405180910390f35b34801561050857600080fd5b50610511611659565b60405161051e9190614a8a565b60405180910390f35b34801561053357600080fd5b5061053c61167f565b6040516105499190614a8a565b60405180910390f35b34801561055e57600080fd5b506105676116a5565b6040516105749190614e38565b60405180910390f35b34801561058957600080fd5b506105a4600480360361059f91908101906141e0565b611757565b005b3480156105b257600080fd5b506105cd60048036036105c89190810190613fe6565b6117f3565b6040516105da9190614e38565b60405180910390f35b3480156105ef57600080fd5b506105f861183b565b6040516106059190614e38565b60405180910390f35b34801561061a57600080fd5b506106236118ae565b6040516106309190614e38565b60405180910390f35b34801561064557600080fd5b5061064e6118f0565b005b34801561065c57600080fd5b50610677600480360361067291908101906141e0565b611a28565b005b34801561068557600080fd5b5061068e611b1c565b60405161069b9190614a8a565b60405180910390f35b3480156106b057600080fd5b506106b9611b42565b6040516106c69190614a8a565b60405180910390f35b3480156106db57600080fd5b506106e4611b68565b6040516106f19190614bed565b60405180910390f35b34801561070657600080fd5b5061070f611c0a565b005b34801561071d57600080fd5b50610726611fb9565b6040516107339190614bd2565b60405180910390f35b34801561074857600080fd5b50610763600480360361075e91908101906140c3565b612116565b6040516107709190614bb7565b60405180910390f35b34801561078557600080fd5b5061078e6121e3565b60405161079b9190614e38565b60405180910390f35b3480156107b057600080fd5b506107cb60048036036107c691908101906140c3565b6122cf565b6040516107d89190614bb7565b60405180910390f35b3480156107ed57600080fd5b506107f66122ed565b6040516108039190614e38565b60405180910390f35b34801561081857600080fd5b50610833600480360361082e91908101906141e0565b61239f565b005b34801561084157600080fd5b5061084a612566565b6040516108579190614e38565b60405180910390f35b34801561086c57600080fd5b50610875612618565b6040516108829190614e38565b60405180910390f35b34801561089757600080fd5b506108b260048036036108ad91908101906141e0565b61261e565b005b3480156108c057600080fd5b506108db60048036036108d69190810190614038565b612a33565b6040516108e89190614e38565b60405180910390f35b3480156108fd57600080fd5b50610918600480360361091391908101906141e0565b612aba565b005b34801561092657600080fd5b5061092f612bac565b60405161093c9190614e38565b60405180910390f35b34801561095157600080fd5b5061095a612c77565b6040516109679190614a8a565b60405180910390f35b34801561097c57600080fd5b50610985612c9d565b6040516109929190614a8a565b60405180910390f35b3480156109a757600080fd5b506109b0612d44565b6040516109bd9190614a8a565b60405180910390f35b3480156109d257600080fd5b506109db612deb565b6040516109e89190614a8a565b60405180910390f35b600060606001604051908082528060200260200182016040528015610a3057816020015b610a1d613d3d565b815260200190600190039081610a155790505b50905060405180604001604052803073ffffffffffffffffffffffffffffffffffffffff168152602001600081525081600081518110610a6c57fe5b6020026020010181905250610a7f613d6d565b6040518060800160405280600115158152602001600080811115610a9f57fe5b8152602001600080811115610ab057fe5b8152602001858152509050610ac3613dab565b600081600001906001811115610ad557fe5b90816001811115610ae257fe5b815250506000816020018181525050818160400181905250600e54816060018181525050308160a0019073ffffffffffffffffffffffffffffffffffffffff16908173ffffffffffffffffffffffffffffffffffffffff168152505060606001604051908082528060200260200182016040528015610b7b57816020015b610b68613e17565b815260200190600190039081610b605790505b5090508181600081518110610b8c57fe5b6020026020010181905250600d60009054906101000a900473ffffffffffffffffffffffffffffffffffffffff1673ffffffffffffffffffffffffffffffffffffffff1663a67a6a4585836040518363ffffffff1660e01b8152600401610bf4929190614b80565b600060405180830381600087803b158015610c0e57600080fd5b505af1158015610c22573d6000803e3d6000fd5b5050505050505050919050565b600c60009054906101000a900473ffffffffffffffffffffffffffffffffffffffff1681565b606060038054600181600116156101000203166002900480601f016020809104026020016040519081016040528092919081815260200182805460018160011615610100020316600290048015610ced5780601f10610cc257610100808354040283529160200191610ced565b820191906000526020600020905b815481529060010190602001808311610cd057829003601f168201915b5050505050905090565b600f60149054906101000a900460ff1681565b6000610d1e610d17612e11565b8484612e19565b6001905092915050565b6000600a60009054906101000a900473ffffffffffffffffffffffffffffffffffffffff1673ffffffffffffffffffffffffffffffffffffffff166370a08231306040518263ffffffff1660e01b8152600401610d859190614aa5565b60206040518083038186803b158015610d9d57600080fd5b505afa158015610db1573d6000803e3d6000fd5b505050506040513d601f19601f82011682018060405250610dd59190810190614209565b905090565b60075481565b6000600254905090565b6000610df7848484612fe4565b610eb884610e03612e11565b610eb38560405180606001604052806028815260200161519460289139600160008b73ffffffffffffffffffffffffffffffffffffffff1673ffffffffffffffffffffffffffffffffffffffff1681526020019081526020016000206000610e69612e11565b73ffffffffffffffffffffffffffffffffffffffff1673ffffffffffffffffffffffffffffffffffffffff1681526020019081526020016000205461326e9092919063ffffffff16565b612e19565b600190509392505050565b60016006600082825401925050819055506000600654905060008211610f1e576040517f08c379a0000000000000000000000000000000000000000000000000000000008152600401610f1590614d8f565b60405180910390fd5b610f2661183b565b600781905550600860009054906101000a900473ffffffffffffffffffffffffffffffffffffffff1673ffffffffffffffffffffffffffffffffffffffff166323b872dd3330856040518463ffffffff1660e01b8152600401610f8b93929190614ac0565b602060405180830381600087803b158015610fa557600080fd5b505af1158015610fb9573d6000803e3d6000fd5b505050506040513d601f19601f82011682018060405250610fdd91908101906140ff565b50610fe66118f0565b6000809050600060075414156110055782905082600781905550611031565b61102e600754611020600254866132c990919063ffffffff16565b61333990919063ffffffff16565b90505b61103961183b565b6007819055506110493382613383565b50600654811461108e576040517f08c379a000000000000000000000000000000000000000000000000000000000815260040161108590614dcf565b60405180910390fd5b5050565b600160066000828254019250508190555060006006549050600082116110ed576040517f08c379a00000000000000000000000000000000000000000000000000000000081526004016110e490614d0f565b60405180910390fd5b60006110f8336117f3565b90508083111561113d576040517f08c379a000000000000000000000000000000000000000000000000000000000815260040161113490614cef565b60405180910390fd5b61114561183b565b6007819055506000611176600254611168866007546132c990919063ffffffff16565b61333990919063ffffffff16565b9050611200846040518060400160405280601d81526020017f72656465656d20616d6f756e7420657863656564732062616c616e63650000008152506000803373ffffffffffffffffffffffffffffffffffffffff1673ffffffffffffffffffffffffffffffffffffffff1681526020019081526020016000205461326e9092919063ffffffff16565b6000803373ffffffffffffffffffffffffffffffffffffffff1673ffffffffffffffffffffffffffffffffffffffff168152602001908152602001600020819055506112578460025461350b90919063ffffffff16565b600281905550600073ffffffffffffffffffffffffffffffffffffffff163373ffffffffffffffffffffffffffffffffffffffff167fddf252ad1be2c89b69c2b068fc378daa952ba7f163c4a11628f55a4df523b3ef866040516112bb9190614e38565b60405180910390a36000600860009054906101000a900473ffffffffffffffffffffffffffffffffffffffff1673ffffffffffffffffffffffffffffffffffffffff166370a08231306040518263ffffffff1660e01b81526004016113209190614aa5565b60206040518083038186803b15801561133857600080fd5b505afa15801561134c573d6000803e3d6000fd5b505050506040513d601f19601f820116820180604052506113709190810190614209565b90508181101561139657611395611390828461350b90919063ffffffff16565b613555565b5b600860009054906101000a900473ffffffffffffffffffffffffffffffffffffffff1673ffffffffffffffffffffffffffffffffffffffff1663a9059cbb33846040518363ffffffff1660e01b81526004016113f3929190614af7565b602060405180830381600087803b15801561140d57600080fd5b505af1158015611421573d6000803e3d6000fd5b505050506040513d601f19601f8201168201806040525061144591908101906140ff565b5061144e61183b565b600781905550505050600654811461149b576040517f08c379a000000000000000000000000000000000000000000000000000000000815260040161149290614dcf565b60405180910390fd5b5050565b6000600560009054906101000a900460ff16905090565b600061155f6114c3612e11565b8461155a85600160006114d4612e11565b73ffffffffffffffffffffffffffffffffffffffff1673ffffffffffffffffffffffffffffffffffffffff16815260200190815260200160002060008973ffffffffffffffffffffffffffffffffffffffff1673ffffffffffffffffffffffffffffffffffffffff168152602001908152602001600020546136cb90919063ffffffff16565b612e19565b6001905092915050565b6000611573613e83565b600d60009054906101000a900473ffffffffffffffffffffffffffffffffffffffff1673ffffffffffffffffffffffffffffffffffffffff1663c190c2ec60405180604001604052803073ffffffffffffffffffffffffffffffffffffffff1681526020016000815250600e546040518363ffffffff1660e01b81526004016115fd929190614e0f565b604080518083038186803b15801561161457600080fd5b505afa158015611628573d6000803e3d6000fd5b505050506040513d601f19601f8201168201806040525061164c91908101906141b7565b9050806020015191505090565b600f60009054906101000a900473ffffffffffffffffffffffffffffffffffffffff1681565b600a60009054906101000a900473ffffffffffffffffffffffffffffffffffffffff1681565b6000600960009054906101000a900473ffffffffffffffffffffffffffffffffffffffff1673ffffffffffffffffffffffffffffffffffffffff166370a08231306040518263ffffffff1660e01b81526004016117029190614aa5565b60206040518083038186803b15801561171a57600080fd5b505afa15801561172e573d6000803e3d6000fd5b505050506040513d601f19601f820116820180604052506117529190810190614209565b905090565b61175f612c9d565b73ffffffffffffffffffffffffffffffffffffffff1663d2d0e066600860009054906101000a900473ffffffffffffffffffffffffffffffffffffffff168360006040518463ffffffff1660e01b81526004016117be93929190614b49565b600060405180830381600087803b1580156117d857600080fd5b505af11580156117ec573d6000803e3d6000fd5b5050505050565b60008060008373ffffffffffffffffffffffffffffffffffffffff1673ffffffffffffffffffffffffffffffffffffffff168152602001908152602001600020549050919050565b60006118a96118486122ed565b61189b611853612566565b61188d61185e611569565b61187f611869612bac565b6118716121e3565b6136cb90919063ffffffff16565b6136cb90919063ffffffff16565b6136cb90919063ffffffff16565b6136cb90919063ffffffff16565b905090565b6000806118b961183b565b90506118ea6002546118dc670de0b6b3a7640000846132c990919063ffffffff16565b61333990919063ffffffff16565b91505090565b60006118fa611fb9565b9050600f60149054906101000a900460ff16600481111561191757fe5b81600481111561192357fe5b1461193157611930613720565b5b600061193b6122ed565b1115611a02576001600481111561194e57fe5b81600481111561195a57fe5b14156119725761197061196b6122ed565b6109f1565b505b60048081111561197e57fe5b81600481111561198a57fe5b14156119a1576119a061199b6122ed565b611a28565b5b600260048111156119ae57fe5b8160048111156119ba57fe5b14156119d1576119d06119cb6122ed565b612aba565b5b600360048111156119de57fe5b8160048111156119ea57fe5b1415611a0157611a006119fb6122ed565b611757565b5b5b80600f60146101000a81548160ff02191690836004811115611a2057fe5b021790555050565b6000600a60009054906101000a900473ffffffffffffffffffffffffffffffffffffffff1673ffffffffffffffffffffffffffffffffffffffff166340c10f1930846040518363ffffffff1660e01b8152600401611a87929190614af7565b602060405180830381600087803b158015611aa157600080fd5b505af1158015611ab5573d6000803e3d6000fd5b505050506040513d601f19601f82011682018060405250611ad99190810190614209565b11611b19576040517f08c379a0000000000000000000000000000000000000000000000000000000008152600401611b1090614daf565b60405180910390fd5b50565b600b60009054906101000a900473ffffffffffffffffffffffffffffffffffffffff1681565b600d60009054906101000a900473ffffffffffffffffffffffffffffffffffffffff1681565b606060048054600181600116156101000203166002900480601f016020809104026020016040519081016040528092919081815260200182805460018160011615610100020316600290048015611c005780601f10611bd557610100808354040283529160200191611c00565b820191906000526020600020905b815481529060010190602001808311611be357829003601f168201915b5050505050905090565b600860009054906101000a900473ffffffffffffffffffffffffffffffffffffffff1673ffffffffffffffffffffffffffffffffffffffff1663095ea7b3600960009054906101000a900473ffffffffffffffffffffffffffffffffffffffff167fffffffffffffffffffffffffffffffffffffffffffffffffffffffffffffffff6040518363ffffffff1660e01b8152600401611ca9929190614b20565b602060405180830381600087803b158015611cc357600080fd5b505af1158015611cd7573d6000803e3d6000fd5b505050506040513d601f19601f82011682018060405250611cfb91908101906140ff565b50600860009054906101000a900473ffffffffffffffffffffffffffffffffffffffff1673ffffffffffffffffffffffffffffffffffffffff1663095ea7b3600d60009054906101000a900473ffffffffffffffffffffffffffffffffffffffff167fffffffffffffffffffffffffffffffffffffffffffffffffffffffffffffffff6040518363ffffffff1660e01b8152600401611d9b929190614b20565b602060405180830381600087803b158015611db557600080fd5b505af1158015611dc9573d6000803e3d6000fd5b505050506040513d601f19601f82011682018060405250611ded91908101906140ff565b50600860009054906101000a900473ffffffffffffffffffffffffffffffffffffffff1673ffffffffffffffffffffffffffffffffffffffff1663095ea7b3611e34612d44565b7fffffffffffffffffffffffffffffffffffffffffffffffffffffffffffffffff6040518363ffffffff1660e01b8152600401611e72929190614b20565b602060405180830381600087803b158015611e8c57600080fd5b505af1158015611ea0573d6000803e3d6000fd5b505050506040513d601f19601f82011682018060405250611ec491908101906140ff565b50600860009054906101000a900473ffffffffffffffffffffffffffffffffffffffff1673ffffffffffffffffffffffffffffffffffffffff1663095ea7b3600a60009054906101000a900473ffffffffffffffffffffffffffffffffffffffff167fffffffffffffffffffffffffffffffffffffffffffffffffffffffffffffffff6040518363ffffffff1660e01b8152600401611f64929190614b20565b602060405180830381600087803b158015611f7e57600080fd5b505af1158015611f92573d6000803e3d6000fd5b505050506040513d601f19601f82011682018060405250611fb691908101906140ff565b50565b6000806000806000600f60009054906101000a900473ffffffffffffffffffffffffffffffffffffffff1673ffffffffffffffffffffffffffffffffffffffff1663d88be3c0600860009054906101000a900473ffffffffffffffffffffffffffffffffffffffff166040518263ffffffff1660e01b815260040161203e9190614a8a565b60006040518083038186803b15801561205657600080fd5b505afa15801561206a573d6000803e3d6000fd5b505050506040513d6000823e3d601f19601f820116820180604052506120939190810190614128565b9450945094509450506000809050808511156120ad578490505b808411156120b9578390505b808311156120c5578290505b808211156120d1578190505b6000809050828214156120e357600190505b838214156120f057600390505b848214156120fd57600490505b8582141561210a57600290505b80965050505050505090565b60006121d9612123612e11565b846121d4856040518060600160405280602581526020016151bc602591396001600061214d612e11565b73ffffffffffffffffffffffffffffffffffffffff1673ffffffffffffffffffffffffffffffffffffffff16815260200190815260200160002060008a73ffffffffffffffffffffffffffffffffffffffff1673ffffffffffffffffffffffffffffffffffffffff1681526020019081526020016000205461326e9092919063ffffffff16565b612e19565b6001905092915050565b6000806121ee6116a5565b905060008111156122c8576122c5670de0b6b3a76400006122b7600960009054906101000a900473ffffffffffffffffffffffffffffffffffffffff1673ffffffffffffffffffffffffffffffffffffffff1663182df0f56040518163ffffffff1660e01b815260040160206040518083038186803b15801561227057600080fd5b505afa158015612284573d6000803e3d6000fd5b505050506040513d601f19601f820116820180604052506122a89190810190614209565b846132c990919063ffffffff16565b61333990919063ffffffff16565b90505b8091505090565b60006122e36122dc612e11565b8484612fe4565b6001905092915050565b6000600860009054906101000a900473ffffffffffffffffffffffffffffffffffffffff1673ffffffffffffffffffffffffffffffffffffffff166370a08231306040518263ffffffff1660e01b815260040161234a9190614aa5565b60206040518083038186803b15801561236257600080fd5b505afa158015612376573d6000803e3d6000fd5b505050506040513d601f19601f8201168201806040525061239a9190810190614209565b905090565b600160066000828254019250508190555060006006549050600082116123fa576040517f08c379a00000000000000000000000000000000000000000000000000000000081526004016123f190614d8f565b60405180910390fd5b61240261183b565b600781905550600860009054906101000a900473ffffffffffffffffffffffffffffffffffffffff1673ffffffffffffffffffffffffffffffffffffffff166323b872dd3330856040518463ffffffff1660e01b815260040161246793929190614ac0565b602060405180830381600087803b15801561248157600080fd5b505af1158015612495573d6000803e3d6000fd5b505050506040513d601f19601f820116820180604052506124b991908101906140ff565b506000809050600060075414156124d95782905082600781905550612505565b6125026007546124f4600254866132c990919063ffffffff16565b61333990919063ffffffff16565b90505b61250d61183b565b60078190555061251d3382613383565b506006548114612562576040517f08c379a000000000000000000000000000000000000000000000000000000000815260040161255990614dcf565b60405180910390fd5b5050565b6000600c60009054906101000a900473ffffffffffffffffffffffffffffffffffffffff1673ffffffffffffffffffffffffffffffffffffffff166370a08231306040518263ffffffff1660e01b81526004016125c39190614aa5565b60206040518083038186803b1580156125db57600080fd5b505afa1580156125ef573d6000803e3d6000fd5b505050506040513d601f19601f820116820180604052506126139190810190614209565b905090565b600e5481565b60016006600082825401925050819055506000600654905060008211612679576040517f08c379a000000000000000000000000000000000000000000000000000000000815260040161267090614d0f565b60405180910390fd5b6000612684336117f3565b9050808311156126c9576040517f08c379a00000000000000000000000000000000000000000000000000000000081526004016126c090614cef565b60405180910390fd5b6126d161183b565b60078190555060006127026002546126f4866007546132c990919063ffffffff16565b61333990919063ffffffff16565b905061278c846040518060400160405280601d81526020017f72656465656d20616d6f756e7420657863656564732062616c616e63650000008152506000803373ffffffffffffffffffffffffffffffffffffffff1673ffffffffffffffffffffffffffffffffffffffff1681526020019081526020016000205461326e9092919063ffffffff16565b6000803373ffffffffffffffffffffffffffffffffffffffff1673ffffffffffffffffffffffffffffffffffffffff168152602001908152602001600020819055506127e38460025461350b90919063ffffffff16565b600281905550600073ffffffffffffffffffffffffffffffffffffffff163373ffffffffffffffffffffffffffffffffffffffff167fddf252ad1be2c89b69c2b068fc378daa952ba7f163c4a11628f55a4df523b3ef866040516128479190614e38565b60405180910390a36000600860009054906101000a900473ffffffffffffffffffffffffffffffffffffffff1673ffffffffffffffffffffffffffffffffffffffff166370a08231306040518263ffffffff1660e01b81526004016128ac9190614aa5565b60206040518083038186803b1580156128c457600080fd5b505afa1580156128d8573d6000803e3d6000fd5b505050506040513d601f19601f820116820180604052506128fc9190810190614209565b9050818110156129225761292161291c828461350b90919063ffffffff16565b613555565b5b600860009054906101000a900473ffffffffffffffffffffffffffffffffffffffff1673ffffffffffffffffffffffffffffffffffffffff1663a9059cbb33846040518363ffffffff1660e01b815260040161297f929190614af7565b602060405180830381600087803b15801561299957600080fd5b505af11580156129ad573d6000803e3d6000fd5b505050506040513d601f19601f820116820180604052506129d191908101906140ff565b506129da6118f0565b6129e261183b565b6007819055505050506006548114612a2f576040517f08c379a0000000000000000000000000000000000000000000000000000000008152600401612a2690614dcf565b60405180910390fd5b5050565b6000600160008473ffffffffffffffffffffffffffffffffffffffff1673ffffffffffffffffffffffffffffffffffffffff16815260200190815260200160002060008373ffffffffffffffffffffffffffffffffffffffff1673ffffffffffffffffffffffffffffffffffffffff16815260200190815260200160002054905092915050565b6000600960009054906101000a900473ffffffffffffffffffffffffffffffffffffffff1673ffffffffffffffffffffffffffffffffffffffff1663a0712d68836040518263ffffffff1660e01b8152600401612b179190614e38565b602060405180830381600087803b158015612b3157600080fd5b505af1158015612b45573d6000803e3d6000fd5b505050506040513d601f19601f82011682018060405250612b699190810190614209565b14612ba9576040517f08c379a0000000000000000000000000000000000000000000000000000000008152600401612ba090614c6f565b60405180910390fd5b50565b600080612bb7610d28565b90506000811115612c7057600a60009054906101000a900473ffffffffffffffffffffffffffffffffffffffff1673ffffffffffffffffffffffffffffffffffffffff166306b3efd6306040518263ffffffff1660e01b8152600401612c1d9190614aa5565b60206040518083038186803b158015612c3557600080fd5b505afa158015612c49573d6000803e3d6000fd5b505050506040513d601f19601f82011682018060405250612c6d9190810190614209565b90505b8091505090565b600960009054906101000a900473ffffffffffffffffffffffffffffffffffffffff1681565b6000600b60009054906101000a900473ffffffffffffffffffffffffffffffffffffffff1673ffffffffffffffffffffffffffffffffffffffff16630261bf8b6040518163ffffffff1660e01b815260040160206040518083038186803b158015612d0757600080fd5b505afa158015612d1b573d6000803e3d6000fd5b505050506040513d601f19601f82011682018060405250612d3f919081019061400f565b905090565b6000600b60009054906101000a900473ffffffffffffffffffffffffffffffffffffffff1673ffffffffffffffffffffffffffffffffffffffff1663ed6ff7606040518163ffffffff1660e01b815260040160206040518083038186803b158015612dae57600080fd5b505afa158015612dc2573d6000803e3d6000fd5b505050506040513d601f19601f82011682018060405250612de6919081019061400f565b905090565b600860009054906101000a900473ffffffffffffffffffffffffffffffffffffffff1681565b600033905090565b600073ffffffffffffffffffffffffffffffffffffffff168373ffffffffffffffffffffffffffffffffffffffff161415612e89576040517f08c379a0000000000000000000000000000000000000000000000000000000008152600401612e8090614d6f565b60405180910390fd5b600073ffffffffffffffffffffffffffffffffffffffff168273ffffffffffffffffffffffffffffffffffffffff161415612ef9576040517f08c379a0000000000000000000000000000000000000000000000000000000008152600401612ef090614c4f565b60405180910390fd5b80600160008573ffffffffffffffffffffffffffffffffffffffff1673ffffffffffffffffffffffffffffffffffffffff16815260200190815260200160002060008473ffffffffffffffffffffffffffffffffffffffff1673ffffffffffffffffffffffffffffffffffffffff168152602001908152602001600020819055508173ffffffffffffffffffffffffffffffffffffffff168373ffffffffffffffffffffffffffffffffffffffff167f8c5be1e5ebec7d5bd14f71427d1e84f3dd0314c0f7b2291e5b200ac8c7c3b92583604051612fd79190614e38565b60405180910390a3505050565b600073ffffffffffffffffffffffffffffffffffffffff168373ffffffffffffffffffffffffffffffffffffffff161415613054576040517f08c379a000000000000000000000000000000000000000000000000000000000815260040161304b90614d2f565b60405180910390fd5b600073ffffffffffffffffffffffffffffffffffffffff168273ffffffffffffffffffffffffffffffffffffffff1614156130c4576040517f08c379a00000000000000000000000000000000000000000000000000000000081526004016130bb90614c0f565b60405180910390fd5b61312f8160405180606001604052806026815260200161516e602691396000808773ffffffffffffffffffffffffffffffffffffffff1673ffffffffffffffffffffffffffffffffffffffff1681526020019081526020016000205461326e9092919063ffffffff16565b6000808573ffffffffffffffffffffffffffffffffffffffff1673ffffffffffffffffffffffffffffffffffffffff168152602001908152602001600020819055506131c2816000808573ffffffffffffffffffffffffffffffffffffffff1673ffffffffffffffffffffffffffffffffffffffff168152602001908152602001600020546136cb90919063ffffffff16565b6000808473ffffffffffffffffffffffffffffffffffffffff1673ffffffffffffffffffffffffffffffffffffffff168152602001908152602001600020819055508173ffffffffffffffffffffffffffffffffffffffff168373ffffffffffffffffffffffffffffffffffffffff167fddf252ad1be2c89b69c2b068fc378daa952ba7f163c4a11628f55a4df523b3ef836040516132619190614e38565b60405180910390a3505050565b60008383111582906132b6576040517f08c379a00000000000000000000000000000000000000000000000000000000081526004016132ad9190614bed565b60405180910390fd5b5060008385039050809150509392505050565b6000808314156132dc5760009050613333565b60008284029050828482816132ed57fe5b041461332e576040517f08c379a000000000000000000000000000000000000000000000000000000000815260040161332590614caf565b60405180910390fd5b809150505b92915050565b600061337b83836040518060400160405280601a81526020017f536166654d6174683a206469766973696f6e206279207a65726f000000000000815250613799565b905092915050565b600073ffffffffffffffffffffffffffffffffffffffff168273ffffffffffffffffffffffffffffffffffffffff1614156133f3576040517f08c379a00000000000000000000000000000000000000000000000000000000081526004016133ea90614def565b60405180910390fd5b613408816002546136cb90919063ffffffff16565b60028190555061345f816000808573ffffffffffffffffffffffffffffffffffffffff1673ffffffffffffffffffffffffffffffffffffffff168152602001908152602001600020546136cb90919063ffffffff16565b6000808473ffffffffffffffffffffffffffffffffffffffff1673ffffffffffffffffffffffffffffffffffffffff168152602001908152602001600020819055508173ffffffffffffffffffffffffffffffffffffffff16600073ffffffffffffffffffffffffffffffffffffffff167fddf252ad1be2c89b69c2b068fc378daa952ba7f163c4a11628f55a4df523b3ef836040516134ff9190614e38565b60405180910390a35050565b600061354d83836040518060400160405280601e81526020017f536166654d6174683a207375627472616374696f6e206f766572666c6f77000081525061326e565b905092915050565b6002600481111561356257fe5b600f60149054906101000a900460ff16600481111561357d57fe5b141561358d5761358c816137fa565b5b6003600481111561359a57fe5b600f60149054906101000a900460ff1660048111156135b557fe5b141561360f57806135c4612566565b1015613605576040517f08c379a00000000000000000000000000000000000000000000000000000000081526004016135fc90614d4f565b60405180910390fd5b61360e8161388d565b5b6001600481111561361c57fe5b600f60149054906101000a900460ff16600481111561363757fe5b14156136915780613646611569565b1015613687576040517f08c379a000000000000000000000000000000000000000000000000000000000815260040161367e90614d4f565b60405180910390fd5b6136908161391d565b5b60048081111561369d57fe5b600f60149054906101000a900460ff1660048111156136b857fe5b14156136c8576136c781613b57565b5b50565b600080828401905083811015613716576040517f08c379a000000000000000000000000000000000000000000000000000000000815260040161370d90614c8f565b60405180910390fd5b8091505092915050565b600061372a6116a5565b9050600081111561373f5761373e81613c4b565b5b613747611569565b9050600081111561375c5761375b8161391d565b5b613764610d28565b905060008111156137795761377881613b57565b5b613781612566565b90506000811115613796576137958161388d565b5b50565b600080831182906137e0576040517f08c379a00000000000000000000000000000000000000000000000000000000081526004016137d79190614bed565b60405180910390fd5b5060008385816137ec57fe5b049050809150509392505050565b60006138046116a5565b905060006138106121e3565b905082811015613855576040517f08c379a000000000000000000000000000000000000000000000000000000000815260040161384c90614d4f565b60405180910390fd5b600061387c8261386e86866132c990919063ffffffff16565b61333990919063ffffffff16565b905061388781613c4b565b50505050565b600c60009054906101000a900473ffffffffffffffffffffffffffffffffffffffff1673ffffffffffffffffffffffffffffffffffffffff1663db006a75826040518263ffffffff1660e01b81526004016138e89190614e38565b600060405180830381600087803b15801561390257600080fd5b505af1158015613916573d6000803e3d6000fd5b5050505050565b6060600160405190808252806020026020018201604052801561395a57816020015b613947613d3d565b81526020019060019003908161393f5790505b50905060405180604001604052803073ffffffffffffffffffffffffffffffffffffffff16815260200160008152508160008151811061399657fe5b60200260200101819052506139a9613d6d565b60405180608001604052806000151581526020016000808111156139c957fe5b81526020016000808111156139da57fe5b81526020018481525090506139ed613dab565b6001816000019060018111156139ff57fe5b90816001811115613a0c57fe5b815250506000816020018181525050818160400181905250600e54816060018181525050308160a0019073ffffffffffffffffffffffffffffffffffffffff16908173ffffffffffffffffffffffffffffffffffffffff168152505060606001604051908082528060200260200182016040528015613aa557816020015b613a92613e17565b815260200190600190039081613a8a5790505b5090508181600081518110613ab657fe5b6020026020010181905250600d60009054906101000a900473ffffffffffffffffffffffffffffffffffffffff1673ffffffffffffffffffffffffffffffffffffffff1663a67a6a4585836040518363ffffffff1660e01b8152600401613b1e929190614b80565b600060405180830381600087803b158015613b3857600080fd5b505af1158015613b4c573d6000803e3d6000fd5b505050505050505050565b6000600a60009054906101000a900473ffffffffffffffffffffffffffffffffffffffff1673ffffffffffffffffffffffffffffffffffffffff16639dc29fac30846040518363ffffffff1660e01b8152600401613bb6929190614af7565b602060405180830381600087803b158015613bd057600080fd5b505af1158015613be4573d6000803e3d6000fd5b505050506040513d601f19601f82011682018060405250613c089190810190614209565b11613c48576040517f08c379a0000000000000000000000000000000000000000000000000000000008152600401613c3f90614ccf565b60405180910390fd5b50565b6000600960009054906101000a900473ffffffffffffffffffffffffffffffffffffffff1673ffffffffffffffffffffffffffffffffffffffff1663db006a75836040518263ffffffff1660e01b8152600401613ca89190614e38565b602060405180830381600087803b158015613cc257600080fd5b505af1158015613cd6573d6000803e3d6000fd5b505050506040513d601f19601f82011682018060405250613cfa9190810190614209565b14613d3a576040517f08c379a0000000000000000000000000000000000000000000000000000000008152600401613d3190614c2f565b60405180910390fd5b50565b6040518060400160405280600073ffffffffffffffffffffffffffffffffffffffff168152602001600081525090565b6040518060800160405280600015158152602001600080811115613d8d57fe5b8152602001600080811115613d9e57fe5b8152602001600081525090565b60405180610100016040528060006001811115613dc457fe5b815260200160008152602001613dd8613e9f565b81526020016000815260200160008152602001600073ffffffffffffffffffffffffffffffffffffffff16815260200160008152602001606081525090565b60405180610100016040528060006001811115613e3057fe5b815260200160008152602001613e44613e9f565b81526020016000815260200160008152602001600073ffffffffffffffffffffffffffffffffffffffff16815260200160008152602001606081525090565b6040518060400160405280600015158152602001600081525090565b6040518060800160405280600015158152602001600080811115613ebf57fe5b8152602001600080811115613ed057fe5b8152602001600081525090565b600081359050613eec81615128565b92915050565b600081519050613f0181615128565b92915050565b600081519050613f168161513f565b92915050565b600082601f830112613f2d57600080fd5b8151613f40613f3b82614e9b565b614e6e565b91508082526020830160208301858383011115613f5c57600080fd5b613f678382846150b0565b50505092915050565b600060408284031215613f8257600080fd5b613f8c6040614e6e565b90506000613f9c84828501613f07565b6000830152506020613fb084828501613fd1565b60208301525092915050565b600081359050613fcb81615156565b92915050565b600081519050613fe081615156565b92915050565b600060208284031215613ff857600080fd5b600061400684828501613edd565b91505092915050565b60006020828403121561402157600080fd5b600061402f84828501613ef2565b91505092915050565b6000806040838503121561404b57600080fd5b600061405985828601613edd565b925050602061406a85828601613edd565b9150509250929050565b60008060006060848603121561408957600080fd5b600061409786828701613edd565b93505060206140a886828701613edd565b92505060406140b986828701613fbc565b9150509250925092565b600080604083850312156140d657600080fd5b60006140e485828601613edd565b92505060206140f585828601613fbc565b9150509250929050565b60006020828403121561411157600080fd5b600061411f84828501613f07565b91505092915050565b600080600080600060a0868803121561414057600080fd5b600086015167ffffffffffffffff81111561415a57600080fd5b61416688828901613f1c565b955050602061417788828901613fd1565b945050604061418888828901613fd1565b935050606061419988828901613fd1565b92505060806141aa88828901613fd1565b9150509295509295909350565b6000604082840312156141c957600080fd5b60006141d784828501613f70565b91505092915050565b6000602082840312156141f257600080fd5b600061420084828501613fbc565b91505092915050565b60006020828403121561421b57600080fd5b600061422984828501613fd1565b91505092915050565b600061423e83836148f7565b905092915050565b600061425283836149ff565b60408301905092915050565b61426781615020565b82525050565b61427681614f71565b82525050565b61428581614f71565b82525050565b600061429682614ee7565b6142a08185614f2d565b9350836020820285016142b285614ec7565b8060005b858110156142ee57848403895281516142cf8582614232565b94506142da83614f13565b925060208a019950506001810190506142b6565b50829750879550505050505092915050565b600061430b82614ef2565b6143158185614f3e565b935061432083614ed7565b8060005b838110156143515781516143388882614246565b975061434383614f20565b925050600181019050614324565b5085935050505092915050565b61436781614f83565b82525050565b61437681614f83565b82525050565b600061438782614efd565b6143918185614f4f565b93506143a18185602086016150b0565b6143aa816150e3565b840191505092915050565b6143be81615032565b82525050565b6143cd81615044565b82525050565b6143dc81615056565b82525050565b6143eb81615068565b82525050565b6143fa8161507a565b82525050565b600061440b82614f08565b6144158185614f60565b93506144258185602086016150b0565b61442e816150e3565b840191505092915050565b6000614446602383614f60565b91507f45524332303a207472616e7366657220746f20746865207a65726f206164647260008301527f65737300000000000000000000000000000000000000000000000000000000006020830152604082019050919050565b60006144ac601983614f60565b91507f434f4d504f554e443a207769746864726177206661696c6564000000000000006000830152602082019050919050565b60006144ec602283614f60565b91507f45524332303a20617070726f766520746f20746865207a65726f20616464726560008301527f73730000000000000000000000000000000000000000000000000000000000006020830152604082019050919050565b6000614552601783614f60565b91507f434f4d504f554e443a20737570706c79206661696c65640000000000000000006000830152602082019050919050565b6000614592601b83614f60565b91507f536166654d6174683a206164646974696f6e206f766572666c6f7700000000006000830152602082019050919050565b60006145d2602183614f60565b91507f536166654d6174683a206d756c7469706c69636174696f6e206f766572666c6f60008301527f77000000000000000000000000000000000000000000000000000000000000006020830152604082019050919050565b6000614638601883614f60565b91507f46554c4352554d3a207769746864726177206661696c656400000000000000006000830152602082019050919050565b6000614678601483614f60565b91507f696e73756666696369656e742062616c616e63650000000000000000000000006000830152602082019050919050565b60006146b8601f83614f60565b91507f7769746864726177206d7573742062652067726561746572207468616e2030006000830152602082019050919050565b60006146f8602583614f60565b91507f45524332303a207472616e736665722066726f6d20746865207a65726f20616460008301527f64726573730000000000000000000000000000000000000000000000000000006020830152604082019050919050565b600061475e601283614f60565b91507f696e73756666696369656e742066756e647300000000000000000000000000006000830152602082019050919050565b600061479e602483614f60565b91507f45524332303a20617070726f76652066726f6d20746865207a65726f2061646460008301527f72657373000000000000000000000000000000000000000000000000000000006020830152604082019050919050565b6000614804601e83614f60565b91507f6465706f736974206d7573742062652067726561746572207468616e203000006000830152602082019050919050565b6000614844601683614f60565b91507f46554c4352554d3a20737570706c79206661696c6564000000000000000000006000830152602082019050919050565b6000614884601f83614f60565b91507f5265656e7472616e637947756172643a207265656e7472616e742063616c6c006000830152602082019050919050565b60006148c4601f83614f60565b91507f45524332303a206d696e7420746f20746865207a65726f2061646472657373006000830152602082019050919050565b60006101608301600083015161491060008601826143b5565b5060208301516149236020860182614a5d565b50604083015161493660408601826149aa565b50606083015161494960c0860182614a5d565b50608083015161495c60e0860182614a5d565b5060a083015161497061010086018261426d565b5060c0830151614984610120860182614a5d565b5060e083015184820361014086015261499d828261437c565b9150508091505092915050565b6080820160008201516149c0600085018261435e565b5060208201516149d360208501826143c4565b5060408201516149e660408501826143d3565b5060608201516149f96060850182614a5d565b50505050565b604082016000820151614a15600085018261426d565b506020820151614a286020850182614a5d565b50505050565b604082016000820151614a44600085018261426d565b506020820151614a576020850182614a5d565b50505050565b614a6681615009565b82525050565b614a7581615009565b82525050565b614a8481615013565b82525050565b6000602082019050614a9f600083018461427c565b92915050565b6000602082019050614aba600083018461425e565b92915050565b6000606082019050614ad5600083018661425e565b614ae2602083018561425e565b614aef6040830184614a6c565b949350505050565b6000604082019050614b0c600083018561425e565b614b196020830184614a6c565b9392505050565b6000604082019050614b35600083018561427c565b614b426020830184614a6c565b9392505050565b6000606082019050614b5e600083018661427c565b614b6b6020830185614a6c565b614b7860408301846143f1565b949350505050565b60006040820190508181036000830152614b9a8185614300565b90508181036020830152614bae818461428b565b90509392505050565b6000602082019050614bcc600083018461436d565b92915050565b6000602082019050614be760008301846143e2565b92915050565b60006020820190508181036000830152614c078184614400565b905092915050565b60006020820190508181036000830152614c2881614439565b9050919050565b60006020820190508181036000830152614c488161449f565b9050919050565b60006020820190508181036000830152614c68816144df565b9050919050565b60006020820190508181036000830152614c8881614545565b9050919050565b60006020820190508181036000830152614ca881614585565b9050919050565b60006020820190508181036000830152614cc8816145c5565b9050919050565b60006020820190508181036000830152614ce88161462b565b9050919050565b60006020820190508181036000830152614d088161466b565b9050919050565b60006020820190508181036000830152614d28816146ab565b9050919050565b60006020820190508181036000830152614d48816146eb565b9050919050565b60006020820190508181036000830152614d6881614751565b9050919050565b60006020820190508181036000830152614d8881614791565b9050919050565b60006020820190508181036000830152614da8816147f7565b9050919050565b60006020820190508181036000830152614dc881614837565b9050919050565b60006020820190508181036000830152614de881614877565b9050919050565b60006020820190508181036000830152614e08816148b7565b9050919050565b6000606082019050614e246000830185614a2e565b614e316040830184614a6c565b9392505050565b6000602082019050614e4d6000830184614a6c565b92915050565b6000602082019050614e686000830184614a7b565b92915050565b6000604051905081810181811067ffffffffffffffff82111715614e9157600080fd5b8060405250919050565b600067ffffffffffffffff821115614eb257600080fd5b601f19601f8301169050602081019050919050565b6000819050602082019050919050565b6000819050602082019050919050565b600081519050919050565b600081519050919050565b600081519050919050565b600081519050919050565b6000602082019050919050565b6000602082019050919050565b600082825260208201905092915050565b600082825260208201905092915050565b600082825260208201905092915050565b600082825260208201905092915050565b6000614f7c82614fe9565b9050919050565b60008115159050919050565b6000819050614f9d826150f4565b919050565b6000819050614fb082615101565b919050565b6000819050614fc38261510e565b919050565b6000819050614fd68261511b565b919050565b600061ffff82169050919050565b600073ffffffffffffffffffffffffffffffffffffffff82169050919050565b6000819050919050565b600060ff82169050919050565b600061502b8261508c565b9050919050565b600061503d82614f8f565b9050919050565b600061504f82614fa2565b9050919050565b600061506182614fb5565b9050919050565b600061507382614fc8565b9050919050565b600061508582614fdb565b9050919050565b60006150978261509e565b9050919050565b60006150a982614fe9565b9050919050565b60005b838110156150ce5780820151818401526020810190506150b3565b838111156150dd576000848401525b50505050565b6000601f19601f8301169050919050565b600281106150fe57fe5b50565b6001811061510b57fe5b50565b6001811061511857fe5b50565b6005811061512557fe5b50565b61513181614f71565b811461513c57600080fd5b50565b61514881614f83565b811461515357600080fd5b50565b61515f81615009565b811461516a57600080fd5b5056fe45524332303a207472616e7366657220616d6f756e7420657863656564732062616c616e636545524332303a207472616e7366657220616d6f756e74206578636565647320616c6c6f77616e636545524332303a2064656372656173656420616c6c6f77616e63652062656c6f77207a65726fa365627a7a72315820f3375346397cdd9b11557e53c944a0d14f966b565c12fc54f60ed5b9e5957d2d6c6578706572696d656e74616cf564736f6c634300050c0040",
  "source": "pragma solidity ^0.5.0;\npragma experimental ABIEncoderV2;\n\ninterface IERC20 {\n    function totalSupply() external view returns (uint256);\n    function balanceOf(address account) external view returns (uint256);\n    function transfer(address recipient, uint256 amount) external returns (bool);\n    function allowance(address owner, address spender) external view returns (uint256);\n    function approve(address spender, uint256 amount) external returns (bool);\n    function transferFrom(address sender, address recipient, uint256 amount) external returns (bool);\n    event Transfer(address indexed from, address indexed to, uint256 value);\n    event Approval(address indexed owner, address indexed spender, uint256 value);\n}\n\ncontract Context {\n    constructor () internal { }\n    // solhint-disable-previous-line no-empty-blocks\n\n    function _msgSender() internal view returns (address payable) {\n        return msg.sender;\n    }\n\n    function _msgData() internal view returns (bytes memory) {\n        this; // silence state mutability warning without generating bytecode - see https://github.com/ethereum/solidity/issues/2691\n        return msg.data;\n    }\n}\n\ncontract ERC20 is Context, IERC20 {\n    using SafeMath for uint256;\n\n    mapping (address => uint256) _balances;\n\n    mapping (address => mapping (address => uint256)) private _allowances;\n\n    uint256 _totalSupply;\n    function totalSupply() public view returns (uint256) {\n        return _totalSupply;\n    }\n    function balanceOf(address account) public view returns (uint256) {\n        return _balances[account];\n    }\n    function transfer(address recipient, uint256 amount) public returns (bool) {\n        _transfer(_msgSender(), recipient, amount);\n        return true;\n    }\n    function allowance(address owner, address spender) public view returns (uint256) {\n        return _allowances[owner][spender];\n    }\n    function approve(address spender, uint256 amount) public returns (bool) {\n        _approve(_msgSender(), spender, amount);\n        return true;\n    }\n    function transferFrom(address sender, address recipient, uint256 amount) public returns (bool) {\n        _transfer(sender, recipient, amount);\n        _approve(sender, _msgSender(), _allowances[sender][_msgSender()].sub(amount, \"ERC20: transfer amount exceeds allowance\"));\n        return true;\n    }\n    function increaseAllowance(address spender, uint256 addedValue) public returns (bool) {\n        _approve(_msgSender(), spender, _allowances[_msgSender()][spender].add(addedValue));\n        return true;\n    }\n    function decreaseAllowance(address spender, uint256 subtractedValue) public returns (bool) {\n        _approve(_msgSender(), spender, _allowances[_msgSender()][spender].sub(subtractedValue, \"ERC20: decreased allowance below zero\"));\n        return true;\n    }\n    function _transfer(address sender, address recipient, uint256 amount) internal {\n        require(sender != address(0), \"ERC20: transfer from the zero address\");\n        require(recipient != address(0), \"ERC20: transfer to the zero address\");\n\n        _balances[sender] = _balances[sender].sub(amount, \"ERC20: transfer amount exceeds balance\");\n        _balances[recipient] = _balances[recipient].add(amount);\n        emit Transfer(sender, recipient, amount);\n    }\n    function _mint(address account, uint256 amount) internal {\n        require(account != address(0), \"ERC20: mint to the zero address\");\n\n        _totalSupply = _totalSupply.add(amount);\n        _balances[account] = _balances[account].add(amount);\n        emit Transfer(address(0), account, amount);\n    }\n    function _burn(address account, uint256 amount) internal {\n        require(account != address(0), \"ERC20: burn from the zero address\");\n\n        _balances[account] = _balances[account].sub(amount, \"ERC20: burn amount exceeds balance\");\n        _totalSupply = _totalSupply.sub(amount);\n        emit Transfer(account, address(0), amount);\n    }\n    function _approve(address owner, address spender, uint256 amount) internal {\n        require(owner != address(0), \"ERC20: approve from the zero address\");\n        require(spender != address(0), \"ERC20: approve to the zero address\");\n\n        _allowances[owner][spender] = amount;\n        emit Approval(owner, spender, amount);\n    }\n    function _burnFrom(address account, uint256 amount) internal {\n        _burn(account, amount);\n        _approve(account, _msgSender(), _allowances[account][_msgSender()].sub(amount, \"ERC20: burn amount exceeds allowance\"));\n    }\n}\n\ncontract ERC20Detailed is IERC20 {\n    string private _name;\n    string private _symbol;\n    uint8 private _decimals;\n\n    constructor (string memory name, string memory symbol, uint8 decimals) public {\n        _name = name;\n        _symbol = symbol;\n        _decimals = decimals;\n    }\n    function name() public view returns (string memory) {\n        return _name;\n    }\n    function symbol() public view returns (string memory) {\n        return _symbol;\n    }\n    function decimals() public view returns (uint8) {\n        return _decimals;\n    }\n}\n\ncontract ReentrancyGuard {\n    uint256 private _guardCounter;\n\n    constructor () internal {\n        _guardCounter = 1;\n    }\n\n    modifier nonReentrant() {\n        _guardCounter += 1;\n        uint256 localCounter = _guardCounter;\n        _;\n        require(localCounter == _guardCounter, \"ReentrancyGuard: reentrant call\");\n    }\n}\n\nlibrary SafeMath {\n    function add(uint256 a, uint256 b) internal pure returns (uint256) {\n        uint256 c = a + b;\n        require(c >= a, \"SafeMath: addition overflow\");\n\n        return c;\n    }\n    function sub(uint256 a, uint256 b) internal pure returns (uint256) {\n        return sub(a, b, \"SafeMath: subtraction overflow\");\n    }\n    function sub(uint256 a, uint256 b, string memory errorMessage) internal pure returns (uint256) {\n        require(b <= a, errorMessage);\n        uint256 c = a - b;\n\n        return c;\n    }\n    function mul(uint256 a, uint256 b) internal pure returns (uint256) {\n        if (a == 0) {\n            return 0;\n        }\n\n        uint256 c = a * b;\n        require(c / a == b, \"SafeMath: multiplication overflow\");\n\n        return c;\n    }\n    function div(uint256 a, uint256 b) internal pure returns (uint256) {\n        return div(a, b, \"SafeMath: division by zero\");\n    }\n    function div(uint256 a, uint256 b, string memory errorMessage) internal pure returns (uint256) {\n        // Solidity only automatically asserts when dividing by 0\n        require(b > 0, errorMessage);\n        uint256 c = a / b;\n\n        return c;\n    }\n    function mod(uint256 a, uint256 b) internal pure returns (uint256) {\n        return mod(a, b, \"SafeMath: modulo by zero\");\n    }\n    function mod(uint256 a, uint256 b, string memory errorMessage) internal pure returns (uint256) {\n        require(b != 0, errorMessage);\n        return a % b;\n    }\n}\n\nlibrary Address {\n    function isContract(address account) internal view returns (bool) {\n        bytes32 codehash;\n        bytes32 accountHash = 0xc5d2460186f7233c927e7db2dcc703c0e500b653ca82273b7bfad8045d85a470;\n        // solhint-disable-next-line no-inline-assembly\n        assembly { codehash := extcodehash(account) }\n        return (codehash != 0x0 && codehash != accountHash);\n    }\n    function toPayable(address account) internal pure returns (address payable) {\n        return address(uint160(account));\n    }\n    function sendValue(address payable recipient, uint256 amount) internal {\n        require(address(this).balance >= amount, \"Address: insufficient balance\");\n\n        // solhint-disable-next-line avoid-call-value\n        (bool success, ) = recipient.call.value(amount)(\"\");\n        require(success, \"Address: unable to send value, recipient may have reverted\");\n    }\n}\n\nlibrary SafeERC20 {\n    using SafeMath for uint256;\n    using Address for address;\n\n    function safeTransfer(IERC20 token, address to, uint256 value) internal {\n        callOptionalReturn(token, abi.encodeWithSelector(token.transfer.selector, to, value));\n    }\n\n    function safeTransferFrom(IERC20 token, address from, address to, uint256 value) internal {\n        callOptionalReturn(token, abi.encodeWithSelector(token.transferFrom.selector, from, to, value));\n    }\n\n    function safeApprove(IERC20 token, address spender, uint256 value) internal {\n        require((value == 0) || (token.allowance(address(this), spender) == 0),\n            \"SafeERC20: approve from non-zero to non-zero allowance\"\n        );\n        callOptionalReturn(token, abi.encodeWithSelector(token.approve.selector, spender, value));\n    }\n\n    function safeIncreaseAllowance(IERC20 token, address spender, uint256 value) internal {\n        uint256 newAllowance = token.allowance(address(this), spender).add(value);\n        callOptionalReturn(token, abi.encodeWithSelector(token.approve.selector, spender, newAllowance));\n    }\n\n    function safeDecreaseAllowance(IERC20 token, address spender, uint256 value) internal {\n        uint256 newAllowance = token.allowance(address(this), spender).sub(value, \"SafeERC20: decreased allowance below zero\");\n        callOptionalReturn(token, abi.encodeWithSelector(token.approve.selector, spender, newAllowance));\n    }\n    function callOptionalReturn(IERC20 token, bytes memory data) private {\n        require(address(token).isContract(), \"SafeERC20: call to non-contract\");\n\n        // solhint-disable-next-line avoid-low-level-calls\n        (bool success, bytes memory returndata) = address(token).call(data);\n        require(success, \"SafeERC20: low-level call failed\");\n\n        if (returndata.length > 0) { // Return data is optional\n            // solhint-disable-next-line max-line-length\n            require(abi.decode(returndata, (bool)), \"SafeERC20: ERC20 operation did not succeed\");\n        }\n    }\n}\n\ninterface Compound {\n    function mint ( uint256 mintAmount ) external returns ( uint256 );\n    function redeem(uint256 redeemTokens) external returns (uint256);\n    function exchangeRateStored() external view returns (uint);\n}\n\ninterface Fulcrum {\n    function mint(address receiver, uint256 amount) external payable returns (uint256 mintAmount);\n    function burn(address receiver, uint256 burnAmount) external returns (uint256 loanAmountPaid);\n    function assetBalanceOf(address _owner) external view returns (uint256 balance);\n}\n\ninterface ILendingPoolAddressesProvider {\n    function getLendingPool() external view returns (address);\n}\n\ninterface Aave {\n    function deposit(address _reserve, uint256 _amount, uint16 _referralCode) external;\n}\n\ninterface AToken {\n    function redeem(uint256 amount) external;\n}\n\ninterface IIEarnManager {\n    function recommend(address _token) external view returns (\n      string memory choice,\n      uint256 capr,\n      uint256 iapr,\n      uint256 aapr,\n      uint256 dapr\n    );\n}\n\ncontract Structs {\n    struct Val {\n        uint256 value;\n    }\n\n    enum ActionType {\n        Deposit,   // supply tokens\n        Withdraw  // borrow tokens\n    }\n\n    enum AssetDenomination {\n        Wei // the amount is denominated in wei\n    }\n\n    enum AssetReference {\n        Delta // the amount is given as a delta from the current value\n    }\n\n    struct AssetAmount {\n        bool sign; // true if positive\n        AssetDenomination denomination;\n        AssetReference ref;\n        uint256 value;\n    }\n\n    struct ActionArgs {\n        ActionType actionType;\n        uint256 accountId;\n        AssetAmount amount;\n        uint256 primaryMarketId;\n        uint256 secondaryMarketId;\n        address otherAddress;\n        uint256 otherAccountId;\n        bytes data;\n    }\n\n    struct Info {\n        address owner;  // The address that owns the account\n        uint256 number; // A nonce that allows a single address to control many accounts\n    }\n\n    struct Wei {\n        bool sign; // true if positive\n        uint256 value;\n    }\n}\n\ncontract DyDx is Structs {\n    function getAccountWei(Info memory account, uint256 marketId) public view returns (Wei memory);\n    function operate(Info[] memory, ActionArgs[] memory) public;\n}\n\ninterface LendingPoolAddressesProvider {\n    function getLendingPool() external view returns (address);\n    function getLendingPoolCore() external view returns (address);\n}\n\ncontract yDAI is ERC20, ERC20Detailed, ReentrancyGuard, Structs {\n  using SafeERC20 for IERC20;\n  using Address for address;\n  using SafeMath for uint256;\n\n  uint256 public pool;\n  address public token;\n  address public compound;\n  address public fulcrum;\n  address public aave;\n  address public aaveToken;\n  address public dydx;\n  uint256 public dToken;\n  address public apr;\n\n  enum Lender {\n      NONE,\n      DYDX,\n      COMPOUND,\n      AAVE,\n      FULCRUM\n  }\n\n  Lender public provider = Lender.NONE;\n\n  constructor () public ERC20Detailed(\"yDAI\", \"yDAI\", 18) {\n    token = address(0x6B175474E89094C44Da98b954EedeAC495271d0F);\n    apr = address(0x318135fbD0b40D48fCEF431CCdF6C7926450edFB);\n    dydx = address(0x1E0447b19BB6EcFdAe1e4AE1694b0C3659614e4e);\n    aave = address(0x24a42fD28C976A61Df5D00D0599C34c4f90748c8);\n    fulcrum = address(0x493C57C4763932315A328269E1ADaD09653B9081);\n    aaveToken = address(0xfC1E690f61EFd961294b3e1Ce3313fBD8aa4f85d);\n    compound = address(0x5d3a536E4D6DbD6114cc1Ead35777bAB948E3643);\n    dToken = 3;\n    approveToken();\n  }\n\n  function() external payable {\n\n  }\n\n  function recommend() public view returns (Lender) {\n    (,uint256 capr,uint256 iapr,uint256 aapr,uint256 dapr) = IIEarnManager(apr).recommend(token);\n    uint256 max = 0;\n    if (capr > max) {\n      max = capr;\n    }\n    if (iapr > max) {\n      max = iapr;\n    }\n    if (aapr > max) {\n      max = aapr;\n    }\n    if (dapr > max) {\n      max = dapr;\n    }\n\n    Lender newProvider = Lender.NONE;\n    if (max == dapr) {\n      newProvider = Lender.DYDX;\n    }\n    if (max == aapr) {\n      newProvider = Lender.AAVE;\n    }\n    if (max == iapr) {\n      newProvider = Lender.FULCRUM;\n    }\n    if (max == capr) {\n      newProvider = Lender.COMPOUND;\n    }\n    return newProvider;\n  }\n\n  function supplyDydx(uint256 amount) public returns(uint) {\n      Info[] memory infos = new Info[](1);\n      infos[0] = Info(address(this), 0);\n\n      AssetAmount memory amt = AssetAmount(true, AssetDenomination.Wei, AssetReference.Delta, amount);\n      ActionArgs memory act;\n      act.actionType = ActionType.Deposit;\n      act.accountId = 0;\n      act.amount = amt;\n      act.primaryMarketId = dToken;\n      act.otherAddress = address(this);\n\n      ActionArgs[] memory args = new ActionArgs[](1);\n      args[0] = act;\n\n      DyDx(dydx).operate(infos, args);\n  }\n\n  function _withdrawDydx(uint256 amount) internal {\n      Info[] memory infos = new Info[](1);\n      infos[0] = Info(address(this), 0);\n\n      AssetAmount memory amt = AssetAmount(false, AssetDenomination.Wei, AssetReference.Delta, amount);\n      ActionArgs memory act;\n      act.actionType = ActionType.Withdraw;\n      act.accountId = 0;\n      act.amount = amt;\n      act.primaryMarketId = dToken;\n      act.otherAddress = address(this);\n\n      ActionArgs[] memory args = new ActionArgs[](1);\n      args[0] = act;\n\n      DyDx(dydx).operate(infos, args);\n  }\n\n  function balance() public view returns (uint256) {\n    return IERC20(token).balanceOf(address(this));\n  }\n\n  function getAave() public view returns (address) {\n    return LendingPoolAddressesProvider(aave).getLendingPool();\n  }\n  function getAaveCore() public view returns (address) {\n    return LendingPoolAddressesProvider(aave).getLendingPoolCore();\n  }\n\n  function approveToken() public {\n      IERC20(token).approve(compound, uint(-1)); //also add to constructor\n      IERC20(token).approve(dydx, uint(-1));\n      IERC20(token).approve(getAaveCore(), uint(-1));\n      IERC20(token).approve(fulcrum, uint(-1));\n  }\n\n  function balanceDydx() public view returns (uint256) {\n      Wei memory bal = DyDx(dydx).getAccountWei(Info(address(this), 0), dToken);\n      return bal.value;\n  }\n  function balanceCompound() public view returns (uint256) {\n      return IERC20(compound).balanceOf(address(this));\n  }\n  function balanceCompoundInToken() public view returns (uint256) {\n    // Mantisa 1e18 to decimals\n    uint256 b = balanceCompound();\n    if (b > 0) {\n      b = b.mul(Compound(compound).exchangeRateStored()).div(1e18);\n    }\n    return b;\n  }\n  function balanceFulcrumInToken() public view returns (uint256) {\n    uint256 b = balanceFulcrum();\n    if (b > 0) {\n      b = Fulcrum(fulcrum).assetBalanceOf(address(this));\n    }\n    return b;\n  }\n  function balanceFulcrum() public view returns (uint256) {\n    return IERC20(fulcrum).balanceOf(address(this));\n  }\n  function balanceAave() public view returns (uint256) {\n    return IERC20(aaveToken).balanceOf(address(this));\n  }\n\n  function _withdrawAll() internal {\n    uint256 amount = balanceCompound();\n    if (amount > 0) {\n      _withdrawCompound(amount);\n    }\n    amount = balanceDydx();\n    if (amount > 0) {\n      _withdrawDydx(amount);\n    }\n    amount = balanceFulcrum();\n    if (amount > 0) {\n      _withdrawFulcrum(amount);\n    }\n    amount = balanceAave();\n    if (amount > 0) {\n      _withdrawAave(amount);\n    }\n  }\n\n  function _withdrawSomeCompound(uint256 _amount) internal {\n    uint256 b = balanceCompound();\n    uint256 bT = balanceCompoundInToken();\n    require(bT >= _amount, \"insufficient funds\");\n    uint256 amount = b.mul(_amount).div(bT);\n    _withdrawCompound(amount);\n  }\n\n  function _withdrawSome(uint256 _amount) internal {\n    if (provider == Lender.COMPOUND) {\n      _withdrawSomeCompound(_amount);\n    }\n    if (provider == Lender.AAVE) {\n      require(balanceAave() >= _amount, \"insufficient funds\");\n      _withdrawAave(_amount);\n    }\n    if (provider == Lender.DYDX) {\n      require(balanceDydx() >= _amount, \"insufficient funds\");\n      _withdrawDydx(_amount);\n    }\n    if (provider == Lender.FULCRUM) {\n      _withdrawFulcrum(_amount);\n    }\n  }\n\n  function rebalance() public {\n    Lender newProvider = recommend();\n\n    if (newProvider != provider) {\n      _withdrawAll();\n    }\n\n    if (balance() > 0) {\n      if (newProvider == Lender.DYDX) {\n        supplyDydx(balance());\n      }\n      if (newProvider == Lender.FULCRUM) {\n        supplyFulcrum(balance());\n      }\n      if (newProvider == Lender.COMPOUND) {\n        supplyCompound(balance());\n      }\n      if (newProvider == Lender.AAVE) {\n        supplyAave(balance());\n      }\n    }\n    provider = newProvider;\n  }\n\n  function supplyAave(uint amount) public {\n      Aave(getAave()).deposit(token, amount, 0);\n  }\n  function supplyFulcrum(uint amount) public {\n      require(Fulcrum(fulcrum).mint(address(this), amount) > 0, \"FULCRUM: supply failed\");\n  }\n  function supplyCompound(uint amount) public {\n      require(Compound(compound).mint(amount) == 0, \"COMPOUND: supply failed\");\n  }\n  function _withdrawAave(uint amount) internal {\n      AToken(aaveToken).redeem(amount);\n  }\n  function _withdrawFulcrum(uint amount) internal {\n      require(Fulcrum(fulcrum).burn(address(this), amount) > 0, \"FULCRUM: withdraw failed\");\n  }\n  function _withdrawCompound(uint amount) internal {\n      require(Compound(compound).redeem(amount) == 0, \"COMPOUND: withdraw failed\");\n  }\n\n  // Quick swap low gas method for pool swaps\n  function deposit(uint256 _amount)\n      external\n      nonReentrant\n  {\n      require(_amount > 0, \"deposit must be greater than 0\");\n      pool = calcPoolValueInToken();\n\n      IERC20(token).transferFrom(msg.sender, address(this), _amount);\n\n      // Calculate pool shares\n      uint256 shares = 0;\n      if (pool == 0) {\n        shares = _amount;\n        pool = _amount;\n      } else {\n        shares = (_amount.mul(_totalSupply)).div(pool);\n      }\n      pool = calcPoolValueInToken();\n      _mint(msg.sender, shares);\n  }\n\n  function invest(uint256 _amount)\n      external\n      nonReentrant\n  {\n      require(_amount > 0, \"deposit must be greater than 0\");\n      pool = calcPoolValueInToken();\n\n      IERC20(token).transferFrom(msg.sender, address(this), _amount);\n\n      rebalance();\n\n      // Calculate pool shares\n      uint256 shares = 0;\n      if (pool == 0) {\n        shares = _amount;\n        pool = _amount;\n      } else {\n        shares = (_amount.mul(_totalSupply)).div(pool);\n      }\n      pool = calcPoolValueInToken();\n      _mint(msg.sender, shares);\n  }\n\n  function calcPoolValueInToken() public view returns (uint) {\n    return balanceCompoundInToken()\n      .add(balanceFulcrumInToken())\n      .add(balanceDydx())\n      .add(balanceAave())\n      .add(balance());\n  }\n\n  function getPricePerFullShare() public view returns (uint) {\n    uint _pool = calcPoolValueInToken();\n    return _pool.mul(1e18).div(_totalSupply);\n  }\n\n  // No rebalance implementation for lower fees and faster swaps\n  function withdraw(uint256 _shares)\n      external\n      nonReentrant\n  {\n      require(_shares > 0, \"withdraw must be greater than 0\");\n\n      uint256 ibalance = balanceOf(msg.sender);\n      require(_shares <= ibalance, \"insufficient balance\");\n\n      // Could have over value from cTokens\n      pool = calcPoolValueInToken();\n      // Calc eth to redeem before updating balances\n      uint256 r = (pool.mul(_shares)).div(_totalSupply);\n\n\n      _balances[msg.sender] = _balances[msg.sender].sub(_shares, \"redeem amount exceeds balance\");\n      _totalSupply = _totalSupply.sub(_shares);\n\n      emit Transfer(msg.sender, address(0), _shares);\n\n      // Check ETH balance\n      uint256 b = IERC20(token).balanceOf(address(this));\n      if (b < r) {\n        _withdrawSome(r.sub(b));\n      }\n\n      IERC20(token).transfer(msg.sender, r);\n      pool = calcPoolValueInToken();\n  }\n\n  // Redeem any invested tokens from the pool\n  function redeem(uint256 _shares)\n      external\n      nonReentrant\n  {\n      require(_shares > 0, \"withdraw must be greater than 0\");\n\n      uint256 ibalance = balanceOf(msg.sender);\n      require(_shares <= ibalance, \"insufficient balance\");\n\n      // Could have over value from cTokens\n      pool = calcPoolValueInToken();\n      // Calc eth to redeem before updating balances\n      uint256 r = (pool.mul(_shares)).div(_totalSupply);\n\n\n      _balances[msg.sender] = _balances[msg.sender].sub(_shares, \"redeem amount exceeds balance\");\n      _totalSupply = _totalSupply.sub(_shares);\n\n      emit Transfer(msg.sender, address(0), _shares);\n\n      // Check ETH balance\n      uint256 b = IERC20(token).balanceOf(address(this));\n      if (b < r) {\n        _withdrawSome(r.sub(b));\n      }\n\n      IERC20(token).transfer(msg.sender, r);\n\n      rebalance();\n      pool = calcPoolValueInToken();\n  }\n}\n",
  "sourcePath": "D:/ftm/itoken/contracts/YDAI.sol",
  "compiler": {
    "name": "solc",
    "version": "0.5.12+commit.7709ece9.Emscripten.clang"
  },
  "schemaVersion": "3.0.19",
  "updatedAt": "2020-02-10T02:12:42.404Z",
  "devdoc": {
    "methods": {}
  },
  "userdoc": {
    "methods": {}
  }
}