{
  "contractName": "yDAI",
  "abi": [
    {
      "inputs": [],
      "payable": false,
      "stateMutability": "nonpayable",
      "type": "constructor"
    },
    {
      "anonymous": false,
      "inputs": [
        {
          "indexed": true,
          "internalType": "address",
          "name": "owner",
          "type": "address"
        },
        {
          "indexed": true,
          "internalType": "address",
          "name": "spender",
          "type": "address"
        },
        {
          "indexed": false,
          "internalType": "uint256",
          "name": "value",
          "type": "uint256"
        }
      ],
      "name": "Approval",
      "type": "event"
    },
    {
      "anonymous": false,
      "inputs": [
        {
          "indexed": true,
          "internalType": "address",
          "name": "previousOwner",
          "type": "address"
        },
        {
          "indexed": true,
          "internalType": "address",
          "name": "newOwner",
          "type": "address"
        }
      ],
      "name": "OwnershipTransferred",
      "type": "event"
    },
    {
      "anonymous": false,
      "inputs": [
        {
          "indexed": true,
          "internalType": "address",
          "name": "from",
          "type": "address"
        },
        {
          "indexed": true,
          "internalType": "address",
          "name": "to",
          "type": "address"
        },
        {
          "indexed": false,
          "internalType": "uint256",
          "name": "value",
          "type": "uint256"
        }
      ],
      "name": "Transfer",
      "type": "event"
    },
    {
      "constant": true,
      "inputs": [],
      "name": "aave",
      "outputs": [
        {
          "internalType": "address",
          "name": "",
          "type": "address"
        }
      ],
      "payable": false,
      "stateMutability": "view",
      "type": "function"
    },
    {
      "constant": true,
      "inputs": [],
      "name": "aavePool",
      "outputs": [
        {
          "internalType": "address",
          "name": "",
          "type": "address"
        }
      ],
      "payable": false,
      "stateMutability": "view",
      "type": "function"
    },
    {
      "constant": true,
      "inputs": [],
      "name": "aaveToken",
      "outputs": [
        {
          "internalType": "address",
          "name": "",
          "type": "address"
        }
      ],
      "payable": false,
      "stateMutability": "view",
      "type": "function"
    },
    {
      "constant": true,
      "inputs": [
        {
          "internalType": "address",
          "name": "owner",
          "type": "address"
        },
        {
          "internalType": "address",
          "name": "spender",
          "type": "address"
        }
      ],
      "name": "allowance",
      "outputs": [
        {
          "internalType": "uint256",
          "name": "",
          "type": "uint256"
        }
      ],
      "payable": false,
      "stateMutability": "view",
      "type": "function"
    },
    {
      "constant": false,
      "inputs": [
        {
          "internalType": "address",
          "name": "spender",
          "type": "address"
        },
        {
          "internalType": "uint256",
          "name": "amount",
          "type": "uint256"
        }
      ],
      "name": "approve",
      "outputs": [
        {
          "internalType": "bool",
          "name": "",
          "type": "bool"
        }
      ],
      "payable": false,
      "stateMutability": "nonpayable",
      "type": "function"
    },
    {
      "constant": true,
      "inputs": [],
      "name": "apr",
      "outputs": [
        {
          "internalType": "address",
          "name": "",
          "type": "address"
        }
      ],
      "payable": false,
      "stateMutability": "view",
      "type": "function"
    },
    {
      "constant": true,
      "inputs": [
        {
          "internalType": "address",
          "name": "account",
          "type": "address"
        }
      ],
      "name": "balanceOf",
      "outputs": [
        {
          "internalType": "uint256",
          "name": "",
          "type": "uint256"
        }
      ],
      "payable": false,
      "stateMutability": "view",
      "type": "function"
    },
    {
      "constant": true,
      "inputs": [],
      "name": "chai",
      "outputs": [
        {
          "internalType": "address",
          "name": "",
          "type": "address"
        }
      ],
      "payable": false,
      "stateMutability": "view",
      "type": "function"
    },
    {
      "constant": true,
      "inputs": [],
      "name": "compound",
      "outputs": [
        {
          "internalType": "address",
          "name": "",
          "type": "address"
        }
      ],
      "payable": false,
      "stateMutability": "view",
      "type": "function"
    },
    {
      "constant": true,
      "inputs": [],
      "name": "dToken",
      "outputs": [
        {
          "internalType": "uint256",
          "name": "",
          "type": "uint256"
        }
      ],
      "payable": false,
      "stateMutability": "view",
      "type": "function"
    },
    {
      "constant": true,
      "inputs": [],
      "name": "decimals",
      "outputs": [
        {
          "internalType": "uint8",
          "name": "",
          "type": "uint8"
        }
      ],
      "payable": false,
      "stateMutability": "view",
      "type": "function"
    },
    {
      "constant": false,
      "inputs": [
        {
          "internalType": "address",
          "name": "spender",
          "type": "address"
        },
        {
          "internalType": "uint256",
          "name": "subtractedValue",
          "type": "uint256"
        }
      ],
      "name": "decreaseAllowance",
      "outputs": [
        {
          "internalType": "bool",
          "name": "",
          "type": "bool"
        }
      ],
      "payable": false,
      "stateMutability": "nonpayable",
      "type": "function"
    },
    {
      "constant": true,
      "inputs": [],
      "name": "dydx",
      "outputs": [
        {
          "internalType": "address",
          "name": "",
          "type": "address"
        }
      ],
      "payable": false,
      "stateMutability": "view",
      "type": "function"
    },
    {
      "constant": true,
      "inputs": [],
      "name": "fulcrum",
      "outputs": [
        {
          "internalType": "address",
          "name": "",
          "type": "address"
        }
      ],
      "payable": false,
      "stateMutability": "view",
      "type": "function"
    },
    {
      "constant": false,
      "inputs": [
        {
          "internalType": "address",
          "name": "spender",
          "type": "address"
        },
        {
          "internalType": "uint256",
          "name": "addedValue",
          "type": "uint256"
        }
      ],
      "name": "increaseAllowance",
      "outputs": [
        {
          "internalType": "bool",
          "name": "",
          "type": "bool"
        }
      ],
      "payable": false,
      "stateMutability": "nonpayable",
      "type": "function"
    },
    {
      "constant": true,
      "inputs": [],
      "name": "isOwner",
      "outputs": [
        {
          "internalType": "bool",
          "name": "",
          "type": "bool"
        }
      ],
      "payable": false,
      "stateMutability": "view",
      "type": "function"
    },
    {
      "constant": true,
      "inputs": [],
      "name": "name",
      "outputs": [
        {
          "internalType": "string",
          "name": "",
          "type": "string"
        }
      ],
      "payable": false,
      "stateMutability": "view",
      "type": "function"
    },
    {
      "constant": true,
      "inputs": [],
      "name": "owner",
      "outputs": [
        {
          "internalType": "address",
          "name": "",
          "type": "address"
        }
      ],
      "payable": false,
      "stateMutability": "view",
      "type": "function"
    },
    {
      "constant": true,
      "inputs": [],
      "name": "pool",
      "outputs": [
        {
          "internalType": "uint256",
          "name": "",
          "type": "uint256"
        }
      ],
      "payable": false,
      "stateMutability": "view",
      "type": "function"
    },
    {
      "constant": true,
      "inputs": [],
      "name": "provider",
      "outputs": [
        {
          "internalType": "enum yDAI.Lender",
          "name": "",
          "type": "uint8"
        }
      ],
      "payable": false,
      "stateMutability": "view",
      "type": "function"
    },
    {
      "constant": false,
      "inputs": [],
      "name": "renounceOwnership",
      "outputs": [],
      "payable": false,
      "stateMutability": "nonpayable",
      "type": "function"
    },
    {
      "constant": true,
      "inputs": [],
      "name": "symbol",
      "outputs": [
        {
          "internalType": "string",
          "name": "",
          "type": "string"
        }
      ],
      "payable": false,
      "stateMutability": "view",
      "type": "function"
    },
    {
      "constant": true,
      "inputs": [],
      "name": "token",
      "outputs": [
        {
          "internalType": "address",
          "name": "",
          "type": "address"
        }
      ],
      "payable": false,
      "stateMutability": "view",
      "type": "function"
    },
    {
      "constant": true,
      "inputs": [],
      "name": "totalSupply",
      "outputs": [
        {
          "internalType": "uint256",
          "name": "",
          "type": "uint256"
        }
      ],
      "payable": false,
      "stateMutability": "view",
      "type": "function"
    },
    {
      "constant": false,
      "inputs": [
        {
          "internalType": "address",
          "name": "recipient",
          "type": "address"
        },
        {
          "internalType": "uint256",
          "name": "amount",
          "type": "uint256"
        }
      ],
      "name": "transfer",
      "outputs": [
        {
          "internalType": "bool",
          "name": "",
          "type": "bool"
        }
      ],
      "payable": false,
      "stateMutability": "nonpayable",
      "type": "function"
    },
    {
      "constant": false,
      "inputs": [
        {
          "internalType": "address",
          "name": "sender",
          "type": "address"
        },
        {
          "internalType": "address",
          "name": "recipient",
          "type": "address"
        },
        {
          "internalType": "uint256",
          "name": "amount",
          "type": "uint256"
        }
      ],
      "name": "transferFrom",
      "outputs": [
        {
          "internalType": "bool",
          "name": "",
          "type": "bool"
        }
      ],
      "payable": false,
      "stateMutability": "nonpayable",
      "type": "function"
    },
    {
      "constant": false,
      "inputs": [
        {
          "internalType": "address",
          "name": "newOwner",
          "type": "address"
        }
      ],
      "name": "transferOwnership",
      "outputs": [],
      "payable": false,
      "stateMutability": "nonpayable",
      "type": "function"
    },
    {
      "constant": false,
      "inputs": [
        {
          "internalType": "uint256",
          "name": "_amount",
          "type": "uint256"
        }
      ],
      "name": "deposit",
      "outputs": [],
      "payable": false,
      "stateMutability": "nonpayable",
      "type": "function"
    },
    {
      "constant": false,
      "inputs": [
        {
          "internalType": "uint256",
          "name": "_shares",
          "type": "uint256"
        }
      ],
      "name": "withdraw",
      "outputs": [],
      "payable": false,
      "stateMutability": "nonpayable",
      "type": "function"
    },
    {
      "constant": true,
      "inputs": [],
      "name": "recommend",
      "outputs": [
        {
          "internalType": "enum yDAI.Lender",
          "name": "",
          "type": "uint8"
        }
      ],
      "payable": false,
      "stateMutability": "view",
      "type": "function"
    },
    {
      "constant": true,
      "inputs": [],
      "name": "getAave",
      "outputs": [
        {
          "internalType": "address",
          "name": "",
          "type": "address"
        }
      ],
      "payable": false,
      "stateMutability": "view",
      "type": "function"
    },
    {
      "constant": true,
      "inputs": [],
      "name": "getAaveCore",
      "outputs": [
        {
          "internalType": "address",
          "name": "",
          "type": "address"
        }
      ],
      "payable": false,
      "stateMutability": "view",
      "type": "function"
    },
    {
      "constant": false,
      "inputs": [],
      "name": "approveToken",
      "outputs": [],
      "payable": false,
      "stateMutability": "nonpayable",
      "type": "function"
    },
    {
      "constant": true,
      "inputs": [],
      "name": "balance",
      "outputs": [
        {
          "internalType": "uint256",
          "name": "",
          "type": "uint256"
        }
      ],
      "payable": false,
      "stateMutability": "view",
      "type": "function"
    },
    {
      "constant": true,
      "inputs": [],
      "name": "balanceDydxAvailable",
      "outputs": [
        {
          "internalType": "uint256",
          "name": "",
          "type": "uint256"
        }
      ],
      "payable": false,
      "stateMutability": "view",
      "type": "function"
    },
    {
      "constant": true,
      "inputs": [],
      "name": "balanceDydx",
      "outputs": [
        {
          "internalType": "uint256",
          "name": "",
          "type": "uint256"
        }
      ],
      "payable": false,
      "stateMutability": "view",
      "type": "function"
    },
    {
      "constant": true,
      "inputs": [],
      "name": "balanceCompound",
      "outputs": [
        {
          "internalType": "uint256",
          "name": "",
          "type": "uint256"
        }
      ],
      "payable": false,
      "stateMutability": "view",
      "type": "function"
    },
    {
      "constant": true,
      "inputs": [],
      "name": "balanceCompoundInToken",
      "outputs": [
        {
          "internalType": "uint256",
          "name": "",
          "type": "uint256"
        }
      ],
      "payable": false,
      "stateMutability": "view",
      "type": "function"
    },
    {
      "constant": true,
      "inputs": [],
      "name": "balanceFulcrumAvailable",
      "outputs": [
        {
          "internalType": "uint256",
          "name": "",
          "type": "uint256"
        }
      ],
      "payable": false,
      "stateMutability": "view",
      "type": "function"
    },
    {
      "constant": true,
      "inputs": [],
      "name": "balanceFulcrumInToken",
      "outputs": [
        {
          "internalType": "uint256",
          "name": "",
          "type": "uint256"
        }
      ],
      "payable": false,
      "stateMutability": "view",
      "type": "function"
    },
    {
      "constant": true,
      "inputs": [],
      "name": "balanceFulcrum",
      "outputs": [
        {
          "internalType": "uint256",
          "name": "",
          "type": "uint256"
        }
      ],
      "payable": false,
      "stateMutability": "view",
      "type": "function"
    },
    {
      "constant": true,
      "inputs": [],
      "name": "balanceAaveAvailable",
      "outputs": [
        {
          "internalType": "uint256",
          "name": "",
          "type": "uint256"
        }
      ],
      "payable": false,
      "stateMutability": "view",
      "type": "function"
    },
    {
      "constant": true,
      "inputs": [],
      "name": "balanceAave",
      "outputs": [
        {
          "internalType": "uint256",
          "name": "",
          "type": "uint256"
        }
      ],
      "payable": false,
      "stateMutability": "view",
      "type": "function"
    },
    {
      "constant": false,
      "inputs": [],
      "name": "rebalance",
      "outputs": [],
      "payable": false,
      "stateMutability": "nonpayable",
      "type": "function"
    },
    {
      "constant": true,
      "inputs": [],
      "name": "calcPoolValueInToken",
      "outputs": [
        {
          "internalType": "uint256",
          "name": "",
          "type": "uint256"
        }
      ],
      "payable": false,
      "stateMutability": "view",
      "type": "function"
    },
    {
      "constant": true,
      "inputs": [],
      "name": "getPricePerFullShare",
      "outputs": [
        {
          "internalType": "uint256",
          "name": "",
          "type": "uint256"
        }
      ],
      "payable": false,
      "stateMutability": "view",
      "type": "function"
    }
  ],
  "bytecode": "0x60806040526000600960006101000a81548160ff021916908360048111156200002457fe5b02179055503480156200003657600080fd5b506040518060400160405280600981526020017f696561726e2044414900000000000000000000000000000000000000000000008152506040518060400160405280600481526020017f794441490000000000000000000000000000000000000000000000000000000081525060128260039080519060200190620000bd929190620007d0565b508160049080519060200190620000d6929190620007d0565b5080600560006101000a81548160ff021916908360ff16021790555050505060016006819055506200010d620001e060201b60201c565b600760006101000a81548173ffffffffffffffffffffffffffffffffffffffff021916908373ffffffffffffffffffffffffffffffffffffffff160217905550600760009054906101000a900473ffffffffffffffffffffffffffffffffffffffff1673ffffffffffffffffffffffffffffffffffffffff16600073ffffffffffffffffffffffffffffffffffffffff167f8be0079c531659141344cd1fd0a4f28419497f9722a3daafe3b4186f6b6457e060405160405180910390a3620001da620001e860201b60201c565b62000ce5565b600033905090565b62000262735d3a536e4d6dbd6114cc1ead35777bab948e36437fffffffffffffffffffffffffffffffffffffffffffffffffffffffffffffffff736b175474e89094c44da98b954eedeac495271d0f73ffffffffffffffffffffffffffffffffffffffff16620003cd60201b620032d4179092919060201c565b620002dc731e0447b19bb6ecfdae1e4ae1694b0c3659614e4e7fffffffffffffffffffffffffffffffffffffffffffffffffffffffffffffffff736b175474e89094c44da98b954eedeac495271d0f73ffffffffffffffffffffffffffffffffffffffff16620003cd60201b620032d4179092919060201c565b62000351620002f06200055860201b60201c565b7fffffffffffffffffffffffffffffffffffffffffffffffffffffffffffffffff736b175474e89094c44da98b954eedeac495271d0f73ffffffffffffffffffffffffffffffffffffffff16620003cd60201b620032d4179092919060201c565b620003cb73493c57c4763932315a328269e1adad09653b90817fffffffffffffffffffffffffffffffffffffffffffffffffffffffffffffffff736b175474e89094c44da98b954eedeac495271d0f73ffffffffffffffffffffffffffffffffffffffff16620003cd60201b620032d4179092919060201c565b565b60008114806200046d575060008373ffffffffffffffffffffffffffffffffffffffff1663dd62ed3e30856040518363ffffffff1660e01b81526004016200041792919062000b0e565b60206040518083038186803b1580156200043057600080fd5b505afa15801562000445573d6000803e3d6000fd5b505050506040513d601f19601f820116820180604052506200046b91908101906200091c565b145b620004af576040517f08c379a0000000000000000000000000000000000000000000000000000000008152600401620004a69062000bac565b60405180910390fd5b62000553838473ffffffffffffffffffffffffffffffffffffffff1663095ea7b3905060e01b8484604051602401620004ea92919062000b3b565b604051602081830303815290604052907bffffffffffffffffffffffffffffffffffffffffffffffffffffffff19166020820180517bffffffffffffffffffffffffffffffffffffffffffffffffffffffff8381831617835250505050620005f560201b60201c565b505050565b60007324a42fd28c976a61df5d00d0599c34c4f90748c873ffffffffffffffffffffffffffffffffffffffff1663ed6ff7606040518163ffffffff1660e01b815260040160206040518083038186803b158015620005b557600080fd5b505afa158015620005ca573d6000803e3d6000fd5b505050506040513d601f19601f82011682018060405250620005f09190810190620008c4565b905090565b620006218273ffffffffffffffffffffffffffffffffffffffff166200078460201b62003f3b1760201c565b62000663576040517f08c379a00000000000000000000000000000000000000000000000000000000081526004016200065a9062000bce565b60405180910390fd5b600060608373ffffffffffffffffffffffffffffffffffffffff16836040516200068e919062000af5565b6000604051808303816000865af19150503d8060008114620006cd576040519150601f19603f3d011682016040523d82523d6000602084013e620006d2565b606091505b5091509150816200071a576040517f08c379a0000000000000000000000000000000000000000000000000000000008152600401620007119062000b68565b60405180910390fd5b6000815111156200077e57808060200190516200073b9190810190620008f0565b6200077d576040517f08c379a0000000000000000000000000000000000000000000000000000000008152600401620007749062000b8a565b60405180910390fd5b5b50505050565b60008060007fc5d2460186f7233c927e7db2dcc703c0e500b653ca82273b7bfad8045d85a47060001b9050833f91506000801b8214158015620007c75750808214155b92505050919050565b828054600181600116156101000203166002900490600052602060002090601f016020900481019282601f106200081357805160ff191683800117855562000844565b8280016001018555821562000844579182015b828111156200084357825182559160200191906001019062000826565b5b50905062000853919062000857565b5090565b6200087c91905b80821115620008785760008160009055506001016200085e565b5090565b90565b600081519050620008908162000c97565b92915050565b600081519050620008a78162000cb1565b92915050565b600081519050620008be8162000ccb565b92915050565b600060208284031215620008d757600080fd5b6000620008e7848285016200087f565b91505092915050565b6000602082840312156200090357600080fd5b6000620009138482850162000896565b91505092915050565b6000602082840312156200092f57600080fd5b60006200093f84828501620008ad565b91505092915050565b620009538162000c17565b82525050565b6000620009668262000bf0565b62000972818562000bfb565b93506200098481856020860162000c61565b80840191505092915050565b60006200099f60208362000c06565b91507f5361666545524332303a206c6f772d6c6576656c2063616c6c206661696c65646000830152602082019050919050565b6000620009e1602a8362000c06565b91507f5361666545524332303a204552433230206f7065726174696f6e20646964206e60008301527f6f742073756363656564000000000000000000000000000000000000000000006020830152604082019050919050565b600062000a4960368362000c06565b91507f5361666545524332303a20617070726f76652066726f6d206e6f6e2d7a65726f60008301527f20746f206e6f6e2d7a65726f20616c6c6f77616e6365000000000000000000006020830152604082019050919050565b600062000ab1601f8362000c06565b91507f5361666545524332303a2063616c6c20746f206e6f6e2d636f6e7472616374006000830152602082019050919050565b62000aef8162000c57565b82525050565b600062000b03828462000959565b915081905092915050565b600060408201905062000b25600083018562000948565b62000b34602083018462000948565b9392505050565b600060408201905062000b52600083018562000948565b62000b61602083018462000ae4565b9392505050565b6000602082019050818103600083015262000b838162000990565b9050919050565b6000602082019050818103600083015262000ba581620009d2565b9050919050565b6000602082019050818103600083015262000bc78162000a3a565b9050919050565b6000602082019050818103600083015262000be98162000aa2565b9050919050565b600081519050919050565b600081905092915050565b600082825260208201905092915050565b600062000c248262000c37565b9050919050565b60008115159050919050565b600073ffffffffffffffffffffffffffffffffffffffff82169050919050565b6000819050919050565b60005b8381101562000c8157808201518184015260208101905062000c64565b8381111562000c91576000848401525b50505050565b62000ca28162000c17565b811462000cae57600080fd5b50565b62000cbc8162000c2b565b811462000cc857600080fd5b50565b62000cd68162000c57565b811462000ce257600080fd5b50565b61571c8062000cf56000396000f3fe608060405234801561001057600080fd5b506004361061028a5760003560e01c80638f32d59b1161015c578063b69ef8a8116100ce578063f2fde38b11610087578063f2fde38b1461077d578063f5a41dea14610799578063f69e2046146107b7578063f7c1ec77146107d5578063f82ce27d146107f3578063fc0c546a146108115761028a565b8063b69ef8a8146106b9578063b6b55f25146106d7578063cf8ca426146106f3578063d54e324414610711578063d9d7858a1461072f578063dd62ed3e1461074d5761028a565b8063a160176d11610120578063a160176d146105e1578063a457c2d7146105ff578063a72879711461062f578063a9059cbb1461064d578063b098fc801461067d578063b69d04561461069b5761028a565b80638f32d59b1461055f5780638f9225ca1461057d57806395d89b411461059b57806399b71d5c146105b9578063a03e4bc3146105c35761028a565b806339c0a7e111610200578063715018a6116101b9578063715018a6146104d357806377c7b8fc146104dd5780637d7c2a1c146104fb578063819faf7b146105055780638da5cb5b146105235780638e4ec6ef146105415761028a565b806339c0a7e11461040d57806357ded9c91461042b57806358782c211461044957806361c1ec551461046757806370a08231146104855780637137ef99146104b55761028a565b806316f0115b1161025257806316f0115b1461033757806318160ddd1461035557806323b872dd146103735780632e1a7d4d146103a3578063313ce567146103bf57806339509351146103dd5761028a565b806306a3fe591461028f57806306fdde03146102ad578063085d4883146102cb578063095ea7b3146102e95780630eb2a26714610319575b600080fd5b61029761082f565b6040516102a49190614efe565b60405180910390f35b6102b5610847565b6040516102c29190615046565b60405180910390f35b6102d36108e9565b6040516102e0919061502b565b60405180910390f35b61030360048036036102fe919081019061430c565b6108fc565b6040516103109190615010565b60405180910390f35b61032161091a565b60405161032e9190615351565b60405180910390f35b61033f6109be565b60405161034c9190615351565b60405180910390f35b61035d6109c4565b60405161036a9190615351565b60405180910390f35b61038d600480360361038891908101906142bd565b6109ce565b60405161039a9190615010565b60405180910390f35b6103bd60048036036103b89190810190614429565b610aa7565b005b6103c7610e36565b6040516103d4919061536c565b60405180910390f35b6103f760048036036103f2919081019061430c565b610e4d565b6040516104049190615010565b60405180910390f35b610415610f00565b6040516104229190615351565b60405180910390f35b610433610fe1565b6040516104409190614efe565b60405180910390f35b610451610ff9565b60405161045e9190614efe565b60405180910390f35b61046f611011565b60405161047c9190615351565b60405180910390f35b61049f600480360361049a919081019061422f565b6110b5565b6040516104ac9190615351565b60405180910390f35b6104bd6110fd565b6040516104ca9190615351565b60405180910390f35b6104db611170565b005b6104e5611278565b6040516104f29190615351565b60405180910390f35b6105036112ba565b005b61050d611400565b60405161051a9190614efe565b60405180910390f35b61052b611418565b6040516105389190614efe565b60405180910390f35b610549611442565b6040516105569190614efe565b60405180910390f35b61056761145a565b6040516105749190615010565b60405180910390f35b6105856114b9565b6040516105929190615351565b60405180910390f35b6105a3611571565b6040516105b09190615046565b60405180910390f35b6105c1611613565b005b6105cb6117d4565b6040516105d89190614efe565b60405180910390f35b6105e96117ec565b6040516105f6919061502b565b60405180910390f35b6106196004803603610614919081019061430c565b61193c565b6040516106269190615010565b60405180910390f35b610637611a09565b6040516106449190615351565b60405180910390f35b6106676004803603610662919081019061430c565b611ae7565b6040516106749190615010565b60405180910390f35b610685611b05565b6040516106929190615351565b60405180910390f35b6106a3611bbd565b6040516106b09190614efe565b60405180910390f35b6106c1611bd5565b6040516106ce9190615351565b60405180910390f35b6106f160048036036106ec9190810190614429565b611c79565b005b6106fb611dcf565b6040516107089190615351565b60405180910390f35b610719611e73565b6040516107269190615351565b60405180910390f35b610737611f2b565b6040516107449190615351565b60405180910390f35b61076760048036036107629190810190614281565b611f30565b6040516107749190615351565b60405180910390f35b6107976004803603610792919081019061422f565b611fb7565b005b6107a161200a565b6040516107ae9190615351565b60405180910390f35b6107bf6120c7565b6040516107cc9190614efe565b60405180910390f35b6107dd6120df565b6040516107ea9190614efe565b60405180910390f35b6107fb612178565b6040516108089190614efe565b60405180910390f35b610819612211565b6040516108269190614efe565b60405180910390f35b73fc1e690f61efd961294b3e1ce3313fbd8aa4f85d81565b606060038054600181600116156101000203166002900480601f0160208091040260200160405190810160405280929190818152602001828054600181600116156101000203166002900480156108df5780601f106108b4576101008083540402835291602001916108df565b820191906000526020600020905b8154815290600101906020018083116108c257829003601f168201915b5050505050905090565b600960009054906101000a900460ff1681565b6000610910610909612229565b8484612231565b6001905092915050565b600073493c57c4763932315a328269e1adad09653b908173ffffffffffffffffffffffffffffffffffffffff166370a08231306040518263ffffffff1660e01b81526004016109699190614efe565b60206040518083038186803b15801561098157600080fd5b505afa158015610995573d6000803e3d6000fd5b505050506040513d601f19601f820116820180604052506109b99190810190614452565b905090565b60085481565b6000600254905090565b60006109db8484846123fc565b610a9c846109e7612229565b610a978560405180606001604052806028815260200161568d60289139600160008b73ffffffffffffffffffffffffffffffffffffffff1673ffffffffffffffffffffffffffffffffffffffff1681526020019081526020016000206000610a4d612229565b73ffffffffffffffffffffffffffffffffffffffff1673ffffffffffffffffffffffffffffffffffffffff168152602001908152602001600020546126869092919063ffffffff16565b612231565b600190509392505050565b60016006600082825401925050819055506000600654905060008211610b02576040517f08c379a0000000000000000000000000000000000000000000000000000000008152600401610af9906151c8565b60405180910390fd5b6000610b0d336110b5565b905080831115610b52576040517f08c379a0000000000000000000000000000000000000000000000000000000008152600401610b49906151a8565b60405180910390fd5b610b5a6110fd565b6008819055506000610b8b600254610b7d866008546126e190919063ffffffff16565b61275190919063ffffffff16565b9050610c15846040518060400160405280601d81526020017f72656465656d20616d6f756e7420657863656564732062616c616e63650000008152506000803373ffffffffffffffffffffffffffffffffffffffff1673ffffffffffffffffffffffffffffffffffffffff168152602001908152602001600020546126869092919063ffffffff16565b6000803373ffffffffffffffffffffffffffffffffffffffff1673ffffffffffffffffffffffffffffffffffffffff16815260200190815260200160002081905550610c6c8460025461279b90919063ffffffff16565b600281905550600073ffffffffffffffffffffffffffffffffffffffff163373ffffffffffffffffffffffffffffffffffffffff167fddf252ad1be2c89b69c2b068fc378daa952ba7f163c4a11628f55a4df523b3ef86604051610cd09190615351565b60405180910390a36000736b175474e89094c44da98b954eedeac495271d0f73ffffffffffffffffffffffffffffffffffffffff166370a08231306040518263ffffffff1660e01b8152600401610d279190614efe565b60206040518083038186803b158015610d3f57600080fd5b505afa158015610d53573d6000803e3d6000fd5b505050506040513d601f19601f82011682018060405250610d779190810190614452565b905081811015610d9e57610d9c610d97828461279b90919063ffffffff16565b6127e5565b505b610ddd3383736b175474e89094c44da98b954eedeac495271d0f73ffffffffffffffffffffffffffffffffffffffff16612c569092919063ffffffff16565b610de56110fd565b6008819055505050506006548114610e32576040517f08c379a0000000000000000000000000000000000000000000000000000000008152600401610e29906152a8565b60405180910390fd5b5050565b6000600560009054906101000a900460ff16905090565b6000610ef6610e5a612229565b84610ef18560016000610e6b612229565b73ffffffffffffffffffffffffffffffffffffffff1673ffffffffffffffffffffffffffffffffffffffff16815260200190815260200160002060008973ffffffffffffffffffffffffffffffffffffffff1673ffffffffffffffffffffffffffffffffffffffff16815260200190815260200160002054612cf590919063ffffffff16565b612231565b6001905092915050565b6000610f0a613f86565b731e0447b19bb6ecfdae1e4ae1694b0c3659614e4e73ffffffffffffffffffffffffffffffffffffffff1663c190c2ec60405180604001604052803073ffffffffffffffffffffffffffffffffffffffff168152602001600081525060036040518363ffffffff1660e01b8152600401610f85929190615328565b604080518083038186803b158015610f9c57600080fd5b505afa158015610fb0573d6000803e3d6000fd5b505050506040513d601f19601f82011682018060405250610fd49190810190614400565b9050806020015191505090565b73dd6d648c991f7d47454354f4ef326b04025a48a881565b73493c57c4763932315a328269e1adad09653b908181565b6000735d3a536e4d6dbd6114cc1ead35777bab948e364373ffffffffffffffffffffffffffffffffffffffff166370a08231306040518263ffffffff1660e01b81526004016110609190614efe565b60206040518083038186803b15801561107857600080fd5b505afa15801561108c573d6000803e3d6000fd5b505050506040513d601f19601f820116820180604052506110b09190810190614452565b905090565b60008060008373ffffffffffffffffffffffffffffffffffffffff1673ffffffffffffffffffffffffffffffffffffffff168152602001908152602001600020549050919050565b600061116b61110a611bd5565b61115d611115611dcf565b61114f611120610f00565b61114161112b61200a565b611133611a09565b612cf590919063ffffffff16565b612cf590919063ffffffff16565b612cf590919063ffffffff16565b612cf590919063ffffffff16565b905090565b61117861145a565b6111b7576040517f08c379a00000000000000000000000000000000000000000000000000000000081526004016111ae90615188565b60405180910390fd5b600073ffffffffffffffffffffffffffffffffffffffff16600760009054906101000a900473ffffffffffffffffffffffffffffffffffffffff1673ffffffffffffffffffffffffffffffffffffffff167f8be0079c531659141344cd1fd0a4f28419497f9722a3daafe3b4186f6b6457e060405160405180910390a36000600760006101000a81548173ffffffffffffffffffffffffffffffffffffffff021916908373ffffffffffffffffffffffffffffffffffffffff160217905550565b6000806112836110fd565b90506112b46002546112a6670de0b6b3a7640000846126e190919063ffffffff16565b61275190919063ffffffff16565b91505090565b60006112c46117ec565b9050600960009054906101000a900460ff1660048111156112e157fe5b8160048111156112ed57fe5b146112fb576112fa612d4a565b5b6000611305611bd5565b11156113da576001600481111561131857fe5b81600481111561132457fe5b141561133f5761133a611335611bd5565b612e51565b6113d9565b60048081111561134b57fe5b81600481111561135757fe5b14156113725761136d611368611bd5565b61307c565b6113d8565b6002600481111561137f57fe5b81600481111561138b57fe5b14156113a6576113a161139c611bd5565b613162565b6113d7565b600360048111156113b357fe5b8160048111156113bf57fe5b14156113d6576113d56113d0611bd5565b613246565b5b5b5b5b5b80600960006101000a81548160ff021916908360048111156113f857fe5b021790555050565b7324a42fd28c976a61df5d00d0599c34c4f90748c881565b6000600760009054906101000a900473ffffffffffffffffffffffffffffffffffffffff16905090565b731e0447b19bb6ecfdae1e4ae1694b0c3659614e4e81565b6000600760009054906101000a900473ffffffffffffffffffffffffffffffffffffffff1673ffffffffffffffffffffffffffffffffffffffff1661149d612229565b73ffffffffffffffffffffffffffffffffffffffff1614905090565b60007306af07097c9eeb7fd685c692751d5c66db49c21573ffffffffffffffffffffffffffffffffffffffff166370a0823173493c57c4763932315a328269e1adad09653b90816040518263ffffffff1660e01b815260040161151c9190614efe565b60206040518083038186803b15801561153457600080fd5b505afa158015611548573d6000803e3d6000fd5b505050506040513d601f19601f8201168201806040525061156c9190810190614452565b905090565b606060048054600181600116156101000203166002900480601f0160208091040260200160405190810160405280929190818152602001828054600181600116156101000203166002900480156116095780601f106115de57610100808354040283529160200191611609565b820191906000526020600020905b8154815290600101906020018083116115ec57829003601f168201915b5050505050905090565b611686735d3a536e4d6dbd6114cc1ead35777bab948e36437fffffffffffffffffffffffffffffffffffffffffffffffffffffffffffffffff736b175474e89094c44da98b954eedeac495271d0f73ffffffffffffffffffffffffffffffffffffffff166132d49092919063ffffffff16565b6116f9731e0447b19bb6ecfdae1e4ae1694b0c3659614e4e7fffffffffffffffffffffffffffffffffffffffffffffffffffffffffffffffff736b175474e89094c44da98b954eedeac495271d0f73ffffffffffffffffffffffffffffffffffffffff166132d49092919063ffffffff16565b61175f611704612178565b7fffffffffffffffffffffffffffffffffffffffffffffffffffffffffffffffff736b175474e89094c44da98b954eedeac495271d0f73ffffffffffffffffffffffffffffffffffffffff166132d49092919063ffffffff16565b6117d273493c57c4763932315a328269e1adad09653b90817fffffffffffffffffffffffffffffffffffffffffffffffffffffffffffffffff736b175474e89094c44da98b954eedeac495271d0f73ffffffffffffffffffffffffffffffffffffffff166132d49092919063ffffffff16565b565b733dfd23a6c5e8bbcfc9581d2e864a68feb6a076d381565b600080600080600073dd6d648c991f7d47454354f4ef326b04025a48a873ffffffffffffffffffffffffffffffffffffffff1663d88be3c0736b175474e89094c44da98b954eedeac495271d0f6040518263ffffffff1660e01b81526004016118559190614efe565b60006040518083038186803b15801561186d57600080fd5b505afa158015611881573d6000803e3d6000fd5b505050506040513d6000823e3d601f19601f820116820180604052506118aa9190810190614371565b9450945094509450506000809050808511156118c4578490505b808411156118d0578390505b808311156118dc578290505b808211156118e8578190505b6000809050858214156118fe5760029050611930565b8482141561190f576004905061192f565b83821415611920576003905061192e565b8282141561192d57600190505b5b5b5b80965050505050505090565b60006119ff611949612229565b846119fa856040518060600160405280602581526020016156b56025913960016000611973612229565b73ffffffffffffffffffffffffffffffffffffffff1673ffffffffffffffffffffffffffffffffffffffff16815260200190815260200160002060008a73ffffffffffffffffffffffffffffffffffffffff1673ffffffffffffffffffffffffffffffffffffffff168152602001908152602001600020546126869092919063ffffffff16565b612231565b6001905092915050565b600080611a14611011565b90506000811115611ae057611add670de0b6b3a7640000611acf735d3a536e4d6dbd6114cc1ead35777bab948e364373ffffffffffffffffffffffffffffffffffffffff1663182df0f56040518163ffffffff1660e01b815260040160206040518083038186803b158015611a8857600080fd5b505afa158015611a9c573d6000803e3d6000fd5b505050506040513d601f19601f82011682018060405250611ac09190810190614452565b846126e190919063ffffffff16565b61275190919063ffffffff16565b90505b8091505090565b6000611afb611af4612229565b84846123fc565b6001905092915050565b6000736b175474e89094c44da98b954eedeac495271d0f73ffffffffffffffffffffffffffffffffffffffff166370a08231733dfd23a6c5e8bbcfc9581d2e864a68feb6a076d36040518263ffffffff1660e01b8152600401611b689190614efe565b60206040518083038186803b158015611b8057600080fd5b505afa158015611b94573d6000803e3d6000fd5b505050506040513d601f19601f82011682018060405250611bb89190810190614452565b905090565b7306af07097c9eeb7fd685c692751d5c66db49c21581565b6000736b175474e89094c44da98b954eedeac495271d0f73ffffffffffffffffffffffffffffffffffffffff166370a08231306040518263ffffffff1660e01b8152600401611c249190614efe565b60206040518083038186803b158015611c3c57600080fd5b505afa158015611c50573d6000803e3d6000fd5b505050506040513d601f19601f82011682018060405250611c749190810190614452565b905090565b60016006600082825401925050819055506000600654905060008211611cd4576040517f08c379a0000000000000000000000000000000000000000000000000000000008152600401611ccb90615248565b60405180910390fd5b611cdc6110fd565b600881905550611d23333084736b175474e89094c44da98b954eedeac495271d0f73ffffffffffffffffffffffffffffffffffffffff1661344b909392919063ffffffff16565b600080905060006008541415611d425782905082600881905550611d6e565b611d6b600854611d5d600254866126e190919063ffffffff16565b61275190919063ffffffff16565b90505b611d766110fd565b600881905550611d8633826134ed565b506006548114611dcb576040517f08c379a0000000000000000000000000000000000000000000000000000000008152600401611dc2906152a8565b60405180910390fd5b5050565b600073fc1e690f61efd961294b3e1ce3313fbd8aa4f85d73ffffffffffffffffffffffffffffffffffffffff166370a08231306040518263ffffffff1660e01b8152600401611e1e9190614efe565b60206040518083038186803b158015611e3657600080fd5b505afa158015611e4a573d6000803e3d6000fd5b505050506040513d601f19601f82011682018060405250611e6e9190810190614452565b905090565b6000736b175474e89094c44da98b954eedeac495271d0f73ffffffffffffffffffffffffffffffffffffffff166370a08231731e0447b19bb6ecfdae1e4ae1694b0c3659614e4e6040518263ffffffff1660e01b8152600401611ed69190614efe565b60206040518083038186803b158015611eee57600080fd5b505afa158015611f02573d6000803e3d6000fd5b505050506040513d601f19601f82011682018060405250611f269190810190614452565b905090565b600381565b6000600160008473ffffffffffffffffffffffffffffffffffffffff1673ffffffffffffffffffffffffffffffffffffffff16815260200190815260200160002060008373ffffffffffffffffffffffffffffffffffffffff1673ffffffffffffffffffffffffffffffffffffffff16815260200190815260200160002054905092915050565b611fbf61145a565b611ffe576040517f08c379a0000000000000000000000000000000000000000000000000000000008152600401611ff590615188565b60405180910390fd5b61200781613675565b50565b60008061201561091a565b905060008111156120c05773493c57c4763932315a328269e1adad09653b908173ffffffffffffffffffffffffffffffffffffffff166306b3efd6306040518263ffffffff1660e01b815260040161206d9190614efe565b60206040518083038186803b15801561208557600080fd5b505afa158015612099573d6000803e3d6000fd5b505050506040513d601f19601f820116820180604052506120bd9190810190614452565b90505b8091505090565b735d3a536e4d6dbd6114cc1ead35777bab948e364381565b60007324a42fd28c976a61df5d00d0599c34c4f90748c873ffffffffffffffffffffffffffffffffffffffff16630261bf8b6040518163ffffffff1660e01b815260040160206040518083038186803b15801561213b57600080fd5b505afa15801561214f573d6000803e3d6000fd5b505050506040513d601f19601f820116820180604052506121739190810190614258565b905090565b60007324a42fd28c976a61df5d00d0599c34c4f90748c873ffffffffffffffffffffffffffffffffffffffff1663ed6ff7606040518163ffffffff1660e01b815260040160206040518083038186803b1580156121d457600080fd5b505afa1580156121e8573d6000803e3d6000fd5b505050506040513d601f19601f8201168201806040525061220c9190810190614258565b905090565b736b175474e89094c44da98b954eedeac495271d0f81565b600033905090565b600073ffffffffffffffffffffffffffffffffffffffff168373ffffffffffffffffffffffffffffffffffffffff1614156122a1576040517f08c379a000000000000000000000000000000000000000000000000000000000815260040161229890615228565b60405180910390fd5b600073ffffffffffffffffffffffffffffffffffffffff168273ffffffffffffffffffffffffffffffffffffffff161415612311576040517f08c379a0000000000000000000000000000000000000000000000000000000008152600401612308906150c8565b60405180910390fd5b80600160008573ffffffffffffffffffffffffffffffffffffffff1673ffffffffffffffffffffffffffffffffffffffff16815260200190815260200160002060008473ffffffffffffffffffffffffffffffffffffffff1673ffffffffffffffffffffffffffffffffffffffff168152602001908152602001600020819055508173ffffffffffffffffffffffffffffffffffffffff168373ffffffffffffffffffffffffffffffffffffffff167f8c5be1e5ebec7d5bd14f71427d1e84f3dd0314c0f7b2291e5b200ac8c7c3b925836040516123ef9190615351565b60405180910390a3505050565b600073ffffffffffffffffffffffffffffffffffffffff168373ffffffffffffffffffffffffffffffffffffffff16141561246c576040517f08c379a0000000000000000000000000000000000000000000000000000000008152600401612463906151e8565b60405180910390fd5b600073ffffffffffffffffffffffffffffffffffffffff168273ffffffffffffffffffffffffffffffffffffffff1614156124dc576040517f08c379a00000000000000000000000000000000000000000000000000000000081526004016124d390615068565b60405180910390fd5b61254781604051806060016040528060268152602001615667602691396000808773ffffffffffffffffffffffffffffffffffffffff1673ffffffffffffffffffffffffffffffffffffffff168152602001908152602001600020546126869092919063ffffffff16565b6000808573ffffffffffffffffffffffffffffffffffffffff1673ffffffffffffffffffffffffffffffffffffffff168152602001908152602001600020819055506125da816000808573ffffffffffffffffffffffffffffffffffffffff1673ffffffffffffffffffffffffffffffffffffffff16815260200190815260200160002054612cf590919063ffffffff16565b6000808473ffffffffffffffffffffffffffffffffffffffff1673ffffffffffffffffffffffffffffffffffffffff168152602001908152602001600020819055508173ffffffffffffffffffffffffffffffffffffffff168373ffffffffffffffffffffffffffffffffffffffff167fddf252ad1be2c89b69c2b068fc378daa952ba7f163c4a11628f55a4df523b3ef836040516126799190615351565b60405180910390a3505050565b60008383111582906126ce576040517f08c379a00000000000000000000000000000000000000000000000000000000081526004016126c59190615046565b60405180910390fd5b5060008385039050809150509392505050565b6000808314156126f4576000905061274b565b600082840290508284828161270557fe5b0414612746576040517f08c379a000000000000000000000000000000000000000000000000000000000815260040161273d90615148565b60405180910390fd5b809150505b92915050565b600061279383836040518060400160405280601a81526020017f536166654d6174683a206469766973696f6e206279207a65726f0000000000008152506137a5565b905092915050565b60006127dd83836040518060400160405280601e81526020017f536166654d6174683a207375627472616374696f6e206f766572666c6f770000815250612686565b905092915050565b60008082905060006127f5611011565b905060008111156129105761281b600161280d611a09565b61279b90919063ffffffff16565b8411156128fb576128456128406001612832611a09565b61279b90919063ffffffff16565b613806565b6128f4736b175474e89094c44da98b954eedeac495271d0f73ffffffffffffffffffffffffffffffffffffffff166370a08231306040518263ffffffff1660e01b81526004016128959190614efe565b60206040518083038186803b1580156128ad57600080fd5b505afa1580156128c1573d6000803e3d6000fd5b505050506040513d601f19601f820116820180604052506128e59190810190614452565b8361279b90919063ffffffff16565b935061290f565b61290484613806565b600192505050612c51565b5b612918610f00565b90506000811115612a0d5761292b611e73565b8411156129f85761294261293d611e73565b6138ac565b6129f1736b175474e89094c44da98b954eedeac495271d0f73ffffffffffffffffffffffffffffffffffffffff166370a08231306040518263ffffffff1660e01b81526004016129929190614efe565b60206040518083038186803b1580156129aa57600080fd5b505afa1580156129be573d6000803e3d6000fd5b505050506040513d601f19601f820116820180604052506129e29190810190614452565b8361279b90919063ffffffff16565b9350612a0c565b612a01846138ac565b600192505050612c51565b5b612a1561091a565b90506000811115612b4d57612a3b6001612a2d6114b9565b61279b90919063ffffffff16565b841115612b3857612a5d6001612a4f6114b9565b61279b90919063ffffffff16565b9050612a82612a7d6001612a6f6114b9565b61279b90919063ffffffff16565b613ad7565b612b31736b175474e89094c44da98b954eedeac495271d0f73ffffffffffffffffffffffffffffffffffffffff166370a08231306040518263ffffffff1660e01b8152600401612ad29190614efe565b60206040518083038186803b158015612aea57600080fd5b505afa158015612afe573d6000803e3d6000fd5b505050506040513d601f19601f82011682018060405250612b229190810190614452565b8361279b90919063ffffffff16565b9350612b4c565b612b4181613ad7565b600192505050612c51565b5b612b55611dcf565b90506000811115612c4a57612b68611b05565b841115612c3557612b7f612b7a611b05565b613b7d565b612c2e736b175474e89094c44da98b954eedeac495271d0f73ffffffffffffffffffffffffffffffffffffffff166370a08231306040518263ffffffff1660e01b8152600401612bcf9190614efe565b60206040518083038186803b158015612be757600080fd5b505afa158015612bfb573d6000803e3d6000fd5b505050506040513d601f19601f82011682018060405250612c1f9190810190614452565b8361279b90919063ffffffff16565b9350612c49565b612c3e84613b7d565b600192505050612c51565b5b6001925050505b919050565b612cf0838473ffffffffffffffffffffffffffffffffffffffff1663a9059cbb905060e01b8484604051602401612c8e929190614f79565b604051602081830303815290604052907bffffffffffffffffffffffffffffffffffffffffffffffffffffffff19166020820180517bffffffffffffffffffffffffffffffffffffffffffffffffffffffff8381831617835250505050613bff565b505050565b600080828401905083811015612d40576040517f08c379a0000000000000000000000000000000000000000000000000000000008152600401612d3790615108565b60405180910390fd5b8091505092915050565b6000612d54611011565b90506000811115612d8357612d82612d7d6001612d6f611a09565b61279b90919063ffffffff16565b613806565b5b612d8b610f00565b90506000811115612dba57612d9e611e73565b811115612db057612dad611e73565b90505b612db9816138ac565b5b612dc261091a565b90506000811115612e1757612de86001612dda6114b9565b61279b90919063ffffffff16565b811115612e0d57612e0a6001612dfc6114b9565b61279b90919063ffffffff16565b90505b612e1681613ad7565b5b612e1f611dcf565b90506000811115612e4e57612e32611b05565b811115612e4457612e41611b05565b90505b612e4d81613b7d565b5b50565b60606001604051908082528060200260200182016040528015612e8e57816020015b612e7b613fa2565b815260200190600190039081612e735790505b50905060405180604001604052803073ffffffffffffffffffffffffffffffffffffffff168152602001600081525081600081518110612eca57fe5b6020026020010181905250612edd613fd2565b6040518060800160405280600115158152602001600080811115612efd57fe5b8152602001600080811115612f0e57fe5b8152602001848152509050612f21614010565b600081600001906001811115612f3357fe5b90816001811115612f4057fe5b8152505060008160200181815250508181604001819052506003816060018181525050308160a0019073ffffffffffffffffffffffffffffffffffffffff16908173ffffffffffffffffffffffffffffffffffffffff168152505060606001604051908082528060200260200182016040528015612fd857816020015b612fc561407c565b815260200190600190039081612fbd5790505b5090508181600081518110612fe957fe5b6020026020010181905250731e0447b19bb6ecfdae1e4ae1694b0c3659614e4e73ffffffffffffffffffffffffffffffffffffffff1663a67a6a4585836040518363ffffffff1660e01b8152600401613043929190614fd9565b600060405180830381600087803b15801561305d57600080fd5b505af1158015613071573d6000803e3d6000fd5b505050505050505050565b600073493c57c4763932315a328269e1adad09653b908173ffffffffffffffffffffffffffffffffffffffff166340c10f1930846040518363ffffffff1660e01b81526004016130cd929190614f79565b602060405180830381600087803b1580156130e757600080fd5b505af11580156130fb573d6000803e3d6000fd5b505050506040513d601f19601f8201168201806040525061311f9190810190614452565b1161315f576040517f08c379a000000000000000000000000000000000000000000000000000000000815260040161315690615268565b60405180910390fd5b50565b6000735d3a536e4d6dbd6114cc1ead35777bab948e364373ffffffffffffffffffffffffffffffffffffffff1663a0712d68836040518263ffffffff1660e01b81526004016131b19190615351565b602060405180830381600087803b1580156131cb57600080fd5b505af11580156131df573d6000803e3d6000fd5b505050506040513d601f19601f820116820180604052506132039190810190614452565b14613243576040517f08c379a000000000000000000000000000000000000000000000000000000000815260040161323a906150e8565b60405180910390fd5b50565b61324e6120df565b73ffffffffffffffffffffffffffffffffffffffff1663d2d0e066736b175474e89094c44da98b954eedeac495271d0f8360006040518463ffffffff1660e01b815260040161329f93929190614fa2565b600060405180830381600087803b1580156132b957600080fd5b505af11580156132cd573d6000803e3d6000fd5b5050505050565b600081148061336d575060008373ffffffffffffffffffffffffffffffffffffffff1663dd62ed3e30856040518363ffffffff1660e01b815260040161331b929190614f19565b60206040518083038186803b15801561333357600080fd5b505afa158015613347573d6000803e3d6000fd5b505050506040513d601f19601f8201168201806040525061336b9190810190614452565b145b6133ac576040517f08c379a00000000000000000000000000000000000000000000000000000000081526004016133a3906152c8565b60405180910390fd5b613446838473ffffffffffffffffffffffffffffffffffffffff1663095ea7b3905060e01b84846040516024016133e4929190614f79565b604051602081830303815290604052907bffffffffffffffffffffffffffffffffffffffffffffffffffffffff19166020820180517bffffffffffffffffffffffffffffffffffffffffffffffffffffffff8381831617835250505050613bff565b505050565b6134e7848573ffffffffffffffffffffffffffffffffffffffff166323b872dd905060e01b85858560405160240161348593929190614f42565b604051602081830303815290604052907bffffffffffffffffffffffffffffffffffffffffffffffffffffffff19166020820180517bffffffffffffffffffffffffffffffffffffffffffffffffffffffff8381831617835250505050613bff565b50505050565b600073ffffffffffffffffffffffffffffffffffffffff168273ffffffffffffffffffffffffffffffffffffffff16141561355d576040517f08c379a000000000000000000000000000000000000000000000000000000000815260040161355490615308565b60405180910390fd5b61357281600254612cf590919063ffffffff16565b6002819055506135c9816000808573ffffffffffffffffffffffffffffffffffffffff1673ffffffffffffffffffffffffffffffffffffffff16815260200190815260200160002054612cf590919063ffffffff16565b6000808473ffffffffffffffffffffffffffffffffffffffff1673ffffffffffffffffffffffffffffffffffffffff168152602001908152602001600020819055508173ffffffffffffffffffffffffffffffffffffffff16600073ffffffffffffffffffffffffffffffffffffffff167fddf252ad1be2c89b69c2b068fc378daa952ba7f163c4a11628f55a4df523b3ef836040516136699190615351565b60405180910390a35050565b600073ffffffffffffffffffffffffffffffffffffffff168173ffffffffffffffffffffffffffffffffffffffff1614156136e5576040517f08c379a00000000000000000000000000000000000000000000000000000000081526004016136dc906150a8565b60405180910390fd5b8073ffffffffffffffffffffffffffffffffffffffff16600760009054906101000a900473ffffffffffffffffffffffffffffffffffffffff1673ffffffffffffffffffffffffffffffffffffffff167f8be0079c531659141344cd1fd0a4f28419497f9722a3daafe3b4186f6b6457e060405160405180910390a380600760006101000a81548173ffffffffffffffffffffffffffffffffffffffff021916908373ffffffffffffffffffffffffffffffffffffffff16021790555050565b600080831182906137ec576040517f08c379a00000000000000000000000000000000000000000000000000000000081526004016137e39190615046565b60405180910390fd5b5060008385816137f857fe5b049050809150509392505050565b6000613810611011565b9050600061381c611a09565b905082811015613861576040517f08c379a000000000000000000000000000000000000000000000000000000000815260040161385890615208565b60405180910390fd5b600061389b600161388d8461387f88886126e190919063ffffffff16565b61275190919063ffffffff16565b612cf590919063ffffffff16565b90506138a681613d71565b50505050565b606060016040519080825280602002602001820160405280156138e957816020015b6138d6613fa2565b8152602001906001900390816138ce5790505b50905060405180604001604052803073ffffffffffffffffffffffffffffffffffffffff16815260200160008152508160008151811061392557fe5b6020026020010181905250613938613fd2565b604051806080016040528060001515815260200160008081111561395857fe5b815260200160008081111561396957fe5b815260200184815250905061397c614010565b60018160000190600181111561398e57fe5b9081600181111561399b57fe5b8152505060008160200181815250508181604001819052506003816060018181525050308160a0019073ffffffffffffffffffffffffffffffffffffffff16908173ffffffffffffffffffffffffffffffffffffffff168152505060606001604051908082528060200260200182016040528015613a3357816020015b613a2061407c565b815260200190600190039081613a185790505b5090508181600081518110613a4457fe5b6020026020010181905250731e0447b19bb6ecfdae1e4ae1694b0c3659614e4e73ffffffffffffffffffffffffffffffffffffffff1663a67a6a4585836040518363ffffffff1660e01b8152600401613a9e929190614fd9565b600060405180830381600087803b158015613ab857600080fd5b505af1158015613acc573d6000803e3d6000fd5b505050505050505050565b6000613ae161091a565b90506000613aed61200a565b905082811015613b32576040517f08c379a0000000000000000000000000000000000000000000000000000000008152600401613b2990615208565b60405180910390fd5b6000613b6c6001613b5e84613b5088886126e190919063ffffffff16565b61275190919063ffffffff16565b612cf590919063ffffffff16565b9050613b7781613e55565b50505050565b73fc1e690f61efd961294b3e1ce3313fbd8aa4f85d73ffffffffffffffffffffffffffffffffffffffff1663db006a75826040518263ffffffff1660e01b8152600401613bca9190615351565b600060405180830381600087803b158015613be457600080fd5b505af1158015613bf8573d6000803e3d6000fd5b5050505050565b613c1e8273ffffffffffffffffffffffffffffffffffffffff16613f3b565b613c5d576040517f08c379a0000000000000000000000000000000000000000000000000000000008152600401613c54906152e8565b60405180910390fd5b600060608373ffffffffffffffffffffffffffffffffffffffff1683604051613c869190614ee7565b6000604051808303816000865af19150503d8060008114613cc3576040519150601f19603f3d011682016040523d82523d6000602084013e613cc8565b606091505b509150915081613d0d576040517f08c379a0000000000000000000000000000000000000000000000000000000008152600401613d0490615128565b60405180910390fd5b600081511115613d6b5780806020019051613d2b9190810190614348565b613d6a576040517f08c379a0000000000000000000000000000000000000000000000000000000008152600401613d6190615288565b60405180910390fd5b5b50505050565b6000735d3a536e4d6dbd6114cc1ead35777bab948e364373ffffffffffffffffffffffffffffffffffffffff1663db006a75836040518263ffffffff1660e01b8152600401613dc09190615351565b602060405180830381600087803b158015613dda57600080fd5b505af1158015613dee573d6000803e3d6000fd5b505050506040513d601f19601f82011682018060405250613e129190810190614452565b14613e52576040517f08c379a0000000000000000000000000000000000000000000000000000000008152600401613e4990615088565b60405180910390fd5b50565b600073493c57c4763932315a328269e1adad09653b908173ffffffffffffffffffffffffffffffffffffffff16639dc29fac30846040518363ffffffff1660e01b8152600401613ea6929190614f79565b602060405180830381600087803b158015613ec057600080fd5b505af1158015613ed4573d6000803e3d6000fd5b505050506040513d601f19601f82011682018060405250613ef89190810190614452565b11613f38576040517f08c379a0000000000000000000000000000000000000000000000000000000008152600401613f2f90615168565b60405180910390fd5b50565b60008060007fc5d2460186f7233c927e7db2dcc703c0e500b653ca82273b7bfad8045d85a47060001b9050833f91506000801b8214158015613f7d5750808214155b92505050919050565b6040518060400160405280600015158152602001600081525090565b6040518060400160405280600073ffffffffffffffffffffffffffffffffffffffff168152602001600081525090565b6040518060800160405280600015158152602001600080811115613ff257fe5b815260200160008081111561400357fe5b8152602001600081525090565b6040518061010001604052806000600181111561402957fe5b81526020016000815260200161403d6140e8565b81526020016000815260200160008152602001600073ffffffffffffffffffffffffffffffffffffffff16815260200160008152602001606081525090565b6040518061010001604052806000600181111561409557fe5b8152602001600081526020016140a96140e8565b81526020016000815260200160008152602001600073ffffffffffffffffffffffffffffffffffffffff16815260200160008152602001606081525090565b604051806080016040528060001515815260200160008081111561410857fe5b815260200160008081111561411957fe5b8152602001600081525090565b60008135905061413581615621565b92915050565b60008151905061414a81615621565b92915050565b60008151905061415f81615638565b92915050565b600082601f83011261417657600080fd5b8151614189614184826153b4565b615387565b915080825260208301602083018583830111156141a557600080fd5b6141b08382846155a9565b50505092915050565b6000604082840312156141cb57600080fd5b6141d56040615387565b905060006141e584828501614150565b60008301525060206141f98482850161421a565b60208301525092915050565b6000813590506142148161564f565b92915050565b6000815190506142298161564f565b92915050565b60006020828403121561424157600080fd5b600061424f84828501614126565b91505092915050565b60006020828403121561426a57600080fd5b60006142788482850161413b565b91505092915050565b6000806040838503121561429457600080fd5b60006142a285828601614126565b92505060206142b385828601614126565b9150509250929050565b6000806000606084860312156142d257600080fd5b60006142e086828701614126565b93505060206142f186828701614126565b925050604061430286828701614205565b9150509250925092565b6000806040838503121561431f57600080fd5b600061432d85828601614126565b925050602061433e85828601614205565b9150509250929050565b60006020828403121561435a57600080fd5b600061436884828501614150565b91505092915050565b600080600080600060a0868803121561438957600080fd5b600086015167ffffffffffffffff8111156143a357600080fd5b6143af88828901614165565b95505060206143c08882890161421a565b94505060406143d18882890161421a565b93505060606143e28882890161421a565b92505060806143f38882890161421a565b9150509295509295909350565b60006040828403121561441257600080fd5b6000614420848285016141b9565b91505092915050565b60006020828403121561443b57600080fd5b600061444984828501614205565b91505092915050565b60006020828403121561446457600080fd5b60006144728482850161421a565b91505092915050565b60006144878383614d54565b905092915050565b600061449b8383614e5c565b60408301905092915050565b6144b0816154a0565b82525050565b6144bf816154a0565b82525050565b60006144d082615400565b6144da8185615451565b9350836020820285016144ec856153e0565b8060005b858110156145285784840389528151614509858261447b565b945061451483615437565b925060208a019950506001810190506144f0565b50829750879550505050505092915050565b60006145458261540b565b61454f8185615462565b935061455a836153f0565b8060005b8381101561458b578151614572888261448f565b975061457d83615444565b92505060018101905061455e565b5085935050505092915050565b6145a1816154b2565b82525050565b6145b0816154b2565b82525050565b60006145c182615421565b6145cb8185615484565b93506145db8185602086016155a9565b80840191505092915050565b60006145f282615416565b6145fc8185615473565b935061460c8185602086016155a9565b614615816155dc565b840191505092915050565b6146298161554f565b82525050565b61463881615561565b82525050565b61464781615573565b82525050565b61465681615585565b82525050565b61466581615597565b82525050565b60006146768261542c565b614680818561548f565b93506146908185602086016155a9565b614699816155dc565b840191505092915050565b60006146b160238361548f565b91507f45524332303a207472616e7366657220746f20746865207a65726f206164647260008301527f65737300000000000000000000000000000000000000000000000000000000006020830152604082019050919050565b600061471760198361548f565b91507f434f4d504f554e443a207769746864726177206661696c6564000000000000006000830152602082019050919050565b600061475760268361548f565b91507f4f776e61626c653a206e6577206f776e657220697320746865207a65726f206160008301527f64647265737300000000000000000000000000000000000000000000000000006020830152604082019050919050565b60006147bd60228361548f565b91507f45524332303a20617070726f766520746f20746865207a65726f20616464726560008301527f73730000000000000000000000000000000000000000000000000000000000006020830152604082019050919050565b600061482360178361548f565b91507f434f4d504f554e443a20737570706c79206661696c65640000000000000000006000830152602082019050919050565b6000614863601b8361548f565b91507f536166654d6174683a206164646974696f6e206f766572666c6f7700000000006000830152602082019050919050565b60006148a360208361548f565b91507f5361666545524332303a206c6f772d6c6576656c2063616c6c206661696c65646000830152602082019050919050565b60006148e360218361548f565b91507f536166654d6174683a206d756c7469706c69636174696f6e206f766572666c6f60008301527f77000000000000000000000000000000000000000000000000000000000000006020830152604082019050919050565b600061494960188361548f565b91507f46554c4352554d3a207769746864726177206661696c656400000000000000006000830152602082019050919050565b600061498960208361548f565b91507f4f776e61626c653a2063616c6c6572206973206e6f7420746865206f776e65726000830152602082019050919050565b60006149c960148361548f565b91507f696e73756666696369656e742062616c616e63650000000000000000000000006000830152602082019050919050565b6000614a09601f8361548f565b91507f7769746864726177206d7573742062652067726561746572207468616e2030006000830152602082019050919050565b6000614a4960258361548f565b91507f45524332303a207472616e736665722066726f6d20746865207a65726f20616460008301527f64726573730000000000000000000000000000000000000000000000000000006020830152604082019050919050565b6000614aaf60128361548f565b91507f696e73756666696369656e742066756e647300000000000000000000000000006000830152602082019050919050565b6000614aef60248361548f565b91507f45524332303a20617070726f76652066726f6d20746865207a65726f2061646460008301527f72657373000000000000000000000000000000000000000000000000000000006020830152604082019050919050565b6000614b55601e8361548f565b91507f6465706f736974206d7573742062652067726561746572207468616e203000006000830152602082019050919050565b6000614b9560168361548f565b91507f46554c4352554d3a20737570706c79206661696c6564000000000000000000006000830152602082019050919050565b6000614bd5602a8361548f565b91507f5361666545524332303a204552433230206f7065726174696f6e20646964206e60008301527f6f742073756363656564000000000000000000000000000000000000000000006020830152604082019050919050565b6000614c3b601f8361548f565b91507f5265656e7472616e637947756172643a207265656e7472616e742063616c6c006000830152602082019050919050565b6000614c7b60368361548f565b91507f5361666545524332303a20617070726f76652066726f6d206e6f6e2d7a65726f60008301527f20746f206e6f6e2d7a65726f20616c6c6f77616e6365000000000000000000006020830152604082019050919050565b6000614ce1601f8361548f565b91507f5361666545524332303a2063616c6c20746f206e6f6e2d636f6e7472616374006000830152602082019050919050565b6000614d21601f8361548f565b91507f45524332303a206d696e7420746f20746865207a65726f2061646472657373006000830152602082019050919050565b600061016083016000830151614d6d6000860182614620565b506020830151614d806020860182614eba565b506040830151614d936040860182614e07565b506060830151614da660c0860182614eba565b506080830151614db960e0860182614eba565b5060a0830151614dcd6101008601826144a7565b5060c0830151614de1610120860182614eba565b5060e0830151848203610140860152614dfa82826145e7565b9150508091505092915050565b608082016000820151614e1d6000850182614598565b506020820151614e30602085018261462f565b506040820151614e43604085018261463e565b506060820151614e566060850182614eba565b50505050565b604082016000820151614e7260008501826144a7565b506020820151614e856020850182614eba565b50505050565b604082016000820151614ea160008501826144a7565b506020820151614eb46020850182614eba565b50505050565b614ec381615538565b82525050565b614ed281615538565b82525050565b614ee181615542565b82525050565b6000614ef382846145b6565b915081905092915050565b6000602082019050614f1360008301846144b6565b92915050565b6000604082019050614f2e60008301856144b6565b614f3b60208301846144b6565b9392505050565b6000606082019050614f5760008301866144b6565b614f6460208301856144b6565b614f716040830184614ec9565b949350505050565b6000604082019050614f8e60008301856144b6565b614f9b6020830184614ec9565b9392505050565b6000606082019050614fb760008301866144b6565b614fc46020830185614ec9565b614fd1604083018461465c565b949350505050565b60006040820190508181036000830152614ff3818561453a565b9050818103602083015261500781846144c5565b90509392505050565b600060208201905061502560008301846145a7565b92915050565b6000602082019050615040600083018461464d565b92915050565b60006020820190508181036000830152615060818461466b565b905092915050565b60006020820190508181036000830152615081816146a4565b9050919050565b600060208201905081810360008301526150a18161470a565b9050919050565b600060208201905081810360008301526150c18161474a565b9050919050565b600060208201905081810360008301526150e1816147b0565b9050919050565b6000602082019050818103600083015261510181614816565b9050919050565b6000602082019050818103600083015261512181614856565b9050919050565b6000602082019050818103600083015261514181614896565b9050919050565b60006020820190508181036000830152615161816148d6565b9050919050565b600060208201905081810360008301526151818161493c565b9050919050565b600060208201905081810360008301526151a18161497c565b9050919050565b600060208201905081810360008301526151c1816149bc565b9050919050565b600060208201905081810360008301526151e1816149fc565b9050919050565b6000602082019050818103600083015261520181614a3c565b9050919050565b6000602082019050818103600083015261522181614aa2565b9050919050565b6000602082019050818103600083015261524181614ae2565b9050919050565b6000602082019050818103600083015261526181614b48565b9050919050565b6000602082019050818103600083015261528181614b88565b9050919050565b600060208201905081810360008301526152a181614bc8565b9050919050565b600060208201905081810360008301526152c181614c2e565b9050919050565b600060208201905081810360008301526152e181614c6e565b9050919050565b6000602082019050818103600083015261530181614cd4565b9050919050565b6000602082019050818103600083015261532181614d14565b9050919050565b600060608201905061533d6000830185614e8b565b61534a6040830184614ec9565b9392505050565b60006020820190506153666000830184614ec9565b92915050565b60006020820190506153816000830184614ed8565b92915050565b6000604051905081810181811067ffffffffffffffff821117156153aa57600080fd5b8060405250919050565b600067ffffffffffffffff8211156153cb57600080fd5b601f19601f8301169050602081019050919050565b6000819050602082019050919050565b6000819050602082019050919050565b600081519050919050565b600081519050919050565b600081519050919050565b600081519050919050565b600081519050919050565b6000602082019050919050565b6000602082019050919050565b600082825260208201905092915050565b600082825260208201905092915050565b600082825260208201905092915050565b600081905092915050565b600082825260208201905092915050565b60006154ab82615518565b9050919050565b60008115159050919050565b60008190506154cc826155ed565b919050565b60008190506154df826155fa565b919050565b60008190506154f282615607565b919050565b600081905061550582615614565b919050565b600061ffff82169050919050565b600073ffffffffffffffffffffffffffffffffffffffff82169050919050565b6000819050919050565b600060ff82169050919050565b600061555a826154be565b9050919050565b600061556c826154d1565b9050919050565b600061557e826154e4565b9050919050565b6000615590826154f7565b9050919050565b60006155a28261550a565b9050919050565b60005b838110156155c75780820151818401526020810190506155ac565b838111156155d6576000848401525b50505050565b6000601f19601f8301169050919050565b600281106155f757fe5b50565b6001811061560457fe5b50565b6001811061561157fe5b50565b6005811061561e57fe5b50565b61562a816154a0565b811461563557600080fd5b50565b615641816154b2565b811461564c57600080fd5b50565b61565881615538565b811461566357600080fd5b5056fe45524332303a207472616e7366657220616d6f756e7420657863656564732062616c616e636545524332303a207472616e7366657220616d6f756e74206578636565647320616c6c6f77616e636545524332303a2064656372656173656420616c6c6f77616e63652062656c6f77207a65726fa365627a7a7231582017a710bbadbf57d164d8c2892083508c61a042c7bf0f2607655c6cc9d192b4b26c6578706572696d656e74616cf564736f6c634300050c0040",
  "source": "pragma solidity ^0.5.0;\npragma experimental ABIEncoderV2;\n\ninterface IERC20 {\n    function totalSupply() external view returns (uint256);\n    function balanceOf(address account) external view returns (uint256);\n    function transfer(address recipient, uint256 amount) external returns (bool);\n    function allowance(address owner, address spender) external view returns (uint256);\n    function approve(address spender, uint256 amount) external returns (bool);\n    function transferFrom(address sender, address recipient, uint256 amount) external returns (bool);\n    event Transfer(address indexed from, address indexed to, uint256 value);\n    event Approval(address indexed owner, address indexed spender, uint256 value);\n}\n\ncontract Context {\n    constructor () internal { }\n    // solhint-disable-previous-line no-empty-blocks\n\n    function _msgSender() internal view returns (address payable) {\n        return msg.sender;\n    }\n\n    function _msgData() internal view returns (bytes memory) {\n        this; // silence state mutability warning without generating bytecode - see https://github.com/ethereum/solidity/issues/2691\n        return msg.data;\n    }\n}\n\ncontract Ownable is Context {\n    address private _owner;\n\n    event OwnershipTransferred(address indexed previousOwner, address indexed newOwner);\n    constructor () internal {\n        _owner = _msgSender();\n        emit OwnershipTransferred(address(0), _owner);\n    }\n    function owner() public view returns (address) {\n        return _owner;\n    }\n    modifier onlyOwner() {\n        require(isOwner(), \"Ownable: caller is not the owner\");\n        _;\n    }\n    function isOwner() public view returns (bool) {\n        return _msgSender() == _owner;\n    }\n    function renounceOwnership() public onlyOwner {\n        emit OwnershipTransferred(_owner, address(0));\n        _owner = address(0);\n    }\n    function transferOwnership(address newOwner) public onlyOwner {\n        _transferOwnership(newOwner);\n    }\n    function _transferOwnership(address newOwner) internal {\n        require(newOwner != address(0), \"Ownable: new owner is the zero address\");\n        emit OwnershipTransferred(_owner, newOwner);\n        _owner = newOwner;\n    }\n}\n\ncontract ERC20 is Context, IERC20 {\n    using SafeMath for uint256;\n\n    mapping (address => uint256) _balances;\n\n    mapping (address => mapping (address => uint256)) private _allowances;\n\n    uint256 _totalSupply;\n    function totalSupply() public view returns (uint256) {\n        return _totalSupply;\n    }\n    function balanceOf(address account) public view returns (uint256) {\n        return _balances[account];\n    }\n    function transfer(address recipient, uint256 amount) public returns (bool) {\n        _transfer(_msgSender(), recipient, amount);\n        return true;\n    }\n    function allowance(address owner, address spender) public view returns (uint256) {\n        return _allowances[owner][spender];\n    }\n    function approve(address spender, uint256 amount) public returns (bool) {\n        _approve(_msgSender(), spender, amount);\n        return true;\n    }\n    function transferFrom(address sender, address recipient, uint256 amount) public returns (bool) {\n        _transfer(sender, recipient, amount);\n        _approve(sender, _msgSender(), _allowances[sender][_msgSender()].sub(amount, \"ERC20: transfer amount exceeds allowance\"));\n        return true;\n    }\n    function increaseAllowance(address spender, uint256 addedValue) public returns (bool) {\n        _approve(_msgSender(), spender, _allowances[_msgSender()][spender].add(addedValue));\n        return true;\n    }\n    function decreaseAllowance(address spender, uint256 subtractedValue) public returns (bool) {\n        _approve(_msgSender(), spender, _allowances[_msgSender()][spender].sub(subtractedValue, \"ERC20: decreased allowance below zero\"));\n        return true;\n    }\n    function _transfer(address sender, address recipient, uint256 amount) internal {\n        require(sender != address(0), \"ERC20: transfer from the zero address\");\n        require(recipient != address(0), \"ERC20: transfer to the zero address\");\n\n        _balances[sender] = _balances[sender].sub(amount, \"ERC20: transfer amount exceeds balance\");\n        _balances[recipient] = _balances[recipient].add(amount);\n        emit Transfer(sender, recipient, amount);\n    }\n    function _mint(address account, uint256 amount) internal {\n        require(account != address(0), \"ERC20: mint to the zero address\");\n\n        _totalSupply = _totalSupply.add(amount);\n        _balances[account] = _balances[account].add(amount);\n        emit Transfer(address(0), account, amount);\n    }\n    function _burn(address account, uint256 amount) internal {\n        require(account != address(0), \"ERC20: burn from the zero address\");\n\n        _balances[account] = _balances[account].sub(amount, \"ERC20: burn amount exceeds balance\");\n        _totalSupply = _totalSupply.sub(amount);\n        emit Transfer(account, address(0), amount);\n    }\n    function _approve(address owner, address spender, uint256 amount) internal {\n        require(owner != address(0), \"ERC20: approve from the zero address\");\n        require(spender != address(0), \"ERC20: approve to the zero address\");\n\n        _allowances[owner][spender] = amount;\n        emit Approval(owner, spender, amount);\n    }\n    function _burnFrom(address account, uint256 amount) internal {\n        _burn(account, amount);\n        _approve(account, _msgSender(), _allowances[account][_msgSender()].sub(amount, \"ERC20: burn amount exceeds allowance\"));\n    }\n}\n\ncontract ERC20Detailed is IERC20 {\n    string private _name;\n    string private _symbol;\n    uint8 private _decimals;\n\n    constructor (string memory name, string memory symbol, uint8 decimals) public {\n        _name = name;\n        _symbol = symbol;\n        _decimals = decimals;\n    }\n    function name() public view returns (string memory) {\n        return _name;\n    }\n    function symbol() public view returns (string memory) {\n        return _symbol;\n    }\n    function decimals() public view returns (uint8) {\n        return _decimals;\n    }\n}\n\ncontract ReentrancyGuard {\n    uint256 private _guardCounter;\n\n    constructor () internal {\n        _guardCounter = 1;\n    }\n\n    modifier nonReentrant() {\n        _guardCounter += 1;\n        uint256 localCounter = _guardCounter;\n        _;\n        require(localCounter == _guardCounter, \"ReentrancyGuard: reentrant call\");\n    }\n}\n\nlibrary SafeMath {\n    function add(uint256 a, uint256 b) internal pure returns (uint256) {\n        uint256 c = a + b;\n        require(c >= a, \"SafeMath: addition overflow\");\n\n        return c;\n    }\n    function sub(uint256 a, uint256 b) internal pure returns (uint256) {\n        return sub(a, b, \"SafeMath: subtraction overflow\");\n    }\n    function sub(uint256 a, uint256 b, string memory errorMessage) internal pure returns (uint256) {\n        require(b <= a, errorMessage);\n        uint256 c = a - b;\n\n        return c;\n    }\n    function mul(uint256 a, uint256 b) internal pure returns (uint256) {\n        if (a == 0) {\n            return 0;\n        }\n\n        uint256 c = a * b;\n        require(c / a == b, \"SafeMath: multiplication overflow\");\n\n        return c;\n    }\n    function div(uint256 a, uint256 b) internal pure returns (uint256) {\n        return div(a, b, \"SafeMath: division by zero\");\n    }\n    function div(uint256 a, uint256 b, string memory errorMessage) internal pure returns (uint256) {\n        // Solidity only automatically asserts when dividing by 0\n        require(b > 0, errorMessage);\n        uint256 c = a / b;\n\n        return c;\n    }\n    function mod(uint256 a, uint256 b) internal pure returns (uint256) {\n        return mod(a, b, \"SafeMath: modulo by zero\");\n    }\n    function mod(uint256 a, uint256 b, string memory errorMessage) internal pure returns (uint256) {\n        require(b != 0, errorMessage);\n        return a % b;\n    }\n}\n\nlibrary Address {\n    function isContract(address account) internal view returns (bool) {\n        bytes32 codehash;\n        bytes32 accountHash = 0xc5d2460186f7233c927e7db2dcc703c0e500b653ca82273b7bfad8045d85a470;\n        // solhint-disable-next-line no-inline-assembly\n        assembly { codehash := extcodehash(account) }\n        return (codehash != 0x0 && codehash != accountHash);\n    }\n    function toPayable(address account) internal pure returns (address payable) {\n        return address(uint160(account));\n    }\n    function sendValue(address payable recipient, uint256 amount) internal {\n        require(address(this).balance >= amount, \"Address: insufficient balance\");\n\n        // solhint-disable-next-line avoid-call-value\n        (bool success, ) = recipient.call.value(amount)(\"\");\n        require(success, \"Address: unable to send value, recipient may have reverted\");\n    }\n}\n\nlibrary SafeERC20 {\n    using SafeMath for uint256;\n    using Address for address;\n\n    function safeTransfer(IERC20 token, address to, uint256 value) internal {\n        callOptionalReturn(token, abi.encodeWithSelector(token.transfer.selector, to, value));\n    }\n\n    function safeTransferFrom(IERC20 token, address from, address to, uint256 value) internal {\n        callOptionalReturn(token, abi.encodeWithSelector(token.transferFrom.selector, from, to, value));\n    }\n\n    function safeApprove(IERC20 token, address spender, uint256 value) internal {\n        require((value == 0) || (token.allowance(address(this), spender) == 0),\n            \"SafeERC20: approve from non-zero to non-zero allowance\"\n        );\n        callOptionalReturn(token, abi.encodeWithSelector(token.approve.selector, spender, value));\n    }\n\n    function safeIncreaseAllowance(IERC20 token, address spender, uint256 value) internal {\n        uint256 newAllowance = token.allowance(address(this), spender).add(value);\n        callOptionalReturn(token, abi.encodeWithSelector(token.approve.selector, spender, newAllowance));\n    }\n\n    function safeDecreaseAllowance(IERC20 token, address spender, uint256 value) internal {\n        uint256 newAllowance = token.allowance(address(this), spender).sub(value, \"SafeERC20: decreased allowance below zero\");\n        callOptionalReturn(token, abi.encodeWithSelector(token.approve.selector, spender, newAllowance));\n    }\n    function callOptionalReturn(IERC20 token, bytes memory data) private {\n        require(address(token).isContract(), \"SafeERC20: call to non-contract\");\n\n        // solhint-disable-next-line avoid-low-level-calls\n        (bool success, bytes memory returndata) = address(token).call(data);\n        require(success, \"SafeERC20: low-level call failed\");\n\n        if (returndata.length > 0) { // Return data is optional\n            // solhint-disable-next-line max-line-length\n            require(abi.decode(returndata, (bool)), \"SafeERC20: ERC20 operation did not succeed\");\n        }\n    }\n}\n\ninterface Compound {\n    function mint ( uint256 mintAmount ) external returns ( uint256 );\n    function redeem(uint256 redeemTokens) external returns (uint256);\n    function exchangeRateStored() external view returns (uint);\n}\n\ninterface Fulcrum {\n    function mint(address receiver, uint256 amount) external payable returns (uint256 mintAmount);\n    function burn(address receiver, uint256 burnAmount) external returns (uint256 loanAmountPaid);\n    function assetBalanceOf(address _owner) external view returns (uint256 balance);\n}\n\ninterface ILendingPoolAddressesProvider {\n    function getLendingPool() external view returns (address);\n}\n\ninterface Aave {\n    function deposit(address _reserve, uint256 _amount, uint16 _referralCode) external;\n}\n\ninterface AToken {\n    function redeem(uint256 amount) external;\n}\n\ninterface IIEarnManager {\n    function recommend(address _token) external view returns (\n      string memory choice,\n      uint256 capr,\n      uint256 iapr,\n      uint256 aapr,\n      uint256 dapr\n    );\n}\n\ncontract Structs {\n    struct Val {\n        uint256 value;\n    }\n\n    enum ActionType {\n        Deposit,   // supply tokens\n        Withdraw  // borrow tokens\n    }\n\n    enum AssetDenomination {\n        Wei // the amount is denominated in wei\n    }\n\n    enum AssetReference {\n        Delta // the amount is given as a delta from the current value\n    }\n\n    struct AssetAmount {\n        bool sign; // true if positive\n        AssetDenomination denomination;\n        AssetReference ref;\n        uint256 value;\n    }\n\n    struct ActionArgs {\n        ActionType actionType;\n        uint256 accountId;\n        AssetAmount amount;\n        uint256 primaryMarketId;\n        uint256 secondaryMarketId;\n        address otherAddress;\n        uint256 otherAccountId;\n        bytes data;\n    }\n\n    struct Info {\n        address owner;  // The address that owns the account\n        uint256 number; // A nonce that allows a single address to control many accounts\n    }\n\n    struct Wei {\n        bool sign; // true if positive\n        uint256 value;\n    }\n}\n\ncontract DyDx is Structs {\n    function getAccountWei(Info memory account, uint256 marketId) public view returns (Wei memory);\n    function operate(Info[] memory, ActionArgs[] memory) public;\n}\n\ninterface LendingPoolAddressesProvider {\n    function getLendingPool() external view returns (address);\n    function getLendingPoolCore() external view returns (address);\n}\n\ncontract yDAI is ERC20, ERC20Detailed, ReentrancyGuard, Structs, Ownable {\n  using SafeERC20 for IERC20;\n  using Address for address;\n  using SafeMath for uint256;\n\n  uint256 public pool;\n  address public constant token = address(0x6B175474E89094C44Da98b954EedeAC495271d0F);\n  address public constant compound = address(0x5d3a536E4D6DbD6114cc1Ead35777bAB948E3643);\n  address public constant fulcrum = address(0x493C57C4763932315A328269E1ADaD09653B9081);\n  address public constant aave = address(0x24a42fD28C976A61Df5D00D0599C34c4f90748c8);\n  address public constant aavePool = address(0x3dfd23A6c5E8BbcFc9581d2E864a68feb6a076d3);\n  address public constant aaveToken = address(0xfC1E690f61EFd961294b3e1Ce3313fBD8aa4f85d);\n  address public constant dydx = address(0x1E0447b19BB6EcFdAe1e4AE1694b0C3659614e4e);\n  uint256 public constant dToken = 3;\n  address public constant apr = address(0xdD6d648C991f7d47454354f4Ef326b04025a48A8);\n  address public constant chai = address(0x06AF07097C9Eeb7fD685c692751D5C66dB49c215);\n\n  enum Lender {\n      NONE,\n      DYDX,\n      COMPOUND,\n      AAVE,\n      FULCRUM\n  }\n\n  Lender public provider = Lender.NONE;\n\n  constructor () public ERC20Detailed(\"iearn DAI\", \"yDAI\", 18) {\n    approveToken();\n  }\n\n  function deposit(uint256 _amount)\n      external\n      nonReentrant\n  {\n      require(_amount > 0, \"deposit must be greater than 0\");\n      pool = calcPoolValueInToken();\n\n      IERC20(token).safeTransferFrom(msg.sender, address(this), _amount);\n\n      // Calculate pool shares\n      uint256 shares = 0;\n      if (pool == 0) {\n        shares = _amount;\n        pool = _amount;\n      } else {\n        shares = (_amount.mul(_totalSupply)).div(pool);\n      }\n      pool = calcPoolValueInToken();\n      _mint(msg.sender, shares);\n  }\n\n  // No rebalance implementation for lower fees and faster swaps\n  function withdraw(uint256 _shares)\n      external\n      nonReentrant\n  {\n      require(_shares > 0, \"withdraw must be greater than 0\");\n\n      uint256 ibalance = balanceOf(msg.sender);\n      require(_shares <= ibalance, \"insufficient balance\");\n\n      // Could have over value from cTokens\n      pool = calcPoolValueInToken();\n      // Calc to redeem before updating balances\n      uint256 r = (pool.mul(_shares)).div(_totalSupply);\n\n\n      _balances[msg.sender] = _balances[msg.sender].sub(_shares, \"redeem amount exceeds balance\");\n      _totalSupply = _totalSupply.sub(_shares);\n\n      emit Transfer(msg.sender, address(0), _shares);\n\n      // Check balance\n      uint256 b = IERC20(token).balanceOf(address(this));\n      if (b < r) {\n        _withdrawSome(r.sub(b));\n      }\n\n      IERC20(token).safeTransfer(msg.sender, r);\n      pool = calcPoolValueInToken();\n  }\n\n  function recommend() public view returns (Lender) {\n    (,uint256 capr,uint256 iapr,uint256 aapr,uint256 dapr) = IIEarnManager(apr).recommend(token);\n    uint256 max = 0;\n    if (capr > max) {\n      max = capr;\n    }\n    if (iapr > max) {\n      max = iapr;\n    }\n    if (aapr > max) {\n      max = aapr;\n    }\n    if (dapr > max) {\n      max = dapr;\n    }\n\n    Lender newProvider = Lender.NONE;\n    if (max == capr) {\n      newProvider = Lender.COMPOUND;\n    } else if (max == iapr) {\n      newProvider = Lender.FULCRUM;\n    } else if (max == aapr) {\n      newProvider = Lender.AAVE;\n    } else if (max == dapr) {\n      newProvider = Lender.DYDX;\n    }\n    return newProvider;\n  }\n\n  function getAave() public view returns (address) {\n    return LendingPoolAddressesProvider(aave).getLendingPool();\n  }\n  function getAaveCore() public view returns (address) {\n    return LendingPoolAddressesProvider(aave).getLendingPoolCore();\n  }\n\n  function approveToken() public {\n      IERC20(token).safeApprove(compound, uint(-1));\n      IERC20(token).safeApprove(dydx, uint(-1));\n      IERC20(token).safeApprove(getAaveCore(), uint(-1));\n      IERC20(token).safeApprove(fulcrum, uint(-1));\n  }\n\n  function balance() public view returns (uint256) {\n    return IERC20(token).balanceOf(address(this));\n  }\n  function balanceDydxAvailable() public view returns (uint256) {\n      return IERC20(token).balanceOf(dydx);\n  }\n  function balanceDydx() public view returns (uint256) {\n      Wei memory bal = DyDx(dydx).getAccountWei(Info(address(this), 0), dToken);\n      return bal.value;\n  }\n  function balanceCompound() public view returns (uint256) {\n      return IERC20(compound).balanceOf(address(this));\n  }\n  function balanceCompoundInToken() public view returns (uint256) {\n    // Mantisa 1e18 to decimals\n    uint256 b = balanceCompound();\n    if (b > 0) {\n      b = b.mul(Compound(compound).exchangeRateStored()).div(1e18);\n    }\n    return b;\n  }\n  function balanceFulcrumAvailable() public view returns (uint256) {\n      return IERC20(chai).balanceOf(fulcrum);\n  }\n  function balanceFulcrumInToken() public view returns (uint256) {\n    uint256 b = balanceFulcrum();\n    if (b > 0) {\n      b = Fulcrum(fulcrum).assetBalanceOf(address(this));\n    }\n    return b;\n  }\n  function balanceFulcrum() public view returns (uint256) {\n    return IERC20(fulcrum).balanceOf(address(this));\n  }\n  function balanceAaveAvailable() public view returns (uint256) {\n      return IERC20(token).balanceOf(aavePool);\n  }\n  function balanceAave() public view returns (uint256) {\n    return IERC20(aaveToken).balanceOf(address(this));\n  }\n\n  function rebalance() public {\n    Lender newProvider = recommend();\n\n    if (newProvider != provider) {\n      _withdrawAll();\n    }\n\n    if (balance() > 0) {\n      if (newProvider == Lender.DYDX) {\n        _supplyDydx(balance());\n      } else if (newProvider == Lender.FULCRUM) {\n        _supplyFulcrum(balance());\n      } else if (newProvider == Lender.COMPOUND) {\n        _supplyCompound(balance());\n      } else if (newProvider == Lender.AAVE) {\n        _supplyAave(balance());\n      }\n    }\n\n    provider = newProvider;\n  }\n\n  function _withdrawAll() internal {\n    uint256 amount = balanceCompound();\n    if (amount > 0) {\n      _withdrawSomeCompound(balanceCompoundInToken().sub(1));\n    }\n    amount = balanceDydx();\n    if (amount > 0) {\n      if (amount > balanceDydxAvailable()) {\n        amount = balanceDydxAvailable();\n      }\n      _withdrawDydx(amount);\n    }\n    amount = balanceFulcrum();\n    if (amount > 0) {\n      if (amount > balanceFulcrumAvailable().sub(1)) {\n        amount = balanceFulcrumAvailable().sub(1);\n      }\n      _withdrawSomeFulcrum(amount);\n    }\n    amount = balanceAave();\n    if (amount > 0) {\n      if (amount > balanceAaveAvailable()) {\n        amount = balanceAaveAvailable();\n      }\n      _withdrawAave(amount);\n    }\n  }\n\n  function _withdrawSomeCompound(uint256 _amount) internal {\n    uint256 b = balanceCompound();\n    uint256 bT = balanceCompoundInToken();\n    require(bT >= _amount, \"insufficient funds\");\n    // can have unintentional rounding errors\n    uint256 amount = (b.mul(_amount)).div(bT).add(1);\n    _withdrawCompound(amount);\n  }\n\n  function _withdrawSomeFulcrum(uint256 _amount) internal {\n    uint256 b = balanceFulcrum();\n    uint256 bT = balanceFulcrumInToken();\n    require(bT >= _amount, \"insufficient funds\");\n    // can have unintentional rounding errors\n    uint256 amount = (b.mul(_amount)).div(bT).add(1);\n    _withdrawFulcrum(amount);\n  }\n\n\n  function _withdrawSome(uint256 _amount) internal returns (bool) {\n    uint256 origAmount = _amount;\n\n    uint256 amount = balanceCompound();\n    if (amount > 0) {\n      if (_amount > balanceCompoundInToken().sub(1)) {\n        _withdrawSomeCompound(balanceCompoundInToken().sub(1));\n        _amount = origAmount.sub(IERC20(token).balanceOf(address(this)));\n      } else {\n        _withdrawSomeCompound(_amount);\n        return true;\n      }\n    }\n\n    amount = balanceDydx();\n    if (amount > 0) {\n      if (_amount > balanceDydxAvailable()) {\n        _withdrawDydx(balanceDydxAvailable());\n        _amount = origAmount.sub(IERC20(token).balanceOf(address(this)));\n      } else {\n        _withdrawDydx(_amount);\n        return true;\n      }\n    }\n\n    amount = balanceFulcrum();\n    if (amount > 0) {\n      if (_amount > balanceFulcrumAvailable().sub(1)) {\n        amount = balanceFulcrumAvailable().sub(1);\n        _withdrawSomeFulcrum(balanceFulcrumAvailable().sub(1));\n        _amount = origAmount.sub(IERC20(token).balanceOf(address(this)));\n      } else {\n        _withdrawSomeFulcrum(amount);\n        return true;\n      }\n    }\n\n    amount = balanceAave();\n    if (amount > 0) {\n      if (_amount > balanceAaveAvailable()) {\n        _withdrawAave(balanceAaveAvailable());\n        _amount = origAmount.sub(IERC20(token).balanceOf(address(this)));\n      } else {\n        _withdrawAave(_amount);\n        return true;\n      }\n    }\n\n    return true;\n  }\n\n  function _supplyDydx(uint256 amount) internal {\n      Info[] memory infos = new Info[](1);\n      infos[0] = Info(address(this), 0);\n\n      AssetAmount memory amt = AssetAmount(true, AssetDenomination.Wei, AssetReference.Delta, amount);\n      ActionArgs memory act;\n      act.actionType = ActionType.Deposit;\n      act.accountId = 0;\n      act.amount = amt;\n      act.primaryMarketId = dToken;\n      act.otherAddress = address(this);\n\n      ActionArgs[] memory args = new ActionArgs[](1);\n      args[0] = act;\n\n      DyDx(dydx).operate(infos, args);\n  }\n\n  function _supplyAave(uint amount) internal {\n      Aave(getAave()).deposit(token, amount, 0);\n  }\n  function _supplyFulcrum(uint amount) internal {\n      require(Fulcrum(fulcrum).mint(address(this), amount) > 0, \"FULCRUM: supply failed\");\n  }\n  function _supplyCompound(uint amount) internal {\n      require(Compound(compound).mint(amount) == 0, \"COMPOUND: supply failed\");\n  }\n  function _withdrawAave(uint amount) internal {\n      AToken(aaveToken).redeem(amount);\n  }\n  function _withdrawFulcrum(uint amount) internal {\n      require(Fulcrum(fulcrum).burn(address(this), amount) > 0, \"FULCRUM: withdraw failed\");\n  }\n  function _withdrawCompound(uint amount) internal {\n      require(Compound(compound).redeem(amount) == 0, \"COMPOUND: withdraw failed\");\n  }\n\n  function _withdrawDydx(uint256 amount) internal {\n      Info[] memory infos = new Info[](1);\n      infos[0] = Info(address(this), 0);\n\n      AssetAmount memory amt = AssetAmount(false, AssetDenomination.Wei, AssetReference.Delta, amount);\n      ActionArgs memory act;\n      act.actionType = ActionType.Withdraw;\n      act.accountId = 0;\n      act.amount = amt;\n      act.primaryMarketId = dToken;\n      act.otherAddress = address(this);\n\n      ActionArgs[] memory args = new ActionArgs[](1);\n      args[0] = act;\n\n      DyDx(dydx).operate(infos, args);\n  }\n\n  function calcPoolValueInToken() public view returns (uint) {\n    return balanceCompoundInToken()\n      .add(balanceFulcrumInToken())\n      .add(balanceDydx())\n      .add(balanceAave())\n      .add(balance());\n  }\n\n  function getPricePerFullShare() public view returns (uint) {\n    uint _pool = calcPoolValueInToken();\n    return _pool.mul(1e18).div(_totalSupply);\n  }\n}\n",
  "sourcePath": "D:/ftm/itoken/contracts/YDAIv4.sol",
  "compiler": {
    "name": "solc",
    "version": "0.5.12+commit.7709ece9.Emscripten.clang"
  },
  "schemaVersion": "3.0.19",
  "updatedAt": "2020-03-03T06:34:52.013Z",
  "devdoc": {
    "methods": {}
  },
  "userdoc": {
    "methods": {}
  }
}