{
  "contractName": "yDAI",
  "abi": [
    {
      "inputs": [],
      "payable": false,
      "stateMutability": "nonpayable",
      "type": "constructor"
    },
    {
      "anonymous": false,
      "inputs": [
        {
          "indexed": true,
          "internalType": "address",
          "name": "owner",
          "type": "address"
        },
        {
          "indexed": true,
          "internalType": "address",
          "name": "spender",
          "type": "address"
        },
        {
          "indexed": false,
          "internalType": "uint256",
          "name": "value",
          "type": "uint256"
        }
      ],
      "name": "Approval",
      "type": "event"
    },
    {
      "anonymous": false,
      "inputs": [
        {
          "indexed": true,
          "internalType": "address",
          "name": "previousOwner",
          "type": "address"
        },
        {
          "indexed": true,
          "internalType": "address",
          "name": "newOwner",
          "type": "address"
        }
      ],
      "name": "OwnershipTransferred",
      "type": "event"
    },
    {
      "anonymous": false,
      "inputs": [
        {
          "indexed": true,
          "internalType": "address",
          "name": "from",
          "type": "address"
        },
        {
          "indexed": true,
          "internalType": "address",
          "name": "to",
          "type": "address"
        },
        {
          "indexed": false,
          "internalType": "uint256",
          "name": "value",
          "type": "uint256"
        }
      ],
      "name": "Transfer",
      "type": "event"
    },
    {
      "constant": true,
      "inputs": [],
      "name": "aave",
      "outputs": [
        {
          "internalType": "address",
          "name": "",
          "type": "address"
        }
      ],
      "payable": false,
      "stateMutability": "view",
      "type": "function"
    },
    {
      "constant": true,
      "inputs": [],
      "name": "aavePool",
      "outputs": [
        {
          "internalType": "address",
          "name": "",
          "type": "address"
        }
      ],
      "payable": false,
      "stateMutability": "view",
      "type": "function"
    },
    {
      "constant": true,
      "inputs": [],
      "name": "aaveToken",
      "outputs": [
        {
          "internalType": "address",
          "name": "",
          "type": "address"
        }
      ],
      "payable": false,
      "stateMutability": "view",
      "type": "function"
    },
    {
      "constant": true,
      "inputs": [
        {
          "internalType": "address",
          "name": "owner",
          "type": "address"
        },
        {
          "internalType": "address",
          "name": "spender",
          "type": "address"
        }
      ],
      "name": "allowance",
      "outputs": [
        {
          "internalType": "uint256",
          "name": "",
          "type": "uint256"
        }
      ],
      "payable": false,
      "stateMutability": "view",
      "type": "function"
    },
    {
      "constant": false,
      "inputs": [
        {
          "internalType": "address",
          "name": "spender",
          "type": "address"
        },
        {
          "internalType": "uint256",
          "name": "amount",
          "type": "uint256"
        }
      ],
      "name": "approve",
      "outputs": [
        {
          "internalType": "bool",
          "name": "",
          "type": "bool"
        }
      ],
      "payable": false,
      "stateMutability": "nonpayable",
      "type": "function"
    },
    {
      "constant": true,
      "inputs": [],
      "name": "apr",
      "outputs": [
        {
          "internalType": "address",
          "name": "",
          "type": "address"
        }
      ],
      "payable": false,
      "stateMutability": "view",
      "type": "function"
    },
    {
      "constant": true,
      "inputs": [
        {
          "internalType": "address",
          "name": "account",
          "type": "address"
        }
      ],
      "name": "balanceOf",
      "outputs": [
        {
          "internalType": "uint256",
          "name": "",
          "type": "uint256"
        }
      ],
      "payable": false,
      "stateMutability": "view",
      "type": "function"
    },
    {
      "constant": true,
      "inputs": [],
      "name": "compound",
      "outputs": [
        {
          "internalType": "address",
          "name": "",
          "type": "address"
        }
      ],
      "payable": false,
      "stateMutability": "view",
      "type": "function"
    },
    {
      "constant": true,
      "inputs": [],
      "name": "dToken",
      "outputs": [
        {
          "internalType": "uint256",
          "name": "",
          "type": "uint256"
        }
      ],
      "payable": false,
      "stateMutability": "view",
      "type": "function"
    },
    {
      "constant": true,
      "inputs": [],
      "name": "decimals",
      "outputs": [
        {
          "internalType": "uint8",
          "name": "",
          "type": "uint8"
        }
      ],
      "payable": false,
      "stateMutability": "view",
      "type": "function"
    },
    {
      "constant": false,
      "inputs": [
        {
          "internalType": "address",
          "name": "spender",
          "type": "address"
        },
        {
          "internalType": "uint256",
          "name": "subtractedValue",
          "type": "uint256"
        }
      ],
      "name": "decreaseAllowance",
      "outputs": [
        {
          "internalType": "bool",
          "name": "",
          "type": "bool"
        }
      ],
      "payable": false,
      "stateMutability": "nonpayable",
      "type": "function"
    },
    {
      "constant": true,
      "inputs": [],
      "name": "dydx",
      "outputs": [
        {
          "internalType": "address",
          "name": "",
          "type": "address"
        }
      ],
      "payable": false,
      "stateMutability": "view",
      "type": "function"
    },
    {
      "constant": true,
      "inputs": [],
      "name": "fulcrum",
      "outputs": [
        {
          "internalType": "address",
          "name": "",
          "type": "address"
        }
      ],
      "payable": false,
      "stateMutability": "view",
      "type": "function"
    },
    {
      "constant": false,
      "inputs": [
        {
          "internalType": "address",
          "name": "spender",
          "type": "address"
        },
        {
          "internalType": "uint256",
          "name": "addedValue",
          "type": "uint256"
        }
      ],
      "name": "increaseAllowance",
      "outputs": [
        {
          "internalType": "bool",
          "name": "",
          "type": "bool"
        }
      ],
      "payable": false,
      "stateMutability": "nonpayable",
      "type": "function"
    },
    {
      "constant": true,
      "inputs": [],
      "name": "isOwner",
      "outputs": [
        {
          "internalType": "bool",
          "name": "",
          "type": "bool"
        }
      ],
      "payable": false,
      "stateMutability": "view",
      "type": "function"
    },
    {
      "constant": true,
      "inputs": [],
      "name": "name",
      "outputs": [
        {
          "internalType": "string",
          "name": "",
          "type": "string"
        }
      ],
      "payable": false,
      "stateMutability": "view",
      "type": "function"
    },
    {
      "constant": true,
      "inputs": [],
      "name": "owner",
      "outputs": [
        {
          "internalType": "address",
          "name": "",
          "type": "address"
        }
      ],
      "payable": false,
      "stateMutability": "view",
      "type": "function"
    },
    {
      "constant": true,
      "inputs": [],
      "name": "pool",
      "outputs": [
        {
          "internalType": "uint256",
          "name": "",
          "type": "uint256"
        }
      ],
      "payable": false,
      "stateMutability": "view",
      "type": "function"
    },
    {
      "constant": true,
      "inputs": [],
      "name": "provider",
      "outputs": [
        {
          "internalType": "enum yDAI.Lender",
          "name": "",
          "type": "uint8"
        }
      ],
      "payable": false,
      "stateMutability": "view",
      "type": "function"
    },
    {
      "constant": false,
      "inputs": [],
      "name": "renounceOwnership",
      "outputs": [],
      "payable": false,
      "stateMutability": "nonpayable",
      "type": "function"
    },
    {
      "constant": true,
      "inputs": [],
      "name": "symbol",
      "outputs": [
        {
          "internalType": "string",
          "name": "",
          "type": "string"
        }
      ],
      "payable": false,
      "stateMutability": "view",
      "type": "function"
    },
    {
      "constant": true,
      "inputs": [],
      "name": "token",
      "outputs": [
        {
          "internalType": "address",
          "name": "",
          "type": "address"
        }
      ],
      "payable": false,
      "stateMutability": "view",
      "type": "function"
    },
    {
      "constant": true,
      "inputs": [],
      "name": "totalSupply",
      "outputs": [
        {
          "internalType": "uint256",
          "name": "",
          "type": "uint256"
        }
      ],
      "payable": false,
      "stateMutability": "view",
      "type": "function"
    },
    {
      "constant": false,
      "inputs": [
        {
          "internalType": "address",
          "name": "recipient",
          "type": "address"
        },
        {
          "internalType": "uint256",
          "name": "amount",
          "type": "uint256"
        }
      ],
      "name": "transfer",
      "outputs": [
        {
          "internalType": "bool",
          "name": "",
          "type": "bool"
        }
      ],
      "payable": false,
      "stateMutability": "nonpayable",
      "type": "function"
    },
    {
      "constant": false,
      "inputs": [
        {
          "internalType": "address",
          "name": "sender",
          "type": "address"
        },
        {
          "internalType": "address",
          "name": "recipient",
          "type": "address"
        },
        {
          "internalType": "uint256",
          "name": "amount",
          "type": "uint256"
        }
      ],
      "name": "transferFrom",
      "outputs": [
        {
          "internalType": "bool",
          "name": "",
          "type": "bool"
        }
      ],
      "payable": false,
      "stateMutability": "nonpayable",
      "type": "function"
    },
    {
      "constant": false,
      "inputs": [
        {
          "internalType": "address",
          "name": "newOwner",
          "type": "address"
        }
      ],
      "name": "transferOwnership",
      "outputs": [],
      "payable": false,
      "stateMutability": "nonpayable",
      "type": "function"
    },
    {
      "constant": false,
      "inputs": [
        {
          "internalType": "address",
          "name": "_new_APR",
          "type": "address"
        }
      ],
      "name": "set_new_APR",
      "outputs": [],
      "payable": false,
      "stateMutability": "nonpayable",
      "type": "function"
    },
    {
      "constant": false,
      "inputs": [
        {
          "internalType": "address",
          "name": "_new_FULCRUM",
          "type": "address"
        }
      ],
      "name": "set_new_FULCRUM",
      "outputs": [],
      "payable": false,
      "stateMutability": "nonpayable",
      "type": "function"
    },
    {
      "constant": false,
      "inputs": [
        {
          "internalType": "address",
          "name": "_new_COMPOUND",
          "type": "address"
        }
      ],
      "name": "set_new_COMPOUND",
      "outputs": [],
      "payable": false,
      "stateMutability": "nonpayable",
      "type": "function"
    },
    {
      "constant": false,
      "inputs": [
        {
          "internalType": "uint256",
          "name": "_new_DTOKEN",
          "type": "uint256"
        }
      ],
      "name": "set_new_DTOKEN",
      "outputs": [],
      "payable": false,
      "stateMutability": "nonpayable",
      "type": "function"
    },
    {
      "constant": false,
      "inputs": [
        {
          "internalType": "address",
          "name": "_new_AAVE",
          "type": "address"
        }
      ],
      "name": "set_new_AAVE",
      "outputs": [],
      "payable": false,
      "stateMutability": "nonpayable",
      "type": "function"
    },
    {
      "constant": false,
      "inputs": [
        {
          "internalType": "address",
          "name": "_new_APOOL",
          "type": "address"
        }
      ],
      "name": "set_new_APOOL",
      "outputs": [],
      "payable": false,
      "stateMutability": "nonpayable",
      "type": "function"
    },
    {
      "constant": false,
      "inputs": [
        {
          "internalType": "address",
          "name": "_new_ATOKEN",
          "type": "address"
        }
      ],
      "name": "set_new_ATOKEN",
      "outputs": [],
      "payable": false,
      "stateMutability": "nonpayable",
      "type": "function"
    },
    {
      "constant": false,
      "inputs": [
        {
          "internalType": "uint256",
          "name": "_amount",
          "type": "uint256"
        }
      ],
      "name": "deposit",
      "outputs": [],
      "payable": false,
      "stateMutability": "nonpayable",
      "type": "function"
    },
    {
      "constant": false,
      "inputs": [
        {
          "internalType": "uint256",
          "name": "_shares",
          "type": "uint256"
        }
      ],
      "name": "withdraw",
      "outputs": [],
      "payable": false,
      "stateMutability": "nonpayable",
      "type": "function"
    },
    {
      "constant": true,
      "inputs": [],
      "name": "recommend",
      "outputs": [
        {
          "internalType": "enum yDAI.Lender",
          "name": "",
          "type": "uint8"
        }
      ],
      "payable": false,
      "stateMutability": "view",
      "type": "function"
    },
    {
      "constant": true,
      "inputs": [],
      "name": "getAave",
      "outputs": [
        {
          "internalType": "address",
          "name": "",
          "type": "address"
        }
      ],
      "payable": false,
      "stateMutability": "view",
      "type": "function"
    },
    {
      "constant": true,
      "inputs": [],
      "name": "getAaveCore",
      "outputs": [
        {
          "internalType": "address",
          "name": "",
          "type": "address"
        }
      ],
      "payable": false,
      "stateMutability": "view",
      "type": "function"
    },
    {
      "constant": false,
      "inputs": [],
      "name": "approveToken",
      "outputs": [],
      "payable": false,
      "stateMutability": "nonpayable",
      "type": "function"
    },
    {
      "constant": true,
      "inputs": [],
      "name": "balance",
      "outputs": [
        {
          "internalType": "uint256",
          "name": "",
          "type": "uint256"
        }
      ],
      "payable": false,
      "stateMutability": "view",
      "type": "function"
    },
    {
      "constant": true,
      "inputs": [],
      "name": "balanceDydxAvailable",
      "outputs": [
        {
          "internalType": "uint256",
          "name": "",
          "type": "uint256"
        }
      ],
      "payable": false,
      "stateMutability": "view",
      "type": "function"
    },
    {
      "constant": true,
      "inputs": [],
      "name": "balanceDydx",
      "outputs": [
        {
          "internalType": "uint256",
          "name": "",
          "type": "uint256"
        }
      ],
      "payable": false,
      "stateMutability": "view",
      "type": "function"
    },
    {
      "constant": true,
      "inputs": [],
      "name": "balanceCompoundAvailable",
      "outputs": [
        {
          "internalType": "uint256",
          "name": "",
          "type": "uint256"
        }
      ],
      "payable": false,
      "stateMutability": "view",
      "type": "function"
    },
    {
      "constant": true,
      "inputs": [],
      "name": "balanceCompound",
      "outputs": [
        {
          "internalType": "uint256",
          "name": "",
          "type": "uint256"
        }
      ],
      "payable": false,
      "stateMutability": "view",
      "type": "function"
    },
    {
      "constant": true,
      "inputs": [],
      "name": "balanceCompoundInToken",
      "outputs": [
        {
          "internalType": "uint256",
          "name": "",
          "type": "uint256"
        }
      ],
      "payable": false,
      "stateMutability": "view",
      "type": "function"
    },
    {
      "constant": true,
      "inputs": [],
      "name": "balanceFulcrumAvailable",
      "outputs": [
        {
          "internalType": "uint256",
          "name": "",
          "type": "uint256"
        }
      ],
      "payable": false,
      "stateMutability": "view",
      "type": "function"
    },
    {
      "constant": true,
      "inputs": [],
      "name": "balanceFulcrumInToken",
      "outputs": [
        {
          "internalType": "uint256",
          "name": "",
          "type": "uint256"
        }
      ],
      "payable": false,
      "stateMutability": "view",
      "type": "function"
    },
    {
      "constant": true,
      "inputs": [],
      "name": "balanceFulcrum",
      "outputs": [
        {
          "internalType": "uint256",
          "name": "",
          "type": "uint256"
        }
      ],
      "payable": false,
      "stateMutability": "view",
      "type": "function"
    },
    {
      "constant": true,
      "inputs": [],
      "name": "balanceAaveAvailable",
      "outputs": [
        {
          "internalType": "uint256",
          "name": "",
          "type": "uint256"
        }
      ],
      "payable": false,
      "stateMutability": "view",
      "type": "function"
    },
    {
      "constant": true,
      "inputs": [],
      "name": "balanceAave",
      "outputs": [
        {
          "internalType": "uint256",
          "name": "",
          "type": "uint256"
        }
      ],
      "payable": false,
      "stateMutability": "view",
      "type": "function"
    },
    {
      "constant": false,
      "inputs": [],
      "name": "rebalance",
      "outputs": [],
      "payable": false,
      "stateMutability": "nonpayable",
      "type": "function"
    },
    {
      "constant": true,
      "inputs": [],
      "name": "calcPoolValueInToken",
      "outputs": [
        {
          "internalType": "uint256",
          "name": "",
          "type": "uint256"
        }
      ],
      "payable": false,
      "stateMutability": "view",
      "type": "function"
    },
    {
      "constant": true,
      "inputs": [],
      "name": "getPricePerFullShare",
      "outputs": [
        {
          "internalType": "uint256",
          "name": "",
          "type": "uint256"
        }
      ],
      "payable": false,
      "stateMutability": "view",
      "type": "function"
    },
    {
      "constant": false,
      "inputs": [],
      "name": "withdrawAll",
      "outputs": [],
      "payable": false,
      "stateMutability": "nonpayable",
      "type": "function"
    },
    {
      "constant": false,
      "inputs": [
        {
          "internalType": "uint256",
          "name": "_amount",
          "type": "uint256"
        }
      ],
      "name": "withdrawSomeCompound",
      "outputs": [],
      "payable": false,
      "stateMutability": "nonpayable",
      "type": "function"
    },
    {
      "constant": false,
      "inputs": [
        {
          "internalType": "uint256",
          "name": "_amount",
          "type": "uint256"
        }
      ],
      "name": "withdrawSomeFulcrum",
      "outputs": [],
      "payable": false,
      "stateMutability": "nonpayable",
      "type": "function"
    },
    {
      "constant": false,
      "inputs": [
        {
          "internalType": "uint256",
          "name": "_amount",
          "type": "uint256"
        }
      ],
      "name": "withdrawSome",
      "outputs": [],
      "payable": false,
      "stateMutability": "nonpayable",
      "type": "function"
    },
    {
      "constant": false,
      "inputs": [
        {
          "internalType": "uint256",
          "name": "amount",
          "type": "uint256"
        }
      ],
      "name": "supplyDydx",
      "outputs": [],
      "payable": false,
      "stateMutability": "nonpayable",
      "type": "function"
    },
    {
      "constant": false,
      "inputs": [
        {
          "internalType": "uint256",
          "name": "amount",
          "type": "uint256"
        }
      ],
      "name": "supplyAave",
      "outputs": [],
      "payable": false,
      "stateMutability": "nonpayable",
      "type": "function"
    },
    {
      "constant": false,
      "inputs": [
        {
          "internalType": "uint256",
          "name": "amount",
          "type": "uint256"
        }
      ],
      "name": "supplyFulcrum",
      "outputs": [],
      "payable": false,
      "stateMutability": "nonpayable",
      "type": "function"
    },
    {
      "constant": false,
      "inputs": [
        {
          "internalType": "uint256",
          "name": "amount",
          "type": "uint256"
        }
      ],
      "name": "supplyCompound",
      "outputs": [],
      "payable": false,
      "stateMutability": "nonpayable",
      "type": "function"
    },
    {
      "constant": false,
      "inputs": [
        {
          "internalType": "uint256",
          "name": "amount",
          "type": "uint256"
        }
      ],
      "name": "withdrawAave",
      "outputs": [],
      "payable": false,
      "stateMutability": "nonpayable",
      "type": "function"
    },
    {
      "constant": false,
      "inputs": [
        {
          "internalType": "uint256",
          "name": "amount",
          "type": "uint256"
        }
      ],
      "name": "withdrawFulcrum",
      "outputs": [],
      "payable": false,
      "stateMutability": "nonpayable",
      "type": "function"
    },
    {
      "constant": false,
      "inputs": [
        {
          "internalType": "uint256",
          "name": "amount",
          "type": "uint256"
        }
      ],
      "name": "withdrawCompound",
      "outputs": [],
      "payable": false,
      "stateMutability": "nonpayable",
      "type": "function"
    },
    {
      "constant": false,
      "inputs": [
        {
          "internalType": "uint256",
          "name": "amount",
          "type": "uint256"
        }
      ],
      "name": "withdrawDydx",
      "outputs": [],
      "payable": false,
      "stateMutability": "nonpayable",
      "type": "function"
    }
  ],
  "bytecode": "0x60806040526000601160146101000a81548160ff021916908360048111156200002457fe5b02179055503480156200003657600080fd5b506040518060400160405280600981526020017f696561726e2044414900000000000000000000000000000000000000000000008152506040518060400160405280600481526020017f794441490000000000000000000000000000000000000000000000000000000081525060128260039080519060200190620000bd92919062000af0565b508160049080519060200190620000d692919062000af0565b5080600560006101000a81548160ff021916908360ff16021790555050505060016006819055506200010d6200049060201b60201c565b600760006101000a81548173ffffffffffffffffffffffffffffffffffffffff021916908373ffffffffffffffffffffffffffffffffffffffff160217905550600760009054906101000a900473ffffffffffffffffffffffffffffffffffffffff1673ffffffffffffffffffffffffffffffffffffffff16600073ffffffffffffffffffffffffffffffffffffffff167f8be0079c531659141344cd1fd0a4f28419497f9722a3daafe3b4186f6b6457e060405160405180910390a3736b175474e89094c44da98b954eedeac495271d0f600960006101000a81548173ffffffffffffffffffffffffffffffffffffffff021916908373ffffffffffffffffffffffffffffffffffffffff16021790555073dd6d648c991f7d47454354f4ef326b04025a48a8601160006101000a81548173ffffffffffffffffffffffffffffffffffffffff021916908373ffffffffffffffffffffffffffffffffffffffff160217905550731e0447b19bb6ecfdae1e4ae1694b0c3659614e4e600f60006101000a81548173ffffffffffffffffffffffffffffffffffffffff021916908373ffffffffffffffffffffffffffffffffffffffff1602179055507324a42fd28c976a61df5d00d0599c34c4f90748c8600c60006101000a81548173ffffffffffffffffffffffffffffffffffffffff021916908373ffffffffffffffffffffffffffffffffffffffff160217905550733dfd23a6c5e8bbcfc9581d2e864a68feb6a076d3600d60006101000a81548173ffffffffffffffffffffffffffffffffffffffff021916908373ffffffffffffffffffffffffffffffffffffffff16021790555073493c57c4763932315a328269e1adad09653b9081600b60006101000a81548173ffffffffffffffffffffffffffffffffffffffff021916908373ffffffffffffffffffffffffffffffffffffffff16021790555073fc1e690f61efd961294b3e1ce3313fbd8aa4f85d600e60006101000a81548173ffffffffffffffffffffffffffffffffffffffff021916908373ffffffffffffffffffffffffffffffffffffffff160217905550735d3a536e4d6dbd6114cc1ead35777bab948e3643600a60006101000a81548173ffffffffffffffffffffffffffffffffffffffff021916908373ffffffffffffffffffffffffffffffffffffffff16021790555060036010819055506200048a6200049860201b60201c565b62001005565b600033905090565b6200052e600a60009054906101000a900473ffffffffffffffffffffffffffffffffffffffff167fffffffffffffffffffffffffffffffffffffffffffffffffffffffffffffffff600960009054906101000a900473ffffffffffffffffffffffffffffffffffffffff1673ffffffffffffffffffffffffffffffffffffffff16620006df60201b62004265179092919060201c565b620005c4600f60009054906101000a900473ffffffffffffffffffffffffffffffffffffffff167fffffffffffffffffffffffffffffffffffffffffffffffffffffffffffffffff600960009054906101000a900473ffffffffffffffffffffffffffffffffffffffff1673ffffffffffffffffffffffffffffffffffffffff16620006df60201b62004265179092919060201c565b62000647620005d86200086a60201b60201c565b7fffffffffffffffffffffffffffffffffffffffffffffffffffffffffffffffff600960009054906101000a900473ffffffffffffffffffffffffffffffffffffffff1673ffffffffffffffffffffffffffffffffffffffff16620006df60201b62004265179092919060201c565b620006dd600b60009054906101000a900473ffffffffffffffffffffffffffffffffffffffff167fffffffffffffffffffffffffffffffffffffffffffffffffffffffffffffffff600960009054906101000a900473ffffffffffffffffffffffffffffffffffffffff1673ffffffffffffffffffffffffffffffffffffffff16620006df60201b62004265179092919060201c565b565b60008114806200077f575060008373ffffffffffffffffffffffffffffffffffffffff1663dd62ed3e30856040518363ffffffff1660e01b81526004016200072992919062000e2e565b60206040518083038186803b1580156200074257600080fd5b505afa15801562000757573d6000803e3d6000fd5b505050506040513d601f19601f820116820180604052506200077d919081019062000c3c565b145b620007c1576040517f08c379a0000000000000000000000000000000000000000000000000000000008152600401620007b89062000ecc565b60405180910390fd5b62000865838473ffffffffffffffffffffffffffffffffffffffff1663095ea7b3905060e01b8484604051602401620007fc92919062000e5b565b604051602081830303815290604052907bffffffffffffffffffffffffffffffffffffffffffffffffffffffff19166020820180517bffffffffffffffffffffffffffffffffffffffffffffffffffffffff83818316178352505050506200091560201b60201c565b505050565b6000600c60009054906101000a900473ffffffffffffffffffffffffffffffffffffffff1673ffffffffffffffffffffffffffffffffffffffff1663ed6ff7606040518163ffffffff1660e01b815260040160206040518083038186803b158015620008d557600080fd5b505afa158015620008ea573d6000803e3d6000fd5b505050506040513d601f19601f8201168201806040525062000910919081019062000be4565b905090565b620009418273ffffffffffffffffffffffffffffffffffffffff1662000aa460201b620049af1760201c565b62000983576040517f08c379a00000000000000000000000000000000000000000000000000000000081526004016200097a9062000eee565b60405180910390fd5b600060608373ffffffffffffffffffffffffffffffffffffffff1683604051620009ae919062000e15565b6000604051808303816000865af19150503d8060008114620009ed576040519150601f19603f3d011682016040523d82523d6000602084013e620009f2565b606091505b50915091508162000a3a576040517f08c379a000000000000000000000000000000000000000000000000000000000815260040162000a319062000e88565b60405180910390fd5b60008151111562000a9e578080602001905162000a5b919081019062000c10565b62000a9d576040517f08c379a000000000000000000000000000000000000000000000000000000000815260040162000a949062000eaa565b60405180910390fd5b5b50505050565b60008060007fc5d2460186f7233c927e7db2dcc703c0e500b653ca82273b7bfad8045d85a47060001b9050833f91506000801b821415801562000ae75750808214155b92505050919050565b828054600181600116156101000203166002900490600052602060002090601f016020900481019282601f1062000b3357805160ff191683800117855562000b64565b8280016001018555821562000b64579182015b8281111562000b6357825182559160200191906001019062000b46565b5b50905062000b73919062000b77565b5090565b62000b9c91905b8082111562000b9857600081600090555060010162000b7e565b5090565b90565b60008151905062000bb08162000fb7565b92915050565b60008151905062000bc78162000fd1565b92915050565b60008151905062000bde8162000feb565b92915050565b60006020828403121562000bf757600080fd5b600062000c078482850162000b9f565b91505092915050565b60006020828403121562000c2357600080fd5b600062000c338482850162000bb6565b91505092915050565b60006020828403121562000c4f57600080fd5b600062000c5f8482850162000bcd565b91505092915050565b62000c738162000f37565b82525050565b600062000c868262000f10565b62000c92818562000f1b565b935062000ca481856020860162000f81565b80840191505092915050565b600062000cbf60208362000f26565b91507f5361666545524332303a206c6f772d6c6576656c2063616c6c206661696c65646000830152602082019050919050565b600062000d01602a8362000f26565b91507f5361666545524332303a204552433230206f7065726174696f6e20646964206e60008301527f6f742073756363656564000000000000000000000000000000000000000000006020830152604082019050919050565b600062000d6960368362000f26565b91507f5361666545524332303a20617070726f76652066726f6d206e6f6e2d7a65726f60008301527f20746f206e6f6e2d7a65726f20616c6c6f77616e6365000000000000000000006020830152604082019050919050565b600062000dd1601f8362000f26565b91507f5361666545524332303a2063616c6c20746f206e6f6e2d636f6e7472616374006000830152602082019050919050565b62000e0f8162000f77565b82525050565b600062000e23828462000c79565b915081905092915050565b600060408201905062000e45600083018562000c68565b62000e54602083018462000c68565b9392505050565b600060408201905062000e72600083018562000c68565b62000e81602083018462000e04565b9392505050565b6000602082019050818103600083015262000ea38162000cb0565b9050919050565b6000602082019050818103600083015262000ec58162000cf2565b9050919050565b6000602082019050818103600083015262000ee78162000d5a565b9050919050565b6000602082019050818103600083015262000f098162000dc2565b9050919050565b600081519050919050565b600081905092915050565b600082825260208201905092915050565b600062000f448262000f57565b9050919050565b60008115159050919050565b600073ffffffffffffffffffffffffffffffffffffffff82169050919050565b6000819050919050565b60005b8381101562000fa157808201518184015260208101905062000f84565b8381111562000fb1576000848401525b50505050565b62000fc28162000f37565b811462000fce57600080fd5b50565b62000fdc8162000f4b565b811462000fe857600080fd5b50565b62000ff68162000f77565b81146200100257600080fd5b50565b61619080620010156000396000f3fe608060405234801561001057600080fd5b50600436106103db5760003560e01c8063819faf7b1161020a578063b098fc8011610125578063dd62ed3e116100b8578063f5ff191611610087578063f5ff191614610aee578063f69e204614610b0a578063f7c1ec7714610b28578063f82ce27d14610b46578063fc0c546a14610b64576103db565b8063dd62ed3e14610a68578063e849d65914610a98578063f2fde38b14610ab4578063f5a41dea14610ad0576103db565b8063bbf31644116100f4578063bbf31644146109f2578063cf8ca42614610a0e578063d54e324414610a2c578063d9d7858a14610a4a576103db565b8063b098fc801461097e578063b30d0bb21461099c578063b69ef8a8146109b8578063b6b55f25146109d6576103db565b80639ff011b91161019d578063a72879711161016c578063a7287971146108f8578063a9059cbb14610916578063a9de245b14610946578063ae9b051c14610962576103db565b80639ff011b914610870578063a03e4bc31461088c578063a160176d146108aa578063a457c2d7146108c8576103db565b80638f32d59b116101d95780638f32d59b1461080c5780638f9225ca1461082a57806395d89b411461084857806399b71d5c14610866576103db565b8063819faf7b146107a8578063853828b6146107c65780638da5cb5b146107d05780638e4ec6ef146107ee576103db565b806356cc9378116102fa57806367e4b7401161028d57806377c7b8fc1161025c57806377c7b8fc146107485780637d7c2a1c146107665780638124955c14610770578063812adb061461078c576103db565b806367e4b740146106d457806370a08231146106f05780637137ef9914610720578063715018a61461073e576103db565b806358782c21116102c957806358782c211461065e57806361c1ec551461067c578063620451291461069a57806365aab749146106b8576103db565b806356cc9378146105ec5780635762bbd91461060857806357b875431461062457806357ded9c914610640576103db565b806319c13d54116103725780633950935111610341578063395093511461056657806339c0a7e11461059657806341c57c8d146105b457806346357473146105d0576103db565b806319c13d54146104e057806323b872dd146104fc5780632e1a7d4d1461052c578063313ce56714610548576103db565b8063095ea7b3116103ae578063095ea7b3146104565780630eb2a2671461048657806316f0115b146104a457806318160ddd146104c2576103db565b806306636c1c146103e057806306a3fe59146103fc57806306fdde031461041a578063085d488314610438575b600080fd5b6103fa60048036036103f59190810190614e9d565b610b82565b005b610404610bd5565b6040516104119190615972565b60405180910390f35b610422610bfb565b60405161042f9190615aba565b60405180910390f35b610440610c9d565b60405161044d9190615a9f565b60405180910390f35b610470600480360361046b9190810190614d80565b610cb0565b60405161047d9190615a84565b60405180910390f35b61048e610cce565b60405161049b9190615dc5565b60405180910390f35b6104ac610d80565b6040516104b99190615dc5565b60405180910390f35b6104ca610d86565b6040516104d79190615dc5565b60405180910390f35b6104fa60048036036104f59190810190614ca3565b610d90565b005b61051660048036036105119190810190614d31565b610e1b565b6040516105239190615a84565b60405180910390f35b61054660048036036105419190810190614e9d565b610ef4565b005b61055061129e565b60405161055d9190615de0565b60405180910390f35b610580600480360361057b9190810190614d80565b6112b5565b60405161058d9190615a84565b60405180910390f35b61059e611368565b6040516105ab9190615dc5565b60405180910390f35b6105ce60048036036105c99190810190614e9d565b611458565b005b6105ea60048036036105e59190810190614ca3565b6114ab565b005b61060660048036036106019190810190614e9d565b611536565b005b610622600480360361061d9190810190614e9d565b611589565b005b61063e60048036036106399190810190614e9d565b6115dc565b005b61064861162f565b6040516106559190615972565b60405180910390f35b610666611655565b6040516106739190615972565b60405180910390f35b61068461167b565b6040516106919190615dc5565b60405180910390f35b6106a261172d565b6040516106af9190615dc5565b60405180910390f35b6106d260048036036106cd9190810190614e9d565b611801565b005b6106ee60048036036106e99190810190614e9d565b611854565b005b61070a60048036036107059190810190614ca3565b6118a7565b6040516107179190615dc5565b60405180910390f35b6107286118ef565b6040516107359190615dc5565b60405180910390f35b610746611962565b005b610750611a6a565b60405161075d9190615dc5565b60405180910390f35b61076e611aac565b005b61078a60048036036107859190810190614e9d565b611bf2565b005b6107a660048036036107a19190810190614ca3565b611c45565b005b6107b0611cd0565b6040516107bd9190615972565b60405180910390f35b6107ce611cf6565b005b6107d8611d47565b6040516107e59190615972565b60405180910390f35b6107f6611d71565b6040516108039190615972565b60405180910390f35b610814611d97565b6040516108219190615a84565b60405180910390f35b610832611df6565b60405161083f9190615dc5565b60405180910390f35b610850611eca565b60405161085d9190615aba565b60405180910390f35b61086e611f6c565b005b61088a60048036036108859190810190614e9d565b61218f565b005b6108946121e0565b6040516108a19190615972565b60405180910390f35b6108b2612206565b6040516108bf9190615a9f565b60405180910390f35b6108e260048036036108dd9190810190614d80565b612372565b6040516108ef9190615a84565b60405180910390f35b61090061243f565b60405161090d9190615dc5565b60405180910390f35b610930600480360361092b9190810190614d80565b61252b565b60405161093d9190615a84565b60405180910390f35b610960600480360361095b9190810190614ca3565b612549565b005b61097c60048036036109779190810190614e9d565b6125d4565b005b610986612627565b6040516109939190615dc5565b60405180910390f35b6109b660048036036109b19190810190614e9d565b6126fb565b005b6109c061274e565b6040516109cd9190615dc5565b60405180910390f35b6109f060048036036109eb9190810190614e9d565b612800565b005b610a0c6004803603610a079190810190614ca3565b612964565b005b610a166129ef565b604051610a239190615dc5565b60405180910390f35b610a34612aa1565b604051610a419190615dc5565b60405180910390f35b610a52612b75565b604051610a5f9190615dc5565b60405180910390f35b610a826004803603610a7d9190810190614cf5565b612b7b565b604051610a8f9190615dc5565b60405180910390f35b610ab26004803603610aad9190810190614e9d565b612c02565b005b610ace6004803603610ac99190810190614ca3565b612c55565b005b610ad8612ca8565b604051610ae59190615dc5565b60405180910390f35b610b086004803603610b039190810190614ca3565b612d73565b005b610b12612dfe565b604051610b1f9190615972565b60405180910390f35b610b30612e24565b604051610b3d9190615972565b60405180910390f35b610b4e612ecb565b604051610b5b9190615972565b60405180910390f35b610b6c612f72565b604051610b799190615972565b60405180910390f35b610b8a611d97565b610bc9576040517f08c379a0000000000000000000000000000000000000000000000000000000008152600401610bc090615bfc565b60405180910390fd5b610bd281612f98565b50565b600e60009054906101000a900473ffffffffffffffffffffffffffffffffffffffff1681565b606060038054600181600116156101000203166002900480601f016020809104026020016040519081016040528092919081815260200182805460018160011615610100020316600290048015610c935780601f10610c6857610100808354040283529160200191610c93565b820191906000526020600020905b815481529060010190602001808311610c7657829003601f168201915b5050505050905090565b601160149054906101000a900460ff1681565b6000610cc4610cbd6131d2565b84846131da565b6001905092915050565b6000600b60009054906101000a900473ffffffffffffffffffffffffffffffffffffffff1673ffffffffffffffffffffffffffffffffffffffff166370a08231306040518263ffffffff1660e01b8152600401610d2b9190615972565b60206040518083038186803b158015610d4357600080fd5b505afa158015610d57573d6000803e3d6000fd5b505050506040513d601f19601f82011682018060405250610d7b9190810190614ec6565b905090565b60085481565b6000600254905090565b610d98611d97565b610dd7576040517f08c379a0000000000000000000000000000000000000000000000000000000008152600401610dce90615bfc565b60405180910390fd5b80600d60006101000a81548173ffffffffffffffffffffffffffffffffffffffff021916908373ffffffffffffffffffffffffffffffffffffffff16021790555050565b6000610e288484846133a5565b610ee984610e346131d2565b610ee48560405180606001604052806028815260200161610160289139600160008b73ffffffffffffffffffffffffffffffffffffffff1673ffffffffffffffffffffffffffffffffffffffff1681526020019081526020016000206000610e9a6131d2565b73ffffffffffffffffffffffffffffffffffffffff1673ffffffffffffffffffffffffffffffffffffffff1681526020019081526020016000205461362f9092919063ffffffff16565b6131da565b600190509392505050565b60016006600082825401925050819055506000600654905060008211610f4f576040517f08c379a0000000000000000000000000000000000000000000000000000000008152600401610f4690615c3c565b60405180910390fd5b6000610f5a336118a7565b905080831115610f9f576040517f08c379a0000000000000000000000000000000000000000000000000000000008152600401610f9690615c1c565b60405180910390fd5b610fa76118ef565b6008819055506000610fd8600254610fca8660085461368a90919063ffffffff16565b6136fa90919063ffffffff16565b9050611062846040518060400160405280601d81526020017f72656465656d20616d6f756e7420657863656564732062616c616e63650000008152506000803373ffffffffffffffffffffffffffffffffffffffff1673ffffffffffffffffffffffffffffffffffffffff1681526020019081526020016000205461362f9092919063ffffffff16565b6000803373ffffffffffffffffffffffffffffffffffffffff1673ffffffffffffffffffffffffffffffffffffffff168152602001908152602001600020819055506110b98460025461374490919063ffffffff16565b600281905550600073ffffffffffffffffffffffffffffffffffffffff163373ffffffffffffffffffffffffffffffffffffffff167fddf252ad1be2c89b69c2b068fc378daa952ba7f163c4a11628f55a4df523b3ef8660405161111d9190615dc5565b60405180910390a36000600960009054906101000a900473ffffffffffffffffffffffffffffffffffffffff1673ffffffffffffffffffffffffffffffffffffffff166370a08231306040518263ffffffff1660e01b81526004016111829190615972565b60206040518083038186803b15801561119a57600080fd5b505afa1580156111ae573d6000803e3d6000fd5b505050506040513d601f19601f820116820180604052506111d29190810190614ec6565b9050818110156111f8576111f76111f2828461374490919063ffffffff16565b61378e565b5b6112453383600960009054906101000a900473ffffffffffffffffffffffffffffffffffffffff1673ffffffffffffffffffffffffffffffffffffffff166139049092919063ffffffff16565b61124d6118ef565b600881905550505050600654811461129a576040517f08c379a000000000000000000000000000000000000000000000000000000000815260040161129190615d1c565b60405180910390fd5b5050565b6000600560009054906101000a900460ff16905090565b600061135e6112c26131d2565b8461135985600160006112d36131d2565b73ffffffffffffffffffffffffffffffffffffffff1673ffffffffffffffffffffffffffffffffffffffff16815260200190815260200160002060008973ffffffffffffffffffffffffffffffffffffffff1673ffffffffffffffffffffffffffffffffffffffff168152602001908152602001600020546139a390919063ffffffff16565b6131da565b6001905092915050565b60006113726149fa565b600f60009054906101000a900473ffffffffffffffffffffffffffffffffffffffff1673ffffffffffffffffffffffffffffffffffffffff1663c190c2ec60405180604001604052803073ffffffffffffffffffffffffffffffffffffffff16815260200160008152506010546040518363ffffffff1660e01b81526004016113fc929190615d9c565b604080518083038186803b15801561141357600080fd5b505afa158015611427573d6000803e3d6000fd5b505050506040513d601f19601f8201168201806040525061144b9190810190614e74565b9050806020015191505090565b611460611d97565b61149f576040517f08c379a000000000000000000000000000000000000000000000000000000000815260040161149690615bfc565b60405180910390fd5b6114a8816139f8565b50565b6114b3611d97565b6114f2576040517f08c379a00000000000000000000000000000000000000000000000000000000081526004016114e990615bfc565b60405180910390fd5b80601160006101000a81548173ffffffffffffffffffffffffffffffffffffffff021916908373ffffffffffffffffffffffffffffffffffffffff16021790555050565b61153e611d97565b61157d576040517f08c379a000000000000000000000000000000000000000000000000000000000815260040161157490615bfc565b60405180910390fd5b61158681613c32565b50565b611591611d97565b6115d0576040517f08c379a00000000000000000000000000000000000000000000000000000000081526004016115c790615bfc565b60405180910390fd5b6115d981613cc2565b50565b6115e4611d97565b611623576040517f08c379a000000000000000000000000000000000000000000000000000000000815260040161161a90615bfc565b60405180910390fd5b61162c81613db6565b50565b601160009054906101000a900473ffffffffffffffffffffffffffffffffffffffff1681565b600b60009054906101000a900473ffffffffffffffffffffffffffffffffffffffff1681565b6000600a60009054906101000a900473ffffffffffffffffffffffffffffffffffffffff1673ffffffffffffffffffffffffffffffffffffffff166370a08231306040518263ffffffff1660e01b81526004016116d89190615972565b60206040518083038186803b1580156116f057600080fd5b505afa158015611704573d6000803e3d6000fd5b505050506040513d601f19601f820116820180604052506117289190810190614ec6565b905090565b6000600960009054906101000a900473ffffffffffffffffffffffffffffffffffffffff1673ffffffffffffffffffffffffffffffffffffffff166370a08231600a60009054906101000a900473ffffffffffffffffffffffffffffffffffffffff166040518263ffffffff1660e01b81526004016117ac9190615972565b60206040518083038186803b1580156117c457600080fd5b505afa1580156117d8573d6000803e3d6000fd5b505050506040513d601f19601f820116820180604052506117fc9190810190614ec6565b905090565b611809611d97565b611848576040517f08c379a000000000000000000000000000000000000000000000000000000000815260040161183f90615bfc565b60405180910390fd5b61185181613ea8565b50565b61185c611d97565b61189b576040517f08c379a000000000000000000000000000000000000000000000000000000000815260040161189290615bfc565b60405180910390fd5b6118a481613f44565b50565b60008060008373ffffffffffffffffffffffffffffffffffffffff1673ffffffffffffffffffffffffffffffffffffffff168152602001908152602001600020549050919050565b600061195d6118fc61274e565b61194f6119076129ef565b611941611912611368565b61193361191d612ca8565b61192561243f565b6139a390919063ffffffff16565b6139a390919063ffffffff16565b6139a390919063ffffffff16565b6139a390919063ffffffff16565b905090565b61196a611d97565b6119a9576040517f08c379a00000000000000000000000000000000000000000000000000000000081526004016119a090615bfc565b60405180910390fd5b600073ffffffffffffffffffffffffffffffffffffffff16600760009054906101000a900473ffffffffffffffffffffffffffffffffffffffff1673ffffffffffffffffffffffffffffffffffffffff167f8be0079c531659141344cd1fd0a4f28419497f9722a3daafe3b4186f6b6457e060405160405180910390a36000600760006101000a81548173ffffffffffffffffffffffffffffffffffffffff021916908373ffffffffffffffffffffffffffffffffffffffff160217905550565b600080611a756118ef565b9050611aa6600254611a98670de0b6b3a76400008461368a90919063ffffffff16565b6136fa90919063ffffffff16565b91505090565b6000611ab6612206565b9050601160149054906101000a900460ff166004811115611ad357fe5b816004811115611adf57fe5b14611aed57611aec613fea565b5b6000611af761274e565b1115611bcc5760016004811115611b0a57fe5b816004811115611b1657fe5b1415611b3157611b2c611b2761274e565b612f98565b611bcb565b600480811115611b3d57fe5b816004811115611b4957fe5b1415611b6457611b5f611b5a61274e565b61407f565b611bca565b60026004811115611b7157fe5b816004811115611b7d57fe5b1415611b9857611b93611b8e61274e565b614173565b611bc9565b60036004811115611ba557fe5b816004811115611bb157fe5b1415611bc857611bc7611bc261274e565b613ea8565b5b5b5b5b5b80601160146101000a81548160ff02191690836004811115611bea57fe5b021790555050565b611bfa611d97565b611c39576040517f08c379a0000000000000000000000000000000000000000000000000000000008152600401611c3090615bfc565b60405180910390fd5b611c428161407f565b50565b611c4d611d97565b611c8c576040517f08c379a0000000000000000000000000000000000000000000000000000000008152600401611c8390615bfc565b60405180910390fd5b80600c60006101000a81548173ffffffffffffffffffffffffffffffffffffffff021916908373ffffffffffffffffffffffffffffffffffffffff16021790555050565b600c60009054906101000a900473ffffffffffffffffffffffffffffffffffffffff1681565b611cfe611d97565b611d3d576040517f08c379a0000000000000000000000000000000000000000000000000000000008152600401611d3490615bfc565b60405180910390fd5b611d45613fea565b565b6000600760009054906101000a900473ffffffffffffffffffffffffffffffffffffffff16905090565b600f60009054906101000a900473ffffffffffffffffffffffffffffffffffffffff1681565b6000600760009054906101000a900473ffffffffffffffffffffffffffffffffffffffff1673ffffffffffffffffffffffffffffffffffffffff16611dda6131d2565b73ffffffffffffffffffffffffffffffffffffffff1614905090565b6000600960009054906101000a900473ffffffffffffffffffffffffffffffffffffffff1673ffffffffffffffffffffffffffffffffffffffff166370a08231600b60009054906101000a900473ffffffffffffffffffffffffffffffffffffffff166040518263ffffffff1660e01b8152600401611e759190615972565b60206040518083038186803b158015611e8d57600080fd5b505afa158015611ea1573d6000803e3d6000fd5b505050506040513d601f19601f82011682018060405250611ec59190810190614ec6565b905090565b606060048054600181600116156101000203166002900480601f016020809104026020016040519081016040528092919081815260200182805460018160011615610100020316600290048015611f625780601f10611f3757610100808354040283529160200191611f62565b820191906000526020600020905b815481529060010190602001808311611f4557829003601f168201915b5050505050905090565b611ffb600a60009054906101000a900473ffffffffffffffffffffffffffffffffffffffff167fffffffffffffffffffffffffffffffffffffffffffffffffffffffffffffffff600960009054906101000a900473ffffffffffffffffffffffffffffffffffffffff1673ffffffffffffffffffffffffffffffffffffffff166142659092919063ffffffff16565b61208a600f60009054906101000a900473ffffffffffffffffffffffffffffffffffffffff167fffffffffffffffffffffffffffffffffffffffffffffffffffffffffffffffff600960009054906101000a900473ffffffffffffffffffffffffffffffffffffffff1673ffffffffffffffffffffffffffffffffffffffff166142659092919063ffffffff16565b6120fe612095612ecb565b7fffffffffffffffffffffffffffffffffffffffffffffffffffffffffffffffff600960009054906101000a900473ffffffffffffffffffffffffffffffffffffffff1673ffffffffffffffffffffffffffffffffffffffff166142659092919063ffffffff16565b61218d600b60009054906101000a900473ffffffffffffffffffffffffffffffffffffffff167fffffffffffffffffffffffffffffffffffffffffffffffffffffffffffffffff600960009054906101000a900473ffffffffffffffffffffffffffffffffffffffff1673ffffffffffffffffffffffffffffffffffffffff166142659092919063ffffffff16565b565b612197611d97565b6121d6576040517f08c379a00000000000000000000000000000000000000000000000000000000081526004016121cd90615bfc565b60405180910390fd5b8060108190555050565b600d60009054906101000a900473ffffffffffffffffffffffffffffffffffffffff1681565b6000806000806000601160009054906101000a900473ffffffffffffffffffffffffffffffffffffffff1673ffffffffffffffffffffffffffffffffffffffff1663d88be3c0600960009054906101000a900473ffffffffffffffffffffffffffffffffffffffff166040518263ffffffff1660e01b815260040161228b9190615972565b60006040518083038186803b1580156122a357600080fd5b505afa1580156122b7573d6000803e3d6000fd5b505050506040513d6000823e3d601f19601f820116820180604052506122e09190810190614de5565b9450945094509450506000809050808511156122fa578490505b80841115612306578390505b80831115612312578290505b8082111561231e578190505b6000809050858214156123345760029050612366565b848214156123455760049050612365565b838214156123565760039050612364565b8282141561236357600190505b5b5b5b80965050505050505090565b600061243561237f6131d2565b846124308560405180606001604052806025815260200161612960259139600160006123a96131d2565b73ffffffffffffffffffffffffffffffffffffffff1673ffffffffffffffffffffffffffffffffffffffff16815260200190815260200160002060008a73ffffffffffffffffffffffffffffffffffffffff1673ffffffffffffffffffffffffffffffffffffffff1681526020019081526020016000205461362f9092919063ffffffff16565b6131da565b6001905092915050565b60008061244a61167b565b9050600081111561252457612521670de0b6b3a7640000612513600a60009054906101000a900473ffffffffffffffffffffffffffffffffffffffff1673ffffffffffffffffffffffffffffffffffffffff1663182df0f56040518163ffffffff1660e01b815260040160206040518083038186803b1580156124cc57600080fd5b505afa1580156124e0573d6000803e3d6000fd5b505050506040513d601f19601f820116820180604052506125049190810190614ec6565b8461368a90919063ffffffff16565b6136fa90919063ffffffff16565b90505b8091505090565b600061253f6125386131d2565b84846133a5565b6001905092915050565b612551611d97565b612590576040517f08c379a000000000000000000000000000000000000000000000000000000000815260040161258790615bfc565b60405180910390fd5b80600e60006101000a81548173ffffffffffffffffffffffffffffffffffffffff021916908373ffffffffffffffffffffffffffffffffffffffff16021790555050565b6125dc611d97565b61261b576040517f08c379a000000000000000000000000000000000000000000000000000000000815260040161261290615bfc565b60405180910390fd5b6126248161378e565b50565b6000600960009054906101000a900473ffffffffffffffffffffffffffffffffffffffff1673ffffffffffffffffffffffffffffffffffffffff166370a08231600d60009054906101000a900473ffffffffffffffffffffffffffffffffffffffff166040518263ffffffff1660e01b81526004016126a69190615972565b60206040518083038186803b1580156126be57600080fd5b505afa1580156126d2573d6000803e3d6000fd5b505050506040513d601f19601f820116820180604052506126f69190810190614ec6565b905090565b612703611d97565b612742576040517f08c379a000000000000000000000000000000000000000000000000000000000815260040161273990615bfc565b60405180910390fd5b61274b816143dc565b50565b6000600960009054906101000a900473ffffffffffffffffffffffffffffffffffffffff1673ffffffffffffffffffffffffffffffffffffffff166370a08231306040518263ffffffff1660e01b81526004016127ab9190615972565b60206040518083038186803b1580156127c357600080fd5b505afa1580156127d7573d6000803e3d6000fd5b505050506040513d601f19601f820116820180604052506127fb9190810190614ec6565b905090565b6001600660008282540192505081905550600060065490506000821161285b576040517f08c379a000000000000000000000000000000000000000000000000000000000815260040161285290615cbc565b60405180910390fd5b6128636118ef565b6008819055506128b8333084600960009054906101000a900473ffffffffffffffffffffffffffffffffffffffff1673ffffffffffffffffffffffffffffffffffffffff16614482909392919063ffffffff16565b6000809050600060085414156128d75782905082600881905550612903565b6129006008546128f26002548661368a90919063ffffffff16565b6136fa90919063ffffffff16565b90505b61290b6118ef565b60088190555061291b3382614524565b506006548114612960576040517f08c379a000000000000000000000000000000000000000000000000000000000815260040161295790615d1c565b60405180910390fd5b5050565b61296c611d97565b6129ab576040517f08c379a00000000000000000000000000000000000000000000000000000000081526004016129a290615bfc565b60405180910390fd5b80600b60006101000a81548173ffffffffffffffffffffffffffffffffffffffff021916908373ffffffffffffffffffffffffffffffffffffffff16021790555050565b6000600e60009054906101000a900473ffffffffffffffffffffffffffffffffffffffff1673ffffffffffffffffffffffffffffffffffffffff166370a08231306040518263ffffffff1660e01b8152600401612a4c9190615972565b60206040518083038186803b158015612a6457600080fd5b505afa158015612a78573d6000803e3d6000fd5b505050506040513d601f19601f82011682018060405250612a9c9190810190614ec6565b905090565b6000600960009054906101000a900473ffffffffffffffffffffffffffffffffffffffff1673ffffffffffffffffffffffffffffffffffffffff166370a08231600f60009054906101000a900473ffffffffffffffffffffffffffffffffffffffff166040518263ffffffff1660e01b8152600401612b209190615972565b60206040518083038186803b158015612b3857600080fd5b505afa158015612b4c573d6000803e3d6000fd5b505050506040513d601f19601f82011682018060405250612b709190810190614ec6565b905090565b60105481565b6000600160008473ffffffffffffffffffffffffffffffffffffffff1673ffffffffffffffffffffffffffffffffffffffff16815260200190815260200160002060008373ffffffffffffffffffffffffffffffffffffffff1673ffffffffffffffffffffffffffffffffffffffff16815260200190815260200160002054905092915050565b612c0a611d97565b612c49576040517f08c379a0000000000000000000000000000000000000000000000000000000008152600401612c4090615bfc565b60405180910390fd5b612c5281614173565b50565b612c5d611d97565b612c9c576040517f08c379a0000000000000000000000000000000000000000000000000000000008152600401612c9390615bfc565b60405180910390fd5b612ca5816146ac565b50565b600080612cb3610cce565b90506000811115612d6c57600b60009054906101000a900473ffffffffffffffffffffffffffffffffffffffff1673ffffffffffffffffffffffffffffffffffffffff166306b3efd6306040518263ffffffff1660e01b8152600401612d199190615972565b60206040518083038186803b158015612d3157600080fd5b505afa158015612d45573d6000803e3d6000fd5b505050506040513d601f19601f82011682018060405250612d699190810190614ec6565b90505b8091505090565b612d7b611d97565b612dba576040517f08c379a0000000000000000000000000000000000000000000000000000000008152600401612db190615bfc565b60405180910390fd5b80600a60006101000a81548173ffffffffffffffffffffffffffffffffffffffff021916908373ffffffffffffffffffffffffffffffffffffffff16021790555050565b600a60009054906101000a900473ffffffffffffffffffffffffffffffffffffffff1681565b6000600c60009054906101000a900473ffffffffffffffffffffffffffffffffffffffff1673ffffffffffffffffffffffffffffffffffffffff16630261bf8b6040518163ffffffff1660e01b815260040160206040518083038186803b158015612e8e57600080fd5b505afa158015612ea2573d6000803e3d6000fd5b505050506040513d601f19601f82011682018060405250612ec69190810190614ccc565b905090565b6000600c60009054906101000a900473ffffffffffffffffffffffffffffffffffffffff1673ffffffffffffffffffffffffffffffffffffffff1663ed6ff7606040518163ffffffff1660e01b815260040160206040518083038186803b158015612f3557600080fd5b505afa158015612f49573d6000803e3d6000fd5b505050506040513d601f19601f82011682018060405250612f6d9190810190614ccc565b905090565b600960009054906101000a900473ffffffffffffffffffffffffffffffffffffffff1681565b60606001604051908082528060200260200182016040528015612fd557816020015b612fc2614a16565b815260200190600190039081612fba5790505b50905060405180604001604052803073ffffffffffffffffffffffffffffffffffffffff16815260200160008152508160008151811061301157fe5b6020026020010181905250613024614a46565b604051806080016040528060011515815260200160008081111561304457fe5b815260200160008081111561305557fe5b8152602001848152509050613068614a84565b60008160000190600181111561307a57fe5b9081600181111561308757fe5b815250506000816020018181525050818160400181905250601054816060018181525050308160a0019073ffffffffffffffffffffffffffffffffffffffff16908173ffffffffffffffffffffffffffffffffffffffff16815250506060600160405190808252806020026020018201604052801561312057816020015b61310d614af0565b8152602001906001900390816131055790505b509050818160008151811061313157fe5b6020026020010181905250600f60009054906101000a900473ffffffffffffffffffffffffffffffffffffffff1673ffffffffffffffffffffffffffffffffffffffff1663a67a6a4585836040518363ffffffff1660e01b8152600401613199929190615a4d565b600060405180830381600087803b1580156131b357600080fd5b505af11580156131c7573d6000803e3d6000fd5b505050505050505050565b600033905090565b600073ffffffffffffffffffffffffffffffffffffffff168373ffffffffffffffffffffffffffffffffffffffff16141561324a576040517f08c379a000000000000000000000000000000000000000000000000000000000815260040161324190615c9c565b60405180910390fd5b600073ffffffffffffffffffffffffffffffffffffffff168273ffffffffffffffffffffffffffffffffffffffff1614156132ba576040517f08c379a00000000000000000000000000000000000000000000000000000000081526004016132b190615b3c565b60405180910390fd5b80600160008573ffffffffffffffffffffffffffffffffffffffff1673ffffffffffffffffffffffffffffffffffffffff16815260200190815260200160002060008473ffffffffffffffffffffffffffffffffffffffff1673ffffffffffffffffffffffffffffffffffffffff168152602001908152602001600020819055508173ffffffffffffffffffffffffffffffffffffffff168373ffffffffffffffffffffffffffffffffffffffff167f8c5be1e5ebec7d5bd14f71427d1e84f3dd0314c0f7b2291e5b200ac8c7c3b925836040516133989190615dc5565b60405180910390a3505050565b600073ffffffffffffffffffffffffffffffffffffffff168373ffffffffffffffffffffffffffffffffffffffff161415613415576040517f08c379a000000000000000000000000000000000000000000000000000000000815260040161340c90615c5c565b60405180910390fd5b600073ffffffffffffffffffffffffffffffffffffffff168273ffffffffffffffffffffffffffffffffffffffff161415613485576040517f08c379a000000000000000000000000000000000000000000000000000000000815260040161347c90615adc565b60405180910390fd5b6134f0816040518060600160405280602681526020016160db602691396000808773ffffffffffffffffffffffffffffffffffffffff1673ffffffffffffffffffffffffffffffffffffffff1681526020019081526020016000205461362f9092919063ffffffff16565b6000808573ffffffffffffffffffffffffffffffffffffffff1673ffffffffffffffffffffffffffffffffffffffff16815260200190815260200160002081905550613583816000808573ffffffffffffffffffffffffffffffffffffffff1673ffffffffffffffffffffffffffffffffffffffff168152602001908152602001600020546139a390919063ffffffff16565b6000808473ffffffffffffffffffffffffffffffffffffffff1673ffffffffffffffffffffffffffffffffffffffff168152602001908152602001600020819055508173ffffffffffffffffffffffffffffffffffffffff168373ffffffffffffffffffffffffffffffffffffffff167fddf252ad1be2c89b69c2b068fc378daa952ba7f163c4a11628f55a4df523b3ef836040516136229190615dc5565b60405180910390a3505050565b6000838311158290613677576040517f08c379a000000000000000000000000000000000000000000000000000000000815260040161366e9190615aba565b60405180910390fd5b5060008385039050809150509392505050565b60008083141561369d57600090506136f4565b60008284029050828482816136ae57fe5b04146136ef576040517f08c379a00000000000000000000000000000000000000000000000000000000081526004016136e690615bbc565b60405180910390fd5b809150505b92915050565b600061373c83836040518060400160405280601a81526020017f536166654d6174683a206469766973696f6e206279207a65726f0000000000008152506147dc565b905092915050565b600061378683836040518060400160405280601e81526020017f536166654d6174683a207375627472616374696f6e206f766572666c6f77000081525061362f565b905092915050565b6002600481111561379b57fe5b601160149054906101000a900460ff1660048111156137b657fe5b14156137c6576137c5816143dc565b5b600360048111156137d357fe5b601160149054906101000a900460ff1660048111156137ee57fe5b141561384857806137fd6129ef565b101561383e576040517f08c379a000000000000000000000000000000000000000000000000000000000815260040161383590615c7c565b60405180910390fd5b61384781613c32565b5b6001600481111561385557fe5b601160149054906101000a900460ff16600481111561387057fe5b14156138ca578061387f611368565b10156138c0576040517f08c379a00000000000000000000000000000000000000000000000000000000081526004016138b790615c7c565b60405180910390fd5b6138c9816139f8565b5b6004808111156138d657fe5b601160149054906101000a900460ff1660048111156138f157fe5b14156139015761390081613f44565b5b50565b61399e838473ffffffffffffffffffffffffffffffffffffffff1663a9059cbb905060e01b848460405160240161393c9291906159ed565b604051602081830303815290604052907bffffffffffffffffffffffffffffffffffffffffffffffffffffffff19166020820180517bffffffffffffffffffffffffffffffffffffffffffffffffffffffff838183161783525050505061483d565b505050565b6000808284019050838110156139ee576040517f08c379a00000000000000000000000000000000000000000000000000000000081526004016139e590615b7c565b60405180910390fd5b8091505092915050565b60606001604051908082528060200260200182016040528015613a3557816020015b613a22614a16565b815260200190600190039081613a1a5790505b50905060405180604001604052803073ffffffffffffffffffffffffffffffffffffffff168152602001600081525081600081518110613a7157fe5b6020026020010181905250613a84614a46565b6040518060800160405280600015158152602001600080811115613aa457fe5b8152602001600080811115613ab557fe5b8152602001848152509050613ac8614a84565b600181600001906001811115613ada57fe5b90816001811115613ae757fe5b815250506000816020018181525050818160400181905250601054816060018181525050308160a0019073ffffffffffffffffffffffffffffffffffffffff16908173ffffffffffffffffffffffffffffffffffffffff168152505060606001604051908082528060200260200182016040528015613b8057816020015b613b6d614af0565b815260200190600190039081613b655790505b5090508181600081518110613b9157fe5b6020026020010181905250600f60009054906101000a900473ffffffffffffffffffffffffffffffffffffffff1673ffffffffffffffffffffffffffffffffffffffff1663a67a6a4585836040518363ffffffff1660e01b8152600401613bf9929190615a4d565b600060405180830381600087803b158015613c1357600080fd5b505af1158015613c27573d6000803e3d6000fd5b505050505050505050565b600e60009054906101000a900473ffffffffffffffffffffffffffffffffffffffff1673ffffffffffffffffffffffffffffffffffffffff1663db006a75826040518263ffffffff1660e01b8152600401613c8d9190615dc5565b600060405180830381600087803b158015613ca757600080fd5b505af1158015613cbb573d6000803e3d6000fd5b5050505050565b6000600b60009054906101000a900473ffffffffffffffffffffffffffffffffffffffff1673ffffffffffffffffffffffffffffffffffffffff16639dc29fac30846040518363ffffffff1660e01b8152600401613d219291906159ed565b602060405180830381600087803b158015613d3b57600080fd5b505af1158015613d4f573d6000803e3d6000fd5b505050506040513d601f19601f82011682018060405250613d739190810190614ec6565b11613db3576040517f08c379a0000000000000000000000000000000000000000000000000000000008152600401613daa90615bdc565b60405180910390fd5b50565b6000600a60009054906101000a900473ffffffffffffffffffffffffffffffffffffffff1673ffffffffffffffffffffffffffffffffffffffff1663db006a75836040518263ffffffff1660e01b8152600401613e139190615dc5565b602060405180830381600087803b158015613e2d57600080fd5b505af1158015613e41573d6000803e3d6000fd5b505050506040513d601f19601f82011682018060405250613e659190810190614ec6565b14613ea5576040517f08c379a0000000000000000000000000000000000000000000000000000000008152600401613e9c90615afc565b60405180910390fd5b50565b613eb0612e24565b73ffffffffffffffffffffffffffffffffffffffff1663d2d0e066600960009054906101000a900473ffffffffffffffffffffffffffffffffffffffff168360006040518463ffffffff1660e01b8152600401613f0f93929190615a16565b600060405180830381600087803b158015613f2957600080fd5b505af1158015613f3d573d6000803e3d6000fd5b5050505050565b6000613f4e610cce565b90506000613f5a612ca8565b905082811015613f9f576040517f08c379a0000000000000000000000000000000000000000000000000000000008152600401613f9690615c7c565b60405180910390fd5b6000613fd96001613fcb84613fbd888861368a90919063ffffffff16565b6136fa90919063ffffffff16565b6139a390919063ffffffff16565b9050613fe481613cc2565b50505050565b6000613ff461167b565b905060008111156140105761400f61400a61172d565b613db6565b5b614018611368565b905060008111156140345761403361402e612aa1565b6139f8565b5b61403c610cce565b9050600081111561405857614057614052611df6565b613cc2565b5b6140606129ef565b9050600081111561407c5761407b614076612627565b613c32565b5b50565b6000600b60009054906101000a900473ffffffffffffffffffffffffffffffffffffffff1673ffffffffffffffffffffffffffffffffffffffff166340c10f1930846040518363ffffffff1660e01b81526004016140de9291906159ed565b602060405180830381600087803b1580156140f857600080fd5b505af115801561410c573d6000803e3d6000fd5b505050506040513d601f19601f820116820180604052506141309190810190614ec6565b11614170576040517f08c379a000000000000000000000000000000000000000000000000000000000815260040161416790615cdc565b60405180910390fd5b50565b6000600a60009054906101000a900473ffffffffffffffffffffffffffffffffffffffff1673ffffffffffffffffffffffffffffffffffffffff1663a0712d68836040518263ffffffff1660e01b81526004016141d09190615dc5565b602060405180830381600087803b1580156141ea57600080fd5b505af11580156141fe573d6000803e3d6000fd5b505050506040513d601f19601f820116820180604052506142229190810190614ec6565b14614262576040517f08c379a000000000000000000000000000000000000000000000000000000000815260040161425990615b5c565b60405180910390fd5b50565b60008114806142fe575060008373ffffffffffffffffffffffffffffffffffffffff1663dd62ed3e30856040518363ffffffff1660e01b81526004016142ac92919061598d565b60206040518083038186803b1580156142c457600080fd5b505afa1580156142d8573d6000803e3d6000fd5b505050506040513d601f19601f820116820180604052506142fc9190810190614ec6565b145b61433d576040517f08c379a000000000000000000000000000000000000000000000000000000000815260040161433490615d3c565b60405180910390fd5b6143d7838473ffffffffffffffffffffffffffffffffffffffff1663095ea7b3905060e01b84846040516024016143759291906159ed565b604051602081830303815290604052907bffffffffffffffffffffffffffffffffffffffffffffffffffffffff19166020820180517bffffffffffffffffffffffffffffffffffffffffffffffffffffffff838183161783525050505061483d565b505050565b60006143e661167b565b905060006143f261243f565b905082811015614437576040517f08c379a000000000000000000000000000000000000000000000000000000000815260040161442e90615c7c565b60405180910390fd5b6000614471600161446384614455888861368a90919063ffffffff16565b6136fa90919063ffffffff16565b6139a390919063ffffffff16565b905061447c81613db6565b50505050565b61451e848573ffffffffffffffffffffffffffffffffffffffff166323b872dd905060e01b8585856040516024016144bc939291906159b6565b604051602081830303815290604052907bffffffffffffffffffffffffffffffffffffffffffffffffffffffff19166020820180517bffffffffffffffffffffffffffffffffffffffffffffffffffffffff838183161783525050505061483d565b50505050565b600073ffffffffffffffffffffffffffffffffffffffff168273ffffffffffffffffffffffffffffffffffffffff161415614594576040517f08c379a000000000000000000000000000000000000000000000000000000000815260040161458b90615d7c565b60405180910390fd5b6145a9816002546139a390919063ffffffff16565b600281905550614600816000808573ffffffffffffffffffffffffffffffffffffffff1673ffffffffffffffffffffffffffffffffffffffff168152602001908152602001600020546139a390919063ffffffff16565b6000808473ffffffffffffffffffffffffffffffffffffffff1673ffffffffffffffffffffffffffffffffffffffff168152602001908152602001600020819055508173ffffffffffffffffffffffffffffffffffffffff16600073ffffffffffffffffffffffffffffffffffffffff167fddf252ad1be2c89b69c2b068fc378daa952ba7f163c4a11628f55a4df523b3ef836040516146a09190615dc5565b60405180910390a35050565b600073ffffffffffffffffffffffffffffffffffffffff168173ffffffffffffffffffffffffffffffffffffffff16141561471c576040517f08c379a000000000000000000000000000000000000000000000000000000000815260040161471390615b1c565b60405180910390fd5b8073ffffffffffffffffffffffffffffffffffffffff16600760009054906101000a900473ffffffffffffffffffffffffffffffffffffffff1673ffffffffffffffffffffffffffffffffffffffff167f8be0079c531659141344cd1fd0a4f28419497f9722a3daafe3b4186f6b6457e060405160405180910390a380600760006101000a81548173ffffffffffffffffffffffffffffffffffffffff021916908373ffffffffffffffffffffffffffffffffffffffff16021790555050565b60008083118290614823576040517f08c379a000000000000000000000000000000000000000000000000000000000815260040161481a9190615aba565b60405180910390fd5b50600083858161482f57fe5b049050809150509392505050565b61485c8273ffffffffffffffffffffffffffffffffffffffff166149af565b61489b576040517f08c379a000000000000000000000000000000000000000000000000000000000815260040161489290615d5c565b60405180910390fd5b600060608373ffffffffffffffffffffffffffffffffffffffff16836040516148c4919061595b565b6000604051808303816000865af19150503d8060008114614901576040519150601f19603f3d011682016040523d82523d6000602084013e614906565b606091505b50915091508161494b576040517f08c379a000000000000000000000000000000000000000000000000000000000815260040161494290615b9c565b60405180910390fd5b6000815111156149a957808060200190516149699190810190614dbc565b6149a8576040517f08c379a000000000000000000000000000000000000000000000000000000000815260040161499f90615cfc565b60405180910390fd5b5b50505050565b60008060007fc5d2460186f7233c927e7db2dcc703c0e500b653ca82273b7bfad8045d85a47060001b9050833f91506000801b82141580156149f15750808214155b92505050919050565b6040518060400160405280600015158152602001600081525090565b6040518060400160405280600073ffffffffffffffffffffffffffffffffffffffff168152602001600081525090565b6040518060800160405280600015158152602001600080811115614a6657fe5b8152602001600080811115614a7757fe5b8152602001600081525090565b60405180610100016040528060006001811115614a9d57fe5b815260200160008152602001614ab1614b5c565b81526020016000815260200160008152602001600073ffffffffffffffffffffffffffffffffffffffff16815260200160008152602001606081525090565b60405180610100016040528060006001811115614b0957fe5b815260200160008152602001614b1d614b5c565b81526020016000815260200160008152602001600073ffffffffffffffffffffffffffffffffffffffff16815260200160008152602001606081525090565b6040518060800160405280600015158152602001600080811115614b7c57fe5b8152602001600080811115614b8d57fe5b8152602001600081525090565b600081359050614ba981616095565b92915050565b600081519050614bbe81616095565b92915050565b600081519050614bd3816160ac565b92915050565b600082601f830112614bea57600080fd5b8151614bfd614bf882615e28565b615dfb565b91508082526020830160208301858383011115614c1957600080fd5b614c2483828461601d565b50505092915050565b600060408284031215614c3f57600080fd5b614c496040615dfb565b90506000614c5984828501614bc4565b6000830152506020614c6d84828501614c8e565b60208301525092915050565b600081359050614c88816160c3565b92915050565b600081519050614c9d816160c3565b92915050565b600060208284031215614cb557600080fd5b6000614cc384828501614b9a565b91505092915050565b600060208284031215614cde57600080fd5b6000614cec84828501614baf565b91505092915050565b60008060408385031215614d0857600080fd5b6000614d1685828601614b9a565b9250506020614d2785828601614b9a565b9150509250929050565b600080600060608486031215614d4657600080fd5b6000614d5486828701614b9a565b9350506020614d6586828701614b9a565b9250506040614d7686828701614c79565b9150509250925092565b60008060408385031215614d9357600080fd5b6000614da185828601614b9a565b9250506020614db285828601614c79565b9150509250929050565b600060208284031215614dce57600080fd5b6000614ddc84828501614bc4565b91505092915050565b600080600080600060a08688031215614dfd57600080fd5b600086015167ffffffffffffffff811115614e1757600080fd5b614e2388828901614bd9565b9550506020614e3488828901614c8e565b9450506040614e4588828901614c8e565b9350506060614e5688828901614c8e565b9250506080614e6788828901614c8e565b9150509295509295909350565b600060408284031215614e8657600080fd5b6000614e9484828501614c2d565b91505092915050565b600060208284031215614eaf57600080fd5b6000614ebd84828501614c79565b91505092915050565b600060208284031215614ed857600080fd5b6000614ee684828501614c8e565b91505092915050565b6000614efb83836157c8565b905092915050565b6000614f0f83836158d0565b60408301905092915050565b614f2481615f14565b82525050565b614f3381615f14565b82525050565b6000614f4482615e74565b614f4e8185615ec5565b935083602082028501614f6085615e54565b8060005b85811015614f9c5784840389528151614f7d8582614eef565b9450614f8883615eab565b925060208a01995050600181019050614f64565b50829750879550505050505092915050565b6000614fb982615e7f565b614fc38185615ed6565b9350614fce83615e64565b8060005b83811015614fff578151614fe68882614f03565b9750614ff183615eb8565b925050600181019050614fd2565b5085935050505092915050565b61501581615f26565b82525050565b61502481615f26565b82525050565b600061503582615e95565b61503f8185615ef8565b935061504f81856020860161601d565b80840191505092915050565b600061506682615e8a565b6150708185615ee7565b935061508081856020860161601d565b61508981616050565b840191505092915050565b61509d81615fc3565b82525050565b6150ac81615fd5565b82525050565b6150bb81615fe7565b82525050565b6150ca81615ff9565b82525050565b6150d98161600b565b82525050565b60006150ea82615ea0565b6150f48185615f03565b935061510481856020860161601d565b61510d81616050565b840191505092915050565b6000615125602383615f03565b91507f45524332303a207472616e7366657220746f20746865207a65726f206164647260008301527f65737300000000000000000000000000000000000000000000000000000000006020830152604082019050919050565b600061518b601983615f03565b91507f434f4d504f554e443a207769746864726177206661696c6564000000000000006000830152602082019050919050565b60006151cb602683615f03565b91507f4f776e61626c653a206e6577206f776e657220697320746865207a65726f206160008301527f64647265737300000000000000000000000000000000000000000000000000006020830152604082019050919050565b6000615231602283615f03565b91507f45524332303a20617070726f766520746f20746865207a65726f20616464726560008301527f73730000000000000000000000000000000000000000000000000000000000006020830152604082019050919050565b6000615297601783615f03565b91507f434f4d504f554e443a20737570706c79206661696c65640000000000000000006000830152602082019050919050565b60006152d7601b83615f03565b91507f536166654d6174683a206164646974696f6e206f766572666c6f7700000000006000830152602082019050919050565b6000615317602083615f03565b91507f5361666545524332303a206c6f772d6c6576656c2063616c6c206661696c65646000830152602082019050919050565b6000615357602183615f03565b91507f536166654d6174683a206d756c7469706c69636174696f6e206f766572666c6f60008301527f77000000000000000000000000000000000000000000000000000000000000006020830152604082019050919050565b60006153bd601883615f03565b91507f46554c4352554d3a207769746864726177206661696c656400000000000000006000830152602082019050919050565b60006153fd602083615f03565b91507f4f776e61626c653a2063616c6c6572206973206e6f7420746865206f776e65726000830152602082019050919050565b600061543d601483615f03565b91507f696e73756666696369656e742062616c616e63650000000000000000000000006000830152602082019050919050565b600061547d601f83615f03565b91507f7769746864726177206d7573742062652067726561746572207468616e2030006000830152602082019050919050565b60006154bd602583615f03565b91507f45524332303a207472616e736665722066726f6d20746865207a65726f20616460008301527f64726573730000000000000000000000000000000000000000000000000000006020830152604082019050919050565b6000615523601283615f03565b91507f696e73756666696369656e742066756e647300000000000000000000000000006000830152602082019050919050565b6000615563602483615f03565b91507f45524332303a20617070726f76652066726f6d20746865207a65726f2061646460008301527f72657373000000000000000000000000000000000000000000000000000000006020830152604082019050919050565b60006155c9601e83615f03565b91507f6465706f736974206d7573742062652067726561746572207468616e203000006000830152602082019050919050565b6000615609601683615f03565b91507f46554c4352554d3a20737570706c79206661696c6564000000000000000000006000830152602082019050919050565b6000615649602a83615f03565b91507f5361666545524332303a204552433230206f7065726174696f6e20646964206e60008301527f6f742073756363656564000000000000000000000000000000000000000000006020830152604082019050919050565b60006156af601f83615f03565b91507f5265656e7472616e637947756172643a207265656e7472616e742063616c6c006000830152602082019050919050565b60006156ef603683615f03565b91507f5361666545524332303a20617070726f76652066726f6d206e6f6e2d7a65726f60008301527f20746f206e6f6e2d7a65726f20616c6c6f77616e6365000000000000000000006020830152604082019050919050565b6000615755601f83615f03565b91507f5361666545524332303a2063616c6c20746f206e6f6e2d636f6e7472616374006000830152602082019050919050565b6000615795601f83615f03565b91507f45524332303a206d696e7420746f20746865207a65726f2061646472657373006000830152602082019050919050565b6000610160830160008301516157e16000860182615094565b5060208301516157f4602086018261592e565b506040830151615807604086018261587b565b50606083015161581a60c086018261592e565b50608083015161582d60e086018261592e565b5060a0830151615841610100860182614f1b565b5060c083015161585561012086018261592e565b5060e083015184820361014086015261586e828261505b565b9150508091505092915050565b608082016000820151615891600085018261500c565b5060208201516158a460208501826150a3565b5060408201516158b760408501826150b2565b5060608201516158ca606085018261592e565b50505050565b6040820160008201516158e66000850182614f1b565b5060208201516158f9602085018261592e565b50505050565b6040820160008201516159156000850182614f1b565b506020820151615928602085018261592e565b50505050565b61593781615fac565b82525050565b61594681615fac565b82525050565b61595581615fb6565b82525050565b6000615967828461502a565b915081905092915050565b60006020820190506159876000830184614f2a565b92915050565b60006040820190506159a26000830185614f2a565b6159af6020830184614f2a565b9392505050565b60006060820190506159cb6000830186614f2a565b6159d86020830185614f2a565b6159e5604083018461593d565b949350505050565b6000604082019050615a026000830185614f2a565b615a0f602083018461593d565b9392505050565b6000606082019050615a2b6000830186614f2a565b615a38602083018561593d565b615a4560408301846150d0565b949350505050565b60006040820190508181036000830152615a678185614fae565b90508181036020830152615a7b8184614f39565b90509392505050565b6000602082019050615a99600083018461501b565b92915050565b6000602082019050615ab460008301846150c1565b92915050565b60006020820190508181036000830152615ad481846150df565b905092915050565b60006020820190508181036000830152615af581615118565b9050919050565b60006020820190508181036000830152615b158161517e565b9050919050565b60006020820190508181036000830152615b35816151be565b9050919050565b60006020820190508181036000830152615b5581615224565b9050919050565b60006020820190508181036000830152615b758161528a565b9050919050565b60006020820190508181036000830152615b95816152ca565b9050919050565b60006020820190508181036000830152615bb58161530a565b9050919050565b60006020820190508181036000830152615bd58161534a565b9050919050565b60006020820190508181036000830152615bf5816153b0565b9050919050565b60006020820190508181036000830152615c15816153f0565b9050919050565b60006020820190508181036000830152615c3581615430565b9050919050565b60006020820190508181036000830152615c5581615470565b9050919050565b60006020820190508181036000830152615c75816154b0565b9050919050565b60006020820190508181036000830152615c9581615516565b9050919050565b60006020820190508181036000830152615cb581615556565b9050919050565b60006020820190508181036000830152615cd5816155bc565b9050919050565b60006020820190508181036000830152615cf5816155fc565b9050919050565b60006020820190508181036000830152615d158161563c565b9050919050565b60006020820190508181036000830152615d35816156a2565b9050919050565b60006020820190508181036000830152615d55816156e2565b9050919050565b60006020820190508181036000830152615d7581615748565b9050919050565b60006020820190508181036000830152615d9581615788565b9050919050565b6000606082019050615db160008301856158ff565b615dbe604083018461593d565b9392505050565b6000602082019050615dda600083018461593d565b92915050565b6000602082019050615df5600083018461594c565b92915050565b6000604051905081810181811067ffffffffffffffff82111715615e1e57600080fd5b8060405250919050565b600067ffffffffffffffff821115615e3f57600080fd5b601f19601f8301169050602081019050919050565b6000819050602082019050919050565b6000819050602082019050919050565b600081519050919050565b600081519050919050565b600081519050919050565b600081519050919050565b600081519050919050565b6000602082019050919050565b6000602082019050919050565b600082825260208201905092915050565b600082825260208201905092915050565b600082825260208201905092915050565b600081905092915050565b600082825260208201905092915050565b6000615f1f82615f8c565b9050919050565b60008115159050919050565b6000819050615f4082616061565b919050565b6000819050615f538261606e565b919050565b6000819050615f668261607b565b919050565b6000819050615f7982616088565b919050565b600061ffff82169050919050565b600073ffffffffffffffffffffffffffffffffffffffff82169050919050565b6000819050919050565b600060ff82169050919050565b6000615fce82615f32565b9050919050565b6000615fe082615f45565b9050919050565b6000615ff282615f58565b9050919050565b600061600482615f6b565b9050919050565b600061601682615f7e565b9050919050565b60005b8381101561603b578082015181840152602081019050616020565b8381111561604a576000848401525b50505050565b6000601f19601f8301169050919050565b6002811061606b57fe5b50565b6001811061607857fe5b50565b6001811061608557fe5b50565b6005811061609257fe5b50565b61609e81615f14565b81146160a957600080fd5b50565b6160b581615f26565b81146160c057600080fd5b50565b6160cc81615fac565b81146160d757600080fd5b5056fe45524332303a207472616e7366657220616d6f756e7420657863656564732062616c616e636545524332303a207472616e7366657220616d6f756e74206578636565647320616c6c6f77616e636545524332303a2064656372656173656420616c6c6f77616e63652062656c6f77207a65726fa365627a7a72315820220b0f55302ce9496b90854bb379a286394e37a5da3331fdd8bf4d67ff7dd4456c6578706572696d656e74616cf564736f6c634300050c0040",
  "source": "pragma solidity ^0.5.0;\npragma experimental ABIEncoderV2;\n\ninterface IERC20 {\n    function totalSupply() external view returns (uint256);\n    function balanceOf(address account) external view returns (uint256);\n    function transfer(address recipient, uint256 amount) external returns (bool);\n    function allowance(address owner, address spender) external view returns (uint256);\n    function approve(address spender, uint256 amount) external returns (bool);\n    function transferFrom(address sender, address recipient, uint256 amount) external returns (bool);\n    event Transfer(address indexed from, address indexed to, uint256 value);\n    event Approval(address indexed owner, address indexed spender, uint256 value);\n}\n\ncontract Context {\n    constructor () internal { }\n    // solhint-disable-previous-line no-empty-blocks\n\n    function _msgSender() internal view returns (address payable) {\n        return msg.sender;\n    }\n\n    function _msgData() internal view returns (bytes memory) {\n        this; // silence state mutability warning without generating bytecode - see https://github.com/ethereum/solidity/issues/2691\n        return msg.data;\n    }\n}\n\ncontract Ownable is Context {\n    address private _owner;\n\n    event OwnershipTransferred(address indexed previousOwner, address indexed newOwner);\n    constructor () internal {\n        _owner = _msgSender();\n        emit OwnershipTransferred(address(0), _owner);\n    }\n    function owner() public view returns (address) {\n        return _owner;\n    }\n    modifier onlyOwner() {\n        require(isOwner(), \"Ownable: caller is not the owner\");\n        _;\n    }\n    function isOwner() public view returns (bool) {\n        return _msgSender() == _owner;\n    }\n    function renounceOwnership() public onlyOwner {\n        emit OwnershipTransferred(_owner, address(0));\n        _owner = address(0);\n    }\n    function transferOwnership(address newOwner) public onlyOwner {\n        _transferOwnership(newOwner);\n    }\n    function _transferOwnership(address newOwner) internal {\n        require(newOwner != address(0), \"Ownable: new owner is the zero address\");\n        emit OwnershipTransferred(_owner, newOwner);\n        _owner = newOwner;\n    }\n}\n\ncontract ERC20 is Context, IERC20 {\n    using SafeMath for uint256;\n\n    mapping (address => uint256) _balances;\n\n    mapping (address => mapping (address => uint256)) private _allowances;\n\n    uint256 _totalSupply;\n    function totalSupply() public view returns (uint256) {\n        return _totalSupply;\n    }\n    function balanceOf(address account) public view returns (uint256) {\n        return _balances[account];\n    }\n    function transfer(address recipient, uint256 amount) public returns (bool) {\n        _transfer(_msgSender(), recipient, amount);\n        return true;\n    }\n    function allowance(address owner, address spender) public view returns (uint256) {\n        return _allowances[owner][spender];\n    }\n    function approve(address spender, uint256 amount) public returns (bool) {\n        _approve(_msgSender(), spender, amount);\n        return true;\n    }\n    function transferFrom(address sender, address recipient, uint256 amount) public returns (bool) {\n        _transfer(sender, recipient, amount);\n        _approve(sender, _msgSender(), _allowances[sender][_msgSender()].sub(amount, \"ERC20: transfer amount exceeds allowance\"));\n        return true;\n    }\n    function increaseAllowance(address spender, uint256 addedValue) public returns (bool) {\n        _approve(_msgSender(), spender, _allowances[_msgSender()][spender].add(addedValue));\n        return true;\n    }\n    function decreaseAllowance(address spender, uint256 subtractedValue) public returns (bool) {\n        _approve(_msgSender(), spender, _allowances[_msgSender()][spender].sub(subtractedValue, \"ERC20: decreased allowance below zero\"));\n        return true;\n    }\n    function _transfer(address sender, address recipient, uint256 amount) internal {\n        require(sender != address(0), \"ERC20: transfer from the zero address\");\n        require(recipient != address(0), \"ERC20: transfer to the zero address\");\n\n        _balances[sender] = _balances[sender].sub(amount, \"ERC20: transfer amount exceeds balance\");\n        _balances[recipient] = _balances[recipient].add(amount);\n        emit Transfer(sender, recipient, amount);\n    }\n    function _mint(address account, uint256 amount) internal {\n        require(account != address(0), \"ERC20: mint to the zero address\");\n\n        _totalSupply = _totalSupply.add(amount);\n        _balances[account] = _balances[account].add(amount);\n        emit Transfer(address(0), account, amount);\n    }\n    function _burn(address account, uint256 amount) internal {\n        require(account != address(0), \"ERC20: burn from the zero address\");\n\n        _balances[account] = _balances[account].sub(amount, \"ERC20: burn amount exceeds balance\");\n        _totalSupply = _totalSupply.sub(amount);\n        emit Transfer(account, address(0), amount);\n    }\n    function _approve(address owner, address spender, uint256 amount) internal {\n        require(owner != address(0), \"ERC20: approve from the zero address\");\n        require(spender != address(0), \"ERC20: approve to the zero address\");\n\n        _allowances[owner][spender] = amount;\n        emit Approval(owner, spender, amount);\n    }\n    function _burnFrom(address account, uint256 amount) internal {\n        _burn(account, amount);\n        _approve(account, _msgSender(), _allowances[account][_msgSender()].sub(amount, \"ERC20: burn amount exceeds allowance\"));\n    }\n}\n\ncontract ERC20Detailed is IERC20 {\n    string private _name;\n    string private _symbol;\n    uint8 private _decimals;\n\n    constructor (string memory name, string memory symbol, uint8 decimals) public {\n        _name = name;\n        _symbol = symbol;\n        _decimals = decimals;\n    }\n    function name() public view returns (string memory) {\n        return _name;\n    }\n    function symbol() public view returns (string memory) {\n        return _symbol;\n    }\n    function decimals() public view returns (uint8) {\n        return _decimals;\n    }\n}\n\ncontract ReentrancyGuard {\n    uint256 private _guardCounter;\n\n    constructor () internal {\n        _guardCounter = 1;\n    }\n\n    modifier nonReentrant() {\n        _guardCounter += 1;\n        uint256 localCounter = _guardCounter;\n        _;\n        require(localCounter == _guardCounter, \"ReentrancyGuard: reentrant call\");\n    }\n}\n\nlibrary SafeMath {\n    function add(uint256 a, uint256 b) internal pure returns (uint256) {\n        uint256 c = a + b;\n        require(c >= a, \"SafeMath: addition overflow\");\n\n        return c;\n    }\n    function sub(uint256 a, uint256 b) internal pure returns (uint256) {\n        return sub(a, b, \"SafeMath: subtraction overflow\");\n    }\n    function sub(uint256 a, uint256 b, string memory errorMessage) internal pure returns (uint256) {\n        require(b <= a, errorMessage);\n        uint256 c = a - b;\n\n        return c;\n    }\n    function mul(uint256 a, uint256 b) internal pure returns (uint256) {\n        if (a == 0) {\n            return 0;\n        }\n\n        uint256 c = a * b;\n        require(c / a == b, \"SafeMath: multiplication overflow\");\n\n        return c;\n    }\n    function div(uint256 a, uint256 b) internal pure returns (uint256) {\n        return div(a, b, \"SafeMath: division by zero\");\n    }\n    function div(uint256 a, uint256 b, string memory errorMessage) internal pure returns (uint256) {\n        // Solidity only automatically asserts when dividing by 0\n        require(b > 0, errorMessage);\n        uint256 c = a / b;\n\n        return c;\n    }\n    function mod(uint256 a, uint256 b) internal pure returns (uint256) {\n        return mod(a, b, \"SafeMath: modulo by zero\");\n    }\n    function mod(uint256 a, uint256 b, string memory errorMessage) internal pure returns (uint256) {\n        require(b != 0, errorMessage);\n        return a % b;\n    }\n}\n\nlibrary Address {\n    function isContract(address account) internal view returns (bool) {\n        bytes32 codehash;\n        bytes32 accountHash = 0xc5d2460186f7233c927e7db2dcc703c0e500b653ca82273b7bfad8045d85a470;\n        // solhint-disable-next-line no-inline-assembly\n        assembly { codehash := extcodehash(account) }\n        return (codehash != 0x0 && codehash != accountHash);\n    }\n    function toPayable(address account) internal pure returns (address payable) {\n        return address(uint160(account));\n    }\n    function sendValue(address payable recipient, uint256 amount) internal {\n        require(address(this).balance >= amount, \"Address: insufficient balance\");\n\n        // solhint-disable-next-line avoid-call-value\n        (bool success, ) = recipient.call.value(amount)(\"\");\n        require(success, \"Address: unable to send value, recipient may have reverted\");\n    }\n}\n\nlibrary SafeERC20 {\n    using SafeMath for uint256;\n    using Address for address;\n\n    function safeTransfer(IERC20 token, address to, uint256 value) internal {\n        callOptionalReturn(token, abi.encodeWithSelector(token.transfer.selector, to, value));\n    }\n\n    function safeTransferFrom(IERC20 token, address from, address to, uint256 value) internal {\n        callOptionalReturn(token, abi.encodeWithSelector(token.transferFrom.selector, from, to, value));\n    }\n\n    function safeApprove(IERC20 token, address spender, uint256 value) internal {\n        require((value == 0) || (token.allowance(address(this), spender) == 0),\n            \"SafeERC20: approve from non-zero to non-zero allowance\"\n        );\n        callOptionalReturn(token, abi.encodeWithSelector(token.approve.selector, spender, value));\n    }\n\n    function safeIncreaseAllowance(IERC20 token, address spender, uint256 value) internal {\n        uint256 newAllowance = token.allowance(address(this), spender).add(value);\n        callOptionalReturn(token, abi.encodeWithSelector(token.approve.selector, spender, newAllowance));\n    }\n\n    function safeDecreaseAllowance(IERC20 token, address spender, uint256 value) internal {\n        uint256 newAllowance = token.allowance(address(this), spender).sub(value, \"SafeERC20: decreased allowance below zero\");\n        callOptionalReturn(token, abi.encodeWithSelector(token.approve.selector, spender, newAllowance));\n    }\n    function callOptionalReturn(IERC20 token, bytes memory data) private {\n        require(address(token).isContract(), \"SafeERC20: call to non-contract\");\n\n        // solhint-disable-next-line avoid-low-level-calls\n        (bool success, bytes memory returndata) = address(token).call(data);\n        require(success, \"SafeERC20: low-level call failed\");\n\n        if (returndata.length > 0) { // Return data is optional\n            // solhint-disable-next-line max-line-length\n            require(abi.decode(returndata, (bool)), \"SafeERC20: ERC20 operation did not succeed\");\n        }\n    }\n}\n\ninterface Compound {\n    function mint ( uint256 mintAmount ) external returns ( uint256 );\n    function redeem(uint256 redeemTokens) external returns (uint256);\n    function exchangeRateStored() external view returns (uint);\n}\n\ninterface Fulcrum {\n    function mint(address receiver, uint256 amount) external payable returns (uint256 mintAmount);\n    function burn(address receiver, uint256 burnAmount) external returns (uint256 loanAmountPaid);\n    function assetBalanceOf(address _owner) external view returns (uint256 balance);\n}\n\ninterface ILendingPoolAddressesProvider {\n    function getLendingPool() external view returns (address);\n}\n\ninterface Aave {\n    function deposit(address _reserve, uint256 _amount, uint16 _referralCode) external;\n}\n\ninterface AToken {\n    function redeem(uint256 amount) external;\n}\n\ninterface IIEarnManager {\n    function recommend(address _token) external view returns (\n      string memory choice,\n      uint256 capr,\n      uint256 iapr,\n      uint256 aapr,\n      uint256 dapr\n    );\n}\n\ncontract Structs {\n    struct Val {\n        uint256 value;\n    }\n\n    enum ActionType {\n        Deposit,   // supply tokens\n        Withdraw  // borrow tokens\n    }\n\n    enum AssetDenomination {\n        Wei // the amount is denominated in wei\n    }\n\n    enum AssetReference {\n        Delta // the amount is given as a delta from the current value\n    }\n\n    struct AssetAmount {\n        bool sign; // true if positive\n        AssetDenomination denomination;\n        AssetReference ref;\n        uint256 value;\n    }\n\n    struct ActionArgs {\n        ActionType actionType;\n        uint256 accountId;\n        AssetAmount amount;\n        uint256 primaryMarketId;\n        uint256 secondaryMarketId;\n        address otherAddress;\n        uint256 otherAccountId;\n        bytes data;\n    }\n\n    struct Info {\n        address owner;  // The address that owns the account\n        uint256 number; // A nonce that allows a single address to control many accounts\n    }\n\n    struct Wei {\n        bool sign; // true if positive\n        uint256 value;\n    }\n}\n\ncontract DyDx is Structs {\n    function getAccountWei(Info memory account, uint256 marketId) public view returns (Wei memory);\n    function operate(Info[] memory, ActionArgs[] memory) public;\n}\n\ninterface LendingPoolAddressesProvider {\n    function getLendingPool() external view returns (address);\n    function getLendingPoolCore() external view returns (address);\n}\n\ncontract yDAI is ERC20, ERC20Detailed, ReentrancyGuard, Structs, Ownable {\n  using SafeERC20 for IERC20;\n  using Address for address;\n  using SafeMath for uint256;\n\n  uint256 public pool;\n  address public token;\n  address public compound;\n  address public fulcrum;\n  address public aave;\n  address public aavePool;\n  address public aaveToken;\n  address public dydx;\n  uint256 public dToken;\n  address public apr;\n\n  enum Lender {\n      NONE,\n      DYDX,\n      COMPOUND,\n      AAVE,\n      FULCRUM\n  }\n\n  Lender public provider = Lender.NONE;\n\n  constructor () public ERC20Detailed(\"iearn DAI\", \"yDAI\", 18) {\n    token = address(0x6B175474E89094C44Da98b954EedeAC495271d0F);\n    apr = address(0xdD6d648C991f7d47454354f4Ef326b04025a48A8);\n    dydx = address(0x1E0447b19BB6EcFdAe1e4AE1694b0C3659614e4e);\n    aave = address(0x24a42fD28C976A61Df5D00D0599C34c4f90748c8);\n    aavePool = address(0x3dfd23A6c5E8BbcFc9581d2E864a68feb6a076d3);\n    fulcrum = address(0x493C57C4763932315A328269E1ADaD09653B9081);\n    aaveToken = address(0xfC1E690f61EFd961294b3e1Ce3313fBD8aa4f85d);\n    compound = address(0x5d3a536E4D6DbD6114cc1Ead35777bAB948E3643);\n    dToken = 3;\n    approveToken();\n  }\n\n  function set_new_APR(address _new_APR) public onlyOwner {\n      apr = _new_APR;\n  }\n  function set_new_FULCRUM(address _new_FULCRUM) public onlyOwner {\n      fulcrum = _new_FULCRUM;\n  }\n  function set_new_COMPOUND(address _new_COMPOUND) public onlyOwner {\n      compound = _new_COMPOUND;\n  }\n  function set_new_DTOKEN(uint256 _new_DTOKEN) public onlyOwner {\n      dToken = _new_DTOKEN;\n  }\n  function set_new_AAVE(address _new_AAVE) public onlyOwner {\n      aave = _new_AAVE;\n  }\n  function set_new_APOOL(address _new_APOOL) public onlyOwner {\n      aavePool = _new_APOOL;\n  }\n  function set_new_ATOKEN(address _new_ATOKEN) public onlyOwner {\n      aaveToken = _new_ATOKEN;\n  }\n\n  // Quick swap low gas method for pool swaps\n  function deposit(uint256 _amount)\n      external\n      nonReentrant\n  {\n      require(_amount > 0, \"deposit must be greater than 0\");\n      pool = calcPoolValueInToken();\n\n      IERC20(token).safeTransferFrom(msg.sender, address(this), _amount);\n\n      // Calculate pool shares\n      uint256 shares = 0;\n      if (pool == 0) {\n        shares = _amount;\n        pool = _amount;\n      } else {\n        shares = (_amount.mul(_totalSupply)).div(pool);\n      }\n      pool = calcPoolValueInToken();\n      _mint(msg.sender, shares);\n  }\n\n  // No rebalance implementation for lower fees and faster swaps\n  function withdraw(uint256 _shares)\n      external\n      nonReentrant\n  {\n      require(_shares > 0, \"withdraw must be greater than 0\");\n\n      uint256 ibalance = balanceOf(msg.sender);\n      require(_shares <= ibalance, \"insufficient balance\");\n\n      // Could have over value from cTokens\n      pool = calcPoolValueInToken();\n      // Calc to redeem before updating balances\n      uint256 r = (pool.mul(_shares)).div(_totalSupply);\n\n\n      _balances[msg.sender] = _balances[msg.sender].sub(_shares, \"redeem amount exceeds balance\");\n      _totalSupply = _totalSupply.sub(_shares);\n\n      emit Transfer(msg.sender, address(0), _shares);\n\n      // Check balance\n      uint256 b = IERC20(token).balanceOf(address(this));\n      if (b < r) {\n        _withdrawSome(r.sub(b));\n      }\n\n      IERC20(token).safeTransfer(msg.sender, r);\n      pool = calcPoolValueInToken();\n  }\n\n  function recommend() public view returns (Lender) {\n    (,uint256 capr,uint256 iapr,uint256 aapr,uint256 dapr) = IIEarnManager(apr).recommend(token);\n    uint256 max = 0;\n    if (capr > max) {\n      max = capr;\n    }\n    if (iapr > max) {\n      max = iapr;\n    }\n    if (aapr > max) {\n      max = aapr;\n    }\n    if (dapr > max) {\n      max = dapr;\n    }\n\n    Lender newProvider = Lender.NONE;\n    if (max == capr) {\n      newProvider = Lender.COMPOUND;\n    } else if (max == iapr) {\n      newProvider = Lender.FULCRUM;\n    } else if (max == aapr) {\n      newProvider = Lender.AAVE;\n    } else if (max == dapr) {\n      newProvider = Lender.DYDX;\n    }\n    return newProvider;\n  }\n\n  function getAave() public view returns (address) {\n    return LendingPoolAddressesProvider(aave).getLendingPool();\n  }\n  function getAaveCore() public view returns (address) {\n    return LendingPoolAddressesProvider(aave).getLendingPoolCore();\n  }\n\n  function approveToken() public {\n      IERC20(token).safeApprove(compound, uint(-1)); //also add to constructor\n      IERC20(token).safeApprove(dydx, uint(-1));\n      IERC20(token).safeApprove(getAaveCore(), uint(-1));\n      IERC20(token).safeApprove(fulcrum, uint(-1));\n  }\n\n  function balance() public view returns (uint256) {\n    return IERC20(token).balanceOf(address(this));\n  }\n  function balanceDydxAvailable() public view returns (uint256) {\n      return IERC20(token).balanceOf(dydx);\n  }\n  function balanceDydx() public view returns (uint256) {\n      Wei memory bal = DyDx(dydx).getAccountWei(Info(address(this), 0), dToken);\n      return bal.value;\n  }\n  function balanceCompoundAvailable() public view returns (uint256) {\n      return IERC20(token).balanceOf(compound);\n  }\n  function balanceCompound() public view returns (uint256) {\n      return IERC20(compound).balanceOf(address(this));\n  }\n  function balanceCompoundInToken() public view returns (uint256) {\n    // Mantisa 1e18 to decimals\n    uint256 b = balanceCompound();\n    if (b > 0) {\n      b = b.mul(Compound(compound).exchangeRateStored()).div(1e18);\n    }\n    return b;\n  }\n  function balanceFulcrumAvailable() public view returns (uint256) {\n      return IERC20(token).balanceOf(fulcrum);\n  }\n  function balanceFulcrumInToken() public view returns (uint256) {\n    uint256 b = balanceFulcrum();\n    if (b > 0) {\n      b = Fulcrum(fulcrum).assetBalanceOf(address(this));\n    }\n    return b;\n  }\n  function balanceFulcrum() public view returns (uint256) {\n    return IERC20(fulcrum).balanceOf(address(this));\n  }\n  function balanceAaveAvailable() public view returns (uint256) {\n      return IERC20(token).balanceOf(aavePool);\n  }\n  function balanceAave() public view returns (uint256) {\n    return IERC20(aaveToken).balanceOf(address(this));\n  }\n\n  function rebalance() public {\n    Lender newProvider = recommend();\n\n    if (newProvider != provider) {\n      _withdrawAll();\n    }\n\n    if (balance() > 0) {\n      if (newProvider == Lender.DYDX) {\n        _supplyDydx(balance());\n      } else if (newProvider == Lender.FULCRUM) {\n        _supplyFulcrum(balance());\n      } else if (newProvider == Lender.COMPOUND) {\n        _supplyCompound(balance());\n      } else if (newProvider == Lender.AAVE) {\n        _supplyAave(balance());\n      }\n    }\n\n    provider = newProvider;\n  }\n\n  function _withdrawAll() internal {\n    uint256 amount = balanceCompound();\n    if (amount > 0) {\n      _withdrawCompound(balanceCompoundAvailable());\n    }\n    amount = balanceDydx();\n    if (amount > 0) {\n      _withdrawDydx(balanceDydxAvailable());\n    }\n    amount = balanceFulcrum();\n    if (amount > 0) {\n      _withdrawFulcrum(balanceFulcrumAvailable());\n    }\n    amount = balanceAave();\n    if (amount > 0) {\n      _withdrawAave(balanceAaveAvailable());\n    }\n  }\n\n  function _withdrawSomeCompound(uint256 _amount) internal {\n    uint256 b = balanceCompound();\n    uint256 bT = balanceCompoundInToken();\n    require(bT >= _amount, \"insufficient funds\");\n    // can have unintentional rounding errors\n    uint256 amount = (b.mul(_amount)).div(bT).add(1);\n    _withdrawCompound(amount);\n  }\n\n  // 1999999614570950845\n  function _withdrawSomeFulcrum(uint256 _amount) internal {\n    // Balance of fulcrum tokens, 1 iDAI = 1.00x DAI\n    uint256 b = balanceFulcrum(); // 1970469086655766652\n    // Balance of token in fulcrum\n    uint256 bT = balanceFulcrumInToken(); // 2000000803224344406\n    require(bT >= _amount, \"insufficient funds\");\n    // can have unintentional rounding errors\n    uint256 amount = (b.mul(_amount)).div(bT).add(1);\n    _withdrawFulcrum(amount);\n  }\n\n  function _withdrawSome(uint256 _amount) internal {\n    if (provider == Lender.COMPOUND) {\n      _withdrawSomeCompound(_amount);\n    }\n    if (provider == Lender.AAVE) {\n      require(balanceAave() >= _amount, \"insufficient funds\");\n      _withdrawAave(_amount);\n    }\n    if (provider == Lender.DYDX) {\n      require(balanceDydx() >= _amount, \"insufficient funds\");\n      _withdrawDydx(_amount);\n    }\n    if (provider == Lender.FULCRUM) {\n      _withdrawSomeFulcrum(_amount);\n    }\n  }\n\n  function _supplyDydx(uint256 amount) internal {\n      Info[] memory infos = new Info[](1);\n      infos[0] = Info(address(this), 0);\n\n      AssetAmount memory amt = AssetAmount(true, AssetDenomination.Wei, AssetReference.Delta, amount);\n      ActionArgs memory act;\n      act.actionType = ActionType.Deposit;\n      act.accountId = 0;\n      act.amount = amt;\n      act.primaryMarketId = dToken;\n      act.otherAddress = address(this);\n\n      ActionArgs[] memory args = new ActionArgs[](1);\n      args[0] = act;\n\n      DyDx(dydx).operate(infos, args);\n  }\n\n  function _supplyAave(uint amount) internal {\n      Aave(getAave()).deposit(token, amount, 0);\n  }\n  function _supplyFulcrum(uint amount) internal {\n      require(Fulcrum(fulcrum).mint(address(this), amount) > 0, \"FULCRUM: supply failed\");\n  }\n  function _supplyCompound(uint amount) internal {\n      require(Compound(compound).mint(amount) == 0, \"COMPOUND: supply failed\");\n  }\n  function _withdrawAave(uint amount) internal {\n      AToken(aaveToken).redeem(amount);\n  }\n  function _withdrawFulcrum(uint amount) internal {\n      require(Fulcrum(fulcrum).burn(address(this), amount) > 0, \"FULCRUM: withdraw failed\");\n  }\n  function _withdrawCompound(uint amount) internal {\n      require(Compound(compound).redeem(amount) == 0, \"COMPOUND: withdraw failed\");\n  }\n\n  function _withdrawDydx(uint256 amount) internal {\n      Info[] memory infos = new Info[](1);\n      infos[0] = Info(address(this), 0);\n\n      AssetAmount memory amt = AssetAmount(false, AssetDenomination.Wei, AssetReference.Delta, amount);\n      ActionArgs memory act;\n      act.actionType = ActionType.Withdraw;\n      act.accountId = 0;\n      act.amount = amt;\n      act.primaryMarketId = dToken;\n      act.otherAddress = address(this);\n\n      ActionArgs[] memory args = new ActionArgs[](1);\n      args[0] = act;\n\n      DyDx(dydx).operate(infos, args);\n  }\n\n  function calcPoolValueInToken() public view returns (uint) {\n    return balanceCompoundInToken()\n      .add(balanceFulcrumInToken())\n      .add(balanceDydx())\n      .add(balanceAave())\n      .add(balance());\n  }\n\n  function getPricePerFullShare() public view returns (uint) {\n    uint _pool = calcPoolValueInToken();\n    return _pool.mul(1e18).div(_totalSupply);\n  }\n\n  function withdrawAll() public onlyOwner {\n    _withdrawAll();\n  }\n\n  function withdrawSomeCompound(uint256 _amount) public onlyOwner {\n    _withdrawSomeCompound(_amount);\n  }\n\n  function withdrawSomeFulcrum(uint256 _amount) public onlyOwner {\n    _withdrawSomeFulcrum(_amount);\n  }\n\n  function withdrawSome(uint256 _amount) public onlyOwner {\n    _withdrawSome(_amount);\n  }\n\n  function supplyDydx(uint256 amount) public onlyOwner {\n      _supplyDydx(amount);\n  }\n\n  function supplyAave(uint amount) public onlyOwner {\n    _supplyAave(amount);\n  }\n  function supplyFulcrum(uint amount) public onlyOwner {\n      _supplyFulcrum(amount);\n  }\n  function supplyCompound(uint amount) public onlyOwner {\n      _supplyCompound(amount);\n  }\n  function withdrawAave(uint amount) public onlyOwner {\n      _withdrawAave(amount);\n  }\n  function withdrawFulcrum(uint amount) public onlyOwner {\n      _withdrawFulcrum(amount);\n  }\n  function withdrawCompound(uint amount) public onlyOwner {\n      _withdrawCompound(amount);\n  }\n\n  function withdrawDydx(uint256 amount) public onlyOwner {\n      _withdrawDydx(amount);\n  }\n}\n",
  "sourcePath": "D:/ftm/itoken/contracts/YDAIv3.sol",
  "compiler": {
    "name": "solc",
    "version": "0.5.12+commit.7709ece9.Emscripten.clang"
  },
  "schemaVersion": "3.0.19",
  "updatedAt": "2020-02-25T06:41:49.457Z",
  "devdoc": {
    "methods": {}
  },
  "userdoc": {
    "methods": {}
  }
}