{
  "contractName": "yDAI",
  "abi": [
    {
      "inputs": [],
      "payable": false,
      "stateMutability": "nonpayable",
      "type": "constructor"
    },
    {
      "anonymous": false,
      "inputs": [
        {
          "indexed": true,
          "internalType": "address",
          "name": "owner",
          "type": "address"
        },
        {
          "indexed": true,
          "internalType": "address",
          "name": "spender",
          "type": "address"
        },
        {
          "indexed": false,
          "internalType": "uint256",
          "name": "value",
          "type": "uint256"
        }
      ],
      "name": "Approval",
      "type": "event"
    },
    {
      "anonymous": false,
      "inputs": [
        {
          "indexed": true,
          "internalType": "address",
          "name": "previousOwner",
          "type": "address"
        },
        {
          "indexed": true,
          "internalType": "address",
          "name": "newOwner",
          "type": "address"
        }
      ],
      "name": "OwnershipTransferred",
      "type": "event"
    },
    {
      "anonymous": false,
      "inputs": [
        {
          "indexed": true,
          "internalType": "address",
          "name": "from",
          "type": "address"
        },
        {
          "indexed": true,
          "internalType": "address",
          "name": "to",
          "type": "address"
        },
        {
          "indexed": false,
          "internalType": "uint256",
          "name": "value",
          "type": "uint256"
        }
      ],
      "name": "Transfer",
      "type": "event"
    },
    {
      "constant": true,
      "inputs": [],
      "name": "aave",
      "outputs": [
        {
          "internalType": "address",
          "name": "",
          "type": "address"
        }
      ],
      "payable": false,
      "stateMutability": "view",
      "type": "function"
    },
    {
      "constant": true,
      "inputs": [],
      "name": "aavePool",
      "outputs": [
        {
          "internalType": "address",
          "name": "",
          "type": "address"
        }
      ],
      "payable": false,
      "stateMutability": "view",
      "type": "function"
    },
    {
      "constant": true,
      "inputs": [],
      "name": "aaveToken",
      "outputs": [
        {
          "internalType": "address",
          "name": "",
          "type": "address"
        }
      ],
      "payable": false,
      "stateMutability": "view",
      "type": "function"
    },
    {
      "constant": true,
      "inputs": [
        {
          "internalType": "address",
          "name": "owner",
          "type": "address"
        },
        {
          "internalType": "address",
          "name": "spender",
          "type": "address"
        }
      ],
      "name": "allowance",
      "outputs": [
        {
          "internalType": "uint256",
          "name": "",
          "type": "uint256"
        }
      ],
      "payable": false,
      "stateMutability": "view",
      "type": "function"
    },
    {
      "constant": false,
      "inputs": [
        {
          "internalType": "address",
          "name": "spender",
          "type": "address"
        },
        {
          "internalType": "uint256",
          "name": "amount",
          "type": "uint256"
        }
      ],
      "name": "approve",
      "outputs": [
        {
          "internalType": "bool",
          "name": "",
          "type": "bool"
        }
      ],
      "payable": false,
      "stateMutability": "nonpayable",
      "type": "function"
    },
    {
      "constant": true,
      "inputs": [],
      "name": "apr",
      "outputs": [
        {
          "internalType": "address",
          "name": "",
          "type": "address"
        }
      ],
      "payable": false,
      "stateMutability": "view",
      "type": "function"
    },
    {
      "constant": true,
      "inputs": [
        {
          "internalType": "address",
          "name": "account",
          "type": "address"
        }
      ],
      "name": "balanceOf",
      "outputs": [
        {
          "internalType": "uint256",
          "name": "",
          "type": "uint256"
        }
      ],
      "payable": false,
      "stateMutability": "view",
      "type": "function"
    },
    {
      "constant": true,
      "inputs": [],
      "name": "chai",
      "outputs": [
        {
          "internalType": "address",
          "name": "",
          "type": "address"
        }
      ],
      "payable": false,
      "stateMutability": "view",
      "type": "function"
    },
    {
      "constant": true,
      "inputs": [],
      "name": "compound",
      "outputs": [
        {
          "internalType": "address",
          "name": "",
          "type": "address"
        }
      ],
      "payable": false,
      "stateMutability": "view",
      "type": "function"
    },
    {
      "constant": true,
      "inputs": [],
      "name": "dToken",
      "outputs": [
        {
          "internalType": "uint256",
          "name": "",
          "type": "uint256"
        }
      ],
      "payable": false,
      "stateMutability": "view",
      "type": "function"
    },
    {
      "constant": true,
      "inputs": [],
      "name": "decimals",
      "outputs": [
        {
          "internalType": "uint8",
          "name": "",
          "type": "uint8"
        }
      ],
      "payable": false,
      "stateMutability": "view",
      "type": "function"
    },
    {
      "constant": false,
      "inputs": [
        {
          "internalType": "address",
          "name": "spender",
          "type": "address"
        },
        {
          "internalType": "uint256",
          "name": "subtractedValue",
          "type": "uint256"
        }
      ],
      "name": "decreaseAllowance",
      "outputs": [
        {
          "internalType": "bool",
          "name": "",
          "type": "bool"
        }
      ],
      "payable": false,
      "stateMutability": "nonpayable",
      "type": "function"
    },
    {
      "constant": true,
      "inputs": [],
      "name": "dydx",
      "outputs": [
        {
          "internalType": "address",
          "name": "",
          "type": "address"
        }
      ],
      "payable": false,
      "stateMutability": "view",
      "type": "function"
    },
    {
      "constant": true,
      "inputs": [],
      "name": "fulcrum",
      "outputs": [
        {
          "internalType": "address",
          "name": "",
          "type": "address"
        }
      ],
      "payable": false,
      "stateMutability": "view",
      "type": "function"
    },
    {
      "constant": false,
      "inputs": [
        {
          "internalType": "address",
          "name": "spender",
          "type": "address"
        },
        {
          "internalType": "uint256",
          "name": "addedValue",
          "type": "uint256"
        }
      ],
      "name": "increaseAllowance",
      "outputs": [
        {
          "internalType": "bool",
          "name": "",
          "type": "bool"
        }
      ],
      "payable": false,
      "stateMutability": "nonpayable",
      "type": "function"
    },
    {
      "constant": true,
      "inputs": [],
      "name": "isOwner",
      "outputs": [
        {
          "internalType": "bool",
          "name": "",
          "type": "bool"
        }
      ],
      "payable": false,
      "stateMutability": "view",
      "type": "function"
    },
    {
      "constant": true,
      "inputs": [],
      "name": "name",
      "outputs": [
        {
          "internalType": "string",
          "name": "",
          "type": "string"
        }
      ],
      "payable": false,
      "stateMutability": "view",
      "type": "function"
    },
    {
      "constant": true,
      "inputs": [],
      "name": "owner",
      "outputs": [
        {
          "internalType": "address",
          "name": "",
          "type": "address"
        }
      ],
      "payable": false,
      "stateMutability": "view",
      "type": "function"
    },
    {
      "constant": true,
      "inputs": [],
      "name": "pool",
      "outputs": [
        {
          "internalType": "uint256",
          "name": "",
          "type": "uint256"
        }
      ],
      "payable": false,
      "stateMutability": "view",
      "type": "function"
    },
    {
      "constant": true,
      "inputs": [],
      "name": "provider",
      "outputs": [
        {
          "internalType": "enum yDAI.Lender",
          "name": "",
          "type": "uint8"
        }
      ],
      "payable": false,
      "stateMutability": "view",
      "type": "function"
    },
    {
      "constant": false,
      "inputs": [],
      "name": "renounceOwnership",
      "outputs": [],
      "payable": false,
      "stateMutability": "nonpayable",
      "type": "function"
    },
    {
      "constant": true,
      "inputs": [],
      "name": "symbol",
      "outputs": [
        {
          "internalType": "string",
          "name": "",
          "type": "string"
        }
      ],
      "payable": false,
      "stateMutability": "view",
      "type": "function"
    },
    {
      "constant": true,
      "inputs": [],
      "name": "token",
      "outputs": [
        {
          "internalType": "address",
          "name": "",
          "type": "address"
        }
      ],
      "payable": false,
      "stateMutability": "view",
      "type": "function"
    },
    {
      "constant": true,
      "inputs": [],
      "name": "totalSupply",
      "outputs": [
        {
          "internalType": "uint256",
          "name": "",
          "type": "uint256"
        }
      ],
      "payable": false,
      "stateMutability": "view",
      "type": "function"
    },
    {
      "constant": false,
      "inputs": [
        {
          "internalType": "address",
          "name": "recipient",
          "type": "address"
        },
        {
          "internalType": "uint256",
          "name": "amount",
          "type": "uint256"
        }
      ],
      "name": "transfer",
      "outputs": [
        {
          "internalType": "bool",
          "name": "",
          "type": "bool"
        }
      ],
      "payable": false,
      "stateMutability": "nonpayable",
      "type": "function"
    },
    {
      "constant": false,
      "inputs": [
        {
          "internalType": "address",
          "name": "sender",
          "type": "address"
        },
        {
          "internalType": "address",
          "name": "recipient",
          "type": "address"
        },
        {
          "internalType": "uint256",
          "name": "amount",
          "type": "uint256"
        }
      ],
      "name": "transferFrom",
      "outputs": [
        {
          "internalType": "bool",
          "name": "",
          "type": "bool"
        }
      ],
      "payable": false,
      "stateMutability": "nonpayable",
      "type": "function"
    },
    {
      "constant": false,
      "inputs": [
        {
          "internalType": "address",
          "name": "newOwner",
          "type": "address"
        }
      ],
      "name": "transferOwnership",
      "outputs": [],
      "payable": false,
      "stateMutability": "nonpayable",
      "type": "function"
    },
    {
      "constant": false,
      "inputs": [
        {
          "internalType": "uint256",
          "name": "_amount",
          "type": "uint256"
        }
      ],
      "name": "deposit",
      "outputs": [],
      "payable": false,
      "stateMutability": "nonpayable",
      "type": "function"
    },
    {
      "constant": false,
      "inputs": [
        {
          "internalType": "uint256",
          "name": "_shares",
          "type": "uint256"
        }
      ],
      "name": "withdraw",
      "outputs": [],
      "payable": false,
      "stateMutability": "nonpayable",
      "type": "function"
    },
    {
      "constant": true,
      "inputs": [],
      "name": "recommend",
      "outputs": [
        {
          "internalType": "enum yDAI.Lender",
          "name": "",
          "type": "uint8"
        }
      ],
      "payable": false,
      "stateMutability": "view",
      "type": "function"
    },
    {
      "constant": true,
      "inputs": [],
      "name": "getAave",
      "outputs": [
        {
          "internalType": "address",
          "name": "",
          "type": "address"
        }
      ],
      "payable": false,
      "stateMutability": "view",
      "type": "function"
    },
    {
      "constant": true,
      "inputs": [],
      "name": "getAaveCore",
      "outputs": [
        {
          "internalType": "address",
          "name": "",
          "type": "address"
        }
      ],
      "payable": false,
      "stateMutability": "view",
      "type": "function"
    },
    {
      "constant": false,
      "inputs": [],
      "name": "approveToken",
      "outputs": [],
      "payable": false,
      "stateMutability": "nonpayable",
      "type": "function"
    },
    {
      "constant": true,
      "inputs": [],
      "name": "balance",
      "outputs": [
        {
          "internalType": "uint256",
          "name": "",
          "type": "uint256"
        }
      ],
      "payable": false,
      "stateMutability": "view",
      "type": "function"
    },
    {
      "constant": true,
      "inputs": [],
      "name": "balanceDydxAvailable",
      "outputs": [
        {
          "internalType": "uint256",
          "name": "",
          "type": "uint256"
        }
      ],
      "payable": false,
      "stateMutability": "view",
      "type": "function"
    },
    {
      "constant": true,
      "inputs": [],
      "name": "balanceDydx",
      "outputs": [
        {
          "internalType": "uint256",
          "name": "",
          "type": "uint256"
        }
      ],
      "payable": false,
      "stateMutability": "view",
      "type": "function"
    },
    {
      "constant": true,
      "inputs": [],
      "name": "balanceCompound",
      "outputs": [
        {
          "internalType": "uint256",
          "name": "",
          "type": "uint256"
        }
      ],
      "payable": false,
      "stateMutability": "view",
      "type": "function"
    },
    {
      "constant": true,
      "inputs": [],
      "name": "balanceCompoundInToken",
      "outputs": [
        {
          "internalType": "uint256",
          "name": "",
          "type": "uint256"
        }
      ],
      "payable": false,
      "stateMutability": "view",
      "type": "function"
    },
    {
      "constant": true,
      "inputs": [],
      "name": "balanceFulcrumAvailable",
      "outputs": [
        {
          "internalType": "uint256",
          "name": "",
          "type": "uint256"
        }
      ],
      "payable": false,
      "stateMutability": "view",
      "type": "function"
    },
    {
      "constant": true,
      "inputs": [],
      "name": "balanceFulcrumInToken",
      "outputs": [
        {
          "internalType": "uint256",
          "name": "",
          "type": "uint256"
        }
      ],
      "payable": false,
      "stateMutability": "view",
      "type": "function"
    },
    {
      "constant": true,
      "inputs": [],
      "name": "balanceFulcrum",
      "outputs": [
        {
          "internalType": "uint256",
          "name": "",
          "type": "uint256"
        }
      ],
      "payable": false,
      "stateMutability": "view",
      "type": "function"
    },
    {
      "constant": true,
      "inputs": [],
      "name": "balanceAaveAvailable",
      "outputs": [
        {
          "internalType": "uint256",
          "name": "",
          "type": "uint256"
        }
      ],
      "payable": false,
      "stateMutability": "view",
      "type": "function"
    },
    {
      "constant": true,
      "inputs": [],
      "name": "balanceAave",
      "outputs": [
        {
          "internalType": "uint256",
          "name": "",
          "type": "uint256"
        }
      ],
      "payable": false,
      "stateMutability": "view",
      "type": "function"
    },
    {
      "constant": false,
      "inputs": [],
      "name": "rebalance",
      "outputs": [],
      "payable": false,
      "stateMutability": "nonpayable",
      "type": "function"
    },
    {
      "constant": true,
      "inputs": [],
      "name": "calcPoolValueInToken",
      "outputs": [
        {
          "internalType": "uint256",
          "name": "",
          "type": "uint256"
        }
      ],
      "payable": false,
      "stateMutability": "view",
      "type": "function"
    },
    {
      "constant": true,
      "inputs": [],
      "name": "getPricePerFullShare",
      "outputs": [
        {
          "internalType": "uint256",
          "name": "",
          "type": "uint256"
        }
      ],
      "payable": false,
      "stateMutability": "view",
      "type": "function"
    }
  ],
  "bytecode": "0x60806040526000600960006101000a81548160ff021916908360048111156200002457fe5b02179055503480156200003657600080fd5b506040518060400160405280600981526020017f696561726e2044414900000000000000000000000000000000000000000000008152506040518060400160405280600481526020017f794441490000000000000000000000000000000000000000000000000000000081525060128260039080519060200190620000bd929190620007d0565b508160049080519060200190620000d6929190620007d0565b5080600560006101000a81548160ff021916908360ff16021790555050505060016006819055506200010d620001e060201b60201c565b600760006101000a81548173ffffffffffffffffffffffffffffffffffffffff021916908373ffffffffffffffffffffffffffffffffffffffff160217905550600760009054906101000a900473ffffffffffffffffffffffffffffffffffffffff1673ffffffffffffffffffffffffffffffffffffffff16600073ffffffffffffffffffffffffffffffffffffffff167f8be0079c531659141344cd1fd0a4f28419497f9722a3daafe3b4186f6b6457e060405160405180910390a3620001da620001e860201b60201c565b62000ce5565b600033905090565b62000262735d3a536e4d6dbd6114cc1ead35777bab948e36437fffffffffffffffffffffffffffffffffffffffffffffffffffffffffffffffff736b175474e89094c44da98b954eedeac495271d0f73ffffffffffffffffffffffffffffffffffffffff16620003cd60201b62003344179092919060201c565b620002dc731e0447b19bb6ecfdae1e4ae1694b0c3659614e4e7fffffffffffffffffffffffffffffffffffffffffffffffffffffffffffffffff736b175474e89094c44da98b954eedeac495271d0f73ffffffffffffffffffffffffffffffffffffffff16620003cd60201b62003344179092919060201c565b62000351620002f06200055860201b60201c565b7fffffffffffffffffffffffffffffffffffffffffffffffffffffffffffffffff736b175474e89094c44da98b954eedeac495271d0f73ffffffffffffffffffffffffffffffffffffffff16620003cd60201b62003344179092919060201c565b620003cb73493c57c4763932315a328269e1adad09653b90817fffffffffffffffffffffffffffffffffffffffffffffffffffffffffffffffff736b175474e89094c44da98b954eedeac495271d0f73ffffffffffffffffffffffffffffffffffffffff16620003cd60201b62003344179092919060201c565b565b60008114806200046d575060008373ffffffffffffffffffffffffffffffffffffffff1663dd62ed3e30856040518363ffffffff1660e01b81526004016200041792919062000b0e565b60206040518083038186803b1580156200043057600080fd5b505afa15801562000445573d6000803e3d6000fd5b505050506040513d601f19601f820116820180604052506200046b91908101906200091c565b145b620004af576040517f08c379a0000000000000000000000000000000000000000000000000000000008152600401620004a69062000bac565b60405180910390fd5b62000553838473ffffffffffffffffffffffffffffffffffffffff1663095ea7b3905060e01b8484604051602401620004ea92919062000b3b565b604051602081830303815290604052907bffffffffffffffffffffffffffffffffffffffffffffffffffffffff19166020820180517bffffffffffffffffffffffffffffffffffffffffffffffffffffffff8381831617835250505050620005f560201b60201c565b505050565b60007324a42fd28c976a61df5d00d0599c34c4f90748c873ffffffffffffffffffffffffffffffffffffffff1663ed6ff7606040518163ffffffff1660e01b815260040160206040518083038186803b158015620005b557600080fd5b505afa158015620005ca573d6000803e3d6000fd5b505050506040513d601f19601f82011682018060405250620005f09190810190620008c4565b905090565b620006218273ffffffffffffffffffffffffffffffffffffffff166200078460201b62003fab1760201c565b62000663576040517f08c379a00000000000000000000000000000000000000000000000000000000081526004016200065a9062000bce565b60405180910390fd5b600060608373ffffffffffffffffffffffffffffffffffffffff16836040516200068e919062000af5565b6000604051808303816000865af19150503d8060008114620006cd576040519150601f19603f3d011682016040523d82523d6000602084013e620006d2565b606091505b5091509150816200071a576040517f08c379a0000000000000000000000000000000000000000000000000000000008152600401620007119062000b68565b60405180910390fd5b6000815111156200077e57808060200190516200073b9190810190620008f0565b6200077d576040517f08c379a0000000000000000000000000000000000000000000000000000000008152600401620007749062000b8a565b60405180910390fd5b5b50505050565b60008060007fc5d2460186f7233c927e7db2dcc703c0e500b653ca82273b7bfad8045d85a47060001b9050833f91506000801b8214158015620007c75750808214155b92505050919050565b828054600181600116156101000203166002900490600052602060002090601f016020900481019282601f106200081357805160ff191683800117855562000844565b8280016001018555821562000844579182015b828111156200084357825182559160200191906001019062000826565b5b50905062000853919062000857565b5090565b6200087c91905b80821115620008785760008160009055506001016200085e565b5090565b90565b600081519050620008908162000c97565b92915050565b600081519050620008a78162000cb1565b92915050565b600081519050620008be8162000ccb565b92915050565b600060208284031215620008d757600080fd5b6000620008e7848285016200087f565b91505092915050565b6000602082840312156200090357600080fd5b6000620009138482850162000896565b91505092915050565b6000602082840312156200092f57600080fd5b60006200093f84828501620008ad565b91505092915050565b620009538162000c17565b82525050565b6000620009668262000bf0565b62000972818562000bfb565b93506200098481856020860162000c61565b80840191505092915050565b60006200099f60208362000c06565b91507f5361666545524332303a206c6f772d6c6576656c2063616c6c206661696c65646000830152602082019050919050565b6000620009e1602a8362000c06565b91507f5361666545524332303a204552433230206f7065726174696f6e20646964206e60008301527f6f742073756363656564000000000000000000000000000000000000000000006020830152604082019050919050565b600062000a4960368362000c06565b91507f5361666545524332303a20617070726f76652066726f6d206e6f6e2d7a65726f60008301527f20746f206e6f6e2d7a65726f20616c6c6f77616e6365000000000000000000006020830152604082019050919050565b600062000ab1601f8362000c06565b91507f5361666545524332303a2063616c6c20746f206e6f6e2d636f6e7472616374006000830152602082019050919050565b62000aef8162000c57565b82525050565b600062000b03828462000959565b915081905092915050565b600060408201905062000b25600083018562000948565b62000b34602083018462000948565b9392505050565b600060408201905062000b52600083018562000948565b62000b61602083018462000ae4565b9392505050565b6000602082019050818103600083015262000b838162000990565b9050919050565b6000602082019050818103600083015262000ba581620009d2565b9050919050565b6000602082019050818103600083015262000bc78162000a3a565b9050919050565b6000602082019050818103600083015262000be98162000aa2565b9050919050565b600081519050919050565b600081905092915050565b600082825260208201905092915050565b600062000c248262000c37565b9050919050565b60008115159050919050565b600073ffffffffffffffffffffffffffffffffffffffff82169050919050565b6000819050919050565b60005b8381101562000c8157808201518184015260208101905062000c64565b8381111562000c91576000848401525b50505050565b62000ca28162000c17565b811462000cae57600080fd5b50565b62000cbc8162000c2b565b811462000cc857600080fd5b50565b62000cd68162000c57565b811462000ce257600080fd5b50565b6158348062000cf56000396000f3fe608060405234801561001057600080fd5b506004361061028a5760003560e01c80638f32d59b1161015c578063b69ef8a8116100ce578063f2fde38b11610087578063f2fde38b1461077d578063f5a41dea14610799578063f69e2046146107b7578063f7c1ec77146107d5578063f82ce27d146107f3578063fc0c546a146108115761028a565b8063b69ef8a8146106b9578063b6b55f25146106d7578063cf8ca426146106f3578063d54e324414610711578063d9d7858a1461072f578063dd62ed3e1461074d5761028a565b8063a160176d11610120578063a160176d146105e1578063a457c2d7146105ff578063a72879711461062f578063a9059cbb1461064d578063b098fc801461067d578063b69d04561461069b5761028a565b80638f32d59b1461055f5780638f9225ca1461057d57806395d89b411461059b57806399b71d5c146105b9578063a03e4bc3146105c35761028a565b806339c0a7e111610200578063715018a6116101b9578063715018a6146104d357806377c7b8fc146104dd5780637d7c2a1c146104fb578063819faf7b146105055780638da5cb5b146105235780638e4ec6ef146105415761028a565b806339c0a7e11461040d57806357ded9c91461042b57806358782c211461044957806361c1ec551461046757806370a08231146104855780637137ef99146104b55761028a565b806316f0115b1161025257806316f0115b1461033757806318160ddd1461035557806323b872dd146103735780632e1a7d4d146103a3578063313ce567146103bf57806339509351146103dd5761028a565b806306a3fe591461028f57806306fdde03146102ad578063085d4883146102cb578063095ea7b3146102e95780630eb2a26714610319575b600080fd5b61029761082f565b6040516102a49190614fd4565b60405180910390f35b6102b5610847565b6040516102c2919061511c565b60405180910390f35b6102d36108e9565b6040516102e09190615101565b60405180910390f35b61030360048036036102fe919081019061437c565b6108fc565b60405161031091906150e6565b60405180910390f35b61032161091a565b60405161032e9190615447565b60405180910390f35b61033f6109be565b60405161034c9190615447565b60405180910390f35b61035d6109c4565b60405161036a9190615447565b60405180910390f35b61038d6004803603610388919081019061432d565b6109ce565b60405161039a91906150e6565b60405180910390f35b6103bd60048036036103b89190810190614499565b610aa7565b005b6103c7610cfa565b6040516103d49190615462565b60405180910390f35b6103f760048036036103f2919081019061437c565b610d11565b60405161040491906150e6565b60405180910390f35b610415610dc4565b6040516104229190615447565b60405180910390f35b610433610ea5565b6040516104409190614fd4565b60405180910390f35b610451610ebd565b60405161045e9190614fd4565b60405180910390f35b61046f610ed5565b60405161047c9190615447565b60405180910390f35b61049f600480360361049a919081019061429f565b610f79565b6040516104ac9190615447565b60405180910390f35b6104bd610fc1565b6040516104ca9190615447565b60405180910390f35b6104db611034565b005b6104e561113c565b6040516104f29190615447565b60405180910390f35b610503611183565b005b61050d6112c9565b60405161051a9190614fd4565b60405180910390f35b61052b6112e1565b6040516105389190614fd4565b60405180910390f35b61054961130b565b6040516105569190614fd4565b60405180910390f35b610567611323565b60405161057491906150e6565b60405180910390f35b610585611382565b6040516105929190615447565b60405180910390f35b6105a361143a565b6040516105b0919061511c565b60405180910390f35b6105c16114dc565b005b6105cb61169d565b6040516105d89190614fd4565b60405180910390f35b6105e96116b5565b6040516105f69190615101565b60405180910390f35b6106196004803603610614919081019061437c565b611805565b60405161062691906150e6565b60405180910390f35b6106376118d2565b6040516106449190615447565b60405180910390f35b6106676004803603610662919081019061437c565b6119b0565b60405161067491906150e6565b60405180910390f35b6106856119ce565b6040516106929190615447565b60405180910390f35b6106a3611a86565b6040516106b09190614fd4565b60405180910390f35b6106c1611a9e565b6040516106ce9190615447565b60405180910390f35b6106f160048036036106ec9190810190614499565b611b42565b005b6106fb611c9d565b6040516107089190615447565b60405180910390f35b610719611d41565b6040516107269190615447565b60405180910390f35b610737611df9565b6040516107449190615447565b60405180910390f35b610767600480360361076291908101906142f1565b611dfe565b6040516107749190615447565b60405180910390f35b6107976004803603610792919081019061429f565b611e85565b005b6107a1611ed8565b6040516107ae9190615447565b60405180910390f35b6107bf611f95565b6040516107cc9190614fd4565b60405180910390f35b6107dd611fad565b6040516107ea9190614fd4565b60405180910390f35b6107fb612046565b6040516108089190614fd4565b60405180910390f35b6108196120df565b6040516108269190614fd4565b60405180910390f35b73fc1e690f61efd961294b3e1ce3313fbd8aa4f85d81565b606060038054600181600116156101000203166002900480601f0160208091040260200160405190810160405280929190818152602001828054600181600116156101000203166002900480156108df5780601f106108b4576101008083540402835291602001916108df565b820191906000526020600020905b8154815290600101906020018083116108c257829003601f168201915b5050505050905090565b600960009054906101000a900460ff1681565b60006109106109096120f7565b84846120ff565b6001905092915050565b600073493c57c4763932315a328269e1adad09653b908173ffffffffffffffffffffffffffffffffffffffff166370a08231306040518263ffffffff1660e01b81526004016109699190614fd4565b60206040518083038186803b15801561098157600080fd5b505afa158015610995573d6000803e3d6000fd5b505050506040513d601f19601f820116820180604052506109b991908101906144c2565b905090565b60085481565b6000600254905090565b60006109db8484846122ca565b610a9c846109e76120f7565b610a97856040518060600160405280602881526020016157a560289139600160008b73ffffffffffffffffffffffffffffffffffffffff1673ffffffffffffffffffffffffffffffffffffffff1681526020019081526020016000206000610a4d6120f7565b73ffffffffffffffffffffffffffffffffffffffff1673ffffffffffffffffffffffffffffffffffffffff168152602001908152602001600020546125549092919063ffffffff16565b6120ff565b600190509392505050565b60016006600082825401925050819055506000600654905060008211610b02576040517f08c379a0000000000000000000000000000000000000000000000000000000008152600401610af99061529e565b60405180910390fd5b6000610b0d33610f79565b905080831115610b52576040517f08c379a0000000000000000000000000000000000000000000000000000000008152600401610b499061527e565b60405180910390fd5b610b5a610fc1565b6008819055506000610b90610b6d6109c4565b610b82866008546125af90919063ffffffff16565b61261f90919063ffffffff16565b9050610b9c3385612669565b6000736b175474e89094c44da98b954eedeac495271d0f73ffffffffffffffffffffffffffffffffffffffff166370a08231306040518263ffffffff1660e01b8152600401610beb9190614fd4565b60206040518083038186803b158015610c0357600080fd5b505afa158015610c17573d6000803e3d6000fd5b505050506040513d601f19601f82011682018060405250610c3b91908101906144c2565b905081811015610c6257610c60610c5b828461280b90919063ffffffff16565b612855565b505b610ca13383736b175474e89094c44da98b954eedeac495271d0f73ffffffffffffffffffffffffffffffffffffffff16612cc69092919063ffffffff16565b610ca9610fc1565b6008819055505050506006548114610cf6576040517f08c379a0000000000000000000000000000000000000000000000000000000008152600401610ced9061539e565b60405180910390fd5b5050565b6000600560009054906101000a900460ff16905090565b6000610dba610d1e6120f7565b84610db58560016000610d2f6120f7565b73ffffffffffffffffffffffffffffffffffffffff1673ffffffffffffffffffffffffffffffffffffffff16815260200190815260200160002060008973ffffffffffffffffffffffffffffffffffffffff1673ffffffffffffffffffffffffffffffffffffffff16815260200190815260200160002054612d6590919063ffffffff16565b6120ff565b6001905092915050565b6000610dce613ff6565b731e0447b19bb6ecfdae1e4ae1694b0c3659614e4e73ffffffffffffffffffffffffffffffffffffffff1663c190c2ec60405180604001604052803073ffffffffffffffffffffffffffffffffffffffff168152602001600081525060036040518363ffffffff1660e01b8152600401610e4992919061541e565b604080518083038186803b158015610e6057600080fd5b505afa158015610e74573d6000803e3d6000fd5b505050506040513d601f19601f82011682018060405250610e989190810190614470565b9050806020015191505090565b73dd6d648c991f7d47454354f4ef326b04025a48a881565b73493c57c4763932315a328269e1adad09653b908181565b6000735d3a536e4d6dbd6114cc1ead35777bab948e364373ffffffffffffffffffffffffffffffffffffffff166370a08231306040518263ffffffff1660e01b8152600401610f249190614fd4565b60206040518083038186803b158015610f3c57600080fd5b505afa158015610f50573d6000803e3d6000fd5b505050506040513d601f19601f82011682018060405250610f7491908101906144c2565b905090565b60008060008373ffffffffffffffffffffffffffffffffffffffff1673ffffffffffffffffffffffffffffffffffffffff168152602001908152602001600020549050919050565b600061102f610fce611a9e565b611021610fd9611c9d565b611013610fe4610dc4565b611005610fef611ed8565b610ff76118d2565b612d6590919063ffffffff16565b612d6590919063ffffffff16565b612d6590919063ffffffff16565b612d6590919063ffffffff16565b905090565b61103c611323565b61107b576040517f08c379a00000000000000000000000000000000000000000000000000000000081526004016110729061525e565b60405180910390fd5b600073ffffffffffffffffffffffffffffffffffffffff16600760009054906101000a900473ffffffffffffffffffffffffffffffffffffffff1673ffffffffffffffffffffffffffffffffffffffff167f8be0079c531659141344cd1fd0a4f28419497f9722a3daafe3b4186f6b6457e060405160405180910390a36000600760006101000a81548173ffffffffffffffffffffffffffffffffffffffff021916908373ffffffffffffffffffffffffffffffffffffffff160217905550565b600080611147610fc1565b905061117d6111546109c4565b61116f670de0b6b3a7640000846125af90919063ffffffff16565b61261f90919063ffffffff16565b91505090565b600061118d6116b5565b9050600960009054906101000a900460ff1660048111156111aa57fe5b8160048111156111b657fe5b146111c4576111c3612dba565b5b60006111ce611a9e565b11156112a357600160048111156111e157fe5b8160048111156111ed57fe5b1415611208576112036111fe611a9e565b612ec1565b6112a2565b60048081111561121457fe5b81600481111561122057fe5b141561123b57611236611231611a9e565b6130ec565b6112a1565b6002600481111561124857fe5b81600481111561125457fe5b141561126f5761126a611265611a9e565b6131d2565b6112a0565b6003600481111561127c57fe5b81600481111561128857fe5b141561129f5761129e611299611a9e565b6132b6565b5b5b5b5b5b80600960006101000a81548160ff021916908360048111156112c157fe5b021790555050565b7324a42fd28c976a61df5d00d0599c34c4f90748c881565b6000600760009054906101000a900473ffffffffffffffffffffffffffffffffffffffff16905090565b731e0447b19bb6ecfdae1e4ae1694b0c3659614e4e81565b6000600760009054906101000a900473ffffffffffffffffffffffffffffffffffffffff1673ffffffffffffffffffffffffffffffffffffffff166113666120f7565b73ffffffffffffffffffffffffffffffffffffffff1614905090565b60007306af07097c9eeb7fd685c692751d5c66db49c21573ffffffffffffffffffffffffffffffffffffffff166370a0823173493c57c4763932315a328269e1adad09653b90816040518263ffffffff1660e01b81526004016113e59190614fd4565b60206040518083038186803b1580156113fd57600080fd5b505afa158015611411573d6000803e3d6000fd5b505050506040513d601f19601f8201168201806040525061143591908101906144c2565b905090565b606060048054600181600116156101000203166002900480601f0160208091040260200160405190810160405280929190818152602001828054600181600116156101000203166002900480156114d25780601f106114a7576101008083540402835291602001916114d2565b820191906000526020600020905b8154815290600101906020018083116114b557829003601f168201915b5050505050905090565b61154f735d3a536e4d6dbd6114cc1ead35777bab948e36437fffffffffffffffffffffffffffffffffffffffffffffffffffffffffffffffff736b175474e89094c44da98b954eedeac495271d0f73ffffffffffffffffffffffffffffffffffffffff166133449092919063ffffffff16565b6115c2731e0447b19bb6ecfdae1e4ae1694b0c3659614e4e7fffffffffffffffffffffffffffffffffffffffffffffffffffffffffffffffff736b175474e89094c44da98b954eedeac495271d0f73ffffffffffffffffffffffffffffffffffffffff166133449092919063ffffffff16565b6116286115cd612046565b7fffffffffffffffffffffffffffffffffffffffffffffffffffffffffffffffff736b175474e89094c44da98b954eedeac495271d0f73ffffffffffffffffffffffffffffffffffffffff166133449092919063ffffffff16565b61169b73493c57c4763932315a328269e1adad09653b90817fffffffffffffffffffffffffffffffffffffffffffffffffffffffffffffffff736b175474e89094c44da98b954eedeac495271d0f73ffffffffffffffffffffffffffffffffffffffff166133449092919063ffffffff16565b565b733dfd23a6c5e8bbcfc9581d2e864a68feb6a076d381565b600080600080600073dd6d648c991f7d47454354f4ef326b04025a48a873ffffffffffffffffffffffffffffffffffffffff1663d88be3c0736b175474e89094c44da98b954eedeac495271d0f6040518263ffffffff1660e01b815260040161171e9190614fd4565b60006040518083038186803b15801561173657600080fd5b505afa15801561174a573d6000803e3d6000fd5b505050506040513d6000823e3d601f19601f8201168201806040525061177391908101906143e1565b94509450945094505060008090508085111561178d578490505b80841115611799578390505b808311156117a5578290505b808211156117b1578190505b6000809050858214156117c757600290506117f9565b848214156117d857600490506117f8565b838214156117e957600390506117f7565b828214156117f657600190505b5b5b5b80965050505050505090565b60006118c86118126120f7565b846118c3856040518060600160405280602581526020016157cd602591396001600061183c6120f7565b73ffffffffffffffffffffffffffffffffffffffff1673ffffffffffffffffffffffffffffffffffffffff16815260200190815260200160002060008a73ffffffffffffffffffffffffffffffffffffffff1673ffffffffffffffffffffffffffffffffffffffff168152602001908152602001600020546125549092919063ffffffff16565b6120ff565b6001905092915050565b6000806118dd610ed5565b905060008111156119a9576119a6670de0b6b3a7640000611998735d3a536e4d6dbd6114cc1ead35777bab948e364373ffffffffffffffffffffffffffffffffffffffff1663182df0f56040518163ffffffff1660e01b815260040160206040518083038186803b15801561195157600080fd5b505afa158015611965573d6000803e3d6000fd5b505050506040513d601f19601f8201168201806040525061198991908101906144c2565b846125af90919063ffffffff16565b61261f90919063ffffffff16565b90505b8091505090565b60006119c46119bd6120f7565b84846122ca565b6001905092915050565b6000736b175474e89094c44da98b954eedeac495271d0f73ffffffffffffffffffffffffffffffffffffffff166370a08231733dfd23a6c5e8bbcfc9581d2e864a68feb6a076d36040518263ffffffff1660e01b8152600401611a319190614fd4565b60206040518083038186803b158015611a4957600080fd5b505afa158015611a5d573d6000803e3d6000fd5b505050506040513d601f19601f82011682018060405250611a8191908101906144c2565b905090565b7306af07097c9eeb7fd685c692751d5c66db49c21581565b6000736b175474e89094c44da98b954eedeac495271d0f73ffffffffffffffffffffffffffffffffffffffff166370a08231306040518263ffffffff1660e01b8152600401611aed9190614fd4565b60206040518083038186803b158015611b0557600080fd5b505afa158015611b19573d6000803e3d6000fd5b505050506040513d601f19601f82011682018060405250611b3d91908101906144c2565b905090565b60016006600082825401925050819055506000600654905060008211611b9d576040517f08c379a0000000000000000000000000000000000000000000000000000000008152600401611b949061533e565b60405180910390fd5b611ba5610fc1565b600881905550611bec333084736b175474e89094c44da98b954eedeac495271d0f73ffffffffffffffffffffffffffffffffffffffff166134bb909392919063ffffffff16565b600080905060006008541415611c0b5782905082600881905550611c3c565b611c39600854611c2b611c1c6109c4565b866125af90919063ffffffff16565b61261f90919063ffffffff16565b90505b611c44610fc1565b600881905550611c54338261355d565b506006548114611c99576040517f08c379a0000000000000000000000000000000000000000000000000000000008152600401611c909061539e565b60405180910390fd5b5050565b600073fc1e690f61efd961294b3e1ce3313fbd8aa4f85d73ffffffffffffffffffffffffffffffffffffffff166370a08231306040518263ffffffff1660e01b8152600401611cec9190614fd4565b60206040518083038186803b158015611d0457600080fd5b505afa158015611d18573d6000803e3d6000fd5b505050506040513d601f19601f82011682018060405250611d3c91908101906144c2565b905090565b6000736b175474e89094c44da98b954eedeac495271d0f73ffffffffffffffffffffffffffffffffffffffff166370a08231731e0447b19bb6ecfdae1e4ae1694b0c3659614e4e6040518263ffffffff1660e01b8152600401611da49190614fd4565b60206040518083038186803b158015611dbc57600080fd5b505afa158015611dd0573d6000803e3d6000fd5b505050506040513d601f19601f82011682018060405250611df491908101906144c2565b905090565b600381565b6000600160008473ffffffffffffffffffffffffffffffffffffffff1673ffffffffffffffffffffffffffffffffffffffff16815260200190815260200160002060008373ffffffffffffffffffffffffffffffffffffffff1673ffffffffffffffffffffffffffffffffffffffff16815260200190815260200160002054905092915050565b611e8d611323565b611ecc576040517f08c379a0000000000000000000000000000000000000000000000000000000008152600401611ec39061525e565b60405180910390fd5b611ed5816136e5565b50565b600080611ee361091a565b90506000811115611f8e5773493c57c4763932315a328269e1adad09653b908173ffffffffffffffffffffffffffffffffffffffff166306b3efd6306040518263ffffffff1660e01b8152600401611f3b9190614fd4565b60206040518083038186803b158015611f5357600080fd5b505afa158015611f67573d6000803e3d6000fd5b505050506040513d601f19601f82011682018060405250611f8b91908101906144c2565b90505b8091505090565b735d3a536e4d6dbd6114cc1ead35777bab948e364381565b60007324a42fd28c976a61df5d00d0599c34c4f90748c873ffffffffffffffffffffffffffffffffffffffff16630261bf8b6040518163ffffffff1660e01b815260040160206040518083038186803b15801561200957600080fd5b505afa15801561201d573d6000803e3d6000fd5b505050506040513d601f19601f8201168201806040525061204191908101906142c8565b905090565b60007324a42fd28c976a61df5d00d0599c34c4f90748c873ffffffffffffffffffffffffffffffffffffffff1663ed6ff7606040518163ffffffff1660e01b815260040160206040518083038186803b1580156120a257600080fd5b505afa1580156120b6573d6000803e3d6000fd5b505050506040513d601f19601f820116820180604052506120da91908101906142c8565b905090565b736b175474e89094c44da98b954eedeac495271d0f81565b600033905090565b600073ffffffffffffffffffffffffffffffffffffffff168373ffffffffffffffffffffffffffffffffffffffff16141561216f576040517f08c379a00000000000000000000000000000000000000000000000000000000081526004016121669061531e565b60405180910390fd5b600073ffffffffffffffffffffffffffffffffffffffff168273ffffffffffffffffffffffffffffffffffffffff1614156121df576040517f08c379a00000000000000000000000000000000000000000000000000000000081526004016121d69061519e565b60405180910390fd5b80600160008573ffffffffffffffffffffffffffffffffffffffff1673ffffffffffffffffffffffffffffffffffffffff16815260200190815260200160002060008473ffffffffffffffffffffffffffffffffffffffff1673ffffffffffffffffffffffffffffffffffffffff168152602001908152602001600020819055508173ffffffffffffffffffffffffffffffffffffffff168373ffffffffffffffffffffffffffffffffffffffff167f8c5be1e5ebec7d5bd14f71427d1e84f3dd0314c0f7b2291e5b200ac8c7c3b925836040516122bd9190615447565b60405180910390a3505050565b600073ffffffffffffffffffffffffffffffffffffffff168373ffffffffffffffffffffffffffffffffffffffff16141561233a576040517f08c379a0000000000000000000000000000000000000000000000000000000008152600401612331906152de565b60405180910390fd5b600073ffffffffffffffffffffffffffffffffffffffff168273ffffffffffffffffffffffffffffffffffffffff1614156123aa576040517f08c379a00000000000000000000000000000000000000000000000000000000081526004016123a19061513e565b60405180910390fd5b6124158160405180606001604052806026815260200161577f602691396000808773ffffffffffffffffffffffffffffffffffffffff1673ffffffffffffffffffffffffffffffffffffffff168152602001908152602001600020546125549092919063ffffffff16565b6000808573ffffffffffffffffffffffffffffffffffffffff1673ffffffffffffffffffffffffffffffffffffffff168152602001908152602001600020819055506124a8816000808573ffffffffffffffffffffffffffffffffffffffff1673ffffffffffffffffffffffffffffffffffffffff16815260200190815260200160002054612d6590919063ffffffff16565b6000808473ffffffffffffffffffffffffffffffffffffffff1673ffffffffffffffffffffffffffffffffffffffff168152602001908152602001600020819055508173ffffffffffffffffffffffffffffffffffffffff168373ffffffffffffffffffffffffffffffffffffffff167fddf252ad1be2c89b69c2b068fc378daa952ba7f163c4a11628f55a4df523b3ef836040516125479190615447565b60405180910390a3505050565b600083831115829061259c576040517f08c379a0000000000000000000000000000000000000000000000000000000008152600401612593919061511c565b60405180910390fd5b5060008385039050809150509392505050565b6000808314156125c25760009050612619565b60008284029050828482816125d357fe5b0414612614576040517f08c379a000000000000000000000000000000000000000000000000000000000815260040161260b9061521e565b60405180910390fd5b809150505b92915050565b600061266183836040518060400160405280601a81526020017f536166654d6174683a206469766973696f6e206279207a65726f000000000000815250613815565b905092915050565b600073ffffffffffffffffffffffffffffffffffffffff168273ffffffffffffffffffffffffffffffffffffffff1614156126d9576040517f08c379a00000000000000000000000000000000000000000000000000000000081526004016126d0906152be565b60405180910390fd5b6127448160405180606001604052806022815260200161575d602291396000808673ffffffffffffffffffffffffffffffffffffffff1673ffffffffffffffffffffffffffffffffffffffff168152602001908152602001600020546125549092919063ffffffff16565b6000808473ffffffffffffffffffffffffffffffffffffffff1673ffffffffffffffffffffffffffffffffffffffff1681526020019081526020016000208190555061279b8160025461280b90919063ffffffff16565b600281905550600073ffffffffffffffffffffffffffffffffffffffff168273ffffffffffffffffffffffffffffffffffffffff167fddf252ad1be2c89b69c2b068fc378daa952ba7f163c4a11628f55a4df523b3ef836040516127ff9190615447565b60405180910390a35050565b600061284d83836040518060400160405280601e81526020017f536166654d6174683a207375627472616374696f6e206f766572666c6f770000815250612554565b905092915050565b6000808290506000612865610ed5565b905060008111156129805761288b600161287d6118d2565b61280b90919063ffffffff16565b84111561296b576128b56128b060016128a26118d2565b61280b90919063ffffffff16565b613876565b612964736b175474e89094c44da98b954eedeac495271d0f73ffffffffffffffffffffffffffffffffffffffff166370a08231306040518263ffffffff1660e01b81526004016129059190614fd4565b60206040518083038186803b15801561291d57600080fd5b505afa158015612931573d6000803e3d6000fd5b505050506040513d601f19601f8201168201806040525061295591908101906144c2565b8361280b90919063ffffffff16565b935061297f565b61297484613876565b600192505050612cc1565b5b612988610dc4565b90506000811115612a7d5761299b611d41565b841115612a68576129b26129ad611d41565b61391c565b612a61736b175474e89094c44da98b954eedeac495271d0f73ffffffffffffffffffffffffffffffffffffffff166370a08231306040518263ffffffff1660e01b8152600401612a029190614fd4565b60206040518083038186803b158015612a1a57600080fd5b505afa158015612a2e573d6000803e3d6000fd5b505050506040513d601f19601f82011682018060405250612a5291908101906144c2565b8361280b90919063ffffffff16565b9350612a7c565b612a718461391c565b600192505050612cc1565b5b612a8561091a565b90506000811115612bbd57612aab6001612a9d611382565b61280b90919063ffffffff16565b841115612ba857612acd6001612abf611382565b61280b90919063ffffffff16565b9050612af2612aed6001612adf611382565b61280b90919063ffffffff16565b613b47565b612ba1736b175474e89094c44da98b954eedeac495271d0f73ffffffffffffffffffffffffffffffffffffffff166370a08231306040518263ffffffff1660e01b8152600401612b429190614fd4565b60206040518083038186803b158015612b5a57600080fd5b505afa158015612b6e573d6000803e3d6000fd5b505050506040513d601f19601f82011682018060405250612b9291908101906144c2565b8361280b90919063ffffffff16565b9350612bbc565b612bb181613b47565b600192505050612cc1565b5b612bc5611c9d565b90506000811115612cba57612bd86119ce565b841115612ca557612bef612bea6119ce565b613bed565b612c9e736b175474e89094c44da98b954eedeac495271d0f73ffffffffffffffffffffffffffffffffffffffff166370a08231306040518263ffffffff1660e01b8152600401612c3f9190614fd4565b60206040518083038186803b158015612c5757600080fd5b505afa158015612c6b573d6000803e3d6000fd5b505050506040513d601f19601f82011682018060405250612c8f91908101906144c2565b8361280b90919063ffffffff16565b9350612cb9565b612cae84613bed565b600192505050612cc1565b5b6001925050505b919050565b612d60838473ffffffffffffffffffffffffffffffffffffffff1663a9059cbb905060e01b8484604051602401612cfe92919061504f565b604051602081830303815290604052907bffffffffffffffffffffffffffffffffffffffffffffffffffffffff19166020820180517bffffffffffffffffffffffffffffffffffffffffffffffffffffffff8381831617835250505050613c6f565b505050565b600080828401905083811015612db0576040517f08c379a0000000000000000000000000000000000000000000000000000000008152600401612da7906151de565b60405180910390fd5b8091505092915050565b6000612dc4610ed5565b90506000811115612df357612df2612ded6001612ddf6118d2565b61280b90919063ffffffff16565b613876565b5b612dfb610dc4565b90506000811115612e2a57612e0e611d41565b811115612e2057612e1d611d41565b90505b612e298161391c565b5b612e3261091a565b90506000811115612e8757612e586001612e4a611382565b61280b90919063ffffffff16565b811115612e7d57612e7a6001612e6c611382565b61280b90919063ffffffff16565b90505b612e8681613b47565b5b612e8f611c9d565b90506000811115612ebe57612ea26119ce565b811115612eb457612eb16119ce565b90505b612ebd81613bed565b5b50565b60606001604051908082528060200260200182016040528015612efe57816020015b612eeb614012565b815260200190600190039081612ee35790505b50905060405180604001604052803073ffffffffffffffffffffffffffffffffffffffff168152602001600081525081600081518110612f3a57fe5b6020026020010181905250612f4d614042565b6040518060800160405280600115158152602001600080811115612f6d57fe5b8152602001600080811115612f7e57fe5b8152602001848152509050612f91614080565b600081600001906001811115612fa357fe5b90816001811115612fb057fe5b8152505060008160200181815250508181604001819052506003816060018181525050308160a0019073ffffffffffffffffffffffffffffffffffffffff16908173ffffffffffffffffffffffffffffffffffffffff16815250506060600160405190808252806020026020018201604052801561304857816020015b6130356140ec565b81526020019060019003908161302d5790505b509050818160008151811061305957fe5b6020026020010181905250731e0447b19bb6ecfdae1e4ae1694b0c3659614e4e73ffffffffffffffffffffffffffffffffffffffff1663a67a6a4585836040518363ffffffff1660e01b81526004016130b39291906150af565b600060405180830381600087803b1580156130cd57600080fd5b505af11580156130e1573d6000803e3d6000fd5b505050505050505050565b600073493c57c4763932315a328269e1adad09653b908173ffffffffffffffffffffffffffffffffffffffff166340c10f1930846040518363ffffffff1660e01b815260040161313d92919061504f565b602060405180830381600087803b15801561315757600080fd5b505af115801561316b573d6000803e3d6000fd5b505050506040513d601f19601f8201168201806040525061318f91908101906144c2565b116131cf576040517f08c379a00000000000000000000000000000000000000000000000000000000081526004016131c69061535e565b60405180910390fd5b50565b6000735d3a536e4d6dbd6114cc1ead35777bab948e364373ffffffffffffffffffffffffffffffffffffffff1663a0712d68836040518263ffffffff1660e01b81526004016132219190615447565b602060405180830381600087803b15801561323b57600080fd5b505af115801561324f573d6000803e3d6000fd5b505050506040513d601f19601f8201168201806040525061327391908101906144c2565b146132b3576040517f08c379a00000000000000000000000000000000000000000000000000000000081526004016132aa906151be565b60405180910390fd5b50565b6132be611fad565b73ffffffffffffffffffffffffffffffffffffffff1663d2d0e066736b175474e89094c44da98b954eedeac495271d0f8360006040518463ffffffff1660e01b815260040161330f93929190615078565b600060405180830381600087803b15801561332957600080fd5b505af115801561333d573d6000803e3d6000fd5b5050505050565b60008114806133dd575060008373ffffffffffffffffffffffffffffffffffffffff1663dd62ed3e30856040518363ffffffff1660e01b815260040161338b929190614fef565b60206040518083038186803b1580156133a357600080fd5b505afa1580156133b7573d6000803e3d6000fd5b505050506040513d601f19601f820116820180604052506133db91908101906144c2565b145b61341c576040517f08c379a0000000000000000000000000000000000000000000000000000000008152600401613413906153be565b60405180910390fd5b6134b6838473ffffffffffffffffffffffffffffffffffffffff1663095ea7b3905060e01b848460405160240161345492919061504f565b604051602081830303815290604052907bffffffffffffffffffffffffffffffffffffffffffffffffffffffff19166020820180517bffffffffffffffffffffffffffffffffffffffffffffffffffffffff8381831617835250505050613c6f565b505050565b613557848573ffffffffffffffffffffffffffffffffffffffff166323b872dd905060e01b8585856040516024016134f593929190615018565b604051602081830303815290604052907bffffffffffffffffffffffffffffffffffffffffffffffffffffffff19166020820180517bffffffffffffffffffffffffffffffffffffffffffffffffffffffff8381831617835250505050613c6f565b50505050565b600073ffffffffffffffffffffffffffffffffffffffff168273ffffffffffffffffffffffffffffffffffffffff1614156135cd576040517f08c379a00000000000000000000000000000000000000000000000000000000081526004016135c4906153fe565b60405180910390fd5b6135e281600254612d6590919063ffffffff16565b600281905550613639816000808573ffffffffffffffffffffffffffffffffffffffff1673ffffffffffffffffffffffffffffffffffffffff16815260200190815260200160002054612d6590919063ffffffff16565b6000808473ffffffffffffffffffffffffffffffffffffffff1673ffffffffffffffffffffffffffffffffffffffff168152602001908152602001600020819055508173ffffffffffffffffffffffffffffffffffffffff16600073ffffffffffffffffffffffffffffffffffffffff167fddf252ad1be2c89b69c2b068fc378daa952ba7f163c4a11628f55a4df523b3ef836040516136d99190615447565b60405180910390a35050565b600073ffffffffffffffffffffffffffffffffffffffff168173ffffffffffffffffffffffffffffffffffffffff161415613755576040517f08c379a000000000000000000000000000000000000000000000000000000000815260040161374c9061517e565b60405180910390fd5b8073ffffffffffffffffffffffffffffffffffffffff16600760009054906101000a900473ffffffffffffffffffffffffffffffffffffffff1673ffffffffffffffffffffffffffffffffffffffff167f8be0079c531659141344cd1fd0a4f28419497f9722a3daafe3b4186f6b6457e060405160405180910390a380600760006101000a81548173ffffffffffffffffffffffffffffffffffffffff021916908373ffffffffffffffffffffffffffffffffffffffff16021790555050565b6000808311829061385c576040517f08c379a0000000000000000000000000000000000000000000000000000000008152600401613853919061511c565b60405180910390fd5b50600083858161386857fe5b049050809150509392505050565b6000613880610ed5565b9050600061388c6118d2565b9050828110156138d1576040517f08c379a00000000000000000000000000000000000000000000000000000000081526004016138c8906152fe565b60405180910390fd5b600061390b60016138fd846138ef88886125af90919063ffffffff16565b61261f90919063ffffffff16565b612d6590919063ffffffff16565b905061391681613de1565b50505050565b6060600160405190808252806020026020018201604052801561395957816020015b613946614012565b81526020019060019003908161393e5790505b50905060405180604001604052803073ffffffffffffffffffffffffffffffffffffffff16815260200160008152508160008151811061399557fe5b60200260200101819052506139a8614042565b60405180608001604052806000151581526020016000808111156139c857fe5b81526020016000808111156139d957fe5b81526020018481525090506139ec614080565b6001816000019060018111156139fe57fe5b90816001811115613a0b57fe5b8152505060008160200181815250508181604001819052506003816060018181525050308160a0019073ffffffffffffffffffffffffffffffffffffffff16908173ffffffffffffffffffffffffffffffffffffffff168152505060606001604051908082528060200260200182016040528015613aa357816020015b613a906140ec565b815260200190600190039081613a885790505b5090508181600081518110613ab457fe5b6020026020010181905250731e0447b19bb6ecfdae1e4ae1694b0c3659614e4e73ffffffffffffffffffffffffffffffffffffffff1663a67a6a4585836040518363ffffffff1660e01b8152600401613b0e9291906150af565b600060405180830381600087803b158015613b2857600080fd5b505af1158015613b3c573d6000803e3d6000fd5b505050505050505050565b6000613b5161091a565b90506000613b5d611ed8565b905082811015613ba2576040517f08c379a0000000000000000000000000000000000000000000000000000000008152600401613b99906152fe565b60405180910390fd5b6000613bdc6001613bce84613bc088886125af90919063ffffffff16565b61261f90919063ffffffff16565b612d6590919063ffffffff16565b9050613be781613ec5565b50505050565b73fc1e690f61efd961294b3e1ce3313fbd8aa4f85d73ffffffffffffffffffffffffffffffffffffffff1663db006a75826040518263ffffffff1660e01b8152600401613c3a9190615447565b600060405180830381600087803b158015613c5457600080fd5b505af1158015613c68573d6000803e3d6000fd5b5050505050565b613c8e8273ffffffffffffffffffffffffffffffffffffffff16613fab565b613ccd576040517f08c379a0000000000000000000000000000000000000000000000000000000008152600401613cc4906153de565b60405180910390fd5b600060608373ffffffffffffffffffffffffffffffffffffffff1683604051613cf69190614fbd565b6000604051808303816000865af19150503d8060008114613d33576040519150601f19603f3d011682016040523d82523d6000602084013e613d38565b606091505b509150915081613d7d576040517f08c379a0000000000000000000000000000000000000000000000000000000008152600401613d74906151fe565b60405180910390fd5b600081511115613ddb5780806020019051613d9b91908101906143b8565b613dda576040517f08c379a0000000000000000000000000000000000000000000000000000000008152600401613dd19061537e565b60405180910390fd5b5b50505050565b6000735d3a536e4d6dbd6114cc1ead35777bab948e364373ffffffffffffffffffffffffffffffffffffffff1663db006a75836040518263ffffffff1660e01b8152600401613e309190615447565b602060405180830381600087803b158015613e4a57600080fd5b505af1158015613e5e573d6000803e3d6000fd5b505050506040513d601f19601f82011682018060405250613e8291908101906144c2565b14613ec2576040517f08c379a0000000000000000000000000000000000000000000000000000000008152600401613eb99061515e565b60405180910390fd5b50565b600073493c57c4763932315a328269e1adad09653b908173ffffffffffffffffffffffffffffffffffffffff16639dc29fac30846040518363ffffffff1660e01b8152600401613f1692919061504f565b602060405180830381600087803b158015613f3057600080fd5b505af1158015613f44573d6000803e3d6000fd5b505050506040513d601f19601f82011682018060405250613f6891908101906144c2565b11613fa8576040517f08c379a0000000000000000000000000000000000000000000000000000000008152600401613f9f9061523e565b60405180910390fd5b50565b60008060007fc5d2460186f7233c927e7db2dcc703c0e500b653ca82273b7bfad8045d85a47060001b9050833f91506000801b8214158015613fed5750808214155b92505050919050565b6040518060400160405280600015158152602001600081525090565b6040518060400160405280600073ffffffffffffffffffffffffffffffffffffffff168152602001600081525090565b604051806080016040528060001515815260200160008081111561406257fe5b815260200160008081111561407357fe5b8152602001600081525090565b6040518061010001604052806000600181111561409957fe5b8152602001600081526020016140ad614158565b81526020016000815260200160008152602001600073ffffffffffffffffffffffffffffffffffffffff16815260200160008152602001606081525090565b6040518061010001604052806000600181111561410557fe5b815260200160008152602001614119614158565b81526020016000815260200160008152602001600073ffffffffffffffffffffffffffffffffffffffff16815260200160008152602001606081525090565b604051806080016040528060001515815260200160008081111561417857fe5b815260200160008081111561418957fe5b8152602001600081525090565b6000813590506141a581615717565b92915050565b6000815190506141ba81615717565b92915050565b6000815190506141cf8161572e565b92915050565b600082601f8301126141e657600080fd5b81516141f96141f4826154aa565b61547d565b9150808252602083016020830185838301111561421557600080fd5b61422083828461569f565b50505092915050565b60006040828403121561423b57600080fd5b614245604061547d565b90506000614255848285016141c0565b60008301525060206142698482850161428a565b60208301525092915050565b60008135905061428481615745565b92915050565b60008151905061429981615745565b92915050565b6000602082840312156142b157600080fd5b60006142bf84828501614196565b91505092915050565b6000602082840312156142da57600080fd5b60006142e8848285016141ab565b91505092915050565b6000806040838503121561430457600080fd5b600061431285828601614196565b925050602061432385828601614196565b9150509250929050565b60008060006060848603121561434257600080fd5b600061435086828701614196565b935050602061436186828701614196565b925050604061437286828701614275565b9150509250925092565b6000806040838503121561438f57600080fd5b600061439d85828601614196565b92505060206143ae85828601614275565b9150509250929050565b6000602082840312156143ca57600080fd5b60006143d8848285016141c0565b91505092915050565b600080600080600060a086880312156143f957600080fd5b600086015167ffffffffffffffff81111561441357600080fd5b61441f888289016141d5565b95505060206144308882890161428a565b94505060406144418882890161428a565b93505060606144528882890161428a565b92505060806144638882890161428a565b9150509295509295909350565b60006040828403121561448257600080fd5b600061449084828501614229565b91505092915050565b6000602082840312156144ab57600080fd5b60006144b984828501614275565b91505092915050565b6000602082840312156144d457600080fd5b60006144e28482850161428a565b91505092915050565b60006144f78383614e2a565b905092915050565b600061450b8383614f32565b60408301905092915050565b61452081615596565b82525050565b61452f81615596565b82525050565b6000614540826154f6565b61454a8185615547565b93508360208202850161455c856154d6565b8060005b85811015614598578484038952815161457985826144eb565b94506145848361552d565b925060208a01995050600181019050614560565b50829750879550505050505092915050565b60006145b582615501565b6145bf8185615558565b93506145ca836154e6565b8060005b838110156145fb5781516145e288826144ff565b97506145ed8361553a565b9250506001810190506145ce565b5085935050505092915050565b614611816155a8565b82525050565b614620816155a8565b82525050565b600061463182615517565b61463b818561557a565b935061464b81856020860161569f565b80840191505092915050565b60006146628261550c565b61466c8185615569565b935061467c81856020860161569f565b614685816156d2565b840191505092915050565b61469981615645565b82525050565b6146a881615657565b82525050565b6146b781615669565b82525050565b6146c68161567b565b82525050565b6146d58161568d565b82525050565b60006146e682615522565b6146f08185615585565b935061470081856020860161569f565b614709816156d2565b840191505092915050565b6000614721602383615585565b91507f45524332303a207472616e7366657220746f20746865207a65726f206164647260008301527f65737300000000000000000000000000000000000000000000000000000000006020830152604082019050919050565b6000614787601983615585565b91507f434f4d504f554e443a207769746864726177206661696c6564000000000000006000830152602082019050919050565b60006147c7602683615585565b91507f4f776e61626c653a206e6577206f776e657220697320746865207a65726f206160008301527f64647265737300000000000000000000000000000000000000000000000000006020830152604082019050919050565b600061482d602283615585565b91507f45524332303a20617070726f766520746f20746865207a65726f20616464726560008301527f73730000000000000000000000000000000000000000000000000000000000006020830152604082019050919050565b6000614893601783615585565b91507f434f4d504f554e443a20737570706c79206661696c65640000000000000000006000830152602082019050919050565b60006148d3601b83615585565b91507f536166654d6174683a206164646974696f6e206f766572666c6f7700000000006000830152602082019050919050565b6000614913602083615585565b91507f5361666545524332303a206c6f772d6c6576656c2063616c6c206661696c65646000830152602082019050919050565b6000614953602183615585565b91507f536166654d6174683a206d756c7469706c69636174696f6e206f766572666c6f60008301527f77000000000000000000000000000000000000000000000000000000000000006020830152604082019050919050565b60006149b9601883615585565b91507f46554c4352554d3a207769746864726177206661696c656400000000000000006000830152602082019050919050565b60006149f9602083615585565b91507f4f776e61626c653a2063616c6c6572206973206e6f7420746865206f776e65726000830152602082019050919050565b6000614a39601483615585565b91507f696e73756666696369656e742062616c616e63650000000000000000000000006000830152602082019050919050565b6000614a79601f83615585565b91507f7769746864726177206d7573742062652067726561746572207468616e2030006000830152602082019050919050565b6000614ab9602183615585565b91507f45524332303a206275726e2066726f6d20746865207a65726f2061646472657360008301527f73000000000000000000000000000000000000000000000000000000000000006020830152604082019050919050565b6000614b1f602583615585565b91507f45524332303a207472616e736665722066726f6d20746865207a65726f20616460008301527f64726573730000000000000000000000000000000000000000000000000000006020830152604082019050919050565b6000614b85601283615585565b91507f696e73756666696369656e742066756e647300000000000000000000000000006000830152602082019050919050565b6000614bc5602483615585565b91507f45524332303a20617070726f76652066726f6d20746865207a65726f2061646460008301527f72657373000000000000000000000000000000000000000000000000000000006020830152604082019050919050565b6000614c2b601e83615585565b91507f6465706f736974206d7573742062652067726561746572207468616e203000006000830152602082019050919050565b6000614c6b601683615585565b91507f46554c4352554d3a20737570706c79206661696c6564000000000000000000006000830152602082019050919050565b6000614cab602a83615585565b91507f5361666545524332303a204552433230206f7065726174696f6e20646964206e60008301527f6f742073756363656564000000000000000000000000000000000000000000006020830152604082019050919050565b6000614d11601f83615585565b91507f5265656e7472616e637947756172643a207265656e7472616e742063616c6c006000830152602082019050919050565b6000614d51603683615585565b91507f5361666545524332303a20617070726f76652066726f6d206e6f6e2d7a65726f60008301527f20746f206e6f6e2d7a65726f20616c6c6f77616e6365000000000000000000006020830152604082019050919050565b6000614db7601f83615585565b91507f5361666545524332303a2063616c6c20746f206e6f6e2d636f6e7472616374006000830152602082019050919050565b6000614df7601f83615585565b91507f45524332303a206d696e7420746f20746865207a65726f2061646472657373006000830152602082019050919050565b600061016083016000830151614e436000860182614690565b506020830151614e566020860182614f90565b506040830151614e696040860182614edd565b506060830151614e7c60c0860182614f90565b506080830151614e8f60e0860182614f90565b5060a0830151614ea3610100860182614517565b5060c0830151614eb7610120860182614f90565b5060e0830151848203610140860152614ed08282614657565b9150508091505092915050565b608082016000820151614ef36000850182614608565b506020820151614f06602085018261469f565b506040820151614f1960408501826146ae565b506060820151614f2c6060850182614f90565b50505050565b604082016000820151614f486000850182614517565b506020820151614f5b6020850182614f90565b50505050565b604082016000820151614f776000850182614517565b506020820151614f8a6020850182614f90565b50505050565b614f998161562e565b82525050565b614fa88161562e565b82525050565b614fb781615638565b82525050565b6000614fc98284614626565b915081905092915050565b6000602082019050614fe96000830184614526565b92915050565b60006040820190506150046000830185614526565b6150116020830184614526565b9392505050565b600060608201905061502d6000830186614526565b61503a6020830185614526565b6150476040830184614f9f565b949350505050565b60006040820190506150646000830185614526565b6150716020830184614f9f565b9392505050565b600060608201905061508d6000830186614526565b61509a6020830185614f9f565b6150a760408301846146cc565b949350505050565b600060408201905081810360008301526150c981856145aa565b905081810360208301526150dd8184614535565b90509392505050565b60006020820190506150fb6000830184614617565b92915050565b600060208201905061511660008301846146bd565b92915050565b6000602082019050818103600083015261513681846146db565b905092915050565b6000602082019050818103600083015261515781614714565b9050919050565b600060208201905081810360008301526151778161477a565b9050919050565b60006020820190508181036000830152615197816147ba565b9050919050565b600060208201905081810360008301526151b781614820565b9050919050565b600060208201905081810360008301526151d781614886565b9050919050565b600060208201905081810360008301526151f7816148c6565b9050919050565b6000602082019050818103600083015261521781614906565b9050919050565b6000602082019050818103600083015261523781614946565b9050919050565b60006020820190508181036000830152615257816149ac565b9050919050565b60006020820190508181036000830152615277816149ec565b9050919050565b6000602082019050818103600083015261529781614a2c565b9050919050565b600060208201905081810360008301526152b781614a6c565b9050919050565b600060208201905081810360008301526152d781614aac565b9050919050565b600060208201905081810360008301526152f781614b12565b9050919050565b6000602082019050818103600083015261531781614b78565b9050919050565b6000602082019050818103600083015261533781614bb8565b9050919050565b6000602082019050818103600083015261535781614c1e565b9050919050565b6000602082019050818103600083015261537781614c5e565b9050919050565b6000602082019050818103600083015261539781614c9e565b9050919050565b600060208201905081810360008301526153b781614d04565b9050919050565b600060208201905081810360008301526153d781614d44565b9050919050565b600060208201905081810360008301526153f781614daa565b9050919050565b6000602082019050818103600083015261541781614dea565b9050919050565b60006060820190506154336000830185614f61565b6154406040830184614f9f565b9392505050565b600060208201905061545c6000830184614f9f565b92915050565b60006020820190506154776000830184614fae565b92915050565b6000604051905081810181811067ffffffffffffffff821117156154a057600080fd5b8060405250919050565b600067ffffffffffffffff8211156154c157600080fd5b601f19601f8301169050602081019050919050565b6000819050602082019050919050565b6000819050602082019050919050565b600081519050919050565b600081519050919050565b600081519050919050565b600081519050919050565b600081519050919050565b6000602082019050919050565b6000602082019050919050565b600082825260208201905092915050565b600082825260208201905092915050565b600082825260208201905092915050565b600081905092915050565b600082825260208201905092915050565b60006155a18261560e565b9050919050565b60008115159050919050565b60008190506155c2826156e3565b919050565b60008190506155d5826156f0565b919050565b60008190506155e8826156fd565b919050565b60008190506155fb8261570a565b919050565b600061ffff82169050919050565b600073ffffffffffffffffffffffffffffffffffffffff82169050919050565b6000819050919050565b600060ff82169050919050565b6000615650826155b4565b9050919050565b6000615662826155c7565b9050919050565b6000615674826155da565b9050919050565b6000615686826155ed565b9050919050565b600061569882615600565b9050919050565b60005b838110156156bd5780820151818401526020810190506156a2565b838111156156cc576000848401525b50505050565b6000601f19601f8301169050919050565b600281106156ed57fe5b50565b600181106156fa57fe5b50565b6001811061570757fe5b50565b6005811061571457fe5b50565b61572081615596565b811461572b57600080fd5b50565b615737816155a8565b811461574257600080fd5b50565b61574e8161562e565b811461575957600080fd5b5056fe45524332303a206275726e20616d6f756e7420657863656564732062616c616e636545524332303a207472616e7366657220616d6f756e7420657863656564732062616c616e636545524332303a207472616e7366657220616d6f756e74206578636565647320616c6c6f77616e636545524332303a2064656372656173656420616c6c6f77616e63652062656c6f77207a65726fa365627a7a72315820f1acccc276478ec6def67a61299e0a986436a44acf3532d6b6957024d15e52de6c6578706572696d656e74616cf564736f6c634300050c0040",
  "source": "pragma solidity ^0.5.0;\npragma experimental ABIEncoderV2;\n\ninterface IERC20 {\n    function totalSupply() external view returns (uint256);\n    function balanceOf(address account) external view returns (uint256);\n    function transfer(address recipient, uint256 amount) external returns (bool);\n    function allowance(address owner, address spender) external view returns (uint256);\n    function approve(address spender, uint256 amount) external returns (bool);\n    function transferFrom(address sender, address recipient, uint256 amount) external returns (bool);\n    event Transfer(address indexed from, address indexed to, uint256 value);\n    event Approval(address indexed owner, address indexed spender, uint256 value);\n}\n\ncontract Context {\n    constructor () internal { }\n    // solhint-disable-previous-line no-empty-blocks\n\n    function _msgSender() internal view returns (address payable) {\n        return msg.sender;\n    }\n\n    function _msgData() internal view returns (bytes memory) {\n        this; // silence state mutability warning without generating bytecode - see https://github.com/ethereum/solidity/issues/2691\n        return msg.data;\n    }\n}\n\ncontract Ownable is Context {\n    address private _owner;\n\n    event OwnershipTransferred(address indexed previousOwner, address indexed newOwner);\n    constructor () internal {\n        _owner = _msgSender();\n        emit OwnershipTransferred(address(0), _owner);\n    }\n    function owner() public view returns (address) {\n        return _owner;\n    }\n    modifier onlyOwner() {\n        require(isOwner(), \"Ownable: caller is not the owner\");\n        _;\n    }\n    function isOwner() public view returns (bool) {\n        return _msgSender() == _owner;\n    }\n    function renounceOwnership() public onlyOwner {\n        emit OwnershipTransferred(_owner, address(0));\n        _owner = address(0);\n    }\n    function transferOwnership(address newOwner) public onlyOwner {\n        _transferOwnership(newOwner);\n    }\n    function _transferOwnership(address newOwner) internal {\n        require(newOwner != address(0), \"Ownable: new owner is the zero address\");\n        emit OwnershipTransferred(_owner, newOwner);\n        _owner = newOwner;\n    }\n}\n\ncontract ERC20 is Context, IERC20 {\n    using SafeMath for uint256;\n\n    mapping (address => uint256) private _balances;\n\n    mapping (address => mapping (address => uint256)) private _allowances;\n\n    uint256 private _totalSupply;\n    function totalSupply() public view returns (uint256) {\n        return _totalSupply;\n    }\n    function balanceOf(address account) public view returns (uint256) {\n        return _balances[account];\n    }\n    function transfer(address recipient, uint256 amount) public returns (bool) {\n        _transfer(_msgSender(), recipient, amount);\n        return true;\n    }\n    function allowance(address owner, address spender) public view returns (uint256) {\n        return _allowances[owner][spender];\n    }\n    function approve(address spender, uint256 amount) public returns (bool) {\n        _approve(_msgSender(), spender, amount);\n        return true;\n    }\n    function transferFrom(address sender, address recipient, uint256 amount) public returns (bool) {\n        _transfer(sender, recipient, amount);\n        _approve(sender, _msgSender(), _allowances[sender][_msgSender()].sub(amount, \"ERC20: transfer amount exceeds allowance\"));\n        return true;\n    }\n    function increaseAllowance(address spender, uint256 addedValue) public returns (bool) {\n        _approve(_msgSender(), spender, _allowances[_msgSender()][spender].add(addedValue));\n        return true;\n    }\n    function decreaseAllowance(address spender, uint256 subtractedValue) public returns (bool) {\n        _approve(_msgSender(), spender, _allowances[_msgSender()][spender].sub(subtractedValue, \"ERC20: decreased allowance below zero\"));\n        return true;\n    }\n    function _transfer(address sender, address recipient, uint256 amount) internal {\n        require(sender != address(0), \"ERC20: transfer from the zero address\");\n        require(recipient != address(0), \"ERC20: transfer to the zero address\");\n\n        _balances[sender] = _balances[sender].sub(amount, \"ERC20: transfer amount exceeds balance\");\n        _balances[recipient] = _balances[recipient].add(amount);\n        emit Transfer(sender, recipient, amount);\n    }\n    function _mint(address account, uint256 amount) internal {\n        require(account != address(0), \"ERC20: mint to the zero address\");\n\n        _totalSupply = _totalSupply.add(amount);\n        _balances[account] = _balances[account].add(amount);\n        emit Transfer(address(0), account, amount);\n    }\n    function _burn(address account, uint256 amount) internal {\n        require(account != address(0), \"ERC20: burn from the zero address\");\n\n        _balances[account] = _balances[account].sub(amount, \"ERC20: burn amount exceeds balance\");\n        _totalSupply = _totalSupply.sub(amount);\n        emit Transfer(account, address(0), amount);\n    }\n    function _approve(address owner, address spender, uint256 amount) internal {\n        require(owner != address(0), \"ERC20: approve from the zero address\");\n        require(spender != address(0), \"ERC20: approve to the zero address\");\n\n        _allowances[owner][spender] = amount;\n        emit Approval(owner, spender, amount);\n    }\n    function _burnFrom(address account, uint256 amount) internal {\n        _burn(account, amount);\n        _approve(account, _msgSender(), _allowances[account][_msgSender()].sub(amount, \"ERC20: burn amount exceeds allowance\"));\n    }\n}\n\ncontract ERC20Detailed is IERC20 {\n    string private _name;\n    string private _symbol;\n    uint8 private _decimals;\n\n    constructor (string memory name, string memory symbol, uint8 decimals) public {\n        _name = name;\n        _symbol = symbol;\n        _decimals = decimals;\n    }\n    function name() public view returns (string memory) {\n        return _name;\n    }\n    function symbol() public view returns (string memory) {\n        return _symbol;\n    }\n    function decimals() public view returns (uint8) {\n        return _decimals;\n    }\n}\n\ncontract ReentrancyGuard {\n    uint256 private _guardCounter;\n\n    constructor () internal {\n        _guardCounter = 1;\n    }\n\n    modifier nonReentrant() {\n        _guardCounter += 1;\n        uint256 localCounter = _guardCounter;\n        _;\n        require(localCounter == _guardCounter, \"ReentrancyGuard: reentrant call\");\n    }\n}\n\nlibrary SafeMath {\n    function add(uint256 a, uint256 b) internal pure returns (uint256) {\n        uint256 c = a + b;\n        require(c >= a, \"SafeMath: addition overflow\");\n\n        return c;\n    }\n    function sub(uint256 a, uint256 b) internal pure returns (uint256) {\n        return sub(a, b, \"SafeMath: subtraction overflow\");\n    }\n    function sub(uint256 a, uint256 b, string memory errorMessage) internal pure returns (uint256) {\n        require(b <= a, errorMessage);\n        uint256 c = a - b;\n\n        return c;\n    }\n    function mul(uint256 a, uint256 b) internal pure returns (uint256) {\n        if (a == 0) {\n            return 0;\n        }\n\n        uint256 c = a * b;\n        require(c / a == b, \"SafeMath: multiplication overflow\");\n\n        return c;\n    }\n    function div(uint256 a, uint256 b) internal pure returns (uint256) {\n        return div(a, b, \"SafeMath: division by zero\");\n    }\n    function div(uint256 a, uint256 b, string memory errorMessage) internal pure returns (uint256) {\n        // Solidity only automatically asserts when dividing by 0\n        require(b > 0, errorMessage);\n        uint256 c = a / b;\n\n        return c;\n    }\n    function mod(uint256 a, uint256 b) internal pure returns (uint256) {\n        return mod(a, b, \"SafeMath: modulo by zero\");\n    }\n    function mod(uint256 a, uint256 b, string memory errorMessage) internal pure returns (uint256) {\n        require(b != 0, errorMessage);\n        return a % b;\n    }\n}\n\nlibrary Address {\n    function isContract(address account) internal view returns (bool) {\n        bytes32 codehash;\n        bytes32 accountHash = 0xc5d2460186f7233c927e7db2dcc703c0e500b653ca82273b7bfad8045d85a470;\n        // solhint-disable-next-line no-inline-assembly\n        assembly { codehash := extcodehash(account) }\n        return (codehash != 0x0 && codehash != accountHash);\n    }\n    function toPayable(address account) internal pure returns (address payable) {\n        return address(uint160(account));\n    }\n    function sendValue(address payable recipient, uint256 amount) internal {\n        require(address(this).balance >= amount, \"Address: insufficient balance\");\n\n        // solhint-disable-next-line avoid-call-value\n        (bool success, ) = recipient.call.value(amount)(\"\");\n        require(success, \"Address: unable to send value, recipient may have reverted\");\n    }\n}\n\nlibrary SafeERC20 {\n    using SafeMath for uint256;\n    using Address for address;\n\n    function safeTransfer(IERC20 token, address to, uint256 value) internal {\n        callOptionalReturn(token, abi.encodeWithSelector(token.transfer.selector, to, value));\n    }\n\n    function safeTransferFrom(IERC20 token, address from, address to, uint256 value) internal {\n        callOptionalReturn(token, abi.encodeWithSelector(token.transferFrom.selector, from, to, value));\n    }\n\n    function safeApprove(IERC20 token, address spender, uint256 value) internal {\n        require((value == 0) || (token.allowance(address(this), spender) == 0),\n            \"SafeERC20: approve from non-zero to non-zero allowance\"\n        );\n        callOptionalReturn(token, abi.encodeWithSelector(token.approve.selector, spender, value));\n    }\n\n    function safeIncreaseAllowance(IERC20 token, address spender, uint256 value) internal {\n        uint256 newAllowance = token.allowance(address(this), spender).add(value);\n        callOptionalReturn(token, abi.encodeWithSelector(token.approve.selector, spender, newAllowance));\n    }\n\n    function safeDecreaseAllowance(IERC20 token, address spender, uint256 value) internal {\n        uint256 newAllowance = token.allowance(address(this), spender).sub(value, \"SafeERC20: decreased allowance below zero\");\n        callOptionalReturn(token, abi.encodeWithSelector(token.approve.selector, spender, newAllowance));\n    }\n    function callOptionalReturn(IERC20 token, bytes memory data) private {\n        require(address(token).isContract(), \"SafeERC20: call to non-contract\");\n\n        // solhint-disable-next-line avoid-low-level-calls\n        (bool success, bytes memory returndata) = address(token).call(data);\n        require(success, \"SafeERC20: low-level call failed\");\n\n        if (returndata.length > 0) { // Return data is optional\n            // solhint-disable-next-line max-line-length\n            require(abi.decode(returndata, (bool)), \"SafeERC20: ERC20 operation did not succeed\");\n        }\n    }\n}\n\ninterface Compound {\n    function mint ( uint256 mintAmount ) external returns ( uint256 );\n    function redeem(uint256 redeemTokens) external returns (uint256);\n    function exchangeRateStored() external view returns (uint);\n}\n\ninterface Fulcrum {\n    function mint(address receiver, uint256 amount) external payable returns (uint256 mintAmount);\n    function burn(address receiver, uint256 burnAmount) external returns (uint256 loanAmountPaid);\n    function assetBalanceOf(address _owner) external view returns (uint256 balance);\n}\n\ninterface ILendingPoolAddressesProvider {\n    function getLendingPool() external view returns (address);\n}\n\ninterface Aave {\n    function deposit(address _reserve, uint256 _amount, uint16 _referralCode) external;\n}\n\ninterface AToken {\n    function redeem(uint256 amount) external;\n}\n\ninterface IIEarnManager {\n    function recommend(address _token) external view returns (\n      string memory choice,\n      uint256 capr,\n      uint256 iapr,\n      uint256 aapr,\n      uint256 dapr\n    );\n}\n\ncontract Structs {\n    struct Val {\n        uint256 value;\n    }\n\n    enum ActionType {\n        Deposit,   // supply tokens\n        Withdraw  // borrow tokens\n    }\n\n    enum AssetDenomination {\n        Wei // the amount is denominated in wei\n    }\n\n    enum AssetReference {\n        Delta // the amount is given as a delta from the current value\n    }\n\n    struct AssetAmount {\n        bool sign; // true if positive\n        AssetDenomination denomination;\n        AssetReference ref;\n        uint256 value;\n    }\n\n    struct ActionArgs {\n        ActionType actionType;\n        uint256 accountId;\n        AssetAmount amount;\n        uint256 primaryMarketId;\n        uint256 secondaryMarketId;\n        address otherAddress;\n        uint256 otherAccountId;\n        bytes data;\n    }\n\n    struct Info {\n        address owner;  // The address that owns the account\n        uint256 number; // A nonce that allows a single address to control many accounts\n    }\n\n    struct Wei {\n        bool sign; // true if positive\n        uint256 value;\n    }\n}\n\ncontract DyDx is Structs {\n    function getAccountWei(Info memory account, uint256 marketId) public view returns (Wei memory);\n    function operate(Info[] memory, ActionArgs[] memory) public;\n}\n\ninterface LendingPoolAddressesProvider {\n    function getLendingPool() external view returns (address);\n    function getLendingPoolCore() external view returns (address);\n}\n\ncontract yDAI is ERC20, ERC20Detailed, ReentrancyGuard, Structs, Ownable {\n  using SafeERC20 for IERC20;\n  using Address for address;\n  using SafeMath for uint256;\n\n  uint256 public pool;\n  address public constant token = address(0x6B175474E89094C44Da98b954EedeAC495271d0F);\n  address public constant compound = address(0x5d3a536E4D6DbD6114cc1Ead35777bAB948E3643);\n  address public constant fulcrum = address(0x493C57C4763932315A328269E1ADaD09653B9081);\n  address public constant aave = address(0x24a42fD28C976A61Df5D00D0599C34c4f90748c8);\n  address public constant aavePool = address(0x3dfd23A6c5E8BbcFc9581d2E864a68feb6a076d3);\n  address public constant aaveToken = address(0xfC1E690f61EFd961294b3e1Ce3313fBD8aa4f85d);\n  address public constant dydx = address(0x1E0447b19BB6EcFdAe1e4AE1694b0C3659614e4e);\n  uint256 public constant dToken = 3;\n  address public constant apr = address(0xdD6d648C991f7d47454354f4Ef326b04025a48A8);\n  address public constant chai = address(0x06AF07097C9Eeb7fD685c692751D5C66dB49c215);\n\n  enum Lender {\n      NONE,\n      DYDX,\n      COMPOUND,\n      AAVE,\n      FULCRUM\n  }\n\n  Lender public provider = Lender.NONE;\n\n  constructor () public ERC20Detailed(\"iearn DAI\", \"yDAI\", 18) {\n    approveToken();\n  }\n\n  function deposit(uint256 _amount)\n      external\n      nonReentrant\n  {\n      require(_amount > 0, \"deposit must be greater than 0\");\n      pool = calcPoolValueInToken();\n\n      IERC20(token).safeTransferFrom(msg.sender, address(this), _amount);\n\n      // Calculate pool shares\n      uint256 shares = 0;\n      if (pool == 0) {\n        shares = _amount;\n        pool = _amount;\n      } else {\n        shares = (_amount.mul(totalSupply())).div(pool);\n      }\n      pool = calcPoolValueInToken();\n      _mint(msg.sender, shares);\n  }\n\n  // No rebalance implementation for lower fees and faster swaps\n  function withdraw(uint256 _shares)\n      external\n      nonReentrant\n  {\n      require(_shares > 0, \"withdraw must be greater than 0\");\n\n      uint256 ibalance = balanceOf(msg.sender);\n      require(_shares <= ibalance, \"insufficient balance\");\n\n      // Could have over value from cTokens\n      pool = calcPoolValueInToken();\n      // Calc to redeem before updating balances\n      uint256 r = (pool.mul(_shares)).div(totalSupply());\n      _burn(msg.sender, _shares);\n\n      // Check balance\n      uint256 b = IERC20(token).balanceOf(address(this));\n      if (b < r) {\n        _withdrawSome(r.sub(b));\n      }\n\n      IERC20(token).safeTransfer(msg.sender, r);\n      pool = calcPoolValueInToken();\n  }\n\n  function recommend() public view returns (Lender) {\n    (,uint256 capr,uint256 iapr,uint256 aapr,uint256 dapr) = IIEarnManager(apr).recommend(token);\n    uint256 max = 0;\n    if (capr > max) {\n      max = capr;\n    }\n    if (iapr > max) {\n      max = iapr;\n    }\n    if (aapr > max) {\n      max = aapr;\n    }\n    if (dapr > max) {\n      max = dapr;\n    }\n\n    Lender newProvider = Lender.NONE;\n    if (max == capr) {\n      newProvider = Lender.COMPOUND;\n    } else if (max == iapr) {\n      newProvider = Lender.FULCRUM;\n    } else if (max == aapr) {\n      newProvider = Lender.AAVE;\n    } else if (max == dapr) {\n      newProvider = Lender.DYDX;\n    }\n    return newProvider;\n  }\n\n  function getAave() public view returns (address) {\n    return LendingPoolAddressesProvider(aave).getLendingPool();\n  }\n  function getAaveCore() public view returns (address) {\n    return LendingPoolAddressesProvider(aave).getLendingPoolCore();\n  }\n\n  function approveToken() public {\n      IERC20(token).safeApprove(compound, uint(-1));\n      IERC20(token).safeApprove(dydx, uint(-1));\n      IERC20(token).safeApprove(getAaveCore(), uint(-1));\n      IERC20(token).safeApprove(fulcrum, uint(-1));\n  }\n\n  function balance() public view returns (uint256) {\n    return IERC20(token).balanceOf(address(this));\n  }\n  function balanceDydxAvailable() public view returns (uint256) {\n      return IERC20(token).balanceOf(dydx);\n  }\n  function balanceDydx() public view returns (uint256) {\n      Wei memory bal = DyDx(dydx).getAccountWei(Info(address(this), 0), dToken);\n      return bal.value;\n  }\n  function balanceCompound() public view returns (uint256) {\n      return IERC20(compound).balanceOf(address(this));\n  }\n  function balanceCompoundInToken() public view returns (uint256) {\n    // Mantisa 1e18 to decimals\n    uint256 b = balanceCompound();\n    if (b > 0) {\n      b = b.mul(Compound(compound).exchangeRateStored()).div(1e18);\n    }\n    return b;\n  }\n  function balanceFulcrumAvailable() public view returns (uint256) {\n      return IERC20(chai).balanceOf(fulcrum);\n  }\n  function balanceFulcrumInToken() public view returns (uint256) {\n    uint256 b = balanceFulcrum();\n    if (b > 0) {\n      b = Fulcrum(fulcrum).assetBalanceOf(address(this));\n    }\n    return b;\n  }\n  function balanceFulcrum() public view returns (uint256) {\n    return IERC20(fulcrum).balanceOf(address(this));\n  }\n  function balanceAaveAvailable() public view returns (uint256) {\n      return IERC20(token).balanceOf(aavePool);\n  }\n  function balanceAave() public view returns (uint256) {\n    return IERC20(aaveToken).balanceOf(address(this));\n  }\n\n  function rebalance() public {\n    Lender newProvider = recommend();\n\n    if (newProvider != provider) {\n      _withdrawAll();\n    }\n\n    if (balance() > 0) {\n      if (newProvider == Lender.DYDX) {\n        _supplyDydx(balance());\n      } else if (newProvider == Lender.FULCRUM) {\n        _supplyFulcrum(balance());\n      } else if (newProvider == Lender.COMPOUND) {\n        _supplyCompound(balance());\n      } else if (newProvider == Lender.AAVE) {\n        _supplyAave(balance());\n      }\n    }\n\n    provider = newProvider;\n  }\n\n  function _withdrawAll() internal {\n    uint256 amount = balanceCompound();\n    if (amount > 0) {\n      _withdrawSomeCompound(balanceCompoundInToken().sub(1));\n    }\n    amount = balanceDydx();\n    if (amount > 0) {\n      if (amount > balanceDydxAvailable()) {\n        amount = balanceDydxAvailable();\n      }\n      _withdrawDydx(amount);\n    }\n    amount = balanceFulcrum();\n    if (amount > 0) {\n      if (amount > balanceFulcrumAvailable().sub(1)) {\n        amount = balanceFulcrumAvailable().sub(1);\n      }\n      _withdrawSomeFulcrum(amount);\n    }\n    amount = balanceAave();\n    if (amount > 0) {\n      if (amount > balanceAaveAvailable()) {\n        amount = balanceAaveAvailable();\n      }\n      _withdrawAave(amount);\n    }\n  }\n\n  function _withdrawSomeCompound(uint256 _amount) internal {\n    uint256 b = balanceCompound();\n    uint256 bT = balanceCompoundInToken();\n    require(bT >= _amount, \"insufficient funds\");\n    // can have unintentional rounding errors\n    uint256 amount = (b.mul(_amount)).div(bT).add(1);\n    _withdrawCompound(amount);\n  }\n\n  function _withdrawSomeFulcrum(uint256 _amount) internal {\n    uint256 b = balanceFulcrum();\n    uint256 bT = balanceFulcrumInToken();\n    require(bT >= _amount, \"insufficient funds\");\n    // can have unintentional rounding errors\n    uint256 amount = (b.mul(_amount)).div(bT).add(1);\n    _withdrawFulcrum(amount);\n  }\n\n\n  function _withdrawSome(uint256 _amount) internal returns (bool) {\n    uint256 origAmount = _amount;\n\n    uint256 amount = balanceCompound();\n    if (amount > 0) {\n      if (_amount > balanceCompoundInToken().sub(1)) {\n        _withdrawSomeCompound(balanceCompoundInToken().sub(1));\n        _amount = origAmount.sub(IERC20(token).balanceOf(address(this)));\n      } else {\n        _withdrawSomeCompound(_amount);\n        return true;\n      }\n    }\n\n    amount = balanceDydx();\n    if (amount > 0) {\n      if (_amount > balanceDydxAvailable()) {\n        _withdrawDydx(balanceDydxAvailable());\n        _amount = origAmount.sub(IERC20(token).balanceOf(address(this)));\n      } else {\n        _withdrawDydx(_amount);\n        return true;\n      }\n    }\n\n    amount = balanceFulcrum();\n    if (amount > 0) {\n      if (_amount > balanceFulcrumAvailable().sub(1)) {\n        amount = balanceFulcrumAvailable().sub(1);\n        _withdrawSomeFulcrum(balanceFulcrumAvailable().sub(1));\n        _amount = origAmount.sub(IERC20(token).balanceOf(address(this)));\n      } else {\n        _withdrawSomeFulcrum(amount);\n        return true;\n      }\n    }\n\n    amount = balanceAave();\n    if (amount > 0) {\n      if (_amount > balanceAaveAvailable()) {\n        _withdrawAave(balanceAaveAvailable());\n        _amount = origAmount.sub(IERC20(token).balanceOf(address(this)));\n      } else {\n        _withdrawAave(_amount);\n        return true;\n      }\n    }\n\n    return true;\n  }\n\n  function _supplyDydx(uint256 amount) internal {\n      Info[] memory infos = new Info[](1);\n      infos[0] = Info(address(this), 0);\n\n      AssetAmount memory amt = AssetAmount(true, AssetDenomination.Wei, AssetReference.Delta, amount);\n      ActionArgs memory act;\n      act.actionType = ActionType.Deposit;\n      act.accountId = 0;\n      act.amount = amt;\n      act.primaryMarketId = dToken;\n      act.otherAddress = address(this);\n\n      ActionArgs[] memory args = new ActionArgs[](1);\n      args[0] = act;\n\n      DyDx(dydx).operate(infos, args);\n  }\n\n  function _supplyAave(uint amount) internal {\n      Aave(getAave()).deposit(token, amount, 0);\n  }\n  function _supplyFulcrum(uint amount) internal {\n      require(Fulcrum(fulcrum).mint(address(this), amount) > 0, \"FULCRUM: supply failed\");\n  }\n  function _supplyCompound(uint amount) internal {\n      require(Compound(compound).mint(amount) == 0, \"COMPOUND: supply failed\");\n  }\n  function _withdrawAave(uint amount) internal {\n      AToken(aaveToken).redeem(amount);\n  }\n  function _withdrawFulcrum(uint amount) internal {\n      require(Fulcrum(fulcrum).burn(address(this), amount) > 0, \"FULCRUM: withdraw failed\");\n  }\n  function _withdrawCompound(uint amount) internal {\n      require(Compound(compound).redeem(amount) == 0, \"COMPOUND: withdraw failed\");\n  }\n\n  function _withdrawDydx(uint256 amount) internal {\n      Info[] memory infos = new Info[](1);\n      infos[0] = Info(address(this), 0);\n\n      AssetAmount memory amt = AssetAmount(false, AssetDenomination.Wei, AssetReference.Delta, amount);\n      ActionArgs memory act;\n      act.actionType = ActionType.Withdraw;\n      act.accountId = 0;\n      act.amount = amt;\n      act.primaryMarketId = dToken;\n      act.otherAddress = address(this);\n\n      ActionArgs[] memory args = new ActionArgs[](1);\n      args[0] = act;\n\n      DyDx(dydx).operate(infos, args);\n  }\n\n  function calcPoolValueInToken() public view returns (uint) {\n    return balanceCompoundInToken()\n      .add(balanceFulcrumInToken())\n      .add(balanceDydx())\n      .add(balanceAave())\n      .add(balance());\n  }\n\n  function getPricePerFullShare() public view returns (uint) {\n    uint _pool = calcPoolValueInToken();\n    return _pool.mul(1e18).div(totalSupply());\n  }\n}\n",
  "sourcePath": "D:/ftm/itoken/contracts/YDAIv4.sol",
  "compiler": {
    "name": "solc",
    "version": "0.5.12+commit.7709ece9.Emscripten.clang"
  },
  "schemaVersion": "3.0.19",
  "updatedAt": "2020-03-14T12:11:16.988Z",
  "devdoc": {
    "methods": {}
  },
  "userdoc": {
    "methods": {}
  }
}