{
  "contractName": "yDAI",
  "abi": [
    {
      "inputs": [],
      "payable": false,
      "stateMutability": "nonpayable",
      "type": "constructor"
    },
    {
      "anonymous": false,
      "inputs": [
        {
          "indexed": true,
          "internalType": "address",
          "name": "owner",
          "type": "address"
        },
        {
          "indexed": true,
          "internalType": "address",
          "name": "spender",
          "type": "address"
        },
        {
          "indexed": false,
          "internalType": "uint256",
          "name": "value",
          "type": "uint256"
        }
      ],
      "name": "Approval",
      "type": "event"
    },
    {
      "anonymous": false,
      "inputs": [
        {
          "indexed": true,
          "internalType": "address",
          "name": "previousOwner",
          "type": "address"
        },
        {
          "indexed": true,
          "internalType": "address",
          "name": "newOwner",
          "type": "address"
        }
      ],
      "name": "OwnershipTransferred",
      "type": "event"
    },
    {
      "anonymous": false,
      "inputs": [
        {
          "indexed": true,
          "internalType": "address",
          "name": "from",
          "type": "address"
        },
        {
          "indexed": true,
          "internalType": "address",
          "name": "to",
          "type": "address"
        },
        {
          "indexed": false,
          "internalType": "uint256",
          "name": "value",
          "type": "uint256"
        }
      ],
      "name": "Transfer",
      "type": "event"
    },
    {
      "payable": true,
      "stateMutability": "payable",
      "type": "fallback"
    },
    {
      "constant": true,
      "inputs": [],
      "name": "aave",
      "outputs": [
        {
          "internalType": "address",
          "name": "",
          "type": "address"
        }
      ],
      "payable": false,
      "stateMutability": "view",
      "type": "function"
    },
    {
      "constant": true,
      "inputs": [],
      "name": "aaveToken",
      "outputs": [
        {
          "internalType": "address",
          "name": "",
          "type": "address"
        }
      ],
      "payable": false,
      "stateMutability": "view",
      "type": "function"
    },
    {
      "constant": true,
      "inputs": [
        {
          "internalType": "address",
          "name": "owner",
          "type": "address"
        },
        {
          "internalType": "address",
          "name": "spender",
          "type": "address"
        }
      ],
      "name": "allowance",
      "outputs": [
        {
          "internalType": "uint256",
          "name": "",
          "type": "uint256"
        }
      ],
      "payable": false,
      "stateMutability": "view",
      "type": "function"
    },
    {
      "constant": false,
      "inputs": [
        {
          "internalType": "address",
          "name": "spender",
          "type": "address"
        },
        {
          "internalType": "uint256",
          "name": "amount",
          "type": "uint256"
        }
      ],
      "name": "approve",
      "outputs": [
        {
          "internalType": "bool",
          "name": "",
          "type": "bool"
        }
      ],
      "payable": false,
      "stateMutability": "nonpayable",
      "type": "function"
    },
    {
      "constant": true,
      "inputs": [],
      "name": "apr",
      "outputs": [
        {
          "internalType": "address",
          "name": "",
          "type": "address"
        }
      ],
      "payable": false,
      "stateMutability": "view",
      "type": "function"
    },
    {
      "constant": true,
      "inputs": [
        {
          "internalType": "address",
          "name": "account",
          "type": "address"
        }
      ],
      "name": "balanceOf",
      "outputs": [
        {
          "internalType": "uint256",
          "name": "",
          "type": "uint256"
        }
      ],
      "payable": false,
      "stateMutability": "view",
      "type": "function"
    },
    {
      "constant": true,
      "inputs": [],
      "name": "compound",
      "outputs": [
        {
          "internalType": "address",
          "name": "",
          "type": "address"
        }
      ],
      "payable": false,
      "stateMutability": "view",
      "type": "function"
    },
    {
      "constant": true,
      "inputs": [],
      "name": "dToken",
      "outputs": [
        {
          "internalType": "uint256",
          "name": "",
          "type": "uint256"
        }
      ],
      "payable": false,
      "stateMutability": "view",
      "type": "function"
    },
    {
      "constant": true,
      "inputs": [],
      "name": "decimals",
      "outputs": [
        {
          "internalType": "uint8",
          "name": "",
          "type": "uint8"
        }
      ],
      "payable": false,
      "stateMutability": "view",
      "type": "function"
    },
    {
      "constant": false,
      "inputs": [
        {
          "internalType": "address",
          "name": "spender",
          "type": "address"
        },
        {
          "internalType": "uint256",
          "name": "subtractedValue",
          "type": "uint256"
        }
      ],
      "name": "decreaseAllowance",
      "outputs": [
        {
          "internalType": "bool",
          "name": "",
          "type": "bool"
        }
      ],
      "payable": false,
      "stateMutability": "nonpayable",
      "type": "function"
    },
    {
      "constant": true,
      "inputs": [],
      "name": "dydx",
      "outputs": [
        {
          "internalType": "address",
          "name": "",
          "type": "address"
        }
      ],
      "payable": false,
      "stateMutability": "view",
      "type": "function"
    },
    {
      "constant": true,
      "inputs": [],
      "name": "fulcrum",
      "outputs": [
        {
          "internalType": "address",
          "name": "",
          "type": "address"
        }
      ],
      "payable": false,
      "stateMutability": "view",
      "type": "function"
    },
    {
      "constant": false,
      "inputs": [
        {
          "internalType": "address",
          "name": "spender",
          "type": "address"
        },
        {
          "internalType": "uint256",
          "name": "addedValue",
          "type": "uint256"
        }
      ],
      "name": "increaseAllowance",
      "outputs": [
        {
          "internalType": "bool",
          "name": "",
          "type": "bool"
        }
      ],
      "payable": false,
      "stateMutability": "nonpayable",
      "type": "function"
    },
    {
      "constant": true,
      "inputs": [],
      "name": "isOwner",
      "outputs": [
        {
          "internalType": "bool",
          "name": "",
          "type": "bool"
        }
      ],
      "payable": false,
      "stateMutability": "view",
      "type": "function"
    },
    {
      "constant": true,
      "inputs": [],
      "name": "name",
      "outputs": [
        {
          "internalType": "string",
          "name": "",
          "type": "string"
        }
      ],
      "payable": false,
      "stateMutability": "view",
      "type": "function"
    },
    {
      "constant": true,
      "inputs": [],
      "name": "owner",
      "outputs": [
        {
          "internalType": "address",
          "name": "",
          "type": "address"
        }
      ],
      "payable": false,
      "stateMutability": "view",
      "type": "function"
    },
    {
      "constant": true,
      "inputs": [],
      "name": "pool",
      "outputs": [
        {
          "internalType": "uint256",
          "name": "",
          "type": "uint256"
        }
      ],
      "payable": false,
      "stateMutability": "view",
      "type": "function"
    },
    {
      "constant": true,
      "inputs": [],
      "name": "provider",
      "outputs": [
        {
          "internalType": "enum yDAI.Lender",
          "name": "",
          "type": "uint8"
        }
      ],
      "payable": false,
      "stateMutability": "view",
      "type": "function"
    },
    {
      "constant": false,
      "inputs": [],
      "name": "renounceOwnership",
      "outputs": [],
      "payable": false,
      "stateMutability": "nonpayable",
      "type": "function"
    },
    {
      "constant": true,
      "inputs": [],
      "name": "symbol",
      "outputs": [
        {
          "internalType": "string",
          "name": "",
          "type": "string"
        }
      ],
      "payable": false,
      "stateMutability": "view",
      "type": "function"
    },
    {
      "constant": true,
      "inputs": [],
      "name": "token",
      "outputs": [
        {
          "internalType": "address",
          "name": "",
          "type": "address"
        }
      ],
      "payable": false,
      "stateMutability": "view",
      "type": "function"
    },
    {
      "constant": true,
      "inputs": [],
      "name": "totalSupply",
      "outputs": [
        {
          "internalType": "uint256",
          "name": "",
          "type": "uint256"
        }
      ],
      "payable": false,
      "stateMutability": "view",
      "type": "function"
    },
    {
      "constant": false,
      "inputs": [
        {
          "internalType": "address",
          "name": "recipient",
          "type": "address"
        },
        {
          "internalType": "uint256",
          "name": "amount",
          "type": "uint256"
        }
      ],
      "name": "transfer",
      "outputs": [
        {
          "internalType": "bool",
          "name": "",
          "type": "bool"
        }
      ],
      "payable": false,
      "stateMutability": "nonpayable",
      "type": "function"
    },
    {
      "constant": false,
      "inputs": [
        {
          "internalType": "address",
          "name": "sender",
          "type": "address"
        },
        {
          "internalType": "address",
          "name": "recipient",
          "type": "address"
        },
        {
          "internalType": "uint256",
          "name": "amount",
          "type": "uint256"
        }
      ],
      "name": "transferFrom",
      "outputs": [
        {
          "internalType": "bool",
          "name": "",
          "type": "bool"
        }
      ],
      "payable": false,
      "stateMutability": "nonpayable",
      "type": "function"
    },
    {
      "constant": false,
      "inputs": [
        {
          "internalType": "address",
          "name": "newOwner",
          "type": "address"
        }
      ],
      "name": "transferOwnership",
      "outputs": [],
      "payable": false,
      "stateMutability": "nonpayable",
      "type": "function"
    },
    {
      "constant": false,
      "inputs": [
        {
          "internalType": "address",
          "name": "_new_AAVE",
          "type": "address"
        }
      ],
      "name": "set_new_AAVE",
      "outputs": [],
      "payable": false,
      "stateMutability": "nonpayable",
      "type": "function"
    },
    {
      "constant": false,
      "inputs": [
        {
          "internalType": "address",
          "name": "_new_DYDX",
          "type": "address"
        }
      ],
      "name": "set_new_DYDX",
      "outputs": [],
      "payable": false,
      "stateMutability": "nonpayable",
      "type": "function"
    },
    {
      "constant": false,
      "inputs": [
        {
          "internalType": "address",
          "name": "_new_APR",
          "type": "address"
        }
      ],
      "name": "set_new_APR",
      "outputs": [],
      "payable": false,
      "stateMutability": "nonpayable",
      "type": "function"
    },
    {
      "constant": false,
      "inputs": [
        {
          "internalType": "address",
          "name": "_new_FULCRUM",
          "type": "address"
        }
      ],
      "name": "set_new_FULCRUM",
      "outputs": [],
      "payable": false,
      "stateMutability": "nonpayable",
      "type": "function"
    },
    {
      "constant": false,
      "inputs": [
        {
          "internalType": "address",
          "name": "_new_ATOKEN",
          "type": "address"
        }
      ],
      "name": "set_new_ATOKEN",
      "outputs": [],
      "payable": false,
      "stateMutability": "nonpayable",
      "type": "function"
    },
    {
      "constant": false,
      "inputs": [
        {
          "internalType": "address",
          "name": "_new_COMPOUND",
          "type": "address"
        }
      ],
      "name": "set_new_COMPOUND",
      "outputs": [],
      "payable": false,
      "stateMutability": "nonpayable",
      "type": "function"
    },
    {
      "constant": false,
      "inputs": [
        {
          "internalType": "uint256",
          "name": "_new_DTOKEN",
          "type": "uint256"
        }
      ],
      "name": "set_new_DTOKEN",
      "outputs": [],
      "payable": false,
      "stateMutability": "nonpayable",
      "type": "function"
    },
    {
      "constant": true,
      "inputs": [],
      "name": "recommend",
      "outputs": [
        {
          "internalType": "enum yDAI.Lender",
          "name": "",
          "type": "uint8"
        }
      ],
      "payable": false,
      "stateMutability": "view",
      "type": "function"
    },
    {
      "constant": false,
      "inputs": [
        {
          "internalType": "uint256",
          "name": "amount",
          "type": "uint256"
        }
      ],
      "name": "supplyDydx",
      "outputs": [
        {
          "internalType": "uint256",
          "name": "",
          "type": "uint256"
        }
      ],
      "payable": false,
      "stateMutability": "nonpayable",
      "type": "function"
    },
    {
      "constant": false,
      "inputs": [
        {
          "internalType": "uint256",
          "name": "amount",
          "type": "uint256"
        }
      ],
      "name": "withdrawDydx",
      "outputs": [],
      "payable": false,
      "stateMutability": "nonpayable",
      "type": "function"
    },
    {
      "constant": true,
      "inputs": [],
      "name": "balance",
      "outputs": [
        {
          "internalType": "uint256",
          "name": "",
          "type": "uint256"
        }
      ],
      "payable": false,
      "stateMutability": "view",
      "type": "function"
    },
    {
      "constant": true,
      "inputs": [],
      "name": "getAave",
      "outputs": [
        {
          "internalType": "address",
          "name": "",
          "type": "address"
        }
      ],
      "payable": false,
      "stateMutability": "view",
      "type": "function"
    },
    {
      "constant": true,
      "inputs": [],
      "name": "getAaveCore",
      "outputs": [
        {
          "internalType": "address",
          "name": "",
          "type": "address"
        }
      ],
      "payable": false,
      "stateMutability": "view",
      "type": "function"
    },
    {
      "constant": false,
      "inputs": [],
      "name": "approveToken",
      "outputs": [],
      "payable": false,
      "stateMutability": "nonpayable",
      "type": "function"
    },
    {
      "constant": true,
      "inputs": [],
      "name": "balanceDydx",
      "outputs": [
        {
          "internalType": "uint256",
          "name": "",
          "type": "uint256"
        }
      ],
      "payable": false,
      "stateMutability": "view",
      "type": "function"
    },
    {
      "constant": true,
      "inputs": [],
      "name": "balanceCompound",
      "outputs": [
        {
          "internalType": "uint256",
          "name": "",
          "type": "uint256"
        }
      ],
      "payable": false,
      "stateMutability": "view",
      "type": "function"
    },
    {
      "constant": true,
      "inputs": [],
      "name": "balanceCompoundInToken",
      "outputs": [
        {
          "internalType": "uint256",
          "name": "",
          "type": "uint256"
        }
      ],
      "payable": false,
      "stateMutability": "view",
      "type": "function"
    },
    {
      "constant": true,
      "inputs": [],
      "name": "balanceFulcrumInToken",
      "outputs": [
        {
          "internalType": "uint256",
          "name": "",
          "type": "uint256"
        }
      ],
      "payable": false,
      "stateMutability": "view",
      "type": "function"
    },
    {
      "constant": true,
      "inputs": [],
      "name": "balanceFulcrum",
      "outputs": [
        {
          "internalType": "uint256",
          "name": "",
          "type": "uint256"
        }
      ],
      "payable": false,
      "stateMutability": "view",
      "type": "function"
    },
    {
      "constant": true,
      "inputs": [],
      "name": "balanceAave",
      "outputs": [
        {
          "internalType": "uint256",
          "name": "",
          "type": "uint256"
        }
      ],
      "payable": false,
      "stateMutability": "view",
      "type": "function"
    },
    {
      "constant": false,
      "inputs": [],
      "name": "withdrawAll",
      "outputs": [],
      "payable": false,
      "stateMutability": "nonpayable",
      "type": "function"
    },
    {
      "constant": false,
      "inputs": [
        {
          "internalType": "uint256",
          "name": "_amount",
          "type": "uint256"
        }
      ],
      "name": "withdrawSomeCompound",
      "outputs": [],
      "payable": false,
      "stateMutability": "nonpayable",
      "type": "function"
    },
    {
      "constant": false,
      "inputs": [
        {
          "internalType": "uint256",
          "name": "_amount",
          "type": "uint256"
        }
      ],
      "name": "withdrawSome",
      "outputs": [],
      "payable": false,
      "stateMutability": "nonpayable",
      "type": "function"
    },
    {
      "constant": false,
      "inputs": [],
      "name": "rebalance",
      "outputs": [],
      "payable": false,
      "stateMutability": "nonpayable",
      "type": "function"
    },
    {
      "constant": false,
      "inputs": [
        {
          "internalType": "uint256",
          "name": "amount",
          "type": "uint256"
        }
      ],
      "name": "supplyAave",
      "outputs": [],
      "payable": false,
      "stateMutability": "nonpayable",
      "type": "function"
    },
    {
      "constant": false,
      "inputs": [
        {
          "internalType": "uint256",
          "name": "amount",
          "type": "uint256"
        }
      ],
      "name": "supplyFulcrum",
      "outputs": [],
      "payable": false,
      "stateMutability": "nonpayable",
      "type": "function"
    },
    {
      "constant": false,
      "inputs": [
        {
          "internalType": "uint256",
          "name": "amount",
          "type": "uint256"
        }
      ],
      "name": "supplyCompound",
      "outputs": [],
      "payable": false,
      "stateMutability": "nonpayable",
      "type": "function"
    },
    {
      "constant": false,
      "inputs": [
        {
          "internalType": "uint256",
          "name": "amount",
          "type": "uint256"
        }
      ],
      "name": "withdrawAave",
      "outputs": [],
      "payable": false,
      "stateMutability": "nonpayable",
      "type": "function"
    },
    {
      "constant": false,
      "inputs": [
        {
          "internalType": "uint256",
          "name": "amount",
          "type": "uint256"
        }
      ],
      "name": "withdrawFulcrum",
      "outputs": [],
      "payable": false,
      "stateMutability": "nonpayable",
      "type": "function"
    },
    {
      "constant": false,
      "inputs": [
        {
          "internalType": "uint256",
          "name": "amount",
          "type": "uint256"
        }
      ],
      "name": "withdrawCompound",
      "outputs": [],
      "payable": false,
      "stateMutability": "nonpayable",
      "type": "function"
    },
    {
      "constant": false,
      "inputs": [
        {
          "internalType": "uint256",
          "name": "_amount",
          "type": "uint256"
        }
      ],
      "name": "invest",
      "outputs": [],
      "payable": false,
      "stateMutability": "nonpayable",
      "type": "function"
    },
    {
      "constant": false,
      "inputs": [],
      "name": "investSelf",
      "outputs": [],
      "payable": false,
      "stateMutability": "nonpayable",
      "type": "function"
    },
    {
      "constant": true,
      "inputs": [],
      "name": "calcPoolValueInToken",
      "outputs": [
        {
          "internalType": "uint256",
          "name": "",
          "type": "uint256"
        }
      ],
      "payable": false,
      "stateMutability": "view",
      "type": "function"
    },
    {
      "constant": true,
      "inputs": [],
      "name": "getPricePerFullShare",
      "outputs": [
        {
          "internalType": "uint256",
          "name": "",
          "type": "uint256"
        }
      ],
      "payable": false,
      "stateMutability": "view",
      "type": "function"
    },
    {
      "constant": false,
      "inputs": [
        {
          "internalType": "uint256",
          "name": "_shares",
          "type": "uint256"
        }
      ],
      "name": "redeem",
      "outputs": [],
      "payable": false,
      "stateMutability": "nonpayable",
      "type": "function"
    },
    {
      "constant": false,
      "inputs": [
        {
          "internalType": "contract IERC20",
          "name": "_TokenAddress",
          "type": "address"
        }
      ],
      "name": "inCaseTokenGetsStuck",
      "outputs": [],
      "payable": false,
      "stateMutability": "nonpayable",
      "type": "function"
    },
    {
      "constant": false,
      "inputs": [],
      "name": "inCaseETHGetsStuck",
      "outputs": [],
      "payable": false,
      "stateMutability": "nonpayable",
      "type": "function"
    }
  ],
  "bytecode": "0x60806040526000601060146101000a81548160ff021916908360048111156200002457fe5b02179055503480156200003657600080fd5b506040518060400160405280600481526020017f79444149000000000000000000000000000000000000000000000000000000008152506040518060400160405280600481526020017f794441490000000000000000000000000000000000000000000000000000000081525060128260039080519060200190620000bd92919062000a4d565b508160049080519060200190620000d692919062000a4d565b5080600560006101000a81548160ff021916908360ff16021790555050505060016006819055506200010d6200043b60201b60201c565b600760006101000a81548173ffffffffffffffffffffffffffffffffffffffff021916908373ffffffffffffffffffffffffffffffffffffffff160217905550600760009054906101000a900473ffffffffffffffffffffffffffffffffffffffff1673ffffffffffffffffffffffffffffffffffffffff16600073ffffffffffffffffffffffffffffffffffffffff167f8be0079c531659141344cd1fd0a4f28419497f9722a3daafe3b4186f6b6457e060405160405180910390a3736b175474e89094c44da98b954eedeac495271d0f600960006101000a81548173ffffffffffffffffffffffffffffffffffffffff021916908373ffffffffffffffffffffffffffffffffffffffff16021790555073318135fbd0b40d48fcef431ccdf6c7926450edfb601060006101000a81548173ffffffffffffffffffffffffffffffffffffffff021916908373ffffffffffffffffffffffffffffffffffffffff160217905550731e0447b19bb6ecfdae1e4ae1694b0c3659614e4e600e60006101000a81548173ffffffffffffffffffffffffffffffffffffffff021916908373ffffffffffffffffffffffffffffffffffffffff1602179055507324a42fd28c976a61df5d00d0599c34c4f90748c8600c60006101000a81548173ffffffffffffffffffffffffffffffffffffffff021916908373ffffffffffffffffffffffffffffffffffffffff16021790555073493c57c4763932315a328269e1adad09653b9081600b60006101000a81548173ffffffffffffffffffffffffffffffffffffffff021916908373ffffffffffffffffffffffffffffffffffffffff16021790555073fc1e690f61efd961294b3e1ce3313fbd8aa4f85d600d60006101000a81548173ffffffffffffffffffffffffffffffffffffffff021916908373ffffffffffffffffffffffffffffffffffffffff160217905550735d3a536e4d6dbd6114cc1ead35777bab948e3643600a60006101000a81548173ffffffffffffffffffffffffffffffffffffffff021916908373ffffffffffffffffffffffffffffffffffffffff1602179055506003600f81905550620004356200044360201b60201c565b62000c4f565b600033905090565b600960009054906101000a900473ffffffffffffffffffffffffffffffffffffffff1673ffffffffffffffffffffffffffffffffffffffff1663095ea7b3600a60009054906101000a900473ffffffffffffffffffffffffffffffffffffffff167fffffffffffffffffffffffffffffffffffffffffffffffffffffffffffffffff6040518363ffffffff1660e01b8152600401620004e492919062000ba4565b602060405180830381600087803b158015620004ff57600080fd5b505af115801562000514573d6000803e3d6000fd5b505050506040513d601f19601f820116820180604052506200053a919081019062000b56565b50600960009054906101000a900473ffffffffffffffffffffffffffffffffffffffff1673ffffffffffffffffffffffffffffffffffffffff1663095ea7b3600e60009054906101000a900473ffffffffffffffffffffffffffffffffffffffff167fffffffffffffffffffffffffffffffffffffffffffffffffffffffffffffffff6040518363ffffffff1660e01b8152600401620005dc92919062000ba4565b602060405180830381600087803b158015620005f757600080fd5b505af11580156200060c573d6000803e3d6000fd5b505050506040513d601f19601f8201168201806040525062000632919081019062000b56565b50600960009054906101000a900473ffffffffffffffffffffffffffffffffffffffff1673ffffffffffffffffffffffffffffffffffffffff1663095ea7b362000681620008f760201b60201c565b7fffffffffffffffffffffffffffffffffffffffffffffffffffffffffffffffff6040518363ffffffff1660e01b8152600401620006c192919062000ba4565b602060405180830381600087803b158015620006dc57600080fd5b505af1158015620006f1573d6000803e3d6000fd5b505050506040513d601f19601f8201168201806040525062000717919081019062000b56565b50600960009054906101000a900473ffffffffffffffffffffffffffffffffffffffff1673ffffffffffffffffffffffffffffffffffffffff1663095ea7b362000766620009a260201b60201c565b7fffffffffffffffffffffffffffffffffffffffffffffffffffffffffffffffff6040518363ffffffff1660e01b8152600401620007a692919062000ba4565b602060405180830381600087803b158015620007c157600080fd5b505af1158015620007d6573d6000803e3d6000fd5b505050506040513d601f19601f82011682018060405250620007fc919081019062000b56565b50600960009054906101000a900473ffffffffffffffffffffffffffffffffffffffff1673ffffffffffffffffffffffffffffffffffffffff1663095ea7b3600b60009054906101000a900473ffffffffffffffffffffffffffffffffffffffff167fffffffffffffffffffffffffffffffffffffffffffffffffffffffffffffffff6040518363ffffffff1660e01b81526004016200089e92919062000ba4565b602060405180830381600087803b158015620008b957600080fd5b505af1158015620008ce573d6000803e3d6000fd5b505050506040513d601f19601f82011682018060405250620008f4919081019062000b56565b50565b6000600c60009054906101000a900473ffffffffffffffffffffffffffffffffffffffff1673ffffffffffffffffffffffffffffffffffffffff16630261bf8b6040518163ffffffff1660e01b815260040160206040518083038186803b1580156200096257600080fd5b505afa15801562000977573d6000803e3d6000fd5b505050506040513d601f19601f820116820180604052506200099d919081019062000b2a565b905090565b6000600c60009054906101000a900473ffffffffffffffffffffffffffffffffffffffff1673ffffffffffffffffffffffffffffffffffffffff1663ed6ff7606040518163ffffffff1660e01b815260040160206040518083038186803b15801562000a0d57600080fd5b505afa15801562000a22573d6000803e3d6000fd5b505050506040513d601f19601f8201168201806040525062000a48919081019062000b2a565b905090565b828054600181600116156101000203166002900490600052602060002090601f016020900481019282601f1062000a9057805160ff191683800117855562000ac1565b8280016001018555821562000ac1579182015b8281111562000ac057825182559160200191906001019062000aa3565b5b50905062000ad0919062000ad4565b5090565b62000af991905b8082111562000af557600081600090555060010162000adb565b5090565b90565b60008151905062000b0d8162000c1b565b92915050565b60008151905062000b248162000c35565b92915050565b60006020828403121562000b3d57600080fd5b600062000b4d8482850162000afc565b91505092915050565b60006020828403121562000b6957600080fd5b600062000b798482850162000b13565b91505092915050565b62000b8d8162000bd1565b82525050565b62000b9e8162000c11565b82525050565b600060408201905062000bbb600083018562000b82565b62000bca602083018462000b93565b9392505050565b600062000bde8262000bf1565b9050919050565b60008115159050919050565b600073ffffffffffffffffffffffffffffffffffffffff82169050919050565b6000819050919050565b62000c268162000bd1565b811462000c3257600080fd5b50565b62000c408162000be5565b811462000c4c57600080fd5b50565b615ddc8062000c5f6000396000f3fe6080604052600436106103ad5760003560e01c8063812adb06116101e7578063b30d0bb21161010d578063f2fde38b116100a0578063f69e20461161006f578063f69e204614610d5d578063f7c1ec7714610d88578063f82ce27d14610db3578063fc0c546a14610dde576103ad565b8063f2fde38b14610cc9578063f5a41dea14610cf2578063f5ff191614610d1d578063f60a15ed14610d46576103ad565b8063d9d7858a116100dc578063d9d7858a14610c0f578063db006a7514610c3a578063dd62ed3e14610c63578063e849d65914610ca0576103ad565b8063b30d0bb214610b67578063b69ef8a814610b90578063bbf3164414610bbb578063cf8ca42614610be4576103ad565b806399b71d5c11610185578063a728797111610154578063a728797114610aad578063a9059cbb14610ad8578063a9de245b14610b15578063ae9b051c14610b3e576103ad565b806399b71d5c14610a055780639ff011b914610a1c578063a160176d14610a45578063a457c2d714610a70576103ad565b80638da5cb5b116101c15780638da5cb5b146109595780638e4ec6ef146109845780638f32d59b146109af57806395d89b41146109da576103ad565b8063812adb06146108ee578063819faf7b14610917578063853828b614610942576103ad565b806339c0a7e1116102d757806361c1ec551161026a578063715018a611610239578063715018a61461086c57806377c7b8fc146108835780637d7c2a1c146108ae5780638124955c146108c5576103ad565b806361c1ec55146107b057806365aab749146107db57806370a08231146108045780637137ef9914610841576103ad565b80635762bbd9116102a65780635762bbd91461070857806357b875431461073157806357ded9c91461075a57806358782c2114610785576103ad565b806339c0a7e11461066257806341c57c8d1461068d57806346357473146106b657806356cc9378146106df576103ad565b806318160ddd1161034f5780632e8d6e181161031e5780632e8d6e18146105ba578063313ce567146105e3578063395093511461060e5780633990ab4f1461064b576103ad565b806318160ddd1461050057806323b872dd1461052b5780632afcf480146105685780632c7a5ae414610591576103ad565b8063085d48831161038b578063085d488314610442578063095ea7b31461046d5780630eb2a267146104aa57806316f0115b146104d5576103ad565b806306636c1c146103af57806306a3fe59146103ec57806306fdde0314610417575b005b3480156103bb57600080fd5b506103d660048036036103d19190810190614bf0565b610e09565b6040516103e391906159bd565b60405180910390f35b3480156103f857600080fd5b50610401611047565b60405161040e91906155af565b60405180910390f35b34801561042357600080fd5b5061042c61106d565b6040516104399190615712565b60405180910390f35b34801561044e57600080fd5b5061045761110f565b60405161046491906156f7565b60405180910390f35b34801561047957600080fd5b50610494600480360361048f9190810190614aaa565b611122565b6040516104a191906156dc565b60405180910390f35b3480156104b657600080fd5b506104bf611140565b6040516104cc91906159bd565b60405180910390f35b3480156104e157600080fd5b506104ea6111f2565b6040516104f791906159bd565b60405180910390f35b34801561050c57600080fd5b506105156111f8565b60405161052291906159bd565b60405180910390f35b34801561053757600080fd5b50610552600480360361054d9190810190614a5b565b611202565b60405161055f91906156dc565b60405180910390f35b34801561057457600080fd5b5061058f600480360361058a9190810190614bf0565b6112db565b005b34801561059d57600080fd5b506105b860048036036105b391908101906149cd565b6114aa565b005b3480156105c657600080fd5b506105e160048036036105dc9190810190614b0f565b611535565b005b3480156105ef57600080fd5b506105f861169b565b60405161060591906159d8565b60405180910390f35b34801561061a57600080fd5b5061063560048036036106309190810190614aaa565b6116b2565b60405161064291906156dc565b60405180910390f35b34801561065757600080fd5b50610660611765565b005b34801561066e57600080fd5b50610677611914565b60405161068491906159bd565b60405180910390f35b34801561069957600080fd5b506106b460048036036106af9190810190614bf0565b611a04565b005b3480156106c257600080fd5b506106dd60048036036106d891908101906149cd565b611c3e565b005b3480156106eb57600080fd5b5061070660048036036107019190810190614bf0565b611cc9565b005b34801561071457600080fd5b5061072f600480360361072a9190810190614bf0565b611d59565b005b34801561073d57600080fd5b5061075860048036036107539190810190614bf0565b611e4d565b005b34801561076657600080fd5b5061076f611f3f565b60405161077c91906155af565b60405180910390f35b34801561079157600080fd5b5061079a611f65565b6040516107a791906155af565b60405180910390f35b3480156107bc57600080fd5b506107c5611f8b565b6040516107d291906159bd565b60405180910390f35b3480156107e757600080fd5b5061080260048036036107fd9190810190614bf0565b61203d565b005b34801561081057600080fd5b5061082b600480360361082691908101906149cd565b6120d9565b60405161083891906159bd565b60405180910390f35b34801561084d57600080fd5b50610856612121565b60405161086391906159bd565b60405180910390f35b34801561087857600080fd5b50610881612194565b005b34801561088f57600080fd5b5061089861229c565b6040516108a591906159bd565b60405180910390f35b3480156108ba57600080fd5b506108c36122de565b005b3480156108d157600080fd5b506108ec60048036036108e79190810190614bf0565b612416565b005b3480156108fa57600080fd5b50610915600480360361091091908101906149cd565b61250a565b005b34801561092357600080fd5b5061092c612595565b60405161093991906155af565b60405180910390f35b34801561094e57600080fd5b506109576125bb565b005b34801561096557600080fd5b5061096e612634565b60405161097b91906155af565b60405180910390f35b34801561099057600080fd5b5061099961265e565b6040516109a691906155af565b60405180910390f35b3480156109bb57600080fd5b506109c4612684565b6040516109d191906156dc565b60405180910390f35b3480156109e657600080fd5b506109ef6126e3565b6040516109fc9190615712565b60405180910390f35b348015610a1157600080fd5b50610a1a612785565b005b348015610a2857600080fd5b50610a436004803603610a3e9190810190614bf0565b612c0b565b005b348015610a5157600080fd5b50610a5a612c5c565b604051610a6791906156f7565b60405180910390f35b348015610a7c57600080fd5b50610a976004803603610a929190810190614aaa565b612db9565b604051610aa491906156dc565b60405180910390f35b348015610ab957600080fd5b50610ac2612e86565b604051610acf91906159bd565b60405180910390f35b348015610ae457600080fd5b50610aff6004803603610afa9190810190614aaa565b612f72565b604051610b0c91906156dc565b60405180910390f35b348015610b2157600080fd5b50610b3c6004803603610b3791908101906149cd565b612f90565b005b348015610b4a57600080fd5b50610b656004803603610b609190810190614bf0565b61301b565b005b348015610b7357600080fd5b50610b8e6004803603610b899190810190614bf0565b613191565b005b348015610b9c57600080fd5b50610ba5613224565b604051610bb291906159bd565b60405180910390f35b348015610bc757600080fd5b50610be26004803603610bdd91908101906149cd565b6132d6565b005b348015610bf057600080fd5b50610bf9613361565b604051610c0691906159bd565b60405180910390f35b348015610c1b57600080fd5b50610c24613413565b604051610c3191906159bd565b60405180910390f35b348015610c4657600080fd5b50610c616004803603610c5c9190810190614bf0565b613419565b005b348015610c6f57600080fd5b50610c8a6004803603610c859190810190614a1f565b61381c565b604051610c9791906159bd565b60405180910390f35b348015610cac57600080fd5b50610cc76004803603610cc29190810190614bf0565b6138a3565b005b348015610cd557600080fd5b50610cf06004803603610ceb91908101906149cd565b613995565b005b348015610cfe57600080fd5b50610d076139e8565b604051610d1491906159bd565b60405180910390f35b348015610d2957600080fd5b50610d446004803603610d3f91908101906149cd565b613ab3565b005b348015610d5257600080fd5b50610d5b613b3e565b005b348015610d6957600080fd5b50610d72613c4b565b604051610d7f91906155af565b60405180910390f35b348015610d9457600080fd5b50610d9d613c71565b604051610daa91906155af565b60405180910390f35b348015610dbf57600080fd5b50610dc8613d18565b604051610dd591906155af565b60405180910390f35b348015610dea57600080fd5b50610df3613dbf565b604051610e0091906155af565b60405180910390f35b600060606001604051908082528060200260200182016040528015610e4857816020015b610e3561470f565b815260200190600190039081610e2d5790505b50905060405180604001604052803073ffffffffffffffffffffffffffffffffffffffff168152602001600081525081600081518110610e8457fe5b6020026020010181905250610e9761473f565b6040518060800160405280600115158152602001600080811115610eb757fe5b8152602001600080811115610ec857fe5b8152602001858152509050610edb61477d565b600081600001906001811115610eed57fe5b90816001811115610efa57fe5b815250506000816020018181525050818160400181905250600f54816060018181525050308160a0019073ffffffffffffffffffffffffffffffffffffffff16908173ffffffffffffffffffffffffffffffffffffffff168152505060606001604051908082528060200260200182016040528015610f9357816020015b610f806147e9565b815260200190600190039081610f785790505b5090508181600081518110610fa457fe5b6020026020010181905250600e60009054906101000a900473ffffffffffffffffffffffffffffffffffffffff1673ffffffffffffffffffffffffffffffffffffffff1663a67a6a4585836040518363ffffffff1660e01b815260040161100c9291906156a5565b600060405180830381600087803b15801561102657600080fd5b505af115801561103a573d6000803e3d6000fd5b5050505050505050919050565b600d60009054906101000a900473ffffffffffffffffffffffffffffffffffffffff1681565b606060038054600181600116156101000203166002900480601f0160208091040260200160405190810160405280929190818152602001828054600181600116156101000203166002900480156111055780601f106110da57610100808354040283529160200191611105565b820191906000526020600020905b8154815290600101906020018083116110e857829003601f168201915b5050505050905090565b601060149054906101000a900460ff1681565b600061113661112f613de5565b8484613ded565b6001905092915050565b6000600b60009054906101000a900473ffffffffffffffffffffffffffffffffffffffff1673ffffffffffffffffffffffffffffffffffffffff166370a08231306040518263ffffffff1660e01b815260040161119d91906155ca565b60206040518083038186803b1580156111b557600080fd5b505afa1580156111c9573d6000803e3d6000fd5b505050506040513d601f19601f820116820180604052506111ed9190810190614c19565b905090565b60085481565b6000600254905090565b600061120f848484613fb8565b6112d08461121b613de5565b6112cb85604051806060016040528060288152602001615d4d60289139600160008b73ffffffffffffffffffffffffffffffffffffffff1673ffffffffffffffffffffffffffffffffffffffff1681526020019081526020016000206000611281613de5565b73ffffffffffffffffffffffffffffffffffffffff1673ffffffffffffffffffffffffffffffffffffffff168152602001908152602001600020546142429092919063ffffffff16565b613ded565b600190509392505050565b60016006600082825401925050819055506000600654905060008211611336576040517f08c379a000000000000000000000000000000000000000000000000000000000815260040161132d90615914565b60405180910390fd5b61133e612121565b600881905550600960009054906101000a900473ffffffffffffffffffffffffffffffffffffffff1673ffffffffffffffffffffffffffffffffffffffff166323b872dd3330856040518463ffffffff1660e01b81526004016113a3939291906155e5565b602060405180830381600087803b1580156113bd57600080fd5b505af11580156113d1573d6000803e3d6000fd5b505050506040513d601f19601f820116820180604052506113f59190810190614ae6565b506113fe6122de565b60008090506000600854141561141d5782905082600881905550611449565b6114466008546114386002548661429d90919063ffffffff16565b61430d90919063ffffffff16565b90505b611451612121565b6008819055506114613382614357565b5060065481146114a6576040517f08c379a000000000000000000000000000000000000000000000000000000000815260040161149d90615954565b60405180910390fd5b5050565b6114b2612684565b6114f1576040517f08c379a00000000000000000000000000000000000000000000000000000000081526004016114e890615854565b60405180910390fd5b80600e60006101000a81548173ffffffffffffffffffffffffffffffffffffffff021916908373ffffffffffffffffffffffffffffffffffffffff16021790555050565b61153d612684565b61157c576040517f08c379a000000000000000000000000000000000000000000000000000000000815260040161157390615854565b60405180910390fd5b60008173ffffffffffffffffffffffffffffffffffffffff166370a08231306040518263ffffffff1660e01b81526004016115b791906155ca565b60206040518083038186803b1580156115cf57600080fd5b505afa1580156115e3573d6000803e3d6000fd5b505050506040513d601f19601f820116820180604052506116079190810190614c19565b90508173ffffffffffffffffffffffffffffffffffffffff1663a9059cbb33836040518363ffffffff1660e01b815260040161164492919061561c565b602060405180830381600087803b15801561165e57600080fd5b505af1158015611672573d6000803e3d6000fd5b505050506040513d601f19601f820116820180604052506116969190810190614ae6565b505050565b6000600560009054906101000a900460ff16905090565b600061175b6116bf613de5565b8461175685600160006116d0613de5565b73ffffffffffffffffffffffffffffffffffffffff1673ffffffffffffffffffffffffffffffffffffffff16815260200190815260200160002060008973ffffffffffffffffffffffffffffffffffffffff1673ffffffffffffffffffffffffffffffffffffffff168152602001908152602001600020546144df90919063ffffffff16565b613ded565b6001905092915050565b600160066000828254019250508190555060006006549050611785612684565b6117c4576040517f08c379a00000000000000000000000000000000000000000000000000000000081526004016117bb90615854565b60405180910390fd5b6000600960009054906101000a900473ffffffffffffffffffffffffffffffffffffffff1673ffffffffffffffffffffffffffffffffffffffff166370a08231306040518263ffffffff1660e01b815260040161182191906155ca565b60206040518083038186803b15801561183957600080fd5b505afa15801561184d573d6000803e3d6000fd5b505050506040513d601f19601f820116820180604052506118719190810190614c19565b9050600081116118b6576040517f08c379a00000000000000000000000000000000000000000000000000000000081526004016118ad90615914565b60405180910390fd5b6118be6122de565b6118c6612121565b600881905550506006548114611911576040517f08c379a000000000000000000000000000000000000000000000000000000000815260040161190890615954565b60405180910390fd5b50565b600061191e614855565b600e60009054906101000a900473ffffffffffffffffffffffffffffffffffffffff1673ffffffffffffffffffffffffffffffffffffffff1663c190c2ec60405180604001604052803073ffffffffffffffffffffffffffffffffffffffff1681526020016000815250600f546040518363ffffffff1660e01b81526004016119a8929190615994565b604080518083038186803b1580156119bf57600080fd5b505afa1580156119d3573d6000803e3d6000fd5b505050506040513d601f19601f820116820180604052506119f79190810190614bc7565b9050806020015191505090565b60606001604051908082528060200260200182016040528015611a4157816020015b611a2e61470f565b815260200190600190039081611a265790505b50905060405180604001604052803073ffffffffffffffffffffffffffffffffffffffff168152602001600081525081600081518110611a7d57fe5b6020026020010181905250611a9061473f565b6040518060800160405280600015158152602001600080811115611ab057fe5b8152602001600080811115611ac157fe5b8152602001848152509050611ad461477d565b600181600001906001811115611ae657fe5b90816001811115611af357fe5b815250506000816020018181525050818160400181905250600f54816060018181525050308160a0019073ffffffffffffffffffffffffffffffffffffffff16908173ffffffffffffffffffffffffffffffffffffffff168152505060606001604051908082528060200260200182016040528015611b8c57816020015b611b796147e9565b815260200190600190039081611b715790505b5090508181600081518110611b9d57fe5b6020026020010181905250600e60009054906101000a900473ffffffffffffffffffffffffffffffffffffffff1673ffffffffffffffffffffffffffffffffffffffff1663a67a6a4585836040518363ffffffff1660e01b8152600401611c059291906156a5565b600060405180830381600087803b158015611c1f57600080fd5b505af1158015611c33573d6000803e3d6000fd5b505050505050505050565b611c46612684565b611c85576040517f08c379a0000000000000000000000000000000000000000000000000000000008152600401611c7c90615854565b60405180910390fd5b80601060006101000a81548173ffffffffffffffffffffffffffffffffffffffff021916908373ffffffffffffffffffffffffffffffffffffffff16021790555050565b600d60009054906101000a900473ffffffffffffffffffffffffffffffffffffffff1673ffffffffffffffffffffffffffffffffffffffff1663db006a75826040518263ffffffff1660e01b8152600401611d2491906159bd565b600060405180830381600087803b158015611d3e57600080fd5b505af1158015611d52573d6000803e3d6000fd5b5050505050565b6000600b60009054906101000a900473ffffffffffffffffffffffffffffffffffffffff1673ffffffffffffffffffffffffffffffffffffffff16639dc29fac30846040518363ffffffff1660e01b8152600401611db892919061561c565b602060405180830381600087803b158015611dd257600080fd5b505af1158015611de6573d6000803e3d6000fd5b505050506040513d601f19601f82011682018060405250611e0a9190810190614c19565b11611e4a576040517f08c379a0000000000000000000000000000000000000000000000000000000008152600401611e4190615834565b60405180910390fd5b50565b6000600a60009054906101000a900473ffffffffffffffffffffffffffffffffffffffff1673ffffffffffffffffffffffffffffffffffffffff1663db006a75836040518263ffffffff1660e01b8152600401611eaa91906159bd565b602060405180830381600087803b158015611ec457600080fd5b505af1158015611ed8573d6000803e3d6000fd5b505050506040513d601f19601f82011682018060405250611efc9190810190614c19565b14611f3c576040517f08c379a0000000000000000000000000000000000000000000000000000000008152600401611f3390615754565b60405180910390fd5b50565b601060009054906101000a900473ffffffffffffffffffffffffffffffffffffffff1681565b600b60009054906101000a900473ffffffffffffffffffffffffffffffffffffffff1681565b6000600a60009054906101000a900473ffffffffffffffffffffffffffffffffffffffff1673ffffffffffffffffffffffffffffffffffffffff166370a08231306040518263ffffffff1660e01b8152600401611fe891906155ca565b60206040518083038186803b15801561200057600080fd5b505afa158015612014573d6000803e3d6000fd5b505050506040513d601f19601f820116820180604052506120389190810190614c19565b905090565b612045613c71565b73ffffffffffffffffffffffffffffffffffffffff1663d2d0e066600960009054906101000a900473ffffffffffffffffffffffffffffffffffffffff168360006040518463ffffffff1660e01b81526004016120a49392919061566e565b600060405180830381600087803b1580156120be57600080fd5b505af11580156120d2573d6000803e3d6000fd5b5050505050565b60008060008373ffffffffffffffffffffffffffffffffffffffff1673ffffffffffffffffffffffffffffffffffffffff168152602001908152602001600020549050919050565b600061218f61212e613224565b612181612139613361565b612173612144611914565b61216561214f6139e8565b612157612e86565b6144df90919063ffffffff16565b6144df90919063ffffffff16565b6144df90919063ffffffff16565b6144df90919063ffffffff16565b905090565b61219c612684565b6121db576040517f08c379a00000000000000000000000000000000000000000000000000000000081526004016121d290615854565b60405180910390fd5b600073ffffffffffffffffffffffffffffffffffffffff16600760009054906101000a900473ffffffffffffffffffffffffffffffffffffffff1673ffffffffffffffffffffffffffffffffffffffff167f8be0079c531659141344cd1fd0a4f28419497f9722a3daafe3b4186f6b6457e060405160405180910390a36000600760006101000a81548173ffffffffffffffffffffffffffffffffffffffff021916908373ffffffffffffffffffffffffffffffffffffffff160217905550565b6000806122a7612121565b90506122d86002546122ca670de0b6b3a76400008461429d90919063ffffffff16565b61430d90919063ffffffff16565b91505090565b60006122e8612c5c565b9050601060149054906101000a900460ff16600481111561230557fe5b81600481111561231157fe5b1461231f5761231e6125bb565b5b6000612329613224565b11156123f0576001600481111561233c57fe5b81600481111561234857fe5b14156123605761235e612359613224565b610e09565b505b60048081111561236c57fe5b81600481111561237857fe5b141561238f5761238e612389613224565b612416565b5b6002600481111561239c57fe5b8160048111156123a857fe5b14156123bf576123be6123b9613224565b6138a3565b5b600360048111156123cc57fe5b8160048111156123d857fe5b14156123ef576123ee6123e9613224565b61203d565b5b5b80601060146101000a81548160ff0219169083600481111561240e57fe5b021790555050565b6000600b60009054906101000a900473ffffffffffffffffffffffffffffffffffffffff1673ffffffffffffffffffffffffffffffffffffffff166340c10f1930846040518363ffffffff1660e01b815260040161247592919061561c565b602060405180830381600087803b15801561248f57600080fd5b505af11580156124a3573d6000803e3d6000fd5b505050506040513d601f19601f820116820180604052506124c79190810190614c19565b11612507576040517f08c379a00000000000000000000000000000000000000000000000000000000081526004016124fe90615934565b60405180910390fd5b50565b612512612684565b612551576040517f08c379a000000000000000000000000000000000000000000000000000000000815260040161254890615854565b60405180910390fd5b80600c60006101000a81548173ffffffffffffffffffffffffffffffffffffffff021916908373ffffffffffffffffffffffffffffffffffffffff16021790555050565b600c60009054906101000a900473ffffffffffffffffffffffffffffffffffffffff1681565b60006125c5611f8b565b905060008111156125da576125d981611e4d565b5b6125e2611914565b905060008111156125f7576125f681611a04565b5b6125ff611140565b905060008111156126145761261381611d59565b5b61261c613361565b905060008111156126315761263081611cc9565b5b50565b6000600760009054906101000a900473ffffffffffffffffffffffffffffffffffffffff16905090565b600e60009054906101000a900473ffffffffffffffffffffffffffffffffffffffff1681565b6000600760009054906101000a900473ffffffffffffffffffffffffffffffffffffffff1673ffffffffffffffffffffffffffffffffffffffff166126c7613de5565b73ffffffffffffffffffffffffffffffffffffffff1614905090565b606060048054600181600116156101000203166002900480601f01602080910402602001604051908101604052809291908181526020018280546001816001161561010002031660029004801561277b5780601f106127505761010080835404028352916020019161277b565b820191906000526020600020905b81548152906001019060200180831161275e57829003601f168201915b5050505050905090565b600960009054906101000a900473ffffffffffffffffffffffffffffffffffffffff1673ffffffffffffffffffffffffffffffffffffffff1663095ea7b3600a60009054906101000a900473ffffffffffffffffffffffffffffffffffffffff167fffffffffffffffffffffffffffffffffffffffffffffffffffffffffffffffff6040518363ffffffff1660e01b8152600401612824929190615645565b602060405180830381600087803b15801561283e57600080fd5b505af1158015612852573d6000803e3d6000fd5b505050506040513d601f19601f820116820180604052506128769190810190614ae6565b50600960009054906101000a900473ffffffffffffffffffffffffffffffffffffffff1673ffffffffffffffffffffffffffffffffffffffff1663095ea7b3600e60009054906101000a900473ffffffffffffffffffffffffffffffffffffffff167fffffffffffffffffffffffffffffffffffffffffffffffffffffffffffffffff6040518363ffffffff1660e01b8152600401612916929190615645565b602060405180830381600087803b15801561293057600080fd5b505af1158015612944573d6000803e3d6000fd5b505050506040513d601f19601f820116820180604052506129689190810190614ae6565b50600960009054906101000a900473ffffffffffffffffffffffffffffffffffffffff1673ffffffffffffffffffffffffffffffffffffffff1663095ea7b36129af613c71565b7fffffffffffffffffffffffffffffffffffffffffffffffffffffffffffffffff6040518363ffffffff1660e01b81526004016129ed929190615645565b602060405180830381600087803b158015612a0757600080fd5b505af1158015612a1b573d6000803e3d6000fd5b505050506040513d601f19601f82011682018060405250612a3f9190810190614ae6565b50600960009054906101000a900473ffffffffffffffffffffffffffffffffffffffff1673ffffffffffffffffffffffffffffffffffffffff1663095ea7b3612a86613d18565b7fffffffffffffffffffffffffffffffffffffffffffffffffffffffffffffffff6040518363ffffffff1660e01b8152600401612ac4929190615645565b602060405180830381600087803b158015612ade57600080fd5b505af1158015612af2573d6000803e3d6000fd5b505050506040513d601f19601f82011682018060405250612b169190810190614ae6565b50600960009054906101000a900473ffffffffffffffffffffffffffffffffffffffff1673ffffffffffffffffffffffffffffffffffffffff1663095ea7b3600b60009054906101000a900473ffffffffffffffffffffffffffffffffffffffff167fffffffffffffffffffffffffffffffffffffffffffffffffffffffffffffffff6040518363ffffffff1660e01b8152600401612bb6929190615645565b602060405180830381600087803b158015612bd057600080fd5b505af1158015612be4573d6000803e3d6000fd5b505050506040513d601f19601f82011682018060405250612c089190810190614ae6565b50565b612c13612684565b612c52576040517f08c379a0000000000000000000000000000000000000000000000000000000008152600401612c4990615854565b60405180910390fd5b80600f8190555050565b6000806000806000601060009054906101000a900473ffffffffffffffffffffffffffffffffffffffff1673ffffffffffffffffffffffffffffffffffffffff1663d88be3c0600960009054906101000a900473ffffffffffffffffffffffffffffffffffffffff166040518263ffffffff1660e01b8152600401612ce191906155af565b60006040518083038186803b158015612cf957600080fd5b505afa158015612d0d573d6000803e3d6000fd5b505050506040513d6000823e3d601f19601f82011682018060405250612d369190810190614b38565b945094509450945050600080905080851115612d50578490505b80841115612d5c578390505b80831115612d68578290505b80821115612d74578190505b600080905082821415612d8657600190505b83821415612d9357600390505b84821415612da057600490505b85821415612dad57600290505b80965050505050505090565b6000612e7c612dc6613de5565b84612e7785604051806060016040528060258152602001615d756025913960016000612df0613de5565b73ffffffffffffffffffffffffffffffffffffffff1673ffffffffffffffffffffffffffffffffffffffff16815260200190815260200160002060008a73ffffffffffffffffffffffffffffffffffffffff1673ffffffffffffffffffffffffffffffffffffffff168152602001908152602001600020546142429092919063ffffffff16565b613ded565b6001905092915050565b600080612e91611f8b565b90506000811115612f6b57612f68670de0b6b3a7640000612f5a600a60009054906101000a900473ffffffffffffffffffffffffffffffffffffffff1673ffffffffffffffffffffffffffffffffffffffff1663182df0f56040518163ffffffff1660e01b815260040160206040518083038186803b158015612f1357600080fd5b505afa158015612f27573d6000803e3d6000fd5b505050506040513d601f19601f82011682018060405250612f4b9190810190614c19565b8461429d90919063ffffffff16565b61430d90919063ffffffff16565b90505b8091505090565b6000612f86612f7f613de5565b8484613fb8565b6001905092915050565b612f98612684565b612fd7576040517f08c379a0000000000000000000000000000000000000000000000000000000008152600401612fce90615854565b60405180910390fd5b80600d60006101000a81548173ffffffffffffffffffffffffffffffffffffffff021916908373ffffffffffffffffffffffffffffffffffffffff16021790555050565b6002600481111561302857fe5b601060149054906101000a900460ff16600481111561304357fe5b14156130535761305281613191565b5b6003600481111561306057fe5b601060149054906101000a900460ff16600481111561307b57fe5b14156130d5578061308a613361565b10156130cb576040517f08c379a00000000000000000000000000000000000000000000000000000000081526004016130c2906158d4565b60405180910390fd5b6130d481611cc9565b5b600160048111156130e257fe5b601060149054906101000a900460ff1660048111156130fd57fe5b1415613157578061310c611914565b101561314d576040517f08c379a0000000000000000000000000000000000000000000000000000000008152600401613144906158d4565b60405180910390fd5b61315681611a04565b5b60048081111561316357fe5b601060149054906101000a900460ff16600481111561317e57fe5b141561318e5761318d81611d59565b5b50565b600061319b611f8b565b905060006131a7612e86565b9050828110156131ec576040517f08c379a00000000000000000000000000000000000000000000000000000000081526004016131e3906158d4565b60405180910390fd5b600061321382613205868661429d90919063ffffffff16565b61430d90919063ffffffff16565b905061321e81611e4d565b50505050565b6000600960009054906101000a900473ffffffffffffffffffffffffffffffffffffffff1673ffffffffffffffffffffffffffffffffffffffff166370a08231306040518263ffffffff1660e01b815260040161328191906155ca565b60206040518083038186803b15801561329957600080fd5b505afa1580156132ad573d6000803e3d6000fd5b505050506040513d601f19601f820116820180604052506132d19190810190614c19565b905090565b6132de612684565b61331d576040517f08c379a000000000000000000000000000000000000000000000000000000000815260040161331490615854565b60405180910390fd5b80600b60006101000a81548173ffffffffffffffffffffffffffffffffffffffff021916908373ffffffffffffffffffffffffffffffffffffffff16021790555050565b6000600d60009054906101000a900473ffffffffffffffffffffffffffffffffffffffff1673ffffffffffffffffffffffffffffffffffffffff166370a08231306040518263ffffffff1660e01b81526004016133be91906155ca565b60206040518083038186803b1580156133d657600080fd5b505afa1580156133ea573d6000803e3d6000fd5b505050506040513d601f19601f8201168201806040525061340e9190810190614c19565b905090565b600f5481565b60016006600082825401925050819055506000600654905060008211613474576040517f08c379a000000000000000000000000000000000000000000000000000000000815260040161346b90615894565b60405180910390fd5b600061347f336120d9565b9050808311156134c4576040517f08c379a00000000000000000000000000000000000000000000000000000000081526004016134bb90615874565b60405180910390fd5b6134cc612121565b60088190555060006134fd6002546134ef8660085461429d90919063ffffffff16565b61430d90919063ffffffff16565b9050613587846040518060400160405280601d81526020017f72656465656d20616d6f756e7420657863656564732062616c616e63650000008152506000803373ffffffffffffffffffffffffffffffffffffffff1673ffffffffffffffffffffffffffffffffffffffff168152602001908152602001600020546142429092919063ffffffff16565b6000803373ffffffffffffffffffffffffffffffffffffffff1673ffffffffffffffffffffffffffffffffffffffff168152602001908152602001600020819055506135de8460025461453490919063ffffffff16565b600281905550600073ffffffffffffffffffffffffffffffffffffffff163373ffffffffffffffffffffffffffffffffffffffff167fddf252ad1be2c89b69c2b068fc378daa952ba7f163c4a11628f55a4df523b3ef8660405161364291906159bd565b60405180910390a36000600960009054906101000a900473ffffffffffffffffffffffffffffffffffffffff1673ffffffffffffffffffffffffffffffffffffffff166370a08231306040518263ffffffff1660e01b81526004016136a791906155ca565b60206040518083038186803b1580156136bf57600080fd5b505afa1580156136d3573d6000803e3d6000fd5b505050506040513d601f19601f820116820180604052506136f79190810190614c19565b90508181101561370b5761370a8261301b565b5b600960009054906101000a900473ffffffffffffffffffffffffffffffffffffffff1673ffffffffffffffffffffffffffffffffffffffff1663a9059cbb33846040518363ffffffff1660e01b815260040161376892919061561c565b602060405180830381600087803b15801561378257600080fd5b505af1158015613796573d6000803e3d6000fd5b505050506040513d601f19601f820116820180604052506137ba9190810190614ae6565b506137c36122de565b6137cb612121565b6008819055505050506006548114613818576040517f08c379a000000000000000000000000000000000000000000000000000000000815260040161380f90615954565b60405180910390fd5b5050565b6000600160008473ffffffffffffffffffffffffffffffffffffffff1673ffffffffffffffffffffffffffffffffffffffff16815260200190815260200160002060008373ffffffffffffffffffffffffffffffffffffffff1673ffffffffffffffffffffffffffffffffffffffff16815260200190815260200160002054905092915050565b6000600a60009054906101000a900473ffffffffffffffffffffffffffffffffffffffff1673ffffffffffffffffffffffffffffffffffffffff1663a0712d68836040518263ffffffff1660e01b815260040161390091906159bd565b602060405180830381600087803b15801561391a57600080fd5b505af115801561392e573d6000803e3d6000fd5b505050506040513d601f19601f820116820180604052506139529190810190614c19565b14613992576040517f08c379a0000000000000000000000000000000000000000000000000000000008152600401613989906157b4565b60405180910390fd5b50565b61399d612684565b6139dc576040517f08c379a00000000000000000000000000000000000000000000000000000000081526004016139d390615854565b60405180910390fd5b6139e58161457e565b50565b6000806139f3611140565b90506000811115613aac57600b60009054906101000a900473ffffffffffffffffffffffffffffffffffffffff1673ffffffffffffffffffffffffffffffffffffffff166306b3efd6306040518263ffffffff1660e01b8152600401613a5991906155ca565b60206040518083038186803b158015613a7157600080fd5b505afa158015613a85573d6000803e3d6000fd5b505050506040513d601f19601f82011682018060405250613aa99190810190614c19565b90505b8091505090565b613abb612684565b613afa576040517f08c379a0000000000000000000000000000000000000000000000000000000008152600401613af190615854565b60405180910390fd5b80600a60006101000a81548173ffffffffffffffffffffffffffffffffffffffff021916908373ffffffffffffffffffffffffffffffffffffffff16021790555050565b613b46612684565b613b85576040517f08c379a0000000000000000000000000000000000000000000000000000000008152600401613b7c90615854565b60405180910390fd5b60003373ffffffffffffffffffffffffffffffffffffffff163073ffffffffffffffffffffffffffffffffffffffff1631604051613bc29061559a565b60006040518083038185875af1925050503d8060008114613bff576040519150601f19603f3d011682016040523d82523d6000602084013e613c04565b606091505b5050905080613c48576040517f08c379a0000000000000000000000000000000000000000000000000000000008152600401613c3f906157f4565b60405180910390fd5b50565b600a60009054906101000a900473ffffffffffffffffffffffffffffffffffffffff1681565b6000600c60009054906101000a900473ffffffffffffffffffffffffffffffffffffffff1673ffffffffffffffffffffffffffffffffffffffff16630261bf8b6040518163ffffffff1660e01b815260040160206040518083038186803b158015613cdb57600080fd5b505afa158015613cef573d6000803e3d6000fd5b505050506040513d601f19601f82011682018060405250613d1391908101906149f6565b905090565b6000600c60009054906101000a900473ffffffffffffffffffffffffffffffffffffffff1673ffffffffffffffffffffffffffffffffffffffff1663ed6ff7606040518163ffffffff1660e01b815260040160206040518083038186803b158015613d8257600080fd5b505afa158015613d96573d6000803e3d6000fd5b505050506040513d601f19601f82011682018060405250613dba91908101906149f6565b905090565b600960009054906101000a900473ffffffffffffffffffffffffffffffffffffffff1681565b600033905090565b600073ffffffffffffffffffffffffffffffffffffffff168373ffffffffffffffffffffffffffffffffffffffff161415613e5d576040517f08c379a0000000000000000000000000000000000000000000000000000000008152600401613e54906158f4565b60405180910390fd5b600073ffffffffffffffffffffffffffffffffffffffff168273ffffffffffffffffffffffffffffffffffffffff161415613ecd576040517f08c379a0000000000000000000000000000000000000000000000000000000008152600401613ec490615794565b60405180910390fd5b80600160008573ffffffffffffffffffffffffffffffffffffffff1673ffffffffffffffffffffffffffffffffffffffff16815260200190815260200160002060008473ffffffffffffffffffffffffffffffffffffffff1673ffffffffffffffffffffffffffffffffffffffff168152602001908152602001600020819055508173ffffffffffffffffffffffffffffffffffffffff168373ffffffffffffffffffffffffffffffffffffffff167f8c5be1e5ebec7d5bd14f71427d1e84f3dd0314c0f7b2291e5b200ac8c7c3b92583604051613fab91906159bd565b60405180910390a3505050565b600073ffffffffffffffffffffffffffffffffffffffff168373ffffffffffffffffffffffffffffffffffffffff161415614028576040517f08c379a000000000000000000000000000000000000000000000000000000000815260040161401f906158b4565b60405180910390fd5b600073ffffffffffffffffffffffffffffffffffffffff168273ffffffffffffffffffffffffffffffffffffffff161415614098576040517f08c379a000000000000000000000000000000000000000000000000000000000815260040161408f90615734565b60405180910390fd5b61410381604051806060016040528060268152602001615d27602691396000808773ffffffffffffffffffffffffffffffffffffffff1673ffffffffffffffffffffffffffffffffffffffff168152602001908152602001600020546142429092919063ffffffff16565b6000808573ffffffffffffffffffffffffffffffffffffffff1673ffffffffffffffffffffffffffffffffffffffff16815260200190815260200160002081905550614196816000808573ffffffffffffffffffffffffffffffffffffffff1673ffffffffffffffffffffffffffffffffffffffff168152602001908152602001600020546144df90919063ffffffff16565b6000808473ffffffffffffffffffffffffffffffffffffffff1673ffffffffffffffffffffffffffffffffffffffff168152602001908152602001600020819055508173ffffffffffffffffffffffffffffffffffffffff168373ffffffffffffffffffffffffffffffffffffffff167fddf252ad1be2c89b69c2b068fc378daa952ba7f163c4a11628f55a4df523b3ef8360405161423591906159bd565b60405180910390a3505050565b600083831115829061428a576040517f08c379a00000000000000000000000000000000000000000000000000000000081526004016142819190615712565b60405180910390fd5b5060008385039050809150509392505050565b6000808314156142b05760009050614307565b60008284029050828482816142c157fe5b0414614302576040517f08c379a00000000000000000000000000000000000000000000000000000000081526004016142f990615814565b60405180910390fd5b809150505b92915050565b600061434f83836040518060400160405280601a81526020017f536166654d6174683a206469766973696f6e206279207a65726f0000000000008152506146ae565b905092915050565b600073ffffffffffffffffffffffffffffffffffffffff168273ffffffffffffffffffffffffffffffffffffffff1614156143c7576040517f08c379a00000000000000000000000000000000000000000000000000000000081526004016143be90615974565b60405180910390fd5b6143dc816002546144df90919063ffffffff16565b600281905550614433816000808573ffffffffffffffffffffffffffffffffffffffff1673ffffffffffffffffffffffffffffffffffffffff168152602001908152602001600020546144df90919063ffffffff16565b6000808473ffffffffffffffffffffffffffffffffffffffff1673ffffffffffffffffffffffffffffffffffffffff168152602001908152602001600020819055508173ffffffffffffffffffffffffffffffffffffffff16600073ffffffffffffffffffffffffffffffffffffffff167fddf252ad1be2c89b69c2b068fc378daa952ba7f163c4a11628f55a4df523b3ef836040516144d391906159bd565b60405180910390a35050565b60008082840190508381101561452a576040517f08c379a0000000000000000000000000000000000000000000000000000000008152600401614521906157d4565b60405180910390fd5b8091505092915050565b600061457683836040518060400160405280601e81526020017f536166654d6174683a207375627472616374696f6e206f766572666c6f770000815250614242565b905092915050565b600073ffffffffffffffffffffffffffffffffffffffff168173ffffffffffffffffffffffffffffffffffffffff1614156145ee576040517f08c379a00000000000000000000000000000000000000000000000000000000081526004016145e590615774565b60405180910390fd5b8073ffffffffffffffffffffffffffffffffffffffff16600760009054906101000a900473ffffffffffffffffffffffffffffffffffffffff1673ffffffffffffffffffffffffffffffffffffffff167f8be0079c531659141344cd1fd0a4f28419497f9722a3daafe3b4186f6b6457e060405160405180910390a380600760006101000a81548173ffffffffffffffffffffffffffffffffffffffff021916908373ffffffffffffffffffffffffffffffffffffffff16021790555050565b600080831182906146f5576040517f08c379a00000000000000000000000000000000000000000000000000000000081526004016146ec9190615712565b60405180910390fd5b50600083858161470157fe5b049050809150509392505050565b6040518060400160405280600073ffffffffffffffffffffffffffffffffffffffff168152602001600081525090565b604051806080016040528060001515815260200160008081111561475f57fe5b815260200160008081111561477057fe5b8152602001600081525090565b6040518061010001604052806000600181111561479657fe5b8152602001600081526020016147aa614871565b81526020016000815260200160008152602001600073ffffffffffffffffffffffffffffffffffffffff16815260200160008152602001606081525090565b6040518061010001604052806000600181111561480257fe5b815260200160008152602001614816614871565b81526020016000815260200160008152602001600073ffffffffffffffffffffffffffffffffffffffff16815260200160008152602001606081525090565b6040518060400160405280600015158152602001600081525090565b604051806080016040528060001515815260200160008081111561489157fe5b81526020016000808111156148a257fe5b8152602001600081525090565b6000813590506148be81615cca565b92915050565b6000815190506148d381615cca565b92915050565b6000815190506148e881615ce1565b92915050565b6000813590506148fd81615cf8565b92915050565b600082601f83011261491457600080fd5b815161492761492282615a20565b6159f3565b9150808252602083016020830185838301111561494357600080fd5b61494e838284615c52565b50505092915050565b60006040828403121561496957600080fd5b61497360406159f3565b90506000614983848285016148d9565b6000830152506020614997848285016149b8565b60208301525092915050565b6000813590506149b281615d0f565b92915050565b6000815190506149c781615d0f565b92915050565b6000602082840312156149df57600080fd5b60006149ed848285016148af565b91505092915050565b600060208284031215614a0857600080fd5b6000614a16848285016148c4565b91505092915050565b60008060408385031215614a3257600080fd5b6000614a40858286016148af565b9250506020614a51858286016148af565b9150509250929050565b600080600060608486031215614a7057600080fd5b6000614a7e868287016148af565b9350506020614a8f868287016148af565b9250506040614aa0868287016149a3565b9150509250925092565b60008060408385031215614abd57600080fd5b6000614acb858286016148af565b9250506020614adc858286016149a3565b9150509250929050565b600060208284031215614af857600080fd5b6000614b06848285016148d9565b91505092915050565b600060208284031215614b2157600080fd5b6000614b2f848285016148ee565b91505092915050565b600080600080600060a08688031215614b5057600080fd5b600086015167ffffffffffffffff811115614b6a57600080fd5b614b7688828901614903565b9550506020614b87888289016149b8565b9450506040614b98888289016149b8565b9350506060614ba9888289016149b8565b9250506080614bba888289016149b8565b9150509295509295909350565b600060408284031215614bd957600080fd5b6000614be784828501614957565b91505092915050565b600060208284031215614c0257600080fd5b6000614c10848285016149a3565b91505092915050565b600060208284031215614c2b57600080fd5b6000614c39848285016149b8565b91505092915050565b6000614c4e8383615407565b905092915050565b6000614c62838361550f565b60408301905092915050565b614c7781615bc2565b82525050565b614c8681615b01565b82525050565b614c9581615b01565b82525050565b6000614ca682615a6c565b614cb08185615ab2565b935083602082028501614cc285615a4c565b8060005b85811015614cfe5784840389528151614cdf8582614c42565b9450614cea83615a98565b925060208a01995050600181019050614cc6565b50829750879550505050505092915050565b6000614d1b82615a77565b614d258185615ac3565b9350614d3083615a5c565b8060005b83811015614d61578151614d488882614c56565b9750614d5383615aa5565b925050600181019050614d34565b5085935050505092915050565b614d7781615b13565b82525050565b614d8681615b13565b82525050565b6000614d9782615a82565b614da18185615ad4565b9350614db1818560208601615c52565b614dba81615c85565b840191505092915050565b614dce81615bd4565b82525050565b614ddd81615be6565b82525050565b614dec81615bf8565b82525050565b614dfb81615c0a565b82525050565b614e0a81615c1c565b82525050565b6000614e1b82615a8d565b614e258185615af0565b9350614e35818560208601615c52565b614e3e81615c85565b840191505092915050565b6000614e56602383615af0565b91507f45524332303a207472616e7366657220746f20746865207a65726f206164647260008301527f65737300000000000000000000000000000000000000000000000000000000006020830152604082019050919050565b6000614ebc601983615af0565b91507f434f4d504f554e443a207769746864726177206661696c6564000000000000006000830152602082019050919050565b6000614efc602683615af0565b91507f4f776e61626c653a206e6577206f776e657220697320746865207a65726f206160008301527f64647265737300000000000000000000000000000000000000000000000000006020830152604082019050919050565b6000614f62602283615af0565b91507f45524332303a20617070726f766520746f20746865207a65726f20616464726560008301527f73730000000000000000000000000000000000000000000000000000000000006020830152604082019050919050565b6000614fc8601783615af0565b91507f434f4d504f554e443a20737570706c79206661696c65640000000000000000006000830152602082019050919050565b6000615008601b83615af0565b91507f536166654d6174683a206164646974696f6e206f766572666c6f7700000000006000830152602082019050919050565b6000615048601683615af0565b91507f7472616e73666572206f6620455448206661696c6564000000000000000000006000830152602082019050919050565b6000615088602183615af0565b91507f536166654d6174683a206d756c7469706c69636174696f6e206f766572666c6f60008301527f77000000000000000000000000000000000000000000000000000000000000006020830152604082019050919050565b60006150ee601883615af0565b91507f46554c4352554d3a207769746864726177206661696c656400000000000000006000830152602082019050919050565b600061512e602083615af0565b91507f4f776e61626c653a2063616c6c6572206973206e6f7420746865206f776e65726000830152602082019050919050565b600061516e601483615af0565b91507f696e73756666696369656e742062616c616e63650000000000000000000000006000830152602082019050919050565b60006151ae601f83615af0565b91507f7769746864726177206d7573742062652067726561746572207468616e2030006000830152602082019050919050565b60006151ee602583615af0565b91507f45524332303a207472616e736665722066726f6d20746865207a65726f20616460008301527f64726573730000000000000000000000000000000000000000000000000000006020830152604082019050919050565b6000615254600083615ae5565b9150600082019050919050565b600061526e601283615af0565b91507f696e73756666696369656e742066756e647300000000000000000000000000006000830152602082019050919050565b60006152ae602483615af0565b91507f45524332303a20617070726f76652066726f6d20746865207a65726f2061646460008301527f72657373000000000000000000000000000000000000000000000000000000006020830152604082019050919050565b6000615314601e83615af0565b91507f6465706f736974206d7573742062652067726561746572207468616e203000006000830152602082019050919050565b6000615354601683615af0565b91507f46554c4352554d3a20737570706c79206661696c6564000000000000000000006000830152602082019050919050565b6000615394601f83615af0565b91507f5265656e7472616e637947756172643a207265656e7472616e742063616c6c006000830152602082019050919050565b60006153d4601f83615af0565b91507f45524332303a206d696e7420746f20746865207a65726f2061646472657373006000830152602082019050919050565b6000610160830160008301516154206000860182614dc5565b506020830151615433602086018261556d565b50604083015161544660408601826154ba565b50606083015161545960c086018261556d565b50608083015161546c60e086018261556d565b5060a0830151615480610100860182614c7d565b5060c083015161549461012086018261556d565b5060e08301518482036101408601526154ad8282614d8c565b9150508091505092915050565b6080820160008201516154d06000850182614d6e565b5060208201516154e36020850182614dd4565b5060408201516154f66040850182614de3565b506060820151615509606085018261556d565b50505050565b6040820160008201516155256000850182614c7d565b506020820151615538602085018261556d565b50505050565b6040820160008201516155546000850182614c7d565b506020820151615567602085018261556d565b50505050565b61557681615bab565b82525050565b61558581615bab565b82525050565b61559481615bb5565b82525050565b60006155a582615247565b9150819050919050565b60006020820190506155c46000830184614c8c565b92915050565b60006020820190506155df6000830184614c6e565b92915050565b60006060820190506155fa6000830186614c6e565b6156076020830185614c6e565b615614604083018461557c565b949350505050565b60006040820190506156316000830185614c6e565b61563e602083018461557c565b9392505050565b600060408201905061565a6000830185614c8c565b615667602083018461557c565b9392505050565b60006060820190506156836000830186614c8c565b615690602083018561557c565b61569d6040830184614e01565b949350505050565b600060408201905081810360008301526156bf8185614d10565b905081810360208301526156d38184614c9b565b90509392505050565b60006020820190506156f16000830184614d7d565b92915050565b600060208201905061570c6000830184614df2565b92915050565b6000602082019050818103600083015261572c8184614e10565b905092915050565b6000602082019050818103600083015261574d81614e49565b9050919050565b6000602082019050818103600083015261576d81614eaf565b9050919050565b6000602082019050818103600083015261578d81614eef565b9050919050565b600060208201905081810360008301526157ad81614f55565b9050919050565b600060208201905081810360008301526157cd81614fbb565b9050919050565b600060208201905081810360008301526157ed81614ffb565b9050919050565b6000602082019050818103600083015261580d8161503b565b9050919050565b6000602082019050818103600083015261582d8161507b565b9050919050565b6000602082019050818103600083015261584d816150e1565b9050919050565b6000602082019050818103600083015261586d81615121565b9050919050565b6000602082019050818103600083015261588d81615161565b9050919050565b600060208201905081810360008301526158ad816151a1565b9050919050565b600060208201905081810360008301526158cd816151e1565b9050919050565b600060208201905081810360008301526158ed81615261565b9050919050565b6000602082019050818103600083015261590d816152a1565b9050919050565b6000602082019050818103600083015261592d81615307565b9050919050565b6000602082019050818103600083015261594d81615347565b9050919050565b6000602082019050818103600083015261596d81615387565b9050919050565b6000602082019050818103600083015261598d816153c7565b9050919050565b60006060820190506159a9600083018561553e565b6159b6604083018461557c565b9392505050565b60006020820190506159d2600083018461557c565b92915050565b60006020820190506159ed600083018461558b565b92915050565b6000604051905081810181811067ffffffffffffffff82111715615a1657600080fd5b8060405250919050565b600067ffffffffffffffff821115615a3757600080fd5b601f19601f8301169050602081019050919050565b6000819050602082019050919050565b6000819050602082019050919050565b600081519050919050565b600081519050919050565b600081519050919050565b600081519050919050565b6000602082019050919050565b6000602082019050919050565b600082825260208201905092915050565b600082825260208201905092915050565b600082825260208201905092915050565b600081905092915050565b600082825260208201905092915050565b6000615b0c82615b8b565b9050919050565b60008115159050919050565b6000615b2a82615b01565b9050919050565b6000819050615b3f82615c96565b919050565b6000819050615b5282615ca3565b919050565b6000819050615b6582615cb0565b919050565b6000819050615b7882615cbd565b919050565b600061ffff82169050919050565b600073ffffffffffffffffffffffffffffffffffffffff82169050919050565b6000819050919050565b600060ff82169050919050565b6000615bcd82615c2e565b9050919050565b6000615bdf82615b31565b9050919050565b6000615bf182615b44565b9050919050565b6000615c0382615b57565b9050919050565b6000615c1582615b6a565b9050919050565b6000615c2782615b7d565b9050919050565b6000615c3982615c40565b9050919050565b6000615c4b82615b8b565b9050919050565b60005b83811015615c70578082015181840152602081019050615c55565b83811115615c7f576000848401525b50505050565b6000601f19601f8301169050919050565b60028110615ca057fe5b50565b60018110615cad57fe5b50565b60018110615cba57fe5b50565b60058110615cc757fe5b50565b615cd381615b01565b8114615cde57600080fd5b50565b615cea81615b13565b8114615cf557600080fd5b50565b615d0181615b1f565b8114615d0c57600080fd5b50565b615d1881615bab565b8114615d2357600080fd5b5056fe45524332303a207472616e7366657220616d6f756e7420657863656564732062616c616e636545524332303a207472616e7366657220616d6f756e74206578636565647320616c6c6f77616e636545524332303a2064656372656173656420616c6c6f77616e63652062656c6f77207a65726fa365627a7a723158202cf6e1563dbf7becaad7688f4c87105e164f3430716cac688d665118405a2b456c6578706572696d656e74616cf564736f6c634300050c0040",
  "source": "pragma solidity ^0.5.0;\npragma experimental ABIEncoderV2;\n\ninterface IERC20 {\n    function totalSupply() external view returns (uint256);\n    function balanceOf(address account) external view returns (uint256);\n    function transfer(address recipient, uint256 amount) external returns (bool);\n    function allowance(address owner, address spender) external view returns (uint256);\n    function approve(address spender, uint256 amount) external returns (bool);\n    function transferFrom(address sender, address recipient, uint256 amount) external returns (bool);\n    event Transfer(address indexed from, address indexed to, uint256 value);\n    event Approval(address indexed owner, address indexed spender, uint256 value);\n}\n\ncontract Context {\n    constructor () internal { }\n    // solhint-disable-previous-line no-empty-blocks\n\n    function _msgSender() internal view returns (address payable) {\n        return msg.sender;\n    }\n\n    function _msgData() internal view returns (bytes memory) {\n        this; // silence state mutability warning without generating bytecode - see https://github.com/ethereum/solidity/issues/2691\n        return msg.data;\n    }\n}\n\ncontract ERC20 is Context, IERC20 {\n    using SafeMath for uint256;\n\n    mapping (address => uint256) _balances;\n\n    mapping (address => mapping (address => uint256)) private _allowances;\n\n    uint256 _totalSupply;\n    function totalSupply() public view returns (uint256) {\n        return _totalSupply;\n    }\n    function balanceOf(address account) public view returns (uint256) {\n        return _balances[account];\n    }\n    function transfer(address recipient, uint256 amount) public returns (bool) {\n        _transfer(_msgSender(), recipient, amount);\n        return true;\n    }\n    function allowance(address owner, address spender) public view returns (uint256) {\n        return _allowances[owner][spender];\n    }\n    function approve(address spender, uint256 amount) public returns (bool) {\n        _approve(_msgSender(), spender, amount);\n        return true;\n    }\n    function transferFrom(address sender, address recipient, uint256 amount) public returns (bool) {\n        _transfer(sender, recipient, amount);\n        _approve(sender, _msgSender(), _allowances[sender][_msgSender()].sub(amount, \"ERC20: transfer amount exceeds allowance\"));\n        return true;\n    }\n    function increaseAllowance(address spender, uint256 addedValue) public returns (bool) {\n        _approve(_msgSender(), spender, _allowances[_msgSender()][spender].add(addedValue));\n        return true;\n    }\n    function decreaseAllowance(address spender, uint256 subtractedValue) public returns (bool) {\n        _approve(_msgSender(), spender, _allowances[_msgSender()][spender].sub(subtractedValue, \"ERC20: decreased allowance below zero\"));\n        return true;\n    }\n    function _transfer(address sender, address recipient, uint256 amount) internal {\n        require(sender != address(0), \"ERC20: transfer from the zero address\");\n        require(recipient != address(0), \"ERC20: transfer to the zero address\");\n\n        _balances[sender] = _balances[sender].sub(amount, \"ERC20: transfer amount exceeds balance\");\n        _balances[recipient] = _balances[recipient].add(amount);\n        emit Transfer(sender, recipient, amount);\n    }\n    function _mint(address account, uint256 amount) internal {\n        require(account != address(0), \"ERC20: mint to the zero address\");\n\n        _totalSupply = _totalSupply.add(amount);\n        _balances[account] = _balances[account].add(amount);\n        emit Transfer(address(0), account, amount);\n    }\n    function _burn(address account, uint256 amount) internal {\n        require(account != address(0), \"ERC20: burn from the zero address\");\n\n        _balances[account] = _balances[account].sub(amount, \"ERC20: burn amount exceeds balance\");\n        _totalSupply = _totalSupply.sub(amount);\n        emit Transfer(account, address(0), amount);\n    }\n    function _approve(address owner, address spender, uint256 amount) internal {\n        require(owner != address(0), \"ERC20: approve from the zero address\");\n        require(spender != address(0), \"ERC20: approve to the zero address\");\n\n        _allowances[owner][spender] = amount;\n        emit Approval(owner, spender, amount);\n    }\n    function _burnFrom(address account, uint256 amount) internal {\n        _burn(account, amount);\n        _approve(account, _msgSender(), _allowances[account][_msgSender()].sub(amount, \"ERC20: burn amount exceeds allowance\"));\n    }\n}\n\ncontract ERC20Detailed is IERC20 {\n    string private _name;\n    string private _symbol;\n    uint8 private _decimals;\n\n    constructor (string memory name, string memory symbol, uint8 decimals) public {\n        _name = name;\n        _symbol = symbol;\n        _decimals = decimals;\n    }\n    function name() public view returns (string memory) {\n        return _name;\n    }\n    function symbol() public view returns (string memory) {\n        return _symbol;\n    }\n    function decimals() public view returns (uint8) {\n        return _decimals;\n    }\n}\n\ncontract ReentrancyGuard {\n    uint256 private _guardCounter;\n\n    constructor () internal {\n        _guardCounter = 1;\n    }\n\n    modifier nonReentrant() {\n        _guardCounter += 1;\n        uint256 localCounter = _guardCounter;\n        _;\n        require(localCounter == _guardCounter, \"ReentrancyGuard: reentrant call\");\n    }\n}\n\ncontract Ownable is Context {\n    address private _owner;\n\n    event OwnershipTransferred(address indexed previousOwner, address indexed newOwner);\n    constructor () internal {\n        _owner = _msgSender();\n        emit OwnershipTransferred(address(0), _owner);\n    }\n    function owner() public view returns (address) {\n        return _owner;\n    }\n    modifier onlyOwner() {\n        require(isOwner(), \"Ownable: caller is not the owner\");\n        _;\n    }\n    function isOwner() public view returns (bool) {\n        return _msgSender() == _owner;\n    }\n    function renounceOwnership() public onlyOwner {\n        emit OwnershipTransferred(_owner, address(0));\n        _owner = address(0);\n    }\n    function transferOwnership(address newOwner) public onlyOwner {\n        _transferOwnership(newOwner);\n    }\n    function _transferOwnership(address newOwner) internal {\n        require(newOwner != address(0), \"Ownable: new owner is the zero address\");\n        emit OwnershipTransferred(_owner, newOwner);\n        _owner = newOwner;\n    }\n}\n\nlibrary SafeMath {\n    function add(uint256 a, uint256 b) internal pure returns (uint256) {\n        uint256 c = a + b;\n        require(c >= a, \"SafeMath: addition overflow\");\n\n        return c;\n    }\n    function sub(uint256 a, uint256 b) internal pure returns (uint256) {\n        return sub(a, b, \"SafeMath: subtraction overflow\");\n    }\n    function sub(uint256 a, uint256 b, string memory errorMessage) internal pure returns (uint256) {\n        require(b <= a, errorMessage);\n        uint256 c = a - b;\n\n        return c;\n    }\n    function mul(uint256 a, uint256 b) internal pure returns (uint256) {\n        if (a == 0) {\n            return 0;\n        }\n\n        uint256 c = a * b;\n        require(c / a == b, \"SafeMath: multiplication overflow\");\n\n        return c;\n    }\n    function div(uint256 a, uint256 b) internal pure returns (uint256) {\n        return div(a, b, \"SafeMath: division by zero\");\n    }\n    function div(uint256 a, uint256 b, string memory errorMessage) internal pure returns (uint256) {\n        // Solidity only automatically asserts when dividing by 0\n        require(b > 0, errorMessage);\n        uint256 c = a / b;\n\n        return c;\n    }\n    function mod(uint256 a, uint256 b) internal pure returns (uint256) {\n        return mod(a, b, \"SafeMath: modulo by zero\");\n    }\n    function mod(uint256 a, uint256 b, string memory errorMessage) internal pure returns (uint256) {\n        require(b != 0, errorMessage);\n        return a % b;\n    }\n}\n\nlibrary Address {\n    function isContract(address account) internal view returns (bool) {\n        bytes32 codehash;\n        bytes32 accountHash = 0xc5d2460186f7233c927e7db2dcc703c0e500b653ca82273b7bfad8045d85a470;\n        // solhint-disable-next-line no-inline-assembly\n        assembly { codehash := extcodehash(account) }\n        return (codehash != 0x0 && codehash != accountHash);\n    }\n    function toPayable(address account) internal pure returns (address payable) {\n        return address(uint160(account));\n    }\n    function sendValue(address payable recipient, uint256 amount) internal {\n        require(address(this).balance >= amount, \"Address: insufficient balance\");\n\n        // solhint-disable-next-line avoid-call-value\n        (bool success, ) = recipient.call.value(amount)(\"\");\n        require(success, \"Address: unable to send value, recipient may have reverted\");\n    }\n}\n\nlibrary SafeERC20 {\n    using SafeMath for uint256;\n    using Address for address;\n\n    function safeTransfer(IERC20 token, address to, uint256 value) internal {\n        callOptionalReturn(token, abi.encodeWithSelector(token.transfer.selector, to, value));\n    }\n\n    function safeTransferFrom(IERC20 token, address from, address to, uint256 value) internal {\n        callOptionalReturn(token, abi.encodeWithSelector(token.transferFrom.selector, from, to, value));\n    }\n\n    function safeApprove(IERC20 token, address spender, uint256 value) internal {\n        require((value == 0) || (token.allowance(address(this), spender) == 0),\n            \"SafeERC20: approve from non-zero to non-zero allowance\"\n        );\n        callOptionalReturn(token, abi.encodeWithSelector(token.approve.selector, spender, value));\n    }\n\n    function safeIncreaseAllowance(IERC20 token, address spender, uint256 value) internal {\n        uint256 newAllowance = token.allowance(address(this), spender).add(value);\n        callOptionalReturn(token, abi.encodeWithSelector(token.approve.selector, spender, newAllowance));\n    }\n\n    function safeDecreaseAllowance(IERC20 token, address spender, uint256 value) internal {\n        uint256 newAllowance = token.allowance(address(this), spender).sub(value, \"SafeERC20: decreased allowance below zero\");\n        callOptionalReturn(token, abi.encodeWithSelector(token.approve.selector, spender, newAllowance));\n    }\n    function callOptionalReturn(IERC20 token, bytes memory data) private {\n        require(address(token).isContract(), \"SafeERC20: call to non-contract\");\n\n        // solhint-disable-next-line avoid-low-level-calls\n        (bool success, bytes memory returndata) = address(token).call(data);\n        require(success, \"SafeERC20: low-level call failed\");\n\n        if (returndata.length > 0) { // Return data is optional\n            // solhint-disable-next-line max-line-length\n            require(abi.decode(returndata, (bool)), \"SafeERC20: ERC20 operation did not succeed\");\n        }\n    }\n}\n\ninterface Compound {\n    function mint ( uint256 mintAmount ) external returns ( uint256 );\n    function redeem(uint256 redeemTokens) external returns (uint256);\n    function exchangeRateStored() external view returns (uint);\n}\n\ninterface Fulcrum {\n    function mint(address receiver, uint256 amount) external payable returns (uint256 mintAmount);\n    function burn(address receiver, uint256 burnAmount) external returns (uint256 loanAmountPaid);\n    function assetBalanceOf(address _owner) external view returns (uint256 balance);\n}\n\ninterface ILendingPoolAddressesProvider {\n    function getLendingPool() external view returns (address);\n}\n\ninterface Aave {\n    function deposit(address _reserve, uint256 _amount, uint16 _referralCode) external;\n}\n\ninterface AToken {\n    function redeem(uint256 amount) external;\n}\n\ninterface IIEarnManager {\n    function recommend(address _token) external view returns (\n      string memory choice,\n      uint256 capr,\n      uint256 iapr,\n      uint256 aapr,\n      uint256 dapr\n    );\n}\n\ncontract Structs {\n    struct Val {\n        uint256 value;\n    }\n\n    enum ActionType {\n        Deposit,   // supply tokens\n        Withdraw  // borrow tokens\n    }\n\n    enum AssetDenomination {\n        Wei // the amount is denominated in wei\n    }\n\n    enum AssetReference {\n        Delta // the amount is given as a delta from the current value\n    }\n\n    struct AssetAmount {\n        bool sign; // true if positive\n        AssetDenomination denomination;\n        AssetReference ref;\n        uint256 value;\n    }\n\n    struct ActionArgs {\n        ActionType actionType;\n        uint256 accountId;\n        AssetAmount amount;\n        uint256 primaryMarketId;\n        uint256 secondaryMarketId;\n        address otherAddress;\n        uint256 otherAccountId;\n        bytes data;\n    }\n\n    struct Info {\n        address owner;  // The address that owns the account\n        uint256 number; // A nonce that allows a single address to control many accounts\n    }\n\n    struct Wei {\n        bool sign; // true if positive\n        uint256 value;\n    }\n}\n\ncontract DyDx is Structs {\n    function getAccountWei(Info memory account, uint256 marketId) public view returns (Wei memory);\n    function operate(Info[] memory, ActionArgs[] memory) public;\n}\n\ninterface LendingPoolAddressesProvider {\n    function getLendingPool() external view returns (address);\n    function getLendingPoolCore() external view returns (address);\n}\n\ncontract yDAI is ERC20, ERC20Detailed, ReentrancyGuard, Ownable, Structs {\n  using SafeERC20 for IERC20;\n  using Address for address;\n  using SafeMath for uint256;\n\n  uint256 public pool;\n  address public token;\n  address public compound;\n  address public fulcrum;\n  address public aave;\n  address public aaveToken;\n  address public dydx;\n  uint256 public dToken;\n  address public apr;\n\n  enum Lender {\n      NONE,\n      DYDX,\n      COMPOUND,\n      AAVE,\n      FULCRUM\n  }\n\n  Lender public provider = Lender.NONE;\n\n  constructor () public ERC20Detailed(\"yDAI\", \"yDAI\", 18) {\n    token = address(0x6B175474E89094C44Da98b954EedeAC495271d0F);\n    apr = address(0x318135fbD0b40D48fCEF431CCdF6C7926450edFB);\n    dydx = address(0x1E0447b19BB6EcFdAe1e4AE1694b0C3659614e4e);\n    aave = address(0x24a42fD28C976A61Df5D00D0599C34c4f90748c8);\n    fulcrum = address(0x493C57C4763932315A328269E1ADaD09653B9081);\n    aaveToken = address(0xfC1E690f61EFd961294b3e1Ce3313fBD8aa4f85d);\n    compound = address(0x5d3a536E4D6DbD6114cc1Ead35777bAB948E3643);\n    dToken = 3;\n    approveToken();\n  }\n  function set_new_AAVE(address _new_AAVE) public onlyOwner {\n      aave = _new_AAVE;\n  }\n  function set_new_DYDX(address _new_DYDX) public onlyOwner {\n      dydx = _new_DYDX;\n  }\n  function set_new_APR(address _new_APR) public onlyOwner {\n      apr = _new_APR;\n  }\n  function set_new_FULCRUM(address _new_FULCRUM) public onlyOwner {\n      fulcrum = _new_FULCRUM;\n  }\n  function set_new_ATOKEN(address _new_ATOKEN) public onlyOwner {\n      aaveToken = _new_ATOKEN;\n  }\n  function set_new_COMPOUND(address _new_COMPOUND) public onlyOwner {\n      compound = _new_COMPOUND;\n  }\n  function set_new_DTOKEN(uint256 _new_DTOKEN) public onlyOwner {\n      dToken = _new_DTOKEN;\n  }\n\n  function() external payable {\n\n  }\n\n  function recommend() public view returns (Lender) {\n    (,uint256 capr,uint256 iapr,uint256 aapr,uint256 dapr) = IIEarnManager(apr).recommend(token);\n    uint256 max = 0;\n    if (capr > max) {\n      max = capr;\n    }\n    if (iapr > max) {\n      max = iapr;\n    }\n    if (aapr > max) {\n      max = aapr;\n    }\n    if (dapr > max) {\n      max = dapr;\n    }\n\n    Lender newProvider = Lender.NONE;\n    if (max == dapr) {\n      newProvider = Lender.DYDX;\n    }\n    if (max == aapr) {\n      newProvider = Lender.AAVE;\n    }\n    if (max == iapr) {\n      newProvider = Lender.FULCRUM;\n    }\n    if (max == capr) {\n      newProvider = Lender.COMPOUND;\n    }\n    return newProvider;\n  }\n\n  function supplyDydx(uint256 amount) public returns(uint) {\n      Info[] memory infos = new Info[](1);\n      infos[0] = Info(address(this), 0);\n\n      AssetAmount memory amt = AssetAmount(true, AssetDenomination.Wei, AssetReference.Delta, amount);\n      ActionArgs memory act;\n      act.actionType = ActionType.Deposit;\n      act.accountId = 0;\n      act.amount = amt;\n      act.primaryMarketId = dToken;\n      act.otherAddress = address(this);\n\n      ActionArgs[] memory args = new ActionArgs[](1);\n      args[0] = act;\n\n      DyDx(dydx).operate(infos, args);\n  }\n\n  function withdrawDydx(uint256 amount) public {\n      Info[] memory infos = new Info[](1);\n      infos[0] = Info(address(this), 0);\n\n      AssetAmount memory amt = AssetAmount(false, AssetDenomination.Wei, AssetReference.Delta, amount);\n      ActionArgs memory act;\n      act.actionType = ActionType.Withdraw;\n      act.accountId = 0;\n      act.amount = amt;\n      act.primaryMarketId = dToken;\n      act.otherAddress = address(this);\n\n      ActionArgs[] memory args = new ActionArgs[](1);\n      args[0] = act;\n\n      DyDx(dydx).operate(infos, args);\n  }\n\n  function balance() public view returns (uint256) {\n    return IERC20(token).balanceOf(address(this));\n  }\n\n  function getAave() public view returns (address) {\n    return LendingPoolAddressesProvider(aave).getLendingPool();\n  }\n  function getAaveCore() public view returns (address) {\n    return LendingPoolAddressesProvider(aave).getLendingPoolCore();\n  }\n\n  function approveToken() public {\n      IERC20(token).approve(compound, uint(-1)); //also add to constructor\n      IERC20(token).approve(dydx, uint(-1));\n      IERC20(token).approve(getAave(), uint(-1));\n      IERC20(token).approve(getAaveCore(), uint(-1));\n      IERC20(token).approve(fulcrum, uint(-1));\n  }\n\n  function balanceDydx() public view returns (uint256) {\n      Wei memory bal = DyDx(dydx).getAccountWei(Info(address(this), 0), dToken);\n      return bal.value;\n  }\n  function balanceCompound() public view returns (uint256) {\n      return IERC20(compound).balanceOf(address(this));\n  }\n  function balanceCompoundInToken() public view returns (uint256) {\n    // Mantisa 1e18 to decimals\n    uint256 b = balanceCompound();\n    if (b > 0) {\n      b = b.mul(Compound(compound).exchangeRateStored()).div(1e18);\n    }\n    return b;\n  }\n  function balanceFulcrumInToken() public view returns (uint256) {\n    uint256 b = balanceFulcrum();\n    if (b > 0) {\n      b = Fulcrum(fulcrum).assetBalanceOf(address(this));\n    }\n    return b;\n  }\n  function balanceFulcrum() public view returns (uint256) {\n    return IERC20(fulcrum).balanceOf(address(this));\n  }\n  function balanceAave() public view returns (uint256) {\n    return IERC20(aaveToken).balanceOf(address(this));\n  }\n\n  function withdrawAll() public {\n    uint256 amount = balanceCompound();\n    if (amount > 0) {\n      withdrawCompound(amount);\n    }\n    amount = balanceDydx();\n    if (amount > 0) {\n      withdrawDydx(amount);\n    }\n    amount = balanceFulcrum();\n    if (amount > 0) {\n      withdrawFulcrum(amount);\n    }\n    amount = balanceAave();\n    if (amount > 0) {\n      withdrawAave(amount);\n    }\n  }\n\n  function withdrawSomeCompound(uint256 _amount) public {\n    uint256 b = balanceCompound();\n    uint256 bT = balanceCompoundInToken();\n    require(bT >= _amount, \"insufficient funds\");\n    uint256 amount = b.mul(_amount).div(bT);\n    withdrawCompound(amount);\n  }\n\n  function withdrawSome(uint256 _amount) public {\n    if (provider == Lender.COMPOUND) {\n      withdrawSomeCompound(_amount);\n    }\n    if (provider == Lender.AAVE) {\n      require(balanceAave() >= _amount, \"insufficient funds\");\n      withdrawAave(_amount);\n    }\n    if (provider == Lender.DYDX) {\n      require(balanceDydx() >= _amount, \"insufficient funds\");\n      withdrawDydx(_amount);\n    }\n    if (provider == Lender.FULCRUM) {\n      withdrawFulcrum(_amount);\n    }\n  }\n\n  function rebalance() public {\n    Lender newProvider = recommend();\n\n    if (newProvider != provider) {\n      withdrawAll();\n    }\n\n    if (balance() > 0) {\n      if (newProvider == Lender.DYDX) {\n        supplyDydx(balance());\n      }\n      if (newProvider == Lender.FULCRUM) {\n        supplyFulcrum(balance());\n      }\n      if (newProvider == Lender.COMPOUND) {\n        supplyCompound(balance());\n      }\n      if (newProvider == Lender.AAVE) {\n        supplyAave(balance());\n      }\n    }\n    provider = newProvider;\n  }\n\n  function supplyAave(uint amount) public {\n      Aave(getAave()).deposit(token, amount, 0);\n  }\n  function supplyFulcrum(uint amount) public {\n      require(Fulcrum(fulcrum).mint(address(this), amount) > 0, \"FULCRUM: supply failed\");\n  }\n  function supplyCompound(uint amount) public {\n      require(Compound(compound).mint(amount) == 0, \"COMPOUND: supply failed\");\n  }\n  function withdrawAave(uint amount) public {\n      AToken(aaveToken).redeem(amount);\n  }\n  function withdrawFulcrum(uint amount) public {\n      require(Fulcrum(fulcrum).burn(address(this), amount) > 0, \"FULCRUM: withdraw failed\");\n  }\n  function withdrawCompound(uint amount) public {\n      require(Compound(compound).redeem(amount) == 0, \"COMPOUND: withdraw failed\");\n  }\n\n  // Invest ETH\n  function invest(uint256 _amount)\n      external\n      nonReentrant\n  {\n      require(_amount > 0, \"deposit must be greater than 0\");\n      pool = calcPoolValueInToken();\n\n      IERC20(token).transferFrom(msg.sender, address(this), _amount);\n\n      rebalance();\n\n      // Calculate pool shares\n      uint256 shares = 0;\n      if (pool == 0) {\n        shares = _amount;\n        pool = _amount;\n      } else {\n        shares = (_amount.mul(_totalSupply)).div(pool);\n      }\n      pool = calcPoolValueInToken();\n      _mint(msg.sender, shares);\n  }\n\n  // Invest self eth from external profits\n  function investSelf()\n      external\n      nonReentrant\n      onlyOwner\n  {\n      uint b = IERC20(token).balanceOf(address(this));\n      require(b > 0, \"deposit must be greater than 0\");\n      rebalance();\n      pool = calcPoolValueInToken();\n  }\n\n  function calcPoolValueInToken() public view returns (uint) {\n\n    return balanceCompoundInToken()\n      .add(balanceFulcrumInToken())\n      .add(balanceDydx())\n      .add(balanceAave())\n      .add(balance());\n  }\n\n  function getPricePerFullShare() public view returns (uint) {\n    uint _pool = calcPoolValueInToken();\n    return _pool.mul(1e18).div(_totalSupply);\n  }\n\n  // Redeem any invested tokens from the pool\n  function redeem(uint256 _shares)\n      external\n      nonReentrant\n  {\n      require(_shares > 0, \"withdraw must be greater than 0\");\n\n      uint256 ibalance = balanceOf(msg.sender);\n      require(_shares <= ibalance, \"insufficient balance\");\n\n      // Could have over value from cTokens\n      pool = calcPoolValueInToken();\n      // Calc eth to redeem before updating balances\n      uint256 r = (pool.mul(_shares)).div(_totalSupply);\n\n\n      _balances[msg.sender] = _balances[msg.sender].sub(_shares, \"redeem amount exceeds balance\");\n      _totalSupply = _totalSupply.sub(_shares);\n\n      emit Transfer(msg.sender, address(0), _shares);\n\n      // Check ETH balance\n      uint256 b = IERC20(token).balanceOf(address(this));\n      if (b < r) {\n        withdrawSome(r);\n      }\n\n      IERC20(token).transfer(msg.sender, r);\n\n      rebalance();\n      pool = calcPoolValueInToken();\n\n  }\n\n  // incase of half-way error\n  function inCaseTokenGetsStuck(IERC20 _TokenAddress) onlyOwner public {\n      uint qty = _TokenAddress.balanceOf(address(this));\n      _TokenAddress.transfer(msg.sender, qty);\n  }\n  // incase of half-way error\n  function inCaseETHGetsStuck() onlyOwner public{\n      (bool result, ) = msg.sender.call.value(address(this).balance)(\"\");\n      require(result, \"transfer of ETH failed\");\n  }\n}\n",
  "sourcePath": "D:/ftm/itoken/contracts/YDAI.sol",
  "compiler": {
    "name": "solc",
    "version": "0.5.12+commit.7709ece9.Emscripten.clang"
  },
  "schemaVersion": "3.0.19",
  "updatedAt": "2020-01-30T03:14:06.401Z",
  "devdoc": {
    "methods": {}
  },
  "userdoc": {
    "methods": {}
  }
}