{
  "contractName": "yDAI",
  "abi": [
    {
      "inputs": [],
      "payable": false,
      "stateMutability": "nonpayable",
      "type": "constructor"
    },
    {
      "anonymous": false,
      "inputs": [
        {
          "indexed": true,
          "internalType": "address",
          "name": "owner",
          "type": "address"
        },
        {
          "indexed": true,
          "internalType": "address",
          "name": "spender",
          "type": "address"
        },
        {
          "indexed": false,
          "internalType": "uint256",
          "name": "value",
          "type": "uint256"
        }
      ],
      "name": "Approval",
      "type": "event"
    },
    {
      "anonymous": false,
      "inputs": [
        {
          "indexed": true,
          "internalType": "address",
          "name": "previousOwner",
          "type": "address"
        },
        {
          "indexed": true,
          "internalType": "address",
          "name": "newOwner",
          "type": "address"
        }
      ],
      "name": "OwnershipTransferred",
      "type": "event"
    },
    {
      "anonymous": false,
      "inputs": [
        {
          "indexed": true,
          "internalType": "address",
          "name": "from",
          "type": "address"
        },
        {
          "indexed": true,
          "internalType": "address",
          "name": "to",
          "type": "address"
        },
        {
          "indexed": false,
          "internalType": "uint256",
          "name": "value",
          "type": "uint256"
        }
      ],
      "name": "Transfer",
      "type": "event"
    },
    {
      "constant": true,
      "inputs": [],
      "name": "aave",
      "outputs": [
        {
          "internalType": "address",
          "name": "",
          "type": "address"
        }
      ],
      "payable": false,
      "stateMutability": "view",
      "type": "function"
    },
    {
      "constant": true,
      "inputs": [],
      "name": "aaveToken",
      "outputs": [
        {
          "internalType": "address",
          "name": "",
          "type": "address"
        }
      ],
      "payable": false,
      "stateMutability": "view",
      "type": "function"
    },
    {
      "constant": true,
      "inputs": [
        {
          "internalType": "address",
          "name": "owner",
          "type": "address"
        },
        {
          "internalType": "address",
          "name": "spender",
          "type": "address"
        }
      ],
      "name": "allowance",
      "outputs": [
        {
          "internalType": "uint256",
          "name": "",
          "type": "uint256"
        }
      ],
      "payable": false,
      "stateMutability": "view",
      "type": "function"
    },
    {
      "constant": false,
      "inputs": [
        {
          "internalType": "address",
          "name": "spender",
          "type": "address"
        },
        {
          "internalType": "uint256",
          "name": "amount",
          "type": "uint256"
        }
      ],
      "name": "approve",
      "outputs": [
        {
          "internalType": "bool",
          "name": "",
          "type": "bool"
        }
      ],
      "payable": false,
      "stateMutability": "nonpayable",
      "type": "function"
    },
    {
      "constant": true,
      "inputs": [],
      "name": "apr",
      "outputs": [
        {
          "internalType": "address",
          "name": "",
          "type": "address"
        }
      ],
      "payable": false,
      "stateMutability": "view",
      "type": "function"
    },
    {
      "constant": true,
      "inputs": [
        {
          "internalType": "address",
          "name": "account",
          "type": "address"
        }
      ],
      "name": "balanceOf",
      "outputs": [
        {
          "internalType": "uint256",
          "name": "",
          "type": "uint256"
        }
      ],
      "payable": false,
      "stateMutability": "view",
      "type": "function"
    },
    {
      "constant": true,
      "inputs": [],
      "name": "compound",
      "outputs": [
        {
          "internalType": "address",
          "name": "",
          "type": "address"
        }
      ],
      "payable": false,
      "stateMutability": "view",
      "type": "function"
    },
    {
      "constant": true,
      "inputs": [],
      "name": "dToken",
      "outputs": [
        {
          "internalType": "uint256",
          "name": "",
          "type": "uint256"
        }
      ],
      "payable": false,
      "stateMutability": "view",
      "type": "function"
    },
    {
      "constant": true,
      "inputs": [],
      "name": "decimals",
      "outputs": [
        {
          "internalType": "uint8",
          "name": "",
          "type": "uint8"
        }
      ],
      "payable": false,
      "stateMutability": "view",
      "type": "function"
    },
    {
      "constant": false,
      "inputs": [
        {
          "internalType": "address",
          "name": "spender",
          "type": "address"
        },
        {
          "internalType": "uint256",
          "name": "subtractedValue",
          "type": "uint256"
        }
      ],
      "name": "decreaseAllowance",
      "outputs": [
        {
          "internalType": "bool",
          "name": "",
          "type": "bool"
        }
      ],
      "payable": false,
      "stateMutability": "nonpayable",
      "type": "function"
    },
    {
      "constant": true,
      "inputs": [],
      "name": "dydx",
      "outputs": [
        {
          "internalType": "address",
          "name": "",
          "type": "address"
        }
      ],
      "payable": false,
      "stateMutability": "view",
      "type": "function"
    },
    {
      "constant": true,
      "inputs": [],
      "name": "fulcrum",
      "outputs": [
        {
          "internalType": "address",
          "name": "",
          "type": "address"
        }
      ],
      "payable": false,
      "stateMutability": "view",
      "type": "function"
    },
    {
      "constant": false,
      "inputs": [
        {
          "internalType": "address",
          "name": "spender",
          "type": "address"
        },
        {
          "internalType": "uint256",
          "name": "addedValue",
          "type": "uint256"
        }
      ],
      "name": "increaseAllowance",
      "outputs": [
        {
          "internalType": "bool",
          "name": "",
          "type": "bool"
        }
      ],
      "payable": false,
      "stateMutability": "nonpayable",
      "type": "function"
    },
    {
      "constant": true,
      "inputs": [],
      "name": "isOwner",
      "outputs": [
        {
          "internalType": "bool",
          "name": "",
          "type": "bool"
        }
      ],
      "payable": false,
      "stateMutability": "view",
      "type": "function"
    },
    {
      "constant": true,
      "inputs": [],
      "name": "name",
      "outputs": [
        {
          "internalType": "string",
          "name": "",
          "type": "string"
        }
      ],
      "payable": false,
      "stateMutability": "view",
      "type": "function"
    },
    {
      "constant": true,
      "inputs": [],
      "name": "owner",
      "outputs": [
        {
          "internalType": "address",
          "name": "",
          "type": "address"
        }
      ],
      "payable": false,
      "stateMutability": "view",
      "type": "function"
    },
    {
      "constant": true,
      "inputs": [],
      "name": "pool",
      "outputs": [
        {
          "internalType": "uint256",
          "name": "",
          "type": "uint256"
        }
      ],
      "payable": false,
      "stateMutability": "view",
      "type": "function"
    },
    {
      "constant": true,
      "inputs": [],
      "name": "provider",
      "outputs": [
        {
          "internalType": "enum yDAI.Lender",
          "name": "",
          "type": "uint8"
        }
      ],
      "payable": false,
      "stateMutability": "view",
      "type": "function"
    },
    {
      "constant": false,
      "inputs": [],
      "name": "renounceOwnership",
      "outputs": [],
      "payable": false,
      "stateMutability": "nonpayable",
      "type": "function"
    },
    {
      "constant": true,
      "inputs": [],
      "name": "symbol",
      "outputs": [
        {
          "internalType": "string",
          "name": "",
          "type": "string"
        }
      ],
      "payable": false,
      "stateMutability": "view",
      "type": "function"
    },
    {
      "constant": true,
      "inputs": [],
      "name": "token",
      "outputs": [
        {
          "internalType": "address",
          "name": "",
          "type": "address"
        }
      ],
      "payable": false,
      "stateMutability": "view",
      "type": "function"
    },
    {
      "constant": true,
      "inputs": [],
      "name": "totalSupply",
      "outputs": [
        {
          "internalType": "uint256",
          "name": "",
          "type": "uint256"
        }
      ],
      "payable": false,
      "stateMutability": "view",
      "type": "function"
    },
    {
      "constant": false,
      "inputs": [
        {
          "internalType": "address",
          "name": "recipient",
          "type": "address"
        },
        {
          "internalType": "uint256",
          "name": "amount",
          "type": "uint256"
        }
      ],
      "name": "transfer",
      "outputs": [
        {
          "internalType": "bool",
          "name": "",
          "type": "bool"
        }
      ],
      "payable": false,
      "stateMutability": "nonpayable",
      "type": "function"
    },
    {
      "constant": false,
      "inputs": [
        {
          "internalType": "address",
          "name": "sender",
          "type": "address"
        },
        {
          "internalType": "address",
          "name": "recipient",
          "type": "address"
        },
        {
          "internalType": "uint256",
          "name": "amount",
          "type": "uint256"
        }
      ],
      "name": "transferFrom",
      "outputs": [
        {
          "internalType": "bool",
          "name": "",
          "type": "bool"
        }
      ],
      "payable": false,
      "stateMutability": "nonpayable",
      "type": "function"
    },
    {
      "constant": false,
      "inputs": [
        {
          "internalType": "address",
          "name": "newOwner",
          "type": "address"
        }
      ],
      "name": "transferOwnership",
      "outputs": [],
      "payable": false,
      "stateMutability": "nonpayable",
      "type": "function"
    },
    {
      "constant": false,
      "inputs": [
        {
          "internalType": "address",
          "name": "_new_APR",
          "type": "address"
        }
      ],
      "name": "set_new_APR",
      "outputs": [],
      "payable": false,
      "stateMutability": "nonpayable",
      "type": "function"
    },
    {
      "constant": false,
      "inputs": [
        {
          "internalType": "address",
          "name": "_new_FULCRUM",
          "type": "address"
        }
      ],
      "name": "set_new_FULCRUM",
      "outputs": [],
      "payable": false,
      "stateMutability": "nonpayable",
      "type": "function"
    },
    {
      "constant": false,
      "inputs": [
        {
          "internalType": "address",
          "name": "_new_COMPOUND",
          "type": "address"
        }
      ],
      "name": "set_new_COMPOUND",
      "outputs": [],
      "payable": false,
      "stateMutability": "nonpayable",
      "type": "function"
    },
    {
      "constant": false,
      "inputs": [
        {
          "internalType": "uint256",
          "name": "_new_DTOKEN",
          "type": "uint256"
        }
      ],
      "name": "set_new_DTOKEN",
      "outputs": [],
      "payable": false,
      "stateMutability": "nonpayable",
      "type": "function"
    },
    {
      "constant": false,
      "inputs": [
        {
          "internalType": "address",
          "name": "_new_AAVE",
          "type": "address"
        }
      ],
      "name": "set_new_AAVE",
      "outputs": [],
      "payable": false,
      "stateMutability": "nonpayable",
      "type": "function"
    },
    {
      "constant": false,
      "inputs": [
        {
          "internalType": "address",
          "name": "_new_ATOKEN",
          "type": "address"
        }
      ],
      "name": "set_new_ATOKEN",
      "outputs": [],
      "payable": false,
      "stateMutability": "nonpayable",
      "type": "function"
    },
    {
      "constant": false,
      "inputs": [
        {
          "internalType": "uint256",
          "name": "_amount",
          "type": "uint256"
        }
      ],
      "name": "deposit",
      "outputs": [],
      "payable": false,
      "stateMutability": "nonpayable",
      "type": "function"
    },
    {
      "constant": false,
      "inputs": [
        {
          "internalType": "uint256",
          "name": "_shares",
          "type": "uint256"
        }
      ],
      "name": "withdraw",
      "outputs": [],
      "payable": false,
      "stateMutability": "nonpayable",
      "type": "function"
    },
    {
      "constant": true,
      "inputs": [],
      "name": "recommend",
      "outputs": [
        {
          "internalType": "enum yDAI.Lender",
          "name": "",
          "type": "uint8"
        }
      ],
      "payable": false,
      "stateMutability": "view",
      "type": "function"
    },
    {
      "constant": true,
      "inputs": [],
      "name": "getAave",
      "outputs": [
        {
          "internalType": "address",
          "name": "",
          "type": "address"
        }
      ],
      "payable": false,
      "stateMutability": "view",
      "type": "function"
    },
    {
      "constant": true,
      "inputs": [],
      "name": "getAaveCore",
      "outputs": [
        {
          "internalType": "address",
          "name": "",
          "type": "address"
        }
      ],
      "payable": false,
      "stateMutability": "view",
      "type": "function"
    },
    {
      "constant": false,
      "inputs": [],
      "name": "approveToken",
      "outputs": [],
      "payable": false,
      "stateMutability": "nonpayable",
      "type": "function"
    },
    {
      "constant": true,
      "inputs": [],
      "name": "balance",
      "outputs": [
        {
          "internalType": "uint256",
          "name": "",
          "type": "uint256"
        }
      ],
      "payable": false,
      "stateMutability": "view",
      "type": "function"
    },
    {
      "constant": true,
      "inputs": [],
      "name": "balanceDydx",
      "outputs": [
        {
          "internalType": "uint256",
          "name": "",
          "type": "uint256"
        }
      ],
      "payable": false,
      "stateMutability": "view",
      "type": "function"
    },
    {
      "constant": true,
      "inputs": [],
      "name": "balanceCompound",
      "outputs": [
        {
          "internalType": "uint256",
          "name": "",
          "type": "uint256"
        }
      ],
      "payable": false,
      "stateMutability": "view",
      "type": "function"
    },
    {
      "constant": true,
      "inputs": [],
      "name": "balanceCompoundInToken",
      "outputs": [
        {
          "internalType": "uint256",
          "name": "",
          "type": "uint256"
        }
      ],
      "payable": false,
      "stateMutability": "view",
      "type": "function"
    },
    {
      "constant": true,
      "inputs": [],
      "name": "balanceFulcrumInToken",
      "outputs": [
        {
          "internalType": "uint256",
          "name": "",
          "type": "uint256"
        }
      ],
      "payable": false,
      "stateMutability": "view",
      "type": "function"
    },
    {
      "constant": true,
      "inputs": [],
      "name": "balanceFulcrum",
      "outputs": [
        {
          "internalType": "uint256",
          "name": "",
          "type": "uint256"
        }
      ],
      "payable": false,
      "stateMutability": "view",
      "type": "function"
    },
    {
      "constant": true,
      "inputs": [],
      "name": "balanceAave",
      "outputs": [
        {
          "internalType": "uint256",
          "name": "",
          "type": "uint256"
        }
      ],
      "payable": false,
      "stateMutability": "view",
      "type": "function"
    },
    {
      "constant": false,
      "inputs": [],
      "name": "rebalance",
      "outputs": [],
      "payable": false,
      "stateMutability": "nonpayable",
      "type": "function"
    },
    {
      "constant": true,
      "inputs": [],
      "name": "calcPoolValueInToken",
      "outputs": [
        {
          "internalType": "uint256",
          "name": "",
          "type": "uint256"
        }
      ],
      "payable": false,
      "stateMutability": "view",
      "type": "function"
    },
    {
      "constant": true,
      "inputs": [],
      "name": "getPricePerFullShare",
      "outputs": [
        {
          "internalType": "uint256",
          "name": "",
          "type": "uint256"
        }
      ],
      "payable": false,
      "stateMutability": "view",
      "type": "function"
    },
    {
      "constant": false,
      "inputs": [],
      "name": "withdrawAll",
      "outputs": [],
      "payable": false,
      "stateMutability": "nonpayable",
      "type": "function"
    },
    {
      "constant": false,
      "inputs": [
        {
          "internalType": "uint256",
          "name": "_amount",
          "type": "uint256"
        }
      ],
      "name": "withdrawSomeCompound",
      "outputs": [],
      "payable": false,
      "stateMutability": "nonpayable",
      "type": "function"
    },
    {
      "constant": false,
      "inputs": [
        {
          "internalType": "uint256",
          "name": "_amount",
          "type": "uint256"
        }
      ],
      "name": "withdrawSomeFulcrum",
      "outputs": [],
      "payable": false,
      "stateMutability": "nonpayable",
      "type": "function"
    },
    {
      "constant": false,
      "inputs": [
        {
          "internalType": "uint256",
          "name": "_amount",
          "type": "uint256"
        }
      ],
      "name": "withdrawSome",
      "outputs": [],
      "payable": false,
      "stateMutability": "nonpayable",
      "type": "function"
    },
    {
      "constant": false,
      "inputs": [
        {
          "internalType": "uint256",
          "name": "amount",
          "type": "uint256"
        }
      ],
      "name": "supplyDydx",
      "outputs": [],
      "payable": false,
      "stateMutability": "nonpayable",
      "type": "function"
    },
    {
      "constant": false,
      "inputs": [
        {
          "internalType": "uint256",
          "name": "amount",
          "type": "uint256"
        }
      ],
      "name": "supplyAave",
      "outputs": [],
      "payable": false,
      "stateMutability": "nonpayable",
      "type": "function"
    },
    {
      "constant": false,
      "inputs": [
        {
          "internalType": "uint256",
          "name": "amount",
          "type": "uint256"
        }
      ],
      "name": "supplyFulcrum",
      "outputs": [],
      "payable": false,
      "stateMutability": "nonpayable",
      "type": "function"
    },
    {
      "constant": false,
      "inputs": [
        {
          "internalType": "uint256",
          "name": "amount",
          "type": "uint256"
        }
      ],
      "name": "supplyCompound",
      "outputs": [],
      "payable": false,
      "stateMutability": "nonpayable",
      "type": "function"
    },
    {
      "constant": false,
      "inputs": [
        {
          "internalType": "uint256",
          "name": "amount",
          "type": "uint256"
        }
      ],
      "name": "withdrawAave",
      "outputs": [],
      "payable": false,
      "stateMutability": "nonpayable",
      "type": "function"
    },
    {
      "constant": false,
      "inputs": [
        {
          "internalType": "uint256",
          "name": "amount",
          "type": "uint256"
        }
      ],
      "name": "withdrawFulcrum",
      "outputs": [],
      "payable": false,
      "stateMutability": "nonpayable",
      "type": "function"
    },
    {
      "constant": false,
      "inputs": [
        {
          "internalType": "uint256",
          "name": "amount",
          "type": "uint256"
        }
      ],
      "name": "withdrawCompound",
      "outputs": [],
      "payable": false,
      "stateMutability": "nonpayable",
      "type": "function"
    },
    {
      "constant": false,
      "inputs": [
        {
          "internalType": "uint256",
          "name": "amount",
          "type": "uint256"
        }
      ],
      "name": "withdrawDydx",
      "outputs": [],
      "payable": false,
      "stateMutability": "nonpayable",
      "type": "function"
    }
  ],
  "bytecode": "0x60806040526000601060146101000a81548160ff021916908360048111156200002457fe5b02179055503480156200003657600080fd5b506040518060400160405280600981526020017f696561726e2044414900000000000000000000000000000000000000000000008152506040518060400160405280600481526020017f794441490000000000000000000000000000000000000000000000000000000081525060128260039080519060200190620000bd92919062000a9b565b508160049080519060200190620000d692919062000a9b565b5080600560006101000a81548160ff021916908360ff16021790555050505060016006819055506200010d6200043b60201b60201c565b600760006101000a81548173ffffffffffffffffffffffffffffffffffffffff021916908373ffffffffffffffffffffffffffffffffffffffff160217905550600760009054906101000a900473ffffffffffffffffffffffffffffffffffffffff1673ffffffffffffffffffffffffffffffffffffffff16600073ffffffffffffffffffffffffffffffffffffffff167f8be0079c531659141344cd1fd0a4f28419497f9722a3daafe3b4186f6b6457e060405160405180910390a3736b175474e89094c44da98b954eedeac495271d0f600960006101000a81548173ffffffffffffffffffffffffffffffffffffffff021916908373ffffffffffffffffffffffffffffffffffffffff16021790555073dd6d648c991f7d47454354f4ef326b04025a48a8601060006101000a81548173ffffffffffffffffffffffffffffffffffffffff021916908373ffffffffffffffffffffffffffffffffffffffff160217905550731e0447b19bb6ecfdae1e4ae1694b0c3659614e4e600e60006101000a81548173ffffffffffffffffffffffffffffffffffffffff021916908373ffffffffffffffffffffffffffffffffffffffff1602179055507324a42fd28c976a61df5d00d0599c34c4f90748c8600c60006101000a81548173ffffffffffffffffffffffffffffffffffffffff021916908373ffffffffffffffffffffffffffffffffffffffff16021790555073493c57c4763932315a328269e1adad09653b9081600b60006101000a81548173ffffffffffffffffffffffffffffffffffffffff021916908373ffffffffffffffffffffffffffffffffffffffff16021790555073fc1e690f61efd961294b3e1ce3313fbd8aa4f85d600d60006101000a81548173ffffffffffffffffffffffffffffffffffffffff021916908373ffffffffffffffffffffffffffffffffffffffff160217905550735d3a536e4d6dbd6114cc1ead35777bab948e3643600a60006101000a81548173ffffffffffffffffffffffffffffffffffffffff021916908373ffffffffffffffffffffffffffffffffffffffff1602179055506003600f81905550620004356200044360201b60201c565b62000fb0565b600033905090565b620004d9600a60009054906101000a900473ffffffffffffffffffffffffffffffffffffffff167fffffffffffffffffffffffffffffffffffffffffffffffffffffffffffffffff600960009054906101000a900473ffffffffffffffffffffffffffffffffffffffff1673ffffffffffffffffffffffffffffffffffffffff166200068a60201b62003d54179092919060201c565b6200056f600e60009054906101000a900473ffffffffffffffffffffffffffffffffffffffff167fffffffffffffffffffffffffffffffffffffffffffffffffffffffffffffffff600960009054906101000a900473ffffffffffffffffffffffffffffffffffffffff1673ffffffffffffffffffffffffffffffffffffffff166200068a60201b62003d54179092919060201c565b620005f2620005836200081560201b60201c565b7fffffffffffffffffffffffffffffffffffffffffffffffffffffffffffffffff600960009054906101000a900473ffffffffffffffffffffffffffffffffffffffff1673ffffffffffffffffffffffffffffffffffffffff166200068a60201b62003d54179092919060201c565b62000688600b60009054906101000a900473ffffffffffffffffffffffffffffffffffffffff167fffffffffffffffffffffffffffffffffffffffffffffffffffffffffffffffff600960009054906101000a900473ffffffffffffffffffffffffffffffffffffffff1673ffffffffffffffffffffffffffffffffffffffff166200068a60201b62003d54179092919060201c565b565b60008114806200072a575060008373ffffffffffffffffffffffffffffffffffffffff1663dd62ed3e30856040518363ffffffff1660e01b8152600401620006d492919062000dd9565b60206040518083038186803b158015620006ed57600080fd5b505afa15801562000702573d6000803e3d6000fd5b505050506040513d601f19601f8201168201806040525062000728919081019062000be7565b145b6200076c576040517f08c379a0000000000000000000000000000000000000000000000000000000008152600401620007639062000e77565b60405180910390fd5b62000810838473ffffffffffffffffffffffffffffffffffffffff1663095ea7b3905060e01b8484604051602401620007a792919062000e06565b604051602081830303815290604052907bffffffffffffffffffffffffffffffffffffffffffffffffffffffff19166020820180517bffffffffffffffffffffffffffffffffffffffffffffffffffffffff8381831617835250505050620008c060201b60201c565b505050565b6000600c60009054906101000a900473ffffffffffffffffffffffffffffffffffffffff1673ffffffffffffffffffffffffffffffffffffffff1663ed6ff7606040518163ffffffff1660e01b815260040160206040518083038186803b1580156200088057600080fd5b505afa15801562000895573d6000803e3d6000fd5b505050506040513d601f19601f82011682018060405250620008bb919081019062000b8f565b905090565b620008ec8273ffffffffffffffffffffffffffffffffffffffff1662000a4f60201b6200449e1760201c565b6200092e576040517f08c379a0000000000000000000000000000000000000000000000000000000008152600401620009259062000e99565b60405180910390fd5b600060608373ffffffffffffffffffffffffffffffffffffffff168360405162000959919062000dc0565b6000604051808303816000865af19150503d806000811462000998576040519150601f19603f3d011682016040523d82523d6000602084013e6200099d565b606091505b509150915081620009e5576040517f08c379a0000000000000000000000000000000000000000000000000000000008152600401620009dc9062000e33565b60405180910390fd5b60008151111562000a49578080602001905162000a06919081019062000bbb565b62000a48576040517f08c379a000000000000000000000000000000000000000000000000000000000815260040162000a3f9062000e55565b60405180910390fd5b5b50505050565b60008060007fc5d2460186f7233c927e7db2dcc703c0e500b653ca82273b7bfad8045d85a47060001b9050833f91506000801b821415801562000a925750808214155b92505050919050565b828054600181600116156101000203166002900490600052602060002090601f016020900481019282601f1062000ade57805160ff191683800117855562000b0f565b8280016001018555821562000b0f579182015b8281111562000b0e57825182559160200191906001019062000af1565b5b50905062000b1e919062000b22565b5090565b62000b4791905b8082111562000b4357600081600090555060010162000b29565b5090565b90565b60008151905062000b5b8162000f62565b92915050565b60008151905062000b728162000f7c565b92915050565b60008151905062000b898162000f96565b92915050565b60006020828403121562000ba257600080fd5b600062000bb28482850162000b4a565b91505092915050565b60006020828403121562000bce57600080fd5b600062000bde8482850162000b61565b91505092915050565b60006020828403121562000bfa57600080fd5b600062000c0a8482850162000b78565b91505092915050565b62000c1e8162000ee2565b82525050565b600062000c318262000ebb565b62000c3d818562000ec6565b935062000c4f81856020860162000f2c565b80840191505092915050565b600062000c6a60208362000ed1565b91507f5361666545524332303a206c6f772d6c6576656c2063616c6c206661696c65646000830152602082019050919050565b600062000cac602a8362000ed1565b91507f5361666545524332303a204552433230206f7065726174696f6e20646964206e60008301527f6f742073756363656564000000000000000000000000000000000000000000006020830152604082019050919050565b600062000d1460368362000ed1565b91507f5361666545524332303a20617070726f76652066726f6d206e6f6e2d7a65726f60008301527f20746f206e6f6e2d7a65726f20616c6c6f77616e6365000000000000000000006020830152604082019050919050565b600062000d7c601f8362000ed1565b91507f5361666545524332303a2063616c6c20746f206e6f6e2d636f6e7472616374006000830152602082019050919050565b62000dba8162000f22565b82525050565b600062000dce828462000c24565b915081905092915050565b600060408201905062000df0600083018562000c13565b62000dff602083018462000c13565b9392505050565b600060408201905062000e1d600083018562000c13565b62000e2c602083018462000daf565b9392505050565b6000602082019050818103600083015262000e4e8162000c5b565b9050919050565b6000602082019050818103600083015262000e708162000c9d565b9050919050565b6000602082019050818103600083015262000e928162000d05565b9050919050565b6000602082019050818103600083015262000eb48162000d6d565b9050919050565b600081519050919050565b600081905092915050565b600082825260208201905092915050565b600062000eef8262000f02565b9050919050565b60008115159050919050565b600073ffffffffffffffffffffffffffffffffffffffff82169050919050565b6000819050919050565b60005b8381101562000f4c57808201518184015260208101905062000f2f565b8381111562000f5c576000848401525b50505050565b62000f6d8162000ee2565b811462000f7957600080fd5b50565b62000f878162000ef6565b811462000f9357600080fd5b50565b62000fa18162000f22565b811462000fad57600080fd5b50565b615c7f8062000fc06000396000f3fe608060405234801561001057600080fd5b50600436106103995760003560e01c8063812adb06116101e9578063b30d0bb21161010f578063e849d659116100ad578063f69e20461161007c578063f69e204614610a16578063f7c1ec7714610a34578063f82ce27d14610a52578063fc0c546a14610a7057610399565b8063e849d659146109a4578063f2fde38b146109c0578063f5a41dea146109dc578063f5ff1916146109fa57610399565b8063bbf31644116100e9578063bbf316441461091c578063cf8ca42614610938578063d9d7858a14610956578063dd62ed3e1461097457610399565b8063b30d0bb2146108c6578063b69ef8a8146108e2578063b6b55f251461090057610399565b806399b71d5c11610187578063a728797111610156578063a728797114610840578063a9059cbb1461085e578063a9de245b1461088e578063ae9b051c146108aa57610399565b806399b71d5c146107cc5780639ff011b9146107d6578063a160176d146107f2578063a457c2d71461081057610399565b80638da5cb5b116101c35780638da5cb5b146107545780638e4ec6ef146107725780638f32d59b1461079057806395d89b41146107ae57610399565b8063812adb0614610710578063819faf7b1461072c578063853828b61461074a57610399565b806346357473116102ce57806365aab7491161026c578063715018a61161023b578063715018a6146106c257806377c7b8fc146106cc5780637d7c2a1c146106ea5780638124955c146106f457610399565b806365aab7491461063c57806367e4b7401461065857806370a08231146106745780637137ef99146106a457610399565b806357b87543116102a857806357b87543146105c657806357ded9c9146105e257806358782c211461060057806361c1ec551461061e57610399565b8063463574731461057257806356cc93781461058e5780635762bbd9146105aa57610399565b806318160ddd1161033b578063313ce56711610315578063313ce567146104ea578063395093511461050857806339c0a7e11461053857806341c57c8d1461055657610399565b806318160ddd1461048057806323b872dd1461049e5780632e1a7d4d146104ce57610399565b8063085d488311610377578063085d4883146103f6578063095ea7b3146104145780630eb2a2671461044457806316f0115b1461046257610399565b806306636c1c1461039e57806306a3fe59146103ba57806306fdde03146103d8575b600080fd5b6103b860048036036103b3919081019061498c565b610a8e565b005b6103c2610ae1565b6040516103cf9190615461565b60405180910390f35b6103e0610b07565b6040516103ed91906155a9565b60405180910390f35b6103fe610ba9565b60405161040b919061558e565b60405180910390f35b61042e6004803603610429919081019061486f565b610bbc565b60405161043b9190615573565b60405180910390f35b61044c610bda565b60405161045991906158b4565b60405180910390f35b61046a610c8c565b60405161047791906158b4565b60405180910390f35b610488610c92565b60405161049591906158b4565b60405180910390f35b6104b860048036036104b39190810190614820565b610c9c565b6040516104c59190615573565b60405180910390f35b6104e860048036036104e3919081019061498c565b610d75565b005b6104f261111f565b6040516104ff91906158cf565b60405180910390f35b610522600480360361051d919081019061486f565b611136565b60405161052f9190615573565b60405180910390f35b6105406111e9565b60405161054d91906158b4565b60405180910390f35b610570600480360361056b919081019061498c565b6112d9565b005b61058c60048036036105879190810190614792565b61132c565b005b6105a860048036036105a3919081019061498c565b6113b7565b005b6105c460048036036105bf919081019061498c565b61140a565b005b6105e060048036036105db919081019061498c565b61145d565b005b6105ea6114b0565b6040516105f79190615461565b60405180910390f35b6106086114d6565b6040516106159190615461565b60405180910390f35b6106266114fc565b60405161063391906158b4565b60405180910390f35b6106566004803603610651919081019061498c565b6115ae565b005b610672600480360361066d919081019061498c565b611601565b005b61068e60048036036106899190810190614792565b611654565b60405161069b91906158b4565b60405180910390f35b6106ac61169c565b6040516106b991906158b4565b60405180910390f35b6106ca61170f565b005b6106d4611817565b6040516106e191906158b4565b60405180910390f35b6106f2611859565b005b61070e6004803603610709919081019061498c565b61199f565b005b61072a60048036036107259190810190614792565b6119f2565b005b610734611a7d565b6040516107419190615461565b60405180910390f35b610752611aa3565b005b61075c611af4565b6040516107699190615461565b60405180910390f35b61077a611b1e565b6040516107879190615461565b60405180910390f35b610798611b44565b6040516107a59190615573565b60405180910390f35b6107b6611ba3565b6040516107c391906155a9565b60405180910390f35b6107d4611c45565b005b6107f060048036036107eb919081019061498c565b611e68565b005b6107fa611eb9565b604051610807919061558e565b60405180910390f35b61082a6004803603610825919081019061486f565b612025565b6040516108379190615573565b60405180910390f35b6108486120f2565b60405161085591906158b4565b60405180910390f35b6108786004803603610873919081019061486f565b6121de565b6040516108859190615573565b60405180910390f35b6108a860048036036108a39190810190614792565b6121fc565b005b6108c460048036036108bf919081019061498c565b612287565b005b6108e060048036036108db919081019061498c565b6122da565b005b6108ea61232d565b6040516108f791906158b4565b60405180910390f35b61091a6004803603610915919081019061498c565b6123df565b005b61093660048036036109319190810190614792565b612543565b005b6109406125ce565b60405161094d91906158b4565b60405180910390f35b61095e612680565b60405161096b91906158b4565b60405180910390f35b61098e600480360361098991908101906147e4565b612686565b60405161099b91906158b4565b60405180910390f35b6109be60048036036109b9919081019061498c565b61270d565b005b6109da60048036036109d59190810190614792565b612760565b005b6109e46127b3565b6040516109f191906158b4565b60405180910390f35b610a146004803603610a0f9190810190614792565b61287e565b005b610a1e612909565b604051610a2b9190615461565b60405180910390f35b610a3c61292f565b604051610a499190615461565b60405180910390f35b610a5a6129d6565b604051610a679190615461565b60405180910390f35b610a78612a7d565b604051610a859190615461565b60405180910390f35b610a96611b44565b610ad5576040517f08c379a0000000000000000000000000000000000000000000000000000000008152600401610acc906156eb565b60405180910390fd5b610ade81612aa3565b50565b600d60009054906101000a900473ffffffffffffffffffffffffffffffffffffffff1681565b606060038054600181600116156101000203166002900480601f016020809104026020016040519081016040528092919081815260200182805460018160011615610100020316600290048015610b9f5780601f10610b7457610100808354040283529160200191610b9f565b820191906000526020600020905b815481529060010190602001808311610b8257829003601f168201915b5050505050905090565b601060149054906101000a900460ff1681565b6000610bd0610bc9612cdd565b8484612ce5565b6001905092915050565b6000600b60009054906101000a900473ffffffffffffffffffffffffffffffffffffffff1673ffffffffffffffffffffffffffffffffffffffff166370a08231306040518263ffffffff1660e01b8152600401610c379190615461565b60206040518083038186803b158015610c4f57600080fd5b505afa158015610c63573d6000803e3d6000fd5b505050506040513d601f19601f82011682018060405250610c8791908101906149b5565b905090565b60085481565b6000600254905090565b6000610ca9848484612eb0565b610d6a84610cb5612cdd565b610d6585604051806060016040528060288152602001615bf060289139600160008b73ffffffffffffffffffffffffffffffffffffffff1673ffffffffffffffffffffffffffffffffffffffff1681526020019081526020016000206000610d1b612cdd565b73ffffffffffffffffffffffffffffffffffffffff1673ffffffffffffffffffffffffffffffffffffffff1681526020019081526020016000205461313a9092919063ffffffff16565b612ce5565b600190509392505050565b60016006600082825401925050819055506000600654905060008211610dd0576040517f08c379a0000000000000000000000000000000000000000000000000000000008152600401610dc79061572b565b60405180910390fd5b6000610ddb33611654565b905080831115610e20576040517f08c379a0000000000000000000000000000000000000000000000000000000008152600401610e179061570b565b60405180910390fd5b610e2861169c565b6008819055506000610e59600254610e4b8660085461319590919063ffffffff16565b61320590919063ffffffff16565b9050610ee3846040518060400160405280601d81526020017f72656465656d20616d6f756e7420657863656564732062616c616e63650000008152506000803373ffffffffffffffffffffffffffffffffffffffff1673ffffffffffffffffffffffffffffffffffffffff1681526020019081526020016000205461313a9092919063ffffffff16565b6000803373ffffffffffffffffffffffffffffffffffffffff1673ffffffffffffffffffffffffffffffffffffffff16815260200190815260200160002081905550610f3a8460025461324f90919063ffffffff16565b600281905550600073ffffffffffffffffffffffffffffffffffffffff163373ffffffffffffffffffffffffffffffffffffffff167fddf252ad1be2c89b69c2b068fc378daa952ba7f163c4a11628f55a4df523b3ef86604051610f9e91906158b4565b60405180910390a36000600960009054906101000a900473ffffffffffffffffffffffffffffffffffffffff1673ffffffffffffffffffffffffffffffffffffffff166370a08231306040518263ffffffff1660e01b81526004016110039190615461565b60206040518083038186803b15801561101b57600080fd5b505afa15801561102f573d6000803e3d6000fd5b505050506040513d601f19601f8201168201806040525061105391908101906149b5565b90508181101561107957611078611073828461324f90919063ffffffff16565b613299565b5b6110c63383600960009054906101000a900473ffffffffffffffffffffffffffffffffffffffff1673ffffffffffffffffffffffffffffffffffffffff1661340f9092919063ffffffff16565b6110ce61169c565b600881905550505050600654811461111b576040517f08c379a00000000000000000000000000000000000000000000000000000000081526004016111129061580b565b60405180910390fd5b5050565b6000600560009054906101000a900460ff16905090565b60006111df611143612cdd565b846111da8560016000611154612cdd565b73ffffffffffffffffffffffffffffffffffffffff1673ffffffffffffffffffffffffffffffffffffffff16815260200190815260200160002060008973ffffffffffffffffffffffffffffffffffffffff1673ffffffffffffffffffffffffffffffffffffffff168152602001908152602001600020546134ae90919063ffffffff16565b612ce5565b6001905092915050565b60006111f36144e9565b600e60009054906101000a900473ffffffffffffffffffffffffffffffffffffffff1673ffffffffffffffffffffffffffffffffffffffff1663c190c2ec60405180604001604052803073ffffffffffffffffffffffffffffffffffffffff1681526020016000815250600f546040518363ffffffff1660e01b815260040161127d92919061588b565b604080518083038186803b15801561129457600080fd5b505afa1580156112a8573d6000803e3d6000fd5b505050506040513d601f19601f820116820180604052506112cc9190810190614963565b9050806020015191505090565b6112e1611b44565b611320576040517f08c379a0000000000000000000000000000000000000000000000000000000008152600401611317906156eb565b60405180910390fd5b61132981613503565b50565b611334611b44565b611373576040517f08c379a000000000000000000000000000000000000000000000000000000000815260040161136a906156eb565b60405180910390fd5b80601060006101000a81548173ffffffffffffffffffffffffffffffffffffffff021916908373ffffffffffffffffffffffffffffffffffffffff16021790555050565b6113bf611b44565b6113fe576040517f08c379a00000000000000000000000000000000000000000000000000000000081526004016113f5906156eb565b60405180910390fd5b6114078161373d565b50565b611412611b44565b611451576040517f08c379a0000000000000000000000000000000000000000000000000000000008152600401611448906156eb565b60405180910390fd5b61145a816137cd565b50565b611465611b44565b6114a4576040517f08c379a000000000000000000000000000000000000000000000000000000000815260040161149b906156eb565b60405180910390fd5b6114ad816138c1565b50565b601060009054906101000a900473ffffffffffffffffffffffffffffffffffffffff1681565b600b60009054906101000a900473ffffffffffffffffffffffffffffffffffffffff1681565b6000600a60009054906101000a900473ffffffffffffffffffffffffffffffffffffffff1673ffffffffffffffffffffffffffffffffffffffff166370a08231306040518263ffffffff1660e01b81526004016115599190615461565b60206040518083038186803b15801561157157600080fd5b505afa158015611585573d6000803e3d6000fd5b505050506040513d601f19601f820116820180604052506115a991908101906149b5565b905090565b6115b6611b44565b6115f5576040517f08c379a00000000000000000000000000000000000000000000000000000000081526004016115ec906156eb565b60405180910390fd5b6115fe816139b3565b50565b611609611b44565b611648576040517f08c379a000000000000000000000000000000000000000000000000000000000815260040161163f906156eb565b60405180910390fd5b61165181613a4f565b50565b60008060008373ffffffffffffffffffffffffffffffffffffffff1673ffffffffffffffffffffffffffffffffffffffff168152602001908152602001600020549050919050565b600061170a6116a961232d565b6116fc6116b46125ce565b6116ee6116bf6111e9565b6116e06116ca6127b3565b6116d26120f2565b6134ae90919063ffffffff16565b6134ae90919063ffffffff16565b6134ae90919063ffffffff16565b6134ae90919063ffffffff16565b905090565b611717611b44565b611756576040517f08c379a000000000000000000000000000000000000000000000000000000000815260040161174d906156eb565b60405180910390fd5b600073ffffffffffffffffffffffffffffffffffffffff16600760009054906101000a900473ffffffffffffffffffffffffffffffffffffffff1673ffffffffffffffffffffffffffffffffffffffff167f8be0079c531659141344cd1fd0a4f28419497f9722a3daafe3b4186f6b6457e060405160405180910390a36000600760006101000a81548173ffffffffffffffffffffffffffffffffffffffff021916908373ffffffffffffffffffffffffffffffffffffffff160217905550565b60008061182261169c565b9050611853600254611845670de0b6b3a76400008461319590919063ffffffff16565b61320590919063ffffffff16565b91505090565b6000611863611eb9565b9050601060149054906101000a900460ff16600481111561188057fe5b81600481111561188c57fe5b1461189a57611899613af5565b5b60006118a461232d565b111561197957600160048111156118b757fe5b8160048111156118c357fe5b14156118de576118d96118d461232d565b612aa3565b611978565b6004808111156118ea57fe5b8160048111156118f657fe5b14156119115761190c61190761232d565b613b6e565b611977565b6002600481111561191e57fe5b81600481111561192a57fe5b14156119455761194061193b61232d565b613c62565b611976565b6003600481111561195257fe5b81600481111561195e57fe5b14156119755761197461196f61232d565b6139b3565b5b5b5b5b5b80601060146101000a81548160ff0219169083600481111561199757fe5b021790555050565b6119a7611b44565b6119e6576040517f08c379a00000000000000000000000000000000000000000000000000000000081526004016119dd906156eb565b60405180910390fd5b6119ef81613b6e565b50565b6119fa611b44565b611a39576040517f08c379a0000000000000000000000000000000000000000000000000000000008152600401611a30906156eb565b60405180910390fd5b80600c60006101000a81548173ffffffffffffffffffffffffffffffffffffffff021916908373ffffffffffffffffffffffffffffffffffffffff16021790555050565b600c60009054906101000a900473ffffffffffffffffffffffffffffffffffffffff1681565b611aab611b44565b611aea576040517f08c379a0000000000000000000000000000000000000000000000000000000008152600401611ae1906156eb565b60405180910390fd5b611af2613af5565b565b6000600760009054906101000a900473ffffffffffffffffffffffffffffffffffffffff16905090565b600e60009054906101000a900473ffffffffffffffffffffffffffffffffffffffff1681565b6000600760009054906101000a900473ffffffffffffffffffffffffffffffffffffffff1673ffffffffffffffffffffffffffffffffffffffff16611b87612cdd565b73ffffffffffffffffffffffffffffffffffffffff1614905090565b606060048054600181600116156101000203166002900480601f016020809104026020016040519081016040528092919081815260200182805460018160011615610100020316600290048015611c3b5780601f10611c1057610100808354040283529160200191611c3b565b820191906000526020600020905b815481529060010190602001808311611c1e57829003601f168201915b5050505050905090565b611cd4600a60009054906101000a900473ffffffffffffffffffffffffffffffffffffffff167fffffffffffffffffffffffffffffffffffffffffffffffffffffffffffffffff600960009054906101000a900473ffffffffffffffffffffffffffffffffffffffff1673ffffffffffffffffffffffffffffffffffffffff16613d549092919063ffffffff16565b611d63600e60009054906101000a900473ffffffffffffffffffffffffffffffffffffffff167fffffffffffffffffffffffffffffffffffffffffffffffffffffffffffffffff600960009054906101000a900473ffffffffffffffffffffffffffffffffffffffff1673ffffffffffffffffffffffffffffffffffffffff16613d549092919063ffffffff16565b611dd7611d6e6129d6565b7fffffffffffffffffffffffffffffffffffffffffffffffffffffffffffffffff600960009054906101000a900473ffffffffffffffffffffffffffffffffffffffff1673ffffffffffffffffffffffffffffffffffffffff16613d549092919063ffffffff16565b611e66600b60009054906101000a900473ffffffffffffffffffffffffffffffffffffffff167fffffffffffffffffffffffffffffffffffffffffffffffffffffffffffffffff600960009054906101000a900473ffffffffffffffffffffffffffffffffffffffff1673ffffffffffffffffffffffffffffffffffffffff16613d549092919063ffffffff16565b565b611e70611b44565b611eaf576040517f08c379a0000000000000000000000000000000000000000000000000000000008152600401611ea6906156eb565b60405180910390fd5b80600f8190555050565b6000806000806000601060009054906101000a900473ffffffffffffffffffffffffffffffffffffffff1673ffffffffffffffffffffffffffffffffffffffff1663d88be3c0600960009054906101000a900473ffffffffffffffffffffffffffffffffffffffff166040518263ffffffff1660e01b8152600401611f3e9190615461565b60006040518083038186803b158015611f5657600080fd5b505afa158015611f6a573d6000803e3d6000fd5b505050506040513d6000823e3d601f19601f82011682018060405250611f9391908101906148d4565b945094509450945050600080905080851115611fad578490505b80841115611fb9578390505b80831115611fc5578290505b80821115611fd1578190505b600080905085821415611fe75760029050612019565b84821415611ff85760049050612018565b838214156120095760039050612017565b8282141561201657600190505b5b5b5b80965050505050505090565b60006120e8612032612cdd565b846120e385604051806060016040528060258152602001615c18602591396001600061205c612cdd565b73ffffffffffffffffffffffffffffffffffffffff1673ffffffffffffffffffffffffffffffffffffffff16815260200190815260200160002060008a73ffffffffffffffffffffffffffffffffffffffff1673ffffffffffffffffffffffffffffffffffffffff1681526020019081526020016000205461313a9092919063ffffffff16565b612ce5565b6001905092915050565b6000806120fd6114fc565b905060008111156121d7576121d4670de0b6b3a76400006121c6600a60009054906101000a900473ffffffffffffffffffffffffffffffffffffffff1673ffffffffffffffffffffffffffffffffffffffff1663182df0f56040518163ffffffff1660e01b815260040160206040518083038186803b15801561217f57600080fd5b505afa158015612193573d6000803e3d6000fd5b505050506040513d601f19601f820116820180604052506121b791908101906149b5565b8461319590919063ffffffff16565b61320590919063ffffffff16565b90505b8091505090565b60006121f26121eb612cdd565b8484612eb0565b6001905092915050565b612204611b44565b612243576040517f08c379a000000000000000000000000000000000000000000000000000000000815260040161223a906156eb565b60405180910390fd5b80600d60006101000a81548173ffffffffffffffffffffffffffffffffffffffff021916908373ffffffffffffffffffffffffffffffffffffffff16021790555050565b61228f611b44565b6122ce576040517f08c379a00000000000000000000000000000000000000000000000000000000081526004016122c5906156eb565b60405180910390fd5b6122d781613299565b50565b6122e2611b44565b612321576040517f08c379a0000000000000000000000000000000000000000000000000000000008152600401612318906156eb565b60405180910390fd5b61232a81613ecb565b50565b6000600960009054906101000a900473ffffffffffffffffffffffffffffffffffffffff1673ffffffffffffffffffffffffffffffffffffffff166370a08231306040518263ffffffff1660e01b815260040161238a9190615461565b60206040518083038186803b1580156123a257600080fd5b505afa1580156123b6573d6000803e3d6000fd5b505050506040513d601f19601f820116820180604052506123da91908101906149b5565b905090565b6001600660008282540192505081905550600060065490506000821161243a576040517f08c379a0000000000000000000000000000000000000000000000000000000008152600401612431906157ab565b60405180910390fd5b61244261169c565b600881905550612497333084600960009054906101000a900473ffffffffffffffffffffffffffffffffffffffff1673ffffffffffffffffffffffffffffffffffffffff16613f71909392919063ffffffff16565b6000809050600060085414156124b657829050826008819055506124e2565b6124df6008546124d16002548661319590919063ffffffff16565b61320590919063ffffffff16565b90505b6124ea61169c565b6008819055506124fa3382614013565b50600654811461253f576040517f08c379a00000000000000000000000000000000000000000000000000000000081526004016125369061580b565b60405180910390fd5b5050565b61254b611b44565b61258a576040517f08c379a0000000000000000000000000000000000000000000000000000000008152600401612581906156eb565b60405180910390fd5b80600b60006101000a81548173ffffffffffffffffffffffffffffffffffffffff021916908373ffffffffffffffffffffffffffffffffffffffff16021790555050565b6000600d60009054906101000a900473ffffffffffffffffffffffffffffffffffffffff1673ffffffffffffffffffffffffffffffffffffffff166370a08231306040518263ffffffff1660e01b815260040161262b9190615461565b60206040518083038186803b15801561264357600080fd5b505afa158015612657573d6000803e3d6000fd5b505050506040513d601f19601f8201168201806040525061267b91908101906149b5565b905090565b600f5481565b6000600160008473ffffffffffffffffffffffffffffffffffffffff1673ffffffffffffffffffffffffffffffffffffffff16815260200190815260200160002060008373ffffffffffffffffffffffffffffffffffffffff1673ffffffffffffffffffffffffffffffffffffffff16815260200190815260200160002054905092915050565b612715611b44565b612754576040517f08c379a000000000000000000000000000000000000000000000000000000000815260040161274b906156eb565b60405180910390fd5b61275d81613c62565b50565b612768611b44565b6127a7576040517f08c379a000000000000000000000000000000000000000000000000000000000815260040161279e906156eb565b60405180910390fd5b6127b08161419b565b50565b6000806127be610bda565b9050600081111561287757600b60009054906101000a900473ffffffffffffffffffffffffffffffffffffffff1673ffffffffffffffffffffffffffffffffffffffff166306b3efd6306040518263ffffffff1660e01b81526004016128249190615461565b60206040518083038186803b15801561283c57600080fd5b505afa158015612850573d6000803e3d6000fd5b505050506040513d601f19601f8201168201806040525061287491908101906149b5565b90505b8091505090565b612886611b44565b6128c5576040517f08c379a00000000000000000000000000000000000000000000000000000000081526004016128bc906156eb565b60405180910390fd5b80600a60006101000a81548173ffffffffffffffffffffffffffffffffffffffff021916908373ffffffffffffffffffffffffffffffffffffffff16021790555050565b600a60009054906101000a900473ffffffffffffffffffffffffffffffffffffffff1681565b6000600c60009054906101000a900473ffffffffffffffffffffffffffffffffffffffff1673ffffffffffffffffffffffffffffffffffffffff16630261bf8b6040518163ffffffff1660e01b815260040160206040518083038186803b15801561299957600080fd5b505afa1580156129ad573d6000803e3d6000fd5b505050506040513d601f19601f820116820180604052506129d191908101906147bb565b905090565b6000600c60009054906101000a900473ffffffffffffffffffffffffffffffffffffffff1673ffffffffffffffffffffffffffffffffffffffff1663ed6ff7606040518163ffffffff1660e01b815260040160206040518083038186803b158015612a4057600080fd5b505afa158015612a54573d6000803e3d6000fd5b505050506040513d601f19601f82011682018060405250612a7891908101906147bb565b905090565b600960009054906101000a900473ffffffffffffffffffffffffffffffffffffffff1681565b60606001604051908082528060200260200182016040528015612ae057816020015b612acd614505565b815260200190600190039081612ac55790505b50905060405180604001604052803073ffffffffffffffffffffffffffffffffffffffff168152602001600081525081600081518110612b1c57fe5b6020026020010181905250612b2f614535565b6040518060800160405280600115158152602001600080811115612b4f57fe5b8152602001600080811115612b6057fe5b8152602001848152509050612b73614573565b600081600001906001811115612b8557fe5b90816001811115612b9257fe5b815250506000816020018181525050818160400181905250600f54816060018181525050308160a0019073ffffffffffffffffffffffffffffffffffffffff16908173ffffffffffffffffffffffffffffffffffffffff168152505060606001604051908082528060200260200182016040528015612c2b57816020015b612c186145df565b815260200190600190039081612c105790505b5090508181600081518110612c3c57fe5b6020026020010181905250600e60009054906101000a900473ffffffffffffffffffffffffffffffffffffffff1673ffffffffffffffffffffffffffffffffffffffff1663a67a6a4585836040518363ffffffff1660e01b8152600401612ca492919061553c565b600060405180830381600087803b158015612cbe57600080fd5b505af1158015612cd2573d6000803e3d6000fd5b505050505050505050565b600033905090565b600073ffffffffffffffffffffffffffffffffffffffff168373ffffffffffffffffffffffffffffffffffffffff161415612d55576040517f08c379a0000000000000000000000000000000000000000000000000000000008152600401612d4c9061578b565b60405180910390fd5b600073ffffffffffffffffffffffffffffffffffffffff168273ffffffffffffffffffffffffffffffffffffffff161415612dc5576040517f08c379a0000000000000000000000000000000000000000000000000000000008152600401612dbc9061562b565b60405180910390fd5b80600160008573ffffffffffffffffffffffffffffffffffffffff1673ffffffffffffffffffffffffffffffffffffffff16815260200190815260200160002060008473ffffffffffffffffffffffffffffffffffffffff1673ffffffffffffffffffffffffffffffffffffffff168152602001908152602001600020819055508173ffffffffffffffffffffffffffffffffffffffff168373ffffffffffffffffffffffffffffffffffffffff167f8c5be1e5ebec7d5bd14f71427d1e84f3dd0314c0f7b2291e5b200ac8c7c3b92583604051612ea391906158b4565b60405180910390a3505050565b600073ffffffffffffffffffffffffffffffffffffffff168373ffffffffffffffffffffffffffffffffffffffff161415612f20576040517f08c379a0000000000000000000000000000000000000000000000000000000008152600401612f179061574b565b60405180910390fd5b600073ffffffffffffffffffffffffffffffffffffffff168273ffffffffffffffffffffffffffffffffffffffff161415612f90576040517f08c379a0000000000000000000000000000000000000000000000000000000008152600401612f87906155cb565b60405180910390fd5b612ffb81604051806060016040528060268152602001615bca602691396000808773ffffffffffffffffffffffffffffffffffffffff1673ffffffffffffffffffffffffffffffffffffffff1681526020019081526020016000205461313a9092919063ffffffff16565b6000808573ffffffffffffffffffffffffffffffffffffffff1673ffffffffffffffffffffffffffffffffffffffff1681526020019081526020016000208190555061308e816000808573ffffffffffffffffffffffffffffffffffffffff1673ffffffffffffffffffffffffffffffffffffffff168152602001908152602001600020546134ae90919063ffffffff16565b6000808473ffffffffffffffffffffffffffffffffffffffff1673ffffffffffffffffffffffffffffffffffffffff168152602001908152602001600020819055508173ffffffffffffffffffffffffffffffffffffffff168373ffffffffffffffffffffffffffffffffffffffff167fddf252ad1be2c89b69c2b068fc378daa952ba7f163c4a11628f55a4df523b3ef8360405161312d91906158b4565b60405180910390a3505050565b6000838311158290613182576040517f08c379a000000000000000000000000000000000000000000000000000000000815260040161317991906155a9565b60405180910390fd5b5060008385039050809150509392505050565b6000808314156131a857600090506131ff565b60008284029050828482816131b957fe5b04146131fa576040517f08c379a00000000000000000000000000000000000000000000000000000000081526004016131f1906156ab565b60405180910390fd5b809150505b92915050565b600061324783836040518060400160405280601a81526020017f536166654d6174683a206469766973696f6e206279207a65726f0000000000008152506142cb565b905092915050565b600061329183836040518060400160405280601e81526020017f536166654d6174683a207375627472616374696f6e206f766572666c6f77000081525061313a565b905092915050565b600260048111156132a657fe5b601060149054906101000a900460ff1660048111156132c157fe5b14156132d1576132d081613ecb565b5b600360048111156132de57fe5b601060149054906101000a900460ff1660048111156132f957fe5b141561335357806133086125ce565b1015613349576040517f08c379a00000000000000000000000000000000000000000000000000000000081526004016133409061576b565b60405180910390fd5b6133528161373d565b5b6001600481111561336057fe5b601060149054906101000a900460ff16600481111561337b57fe5b14156133d5578061338a6111e9565b10156133cb576040517f08c379a00000000000000000000000000000000000000000000000000000000081526004016133c29061576b565b60405180910390fd5b6133d481613503565b5b6004808111156133e157fe5b601060149054906101000a900460ff1660048111156133fc57fe5b141561340c5761340b81613a4f565b5b50565b6134a9838473ffffffffffffffffffffffffffffffffffffffff1663a9059cbb905060e01b84846040516024016134479291906154dc565b604051602081830303815290604052907bffffffffffffffffffffffffffffffffffffffffffffffffffffffff19166020820180517bffffffffffffffffffffffffffffffffffffffffffffffffffffffff838183161783525050505061432c565b505050565b6000808284019050838110156134f9576040517f08c379a00000000000000000000000000000000000000000000000000000000081526004016134f09061566b565b60405180910390fd5b8091505092915050565b6060600160405190808252806020026020018201604052801561354057816020015b61352d614505565b8152602001906001900390816135255790505b50905060405180604001604052803073ffffffffffffffffffffffffffffffffffffffff16815260200160008152508160008151811061357c57fe5b602002602001018190525061358f614535565b60405180608001604052806000151581526020016000808111156135af57fe5b81526020016000808111156135c057fe5b81526020018481525090506135d3614573565b6001816000019060018111156135e557fe5b908160018111156135f257fe5b815250506000816020018181525050818160400181905250600f54816060018181525050308160a0019073ffffffffffffffffffffffffffffffffffffffff16908173ffffffffffffffffffffffffffffffffffffffff16815250506060600160405190808252806020026020018201604052801561368b57816020015b6136786145df565b8152602001906001900390816136705790505b509050818160008151811061369c57fe5b6020026020010181905250600e60009054906101000a900473ffffffffffffffffffffffffffffffffffffffff1673ffffffffffffffffffffffffffffffffffffffff1663a67a6a4585836040518363ffffffff1660e01b815260040161370492919061553c565b600060405180830381600087803b15801561371e57600080fd5b505af1158015613732573d6000803e3d6000fd5b505050505050505050565b600d60009054906101000a900473ffffffffffffffffffffffffffffffffffffffff1673ffffffffffffffffffffffffffffffffffffffff1663db006a75826040518263ffffffff1660e01b815260040161379891906158b4565b600060405180830381600087803b1580156137b257600080fd5b505af11580156137c6573d6000803e3d6000fd5b5050505050565b6000600b60009054906101000a900473ffffffffffffffffffffffffffffffffffffffff1673ffffffffffffffffffffffffffffffffffffffff16639dc29fac30846040518363ffffffff1660e01b815260040161382c9291906154dc565b602060405180830381600087803b15801561384657600080fd5b505af115801561385a573d6000803e3d6000fd5b505050506040513d601f19601f8201168201806040525061387e91908101906149b5565b116138be576040517f08c379a00000000000000000000000000000000000000000000000000000000081526004016138b5906156cb565b60405180910390fd5b50565b6000600a60009054906101000a900473ffffffffffffffffffffffffffffffffffffffff1673ffffffffffffffffffffffffffffffffffffffff1663db006a75836040518263ffffffff1660e01b815260040161391e91906158b4565b602060405180830381600087803b15801561393857600080fd5b505af115801561394c573d6000803e3d6000fd5b505050506040513d601f19601f8201168201806040525061397091908101906149b5565b146139b0576040517f08c379a00000000000000000000000000000000000000000000000000000000081526004016139a7906155eb565b60405180910390fd5b50565b6139bb61292f565b73ffffffffffffffffffffffffffffffffffffffff1663d2d0e066600960009054906101000a900473ffffffffffffffffffffffffffffffffffffffff168360006040518463ffffffff1660e01b8152600401613a1a93929190615505565b600060405180830381600087803b158015613a3457600080fd5b505af1158015613a48573d6000803e3d6000fd5b5050505050565b6000613a59610bda565b90506000613a656127b3565b905082811015613aaa576040517f08c379a0000000000000000000000000000000000000000000000000000000008152600401613aa19061576b565b60405180910390fd5b6000613ae46001613ad684613ac8888861319590919063ffffffff16565b61320590919063ffffffff16565b6134ae90919063ffffffff16565b9050613aef816137cd565b50505050565b6000613aff6114fc565b90506000811115613b1457613b13816138c1565b5b613b1c6111e9565b90506000811115613b3157613b3081613503565b5b613b39610bda565b90506000811115613b4e57613b4d816137cd565b5b613b566125ce565b90506000811115613b6b57613b6a8161373d565b5b50565b6000600b60009054906101000a900473ffffffffffffffffffffffffffffffffffffffff1673ffffffffffffffffffffffffffffffffffffffff166340c10f1930846040518363ffffffff1660e01b8152600401613bcd9291906154dc565b602060405180830381600087803b158015613be757600080fd5b505af1158015613bfb573d6000803e3d6000fd5b505050506040513d601f19601f82011682018060405250613c1f91908101906149b5565b11613c5f576040517f08c379a0000000000000000000000000000000000000000000000000000000008152600401613c56906157cb565b60405180910390fd5b50565b6000600a60009054906101000a900473ffffffffffffffffffffffffffffffffffffffff1673ffffffffffffffffffffffffffffffffffffffff1663a0712d68836040518263ffffffff1660e01b8152600401613cbf91906158b4565b602060405180830381600087803b158015613cd957600080fd5b505af1158015613ced573d6000803e3d6000fd5b505050506040513d601f19601f82011682018060405250613d1191908101906149b5565b14613d51576040517f08c379a0000000000000000000000000000000000000000000000000000000008152600401613d489061564b565b60405180910390fd5b50565b6000811480613ded575060008373ffffffffffffffffffffffffffffffffffffffff1663dd62ed3e30856040518363ffffffff1660e01b8152600401613d9b92919061547c565b60206040518083038186803b158015613db357600080fd5b505afa158015613dc7573d6000803e3d6000fd5b505050506040513d601f19601f82011682018060405250613deb91908101906149b5565b145b613e2c576040517f08c379a0000000000000000000000000000000000000000000000000000000008152600401613e239061582b565b60405180910390fd5b613ec6838473ffffffffffffffffffffffffffffffffffffffff1663095ea7b3905060e01b8484604051602401613e649291906154dc565b604051602081830303815290604052907bffffffffffffffffffffffffffffffffffffffffffffffffffffffff19166020820180517bffffffffffffffffffffffffffffffffffffffffffffffffffffffff838183161783525050505061432c565b505050565b6000613ed56114fc565b90506000613ee16120f2565b905082811015613f26576040517f08c379a0000000000000000000000000000000000000000000000000000000008152600401613f1d9061576b565b60405180910390fd5b6000613f606001613f5284613f44888861319590919063ffffffff16565b61320590919063ffffffff16565b6134ae90919063ffffffff16565b9050613f6b816138c1565b50505050565b61400d848573ffffffffffffffffffffffffffffffffffffffff166323b872dd905060e01b858585604051602401613fab939291906154a5565b604051602081830303815290604052907bffffffffffffffffffffffffffffffffffffffffffffffffffffffff19166020820180517bffffffffffffffffffffffffffffffffffffffffffffffffffffffff838183161783525050505061432c565b50505050565b600073ffffffffffffffffffffffffffffffffffffffff168273ffffffffffffffffffffffffffffffffffffffff161415614083576040517f08c379a000000000000000000000000000000000000000000000000000000000815260040161407a9061586b565b60405180910390fd5b614098816002546134ae90919063ffffffff16565b6002819055506140ef816000808573ffffffffffffffffffffffffffffffffffffffff1673ffffffffffffffffffffffffffffffffffffffff168152602001908152602001600020546134ae90919063ffffffff16565b6000808473ffffffffffffffffffffffffffffffffffffffff1673ffffffffffffffffffffffffffffffffffffffff168152602001908152602001600020819055508173ffffffffffffffffffffffffffffffffffffffff16600073ffffffffffffffffffffffffffffffffffffffff167fddf252ad1be2c89b69c2b068fc378daa952ba7f163c4a11628f55a4df523b3ef8360405161418f91906158b4565b60405180910390a35050565b600073ffffffffffffffffffffffffffffffffffffffff168173ffffffffffffffffffffffffffffffffffffffff16141561420b576040517f08c379a00000000000000000000000000000000000000000000000000000000081526004016142029061560b565b60405180910390fd5b8073ffffffffffffffffffffffffffffffffffffffff16600760009054906101000a900473ffffffffffffffffffffffffffffffffffffffff1673ffffffffffffffffffffffffffffffffffffffff167f8be0079c531659141344cd1fd0a4f28419497f9722a3daafe3b4186f6b6457e060405160405180910390a380600760006101000a81548173ffffffffffffffffffffffffffffffffffffffff021916908373ffffffffffffffffffffffffffffffffffffffff16021790555050565b60008083118290614312576040517f08c379a000000000000000000000000000000000000000000000000000000000815260040161430991906155a9565b60405180910390fd5b50600083858161431e57fe5b049050809150509392505050565b61434b8273ffffffffffffffffffffffffffffffffffffffff1661449e565b61438a576040517f08c379a00000000000000000000000000000000000000000000000000000000081526004016143819061584b565b60405180910390fd5b600060608373ffffffffffffffffffffffffffffffffffffffff16836040516143b3919061544a565b6000604051808303816000865af19150503d80600081146143f0576040519150601f19603f3d011682016040523d82523d6000602084013e6143f5565b606091505b50915091508161443a576040517f08c379a00000000000000000000000000000000000000000000000000000000081526004016144319061568b565b60405180910390fd5b600081511115614498578080602001905161445891908101906148ab565b614497576040517f08c379a000000000000000000000000000000000000000000000000000000000815260040161448e906157eb565b60405180910390fd5b5b50505050565b60008060007fc5d2460186f7233c927e7db2dcc703c0e500b653ca82273b7bfad8045d85a47060001b9050833f91506000801b82141580156144e05750808214155b92505050919050565b6040518060400160405280600015158152602001600081525090565b6040518060400160405280600073ffffffffffffffffffffffffffffffffffffffff168152602001600081525090565b604051806080016040528060001515815260200160008081111561455557fe5b815260200160008081111561456657fe5b8152602001600081525090565b6040518061010001604052806000600181111561458c57fe5b8152602001600081526020016145a061464b565b81526020016000815260200160008152602001600073ffffffffffffffffffffffffffffffffffffffff16815260200160008152602001606081525090565b604051806101000160405280600060018111156145f857fe5b81526020016000815260200161460c61464b565b81526020016000815260200160008152602001600073ffffffffffffffffffffffffffffffffffffffff16815260200160008152602001606081525090565b604051806080016040528060001515815260200160008081111561466b57fe5b815260200160008081111561467c57fe5b8152602001600081525090565b60008135905061469881615b84565b92915050565b6000815190506146ad81615b84565b92915050565b6000815190506146c281615b9b565b92915050565b600082601f8301126146d957600080fd5b81516146ec6146e782615917565b6158ea565b9150808252602083016020830185838301111561470857600080fd5b614713838284615b0c565b50505092915050565b60006040828403121561472e57600080fd5b61473860406158ea565b90506000614748848285016146b3565b600083015250602061475c8482850161477d565b60208301525092915050565b60008135905061477781615bb2565b92915050565b60008151905061478c81615bb2565b92915050565b6000602082840312156147a457600080fd5b60006147b284828501614689565b91505092915050565b6000602082840312156147cd57600080fd5b60006147db8482850161469e565b91505092915050565b600080604083850312156147f757600080fd5b600061480585828601614689565b925050602061481685828601614689565b9150509250929050565b60008060006060848603121561483557600080fd5b600061484386828701614689565b935050602061485486828701614689565b925050604061486586828701614768565b9150509250925092565b6000806040838503121561488257600080fd5b600061489085828601614689565b92505060206148a185828601614768565b9150509250929050565b6000602082840312156148bd57600080fd5b60006148cb848285016146b3565b91505092915050565b600080600080600060a086880312156148ec57600080fd5b600086015167ffffffffffffffff81111561490657600080fd5b614912888289016146c8565b95505060206149238882890161477d565b94505060406149348882890161477d565b93505060606149458882890161477d565b92505060806149568882890161477d565b9150509295509295909350565b60006040828403121561497557600080fd5b60006149838482850161471c565b91505092915050565b60006020828403121561499e57600080fd5b60006149ac84828501614768565b91505092915050565b6000602082840312156149c757600080fd5b60006149d58482850161477d565b91505092915050565b60006149ea83836152b7565b905092915050565b60006149fe83836153bf565b60408301905092915050565b614a1381615a03565b82525050565b614a2281615a03565b82525050565b6000614a3382615963565b614a3d81856159b4565b935083602082028501614a4f85615943565b8060005b85811015614a8b5784840389528151614a6c85826149de565b9450614a778361599a565b925060208a01995050600181019050614a53565b50829750879550505050505092915050565b6000614aa88261596e565b614ab281856159c5565b9350614abd83615953565b8060005b83811015614aee578151614ad588826149f2565b9750614ae0836159a7565b925050600181019050614ac1565b5085935050505092915050565b614b0481615a15565b82525050565b614b1381615a15565b82525050565b6000614b2482615984565b614b2e81856159e7565b9350614b3e818560208601615b0c565b80840191505092915050565b6000614b5582615979565b614b5f81856159d6565b9350614b6f818560208601615b0c565b614b7881615b3f565b840191505092915050565b614b8c81615ab2565b82525050565b614b9b81615ac4565b82525050565b614baa81615ad6565b82525050565b614bb981615ae8565b82525050565b614bc881615afa565b82525050565b6000614bd98261598f565b614be381856159f2565b9350614bf3818560208601615b0c565b614bfc81615b3f565b840191505092915050565b6000614c146023836159f2565b91507f45524332303a207472616e7366657220746f20746865207a65726f206164647260008301527f65737300000000000000000000000000000000000000000000000000000000006020830152604082019050919050565b6000614c7a6019836159f2565b91507f434f4d504f554e443a207769746864726177206661696c6564000000000000006000830152602082019050919050565b6000614cba6026836159f2565b91507f4f776e61626c653a206e6577206f776e657220697320746865207a65726f206160008301527f64647265737300000000000000000000000000000000000000000000000000006020830152604082019050919050565b6000614d206022836159f2565b91507f45524332303a20617070726f766520746f20746865207a65726f20616464726560008301527f73730000000000000000000000000000000000000000000000000000000000006020830152604082019050919050565b6000614d866017836159f2565b91507f434f4d504f554e443a20737570706c79206661696c65640000000000000000006000830152602082019050919050565b6000614dc6601b836159f2565b91507f536166654d6174683a206164646974696f6e206f766572666c6f7700000000006000830152602082019050919050565b6000614e066020836159f2565b91507f5361666545524332303a206c6f772d6c6576656c2063616c6c206661696c65646000830152602082019050919050565b6000614e466021836159f2565b91507f536166654d6174683a206d756c7469706c69636174696f6e206f766572666c6f60008301527f77000000000000000000000000000000000000000000000000000000000000006020830152604082019050919050565b6000614eac6018836159f2565b91507f46554c4352554d3a207769746864726177206661696c656400000000000000006000830152602082019050919050565b6000614eec6020836159f2565b91507f4f776e61626c653a2063616c6c6572206973206e6f7420746865206f776e65726000830152602082019050919050565b6000614f2c6014836159f2565b91507f696e73756666696369656e742062616c616e63650000000000000000000000006000830152602082019050919050565b6000614f6c601f836159f2565b91507f7769746864726177206d7573742062652067726561746572207468616e2030006000830152602082019050919050565b6000614fac6025836159f2565b91507f45524332303a207472616e736665722066726f6d20746865207a65726f20616460008301527f64726573730000000000000000000000000000000000000000000000000000006020830152604082019050919050565b60006150126012836159f2565b91507f696e73756666696369656e742066756e647300000000000000000000000000006000830152602082019050919050565b60006150526024836159f2565b91507f45524332303a20617070726f76652066726f6d20746865207a65726f2061646460008301527f72657373000000000000000000000000000000000000000000000000000000006020830152604082019050919050565b60006150b8601e836159f2565b91507f6465706f736974206d7573742062652067726561746572207468616e203000006000830152602082019050919050565b60006150f86016836159f2565b91507f46554c4352554d3a20737570706c79206661696c6564000000000000000000006000830152602082019050919050565b6000615138602a836159f2565b91507f5361666545524332303a204552433230206f7065726174696f6e20646964206e60008301527f6f742073756363656564000000000000000000000000000000000000000000006020830152604082019050919050565b600061519e601f836159f2565b91507f5265656e7472616e637947756172643a207265656e7472616e742063616c6c006000830152602082019050919050565b60006151de6036836159f2565b91507f5361666545524332303a20617070726f76652066726f6d206e6f6e2d7a65726f60008301527f20746f206e6f6e2d7a65726f20616c6c6f77616e6365000000000000000000006020830152604082019050919050565b6000615244601f836159f2565b91507f5361666545524332303a2063616c6c20746f206e6f6e2d636f6e7472616374006000830152602082019050919050565b6000615284601f836159f2565b91507f45524332303a206d696e7420746f20746865207a65726f2061646472657373006000830152602082019050919050565b6000610160830160008301516152d06000860182614b83565b5060208301516152e3602086018261541d565b5060408301516152f6604086018261536a565b50606083015161530960c086018261541d565b50608083015161531c60e086018261541d565b5060a0830151615330610100860182614a0a565b5060c083015161534461012086018261541d565b5060e083015184820361014086015261535d8282614b4a565b9150508091505092915050565b6080820160008201516153806000850182614afb565b5060208201516153936020850182614b92565b5060408201516153a66040850182614ba1565b5060608201516153b9606085018261541d565b50505050565b6040820160008201516153d56000850182614a0a565b5060208201516153e8602085018261541d565b50505050565b6040820160008201516154046000850182614a0a565b506020820151615417602085018261541d565b50505050565b61542681615a9b565b82525050565b61543581615a9b565b82525050565b61544481615aa5565b82525050565b60006154568284614b19565b915081905092915050565b60006020820190506154766000830184614a19565b92915050565b60006040820190506154916000830185614a19565b61549e6020830184614a19565b9392505050565b60006060820190506154ba6000830186614a19565b6154c76020830185614a19565b6154d4604083018461542c565b949350505050565b60006040820190506154f16000830185614a19565b6154fe602083018461542c565b9392505050565b600060608201905061551a6000830186614a19565b615527602083018561542c565b6155346040830184614bbf565b949350505050565b600060408201905081810360008301526155568185614a9d565b9050818103602083015261556a8184614a28565b90509392505050565b60006020820190506155886000830184614b0a565b92915050565b60006020820190506155a36000830184614bb0565b92915050565b600060208201905081810360008301526155c38184614bce565b905092915050565b600060208201905081810360008301526155e481614c07565b9050919050565b6000602082019050818103600083015261560481614c6d565b9050919050565b6000602082019050818103600083015261562481614cad565b9050919050565b6000602082019050818103600083015261564481614d13565b9050919050565b6000602082019050818103600083015261566481614d79565b9050919050565b6000602082019050818103600083015261568481614db9565b9050919050565b600060208201905081810360008301526156a481614df9565b9050919050565b600060208201905081810360008301526156c481614e39565b9050919050565b600060208201905081810360008301526156e481614e9f565b9050919050565b6000602082019050818103600083015261570481614edf565b9050919050565b6000602082019050818103600083015261572481614f1f565b9050919050565b6000602082019050818103600083015261574481614f5f565b9050919050565b6000602082019050818103600083015261576481614f9f565b9050919050565b6000602082019050818103600083015261578481615005565b9050919050565b600060208201905081810360008301526157a481615045565b9050919050565b600060208201905081810360008301526157c4816150ab565b9050919050565b600060208201905081810360008301526157e4816150eb565b9050919050565b600060208201905081810360008301526158048161512b565b9050919050565b6000602082019050818103600083015261582481615191565b9050919050565b60006020820190508181036000830152615844816151d1565b9050919050565b6000602082019050818103600083015261586481615237565b9050919050565b6000602082019050818103600083015261588481615277565b9050919050565b60006060820190506158a060008301856153ee565b6158ad604083018461542c565b9392505050565b60006020820190506158c9600083018461542c565b92915050565b60006020820190506158e4600083018461543b565b92915050565b6000604051905081810181811067ffffffffffffffff8211171561590d57600080fd5b8060405250919050565b600067ffffffffffffffff82111561592e57600080fd5b601f19601f8301169050602081019050919050565b6000819050602082019050919050565b6000819050602082019050919050565b600081519050919050565b600081519050919050565b600081519050919050565b600081519050919050565b600081519050919050565b6000602082019050919050565b6000602082019050919050565b600082825260208201905092915050565b600082825260208201905092915050565b600082825260208201905092915050565b600081905092915050565b600082825260208201905092915050565b6000615a0e82615a7b565b9050919050565b60008115159050919050565b6000819050615a2f82615b50565b919050565b6000819050615a4282615b5d565b919050565b6000819050615a5582615b6a565b919050565b6000819050615a6882615b77565b919050565b600061ffff82169050919050565b600073ffffffffffffffffffffffffffffffffffffffff82169050919050565b6000819050919050565b600060ff82169050919050565b6000615abd82615a21565b9050919050565b6000615acf82615a34565b9050919050565b6000615ae182615a47565b9050919050565b6000615af382615a5a565b9050919050565b6000615b0582615a6d565b9050919050565b60005b83811015615b2a578082015181840152602081019050615b0f565b83811115615b39576000848401525b50505050565b6000601f19601f8301169050919050565b60028110615b5a57fe5b50565b60018110615b6757fe5b50565b60018110615b7457fe5b50565b60058110615b8157fe5b50565b615b8d81615a03565b8114615b9857600080fd5b50565b615ba481615a15565b8114615baf57600080fd5b50565b615bbb81615a9b565b8114615bc657600080fd5b5056fe45524332303a207472616e7366657220616d6f756e7420657863656564732062616c616e636545524332303a207472616e7366657220616d6f756e74206578636565647320616c6c6f77616e636545524332303a2064656372656173656420616c6c6f77616e63652062656c6f77207a65726fa365627a7a72315820d95599b9e61a614e4675a1c8fb92edf170bf925c6ca66827e0522d47a27629816c6578706572696d656e74616cf564736f6c634300050c0040",
  "source": "pragma solidity ^0.5.0;\npragma experimental ABIEncoderV2;\n\ninterface IERC20 {\n    function totalSupply() external view returns (uint256);\n    function balanceOf(address account) external view returns (uint256);\n    function transfer(address recipient, uint256 amount) external returns (bool);\n    function allowance(address owner, address spender) external view returns (uint256);\n    function approve(address spender, uint256 amount) external returns (bool);\n    function transferFrom(address sender, address recipient, uint256 amount) external returns (bool);\n    event Transfer(address indexed from, address indexed to, uint256 value);\n    event Approval(address indexed owner, address indexed spender, uint256 value);\n}\n\ncontract Context {\n    constructor () internal { }\n    // solhint-disable-previous-line no-empty-blocks\n\n    function _msgSender() internal view returns (address payable) {\n        return msg.sender;\n    }\n\n    function _msgData() internal view returns (bytes memory) {\n        this; // silence state mutability warning without generating bytecode - see https://github.com/ethereum/solidity/issues/2691\n        return msg.data;\n    }\n}\n\ncontract Ownable is Context {\n    address private _owner;\n\n    event OwnershipTransferred(address indexed previousOwner, address indexed newOwner);\n    constructor () internal {\n        _owner = _msgSender();\n        emit OwnershipTransferred(address(0), _owner);\n    }\n    function owner() public view returns (address) {\n        return _owner;\n    }\n    modifier onlyOwner() {\n        require(isOwner(), \"Ownable: caller is not the owner\");\n        _;\n    }\n    function isOwner() public view returns (bool) {\n        return _msgSender() == _owner;\n    }\n    function renounceOwnership() public onlyOwner {\n        emit OwnershipTransferred(_owner, address(0));\n        _owner = address(0);\n    }\n    function transferOwnership(address newOwner) public onlyOwner {\n        _transferOwnership(newOwner);\n    }\n    function _transferOwnership(address newOwner) internal {\n        require(newOwner != address(0), \"Ownable: new owner is the zero address\");\n        emit OwnershipTransferred(_owner, newOwner);\n        _owner = newOwner;\n    }\n}\n\ncontract ERC20 is Context, IERC20 {\n    using SafeMath for uint256;\n\n    mapping (address => uint256) _balances;\n\n    mapping (address => mapping (address => uint256)) private _allowances;\n\n    uint256 _totalSupply;\n    function totalSupply() public view returns (uint256) {\n        return _totalSupply;\n    }\n    function balanceOf(address account) public view returns (uint256) {\n        return _balances[account];\n    }\n    function transfer(address recipient, uint256 amount) public returns (bool) {\n        _transfer(_msgSender(), recipient, amount);\n        return true;\n    }\n    function allowance(address owner, address spender) public view returns (uint256) {\n        return _allowances[owner][spender];\n    }\n    function approve(address spender, uint256 amount) public returns (bool) {\n        _approve(_msgSender(), spender, amount);\n        return true;\n    }\n    function transferFrom(address sender, address recipient, uint256 amount) public returns (bool) {\n        _transfer(sender, recipient, amount);\n        _approve(sender, _msgSender(), _allowances[sender][_msgSender()].sub(amount, \"ERC20: transfer amount exceeds allowance\"));\n        return true;\n    }\n    function increaseAllowance(address spender, uint256 addedValue) public returns (bool) {\n        _approve(_msgSender(), spender, _allowances[_msgSender()][spender].add(addedValue));\n        return true;\n    }\n    function decreaseAllowance(address spender, uint256 subtractedValue) public returns (bool) {\n        _approve(_msgSender(), spender, _allowances[_msgSender()][spender].sub(subtractedValue, \"ERC20: decreased allowance below zero\"));\n        return true;\n    }\n    function _transfer(address sender, address recipient, uint256 amount) internal {\n        require(sender != address(0), \"ERC20: transfer from the zero address\");\n        require(recipient != address(0), \"ERC20: transfer to the zero address\");\n\n        _balances[sender] = _balances[sender].sub(amount, \"ERC20: transfer amount exceeds balance\");\n        _balances[recipient] = _balances[recipient].add(amount);\n        emit Transfer(sender, recipient, amount);\n    }\n    function _mint(address account, uint256 amount) internal {\n        require(account != address(0), \"ERC20: mint to the zero address\");\n\n        _totalSupply = _totalSupply.add(amount);\n        _balances[account] = _balances[account].add(amount);\n        emit Transfer(address(0), account, amount);\n    }\n    function _burn(address account, uint256 amount) internal {\n        require(account != address(0), \"ERC20: burn from the zero address\");\n\n        _balances[account] = _balances[account].sub(amount, \"ERC20: burn amount exceeds balance\");\n        _totalSupply = _totalSupply.sub(amount);\n        emit Transfer(account, address(0), amount);\n    }\n    function _approve(address owner, address spender, uint256 amount) internal {\n        require(owner != address(0), \"ERC20: approve from the zero address\");\n        require(spender != address(0), \"ERC20: approve to the zero address\");\n\n        _allowances[owner][spender] = amount;\n        emit Approval(owner, spender, amount);\n    }\n    function _burnFrom(address account, uint256 amount) internal {\n        _burn(account, amount);\n        _approve(account, _msgSender(), _allowances[account][_msgSender()].sub(amount, \"ERC20: burn amount exceeds allowance\"));\n    }\n}\n\ncontract ERC20Detailed is IERC20 {\n    string private _name;\n    string private _symbol;\n    uint8 private _decimals;\n\n    constructor (string memory name, string memory symbol, uint8 decimals) public {\n        _name = name;\n        _symbol = symbol;\n        _decimals = decimals;\n    }\n    function name() public view returns (string memory) {\n        return _name;\n    }\n    function symbol() public view returns (string memory) {\n        return _symbol;\n    }\n    function decimals() public view returns (uint8) {\n        return _decimals;\n    }\n}\n\ncontract ReentrancyGuard {\n    uint256 private _guardCounter;\n\n    constructor () internal {\n        _guardCounter = 1;\n    }\n\n    modifier nonReentrant() {\n        _guardCounter += 1;\n        uint256 localCounter = _guardCounter;\n        _;\n        require(localCounter == _guardCounter, \"ReentrancyGuard: reentrant call\");\n    }\n}\n\nlibrary SafeMath {\n    function add(uint256 a, uint256 b) internal pure returns (uint256) {\n        uint256 c = a + b;\n        require(c >= a, \"SafeMath: addition overflow\");\n\n        return c;\n    }\n    function sub(uint256 a, uint256 b) internal pure returns (uint256) {\n        return sub(a, b, \"SafeMath: subtraction overflow\");\n    }\n    function sub(uint256 a, uint256 b, string memory errorMessage) internal pure returns (uint256) {\n        require(b <= a, errorMessage);\n        uint256 c = a - b;\n\n        return c;\n    }\n    function mul(uint256 a, uint256 b) internal pure returns (uint256) {\n        if (a == 0) {\n            return 0;\n        }\n\n        uint256 c = a * b;\n        require(c / a == b, \"SafeMath: multiplication overflow\");\n\n        return c;\n    }\n    function div(uint256 a, uint256 b) internal pure returns (uint256) {\n        return div(a, b, \"SafeMath: division by zero\");\n    }\n    function div(uint256 a, uint256 b, string memory errorMessage) internal pure returns (uint256) {\n        // Solidity only automatically asserts when dividing by 0\n        require(b > 0, errorMessage);\n        uint256 c = a / b;\n\n        return c;\n    }\n    function mod(uint256 a, uint256 b) internal pure returns (uint256) {\n        return mod(a, b, \"SafeMath: modulo by zero\");\n    }\n    function mod(uint256 a, uint256 b, string memory errorMessage) internal pure returns (uint256) {\n        require(b != 0, errorMessage);\n        return a % b;\n    }\n}\n\nlibrary Address {\n    function isContract(address account) internal view returns (bool) {\n        bytes32 codehash;\n        bytes32 accountHash = 0xc5d2460186f7233c927e7db2dcc703c0e500b653ca82273b7bfad8045d85a470;\n        // solhint-disable-next-line no-inline-assembly\n        assembly { codehash := extcodehash(account) }\n        return (codehash != 0x0 && codehash != accountHash);\n    }\n    function toPayable(address account) internal pure returns (address payable) {\n        return address(uint160(account));\n    }\n    function sendValue(address payable recipient, uint256 amount) internal {\n        require(address(this).balance >= amount, \"Address: insufficient balance\");\n\n        // solhint-disable-next-line avoid-call-value\n        (bool success, ) = recipient.call.value(amount)(\"\");\n        require(success, \"Address: unable to send value, recipient may have reverted\");\n    }\n}\n\nlibrary SafeERC20 {\n    using SafeMath for uint256;\n    using Address for address;\n\n    function safeTransfer(IERC20 token, address to, uint256 value) internal {\n        callOptionalReturn(token, abi.encodeWithSelector(token.transfer.selector, to, value));\n    }\n\n    function safeTransferFrom(IERC20 token, address from, address to, uint256 value) internal {\n        callOptionalReturn(token, abi.encodeWithSelector(token.transferFrom.selector, from, to, value));\n    }\n\n    function safeApprove(IERC20 token, address spender, uint256 value) internal {\n        require((value == 0) || (token.allowance(address(this), spender) == 0),\n            \"SafeERC20: approve from non-zero to non-zero allowance\"\n        );\n        callOptionalReturn(token, abi.encodeWithSelector(token.approve.selector, spender, value));\n    }\n\n    function safeIncreaseAllowance(IERC20 token, address spender, uint256 value) internal {\n        uint256 newAllowance = token.allowance(address(this), spender).add(value);\n        callOptionalReturn(token, abi.encodeWithSelector(token.approve.selector, spender, newAllowance));\n    }\n\n    function safeDecreaseAllowance(IERC20 token, address spender, uint256 value) internal {\n        uint256 newAllowance = token.allowance(address(this), spender).sub(value, \"SafeERC20: decreased allowance below zero\");\n        callOptionalReturn(token, abi.encodeWithSelector(token.approve.selector, spender, newAllowance));\n    }\n    function callOptionalReturn(IERC20 token, bytes memory data) private {\n        require(address(token).isContract(), \"SafeERC20: call to non-contract\");\n\n        // solhint-disable-next-line avoid-low-level-calls\n        (bool success, bytes memory returndata) = address(token).call(data);\n        require(success, \"SafeERC20: low-level call failed\");\n\n        if (returndata.length > 0) { // Return data is optional\n            // solhint-disable-next-line max-line-length\n            require(abi.decode(returndata, (bool)), \"SafeERC20: ERC20 operation did not succeed\");\n        }\n    }\n}\n\ninterface Compound {\n    function mint ( uint256 mintAmount ) external returns ( uint256 );\n    function redeem(uint256 redeemTokens) external returns (uint256);\n    function exchangeRateStored() external view returns (uint);\n}\n\ninterface Fulcrum {\n    function mint(address receiver, uint256 amount) external payable returns (uint256 mintAmount);\n    function burn(address receiver, uint256 burnAmount) external returns (uint256 loanAmountPaid);\n    function assetBalanceOf(address _owner) external view returns (uint256 balance);\n}\n\ninterface ILendingPoolAddressesProvider {\n    function getLendingPool() external view returns (address);\n}\n\ninterface Aave {\n    function deposit(address _reserve, uint256 _amount, uint16 _referralCode) external;\n}\n\ninterface AToken {\n    function redeem(uint256 amount) external;\n}\n\ninterface IIEarnManager {\n    function recommend(address _token) external view returns (\n      string memory choice,\n      uint256 capr,\n      uint256 iapr,\n      uint256 aapr,\n      uint256 dapr\n    );\n}\n\ncontract Structs {\n    struct Val {\n        uint256 value;\n    }\n\n    enum ActionType {\n        Deposit,   // supply tokens\n        Withdraw  // borrow tokens\n    }\n\n    enum AssetDenomination {\n        Wei // the amount is denominated in wei\n    }\n\n    enum AssetReference {\n        Delta // the amount is given as a delta from the current value\n    }\n\n    struct AssetAmount {\n        bool sign; // true if positive\n        AssetDenomination denomination;\n        AssetReference ref;\n        uint256 value;\n    }\n\n    struct ActionArgs {\n        ActionType actionType;\n        uint256 accountId;\n        AssetAmount amount;\n        uint256 primaryMarketId;\n        uint256 secondaryMarketId;\n        address otherAddress;\n        uint256 otherAccountId;\n        bytes data;\n    }\n\n    struct Info {\n        address owner;  // The address that owns the account\n        uint256 number; // A nonce that allows a single address to control many accounts\n    }\n\n    struct Wei {\n        bool sign; // true if positive\n        uint256 value;\n    }\n}\n\ncontract DyDx is Structs {\n    function getAccountWei(Info memory account, uint256 marketId) public view returns (Wei memory);\n    function operate(Info[] memory, ActionArgs[] memory) public;\n}\n\ninterface LendingPoolAddressesProvider {\n    function getLendingPool() external view returns (address);\n    function getLendingPoolCore() external view returns (address);\n}\n\ncontract yDAI is ERC20, ERC20Detailed, ReentrancyGuard, Structs, Ownable {\n  using SafeERC20 for IERC20;\n  using Address for address;\n  using SafeMath for uint256;\n\n  uint256 public pool;\n  address public token;\n  address public compound;\n  address public fulcrum;\n  address public aave;\n  address public aaveToken;\n  address public dydx;\n  uint256 public dToken;\n  address public apr;\n\n  enum Lender {\n      NONE,\n      DYDX,\n      COMPOUND,\n      AAVE,\n      FULCRUM\n  }\n\n  Lender public provider = Lender.NONE;\n\n  constructor () public ERC20Detailed(\"iearn DAI\", \"yDAI\", 18) {\n    token = address(0x6B175474E89094C44Da98b954EedeAC495271d0F);\n    apr = address(0xdD6d648C991f7d47454354f4Ef326b04025a48A8);\n    dydx = address(0x1E0447b19BB6EcFdAe1e4AE1694b0C3659614e4e);\n    aave = address(0x24a42fD28C976A61Df5D00D0599C34c4f90748c8);\n    fulcrum = address(0x493C57C4763932315A328269E1ADaD09653B9081);\n    aaveToken = address(0xfC1E690f61EFd961294b3e1Ce3313fBD8aa4f85d);\n    compound = address(0x5d3a536E4D6DbD6114cc1Ead35777bAB948E3643);\n    dToken = 3;\n    approveToken();\n  }\n\n  function set_new_APR(address _new_APR) public onlyOwner {\n      apr = _new_APR;\n  }\n  function set_new_FULCRUM(address _new_FULCRUM) public onlyOwner {\n      fulcrum = _new_FULCRUM;\n  }\n  function set_new_COMPOUND(address _new_COMPOUND) public onlyOwner {\n      compound = _new_COMPOUND;\n  }\n  function set_new_DTOKEN(uint256 _new_DTOKEN) public onlyOwner {\n      dToken = _new_DTOKEN;\n  }\n  function set_new_AAVE(address _new_AAVE) public onlyOwner {\n      aave = _new_AAVE;\n  }\n  function set_new_ATOKEN(address _new_ATOKEN) public onlyOwner {\n      aaveToken = _new_ATOKEN;\n  }\n\n  // Quick swap low gas method for pool swaps\n  function deposit(uint256 _amount)\n      external\n      nonReentrant\n  {\n      require(_amount > 0, \"deposit must be greater than 0\");\n      pool = calcPoolValueInToken();\n\n      IERC20(token).safeTransferFrom(msg.sender, address(this), _amount);\n\n      // Calculate pool shares\n      uint256 shares = 0;\n      if (pool == 0) {\n        shares = _amount;\n        pool = _amount;\n      } else {\n        shares = (_amount.mul(_totalSupply)).div(pool);\n      }\n      pool = calcPoolValueInToken();\n      _mint(msg.sender, shares);\n  }\n\n  // No rebalance implementation for lower fees and faster swaps\n  function withdraw(uint256 _shares)\n      external\n      nonReentrant\n  {\n      require(_shares > 0, \"withdraw must be greater than 0\");\n\n      uint256 ibalance = balanceOf(msg.sender);\n      require(_shares <= ibalance, \"insufficient balance\");\n\n      // Could have over value from cTokens\n      pool = calcPoolValueInToken();\n      // Calc to redeem before updating balances\n      uint256 r = (pool.mul(_shares)).div(_totalSupply);\n\n\n      _balances[msg.sender] = _balances[msg.sender].sub(_shares, \"redeem amount exceeds balance\");\n      _totalSupply = _totalSupply.sub(_shares);\n\n      emit Transfer(msg.sender, address(0), _shares);\n\n      // Check balance\n      uint256 b = IERC20(token).balanceOf(address(this));\n      if (b < r) {\n        _withdrawSome(r.sub(b));\n      }\n\n      IERC20(token).safeTransfer(msg.sender, r);\n      pool = calcPoolValueInToken();\n  }\n\n  function recommend() public view returns (Lender) {\n    (,uint256 capr,uint256 iapr,uint256 aapr,uint256 dapr) = IIEarnManager(apr).recommend(token);\n    uint256 max = 0;\n    if (capr > max) {\n      max = capr;\n    }\n    if (iapr > max) {\n      max = iapr;\n    }\n    if (aapr > max) {\n      max = aapr;\n    }\n    if (dapr > max) {\n      max = dapr;\n    }\n\n    Lender newProvider = Lender.NONE;\n    if (max == capr) {\n      newProvider = Lender.COMPOUND;\n    } else if (max == iapr) {\n      newProvider = Lender.FULCRUM;\n    } else if (max == aapr) {\n      newProvider = Lender.AAVE;\n    } else if (max == dapr) {\n      newProvider = Lender.DYDX;\n    }\n    return newProvider;\n  }\n\n  function getAave() public view returns (address) {\n    return LendingPoolAddressesProvider(aave).getLendingPool();\n  }\n  function getAaveCore() public view returns (address) {\n    return LendingPoolAddressesProvider(aave).getLendingPoolCore();\n  }\n\n  function approveToken() public {\n      IERC20(token).safeApprove(compound, uint(-1)); //also add to constructor\n      IERC20(token).safeApprove(dydx, uint(-1));\n      IERC20(token).safeApprove(getAaveCore(), uint(-1));\n      IERC20(token).safeApprove(fulcrum, uint(-1));\n  }\n\n  function balance() public view returns (uint256) {\n    return IERC20(token).balanceOf(address(this));\n  }\n\n  function balanceDydx() public view returns (uint256) {\n      Wei memory bal = DyDx(dydx).getAccountWei(Info(address(this), 0), dToken);\n      return bal.value;\n  }\n  function balanceCompound() public view returns (uint256) {\n      return IERC20(compound).balanceOf(address(this));\n  }\n  function balanceCompoundInToken() public view returns (uint256) {\n    // Mantisa 1e18 to decimals\n    uint256 b = balanceCompound();\n    if (b > 0) {\n      b = b.mul(Compound(compound).exchangeRateStored()).div(1e18);\n    }\n    return b;\n  }\n  function balanceFulcrumInToken() public view returns (uint256) {\n    uint256 b = balanceFulcrum();\n    if (b > 0) {\n      b = Fulcrum(fulcrum).assetBalanceOf(address(this));\n    }\n    return b;\n  }\n  function balanceFulcrum() public view returns (uint256) {\n    return IERC20(fulcrum).balanceOf(address(this));\n  }\n  function balanceAave() public view returns (uint256) {\n    return IERC20(aaveToken).balanceOf(address(this));\n  }\n\n  function rebalance() public {\n    Lender newProvider = recommend();\n\n    if (newProvider != provider) {\n      _withdrawAll();\n    }\n\n    if (balance() > 0) {\n      if (newProvider == Lender.DYDX) {\n        _supplyDydx(balance());\n      } else if (newProvider == Lender.FULCRUM) {\n        _supplyFulcrum(balance());\n      } else if (newProvider == Lender.COMPOUND) {\n        _supplyCompound(balance());\n      } else if (newProvider == Lender.AAVE) {\n        _supplyAave(balance());\n      }\n    }\n\n    provider = newProvider;\n  }\n\n  function _withdrawAll() internal {\n    uint256 amount = balanceCompound();\n    if (amount > 0) {\n      _withdrawCompound(amount);\n    }\n    amount = balanceDydx();\n    if (amount > 0) {\n      _withdrawDydx(amount);\n    }\n    amount = balanceFulcrum();\n    if (amount > 0) {\n      _withdrawFulcrum(amount);\n    }\n    amount = balanceAave();\n    if (amount > 0) {\n      _withdrawAave(amount);\n    }\n  }\n\n  function _withdrawSomeCompound(uint256 _amount) internal {\n    uint256 b = balanceCompound();\n    uint256 bT = balanceCompoundInToken();\n    require(bT >= _amount, \"insufficient funds\");\n    // can have unintentional rounding errors\n    uint256 amount = (b.mul(_amount)).div(bT).add(1);\n    _withdrawCompound(amount);\n  }\n\n  // 1999999614570950845\n  function _withdrawSomeFulcrum(uint256 _amount) internal {\n    // Balance of fulcrum tokens, 1 iDAI = 1.00x DAI\n    uint256 b = balanceFulcrum(); // 1970469086655766652\n    // Balance of token in fulcrum\n    uint256 bT = balanceFulcrumInToken(); // 2000000803224344406\n    require(bT >= _amount, \"insufficient funds\");\n    // can have unintentional rounding errors\n    uint256 amount = (b.mul(_amount)).div(bT).add(1);\n    _withdrawFulcrum(amount);\n  }\n\n  function _withdrawSome(uint256 _amount) internal {\n    if (provider == Lender.COMPOUND) {\n      _withdrawSomeCompound(_amount);\n    }\n    if (provider == Lender.AAVE) {\n      require(balanceAave() >= _amount, \"insufficient funds\");\n      _withdrawAave(_amount);\n    }\n    if (provider == Lender.DYDX) {\n      require(balanceDydx() >= _amount, \"insufficient funds\");\n      _withdrawDydx(_amount);\n    }\n    if (provider == Lender.FULCRUM) {\n      _withdrawSomeFulcrum(_amount);\n    }\n  }\n\n  function _supplyDydx(uint256 amount) internal {\n      Info[] memory infos = new Info[](1);\n      infos[0] = Info(address(this), 0);\n\n      AssetAmount memory amt = AssetAmount(true, AssetDenomination.Wei, AssetReference.Delta, amount);\n      ActionArgs memory act;\n      act.actionType = ActionType.Deposit;\n      act.accountId = 0;\n      act.amount = amt;\n      act.primaryMarketId = dToken;\n      act.otherAddress = address(this);\n\n      ActionArgs[] memory args = new ActionArgs[](1);\n      args[0] = act;\n\n      DyDx(dydx).operate(infos, args);\n  }\n\n  function _supplyAave(uint amount) internal {\n      Aave(getAave()).deposit(token, amount, 0);\n  }\n  function _supplyFulcrum(uint amount) internal {\n      require(Fulcrum(fulcrum).mint(address(this), amount) > 0, \"FULCRUM: supply failed\");\n  }\n  function _supplyCompound(uint amount) internal {\n      require(Compound(compound).mint(amount) == 0, \"COMPOUND: supply failed\");\n  }\n  function _withdrawAave(uint amount) internal {\n      AToken(aaveToken).redeem(amount);\n  }\n  function _withdrawFulcrum(uint amount) internal {\n      require(Fulcrum(fulcrum).burn(address(this), amount) > 0, \"FULCRUM: withdraw failed\");\n  }\n  function _withdrawCompound(uint amount) internal {\n      require(Compound(compound).redeem(amount) == 0, \"COMPOUND: withdraw failed\");\n  }\n\n  function _withdrawDydx(uint256 amount) internal {\n      Info[] memory infos = new Info[](1);\n      infos[0] = Info(address(this), 0);\n\n      AssetAmount memory amt = AssetAmount(false, AssetDenomination.Wei, AssetReference.Delta, amount);\n      ActionArgs memory act;\n      act.actionType = ActionType.Withdraw;\n      act.accountId = 0;\n      act.amount = amt;\n      act.primaryMarketId = dToken;\n      act.otherAddress = address(this);\n\n      ActionArgs[] memory args = new ActionArgs[](1);\n      args[0] = act;\n\n      DyDx(dydx).operate(infos, args);\n  }\n\n  function calcPoolValueInToken() public view returns (uint) {\n    return balanceCompoundInToken()\n      .add(balanceFulcrumInToken())\n      .add(balanceDydx())\n      .add(balanceAave())\n      .add(balance());\n  }\n\n  function getPricePerFullShare() public view returns (uint) {\n    uint _pool = calcPoolValueInToken();\n    return _pool.mul(1e18).div(_totalSupply);\n  }\n\n  function withdrawAll() public onlyOwner {\n    _withdrawAll();\n  }\n\n  function withdrawSomeCompound(uint256 _amount) public onlyOwner {\n    _withdrawSomeCompound(_amount);\n  }\n\n  function withdrawSomeFulcrum(uint256 _amount) public onlyOwner {\n    _withdrawSomeFulcrum(_amount);\n  }\n\n  function withdrawSome(uint256 _amount) public onlyOwner {\n    _withdrawSome(_amount);\n  }\n\n  function supplyDydx(uint256 amount) public onlyOwner {\n      _supplyDydx(amount);\n  }\n\n  function supplyAave(uint amount) public onlyOwner {\n    _supplyAave(amount);\n  }\n  function supplyFulcrum(uint amount) public onlyOwner {\n      _supplyFulcrum(amount);\n  }\n  function supplyCompound(uint amount) public onlyOwner {\n      _supplyCompound(amount);\n  }\n  function withdrawAave(uint amount) public onlyOwner {\n      _withdrawAave(amount);\n  }\n  function withdrawFulcrum(uint amount) public onlyOwner {\n      _withdrawFulcrum(amount);\n  }\n  function withdrawCompound(uint amount) public onlyOwner {\n      _withdrawCompound(amount);\n  }\n\n  function withdrawDydx(uint256 amount) public onlyOwner {\n      _withdrawDydx(amount);\n  }\n}\n",
  "sourcePath": "D:/ftm/itoken/contracts/YDAIv3.sol",
  "compiler": {
    "name": "solc",
    "version": "0.5.12+commit.7709ece9.Emscripten.clang"
  },
  "schemaVersion": "3.0.19",
  "updatedAt": "2020-02-25T05:27:22.965Z",
  "devdoc": {
    "methods": {}
  },
  "userdoc": {
    "methods": {}
  }
}