{
  "contractName": "yDAIv2Proxy",
  "abi": [
    {
      "inputs": [],
      "payable": false,
      "stateMutability": "nonpayable",
      "type": "constructor"
    },
    {
      "anonymous": false,
      "inputs": [
        {
          "indexed": true,
          "internalType": "address",
          "name": "previousOwner",
          "type": "address"
        },
        {
          "indexed": true,
          "internalType": "address",
          "name": "newOwner",
          "type": "address"
        }
      ],
      "name": "OwnershipTransferred",
      "type": "event"
    },
    {
      "payable": true,
      "stateMutability": "payable",
      "type": "fallback"
    },
    {
      "constant": true,
      "inputs": [],
      "name": "DAI",
      "outputs": [
        {
          "internalType": "address",
          "name": "",
          "type": "address"
        }
      ],
      "payable": false,
      "stateMutability": "view",
      "type": "function"
    },
    {
      "constant": true,
      "inputs": [],
      "name": "fee",
      "outputs": [
        {
          "internalType": "uint256",
          "name": "",
          "type": "uint256"
        }
      ],
      "payable": false,
      "stateMutability": "view",
      "type": "function"
    },
    {
      "constant": true,
      "inputs": [],
      "name": "isOwner",
      "outputs": [
        {
          "internalType": "bool",
          "name": "",
          "type": "bool"
        }
      ],
      "payable": false,
      "stateMutability": "view",
      "type": "function"
    },
    {
      "constant": true,
      "inputs": [],
      "name": "owner",
      "outputs": [
        {
          "internalType": "address",
          "name": "",
          "type": "address"
        }
      ],
      "payable": false,
      "stateMutability": "view",
      "type": "function"
    },
    {
      "constant": false,
      "inputs": [],
      "name": "renounceOwnership",
      "outputs": [],
      "payable": false,
      "stateMutability": "nonpayable",
      "type": "function"
    },
    {
      "constant": false,
      "inputs": [
        {
          "internalType": "address",
          "name": "newOwner",
          "type": "address"
        }
      ],
      "name": "transferOwnership",
      "outputs": [],
      "payable": false,
      "stateMutability": "nonpayable",
      "type": "function"
    },
    {
      "constant": true,
      "inputs": [],
      "name": "yDAI",
      "outputs": [
        {
          "internalType": "address",
          "name": "",
          "type": "address"
        }
      ],
      "payable": false,
      "stateMutability": "view",
      "type": "function"
    },
    {
      "constant": false,
      "inputs": [
        {
          "internalType": "uint256",
          "name": "_new_Fee",
          "type": "uint256"
        }
      ],
      "name": "set_new_Fee",
      "outputs": [],
      "payable": false,
      "stateMutability": "nonpayable",
      "type": "function"
    },
    {
      "constant": false,
      "inputs": [],
      "name": "approveToken",
      "outputs": [],
      "payable": false,
      "stateMutability": "nonpayable",
      "type": "function"
    },
    {
      "constant": false,
      "inputs": [
        {
          "internalType": "uint256",
          "name": "_amount",
          "type": "uint256"
        }
      ],
      "name": "deposit",
      "outputs": [],
      "payable": false,
      "stateMutability": "nonpayable",
      "type": "function"
    },
    {
      "constant": false,
      "inputs": [
        {
          "internalType": "contract IERC20",
          "name": "_TokenAddress",
          "type": "address"
        }
      ],
      "name": "inCaseTokenGetsStuck",
      "outputs": [],
      "payable": false,
      "stateMutability": "nonpayable",
      "type": "function"
    },
    {
      "constant": false,
      "inputs": [],
      "name": "inCaseETHGetsStuck",
      "outputs": [],
      "payable": false,
      "stateMutability": "nonpayable",
      "type": "function"
    }
  ],
  "bytecode": "0x60806040523480156200001157600080fd5b5060016000819055506200002a620001b560201b60201c565b600160006101000a81548173ffffffffffffffffffffffffffffffffffffffff021916908373ffffffffffffffffffffffffffffffffffffffff160217905550600160009054906101000a900473ffffffffffffffffffffffffffffffffffffffff1673ffffffffffffffffffffffffffffffffffffffff16600073ffffffffffffffffffffffffffffffffffffffff167f8be0079c531659141344cd1fd0a4f28419497f9722a3daafe3b4186f6b6457e060405160405180910390a3736b175474e89094c44da98b954eedeac495271d0f600260006101000a81548173ffffffffffffffffffffffffffffffffffffffff021916908373ffffffffffffffffffffffffffffffffffffffff1602179055507316de59092dae5ccf4a1e6439d611fd0653f0bd01600360006101000a81548173ffffffffffffffffffffffffffffffffffffffff021916908373ffffffffffffffffffffffffffffffffffffffff16021790555066038d7ea4c68000600481905550620001af620001bd60201b60201c565b620009c4565b600033905090565b62000253600360009054906101000a900473ffffffffffffffffffffffffffffffffffffffff167fffffffffffffffffffffffffffffffffffffffffffffffffffffffffffffffff600260009054906101000a900473ffffffffffffffffffffffffffffffffffffffff1673ffffffffffffffffffffffffffffffffffffffff166200025560201b62000bf4179092919060201c565b565b6000811480620002f5575060008373ffffffffffffffffffffffffffffffffffffffff1663dd62ed3e30856040518363ffffffff1660e01b81526004016200029f92919062000807565b60206040518083038186803b158015620002b857600080fd5b505afa158015620002cd573d6000803e3d6000fd5b505050506040513d601f19601f82011682018060405250620002f3919081019062000615565b145b62000337576040517f08c379a00000000000000000000000000000000000000000000000000000000081526004016200032e90620008a5565b60405180910390fd5b620003db838473ffffffffffffffffffffffffffffffffffffffff1663095ea7b3905060e01b84846040516024016200037292919062000834565b604051602081830303815290604052907bffffffffffffffffffffffffffffffffffffffffffffffffffffffff19166020820180517bffffffffffffffffffffffffffffffffffffffffffffffffffffffff8381831617835250505050620003e060201b60201c565b505050565b6200040c8273ffffffffffffffffffffffffffffffffffffffff166200056f60201b6200126f1760201c565b6200044e576040517f08c379a00000000000000000000000000000000000000000000000000000000081526004016200044590620008c7565b60405180910390fd5b600060608373ffffffffffffffffffffffffffffffffffffffff1683604051620004799190620007ee565b6000604051808303816000865af19150503d8060008114620004b8576040519150601f19603f3d011682016040523d82523d6000602084013e620004bd565b606091505b50915091508162000505576040517f08c379a0000000000000000000000000000000000000000000000000000000008152600401620004fc9062000861565b60405180910390fd5b600081511115620005695780806020019051620005269190810190620005e9565b62000568576040517f08c379a00000000000000000000000000000000000000000000000000000000081526004016200055f9062000883565b60405180910390fd5b5b50505050565b60008060007fc5d2460186f7233c927e7db2dcc703c0e500b653ca82273b7bfad8045d85a47060001b9050833f91506000801b8214158015620005b25750808214155b92505050919050565b600081519050620005cc8162000990565b92915050565b600081519050620005e381620009aa565b92915050565b600060208284031215620005fc57600080fd5b60006200060c84828501620005bb565b91505092915050565b6000602082840312156200062857600080fd5b60006200063884828501620005d2565b91505092915050565b6200064c8162000910565b82525050565b60006200065f82620008e9565b6200066b8185620008f4565b93506200067d8185602086016200095a565b80840191505092915050565b600062000698602083620008ff565b91507f5361666545524332303a206c6f772d6c6576656c2063616c6c206661696c65646000830152602082019050919050565b6000620006da602a83620008ff565b91507f5361666545524332303a204552433230206f7065726174696f6e20646964206e60008301527f6f742073756363656564000000000000000000000000000000000000000000006020830152604082019050919050565b600062000742603683620008ff565b91507f5361666545524332303a20617070726f76652066726f6d206e6f6e2d7a65726f60008301527f20746f206e6f6e2d7a65726f20616c6c6f77616e6365000000000000000000006020830152604082019050919050565b6000620007aa601f83620008ff565b91507f5361666545524332303a2063616c6c20746f206e6f6e2d636f6e7472616374006000830152602082019050919050565b620007e88162000950565b82525050565b6000620007fc828462000652565b915081905092915050565b60006040820190506200081e600083018562000641565b6200082d602083018462000641565b9392505050565b60006040820190506200084b600083018562000641565b6200085a6020830184620007dd565b9392505050565b600060208201905081810360008301526200087c8162000689565b9050919050565b600060208201905081810360008301526200089e81620006cb565b9050919050565b60006020820190508181036000830152620008c08162000733565b9050919050565b60006020820190508181036000830152620008e2816200079b565b9050919050565b600081519050919050565b600081905092915050565b600082825260208201905092915050565b60006200091d8262000930565b9050919050565b60008115159050919050565b600073ffffffffffffffffffffffffffffffffffffffff82169050919050565b6000819050919050565b60005b838110156200097a5780820151818401526020810190506200095d565b838111156200098a576000848401525b50505050565b6200099b8162000924565b8114620009a757600080fd5b50565b620009b58162000950565b8114620009c157600080fd5b50565b611c5080620009d46000396000f3fe6080604052600436106100a75760003560e01c8063b6b55f2511610064578063b6b55f2514610181578063ddca3f43146101aa578063e0bab4c4146101d5578063f2fde38b14610200578063f60a15ed14610229578063f890fd2b14610240576100a7565b80632e8d6e18146100a9578063715018a6146100d2578063756bb1cc146100e95780638da5cb5b146101145780638f32d59b1461013f57806399b71d5c1461016a575b005b3480156100b557600080fd5b506100d060048036036100cb9190810190611375565b610269565b005b3480156100de57600080fd5b506100e761036c565b005b3480156100f557600080fd5b506100fe610474565b60405161010b9190611834565b60405180910390f35b34801561012057600080fd5b5061012961049a565b6040516101369190611834565b60405180910390f35b34801561014b57600080fd5b506101546104c4565b60405161016191906118f3565b60405180910390f35b34801561017657600080fd5b5061017f610523565b005b34801561018d57600080fd5b506101a860048036036101a3919081019061139e565b6105b4565b005b3480156101b657600080fd5b506101bf610970565b6040516101cc9190611a90565b60405180910390f35b3480156101e157600080fd5b506101ea610976565b6040516101f79190611834565b60405180910390f35b34801561020c57600080fd5b5061022760048036036102229190810190611323565b61099c565b005b34801561023557600080fd5b5061023e6109ef565b005b34801561024c57600080fd5b506102676004803603610262919081019061139e565b610afc565b005b6102716104c4565b6102b0576040517f08c379a00000000000000000000000000000000000000000000000000000000081526004016102a7906119f0565b60405180910390fd5b60008173ffffffffffffffffffffffffffffffffffffffff166370a08231306040518263ffffffff1660e01b81526004016102eb919061184f565b60206040518083038186803b15801561030357600080fd5b505afa158015610317573d6000803e3d6000fd5b505050506040513d601f19601f8201168201806040525061033b91908101906113c7565b905061036833828473ffffffffffffffffffffffffffffffffffffffff16610b4d9092919063ffffffff16565b5050565b6103746104c4565b6103b3576040517f08c379a00000000000000000000000000000000000000000000000000000000081526004016103aa906119f0565b60405180910390fd5b600073ffffffffffffffffffffffffffffffffffffffff16600160009054906101000a900473ffffffffffffffffffffffffffffffffffffffff1673ffffffffffffffffffffffffffffffffffffffff167f8be0079c531659141344cd1fd0a4f28419497f9722a3daafe3b4186f6b6457e060405160405180910390a36000600160006101000a81548173ffffffffffffffffffffffffffffffffffffffff021916908373ffffffffffffffffffffffffffffffffffffffff160217905550565b600360009054906101000a900473ffffffffffffffffffffffffffffffffffffffff1681565b6000600160009054906101000a900473ffffffffffffffffffffffffffffffffffffffff16905090565b6000600160009054906101000a900473ffffffffffffffffffffffffffffffffffffffff1673ffffffffffffffffffffffffffffffffffffffff16610507610bec565b73ffffffffffffffffffffffffffffffffffffffff1614905090565b6105b2600360009054906101000a900473ffffffffffffffffffffffffffffffffffffffff167fffffffffffffffffffffffffffffffffffffffffffffffffffffffffffffffff600260009054906101000a900473ffffffffffffffffffffffffffffffffffffffff1673ffffffffffffffffffffffffffffffffffffffff16610bf49092919063ffffffff16565b565b600160008082825401925050819055506000805490506000821161060d576040517f08c379a000000000000000000000000000000000000000000000000000000000815260040161060490611990565b60405180910390fd5b61065c333084600260009054906101000a900473ffffffffffffffffffffffffffffffffffffffff1673ffffffffffffffffffffffffffffffffffffffff16610d6b909392919063ffffffff16565b60008090506000600454111561069e5761069b670de0b6b3a764000061068d60045486610e0d90919063ffffffff16565b610e7d90919063ffffffff16565b90505b60006106b38285610ec790919063ffffffff16565b9050600360009054906101000a900473ffffffffffffffffffffffffffffffffffffffff1673ffffffffffffffffffffffffffffffffffffffff1663b6b55f25826040518263ffffffff1660e01b81526004016107109190611a90565b600060405180830381600087803b15801561072a57600080fd5b505af115801561073e573d6000803e3d6000fd5b5050505061083933600360009054906101000a900473ffffffffffffffffffffffffffffffffffffffff1673ffffffffffffffffffffffffffffffffffffffff166370a08231306040518263ffffffff1660e01b81526004016107a1919061184f565b60206040518083038186803b1580156107b957600080fd5b505afa1580156107cd573d6000803e3d6000fd5b505050506040513d601f19601f820116820180604052506107f191908101906113c7565b600360009054906101000a900473ffffffffffffffffffffffffffffffffffffffff1673ffffffffffffffffffffffffffffffffffffffff16610b4d9092919063ffffffff16565b6000600360009054906101000a900473ffffffffffffffffffffffffffffffffffffffff1673ffffffffffffffffffffffffffffffffffffffff166370a08231306040518263ffffffff1660e01b8152600401610896919061184f565b60206040518083038186803b1580156108ae57600080fd5b505afa1580156108c2573d6000803e3d6000fd5b505050506040513d601f19601f820116820180604052506108e691908101906113c7565b14610926576040517f08c379a000000000000000000000000000000000000000000000000000000000815260040161091d90611950565b60405180910390fd5b5050600054811461096c576040517f08c379a000000000000000000000000000000000000000000000000000000000815260040161096390611a30565b60405180910390fd5b5050565b60045481565b600260009054906101000a900473ffffffffffffffffffffffffffffffffffffffff1681565b6109a46104c4565b6109e3576040517f08c379a00000000000000000000000000000000000000000000000000000000081526004016109da906119f0565b60405180910390fd5b6109ec81610f11565b50565b6109f76104c4565b610a36576040517f08c379a0000000000000000000000000000000000000000000000000000000008152600401610a2d906119f0565b60405180910390fd5b60003373ffffffffffffffffffffffffffffffffffffffff163073ffffffffffffffffffffffffffffffffffffffff1631604051610a739061181f565b60006040518083038185875af1925050503d8060008114610ab0576040519150601f19603f3d011682016040523d82523d6000602084013e610ab5565b606091505b5050905080610af9576040517f08c379a0000000000000000000000000000000000000000000000000000000008152600401610af0906119b0565b60405180910390fd5b50565b610b046104c4565b610b43576040517f08c379a0000000000000000000000000000000000000000000000000000000008152600401610b3a906119f0565b60405180910390fd5b8060048190555050565b610be7838473ffffffffffffffffffffffffffffffffffffffff1663a9059cbb905060e01b8484604051602401610b859291906118ca565b604051602081830303815290604052907bffffffffffffffffffffffffffffffffffffffffffffffffffffffff19166020820180517bffffffffffffffffffffffffffffffffffffffffffffffffffffffff8381831617835250505050611041565b505050565b600033905090565b6000811480610c8d575060008373ffffffffffffffffffffffffffffffffffffffff1663dd62ed3e30856040518363ffffffff1660e01b8152600401610c3b92919061186a565b60206040518083038186803b158015610c5357600080fd5b505afa158015610c67573d6000803e3d6000fd5b505050506040513d601f19601f82011682018060405250610c8b91908101906113c7565b145b610ccc576040517f08c379a0000000000000000000000000000000000000000000000000000000008152600401610cc390611a50565b60405180910390fd5b610d66838473ffffffffffffffffffffffffffffffffffffffff1663095ea7b3905060e01b8484604051602401610d049291906118ca565b604051602081830303815290604052907bffffffffffffffffffffffffffffffffffffffffffffffffffffffff19166020820180517bffffffffffffffffffffffffffffffffffffffffffffffffffffffff8381831617835250505050611041565b505050565b610e07848573ffffffffffffffffffffffffffffffffffffffff166323b872dd905060e01b858585604051602401610da593929190611893565b604051602081830303815290604052907bffffffffffffffffffffffffffffffffffffffffffffffffffffffff19166020820180517bffffffffffffffffffffffffffffffffffffffffffffffffffffffff8381831617835250505050611041565b50505050565b600080831415610e205760009050610e77565b6000828402905082848281610e3157fe5b0414610e72576040517f08c379a0000000000000000000000000000000000000000000000000000000008152600401610e69906119d0565b60405180910390fd5b809150505b92915050565b6000610ebf83836040518060400160405280601a81526020017f536166654d6174683a206469766973696f6e206279207a65726f0000000000008152506111b3565b905092915050565b6000610f0983836040518060400160405280601e81526020017f536166654d6174683a207375627472616374696f6e206f766572666c6f770000815250611214565b905092915050565b600073ffffffffffffffffffffffffffffffffffffffff168173ffffffffffffffffffffffffffffffffffffffff161415610f81576040517f08c379a0000000000000000000000000000000000000000000000000000000008152600401610f7890611930565b60405180910390fd5b8073ffffffffffffffffffffffffffffffffffffffff16600160009054906101000a900473ffffffffffffffffffffffffffffffffffffffff1673ffffffffffffffffffffffffffffffffffffffff167f8be0079c531659141344cd1fd0a4f28419497f9722a3daafe3b4186f6b6457e060405160405180910390a380600160006101000a81548173ffffffffffffffffffffffffffffffffffffffff021916908373ffffffffffffffffffffffffffffffffffffffff16021790555050565b6110608273ffffffffffffffffffffffffffffffffffffffff1661126f565b61109f576040517f08c379a000000000000000000000000000000000000000000000000000000000815260040161109690611a70565b60405180910390fd5b600060608373ffffffffffffffffffffffffffffffffffffffff16836040516110c89190611808565b6000604051808303816000865af19150503d8060008114611105576040519150601f19603f3d011682016040523d82523d6000602084013e61110a565b606091505b50915091508161114f576040517f08c379a000000000000000000000000000000000000000000000000000000000815260040161114690611970565b60405180910390fd5b6000815111156111ad578080602001905161116d919081019061134c565b6111ac576040517f08c379a00000000000000000000000000000000000000000000000000000000081526004016111a390611a10565b60405180910390fd5b5b50505050565b600080831182906111fa576040517f08c379a00000000000000000000000000000000000000000000000000000000081526004016111f1919061190e565b60405180910390fd5b50600083858161120657fe5b049050809150509392505050565b600083831115829061125c576040517f08c379a0000000000000000000000000000000000000000000000000000000008152600401611253919061190e565b60405180910390fd5b5060008385039050809150509392505050565b60008060007fc5d2460186f7233c927e7db2dcc703c0e500b653ca82273b7bfad8045d85a47060001b9050833f91506000801b82141580156112b15750808214155b92505050919050565b6000813590506112c981611bb1565b92915050565b6000815190506112de81611bc8565b92915050565b6000813590506112f381611bdf565b92915050565b60008135905061130881611bf6565b92915050565b60008151905061131d81611bf6565b92915050565b60006020828403121561133557600080fd5b6000611343848285016112ba565b91505092915050565b60006020828403121561135e57600080fd5b600061136c848285016112cf565b91505092915050565b60006020828403121561138757600080fd5b6000611395848285016112e4565b91505092915050565b6000602082840312156113b057600080fd5b60006113be848285016112f9565b91505092915050565b6000602082840312156113d957600080fd5b60006113e78482850161130e565b91505092915050565b6113f981611b37565b82525050565b61140881611add565b82525050565b61141781611aef565b82525050565b600061142882611aab565b6114328185611ac1565b9350611442818560208601611b6d565b80840191505092915050565b600061145982611ab6565b6114638185611acc565b9350611473818560208601611b6d565b61147c81611ba0565b840191505092915050565b6000611494602683611acc565b91507f4f776e61626c653a206e6577206f776e657220697320746865207a65726f206160008301527f64647265737300000000000000000000000000000000000000000000000000006020830152604082019050919050565b60006114fa600e83611acc565b91507f794441492072656d61696e6465720000000000000000000000000000000000006000830152602082019050919050565b600061153a602083611acc565b91507f5361666545524332303a206c6f772d6c6576656c2063616c6c206661696c65646000830152602082019050919050565b600061157a601d83611acc565b91507f616d6f756e74206d7573742062652067726561746572207468616e20300000006000830152602082019050919050565b60006115ba601683611acc565b91507f7472616e73666572206f6620455448206661696c6564000000000000000000006000830152602082019050919050565b60006115fa602183611acc565b91507f536166654d6174683a206d756c7469706c69636174696f6e206f766572666c6f60008301527f77000000000000000000000000000000000000000000000000000000000000006020830152604082019050919050565b6000611660602083611acc565b91507f4f776e61626c653a2063616c6c6572206973206e6f7420746865206f776e65726000830152602082019050919050565b60006116a0600083611ac1565b9150600082019050919050565b60006116ba602a83611acc565b91507f5361666545524332303a204552433230206f7065726174696f6e20646964206e60008301527f6f742073756363656564000000000000000000000000000000000000000000006020830152604082019050919050565b6000611720601f83611acc565b91507f5265656e7472616e637947756172643a207265656e7472616e742063616c6c006000830152602082019050919050565b6000611760603683611acc565b91507f5361666545524332303a20617070726f76652066726f6d206e6f6e2d7a65726f60008301527f20746f206e6f6e2d7a65726f20616c6c6f77616e6365000000000000000000006020830152604082019050919050565b60006117c6601f83611acc565b91507f5361666545524332303a2063616c6c20746f206e6f6e2d636f6e7472616374006000830152602082019050919050565b61180281611b2d565b82525050565b6000611814828461141d565b915081905092915050565b600061182a82611693565b9150819050919050565b600060208201905061184960008301846113ff565b92915050565b600060208201905061186460008301846113f0565b92915050565b600060408201905061187f60008301856113ff565b61188c60208301846113ff565b9392505050565b60006060820190506118a860008301866113ff565b6118b560208301856113ff565b6118c260408301846117f9565b949350505050565b60006040820190506118df60008301856113ff565b6118ec60208301846117f9565b9392505050565b6000602082019050611908600083018461140e565b92915050565b60006020820190508181036000830152611928818461144e565b905092915050565b6000602082019050818103600083015261194981611487565b9050919050565b60006020820190508181036000830152611969816114ed565b9050919050565b600060208201905081810360008301526119898161152d565b9050919050565b600060208201905081810360008301526119a98161156d565b9050919050565b600060208201905081810360008301526119c9816115ad565b9050919050565b600060208201905081810360008301526119e9816115ed565b9050919050565b60006020820190508181036000830152611a0981611653565b9050919050565b60006020820190508181036000830152611a29816116ad565b9050919050565b60006020820190508181036000830152611a4981611713565b9050919050565b60006020820190508181036000830152611a6981611753565b9050919050565b60006020820190508181036000830152611a89816117b9565b9050919050565b6000602082019050611aa560008301846117f9565b92915050565b600081519050919050565b600081519050919050565b600081905092915050565b600082825260208201905092915050565b6000611ae882611b0d565b9050919050565b60008115159050919050565b6000611b0682611add565b9050919050565b600073ffffffffffffffffffffffffffffffffffffffff82169050919050565b6000819050919050565b6000611b4282611b49565b9050919050565b6000611b5482611b5b565b9050919050565b6000611b6682611b0d565b9050919050565b60005b83811015611b8b578082015181840152602081019050611b70565b83811115611b9a576000848401525b50505050565b6000601f19601f8301169050919050565b611bba81611add565b8114611bc557600080fd5b50565b611bd181611aef565b8114611bdc57600080fd5b50565b611be881611afb565b8114611bf357600080fd5b50565b611bff81611b2d565b8114611c0a57600080fd5b5056fea365627a7a723158208d0cd791249fcebb1e434a740ab0ada578a69dad1e9822eb11367f994d1ca5806c6578706572696d656e74616cf564736f6c634300050c0040",
  "source": "pragma solidity ^0.5.0;\npragma experimental ABIEncoderV2;\n\ninterface IERC20 {\n    function totalSupply() external view returns (uint256);\n    function balanceOf(address account) external view returns (uint256);\n    function transfer(address recipient, uint256 amount) external returns (bool);\n    function allowance(address owner, address spender) external view returns (uint256);\n    function approve(address spender, uint256 amount) external returns (bool);\n    function transferFrom(address sender, address recipient, uint256 amount) external returns (bool);\n    event Transfer(address indexed from, address indexed to, uint256 value);\n    event Approval(address indexed owner, address indexed spender, uint256 value);\n}\n\ncontract Context {\n    constructor () internal { }\n    // solhint-disable-previous-line no-empty-blocks\n\n    function _msgSender() internal view returns (address payable) {\n        return msg.sender;\n    }\n\n    function _msgData() internal view returns (bytes memory) {\n        this; // silence state mutability warning without generating bytecode - see https://github.com/ethereum/solidity/issues/2691\n        return msg.data;\n    }\n}\n\ncontract ReentrancyGuard {\n    uint256 private _guardCounter;\n\n    constructor () internal {\n        _guardCounter = 1;\n    }\n\n    modifier nonReentrant() {\n        _guardCounter += 1;\n        uint256 localCounter = _guardCounter;\n        _;\n        require(localCounter == _guardCounter, \"ReentrancyGuard: reentrant call\");\n    }\n}\n\ncontract Ownable is Context {\n    address private _owner;\n\n    event OwnershipTransferred(address indexed previousOwner, address indexed newOwner);\n    constructor () internal {\n        _owner = _msgSender();\n        emit OwnershipTransferred(address(0), _owner);\n    }\n    function owner() public view returns (address) {\n        return _owner;\n    }\n    modifier onlyOwner() {\n        require(isOwner(), \"Ownable: caller is not the owner\");\n        _;\n    }\n    function isOwner() public view returns (bool) {\n        return _msgSender() == _owner;\n    }\n    function renounceOwnership() public onlyOwner {\n        emit OwnershipTransferred(_owner, address(0));\n        _owner = address(0);\n    }\n    function transferOwnership(address newOwner) public onlyOwner {\n        _transferOwnership(newOwner);\n    }\n    function _transferOwnership(address newOwner) internal {\n        require(newOwner != address(0), \"Ownable: new owner is the zero address\");\n        emit OwnershipTransferred(_owner, newOwner);\n        _owner = newOwner;\n    }\n}\n\nlibrary SafeMath {\n    function add(uint256 a, uint256 b) internal pure returns (uint256) {\n        uint256 c = a + b;\n        require(c >= a, \"SafeMath: addition overflow\");\n\n        return c;\n    }\n    function sub(uint256 a, uint256 b) internal pure returns (uint256) {\n        return sub(a, b, \"SafeMath: subtraction overflow\");\n    }\n    function sub(uint256 a, uint256 b, string memory errorMessage) internal pure returns (uint256) {\n        require(b <= a, errorMessage);\n        uint256 c = a - b;\n\n        return c;\n    }\n    function mul(uint256 a, uint256 b) internal pure returns (uint256) {\n        if (a == 0) {\n            return 0;\n        }\n\n        uint256 c = a * b;\n        require(c / a == b, \"SafeMath: multiplication overflow\");\n\n        return c;\n    }\n    function div(uint256 a, uint256 b) internal pure returns (uint256) {\n        return div(a, b, \"SafeMath: division by zero\");\n    }\n    function div(uint256 a, uint256 b, string memory errorMessage) internal pure returns (uint256) {\n        // Solidity only automatically asserts when dividing by 0\n        require(b > 0, errorMessage);\n        uint256 c = a / b;\n\n        return c;\n    }\n    function mod(uint256 a, uint256 b) internal pure returns (uint256) {\n        return mod(a, b, \"SafeMath: modulo by zero\");\n    }\n    function mod(uint256 a, uint256 b, string memory errorMessage) internal pure returns (uint256) {\n        require(b != 0, errorMessage);\n        return a % b;\n    }\n}\n\nlibrary Address {\n    function isContract(address account) internal view returns (bool) {\n        bytes32 codehash;\n        bytes32 accountHash = 0xc5d2460186f7233c927e7db2dcc703c0e500b653ca82273b7bfad8045d85a470;\n        // solhint-disable-next-line no-inline-assembly\n        assembly { codehash := extcodehash(account) }\n        return (codehash != 0x0 && codehash != accountHash);\n    }\n    function toPayable(address account) internal pure returns (address payable) {\n        return address(uint160(account));\n    }\n    function sendValue(address payable recipient, uint256 amount) internal {\n        require(address(this).balance >= amount, \"Address: insufficient balance\");\n\n        // solhint-disable-next-line avoid-call-value\n        (bool success, ) = recipient.call.value(amount)(\"\");\n        require(success, \"Address: unable to send value, recipient may have reverted\");\n    }\n}\n\nlibrary SafeERC20 {\n    using SafeMath for uint256;\n    using Address for address;\n\n    function safeTransfer(IERC20 token, address to, uint256 value) internal {\n        callOptionalReturn(token, abi.encodeWithSelector(token.transfer.selector, to, value));\n    }\n    function safeTransferFrom(IERC20 token, address from, address to, uint256 value) internal {\n        callOptionalReturn(token, abi.encodeWithSelector(token.transferFrom.selector, from, to, value));\n    }\n    function safeApprove(IERC20 token, address spender, uint256 value) internal {\n        require((value == 0) || (token.allowance(address(this), spender) == 0),\n            \"SafeERC20: approve from non-zero to non-zero allowance\"\n        );\n        callOptionalReturn(token, abi.encodeWithSelector(token.approve.selector, spender, value));\n    }\n    function callOptionalReturn(IERC20 token, bytes memory data) private {\n        require(address(token).isContract(), \"SafeERC20: call to non-contract\");\n\n        // solhint-disable-next-line avoid-low-level-calls\n        (bool success, bytes memory returndata) = address(token).call(data);\n        require(success, \"SafeERC20: low-level call failed\");\n\n        if (returndata.length > 0) { // Return data is optional\n            // solhint-disable-next-line max-line-length\n            require(abi.decode(returndata, (bool)), \"SafeERC20: ERC20 operation did not succeed\");\n        }\n    }\n}\n\ninterface yERC20 {\n  function deposit(uint256 _amount) external;\n}\n\ncontract yDAIv2Proxy is ReentrancyGuard, Ownable {\n  using SafeERC20 for IERC20;\n  using Address for address;\n  using SafeMath for uint256;\n\n  address public DAI;\n  address public yDAI;\n\n  // 1e18\n  uint256 public fee;\n\n  constructor () public {\n      DAI = address(0x6B175474E89094C44Da98b954EedeAC495271d0F);\n      yDAI = address(0x16de59092dAE5CcF4A1E6439D611fd0653f0Bd01);\n      fee = 1000000000000000;\n\n      approveToken();\n  }\n\n\n  function set_new_Fee(uint256 _new_Fee) public onlyOwner {\n      fee = _new_Fee;\n  }\n\n  function() external payable {\n\n  }\n\n  function approveToken() public {\n      IERC20(DAI).safeApprove(yDAI, uint(-1));\n  }\n\n  function deposit(uint256 _amount)\n      external\n      nonReentrant\n  {\n      require(_amount > 0, \"amount must be greater than 0\");\n      IERC20(DAI).safeTransferFrom(msg.sender, address(this), _amount);\n      uint256 _fee = 0;\n      if (fee > 0) {\n        _fee = _amount.mul(fee).div(1e18);\n      }\n      uint256 amountSubFee = _amount.sub(_fee);\n      yERC20(yDAI).deposit(amountSubFee);\n      IERC20(yDAI).safeTransfer(msg.sender, IERC20(yDAI).balanceOf(address(this)));\n      require(IERC20(yDAI).balanceOf(address(this)) == 0, \"yDAI remainder\");\n  }\n\n  // incase of half-way error\n  function inCaseTokenGetsStuck(IERC20 _TokenAddress) onlyOwner public {\n      uint qty = _TokenAddress.balanceOf(address(this));\n      _TokenAddress.safeTransfer(msg.sender, qty);\n  }\n\n  // incase of half-way error\n  function inCaseETHGetsStuck() onlyOwner public {\n      (bool result, ) = msg.sender.call.value(address(this).balance)(\"\");\n      require(result, \"transfer of ETH failed\");\n  }\n}\n",
  "sourcePath": "D:/ftm/itoken/contracts/YDAIv2Proxy.sol",
  "compiler": {
    "name": "solc",
    "version": "0.5.12+commit.7709ece9.Emscripten.clang"
  },
  "schemaVersion": "3.0.19",
  "updatedAt": "2020-02-25T05:27:22.989Z",
  "devdoc": {
    "methods": {}
  },
  "userdoc": {
    "methods": {}
  }
}