{
  "contractName": "yDAI",
  "abi": [
    {
      "inputs": [],
      "payable": false,
      "stateMutability": "nonpayable",
      "type": "constructor"
    },
    {
      "anonymous": false,
      "inputs": [
        {
          "indexed": true,
          "internalType": "address",
          "name": "owner",
          "type": "address"
        },
        {
          "indexed": true,
          "internalType": "address",
          "name": "spender",
          "type": "address"
        },
        {
          "indexed": false,
          "internalType": "uint256",
          "name": "value",
          "type": "uint256"
        }
      ],
      "name": "Approval",
      "type": "event"
    },
    {
      "anonymous": false,
      "inputs": [
        {
          "indexed": true,
          "internalType": "address",
          "name": "from",
          "type": "address"
        },
        {
          "indexed": true,
          "internalType": "address",
          "name": "to",
          "type": "address"
        },
        {
          "indexed": false,
          "internalType": "uint256",
          "name": "value",
          "type": "uint256"
        }
      ],
      "name": "Transfer",
      "type": "event"
    },
    {
      "payable": true,
      "stateMutability": "payable",
      "type": "fallback"
    },
    {
      "constant": true,
      "inputs": [],
      "name": "aave",
      "outputs": [
        {
          "internalType": "address",
          "name": "",
          "type": "address"
        }
      ],
      "payable": false,
      "stateMutability": "view",
      "type": "function"
    },
    {
      "constant": true,
      "inputs": [],
      "name": "aaveToken",
      "outputs": [
        {
          "internalType": "address",
          "name": "",
          "type": "address"
        }
      ],
      "payable": false,
      "stateMutability": "view",
      "type": "function"
    },
    {
      "constant": true,
      "inputs": [
        {
          "internalType": "address",
          "name": "owner",
          "type": "address"
        },
        {
          "internalType": "address",
          "name": "spender",
          "type": "address"
        }
      ],
      "name": "allowance",
      "outputs": [
        {
          "internalType": "uint256",
          "name": "",
          "type": "uint256"
        }
      ],
      "payable": false,
      "stateMutability": "view",
      "type": "function"
    },
    {
      "constant": false,
      "inputs": [
        {
          "internalType": "address",
          "name": "spender",
          "type": "address"
        },
        {
          "internalType": "uint256",
          "name": "amount",
          "type": "uint256"
        }
      ],
      "name": "approve",
      "outputs": [
        {
          "internalType": "bool",
          "name": "",
          "type": "bool"
        }
      ],
      "payable": false,
      "stateMutability": "nonpayable",
      "type": "function"
    },
    {
      "constant": true,
      "inputs": [],
      "name": "apr",
      "outputs": [
        {
          "internalType": "address",
          "name": "",
          "type": "address"
        }
      ],
      "payable": false,
      "stateMutability": "view",
      "type": "function"
    },
    {
      "constant": true,
      "inputs": [
        {
          "internalType": "address",
          "name": "account",
          "type": "address"
        }
      ],
      "name": "balanceOf",
      "outputs": [
        {
          "internalType": "uint256",
          "name": "",
          "type": "uint256"
        }
      ],
      "payable": false,
      "stateMutability": "view",
      "type": "function"
    },
    {
      "constant": true,
      "inputs": [],
      "name": "compound",
      "outputs": [
        {
          "internalType": "address",
          "name": "",
          "type": "address"
        }
      ],
      "payable": false,
      "stateMutability": "view",
      "type": "function"
    },
    {
      "constant": true,
      "inputs": [],
      "name": "dToken",
      "outputs": [
        {
          "internalType": "uint256",
          "name": "",
          "type": "uint256"
        }
      ],
      "payable": false,
      "stateMutability": "view",
      "type": "function"
    },
    {
      "constant": true,
      "inputs": [],
      "name": "decimals",
      "outputs": [
        {
          "internalType": "uint8",
          "name": "",
          "type": "uint8"
        }
      ],
      "payable": false,
      "stateMutability": "view",
      "type": "function"
    },
    {
      "constant": false,
      "inputs": [
        {
          "internalType": "address",
          "name": "spender",
          "type": "address"
        },
        {
          "internalType": "uint256",
          "name": "subtractedValue",
          "type": "uint256"
        }
      ],
      "name": "decreaseAllowance",
      "outputs": [
        {
          "internalType": "bool",
          "name": "",
          "type": "bool"
        }
      ],
      "payable": false,
      "stateMutability": "nonpayable",
      "type": "function"
    },
    {
      "constant": true,
      "inputs": [],
      "name": "dydx",
      "outputs": [
        {
          "internalType": "address",
          "name": "",
          "type": "address"
        }
      ],
      "payable": false,
      "stateMutability": "view",
      "type": "function"
    },
    {
      "constant": true,
      "inputs": [],
      "name": "fulcrum",
      "outputs": [
        {
          "internalType": "address",
          "name": "",
          "type": "address"
        }
      ],
      "payable": false,
      "stateMutability": "view",
      "type": "function"
    },
    {
      "constant": false,
      "inputs": [
        {
          "internalType": "address",
          "name": "spender",
          "type": "address"
        },
        {
          "internalType": "uint256",
          "name": "addedValue",
          "type": "uint256"
        }
      ],
      "name": "increaseAllowance",
      "outputs": [
        {
          "internalType": "bool",
          "name": "",
          "type": "bool"
        }
      ],
      "payable": false,
      "stateMutability": "nonpayable",
      "type": "function"
    },
    {
      "constant": true,
      "inputs": [],
      "name": "name",
      "outputs": [
        {
          "internalType": "string",
          "name": "",
          "type": "string"
        }
      ],
      "payable": false,
      "stateMutability": "view",
      "type": "function"
    },
    {
      "constant": true,
      "inputs": [],
      "name": "pool",
      "outputs": [
        {
          "internalType": "uint256",
          "name": "",
          "type": "uint256"
        }
      ],
      "payable": false,
      "stateMutability": "view",
      "type": "function"
    },
    {
      "constant": true,
      "inputs": [],
      "name": "provider",
      "outputs": [
        {
          "internalType": "enum yDAI.Lender",
          "name": "",
          "type": "uint8"
        }
      ],
      "payable": false,
      "stateMutability": "view",
      "type": "function"
    },
    {
      "constant": true,
      "inputs": [],
      "name": "symbol",
      "outputs": [
        {
          "internalType": "string",
          "name": "",
          "type": "string"
        }
      ],
      "payable": false,
      "stateMutability": "view",
      "type": "function"
    },
    {
      "constant": true,
      "inputs": [],
      "name": "token",
      "outputs": [
        {
          "internalType": "address",
          "name": "",
          "type": "address"
        }
      ],
      "payable": false,
      "stateMutability": "view",
      "type": "function"
    },
    {
      "constant": true,
      "inputs": [],
      "name": "totalSupply",
      "outputs": [
        {
          "internalType": "uint256",
          "name": "",
          "type": "uint256"
        }
      ],
      "payable": false,
      "stateMutability": "view",
      "type": "function"
    },
    {
      "constant": false,
      "inputs": [
        {
          "internalType": "address",
          "name": "recipient",
          "type": "address"
        },
        {
          "internalType": "uint256",
          "name": "amount",
          "type": "uint256"
        }
      ],
      "name": "transfer",
      "outputs": [
        {
          "internalType": "bool",
          "name": "",
          "type": "bool"
        }
      ],
      "payable": false,
      "stateMutability": "nonpayable",
      "type": "function"
    },
    {
      "constant": false,
      "inputs": [
        {
          "internalType": "address",
          "name": "sender",
          "type": "address"
        },
        {
          "internalType": "address",
          "name": "recipient",
          "type": "address"
        },
        {
          "internalType": "uint256",
          "name": "amount",
          "type": "uint256"
        }
      ],
      "name": "transferFrom",
      "outputs": [
        {
          "internalType": "bool",
          "name": "",
          "type": "bool"
        }
      ],
      "payable": false,
      "stateMutability": "nonpayable",
      "type": "function"
    },
    {
      "constant": false,
      "inputs": [
        {
          "internalType": "uint256",
          "name": "_amount",
          "type": "uint256"
        }
      ],
      "name": "deposit",
      "outputs": [],
      "payable": false,
      "stateMutability": "nonpayable",
      "type": "function"
    },
    {
      "constant": false,
      "inputs": [
        {
          "internalType": "uint256",
          "name": "_shares",
          "type": "uint256"
        }
      ],
      "name": "withdraw",
      "outputs": [],
      "payable": false,
      "stateMutability": "nonpayable",
      "type": "function"
    },
    {
      "constant": true,
      "inputs": [],
      "name": "recommend",
      "outputs": [
        {
          "internalType": "enum yDAI.Lender",
          "name": "",
          "type": "uint8"
        }
      ],
      "payable": false,
      "stateMutability": "view",
      "type": "function"
    },
    {
      "constant": false,
      "inputs": [
        {
          "internalType": "uint256",
          "name": "amount",
          "type": "uint256"
        }
      ],
      "name": "supplyDydx",
      "outputs": [
        {
          "internalType": "uint256",
          "name": "",
          "type": "uint256"
        }
      ],
      "payable": false,
      "stateMutability": "nonpayable",
      "type": "function"
    },
    {
      "constant": true,
      "inputs": [],
      "name": "getAave",
      "outputs": [
        {
          "internalType": "address",
          "name": "",
          "type": "address"
        }
      ],
      "payable": false,
      "stateMutability": "view",
      "type": "function"
    },
    {
      "constant": true,
      "inputs": [],
      "name": "getAaveCore",
      "outputs": [
        {
          "internalType": "address",
          "name": "",
          "type": "address"
        }
      ],
      "payable": false,
      "stateMutability": "view",
      "type": "function"
    },
    {
      "constant": false,
      "inputs": [],
      "name": "approveToken",
      "outputs": [],
      "payable": false,
      "stateMutability": "nonpayable",
      "type": "function"
    },
    {
      "constant": true,
      "inputs": [],
      "name": "balance",
      "outputs": [
        {
          "internalType": "uint256",
          "name": "",
          "type": "uint256"
        }
      ],
      "payable": false,
      "stateMutability": "view",
      "type": "function"
    },
    {
      "constant": true,
      "inputs": [],
      "name": "balanceDydx",
      "outputs": [
        {
          "internalType": "uint256",
          "name": "",
          "type": "uint256"
        }
      ],
      "payable": false,
      "stateMutability": "view",
      "type": "function"
    },
    {
      "constant": true,
      "inputs": [],
      "name": "balanceCompound",
      "outputs": [
        {
          "internalType": "uint256",
          "name": "",
          "type": "uint256"
        }
      ],
      "payable": false,
      "stateMutability": "view",
      "type": "function"
    },
    {
      "constant": true,
      "inputs": [],
      "name": "balanceCompoundInToken",
      "outputs": [
        {
          "internalType": "uint256",
          "name": "",
          "type": "uint256"
        }
      ],
      "payable": false,
      "stateMutability": "view",
      "type": "function"
    },
    {
      "constant": true,
      "inputs": [],
      "name": "balanceFulcrumInToken",
      "outputs": [
        {
          "internalType": "uint256",
          "name": "",
          "type": "uint256"
        }
      ],
      "payable": false,
      "stateMutability": "view",
      "type": "function"
    },
    {
      "constant": true,
      "inputs": [],
      "name": "balanceFulcrum",
      "outputs": [
        {
          "internalType": "uint256",
          "name": "",
          "type": "uint256"
        }
      ],
      "payable": false,
      "stateMutability": "view",
      "type": "function"
    },
    {
      "constant": true,
      "inputs": [],
      "name": "balanceAave",
      "outputs": [
        {
          "internalType": "uint256",
          "name": "",
          "type": "uint256"
        }
      ],
      "payable": false,
      "stateMutability": "view",
      "type": "function"
    },
    {
      "constant": false,
      "inputs": [],
      "name": "rebalance",
      "outputs": [],
      "payable": false,
      "stateMutability": "nonpayable",
      "type": "function"
    },
    {
      "constant": false,
      "inputs": [
        {
          "internalType": "uint256",
          "name": "amount",
          "type": "uint256"
        }
      ],
      "name": "supplyAave",
      "outputs": [],
      "payable": false,
      "stateMutability": "nonpayable",
      "type": "function"
    },
    {
      "constant": false,
      "inputs": [
        {
          "internalType": "uint256",
          "name": "amount",
          "type": "uint256"
        }
      ],
      "name": "supplyFulcrum",
      "outputs": [],
      "payable": false,
      "stateMutability": "nonpayable",
      "type": "function"
    },
    {
      "constant": false,
      "inputs": [
        {
          "internalType": "uint256",
          "name": "amount",
          "type": "uint256"
        }
      ],
      "name": "supplyCompound",
      "outputs": [],
      "payable": false,
      "stateMutability": "nonpayable",
      "type": "function"
    },
    {
      "constant": false,
      "inputs": [
        {
          "internalType": "uint256",
          "name": "_amount",
          "type": "uint256"
        }
      ],
      "name": "invest",
      "outputs": [],
      "payable": false,
      "stateMutability": "nonpayable",
      "type": "function"
    },
    {
      "constant": true,
      "inputs": [],
      "name": "calcPoolValueInToken",
      "outputs": [
        {
          "internalType": "uint256",
          "name": "",
          "type": "uint256"
        }
      ],
      "payable": false,
      "stateMutability": "view",
      "type": "function"
    },
    {
      "constant": true,
      "inputs": [],
      "name": "getPricePerFullShare",
      "outputs": [
        {
          "internalType": "uint256",
          "name": "",
          "type": "uint256"
        }
      ],
      "payable": false,
      "stateMutability": "view",
      "type": "function"
    },
    {
      "constant": false,
      "inputs": [
        {
          "internalType": "uint256",
          "name": "_shares",
          "type": "uint256"
        }
      ],
      "name": "redeem",
      "outputs": [],
      "payable": false,
      "stateMutability": "nonpayable",
      "type": "function"
    }
  ],
  "bytecode": "0x60806040526000600f60146101000a81548160ff021916908360048111156200002457fe5b02179055503480156200003657600080fd5b506040518060400160405280600981526020017f696561726e2044414900000000000000000000000000000000000000000000008152506040518060400160405280600481526020017f794441490000000000000000000000000000000000000000000000000000000081525060128260039080519060200190620000bd929190620009c6565b508160049080519060200190620000d6929190620009c6565b5080600560006101000a81548160ff021916908360ff1602179055505050506001600681905550736b175474e89094c44da98b954eedeac495271d0f600860006101000a81548173ffffffffffffffffffffffffffffffffffffffff021916908373ffffffffffffffffffffffffffffffffffffffff16021790555073dd6d648c991f7d47454354f4ef326b04025a48a8600f60006101000a81548173ffffffffffffffffffffffffffffffffffffffff021916908373ffffffffffffffffffffffffffffffffffffffff160217905550731e0447b19bb6ecfdae1e4ae1694b0c3659614e4e600d60006101000a81548173ffffffffffffffffffffffffffffffffffffffff021916908373ffffffffffffffffffffffffffffffffffffffff1602179055507324a42fd28c976a61df5d00d0599c34c4f90748c8600b60006101000a81548173ffffffffffffffffffffffffffffffffffffffff021916908373ffffffffffffffffffffffffffffffffffffffff16021790555073493c57c4763932315a328269e1adad09653b9081600a60006101000a81548173ffffffffffffffffffffffffffffffffffffffff021916908373ffffffffffffffffffffffffffffffffffffffff16021790555073fc1e690f61efd961294b3e1ce3313fbd8aa4f85d600c60006101000a81548173ffffffffffffffffffffffffffffffffffffffff021916908373ffffffffffffffffffffffffffffffffffffffff160217905550735d3a536e4d6dbd6114cc1ead35777bab948e3643600960006101000a81548173ffffffffffffffffffffffffffffffffffffffff021916908373ffffffffffffffffffffffffffffffffffffffff1602179055506003600e81905550620003686200036e60201b60201c565b62000edb565b62000404600960009054906101000a900473ffffffffffffffffffffffffffffffffffffffff167fffffffffffffffffffffffffffffffffffffffffffffffffffffffffffffffff600860009054906101000a900473ffffffffffffffffffffffffffffffffffffffff1673ffffffffffffffffffffffffffffffffffffffff16620005b560201b620036da179092919060201c565b6200049a600d60009054906101000a900473ffffffffffffffffffffffffffffffffffffffff167fffffffffffffffffffffffffffffffffffffffffffffffffffffffffffffffff600860009054906101000a900473ffffffffffffffffffffffffffffffffffffffff1673ffffffffffffffffffffffffffffffffffffffff16620005b560201b620036da179092919060201c565b6200051d620004ae6200074060201b60201c565b7fffffffffffffffffffffffffffffffffffffffffffffffffffffffffffffffff600860009054906101000a900473ffffffffffffffffffffffffffffffffffffffff1673ffffffffffffffffffffffffffffffffffffffff16620005b560201b620036da179092919060201c565b620005b3600a60009054906101000a900473ffffffffffffffffffffffffffffffffffffffff167fffffffffffffffffffffffffffffffffffffffffffffffffffffffffffffffff600860009054906101000a900473ffffffffffffffffffffffffffffffffffffffff1673ffffffffffffffffffffffffffffffffffffffff16620005b560201b620036da179092919060201c565b565b600081148062000655575060008373ffffffffffffffffffffffffffffffffffffffff1663dd62ed3e30856040518363ffffffff1660e01b8152600401620005ff92919062000d04565b60206040518083038186803b1580156200061857600080fd5b505afa1580156200062d573d6000803e3d6000fd5b505050506040513d601f19601f8201168201806040525062000653919081019062000b12565b145b62000697576040517f08c379a00000000000000000000000000000000000000000000000000000000081526004016200068e9062000da2565b60405180910390fd5b6200073b838473ffffffffffffffffffffffffffffffffffffffff1663095ea7b3905060e01b8484604051602401620006d292919062000d31565b604051602081830303815290604052907bffffffffffffffffffffffffffffffffffffffffffffffffffffffff19166020820180517bffffffffffffffffffffffffffffffffffffffffffffffffffffffff8381831617835250505050620007eb60201b60201c565b505050565b6000600b60009054906101000a900473ffffffffffffffffffffffffffffffffffffffff1673ffffffffffffffffffffffffffffffffffffffff1663ed6ff7606040518163ffffffff1660e01b815260040160206040518083038186803b158015620007ab57600080fd5b505afa158015620007c0573d6000803e3d6000fd5b505050506040513d601f19601f82011682018060405250620007e6919081019062000aba565b905090565b620008178273ffffffffffffffffffffffffffffffffffffffff166200097a60201b620046951760201c565b62000859576040517f08c379a0000000000000000000000000000000000000000000000000000000008152600401620008509062000dc4565b60405180910390fd5b600060608373ffffffffffffffffffffffffffffffffffffffff168360405162000884919062000ceb565b6000604051808303816000865af19150503d8060008114620008c3576040519150601f19603f3d011682016040523d82523d6000602084013e620008c8565b606091505b50915091508162000910576040517f08c379a0000000000000000000000000000000000000000000000000000000008152600401620009079062000d5e565b60405180910390fd5b60008151111562000974578080602001905162000931919081019062000ae6565b62000973576040517f08c379a00000000000000000000000000000000000000000000000000000000081526004016200096a9062000d80565b60405180910390fd5b5b50505050565b60008060007fc5d2460186f7233c927e7db2dcc703c0e500b653ca82273b7bfad8045d85a47060001b9050833f91506000801b8214158015620009bd5750808214155b92505050919050565b828054600181600116156101000203166002900490600052602060002090601f016020900481019282601f1062000a0957805160ff191683800117855562000a3a565b8280016001018555821562000a3a579182015b8281111562000a3957825182559160200191906001019062000a1c565b5b50905062000a49919062000a4d565b5090565b62000a7291905b8082111562000a6e57600081600090555060010162000a54565b5090565b90565b60008151905062000a868162000e8d565b92915050565b60008151905062000a9d8162000ea7565b92915050565b60008151905062000ab48162000ec1565b92915050565b60006020828403121562000acd57600080fd5b600062000add8482850162000a75565b91505092915050565b60006020828403121562000af957600080fd5b600062000b098482850162000a8c565b91505092915050565b60006020828403121562000b2557600080fd5b600062000b358482850162000aa3565b91505092915050565b62000b498162000e0d565b82525050565b600062000b5c8262000de6565b62000b68818562000df1565b935062000b7a81856020860162000e57565b80840191505092915050565b600062000b9560208362000dfc565b91507f5361666545524332303a206c6f772d6c6576656c2063616c6c206661696c65646000830152602082019050919050565b600062000bd7602a8362000dfc565b91507f5361666545524332303a204552433230206f7065726174696f6e20646964206e60008301527f6f742073756363656564000000000000000000000000000000000000000000006020830152604082019050919050565b600062000c3f60368362000dfc565b91507f5361666545524332303a20617070726f76652066726f6d206e6f6e2d7a65726f60008301527f20746f206e6f6e2d7a65726f20616c6c6f77616e6365000000000000000000006020830152604082019050919050565b600062000ca7601f8362000dfc565b91507f5361666545524332303a2063616c6c20746f206e6f6e2d636f6e7472616374006000830152602082019050919050565b62000ce58162000e4d565b82525050565b600062000cf9828462000b4f565b915081905092915050565b600060408201905062000d1b600083018562000b3e565b62000d2a602083018462000b3e565b9392505050565b600060408201905062000d48600083018562000b3e565b62000d57602083018462000cda565b9392505050565b6000602082019050818103600083015262000d798162000b86565b9050919050565b6000602082019050818103600083015262000d9b8162000bc8565b9050919050565b6000602082019050818103600083015262000dbd8162000c30565b9050919050565b6000602082019050818103600083015262000ddf8162000c98565b9050919050565b600081519050919050565b600081905092915050565b600082825260208201905092915050565b600062000e1a8262000e2d565b9050919050565b60008115159050919050565b600073ffffffffffffffffffffffffffffffffffffffff82169050919050565b6000819050919050565b60005b8381101562000e7757808201518184015260208101905062000e5a565b8381111562000e87576000848401525b50505050565b62000e988162000e0d565b811462000ea457600080fd5b50565b62000eb28162000e21565b811462000ebe57600080fd5b50565b62000ecc8162000e4d565b811462000ed857600080fd5b50565b615e198062000eeb6000396000f3fe60806040526004361061025c5760003560e01c80637d7c2a1c11610144578063b6b55f25116100b6578063e849d6591161007a578063e849d659146108f1578063f5a41dea1461091a578063f69e204614610945578063f7c1ec7714610970578063f82ce27d1461099b578063fc0c546a146109c65761025c565b8063b6b55f251461080c578063cf8ca42614610835578063d9d7858a14610860578063db006a751461088b578063dd62ed3e146108b45761025c565b806399b71d5c1161010857806399b71d5c146106fa578063a160176d14610711578063a457c2d71461073c578063a728797114610779578063a9059cbb146107a4578063b69ef8a8146107e15761025c565b80637d7c2a1c146106395780638124955c14610650578063819faf7b146106795780638e4ec6ef146106a457806395d89b41146106cf5761025c565b80632e1a7d4d116101dd57806358782c21116101a157806358782c211461052757806361c1ec551461055257806365aab7491461057d57806370a08231146105a65780637137ef99146105e357806377c7b8fc1461060e5761025c565b80632e1a7d4d14610440578063313ce56714610469578063395093511461049457806339c0a7e1146104d157806357ded9c9146104fc5761025c565b80630eb2a267116102245780630eb2a2671461035957806316f0115b1461038457806318160ddd146103af57806323b872dd146103da5780632afcf480146104175761025c565b806306636c1c1461025e57806306a3fe591461029b57806306fdde03146102c6578063085d4883146102f1578063095ea7b31461031c575b005b34801561026a57600080fd5b5061028560048036036102809190810190614b83565b6109f1565b6040516102929190615a18565b60405180910390f35b3480156102a757600080fd5b506102b0610c2f565b6040516102bd91906155c1565b60405180910390f35b3480156102d257600080fd5b506102db610c55565b6040516102e8919061574d565b60405180910390f35b3480156102fd57600080fd5b50610306610cf7565b6040516103139190615732565b60405180910390f35b34801561032857600080fd5b50610343600480360361033e9190810190614a66565b610d0a565b6040516103509190615717565b60405180910390f35b34801561036557600080fd5b5061036e610d28565b60405161037b9190615a18565b60405180910390f35b34801561039057600080fd5b50610399610dda565b6040516103a69190615a18565b60405180910390f35b3480156103bb57600080fd5b506103c4610de0565b6040516103d19190615a18565b60405180910390f35b3480156103e657600080fd5b5061040160048036036103fc9190810190614a17565b610dea565b60405161040e9190615717565b60405180910390f35b34801561042357600080fd5b5061043e60048036036104399190810190614b83565b610ec3565b005b34801561044c57600080fd5b5061046760048036036104629190810190614b83565b61102f565b005b34801561047557600080fd5b5061047e6113d9565b60405161048b9190615a33565b60405180910390f35b3480156104a057600080fd5b506104bb60048036036104b69190810190614a66565b6113f0565b6040516104c89190615717565b60405180910390f35b3480156104dd57600080fd5b506104e66114a3565b6040516104f39190615a18565b60405180910390f35b34801561050857600080fd5b50610511611593565b60405161051e91906155c1565b60405180910390f35b34801561053357600080fd5b5061053c6115b9565b60405161054991906155c1565b60405180910390f35b34801561055e57600080fd5b506105676115df565b6040516105749190615a18565b60405180910390f35b34801561058957600080fd5b506105a4600480360361059f9190810190614b83565b611691565b005b3480156105b257600080fd5b506105cd60048036036105c89190810190614989565b61172d565b6040516105da9190615a18565b60405180910390f35b3480156105ef57600080fd5b506105f8611775565b6040516106059190615a18565b60405180910390f35b34801561061a57600080fd5b506106236117e8565b6040516106309190615a18565b60405180910390f35b34801561064557600080fd5b5061064e61182a565b005b34801561065c57600080fd5b5061067760048036036106729190810190614b83565b611971565b005b34801561068557600080fd5b5061068e611a65565b60405161069b91906155c1565b60405180910390f35b3480156106b057600080fd5b506106b9611a8b565b6040516106c691906155c1565b60405180910390f35b3480156106db57600080fd5b506106e4611ab1565b6040516106f1919061574d565b60405180910390f35b34801561070657600080fd5b5061070f611b53565b005b34801561071d57600080fd5b50610726611d76565b6040516107339190615732565b60405180910390f35b34801561074857600080fd5b50610763600480360361075e9190810190614a66565b611ee2565b6040516107709190615717565b60405180910390f35b34801561078557600080fd5b5061078e611faf565b60405161079b9190615a18565b60405180910390f35b3480156107b057600080fd5b506107cb60048036036107c69190810190614a66565b61209b565b6040516107d89190615717565b60405180910390f35b3480156107ed57600080fd5b506107f66120b9565b6040516108039190615a18565b60405180910390f35b34801561081857600080fd5b50610833600480360361082e9190810190614b83565b61216b565b005b34801561084157600080fd5b5061084a6122cf565b6040516108579190615a18565b60405180910390f35b34801561086c57600080fd5b50610875612381565b6040516108829190615a18565b60405180910390f35b34801561089757600080fd5b506108b260048036036108ad9190810190614b83565b612387565b005b3480156108c057600080fd5b506108db60048036036108d691908101906149db565b6127c0565b6040516108e89190615a18565b60405180910390f35b3480156108fd57600080fd5b5061091860048036036109139190810190614b83565b612847565b005b34801561092657600080fd5b5061092f612939565b60405161093c9190615a18565b60405180910390f35b34801561095157600080fd5b5061095a612a04565b60405161096791906155c1565b60405180910390f35b34801561097c57600080fd5b50610985612a2a565b60405161099291906155c1565b60405180910390f35b3480156109a757600080fd5b506109b0612ad1565b6040516109bd91906155c1565b60405180910390f35b3480156109d257600080fd5b506109db612b78565b6040516109e891906155c1565b60405180910390f35b600060606001604051908082528060200260200182016040528015610a3057816020015b610a1d6146e0565b815260200190600190039081610a155790505b50905060405180604001604052803073ffffffffffffffffffffffffffffffffffffffff168152602001600081525081600081518110610a6c57fe5b6020026020010181905250610a7f614710565b6040518060800160405280600115158152602001600080811115610a9f57fe5b8152602001600080811115610ab057fe5b8152602001858152509050610ac361474e565b600081600001906001811115610ad557fe5b90816001811115610ae257fe5b815250506000816020018181525050818160400181905250600e54816060018181525050308160a0019073ffffffffffffffffffffffffffffffffffffffff16908173ffffffffffffffffffffffffffffffffffffffff168152505060606001604051908082528060200260200182016040528015610b7b57816020015b610b686147ba565b815260200190600190039081610b605790505b5090508181600081518110610b8c57fe5b6020026020010181905250600d60009054906101000a900473ffffffffffffffffffffffffffffffffffffffff1673ffffffffffffffffffffffffffffffffffffffff1663a67a6a4585836040518363ffffffff1660e01b8152600401610bf49291906156e0565b600060405180830381600087803b158015610c0e57600080fd5b505af1158015610c22573d6000803e3d6000fd5b5050505050505050919050565b600c60009054906101000a900473ffffffffffffffffffffffffffffffffffffffff1681565b606060038054600181600116156101000203166002900480601f016020809104026020016040519081016040528092919081815260200182805460018160011615610100020316600290048015610ced5780601f10610cc257610100808354040283529160200191610ced565b820191906000526020600020905b815481529060010190602001808311610cd057829003601f168201915b5050505050905090565b600f60149054906101000a900460ff1681565b6000610d1e610d17612b9e565b8484612ba6565b6001905092915050565b6000600a60009054906101000a900473ffffffffffffffffffffffffffffffffffffffff1673ffffffffffffffffffffffffffffffffffffffff166370a08231306040518263ffffffff1660e01b8152600401610d8591906155dc565b60206040518083038186803b158015610d9d57600080fd5b505afa158015610db1573d6000803e3d6000fd5b505050506040513d601f19601f82011682018060405250610dd59190810190614bac565b905090565b60075481565b6000600254905090565b6000610df7848484612d71565b610eb884610e03612b9e565b610eb385604051806060016040528060288152602001615d8a60289139600160008b73ffffffffffffffffffffffffffffffffffffffff1673ffffffffffffffffffffffffffffffffffffffff1681526020019081526020016000206000610e69612b9e565b73ffffffffffffffffffffffffffffffffffffffff1673ffffffffffffffffffffffffffffffffffffffff16815260200190815260200160002054612ffb9092919063ffffffff16565b612ba6565b600190509392505050565b60016006600082825401925050819055506000600654905060008211610f1e576040517f08c379a0000000000000000000000000000000000000000000000000000000008152600401610f159061590f565b60405180910390fd5b610f26611775565b600781905550610f7b333084600860009054906101000a900473ffffffffffffffffffffffffffffffffffffffff1673ffffffffffffffffffffffffffffffffffffffff16613056909392919063ffffffff16565b610f8361182a565b600080905060006007541415610fa25782905082600781905550610fce565b610fcb600754610fbd600254866130f890919063ffffffff16565b61316890919063ffffffff16565b90505b610fd6611775565b600781905550610fe633826131b2565b50600654811461102b576040517f08c379a00000000000000000000000000000000000000000000000000000000081526004016110229061596f565b60405180910390fd5b5050565b6001600660008282540192505081905550600060065490506000821161108a576040517f08c379a00000000000000000000000000000000000000000000000000000000081526004016110819061588f565b60405180910390fd5b60006110953361172d565b9050808311156110da576040517f08c379a00000000000000000000000000000000000000000000000000000000081526004016110d19061586f565b60405180910390fd5b6110e261333a565b6007819055506000611113600254611105866007546130f890919063ffffffff16565b61316890919063ffffffff16565b905061119d846040518060400160405280601d81526020017f72656465656d20616d6f756e7420657863656564732062616c616e63650000008152506000803373ffffffffffffffffffffffffffffffffffffffff1673ffffffffffffffffffffffffffffffffffffffff16815260200190815260200160002054612ffb9092919063ffffffff16565b6000803373ffffffffffffffffffffffffffffffffffffffff1673ffffffffffffffffffffffffffffffffffffffff168152602001908152602001600020819055506111f4846002546133ad90919063ffffffff16565b600281905550600073ffffffffffffffffffffffffffffffffffffffff163373ffffffffffffffffffffffffffffffffffffffff167fddf252ad1be2c89b69c2b068fc378daa952ba7f163c4a11628f55a4df523b3ef866040516112589190615a18565b60405180910390a36000600860009054906101000a900473ffffffffffffffffffffffffffffffffffffffff1673ffffffffffffffffffffffffffffffffffffffff166370a08231306040518263ffffffff1660e01b81526004016112bd91906155dc565b60206040518083038186803b1580156112d557600080fd5b505afa1580156112e9573d6000803e3d6000fd5b505050506040513d601f19601f8201168201806040525061130d9190810190614bac565b9050818110156113335761133261132d82846133ad90919063ffffffff16565b6133f7565b5b6113803383600860009054906101000a900473ffffffffffffffffffffffffffffffffffffffff1673ffffffffffffffffffffffffffffffffffffffff1661356d9092919063ffffffff16565b61138861333a565b60078190555050505060065481146113d5576040517f08c379a00000000000000000000000000000000000000000000000000000000081526004016113cc9061596f565b60405180910390fd5b5050565b6000600560009054906101000a900460ff16905090565b60006114996113fd612b9e565b84611494856001600061140e612b9e565b73ffffffffffffffffffffffffffffffffffffffff1673ffffffffffffffffffffffffffffffffffffffff16815260200190815260200160002060008973ffffffffffffffffffffffffffffffffffffffff1673ffffffffffffffffffffffffffffffffffffffff1681526020019081526020016000205461360c90919063ffffffff16565b612ba6565b6001905092915050565b60006114ad614826565b600d60009054906101000a900473ffffffffffffffffffffffffffffffffffffffff1673ffffffffffffffffffffffffffffffffffffffff1663c190c2ec60405180604001604052803073ffffffffffffffffffffffffffffffffffffffff1681526020016000815250600e546040518363ffffffff1660e01b81526004016115379291906159ef565b604080518083038186803b15801561154e57600080fd5b505afa158015611562573d6000803e3d6000fd5b505050506040513d601f19601f820116820180604052506115869190810190614b5a565b9050806020015191505090565b600f60009054906101000a900473ffffffffffffffffffffffffffffffffffffffff1681565b600a60009054906101000a900473ffffffffffffffffffffffffffffffffffffffff1681565b6000600960009054906101000a900473ffffffffffffffffffffffffffffffffffffffff1673ffffffffffffffffffffffffffffffffffffffff166370a08231306040518263ffffffff1660e01b815260040161163c91906155dc565b60206040518083038186803b15801561165457600080fd5b505afa158015611668573d6000803e3d6000fd5b505050506040513d601f19601f8201168201806040525061168c9190810190614bac565b905090565b611699612a2a565b73ffffffffffffffffffffffffffffffffffffffff1663d2d0e066600860009054906101000a900473ffffffffffffffffffffffffffffffffffffffff168360006040518463ffffffff1660e01b81526004016116f8939291906156a9565b600060405180830381600087803b15801561171257600080fd5b505af1158015611726573d6000803e3d6000fd5b5050505050565b60008060008373ffffffffffffffffffffffffffffffffffffffff1673ffffffffffffffffffffffffffffffffffffffff168152602001908152602001600020549050919050565b60006117e36117826120b9565b6117d561178d6122cf565b6117c76117986114a3565b6117b96117a3612939565b6117ab611faf565b61360c90919063ffffffff16565b61360c90919063ffffffff16565b61360c90919063ffffffff16565b61360c90919063ffffffff16565b905090565b6000806117f3611775565b9050611824600254611816670de0b6b3a7640000846130f890919063ffffffff16565b61316890919063ffffffff16565b91505090565b6000611834611d76565b9050600f60149054906101000a900460ff16600481111561185157fe5b81600481111561185d57fe5b1461186b5761186a613661565b5b60006118756120b9565b111561194b576001600481111561188857fe5b81600481111561189457fe5b14156118b0576118aa6118a56120b9565b6109f1565b5061194a565b6004808111156118bc57fe5b8160048111156118c857fe5b14156118e3576118de6118d96120b9565b611971565b611949565b600260048111156118f057fe5b8160048111156118fc57fe5b14156119175761191261190d6120b9565b612847565b611948565b6003600481111561192457fe5b81600481111561193057fe5b1415611947576119466119416120b9565b611691565b5b5b5b5b5b80600f60146101000a81548160ff0219169083600481111561196957fe5b021790555050565b6000600a60009054906101000a900473ffffffffffffffffffffffffffffffffffffffff1673ffffffffffffffffffffffffffffffffffffffff166340c10f1930846040518363ffffffff1660e01b81526004016119d09291906155f7565b602060405180830381600087803b1580156119ea57600080fd5b505af11580156119fe573d6000803e3d6000fd5b505050506040513d601f19601f82011682018060405250611a229190810190614bac565b11611a62576040517f08c379a0000000000000000000000000000000000000000000000000000000008152600401611a599061592f565b60405180910390fd5b50565b600b60009054906101000a900473ffffffffffffffffffffffffffffffffffffffff1681565b600d60009054906101000a900473ffffffffffffffffffffffffffffffffffffffff1681565b606060048054600181600116156101000203166002900480601f016020809104026020016040519081016040528092919081815260200182805460018160011615610100020316600290048015611b495780601f10611b1e57610100808354040283529160200191611b49565b820191906000526020600020905b815481529060010190602001808311611b2c57829003601f168201915b5050505050905090565b611be2600960009054906101000a900473ffffffffffffffffffffffffffffffffffffffff167fffffffffffffffffffffffffffffffffffffffffffffffffffffffffffffffff600860009054906101000a900473ffffffffffffffffffffffffffffffffffffffff1673ffffffffffffffffffffffffffffffffffffffff166136da9092919063ffffffff16565b611c71600d60009054906101000a900473ffffffffffffffffffffffffffffffffffffffff167fffffffffffffffffffffffffffffffffffffffffffffffffffffffffffffffff600860009054906101000a900473ffffffffffffffffffffffffffffffffffffffff1673ffffffffffffffffffffffffffffffffffffffff166136da9092919063ffffffff16565b611ce5611c7c612ad1565b7fffffffffffffffffffffffffffffffffffffffffffffffffffffffffffffffff600860009054906101000a900473ffffffffffffffffffffffffffffffffffffffff1673ffffffffffffffffffffffffffffffffffffffff166136da9092919063ffffffff16565b611d74600a60009054906101000a900473ffffffffffffffffffffffffffffffffffffffff167fffffffffffffffffffffffffffffffffffffffffffffffffffffffffffffffff600860009054906101000a900473ffffffffffffffffffffffffffffffffffffffff1673ffffffffffffffffffffffffffffffffffffffff166136da9092919063ffffffff16565b565b6000806000806000600f60009054906101000a900473ffffffffffffffffffffffffffffffffffffffff1673ffffffffffffffffffffffffffffffffffffffff1663d88be3c0600860009054906101000a900473ffffffffffffffffffffffffffffffffffffffff166040518263ffffffff1660e01b8152600401611dfb91906155c1565b60006040518083038186803b158015611e1357600080fd5b505afa158015611e27573d6000803e3d6000fd5b505050506040513d6000823e3d601f19601f82011682018060405250611e509190810190614acb565b945094509450945050600080905080851115611e6a578490505b80841115611e76578390505b80831115611e82578290505b80821115611e8e578190505b600080905085821415611ea45760029050611ed6565b84821415611eb55760049050611ed5565b83821415611ec65760039050611ed4565b82821415611ed357600190505b5b5b5b80965050505050505090565b6000611fa5611eef612b9e565b84611fa085604051806060016040528060258152602001615db26025913960016000611f19612b9e565b73ffffffffffffffffffffffffffffffffffffffff1673ffffffffffffffffffffffffffffffffffffffff16815260200190815260200160002060008a73ffffffffffffffffffffffffffffffffffffffff1673ffffffffffffffffffffffffffffffffffffffff16815260200190815260200160002054612ffb9092919063ffffffff16565b612ba6565b6001905092915050565b600080611fba6115df565b9050600081111561209457612091670de0b6b3a7640000612083600960009054906101000a900473ffffffffffffffffffffffffffffffffffffffff1673ffffffffffffffffffffffffffffffffffffffff1663182df0f56040518163ffffffff1660e01b815260040160206040518083038186803b15801561203c57600080fd5b505afa158015612050573d6000803e3d6000fd5b505050506040513d601f19601f820116820180604052506120749190810190614bac565b846130f890919063ffffffff16565b61316890919063ffffffff16565b90505b8091505090565b60006120af6120a8612b9e565b8484612d71565b6001905092915050565b6000600860009054906101000a900473ffffffffffffffffffffffffffffffffffffffff1673ffffffffffffffffffffffffffffffffffffffff166370a08231306040518263ffffffff1660e01b815260040161211691906155dc565b60206040518083038186803b15801561212e57600080fd5b505afa158015612142573d6000803e3d6000fd5b505050506040513d601f19601f820116820180604052506121669190810190614bac565b905090565b600160066000828254019250508190555060006006549050600082116121c6576040517f08c379a00000000000000000000000000000000000000000000000000000000081526004016121bd9061590f565b60405180910390fd5b6121ce61333a565b600781905550612223333084600860009054906101000a900473ffffffffffffffffffffffffffffffffffffffff1673ffffffffffffffffffffffffffffffffffffffff16613056909392919063ffffffff16565b600080905060006007541415612242578290508260078190555061226e565b61226b60075461225d600254866130f890919063ffffffff16565b61316890919063ffffffff16565b90505b61227661333a565b60078190555061228633826131b2565b5060065481146122cb576040517f08c379a00000000000000000000000000000000000000000000000000000000081526004016122c29061596f565b60405180910390fd5b5050565b6000600c60009054906101000a900473ffffffffffffffffffffffffffffffffffffffff1673ffffffffffffffffffffffffffffffffffffffff166370a08231306040518263ffffffff1660e01b815260040161232c91906155dc565b60206040518083038186803b15801561234457600080fd5b505afa158015612358573d6000803e3d6000fd5b505050506040513d601f19601f8201168201806040525061237c9190810190614bac565b905090565b600e5481565b600160066000828254019250508190555060006006549050600082116123e2576040517f08c379a00000000000000000000000000000000000000000000000000000000081526004016123d99061588f565b60405180910390fd5b60006123ed3361172d565b905080831115612432576040517f08c379a00000000000000000000000000000000000000000000000000000000081526004016124299061586f565b60405180910390fd5b61243a611775565b600781905550600061246b60025461245d866007546130f890919063ffffffff16565b61316890919063ffffffff16565b90506124f5846040518060400160405280601d81526020017f72656465656d20616d6f756e7420657863656564732062616c616e63650000008152506000803373ffffffffffffffffffffffffffffffffffffffff1673ffffffffffffffffffffffffffffffffffffffff16815260200190815260200160002054612ffb9092919063ffffffff16565b6000803373ffffffffffffffffffffffffffffffffffffffff1673ffffffffffffffffffffffffffffffffffffffff1681526020019081526020016000208190555061254c846002546133ad90919063ffffffff16565b600281905550600073ffffffffffffffffffffffffffffffffffffffff163373ffffffffffffffffffffffffffffffffffffffff167fddf252ad1be2c89b69c2b068fc378daa952ba7f163c4a11628f55a4df523b3ef866040516125b09190615a18565b60405180910390a36000600860009054906101000a900473ffffffffffffffffffffffffffffffffffffffff1673ffffffffffffffffffffffffffffffffffffffff166370a08231306040518263ffffffff1660e01b815260040161261591906155dc565b60206040518083038186803b15801561262d57600080fd5b505afa158015612641573d6000803e3d6000fd5b505050506040513d601f19601f820116820180604052506126659190810190614bac565b90506000600f60149054906101000a900460ff169050828210156126e35761268b611d76565b9050600f60149054906101000a900460ff1660048111156126a857fe5b8160048111156126b457fe5b146126c6576126c1613661565b6126e2565b6126e16126dc83856133ad90919063ffffffff16565b6133f7565b5b5b6127303384600860009054906101000a900473ffffffffffffffffffffffffffffffffffffffff1673ffffffffffffffffffffffffffffffffffffffff1661356d9092919063ffffffff16565b600f60149054906101000a900460ff16600481111561274b57fe5b81600481111561275757fe5b146127665761276581613851565b5b61276e611775565b6007819055505050505060065481146127bc576040517f08c379a00000000000000000000000000000000000000000000000000000000081526004016127b39061596f565b60405180910390fd5b5050565b6000600160008473ffffffffffffffffffffffffffffffffffffffff1673ffffffffffffffffffffffffffffffffffffffff16815260200190815260200160002060008373ffffffffffffffffffffffffffffffffffffffff1673ffffffffffffffffffffffffffffffffffffffff16815260200190815260200160002054905092915050565b6000600960009054906101000a900473ffffffffffffffffffffffffffffffffffffffff1673ffffffffffffffffffffffffffffffffffffffff1663a0712d68836040518263ffffffff1660e01b81526004016128a49190615a18565b602060405180830381600087803b1580156128be57600080fd5b505af11580156128d2573d6000803e3d6000fd5b505050506040513d601f19601f820116820180604052506128f69190810190614bac565b14612936576040517f08c379a000000000000000000000000000000000000000000000000000000000815260040161292d906157cf565b60405180910390fd5b50565b600080612944610d28565b905060008111156129fd57600a60009054906101000a900473ffffffffffffffffffffffffffffffffffffffff1673ffffffffffffffffffffffffffffffffffffffff166306b3efd6306040518263ffffffff1660e01b81526004016129aa91906155dc565b60206040518083038186803b1580156129c257600080fd5b505afa1580156129d6573d6000803e3d6000fd5b505050506040513d601f19601f820116820180604052506129fa9190810190614bac565b90505b8091505090565b600960009054906101000a900473ffffffffffffffffffffffffffffffffffffffff1681565b6000600b60009054906101000a900473ffffffffffffffffffffffffffffffffffffffff1673ffffffffffffffffffffffffffffffffffffffff16630261bf8b6040518163ffffffff1660e01b815260040160206040518083038186803b158015612a9457600080fd5b505afa158015612aa8573d6000803e3d6000fd5b505050506040513d601f19601f82011682018060405250612acc91908101906149b2565b905090565b6000600b60009054906101000a900473ffffffffffffffffffffffffffffffffffffffff1673ffffffffffffffffffffffffffffffffffffffff1663ed6ff7606040518163ffffffff1660e01b815260040160206040518083038186803b158015612b3b57600080fd5b505afa158015612b4f573d6000803e3d6000fd5b505050506040513d601f19601f82011682018060405250612b7391908101906149b2565b905090565b600860009054906101000a900473ffffffffffffffffffffffffffffffffffffffff1681565b600033905090565b600073ffffffffffffffffffffffffffffffffffffffff168373ffffffffffffffffffffffffffffffffffffffff161415612c16576040517f08c379a0000000000000000000000000000000000000000000000000000000008152600401612c0d906158ef565b60405180910390fd5b600073ffffffffffffffffffffffffffffffffffffffff168273ffffffffffffffffffffffffffffffffffffffff161415612c86576040517f08c379a0000000000000000000000000000000000000000000000000000000008152600401612c7d906157af565b60405180910390fd5b80600160008573ffffffffffffffffffffffffffffffffffffffff1673ffffffffffffffffffffffffffffffffffffffff16815260200190815260200160002060008473ffffffffffffffffffffffffffffffffffffffff1673ffffffffffffffffffffffffffffffffffffffff168152602001908152602001600020819055508173ffffffffffffffffffffffffffffffffffffffff168373ffffffffffffffffffffffffffffffffffffffff167f8c5be1e5ebec7d5bd14f71427d1e84f3dd0314c0f7b2291e5b200ac8c7c3b92583604051612d649190615a18565b60405180910390a3505050565b600073ffffffffffffffffffffffffffffffffffffffff168373ffffffffffffffffffffffffffffffffffffffff161415612de1576040517f08c379a0000000000000000000000000000000000000000000000000000000008152600401612dd8906158af565b60405180910390fd5b600073ffffffffffffffffffffffffffffffffffffffff168273ffffffffffffffffffffffffffffffffffffffff161415612e51576040517f08c379a0000000000000000000000000000000000000000000000000000000008152600401612e489061576f565b60405180910390fd5b612ebc81604051806060016040528060268152602001615d64602691396000808773ffffffffffffffffffffffffffffffffffffffff1673ffffffffffffffffffffffffffffffffffffffff16815260200190815260200160002054612ffb9092919063ffffffff16565b6000808573ffffffffffffffffffffffffffffffffffffffff1673ffffffffffffffffffffffffffffffffffffffff16815260200190815260200160002081905550612f4f816000808573ffffffffffffffffffffffffffffffffffffffff1673ffffffffffffffffffffffffffffffffffffffff1681526020019081526020016000205461360c90919063ffffffff16565b6000808473ffffffffffffffffffffffffffffffffffffffff1673ffffffffffffffffffffffffffffffffffffffff168152602001908152602001600020819055508173ffffffffffffffffffffffffffffffffffffffff168373ffffffffffffffffffffffffffffffffffffffff167fddf252ad1be2c89b69c2b068fc378daa952ba7f163c4a11628f55a4df523b3ef83604051612fee9190615a18565b60405180910390a3505050565b6000838311158290613043576040517f08c379a000000000000000000000000000000000000000000000000000000000815260040161303a919061574d565b60405180910390fd5b5060008385039050809150509392505050565b6130f2848573ffffffffffffffffffffffffffffffffffffffff166323b872dd905060e01b85858560405160240161309093929190615649565b604051602081830303815290604052907bffffffffffffffffffffffffffffffffffffffffffffffffffffffff19166020820180517bffffffffffffffffffffffffffffffffffffffffffffffffffffffff8381831617835250505050613957565b50505050565b60008083141561310b5760009050613162565b600082840290508284828161311c57fe5b041461315d576040517f08c379a00000000000000000000000000000000000000000000000000000000081526004016131549061582f565b60405180910390fd5b809150505b92915050565b60006131aa83836040518060400160405280601a81526020017f536166654d6174683a206469766973696f6e206279207a65726f000000000000815250613ac9565b905092915050565b600073ffffffffffffffffffffffffffffffffffffffff168273ffffffffffffffffffffffffffffffffffffffff161415613222576040517f08c379a0000000000000000000000000000000000000000000000000000000008152600401613219906159cf565b60405180910390fd5b6132378160025461360c90919063ffffffff16565b60028190555061328e816000808573ffffffffffffffffffffffffffffffffffffffff1673ffffffffffffffffffffffffffffffffffffffff1681526020019081526020016000205461360c90919063ffffffff16565b6000808473ffffffffffffffffffffffffffffffffffffffff1673ffffffffffffffffffffffffffffffffffffffff168152602001908152602001600020819055508173ffffffffffffffffffffffffffffffffffffffff16600073ffffffffffffffffffffffffffffffffffffffff167fddf252ad1be2c89b69c2b068fc378daa952ba7f163c4a11628f55a4df523b3ef8360405161332e9190615a18565b60405180910390a35050565b60006133a8613347613b2a565b61339a613352613bdc565b61338c61335d613c8e565b61337e613368613d7e565b613370613e49565b61360c90919063ffffffff16565b61360c90919063ffffffff16565b61360c90919063ffffffff16565b61360c90919063ffffffff16565b905090565b60006133ef83836040518060400160405280601e81526020017f536166654d6174683a207375627472616374696f6e206f766572666c6f770000815250612ffb565b905092915050565b6002600481111561340457fe5b600f60149054906101000a900460ff16600481111561341f57fe5b141561342f5761342e81613f35565b5b6003600481111561343c57fe5b600f60149054906101000a900460ff16600481111561345757fe5b14156134b157806134666122cf565b10156134a7576040517f08c379a000000000000000000000000000000000000000000000000000000000815260040161349e906158cf565b60405180910390fd5b6134b081613fdb565b5b600160048111156134be57fe5b600f60149054906101000a900460ff1660048111156134d957fe5b141561353357806134e86114a3565b1015613529576040517f08c379a0000000000000000000000000000000000000000000000000000000008152600401613520906158cf565b60405180910390fd5b6135328161406b565b5b60048081111561353f57fe5b600f60149054906101000a900460ff16600481111561355a57fe5b141561356a57613569816142a5565b5b50565b613607838473ffffffffffffffffffffffffffffffffffffffff1663a9059cbb905060e01b84846040516024016135a5929190615680565b604051602081830303815290604052907bffffffffffffffffffffffffffffffffffffffffffffffffffffffff19166020820180517bffffffffffffffffffffffffffffffffffffffffffffffffffffffff8381831617835250505050613957565b505050565b600080828401905083811015613657576040517f08c379a000000000000000000000000000000000000000000000000000000000815260040161364e906157ef565b60405180910390fd5b8091505092915050565b600061366b61434b565b905060008111156136805761367f816143fd565b5b613688613c8e565b9050600081111561369d5761369c8161406b565b5b6136a56144ef565b905060008111156136ba576136b9816145a1565b5b6136c2613bdc565b905060008111156136d7576136d681613fdb565b5b50565b6000811480613773575060008373ffffffffffffffffffffffffffffffffffffffff1663dd62ed3e30856040518363ffffffff1660e01b8152600401613721929190615620565b60206040518083038186803b15801561373957600080fd5b505afa15801561374d573d6000803e3d6000fd5b505050506040513d601f19601f820116820180604052506137719190810190614bac565b145b6137b2576040517f08c379a00000000000000000000000000000000000000000000000000000000081526004016137a99061598f565b60405180910390fd5b61384c838473ffffffffffffffffffffffffffffffffffffffff1663095ea7b3905060e01b84846040516024016137ea929190615680565b604051602081830303815290604052907bffffffffffffffffffffffffffffffffffffffffffffffffffffffff19166020820180517bffffffffffffffffffffffffffffffffffffffffffffffffffffffff8381831617835250505050613957565b505050565b600061385b613b2a565b1115613931576001600481111561386e57fe5b81600481111561387a57fe5b14156138965761389061388b613b2a565b6109f1565b50613930565b6004808111156138a257fe5b8160048111156138ae57fe5b14156138c9576138c46138bf613b2a565b611971565b61392f565b600260048111156138d657fe5b8160048111156138e257fe5b14156138fd576138f86138f3613b2a565b612847565b61392e565b6003600481111561390a57fe5b81600481111561391657fe5b141561392d5761392c613927613b2a565b611691565b5b5b5b5b5b80600f60146101000a81548160ff0219169083600481111561394f57fe5b021790555050565b6139768273ffffffffffffffffffffffffffffffffffffffff16614695565b6139b5576040517f08c379a00000000000000000000000000000000000000000000000000000000081526004016139ac906159af565b60405180910390fd5b600060608373ffffffffffffffffffffffffffffffffffffffff16836040516139de91906155aa565b6000604051808303816000865af19150503d8060008114613a1b576040519150601f19603f3d011682016040523d82523d6000602084013e613a20565b606091505b509150915081613a65576040517f08c379a0000000000000000000000000000000000000000000000000000000008152600401613a5c9061580f565b60405180910390fd5b600081511115613ac35780806020019051613a839190810190614aa2565b613ac2576040517f08c379a0000000000000000000000000000000000000000000000000000000008152600401613ab99061594f565b60405180910390fd5b5b50505050565b60008083118290613b10576040517f08c379a0000000000000000000000000000000000000000000000000000000008152600401613b07919061574d565b60405180910390fd5b506000838581613b1c57fe5b049050809150509392505050565b6000600860009054906101000a900473ffffffffffffffffffffffffffffffffffffffff1673ffffffffffffffffffffffffffffffffffffffff166370a08231306040518263ffffffff1660e01b8152600401613b8791906155dc565b60206040518083038186803b158015613b9f57600080fd5b505afa158015613bb3573d6000803e3d6000fd5b505050506040513d601f19601f82011682018060405250613bd79190810190614bac565b905090565b6000600c60009054906101000a900473ffffffffffffffffffffffffffffffffffffffff1673ffffffffffffffffffffffffffffffffffffffff166370a08231306040518263ffffffff1660e01b8152600401613c3991906155dc565b60206040518083038186803b158015613c5157600080fd5b505afa158015613c65573d6000803e3d6000fd5b505050506040513d601f19601f82011682018060405250613c899190810190614bac565b905090565b6000613c98614826565b600d60009054906101000a900473ffffffffffffffffffffffffffffffffffffffff1673ffffffffffffffffffffffffffffffffffffffff1663c190c2ec60405180604001604052803073ffffffffffffffffffffffffffffffffffffffff1681526020016000815250600e546040518363ffffffff1660e01b8152600401613d229291906159ef565b604080518083038186803b158015613d3957600080fd5b505afa158015613d4d573d6000803e3d6000fd5b505050506040513d601f19601f82011682018060405250613d719190810190614b5a565b9050806020015191505090565b600080613d89610d28565b90506000811115613e4257600a60009054906101000a900473ffffffffffffffffffffffffffffffffffffffff1673ffffffffffffffffffffffffffffffffffffffff166306b3efd6306040518263ffffffff1660e01b8152600401613def91906155dc565b60206040518083038186803b158015613e0757600080fd5b505afa158015613e1b573d6000803e3d6000fd5b505050506040513d601f19601f82011682018060405250613e3f9190810190614bac565b90505b8091505090565b600080613e546115df565b90506000811115613f2e57613f2b670de0b6b3a7640000613f1d600960009054906101000a900473ffffffffffffffffffffffffffffffffffffffff1673ffffffffffffffffffffffffffffffffffffffff1663182df0f56040518163ffffffff1660e01b815260040160206040518083038186803b158015613ed657600080fd5b505afa158015613eea573d6000803e3d6000fd5b505050506040513d601f19601f82011682018060405250613f0e9190810190614bac565b846130f890919063ffffffff16565b61316890919063ffffffff16565b90505b8091505090565b6000613f3f6115df565b90506000613f4b611faf565b905082811015613f90576040517f08c379a0000000000000000000000000000000000000000000000000000000008152600401613f87906158cf565b60405180910390fd5b6000613fca6001613fbc84613fae88886130f890919063ffffffff16565b61316890919063ffffffff16565b61360c90919063ffffffff16565b9050613fd5816143fd565b50505050565b600c60009054906101000a900473ffffffffffffffffffffffffffffffffffffffff1673ffffffffffffffffffffffffffffffffffffffff1663db006a75826040518263ffffffff1660e01b81526004016140369190615a18565b600060405180830381600087803b15801561405057600080fd5b505af1158015614064573d6000803e3d6000fd5b5050505050565b606060016040519080825280602002602001820160405280156140a857816020015b6140956146e0565b81526020019060019003908161408d5790505b50905060405180604001604052803073ffffffffffffffffffffffffffffffffffffffff1681526020016000815250816000815181106140e457fe5b60200260200101819052506140f7614710565b604051806080016040528060001515815260200160008081111561411757fe5b815260200160008081111561412857fe5b815260200184815250905061413b61474e565b60018160000190600181111561414d57fe5b9081600181111561415a57fe5b815250506000816020018181525050818160400181905250600e54816060018181525050308160a0019073ffffffffffffffffffffffffffffffffffffffff16908173ffffffffffffffffffffffffffffffffffffffff1681525050606060016040519080825280602002602001820160405280156141f357816020015b6141e06147ba565b8152602001906001900390816141d85790505b509050818160008151811061420457fe5b6020026020010181905250600d60009054906101000a900473ffffffffffffffffffffffffffffffffffffffff1673ffffffffffffffffffffffffffffffffffffffff1663a67a6a4585836040518363ffffffff1660e01b815260040161426c9291906156e0565b600060405180830381600087803b15801561428657600080fd5b505af115801561429a573d6000803e3d6000fd5b505050505050505050565b60006142af610d28565b905060006142bb612939565b905082811015614300576040517f08c379a00000000000000000000000000000000000000000000000000000000081526004016142f7906158cf565b60405180910390fd5b600061433a600161432c8461431e88886130f890919063ffffffff16565b61316890919063ffffffff16565b61360c90919063ffffffff16565b9050614345816145a1565b50505050565b6000600960009054906101000a900473ffffffffffffffffffffffffffffffffffffffff1673ffffffffffffffffffffffffffffffffffffffff166370a08231306040518263ffffffff1660e01b81526004016143a891906155dc565b60206040518083038186803b1580156143c057600080fd5b505afa1580156143d4573d6000803e3d6000fd5b505050506040513d601f19601f820116820180604052506143f89190810190614bac565b905090565b6000600960009054906101000a900473ffffffffffffffffffffffffffffffffffffffff1673ffffffffffffffffffffffffffffffffffffffff1663db006a75836040518263ffffffff1660e01b815260040161445a9190615a18565b602060405180830381600087803b15801561447457600080fd5b505af1158015614488573d6000803e3d6000fd5b505050506040513d601f19601f820116820180604052506144ac9190810190614bac565b146144ec576040517f08c379a00000000000000000000000000000000000000000000000000000000081526004016144e39061578f565b60405180910390fd5b50565b6000600a60009054906101000a900473ffffffffffffffffffffffffffffffffffffffff1673ffffffffffffffffffffffffffffffffffffffff166370a08231306040518263ffffffff1660e01b815260040161454c91906155dc565b60206040518083038186803b15801561456457600080fd5b505afa158015614578573d6000803e3d6000fd5b505050506040513d601f19601f8201168201806040525061459c9190810190614bac565b905090565b6000600a60009054906101000a900473ffffffffffffffffffffffffffffffffffffffff1673ffffffffffffffffffffffffffffffffffffffff16639dc29fac30846040518363ffffffff1660e01b81526004016146009291906155f7565b602060405180830381600087803b15801561461a57600080fd5b505af115801561462e573d6000803e3d6000fd5b505050506040513d601f19601f820116820180604052506146529190810190614bac565b11614692576040517f08c379a00000000000000000000000000000000000000000000000000000000081526004016146899061584f565b60405180910390fd5b50565b60008060007fc5d2460186f7233c927e7db2dcc703c0e500b653ca82273b7bfad8045d85a47060001b9050833f91506000801b82141580156146d75750808214155b92505050919050565b6040518060400160405280600073ffffffffffffffffffffffffffffffffffffffff168152602001600081525090565b604051806080016040528060001515815260200160008081111561473057fe5b815260200160008081111561474157fe5b8152602001600081525090565b6040518061010001604052806000600181111561476757fe5b81526020016000815260200161477b614842565b81526020016000815260200160008152602001600073ffffffffffffffffffffffffffffffffffffffff16815260200160008152602001606081525090565b604051806101000160405280600060018111156147d357fe5b8152602001600081526020016147e7614842565b81526020016000815260200160008152602001600073ffffffffffffffffffffffffffffffffffffffff16815260200160008152602001606081525090565b6040518060400160405280600015158152602001600081525090565b604051806080016040528060001515815260200160008081111561486257fe5b815260200160008081111561487357fe5b8152602001600081525090565b60008135905061488f81615d1e565b92915050565b6000815190506148a481615d1e565b92915050565b6000815190506148b981615d35565b92915050565b600082601f8301126148d057600080fd5b81516148e36148de82615a7b565b615a4e565b915080825260208301602083018583830111156148ff57600080fd5b61490a838284615ca6565b50505092915050565b60006040828403121561492557600080fd5b61492f6040615a4e565b9050600061493f848285016148aa565b600083015250602061495384828501614974565b60208301525092915050565b60008135905061496e81615d4c565b92915050565b60008151905061498381615d4c565b92915050565b60006020828403121561499b57600080fd5b60006149a984828501614880565b91505092915050565b6000602082840312156149c457600080fd5b60006149d284828501614895565b91505092915050565b600080604083850312156149ee57600080fd5b60006149fc85828601614880565b9250506020614a0d85828601614880565b9150509250929050565b600080600060608486031215614a2c57600080fd5b6000614a3a86828701614880565b9350506020614a4b86828701614880565b9250506040614a5c8682870161495f565b9150509250925092565b60008060408385031215614a7957600080fd5b6000614a8785828601614880565b9250506020614a988582860161495f565b9150509250929050565b600060208284031215614ab457600080fd5b6000614ac2848285016148aa565b91505092915050565b600080600080600060a08688031215614ae357600080fd5b600086015167ffffffffffffffff811115614afd57600080fd5b614b09888289016148bf565b9550506020614b1a88828901614974565b9450506040614b2b88828901614974565b9350506060614b3c88828901614974565b9250506080614b4d88828901614974565b9150509295509295909350565b600060408284031215614b6c57600080fd5b6000614b7a84828501614913565b91505092915050565b600060208284031215614b9557600080fd5b6000614ba38482850161495f565b91505092915050565b600060208284031215614bbe57600080fd5b6000614bcc84828501614974565b91505092915050565b6000614be18383615417565b905092915050565b6000614bf5838361551f565b60408301905092915050565b614c0a81615c16565b82525050565b614c1981615b67565b82525050565b614c2881615b67565b82525050565b6000614c3982615ac7565b614c438185615b18565b935083602082028501614c5585615aa7565b8060005b85811015614c915784840389528151614c728582614bd5565b9450614c7d83615afe565b925060208a01995050600181019050614c59565b50829750879550505050505092915050565b6000614cae82615ad2565b614cb88185615b29565b9350614cc383615ab7565b8060005b83811015614cf4578151614cdb8882614be9565b9750614ce683615b0b565b925050600181019050614cc7565b5085935050505092915050565b614d0a81615b79565b82525050565b614d1981615b79565b82525050565b6000614d2a82615ae8565b614d348185615b4b565b9350614d44818560208601615ca6565b80840191505092915050565b6000614d5b82615add565b614d658185615b3a565b9350614d75818560208601615ca6565b614d7e81615cd9565b840191505092915050565b614d9281615c28565b82525050565b614da181615c3a565b82525050565b614db081615c4c565b82525050565b614dbf81615c5e565b82525050565b614dce81615c70565b82525050565b6000614ddf82615af3565b614de98185615b56565b9350614df9818560208601615ca6565b614e0281615cd9565b840191505092915050565b6000614e1a602383615b56565b91507f45524332303a207472616e7366657220746f20746865207a65726f206164647260008301527f65737300000000000000000000000000000000000000000000000000000000006020830152604082019050919050565b6000614e80601983615b56565b91507f434f4d504f554e443a207769746864726177206661696c6564000000000000006000830152602082019050919050565b6000614ec0602283615b56565b91507f45524332303a20617070726f766520746f20746865207a65726f20616464726560008301527f73730000000000000000000000000000000000000000000000000000000000006020830152604082019050919050565b6000614f26601783615b56565b91507f434f4d504f554e443a20737570706c79206661696c65640000000000000000006000830152602082019050919050565b6000614f66601b83615b56565b91507f536166654d6174683a206164646974696f6e206f766572666c6f7700000000006000830152602082019050919050565b6000614fa6602083615b56565b91507f5361666545524332303a206c6f772d6c6576656c2063616c6c206661696c65646000830152602082019050919050565b6000614fe6602183615b56565b91507f536166654d6174683a206d756c7469706c69636174696f6e206f766572666c6f60008301527f77000000000000000000000000000000000000000000000000000000000000006020830152604082019050919050565b600061504c601883615b56565b91507f46554c4352554d3a207769746864726177206661696c656400000000000000006000830152602082019050919050565b600061508c601483615b56565b91507f696e73756666696369656e742062616c616e63650000000000000000000000006000830152602082019050919050565b60006150cc601f83615b56565b91507f7769746864726177206d7573742062652067726561746572207468616e2030006000830152602082019050919050565b600061510c602583615b56565b91507f45524332303a207472616e736665722066726f6d20746865207a65726f20616460008301527f64726573730000000000000000000000000000000000000000000000000000006020830152604082019050919050565b6000615172601283615b56565b91507f696e73756666696369656e742066756e647300000000000000000000000000006000830152602082019050919050565b60006151b2602483615b56565b91507f45524332303a20617070726f76652066726f6d20746865207a65726f2061646460008301527f72657373000000000000000000000000000000000000000000000000000000006020830152604082019050919050565b6000615218601e83615b56565b91507f6465706f736974206d7573742062652067726561746572207468616e203000006000830152602082019050919050565b6000615258601683615b56565b91507f46554c4352554d3a20737570706c79206661696c6564000000000000000000006000830152602082019050919050565b6000615298602a83615b56565b91507f5361666545524332303a204552433230206f7065726174696f6e20646964206e60008301527f6f742073756363656564000000000000000000000000000000000000000000006020830152604082019050919050565b60006152fe601f83615b56565b91507f5265656e7472616e637947756172643a207265656e7472616e742063616c6c006000830152602082019050919050565b600061533e603683615b56565b91507f5361666545524332303a20617070726f76652066726f6d206e6f6e2d7a65726f60008301527f20746f206e6f6e2d7a65726f20616c6c6f77616e6365000000000000000000006020830152604082019050919050565b60006153a4601f83615b56565b91507f5361666545524332303a2063616c6c20746f206e6f6e2d636f6e7472616374006000830152602082019050919050565b60006153e4601f83615b56565b91507f45524332303a206d696e7420746f20746865207a65726f2061646472657373006000830152602082019050919050565b6000610160830160008301516154306000860182614d89565b506020830151615443602086018261557d565b50604083015161545660408601826154ca565b50606083015161546960c086018261557d565b50608083015161547c60e086018261557d565b5060a0830151615490610100860182614c10565b5060c08301516154a461012086018261557d565b5060e08301518482036101408601526154bd8282614d50565b9150508091505092915050565b6080820160008201516154e06000850182614d01565b5060208201516154f36020850182614d98565b5060408201516155066040850182614da7565b506060820151615519606085018261557d565b50505050565b6040820160008201516155356000850182614c10565b506020820151615548602085018261557d565b50505050565b6040820160008201516155646000850182614c10565b506020820151615577602085018261557d565b50505050565b61558681615bff565b82525050565b61559581615bff565b82525050565b6155a481615c09565b82525050565b60006155b68284614d1f565b915081905092915050565b60006020820190506155d66000830184614c1f565b92915050565b60006020820190506155f16000830184614c01565b92915050565b600060408201905061560c6000830185614c01565b615619602083018461558c565b9392505050565b60006040820190506156356000830185614c1f565b6156426020830184614c1f565b9392505050565b600060608201905061565e6000830186614c1f565b61566b6020830185614c1f565b615678604083018461558c565b949350505050565b60006040820190506156956000830185614c1f565b6156a2602083018461558c565b9392505050565b60006060820190506156be6000830186614c1f565b6156cb602083018561558c565b6156d86040830184614dc5565b949350505050565b600060408201905081810360008301526156fa8185614ca3565b9050818103602083015261570e8184614c2e565b90509392505050565b600060208201905061572c6000830184614d10565b92915050565b60006020820190506157476000830184614db6565b92915050565b600060208201905081810360008301526157678184614dd4565b905092915050565b6000602082019050818103600083015261578881614e0d565b9050919050565b600060208201905081810360008301526157a881614e73565b9050919050565b600060208201905081810360008301526157c881614eb3565b9050919050565b600060208201905081810360008301526157e881614f19565b9050919050565b6000602082019050818103600083015261580881614f59565b9050919050565b6000602082019050818103600083015261582881614f99565b9050919050565b6000602082019050818103600083015261584881614fd9565b9050919050565b600060208201905081810360008301526158688161503f565b9050919050565b600060208201905081810360008301526158888161507f565b9050919050565b600060208201905081810360008301526158a8816150bf565b9050919050565b600060208201905081810360008301526158c8816150ff565b9050919050565b600060208201905081810360008301526158e881615165565b9050919050565b60006020820190508181036000830152615908816151a5565b9050919050565b600060208201905081810360008301526159288161520b565b9050919050565b600060208201905081810360008301526159488161524b565b9050919050565b600060208201905081810360008301526159688161528b565b9050919050565b60006020820190508181036000830152615988816152f1565b9050919050565b600060208201905081810360008301526159a881615331565b9050919050565b600060208201905081810360008301526159c881615397565b9050919050565b600060208201905081810360008301526159e8816153d7565b9050919050565b6000606082019050615a04600083018561554e565b615a11604083018461558c565b9392505050565b6000602082019050615a2d600083018461558c565b92915050565b6000602082019050615a48600083018461559b565b92915050565b6000604051905081810181811067ffffffffffffffff82111715615a7157600080fd5b8060405250919050565b600067ffffffffffffffff821115615a9257600080fd5b601f19601f8301169050602081019050919050565b6000819050602082019050919050565b6000819050602082019050919050565b600081519050919050565b600081519050919050565b600081519050919050565b600081519050919050565b600081519050919050565b6000602082019050919050565b6000602082019050919050565b600082825260208201905092915050565b600082825260208201905092915050565b600082825260208201905092915050565b600081905092915050565b600082825260208201905092915050565b6000615b7282615bdf565b9050919050565b60008115159050919050565b6000819050615b9382615cea565b919050565b6000819050615ba682615cf7565b919050565b6000819050615bb982615d04565b919050565b6000819050615bcc82615d11565b919050565b600061ffff82169050919050565b600073ffffffffffffffffffffffffffffffffffffffff82169050919050565b6000819050919050565b600060ff82169050919050565b6000615c2182615c82565b9050919050565b6000615c3382615b85565b9050919050565b6000615c4582615b98565b9050919050565b6000615c5782615bab565b9050919050565b6000615c6982615bbe565b9050919050565b6000615c7b82615bd1565b9050919050565b6000615c8d82615c94565b9050919050565b6000615c9f82615bdf565b9050919050565b60005b83811015615cc4578082015181840152602081019050615ca9565b83811115615cd3576000848401525b50505050565b6000601f19601f8301169050919050565b60028110615cf457fe5b50565b60018110615d0157fe5b50565b60018110615d0e57fe5b50565b60058110615d1b57fe5b50565b615d2781615b67565b8114615d3257600080fd5b50565b615d3e81615b79565b8114615d4957600080fd5b50565b615d5581615bff565b8114615d6057600080fd5b5056fe45524332303a207472616e7366657220616d6f756e7420657863656564732062616c616e636545524332303a207472616e7366657220616d6f756e74206578636565647320616c6c6f77616e636545524332303a2064656372656173656420616c6c6f77616e63652062656c6f77207a65726fa365627a7a723158203645661415e214ad5e5e77cc9ef207ed4594eb77c6dc129d4145cdbe1b464afb6c6578706572696d656e74616cf564736f6c634300050c0040",
  "source": "pragma solidity ^0.5.0;\npragma experimental ABIEncoderV2;\n\ninterface IERC20 {\n    function totalSupply() external view returns (uint256);\n    function balanceOf(address account) external view returns (uint256);\n    function transfer(address recipient, uint256 amount) external returns (bool);\n    function allowance(address owner, address spender) external view returns (uint256);\n    function approve(address spender, uint256 amount) external returns (bool);\n    function transferFrom(address sender, address recipient, uint256 amount) external returns (bool);\n    event Transfer(address indexed from, address indexed to, uint256 value);\n    event Approval(address indexed owner, address indexed spender, uint256 value);\n}\n\ncontract Context {\n    constructor () internal { }\n    // solhint-disable-previous-line no-empty-blocks\n\n    function _msgSender() internal view returns (address payable) {\n        return msg.sender;\n    }\n\n    function _msgData() internal view returns (bytes memory) {\n        this; // silence state mutability warning without generating bytecode - see https://github.com/ethereum/solidity/issues/2691\n        return msg.data;\n    }\n}\n\ncontract ERC20 is Context, IERC20 {\n    using SafeMath for uint256;\n\n    mapping (address => uint256) _balances;\n\n    mapping (address => mapping (address => uint256)) private _allowances;\n\n    uint256 _totalSupply;\n    function totalSupply() public view returns (uint256) {\n        return _totalSupply;\n    }\n    function balanceOf(address account) public view returns (uint256) {\n        return _balances[account];\n    }\n    function transfer(address recipient, uint256 amount) public returns (bool) {\n        _transfer(_msgSender(), recipient, amount);\n        return true;\n    }\n    function allowance(address owner, address spender) public view returns (uint256) {\n        return _allowances[owner][spender];\n    }\n    function approve(address spender, uint256 amount) public returns (bool) {\n        _approve(_msgSender(), spender, amount);\n        return true;\n    }\n    function transferFrom(address sender, address recipient, uint256 amount) public returns (bool) {\n        _transfer(sender, recipient, amount);\n        _approve(sender, _msgSender(), _allowances[sender][_msgSender()].sub(amount, \"ERC20: transfer amount exceeds allowance\"));\n        return true;\n    }\n    function increaseAllowance(address spender, uint256 addedValue) public returns (bool) {\n        _approve(_msgSender(), spender, _allowances[_msgSender()][spender].add(addedValue));\n        return true;\n    }\n    function decreaseAllowance(address spender, uint256 subtractedValue) public returns (bool) {\n        _approve(_msgSender(), spender, _allowances[_msgSender()][spender].sub(subtractedValue, \"ERC20: decreased allowance below zero\"));\n        return true;\n    }\n    function _transfer(address sender, address recipient, uint256 amount) internal {\n        require(sender != address(0), \"ERC20: transfer from the zero address\");\n        require(recipient != address(0), \"ERC20: transfer to the zero address\");\n\n        _balances[sender] = _balances[sender].sub(amount, \"ERC20: transfer amount exceeds balance\");\n        _balances[recipient] = _balances[recipient].add(amount);\n        emit Transfer(sender, recipient, amount);\n    }\n    function _mint(address account, uint256 amount) internal {\n        require(account != address(0), \"ERC20: mint to the zero address\");\n\n        _totalSupply = _totalSupply.add(amount);\n        _balances[account] = _balances[account].add(amount);\n        emit Transfer(address(0), account, amount);\n    }\n    function _burn(address account, uint256 amount) internal {\n        require(account != address(0), \"ERC20: burn from the zero address\");\n\n        _balances[account] = _balances[account].sub(amount, \"ERC20: burn amount exceeds balance\");\n        _totalSupply = _totalSupply.sub(amount);\n        emit Transfer(account, address(0), amount);\n    }\n    function _approve(address owner, address spender, uint256 amount) internal {\n        require(owner != address(0), \"ERC20: approve from the zero address\");\n        require(spender != address(0), \"ERC20: approve to the zero address\");\n\n        _allowances[owner][spender] = amount;\n        emit Approval(owner, spender, amount);\n    }\n    function _burnFrom(address account, uint256 amount) internal {\n        _burn(account, amount);\n        _approve(account, _msgSender(), _allowances[account][_msgSender()].sub(amount, \"ERC20: burn amount exceeds allowance\"));\n    }\n}\n\ncontract ERC20Detailed is IERC20 {\n    string private _name;\n    string private _symbol;\n    uint8 private _decimals;\n\n    constructor (string memory name, string memory symbol, uint8 decimals) public {\n        _name = name;\n        _symbol = symbol;\n        _decimals = decimals;\n    }\n    function name() public view returns (string memory) {\n        return _name;\n    }\n    function symbol() public view returns (string memory) {\n        return _symbol;\n    }\n    function decimals() public view returns (uint8) {\n        return _decimals;\n    }\n}\n\ncontract ReentrancyGuard {\n    uint256 private _guardCounter;\n\n    constructor () internal {\n        _guardCounter = 1;\n    }\n\n    modifier nonReentrant() {\n        _guardCounter += 1;\n        uint256 localCounter = _guardCounter;\n        _;\n        require(localCounter == _guardCounter, \"ReentrancyGuard: reentrant call\");\n    }\n}\n\nlibrary SafeMath {\n    function add(uint256 a, uint256 b) internal pure returns (uint256) {\n        uint256 c = a + b;\n        require(c >= a, \"SafeMath: addition overflow\");\n\n        return c;\n    }\n    function sub(uint256 a, uint256 b) internal pure returns (uint256) {\n        return sub(a, b, \"SafeMath: subtraction overflow\");\n    }\n    function sub(uint256 a, uint256 b, string memory errorMessage) internal pure returns (uint256) {\n        require(b <= a, errorMessage);\n        uint256 c = a - b;\n\n        return c;\n    }\n    function mul(uint256 a, uint256 b) internal pure returns (uint256) {\n        if (a == 0) {\n            return 0;\n        }\n\n        uint256 c = a * b;\n        require(c / a == b, \"SafeMath: multiplication overflow\");\n\n        return c;\n    }\n    function div(uint256 a, uint256 b) internal pure returns (uint256) {\n        return div(a, b, \"SafeMath: division by zero\");\n    }\n    function div(uint256 a, uint256 b, string memory errorMessage) internal pure returns (uint256) {\n        // Solidity only automatically asserts when dividing by 0\n        require(b > 0, errorMessage);\n        uint256 c = a / b;\n\n        return c;\n    }\n    function mod(uint256 a, uint256 b) internal pure returns (uint256) {\n        return mod(a, b, \"SafeMath: modulo by zero\");\n    }\n    function mod(uint256 a, uint256 b, string memory errorMessage) internal pure returns (uint256) {\n        require(b != 0, errorMessage);\n        return a % b;\n    }\n}\n\nlibrary Address {\n    function isContract(address account) internal view returns (bool) {\n        bytes32 codehash;\n        bytes32 accountHash = 0xc5d2460186f7233c927e7db2dcc703c0e500b653ca82273b7bfad8045d85a470;\n        // solhint-disable-next-line no-inline-assembly\n        assembly { codehash := extcodehash(account) }\n        return (codehash != 0x0 && codehash != accountHash);\n    }\n    function toPayable(address account) internal pure returns (address payable) {\n        return address(uint160(account));\n    }\n    function sendValue(address payable recipient, uint256 amount) internal {\n        require(address(this).balance >= amount, \"Address: insufficient balance\");\n\n        // solhint-disable-next-line avoid-call-value\n        (bool success, ) = recipient.call.value(amount)(\"\");\n        require(success, \"Address: unable to send value, recipient may have reverted\");\n    }\n}\n\nlibrary SafeERC20 {\n    using SafeMath for uint256;\n    using Address for address;\n\n    function safeTransfer(IERC20 token, address to, uint256 value) internal {\n        callOptionalReturn(token, abi.encodeWithSelector(token.transfer.selector, to, value));\n    }\n\n    function safeTransferFrom(IERC20 token, address from, address to, uint256 value) internal {\n        callOptionalReturn(token, abi.encodeWithSelector(token.transferFrom.selector, from, to, value));\n    }\n\n    function safeApprove(IERC20 token, address spender, uint256 value) internal {\n        require((value == 0) || (token.allowance(address(this), spender) == 0),\n            \"SafeERC20: approve from non-zero to non-zero allowance\"\n        );\n        callOptionalReturn(token, abi.encodeWithSelector(token.approve.selector, spender, value));\n    }\n\n    function safeIncreaseAllowance(IERC20 token, address spender, uint256 value) internal {\n        uint256 newAllowance = token.allowance(address(this), spender).add(value);\n        callOptionalReturn(token, abi.encodeWithSelector(token.approve.selector, spender, newAllowance));\n    }\n\n    function safeDecreaseAllowance(IERC20 token, address spender, uint256 value) internal {\n        uint256 newAllowance = token.allowance(address(this), spender).sub(value, \"SafeERC20: decreased allowance below zero\");\n        callOptionalReturn(token, abi.encodeWithSelector(token.approve.selector, spender, newAllowance));\n    }\n    function callOptionalReturn(IERC20 token, bytes memory data) private {\n        require(address(token).isContract(), \"SafeERC20: call to non-contract\");\n\n        // solhint-disable-next-line avoid-low-level-calls\n        (bool success, bytes memory returndata) = address(token).call(data);\n        require(success, \"SafeERC20: low-level call failed\");\n\n        if (returndata.length > 0) { // Return data is optional\n            // solhint-disable-next-line max-line-length\n            require(abi.decode(returndata, (bool)), \"SafeERC20: ERC20 operation did not succeed\");\n        }\n    }\n}\n\ninterface Compound {\n    function mint ( uint256 mintAmount ) external returns ( uint256 );\n    function redeem(uint256 redeemTokens) external returns (uint256);\n    function exchangeRateStored() external view returns (uint);\n}\n\ninterface Fulcrum {\n    function mint(address receiver, uint256 amount) external payable returns (uint256 mintAmount);\n    function burn(address receiver, uint256 burnAmount) external returns (uint256 loanAmountPaid);\n    function assetBalanceOf(address _owner) external view returns (uint256 balance);\n}\n\ninterface ILendingPoolAddressesProvider {\n    function getLendingPool() external view returns (address);\n}\n\ninterface Aave {\n    function deposit(address _reserve, uint256 _amount, uint16 _referralCode) external;\n}\n\ninterface AToken {\n    function redeem(uint256 amount) external;\n}\n\ninterface IIEarnManager {\n    function recommend(address _token) external view returns (\n      string memory choice,\n      uint256 capr,\n      uint256 iapr,\n      uint256 aapr,\n      uint256 dapr\n    );\n}\n\ncontract Structs {\n    struct Val {\n        uint256 value;\n    }\n\n    enum ActionType {\n        Deposit,   // supply tokens\n        Withdraw  // borrow tokens\n    }\n\n    enum AssetDenomination {\n        Wei // the amount is denominated in wei\n    }\n\n    enum AssetReference {\n        Delta // the amount is given as a delta from the current value\n    }\n\n    struct AssetAmount {\n        bool sign; // true if positive\n        AssetDenomination denomination;\n        AssetReference ref;\n        uint256 value;\n    }\n\n    struct ActionArgs {\n        ActionType actionType;\n        uint256 accountId;\n        AssetAmount amount;\n        uint256 primaryMarketId;\n        uint256 secondaryMarketId;\n        address otherAddress;\n        uint256 otherAccountId;\n        bytes data;\n    }\n\n    struct Info {\n        address owner;  // The address that owns the account\n        uint256 number; // A nonce that allows a single address to control many accounts\n    }\n\n    struct Wei {\n        bool sign; // true if positive\n        uint256 value;\n    }\n}\n\ncontract DyDx is Structs {\n    function getAccountWei(Info memory account, uint256 marketId) public view returns (Wei memory);\n    function operate(Info[] memory, ActionArgs[] memory) public;\n}\n\ninterface LendingPoolAddressesProvider {\n    function getLendingPool() external view returns (address);\n    function getLendingPoolCore() external view returns (address);\n}\n\ncontract yDAI is ERC20, ERC20Detailed, ReentrancyGuard, Structs {\n  using SafeERC20 for IERC20;\n  using Address for address;\n  using SafeMath for uint256;\n\n  uint256 public pool;\n  address public token;\n  address public compound;\n  address public fulcrum;\n  address public aave;\n  address public aaveToken;\n  address public dydx;\n  uint256 public dToken;\n  address public apr;\n\n  enum Lender {\n      NONE,\n      DYDX,\n      COMPOUND,\n      AAVE,\n      FULCRUM\n  }\n\n  Lender public provider = Lender.NONE;\n\n  constructor () public ERC20Detailed(\"iearn DAI\", \"yDAI\", 18) {\n    token = address(0x6B175474E89094C44Da98b954EedeAC495271d0F);\n    apr = address(0xdD6d648C991f7d47454354f4Ef326b04025a48A8);\n    dydx = address(0x1E0447b19BB6EcFdAe1e4AE1694b0C3659614e4e);\n    aave = address(0x24a42fD28C976A61Df5D00D0599C34c4f90748c8);\n    fulcrum = address(0x493C57C4763932315A328269E1ADaD09653B9081);\n    aaveToken = address(0xfC1E690f61EFd961294b3e1Ce3313fBD8aa4f85d);\n    compound = address(0x5d3a536E4D6DbD6114cc1Ead35777bAB948E3643);\n    dToken = 3;\n    approveToken();\n  }\n\n  // Quick swap low gas method for pool swaps\n  function deposit(uint256 _amount)\n      external\n      nonReentrant\n  {\n      require(_amount > 0, \"deposit must be greater than 0\");\n      pool = _calcPoolValueInToken();\n\n      IERC20(token).safeTransferFrom(msg.sender, address(this), _amount);\n\n      // Calculate pool shares\n      uint256 shares = 0;\n      if (pool == 0) {\n        shares = _amount;\n        pool = _amount;\n      } else {\n        shares = (_amount.mul(_totalSupply)).div(pool);\n      }\n      pool = _calcPoolValueInToken();\n      _mint(msg.sender, shares);\n  }\n\n  // No rebalance implementation for lower fees and faster swaps\n  function withdraw(uint256 _shares)\n      external\n      nonReentrant\n  {\n      require(_shares > 0, \"withdraw must be greater than 0\");\n\n      uint256 ibalance = balanceOf(msg.sender);\n      require(_shares <= ibalance, \"insufficient balance\");\n\n      // Could have over value from cTokens\n      pool = _calcPoolValueInToken();\n      // Calc to redeem before updating balances\n      uint256 r = (pool.mul(_shares)).div(_totalSupply);\n\n\n      _balances[msg.sender] = _balances[msg.sender].sub(_shares, \"redeem amount exceeds balance\");\n      _totalSupply = _totalSupply.sub(_shares);\n\n      emit Transfer(msg.sender, address(0), _shares);\n\n      // Check balance\n      uint256 b = IERC20(token).balanceOf(address(this));\n      if (b < r) {\n        _withdrawSome(r.sub(b));\n      }\n\n      IERC20(token).safeTransfer(msg.sender, r);\n      pool = _calcPoolValueInToken();\n  }\n\n  function() external payable {\n\n  }\n\n  function recommend() public view returns (Lender) {\n    (,uint256 capr,uint256 iapr,uint256 aapr,uint256 dapr) = IIEarnManager(apr).recommend(token);\n    uint256 max = 0;\n    if (capr > max) {\n      max = capr;\n    }\n    if (iapr > max) {\n      max = iapr;\n    }\n    if (aapr > max) {\n      max = aapr;\n    }\n    if (dapr > max) {\n      max = dapr;\n    }\n\n    Lender newProvider = Lender.NONE;\n    if (max == capr) {\n      newProvider = Lender.COMPOUND;\n    } else if (max == iapr) {\n      newProvider = Lender.FULCRUM;\n    } else if (max == aapr) {\n      newProvider = Lender.AAVE;\n    } else if (max == dapr) {\n      newProvider = Lender.DYDX;\n    }\n    return newProvider;\n  }\n\n  function supplyDydx(uint256 amount) public returns(uint) {\n      Info[] memory infos = new Info[](1);\n      infos[0] = Info(address(this), 0);\n\n      AssetAmount memory amt = AssetAmount(true, AssetDenomination.Wei, AssetReference.Delta, amount);\n      ActionArgs memory act;\n      act.actionType = ActionType.Deposit;\n      act.accountId = 0;\n      act.amount = amt;\n      act.primaryMarketId = dToken;\n      act.otherAddress = address(this);\n\n      ActionArgs[] memory args = new ActionArgs[](1);\n      args[0] = act;\n\n      DyDx(dydx).operate(infos, args);\n  }\n\n  function _withdrawDydx(uint256 amount) internal {\n      Info[] memory infos = new Info[](1);\n      infos[0] = Info(address(this), 0);\n\n      AssetAmount memory amt = AssetAmount(false, AssetDenomination.Wei, AssetReference.Delta, amount);\n      ActionArgs memory act;\n      act.actionType = ActionType.Withdraw;\n      act.accountId = 0;\n      act.amount = amt;\n      act.primaryMarketId = dToken;\n      act.otherAddress = address(this);\n\n      ActionArgs[] memory args = new ActionArgs[](1);\n      args[0] = act;\n\n      DyDx(dydx).operate(infos, args);\n  }\n\n  function getAave() public view returns (address) {\n    return LendingPoolAddressesProvider(aave).getLendingPool();\n  }\n  function getAaveCore() public view returns (address) {\n    return LendingPoolAddressesProvider(aave).getLendingPoolCore();\n  }\n\n  function approveToken() public {\n      IERC20(token).safeApprove(compound, uint(-1)); //also add to constructor\n      IERC20(token).safeApprove(dydx, uint(-1));\n      IERC20(token).safeApprove(getAaveCore(), uint(-1));\n      IERC20(token).safeApprove(fulcrum, uint(-1));\n  }\n\n  function balance() public view returns (uint256) {\n    return IERC20(token).balanceOf(address(this));\n  }\n\n  function balanceDydx() public view returns (uint256) {\n      Wei memory bal = DyDx(dydx).getAccountWei(Info(address(this), 0), dToken);\n      return bal.value;\n  }\n  function balanceCompound() public view returns (uint256) {\n      return IERC20(compound).balanceOf(address(this));\n  }\n  function balanceCompoundInToken() public view returns (uint256) {\n    // Mantisa 1e18 to decimals\n    uint256 b = balanceCompound();\n    if (b > 0) {\n      b = b.mul(Compound(compound).exchangeRateStored()).div(1e18);\n    }\n    return b;\n  }\n  function balanceFulcrumInToken() public view returns (uint256) {\n    uint256 b = balanceFulcrum();\n    if (b > 0) {\n      b = Fulcrum(fulcrum).assetBalanceOf(address(this));\n    }\n    return b;\n  }\n  function balanceFulcrum() public view returns (uint256) {\n    return IERC20(fulcrum).balanceOf(address(this));\n  }\n  function balanceAave() public view returns (uint256) {\n    return IERC20(aaveToken).balanceOf(address(this));\n  }\n\n  function _balance() internal view returns (uint256) {\n    return IERC20(token).balanceOf(address(this));\n  }\n\n  function _balanceDydx() internal view returns (uint256) {\n      Wei memory bal = DyDx(dydx).getAccountWei(Info(address(this), 0), dToken);\n      return bal.value;\n  }\n  function _balanceCompound() internal view returns (uint256) {\n      return IERC20(compound).balanceOf(address(this));\n  }\n  function _balanceCompoundInToken() internal view returns (uint256) {\n    // Mantisa 1e18 to decimals\n    uint256 b = balanceCompound();\n    if (b > 0) {\n      b = b.mul(Compound(compound).exchangeRateStored()).div(1e18);\n    }\n    return b;\n  }\n  function _balanceFulcrumInToken() internal view returns (uint256) {\n    uint256 b = balanceFulcrum();\n    if (b > 0) {\n      b = Fulcrum(fulcrum).assetBalanceOf(address(this));\n    }\n    return b;\n  }\n  function _balanceFulcrum() internal view returns (uint256) {\n    return IERC20(fulcrum).balanceOf(address(this));\n  }\n  function _balanceAave() internal view returns (uint256) {\n    return IERC20(aaveToken).balanceOf(address(this));\n  }\n\n  function _withdrawAll() internal {\n    uint256 amount = _balanceCompound();\n    if (amount > 0) {\n      _withdrawCompound(amount);\n    }\n    amount = _balanceDydx();\n    if (amount > 0) {\n      _withdrawDydx(amount);\n    }\n    amount = _balanceFulcrum();\n    if (amount > 0) {\n      _withdrawFulcrum(amount);\n    }\n    amount = _balanceAave();\n    if (amount > 0) {\n      _withdrawAave(amount);\n    }\n  }\n\n  function _withdrawSomeCompound(uint256 _amount) internal {\n    uint256 b = balanceCompound();\n    uint256 bT = balanceCompoundInToken();\n    require(bT >= _amount, \"insufficient funds\");\n    // can have unintentional rounding errors\n    uint256 amount = (b.mul(_amount)).div(bT).add(1);\n    _withdrawCompound(amount);\n  }\n\n  // 1999999614570950845\n  function _withdrawSomeFulcrum(uint256 _amount) internal {\n    // Balance of fulcrum tokens, 1 iDAI = 1.00x DAI\n    uint256 b = balanceFulcrum(); // 1970469086655766652\n    // Balance of token in fulcrum\n    uint256 bT = balanceFulcrumInToken(); // 2000000803224344406\n    require(bT >= _amount, \"insufficient funds\");\n    // can have unintentional rounding errors\n    uint256 amount = (b.mul(_amount)).div(bT).add(1);\n    _withdrawFulcrum(amount);\n  }\n\n  function _withdrawSome(uint256 _amount) internal {\n    if (provider == Lender.COMPOUND) {\n      _withdrawSomeCompound(_amount);\n    }\n    if (provider == Lender.AAVE) {\n      require(balanceAave() >= _amount, \"insufficient funds\");\n      _withdrawAave(_amount);\n    }\n    if (provider == Lender.DYDX) {\n      require(balanceDydx() >= _amount, \"insufficient funds\");\n      _withdrawDydx(_amount);\n    }\n    if (provider == Lender.FULCRUM) {\n      _withdrawSomeFulcrum(_amount);\n    }\n  }\n\n  function rebalance() public {\n    Lender newProvider = recommend();\n\n    if (newProvider != provider) {\n      _withdrawAll();\n    }\n\n    if (balance() > 0) {\n      if (newProvider == Lender.DYDX) {\n        supplyDydx(balance());\n      } else if (newProvider == Lender.FULCRUM) {\n        supplyFulcrum(balance());\n      } else if (newProvider == Lender.COMPOUND) {\n        supplyCompound(balance());\n      } else if (newProvider == Lender.AAVE) {\n        supplyAave(balance());\n      }\n    }\n\n    provider = newProvider;\n  }\n\n  // Internal only rebalance for better gas in redeem\n  function _rebalance(Lender newProvider) internal {\n    if (_balance() > 0) {\n      if (newProvider == Lender.DYDX) {\n        supplyDydx(_balance());\n      } else if (newProvider == Lender.FULCRUM) {\n        supplyFulcrum(_balance());\n      } else if (newProvider == Lender.COMPOUND) {\n        supplyCompound(_balance());\n      } else if (newProvider == Lender.AAVE) {\n        supplyAave(_balance());\n      }\n    }\n    provider = newProvider;\n  }\n\n  function supplyAave(uint amount) public {\n      Aave(getAave()).deposit(token, amount, 0);\n  }\n  function supplyFulcrum(uint amount) public {\n      require(Fulcrum(fulcrum).mint(address(this), amount) > 0, \"FULCRUM: supply failed\");\n  }\n  function supplyCompound(uint amount) public {\n      require(Compound(compound).mint(amount) == 0, \"COMPOUND: supply failed\");\n  }\n  function _withdrawAave(uint amount) internal {\n      AToken(aaveToken).redeem(amount);\n  }\n  function _withdrawFulcrum(uint amount) internal {\n      require(Fulcrum(fulcrum).burn(address(this), amount) > 0, \"FULCRUM: withdraw failed\");\n  }\n  function _withdrawCompound(uint amount) internal {\n      require(Compound(compound).redeem(amount) == 0, \"COMPOUND: withdraw failed\");\n  }\n\n  function invest(uint256 _amount)\n      external\n      nonReentrant\n  {\n      require(_amount > 0, \"deposit must be greater than 0\");\n      pool = calcPoolValueInToken();\n\n      IERC20(token).safeTransferFrom(msg.sender, address(this), _amount);\n\n      rebalance();\n\n      // Calculate pool shares\n      uint256 shares = 0;\n      if (pool == 0) {\n        shares = _amount;\n        pool = _amount;\n      } else {\n        shares = (_amount.mul(_totalSupply)).div(pool);\n      }\n      pool = calcPoolValueInToken();\n      _mint(msg.sender, shares);\n  }\n\n  function _calcPoolValueInToken() internal view returns (uint) {\n    return _balanceCompoundInToken()\n      .add(_balanceFulcrumInToken())\n      .add(_balanceDydx())\n      .add(_balanceAave())\n      .add(_balance());\n  }\n\n  function calcPoolValueInToken() public view returns (uint) {\n    return balanceCompoundInToken()\n      .add(balanceFulcrumInToken())\n      .add(balanceDydx())\n      .add(balanceAave())\n      .add(balance());\n  }\n\n  function getPricePerFullShare() public view returns (uint) {\n    uint _pool = calcPoolValueInToken();\n    return _pool.mul(1e18).div(_totalSupply);\n  }\n\n  // Redeem any invested tokens from the pool\n  function redeem(uint256 _shares)\n      external\n      nonReentrant\n  {\n      require(_shares > 0, \"withdraw must be greater than 0\");\n\n      uint256 ibalance = balanceOf(msg.sender);\n      require(_shares <= ibalance, \"insufficient balance\");\n\n      // Could have over value from cTokens\n      pool = calcPoolValueInToken();\n      // Calc to redeem before updating balances\n      uint256 r = (pool.mul(_shares)).div(_totalSupply);\n\n\n      _balances[msg.sender] = _balances[msg.sender].sub(_shares, \"redeem amount exceeds balance\");\n      _totalSupply = _totalSupply.sub(_shares);\n\n      emit Transfer(msg.sender, address(0), _shares);\n\n      // Check ETH balance\n      uint256 b = IERC20(token).balanceOf(address(this));\n      Lender newProvider = provider;\n      if (b < r) {\n        newProvider = recommend();\n        if (newProvider != provider) {\n          _withdrawAll();\n        } else {\n          _withdrawSome(r.sub(b));\n        }\n      }\n\n      IERC20(token).safeTransfer(msg.sender, r);\n\n      if (newProvider != provider) {\n        _rebalance(newProvider);\n      }\n      pool = calcPoolValueInToken();\n  }\n}\n",
  "sourcePath": "D:/ftm/itoken/contracts/YDAIv2.sol",
  "compiler": {
    "name": "solc",
    "version": "0.5.12+commit.7709ece9.Emscripten.clang"
  },
  "schemaVersion": "3.0.19",
  "updatedAt": "2020-03-02T05:09:08.459Z",
  "devdoc": {
    "methods": {}
  },
  "userdoc": {
    "methods": {}
  }
}