{
  "contractName": "yUSDC",
  "abi": [
    {
      "inputs": [],
      "payable": false,
      "stateMutability": "nonpayable",
      "type": "constructor"
    },
    {
      "anonymous": false,
      "inputs": [
        {
          "indexed": true,
          "internalType": "address",
          "name": "owner",
          "type": "address"
        },
        {
          "indexed": true,
          "internalType": "address",
          "name": "spender",
          "type": "address"
        },
        {
          "indexed": false,
          "internalType": "uint256",
          "name": "value",
          "type": "uint256"
        }
      ],
      "name": "Approval",
      "type": "event"
    },
    {
      "anonymous": false,
      "inputs": [
        {
          "indexed": true,
          "internalType": "address",
          "name": "previousOwner",
          "type": "address"
        },
        {
          "indexed": true,
          "internalType": "address",
          "name": "newOwner",
          "type": "address"
        }
      ],
      "name": "OwnershipTransferred",
      "type": "event"
    },
    {
      "anonymous": false,
      "inputs": [
        {
          "indexed": true,
          "internalType": "address",
          "name": "from",
          "type": "address"
        },
        {
          "indexed": true,
          "internalType": "address",
          "name": "to",
          "type": "address"
        },
        {
          "indexed": false,
          "internalType": "uint256",
          "name": "value",
          "type": "uint256"
        }
      ],
      "name": "Transfer",
      "type": "event"
    },
    {
      "constant": true,
      "inputs": [],
      "name": "aave",
      "outputs": [
        {
          "internalType": "address",
          "name": "",
          "type": "address"
        }
      ],
      "payable": false,
      "stateMutability": "view",
      "type": "function"
    },
    {
      "constant": true,
      "inputs": [],
      "name": "aavePool",
      "outputs": [
        {
          "internalType": "address",
          "name": "",
          "type": "address"
        }
      ],
      "payable": false,
      "stateMutability": "view",
      "type": "function"
    },
    {
      "constant": true,
      "inputs": [],
      "name": "aaveToken",
      "outputs": [
        {
          "internalType": "address",
          "name": "",
          "type": "address"
        }
      ],
      "payable": false,
      "stateMutability": "view",
      "type": "function"
    },
    {
      "constant": true,
      "inputs": [
        {
          "internalType": "address",
          "name": "owner",
          "type": "address"
        },
        {
          "internalType": "address",
          "name": "spender",
          "type": "address"
        }
      ],
      "name": "allowance",
      "outputs": [
        {
          "internalType": "uint256",
          "name": "",
          "type": "uint256"
        }
      ],
      "payable": false,
      "stateMutability": "view",
      "type": "function"
    },
    {
      "constant": false,
      "inputs": [
        {
          "internalType": "address",
          "name": "spender",
          "type": "address"
        },
        {
          "internalType": "uint256",
          "name": "amount",
          "type": "uint256"
        }
      ],
      "name": "approve",
      "outputs": [
        {
          "internalType": "bool",
          "name": "",
          "type": "bool"
        }
      ],
      "payable": false,
      "stateMutability": "nonpayable",
      "type": "function"
    },
    {
      "constant": true,
      "inputs": [],
      "name": "apr",
      "outputs": [
        {
          "internalType": "address",
          "name": "",
          "type": "address"
        }
      ],
      "payable": false,
      "stateMutability": "view",
      "type": "function"
    },
    {
      "constant": true,
      "inputs": [
        {
          "internalType": "address",
          "name": "account",
          "type": "address"
        }
      ],
      "name": "balanceOf",
      "outputs": [
        {
          "internalType": "uint256",
          "name": "",
          "type": "uint256"
        }
      ],
      "payable": false,
      "stateMutability": "view",
      "type": "function"
    },
    {
      "constant": true,
      "inputs": [],
      "name": "compound",
      "outputs": [
        {
          "internalType": "address",
          "name": "",
          "type": "address"
        }
      ],
      "payable": false,
      "stateMutability": "view",
      "type": "function"
    },
    {
      "constant": true,
      "inputs": [],
      "name": "dToken",
      "outputs": [
        {
          "internalType": "uint256",
          "name": "",
          "type": "uint256"
        }
      ],
      "payable": false,
      "stateMutability": "view",
      "type": "function"
    },
    {
      "constant": true,
      "inputs": [],
      "name": "decimals",
      "outputs": [
        {
          "internalType": "uint8",
          "name": "",
          "type": "uint8"
        }
      ],
      "payable": false,
      "stateMutability": "view",
      "type": "function"
    },
    {
      "constant": false,
      "inputs": [
        {
          "internalType": "address",
          "name": "spender",
          "type": "address"
        },
        {
          "internalType": "uint256",
          "name": "subtractedValue",
          "type": "uint256"
        }
      ],
      "name": "decreaseAllowance",
      "outputs": [
        {
          "internalType": "bool",
          "name": "",
          "type": "bool"
        }
      ],
      "payable": false,
      "stateMutability": "nonpayable",
      "type": "function"
    },
    {
      "constant": true,
      "inputs": [],
      "name": "dydx",
      "outputs": [
        {
          "internalType": "address",
          "name": "",
          "type": "address"
        }
      ],
      "payable": false,
      "stateMutability": "view",
      "type": "function"
    },
    {
      "constant": true,
      "inputs": [],
      "name": "fulcrum",
      "outputs": [
        {
          "internalType": "address",
          "name": "",
          "type": "address"
        }
      ],
      "payable": false,
      "stateMutability": "view",
      "type": "function"
    },
    {
      "constant": false,
      "inputs": [
        {
          "internalType": "address",
          "name": "spender",
          "type": "address"
        },
        {
          "internalType": "uint256",
          "name": "addedValue",
          "type": "uint256"
        }
      ],
      "name": "increaseAllowance",
      "outputs": [
        {
          "internalType": "bool",
          "name": "",
          "type": "bool"
        }
      ],
      "payable": false,
      "stateMutability": "nonpayable",
      "type": "function"
    },
    {
      "constant": true,
      "inputs": [],
      "name": "isOwner",
      "outputs": [
        {
          "internalType": "bool",
          "name": "",
          "type": "bool"
        }
      ],
      "payable": false,
      "stateMutability": "view",
      "type": "function"
    },
    {
      "constant": true,
      "inputs": [],
      "name": "name",
      "outputs": [
        {
          "internalType": "string",
          "name": "",
          "type": "string"
        }
      ],
      "payable": false,
      "stateMutability": "view",
      "type": "function"
    },
    {
      "constant": true,
      "inputs": [],
      "name": "owner",
      "outputs": [
        {
          "internalType": "address",
          "name": "",
          "type": "address"
        }
      ],
      "payable": false,
      "stateMutability": "view",
      "type": "function"
    },
    {
      "constant": true,
      "inputs": [],
      "name": "pool",
      "outputs": [
        {
          "internalType": "uint256",
          "name": "",
          "type": "uint256"
        }
      ],
      "payable": false,
      "stateMutability": "view",
      "type": "function"
    },
    {
      "constant": true,
      "inputs": [],
      "name": "provider",
      "outputs": [
        {
          "internalType": "enum yUSDC.Lender",
          "name": "",
          "type": "uint8"
        }
      ],
      "payable": false,
      "stateMutability": "view",
      "type": "function"
    },
    {
      "constant": false,
      "inputs": [],
      "name": "renounceOwnership",
      "outputs": [],
      "payable": false,
      "stateMutability": "nonpayable",
      "type": "function"
    },
    {
      "constant": true,
      "inputs": [],
      "name": "symbol",
      "outputs": [
        {
          "internalType": "string",
          "name": "",
          "type": "string"
        }
      ],
      "payable": false,
      "stateMutability": "view",
      "type": "function"
    },
    {
      "constant": true,
      "inputs": [],
      "name": "token",
      "outputs": [
        {
          "internalType": "address",
          "name": "",
          "type": "address"
        }
      ],
      "payable": false,
      "stateMutability": "view",
      "type": "function"
    },
    {
      "constant": true,
      "inputs": [],
      "name": "totalSupply",
      "outputs": [
        {
          "internalType": "uint256",
          "name": "",
          "type": "uint256"
        }
      ],
      "payable": false,
      "stateMutability": "view",
      "type": "function"
    },
    {
      "constant": false,
      "inputs": [
        {
          "internalType": "address",
          "name": "recipient",
          "type": "address"
        },
        {
          "internalType": "uint256",
          "name": "amount",
          "type": "uint256"
        }
      ],
      "name": "transfer",
      "outputs": [
        {
          "internalType": "bool",
          "name": "",
          "type": "bool"
        }
      ],
      "payable": false,
      "stateMutability": "nonpayable",
      "type": "function"
    },
    {
      "constant": false,
      "inputs": [
        {
          "internalType": "address",
          "name": "sender",
          "type": "address"
        },
        {
          "internalType": "address",
          "name": "recipient",
          "type": "address"
        },
        {
          "internalType": "uint256",
          "name": "amount",
          "type": "uint256"
        }
      ],
      "name": "transferFrom",
      "outputs": [
        {
          "internalType": "bool",
          "name": "",
          "type": "bool"
        }
      ],
      "payable": false,
      "stateMutability": "nonpayable",
      "type": "function"
    },
    {
      "constant": false,
      "inputs": [
        {
          "internalType": "address",
          "name": "newOwner",
          "type": "address"
        }
      ],
      "name": "transferOwnership",
      "outputs": [],
      "payable": false,
      "stateMutability": "nonpayable",
      "type": "function"
    },
    {
      "constant": false,
      "inputs": [
        {
          "internalType": "address",
          "name": "_new_APR",
          "type": "address"
        }
      ],
      "name": "set_new_APR",
      "outputs": [],
      "payable": false,
      "stateMutability": "nonpayable",
      "type": "function"
    },
    {
      "constant": false,
      "inputs": [
        {
          "internalType": "address",
          "name": "_new_FULCRUM",
          "type": "address"
        }
      ],
      "name": "set_new_FULCRUM",
      "outputs": [],
      "payable": false,
      "stateMutability": "nonpayable",
      "type": "function"
    },
    {
      "constant": false,
      "inputs": [
        {
          "internalType": "address",
          "name": "_new_COMPOUND",
          "type": "address"
        }
      ],
      "name": "set_new_COMPOUND",
      "outputs": [],
      "payable": false,
      "stateMutability": "nonpayable",
      "type": "function"
    },
    {
      "constant": false,
      "inputs": [
        {
          "internalType": "uint256",
          "name": "_new_DTOKEN",
          "type": "uint256"
        }
      ],
      "name": "set_new_DTOKEN",
      "outputs": [],
      "payable": false,
      "stateMutability": "nonpayable",
      "type": "function"
    },
    {
      "constant": false,
      "inputs": [
        {
          "internalType": "address",
          "name": "_new_AAVE",
          "type": "address"
        }
      ],
      "name": "set_new_AAVE",
      "outputs": [],
      "payable": false,
      "stateMutability": "nonpayable",
      "type": "function"
    },
    {
      "constant": false,
      "inputs": [
        {
          "internalType": "address",
          "name": "_new_APOOL",
          "type": "address"
        }
      ],
      "name": "set_new_APOOL",
      "outputs": [],
      "payable": false,
      "stateMutability": "nonpayable",
      "type": "function"
    },
    {
      "constant": false,
      "inputs": [
        {
          "internalType": "address",
          "name": "_new_ATOKEN",
          "type": "address"
        }
      ],
      "name": "set_new_ATOKEN",
      "outputs": [],
      "payable": false,
      "stateMutability": "nonpayable",
      "type": "function"
    },
    {
      "constant": false,
      "inputs": [
        {
          "internalType": "uint256",
          "name": "_amount",
          "type": "uint256"
        }
      ],
      "name": "deposit",
      "outputs": [],
      "payable": false,
      "stateMutability": "nonpayable",
      "type": "function"
    },
    {
      "constant": false,
      "inputs": [
        {
          "internalType": "uint256",
          "name": "_shares",
          "type": "uint256"
        }
      ],
      "name": "withdraw",
      "outputs": [],
      "payable": false,
      "stateMutability": "nonpayable",
      "type": "function"
    },
    {
      "constant": true,
      "inputs": [],
      "name": "recommend",
      "outputs": [
        {
          "internalType": "enum yUSDC.Lender",
          "name": "",
          "type": "uint8"
        }
      ],
      "payable": false,
      "stateMutability": "view",
      "type": "function"
    },
    {
      "constant": true,
      "inputs": [],
      "name": "getAave",
      "outputs": [
        {
          "internalType": "address",
          "name": "",
          "type": "address"
        }
      ],
      "payable": false,
      "stateMutability": "view",
      "type": "function"
    },
    {
      "constant": true,
      "inputs": [],
      "name": "getAaveCore",
      "outputs": [
        {
          "internalType": "address",
          "name": "",
          "type": "address"
        }
      ],
      "payable": false,
      "stateMutability": "view",
      "type": "function"
    },
    {
      "constant": false,
      "inputs": [],
      "name": "approveToken",
      "outputs": [],
      "payable": false,
      "stateMutability": "nonpayable",
      "type": "function"
    },
    {
      "constant": true,
      "inputs": [],
      "name": "balance",
      "outputs": [
        {
          "internalType": "uint256",
          "name": "",
          "type": "uint256"
        }
      ],
      "payable": false,
      "stateMutability": "view",
      "type": "function"
    },
    {
      "constant": true,
      "inputs": [],
      "name": "balanceDydxAvailable",
      "outputs": [
        {
          "internalType": "uint256",
          "name": "",
          "type": "uint256"
        }
      ],
      "payable": false,
      "stateMutability": "view",
      "type": "function"
    },
    {
      "constant": true,
      "inputs": [],
      "name": "balanceDydx",
      "outputs": [
        {
          "internalType": "uint256",
          "name": "",
          "type": "uint256"
        }
      ],
      "payable": false,
      "stateMutability": "view",
      "type": "function"
    },
    {
      "constant": true,
      "inputs": [],
      "name": "balanceCompound",
      "outputs": [
        {
          "internalType": "uint256",
          "name": "",
          "type": "uint256"
        }
      ],
      "payable": false,
      "stateMutability": "view",
      "type": "function"
    },
    {
      "constant": true,
      "inputs": [],
      "name": "balanceCompoundInToken",
      "outputs": [
        {
          "internalType": "uint256",
          "name": "",
          "type": "uint256"
        }
      ],
      "payable": false,
      "stateMutability": "view",
      "type": "function"
    },
    {
      "constant": true,
      "inputs": [],
      "name": "balanceFulcrumAvailable",
      "outputs": [
        {
          "internalType": "uint256",
          "name": "",
          "type": "uint256"
        }
      ],
      "payable": false,
      "stateMutability": "view",
      "type": "function"
    },
    {
      "constant": true,
      "inputs": [],
      "name": "balanceFulcrumInToken",
      "outputs": [
        {
          "internalType": "uint256",
          "name": "",
          "type": "uint256"
        }
      ],
      "payable": false,
      "stateMutability": "view",
      "type": "function"
    },
    {
      "constant": true,
      "inputs": [],
      "name": "balanceFulcrum",
      "outputs": [
        {
          "internalType": "uint256",
          "name": "",
          "type": "uint256"
        }
      ],
      "payable": false,
      "stateMutability": "view",
      "type": "function"
    },
    {
      "constant": true,
      "inputs": [],
      "name": "balanceAaveAvailable",
      "outputs": [
        {
          "internalType": "uint256",
          "name": "",
          "type": "uint256"
        }
      ],
      "payable": false,
      "stateMutability": "view",
      "type": "function"
    },
    {
      "constant": true,
      "inputs": [],
      "name": "balanceAave",
      "outputs": [
        {
          "internalType": "uint256",
          "name": "",
          "type": "uint256"
        }
      ],
      "payable": false,
      "stateMutability": "view",
      "type": "function"
    },
    {
      "constant": false,
      "inputs": [],
      "name": "rebalance",
      "outputs": [],
      "payable": false,
      "stateMutability": "nonpayable",
      "type": "function"
    },
    {
      "constant": true,
      "inputs": [],
      "name": "calcPoolValueInToken",
      "outputs": [
        {
          "internalType": "uint256",
          "name": "",
          "type": "uint256"
        }
      ],
      "payable": false,
      "stateMutability": "view",
      "type": "function"
    },
    {
      "constant": true,
      "inputs": [],
      "name": "getPricePerFullShare",
      "outputs": [
        {
          "internalType": "uint256",
          "name": "",
          "type": "uint256"
        }
      ],
      "payable": false,
      "stateMutability": "view",
      "type": "function"
    },
    {
      "constant": false,
      "inputs": [
        {
          "internalType": "uint256",
          "name": "_amount",
          "type": "uint256"
        }
      ],
      "name": "withdrawSomeCompound",
      "outputs": [],
      "payable": false,
      "stateMutability": "nonpayable",
      "type": "function"
    },
    {
      "constant": false,
      "inputs": [
        {
          "internalType": "uint256",
          "name": "_amount",
          "type": "uint256"
        }
      ],
      "name": "withdrawSomeFulcrum",
      "outputs": [],
      "payable": false,
      "stateMutability": "nonpayable",
      "type": "function"
    },
    {
      "constant": false,
      "inputs": [
        {
          "internalType": "uint256",
          "name": "amount",
          "type": "uint256"
        }
      ],
      "name": "withdrawAave",
      "outputs": [],
      "payable": false,
      "stateMutability": "nonpayable",
      "type": "function"
    },
    {
      "constant": false,
      "inputs": [
        {
          "internalType": "uint256",
          "name": "amount",
          "type": "uint256"
        }
      ],
      "name": "withdrawDydx",
      "outputs": [],
      "payable": false,
      "stateMutability": "nonpayable",
      "type": "function"
    },
    {
      "constant": false,
      "inputs": [
        {
          "internalType": "uint256",
          "name": "amount",
          "type": "uint256"
        }
      ],
      "name": "supplyDydx",
      "outputs": [],
      "payable": false,
      "stateMutability": "nonpayable",
      "type": "function"
    },
    {
      "constant": false,
      "inputs": [
        {
          "internalType": "uint256",
          "name": "amount",
          "type": "uint256"
        }
      ],
      "name": "supplyAave",
      "outputs": [],
      "payable": false,
      "stateMutability": "nonpayable",
      "type": "function"
    },
    {
      "constant": false,
      "inputs": [
        {
          "internalType": "uint256",
          "name": "amount",
          "type": "uint256"
        }
      ],
      "name": "supplyFulcrum",
      "outputs": [],
      "payable": false,
      "stateMutability": "nonpayable",
      "type": "function"
    },
    {
      "constant": false,
      "inputs": [
        {
          "internalType": "uint256",
          "name": "amount",
          "type": "uint256"
        }
      ],
      "name": "supplyCompound",
      "outputs": [],
      "payable": false,
      "stateMutability": "nonpayable",
      "type": "function"
    }
  ],
  "bytecode": "0x60806040526000601160146101000a81548160ff021916908360048111156200002457fe5b02179055503480156200003657600080fd5b506040518060400160405280600981526020017f696561726e2044414900000000000000000000000000000000000000000000008152506040518060400160405280600481526020017f794441490000000000000000000000000000000000000000000000000000000081525060128260039080519060200190620000bd92919062000af0565b508160049080519060200190620000d692919062000af0565b5080600560006101000a81548160ff021916908360ff16021790555050505060016006819055506200010d6200049060201b60201c565b600760006101000a81548173ffffffffffffffffffffffffffffffffffffffff021916908373ffffffffffffffffffffffffffffffffffffffff160217905550600760009054906101000a900473ffffffffffffffffffffffffffffffffffffffff1673ffffffffffffffffffffffffffffffffffffffff16600073ffffffffffffffffffffffffffffffffffffffff167f8be0079c531659141344cd1fd0a4f28419497f9722a3daafe3b4186f6b6457e060405160405180910390a373a0b86991c6218b36c1d19d4a2e9eb0ce3606eb48600960006101000a81548173ffffffffffffffffffffffffffffffffffffffff021916908373ffffffffffffffffffffffffffffffffffffffff16021790555073dd6d648c991f7d47454354f4ef326b04025a48a8601160006101000a81548173ffffffffffffffffffffffffffffffffffffffff021916908373ffffffffffffffffffffffffffffffffffffffff160217905550731e0447b19bb6ecfdae1e4ae1694b0c3659614e4e600f60006101000a81548173ffffffffffffffffffffffffffffffffffffffff021916908373ffffffffffffffffffffffffffffffffffffffff1602179055507324a42fd28c976a61df5d00d0599c34c4f90748c8600c60006101000a81548173ffffffffffffffffffffffffffffffffffffffff021916908373ffffffffffffffffffffffffffffffffffffffff160217905550733dfd23a6c5e8bbcfc9581d2e864a68feb6a076d3600d60006101000a81548173ffffffffffffffffffffffffffffffffffffffff021916908373ffffffffffffffffffffffffffffffffffffffff16021790555073f013406a0b1d544238083df0b93ad0d2cbe0f65f600b60006101000a81548173ffffffffffffffffffffffffffffffffffffffff021916908373ffffffffffffffffffffffffffffffffffffffff160217905550739ba00d6856a4edf4665bca2c2309936572473b7e600e60006101000a81548173ffffffffffffffffffffffffffffffffffffffff021916908373ffffffffffffffffffffffffffffffffffffffff1602179055507339aa39c021dfbae8fac545936693ac917d5e7563600a60006101000a81548173ffffffffffffffffffffffffffffffffffffffff021916908373ffffffffffffffffffffffffffffffffffffffff16021790555060026010819055506200048a6200049860201b60201c565b62001005565b600033905090565b6200052e600a60009054906101000a900473ffffffffffffffffffffffffffffffffffffffff167fffffffffffffffffffffffffffffffffffffffffffffffffffffffffffffffff600960009054906101000a900473ffffffffffffffffffffffffffffffffffffffff1673ffffffffffffffffffffffffffffffffffffffff16620006df60201b62003dd4179092919060201c565b620005c4600f60009054906101000a900473ffffffffffffffffffffffffffffffffffffffff167fffffffffffffffffffffffffffffffffffffffffffffffffffffffffffffffff600960009054906101000a900473ffffffffffffffffffffffffffffffffffffffff1673ffffffffffffffffffffffffffffffffffffffff16620006df60201b62003dd4179092919060201c565b62000647620005d86200086a60201b60201c565b7fffffffffffffffffffffffffffffffffffffffffffffffffffffffffffffffff600960009054906101000a900473ffffffffffffffffffffffffffffffffffffffff1673ffffffffffffffffffffffffffffffffffffffff16620006df60201b62003dd4179092919060201c565b620006dd600b60009054906101000a900473ffffffffffffffffffffffffffffffffffffffff167fffffffffffffffffffffffffffffffffffffffffffffffffffffffffffffffff600960009054906101000a900473ffffffffffffffffffffffffffffffffffffffff1673ffffffffffffffffffffffffffffffffffffffff16620006df60201b62003dd4179092919060201c565b565b60008114806200077f575060008373ffffffffffffffffffffffffffffffffffffffff1663dd62ed3e30856040518363ffffffff1660e01b81526004016200072992919062000e2e565b60206040518083038186803b1580156200074257600080fd5b505afa15801562000757573d6000803e3d6000fd5b505050506040513d601f19601f820116820180604052506200077d919081019062000c3c565b145b620007c1576040517f08c379a0000000000000000000000000000000000000000000000000000000008152600401620007b89062000ecc565b60405180910390fd5b62000865838473ffffffffffffffffffffffffffffffffffffffff1663095ea7b3905060e01b8484604051602401620007fc92919062000e5b565b604051602081830303815290604052907bffffffffffffffffffffffffffffffffffffffffffffffffffffffff19166020820180517bffffffffffffffffffffffffffffffffffffffffffffffffffffffff83818316178352505050506200091560201b60201c565b505050565b6000600c60009054906101000a900473ffffffffffffffffffffffffffffffffffffffff1673ffffffffffffffffffffffffffffffffffffffff1663ed6ff7606040518163ffffffff1660e01b815260040160206040518083038186803b158015620008d557600080fd5b505afa158015620008ea573d6000803e3d6000fd5b505050506040513d601f19601f8201168201806040525062000910919081019062000be4565b905090565b620009418273ffffffffffffffffffffffffffffffffffffffff1662000aa460201b620047041760201c565b62000983576040517f08c379a00000000000000000000000000000000000000000000000000000000081526004016200097a9062000eee565b60405180910390fd5b600060608373ffffffffffffffffffffffffffffffffffffffff1683604051620009ae919062000e15565b6000604051808303816000865af19150503d8060008114620009ed576040519150601f19603f3d011682016040523d82523d6000602084013e620009f2565b606091505b50915091508162000a3a576040517f08c379a000000000000000000000000000000000000000000000000000000000815260040162000a319062000e88565b60405180910390fd5b60008151111562000a9e578080602001905162000a5b919081019062000c10565b62000a9d576040517f08c379a000000000000000000000000000000000000000000000000000000000815260040162000a949062000eaa565b60405180910390fd5b5b50505050565b60008060007fc5d2460186f7233c927e7db2dcc703c0e500b653ca82273b7bfad8045d85a47060001b9050833f91506000801b821415801562000ae75750808214155b92505050919050565b828054600181600116156101000203166002900490600052602060002090601f016020900481019282601f1062000b3357805160ff191683800117855562000b64565b8280016001018555821562000b64579182015b8281111562000b6357825182559160200191906001019062000b46565b5b50905062000b73919062000b77565b5090565b62000b9c91905b8082111562000b9857600081600090555060010162000b7e565b5090565b90565b60008151905062000bb08162000fb7565b92915050565b60008151905062000bc78162000fd1565b92915050565b60008151905062000bde8162000feb565b92915050565b60006020828403121562000bf757600080fd5b600062000c078482850162000b9f565b91505092915050565b60006020828403121562000c2357600080fd5b600062000c338482850162000bb6565b91505092915050565b60006020828403121562000c4f57600080fd5b600062000c5f8482850162000bcd565b91505092915050565b62000c738162000f37565b82525050565b600062000c868262000f10565b62000c92818562000f1b565b935062000ca481856020860162000f81565b80840191505092915050565b600062000cbf60208362000f26565b91507f5361666545524332303a206c6f772d6c6576656c2063616c6c206661696c65646000830152602082019050919050565b600062000d01602a8362000f26565b91507f5361666545524332303a204552433230206f7065726174696f6e20646964206e60008301527f6f742073756363656564000000000000000000000000000000000000000000006020830152604082019050919050565b600062000d6960368362000f26565b91507f5361666545524332303a20617070726f76652066726f6d206e6f6e2d7a65726f60008301527f20746f206e6f6e2d7a65726f20616c6c6f77616e6365000000000000000000006020830152604082019050919050565b600062000dd1601f8362000f26565b91507f5361666545524332303a2063616c6c20746f206e6f6e2d636f6e7472616374006000830152602082019050919050565b62000e0f8162000f77565b82525050565b600062000e23828462000c79565b915081905092915050565b600060408201905062000e45600083018562000c68565b62000e54602083018462000c68565b9392505050565b600060408201905062000e72600083018562000c68565b62000e81602083018462000e04565b9392505050565b6000602082019050818103600083015262000ea38162000cb0565b9050919050565b6000602082019050818103600083015262000ec58162000cf2565b9050919050565b6000602082019050818103600083015262000ee78162000d5a565b9050919050565b6000602082019050818103600083015262000f098162000dc2565b9050919050565b600081519050919050565b600081905092915050565b600082825260208201905092915050565b600062000f448262000f57565b9050919050565b60008115159050919050565b600073ffffffffffffffffffffffffffffffffffffffff82169050919050565b6000819050919050565b60005b8381101562000fa157808201518184015260208101905062000f84565b8381111562000fb1576000848401525b50505050565b62000fc28162000f37565b811462000fce57600080fd5b50565b62000fdc8162000f4b565b811462000fe857600080fd5b50565b62000ff68162000f77565b81146200100257600080fd5b50565b615ee580620010156000396000f3fe608060405234801561001057600080fd5b50600436106103a45760003560e01c80638da5cb5b116101e9578063b69ef8a81161010f578063e849d659116100ad578063f69e20461161007c578063f69e204614610a57578063f7c1ec7714610a75578063f82ce27d14610a93578063fc0c546a14610ab1576103a4565b8063e849d659146109e5578063f2fde38b14610a01578063f5a41dea14610a1d578063f5ff191614610a3b576103a4565b8063cf8ca426116100e9578063cf8ca4261461095b578063d54e324414610979578063d9d7858a14610997578063dd62ed3e146109b5576103a4565b8063b69ef8a814610905578063b6b55f2514610923578063bbf316441461093f576103a4565b8063a03e4bc311610187578063a9059cbb11610156578063a9059cbb1461087f578063a9de245b146108af578063b098fc80146108cb578063b30d0bb2146108e9576103a4565b8063a03e4bc3146107f5578063a160176d14610813578063a457c2d714610831578063a728797114610861576103a4565b80638f9225ca116101c35780638f9225ca1461079357806395d89b41146107b157806399b71d5c146107cf5780639ff011b9146107d9576103a4565b80638da5cb5b146107395780638e4ec6ef146107575780638f32d59b14610775576103a4565b806346357473116102ce57806370a082311161026c5780637d7c2a1c1161023b5780637d7c2a1c146106d95780638124955c146106e3578063812adb06146106ff578063819faf7b1461071b576103a4565b806370a08231146106635780637137ef9914610693578063715018a6146106b157806377c7b8fc146106bb576103a4565b806358782c21116102a857806358782c21146105ef57806361c1ec551461060d57806365aab7491461062b57806367e4b74014610647576103a4565b8063463574731461059957806356cc9378146105b557806357ded9c9146105d1576103a4565b806318160ddd11610346578063313ce56711610315578063313ce56714610511578063395093511461052f57806339c0a7e11461055f57806341c57c8d1461057d576103a4565b806318160ddd1461048b57806319c13d54146104a957806323b872dd146104c55780632e1a7d4d146104f5576103a4565b8063085d488311610382578063085d488314610401578063095ea7b31461041f5780630eb2a2671461044f57806316f0115b1461046d576103a4565b806306636c1c146103a957806306a3fe59146103c557806306fdde03146103e3575b600080fd5b6103c360048036036103be9190810190614bf2565b610acf565b005b6103cd610b22565b6040516103da91906156c7565b60405180910390f35b6103eb610b48565b6040516103f8919061580f565b60405180910390f35b610409610bea565b60405161041691906157f4565b60405180910390f35b61043960048036036104349190810190614ad5565b610bfd565b60405161044691906157d9565b60405180910390f35b610457610c1b565b6040516104649190615b1a565b60405180910390f35b610475610ccd565b6040516104829190615b1a565b60405180910390f35b610493610cd3565b6040516104a09190615b1a565b60405180910390f35b6104c360048036036104be91908101906149f8565b610cdd565b005b6104df60048036036104da9190810190614a86565b610d68565b6040516104ec91906157d9565b60405180910390f35b61050f600480360361050a9190810190614bf2565b610e41565b005b6105196111eb565b6040516105269190615b35565b60405180910390f35b61054960048036036105449190810190614ad5565b611202565b60405161055691906157d9565b60405180910390f35b6105676112b5565b6040516105749190615b1a565b60405180910390f35b61059760048036036105929190810190614bf2565b6113a5565b005b6105b360048036036105ae91908101906149f8565b6113f8565b005b6105cf60048036036105ca9190810190614bf2565b611483565b005b6105d96114d6565b6040516105e691906156c7565b60405180910390f35b6105f76114fc565b60405161060491906156c7565b60405180910390f35b610615611522565b6040516106229190615b1a565b60405180910390f35b61064560048036036106409190810190614bf2565b6115d4565b005b610661600480360361065c9190810190614bf2565b611627565b005b61067d600480360361067891908101906149f8565b61167a565b60405161068a9190615b1a565b60405180910390f35b61069b6116c2565b6040516106a89190615b1a565b60405180910390f35b6106b9611735565b005b6106c361183d565b6040516106d09190615b1a565b60405180910390f35b6106e161187f565b005b6106fd60048036036106f89190810190614bf2565b6119c5565b005b610719600480360361071491908101906149f8565b611a18565b005b610723611aa3565b60405161073091906156c7565b60405180910390f35b610741611ac9565b60405161074e91906156c7565b60405180910390f35b61075f611af3565b60405161076c91906156c7565b60405180910390f35b61077d611b19565b60405161078a91906157d9565b60405180910390f35b61079b611b78565b6040516107a89190615b1a565b60405180910390f35b6107b9611c4c565b6040516107c6919061580f565b60405180910390f35b6107d7611cee565b005b6107f360048036036107ee9190810190614bf2565b611f11565b005b6107fd611f62565b60405161080a91906156c7565b60405180910390f35b61081b611f88565b60405161082891906157f4565b60405180910390f35b61084b60048036036108469190810190614ad5565b6120f4565b60405161085891906157d9565b60405180910390f35b6108696121c1565b6040516108769190615b1a565b60405180910390f35b61089960048036036108949190810190614ad5565b6122ad565b6040516108a691906157d9565b60405180910390f35b6108c960048036036108c491908101906149f8565b6122cb565b005b6108d3612356565b6040516108e09190615b1a565b60405180910390f35b61090360048036036108fe9190810190614bf2565b61242a565b005b61090d61247d565b60405161091a9190615b1a565b60405180910390f35b61093d60048036036109389190810190614bf2565b61252f565b005b610959600480360361095491908101906149f8565b612693565b005b61096361271e565b6040516109709190615b1a565b60405180910390f35b6109816127d0565b60405161098e9190615b1a565b60405180910390f35b61099f6128a4565b6040516109ac9190615b1a565b60405180910390f35b6109cf60048036036109ca9190810190614a4a565b6128aa565b6040516109dc9190615b1a565b60405180910390f35b6109ff60048036036109fa9190810190614bf2565b612931565b005b610a1b6004803603610a1691908101906149f8565b612984565b005b610a256129d7565b604051610a329190615b1a565b60405180910390f35b610a556004803603610a5091908101906149f8565b612aa2565b005b610a5f612b2d565b604051610a6c91906156c7565b60405180910390f35b610a7d612b53565b604051610a8a91906156c7565b60405180910390f35b610a9b612bfa565b604051610aa891906156c7565b60405180910390f35b610ab9612ca1565b604051610ac691906156c7565b60405180910390f35b610ad7611b19565b610b16576040517f08c379a0000000000000000000000000000000000000000000000000000000008152600401610b0d90615951565b60405180910390fd5b610b1f81612cc7565b50565b600e60009054906101000a900473ffffffffffffffffffffffffffffffffffffffff1681565b606060038054600181600116156101000203166002900480601f016020809104026020016040519081016040528092919081815260200182805460018160011615610100020316600290048015610be05780601f10610bb557610100808354040283529160200191610be0565b820191906000526020600020905b815481529060010190602001808311610bc357829003601f168201915b5050505050905090565b601160149054906101000a900460ff1681565b6000610c11610c0a612f01565b8484612f09565b6001905092915050565b6000600b60009054906101000a900473ffffffffffffffffffffffffffffffffffffffff1673ffffffffffffffffffffffffffffffffffffffff166370a08231306040518263ffffffff1660e01b8152600401610c7891906156c7565b60206040518083038186803b158015610c9057600080fd5b505afa158015610ca4573d6000803e3d6000fd5b505050506040513d601f19601f82011682018060405250610cc89190810190614c1b565b905090565b60085481565b6000600254905090565b610ce5611b19565b610d24576040517f08c379a0000000000000000000000000000000000000000000000000000000008152600401610d1b90615951565b60405180910390fd5b80600d60006101000a81548173ffffffffffffffffffffffffffffffffffffffff021916908373ffffffffffffffffffffffffffffffffffffffff16021790555050565b6000610d758484846130d4565b610e3684610d81612f01565b610e3185604051806060016040528060288152602001615e5660289139600160008b73ffffffffffffffffffffffffffffffffffffffff1673ffffffffffffffffffffffffffffffffffffffff1681526020019081526020016000206000610de7612f01565b73ffffffffffffffffffffffffffffffffffffffff1673ffffffffffffffffffffffffffffffffffffffff1681526020019081526020016000205461335e9092919063ffffffff16565b612f09565b600190509392505050565b60016006600082825401925050819055506000600654905060008211610e9c576040517f08c379a0000000000000000000000000000000000000000000000000000000008152600401610e9390615991565b60405180910390fd5b6000610ea73361167a565b905080831115610eec576040517f08c379a0000000000000000000000000000000000000000000000000000000008152600401610ee390615971565b60405180910390fd5b610ef46116c2565b6008819055506000610f25600254610f17866008546133b990919063ffffffff16565b61342990919063ffffffff16565b9050610faf846040518060400160405280601d81526020017f72656465656d20616d6f756e7420657863656564732062616c616e63650000008152506000803373ffffffffffffffffffffffffffffffffffffffff1673ffffffffffffffffffffffffffffffffffffffff1681526020019081526020016000205461335e9092919063ffffffff16565b6000803373ffffffffffffffffffffffffffffffffffffffff1673ffffffffffffffffffffffffffffffffffffffff168152602001908152602001600020819055506110068460025461347390919063ffffffff16565b600281905550600073ffffffffffffffffffffffffffffffffffffffff163373ffffffffffffffffffffffffffffffffffffffff167fddf252ad1be2c89b69c2b068fc378daa952ba7f163c4a11628f55a4df523b3ef8660405161106a9190615b1a565b60405180910390a36000600960009054906101000a900473ffffffffffffffffffffffffffffffffffffffff1673ffffffffffffffffffffffffffffffffffffffff166370a08231306040518263ffffffff1660e01b81526004016110cf91906156c7565b60206040518083038186803b1580156110e757600080fd5b505afa1580156110fb573d6000803e3d6000fd5b505050506040513d601f19601f8201168201806040525061111f9190810190614c1b565b9050818110156111455761114461113f828461347390919063ffffffff16565b6134bd565b5b6111923383600960009054906101000a900473ffffffffffffffffffffffffffffffffffffffff1673ffffffffffffffffffffffffffffffffffffffff166136339092919063ffffffff16565b61119a6116c2565b60088190555050505060065481146111e7576040517f08c379a00000000000000000000000000000000000000000000000000000000081526004016111de90615a71565b60405180910390fd5b5050565b6000600560009054906101000a900460ff16905090565b60006112ab61120f612f01565b846112a68560016000611220612f01565b73ffffffffffffffffffffffffffffffffffffffff1673ffffffffffffffffffffffffffffffffffffffff16815260200190815260200160002060008973ffffffffffffffffffffffffffffffffffffffff1673ffffffffffffffffffffffffffffffffffffffff168152602001908152602001600020546136d290919063ffffffff16565b612f09565b6001905092915050565b60006112bf61474f565b600f60009054906101000a900473ffffffffffffffffffffffffffffffffffffffff1673ffffffffffffffffffffffffffffffffffffffff1663c190c2ec60405180604001604052803073ffffffffffffffffffffffffffffffffffffffff16815260200160008152506010546040518363ffffffff1660e01b8152600401611349929190615af1565b604080518083038186803b15801561136057600080fd5b505afa158015611374573d6000803e3d6000fd5b505050506040513d601f19601f820116820180604052506113989190810190614bc9565b9050806020015191505090565b6113ad611b19565b6113ec576040517f08c379a00000000000000000000000000000000000000000000000000000000081526004016113e390615951565b60405180910390fd5b6113f581613727565b50565b611400611b19565b61143f576040517f08c379a000000000000000000000000000000000000000000000000000000000815260040161143690615951565b60405180910390fd5b80601160006101000a81548173ffffffffffffffffffffffffffffffffffffffff021916908373ffffffffffffffffffffffffffffffffffffffff16021790555050565b61148b611b19565b6114ca576040517f08c379a00000000000000000000000000000000000000000000000000000000081526004016114c190615951565b60405180910390fd5b6114d381613961565b50565b601160009054906101000a900473ffffffffffffffffffffffffffffffffffffffff1681565b600b60009054906101000a900473ffffffffffffffffffffffffffffffffffffffff1681565b6000600a60009054906101000a900473ffffffffffffffffffffffffffffffffffffffff1673ffffffffffffffffffffffffffffffffffffffff166370a08231306040518263ffffffff1660e01b815260040161157f91906156c7565b60206040518083038186803b15801561159757600080fd5b505afa1580156115ab573d6000803e3d6000fd5b505050506040513d601f19601f820116820180604052506115cf9190810190614c1b565b905090565b6115dc611b19565b61161b576040517f08c379a000000000000000000000000000000000000000000000000000000000815260040161161290615951565b60405180910390fd5b611624816139f1565b50565b61162f611b19565b61166e576040517f08c379a000000000000000000000000000000000000000000000000000000000815260040161166590615951565b60405180910390fd5b61167781613a8d565b50565b60008060008373ffffffffffffffffffffffffffffffffffffffff1673ffffffffffffffffffffffffffffffffffffffff168152602001908152602001600020549050919050565b60006117306116cf61247d565b6117226116da61271e565b6117146116e56112b5565b6117066116f06129d7565b6116f86121c1565b6136d290919063ffffffff16565b6136d290919063ffffffff16565b6136d290919063ffffffff16565b6136d290919063ffffffff16565b905090565b61173d611b19565b61177c576040517f08c379a000000000000000000000000000000000000000000000000000000000815260040161177390615951565b60405180910390fd5b600073ffffffffffffffffffffffffffffffffffffffff16600760009054906101000a900473ffffffffffffffffffffffffffffffffffffffff1673ffffffffffffffffffffffffffffffffffffffff167f8be0079c531659141344cd1fd0a4f28419497f9722a3daafe3b4186f6b6457e060405160405180910390a36000600760006101000a81548173ffffffffffffffffffffffffffffffffffffffff021916908373ffffffffffffffffffffffffffffffffffffffff160217905550565b6000806118486116c2565b905061187960025461186b670de0b6b3a7640000846133b990919063ffffffff16565b61342990919063ffffffff16565b91505090565b6000611889611f88565b9050601160149054906101000a900460ff1660048111156118a657fe5b8160048111156118b257fe5b146118c0576118bf613b33565b5b60006118ca61247d565b111561199f57600160048111156118dd57fe5b8160048111156118e957fe5b1415611904576118ff6118fa61247d565b612cc7565b61199e565b60048081111561191057fe5b81600481111561191c57fe5b14156119375761193261192d61247d565b613bee565b61199d565b6002600481111561194457fe5b81600481111561195057fe5b141561196b5761196661196161247d565b613ce2565b61199c565b6003600481111561197857fe5b81600481111561198457fe5b141561199b5761199a61199561247d565b6139f1565b5b5b5b5b5b80601160146101000a81548160ff021916908360048111156119bd57fe5b021790555050565b6119cd611b19565b611a0c576040517f08c379a0000000000000000000000000000000000000000000000000000000008152600401611a0390615951565b60405180910390fd5b611a1581613bee565b50565b611a20611b19565b611a5f576040517f08c379a0000000000000000000000000000000000000000000000000000000008152600401611a5690615951565b60405180910390fd5b80600c60006101000a81548173ffffffffffffffffffffffffffffffffffffffff021916908373ffffffffffffffffffffffffffffffffffffffff16021790555050565b600c60009054906101000a900473ffffffffffffffffffffffffffffffffffffffff1681565b6000600760009054906101000a900473ffffffffffffffffffffffffffffffffffffffff16905090565b600f60009054906101000a900473ffffffffffffffffffffffffffffffffffffffff1681565b6000600760009054906101000a900473ffffffffffffffffffffffffffffffffffffffff1673ffffffffffffffffffffffffffffffffffffffff16611b5c612f01565b73ffffffffffffffffffffffffffffffffffffffff1614905090565b6000600960009054906101000a900473ffffffffffffffffffffffffffffffffffffffff1673ffffffffffffffffffffffffffffffffffffffff166370a08231600b60009054906101000a900473ffffffffffffffffffffffffffffffffffffffff166040518263ffffffff1660e01b8152600401611bf791906156c7565b60206040518083038186803b158015611c0f57600080fd5b505afa158015611c23573d6000803e3d6000fd5b505050506040513d601f19601f82011682018060405250611c479190810190614c1b565b905090565b606060048054600181600116156101000203166002900480601f016020809104026020016040519081016040528092919081815260200182805460018160011615610100020316600290048015611ce45780601f10611cb957610100808354040283529160200191611ce4565b820191906000526020600020905b815481529060010190602001808311611cc757829003601f168201915b5050505050905090565b611d7d600a60009054906101000a900473ffffffffffffffffffffffffffffffffffffffff167fffffffffffffffffffffffffffffffffffffffffffffffffffffffffffffffff600960009054906101000a900473ffffffffffffffffffffffffffffffffffffffff1673ffffffffffffffffffffffffffffffffffffffff16613dd49092919063ffffffff16565b611e0c600f60009054906101000a900473ffffffffffffffffffffffffffffffffffffffff167fffffffffffffffffffffffffffffffffffffffffffffffffffffffffffffffff600960009054906101000a900473ffffffffffffffffffffffffffffffffffffffff1673ffffffffffffffffffffffffffffffffffffffff16613dd49092919063ffffffff16565b611e80611e17612bfa565b7fffffffffffffffffffffffffffffffffffffffffffffffffffffffffffffffff600960009054906101000a900473ffffffffffffffffffffffffffffffffffffffff1673ffffffffffffffffffffffffffffffffffffffff16613dd49092919063ffffffff16565b611f0f600b60009054906101000a900473ffffffffffffffffffffffffffffffffffffffff167fffffffffffffffffffffffffffffffffffffffffffffffffffffffffffffffff600960009054906101000a900473ffffffffffffffffffffffffffffffffffffffff1673ffffffffffffffffffffffffffffffffffffffff16613dd49092919063ffffffff16565b565b611f19611b19565b611f58576040517f08c379a0000000000000000000000000000000000000000000000000000000008152600401611f4f90615951565b60405180910390fd5b8060108190555050565b600d60009054906101000a900473ffffffffffffffffffffffffffffffffffffffff1681565b6000806000806000601160009054906101000a900473ffffffffffffffffffffffffffffffffffffffff1673ffffffffffffffffffffffffffffffffffffffff1663d88be3c0600960009054906101000a900473ffffffffffffffffffffffffffffffffffffffff166040518263ffffffff1660e01b815260040161200d91906156c7565b60006040518083038186803b15801561202557600080fd5b505afa158015612039573d6000803e3d6000fd5b505050506040513d6000823e3d601f19601f820116820180604052506120629190810190614b3a565b94509450945094505060008090508085111561207c578490505b80841115612088578390505b80831115612094578290505b808211156120a0578190505b6000809050858214156120b657600290506120e8565b848214156120c757600490506120e7565b838214156120d857600390506120e6565b828214156120e557600190505b5b5b5b80965050505050505090565b60006121b7612101612f01565b846121b285604051806060016040528060258152602001615e7e602591396001600061212b612f01565b73ffffffffffffffffffffffffffffffffffffffff1673ffffffffffffffffffffffffffffffffffffffff16815260200190815260200160002060008a73ffffffffffffffffffffffffffffffffffffffff1673ffffffffffffffffffffffffffffffffffffffff1681526020019081526020016000205461335e9092919063ffffffff16565b612f09565b6001905092915050565b6000806121cc611522565b905060008111156122a6576122a3670de0b6b3a7640000612295600a60009054906101000a900473ffffffffffffffffffffffffffffffffffffffff1673ffffffffffffffffffffffffffffffffffffffff1663182df0f56040518163ffffffff1660e01b815260040160206040518083038186803b15801561224e57600080fd5b505afa158015612262573d6000803e3d6000fd5b505050506040513d601f19601f820116820180604052506122869190810190614c1b565b846133b990919063ffffffff16565b61342990919063ffffffff16565b90505b8091505090565b60006122c16122ba612f01565b84846130d4565b6001905092915050565b6122d3611b19565b612312576040517f08c379a000000000000000000000000000000000000000000000000000000000815260040161230990615951565b60405180910390fd5b80600e60006101000a81548173ffffffffffffffffffffffffffffffffffffffff021916908373ffffffffffffffffffffffffffffffffffffffff16021790555050565b6000600960009054906101000a900473ffffffffffffffffffffffffffffffffffffffff1673ffffffffffffffffffffffffffffffffffffffff166370a08231600d60009054906101000a900473ffffffffffffffffffffffffffffffffffffffff166040518263ffffffff1660e01b81526004016123d591906156c7565b60206040518083038186803b1580156123ed57600080fd5b505afa158015612401573d6000803e3d6000fd5b505050506040513d601f19601f820116820180604052506124259190810190614c1b565b905090565b612432611b19565b612471576040517f08c379a000000000000000000000000000000000000000000000000000000000815260040161246890615951565b60405180910390fd5b61247a81613f4b565b50565b6000600960009054906101000a900473ffffffffffffffffffffffffffffffffffffffff1673ffffffffffffffffffffffffffffffffffffffff166370a08231306040518263ffffffff1660e01b81526004016124da91906156c7565b60206040518083038186803b1580156124f257600080fd5b505afa158015612506573d6000803e3d6000fd5b505050506040513d601f19601f8201168201806040525061252a9190810190614c1b565b905090565b6001600660008282540192505081905550600060065490506000821161258a576040517f08c379a000000000000000000000000000000000000000000000000000000000815260040161258190615a11565b60405180910390fd5b6125926116c2565b6008819055506125e7333084600960009054906101000a900473ffffffffffffffffffffffffffffffffffffffff1673ffffffffffffffffffffffffffffffffffffffff16613ff1909392919063ffffffff16565b6000809050600060085414156126065782905082600881905550612632565b61262f600854612621600254866133b990919063ffffffff16565b61342990919063ffffffff16565b90505b61263a6116c2565b60088190555061264a3382614093565b50600654811461268f576040517f08c379a000000000000000000000000000000000000000000000000000000000815260040161268690615a71565b60405180910390fd5b5050565b61269b611b19565b6126da576040517f08c379a00000000000000000000000000000000000000000000000000000000081526004016126d190615951565b60405180910390fd5b80600b60006101000a81548173ffffffffffffffffffffffffffffffffffffffff021916908373ffffffffffffffffffffffffffffffffffffffff16021790555050565b6000600e60009054906101000a900473ffffffffffffffffffffffffffffffffffffffff1673ffffffffffffffffffffffffffffffffffffffff166370a08231306040518263ffffffff1660e01b815260040161277b91906156c7565b60206040518083038186803b15801561279357600080fd5b505afa1580156127a7573d6000803e3d6000fd5b505050506040513d601f19601f820116820180604052506127cb9190810190614c1b565b905090565b6000600960009054906101000a900473ffffffffffffffffffffffffffffffffffffffff1673ffffffffffffffffffffffffffffffffffffffff166370a08231600f60009054906101000a900473ffffffffffffffffffffffffffffffffffffffff166040518263ffffffff1660e01b815260040161284f91906156c7565b60206040518083038186803b15801561286757600080fd5b505afa15801561287b573d6000803e3d6000fd5b505050506040513d601f19601f8201168201806040525061289f9190810190614c1b565b905090565b60105481565b6000600160008473ffffffffffffffffffffffffffffffffffffffff1673ffffffffffffffffffffffffffffffffffffffff16815260200190815260200160002060008373ffffffffffffffffffffffffffffffffffffffff1673ffffffffffffffffffffffffffffffffffffffff16815260200190815260200160002054905092915050565b612939611b19565b612978576040517f08c379a000000000000000000000000000000000000000000000000000000000815260040161296f90615951565b60405180910390fd5b61298181613ce2565b50565b61298c611b19565b6129cb576040517f08c379a00000000000000000000000000000000000000000000000000000000081526004016129c290615951565b60405180910390fd5b6129d48161421b565b50565b6000806129e2610c1b565b90506000811115612a9b57600b60009054906101000a900473ffffffffffffffffffffffffffffffffffffffff1673ffffffffffffffffffffffffffffffffffffffff166306b3efd6306040518263ffffffff1660e01b8152600401612a4891906156c7565b60206040518083038186803b158015612a6057600080fd5b505afa158015612a74573d6000803e3d6000fd5b505050506040513d601f19601f82011682018060405250612a989190810190614c1b565b90505b8091505090565b612aaa611b19565b612ae9576040517f08c379a0000000000000000000000000000000000000000000000000000000008152600401612ae090615951565b60405180910390fd5b80600a60006101000a81548173ffffffffffffffffffffffffffffffffffffffff021916908373ffffffffffffffffffffffffffffffffffffffff16021790555050565b600a60009054906101000a900473ffffffffffffffffffffffffffffffffffffffff1681565b6000600c60009054906101000a900473ffffffffffffffffffffffffffffffffffffffff1673ffffffffffffffffffffffffffffffffffffffff16630261bf8b6040518163ffffffff1660e01b815260040160206040518083038186803b158015612bbd57600080fd5b505afa158015612bd1573d6000803e3d6000fd5b505050506040513d601f19601f82011682018060405250612bf59190810190614a21565b905090565b6000600c60009054906101000a900473ffffffffffffffffffffffffffffffffffffffff1673ffffffffffffffffffffffffffffffffffffffff1663ed6ff7606040518163ffffffff1660e01b815260040160206040518083038186803b158015612c6457600080fd5b505afa158015612c78573d6000803e3d6000fd5b505050506040513d601f19601f82011682018060405250612c9c9190810190614a21565b905090565b600960009054906101000a900473ffffffffffffffffffffffffffffffffffffffff1681565b60606001604051908082528060200260200182016040528015612d0457816020015b612cf161476b565b815260200190600190039081612ce95790505b50905060405180604001604052803073ffffffffffffffffffffffffffffffffffffffff168152602001600081525081600081518110612d4057fe5b6020026020010181905250612d5361479b565b6040518060800160405280600115158152602001600080811115612d7357fe5b8152602001600080811115612d8457fe5b8152602001848152509050612d976147d9565b600081600001906001811115612da957fe5b90816001811115612db657fe5b815250506000816020018181525050818160400181905250601054816060018181525050308160a0019073ffffffffffffffffffffffffffffffffffffffff16908173ffffffffffffffffffffffffffffffffffffffff168152505060606001604051908082528060200260200182016040528015612e4f57816020015b612e3c614845565b815260200190600190039081612e345790505b5090508181600081518110612e6057fe5b6020026020010181905250600f60009054906101000a900473ffffffffffffffffffffffffffffffffffffffff1673ffffffffffffffffffffffffffffffffffffffff1663a67a6a4585836040518363ffffffff1660e01b8152600401612ec89291906157a2565b600060405180830381600087803b158015612ee257600080fd5b505af1158015612ef6573d6000803e3d6000fd5b505050505050505050565b600033905090565b600073ffffffffffffffffffffffffffffffffffffffff168373ffffffffffffffffffffffffffffffffffffffff161415612f79576040517f08c379a0000000000000000000000000000000000000000000000000000000008152600401612f70906159f1565b60405180910390fd5b600073ffffffffffffffffffffffffffffffffffffffff168273ffffffffffffffffffffffffffffffffffffffff161415612fe9576040517f08c379a0000000000000000000000000000000000000000000000000000000008152600401612fe090615891565b60405180910390fd5b80600160008573ffffffffffffffffffffffffffffffffffffffff1673ffffffffffffffffffffffffffffffffffffffff16815260200190815260200160002060008473ffffffffffffffffffffffffffffffffffffffff1673ffffffffffffffffffffffffffffffffffffffff168152602001908152602001600020819055508173ffffffffffffffffffffffffffffffffffffffff168373ffffffffffffffffffffffffffffffffffffffff167f8c5be1e5ebec7d5bd14f71427d1e84f3dd0314c0f7b2291e5b200ac8c7c3b925836040516130c79190615b1a565b60405180910390a3505050565b600073ffffffffffffffffffffffffffffffffffffffff168373ffffffffffffffffffffffffffffffffffffffff161415613144576040517f08c379a000000000000000000000000000000000000000000000000000000000815260040161313b906159b1565b60405180910390fd5b600073ffffffffffffffffffffffffffffffffffffffff168273ffffffffffffffffffffffffffffffffffffffff1614156131b4576040517f08c379a00000000000000000000000000000000000000000000000000000000081526004016131ab90615831565b60405180910390fd5b61321f81604051806060016040528060268152602001615e30602691396000808773ffffffffffffffffffffffffffffffffffffffff1673ffffffffffffffffffffffffffffffffffffffff1681526020019081526020016000205461335e9092919063ffffffff16565b6000808573ffffffffffffffffffffffffffffffffffffffff1673ffffffffffffffffffffffffffffffffffffffff168152602001908152602001600020819055506132b2816000808573ffffffffffffffffffffffffffffffffffffffff1673ffffffffffffffffffffffffffffffffffffffff168152602001908152602001600020546136d290919063ffffffff16565b6000808473ffffffffffffffffffffffffffffffffffffffff1673ffffffffffffffffffffffffffffffffffffffff168152602001908152602001600020819055508173ffffffffffffffffffffffffffffffffffffffff168373ffffffffffffffffffffffffffffffffffffffff167fddf252ad1be2c89b69c2b068fc378daa952ba7f163c4a11628f55a4df523b3ef836040516133519190615b1a565b60405180910390a3505050565b60008383111582906133a6576040517f08c379a000000000000000000000000000000000000000000000000000000000815260040161339d919061580f565b60405180910390fd5b5060008385039050809150509392505050565b6000808314156133cc5760009050613423565b60008284029050828482816133dd57fe5b041461341e576040517f08c379a000000000000000000000000000000000000000000000000000000000815260040161341590615911565b60405180910390fd5b809150505b92915050565b600061346b83836040518060400160405280601a81526020017f536166654d6174683a206469766973696f6e206279207a65726f00000000000081525061434b565b905092915050565b60006134b583836040518060400160405280601e81526020017f536166654d6174683a207375627472616374696f6e206f766572666c6f77000081525061335e565b905092915050565b600260048111156134ca57fe5b601160149054906101000a900460ff1660048111156134e557fe5b14156134f5576134f481613f4b565b5b6003600481111561350257fe5b601160149054906101000a900460ff16600481111561351d57fe5b1415613577578061352c61271e565b101561356d576040517f08c379a0000000000000000000000000000000000000000000000000000000008152600401613564906159d1565b60405180910390fd5b61357681613961565b5b6001600481111561358457fe5b601160149054906101000a900460ff16600481111561359f57fe5b14156135f957806135ae6112b5565b10156135ef576040517f08c379a00000000000000000000000000000000000000000000000000000000081526004016135e6906159d1565b60405180910390fd5b6135f881613727565b5b60048081111561360557fe5b601160149054906101000a900460ff16600481111561362057fe5b14156136305761362f81613a8d565b5b50565b6136cd838473ffffffffffffffffffffffffffffffffffffffff1663a9059cbb905060e01b848460405160240161366b929190615742565b604051602081830303815290604052907bffffffffffffffffffffffffffffffffffffffffffffffffffffffff19166020820180517bffffffffffffffffffffffffffffffffffffffffffffffffffffffff83818316178352505050506143ac565b505050565b60008082840190508381101561371d576040517f08c379a0000000000000000000000000000000000000000000000000000000008152600401613714906158d1565b60405180910390fd5b8091505092915050565b6060600160405190808252806020026020018201604052801561376457816020015b61375161476b565b8152602001906001900390816137495790505b50905060405180604001604052803073ffffffffffffffffffffffffffffffffffffffff1681526020016000815250816000815181106137a057fe5b60200260200101819052506137b361479b565b60405180608001604052806000151581526020016000808111156137d357fe5b81526020016000808111156137e457fe5b81526020018481525090506137f76147d9565b60018160000190600181111561380957fe5b9081600181111561381657fe5b815250506000816020018181525050818160400181905250601054816060018181525050308160a0019073ffffffffffffffffffffffffffffffffffffffff16908173ffffffffffffffffffffffffffffffffffffffff1681525050606060016040519080825280602002602001820160405280156138af57816020015b61389c614845565b8152602001906001900390816138945790505b50905081816000815181106138c057fe5b6020026020010181905250600f60009054906101000a900473ffffffffffffffffffffffffffffffffffffffff1673ffffffffffffffffffffffffffffffffffffffff1663a67a6a4585836040518363ffffffff1660e01b81526004016139289291906157a2565b600060405180830381600087803b15801561394257600080fd5b505af1158015613956573d6000803e3d6000fd5b505050505050505050565b600e60009054906101000a900473ffffffffffffffffffffffffffffffffffffffff1673ffffffffffffffffffffffffffffffffffffffff1663db006a75826040518263ffffffff1660e01b81526004016139bc9190615b1a565b600060405180830381600087803b1580156139d657600080fd5b505af11580156139ea573d6000803e3d6000fd5b5050505050565b6139f9612b53565b73ffffffffffffffffffffffffffffffffffffffff1663d2d0e066600960009054906101000a900473ffffffffffffffffffffffffffffffffffffffff168360006040518463ffffffff1660e01b8152600401613a589392919061576b565b600060405180830381600087803b158015613a7257600080fd5b505af1158015613a86573d6000803e3d6000fd5b5050505050565b6000613a97610c1b565b90506000613aa36129d7565b905082811015613ae8576040517f08c379a0000000000000000000000000000000000000000000000000000000008152600401613adf906159d1565b60405180910390fd5b6000613b226001613b1484613b0688886133b990919063ffffffff16565b61342990919063ffffffff16565b6136d290919063ffffffff16565b9050613b2d8161451e565b50505050565b6000613b3d611522565b90506000811115613b6c57613b6b613b666001613b586121c1565b61347390919063ffffffff16565b613f4b565b5b613b746112b5565b90506000811115613b9057613b8f613b8a6127d0565b613727565b5b613b98610c1b565b90506000811115613bc757613bc6613bc16001613bb3611b78565b61347390919063ffffffff16565b613a8d565b5b613bcf61271e565b90506000811115613beb57613bea613be5612356565b613961565b5b50565b6000600b60009054906101000a900473ffffffffffffffffffffffffffffffffffffffff1673ffffffffffffffffffffffffffffffffffffffff166340c10f1930846040518363ffffffff1660e01b8152600401613c4d929190615742565b602060405180830381600087803b158015613c6757600080fd5b505af1158015613c7b573d6000803e3d6000fd5b505050506040513d601f19601f82011682018060405250613c9f9190810190614c1b565b11613cdf576040517f08c379a0000000000000000000000000000000000000000000000000000000008152600401613cd690615a31565b60405180910390fd5b50565b6000600a60009054906101000a900473ffffffffffffffffffffffffffffffffffffffff1673ffffffffffffffffffffffffffffffffffffffff1663a0712d68836040518263ffffffff1660e01b8152600401613d3f9190615b1a565b602060405180830381600087803b158015613d5957600080fd5b505af1158015613d6d573d6000803e3d6000fd5b505050506040513d601f19601f82011682018060405250613d919190810190614c1b565b14613dd1576040517f08c379a0000000000000000000000000000000000000000000000000000000008152600401613dc8906158b1565b60405180910390fd5b50565b6000811480613e6d575060008373ffffffffffffffffffffffffffffffffffffffff1663dd62ed3e30856040518363ffffffff1660e01b8152600401613e1b9291906156e2565b60206040518083038186803b158015613e3357600080fd5b505afa158015613e47573d6000803e3d6000fd5b505050506040513d601f19601f82011682018060405250613e6b9190810190614c1b565b145b613eac576040517f08c379a0000000000000000000000000000000000000000000000000000000008152600401613ea390615a91565b60405180910390fd5b613f46838473ffffffffffffffffffffffffffffffffffffffff1663095ea7b3905060e01b8484604051602401613ee4929190615742565b604051602081830303815290604052907bffffffffffffffffffffffffffffffffffffffffffffffffffffffff19166020820180517bffffffffffffffffffffffffffffffffffffffffffffffffffffffff83818316178352505050506143ac565b505050565b6000613f55611522565b90506000613f616121c1565b905082811015613fa6576040517f08c379a0000000000000000000000000000000000000000000000000000000008152600401613f9d906159d1565b60405180910390fd5b6000613fe06001613fd284613fc488886133b990919063ffffffff16565b61342990919063ffffffff16565b6136d290919063ffffffff16565b9050613feb81614612565b50505050565b61408d848573ffffffffffffffffffffffffffffffffffffffff166323b872dd905060e01b85858560405160240161402b9392919061570b565b604051602081830303815290604052907bffffffffffffffffffffffffffffffffffffffffffffffffffffffff19166020820180517bffffffffffffffffffffffffffffffffffffffffffffffffffffffff83818316178352505050506143ac565b50505050565b600073ffffffffffffffffffffffffffffffffffffffff168273ffffffffffffffffffffffffffffffffffffffff161415614103576040517f08c379a00000000000000000000000000000000000000000000000000000000081526004016140fa90615ad1565b60405180910390fd5b614118816002546136d290919063ffffffff16565b60028190555061416f816000808573ffffffffffffffffffffffffffffffffffffffff1673ffffffffffffffffffffffffffffffffffffffff168152602001908152602001600020546136d290919063ffffffff16565b6000808473ffffffffffffffffffffffffffffffffffffffff1673ffffffffffffffffffffffffffffffffffffffff168152602001908152602001600020819055508173ffffffffffffffffffffffffffffffffffffffff16600073ffffffffffffffffffffffffffffffffffffffff167fddf252ad1be2c89b69c2b068fc378daa952ba7f163c4a11628f55a4df523b3ef8360405161420f9190615b1a565b60405180910390a35050565b600073ffffffffffffffffffffffffffffffffffffffff168173ffffffffffffffffffffffffffffffffffffffff16141561428b576040517f08c379a000000000000000000000000000000000000000000000000000000000815260040161428290615871565b60405180910390fd5b8073ffffffffffffffffffffffffffffffffffffffff16600760009054906101000a900473ffffffffffffffffffffffffffffffffffffffff1673ffffffffffffffffffffffffffffffffffffffff167f8be0079c531659141344cd1fd0a4f28419497f9722a3daafe3b4186f6b6457e060405160405180910390a380600760006101000a81548173ffffffffffffffffffffffffffffffffffffffff021916908373ffffffffffffffffffffffffffffffffffffffff16021790555050565b60008083118290614392576040517f08c379a0000000000000000000000000000000000000000000000000000000008152600401614389919061580f565b60405180910390fd5b50600083858161439e57fe5b049050809150509392505050565b6143cb8273ffffffffffffffffffffffffffffffffffffffff16614704565b61440a576040517f08c379a000000000000000000000000000000000000000000000000000000000815260040161440190615ab1565b60405180910390fd5b600060608373ffffffffffffffffffffffffffffffffffffffff168360405161443391906156b0565b6000604051808303816000865af19150503d8060008114614470576040519150601f19603f3d011682016040523d82523d6000602084013e614475565b606091505b5091509150816144ba576040517f08c379a00000000000000000000000000000000000000000000000000000000081526004016144b1906158f1565b60405180910390fd5b60008151111561451857808060200190516144d89190810190614b11565b614517576040517f08c379a000000000000000000000000000000000000000000000000000000000815260040161450e90615a51565b60405180910390fd5b5b50505050565b6000600b60009054906101000a900473ffffffffffffffffffffffffffffffffffffffff1673ffffffffffffffffffffffffffffffffffffffff16639dc29fac30846040518363ffffffff1660e01b815260040161457d929190615742565b602060405180830381600087803b15801561459757600080fd5b505af11580156145ab573d6000803e3d6000fd5b505050506040513d601f19601f820116820180604052506145cf9190810190614c1b565b1161460f576040517f08c379a000000000000000000000000000000000000000000000000000000000815260040161460690615931565b60405180910390fd5b50565b6000600a60009054906101000a900473ffffffffffffffffffffffffffffffffffffffff1673ffffffffffffffffffffffffffffffffffffffff1663db006a75836040518263ffffffff1660e01b815260040161466f9190615b1a565b602060405180830381600087803b15801561468957600080fd5b505af115801561469d573d6000803e3d6000fd5b505050506040513d601f19601f820116820180604052506146c19190810190614c1b565b14614701576040517f08c379a00000000000000000000000000000000000000000000000000000000081526004016146f890615851565b60405180910390fd5b50565b60008060007fc5d2460186f7233c927e7db2dcc703c0e500b653ca82273b7bfad8045d85a47060001b9050833f91506000801b82141580156147465750808214155b92505050919050565b6040518060400160405280600015158152602001600081525090565b6040518060400160405280600073ffffffffffffffffffffffffffffffffffffffff168152602001600081525090565b60405180608001604052806000151581526020016000808111156147bb57fe5b81526020016000808111156147cc57fe5b8152602001600081525090565b604051806101000160405280600060018111156147f257fe5b8152602001600081526020016148066148b1565b81526020016000815260200160008152602001600073ffffffffffffffffffffffffffffffffffffffff16815260200160008152602001606081525090565b6040518061010001604052806000600181111561485e57fe5b8152602001600081526020016148726148b1565b81526020016000815260200160008152602001600073ffffffffffffffffffffffffffffffffffffffff16815260200160008152602001606081525090565b60405180608001604052806000151581526020016000808111156148d157fe5b81526020016000808111156148e257fe5b8152602001600081525090565b6000813590506148fe81615dea565b92915050565b60008151905061491381615dea565b92915050565b60008151905061492881615e01565b92915050565b600082601f83011261493f57600080fd5b815161495261494d82615b7d565b615b50565b9150808252602083016020830185838301111561496e57600080fd5b614979838284615d72565b50505092915050565b60006040828403121561499457600080fd5b61499e6040615b50565b905060006149ae84828501614919565b60008301525060206149c2848285016149e3565b60208301525092915050565b6000813590506149dd81615e18565b92915050565b6000815190506149f281615e18565b92915050565b600060208284031215614a0a57600080fd5b6000614a18848285016148ef565b91505092915050565b600060208284031215614a3357600080fd5b6000614a4184828501614904565b91505092915050565b60008060408385031215614a5d57600080fd5b6000614a6b858286016148ef565b9250506020614a7c858286016148ef565b9150509250929050565b600080600060608486031215614a9b57600080fd5b6000614aa9868287016148ef565b9350506020614aba868287016148ef565b9250506040614acb868287016149ce565b9150509250925092565b60008060408385031215614ae857600080fd5b6000614af6858286016148ef565b9250506020614b07858286016149ce565b9150509250929050565b600060208284031215614b2357600080fd5b6000614b3184828501614919565b91505092915050565b600080600080600060a08688031215614b5257600080fd5b600086015167ffffffffffffffff811115614b6c57600080fd5b614b788882890161492e565b9550506020614b89888289016149e3565b9450506040614b9a888289016149e3565b9350506060614bab888289016149e3565b9250506080614bbc888289016149e3565b9150509295509295909350565b600060408284031215614bdb57600080fd5b6000614be984828501614982565b91505092915050565b600060208284031215614c0457600080fd5b6000614c12848285016149ce565b91505092915050565b600060208284031215614c2d57600080fd5b6000614c3b848285016149e3565b91505092915050565b6000614c50838361551d565b905092915050565b6000614c648383615625565b60408301905092915050565b614c7981615c69565b82525050565b614c8881615c69565b82525050565b6000614c9982615bc9565b614ca38185615c1a565b935083602082028501614cb585615ba9565b8060005b85811015614cf15784840389528151614cd28582614c44565b9450614cdd83615c00565b925060208a01995050600181019050614cb9565b50829750879550505050505092915050565b6000614d0e82615bd4565b614d188185615c2b565b9350614d2383615bb9565b8060005b83811015614d54578151614d3b8882614c58565b9750614d4683615c0d565b925050600181019050614d27565b5085935050505092915050565b614d6a81615c7b565b82525050565b614d7981615c7b565b82525050565b6000614d8a82615bea565b614d948185615c4d565b9350614da4818560208601615d72565b80840191505092915050565b6000614dbb82615bdf565b614dc58185615c3c565b9350614dd5818560208601615d72565b614dde81615da5565b840191505092915050565b614df281615d18565b82525050565b614e0181615d2a565b82525050565b614e1081615d3c565b82525050565b614e1f81615d4e565b82525050565b614e2e81615d60565b82525050565b6000614e3f82615bf5565b614e498185615c58565b9350614e59818560208601615d72565b614e6281615da5565b840191505092915050565b6000614e7a602383615c58565b91507f45524332303a207472616e7366657220746f20746865207a65726f206164647260008301527f65737300000000000000000000000000000000000000000000000000000000006020830152604082019050919050565b6000614ee0601983615c58565b91507f434f4d504f554e443a207769746864726177206661696c6564000000000000006000830152602082019050919050565b6000614f20602683615c58565b91507f4f776e61626c653a206e6577206f776e657220697320746865207a65726f206160008301527f64647265737300000000000000000000000000000000000000000000000000006020830152604082019050919050565b6000614f86602283615c58565b91507f45524332303a20617070726f766520746f20746865207a65726f20616464726560008301527f73730000000000000000000000000000000000000000000000000000000000006020830152604082019050919050565b6000614fec601783615c58565b91507f434f4d504f554e443a20737570706c79206661696c65640000000000000000006000830152602082019050919050565b600061502c601b83615c58565b91507f536166654d6174683a206164646974696f6e206f766572666c6f7700000000006000830152602082019050919050565b600061506c602083615c58565b91507f5361666545524332303a206c6f772d6c6576656c2063616c6c206661696c65646000830152602082019050919050565b60006150ac602183615c58565b91507f536166654d6174683a206d756c7469706c69636174696f6e206f766572666c6f60008301527f77000000000000000000000000000000000000000000000000000000000000006020830152604082019050919050565b6000615112601883615c58565b91507f46554c4352554d3a207769746864726177206661696c656400000000000000006000830152602082019050919050565b6000615152602083615c58565b91507f4f776e61626c653a2063616c6c6572206973206e6f7420746865206f776e65726000830152602082019050919050565b6000615192601483615c58565b91507f696e73756666696369656e742062616c616e63650000000000000000000000006000830152602082019050919050565b60006151d2601f83615c58565b91507f7769746864726177206d7573742062652067726561746572207468616e2030006000830152602082019050919050565b6000615212602583615c58565b91507f45524332303a207472616e736665722066726f6d20746865207a65726f20616460008301527f64726573730000000000000000000000000000000000000000000000000000006020830152604082019050919050565b6000615278601283615c58565b91507f696e73756666696369656e742066756e647300000000000000000000000000006000830152602082019050919050565b60006152b8602483615c58565b91507f45524332303a20617070726f76652066726f6d20746865207a65726f2061646460008301527f72657373000000000000000000000000000000000000000000000000000000006020830152604082019050919050565b600061531e601e83615c58565b91507f6465706f736974206d7573742062652067726561746572207468616e203000006000830152602082019050919050565b600061535e601683615c58565b91507f46554c4352554d3a20737570706c79206661696c6564000000000000000000006000830152602082019050919050565b600061539e602a83615c58565b91507f5361666545524332303a204552433230206f7065726174696f6e20646964206e60008301527f6f742073756363656564000000000000000000000000000000000000000000006020830152604082019050919050565b6000615404601f83615c58565b91507f5265656e7472616e637947756172643a207265656e7472616e742063616c6c006000830152602082019050919050565b6000615444603683615c58565b91507f5361666545524332303a20617070726f76652066726f6d206e6f6e2d7a65726f60008301527f20746f206e6f6e2d7a65726f20616c6c6f77616e6365000000000000000000006020830152604082019050919050565b60006154aa601f83615c58565b91507f5361666545524332303a2063616c6c20746f206e6f6e2d636f6e7472616374006000830152602082019050919050565b60006154ea601f83615c58565b91507f45524332303a206d696e7420746f20746865207a65726f2061646472657373006000830152602082019050919050565b6000610160830160008301516155366000860182614de9565b5060208301516155496020860182615683565b50604083015161555c60408601826155d0565b50606083015161556f60c0860182615683565b50608083015161558260e0860182615683565b5060a0830151615596610100860182614c70565b5060c08301516155aa610120860182615683565b5060e08301518482036101408601526155c38282614db0565b9150508091505092915050565b6080820160008201516155e66000850182614d61565b5060208201516155f96020850182614df8565b50604082015161560c6040850182614e07565b50606082015161561f6060850182615683565b50505050565b60408201600082015161563b6000850182614c70565b50602082015161564e6020850182615683565b50505050565b60408201600082015161566a6000850182614c70565b50602082015161567d6020850182615683565b50505050565b61568c81615d01565b82525050565b61569b81615d01565b82525050565b6156aa81615d0b565b82525050565b60006156bc8284614d7f565b915081905092915050565b60006020820190506156dc6000830184614c7f565b92915050565b60006040820190506156f76000830185614c7f565b6157046020830184614c7f565b9392505050565b60006060820190506157206000830186614c7f565b61572d6020830185614c7f565b61573a6040830184615692565b949350505050565b60006040820190506157576000830185614c7f565b6157646020830184615692565b9392505050565b60006060820190506157806000830186614c7f565b61578d6020830185615692565b61579a6040830184614e25565b949350505050565b600060408201905081810360008301526157bc8185614d03565b905081810360208301526157d08184614c8e565b90509392505050565b60006020820190506157ee6000830184614d70565b92915050565b60006020820190506158096000830184614e16565b92915050565b600060208201905081810360008301526158298184614e34565b905092915050565b6000602082019050818103600083015261584a81614e6d565b9050919050565b6000602082019050818103600083015261586a81614ed3565b9050919050565b6000602082019050818103600083015261588a81614f13565b9050919050565b600060208201905081810360008301526158aa81614f79565b9050919050565b600060208201905081810360008301526158ca81614fdf565b9050919050565b600060208201905081810360008301526158ea8161501f565b9050919050565b6000602082019050818103600083015261590a8161505f565b9050919050565b6000602082019050818103600083015261592a8161509f565b9050919050565b6000602082019050818103600083015261594a81615105565b9050919050565b6000602082019050818103600083015261596a81615145565b9050919050565b6000602082019050818103600083015261598a81615185565b9050919050565b600060208201905081810360008301526159aa816151c5565b9050919050565b600060208201905081810360008301526159ca81615205565b9050919050565b600060208201905081810360008301526159ea8161526b565b9050919050565b60006020820190508181036000830152615a0a816152ab565b9050919050565b60006020820190508181036000830152615a2a81615311565b9050919050565b60006020820190508181036000830152615a4a81615351565b9050919050565b60006020820190508181036000830152615a6a81615391565b9050919050565b60006020820190508181036000830152615a8a816153f7565b9050919050565b60006020820190508181036000830152615aaa81615437565b9050919050565b60006020820190508181036000830152615aca8161549d565b9050919050565b60006020820190508181036000830152615aea816154dd565b9050919050565b6000606082019050615b066000830185615654565b615b136040830184615692565b9392505050565b6000602082019050615b2f6000830184615692565b92915050565b6000602082019050615b4a60008301846156a1565b92915050565b6000604051905081810181811067ffffffffffffffff82111715615b7357600080fd5b8060405250919050565b600067ffffffffffffffff821115615b9457600080fd5b601f19601f8301169050602081019050919050565b6000819050602082019050919050565b6000819050602082019050919050565b600081519050919050565b600081519050919050565b600081519050919050565b600081519050919050565b600081519050919050565b6000602082019050919050565b6000602082019050919050565b600082825260208201905092915050565b600082825260208201905092915050565b600082825260208201905092915050565b600081905092915050565b600082825260208201905092915050565b6000615c7482615ce1565b9050919050565b60008115159050919050565b6000819050615c9582615db6565b919050565b6000819050615ca882615dc3565b919050565b6000819050615cbb82615dd0565b919050565b6000819050615cce82615ddd565b919050565b600061ffff82169050919050565b600073ffffffffffffffffffffffffffffffffffffffff82169050919050565b6000819050919050565b600060ff82169050919050565b6000615d2382615c87565b9050919050565b6000615d3582615c9a565b9050919050565b6000615d4782615cad565b9050919050565b6000615d5982615cc0565b9050919050565b6000615d6b82615cd3565b9050919050565b60005b83811015615d90578082015181840152602081019050615d75565b83811115615d9f576000848401525b50505050565b6000601f19601f8301169050919050565b60028110615dc057fe5b50565b60018110615dcd57fe5b50565b60018110615dda57fe5b50565b60058110615de757fe5b50565b615df381615c69565b8114615dfe57600080fd5b50565b615e0a81615c7b565b8114615e1557600080fd5b50565b615e2181615d01565b8114615e2c57600080fd5b5056fe45524332303a207472616e7366657220616d6f756e7420657863656564732062616c616e636545524332303a207472616e7366657220616d6f756e74206578636565647320616c6c6f77616e636545524332303a2064656372656173656420616c6c6f77616e63652062656c6f77207a65726fa365627a7a72315820c420cc5cabf537958bab4c8ddbe92f60068596925065c14d2c668f88d27da7e36c6578706572696d656e74616cf564736f6c634300050c0040",
  "source": "pragma solidity ^0.5.0;\npragma experimental ABIEncoderV2;\n\ninterface IERC20 {\n    function totalSupply() external view returns (uint256);\n    function balanceOf(address account) external view returns (uint256);\n    function transfer(address recipient, uint256 amount) external returns (bool);\n    function allowance(address owner, address spender) external view returns (uint256);\n    function approve(address spender, uint256 amount) external returns (bool);\n    function transferFrom(address sender, address recipient, uint256 amount) external returns (bool);\n    event Transfer(address indexed from, address indexed to, uint256 value);\n    event Approval(address indexed owner, address indexed spender, uint256 value);\n}\n\ncontract Context {\n    constructor () internal { }\n    // solhint-disable-previous-line no-empty-blocks\n\n    function _msgSender() internal view returns (address payable) {\n        return msg.sender;\n    }\n\n    function _msgData() internal view returns (bytes memory) {\n        this; // silence state mutability warning without generating bytecode - see https://github.com/ethereum/solidity/issues/2691\n        return msg.data;\n    }\n}\n\ncontract Ownable is Context {\n    address private _owner;\n\n    event OwnershipTransferred(address indexed previousOwner, address indexed newOwner);\n    constructor () internal {\n        _owner = _msgSender();\n        emit OwnershipTransferred(address(0), _owner);\n    }\n    function owner() public view returns (address) {\n        return _owner;\n    }\n    modifier onlyOwner() {\n        require(isOwner(), \"Ownable: caller is not the owner\");\n        _;\n    }\n    function isOwner() public view returns (bool) {\n        return _msgSender() == _owner;\n    }\n    function renounceOwnership() public onlyOwner {\n        emit OwnershipTransferred(_owner, address(0));\n        _owner = address(0);\n    }\n    function transferOwnership(address newOwner) public onlyOwner {\n        _transferOwnership(newOwner);\n    }\n    function _transferOwnership(address newOwner) internal {\n        require(newOwner != address(0), \"Ownable: new owner is the zero address\");\n        emit OwnershipTransferred(_owner, newOwner);\n        _owner = newOwner;\n    }\n}\n\ncontract ERC20 is Context, IERC20 {\n    using SafeMath for uint256;\n\n    mapping (address => uint256) _balances;\n\n    mapping (address => mapping (address => uint256)) private _allowances;\n\n    uint256 _totalSupply;\n    function totalSupply() public view returns (uint256) {\n        return _totalSupply;\n    }\n    function balanceOf(address account) public view returns (uint256) {\n        return _balances[account];\n    }\n    function transfer(address recipient, uint256 amount) public returns (bool) {\n        _transfer(_msgSender(), recipient, amount);\n        return true;\n    }\n    function allowance(address owner, address spender) public view returns (uint256) {\n        return _allowances[owner][spender];\n    }\n    function approve(address spender, uint256 amount) public returns (bool) {\n        _approve(_msgSender(), spender, amount);\n        return true;\n    }\n    function transferFrom(address sender, address recipient, uint256 amount) public returns (bool) {\n        _transfer(sender, recipient, amount);\n        _approve(sender, _msgSender(), _allowances[sender][_msgSender()].sub(amount, \"ERC20: transfer amount exceeds allowance\"));\n        return true;\n    }\n    function increaseAllowance(address spender, uint256 addedValue) public returns (bool) {\n        _approve(_msgSender(), spender, _allowances[_msgSender()][spender].add(addedValue));\n        return true;\n    }\n    function decreaseAllowance(address spender, uint256 subtractedValue) public returns (bool) {\n        _approve(_msgSender(), spender, _allowances[_msgSender()][spender].sub(subtractedValue, \"ERC20: decreased allowance below zero\"));\n        return true;\n    }\n    function _transfer(address sender, address recipient, uint256 amount) internal {\n        require(sender != address(0), \"ERC20: transfer from the zero address\");\n        require(recipient != address(0), \"ERC20: transfer to the zero address\");\n\n        _balances[sender] = _balances[sender].sub(amount, \"ERC20: transfer amount exceeds balance\");\n        _balances[recipient] = _balances[recipient].add(amount);\n        emit Transfer(sender, recipient, amount);\n    }\n    function _mint(address account, uint256 amount) internal {\n        require(account != address(0), \"ERC20: mint to the zero address\");\n\n        _totalSupply = _totalSupply.add(amount);\n        _balances[account] = _balances[account].add(amount);\n        emit Transfer(address(0), account, amount);\n    }\n    function _burn(address account, uint256 amount) internal {\n        require(account != address(0), \"ERC20: burn from the zero address\");\n\n        _balances[account] = _balances[account].sub(amount, \"ERC20: burn amount exceeds balance\");\n        _totalSupply = _totalSupply.sub(amount);\n        emit Transfer(account, address(0), amount);\n    }\n    function _approve(address owner, address spender, uint256 amount) internal {\n        require(owner != address(0), \"ERC20: approve from the zero address\");\n        require(spender != address(0), \"ERC20: approve to the zero address\");\n\n        _allowances[owner][spender] = amount;\n        emit Approval(owner, spender, amount);\n    }\n    function _burnFrom(address account, uint256 amount) internal {\n        _burn(account, amount);\n        _approve(account, _msgSender(), _allowances[account][_msgSender()].sub(amount, \"ERC20: burn amount exceeds allowance\"));\n    }\n}\n\ncontract ERC20Detailed is IERC20 {\n    string private _name;\n    string private _symbol;\n    uint8 private _decimals;\n\n    constructor (string memory name, string memory symbol, uint8 decimals) public {\n        _name = name;\n        _symbol = symbol;\n        _decimals = decimals;\n    }\n    function name() public view returns (string memory) {\n        return _name;\n    }\n    function symbol() public view returns (string memory) {\n        return _symbol;\n    }\n    function decimals() public view returns (uint8) {\n        return _decimals;\n    }\n}\n\ncontract ReentrancyGuard {\n    uint256 private _guardCounter;\n\n    constructor () internal {\n        _guardCounter = 1;\n    }\n\n    modifier nonReentrant() {\n        _guardCounter += 1;\n        uint256 localCounter = _guardCounter;\n        _;\n        require(localCounter == _guardCounter, \"ReentrancyGuard: reentrant call\");\n    }\n}\n\nlibrary SafeMath {\n    function add(uint256 a, uint256 b) internal pure returns (uint256) {\n        uint256 c = a + b;\n        require(c >= a, \"SafeMath: addition overflow\");\n\n        return c;\n    }\n    function sub(uint256 a, uint256 b) internal pure returns (uint256) {\n        return sub(a, b, \"SafeMath: subtraction overflow\");\n    }\n    function sub(uint256 a, uint256 b, string memory errorMessage) internal pure returns (uint256) {\n        require(b <= a, errorMessage);\n        uint256 c = a - b;\n\n        return c;\n    }\n    function mul(uint256 a, uint256 b) internal pure returns (uint256) {\n        if (a == 0) {\n            return 0;\n        }\n\n        uint256 c = a * b;\n        require(c / a == b, \"SafeMath: multiplication overflow\");\n\n        return c;\n    }\n    function div(uint256 a, uint256 b) internal pure returns (uint256) {\n        return div(a, b, \"SafeMath: division by zero\");\n    }\n    function div(uint256 a, uint256 b, string memory errorMessage) internal pure returns (uint256) {\n        // Solidity only automatically asserts when dividing by 0\n        require(b > 0, errorMessage);\n        uint256 c = a / b;\n\n        return c;\n    }\n    function mod(uint256 a, uint256 b) internal pure returns (uint256) {\n        return mod(a, b, \"SafeMath: modulo by zero\");\n    }\n    function mod(uint256 a, uint256 b, string memory errorMessage) internal pure returns (uint256) {\n        require(b != 0, errorMessage);\n        return a % b;\n    }\n}\n\nlibrary Address {\n    function isContract(address account) internal view returns (bool) {\n        bytes32 codehash;\n        bytes32 accountHash = 0xc5d2460186f7233c927e7db2dcc703c0e500b653ca82273b7bfad8045d85a470;\n        // solhint-disable-next-line no-inline-assembly\n        assembly { codehash := extcodehash(account) }\n        return (codehash != 0x0 && codehash != accountHash);\n    }\n    function toPayable(address account) internal pure returns (address payable) {\n        return address(uint160(account));\n    }\n    function sendValue(address payable recipient, uint256 amount) internal {\n        require(address(this).balance >= amount, \"Address: insufficient balance\");\n\n        // solhint-disable-next-line avoid-call-value\n        (bool success, ) = recipient.call.value(amount)(\"\");\n        require(success, \"Address: unable to send value, recipient may have reverted\");\n    }\n}\n\nlibrary SafeERC20 {\n    using SafeMath for uint256;\n    using Address for address;\n\n    function safeTransfer(IERC20 token, address to, uint256 value) internal {\n        callOptionalReturn(token, abi.encodeWithSelector(token.transfer.selector, to, value));\n    }\n\n    function safeTransferFrom(IERC20 token, address from, address to, uint256 value) internal {\n        callOptionalReturn(token, abi.encodeWithSelector(token.transferFrom.selector, from, to, value));\n    }\n\n    function safeApprove(IERC20 token, address spender, uint256 value) internal {\n        require((value == 0) || (token.allowance(address(this), spender) == 0),\n            \"SafeERC20: approve from non-zero to non-zero allowance\"\n        );\n        callOptionalReturn(token, abi.encodeWithSelector(token.approve.selector, spender, value));\n    }\n\n    function safeIncreaseAllowance(IERC20 token, address spender, uint256 value) internal {\n        uint256 newAllowance = token.allowance(address(this), spender).add(value);\n        callOptionalReturn(token, abi.encodeWithSelector(token.approve.selector, spender, newAllowance));\n    }\n\n    function safeDecreaseAllowance(IERC20 token, address spender, uint256 value) internal {\n        uint256 newAllowance = token.allowance(address(this), spender).sub(value, \"SafeERC20: decreased allowance below zero\");\n        callOptionalReturn(token, abi.encodeWithSelector(token.approve.selector, spender, newAllowance));\n    }\n    function callOptionalReturn(IERC20 token, bytes memory data) private {\n        require(address(token).isContract(), \"SafeERC20: call to non-contract\");\n\n        // solhint-disable-next-line avoid-low-level-calls\n        (bool success, bytes memory returndata) = address(token).call(data);\n        require(success, \"SafeERC20: low-level call failed\");\n\n        if (returndata.length > 0) { // Return data is optional\n            // solhint-disable-next-line max-line-length\n            require(abi.decode(returndata, (bool)), \"SafeERC20: ERC20 operation did not succeed\");\n        }\n    }\n}\n\ninterface Compound {\n    function mint ( uint256 mintAmount ) external returns ( uint256 );\n    function redeem(uint256 redeemTokens) external returns (uint256);\n    function exchangeRateStored() external view returns (uint);\n}\n\ninterface Fulcrum {\n    function mint(address receiver, uint256 amount) external payable returns (uint256 mintAmount);\n    function burn(address receiver, uint256 burnAmount) external returns (uint256 loanAmountPaid);\n    function assetBalanceOf(address _owner) external view returns (uint256 balance);\n}\n\ninterface ILendingPoolAddressesProvider {\n    function getLendingPool() external view returns (address);\n}\n\ninterface Aave {\n    function deposit(address _reserve, uint256 _amount, uint16 _referralCode) external;\n}\n\ninterface AToken {\n    function redeem(uint256 amount) external;\n}\n\ninterface IIEarnManager {\n    function recommend(address _token) external view returns (\n      string memory choice,\n      uint256 capr,\n      uint256 iapr,\n      uint256 aapr,\n      uint256 dapr\n    );\n}\n\ncontract Structs {\n    struct Val {\n        uint256 value;\n    }\n\n    enum ActionType {\n        Deposit,   // supply tokens\n        Withdraw  // borrow tokens\n    }\n\n    enum AssetDenomination {\n        Wei // the amount is denominated in wei\n    }\n\n    enum AssetReference {\n        Delta // the amount is given as a delta from the current value\n    }\n\n    struct AssetAmount {\n        bool sign; // true if positive\n        AssetDenomination denomination;\n        AssetReference ref;\n        uint256 value;\n    }\n\n    struct ActionArgs {\n        ActionType actionType;\n        uint256 accountId;\n        AssetAmount amount;\n        uint256 primaryMarketId;\n        uint256 secondaryMarketId;\n        address otherAddress;\n        uint256 otherAccountId;\n        bytes data;\n    }\n\n    struct Info {\n        address owner;  // The address that owns the account\n        uint256 number; // A nonce that allows a single address to control many accounts\n    }\n\n    struct Wei {\n        bool sign; // true if positive\n        uint256 value;\n    }\n}\n\ncontract DyDx is Structs {\n    function getAccountWei(Info memory account, uint256 marketId) public view returns (Wei memory);\n    function operate(Info[] memory, ActionArgs[] memory) public;\n}\n\ninterface LendingPoolAddressesProvider {\n    function getLendingPool() external view returns (address);\n    function getLendingPoolCore() external view returns (address);\n}\n\ncontract yUSDC is ERC20, ERC20Detailed, ReentrancyGuard, Structs, Ownable {\n  using SafeERC20 for IERC20;\n  using Address for address;\n  using SafeMath for uint256;\n\n  uint256 public pool;\n  address public token;\n  address public compound;\n  address public fulcrum;\n  address public aave;\n  address public aavePool;\n  address public aaveToken;\n  address public dydx;\n  uint256 public dToken;\n  address public apr;\n\n  enum Lender {\n      NONE,\n      DYDX,\n      COMPOUND,\n      AAVE,\n      FULCRUM\n  }\n\n  Lender public provider = Lender.NONE;\n\n  constructor () public ERC20Detailed(\"iearn DAI\", \"yDAI\", 18) {\n    token = address(0xA0b86991c6218b36c1d19D4a2e9Eb0cE3606eB48);\n    apr = address(0xdD6d648C991f7d47454354f4Ef326b04025a48A8);\n    dydx = address(0x1E0447b19BB6EcFdAe1e4AE1694b0C3659614e4e);\n    aave = address(0x24a42fD28C976A61Df5D00D0599C34c4f90748c8);\n    aavePool = address(0x3dfd23A6c5E8BbcFc9581d2E864a68feb6a076d3);\n    fulcrum = address(0xF013406A0B1d544238083DF0B93ad0d2cBE0f65f);\n    aaveToken = address(0x9bA00D6856a4eDF4665BcA2C2309936572473B7E);\n    compound = address(0x39AA39c021dfbaE8faC545936693aC917d5E7563);\n    dToken = 2;\n    approveToken();\n  }\n\n  function set_new_APR(address _new_APR) public onlyOwner {\n      apr = _new_APR;\n  }\n  function set_new_FULCRUM(address _new_FULCRUM) public onlyOwner {\n      fulcrum = _new_FULCRUM;\n  }\n  function set_new_COMPOUND(address _new_COMPOUND) public onlyOwner {\n      compound = _new_COMPOUND;\n  }\n  function set_new_DTOKEN(uint256 _new_DTOKEN) public onlyOwner {\n      dToken = _new_DTOKEN;\n  }\n  function set_new_AAVE(address _new_AAVE) public onlyOwner {\n      aave = _new_AAVE;\n  }\n  function set_new_APOOL(address _new_APOOL) public onlyOwner {\n      aavePool = _new_APOOL;\n  }\n  function set_new_ATOKEN(address _new_ATOKEN) public onlyOwner {\n      aaveToken = _new_ATOKEN;\n  }\n\n  // Quick swap low gas method for pool swaps\n  function deposit(uint256 _amount)\n      external\n      nonReentrant\n  {\n      require(_amount > 0, \"deposit must be greater than 0\");\n      pool = calcPoolValueInToken();\n\n      IERC20(token).safeTransferFrom(msg.sender, address(this), _amount);\n\n      // Calculate pool shares\n      uint256 shares = 0;\n      if (pool == 0) {\n        shares = _amount;\n        pool = _amount;\n      } else {\n        shares = (_amount.mul(_totalSupply)).div(pool);\n      }\n      pool = calcPoolValueInToken();\n      _mint(msg.sender, shares);\n  }\n\n  // No rebalance implementation for lower fees and faster swaps\n  function withdraw(uint256 _shares)\n      external\n      nonReentrant\n  {\n      require(_shares > 0, \"withdraw must be greater than 0\");\n\n      uint256 ibalance = balanceOf(msg.sender);\n      require(_shares <= ibalance, \"insufficient balance\");\n\n      // Could have over value from cTokens\n      pool = calcPoolValueInToken();\n      // Calc to redeem before updating balances\n      uint256 r = (pool.mul(_shares)).div(_totalSupply);\n\n\n      _balances[msg.sender] = _balances[msg.sender].sub(_shares, \"redeem amount exceeds balance\");\n      _totalSupply = _totalSupply.sub(_shares);\n\n      emit Transfer(msg.sender, address(0), _shares);\n\n      // Check balance\n      uint256 b = IERC20(token).balanceOf(address(this));\n      if (b < r) {\n        _withdrawSome(r.sub(b));\n      }\n\n      IERC20(token).safeTransfer(msg.sender, r);\n      pool = calcPoolValueInToken();\n  }\n\n  function recommend() public view returns (Lender) {\n    (,uint256 capr,uint256 iapr,uint256 aapr,uint256 dapr) = IIEarnManager(apr).recommend(token);\n    uint256 max = 0;\n    if (capr > max) {\n      max = capr;\n    }\n    if (iapr > max) {\n      max = iapr;\n    }\n    if (aapr > max) {\n      max = aapr;\n    }\n    if (dapr > max) {\n      max = dapr;\n    }\n\n    Lender newProvider = Lender.NONE;\n    if (max == capr) {\n      newProvider = Lender.COMPOUND;\n    } else if (max == iapr) {\n      newProvider = Lender.FULCRUM;\n    } else if (max == aapr) {\n      newProvider = Lender.AAVE;\n    } else if (max == dapr) {\n      newProvider = Lender.DYDX;\n    }\n    return newProvider;\n  }\n\n  function getAave() public view returns (address) {\n    return LendingPoolAddressesProvider(aave).getLendingPool();\n  }\n  function getAaveCore() public view returns (address) {\n    return LendingPoolAddressesProvider(aave).getLendingPoolCore();\n  }\n\n  function approveToken() public {\n      IERC20(token).safeApprove(compound, uint(-1));\n      IERC20(token).safeApprove(dydx, uint(-1));\n      IERC20(token).safeApprove(getAaveCore(), uint(-1));\n      IERC20(token).safeApprove(fulcrum, uint(-1));\n  }\n\n  function balance() public view returns (uint256) {\n    return IERC20(token).balanceOf(address(this));\n  }\n  function balanceDydxAvailable() public view returns (uint256) {\n      return IERC20(token).balanceOf(dydx);\n  }\n  function balanceDydx() public view returns (uint256) {\n      Wei memory bal = DyDx(dydx).getAccountWei(Info(address(this), 0), dToken);\n      return bal.value;\n  }\n  function balanceCompound() public view returns (uint256) {\n      return IERC20(compound).balanceOf(address(this));\n  }\n  function balanceCompoundInToken() public view returns (uint256) {\n    // Mantisa 1e18 to decimals\n    uint256 b = balanceCompound();\n    if (b > 0) {\n      b = b.mul(Compound(compound).exchangeRateStored()).div(1e18);\n    }\n    return b;\n  }\n  function balanceFulcrumAvailable() public view returns (uint256) {\n      return IERC20(token).balanceOf(fulcrum);\n  }\n  function balanceFulcrumInToken() public view returns (uint256) {\n    uint256 b = balanceFulcrum();\n    if (b > 0) {\n      b = Fulcrum(fulcrum).assetBalanceOf(address(this));\n    }\n    return b;\n  }\n  function balanceFulcrum() public view returns (uint256) {\n    return IERC20(fulcrum).balanceOf(address(this));\n  }\n  function balanceAaveAvailable() public view returns (uint256) {\n      return IERC20(token).balanceOf(aavePool);\n  }\n  function balanceAave() public view returns (uint256) {\n    return IERC20(aaveToken).balanceOf(address(this));\n  }\n\n  function rebalance() public {\n    Lender newProvider = recommend();\n\n    if (newProvider != provider) {\n      _withdrawAll();\n    }\n\n    if (balance() > 0) {\n      if (newProvider == Lender.DYDX) {\n        _supplyDydx(balance());\n      } else if (newProvider == Lender.FULCRUM) {\n        _supplyFulcrum(balance());\n      } else if (newProvider == Lender.COMPOUND) {\n        _supplyCompound(balance());\n      } else if (newProvider == Lender.AAVE) {\n        _supplyAave(balance());\n      }\n    }\n\n    provider = newProvider;\n  }\n\n  function _withdrawAll() internal {\n    uint256 amount = balanceCompound();\n    if (amount > 0) {\n      _withdrawSomeCompound(balanceCompoundInToken().sub(1));\n    }\n    amount = balanceDydx();\n    if (amount > 0) {\n      _withdrawDydx(balanceDydxAvailable());\n    }\n    amount = balanceFulcrum();\n    if (amount > 0) {\n      _withdrawSomeFulcrum(balanceFulcrumAvailable().sub(1));\n    }\n    amount = balanceAave();\n    if (amount > 0) {\n      _withdrawAave(balanceAaveAvailable());\n    }\n  }\n\n  function _withdrawSomeCompound(uint256 _amount) internal {\n    uint256 b = balanceCompound();\n    uint256 bT = balanceCompoundInToken();\n    require(bT >= _amount, \"insufficient funds\");\n    // can have unintentional rounding errors\n    uint256 amount = (b.mul(_amount)).div(bT).add(1);\n    _withdrawCompound(amount);\n  }\n\n  function _withdrawSomeFulcrum(uint256 _amount) internal {\n    uint256 b = balanceFulcrum();\n    uint256 bT = balanceFulcrumInToken();\n    require(bT >= _amount, \"insufficient funds\");\n    // can have unintentional rounding errors\n    uint256 amount = (b.mul(_amount)).div(bT).add(1);\n    _withdrawFulcrum(amount);\n  }\n\n  function _withdrawSome(uint256 _amount) internal {\n    if (provider == Lender.COMPOUND) {\n      _withdrawSomeCompound(_amount);\n    }\n    if (provider == Lender.AAVE) {\n      require(balanceAave() >= _amount, \"insufficient funds\");\n      _withdrawAave(_amount);\n    }\n    if (provider == Lender.DYDX) {\n      require(balanceDydx() >= _amount, \"insufficient funds\");\n      _withdrawDydx(_amount);\n    }\n    if (provider == Lender.FULCRUM) {\n      _withdrawSomeFulcrum(_amount);\n    }\n  }\n\n  function _supplyDydx(uint256 amount) internal {\n      Info[] memory infos = new Info[](1);\n      infos[0] = Info(address(this), 0);\n\n      AssetAmount memory amt = AssetAmount(true, AssetDenomination.Wei, AssetReference.Delta, amount);\n      ActionArgs memory act;\n      act.actionType = ActionType.Deposit;\n      act.accountId = 0;\n      act.amount = amt;\n      act.primaryMarketId = dToken;\n      act.otherAddress = address(this);\n\n      ActionArgs[] memory args = new ActionArgs[](1);\n      args[0] = act;\n\n      DyDx(dydx).operate(infos, args);\n  }\n\n  function _supplyAave(uint amount) internal {\n      Aave(getAave()).deposit(token, amount, 0);\n  }\n  function _supplyFulcrum(uint amount) internal {\n      require(Fulcrum(fulcrum).mint(address(this), amount) > 0, \"FULCRUM: supply failed\");\n  }\n  function _supplyCompound(uint amount) internal {\n      require(Compound(compound).mint(amount) == 0, \"COMPOUND: supply failed\");\n  }\n  function _withdrawAave(uint amount) internal {\n      AToken(aaveToken).redeem(amount);\n  }\n  function _withdrawFulcrum(uint amount) internal {\n      require(Fulcrum(fulcrum).burn(address(this), amount) > 0, \"FULCRUM: withdraw failed\");\n  }\n  function _withdrawCompound(uint amount) internal {\n      require(Compound(compound).redeem(amount) == 0, \"COMPOUND: withdraw failed\");\n  }\n\n  function _withdrawDydx(uint256 amount) internal {\n      Info[] memory infos = new Info[](1);\n      infos[0] = Info(address(this), 0);\n\n      AssetAmount memory amt = AssetAmount(false, AssetDenomination.Wei, AssetReference.Delta, amount);\n      ActionArgs memory act;\n      act.actionType = ActionType.Withdraw;\n      act.accountId = 0;\n      act.amount = amt;\n      act.primaryMarketId = dToken;\n      act.otherAddress = address(this);\n\n      ActionArgs[] memory args = new ActionArgs[](1);\n      args[0] = act;\n\n      DyDx(dydx).operate(infos, args);\n  }\n\n  function calcPoolValueInToken() public view returns (uint) {\n    return balanceCompoundInToken()\n      .add(balanceFulcrumInToken())\n      .add(balanceDydx())\n      .add(balanceAave())\n      .add(balance());\n  }\n\n  function getPricePerFullShare() public view returns (uint) {\n    uint _pool = calcPoolValueInToken();\n    return _pool.mul(1e18).div(_totalSupply);\n  }\n\n  function withdrawSomeCompound(uint256 _amount) public onlyOwner {\n    _withdrawSomeCompound(_amount);\n  }\n  function withdrawSomeFulcrum(uint256 _amount) public onlyOwner {\n    _withdrawSomeFulcrum(_amount);\n  }\n  function withdrawAave(uint amount) public onlyOwner {\n      _withdrawAave(amount);\n  }\n  function withdrawDydx(uint256 amount) public onlyOwner {\n      _withdrawDydx(amount);\n  }\n\n  function supplyDydx(uint256 amount) public onlyOwner {\n      _supplyDydx(amount);\n  }\n  function supplyAave(uint amount) public onlyOwner {\n    _supplyAave(amount);\n  }\n  function supplyFulcrum(uint amount) public onlyOwner {\n      _supplyFulcrum(amount);\n  }\n  function supplyCompound(uint amount) public onlyOwner {\n      _supplyCompound(amount);\n  }\n}\n",
  "sourcePath": "D:/ftm/itoken/contracts/YUSDCv3.sol",
  "compiler": {
    "name": "solc",
    "version": "0.5.12+commit.7709ece9.Emscripten.clang"
  },
  "schemaVersion": "3.0.19",
  "updatedAt": "2020-02-26T11:07:25.291Z",
  "devdoc": {
    "methods": {}
  },
  "userdoc": {
    "methods": {}
  }
}