{
  "contractName": "yUSDT",
  "abi": [
    {
      "inputs": [],
      "payable": false,
      "stateMutability": "nonpayable",
      "type": "constructor"
    },
    {
      "anonymous": false,
      "inputs": [
        {
          "indexed": true,
          "internalType": "address",
          "name": "owner",
          "type": "address"
        },
        {
          "indexed": true,
          "internalType": "address",
          "name": "spender",
          "type": "address"
        },
        {
          "indexed": false,
          "internalType": "uint256",
          "name": "value",
          "type": "uint256"
        }
      ],
      "name": "Approval",
      "type": "event"
    },
    {
      "anonymous": false,
      "inputs": [
        {
          "indexed": true,
          "internalType": "address",
          "name": "previousOwner",
          "type": "address"
        },
        {
          "indexed": true,
          "internalType": "address",
          "name": "newOwner",
          "type": "address"
        }
      ],
      "name": "OwnershipTransferred",
      "type": "event"
    },
    {
      "anonymous": false,
      "inputs": [
        {
          "indexed": true,
          "internalType": "address",
          "name": "from",
          "type": "address"
        },
        {
          "indexed": true,
          "internalType": "address",
          "name": "to",
          "type": "address"
        },
        {
          "indexed": false,
          "internalType": "uint256",
          "name": "value",
          "type": "uint256"
        }
      ],
      "name": "Transfer",
      "type": "event"
    },
    {
      "payable": true,
      "stateMutability": "payable",
      "type": "fallback"
    },
    {
      "constant": true,
      "inputs": [],
      "name": "aave",
      "outputs": [
        {
          "internalType": "address",
          "name": "",
          "type": "address"
        }
      ],
      "payable": false,
      "stateMutability": "view",
      "type": "function"
    },
    {
      "constant": true,
      "inputs": [],
      "name": "aaveToken",
      "outputs": [
        {
          "internalType": "address",
          "name": "",
          "type": "address"
        }
      ],
      "payable": false,
      "stateMutability": "view",
      "type": "function"
    },
    {
      "constant": true,
      "inputs": [
        {
          "internalType": "address",
          "name": "owner",
          "type": "address"
        },
        {
          "internalType": "address",
          "name": "spender",
          "type": "address"
        }
      ],
      "name": "allowance",
      "outputs": [
        {
          "internalType": "uint256",
          "name": "",
          "type": "uint256"
        }
      ],
      "payable": false,
      "stateMutability": "view",
      "type": "function"
    },
    {
      "constant": false,
      "inputs": [
        {
          "internalType": "address",
          "name": "spender",
          "type": "address"
        },
        {
          "internalType": "uint256",
          "name": "amount",
          "type": "uint256"
        }
      ],
      "name": "approve",
      "outputs": [
        {
          "internalType": "bool",
          "name": "",
          "type": "bool"
        }
      ],
      "payable": false,
      "stateMutability": "nonpayable",
      "type": "function"
    },
    {
      "constant": true,
      "inputs": [],
      "name": "apr",
      "outputs": [
        {
          "internalType": "address",
          "name": "",
          "type": "address"
        }
      ],
      "payable": false,
      "stateMutability": "view",
      "type": "function"
    },
    {
      "constant": true,
      "inputs": [
        {
          "internalType": "address",
          "name": "account",
          "type": "address"
        }
      ],
      "name": "balanceOf",
      "outputs": [
        {
          "internalType": "uint256",
          "name": "",
          "type": "uint256"
        }
      ],
      "payable": false,
      "stateMutability": "view",
      "type": "function"
    },
    {
      "constant": true,
      "inputs": [],
      "name": "compound",
      "outputs": [
        {
          "internalType": "address",
          "name": "",
          "type": "address"
        }
      ],
      "payable": false,
      "stateMutability": "view",
      "type": "function"
    },
    {
      "constant": true,
      "inputs": [],
      "name": "dToken",
      "outputs": [
        {
          "internalType": "uint256",
          "name": "",
          "type": "uint256"
        }
      ],
      "payable": false,
      "stateMutability": "view",
      "type": "function"
    },
    {
      "constant": true,
      "inputs": [],
      "name": "decimals",
      "outputs": [
        {
          "internalType": "uint8",
          "name": "",
          "type": "uint8"
        }
      ],
      "payable": false,
      "stateMutability": "view",
      "type": "function"
    },
    {
      "constant": false,
      "inputs": [
        {
          "internalType": "address",
          "name": "spender",
          "type": "address"
        },
        {
          "internalType": "uint256",
          "name": "subtractedValue",
          "type": "uint256"
        }
      ],
      "name": "decreaseAllowance",
      "outputs": [
        {
          "internalType": "bool",
          "name": "",
          "type": "bool"
        }
      ],
      "payable": false,
      "stateMutability": "nonpayable",
      "type": "function"
    },
    {
      "constant": true,
      "inputs": [],
      "name": "dydx",
      "outputs": [
        {
          "internalType": "address",
          "name": "",
          "type": "address"
        }
      ],
      "payable": false,
      "stateMutability": "view",
      "type": "function"
    },
    {
      "constant": true,
      "inputs": [],
      "name": "fulcrum",
      "outputs": [
        {
          "internalType": "address",
          "name": "",
          "type": "address"
        }
      ],
      "payable": false,
      "stateMutability": "view",
      "type": "function"
    },
    {
      "constant": false,
      "inputs": [
        {
          "internalType": "address",
          "name": "spender",
          "type": "address"
        },
        {
          "internalType": "uint256",
          "name": "addedValue",
          "type": "uint256"
        }
      ],
      "name": "increaseAllowance",
      "outputs": [
        {
          "internalType": "bool",
          "name": "",
          "type": "bool"
        }
      ],
      "payable": false,
      "stateMutability": "nonpayable",
      "type": "function"
    },
    {
      "constant": true,
      "inputs": [],
      "name": "isOwner",
      "outputs": [
        {
          "internalType": "bool",
          "name": "",
          "type": "bool"
        }
      ],
      "payable": false,
      "stateMutability": "view",
      "type": "function"
    },
    {
      "constant": true,
      "inputs": [],
      "name": "name",
      "outputs": [
        {
          "internalType": "string",
          "name": "",
          "type": "string"
        }
      ],
      "payable": false,
      "stateMutability": "view",
      "type": "function"
    },
    {
      "constant": true,
      "inputs": [],
      "name": "owner",
      "outputs": [
        {
          "internalType": "address",
          "name": "",
          "type": "address"
        }
      ],
      "payable": false,
      "stateMutability": "view",
      "type": "function"
    },
    {
      "constant": true,
      "inputs": [],
      "name": "pool",
      "outputs": [
        {
          "internalType": "uint256",
          "name": "",
          "type": "uint256"
        }
      ],
      "payable": false,
      "stateMutability": "view",
      "type": "function"
    },
    {
      "constant": true,
      "inputs": [],
      "name": "provider",
      "outputs": [
        {
          "internalType": "enum yUSDT.Lender",
          "name": "",
          "type": "uint8"
        }
      ],
      "payable": false,
      "stateMutability": "view",
      "type": "function"
    },
    {
      "constant": false,
      "inputs": [],
      "name": "renounceOwnership",
      "outputs": [],
      "payable": false,
      "stateMutability": "nonpayable",
      "type": "function"
    },
    {
      "constant": true,
      "inputs": [],
      "name": "symbol",
      "outputs": [
        {
          "internalType": "string",
          "name": "",
          "type": "string"
        }
      ],
      "payable": false,
      "stateMutability": "view",
      "type": "function"
    },
    {
      "constant": true,
      "inputs": [],
      "name": "token",
      "outputs": [
        {
          "internalType": "address",
          "name": "",
          "type": "address"
        }
      ],
      "payable": false,
      "stateMutability": "view",
      "type": "function"
    },
    {
      "constant": true,
      "inputs": [],
      "name": "totalSupply",
      "outputs": [
        {
          "internalType": "uint256",
          "name": "",
          "type": "uint256"
        }
      ],
      "payable": false,
      "stateMutability": "view",
      "type": "function"
    },
    {
      "constant": false,
      "inputs": [
        {
          "internalType": "address",
          "name": "recipient",
          "type": "address"
        },
        {
          "internalType": "uint256",
          "name": "amount",
          "type": "uint256"
        }
      ],
      "name": "transfer",
      "outputs": [
        {
          "internalType": "bool",
          "name": "",
          "type": "bool"
        }
      ],
      "payable": false,
      "stateMutability": "nonpayable",
      "type": "function"
    },
    {
      "constant": false,
      "inputs": [
        {
          "internalType": "address",
          "name": "sender",
          "type": "address"
        },
        {
          "internalType": "address",
          "name": "recipient",
          "type": "address"
        },
        {
          "internalType": "uint256",
          "name": "amount",
          "type": "uint256"
        }
      ],
      "name": "transferFrom",
      "outputs": [
        {
          "internalType": "bool",
          "name": "",
          "type": "bool"
        }
      ],
      "payable": false,
      "stateMutability": "nonpayable",
      "type": "function"
    },
    {
      "constant": false,
      "inputs": [
        {
          "internalType": "address",
          "name": "newOwner",
          "type": "address"
        }
      ],
      "name": "transferOwnership",
      "outputs": [],
      "payable": false,
      "stateMutability": "nonpayable",
      "type": "function"
    },
    {
      "constant": false,
      "inputs": [
        {
          "internalType": "address",
          "name": "_new_APR",
          "type": "address"
        }
      ],
      "name": "set_new_APR",
      "outputs": [],
      "payable": false,
      "stateMutability": "nonpayable",
      "type": "function"
    },
    {
      "constant": false,
      "inputs": [
        {
          "internalType": "address",
          "name": "_new_FULCRUM",
          "type": "address"
        }
      ],
      "name": "set_new_FULCRUM",
      "outputs": [],
      "payable": false,
      "stateMutability": "nonpayable",
      "type": "function"
    },
    {
      "constant": false,
      "inputs": [
        {
          "internalType": "address",
          "name": "_new_COMPOUND",
          "type": "address"
        }
      ],
      "name": "set_new_COMPOUND",
      "outputs": [],
      "payable": false,
      "stateMutability": "nonpayable",
      "type": "function"
    },
    {
      "constant": false,
      "inputs": [
        {
          "internalType": "uint256",
          "name": "_new_DTOKEN",
          "type": "uint256"
        }
      ],
      "name": "set_new_DTOKEN",
      "outputs": [],
      "payable": false,
      "stateMutability": "nonpayable",
      "type": "function"
    },
    {
      "constant": false,
      "inputs": [
        {
          "internalType": "uint256",
          "name": "_amount",
          "type": "uint256"
        }
      ],
      "name": "deposit",
      "outputs": [],
      "payable": false,
      "stateMutability": "nonpayable",
      "type": "function"
    },
    {
      "constant": false,
      "inputs": [
        {
          "internalType": "uint256",
          "name": "_shares",
          "type": "uint256"
        }
      ],
      "name": "withdraw",
      "outputs": [],
      "payable": false,
      "stateMutability": "nonpayable",
      "type": "function"
    },
    {
      "constant": true,
      "inputs": [],
      "name": "recommend",
      "outputs": [
        {
          "internalType": "enum yUSDT.Lender",
          "name": "",
          "type": "uint8"
        }
      ],
      "payable": false,
      "stateMutability": "view",
      "type": "function"
    },
    {
      "constant": false,
      "inputs": [
        {
          "internalType": "uint256",
          "name": "amount",
          "type": "uint256"
        }
      ],
      "name": "supplyDydx",
      "outputs": [
        {
          "internalType": "uint256",
          "name": "",
          "type": "uint256"
        }
      ],
      "payable": false,
      "stateMutability": "nonpayable",
      "type": "function"
    },
    {
      "constant": true,
      "inputs": [],
      "name": "getAave",
      "outputs": [
        {
          "internalType": "address",
          "name": "",
          "type": "address"
        }
      ],
      "payable": false,
      "stateMutability": "view",
      "type": "function"
    },
    {
      "constant": true,
      "inputs": [],
      "name": "getAaveCore",
      "outputs": [
        {
          "internalType": "address",
          "name": "",
          "type": "address"
        }
      ],
      "payable": false,
      "stateMutability": "view",
      "type": "function"
    },
    {
      "constant": false,
      "inputs": [],
      "name": "approveToken",
      "outputs": [],
      "payable": false,
      "stateMutability": "nonpayable",
      "type": "function"
    },
    {
      "constant": true,
      "inputs": [],
      "name": "balance",
      "outputs": [
        {
          "internalType": "uint256",
          "name": "",
          "type": "uint256"
        }
      ],
      "payable": false,
      "stateMutability": "view",
      "type": "function"
    },
    {
      "constant": true,
      "inputs": [],
      "name": "balanceDydx",
      "outputs": [
        {
          "internalType": "uint256",
          "name": "",
          "type": "uint256"
        }
      ],
      "payable": false,
      "stateMutability": "view",
      "type": "function"
    },
    {
      "constant": true,
      "inputs": [],
      "name": "balanceCompound",
      "outputs": [
        {
          "internalType": "uint256",
          "name": "",
          "type": "uint256"
        }
      ],
      "payable": false,
      "stateMutability": "view",
      "type": "function"
    },
    {
      "constant": true,
      "inputs": [],
      "name": "balanceCompoundInToken",
      "outputs": [
        {
          "internalType": "uint256",
          "name": "",
          "type": "uint256"
        }
      ],
      "payable": false,
      "stateMutability": "view",
      "type": "function"
    },
    {
      "constant": true,
      "inputs": [],
      "name": "balanceFulcrumInToken",
      "outputs": [
        {
          "internalType": "uint256",
          "name": "",
          "type": "uint256"
        }
      ],
      "payable": false,
      "stateMutability": "view",
      "type": "function"
    },
    {
      "constant": true,
      "inputs": [],
      "name": "balanceFulcrum",
      "outputs": [
        {
          "internalType": "uint256",
          "name": "",
          "type": "uint256"
        }
      ],
      "payable": false,
      "stateMutability": "view",
      "type": "function"
    },
    {
      "constant": true,
      "inputs": [],
      "name": "balanceAave",
      "outputs": [
        {
          "internalType": "uint256",
          "name": "",
          "type": "uint256"
        }
      ],
      "payable": false,
      "stateMutability": "view",
      "type": "function"
    },
    {
      "constant": false,
      "inputs": [],
      "name": "rebalance",
      "outputs": [],
      "payable": false,
      "stateMutability": "nonpayable",
      "type": "function"
    },
    {
      "constant": false,
      "inputs": [
        {
          "internalType": "uint256",
          "name": "amount",
          "type": "uint256"
        }
      ],
      "name": "supplyAave",
      "outputs": [],
      "payable": false,
      "stateMutability": "nonpayable",
      "type": "function"
    },
    {
      "constant": false,
      "inputs": [
        {
          "internalType": "uint256",
          "name": "amount",
          "type": "uint256"
        }
      ],
      "name": "supplyFulcrum",
      "outputs": [],
      "payable": false,
      "stateMutability": "nonpayable",
      "type": "function"
    },
    {
      "constant": false,
      "inputs": [
        {
          "internalType": "uint256",
          "name": "amount",
          "type": "uint256"
        }
      ],
      "name": "supplyCompound",
      "outputs": [],
      "payable": false,
      "stateMutability": "nonpayable",
      "type": "function"
    },
    {
      "constant": true,
      "inputs": [],
      "name": "calcPoolValueInToken",
      "outputs": [
        {
          "internalType": "uint256",
          "name": "",
          "type": "uint256"
        }
      ],
      "payable": false,
      "stateMutability": "view",
      "type": "function"
    },
    {
      "constant": true,
      "inputs": [],
      "name": "getPricePerFullShare",
      "outputs": [
        {
          "internalType": "uint256",
          "name": "",
          "type": "uint256"
        }
      ],
      "payable": false,
      "stateMutability": "view",
      "type": "function"
    }
  ],
  "bytecode": "0x60806040526000601060146101000a81548160ff021916908360048111156200002457fe5b02179055503480156200003657600080fd5b506040518060400160405280600a81526020017f696561726e2055534454000000000000000000000000000000000000000000008152506040518060400160405280600581526020017f795553445400000000000000000000000000000000000000000000000000000081525060068260039080519060200190620000bd92919062000a9b565b508160049080519060200190620000d692919062000a9b565b5080600560006101000a81548160ff021916908360ff16021790555050505060016006819055506200010d6200043b60201b60201c565b600760006101000a81548173ffffffffffffffffffffffffffffffffffffffff021916908373ffffffffffffffffffffffffffffffffffffffff160217905550600760009054906101000a900473ffffffffffffffffffffffffffffffffffffffff1673ffffffffffffffffffffffffffffffffffffffff16600073ffffffffffffffffffffffffffffffffffffffff167f8be0079c531659141344cd1fd0a4f28419497f9722a3daafe3b4186f6b6457e060405160405180910390a373dac17f958d2ee523a2206206994597c13d831ec7600960006101000a81548173ffffffffffffffffffffffffffffffffffffffff021916908373ffffffffffffffffffffffffffffffffffffffff16021790555073dd6d648c991f7d47454354f4ef326b04025a48a8601060006101000a81548173ffffffffffffffffffffffffffffffffffffffff021916908373ffffffffffffffffffffffffffffffffffffffff160217905550731e0447b19bb6ecfdae1e4ae1694b0c3659614e4e600e60006101000a81548173ffffffffffffffffffffffffffffffffffffffff021916908373ffffffffffffffffffffffffffffffffffffffff1602179055507324a42fd28c976a61df5d00d0599c34c4f90748c8600c60006101000a81548173ffffffffffffffffffffffffffffffffffffffff021916908373ffffffffffffffffffffffffffffffffffffffff16021790555073f013406a0b1d544238083df0b93ad0d2cbe0f65f600b60006101000a81548173ffffffffffffffffffffffffffffffffffffffff021916908373ffffffffffffffffffffffffffffffffffffffff1602179055507371fc860f7d3a592a4a98740e39db31d25db65ae8600d60006101000a81548173ffffffffffffffffffffffffffffffffffffffff021916908373ffffffffffffffffffffffffffffffffffffffff1602179055507339aa39c021dfbae8fac545936693ac917d5e7563600a60006101000a81548173ffffffffffffffffffffffffffffffffffffffff021916908373ffffffffffffffffffffffffffffffffffffffff1602179055506000600f81905550620004356200044360201b60201c565b62000fb0565b600033905090565b620004d9600a60009054906101000a900473ffffffffffffffffffffffffffffffffffffffff167fffffffffffffffffffffffffffffffffffffffffffffffffffffffffffffffff600960009054906101000a900473ffffffffffffffffffffffffffffffffffffffff1673ffffffffffffffffffffffffffffffffffffffff166200068a60201b6200341b179092919060201c565b6200056f600e60009054906101000a900473ffffffffffffffffffffffffffffffffffffffff167fffffffffffffffffffffffffffffffffffffffffffffffffffffffffffffffff600960009054906101000a900473ffffffffffffffffffffffffffffffffffffffff1673ffffffffffffffffffffffffffffffffffffffff166200068a60201b6200341b179092919060201c565b620005f2620005836200081560201b60201c565b7fffffffffffffffffffffffffffffffffffffffffffffffffffffffffffffffff600960009054906101000a900473ffffffffffffffffffffffffffffffffffffffff1673ffffffffffffffffffffffffffffffffffffffff166200068a60201b6200341b179092919060201c565b62000688600b60009054906101000a900473ffffffffffffffffffffffffffffffffffffffff167fffffffffffffffffffffffffffffffffffffffffffffffffffffffffffffffff600960009054906101000a900473ffffffffffffffffffffffffffffffffffffffff1673ffffffffffffffffffffffffffffffffffffffff166200068a60201b6200341b179092919060201c565b565b60008114806200072a575060008373ffffffffffffffffffffffffffffffffffffffff1663dd62ed3e30856040518363ffffffff1660e01b8152600401620006d492919062000dd9565b60206040518083038186803b158015620006ed57600080fd5b505afa15801562000702573d6000803e3d6000fd5b505050506040513d601f19601f8201168201806040525062000728919081019062000be7565b145b6200076c576040517f08c379a0000000000000000000000000000000000000000000000000000000008152600401620007639062000e77565b60405180910390fd5b62000810838473ffffffffffffffffffffffffffffffffffffffff1663095ea7b3905060e01b8484604051602401620007a792919062000e06565b604051602081830303815290604052907bffffffffffffffffffffffffffffffffffffffffffffffffffffffff19166020820180517bffffffffffffffffffffffffffffffffffffffffffffffffffffffff8381831617835250505050620008c060201b60201c565b505050565b6000600c60009054906101000a900473ffffffffffffffffffffffffffffffffffffffff1673ffffffffffffffffffffffffffffffffffffffff1663ed6ff7606040518163ffffffff1660e01b815260040160206040518083038186803b1580156200088057600080fd5b505afa15801562000895573d6000803e3d6000fd5b505050506040513d601f19601f82011682018060405250620008bb919081019062000b8f565b905090565b620008ec8273ffffffffffffffffffffffffffffffffffffffff1662000a4f60201b6200462a1760201c565b6200092e576040517f08c379a0000000000000000000000000000000000000000000000000000000008152600401620009259062000e99565b60405180910390fd5b600060608373ffffffffffffffffffffffffffffffffffffffff168360405162000959919062000dc0565b6000604051808303816000865af19150503d806000811462000998576040519150601f19603f3d011682016040523d82523d6000602084013e6200099d565b606091505b509150915081620009e5576040517f08c379a0000000000000000000000000000000000000000000000000000000008152600401620009dc9062000e33565b60405180910390fd5b60008151111562000a49578080602001905162000a06919081019062000bbb565b62000a48576040517f08c379a000000000000000000000000000000000000000000000000000000000815260040162000a3f9062000e55565b60405180910390fd5b5b50505050565b60008060007fc5d2460186f7233c927e7db2dcc703c0e500b653ca82273b7bfad8045d85a47060001b9050833f91506000801b821415801562000a925750808214155b92505050919050565b828054600181600116156101000203166002900490600052602060002090601f016020900481019282601f1062000ade57805160ff191683800117855562000b0f565b8280016001018555821562000b0f579182015b8281111562000b0e57825182559160200191906001019062000af1565b5b50905062000b1e919062000b22565b5090565b62000b4791905b8082111562000b4357600081600090555060010162000b29565b5090565b90565b60008151905062000b5b8162000f62565b92915050565b60008151905062000b728162000f7c565b92915050565b60008151905062000b898162000f96565b92915050565b60006020828403121562000ba257600080fd5b600062000bb28482850162000b4a565b91505092915050565b60006020828403121562000bce57600080fd5b600062000bde8482850162000b61565b91505092915050565b60006020828403121562000bfa57600080fd5b600062000c0a8482850162000b78565b91505092915050565b62000c1e8162000ee2565b82525050565b600062000c318262000ebb565b62000c3d818562000ec6565b935062000c4f81856020860162000f2c565b80840191505092915050565b600062000c6a60208362000ed1565b91507f5361666545524332303a206c6f772d6c6576656c2063616c6c206661696c65646000830152602082019050919050565b600062000cac602a8362000ed1565b91507f5361666545524332303a204552433230206f7065726174696f6e20646964206e60008301527f6f742073756363656564000000000000000000000000000000000000000000006020830152604082019050919050565b600062000d1460368362000ed1565b91507f5361666545524332303a20617070726f76652066726f6d206e6f6e2d7a65726f60008301527f20746f206e6f6e2d7a65726f20616c6c6f77616e6365000000000000000000006020830152604082019050919050565b600062000d7c601f8362000ed1565b91507f5361666545524332303a2063616c6c20746f206e6f6e2d636f6e7472616374006000830152602082019050919050565b62000dba8162000f22565b82525050565b600062000dce828462000c24565b915081905092915050565b600060408201905062000df0600083018562000c13565b62000dff602083018462000c13565b9392505050565b600060408201905062000e1d600083018562000c13565b62000e2c602083018462000daf565b9392505050565b6000602082019050818103600083015262000e4e8162000c5b565b9050919050565b6000602082019050818103600083015262000e708162000c9d565b9050919050565b6000602082019050818103600083015262000e928162000d05565b9050919050565b6000602082019050818103600083015262000eb48162000d6d565b9050919050565b600081519050919050565b600081905092915050565b600082825260208201905092915050565b600062000eef8262000f02565b9050919050565b60008115159050919050565b600073ffffffffffffffffffffffffffffffffffffffff82169050919050565b6000819050919050565b60005b8381101562000f4c57808201518184015260208101905062000f2f565b8381111562000f5c576000848401525b50505050565b62000f6d8162000ee2565b811462000f7957600080fd5b50565b62000f878162000ef6565b811462000f9357600080fd5b50565b62000fa18162000f22565b811462000fad57600080fd5b50565b615e948062000fc06000396000f3fe6080604052600436106102ae5760003560e01c8063819faf7b11610175578063b6b55f25116100dc578063f2fde38b11610095578063f69e20461161006f578063f69e204614610a7f578063f7c1ec7714610aaa578063f82ce27d14610ad5578063fc0c546a14610b00576102ae565b8063f2fde38b14610a02578063f5a41dea14610a2b578063f5ff191614610a56576102ae565b8063b6b55f25146108f4578063bbf316441461091d578063cf8ca42614610946578063d9d7858a14610971578063dd62ed3e1461099c578063e849d659146109d9576102ae565b80639ff011b91161012e5780639ff011b9146107d0578063a160176d146107f9578063a457c2d714610824578063a728797114610861578063a9059cbb1461088c578063b69ef8a8146108c9576102ae565b8063819faf7b146106e25780638da5cb5b1461070d5780638e4ec6ef146107385780638f32d59b1461076357806395d89b411461078e57806399b71d5c146107b9576102ae565b806339c0a7e11161021957806370a08231116101d257806370a08231146105f85780637137ef9914610635578063715018a61461066057806377c7b8fc146106775780637d7c2a1c146106a25780638124955c146106b9576102ae565b806339c0a7e1146104fa578063463574731461052557806357ded9c91461054e57806358782c211461057957806361c1ec55146105a457806365aab749146105cf576102ae565b806316f0115b1161026b57806316f0115b146103d657806318160ddd1461040157806323b872dd1461042c5780632e1a7d4d14610469578063313ce5671461049257806339509351146104bd576102ae565b806306636c1c146102b057806306a3fe59146102ed57806306fdde0314610318578063085d488314610343578063095ea7b31461036e5780630eb2a267146103ab575b005b3480156102bc57600080fd5b506102d760048036036102d29190810190614b18565b610b2b565b6040516102e49190615a93565b60405180910390f35b3480156102f957600080fd5b50610302610d69565b60405161030f91906155fc565b60405180910390f35b34801561032457600080fd5b5061032d610d8f565b60405161033a9190615788565b60405180910390f35b34801561034f57600080fd5b50610358610e31565b604051610365919061576d565b60405180910390f35b34801561037a57600080fd5b50610395600480360361039091908101906149fb565b610e44565b6040516103a29190615752565b60405180910390f35b3480156103b757600080fd5b506103c0610e62565b6040516103cd9190615a93565b60405180910390f35b3480156103e257600080fd5b506103eb610f14565b6040516103f89190615a93565b60405180910390f35b34801561040d57600080fd5b50610416610f1a565b6040516104239190615a93565b60405180910390f35b34801561043857600080fd5b50610453600480360361044e91908101906149ac565b610f24565b6040516104609190615752565b60405180910390f35b34801561047557600080fd5b50610490600480360361048b9190810190614b18565b610ffd565b005b34801561049e57600080fd5b506104a76113a7565b6040516104b49190615aae565b60405180910390f35b3480156104c957600080fd5b506104e460048036036104df91908101906149fb565b6113be565b6040516104f19190615752565b60405180910390f35b34801561050657600080fd5b5061050f611471565b60405161051c9190615a93565b60405180910390f35b34801561053157600080fd5b5061054c6004803603610547919081019061491e565b611561565b005b34801561055a57600080fd5b506105636115ec565b60405161057091906155fc565b60405180910390f35b34801561058557600080fd5b5061058e611612565b60405161059b91906155fc565b60405180910390f35b3480156105b057600080fd5b506105b9611638565b6040516105c69190615a93565b60405180910390f35b3480156105db57600080fd5b506105f660048036036105f19190810190614b18565b6116ea565b005b34801561060457600080fd5b5061061f600480360361061a919081019061491e565b611786565b60405161062c9190615a93565b60405180910390f35b34801561064157600080fd5b5061064a6117ce565b6040516106579190615a93565b60405180910390f35b34801561066c57600080fd5b50610675611841565b005b34801561068357600080fd5b5061068c611949565b6040516106999190615a93565b60405180910390f35b3480156106ae57600080fd5b506106b761198b565b005b3480156106c557600080fd5b506106e060048036036106db9190810190614b18565b611ad2565b005b3480156106ee57600080fd5b506106f7611bc6565b60405161070491906155fc565b60405180910390f35b34801561071957600080fd5b50610722611bec565b60405161072f91906155fc565b60405180910390f35b34801561074457600080fd5b5061074d611c16565b60405161075a91906155fc565b60405180910390f35b34801561076f57600080fd5b50610778611c3c565b6040516107859190615752565b60405180910390f35b34801561079a57600080fd5b506107a3611c9b565b6040516107b09190615788565b60405180910390f35b3480156107c557600080fd5b506107ce611d3d565b005b3480156107dc57600080fd5b506107f760048036036107f29190810190614b18565b611f60565b005b34801561080557600080fd5b5061080e611fb1565b60405161081b919061576d565b60405180910390f35b34801561083057600080fd5b5061084b600480360361084691908101906149fb565b61211d565b6040516108589190615752565b60405180910390f35b34801561086d57600080fd5b506108766121ea565b6040516108839190615a93565b60405180910390f35b34801561089857600080fd5b506108b360048036036108ae91908101906149fb565b6122d6565b6040516108c09190615752565b60405180910390f35b3480156108d557600080fd5b506108de6122f4565b6040516108eb9190615a93565b60405180910390f35b34801561090057600080fd5b5061091b60048036036109169190810190614b18565b6123a6565b005b34801561092957600080fd5b50610944600480360361093f919081019061491e565b61250a565b005b34801561095257600080fd5b5061095b612595565b6040516109689190615a93565b60405180910390f35b34801561097d57600080fd5b50610986612647565b6040516109939190615a93565b60405180910390f35b3480156109a857600080fd5b506109c360048036036109be9190810190614970565b61264d565b6040516109d09190615a93565b60405180910390f35b3480156109e557600080fd5b50610a0060048036036109fb9190810190614b18565b6126d4565b005b348015610a0e57600080fd5b50610a296004803603610a24919081019061491e565b6127c6565b005b348015610a3757600080fd5b50610a40612819565b604051610a4d9190615a93565b60405180910390f35b348015610a6257600080fd5b50610a7d6004803603610a78919081019061491e565b6128e4565b005b348015610a8b57600080fd5b50610a9461296f565b604051610aa191906155fc565b60405180910390f35b348015610ab657600080fd5b50610abf612995565b604051610acc91906155fc565b60405180910390f35b348015610ae157600080fd5b50610aea612a3c565b604051610af791906155fc565b60405180910390f35b348015610b0c57600080fd5b50610b15612ae3565b604051610b2291906155fc565b60405180910390f35b600060606001604051908082528060200260200182016040528015610b6a57816020015b610b57614675565b815260200190600190039081610b4f5790505b50905060405180604001604052803073ffffffffffffffffffffffffffffffffffffffff168152602001600081525081600081518110610ba657fe5b6020026020010181905250610bb96146a5565b6040518060800160405280600115158152602001600080811115610bd957fe5b8152602001600080811115610bea57fe5b8152602001858152509050610bfd6146e3565b600081600001906001811115610c0f57fe5b90816001811115610c1c57fe5b815250506000816020018181525050818160400181905250600f54816060018181525050308160a0019073ffffffffffffffffffffffffffffffffffffffff16908173ffffffffffffffffffffffffffffffffffffffff168152505060606001604051908082528060200260200182016040528015610cb557816020015b610ca261474f565b815260200190600190039081610c9a5790505b5090508181600081518110610cc657fe5b6020026020010181905250600e60009054906101000a900473ffffffffffffffffffffffffffffffffffffffff1673ffffffffffffffffffffffffffffffffffffffff1663a67a6a4585836040518363ffffffff1660e01b8152600401610d2e92919061571b565b600060405180830381600087803b158015610d4857600080fd5b505af1158015610d5c573d6000803e3d6000fd5b5050505050505050919050565b600d60009054906101000a900473ffffffffffffffffffffffffffffffffffffffff1681565b606060038054600181600116156101000203166002900480601f016020809104026020016040519081016040528092919081815260200182805460018160011615610100020316600290048015610e275780601f10610dfc57610100808354040283529160200191610e27565b820191906000526020600020905b815481529060010190602001808311610e0a57829003601f168201915b5050505050905090565b601060149054906101000a900460ff1681565b6000610e58610e51612b09565b8484612b11565b6001905092915050565b6000600b60009054906101000a900473ffffffffffffffffffffffffffffffffffffffff1673ffffffffffffffffffffffffffffffffffffffff166370a08231306040518263ffffffff1660e01b8152600401610ebf9190615617565b60206040518083038186803b158015610ed757600080fd5b505afa158015610eeb573d6000803e3d6000fd5b505050506040513d601f19601f82011682018060405250610f0f9190810190614b41565b905090565b60085481565b6000600254905090565b6000610f31848484612cdc565b610ff284610f3d612b09565b610fed85604051806060016040528060288152602001615e0560289139600160008b73ffffffffffffffffffffffffffffffffffffffff1673ffffffffffffffffffffffffffffffffffffffff1681526020019081526020016000206000610fa3612b09565b73ffffffffffffffffffffffffffffffffffffffff1673ffffffffffffffffffffffffffffffffffffffff16815260200190815260200160002054612f669092919063ffffffff16565b612b11565b600190509392505050565b60016006600082825401925050819055506000600654905060008211611058576040517f08c379a000000000000000000000000000000000000000000000000000000000815260040161104f9061590a565b60405180910390fd5b600061106333611786565b9050808311156110a8576040517f08c379a000000000000000000000000000000000000000000000000000000000815260040161109f906158ea565b60405180910390fd5b6110b0612fc1565b60088190555060006110e16002546110d38660085461303490919063ffffffff16565b6130a490919063ffffffff16565b905061116b846040518060400160405280601d81526020017f72656465656d20616d6f756e7420657863656564732062616c616e63650000008152506000803373ffffffffffffffffffffffffffffffffffffffff1673ffffffffffffffffffffffffffffffffffffffff16815260200190815260200160002054612f669092919063ffffffff16565b6000803373ffffffffffffffffffffffffffffffffffffffff1673ffffffffffffffffffffffffffffffffffffffff168152602001908152602001600020819055506111c2846002546130ee90919063ffffffff16565b600281905550600073ffffffffffffffffffffffffffffffffffffffff163373ffffffffffffffffffffffffffffffffffffffff167fddf252ad1be2c89b69c2b068fc378daa952ba7f163c4a11628f55a4df523b3ef866040516112269190615a93565b60405180910390a36000600960009054906101000a900473ffffffffffffffffffffffffffffffffffffffff1673ffffffffffffffffffffffffffffffffffffffff166370a08231306040518263ffffffff1660e01b815260040161128b9190615617565b60206040518083038186803b1580156112a357600080fd5b505afa1580156112b7573d6000803e3d6000fd5b505050506040513d601f19601f820116820180604052506112db9190810190614b41565b905081811015611301576113006112fb82846130ee90919063ffffffff16565b613138565b5b61134e3383600960009054906101000a900473ffffffffffffffffffffffffffffffffffffffff1673ffffffffffffffffffffffffffffffffffffffff166132ae9092919063ffffffff16565b611356612fc1565b60088190555050505060065481146113a3576040517f08c379a000000000000000000000000000000000000000000000000000000000815260040161139a906159ea565b60405180910390fd5b5050565b6000600560009054906101000a900460ff16905090565b60006114676113cb612b09565b8461146285600160006113dc612b09565b73ffffffffffffffffffffffffffffffffffffffff1673ffffffffffffffffffffffffffffffffffffffff16815260200190815260200160002060008973ffffffffffffffffffffffffffffffffffffffff1673ffffffffffffffffffffffffffffffffffffffff1681526020019081526020016000205461334d90919063ffffffff16565b612b11565b6001905092915050565b600061147b6147bb565b600e60009054906101000a900473ffffffffffffffffffffffffffffffffffffffff1673ffffffffffffffffffffffffffffffffffffffff1663c190c2ec60405180604001604052803073ffffffffffffffffffffffffffffffffffffffff1681526020016000815250600f546040518363ffffffff1660e01b8152600401611505929190615a6a565b604080518083038186803b15801561151c57600080fd5b505afa158015611530573d6000803e3d6000fd5b505050506040513d601f19601f820116820180604052506115549190810190614aef565b9050806020015191505090565b611569611c3c565b6115a8576040517f08c379a000000000000000000000000000000000000000000000000000000000815260040161159f906158ca565b60405180910390fd5b80601060006101000a81548173ffffffffffffffffffffffffffffffffffffffff021916908373ffffffffffffffffffffffffffffffffffffffff16021790555050565b601060009054906101000a900473ffffffffffffffffffffffffffffffffffffffff1681565b600b60009054906101000a900473ffffffffffffffffffffffffffffffffffffffff1681565b6000600a60009054906101000a900473ffffffffffffffffffffffffffffffffffffffff1673ffffffffffffffffffffffffffffffffffffffff166370a08231306040518263ffffffff1660e01b81526004016116959190615617565b60206040518083038186803b1580156116ad57600080fd5b505afa1580156116c1573d6000803e3d6000fd5b505050506040513d601f19601f820116820180604052506116e59190810190614b41565b905090565b6116f2612995565b73ffffffffffffffffffffffffffffffffffffffff1663d2d0e066600960009054906101000a900473ffffffffffffffffffffffffffffffffffffffff168360006040518463ffffffff1660e01b8152600401611751939291906156e4565b600060405180830381600087803b15801561176b57600080fd5b505af115801561177f573d6000803e3d6000fd5b5050505050565b60008060008373ffffffffffffffffffffffffffffffffffffffff1673ffffffffffffffffffffffffffffffffffffffff168152602001908152602001600020549050919050565b600061183c6117db6122f4565b61182e6117e6612595565b6118206117f1611471565b6118126117fc612819565b6118046121ea565b61334d90919063ffffffff16565b61334d90919063ffffffff16565b61334d90919063ffffffff16565b61334d90919063ffffffff16565b905090565b611849611c3c565b611888576040517f08c379a000000000000000000000000000000000000000000000000000000000815260040161187f906158ca565b60405180910390fd5b600073ffffffffffffffffffffffffffffffffffffffff16600760009054906101000a900473ffffffffffffffffffffffffffffffffffffffff1673ffffffffffffffffffffffffffffffffffffffff167f8be0079c531659141344cd1fd0a4f28419497f9722a3daafe3b4186f6b6457e060405160405180910390a36000600760006101000a81548173ffffffffffffffffffffffffffffffffffffffff021916908373ffffffffffffffffffffffffffffffffffffffff160217905550565b6000806119546117ce565b9050611985600254611977670de0b6b3a76400008461303490919063ffffffff16565b6130a490919063ffffffff16565b91505090565b6000611995611fb1565b9050601060149054906101000a900460ff1660048111156119b257fe5b8160048111156119be57fe5b146119cc576119cb6133a2565b5b60006119d66122f4565b1115611aac57600160048111156119e957fe5b8160048111156119f557fe5b1415611a1157611a0b611a066122f4565b610b2b565b50611aab565b600480811115611a1d57fe5b816004811115611a2957fe5b1415611a4457611a3f611a3a6122f4565b611ad2565b611aaa565b60026004811115611a5157fe5b816004811115611a5d57fe5b1415611a7857611a73611a6e6122f4565b6126d4565b611aa9565b60036004811115611a8557fe5b816004811115611a9157fe5b1415611aa857611aa7611aa26122f4565b6116ea565b5b5b5b5b5b80601060146101000a81548160ff02191690836004811115611aca57fe5b021790555050565b6000600b60009054906101000a900473ffffffffffffffffffffffffffffffffffffffff1673ffffffffffffffffffffffffffffffffffffffff166340c10f1930846040518363ffffffff1660e01b8152600401611b31929190615632565b602060405180830381600087803b158015611b4b57600080fd5b505af1158015611b5f573d6000803e3d6000fd5b505050506040513d601f19601f82011682018060405250611b839190810190614b41565b11611bc3576040517f08c379a0000000000000000000000000000000000000000000000000000000008152600401611bba906159aa565b60405180910390fd5b50565b600c60009054906101000a900473ffffffffffffffffffffffffffffffffffffffff1681565b6000600760009054906101000a900473ffffffffffffffffffffffffffffffffffffffff16905090565b600e60009054906101000a900473ffffffffffffffffffffffffffffffffffffffff1681565b6000600760009054906101000a900473ffffffffffffffffffffffffffffffffffffffff1673ffffffffffffffffffffffffffffffffffffffff16611c7f612b09565b73ffffffffffffffffffffffffffffffffffffffff1614905090565b606060048054600181600116156101000203166002900480601f016020809104026020016040519081016040528092919081815260200182805460018160011615610100020316600290048015611d335780601f10611d0857610100808354040283529160200191611d33565b820191906000526020600020905b815481529060010190602001808311611d1657829003601f168201915b5050505050905090565b611dcc600a60009054906101000a900473ffffffffffffffffffffffffffffffffffffffff167fffffffffffffffffffffffffffffffffffffffffffffffffffffffffffffffff600960009054906101000a900473ffffffffffffffffffffffffffffffffffffffff1673ffffffffffffffffffffffffffffffffffffffff1661341b9092919063ffffffff16565b611e5b600e60009054906101000a900473ffffffffffffffffffffffffffffffffffffffff167fffffffffffffffffffffffffffffffffffffffffffffffffffffffffffffffff600960009054906101000a900473ffffffffffffffffffffffffffffffffffffffff1673ffffffffffffffffffffffffffffffffffffffff1661341b9092919063ffffffff16565b611ecf611e66612a3c565b7fffffffffffffffffffffffffffffffffffffffffffffffffffffffffffffffff600960009054906101000a900473ffffffffffffffffffffffffffffffffffffffff1673ffffffffffffffffffffffffffffffffffffffff1661341b9092919063ffffffff16565b611f5e600b60009054906101000a900473ffffffffffffffffffffffffffffffffffffffff167fffffffffffffffffffffffffffffffffffffffffffffffffffffffffffffffff600960009054906101000a900473ffffffffffffffffffffffffffffffffffffffff1673ffffffffffffffffffffffffffffffffffffffff1661341b9092919063ffffffff16565b565b611f68611c3c565b611fa7576040517f08c379a0000000000000000000000000000000000000000000000000000000008152600401611f9e906158ca565b60405180910390fd5b80600f8190555050565b6000806000806000601060009054906101000a900473ffffffffffffffffffffffffffffffffffffffff1673ffffffffffffffffffffffffffffffffffffffff1663d88be3c0600960009054906101000a900473ffffffffffffffffffffffffffffffffffffffff166040518263ffffffff1660e01b815260040161203691906155fc565b60006040518083038186803b15801561204e57600080fd5b505afa158015612062573d6000803e3d6000fd5b505050506040513d6000823e3d601f19601f8201168201806040525061208b9190810190614a60565b9450945094509450506000809050808511156120a5578490505b808411156120b1578390505b808311156120bd578290505b808211156120c9578190505b6000809050858214156120df5760029050612111565b848214156120f05760049050612110565b83821415612101576003905061210f565b8282141561210e57600190505b5b5b5b80965050505050505090565b60006121e061212a612b09565b846121db85604051806060016040528060258152602001615e2d6025913960016000612154612b09565b73ffffffffffffffffffffffffffffffffffffffff1673ffffffffffffffffffffffffffffffffffffffff16815260200190815260200160002060008a73ffffffffffffffffffffffffffffffffffffffff1673ffffffffffffffffffffffffffffffffffffffff16815260200190815260200160002054612f669092919063ffffffff16565b612b11565b6001905092915050565b6000806121f5611638565b905060008111156122cf576122cc670de0b6b3a76400006122be600a60009054906101000a900473ffffffffffffffffffffffffffffffffffffffff1673ffffffffffffffffffffffffffffffffffffffff1663182df0f56040518163ffffffff1660e01b815260040160206040518083038186803b15801561227757600080fd5b505afa15801561228b573d6000803e3d6000fd5b505050506040513d601f19601f820116820180604052506122af9190810190614b41565b8461303490919063ffffffff16565b6130a490919063ffffffff16565b90505b8091505090565b60006122ea6122e3612b09565b8484612cdc565b6001905092915050565b6000600960009054906101000a900473ffffffffffffffffffffffffffffffffffffffff1673ffffffffffffffffffffffffffffffffffffffff166370a08231306040518263ffffffff1660e01b81526004016123519190615617565b60206040518083038186803b15801561236957600080fd5b505afa15801561237d573d6000803e3d6000fd5b505050506040513d601f19601f820116820180604052506123a19190810190614b41565b905090565b60016006600082825401925050819055506000600654905060008211612401576040517f08c379a00000000000000000000000000000000000000000000000000000000081526004016123f89061598a565b60405180910390fd5b612409612fc1565b60088190555061245e333084600960009054906101000a900473ffffffffffffffffffffffffffffffffffffffff1673ffffffffffffffffffffffffffffffffffffffff16613592909392919063ffffffff16565b60008090506000600854141561247d57829050826008819055506124a9565b6124a66008546124986002548661303490919063ffffffff16565b6130a490919063ffffffff16565b90505b6124b1612fc1565b6008819055506124c13382613634565b506006548114612506576040517f08c379a00000000000000000000000000000000000000000000000000000000081526004016124fd906159ea565b60405180910390fd5b5050565b612512611c3c565b612551576040517f08c379a0000000000000000000000000000000000000000000000000000000008152600401612548906158ca565b60405180910390fd5b80600b60006101000a81548173ffffffffffffffffffffffffffffffffffffffff021916908373ffffffffffffffffffffffffffffffffffffffff16021790555050565b6000600d60009054906101000a900473ffffffffffffffffffffffffffffffffffffffff1673ffffffffffffffffffffffffffffffffffffffff166370a08231306040518263ffffffff1660e01b81526004016125f29190615617565b60206040518083038186803b15801561260a57600080fd5b505afa15801561261e573d6000803e3d6000fd5b505050506040513d601f19601f820116820180604052506126429190810190614b41565b905090565b600f5481565b6000600160008473ffffffffffffffffffffffffffffffffffffffff1673ffffffffffffffffffffffffffffffffffffffff16815260200190815260200160002060008373ffffffffffffffffffffffffffffffffffffffff1673ffffffffffffffffffffffffffffffffffffffff16815260200190815260200160002054905092915050565b6000600a60009054906101000a900473ffffffffffffffffffffffffffffffffffffffff1673ffffffffffffffffffffffffffffffffffffffff1663a0712d68836040518263ffffffff1660e01b81526004016127319190615a93565b602060405180830381600087803b15801561274b57600080fd5b505af115801561275f573d6000803e3d6000fd5b505050506040513d601f19601f820116820180604052506127839190810190614b41565b146127c3576040517f08c379a00000000000000000000000000000000000000000000000000000000081526004016127ba9061582a565b60405180910390fd5b50565b6127ce611c3c565b61280d576040517f08c379a0000000000000000000000000000000000000000000000000000000008152600401612804906158ca565b60405180910390fd5b612816816137bc565b50565b600080612824610e62565b905060008111156128dd57600b60009054906101000a900473ffffffffffffffffffffffffffffffffffffffff1673ffffffffffffffffffffffffffffffffffffffff166306b3efd6306040518263ffffffff1660e01b815260040161288a9190615617565b60206040518083038186803b1580156128a257600080fd5b505afa1580156128b6573d6000803e3d6000fd5b505050506040513d601f19601f820116820180604052506128da9190810190614b41565b90505b8091505090565b6128ec611c3c565b61292b576040517f08c379a0000000000000000000000000000000000000000000000000000000008152600401612922906158ca565b60405180910390fd5b80600a60006101000a81548173ffffffffffffffffffffffffffffffffffffffff021916908373ffffffffffffffffffffffffffffffffffffffff16021790555050565b600a60009054906101000a900473ffffffffffffffffffffffffffffffffffffffff1681565b6000600c60009054906101000a900473ffffffffffffffffffffffffffffffffffffffff1673ffffffffffffffffffffffffffffffffffffffff16630261bf8b6040518163ffffffff1660e01b815260040160206040518083038186803b1580156129ff57600080fd5b505afa158015612a13573d6000803e3d6000fd5b505050506040513d601f19601f82011682018060405250612a379190810190614947565b905090565b6000600c60009054906101000a900473ffffffffffffffffffffffffffffffffffffffff1673ffffffffffffffffffffffffffffffffffffffff1663ed6ff7606040518163ffffffff1660e01b815260040160206040518083038186803b158015612aa657600080fd5b505afa158015612aba573d6000803e3d6000fd5b505050506040513d601f19601f82011682018060405250612ade9190810190614947565b905090565b600960009054906101000a900473ffffffffffffffffffffffffffffffffffffffff1681565b600033905090565b600073ffffffffffffffffffffffffffffffffffffffff168373ffffffffffffffffffffffffffffffffffffffff161415612b81576040517f08c379a0000000000000000000000000000000000000000000000000000000008152600401612b789061596a565b60405180910390fd5b600073ffffffffffffffffffffffffffffffffffffffff168273ffffffffffffffffffffffffffffffffffffffff161415612bf1576040517f08c379a0000000000000000000000000000000000000000000000000000000008152600401612be89061580a565b60405180910390fd5b80600160008573ffffffffffffffffffffffffffffffffffffffff1673ffffffffffffffffffffffffffffffffffffffff16815260200190815260200160002060008473ffffffffffffffffffffffffffffffffffffffff1673ffffffffffffffffffffffffffffffffffffffff168152602001908152602001600020819055508173ffffffffffffffffffffffffffffffffffffffff168373ffffffffffffffffffffffffffffffffffffffff167f8c5be1e5ebec7d5bd14f71427d1e84f3dd0314c0f7b2291e5b200ac8c7c3b92583604051612ccf9190615a93565b60405180910390a3505050565b600073ffffffffffffffffffffffffffffffffffffffff168373ffffffffffffffffffffffffffffffffffffffff161415612d4c576040517f08c379a0000000000000000000000000000000000000000000000000000000008152600401612d439061592a565b60405180910390fd5b600073ffffffffffffffffffffffffffffffffffffffff168273ffffffffffffffffffffffffffffffffffffffff161415612dbc576040517f08c379a0000000000000000000000000000000000000000000000000000000008152600401612db3906157aa565b60405180910390fd5b612e2781604051806060016040528060268152602001615ddf602691396000808773ffffffffffffffffffffffffffffffffffffffff1673ffffffffffffffffffffffffffffffffffffffff16815260200190815260200160002054612f669092919063ffffffff16565b6000808573ffffffffffffffffffffffffffffffffffffffff1673ffffffffffffffffffffffffffffffffffffffff16815260200190815260200160002081905550612eba816000808573ffffffffffffffffffffffffffffffffffffffff1673ffffffffffffffffffffffffffffffffffffffff1681526020019081526020016000205461334d90919063ffffffff16565b6000808473ffffffffffffffffffffffffffffffffffffffff1673ffffffffffffffffffffffffffffffffffffffff168152602001908152602001600020819055508173ffffffffffffffffffffffffffffffffffffffff168373ffffffffffffffffffffffffffffffffffffffff167fddf252ad1be2c89b69c2b068fc378daa952ba7f163c4a11628f55a4df523b3ef83604051612f599190615a93565b60405180910390a3505050565b6000838311158290612fae576040517f08c379a0000000000000000000000000000000000000000000000000000000008152600401612fa59190615788565b60405180910390fd5b5060008385039050809150509392505050565b600061302f612fce6138ec565b613021612fd961399e565b613013612fe4613a50565b613005612fef613b40565b612ff7613c0b565b61334d90919063ffffffff16565b61334d90919063ffffffff16565b61334d90919063ffffffff16565b61334d90919063ffffffff16565b905090565b600080831415613047576000905061309e565b600082840290508284828161305857fe5b0414613099576040517f08c379a00000000000000000000000000000000000000000000000000000000081526004016130909061588a565b60405180910390fd5b809150505b92915050565b60006130e683836040518060400160405280601a81526020017f536166654d6174683a206469766973696f6e206279207a65726f000000000000815250613cf7565b905092915050565b600061313083836040518060400160405280601e81526020017f536166654d6174683a207375627472616374696f6e206f766572666c6f770000815250612f66565b905092915050565b6002600481111561314557fe5b601060149054906101000a900460ff16600481111561316057fe5b14156131705761316f81613d58565b5b6003600481111561317d57fe5b601060149054906101000a900460ff16600481111561319857fe5b14156131f257806131a7612595565b10156131e8576040517f08c379a00000000000000000000000000000000000000000000000000000000081526004016131df9061594a565b60405180910390fd5b6131f181613dfe565b5b600160048111156131ff57fe5b601060149054906101000a900460ff16600481111561321a57fe5b14156132745780613229611471565b101561326a576040517f08c379a00000000000000000000000000000000000000000000000000000000081526004016132619061594a565b60405180910390fd5b61327381613e8e565b5b60048081111561328057fe5b601060149054906101000a900460ff16600481111561329b57fe5b14156132ab576132aa816140c8565b5b50565b613348838473ffffffffffffffffffffffffffffffffffffffff1663a9059cbb905060e01b84846040516024016132e69291906156bb565b604051602081830303815290604052907bffffffffffffffffffffffffffffffffffffffffffffffffffffffff19166020820180517bffffffffffffffffffffffffffffffffffffffffffffffffffffffff838183161783525050505061416e565b505050565b600080828401905083811015613398576040517f08c379a000000000000000000000000000000000000000000000000000000000815260040161338f9061584a565b60405180910390fd5b8091505092915050565b60006133ac6142e0565b905060008111156133c1576133c081614392565b5b6133c9613a50565b905060008111156133de576133dd81613e8e565b5b6133e6614484565b905060008111156133fb576133fa81614536565b5b61340361399e565b905060008111156134185761341781613dfe565b5b50565b60008114806134b4575060008373ffffffffffffffffffffffffffffffffffffffff1663dd62ed3e30856040518363ffffffff1660e01b815260040161346292919061565b565b60206040518083038186803b15801561347a57600080fd5b505afa15801561348e573d6000803e3d6000fd5b505050506040513d601f19601f820116820180604052506134b29190810190614b41565b145b6134f3576040517f08c379a00000000000000000000000000000000000000000000000000000000081526004016134ea90615a0a565b60405180910390fd5b61358d838473ffffffffffffffffffffffffffffffffffffffff1663095ea7b3905060e01b848460405160240161352b9291906156bb565b604051602081830303815290604052907bffffffffffffffffffffffffffffffffffffffffffffffffffffffff19166020820180517bffffffffffffffffffffffffffffffffffffffffffffffffffffffff838183161783525050505061416e565b505050565b61362e848573ffffffffffffffffffffffffffffffffffffffff166323b872dd905060e01b8585856040516024016135cc93929190615684565b604051602081830303815290604052907bffffffffffffffffffffffffffffffffffffffffffffffffffffffff19166020820180517bffffffffffffffffffffffffffffffffffffffffffffffffffffffff838183161783525050505061416e565b50505050565b600073ffffffffffffffffffffffffffffffffffffffff168273ffffffffffffffffffffffffffffffffffffffff1614156136a4576040517f08c379a000000000000000000000000000000000000000000000000000000000815260040161369b90615a4a565b60405180910390fd5b6136b98160025461334d90919063ffffffff16565b600281905550613710816000808573ffffffffffffffffffffffffffffffffffffffff1673ffffffffffffffffffffffffffffffffffffffff1681526020019081526020016000205461334d90919063ffffffff16565b6000808473ffffffffffffffffffffffffffffffffffffffff1673ffffffffffffffffffffffffffffffffffffffff168152602001908152602001600020819055508173ffffffffffffffffffffffffffffffffffffffff16600073ffffffffffffffffffffffffffffffffffffffff167fddf252ad1be2c89b69c2b068fc378daa952ba7f163c4a11628f55a4df523b3ef836040516137b09190615a93565b60405180910390a35050565b600073ffffffffffffffffffffffffffffffffffffffff168173ffffffffffffffffffffffffffffffffffffffff16141561382c576040517f08c379a0000000000000000000000000000000000000000000000000000000008152600401613823906157ea565b60405180910390fd5b8073ffffffffffffffffffffffffffffffffffffffff16600760009054906101000a900473ffffffffffffffffffffffffffffffffffffffff1673ffffffffffffffffffffffffffffffffffffffff167f8be0079c531659141344cd1fd0a4f28419497f9722a3daafe3b4186f6b6457e060405160405180910390a380600760006101000a81548173ffffffffffffffffffffffffffffffffffffffff021916908373ffffffffffffffffffffffffffffffffffffffff16021790555050565b6000600960009054906101000a900473ffffffffffffffffffffffffffffffffffffffff1673ffffffffffffffffffffffffffffffffffffffff166370a08231306040518263ffffffff1660e01b81526004016139499190615617565b60206040518083038186803b15801561396157600080fd5b505afa158015613975573d6000803e3d6000fd5b505050506040513d601f19601f820116820180604052506139999190810190614b41565b905090565b6000600d60009054906101000a900473ffffffffffffffffffffffffffffffffffffffff1673ffffffffffffffffffffffffffffffffffffffff166370a08231306040518263ffffffff1660e01b81526004016139fb9190615617565b60206040518083038186803b158015613a1357600080fd5b505afa158015613a27573d6000803e3d6000fd5b505050506040513d601f19601f82011682018060405250613a4b9190810190614b41565b905090565b6000613a5a6147bb565b600e60009054906101000a900473ffffffffffffffffffffffffffffffffffffffff1673ffffffffffffffffffffffffffffffffffffffff1663c190c2ec60405180604001604052803073ffffffffffffffffffffffffffffffffffffffff1681526020016000815250600f546040518363ffffffff1660e01b8152600401613ae4929190615a6a565b604080518083038186803b158015613afb57600080fd5b505afa158015613b0f573d6000803e3d6000fd5b505050506040513d601f19601f82011682018060405250613b339190810190614aef565b9050806020015191505090565b600080613b4b610e62565b90506000811115613c0457600b60009054906101000a900473ffffffffffffffffffffffffffffffffffffffff1673ffffffffffffffffffffffffffffffffffffffff166306b3efd6306040518263ffffffff1660e01b8152600401613bb19190615617565b60206040518083038186803b158015613bc957600080fd5b505afa158015613bdd573d6000803e3d6000fd5b505050506040513d601f19601f82011682018060405250613c019190810190614b41565b90505b8091505090565b600080613c16611638565b90506000811115613cf057613ced670de0b6b3a7640000613cdf600a60009054906101000a900473ffffffffffffffffffffffffffffffffffffffff1673ffffffffffffffffffffffffffffffffffffffff1663182df0f56040518163ffffffff1660e01b815260040160206040518083038186803b158015613c9857600080fd5b505afa158015613cac573d6000803e3d6000fd5b505050506040513d601f19601f82011682018060405250613cd09190810190614b41565b8461303490919063ffffffff16565b6130a490919063ffffffff16565b90505b8091505090565b60008083118290613d3e576040517f08c379a0000000000000000000000000000000000000000000000000000000008152600401613d359190615788565b60405180910390fd5b506000838581613d4a57fe5b049050809150509392505050565b6000613d62611638565b90506000613d6e6121ea565b905082811015613db3576040517f08c379a0000000000000000000000000000000000000000000000000000000008152600401613daa9061594a565b60405180910390fd5b6000613ded6001613ddf84613dd1888861303490919063ffffffff16565b6130a490919063ffffffff16565b61334d90919063ffffffff16565b9050613df881614392565b50505050565b600d60009054906101000a900473ffffffffffffffffffffffffffffffffffffffff1673ffffffffffffffffffffffffffffffffffffffff1663db006a75826040518263ffffffff1660e01b8152600401613e599190615a93565b600060405180830381600087803b158015613e7357600080fd5b505af1158015613e87573d6000803e3d6000fd5b5050505050565b60606001604051908082528060200260200182016040528015613ecb57816020015b613eb8614675565b815260200190600190039081613eb05790505b50905060405180604001604052803073ffffffffffffffffffffffffffffffffffffffff168152602001600081525081600081518110613f0757fe5b6020026020010181905250613f1a6146a5565b6040518060800160405280600015158152602001600080811115613f3a57fe5b8152602001600080811115613f4b57fe5b8152602001848152509050613f5e6146e3565b600181600001906001811115613f7057fe5b90816001811115613f7d57fe5b815250506000816020018181525050818160400181905250600f54816060018181525050308160a0019073ffffffffffffffffffffffffffffffffffffffff16908173ffffffffffffffffffffffffffffffffffffffff16815250506060600160405190808252806020026020018201604052801561401657816020015b61400361474f565b815260200190600190039081613ffb5790505b509050818160008151811061402757fe5b6020026020010181905250600e60009054906101000a900473ffffffffffffffffffffffffffffffffffffffff1673ffffffffffffffffffffffffffffffffffffffff1663a67a6a4585836040518363ffffffff1660e01b815260040161408f92919061571b565b600060405180830381600087803b1580156140a957600080fd5b505af11580156140bd573d6000803e3d6000fd5b505050505050505050565b60006140d2610e62565b905060006140de612819565b905082811015614123576040517f08c379a000000000000000000000000000000000000000000000000000000000815260040161411a9061594a565b60405180910390fd5b600061415d600161414f84614141888861303490919063ffffffff16565b6130a490919063ffffffff16565b61334d90919063ffffffff16565b905061416881614536565b50505050565b61418d8273ffffffffffffffffffffffffffffffffffffffff1661462a565b6141cc576040517f08c379a00000000000000000000000000000000000000000000000000000000081526004016141c390615a2a565b60405180910390fd5b600060608373ffffffffffffffffffffffffffffffffffffffff16836040516141f591906155e5565b6000604051808303816000865af19150503d8060008114614232576040519150601f19603f3d011682016040523d82523d6000602084013e614237565b606091505b50915091508161427c576040517f08c379a00000000000000000000000000000000000000000000000000000000081526004016142739061586a565b60405180910390fd5b6000815111156142da578080602001905161429a9190810190614a37565b6142d9576040517f08c379a00000000000000000000000000000000000000000000000000000000081526004016142d0906159ca565b60405180910390fd5b5b50505050565b6000600a60009054906101000a900473ffffffffffffffffffffffffffffffffffffffff1673ffffffffffffffffffffffffffffffffffffffff166370a08231306040518263ffffffff1660e01b815260040161433d9190615617565b60206040518083038186803b15801561435557600080fd5b505afa158015614369573d6000803e3d6000fd5b505050506040513d601f19601f8201168201806040525061438d9190810190614b41565b905090565b6000600a60009054906101000a900473ffffffffffffffffffffffffffffffffffffffff1673ffffffffffffffffffffffffffffffffffffffff1663db006a75836040518263ffffffff1660e01b81526004016143ef9190615a93565b602060405180830381600087803b15801561440957600080fd5b505af115801561441d573d6000803e3d6000fd5b505050506040513d601f19601f820116820180604052506144419190810190614b41565b14614481576040517f08c379a0000000000000000000000000000000000000000000000000000000008152600401614478906157ca565b60405180910390fd5b50565b6000600b60009054906101000a900473ffffffffffffffffffffffffffffffffffffffff1673ffffffffffffffffffffffffffffffffffffffff166370a08231306040518263ffffffff1660e01b81526004016144e19190615617565b60206040518083038186803b1580156144f957600080fd5b505afa15801561450d573d6000803e3d6000fd5b505050506040513d601f19601f820116820180604052506145319190810190614b41565b905090565b6000600b60009054906101000a900473ffffffffffffffffffffffffffffffffffffffff1673ffffffffffffffffffffffffffffffffffffffff16639dc29fac30846040518363ffffffff1660e01b8152600401614595929190615632565b602060405180830381600087803b1580156145af57600080fd5b505af11580156145c3573d6000803e3d6000fd5b505050506040513d601f19601f820116820180604052506145e79190810190614b41565b11614627576040517f08c379a000000000000000000000000000000000000000000000000000000000815260040161461e906158aa565b60405180910390fd5b50565b60008060007fc5d2460186f7233c927e7db2dcc703c0e500b653ca82273b7bfad8045d85a47060001b9050833f91506000801b821415801561466c5750808214155b92505050919050565b6040518060400160405280600073ffffffffffffffffffffffffffffffffffffffff168152602001600081525090565b60405180608001604052806000151581526020016000808111156146c557fe5b81526020016000808111156146d657fe5b8152602001600081525090565b604051806101000160405280600060018111156146fc57fe5b8152602001600081526020016147106147d7565b81526020016000815260200160008152602001600073ffffffffffffffffffffffffffffffffffffffff16815260200160008152602001606081525090565b6040518061010001604052806000600181111561476857fe5b81526020016000815260200161477c6147d7565b81526020016000815260200160008152602001600073ffffffffffffffffffffffffffffffffffffffff16815260200160008152602001606081525090565b6040518060400160405280600015158152602001600081525090565b60405180608001604052806000151581526020016000808111156147f757fe5b815260200160008081111561480857fe5b8152602001600081525090565b60008135905061482481615d99565b92915050565b60008151905061483981615d99565b92915050565b60008151905061484e81615db0565b92915050565b600082601f83011261486557600080fd5b815161487861487382615af6565b615ac9565b9150808252602083016020830185838301111561489457600080fd5b61489f838284615d21565b50505092915050565b6000604082840312156148ba57600080fd5b6148c46040615ac9565b905060006148d48482850161483f565b60008301525060206148e884828501614909565b60208301525092915050565b60008135905061490381615dc7565b92915050565b60008151905061491881615dc7565b92915050565b60006020828403121561493057600080fd5b600061493e84828501614815565b91505092915050565b60006020828403121561495957600080fd5b60006149678482850161482a565b91505092915050565b6000806040838503121561498357600080fd5b600061499185828601614815565b92505060206149a285828601614815565b9150509250929050565b6000806000606084860312156149c157600080fd5b60006149cf86828701614815565b93505060206149e086828701614815565b92505060406149f1868287016148f4565b9150509250925092565b60008060408385031215614a0e57600080fd5b6000614a1c85828601614815565b9250506020614a2d858286016148f4565b9150509250929050565b600060208284031215614a4957600080fd5b6000614a578482850161483f565b91505092915050565b600080600080600060a08688031215614a7857600080fd5b600086015167ffffffffffffffff811115614a9257600080fd5b614a9e88828901614854565b9550506020614aaf88828901614909565b9450506040614ac088828901614909565b9350506060614ad188828901614909565b9250506080614ae288828901614909565b9150509295509295909350565b600060408284031215614b0157600080fd5b6000614b0f848285016148a8565b91505092915050565b600060208284031215614b2a57600080fd5b6000614b38848285016148f4565b91505092915050565b600060208284031215614b5357600080fd5b6000614b6184828501614909565b91505092915050565b6000614b768383615452565b905092915050565b6000614b8a838361555a565b60408301905092915050565b614b9f81615c91565b82525050565b614bae81615be2565b82525050565b614bbd81615be2565b82525050565b6000614bce82615b42565b614bd88185615b93565b935083602082028501614bea85615b22565b8060005b85811015614c265784840389528151614c078582614b6a565b9450614c1283615b79565b925060208a01995050600181019050614bee565b50829750879550505050505092915050565b6000614c4382615b4d565b614c4d8185615ba4565b9350614c5883615b32565b8060005b83811015614c89578151614c708882614b7e565b9750614c7b83615b86565b925050600181019050614c5c565b5085935050505092915050565b614c9f81615bf4565b82525050565b614cae81615bf4565b82525050565b6000614cbf82615b63565b614cc98185615bc6565b9350614cd9818560208601615d21565b80840191505092915050565b6000614cf082615b58565b614cfa8185615bb5565b9350614d0a818560208601615d21565b614d1381615d54565b840191505092915050565b614d2781615ca3565b82525050565b614d3681615cb5565b82525050565b614d4581615cc7565b82525050565b614d5481615cd9565b82525050565b614d6381615ceb565b82525050565b6000614d7482615b6e565b614d7e8185615bd1565b9350614d8e818560208601615d21565b614d9781615d54565b840191505092915050565b6000614daf602383615bd1565b91507f45524332303a207472616e7366657220746f20746865207a65726f206164647260008301527f65737300000000000000000000000000000000000000000000000000000000006020830152604082019050919050565b6000614e15601983615bd1565b91507f434f4d504f554e443a207769746864726177206661696c6564000000000000006000830152602082019050919050565b6000614e55602683615bd1565b91507f4f776e61626c653a206e6577206f776e657220697320746865207a65726f206160008301527f64647265737300000000000000000000000000000000000000000000000000006020830152604082019050919050565b6000614ebb602283615bd1565b91507f45524332303a20617070726f766520746f20746865207a65726f20616464726560008301527f73730000000000000000000000000000000000000000000000000000000000006020830152604082019050919050565b6000614f21601783615bd1565b91507f434f4d504f554e443a20737570706c79206661696c65640000000000000000006000830152602082019050919050565b6000614f61601b83615bd1565b91507f536166654d6174683a206164646974696f6e206f766572666c6f7700000000006000830152602082019050919050565b6000614fa1602083615bd1565b91507f5361666545524332303a206c6f772d6c6576656c2063616c6c206661696c65646000830152602082019050919050565b6000614fe1602183615bd1565b91507f536166654d6174683a206d756c7469706c69636174696f6e206f766572666c6f60008301527f77000000000000000000000000000000000000000000000000000000000000006020830152604082019050919050565b6000615047601883615bd1565b91507f46554c4352554d3a207769746864726177206661696c656400000000000000006000830152602082019050919050565b6000615087602083615bd1565b91507f4f776e61626c653a2063616c6c6572206973206e6f7420746865206f776e65726000830152602082019050919050565b60006150c7601483615bd1565b91507f696e73756666696369656e742062616c616e63650000000000000000000000006000830152602082019050919050565b6000615107601f83615bd1565b91507f7769746864726177206d7573742062652067726561746572207468616e2030006000830152602082019050919050565b6000615147602583615bd1565b91507f45524332303a207472616e736665722066726f6d20746865207a65726f20616460008301527f64726573730000000000000000000000000000000000000000000000000000006020830152604082019050919050565b60006151ad601283615bd1565b91507f696e73756666696369656e742066756e647300000000000000000000000000006000830152602082019050919050565b60006151ed602483615bd1565b91507f45524332303a20617070726f76652066726f6d20746865207a65726f2061646460008301527f72657373000000000000000000000000000000000000000000000000000000006020830152604082019050919050565b6000615253601e83615bd1565b91507f6465706f736974206d7573742062652067726561746572207468616e203000006000830152602082019050919050565b6000615293601683615bd1565b91507f46554c4352554d3a20737570706c79206661696c6564000000000000000000006000830152602082019050919050565b60006152d3602a83615bd1565b91507f5361666545524332303a204552433230206f7065726174696f6e20646964206e60008301527f6f742073756363656564000000000000000000000000000000000000000000006020830152604082019050919050565b6000615339601f83615bd1565b91507f5265656e7472616e637947756172643a207265656e7472616e742063616c6c006000830152602082019050919050565b6000615379603683615bd1565b91507f5361666545524332303a20617070726f76652066726f6d206e6f6e2d7a65726f60008301527f20746f206e6f6e2d7a65726f20616c6c6f77616e6365000000000000000000006020830152604082019050919050565b60006153df601f83615bd1565b91507f5361666545524332303a2063616c6c20746f206e6f6e2d636f6e7472616374006000830152602082019050919050565b600061541f601f83615bd1565b91507f45524332303a206d696e7420746f20746865207a65726f2061646472657373006000830152602082019050919050565b60006101608301600083015161546b6000860182614d1e565b50602083015161547e60208601826155b8565b5060408301516154916040860182615505565b5060608301516154a460c08601826155b8565b5060808301516154b760e08601826155b8565b5060a08301516154cb610100860182614ba5565b5060c08301516154df6101208601826155b8565b5060e08301518482036101408601526154f88282614ce5565b9150508091505092915050565b60808201600082015161551b6000850182614c96565b50602082015161552e6020850182614d2d565b5060408201516155416040850182614d3c565b50606082015161555460608501826155b8565b50505050565b6040820160008201516155706000850182614ba5565b50602082015161558360208501826155b8565b50505050565b60408201600082015161559f6000850182614ba5565b5060208201516155b260208501826155b8565b50505050565b6155c181615c7a565b82525050565b6155d081615c7a565b82525050565b6155df81615c84565b82525050565b60006155f18284614cb4565b915081905092915050565b60006020820190506156116000830184614bb4565b92915050565b600060208201905061562c6000830184614b96565b92915050565b60006040820190506156476000830185614b96565b61565460208301846155c7565b9392505050565b60006040820190506156706000830185614bb4565b61567d6020830184614bb4565b9392505050565b60006060820190506156996000830186614bb4565b6156a66020830185614bb4565b6156b360408301846155c7565b949350505050565b60006040820190506156d06000830185614bb4565b6156dd60208301846155c7565b9392505050565b60006060820190506156f96000830186614bb4565b61570660208301856155c7565b6157136040830184614d5a565b949350505050565b600060408201905081810360008301526157358185614c38565b905081810360208301526157498184614bc3565b90509392505050565b60006020820190506157676000830184614ca5565b92915050565b60006020820190506157826000830184614d4b565b92915050565b600060208201905081810360008301526157a28184614d69565b905092915050565b600060208201905081810360008301526157c381614da2565b9050919050565b600060208201905081810360008301526157e381614e08565b9050919050565b6000602082019050818103600083015261580381614e48565b9050919050565b6000602082019050818103600083015261582381614eae565b9050919050565b6000602082019050818103600083015261584381614f14565b9050919050565b6000602082019050818103600083015261586381614f54565b9050919050565b6000602082019050818103600083015261588381614f94565b9050919050565b600060208201905081810360008301526158a381614fd4565b9050919050565b600060208201905081810360008301526158c38161503a565b9050919050565b600060208201905081810360008301526158e38161507a565b9050919050565b60006020820190508181036000830152615903816150ba565b9050919050565b60006020820190508181036000830152615923816150fa565b9050919050565b600060208201905081810360008301526159438161513a565b9050919050565b60006020820190508181036000830152615963816151a0565b9050919050565b60006020820190508181036000830152615983816151e0565b9050919050565b600060208201905081810360008301526159a381615246565b9050919050565b600060208201905081810360008301526159c381615286565b9050919050565b600060208201905081810360008301526159e3816152c6565b9050919050565b60006020820190508181036000830152615a038161532c565b9050919050565b60006020820190508181036000830152615a238161536c565b9050919050565b60006020820190508181036000830152615a43816153d2565b9050919050565b60006020820190508181036000830152615a6381615412565b9050919050565b6000606082019050615a7f6000830185615589565b615a8c60408301846155c7565b9392505050565b6000602082019050615aa860008301846155c7565b92915050565b6000602082019050615ac360008301846155d6565b92915050565b6000604051905081810181811067ffffffffffffffff82111715615aec57600080fd5b8060405250919050565b600067ffffffffffffffff821115615b0d57600080fd5b601f19601f8301169050602081019050919050565b6000819050602082019050919050565b6000819050602082019050919050565b600081519050919050565b600081519050919050565b600081519050919050565b600081519050919050565b600081519050919050565b6000602082019050919050565b6000602082019050919050565b600082825260208201905092915050565b600082825260208201905092915050565b600082825260208201905092915050565b600081905092915050565b600082825260208201905092915050565b6000615bed82615c5a565b9050919050565b60008115159050919050565b6000819050615c0e82615d65565b919050565b6000819050615c2182615d72565b919050565b6000819050615c3482615d7f565b919050565b6000819050615c4782615d8c565b919050565b600061ffff82169050919050565b600073ffffffffffffffffffffffffffffffffffffffff82169050919050565b6000819050919050565b600060ff82169050919050565b6000615c9c82615cfd565b9050919050565b6000615cae82615c00565b9050919050565b6000615cc082615c13565b9050919050565b6000615cd282615c26565b9050919050565b6000615ce482615c39565b9050919050565b6000615cf682615c4c565b9050919050565b6000615d0882615d0f565b9050919050565b6000615d1a82615c5a565b9050919050565b60005b83811015615d3f578082015181840152602081019050615d24565b83811115615d4e576000848401525b50505050565b6000601f19601f8301169050919050565b60028110615d6f57fe5b50565b60018110615d7c57fe5b50565b60018110615d8957fe5b50565b60058110615d9657fe5b50565b615da281615be2565b8114615dad57600080fd5b50565b615db981615bf4565b8114615dc457600080fd5b50565b615dd081615c7a565b8114615ddb57600080fd5b5056fe45524332303a207472616e7366657220616d6f756e7420657863656564732062616c616e636545524332303a207472616e7366657220616d6f756e74206578636565647320616c6c6f77616e636545524332303a2064656372656173656420616c6c6f77616e63652062656c6f77207a65726fa365627a7a723158207de2b83f3c934cb99e26ab81a1fd17eb975cf993c919e81b4640cd7704a4e2c46c6578706572696d656e74616cf564736f6c634300050c0040",
  "source": "pragma solidity ^0.5.0;\npragma experimental ABIEncoderV2;\n\ninterface IERC20 {\n    function totalSupply() external view returns (uint256);\n    function balanceOf(address account) external view returns (uint256);\n    function transfer(address recipient, uint256 amount) external returns (bool);\n    function allowance(address owner, address spender) external view returns (uint256);\n    function approve(address spender, uint256 amount) external returns (bool);\n    function transferFrom(address sender, address recipient, uint256 amount) external returns (bool);\n    event Transfer(address indexed from, address indexed to, uint256 value);\n    event Approval(address indexed owner, address indexed spender, uint256 value);\n}\n\ncontract Context {\n    constructor () internal { }\n    // solhint-disable-previous-line no-empty-blocks\n\n    function _msgSender() internal view returns (address payable) {\n        return msg.sender;\n    }\n\n    function _msgData() internal view returns (bytes memory) {\n        this; // silence state mutability warning without generating bytecode - see https://github.com/ethereum/solidity/issues/2691\n        return msg.data;\n    }\n}\n\ncontract Ownable is Context {\n    address private _owner;\n\n    event OwnershipTransferred(address indexed previousOwner, address indexed newOwner);\n    constructor () internal {\n        _owner = _msgSender();\n        emit OwnershipTransferred(address(0), _owner);\n    }\n    function owner() public view returns (address) {\n        return _owner;\n    }\n    modifier onlyOwner() {\n        require(isOwner(), \"Ownable: caller is not the owner\");\n        _;\n    }\n    function isOwner() public view returns (bool) {\n        return _msgSender() == _owner;\n    }\n    function renounceOwnership() public onlyOwner {\n        emit OwnershipTransferred(_owner, address(0));\n        _owner = address(0);\n    }\n    function transferOwnership(address newOwner) public onlyOwner {\n        _transferOwnership(newOwner);\n    }\n    function _transferOwnership(address newOwner) internal {\n        require(newOwner != address(0), \"Ownable: new owner is the zero address\");\n        emit OwnershipTransferred(_owner, newOwner);\n        _owner = newOwner;\n    }\n}\n\ncontract ERC20 is Context, IERC20 {\n    using SafeMath for uint256;\n\n    mapping (address => uint256) _balances;\n\n    mapping (address => mapping (address => uint256)) private _allowances;\n\n    uint256 _totalSupply;\n    function totalSupply() public view returns (uint256) {\n        return _totalSupply;\n    }\n    function balanceOf(address account) public view returns (uint256) {\n        return _balances[account];\n    }\n    function transfer(address recipient, uint256 amount) public returns (bool) {\n        _transfer(_msgSender(), recipient, amount);\n        return true;\n    }\n    function allowance(address owner, address spender) public view returns (uint256) {\n        return _allowances[owner][spender];\n    }\n    function approve(address spender, uint256 amount) public returns (bool) {\n        _approve(_msgSender(), spender, amount);\n        return true;\n    }\n    function transferFrom(address sender, address recipient, uint256 amount) public returns (bool) {\n        _transfer(sender, recipient, amount);\n        _approve(sender, _msgSender(), _allowances[sender][_msgSender()].sub(amount, \"ERC20: transfer amount exceeds allowance\"));\n        return true;\n    }\n    function increaseAllowance(address spender, uint256 addedValue) public returns (bool) {\n        _approve(_msgSender(), spender, _allowances[_msgSender()][spender].add(addedValue));\n        return true;\n    }\n    function decreaseAllowance(address spender, uint256 subtractedValue) public returns (bool) {\n        _approve(_msgSender(), spender, _allowances[_msgSender()][spender].sub(subtractedValue, \"ERC20: decreased allowance below zero\"));\n        return true;\n    }\n    function _transfer(address sender, address recipient, uint256 amount) internal {\n        require(sender != address(0), \"ERC20: transfer from the zero address\");\n        require(recipient != address(0), \"ERC20: transfer to the zero address\");\n\n        _balances[sender] = _balances[sender].sub(amount, \"ERC20: transfer amount exceeds balance\");\n        _balances[recipient] = _balances[recipient].add(amount);\n        emit Transfer(sender, recipient, amount);\n    }\n    function _mint(address account, uint256 amount) internal {\n        require(account != address(0), \"ERC20: mint to the zero address\");\n\n        _totalSupply = _totalSupply.add(amount);\n        _balances[account] = _balances[account].add(amount);\n        emit Transfer(address(0), account, amount);\n    }\n    function _burn(address account, uint256 amount) internal {\n        require(account != address(0), \"ERC20: burn from the zero address\");\n\n        _balances[account] = _balances[account].sub(amount, \"ERC20: burn amount exceeds balance\");\n        _totalSupply = _totalSupply.sub(amount);\n        emit Transfer(account, address(0), amount);\n    }\n    function _approve(address owner, address spender, uint256 amount) internal {\n        require(owner != address(0), \"ERC20: approve from the zero address\");\n        require(spender != address(0), \"ERC20: approve to the zero address\");\n\n        _allowances[owner][spender] = amount;\n        emit Approval(owner, spender, amount);\n    }\n    function _burnFrom(address account, uint256 amount) internal {\n        _burn(account, amount);\n        _approve(account, _msgSender(), _allowances[account][_msgSender()].sub(amount, \"ERC20: burn amount exceeds allowance\"));\n    }\n}\n\ncontract ERC20Detailed is IERC20 {\n    string private _name;\n    string private _symbol;\n    uint8 private _decimals;\n\n    constructor (string memory name, string memory symbol, uint8 decimals) public {\n        _name = name;\n        _symbol = symbol;\n        _decimals = decimals;\n    }\n    function name() public view returns (string memory) {\n        return _name;\n    }\n    function symbol() public view returns (string memory) {\n        return _symbol;\n    }\n    function decimals() public view returns (uint8) {\n        return _decimals;\n    }\n}\n\ncontract ReentrancyGuard {\n    uint256 private _guardCounter;\n\n    constructor () internal {\n        _guardCounter = 1;\n    }\n\n    modifier nonReentrant() {\n        _guardCounter += 1;\n        uint256 localCounter = _guardCounter;\n        _;\n        require(localCounter == _guardCounter, \"ReentrancyGuard: reentrant call\");\n    }\n}\n\nlibrary SafeMath {\n    function add(uint256 a, uint256 b) internal pure returns (uint256) {\n        uint256 c = a + b;\n        require(c >= a, \"SafeMath: addition overflow\");\n\n        return c;\n    }\n    function sub(uint256 a, uint256 b) internal pure returns (uint256) {\n        return sub(a, b, \"SafeMath: subtraction overflow\");\n    }\n    function sub(uint256 a, uint256 b, string memory errorMessage) internal pure returns (uint256) {\n        require(b <= a, errorMessage);\n        uint256 c = a - b;\n\n        return c;\n    }\n    function mul(uint256 a, uint256 b) internal pure returns (uint256) {\n        if (a == 0) {\n            return 0;\n        }\n\n        uint256 c = a * b;\n        require(c / a == b, \"SafeMath: multiplication overflow\");\n\n        return c;\n    }\n    function div(uint256 a, uint256 b) internal pure returns (uint256) {\n        return div(a, b, \"SafeMath: division by zero\");\n    }\n    function div(uint256 a, uint256 b, string memory errorMessage) internal pure returns (uint256) {\n        // Solidity only automatically asserts when dividing by 0\n        require(b > 0, errorMessage);\n        uint256 c = a / b;\n\n        return c;\n    }\n    function mod(uint256 a, uint256 b) internal pure returns (uint256) {\n        return mod(a, b, \"SafeMath: modulo by zero\");\n    }\n    function mod(uint256 a, uint256 b, string memory errorMessage) internal pure returns (uint256) {\n        require(b != 0, errorMessage);\n        return a % b;\n    }\n}\n\nlibrary Address {\n    function isContract(address account) internal view returns (bool) {\n        bytes32 codehash;\n        bytes32 accountHash = 0xc5d2460186f7233c927e7db2dcc703c0e500b653ca82273b7bfad8045d85a470;\n        // solhint-disable-next-line no-inline-assembly\n        assembly { codehash := extcodehash(account) }\n        return (codehash != 0x0 && codehash != accountHash);\n    }\n    function toPayable(address account) internal pure returns (address payable) {\n        return address(uint160(account));\n    }\n    function sendValue(address payable recipient, uint256 amount) internal {\n        require(address(this).balance >= amount, \"Address: insufficient balance\");\n\n        // solhint-disable-next-line avoid-call-value\n        (bool success, ) = recipient.call.value(amount)(\"\");\n        require(success, \"Address: unable to send value, recipient may have reverted\");\n    }\n}\n\nlibrary SafeERC20 {\n    using SafeMath for uint256;\n    using Address for address;\n\n    function safeTransfer(IERC20 token, address to, uint256 value) internal {\n        callOptionalReturn(token, abi.encodeWithSelector(token.transfer.selector, to, value));\n    }\n\n    function safeTransferFrom(IERC20 token, address from, address to, uint256 value) internal {\n        callOptionalReturn(token, abi.encodeWithSelector(token.transferFrom.selector, from, to, value));\n    }\n\n    function safeApprove(IERC20 token, address spender, uint256 value) internal {\n        require((value == 0) || (token.allowance(address(this), spender) == 0),\n            \"SafeERC20: approve from non-zero to non-zero allowance\"\n        );\n        callOptionalReturn(token, abi.encodeWithSelector(token.approve.selector, spender, value));\n    }\n\n    function safeIncreaseAllowance(IERC20 token, address spender, uint256 value) internal {\n        uint256 newAllowance = token.allowance(address(this), spender).add(value);\n        callOptionalReturn(token, abi.encodeWithSelector(token.approve.selector, spender, newAllowance));\n    }\n\n    function safeDecreaseAllowance(IERC20 token, address spender, uint256 value) internal {\n        uint256 newAllowance = token.allowance(address(this), spender).sub(value, \"SafeERC20: decreased allowance below zero\");\n        callOptionalReturn(token, abi.encodeWithSelector(token.approve.selector, spender, newAllowance));\n    }\n    function callOptionalReturn(IERC20 token, bytes memory data) private {\n        require(address(token).isContract(), \"SafeERC20: call to non-contract\");\n\n        // solhint-disable-next-line avoid-low-level-calls\n        (bool success, bytes memory returndata) = address(token).call(data);\n        require(success, \"SafeERC20: low-level call failed\");\n\n        if (returndata.length > 0) { // Return data is optional\n            // solhint-disable-next-line max-line-length\n            require(abi.decode(returndata, (bool)), \"SafeERC20: ERC20 operation did not succeed\");\n        }\n    }\n}\n\ninterface Compound {\n    function mint ( uint256 mintAmount ) external returns ( uint256 );\n    function redeem(uint256 redeemTokens) external returns (uint256);\n    function exchangeRateStored() external view returns (uint);\n}\n\ninterface Fulcrum {\n    function mint(address receiver, uint256 amount) external payable returns (uint256 mintAmount);\n    function burn(address receiver, uint256 burnAmount) external returns (uint256 loanAmountPaid);\n    function assetBalanceOf(address _owner) external view returns (uint256 balance);\n}\n\ninterface ILendingPoolAddressesProvider {\n    function getLendingPool() external view returns (address);\n}\n\ninterface Aave {\n    function deposit(address _reserve, uint256 _amount, uint16 _referralCode) external;\n}\n\ninterface AToken {\n    function redeem(uint256 amount) external;\n}\n\ninterface IIEarnManager {\n    function recommend(address _token) external view returns (\n      string memory choice,\n      uint256 capr,\n      uint256 iapr,\n      uint256 aapr,\n      uint256 dapr\n    );\n}\n\ncontract Structs {\n    struct Val {\n        uint256 value;\n    }\n\n    enum ActionType {\n        Deposit,   // supply tokens\n        Withdraw  // borrow tokens\n    }\n\n    enum AssetDenomination {\n        Wei // the amount is denominated in wei\n    }\n\n    enum AssetReference {\n        Delta // the amount is given as a delta from the current value\n    }\n\n    struct AssetAmount {\n        bool sign; // true if positive\n        AssetDenomination denomination;\n        AssetReference ref;\n        uint256 value;\n    }\n\n    struct ActionArgs {\n        ActionType actionType;\n        uint256 accountId;\n        AssetAmount amount;\n        uint256 primaryMarketId;\n        uint256 secondaryMarketId;\n        address otherAddress;\n        uint256 otherAccountId;\n        bytes data;\n    }\n\n    struct Info {\n        address owner;  // The address that owns the account\n        uint256 number; // A nonce that allows a single address to control many accounts\n    }\n\n    struct Wei {\n        bool sign; // true if positive\n        uint256 value;\n    }\n}\n\ncontract DyDx is Structs {\n    function getAccountWei(Info memory account, uint256 marketId) public view returns (Wei memory);\n    function operate(Info[] memory, ActionArgs[] memory) public;\n}\n\ninterface LendingPoolAddressesProvider {\n    function getLendingPool() external view returns (address);\n    function getLendingPoolCore() external view returns (address);\n}\n\ncontract yUSDT is ERC20, ERC20Detailed, ReentrancyGuard, Ownable, Structs {\n  using SafeERC20 for IERC20;\n  using Address for address;\n  using SafeMath for uint256;\n\n  uint256 public pool;\n  address public token;\n  address public compound;\n  address public fulcrum;\n  address public aave;\n  address public aaveToken;\n  address public dydx;\n  uint256 public dToken;\n  address public apr;\n\n  enum Lender {\n      NONE,\n      DYDX,\n      COMPOUND,\n      AAVE,\n      FULCRUM\n  }\n\n  Lender public provider = Lender.NONE;\n\n  constructor () public ERC20Detailed(\"iearn USDT\", \"yUSDT\", 6) {\n    token = address(0xdAC17F958D2ee523a2206206994597C13D831ec7);\n    apr = address(0xdD6d648C991f7d47454354f4Ef326b04025a48A8);\n    dydx = address(0x1E0447b19BB6EcFdAe1e4AE1694b0C3659614e4e);\n    aave = address(0x24a42fD28C976A61Df5D00D0599C34c4f90748c8);\n    fulcrum = address(0xF013406A0B1d544238083DF0B93ad0d2cBE0f65f);\n    aaveToken = address(0x71fc860F7D3A592A4a98740e39dB31d25db65ae8);\n    compound = address(0x39AA39c021dfbaE8faC545936693aC917d5E7563);\n    dToken = 0;\n    approveToken();\n  }\n\n  // Ownable setters incase of support in future for these systems\n  function set_new_APR(address _new_APR) public onlyOwner {\n      apr = _new_APR;\n  }\n  function set_new_FULCRUM(address _new_FULCRUM) public onlyOwner {\n      fulcrum = _new_FULCRUM;\n  }\n  function set_new_COMPOUND(address _new_COMPOUND) public onlyOwner {\n      compound = _new_COMPOUND;\n  }\n  function set_new_DTOKEN(uint256 _new_DTOKEN) public onlyOwner {\n      dToken = _new_DTOKEN;\n  }\n\n  // Quick swap low gas method for pool swaps\n  function deposit(uint256 _amount)\n      external\n      nonReentrant\n  {\n      require(_amount > 0, \"deposit must be greater than 0\");\n      pool = _calcPoolValueInToken();\n\n      IERC20(token).safeTransferFrom(msg.sender, address(this), _amount);\n\n      // Calculate pool shares\n      uint256 shares = 0;\n      if (pool == 0) {\n        shares = _amount;\n        pool = _amount;\n      } else {\n        shares = (_amount.mul(_totalSupply)).div(pool);\n      }\n      pool = _calcPoolValueInToken();\n      _mint(msg.sender, shares);\n  }\n\n  // No rebalance implementation for lower fees and faster swaps\n  function withdraw(uint256 _shares)\n      external\n      nonReentrant\n  {\n      require(_shares > 0, \"withdraw must be greater than 0\");\n\n      uint256 ibalance = balanceOf(msg.sender);\n      require(_shares <= ibalance, \"insufficient balance\");\n\n      // Could have over value from cTokens\n      pool = _calcPoolValueInToken();\n      // Calc to redeem before updating balances\n      uint256 r = (pool.mul(_shares)).div(_totalSupply);\n\n\n      _balances[msg.sender] = _balances[msg.sender].sub(_shares, \"redeem amount exceeds balance\");\n      _totalSupply = _totalSupply.sub(_shares);\n\n      emit Transfer(msg.sender, address(0), _shares);\n\n      // Check balance\n      uint256 b = IERC20(token).balanceOf(address(this));\n      if (b < r) {\n        _withdrawSome(r.sub(b));\n      }\n\n      IERC20(token).safeTransfer(msg.sender, r);\n      pool = _calcPoolValueInToken();\n  }\n\n  function() external payable {\n\n  }\n\n  function recommend() public view returns (Lender) {\n    (,uint256 capr,uint256 iapr,uint256 aapr,uint256 dapr) = IIEarnManager(apr).recommend(token);\n    uint256 max = 0;\n    if (capr > max) {\n      max = capr;\n    }\n    if (iapr > max) {\n      max = iapr;\n    }\n    if (aapr > max) {\n      max = aapr;\n    }\n    if (dapr > max) {\n      max = dapr;\n    }\n\n    Lender newProvider = Lender.NONE;\n    if (max == capr) {\n      newProvider = Lender.COMPOUND;\n    } else if (max == iapr) {\n      newProvider = Lender.FULCRUM;\n    } else if (max == aapr) {\n      newProvider = Lender.AAVE;\n    } else if (max == dapr) {\n      newProvider = Lender.DYDX;\n    }\n    return newProvider;\n  }\n\n  function supplyDydx(uint256 amount) public returns(uint) {\n      Info[] memory infos = new Info[](1);\n      infos[0] = Info(address(this), 0);\n\n      AssetAmount memory amt = AssetAmount(true, AssetDenomination.Wei, AssetReference.Delta, amount);\n      ActionArgs memory act;\n      act.actionType = ActionType.Deposit;\n      act.accountId = 0;\n      act.amount = amt;\n      act.primaryMarketId = dToken;\n      act.otherAddress = address(this);\n\n      ActionArgs[] memory args = new ActionArgs[](1);\n      args[0] = act;\n\n      DyDx(dydx).operate(infos, args);\n  }\n\n  function _withdrawDydx(uint256 amount) internal {\n      Info[] memory infos = new Info[](1);\n      infos[0] = Info(address(this), 0);\n\n      AssetAmount memory amt = AssetAmount(false, AssetDenomination.Wei, AssetReference.Delta, amount);\n      ActionArgs memory act;\n      act.actionType = ActionType.Withdraw;\n      act.accountId = 0;\n      act.amount = amt;\n      act.primaryMarketId = dToken;\n      act.otherAddress = address(this);\n\n      ActionArgs[] memory args = new ActionArgs[](1);\n      args[0] = act;\n\n      DyDx(dydx).operate(infos, args);\n  }\n\n  function getAave() public view returns (address) {\n    return LendingPoolAddressesProvider(aave).getLendingPool();\n  }\n  function getAaveCore() public view returns (address) {\n    return LendingPoolAddressesProvider(aave).getLendingPoolCore();\n  }\n\n  function approveToken() public {\n      IERC20(token).safeApprove(compound, uint(-1)); //also add to constructor\n      IERC20(token).safeApprove(dydx, uint(-1));\n      IERC20(token).safeApprove(getAaveCore(), uint(-1));\n      IERC20(token).safeApprove(fulcrum, uint(-1));\n  }\n\n  function balance() public view returns (uint256) {\n    return IERC20(token).balanceOf(address(this));\n  }\n\n  function balanceDydx() public view returns (uint256) {\n      Wei memory bal = DyDx(dydx).getAccountWei(Info(address(this), 0), dToken);\n      return bal.value;\n  }\n  function balanceCompound() public view returns (uint256) {\n      return IERC20(compound).balanceOf(address(this));\n  }\n  function balanceCompoundInToken() public view returns (uint256) {\n    // Mantisa 1e18 to decimals\n    uint256 b = balanceCompound();\n    if (b > 0) {\n      b = b.mul(Compound(compound).exchangeRateStored()).div(1e18);\n    }\n    return b;\n  }\n  function balanceFulcrumInToken() public view returns (uint256) {\n    uint256 b = balanceFulcrum();\n    if (b > 0) {\n      b = Fulcrum(fulcrum).assetBalanceOf(address(this));\n    }\n    return b;\n  }\n  function balanceFulcrum() public view returns (uint256) {\n    return IERC20(fulcrum).balanceOf(address(this));\n  }\n  function balanceAave() public view returns (uint256) {\n    return IERC20(aaveToken).balanceOf(address(this));\n  }\n\n  function _balance() internal view returns (uint256) {\n    return IERC20(token).balanceOf(address(this));\n  }\n\n  function _balanceDydx() internal view returns (uint256) {\n      Wei memory bal = DyDx(dydx).getAccountWei(Info(address(this), 0), dToken);\n      return bal.value;\n  }\n  function _balanceCompound() internal view returns (uint256) {\n      return IERC20(compound).balanceOf(address(this));\n  }\n  function _balanceCompoundInToken() internal view returns (uint256) {\n    // Mantisa 1e18 to decimals\n    uint256 b = balanceCompound();\n    if (b > 0) {\n      b = b.mul(Compound(compound).exchangeRateStored()).div(1e18);\n    }\n    return b;\n  }\n  function _balanceFulcrumInToken() internal view returns (uint256) {\n    uint256 b = balanceFulcrum();\n    if (b > 0) {\n      b = Fulcrum(fulcrum).assetBalanceOf(address(this));\n    }\n    return b;\n  }\n  function _balanceFulcrum() internal view returns (uint256) {\n    return IERC20(fulcrum).balanceOf(address(this));\n  }\n  function _balanceAave() internal view returns (uint256) {\n    return IERC20(aaveToken).balanceOf(address(this));\n  }\n\n  function _withdrawAll() internal {\n    uint256 amount = _balanceCompound();\n    if (amount > 0) {\n      _withdrawCompound(amount);\n    }\n    amount = _balanceDydx();\n    if (amount > 0) {\n      _withdrawDydx(amount);\n    }\n    amount = _balanceFulcrum();\n    if (amount > 0) {\n      _withdrawFulcrum(amount);\n    }\n    amount = _balanceAave();\n    if (amount > 0) {\n      _withdrawAave(amount);\n    }\n  }\n\n  function _withdrawSomeCompound(uint256 _amount) internal {\n    uint256 b = balanceCompound();\n    uint256 bT = balanceCompoundInToken();\n    require(bT >= _amount, \"insufficient funds\");\n    // can have unintentional rounding errors\n    uint256 amount = (b.mul(_amount)).div(bT).add(1);\n    _withdrawCompound(amount);\n  }\n\n  // 1999999614570950845\n  function _withdrawSomeFulcrum(uint256 _amount) internal {\n    // Balance of fulcrum tokens, 1 iDAI = 1.00x DAI\n    uint256 b = balanceFulcrum(); // 1970469086655766652\n    // Balance of token in fulcrum\n    uint256 bT = balanceFulcrumInToken(); // 2000000803224344406\n    require(bT >= _amount, \"insufficient funds\");\n    // can have unintentional rounding errors\n    uint256 amount = (b.mul(_amount)).div(bT).add(1);\n    _withdrawFulcrum(amount);\n  }\n\n  function _withdrawSome(uint256 _amount) internal {\n    if (provider == Lender.COMPOUND) {\n      _withdrawSomeCompound(_amount);\n    }\n    if (provider == Lender.AAVE) {\n      require(balanceAave() >= _amount, \"insufficient funds\");\n      _withdrawAave(_amount);\n    }\n    if (provider == Lender.DYDX) {\n      require(balanceDydx() >= _amount, \"insufficient funds\");\n      _withdrawDydx(_amount);\n    }\n    if (provider == Lender.FULCRUM) {\n      _withdrawSomeFulcrum(_amount);\n    }\n  }\n\n  function rebalance() public {\n    Lender newProvider = recommend();\n\n    if (newProvider != provider) {\n      _withdrawAll();\n    }\n\n    if (balance() > 0) {\n      if (newProvider == Lender.DYDX) {\n        supplyDydx(balance());\n      } else if (newProvider == Lender.FULCRUM) {\n        supplyFulcrum(balance());\n      } else if (newProvider == Lender.COMPOUND) {\n        supplyCompound(balance());\n      } else if (newProvider == Lender.AAVE) {\n        supplyAave(balance());\n      }\n    }\n\n    provider = newProvider;\n  }\n\n  // Internal only rebalance for better gas in redeem\n  function _rebalance(Lender newProvider) internal {\n    if (_balance() > 0) {\n      if (newProvider == Lender.DYDX) {\n        supplyDydx(_balance());\n      } else if (newProvider == Lender.FULCRUM) {\n        supplyFulcrum(_balance());\n      } else if (newProvider == Lender.COMPOUND) {\n        supplyCompound(_balance());\n      } else if (newProvider == Lender.AAVE) {\n        supplyAave(_balance());\n      }\n    }\n    provider = newProvider;\n  }\n\n  function supplyAave(uint amount) public {\n      Aave(getAave()).deposit(token, amount, 0);\n  }\n  function supplyFulcrum(uint amount) public {\n      require(Fulcrum(fulcrum).mint(address(this), amount) > 0, \"FULCRUM: supply failed\");\n  }\n  function supplyCompound(uint amount) public {\n      require(Compound(compound).mint(amount) == 0, \"COMPOUND: supply failed\");\n  }\n  function _withdrawAave(uint amount) internal {\n      AToken(aaveToken).redeem(amount);\n  }\n  function _withdrawFulcrum(uint amount) internal {\n      require(Fulcrum(fulcrum).burn(address(this), amount) > 0, \"FULCRUM: withdraw failed\");\n  }\n  function _withdrawCompound(uint amount) internal {\n      require(Compound(compound).redeem(amount) == 0, \"COMPOUND: withdraw failed\");\n  }\n\n  function _calcPoolValueInToken() internal view returns (uint) {\n    return _balanceCompoundInToken()\n      .add(_balanceFulcrumInToken())\n      .add(_balanceDydx())\n      .add(_balanceAave())\n      .add(_balance());\n  }\n\n  function calcPoolValueInToken() public view returns (uint) {\n    return balanceCompoundInToken()\n      .add(balanceFulcrumInToken())\n      .add(balanceDydx())\n      .add(balanceAave())\n      .add(balance());\n  }\n\n  function getPricePerFullShare() public view returns (uint) {\n    uint _pool = calcPoolValueInToken();\n    return _pool.mul(1e18).div(_totalSupply);\n  }\n}\n",
  "sourcePath": "D:/ftm/itoken/contracts/YUSDTv2.sol",
  "compiler": {
    "name": "solc",
    "version": "0.5.12+commit.7709ece9.Emscripten.clang"
  },
  "schemaVersion": "3.0.19",
  "updatedAt": "2020-02-16T06:43:34.762Z",
  "devdoc": {
    "methods": {}
  },
  "userdoc": {
    "methods": {}
  }
}