{
  "contractName": "yUSDC",
  "abi": [
    {
      "inputs": [],
      "payable": false,
      "stateMutability": "nonpayable",
      "type": "constructor"
    },
    {
      "anonymous": false,
      "inputs": [
        {
          "indexed": true,
          "internalType": "address",
          "name": "owner",
          "type": "address"
        },
        {
          "indexed": true,
          "internalType": "address",
          "name": "spender",
          "type": "address"
        },
        {
          "indexed": false,
          "internalType": "uint256",
          "name": "value",
          "type": "uint256"
        }
      ],
      "name": "Approval",
      "type": "event"
    },
    {
      "anonymous": false,
      "inputs": [
        {
          "indexed": true,
          "internalType": "address",
          "name": "previousOwner",
          "type": "address"
        },
        {
          "indexed": true,
          "internalType": "address",
          "name": "newOwner",
          "type": "address"
        }
      ],
      "name": "OwnershipTransferred",
      "type": "event"
    },
    {
      "anonymous": false,
      "inputs": [
        {
          "indexed": true,
          "internalType": "address",
          "name": "from",
          "type": "address"
        },
        {
          "indexed": true,
          "internalType": "address",
          "name": "to",
          "type": "address"
        },
        {
          "indexed": false,
          "internalType": "uint256",
          "name": "value",
          "type": "uint256"
        }
      ],
      "name": "Transfer",
      "type": "event"
    },
    {
      "payable": true,
      "stateMutability": "payable",
      "type": "fallback"
    },
    {
      "constant": true,
      "inputs": [],
      "name": "aave",
      "outputs": [
        {
          "internalType": "address",
          "name": "",
          "type": "address"
        }
      ],
      "payable": false,
      "stateMutability": "view",
      "type": "function"
    },
    {
      "constant": true,
      "inputs": [],
      "name": "aaveToken",
      "outputs": [
        {
          "internalType": "address",
          "name": "",
          "type": "address"
        }
      ],
      "payable": false,
      "stateMutability": "view",
      "type": "function"
    },
    {
      "constant": true,
      "inputs": [
        {
          "internalType": "address",
          "name": "owner",
          "type": "address"
        },
        {
          "internalType": "address",
          "name": "spender",
          "type": "address"
        }
      ],
      "name": "allowance",
      "outputs": [
        {
          "internalType": "uint256",
          "name": "",
          "type": "uint256"
        }
      ],
      "payable": false,
      "stateMutability": "view",
      "type": "function"
    },
    {
      "constant": false,
      "inputs": [
        {
          "internalType": "address",
          "name": "spender",
          "type": "address"
        },
        {
          "internalType": "uint256",
          "name": "amount",
          "type": "uint256"
        }
      ],
      "name": "approve",
      "outputs": [
        {
          "internalType": "bool",
          "name": "",
          "type": "bool"
        }
      ],
      "payable": false,
      "stateMutability": "nonpayable",
      "type": "function"
    },
    {
      "constant": true,
      "inputs": [],
      "name": "apr",
      "outputs": [
        {
          "internalType": "address",
          "name": "",
          "type": "address"
        }
      ],
      "payable": false,
      "stateMutability": "view",
      "type": "function"
    },
    {
      "constant": true,
      "inputs": [
        {
          "internalType": "address",
          "name": "account",
          "type": "address"
        }
      ],
      "name": "balanceOf",
      "outputs": [
        {
          "internalType": "uint256",
          "name": "",
          "type": "uint256"
        }
      ],
      "payable": false,
      "stateMutability": "view",
      "type": "function"
    },
    {
      "constant": true,
      "inputs": [],
      "name": "compound",
      "outputs": [
        {
          "internalType": "address",
          "name": "",
          "type": "address"
        }
      ],
      "payable": false,
      "stateMutability": "view",
      "type": "function"
    },
    {
      "constant": true,
      "inputs": [],
      "name": "dToken",
      "outputs": [
        {
          "internalType": "uint256",
          "name": "",
          "type": "uint256"
        }
      ],
      "payable": false,
      "stateMutability": "view",
      "type": "function"
    },
    {
      "constant": true,
      "inputs": [],
      "name": "decimals",
      "outputs": [
        {
          "internalType": "uint8",
          "name": "",
          "type": "uint8"
        }
      ],
      "payable": false,
      "stateMutability": "view",
      "type": "function"
    },
    {
      "constant": false,
      "inputs": [
        {
          "internalType": "address",
          "name": "spender",
          "type": "address"
        },
        {
          "internalType": "uint256",
          "name": "subtractedValue",
          "type": "uint256"
        }
      ],
      "name": "decreaseAllowance",
      "outputs": [
        {
          "internalType": "bool",
          "name": "",
          "type": "bool"
        }
      ],
      "payable": false,
      "stateMutability": "nonpayable",
      "type": "function"
    },
    {
      "constant": true,
      "inputs": [],
      "name": "dydx",
      "outputs": [
        {
          "internalType": "address",
          "name": "",
          "type": "address"
        }
      ],
      "payable": false,
      "stateMutability": "view",
      "type": "function"
    },
    {
      "constant": true,
      "inputs": [],
      "name": "fulcrum",
      "outputs": [
        {
          "internalType": "address",
          "name": "",
          "type": "address"
        }
      ],
      "payable": false,
      "stateMutability": "view",
      "type": "function"
    },
    {
      "constant": false,
      "inputs": [
        {
          "internalType": "address",
          "name": "spender",
          "type": "address"
        },
        {
          "internalType": "uint256",
          "name": "addedValue",
          "type": "uint256"
        }
      ],
      "name": "increaseAllowance",
      "outputs": [
        {
          "internalType": "bool",
          "name": "",
          "type": "bool"
        }
      ],
      "payable": false,
      "stateMutability": "nonpayable",
      "type": "function"
    },
    {
      "constant": true,
      "inputs": [],
      "name": "isOwner",
      "outputs": [
        {
          "internalType": "bool",
          "name": "",
          "type": "bool"
        }
      ],
      "payable": false,
      "stateMutability": "view",
      "type": "function"
    },
    {
      "constant": true,
      "inputs": [],
      "name": "name",
      "outputs": [
        {
          "internalType": "string",
          "name": "",
          "type": "string"
        }
      ],
      "payable": false,
      "stateMutability": "view",
      "type": "function"
    },
    {
      "constant": true,
      "inputs": [],
      "name": "owner",
      "outputs": [
        {
          "internalType": "address",
          "name": "",
          "type": "address"
        }
      ],
      "payable": false,
      "stateMutability": "view",
      "type": "function"
    },
    {
      "constant": true,
      "inputs": [],
      "name": "pool",
      "outputs": [
        {
          "internalType": "uint256",
          "name": "",
          "type": "uint256"
        }
      ],
      "payable": false,
      "stateMutability": "view",
      "type": "function"
    },
    {
      "constant": true,
      "inputs": [],
      "name": "provider",
      "outputs": [
        {
          "internalType": "enum yUSDC.Lender",
          "name": "",
          "type": "uint8"
        }
      ],
      "payable": false,
      "stateMutability": "view",
      "type": "function"
    },
    {
      "constant": false,
      "inputs": [],
      "name": "renounceOwnership",
      "outputs": [],
      "payable": false,
      "stateMutability": "nonpayable",
      "type": "function"
    },
    {
      "constant": true,
      "inputs": [],
      "name": "symbol",
      "outputs": [
        {
          "internalType": "string",
          "name": "",
          "type": "string"
        }
      ],
      "payable": false,
      "stateMutability": "view",
      "type": "function"
    },
    {
      "constant": true,
      "inputs": [],
      "name": "token",
      "outputs": [
        {
          "internalType": "address",
          "name": "",
          "type": "address"
        }
      ],
      "payable": false,
      "stateMutability": "view",
      "type": "function"
    },
    {
      "constant": true,
      "inputs": [],
      "name": "totalSupply",
      "outputs": [
        {
          "internalType": "uint256",
          "name": "",
          "type": "uint256"
        }
      ],
      "payable": false,
      "stateMutability": "view",
      "type": "function"
    },
    {
      "constant": false,
      "inputs": [
        {
          "internalType": "address",
          "name": "recipient",
          "type": "address"
        },
        {
          "internalType": "uint256",
          "name": "amount",
          "type": "uint256"
        }
      ],
      "name": "transfer",
      "outputs": [
        {
          "internalType": "bool",
          "name": "",
          "type": "bool"
        }
      ],
      "payable": false,
      "stateMutability": "nonpayable",
      "type": "function"
    },
    {
      "constant": false,
      "inputs": [
        {
          "internalType": "address",
          "name": "sender",
          "type": "address"
        },
        {
          "internalType": "address",
          "name": "recipient",
          "type": "address"
        },
        {
          "internalType": "uint256",
          "name": "amount",
          "type": "uint256"
        }
      ],
      "name": "transferFrom",
      "outputs": [
        {
          "internalType": "bool",
          "name": "",
          "type": "bool"
        }
      ],
      "payable": false,
      "stateMutability": "nonpayable",
      "type": "function"
    },
    {
      "constant": false,
      "inputs": [
        {
          "internalType": "address",
          "name": "newOwner",
          "type": "address"
        }
      ],
      "name": "transferOwnership",
      "outputs": [],
      "payable": false,
      "stateMutability": "nonpayable",
      "type": "function"
    },
    {
      "constant": false,
      "inputs": [
        {
          "internalType": "address",
          "name": "_new_AAVE",
          "type": "address"
        }
      ],
      "name": "set_new_AAVE",
      "outputs": [],
      "payable": false,
      "stateMutability": "nonpayable",
      "type": "function"
    },
    {
      "constant": false,
      "inputs": [
        {
          "internalType": "address",
          "name": "_new_DYDX",
          "type": "address"
        }
      ],
      "name": "set_new_DYDX",
      "outputs": [],
      "payable": false,
      "stateMutability": "nonpayable",
      "type": "function"
    },
    {
      "constant": false,
      "inputs": [
        {
          "internalType": "address",
          "name": "_new_APR",
          "type": "address"
        }
      ],
      "name": "set_new_APR",
      "outputs": [],
      "payable": false,
      "stateMutability": "nonpayable",
      "type": "function"
    },
    {
      "constant": false,
      "inputs": [
        {
          "internalType": "address",
          "name": "_new_FULCRUM",
          "type": "address"
        }
      ],
      "name": "set_new_FULCRUM",
      "outputs": [],
      "payable": false,
      "stateMutability": "nonpayable",
      "type": "function"
    },
    {
      "constant": false,
      "inputs": [
        {
          "internalType": "address",
          "name": "_new_ATOKEN",
          "type": "address"
        }
      ],
      "name": "set_new_ATOKEN",
      "outputs": [],
      "payable": false,
      "stateMutability": "nonpayable",
      "type": "function"
    },
    {
      "constant": false,
      "inputs": [
        {
          "internalType": "address",
          "name": "_new_COMPOUND",
          "type": "address"
        }
      ],
      "name": "set_new_COMPOUND",
      "outputs": [],
      "payable": false,
      "stateMutability": "nonpayable",
      "type": "function"
    },
    {
      "constant": false,
      "inputs": [
        {
          "internalType": "uint256",
          "name": "_new_DTOKEN",
          "type": "uint256"
        }
      ],
      "name": "set_new_DTOKEN",
      "outputs": [],
      "payable": false,
      "stateMutability": "nonpayable",
      "type": "function"
    },
    {
      "constant": true,
      "inputs": [],
      "name": "recommend",
      "outputs": [
        {
          "internalType": "enum yUSDC.Lender",
          "name": "",
          "type": "uint8"
        }
      ],
      "payable": false,
      "stateMutability": "view",
      "type": "function"
    },
    {
      "constant": false,
      "inputs": [
        {
          "internalType": "uint256",
          "name": "amount",
          "type": "uint256"
        }
      ],
      "name": "supplyDydx",
      "outputs": [
        {
          "internalType": "uint256",
          "name": "",
          "type": "uint256"
        }
      ],
      "payable": false,
      "stateMutability": "nonpayable",
      "type": "function"
    },
    {
      "constant": true,
      "inputs": [],
      "name": "balance",
      "outputs": [
        {
          "internalType": "uint256",
          "name": "",
          "type": "uint256"
        }
      ],
      "payable": false,
      "stateMutability": "view",
      "type": "function"
    },
    {
      "constant": true,
      "inputs": [],
      "name": "getAave",
      "outputs": [
        {
          "internalType": "address",
          "name": "",
          "type": "address"
        }
      ],
      "payable": false,
      "stateMutability": "view",
      "type": "function"
    },
    {
      "constant": true,
      "inputs": [],
      "name": "getAaveCore",
      "outputs": [
        {
          "internalType": "address",
          "name": "",
          "type": "address"
        }
      ],
      "payable": false,
      "stateMutability": "view",
      "type": "function"
    },
    {
      "constant": false,
      "inputs": [],
      "name": "approveToken",
      "outputs": [],
      "payable": false,
      "stateMutability": "nonpayable",
      "type": "function"
    },
    {
      "constant": true,
      "inputs": [],
      "name": "balanceDydx",
      "outputs": [
        {
          "internalType": "uint256",
          "name": "",
          "type": "uint256"
        }
      ],
      "payable": false,
      "stateMutability": "view",
      "type": "function"
    },
    {
      "constant": true,
      "inputs": [],
      "name": "balanceCompound",
      "outputs": [
        {
          "internalType": "uint256",
          "name": "",
          "type": "uint256"
        }
      ],
      "payable": false,
      "stateMutability": "view",
      "type": "function"
    },
    {
      "constant": true,
      "inputs": [],
      "name": "balanceCompoundInToken",
      "outputs": [
        {
          "internalType": "uint256",
          "name": "",
          "type": "uint256"
        }
      ],
      "payable": false,
      "stateMutability": "view",
      "type": "function"
    },
    {
      "constant": true,
      "inputs": [],
      "name": "balanceFulcrumInToken",
      "outputs": [
        {
          "internalType": "uint256",
          "name": "",
          "type": "uint256"
        }
      ],
      "payable": false,
      "stateMutability": "view",
      "type": "function"
    },
    {
      "constant": true,
      "inputs": [],
      "name": "balanceFulcrum",
      "outputs": [
        {
          "internalType": "uint256",
          "name": "",
          "type": "uint256"
        }
      ],
      "payable": false,
      "stateMutability": "view",
      "type": "function"
    },
    {
      "constant": true,
      "inputs": [],
      "name": "balanceAave",
      "outputs": [
        {
          "internalType": "uint256",
          "name": "",
          "type": "uint256"
        }
      ],
      "payable": false,
      "stateMutability": "view",
      "type": "function"
    },
    {
      "constant": false,
      "inputs": [],
      "name": "rebalance",
      "outputs": [],
      "payable": false,
      "stateMutability": "nonpayable",
      "type": "function"
    },
    {
      "constant": false,
      "inputs": [
        {
          "internalType": "uint256",
          "name": "amount",
          "type": "uint256"
        }
      ],
      "name": "supplyAave",
      "outputs": [],
      "payable": false,
      "stateMutability": "nonpayable",
      "type": "function"
    },
    {
      "constant": false,
      "inputs": [
        {
          "internalType": "uint256",
          "name": "amount",
          "type": "uint256"
        }
      ],
      "name": "supplyFulcrum",
      "outputs": [],
      "payable": false,
      "stateMutability": "nonpayable",
      "type": "function"
    },
    {
      "constant": false,
      "inputs": [
        {
          "internalType": "uint256",
          "name": "amount",
          "type": "uint256"
        }
      ],
      "name": "supplyCompound",
      "outputs": [],
      "payable": false,
      "stateMutability": "nonpayable",
      "type": "function"
    },
    {
      "constant": false,
      "inputs": [
        {
          "internalType": "uint256",
          "name": "_amount",
          "type": "uint256"
        }
      ],
      "name": "invest",
      "outputs": [],
      "payable": false,
      "stateMutability": "nonpayable",
      "type": "function"
    },
    {
      "constant": false,
      "inputs": [],
      "name": "investSelf",
      "outputs": [],
      "payable": false,
      "stateMutability": "nonpayable",
      "type": "function"
    },
    {
      "constant": true,
      "inputs": [],
      "name": "calcPoolValueInToken",
      "outputs": [
        {
          "internalType": "uint256",
          "name": "",
          "type": "uint256"
        }
      ],
      "payable": false,
      "stateMutability": "view",
      "type": "function"
    },
    {
      "constant": true,
      "inputs": [],
      "name": "getPricePerFullShare",
      "outputs": [
        {
          "internalType": "uint256",
          "name": "",
          "type": "uint256"
        }
      ],
      "payable": false,
      "stateMutability": "view",
      "type": "function"
    },
    {
      "constant": false,
      "inputs": [
        {
          "internalType": "uint256",
          "name": "_shares",
          "type": "uint256"
        }
      ],
      "name": "redeem",
      "outputs": [],
      "payable": false,
      "stateMutability": "nonpayable",
      "type": "function"
    },
    {
      "constant": false,
      "inputs": [
        {
          "internalType": "contract IERC20",
          "name": "_TokenAddress",
          "type": "address"
        }
      ],
      "name": "inCaseTokenGetsStuck",
      "outputs": [],
      "payable": false,
      "stateMutability": "nonpayable",
      "type": "function"
    },
    {
      "constant": false,
      "inputs": [],
      "name": "inCaseETHGetsStuck",
      "outputs": [],
      "payable": false,
      "stateMutability": "nonpayable",
      "type": "function"
    }
  ],
  "bytecode": "0x60806040526000601060146101000a81548160ff021916908360048111156200002457fe5b02179055503480156200003657600080fd5b506040518060400160405280600581526020017f79555344430000000000000000000000000000000000000000000000000000008152506040518060400160405280600581526020017f795553444300000000000000000000000000000000000000000000000000000081525060068260039080519060200190620000bd92919062000a4d565b508160049080519060200190620000d692919062000a4d565b5080600560006101000a81548160ff021916908360ff16021790555050505060016006819055506200010d6200043b60201b60201c565b600760006101000a81548173ffffffffffffffffffffffffffffffffffffffff021916908373ffffffffffffffffffffffffffffffffffffffff160217905550600760009054906101000a900473ffffffffffffffffffffffffffffffffffffffff1673ffffffffffffffffffffffffffffffffffffffff16600073ffffffffffffffffffffffffffffffffffffffff167f8be0079c531659141344cd1fd0a4f28419497f9722a3daafe3b4186f6b6457e060405160405180910390a373a0b86991c6218b36c1d19d4a2e9eb0ce3606eb48600960006101000a81548173ffffffffffffffffffffffffffffffffffffffff021916908373ffffffffffffffffffffffffffffffffffffffff16021790555073318135fbd0b40d48fcef431ccdf6c7926450edfb601060006101000a81548173ffffffffffffffffffffffffffffffffffffffff021916908373ffffffffffffffffffffffffffffffffffffffff160217905550731e0447b19bb6ecfdae1e4ae1694b0c3659614e4e600e60006101000a81548173ffffffffffffffffffffffffffffffffffffffff021916908373ffffffffffffffffffffffffffffffffffffffff1602179055507324a42fd28c976a61df5d00d0599c34c4f90748c8600c60006101000a81548173ffffffffffffffffffffffffffffffffffffffff021916908373ffffffffffffffffffffffffffffffffffffffff16021790555073f013406a0b1d544238083df0b93ad0d2cbe0f65f600b60006101000a81548173ffffffffffffffffffffffffffffffffffffffff021916908373ffffffffffffffffffffffffffffffffffffffff160217905550739ba00d6856a4edf4665bca2c2309936572473b7e600d60006101000a81548173ffffffffffffffffffffffffffffffffffffffff021916908373ffffffffffffffffffffffffffffffffffffffff1602179055507339aa39c021dfbae8fac545936693ac917d5e7563600a60006101000a81548173ffffffffffffffffffffffffffffffffffffffff021916908373ffffffffffffffffffffffffffffffffffffffff1602179055506002600f81905550620004356200044360201b60201c565b62000c4f565b600033905090565b600960009054906101000a900473ffffffffffffffffffffffffffffffffffffffff1673ffffffffffffffffffffffffffffffffffffffff1663095ea7b3600a60009054906101000a900473ffffffffffffffffffffffffffffffffffffffff167fffffffffffffffffffffffffffffffffffffffffffffffffffffffffffffffff6040518363ffffffff1660e01b8152600401620004e492919062000ba4565b602060405180830381600087803b158015620004ff57600080fd5b505af115801562000514573d6000803e3d6000fd5b505050506040513d601f19601f820116820180604052506200053a919081019062000b56565b50600960009054906101000a900473ffffffffffffffffffffffffffffffffffffffff1673ffffffffffffffffffffffffffffffffffffffff1663095ea7b3600e60009054906101000a900473ffffffffffffffffffffffffffffffffffffffff167fffffffffffffffffffffffffffffffffffffffffffffffffffffffffffffffff6040518363ffffffff1660e01b8152600401620005dc92919062000ba4565b602060405180830381600087803b158015620005f757600080fd5b505af11580156200060c573d6000803e3d6000fd5b505050506040513d601f19601f8201168201806040525062000632919081019062000b56565b50600960009054906101000a900473ffffffffffffffffffffffffffffffffffffffff1673ffffffffffffffffffffffffffffffffffffffff1663095ea7b362000681620008f760201b60201c565b7fffffffffffffffffffffffffffffffffffffffffffffffffffffffffffffffff6040518363ffffffff1660e01b8152600401620006c192919062000ba4565b602060405180830381600087803b158015620006dc57600080fd5b505af1158015620006f1573d6000803e3d6000fd5b505050506040513d601f19601f8201168201806040525062000717919081019062000b56565b50600960009054906101000a900473ffffffffffffffffffffffffffffffffffffffff1673ffffffffffffffffffffffffffffffffffffffff1663095ea7b362000766620009a260201b60201c565b7fffffffffffffffffffffffffffffffffffffffffffffffffffffffffffffffff6040518363ffffffff1660e01b8152600401620007a692919062000ba4565b602060405180830381600087803b158015620007c157600080fd5b505af1158015620007d6573d6000803e3d6000fd5b505050506040513d601f19601f82011682018060405250620007fc919081019062000b56565b50600960009054906101000a900473ffffffffffffffffffffffffffffffffffffffff1673ffffffffffffffffffffffffffffffffffffffff1663095ea7b3600b60009054906101000a900473ffffffffffffffffffffffffffffffffffffffff167fffffffffffffffffffffffffffffffffffffffffffffffffffffffffffffffff6040518363ffffffff1660e01b81526004016200089e92919062000ba4565b602060405180830381600087803b158015620008b957600080fd5b505af1158015620008ce573d6000803e3d6000fd5b505050506040513d601f19601f82011682018060405250620008f4919081019062000b56565b50565b6000600c60009054906101000a900473ffffffffffffffffffffffffffffffffffffffff1673ffffffffffffffffffffffffffffffffffffffff16630261bf8b6040518163ffffffff1660e01b815260040160206040518083038186803b1580156200096257600080fd5b505afa15801562000977573d6000803e3d6000fd5b505050506040513d601f19601f820116820180604052506200099d919081019062000b2a565b905090565b6000600c60009054906101000a900473ffffffffffffffffffffffffffffffffffffffff1673ffffffffffffffffffffffffffffffffffffffff1663ed6ff7606040518163ffffffff1660e01b815260040160206040518083038186803b15801562000a0d57600080fd5b505afa15801562000a22573d6000803e3d6000fd5b505050506040513d601f19601f8201168201806040525062000a48919081019062000b2a565b905090565b828054600181600116156101000203166002900490600052602060002090601f016020900481019282601f1062000a9057805160ff191683800117855562000ac1565b8280016001018555821562000ac1579182015b8281111562000ac057825182559160200191906001019062000aa3565b5b50905062000ad0919062000ad4565b5090565b62000af991905b8082111562000af557600081600090555060010162000adb565b5090565b90565b60008151905062000b0d8162000c1b565b92915050565b60008151905062000b248162000c35565b92915050565b60006020828403121562000b3d57600080fd5b600062000b4d8482850162000afc565b91505092915050565b60006020828403121562000b6957600080fd5b600062000b798482850162000b13565b91505092915050565b62000b8d8162000bd1565b82525050565b62000b9e8162000c11565b82525050565b600060408201905062000bbb600083018562000b82565b62000bca602083018462000b93565b9392505050565b600062000bde8262000bf1565b9050919050565b60008115159050919050565b600073ffffffffffffffffffffffffffffffffffffffff82169050919050565b6000819050919050565b62000c268162000bd1565b811462000c3257600080fd5b50565b62000c408162000be5565b811462000c4c57600080fd5b50565b615c728062000c5f6000396000f3fe6080604052600436106103505760003560e01c8063812adb06116101c6578063bbf31644116100f7578063f5a41dea11610095578063f69e20461161006f578063f69e204614610bf3578063f7c1ec7714610c1e578063f82ce27d14610c49578063fc0c546a14610c7457610350565b8063f5a41dea14610b88578063f5ff191614610bb3578063f60a15ed14610bdc57610350565b8063db006a75116100d1578063db006a7514610ad0578063dd62ed3e14610af9578063e849d65914610b36578063f2fde38b14610b5f57610350565b8063bbf3164414610a51578063cf8ca42614610a7a578063d9d7858a14610aa557610350565b80639ff011b911610164578063a72879711161013e578063a728797114610995578063a9059cbb146109c0578063a9de245b146109fd578063b69ef8a814610a2657610350565b80639ff011b914610904578063a160176d1461092d578063a457c2d71461095857610350565b80638e4ec6ef116101a05780638e4ec6ef1461086c5780638f32d59b1461089757806395d89b41146108c257806399b71d5c146108ed57610350565b8063812adb06146107ed578063819faf7b146108165780638da5cb5b1461084157610350565b806339509351116102a057806365aab7491161023e578063715018a611610218578063715018a61461076b57806377c7b8fc146107825780637d7c2a1c146107ad5780638124955c146107c457610350565b806365aab749146106da57806370a08231146107035780637137ef991461074057610350565b8063463574731161027a578063463574731461063057806357ded9c91461065957806358782c211461068457806361c1ec55146106af57610350565b806339509351146105b15780633990ab4f146105ee57806339c0a7e11461060557610350565b806316f0115b1161030d5780632afcf480116102e75780632afcf4801461050b5780632c7a5ae4146105345780632e8d6e181461055d578063313ce5671461058657610350565b806316f0115b1461047857806318160ddd146104a357806323b872dd146104ce57610350565b806306636c1c1461035257806306a3fe591461038f57806306fdde03146103ba578063085d4883146103e5578063095ea7b3146104105780630eb2a2671461044d575b005b34801561035e57600080fd5b5061037960048036036103749190810190614a86565b610c9f565b6040516103869190615853565b60405180910390f35b34801561039b57600080fd5b506103a4610edd565b6040516103b19190615445565b60405180910390f35b3480156103c657600080fd5b506103cf610f03565b6040516103dc91906155a8565b60405180910390f35b3480156103f157600080fd5b506103fa610fa5565b604051610407919061558d565b60405180910390f35b34801561041c57600080fd5b5061043760048036036104329190810190614940565b610fb8565b6040516104449190615572565b60405180910390f35b34801561045957600080fd5b50610462610fd6565b60405161046f9190615853565b60405180910390f35b34801561048457600080fd5b5061048d611088565b60405161049a9190615853565b60405180910390f35b3480156104af57600080fd5b506104b861108e565b6040516104c59190615853565b60405180910390f35b3480156104da57600080fd5b506104f560048036036104f091908101906148f1565b611098565b6040516105029190615572565b60405180910390f35b34801561051757600080fd5b50610532600480360361052d9190810190614a86565b611171565b005b34801561054057600080fd5b5061055b60048036036105569190810190614863565b611340565b005b34801561056957600080fd5b50610584600480360361057f91908101906149a5565b6113cb565b005b34801561059257600080fd5b5061059b611531565b6040516105a8919061586e565b60405180910390f35b3480156105bd57600080fd5b506105d860048036036105d39190810190614940565b611548565b6040516105e59190615572565b60405180910390f35b3480156105fa57600080fd5b506106036115fb565b005b34801561061157600080fd5b5061061a6117aa565b6040516106279190615853565b60405180910390f35b34801561063c57600080fd5b5061065760048036036106529190810190614863565b61189a565b005b34801561066557600080fd5b5061066e611925565b60405161067b9190615445565b60405180910390f35b34801561069057600080fd5b5061069961194b565b6040516106a69190615445565b60405180910390f35b3480156106bb57600080fd5b506106c4611971565b6040516106d19190615853565b60405180910390f35b3480156106e657600080fd5b5061070160048036036106fc9190810190614a86565b611a23565b005b34801561070f57600080fd5b5061072a60048036036107259190810190614863565b611abf565b6040516107379190615853565b60405180910390f35b34801561074c57600080fd5b50610755611b07565b6040516107629190615853565b60405180910390f35b34801561077757600080fd5b50610780611b7a565b005b34801561078e57600080fd5b50610797611c82565b6040516107a49190615853565b60405180910390f35b3480156107b957600080fd5b506107c2611cc4565b005b3480156107d057600080fd5b506107eb60048036036107e69190810190614a86565b611dfc565b005b3480156107f957600080fd5b50610814600480360361080f9190810190614863565b611ef0565b005b34801561082257600080fd5b5061082b611f7b565b6040516108389190615445565b60405180910390f35b34801561084d57600080fd5b50610856611fa1565b6040516108639190615445565b60405180910390f35b34801561087857600080fd5b50610881611fcb565b60405161088e9190615445565b60405180910390f35b3480156108a357600080fd5b506108ac611ff1565b6040516108b99190615572565b60405180910390f35b3480156108ce57600080fd5b506108d7612050565b6040516108e491906155a8565b60405180910390f35b3480156108f957600080fd5b506109026120f2565b005b34801561091057600080fd5b5061092b60048036036109269190810190614a86565b612578565b005b34801561093957600080fd5b506109426125c9565b60405161094f919061558d565b60405180910390f35b34801561096457600080fd5b5061097f600480360361097a9190810190614940565b612726565b60405161098c9190615572565b60405180910390f35b3480156109a157600080fd5b506109aa6127f3565b6040516109b79190615853565b60405180910390f35b3480156109cc57600080fd5b506109e760048036036109e29190810190614940565b6128df565b6040516109f49190615572565b60405180910390f35b348015610a0957600080fd5b50610a246004803603610a1f9190810190614863565b6128fd565b005b348015610a3257600080fd5b50610a3b612988565b604051610a489190615853565b60405180910390f35b348015610a5d57600080fd5b50610a786004803603610a739190810190614863565b612a3a565b005b348015610a8657600080fd5b50610a8f612ac5565b604051610a9c9190615853565b60405180910390f35b348015610ab157600080fd5b50610aba612b77565b604051610ac79190615853565b60405180910390f35b348015610adc57600080fd5b50610af76004803603610af29190810190614a86565b612b7d565b005b348015610b0557600080fd5b50610b206004803603610b1b91908101906148b5565b612f80565b604051610b2d9190615853565b60405180910390f35b348015610b4257600080fd5b50610b5d6004803603610b589190810190614a86565b613007565b005b348015610b6b57600080fd5b50610b866004803603610b819190810190614863565b6130f9565b005b348015610b9457600080fd5b50610b9d61314c565b604051610baa9190615853565b60405180910390f35b348015610bbf57600080fd5b50610bda6004803603610bd59190810190614863565b613217565b005b348015610be857600080fd5b50610bf16132a2565b005b348015610bff57600080fd5b50610c086133af565b604051610c159190615445565b60405180910390f35b348015610c2a57600080fd5b50610c336133d5565b604051610c409190615445565b60405180910390f35b348015610c5557600080fd5b50610c5e61347c565b604051610c6b9190615445565b60405180910390f35b348015610c8057600080fd5b50610c89613523565b604051610c969190615445565b60405180910390f35b600060606001604051908082528060200260200182016040528015610cde57816020015b610ccb6145a5565b815260200190600190039081610cc35790505b50905060405180604001604052803073ffffffffffffffffffffffffffffffffffffffff168152602001600081525081600081518110610d1a57fe5b6020026020010181905250610d2d6145d5565b6040518060800160405280600115158152602001600080811115610d4d57fe5b8152602001600080811115610d5e57fe5b8152602001858152509050610d71614613565b600081600001906001811115610d8357fe5b90816001811115610d9057fe5b815250506000816020018181525050818160400181905250600f54816060018181525050308160a0019073ffffffffffffffffffffffffffffffffffffffff16908173ffffffffffffffffffffffffffffffffffffffff168152505060606001604051908082528060200260200182016040528015610e2957816020015b610e1661467f565b815260200190600190039081610e0e5790505b5090508181600081518110610e3a57fe5b6020026020010181905250600e60009054906101000a900473ffffffffffffffffffffffffffffffffffffffff1673ffffffffffffffffffffffffffffffffffffffff1663a67a6a4585836040518363ffffffff1660e01b8152600401610ea292919061553b565b600060405180830381600087803b158015610ebc57600080fd5b505af1158015610ed0573d6000803e3d6000fd5b5050505050505050919050565b600d60009054906101000a900473ffffffffffffffffffffffffffffffffffffffff1681565b606060038054600181600116156101000203166002900480601f016020809104026020016040519081016040528092919081815260200182805460018160011615610100020316600290048015610f9b5780601f10610f7057610100808354040283529160200191610f9b565b820191906000526020600020905b815481529060010190602001808311610f7e57829003601f168201915b5050505050905090565b601060149054906101000a900460ff1681565b6000610fcc610fc5613549565b8484613551565b6001905092915050565b6000600b60009054906101000a900473ffffffffffffffffffffffffffffffffffffffff1673ffffffffffffffffffffffffffffffffffffffff166370a08231306040518263ffffffff1660e01b81526004016110339190615460565b60206040518083038186803b15801561104b57600080fd5b505afa15801561105f573d6000803e3d6000fd5b505050506040513d601f19601f820116820180604052506110839190810190614aaf565b905090565b60085481565b6000600254905090565b60006110a584848461371c565b611166846110b1613549565b61116185604051806060016040528060288152602001615be360289139600160008b73ffffffffffffffffffffffffffffffffffffffff1673ffffffffffffffffffffffffffffffffffffffff1681526020019081526020016000206000611117613549565b73ffffffffffffffffffffffffffffffffffffffff1673ffffffffffffffffffffffffffffffffffffffff168152602001908152602001600020546139a69092919063ffffffff16565b613551565b600190509392505050565b600160066000828254019250508190555060006006549050600082116111cc576040517f08c379a00000000000000000000000000000000000000000000000000000000081526004016111c3906157aa565b60405180910390fd5b6111d4611b07565b600881905550600960009054906101000a900473ffffffffffffffffffffffffffffffffffffffff1673ffffffffffffffffffffffffffffffffffffffff166323b872dd3330856040518463ffffffff1660e01b81526004016112399392919061547b565b602060405180830381600087803b15801561125357600080fd5b505af1158015611267573d6000803e3d6000fd5b505050506040513d601f19601f8201168201806040525061128b919081019061497c565b50611294611cc4565b6000809050600060085414156112b357829050826008819055506112df565b6112dc6008546112ce60025486613a0190919063ffffffff16565b613a7190919063ffffffff16565b90505b6112e7611b07565b6008819055506112f73382613abb565b50600654811461133c576040517f08c379a0000000000000000000000000000000000000000000000000000000008152600401611333906157ea565b60405180910390fd5b5050565b611348611ff1565b611387576040517f08c379a000000000000000000000000000000000000000000000000000000000815260040161137e906156ea565b60405180910390fd5b80600e60006101000a81548173ffffffffffffffffffffffffffffffffffffffff021916908373ffffffffffffffffffffffffffffffffffffffff16021790555050565b6113d3611ff1565b611412576040517f08c379a0000000000000000000000000000000000000000000000000000000008152600401611409906156ea565b60405180910390fd5b60008173ffffffffffffffffffffffffffffffffffffffff166370a08231306040518263ffffffff1660e01b815260040161144d9190615460565b60206040518083038186803b15801561146557600080fd5b505afa158015611479573d6000803e3d6000fd5b505050506040513d601f19601f8201168201806040525061149d9190810190614aaf565b90508173ffffffffffffffffffffffffffffffffffffffff1663a9059cbb33836040518363ffffffff1660e01b81526004016114da9291906154b2565b602060405180830381600087803b1580156114f457600080fd5b505af1158015611508573d6000803e3d6000fd5b505050506040513d601f19601f8201168201806040525061152c919081019061497c565b505050565b6000600560009054906101000a900460ff16905090565b60006115f1611555613549565b846115ec8560016000611566613549565b73ffffffffffffffffffffffffffffffffffffffff1673ffffffffffffffffffffffffffffffffffffffff16815260200190815260200160002060008973ffffffffffffffffffffffffffffffffffffffff1673ffffffffffffffffffffffffffffffffffffffff16815260200190815260200160002054613c4390919063ffffffff16565b613551565b6001905092915050565b60016006600082825401925050819055506000600654905061161b611ff1565b61165a576040517f08c379a0000000000000000000000000000000000000000000000000000000008152600401611651906156ea565b60405180910390fd5b6000600960009054906101000a900473ffffffffffffffffffffffffffffffffffffffff1673ffffffffffffffffffffffffffffffffffffffff166370a08231306040518263ffffffff1660e01b81526004016116b79190615460565b60206040518083038186803b1580156116cf57600080fd5b505afa1580156116e3573d6000803e3d6000fd5b505050506040513d601f19601f820116820180604052506117079190810190614aaf565b90506000811161174c576040517f08c379a0000000000000000000000000000000000000000000000000000000008152600401611743906157aa565b60405180910390fd5b611754611cc4565b61175c611b07565b6008819055505060065481146117a7576040517f08c379a000000000000000000000000000000000000000000000000000000000815260040161179e906157ea565b60405180910390fd5b50565b60006117b46146eb565b600e60009054906101000a900473ffffffffffffffffffffffffffffffffffffffff1673ffffffffffffffffffffffffffffffffffffffff1663c190c2ec60405180604001604052803073ffffffffffffffffffffffffffffffffffffffff1681526020016000815250600f546040518363ffffffff1660e01b815260040161183e92919061582a565b604080518083038186803b15801561185557600080fd5b505afa158015611869573d6000803e3d6000fd5b505050506040513d601f19601f8201168201806040525061188d9190810190614a5d565b9050806020015191505090565b6118a2611ff1565b6118e1576040517f08c379a00000000000000000000000000000000000000000000000000000000081526004016118d8906156ea565b60405180910390fd5b80601060006101000a81548173ffffffffffffffffffffffffffffffffffffffff021916908373ffffffffffffffffffffffffffffffffffffffff16021790555050565b601060009054906101000a900473ffffffffffffffffffffffffffffffffffffffff1681565b600b60009054906101000a900473ffffffffffffffffffffffffffffffffffffffff1681565b6000600a60009054906101000a900473ffffffffffffffffffffffffffffffffffffffff1673ffffffffffffffffffffffffffffffffffffffff166370a08231306040518263ffffffff1660e01b81526004016119ce9190615460565b60206040518083038186803b1580156119e657600080fd5b505afa1580156119fa573d6000803e3d6000fd5b505050506040513d601f19601f82011682018060405250611a1e9190810190614aaf565b905090565b611a2b6133d5565b73ffffffffffffffffffffffffffffffffffffffff1663d2d0e066600960009054906101000a900473ffffffffffffffffffffffffffffffffffffffff168360006040518463ffffffff1660e01b8152600401611a8a93929190615504565b600060405180830381600087803b158015611aa457600080fd5b505af1158015611ab8573d6000803e3d6000fd5b5050505050565b60008060008373ffffffffffffffffffffffffffffffffffffffff1673ffffffffffffffffffffffffffffffffffffffff168152602001908152602001600020549050919050565b6000611b75611b14612988565b611b67611b1f612ac5565b611b59611b2a6117aa565b611b4b611b3561314c565b611b3d6127f3565b613c4390919063ffffffff16565b613c4390919063ffffffff16565b613c4390919063ffffffff16565b613c4390919063ffffffff16565b905090565b611b82611ff1565b611bc1576040517f08c379a0000000000000000000000000000000000000000000000000000000008152600401611bb8906156ea565b60405180910390fd5b600073ffffffffffffffffffffffffffffffffffffffff16600760009054906101000a900473ffffffffffffffffffffffffffffffffffffffff1673ffffffffffffffffffffffffffffffffffffffff167f8be0079c531659141344cd1fd0a4f28419497f9722a3daafe3b4186f6b6457e060405160405180910390a36000600760006101000a81548173ffffffffffffffffffffffffffffffffffffffff021916908373ffffffffffffffffffffffffffffffffffffffff160217905550565b600080611c8d611b07565b9050611cbe600254611cb0670de0b6b3a764000084613a0190919063ffffffff16565b613a7190919063ffffffff16565b91505090565b6000611cce6125c9565b9050601060149054906101000a900460ff166004811115611ceb57fe5b816004811115611cf757fe5b14611d0557611d04613c98565b5b6000611d0f612988565b1115611dd65760016004811115611d2257fe5b816004811115611d2e57fe5b1415611d4657611d44611d3f612988565b610c9f565b505b600480811115611d5257fe5b816004811115611d5e57fe5b1415611d7557611d74611d6f612988565b611dfc565b5b60026004811115611d8257fe5b816004811115611d8e57fe5b1415611da557611da4611d9f612988565b613007565b5b60036004811115611db257fe5b816004811115611dbe57fe5b1415611dd557611dd4611dcf612988565b611a23565b5b5b80601060146101000a81548160ff02191690836004811115611df457fe5b021790555050565b6000600b60009054906101000a900473ffffffffffffffffffffffffffffffffffffffff1673ffffffffffffffffffffffffffffffffffffffff166340c10f1930846040518363ffffffff1660e01b8152600401611e5b9291906154b2565b602060405180830381600087803b158015611e7557600080fd5b505af1158015611e89573d6000803e3d6000fd5b505050506040513d601f19601f82011682018060405250611ead9190810190614aaf565b11611eed576040517f08c379a0000000000000000000000000000000000000000000000000000000008152600401611ee4906157ca565b60405180910390fd5b50565b611ef8611ff1565b611f37576040517f08c379a0000000000000000000000000000000000000000000000000000000008152600401611f2e906156ea565b60405180910390fd5b80600c60006101000a81548173ffffffffffffffffffffffffffffffffffffffff021916908373ffffffffffffffffffffffffffffffffffffffff16021790555050565b600c60009054906101000a900473ffffffffffffffffffffffffffffffffffffffff1681565b6000600760009054906101000a900473ffffffffffffffffffffffffffffffffffffffff16905090565b600e60009054906101000a900473ffffffffffffffffffffffffffffffffffffffff1681565b6000600760009054906101000a900473ffffffffffffffffffffffffffffffffffffffff1673ffffffffffffffffffffffffffffffffffffffff16612034613549565b73ffffffffffffffffffffffffffffffffffffffff1614905090565b606060048054600181600116156101000203166002900480601f0160208091040260200160405190810160405280929190818152602001828054600181600116156101000203166002900480156120e85780601f106120bd576101008083540402835291602001916120e8565b820191906000526020600020905b8154815290600101906020018083116120cb57829003601f168201915b5050505050905090565b600960009054906101000a900473ffffffffffffffffffffffffffffffffffffffff1673ffffffffffffffffffffffffffffffffffffffff1663095ea7b3600a60009054906101000a900473ffffffffffffffffffffffffffffffffffffffff167fffffffffffffffffffffffffffffffffffffffffffffffffffffffffffffffff6040518363ffffffff1660e01b81526004016121919291906154db565b602060405180830381600087803b1580156121ab57600080fd5b505af11580156121bf573d6000803e3d6000fd5b505050506040513d601f19601f820116820180604052506121e3919081019061497c565b50600960009054906101000a900473ffffffffffffffffffffffffffffffffffffffff1673ffffffffffffffffffffffffffffffffffffffff1663095ea7b3600e60009054906101000a900473ffffffffffffffffffffffffffffffffffffffff167fffffffffffffffffffffffffffffffffffffffffffffffffffffffffffffffff6040518363ffffffff1660e01b81526004016122839291906154db565b602060405180830381600087803b15801561229d57600080fd5b505af11580156122b1573d6000803e3d6000fd5b505050506040513d601f19601f820116820180604052506122d5919081019061497c565b50600960009054906101000a900473ffffffffffffffffffffffffffffffffffffffff1673ffffffffffffffffffffffffffffffffffffffff1663095ea7b361231c6133d5565b7fffffffffffffffffffffffffffffffffffffffffffffffffffffffffffffffff6040518363ffffffff1660e01b815260040161235a9291906154db565b602060405180830381600087803b15801561237457600080fd5b505af1158015612388573d6000803e3d6000fd5b505050506040513d601f19601f820116820180604052506123ac919081019061497c565b50600960009054906101000a900473ffffffffffffffffffffffffffffffffffffffff1673ffffffffffffffffffffffffffffffffffffffff1663095ea7b36123f361347c565b7fffffffffffffffffffffffffffffffffffffffffffffffffffffffffffffffff6040518363ffffffff1660e01b81526004016124319291906154db565b602060405180830381600087803b15801561244b57600080fd5b505af115801561245f573d6000803e3d6000fd5b505050506040513d601f19601f82011682018060405250612483919081019061497c565b50600960009054906101000a900473ffffffffffffffffffffffffffffffffffffffff1673ffffffffffffffffffffffffffffffffffffffff1663095ea7b3600b60009054906101000a900473ffffffffffffffffffffffffffffffffffffffff167fffffffffffffffffffffffffffffffffffffffffffffffffffffffffffffffff6040518363ffffffff1660e01b81526004016125239291906154db565b602060405180830381600087803b15801561253d57600080fd5b505af1158015612551573d6000803e3d6000fd5b505050506040513d601f19601f82011682018060405250612575919081019061497c565b50565b612580611ff1565b6125bf576040517f08c379a00000000000000000000000000000000000000000000000000000000081526004016125b6906156ea565b60405180910390fd5b80600f8190555050565b6000806000806000601060009054906101000a900473ffffffffffffffffffffffffffffffffffffffff1673ffffffffffffffffffffffffffffffffffffffff1663d88be3c0600960009054906101000a900473ffffffffffffffffffffffffffffffffffffffff166040518263ffffffff1660e01b815260040161264e9190615445565b60006040518083038186803b15801561266657600080fd5b505afa15801561267a573d6000803e3d6000fd5b505050506040513d6000823e3d601f19601f820116820180604052506126a391908101906149ce565b9450945094509450506000809050808511156126bd578490505b808411156126c9578390505b808311156126d5578290505b808211156126e1578190505b6000809050828214156126f357600190505b8382141561270057600390505b8482141561270d57600490505b8582141561271a57600290505b80965050505050505090565b60006127e9612733613549565b846127e485604051806060016040528060258152602001615c0b602591396001600061275d613549565b73ffffffffffffffffffffffffffffffffffffffff1673ffffffffffffffffffffffffffffffffffffffff16815260200190815260200160002060008a73ffffffffffffffffffffffffffffffffffffffff1673ffffffffffffffffffffffffffffffffffffffff168152602001908152602001600020546139a69092919063ffffffff16565b613551565b6001905092915050565b6000806127fe611971565b905060008111156128d8576128d5670de0b6b3a76400006128c7600a60009054906101000a900473ffffffffffffffffffffffffffffffffffffffff1673ffffffffffffffffffffffffffffffffffffffff1663182df0f56040518163ffffffff1660e01b815260040160206040518083038186803b15801561288057600080fd5b505afa158015612894573d6000803e3d6000fd5b505050506040513d601f19601f820116820180604052506128b89190810190614aaf565b84613a0190919063ffffffff16565b613a7190919063ffffffff16565b90505b8091505090565b60006128f36128ec613549565b848461371c565b6001905092915050565b612905611ff1565b612944576040517f08c379a000000000000000000000000000000000000000000000000000000000815260040161293b906156ea565b60405180910390fd5b80600d60006101000a81548173ffffffffffffffffffffffffffffffffffffffff021916908373ffffffffffffffffffffffffffffffffffffffff16021790555050565b6000600960009054906101000a900473ffffffffffffffffffffffffffffffffffffffff1673ffffffffffffffffffffffffffffffffffffffff166370a08231306040518263ffffffff1660e01b81526004016129e59190615460565b60206040518083038186803b1580156129fd57600080fd5b505afa158015612a11573d6000803e3d6000fd5b505050506040513d601f19601f82011682018060405250612a359190810190614aaf565b905090565b612a42611ff1565b612a81576040517f08c379a0000000000000000000000000000000000000000000000000000000008152600401612a78906156ea565b60405180910390fd5b80600b60006101000a81548173ffffffffffffffffffffffffffffffffffffffff021916908373ffffffffffffffffffffffffffffffffffffffff16021790555050565b6000600d60009054906101000a900473ffffffffffffffffffffffffffffffffffffffff1673ffffffffffffffffffffffffffffffffffffffff166370a08231306040518263ffffffff1660e01b8152600401612b229190615460565b60206040518083038186803b158015612b3a57600080fd5b505afa158015612b4e573d6000803e3d6000fd5b505050506040513d601f19601f82011682018060405250612b729190810190614aaf565b905090565b600f5481565b60016006600082825401925050819055506000600654905060008211612bd8576040517f08c379a0000000000000000000000000000000000000000000000000000000008152600401612bcf9061572a565b60405180910390fd5b6000612be333611abf565b905080831115612c28576040517f08c379a0000000000000000000000000000000000000000000000000000000008152600401612c1f9061570a565b60405180910390fd5b612c30611b07565b6008819055506000612c61600254612c5386600854613a0190919063ffffffff16565b613a7190919063ffffffff16565b9050612ceb846040518060400160405280601d81526020017f72656465656d20616d6f756e7420657863656564732062616c616e63650000008152506000803373ffffffffffffffffffffffffffffffffffffffff1673ffffffffffffffffffffffffffffffffffffffff168152602001908152602001600020546139a69092919063ffffffff16565b6000803373ffffffffffffffffffffffffffffffffffffffff1673ffffffffffffffffffffffffffffffffffffffff16815260200190815260200160002081905550612d4284600254613d1190919063ffffffff16565b600281905550600073ffffffffffffffffffffffffffffffffffffffff163373ffffffffffffffffffffffffffffffffffffffff167fddf252ad1be2c89b69c2b068fc378daa952ba7f163c4a11628f55a4df523b3ef86604051612da69190615853565b60405180910390a36000600960009054906101000a900473ffffffffffffffffffffffffffffffffffffffff1673ffffffffffffffffffffffffffffffffffffffff166370a08231306040518263ffffffff1660e01b8152600401612e0b9190615460565b60206040518083038186803b158015612e2357600080fd5b505afa158015612e37573d6000803e3d6000fd5b505050506040513d601f19601f82011682018060405250612e5b9190810190614aaf565b905081811015612e6f57612e6e82613d5b565b5b600960009054906101000a900473ffffffffffffffffffffffffffffffffffffffff1673ffffffffffffffffffffffffffffffffffffffff1663a9059cbb33846040518363ffffffff1660e01b8152600401612ecc9291906154b2565b602060405180830381600087803b158015612ee657600080fd5b505af1158015612efa573d6000803e3d6000fd5b505050506040513d601f19601f82011682018060405250612f1e919081019061497c565b50612f27611cc4565b612f2f611b07565b6008819055505050506006548114612f7c576040517f08c379a0000000000000000000000000000000000000000000000000000000008152600401612f73906157ea565b60405180910390fd5b5050565b6000600160008473ffffffffffffffffffffffffffffffffffffffff1673ffffffffffffffffffffffffffffffffffffffff16815260200190815260200160002060008373ffffffffffffffffffffffffffffffffffffffff1673ffffffffffffffffffffffffffffffffffffffff16815260200190815260200160002054905092915050565b6000600a60009054906101000a900473ffffffffffffffffffffffffffffffffffffffff1673ffffffffffffffffffffffffffffffffffffffff1663a0712d68836040518263ffffffff1660e01b81526004016130649190615853565b602060405180830381600087803b15801561307e57600080fd5b505af1158015613092573d6000803e3d6000fd5b505050506040513d601f19601f820116820180604052506130b69190810190614aaf565b146130f6576040517f08c379a00000000000000000000000000000000000000000000000000000000081526004016130ed9061564a565b60405180910390fd5b50565b613101611ff1565b613140576040517f08c379a0000000000000000000000000000000000000000000000000000000008152600401613137906156ea565b60405180910390fd5b61314981613ed1565b50565b600080613157610fd6565b9050600081111561321057600b60009054906101000a900473ffffffffffffffffffffffffffffffffffffffff1673ffffffffffffffffffffffffffffffffffffffff166306b3efd6306040518263ffffffff1660e01b81526004016131bd9190615460565b60206040518083038186803b1580156131d557600080fd5b505afa1580156131e9573d6000803e3d6000fd5b505050506040513d601f19601f8201168201806040525061320d9190810190614aaf565b90505b8091505090565b61321f611ff1565b61325e576040517f08c379a0000000000000000000000000000000000000000000000000000000008152600401613255906156ea565b60405180910390fd5b80600a60006101000a81548173ffffffffffffffffffffffffffffffffffffffff021916908373ffffffffffffffffffffffffffffffffffffffff16021790555050565b6132aa611ff1565b6132e9576040517f08c379a00000000000000000000000000000000000000000000000000000000081526004016132e0906156ea565b60405180910390fd5b60003373ffffffffffffffffffffffffffffffffffffffff163073ffffffffffffffffffffffffffffffffffffffff163160405161332690615430565b60006040518083038185875af1925050503d8060008114613363576040519150601f19603f3d011682016040523d82523d6000602084013e613368565b606091505b50509050806133ac576040517f08c379a00000000000000000000000000000000000000000000000000000000081526004016133a39061568a565b60405180910390fd5b50565b600a60009054906101000a900473ffffffffffffffffffffffffffffffffffffffff1681565b6000600c60009054906101000a900473ffffffffffffffffffffffffffffffffffffffff1673ffffffffffffffffffffffffffffffffffffffff16630261bf8b6040518163ffffffff1660e01b815260040160206040518083038186803b15801561343f57600080fd5b505afa158015613453573d6000803e3d6000fd5b505050506040513d601f19601f82011682018060405250613477919081019061488c565b905090565b6000600c60009054906101000a900473ffffffffffffffffffffffffffffffffffffffff1673ffffffffffffffffffffffffffffffffffffffff1663ed6ff7606040518163ffffffff1660e01b815260040160206040518083038186803b1580156134e657600080fd5b505afa1580156134fa573d6000803e3d6000fd5b505050506040513d601f19601f8201168201806040525061351e919081019061488c565b905090565b600960009054906101000a900473ffffffffffffffffffffffffffffffffffffffff1681565b600033905090565b600073ffffffffffffffffffffffffffffffffffffffff168373ffffffffffffffffffffffffffffffffffffffff1614156135c1576040517f08c379a00000000000000000000000000000000000000000000000000000000081526004016135b89061578a565b60405180910390fd5b600073ffffffffffffffffffffffffffffffffffffffff168273ffffffffffffffffffffffffffffffffffffffff161415613631576040517f08c379a00000000000000000000000000000000000000000000000000000000081526004016136289061562a565b60405180910390fd5b80600160008573ffffffffffffffffffffffffffffffffffffffff1673ffffffffffffffffffffffffffffffffffffffff16815260200190815260200160002060008473ffffffffffffffffffffffffffffffffffffffff1673ffffffffffffffffffffffffffffffffffffffff168152602001908152602001600020819055508173ffffffffffffffffffffffffffffffffffffffff168373ffffffffffffffffffffffffffffffffffffffff167f8c5be1e5ebec7d5bd14f71427d1e84f3dd0314c0f7b2291e5b200ac8c7c3b9258360405161370f9190615853565b60405180910390a3505050565b600073ffffffffffffffffffffffffffffffffffffffff168373ffffffffffffffffffffffffffffffffffffffff16141561378c576040517f08c379a00000000000000000000000000000000000000000000000000000000081526004016137839061574a565b60405180910390fd5b600073ffffffffffffffffffffffffffffffffffffffff168273ffffffffffffffffffffffffffffffffffffffff1614156137fc576040517f08c379a00000000000000000000000000000000000000000000000000000000081526004016137f3906155ca565b60405180910390fd5b61386781604051806060016040528060268152602001615bbd602691396000808773ffffffffffffffffffffffffffffffffffffffff1673ffffffffffffffffffffffffffffffffffffffff168152602001908152602001600020546139a69092919063ffffffff16565b6000808573ffffffffffffffffffffffffffffffffffffffff1673ffffffffffffffffffffffffffffffffffffffff168152602001908152602001600020819055506138fa816000808573ffffffffffffffffffffffffffffffffffffffff1673ffffffffffffffffffffffffffffffffffffffff16815260200190815260200160002054613c4390919063ffffffff16565b6000808473ffffffffffffffffffffffffffffffffffffffff1673ffffffffffffffffffffffffffffffffffffffff168152602001908152602001600020819055508173ffffffffffffffffffffffffffffffffffffffff168373ffffffffffffffffffffffffffffffffffffffff167fddf252ad1be2c89b69c2b068fc378daa952ba7f163c4a11628f55a4df523b3ef836040516139999190615853565b60405180910390a3505050565b60008383111582906139ee576040517f08c379a00000000000000000000000000000000000000000000000000000000081526004016139e591906155a8565b60405180910390fd5b5060008385039050809150509392505050565b600080831415613a145760009050613a6b565b6000828402905082848281613a2557fe5b0414613a66576040517f08c379a0000000000000000000000000000000000000000000000000000000008152600401613a5d906156aa565b60405180910390fd5b809150505b92915050565b6000613ab383836040518060400160405280601a81526020017f536166654d6174683a206469766973696f6e206279207a65726f000000000000815250614001565b905092915050565b600073ffffffffffffffffffffffffffffffffffffffff168273ffffffffffffffffffffffffffffffffffffffff161415613b2b576040517f08c379a0000000000000000000000000000000000000000000000000000000008152600401613b229061580a565b60405180910390fd5b613b4081600254613c4390919063ffffffff16565b600281905550613b97816000808573ffffffffffffffffffffffffffffffffffffffff1673ffffffffffffffffffffffffffffffffffffffff16815260200190815260200160002054613c4390919063ffffffff16565b6000808473ffffffffffffffffffffffffffffffffffffffff1673ffffffffffffffffffffffffffffffffffffffff168152602001908152602001600020819055508173ffffffffffffffffffffffffffffffffffffffff16600073ffffffffffffffffffffffffffffffffffffffff167fddf252ad1be2c89b69c2b068fc378daa952ba7f163c4a11628f55a4df523b3ef83604051613c379190615853565b60405180910390a35050565b600080828401905083811015613c8e576040517f08c379a0000000000000000000000000000000000000000000000000000000008152600401613c859061566a565b60405180910390fd5b8091505092915050565b6000613ca2611971565b90506000811115613cb757613cb681614062565b5b613cbf6117aa565b90506000811115613cd457613cd381614154565b5b613cdc610fd6565b90506000811115613cf157613cf08161438e565b5b613cf9612ac5565b90506000811115613d0e57613d0d81614482565b5b50565b6000613d5383836040518060400160405280601e81526020017f536166654d6174683a207375627472616374696f6e206f766572666c6f7700008152506139a6565b905092915050565b60026004811115613d6857fe5b601060149054906101000a900460ff166004811115613d8357fe5b1415613d9357613d9281614512565b5b60036004811115613da057fe5b601060149054906101000a900460ff166004811115613dbb57fe5b1415613e155780613dca612ac5565b1015613e0b576040517f08c379a0000000000000000000000000000000000000000000000000000000008152600401613e029061576a565b60405180910390fd5b613e1481614482565b5b60016004811115613e2257fe5b601060149054906101000a900460ff166004811115613e3d57fe5b1415613e975780613e4c6117aa565b1015613e8d576040517f08c379a0000000000000000000000000000000000000000000000000000000008152600401613e849061576a565b60405180910390fd5b613e9681614154565b5b600480811115613ea357fe5b601060149054906101000a900460ff166004811115613ebe57fe5b1415613ece57613ecd8161438e565b5b50565b600073ffffffffffffffffffffffffffffffffffffffff168173ffffffffffffffffffffffffffffffffffffffff161415613f41576040517f08c379a0000000000000000000000000000000000000000000000000000000008152600401613f389061560a565b60405180910390fd5b8073ffffffffffffffffffffffffffffffffffffffff16600760009054906101000a900473ffffffffffffffffffffffffffffffffffffffff1673ffffffffffffffffffffffffffffffffffffffff167f8be0079c531659141344cd1fd0a4f28419497f9722a3daafe3b4186f6b6457e060405160405180910390a380600760006101000a81548173ffffffffffffffffffffffffffffffffffffffff021916908373ffffffffffffffffffffffffffffffffffffffff16021790555050565b60008083118290614048576040517f08c379a000000000000000000000000000000000000000000000000000000000815260040161403f91906155a8565b60405180910390fd5b50600083858161405457fe5b049050809150509392505050565b6000600a60009054906101000a900473ffffffffffffffffffffffffffffffffffffffff1673ffffffffffffffffffffffffffffffffffffffff1663db006a75836040518263ffffffff1660e01b81526004016140bf9190615853565b602060405180830381600087803b1580156140d957600080fd5b505af11580156140ed573d6000803e3d6000fd5b505050506040513d601f19601f820116820180604052506141119190810190614aaf565b14614151576040517f08c379a0000000000000000000000000000000000000000000000000000000008152600401614148906155ea565b60405180910390fd5b50565b6060600160405190808252806020026020018201604052801561419157816020015b61417e6145a5565b8152602001906001900390816141765790505b50905060405180604001604052803073ffffffffffffffffffffffffffffffffffffffff1681526020016000815250816000815181106141cd57fe5b60200260200101819052506141e06145d5565b604051806080016040528060001515815260200160008081111561420057fe5b815260200160008081111561421157fe5b8152602001848152509050614224614613565b60018160000190600181111561423657fe5b9081600181111561424357fe5b815250506000816020018181525050818160400181905250600f54816060018181525050308160a0019073ffffffffffffffffffffffffffffffffffffffff16908173ffffffffffffffffffffffffffffffffffffffff1681525050606060016040519080825280602002602001820160405280156142dc57816020015b6142c961467f565b8152602001906001900390816142c15790505b50905081816000815181106142ed57fe5b6020026020010181905250600e60009054906101000a900473ffffffffffffffffffffffffffffffffffffffff1673ffffffffffffffffffffffffffffffffffffffff1663a67a6a4585836040518363ffffffff1660e01b815260040161435592919061553b565b600060405180830381600087803b15801561436f57600080fd5b505af1158015614383573d6000803e3d6000fd5b505050505050505050565b6000600b60009054906101000a900473ffffffffffffffffffffffffffffffffffffffff1673ffffffffffffffffffffffffffffffffffffffff16639dc29fac30846040518363ffffffff1660e01b81526004016143ed9291906154b2565b602060405180830381600087803b15801561440757600080fd5b505af115801561441b573d6000803e3d6000fd5b505050506040513d601f19601f8201168201806040525061443f9190810190614aaf565b1161447f576040517f08c379a0000000000000000000000000000000000000000000000000000000008152600401614476906156ca565b60405180910390fd5b50565b600d60009054906101000a900473ffffffffffffffffffffffffffffffffffffffff1673ffffffffffffffffffffffffffffffffffffffff1663db006a75826040518263ffffffff1660e01b81526004016144dd9190615853565b600060405180830381600087803b1580156144f757600080fd5b505af115801561450b573d6000803e3d6000fd5b5050505050565b600061451c611971565b905060006145286127f3565b90508281101561456d576040517f08c379a00000000000000000000000000000000000000000000000000000000081526004016145649061576a565b60405180910390fd5b6000614594826145868686613a0190919063ffffffff16565b613a7190919063ffffffff16565b905061459f81614062565b50505050565b6040518060400160405280600073ffffffffffffffffffffffffffffffffffffffff168152602001600081525090565b60405180608001604052806000151581526020016000808111156145f557fe5b815260200160008081111561460657fe5b8152602001600081525090565b6040518061010001604052806000600181111561462c57fe5b815260200160008152602001614640614707565b81526020016000815260200160008152602001600073ffffffffffffffffffffffffffffffffffffffff16815260200160008152602001606081525090565b6040518061010001604052806000600181111561469857fe5b8152602001600081526020016146ac614707565b81526020016000815260200160008152602001600073ffffffffffffffffffffffffffffffffffffffff16815260200160008152602001606081525090565b6040518060400160405280600015158152602001600081525090565b604051806080016040528060001515815260200160008081111561472757fe5b815260200160008081111561473857fe5b8152602001600081525090565b60008135905061475481615b60565b92915050565b60008151905061476981615b60565b92915050565b60008151905061477e81615b77565b92915050565b60008135905061479381615b8e565b92915050565b600082601f8301126147aa57600080fd5b81516147bd6147b8826158b6565b615889565b915080825260208301602083018583830111156147d957600080fd5b6147e4838284615ae8565b50505092915050565b6000604082840312156147ff57600080fd5b6148096040615889565b905060006148198482850161476f565b600083015250602061482d8482850161484e565b60208301525092915050565b60008135905061484881615ba5565b92915050565b60008151905061485d81615ba5565b92915050565b60006020828403121561487557600080fd5b600061488384828501614745565b91505092915050565b60006020828403121561489e57600080fd5b60006148ac8482850161475a565b91505092915050565b600080604083850312156148c857600080fd5b60006148d685828601614745565b92505060206148e785828601614745565b9150509250929050565b60008060006060848603121561490657600080fd5b600061491486828701614745565b935050602061492586828701614745565b925050604061493686828701614839565b9150509250925092565b6000806040838503121561495357600080fd5b600061496185828601614745565b925050602061497285828601614839565b9150509250929050565b60006020828403121561498e57600080fd5b600061499c8482850161476f565b91505092915050565b6000602082840312156149b757600080fd5b60006149c584828501614784565b91505092915050565b600080600080600060a086880312156149e657600080fd5b600086015167ffffffffffffffff811115614a0057600080fd5b614a0c88828901614799565b9550506020614a1d8882890161484e565b9450506040614a2e8882890161484e565b9350506060614a3f8882890161484e565b9250506080614a508882890161484e565b9150509295509295909350565b600060408284031215614a6f57600080fd5b6000614a7d848285016147ed565b91505092915050565b600060208284031215614a9857600080fd5b6000614aa684828501614839565b91505092915050565b600060208284031215614ac157600080fd5b6000614acf8482850161484e565b91505092915050565b6000614ae4838361529d565b905092915050565b6000614af883836153a5565b60408301905092915050565b614b0d81615a58565b82525050565b614b1c81615997565b82525050565b614b2b81615997565b82525050565b6000614b3c82615902565b614b468185615948565b935083602082028501614b58856158e2565b8060005b85811015614b945784840389528151614b758582614ad8565b9450614b808361592e565b925060208a01995050600181019050614b5c565b50829750879550505050505092915050565b6000614bb18261590d565b614bbb8185615959565b9350614bc6836158f2565b8060005b83811015614bf7578151614bde8882614aec565b9750614be98361593b565b925050600181019050614bca565b5085935050505092915050565b614c0d816159a9565b82525050565b614c1c816159a9565b82525050565b6000614c2d82615918565b614c37818561596a565b9350614c47818560208601615ae8565b614c5081615b1b565b840191505092915050565b614c6481615a6a565b82525050565b614c7381615a7c565b82525050565b614c8281615a8e565b82525050565b614c9181615aa0565b82525050565b614ca081615ab2565b82525050565b6000614cb182615923565b614cbb8185615986565b9350614ccb818560208601615ae8565b614cd481615b1b565b840191505092915050565b6000614cec602383615986565b91507f45524332303a207472616e7366657220746f20746865207a65726f206164647260008301527f65737300000000000000000000000000000000000000000000000000000000006020830152604082019050919050565b6000614d52601983615986565b91507f434f4d504f554e443a207769746864726177206661696c6564000000000000006000830152602082019050919050565b6000614d92602683615986565b91507f4f776e61626c653a206e6577206f776e657220697320746865207a65726f206160008301527f64647265737300000000000000000000000000000000000000000000000000006020830152604082019050919050565b6000614df8602283615986565b91507f45524332303a20617070726f766520746f20746865207a65726f20616464726560008301527f73730000000000000000000000000000000000000000000000000000000000006020830152604082019050919050565b6000614e5e601783615986565b91507f434f4d504f554e443a20737570706c79206661696c65640000000000000000006000830152602082019050919050565b6000614e9e601b83615986565b91507f536166654d6174683a206164646974696f6e206f766572666c6f7700000000006000830152602082019050919050565b6000614ede601683615986565b91507f7472616e73666572206f6620455448206661696c6564000000000000000000006000830152602082019050919050565b6000614f1e602183615986565b91507f536166654d6174683a206d756c7469706c69636174696f6e206f766572666c6f60008301527f77000000000000000000000000000000000000000000000000000000000000006020830152604082019050919050565b6000614f84601883615986565b91507f46554c4352554d3a207769746864726177206661696c656400000000000000006000830152602082019050919050565b6000614fc4602083615986565b91507f4f776e61626c653a2063616c6c6572206973206e6f7420746865206f776e65726000830152602082019050919050565b6000615004601483615986565b91507f696e73756666696369656e742062616c616e63650000000000000000000000006000830152602082019050919050565b6000615044601f83615986565b91507f7769746864726177206d7573742062652067726561746572207468616e2030006000830152602082019050919050565b6000615084602583615986565b91507f45524332303a207472616e736665722066726f6d20746865207a65726f20616460008301527f64726573730000000000000000000000000000000000000000000000000000006020830152604082019050919050565b60006150ea60008361597b565b9150600082019050919050565b6000615104601283615986565b91507f696e73756666696369656e742066756e647300000000000000000000000000006000830152602082019050919050565b6000615144602483615986565b91507f45524332303a20617070726f76652066726f6d20746865207a65726f2061646460008301527f72657373000000000000000000000000000000000000000000000000000000006020830152604082019050919050565b60006151aa601e83615986565b91507f6465706f736974206d7573742062652067726561746572207468616e203000006000830152602082019050919050565b60006151ea601683615986565b91507f46554c4352554d3a20737570706c79206661696c6564000000000000000000006000830152602082019050919050565b600061522a601f83615986565b91507f5265656e7472616e637947756172643a207265656e7472616e742063616c6c006000830152602082019050919050565b600061526a601f83615986565b91507f45524332303a206d696e7420746f20746865207a65726f2061646472657373006000830152602082019050919050565b6000610160830160008301516152b66000860182614c5b565b5060208301516152c96020860182615403565b5060408301516152dc6040860182615350565b5060608301516152ef60c0860182615403565b50608083015161530260e0860182615403565b5060a0830151615316610100860182614b13565b5060c083015161532a610120860182615403565b5060e08301518482036101408601526153438282614c22565b9150508091505092915050565b6080820160008201516153666000850182614c04565b5060208201516153796020850182614c6a565b50604082015161538c6040850182614c79565b50606082015161539f6060850182615403565b50505050565b6040820160008201516153bb6000850182614b13565b5060208201516153ce6020850182615403565b50505050565b6040820160008201516153ea6000850182614b13565b5060208201516153fd6020850182615403565b50505050565b61540c81615a41565b82525050565b61541b81615a41565b82525050565b61542a81615a4b565b82525050565b600061543b826150dd565b9150819050919050565b600060208201905061545a6000830184614b22565b92915050565b60006020820190506154756000830184614b04565b92915050565b60006060820190506154906000830186614b04565b61549d6020830185614b04565b6154aa6040830184615412565b949350505050565b60006040820190506154c76000830185614b04565b6154d46020830184615412565b9392505050565b60006040820190506154f06000830185614b22565b6154fd6020830184615412565b9392505050565b60006060820190506155196000830186614b22565b6155266020830185615412565b6155336040830184614c97565b949350505050565b600060408201905081810360008301526155558185614ba6565b905081810360208301526155698184614b31565b90509392505050565b60006020820190506155876000830184614c13565b92915050565b60006020820190506155a26000830184614c88565b92915050565b600060208201905081810360008301526155c28184614ca6565b905092915050565b600060208201905081810360008301526155e381614cdf565b9050919050565b6000602082019050818103600083015261560381614d45565b9050919050565b6000602082019050818103600083015261562381614d85565b9050919050565b6000602082019050818103600083015261564381614deb565b9050919050565b6000602082019050818103600083015261566381614e51565b9050919050565b6000602082019050818103600083015261568381614e91565b9050919050565b600060208201905081810360008301526156a381614ed1565b9050919050565b600060208201905081810360008301526156c381614f11565b9050919050565b600060208201905081810360008301526156e381614f77565b9050919050565b6000602082019050818103600083015261570381614fb7565b9050919050565b6000602082019050818103600083015261572381614ff7565b9050919050565b6000602082019050818103600083015261574381615037565b9050919050565b6000602082019050818103600083015261576381615077565b9050919050565b60006020820190508181036000830152615783816150f7565b9050919050565b600060208201905081810360008301526157a381615137565b9050919050565b600060208201905081810360008301526157c38161519d565b9050919050565b600060208201905081810360008301526157e3816151dd565b9050919050565b600060208201905081810360008301526158038161521d565b9050919050565b600060208201905081810360008301526158238161525d565b9050919050565b600060608201905061583f60008301856153d4565b61584c6040830184615412565b9392505050565b60006020820190506158686000830184615412565b92915050565b60006020820190506158836000830184615421565b92915050565b6000604051905081810181811067ffffffffffffffff821117156158ac57600080fd5b8060405250919050565b600067ffffffffffffffff8211156158cd57600080fd5b601f19601f8301169050602081019050919050565b6000819050602082019050919050565b6000819050602082019050919050565b600081519050919050565b600081519050919050565b600081519050919050565b600081519050919050565b6000602082019050919050565b6000602082019050919050565b600082825260208201905092915050565b600082825260208201905092915050565b600082825260208201905092915050565b600081905092915050565b600082825260208201905092915050565b60006159a282615a21565b9050919050565b60008115159050919050565b60006159c082615997565b9050919050565b60008190506159d582615b2c565b919050565b60008190506159e882615b39565b919050565b60008190506159fb82615b46565b919050565b6000819050615a0e82615b53565b919050565b600061ffff82169050919050565b600073ffffffffffffffffffffffffffffffffffffffff82169050919050565b6000819050919050565b600060ff82169050919050565b6000615a6382615ac4565b9050919050565b6000615a75826159c7565b9050919050565b6000615a87826159da565b9050919050565b6000615a99826159ed565b9050919050565b6000615aab82615a00565b9050919050565b6000615abd82615a13565b9050919050565b6000615acf82615ad6565b9050919050565b6000615ae182615a21565b9050919050565b60005b83811015615b06578082015181840152602081019050615aeb565b83811115615b15576000848401525b50505050565b6000601f19601f8301169050919050565b60028110615b3657fe5b50565b60018110615b4357fe5b50565b60018110615b5057fe5b50565b60058110615b5d57fe5b50565b615b6981615997565b8114615b7457600080fd5b50565b615b80816159a9565b8114615b8b57600080fd5b50565b615b97816159b5565b8114615ba257600080fd5b50565b615bae81615a41565b8114615bb957600080fd5b5056fe45524332303a207472616e7366657220616d6f756e7420657863656564732062616c616e636545524332303a207472616e7366657220616d6f756e74206578636565647320616c6c6f77616e636545524332303a2064656372656173656420616c6c6f77616e63652062656c6f77207a65726fa365627a7a72315820e69df7ac1fd5f99098499da2cf98d6b121d4545ea2868bcb01383d1c61b523e86c6578706572696d656e74616cf564736f6c634300050c0040",
  "source": "pragma solidity ^0.5.0;\npragma experimental ABIEncoderV2;\n\ninterface IERC20 {\n    function totalSupply() external view returns (uint256);\n    function balanceOf(address account) external view returns (uint256);\n    function transfer(address recipient, uint256 amount) external returns (bool);\n    function allowance(address owner, address spender) external view returns (uint256);\n    function approve(address spender, uint256 amount) external returns (bool);\n    function transferFrom(address sender, address recipient, uint256 amount) external returns (bool);\n    event Transfer(address indexed from, address indexed to, uint256 value);\n    event Approval(address indexed owner, address indexed spender, uint256 value);\n}\n\ncontract Context {\n    constructor () internal { }\n    // solhint-disable-previous-line no-empty-blocks\n\n    function _msgSender() internal view returns (address payable) {\n        return msg.sender;\n    }\n\n    function _msgData() internal view returns (bytes memory) {\n        this; // silence state mutability warning without generating bytecode - see https://github.com/ethereum/solidity/issues/2691\n        return msg.data;\n    }\n}\n\ncontract ERC20 is Context, IERC20 {\n    using SafeMath for uint256;\n\n    mapping (address => uint256) _balances;\n\n    mapping (address => mapping (address => uint256)) private _allowances;\n\n    uint256 _totalSupply;\n    function totalSupply() public view returns (uint256) {\n        return _totalSupply;\n    }\n    function balanceOf(address account) public view returns (uint256) {\n        return _balances[account];\n    }\n    function transfer(address recipient, uint256 amount) public returns (bool) {\n        _transfer(_msgSender(), recipient, amount);\n        return true;\n    }\n    function allowance(address owner, address spender) public view returns (uint256) {\n        return _allowances[owner][spender];\n    }\n    function approve(address spender, uint256 amount) public returns (bool) {\n        _approve(_msgSender(), spender, amount);\n        return true;\n    }\n    function transferFrom(address sender, address recipient, uint256 amount) public returns (bool) {\n        _transfer(sender, recipient, amount);\n        _approve(sender, _msgSender(), _allowances[sender][_msgSender()].sub(amount, \"ERC20: transfer amount exceeds allowance\"));\n        return true;\n    }\n    function increaseAllowance(address spender, uint256 addedValue) public returns (bool) {\n        _approve(_msgSender(), spender, _allowances[_msgSender()][spender].add(addedValue));\n        return true;\n    }\n    function decreaseAllowance(address spender, uint256 subtractedValue) public returns (bool) {\n        _approve(_msgSender(), spender, _allowances[_msgSender()][spender].sub(subtractedValue, \"ERC20: decreased allowance below zero\"));\n        return true;\n    }\n    function _transfer(address sender, address recipient, uint256 amount) internal {\n        require(sender != address(0), \"ERC20: transfer from the zero address\");\n        require(recipient != address(0), \"ERC20: transfer to the zero address\");\n\n        _balances[sender] = _balances[sender].sub(amount, \"ERC20: transfer amount exceeds balance\");\n        _balances[recipient] = _balances[recipient].add(amount);\n        emit Transfer(sender, recipient, amount);\n    }\n    function _mint(address account, uint256 amount) internal {\n        require(account != address(0), \"ERC20: mint to the zero address\");\n\n        _totalSupply = _totalSupply.add(amount);\n        _balances[account] = _balances[account].add(amount);\n        emit Transfer(address(0), account, amount);\n    }\n    function _burn(address account, uint256 amount) internal {\n        require(account != address(0), \"ERC20: burn from the zero address\");\n\n        _balances[account] = _balances[account].sub(amount, \"ERC20: burn amount exceeds balance\");\n        _totalSupply = _totalSupply.sub(amount);\n        emit Transfer(account, address(0), amount);\n    }\n    function _approve(address owner, address spender, uint256 amount) internal {\n        require(owner != address(0), \"ERC20: approve from the zero address\");\n        require(spender != address(0), \"ERC20: approve to the zero address\");\n\n        _allowances[owner][spender] = amount;\n        emit Approval(owner, spender, amount);\n    }\n    function _burnFrom(address account, uint256 amount) internal {\n        _burn(account, amount);\n        _approve(account, _msgSender(), _allowances[account][_msgSender()].sub(amount, \"ERC20: burn amount exceeds allowance\"));\n    }\n}\n\ncontract ERC20Detailed is IERC20 {\n    string private _name;\n    string private _symbol;\n    uint8 private _decimals;\n\n    constructor (string memory name, string memory symbol, uint8 decimals) public {\n        _name = name;\n        _symbol = symbol;\n        _decimals = decimals;\n    }\n    function name() public view returns (string memory) {\n        return _name;\n    }\n    function symbol() public view returns (string memory) {\n        return _symbol;\n    }\n    function decimals() public view returns (uint8) {\n        return _decimals;\n    }\n}\n\ncontract ReentrancyGuard {\n    uint256 private _guardCounter;\n\n    constructor () internal {\n        _guardCounter = 1;\n    }\n\n    modifier nonReentrant() {\n        _guardCounter += 1;\n        uint256 localCounter = _guardCounter;\n        _;\n        require(localCounter == _guardCounter, \"ReentrancyGuard: reentrant call\");\n    }\n}\n\ncontract Ownable is Context {\n    address private _owner;\n\n    event OwnershipTransferred(address indexed previousOwner, address indexed newOwner);\n    constructor () internal {\n        _owner = _msgSender();\n        emit OwnershipTransferred(address(0), _owner);\n    }\n    function owner() public view returns (address) {\n        return _owner;\n    }\n    modifier onlyOwner() {\n        require(isOwner(), \"Ownable: caller is not the owner\");\n        _;\n    }\n    function isOwner() public view returns (bool) {\n        return _msgSender() == _owner;\n    }\n    function renounceOwnership() public onlyOwner {\n        emit OwnershipTransferred(_owner, address(0));\n        _owner = address(0);\n    }\n    function transferOwnership(address newOwner) public onlyOwner {\n        _transferOwnership(newOwner);\n    }\n    function _transferOwnership(address newOwner) internal {\n        require(newOwner != address(0), \"Ownable: new owner is the zero address\");\n        emit OwnershipTransferred(_owner, newOwner);\n        _owner = newOwner;\n    }\n}\n\nlibrary SafeMath {\n    function add(uint256 a, uint256 b) internal pure returns (uint256) {\n        uint256 c = a + b;\n        require(c >= a, \"SafeMath: addition overflow\");\n\n        return c;\n    }\n    function sub(uint256 a, uint256 b) internal pure returns (uint256) {\n        return sub(a, b, \"SafeMath: subtraction overflow\");\n    }\n    function sub(uint256 a, uint256 b, string memory errorMessage) internal pure returns (uint256) {\n        require(b <= a, errorMessage);\n        uint256 c = a - b;\n\n        return c;\n    }\n    function mul(uint256 a, uint256 b) internal pure returns (uint256) {\n        if (a == 0) {\n            return 0;\n        }\n\n        uint256 c = a * b;\n        require(c / a == b, \"SafeMath: multiplication overflow\");\n\n        return c;\n    }\n    function div(uint256 a, uint256 b) internal pure returns (uint256) {\n        return div(a, b, \"SafeMath: division by zero\");\n    }\n    function div(uint256 a, uint256 b, string memory errorMessage) internal pure returns (uint256) {\n        // Solidity only automatically asserts when dividing by 0\n        require(b > 0, errorMessage);\n        uint256 c = a / b;\n\n        return c;\n    }\n    function mod(uint256 a, uint256 b) internal pure returns (uint256) {\n        return mod(a, b, \"SafeMath: modulo by zero\");\n    }\n    function mod(uint256 a, uint256 b, string memory errorMessage) internal pure returns (uint256) {\n        require(b != 0, errorMessage);\n        return a % b;\n    }\n}\n\nlibrary Address {\n    function isContract(address account) internal view returns (bool) {\n        bytes32 codehash;\n        bytes32 accountHash = 0xc5d2460186f7233c927e7db2dcc703c0e500b653ca82273b7bfad8045d85a470;\n        // solhint-disable-next-line no-inline-assembly\n        assembly { codehash := extcodehash(account) }\n        return (codehash != 0x0 && codehash != accountHash);\n    }\n    function toPayable(address account) internal pure returns (address payable) {\n        return address(uint160(account));\n    }\n    function sendValue(address payable recipient, uint256 amount) internal {\n        require(address(this).balance >= amount, \"Address: insufficient balance\");\n\n        // solhint-disable-next-line avoid-call-value\n        (bool success, ) = recipient.call.value(amount)(\"\");\n        require(success, \"Address: unable to send value, recipient may have reverted\");\n    }\n}\n\nlibrary SafeERC20 {\n    using SafeMath for uint256;\n    using Address for address;\n\n    function safeTransfer(IERC20 token, address to, uint256 value) internal {\n        callOptionalReturn(token, abi.encodeWithSelector(token.transfer.selector, to, value));\n    }\n\n    function safeTransferFrom(IERC20 token, address from, address to, uint256 value) internal {\n        callOptionalReturn(token, abi.encodeWithSelector(token.transferFrom.selector, from, to, value));\n    }\n\n    function safeApprove(IERC20 token, address spender, uint256 value) internal {\n        require((value == 0) || (token.allowance(address(this), spender) == 0),\n            \"SafeERC20: approve from non-zero to non-zero allowance\"\n        );\n        callOptionalReturn(token, abi.encodeWithSelector(token.approve.selector, spender, value));\n    }\n\n    function safeIncreaseAllowance(IERC20 token, address spender, uint256 value) internal {\n        uint256 newAllowance = token.allowance(address(this), spender).add(value);\n        callOptionalReturn(token, abi.encodeWithSelector(token.approve.selector, spender, newAllowance));\n    }\n\n    function safeDecreaseAllowance(IERC20 token, address spender, uint256 value) internal {\n        uint256 newAllowance = token.allowance(address(this), spender).sub(value, \"SafeERC20: decreased allowance below zero\");\n        callOptionalReturn(token, abi.encodeWithSelector(token.approve.selector, spender, newAllowance));\n    }\n    function callOptionalReturn(IERC20 token, bytes memory data) private {\n        require(address(token).isContract(), \"SafeERC20: call to non-contract\");\n\n        // solhint-disable-next-line avoid-low-level-calls\n        (bool success, bytes memory returndata) = address(token).call(data);\n        require(success, \"SafeERC20: low-level call failed\");\n\n        if (returndata.length > 0) { // Return data is optional\n            // solhint-disable-next-line max-line-length\n            require(abi.decode(returndata, (bool)), \"SafeERC20: ERC20 operation did not succeed\");\n        }\n    }\n}\n\ninterface Compound {\n    function mint ( uint256 mintAmount ) external returns ( uint256 );\n    function redeem(uint256 redeemTokens) external returns (uint256);\n    function exchangeRateStored() external view returns (uint);\n}\n\ninterface Fulcrum {\n    function mint(address receiver, uint256 amount) external payable returns (uint256 mintAmount);\n    function burn(address receiver, uint256 burnAmount) external returns (uint256 loanAmountPaid);\n    function assetBalanceOf(address _owner) external view returns (uint256 balance);\n}\n\ninterface ILendingPoolAddressesProvider {\n    function getLendingPool() external view returns (address);\n}\n\ninterface Aave {\n    function deposit(address _reserve, uint256 _amount, uint16 _referralCode) external;\n}\n\ninterface AToken {\n    function redeem(uint256 amount) external;\n}\n\ninterface IIEarnManager {\n    function recommend(address _token) external view returns (\n      string memory choice,\n      uint256 capr,\n      uint256 iapr,\n      uint256 aapr,\n      uint256 dapr\n    );\n}\n\ncontract Structs {\n    struct Val {\n        uint256 value;\n    }\n\n    enum ActionType {\n        Deposit,   // supply tokens\n        Withdraw  // borrow tokens\n    }\n\n    enum AssetDenomination {\n        Wei // the amount is denominated in wei\n    }\n\n    enum AssetReference {\n        Delta // the amount is given as a delta from the current value\n    }\n\n    struct AssetAmount {\n        bool sign; // true if positive\n        AssetDenomination denomination;\n        AssetReference ref;\n        uint256 value;\n    }\n\n    struct ActionArgs {\n        ActionType actionType;\n        uint256 accountId;\n        AssetAmount amount;\n        uint256 primaryMarketId;\n        uint256 secondaryMarketId;\n        address otherAddress;\n        uint256 otherAccountId;\n        bytes data;\n    }\n\n    struct Info {\n        address owner;  // The address that owns the account\n        uint256 number; // A nonce that allows a single address to control many accounts\n    }\n\n    struct Wei {\n        bool sign; // true if positive\n        uint256 value;\n    }\n}\n\ncontract DyDx is Structs {\n    function getAccountWei(Info memory account, uint256 marketId) public view returns (Wei memory);\n    function operate(Info[] memory, ActionArgs[] memory) public;\n}\n\ninterface LendingPoolAddressesProvider {\n    function getLendingPool() external view returns (address);\n    function getLendingPoolCore() external view returns (address);\n}\n\ncontract yUSDC is ERC20, ERC20Detailed, ReentrancyGuard, Ownable, Structs {\n  using SafeERC20 for IERC20;\n  using Address for address;\n  using SafeMath for uint256;\n\n  uint256 public pool;\n  address public token;\n  address public compound;\n  address public fulcrum;\n  address public aave;\n  address public aaveToken;\n  address public dydx;\n  uint256 public dToken;\n  address public apr;\n\n  enum Lender {\n      NONE,\n      DYDX,\n      COMPOUND,\n      AAVE,\n      FULCRUM\n  }\n\n  Lender public provider = Lender.NONE;\n\n  constructor () public ERC20Detailed(\"yUSDC\", \"yUSDC\", 6) {\n    token = address(0xA0b86991c6218b36c1d19D4a2e9Eb0cE3606eB48);\n    apr = address(0x318135fbD0b40D48fCEF431CCdF6C7926450edFB);\n    dydx = address(0x1E0447b19BB6EcFdAe1e4AE1694b0C3659614e4e);\n    aave = address(0x24a42fD28C976A61Df5D00D0599C34c4f90748c8);\n    fulcrum = address(0xF013406A0B1d544238083DF0B93ad0d2cBE0f65f);\n    aaveToken = address(0x9bA00D6856a4eDF4665BcA2C2309936572473B7E);\n    compound = address(0x39AA39c021dfbaE8faC545936693aC917d5E7563);\n    dToken = 2;\n    approveToken();\n  }\n  function set_new_AAVE(address _new_AAVE) public onlyOwner {\n      aave = _new_AAVE;\n  }\n  function set_new_DYDX(address _new_DYDX) public onlyOwner {\n      dydx = _new_DYDX;\n  }\n  function set_new_APR(address _new_APR) public onlyOwner {\n      apr = _new_APR;\n  }\n  function set_new_FULCRUM(address _new_FULCRUM) public onlyOwner {\n      fulcrum = _new_FULCRUM;\n  }\n  function set_new_ATOKEN(address _new_ATOKEN) public onlyOwner {\n      aaveToken = _new_ATOKEN;\n  }\n  function set_new_COMPOUND(address _new_COMPOUND) public onlyOwner {\n      compound = _new_COMPOUND;\n  }\n  function set_new_DTOKEN(uint256 _new_DTOKEN) public onlyOwner {\n      dToken = _new_DTOKEN;\n  }\n\n  function() external payable {\n\n  }\n\n  function recommend() public view returns (Lender) {\n    (,uint256 capr,uint256 iapr,uint256 aapr,uint256 dapr) = IIEarnManager(apr).recommend(token);\n    uint256 max = 0;\n    if (capr > max) {\n      max = capr;\n    }\n    if (iapr > max) {\n      max = iapr;\n    }\n    if (aapr > max) {\n      max = aapr;\n    }\n    if (dapr > max) {\n      max = dapr;\n    }\n\n    Lender newProvider = Lender.NONE;\n    if (max == dapr) {\n      newProvider = Lender.DYDX;\n    }\n    if (max == aapr) {\n      newProvider = Lender.AAVE;\n    }\n    if (max == iapr) {\n      newProvider = Lender.FULCRUM;\n    }\n    if (max == capr) {\n      newProvider = Lender.COMPOUND;\n    }\n    return newProvider;\n  }\n\n  function supplyDydx(uint256 amount) public returns(uint) {\n      Info[] memory infos = new Info[](1);\n      infos[0] = Info(address(this), 0);\n\n      AssetAmount memory amt = AssetAmount(true, AssetDenomination.Wei, AssetReference.Delta, amount);\n      ActionArgs memory act;\n      act.actionType = ActionType.Deposit;\n      act.accountId = 0;\n      act.amount = amt;\n      act.primaryMarketId = dToken;\n      act.otherAddress = address(this);\n\n      ActionArgs[] memory args = new ActionArgs[](1);\n      args[0] = act;\n\n      DyDx(dydx).operate(infos, args);\n  }\n\n  function withdrawDydx(uint256 amount) internal {\n      Info[] memory infos = new Info[](1);\n      infos[0] = Info(address(this), 0);\n\n      AssetAmount memory amt = AssetAmount(false, AssetDenomination.Wei, AssetReference.Delta, amount);\n      ActionArgs memory act;\n      act.actionType = ActionType.Withdraw;\n      act.accountId = 0;\n      act.amount = amt;\n      act.primaryMarketId = dToken;\n      act.otherAddress = address(this);\n\n      ActionArgs[] memory args = new ActionArgs[](1);\n      args[0] = act;\n\n      DyDx(dydx).operate(infos, args);\n  }\n\n  function balance() public view returns (uint256) {\n    return IERC20(token).balanceOf(address(this));\n  }\n\n  function getAave() public view returns (address) {\n    return LendingPoolAddressesProvider(aave).getLendingPool();\n  }\n  function getAaveCore() public view returns (address) {\n    return LendingPoolAddressesProvider(aave).getLendingPoolCore();\n  }\n\n  function approveToken() public {\n      IERC20(token).approve(compound, uint(-1)); //also add to constructor\n      IERC20(token).approve(dydx, uint(-1));\n      IERC20(token).approve(getAave(), uint(-1));\n      IERC20(token).approve(getAaveCore(), uint(-1));\n      IERC20(token).approve(fulcrum, uint(-1));\n  }\n\n  function balanceDydx() public view returns (uint256) {\n      Wei memory bal = DyDx(dydx).getAccountWei(Info(address(this), 0), dToken);\n      return bal.value;\n  }\n  function balanceCompound() public view returns (uint256) {\n      return IERC20(compound).balanceOf(address(this));\n  }\n  function balanceCompoundInToken() public view returns (uint256) {\n    // Mantisa 1e18 to decimals\n    uint256 b = balanceCompound();\n    if (b > 0) {\n      b = b.mul(Compound(compound).exchangeRateStored()).div(1e18);\n    }\n    return b;\n  }\n  function balanceFulcrumInToken() public view returns (uint256) {\n    uint256 b = balanceFulcrum();\n    if (b > 0) {\n      b = Fulcrum(fulcrum).assetBalanceOf(address(this));\n    }\n    return b;\n  }\n  function balanceFulcrum() public view returns (uint256) {\n    return IERC20(fulcrum).balanceOf(address(this));\n  }\n  function balanceAave() public view returns (uint256) {\n    return IERC20(aaveToken).balanceOf(address(this));\n  }\n\n  function withdrawAll() internal {\n    uint256 amount = balanceCompound();\n    if (amount > 0) {\n      withdrawCompound(amount);\n    }\n    amount = balanceDydx();\n    if (amount > 0) {\n      withdrawDydx(amount);\n    }\n    amount = balanceFulcrum();\n    if (amount > 0) {\n      withdrawFulcrum(amount);\n    }\n    amount = balanceAave();\n    if (amount > 0) {\n      withdrawAave(amount);\n    }\n  }\n\n  function withdrawSomeCompound(uint256 _amount) internal {\n    uint256 b = balanceCompound();\n    uint256 bT = balanceCompoundInToken();\n    require(bT >= _amount, \"insufficient funds\");\n    uint256 amount = b.mul(_amount).div(bT);\n    withdrawCompound(amount);\n  }\n\n  function withdrawSome(uint256 _amount) internal {\n    if (provider == Lender.COMPOUND) {\n      withdrawSomeCompound(_amount);\n    }\n    if (provider == Lender.AAVE) {\n      require(balanceAave() >= _amount, \"insufficient funds\");\n      withdrawAave(_amount);\n    }\n    if (provider == Lender.DYDX) {\n      require(balanceDydx() >= _amount, \"insufficient funds\");\n      withdrawDydx(_amount);\n    }\n    if (provider == Lender.FULCRUM) {\n      withdrawFulcrum(_amount);\n    }\n  }\n\n  function rebalance() public {\n    Lender newProvider = recommend();\n\n    if (newProvider != provider) {\n      withdrawAll();\n    }\n\n    if (balance() > 0) {\n      if (newProvider == Lender.DYDX) {\n        supplyDydx(balance());\n      }\n      if (newProvider == Lender.FULCRUM) {\n        supplyFulcrum(balance());\n      }\n      if (newProvider == Lender.COMPOUND) {\n        supplyCompound(balance());\n      }\n      if (newProvider == Lender.AAVE) {\n        supplyAave(balance());\n      }\n    }\n    provider = newProvider;\n  }\n\n  function supplyAave(uint amount) public {\n      Aave(getAave()).deposit(token, amount, 0);\n  }\n  function supplyFulcrum(uint amount) public {\n      require(Fulcrum(fulcrum).mint(address(this), amount) > 0, \"FULCRUM: supply failed\");\n  }\n  function supplyCompound(uint amount) public {\n      require(Compound(compound).mint(amount) == 0, \"COMPOUND: supply failed\");\n  }\n  function withdrawAave(uint amount) internal {\n      AToken(aaveToken).redeem(amount);\n  }\n  function withdrawFulcrum(uint amount) internal {\n      require(Fulcrum(fulcrum).burn(address(this), amount) > 0, \"FULCRUM: withdraw failed\");\n  }\n  function withdrawCompound(uint amount) internal {\n      require(Compound(compound).redeem(amount) == 0, \"COMPOUND: withdraw failed\");\n  }\n\n  // Invest ETH\n  function invest(uint256 _amount)\n      external\n      nonReentrant\n  {\n      require(_amount > 0, \"deposit must be greater than 0\");\n      pool = calcPoolValueInToken();\n\n      IERC20(token).transferFrom(msg.sender, address(this), _amount);\n\n      rebalance();\n\n      // Calculate pool shares\n      uint256 shares = 0;\n      if (pool == 0) {\n        shares = _amount;\n        pool = _amount;\n      } else {\n        shares = (_amount.mul(_totalSupply)).div(pool);\n      }\n      pool = calcPoolValueInToken();\n      _mint(msg.sender, shares);\n  }\n\n  // Invest self eth from external profits\n  function investSelf()\n      external\n      nonReentrant\n      onlyOwner\n  {\n      uint b = IERC20(token).balanceOf(address(this));\n      require(b > 0, \"deposit must be greater than 0\");\n      rebalance();\n      pool = calcPoolValueInToken();\n  }\n\n  function calcPoolValueInToken() public view returns (uint) {\n\n    return balanceCompoundInToken()\n      .add(balanceFulcrumInToken())\n      .add(balanceDydx())\n      .add(balanceAave())\n      .add(balance());\n  }\n\n  function getPricePerFullShare() public view returns (uint) {\n    uint _pool = calcPoolValueInToken();\n    return _pool.mul(1e18).div(_totalSupply);\n  }\n\n  // Redeem any invested tokens from the pool\n  function redeem(uint256 _shares)\n      external\n      nonReentrant\n  {\n      require(_shares > 0, \"withdraw must be greater than 0\");\n\n      uint256 ibalance = balanceOf(msg.sender);\n      require(_shares <= ibalance, \"insufficient balance\");\n\n      // Could have over value from cTokens\n      pool = calcPoolValueInToken();\n      // Calc eth to redeem before updating balances\n      uint256 r = (pool.mul(_shares)).div(_totalSupply);\n\n\n      _balances[msg.sender] = _balances[msg.sender].sub(_shares, \"redeem amount exceeds balance\");\n      _totalSupply = _totalSupply.sub(_shares);\n\n      emit Transfer(msg.sender, address(0), _shares);\n\n      // Check ETH balance\n      uint256 b = IERC20(token).balanceOf(address(this));\n      if (b < r) {\n        withdrawSome(r);\n      }\n\n      IERC20(token).transfer(msg.sender, r);\n\n      rebalance();\n      pool = calcPoolValueInToken();\n\n  }\n\n  // incase of half-way error\n  function inCaseTokenGetsStuck(IERC20 _TokenAddress) onlyOwner public {\n      uint qty = _TokenAddress.balanceOf(address(this));\n      _TokenAddress.transfer(msg.sender, qty);\n  }\n  // incase of half-way error\n  function inCaseETHGetsStuck() onlyOwner public{\n      (bool result, ) = msg.sender.call.value(address(this).balance)(\"\");\n      require(result, \"transfer of ETH failed\");\n  }\n}\n",
  "sourcePath": "D:/ftm/itoken/contracts/YUSDC.sol",
  "compiler": {
    "name": "solc",
    "version": "0.5.12+commit.7709ece9.Emscripten.clang"
  },
  "schemaVersion": "3.0.19",
  "updatedAt": "2020-02-12T01:37:03.279Z",
  "devdoc": {
    "methods": {}
  },
  "userdoc": {
    "methods": {}
  }
}