{
  "contractName": "yUSDT",
  "abi": [
    {
      "inputs": [],
      "payable": false,
      "stateMutability": "nonpayable",
      "type": "constructor"
    },
    {
      "anonymous": false,
      "inputs": [
        {
          "indexed": true,
          "internalType": "address",
          "name": "owner",
          "type": "address"
        },
        {
          "indexed": true,
          "internalType": "address",
          "name": "spender",
          "type": "address"
        },
        {
          "indexed": false,
          "internalType": "uint256",
          "name": "value",
          "type": "uint256"
        }
      ],
      "name": "Approval",
      "type": "event"
    },
    {
      "anonymous": false,
      "inputs": [
        {
          "indexed": true,
          "internalType": "address",
          "name": "previousOwner",
          "type": "address"
        },
        {
          "indexed": true,
          "internalType": "address",
          "name": "newOwner",
          "type": "address"
        }
      ],
      "name": "OwnershipTransferred",
      "type": "event"
    },
    {
      "anonymous": false,
      "inputs": [
        {
          "indexed": true,
          "internalType": "address",
          "name": "from",
          "type": "address"
        },
        {
          "indexed": true,
          "internalType": "address",
          "name": "to",
          "type": "address"
        },
        {
          "indexed": false,
          "internalType": "uint256",
          "name": "value",
          "type": "uint256"
        }
      ],
      "name": "Transfer",
      "type": "event"
    },
    {
      "constant": true,
      "inputs": [],
      "name": "aave",
      "outputs": [
        {
          "internalType": "address",
          "name": "",
          "type": "address"
        }
      ],
      "payable": false,
      "stateMutability": "view",
      "type": "function"
    },
    {
      "constant": true,
      "inputs": [],
      "name": "aavePool",
      "outputs": [
        {
          "internalType": "address",
          "name": "",
          "type": "address"
        }
      ],
      "payable": false,
      "stateMutability": "view",
      "type": "function"
    },
    {
      "constant": true,
      "inputs": [],
      "name": "aaveToken",
      "outputs": [
        {
          "internalType": "address",
          "name": "",
          "type": "address"
        }
      ],
      "payable": false,
      "stateMutability": "view",
      "type": "function"
    },
    {
      "constant": true,
      "inputs": [
        {
          "internalType": "address",
          "name": "owner",
          "type": "address"
        },
        {
          "internalType": "address",
          "name": "spender",
          "type": "address"
        }
      ],
      "name": "allowance",
      "outputs": [
        {
          "internalType": "uint256",
          "name": "",
          "type": "uint256"
        }
      ],
      "payable": false,
      "stateMutability": "view",
      "type": "function"
    },
    {
      "constant": false,
      "inputs": [
        {
          "internalType": "address",
          "name": "spender",
          "type": "address"
        },
        {
          "internalType": "uint256",
          "name": "amount",
          "type": "uint256"
        }
      ],
      "name": "approve",
      "outputs": [
        {
          "internalType": "bool",
          "name": "",
          "type": "bool"
        }
      ],
      "payable": false,
      "stateMutability": "nonpayable",
      "type": "function"
    },
    {
      "constant": true,
      "inputs": [],
      "name": "apr",
      "outputs": [
        {
          "internalType": "address",
          "name": "",
          "type": "address"
        }
      ],
      "payable": false,
      "stateMutability": "view",
      "type": "function"
    },
    {
      "constant": true,
      "inputs": [
        {
          "internalType": "address",
          "name": "account",
          "type": "address"
        }
      ],
      "name": "balanceOf",
      "outputs": [
        {
          "internalType": "uint256",
          "name": "",
          "type": "uint256"
        }
      ],
      "payable": false,
      "stateMutability": "view",
      "type": "function"
    },
    {
      "constant": true,
      "inputs": [],
      "name": "compound",
      "outputs": [
        {
          "internalType": "address",
          "name": "",
          "type": "address"
        }
      ],
      "payable": false,
      "stateMutability": "view",
      "type": "function"
    },
    {
      "constant": true,
      "inputs": [],
      "name": "dToken",
      "outputs": [
        {
          "internalType": "uint256",
          "name": "",
          "type": "uint256"
        }
      ],
      "payable": false,
      "stateMutability": "view",
      "type": "function"
    },
    {
      "constant": true,
      "inputs": [],
      "name": "decimals",
      "outputs": [
        {
          "internalType": "uint8",
          "name": "",
          "type": "uint8"
        }
      ],
      "payable": false,
      "stateMutability": "view",
      "type": "function"
    },
    {
      "constant": false,
      "inputs": [
        {
          "internalType": "address",
          "name": "spender",
          "type": "address"
        },
        {
          "internalType": "uint256",
          "name": "subtractedValue",
          "type": "uint256"
        }
      ],
      "name": "decreaseAllowance",
      "outputs": [
        {
          "internalType": "bool",
          "name": "",
          "type": "bool"
        }
      ],
      "payable": false,
      "stateMutability": "nonpayable",
      "type": "function"
    },
    {
      "constant": true,
      "inputs": [],
      "name": "dydx",
      "outputs": [
        {
          "internalType": "address",
          "name": "",
          "type": "address"
        }
      ],
      "payable": false,
      "stateMutability": "view",
      "type": "function"
    },
    {
      "constant": true,
      "inputs": [],
      "name": "fulcrum",
      "outputs": [
        {
          "internalType": "address",
          "name": "",
          "type": "address"
        }
      ],
      "payable": false,
      "stateMutability": "view",
      "type": "function"
    },
    {
      "constant": false,
      "inputs": [
        {
          "internalType": "address",
          "name": "spender",
          "type": "address"
        },
        {
          "internalType": "uint256",
          "name": "addedValue",
          "type": "uint256"
        }
      ],
      "name": "increaseAllowance",
      "outputs": [
        {
          "internalType": "bool",
          "name": "",
          "type": "bool"
        }
      ],
      "payable": false,
      "stateMutability": "nonpayable",
      "type": "function"
    },
    {
      "constant": true,
      "inputs": [],
      "name": "isOwner",
      "outputs": [
        {
          "internalType": "bool",
          "name": "",
          "type": "bool"
        }
      ],
      "payable": false,
      "stateMutability": "view",
      "type": "function"
    },
    {
      "constant": true,
      "inputs": [],
      "name": "name",
      "outputs": [
        {
          "internalType": "string",
          "name": "",
          "type": "string"
        }
      ],
      "payable": false,
      "stateMutability": "view",
      "type": "function"
    },
    {
      "constant": true,
      "inputs": [],
      "name": "owner",
      "outputs": [
        {
          "internalType": "address",
          "name": "",
          "type": "address"
        }
      ],
      "payable": false,
      "stateMutability": "view",
      "type": "function"
    },
    {
      "constant": true,
      "inputs": [],
      "name": "pool",
      "outputs": [
        {
          "internalType": "uint256",
          "name": "",
          "type": "uint256"
        }
      ],
      "payable": false,
      "stateMutability": "view",
      "type": "function"
    },
    {
      "constant": true,
      "inputs": [],
      "name": "provider",
      "outputs": [
        {
          "internalType": "enum yUSDT.Lender",
          "name": "",
          "type": "uint8"
        }
      ],
      "payable": false,
      "stateMutability": "view",
      "type": "function"
    },
    {
      "constant": false,
      "inputs": [],
      "name": "renounceOwnership",
      "outputs": [],
      "payable": false,
      "stateMutability": "nonpayable",
      "type": "function"
    },
    {
      "constant": true,
      "inputs": [],
      "name": "symbol",
      "outputs": [
        {
          "internalType": "string",
          "name": "",
          "type": "string"
        }
      ],
      "payable": false,
      "stateMutability": "view",
      "type": "function"
    },
    {
      "constant": true,
      "inputs": [],
      "name": "token",
      "outputs": [
        {
          "internalType": "address",
          "name": "",
          "type": "address"
        }
      ],
      "payable": false,
      "stateMutability": "view",
      "type": "function"
    },
    {
      "constant": true,
      "inputs": [],
      "name": "totalSupply",
      "outputs": [
        {
          "internalType": "uint256",
          "name": "",
          "type": "uint256"
        }
      ],
      "payable": false,
      "stateMutability": "view",
      "type": "function"
    },
    {
      "constant": false,
      "inputs": [
        {
          "internalType": "address",
          "name": "recipient",
          "type": "address"
        },
        {
          "internalType": "uint256",
          "name": "amount",
          "type": "uint256"
        }
      ],
      "name": "transfer",
      "outputs": [
        {
          "internalType": "bool",
          "name": "",
          "type": "bool"
        }
      ],
      "payable": false,
      "stateMutability": "nonpayable",
      "type": "function"
    },
    {
      "constant": false,
      "inputs": [
        {
          "internalType": "address",
          "name": "sender",
          "type": "address"
        },
        {
          "internalType": "address",
          "name": "recipient",
          "type": "address"
        },
        {
          "internalType": "uint256",
          "name": "amount",
          "type": "uint256"
        }
      ],
      "name": "transferFrom",
      "outputs": [
        {
          "internalType": "bool",
          "name": "",
          "type": "bool"
        }
      ],
      "payable": false,
      "stateMutability": "nonpayable",
      "type": "function"
    },
    {
      "constant": false,
      "inputs": [
        {
          "internalType": "address",
          "name": "newOwner",
          "type": "address"
        }
      ],
      "name": "transferOwnership",
      "outputs": [],
      "payable": false,
      "stateMutability": "nonpayable",
      "type": "function"
    },
    {
      "constant": false,
      "inputs": [
        {
          "internalType": "address",
          "name": "_new_APR",
          "type": "address"
        }
      ],
      "name": "set_new_APR",
      "outputs": [],
      "payable": false,
      "stateMutability": "nonpayable",
      "type": "function"
    },
    {
      "constant": false,
      "inputs": [
        {
          "internalType": "address",
          "name": "_new_FULCRUM",
          "type": "address"
        }
      ],
      "name": "set_new_FULCRUM",
      "outputs": [],
      "payable": false,
      "stateMutability": "nonpayable",
      "type": "function"
    },
    {
      "constant": false,
      "inputs": [
        {
          "internalType": "address",
          "name": "_new_COMPOUND",
          "type": "address"
        }
      ],
      "name": "set_new_COMPOUND",
      "outputs": [],
      "payable": false,
      "stateMutability": "nonpayable",
      "type": "function"
    },
    {
      "constant": false,
      "inputs": [
        {
          "internalType": "uint256",
          "name": "_new_DTOKEN",
          "type": "uint256"
        }
      ],
      "name": "set_new_DTOKEN",
      "outputs": [],
      "payable": false,
      "stateMutability": "nonpayable",
      "type": "function"
    },
    {
      "constant": false,
      "inputs": [
        {
          "internalType": "address",
          "name": "_new_AAVE",
          "type": "address"
        }
      ],
      "name": "set_new_AAVE",
      "outputs": [],
      "payable": false,
      "stateMutability": "nonpayable",
      "type": "function"
    },
    {
      "constant": false,
      "inputs": [
        {
          "internalType": "address",
          "name": "_new_APOOL",
          "type": "address"
        }
      ],
      "name": "set_new_APOOL",
      "outputs": [],
      "payable": false,
      "stateMutability": "nonpayable",
      "type": "function"
    },
    {
      "constant": false,
      "inputs": [
        {
          "internalType": "address",
          "name": "_new_ATOKEN",
          "type": "address"
        }
      ],
      "name": "set_new_ATOKEN",
      "outputs": [],
      "payable": false,
      "stateMutability": "nonpayable",
      "type": "function"
    },
    {
      "constant": false,
      "inputs": [
        {
          "internalType": "uint256",
          "name": "_amount",
          "type": "uint256"
        }
      ],
      "name": "deposit",
      "outputs": [],
      "payable": false,
      "stateMutability": "nonpayable",
      "type": "function"
    },
    {
      "constant": false,
      "inputs": [
        {
          "internalType": "uint256",
          "name": "_shares",
          "type": "uint256"
        }
      ],
      "name": "withdraw",
      "outputs": [],
      "payable": false,
      "stateMutability": "nonpayable",
      "type": "function"
    },
    {
      "constant": true,
      "inputs": [],
      "name": "recommend",
      "outputs": [
        {
          "internalType": "enum yUSDT.Lender",
          "name": "",
          "type": "uint8"
        }
      ],
      "payable": false,
      "stateMutability": "view",
      "type": "function"
    },
    {
      "constant": true,
      "inputs": [],
      "name": "getAave",
      "outputs": [
        {
          "internalType": "address",
          "name": "",
          "type": "address"
        }
      ],
      "payable": false,
      "stateMutability": "view",
      "type": "function"
    },
    {
      "constant": true,
      "inputs": [],
      "name": "getAaveCore",
      "outputs": [
        {
          "internalType": "address",
          "name": "",
          "type": "address"
        }
      ],
      "payable": false,
      "stateMutability": "view",
      "type": "function"
    },
    {
      "constant": false,
      "inputs": [],
      "name": "approveToken",
      "outputs": [],
      "payable": false,
      "stateMutability": "nonpayable",
      "type": "function"
    },
    {
      "constant": true,
      "inputs": [],
      "name": "balance",
      "outputs": [
        {
          "internalType": "uint256",
          "name": "",
          "type": "uint256"
        }
      ],
      "payable": false,
      "stateMutability": "view",
      "type": "function"
    },
    {
      "constant": true,
      "inputs": [],
      "name": "balanceDydxAvailable",
      "outputs": [
        {
          "internalType": "uint256",
          "name": "",
          "type": "uint256"
        }
      ],
      "payable": false,
      "stateMutability": "view",
      "type": "function"
    },
    {
      "constant": true,
      "inputs": [],
      "name": "balanceDydx",
      "outputs": [
        {
          "internalType": "uint256",
          "name": "",
          "type": "uint256"
        }
      ],
      "payable": false,
      "stateMutability": "view",
      "type": "function"
    },
    {
      "constant": true,
      "inputs": [],
      "name": "balanceCompound",
      "outputs": [
        {
          "internalType": "uint256",
          "name": "",
          "type": "uint256"
        }
      ],
      "payable": false,
      "stateMutability": "view",
      "type": "function"
    },
    {
      "constant": true,
      "inputs": [],
      "name": "balanceCompoundInToken",
      "outputs": [
        {
          "internalType": "uint256",
          "name": "",
          "type": "uint256"
        }
      ],
      "payable": false,
      "stateMutability": "view",
      "type": "function"
    },
    {
      "constant": true,
      "inputs": [],
      "name": "balanceFulcrumAvailable",
      "outputs": [
        {
          "internalType": "uint256",
          "name": "",
          "type": "uint256"
        }
      ],
      "payable": false,
      "stateMutability": "view",
      "type": "function"
    },
    {
      "constant": true,
      "inputs": [],
      "name": "balanceFulcrumInToken",
      "outputs": [
        {
          "internalType": "uint256",
          "name": "",
          "type": "uint256"
        }
      ],
      "payable": false,
      "stateMutability": "view",
      "type": "function"
    },
    {
      "constant": true,
      "inputs": [],
      "name": "balanceFulcrum",
      "outputs": [
        {
          "internalType": "uint256",
          "name": "",
          "type": "uint256"
        }
      ],
      "payable": false,
      "stateMutability": "view",
      "type": "function"
    },
    {
      "constant": true,
      "inputs": [],
      "name": "balanceAaveAvailable",
      "outputs": [
        {
          "internalType": "uint256",
          "name": "",
          "type": "uint256"
        }
      ],
      "payable": false,
      "stateMutability": "view",
      "type": "function"
    },
    {
      "constant": true,
      "inputs": [],
      "name": "balanceAave",
      "outputs": [
        {
          "internalType": "uint256",
          "name": "",
          "type": "uint256"
        }
      ],
      "payable": false,
      "stateMutability": "view",
      "type": "function"
    },
    {
      "constant": false,
      "inputs": [],
      "name": "rebalance",
      "outputs": [],
      "payable": false,
      "stateMutability": "nonpayable",
      "type": "function"
    },
    {
      "constant": true,
      "inputs": [],
      "name": "calcPoolValueInToken",
      "outputs": [
        {
          "internalType": "uint256",
          "name": "",
          "type": "uint256"
        }
      ],
      "payable": false,
      "stateMutability": "view",
      "type": "function"
    },
    {
      "constant": true,
      "inputs": [],
      "name": "getPricePerFullShare",
      "outputs": [
        {
          "internalType": "uint256",
          "name": "",
          "type": "uint256"
        }
      ],
      "payable": false,
      "stateMutability": "view",
      "type": "function"
    },
    {
      "constant": false,
      "inputs": [
        {
          "internalType": "uint256",
          "name": "_amount",
          "type": "uint256"
        }
      ],
      "name": "withdrawSomeCompound",
      "outputs": [],
      "payable": false,
      "stateMutability": "nonpayable",
      "type": "function"
    },
    {
      "constant": false,
      "inputs": [
        {
          "internalType": "uint256",
          "name": "_amount",
          "type": "uint256"
        }
      ],
      "name": "withdrawSomeFulcrum",
      "outputs": [],
      "payable": false,
      "stateMutability": "nonpayable",
      "type": "function"
    },
    {
      "constant": false,
      "inputs": [
        {
          "internalType": "uint256",
          "name": "amount",
          "type": "uint256"
        }
      ],
      "name": "withdrawAave",
      "outputs": [],
      "payable": false,
      "stateMutability": "nonpayable",
      "type": "function"
    },
    {
      "constant": false,
      "inputs": [
        {
          "internalType": "uint256",
          "name": "amount",
          "type": "uint256"
        }
      ],
      "name": "withdrawDydx",
      "outputs": [],
      "payable": false,
      "stateMutability": "nonpayable",
      "type": "function"
    },
    {
      "constant": false,
      "inputs": [
        {
          "internalType": "uint256",
          "name": "amount",
          "type": "uint256"
        }
      ],
      "name": "supplyDydx",
      "outputs": [],
      "payable": false,
      "stateMutability": "nonpayable",
      "type": "function"
    },
    {
      "constant": false,
      "inputs": [
        {
          "internalType": "uint256",
          "name": "amount",
          "type": "uint256"
        }
      ],
      "name": "supplyAave",
      "outputs": [],
      "payable": false,
      "stateMutability": "nonpayable",
      "type": "function"
    },
    {
      "constant": false,
      "inputs": [
        {
          "internalType": "uint256",
          "name": "amount",
          "type": "uint256"
        }
      ],
      "name": "supplyFulcrum",
      "outputs": [],
      "payable": false,
      "stateMutability": "nonpayable",
      "type": "function"
    },
    {
      "constant": false,
      "inputs": [
        {
          "internalType": "uint256",
          "name": "amount",
          "type": "uint256"
        }
      ],
      "name": "supplyCompound",
      "outputs": [],
      "payable": false,
      "stateMutability": "nonpayable",
      "type": "function"
    }
  ],
  "bytecode": "0x60806040526000601160146101000a81548160ff021916908360048111156200002457fe5b02179055503480156200003657600080fd5b506040518060400160405280600a81526020017f696561726e2055534454000000000000000000000000000000000000000000008152506040518060400160405280600581526020017f795553445400000000000000000000000000000000000000000000000000000081525060068260039080519060200190620000bd92919062000cb9565b508160049080519060200190620000d692919062000cb9565b5080600560006101000a81548160ff021916908360ff16021790555050505060016006819055506200010d6200049060201b60201c565b600760006101000a81548173ffffffffffffffffffffffffffffffffffffffff021916908373ffffffffffffffffffffffffffffffffffffffff160217905550600760009054906101000a900473ffffffffffffffffffffffffffffffffffffffff1673ffffffffffffffffffffffffffffffffffffffff16600073ffffffffffffffffffffffffffffffffffffffff167f8be0079c531659141344cd1fd0a4f28419497f9722a3daafe3b4186f6b6457e060405160405180910390a373dac17f958d2ee523a2206206994597c13d831ec7600960006101000a81548173ffffffffffffffffffffffffffffffffffffffff021916908373ffffffffffffffffffffffffffffffffffffffff16021790555073dd6d648c991f7d47454354f4ef326b04025a48a8601160006101000a81548173ffffffffffffffffffffffffffffffffffffffff021916908373ffffffffffffffffffffffffffffffffffffffff160217905550731e0447b19bb6ecfdae1e4ae1694b0c3659614e4e600f60006101000a81548173ffffffffffffffffffffffffffffffffffffffff021916908373ffffffffffffffffffffffffffffffffffffffff1602179055507324a42fd28c976a61df5d00d0599c34c4f90748c8600c60006101000a81548173ffffffffffffffffffffffffffffffffffffffff021916908373ffffffffffffffffffffffffffffffffffffffff160217905550733dfd23a6c5e8bbcfc9581d2e864a68feb6a076d3600d60006101000a81548173ffffffffffffffffffffffffffffffffffffffff021916908373ffffffffffffffffffffffffffffffffffffffff16021790555073f013406a0b1d544238083df0b93ad0d2cbe0f65f600b60006101000a81548173ffffffffffffffffffffffffffffffffffffffff021916908373ffffffffffffffffffffffffffffffffffffffff1602179055507371fc860f7d3a592a4a98740e39db31d25db65ae8600e60006101000a81548173ffffffffffffffffffffffffffffffffffffffff021916908373ffffffffffffffffffffffffffffffffffffffff1602179055507339aa39c021dfbae8fac545936693ac917d5e7563600a60006101000a81548173ffffffffffffffffffffffffffffffffffffffff021916908373ffffffffffffffffffffffffffffffffffffffff16021790555060036010819055506200048a6200049860201b60201c565b620011ce565b600033905090565b6200050f600a60009054906101000a900473ffffffffffffffffffffffffffffffffffffffff166000600960009054906101000a900473ffffffffffffffffffffffffffffffffffffffff1673ffffffffffffffffffffffffffffffffffffffff16620008a860201b62003f79179092919060201c565b620005a5600a60009054906101000a900473ffffffffffffffffffffffffffffffffffffffff167fffffffffffffffffffffffffffffffffffffffffffffffffffffffffffffffff600960009054906101000a900473ffffffffffffffffffffffffffffffffffffffff1673ffffffffffffffffffffffffffffffffffffffff16620008a860201b62003f79179092919060201c565b6200061c600f60009054906101000a900473ffffffffffffffffffffffffffffffffffffffff166000600960009054906101000a900473ffffffffffffffffffffffffffffffffffffffff1673ffffffffffffffffffffffffffffffffffffffff16620008a860201b62003f79179092919060201c565b620006b2600f60009054906101000a900473ffffffffffffffffffffffffffffffffffffffff167fffffffffffffffffffffffffffffffffffffffffffffffffffffffffffffffff600960009054906101000a900473ffffffffffffffffffffffffffffffffffffffff1673ffffffffffffffffffffffffffffffffffffffff16620008a860201b62003f79179092919060201c565b62000716620006c662000a3360201b60201c565b6000600960009054906101000a900473ffffffffffffffffffffffffffffffffffffffff1673ffffffffffffffffffffffffffffffffffffffff16620008a860201b62003f79179092919060201c565b620007996200072a62000a3360201b60201c565b7fffffffffffffffffffffffffffffffffffffffffffffffffffffffffffffffff600960009054906101000a900473ffffffffffffffffffffffffffffffffffffffff1673ffffffffffffffffffffffffffffffffffffffff16620008a860201b62003f79179092919060201c565b62000810600b60009054906101000a900473ffffffffffffffffffffffffffffffffffffffff166000600960009054906101000a900473ffffffffffffffffffffffffffffffffffffffff1673ffffffffffffffffffffffffffffffffffffffff16620008a860201b62003f79179092919060201c565b620008a6600b60009054906101000a900473ffffffffffffffffffffffffffffffffffffffff167fffffffffffffffffffffffffffffffffffffffffffffffffffffffffffffffff600960009054906101000a900473ffffffffffffffffffffffffffffffffffffffff1673ffffffffffffffffffffffffffffffffffffffff16620008a860201b62003f79179092919060201c565b565b600081148062000948575060008373ffffffffffffffffffffffffffffffffffffffff1663dd62ed3e30856040518363ffffffff1660e01b8152600401620008f292919062000ff7565b60206040518083038186803b1580156200090b57600080fd5b505afa15801562000920573d6000803e3d6000fd5b505050506040513d601f19601f8201168201806040525062000946919081019062000e05565b145b6200098a576040517f08c379a0000000000000000000000000000000000000000000000000000000008152600401620009819062001095565b60405180910390fd5b62000a2e838473ffffffffffffffffffffffffffffffffffffffff1663095ea7b3905060e01b8484604051602401620009c592919062001024565b604051602081830303815290604052907bffffffffffffffffffffffffffffffffffffffffffffffffffffffff19166020820180517bffffffffffffffffffffffffffffffffffffffffffffffffffffffff838183161783525050505062000ade60201b60201c565b505050565b6000600c60009054906101000a900473ffffffffffffffffffffffffffffffffffffffff1673ffffffffffffffffffffffffffffffffffffffff1663ed6ff7606040518163ffffffff1660e01b815260040160206040518083038186803b15801562000a9e57600080fd5b505afa15801562000ab3573d6000803e3d6000fd5b505050506040513d601f19601f8201168201806040525062000ad9919081019062000dad565b905090565b62000b0a8273ffffffffffffffffffffffffffffffffffffffff1662000c6d60201b620048a91760201c565b62000b4c576040517f08c379a000000000000000000000000000000000000000000000000000000000815260040162000b4390620010b7565b60405180910390fd5b600060608373ffffffffffffffffffffffffffffffffffffffff168360405162000b77919062000fde565b6000604051808303816000865af19150503d806000811462000bb6576040519150601f19603f3d011682016040523d82523d6000602084013e62000bbb565b606091505b50915091508162000c03576040517f08c379a000000000000000000000000000000000000000000000000000000000815260040162000bfa9062001051565b60405180910390fd5b60008151111562000c67578080602001905162000c24919081019062000dd9565b62000c66576040517f08c379a000000000000000000000000000000000000000000000000000000000815260040162000c5d9062001073565b60405180910390fd5b5b50505050565b60008060007fc5d2460186f7233c927e7db2dcc703c0e500b653ca82273b7bfad8045d85a47060001b9050833f91506000801b821415801562000cb05750808214155b92505050919050565b828054600181600116156101000203166002900490600052602060002090601f016020900481019282601f1062000cfc57805160ff191683800117855562000d2d565b8280016001018555821562000d2d579182015b8281111562000d2c57825182559160200191906001019062000d0f565b5b50905062000d3c919062000d40565b5090565b62000d6591905b8082111562000d6157600081600090555060010162000d47565b5090565b90565b60008151905062000d798162001180565b92915050565b60008151905062000d90816200119a565b92915050565b60008151905062000da781620011b4565b92915050565b60006020828403121562000dc057600080fd5b600062000dd08482850162000d68565b91505092915050565b60006020828403121562000dec57600080fd5b600062000dfc8482850162000d7f565b91505092915050565b60006020828403121562000e1857600080fd5b600062000e288482850162000d96565b91505092915050565b62000e3c8162001100565b82525050565b600062000e4f82620010d9565b62000e5b8185620010e4565b935062000e6d8185602086016200114a565b80840191505092915050565b600062000e88602083620010ef565b91507f5361666545524332303a206c6f772d6c6576656c2063616c6c206661696c65646000830152602082019050919050565b600062000eca602a83620010ef565b91507f5361666545524332303a204552433230206f7065726174696f6e20646964206e60008301527f6f742073756363656564000000000000000000000000000000000000000000006020830152604082019050919050565b600062000f32603683620010ef565b91507f5361666545524332303a20617070726f76652066726f6d206e6f6e2d7a65726f60008301527f20746f206e6f6e2d7a65726f20616c6c6f77616e6365000000000000000000006020830152604082019050919050565b600062000f9a601f83620010ef565b91507f5361666545524332303a2063616c6c20746f206e6f6e2d636f6e7472616374006000830152602082019050919050565b62000fd88162001140565b82525050565b600062000fec828462000e42565b915081905092915050565b60006040820190506200100e600083018562000e31565b6200101d602083018462000e31565b9392505050565b60006040820190506200103b600083018562000e31565b6200104a602083018462000fcd565b9392505050565b600060208201905081810360008301526200106c8162000e79565b9050919050565b600060208201905081810360008301526200108e8162000ebb565b9050919050565b60006020820190508181036000830152620010b08162000f23565b9050919050565b60006020820190508181036000830152620010d28162000f8b565b9050919050565b600081519050919050565b600081905092915050565b600082825260208201905092915050565b60006200110d8262001120565b9050919050565b60008115159050919050565b600073ffffffffffffffffffffffffffffffffffffffff82169050919050565b6000819050919050565b60005b838110156200116a5780820151818401526020810190506200114d565b838111156200117a576000848401525b50505050565b6200118b8162001100565b81146200119757600080fd5b50565b620011a58162001114565b8114620011b157600080fd5b50565b620011bf8162001140565b8114620011cb57600080fd5b50565b61608a80620011de6000396000f3fe608060405234801561001057600080fd5b50600436106103a45760003560e01c80638da5cb5b116101e9578063b69ef8a81161010f578063e849d659116100ad578063f69e20461161007c578063f69e204614610a57578063f7c1ec7714610a75578063f82ce27d14610a93578063fc0c546a14610ab1576103a4565b8063e849d659146109e5578063f2fde38b14610a01578063f5a41dea14610a1d578063f5ff191614610a3b576103a4565b8063cf8ca426116100e9578063cf8ca4261461095b578063d54e324414610979578063d9d7858a14610997578063dd62ed3e146109b5576103a4565b8063b69ef8a814610905578063b6b55f2514610923578063bbf316441461093f576103a4565b8063a03e4bc311610187578063a9059cbb11610156578063a9059cbb1461087f578063a9de245b146108af578063b098fc80146108cb578063b30d0bb2146108e9576103a4565b8063a03e4bc3146107f5578063a160176d14610813578063a457c2d714610831578063a728797114610861576103a4565b80638f9225ca116101c35780638f9225ca1461079357806395d89b41146107b157806399b71d5c146107cf5780639ff011b9146107d9576103a4565b80638da5cb5b146107395780638e4ec6ef146107575780638f32d59b14610775576103a4565b806346357473116102ce57806370a082311161026c5780637d7c2a1c1161023b5780637d7c2a1c146106d95780638124955c146106e3578063812adb06146106ff578063819faf7b1461071b576103a4565b806370a08231146106635780637137ef9914610693578063715018a6146106b157806377c7b8fc146106bb576103a4565b806358782c21116102a857806358782c21146105ef57806361c1ec551461060d57806365aab7491461062b57806367e4b74014610647576103a4565b8063463574731461059957806356cc9378146105b557806357ded9c9146105d1576103a4565b806318160ddd11610346578063313ce56711610315578063313ce56714610511578063395093511461052f57806339c0a7e11461055f57806341c57c8d1461057d576103a4565b806318160ddd1461048b57806319c13d54146104a957806323b872dd146104c55780632e1a7d4d146104f5576103a4565b8063085d488311610382578063085d488314610401578063095ea7b31461041f5780630eb2a2671461044f57806316f0115b1461046d576103a4565b806306636c1c146103a957806306a3fe59146103c557806306fdde03146103e3575b600080fd5b6103c360048036036103be9190810190614d97565b610acf565b005b6103cd610b22565b6040516103da919061586c565b60405180910390f35b6103eb610b48565b6040516103f891906159b4565b60405180910390f35b610409610bea565b6040516104169190615999565b60405180910390f35b61043960048036036104349190810190614c7a565b610bfd565b604051610446919061597e565b60405180910390f35b610457610c1b565b6040516104649190615cbf565b60405180910390f35b610475610ccd565b6040516104829190615cbf565b60405180910390f35b610493610cd3565b6040516104a09190615cbf565b60405180910390f35b6104c360048036036104be9190810190614b9d565b610cdd565b005b6104df60048036036104da9190810190614c2b565b610d68565b6040516104ec919061597e565b60405180910390f35b61050f600480360361050a9190810190614d97565b610e41565b005b6105196111eb565b6040516105269190615cda565b60405180910390f35b61054960048036036105449190810190614c7a565b611202565b604051610556919061597e565b60405180910390f35b6105676112b5565b6040516105749190615cbf565b60405180910390f35b61059760048036036105929190810190614d97565b6113a5565b005b6105b360048036036105ae9190810190614b9d565b6113f8565b005b6105cf60048036036105ca9190810190614d97565b611483565b005b6105d96114d6565b6040516105e6919061586c565b60405180910390f35b6105f76114fc565b604051610604919061586c565b60405180910390f35b610615611522565b6040516106229190615cbf565b60405180910390f35b61064560048036036106409190810190614d97565b6115d4565b005b610661600480360361065c9190810190614d97565b611627565b005b61067d60048036036106789190810190614b9d565b61167a565b60405161068a9190615cbf565b60405180910390f35b61069b6116c2565b6040516106a89190615cbf565b60405180910390f35b6106b9611735565b005b6106c361183d565b6040516106d09190615cbf565b60405180910390f35b6106e161187f565b005b6106fd60048036036106f89190810190614d97565b6119c5565b005b61071960048036036107149190810190614b9d565b611a18565b005b610723611aa3565b604051610730919061586c565b60405180910390f35b610741611ac9565b60405161074e919061586c565b60405180910390f35b61075f611af3565b60405161076c919061586c565b60405180910390f35b61077d611b19565b60405161078a919061597e565b60405180910390f35b61079b611b78565b6040516107a89190615cbf565b60405180910390f35b6107b9611c4c565b6040516107c691906159b4565b60405180910390f35b6107d7611cee565b005b6107f360048036036107ee9190810190614d97565b6120b6565b005b6107fd612107565b60405161080a919061586c565b60405180910390f35b61081b61212d565b6040516108289190615999565b60405180910390f35b61084b60048036036108469190810190614c7a565b612299565b604051610858919061597e565b60405180910390f35b610869612366565b6040516108769190615cbf565b60405180910390f35b61089960048036036108949190810190614c7a565b612452565b6040516108a6919061597e565b60405180910390f35b6108c960048036036108c49190810190614b9d565b612470565b005b6108d36124fb565b6040516108e09190615cbf565b60405180910390f35b61090360048036036108fe9190810190614d97565b6125cf565b005b61090d612622565b60405161091a9190615cbf565b60405180910390f35b61093d60048036036109389190810190614d97565b6126d4565b005b61095960048036036109549190810190614b9d565b612838565b005b6109636128c3565b6040516109709190615cbf565b60405180910390f35b610981612975565b60405161098e9190615cbf565b60405180910390f35b61099f612a49565b6040516109ac9190615cbf565b60405180910390f35b6109cf60048036036109ca9190810190614bef565b612a4f565b6040516109dc9190615cbf565b60405180910390f35b6109ff60048036036109fa9190810190614d97565b612ad6565b005b610a1b6004803603610a169190810190614b9d565b612b29565b005b610a25612b7c565b604051610a329190615cbf565b60405180910390f35b610a556004803603610a509190810190614b9d565b612c47565b005b610a5f612cd2565b604051610a6c919061586c565b60405180910390f35b610a7d612cf8565b604051610a8a919061586c565b60405180910390f35b610a9b612d9f565b604051610aa8919061586c565b60405180910390f35b610ab9612e46565b604051610ac6919061586c565b60405180910390f35b610ad7611b19565b610b16576040517f08c379a0000000000000000000000000000000000000000000000000000000008152600401610b0d90615af6565b60405180910390fd5b610b1f81612e6c565b50565b600e60009054906101000a900473ffffffffffffffffffffffffffffffffffffffff1681565b606060038054600181600116156101000203166002900480601f016020809104026020016040519081016040528092919081815260200182805460018160011615610100020316600290048015610be05780601f10610bb557610100808354040283529160200191610be0565b820191906000526020600020905b815481529060010190602001808311610bc357829003601f168201915b5050505050905090565b601160149054906101000a900460ff1681565b6000610c11610c0a6130a6565b84846130ae565b6001905092915050565b6000600b60009054906101000a900473ffffffffffffffffffffffffffffffffffffffff1673ffffffffffffffffffffffffffffffffffffffff166370a08231306040518263ffffffff1660e01b8152600401610c78919061586c565b60206040518083038186803b158015610c9057600080fd5b505afa158015610ca4573d6000803e3d6000fd5b505050506040513d601f19601f82011682018060405250610cc89190810190614dc0565b905090565b60085481565b6000600254905090565b610ce5611b19565b610d24576040517f08c379a0000000000000000000000000000000000000000000000000000000008152600401610d1b90615af6565b60405180910390fd5b80600d60006101000a81548173ffffffffffffffffffffffffffffffffffffffff021916908373ffffffffffffffffffffffffffffffffffffffff16021790555050565b6000610d75848484613279565b610e3684610d816130a6565b610e3185604051806060016040528060288152602001615ffb60289139600160008b73ffffffffffffffffffffffffffffffffffffffff1673ffffffffffffffffffffffffffffffffffffffff1681526020019081526020016000206000610de76130a6565b73ffffffffffffffffffffffffffffffffffffffff1673ffffffffffffffffffffffffffffffffffffffff168152602001908152602001600020546135039092919063ffffffff16565b6130ae565b600190509392505050565b60016006600082825401925050819055506000600654905060008211610e9c576040517f08c379a0000000000000000000000000000000000000000000000000000000008152600401610e9390615b36565b60405180910390fd5b6000610ea73361167a565b905080831115610eec576040517f08c379a0000000000000000000000000000000000000000000000000000000008152600401610ee390615b16565b60405180910390fd5b610ef46116c2565b6008819055506000610f25600254610f178660085461355e90919063ffffffff16565b6135ce90919063ffffffff16565b9050610faf846040518060400160405280601d81526020017f72656465656d20616d6f756e7420657863656564732062616c616e63650000008152506000803373ffffffffffffffffffffffffffffffffffffffff1673ffffffffffffffffffffffffffffffffffffffff168152602001908152602001600020546135039092919063ffffffff16565b6000803373ffffffffffffffffffffffffffffffffffffffff1673ffffffffffffffffffffffffffffffffffffffff168152602001908152602001600020819055506110068460025461361890919063ffffffff16565b600281905550600073ffffffffffffffffffffffffffffffffffffffff163373ffffffffffffffffffffffffffffffffffffffff167fddf252ad1be2c89b69c2b068fc378daa952ba7f163c4a11628f55a4df523b3ef8660405161106a9190615cbf565b60405180910390a36000600960009054906101000a900473ffffffffffffffffffffffffffffffffffffffff1673ffffffffffffffffffffffffffffffffffffffff166370a08231306040518263ffffffff1660e01b81526004016110cf919061586c565b60206040518083038186803b1580156110e757600080fd5b505afa1580156110fb573d6000803e3d6000fd5b505050506040513d601f19601f8201168201806040525061111f9190810190614dc0565b9050818110156111455761114461113f828461361890919063ffffffff16565b613662565b5b6111923383600960009054906101000a900473ffffffffffffffffffffffffffffffffffffffff1673ffffffffffffffffffffffffffffffffffffffff166137d89092919063ffffffff16565b61119a6116c2565b60088190555050505060065481146111e7576040517f08c379a00000000000000000000000000000000000000000000000000000000081526004016111de90615c16565b60405180910390fd5b5050565b6000600560009054906101000a900460ff16905090565b60006112ab61120f6130a6565b846112a685600160006112206130a6565b73ffffffffffffffffffffffffffffffffffffffff1673ffffffffffffffffffffffffffffffffffffffff16815260200190815260200160002060008973ffffffffffffffffffffffffffffffffffffffff1673ffffffffffffffffffffffffffffffffffffffff1681526020019081526020016000205461387790919063ffffffff16565b6130ae565b6001905092915050565b60006112bf6148f4565b600f60009054906101000a900473ffffffffffffffffffffffffffffffffffffffff1673ffffffffffffffffffffffffffffffffffffffff1663c190c2ec60405180604001604052803073ffffffffffffffffffffffffffffffffffffffff16815260200160008152506010546040518363ffffffff1660e01b8152600401611349929190615c96565b604080518083038186803b15801561136057600080fd5b505afa158015611374573d6000803e3d6000fd5b505050506040513d601f19601f820116820180604052506113989190810190614d6e565b9050806020015191505090565b6113ad611b19565b6113ec576040517f08c379a00000000000000000000000000000000000000000000000000000000081526004016113e390615af6565b60405180910390fd5b6113f5816138cc565b50565b611400611b19565b61143f576040517f08c379a000000000000000000000000000000000000000000000000000000000815260040161143690615af6565b60405180910390fd5b80601160006101000a81548173ffffffffffffffffffffffffffffffffffffffff021916908373ffffffffffffffffffffffffffffffffffffffff16021790555050565b61148b611b19565b6114ca576040517f08c379a00000000000000000000000000000000000000000000000000000000081526004016114c190615af6565b60405180910390fd5b6114d381613b06565b50565b601160009054906101000a900473ffffffffffffffffffffffffffffffffffffffff1681565b600b60009054906101000a900473ffffffffffffffffffffffffffffffffffffffff1681565b6000600a60009054906101000a900473ffffffffffffffffffffffffffffffffffffffff1673ffffffffffffffffffffffffffffffffffffffff166370a08231306040518263ffffffff1660e01b815260040161157f919061586c565b60206040518083038186803b15801561159757600080fd5b505afa1580156115ab573d6000803e3d6000fd5b505050506040513d601f19601f820116820180604052506115cf9190810190614dc0565b905090565b6115dc611b19565b61161b576040517f08c379a000000000000000000000000000000000000000000000000000000000815260040161161290615af6565b60405180910390fd5b61162481613b96565b50565b61162f611b19565b61166e576040517f08c379a000000000000000000000000000000000000000000000000000000000815260040161166590615af6565b60405180910390fd5b61167781613c32565b50565b60008060008373ffffffffffffffffffffffffffffffffffffffff1673ffffffffffffffffffffffffffffffffffffffff168152602001908152602001600020549050919050565b60006117306116cf612622565b6117226116da6128c3565b6117146116e56112b5565b6117066116f0612b7c565b6116f8612366565b61387790919063ffffffff16565b61387790919063ffffffff16565b61387790919063ffffffff16565b61387790919063ffffffff16565b905090565b61173d611b19565b61177c576040517f08c379a000000000000000000000000000000000000000000000000000000000815260040161177390615af6565b60405180910390fd5b600073ffffffffffffffffffffffffffffffffffffffff16600760009054906101000a900473ffffffffffffffffffffffffffffffffffffffff1673ffffffffffffffffffffffffffffffffffffffff167f8be0079c531659141344cd1fd0a4f28419497f9722a3daafe3b4186f6b6457e060405160405180910390a36000600760006101000a81548173ffffffffffffffffffffffffffffffffffffffff021916908373ffffffffffffffffffffffffffffffffffffffff160217905550565b6000806118486116c2565b905061187960025461186b670de0b6b3a76400008461355e90919063ffffffff16565b6135ce90919063ffffffff16565b91505090565b600061188961212d565b9050601160149054906101000a900460ff1660048111156118a657fe5b8160048111156118b257fe5b146118c0576118bf613cd8565b5b60006118ca612622565b111561199f57600160048111156118dd57fe5b8160048111156118e957fe5b1415611904576118ff6118fa612622565b612e6c565b61199e565b60048081111561191057fe5b81600481111561191c57fe5b14156119375761193261192d612622565b613d93565b61199d565b6002600481111561194457fe5b81600481111561195057fe5b141561196b57611966611961612622565b613e87565b61199c565b6003600481111561197857fe5b81600481111561198457fe5b141561199b5761199a611995612622565b613b96565b5b5b5b5b5b80601160146101000a81548160ff021916908360048111156119bd57fe5b021790555050565b6119cd611b19565b611a0c576040517f08c379a0000000000000000000000000000000000000000000000000000000008152600401611a0390615af6565b60405180910390fd5b611a1581613d93565b50565b611a20611b19565b611a5f576040517f08c379a0000000000000000000000000000000000000000000000000000000008152600401611a5690615af6565b60405180910390fd5b80600c60006101000a81548173ffffffffffffffffffffffffffffffffffffffff021916908373ffffffffffffffffffffffffffffffffffffffff16021790555050565b600c60009054906101000a900473ffffffffffffffffffffffffffffffffffffffff1681565b6000600760009054906101000a900473ffffffffffffffffffffffffffffffffffffffff16905090565b600f60009054906101000a900473ffffffffffffffffffffffffffffffffffffffff1681565b6000600760009054906101000a900473ffffffffffffffffffffffffffffffffffffffff1673ffffffffffffffffffffffffffffffffffffffff16611b5c6130a6565b73ffffffffffffffffffffffffffffffffffffffff1614905090565b6000600960009054906101000a900473ffffffffffffffffffffffffffffffffffffffff1673ffffffffffffffffffffffffffffffffffffffff166370a08231600b60009054906101000a900473ffffffffffffffffffffffffffffffffffffffff166040518263ffffffff1660e01b8152600401611bf7919061586c565b60206040518083038186803b158015611c0f57600080fd5b505afa158015611c23573d6000803e3d6000fd5b505050506040513d601f19601f82011682018060405250611c479190810190614dc0565b905090565b606060048054600181600116156101000203166002900480601f016020809104026020016040519081016040528092919081815260200182805460018160011615610100020316600290048015611ce45780601f10611cb957610100808354040283529160200191611ce4565b820191906000526020600020905b815481529060010190602001808311611cc757829003601f168201915b5050505050905090565b611d5e600a60009054906101000a900473ffffffffffffffffffffffffffffffffffffffff166000600960009054906101000a900473ffffffffffffffffffffffffffffffffffffffff1673ffffffffffffffffffffffffffffffffffffffff16613f799092919063ffffffff16565b611ded600a60009054906101000a900473ffffffffffffffffffffffffffffffffffffffff167fffffffffffffffffffffffffffffffffffffffffffffffffffffffffffffffff600960009054906101000a900473ffffffffffffffffffffffffffffffffffffffff1673ffffffffffffffffffffffffffffffffffffffff16613f799092919063ffffffff16565b611e5d600f60009054906101000a900473ffffffffffffffffffffffffffffffffffffffff166000600960009054906101000a900473ffffffffffffffffffffffffffffffffffffffff1673ffffffffffffffffffffffffffffffffffffffff16613f799092919063ffffffff16565b611eec600f60009054906101000a900473ffffffffffffffffffffffffffffffffffffffff167fffffffffffffffffffffffffffffffffffffffffffffffffffffffffffffffff600960009054906101000a900473ffffffffffffffffffffffffffffffffffffffff1673ffffffffffffffffffffffffffffffffffffffff16613f799092919063ffffffff16565b611f41611ef7612d9f565b6000600960009054906101000a900473ffffffffffffffffffffffffffffffffffffffff1673ffffffffffffffffffffffffffffffffffffffff16613f799092919063ffffffff16565b611fb5611f4c612d9f565b7fffffffffffffffffffffffffffffffffffffffffffffffffffffffffffffffff600960009054906101000a900473ffffffffffffffffffffffffffffffffffffffff1673ffffffffffffffffffffffffffffffffffffffff16613f799092919063ffffffff16565b612025600b60009054906101000a900473ffffffffffffffffffffffffffffffffffffffff166000600960009054906101000a900473ffffffffffffffffffffffffffffffffffffffff1673ffffffffffffffffffffffffffffffffffffffff16613f799092919063ffffffff16565b6120b4600b60009054906101000a900473ffffffffffffffffffffffffffffffffffffffff167fffffffffffffffffffffffffffffffffffffffffffffffffffffffffffffffff600960009054906101000a900473ffffffffffffffffffffffffffffffffffffffff1673ffffffffffffffffffffffffffffffffffffffff16613f799092919063ffffffff16565b565b6120be611b19565b6120fd576040517f08c379a00000000000000000000000000000000000000000000000000000000081526004016120f490615af6565b60405180910390fd5b8060108190555050565b600d60009054906101000a900473ffffffffffffffffffffffffffffffffffffffff1681565b6000806000806000601160009054906101000a900473ffffffffffffffffffffffffffffffffffffffff1673ffffffffffffffffffffffffffffffffffffffff1663d88be3c0600960009054906101000a900473ffffffffffffffffffffffffffffffffffffffff166040518263ffffffff1660e01b81526004016121b2919061586c565b60006040518083038186803b1580156121ca57600080fd5b505afa1580156121de573d6000803e3d6000fd5b505050506040513d6000823e3d601f19601f820116820180604052506122079190810190614cdf565b945094509450945050600080905080851115612221578490505b8084111561222d578390505b80831115612239578290505b80821115612245578190505b60008090508582141561225b576002905061228d565b8482141561226c576004905061228c565b8382141561227d576003905061228b565b8282141561228a57600190505b5b5b5b80965050505050505090565b600061235c6122a66130a6565b846123578560405180606001604052806025815260200161602360259139600160006122d06130a6565b73ffffffffffffffffffffffffffffffffffffffff1673ffffffffffffffffffffffffffffffffffffffff16815260200190815260200160002060008a73ffffffffffffffffffffffffffffffffffffffff1673ffffffffffffffffffffffffffffffffffffffff168152602001908152602001600020546135039092919063ffffffff16565b6130ae565b6001905092915050565b600080612371611522565b9050600081111561244b57612448670de0b6b3a764000061243a600a60009054906101000a900473ffffffffffffffffffffffffffffffffffffffff1673ffffffffffffffffffffffffffffffffffffffff1663182df0f56040518163ffffffff1660e01b815260040160206040518083038186803b1580156123f357600080fd5b505afa158015612407573d6000803e3d6000fd5b505050506040513d601f19601f8201168201806040525061242b9190810190614dc0565b8461355e90919063ffffffff16565b6135ce90919063ffffffff16565b90505b8091505090565b600061246661245f6130a6565b8484613279565b6001905092915050565b612478611b19565b6124b7576040517f08c379a00000000000000000000000000000000000000000000000000000000081526004016124ae90615af6565b60405180910390fd5b80600e60006101000a81548173ffffffffffffffffffffffffffffffffffffffff021916908373ffffffffffffffffffffffffffffffffffffffff16021790555050565b6000600960009054906101000a900473ffffffffffffffffffffffffffffffffffffffff1673ffffffffffffffffffffffffffffffffffffffff166370a08231600d60009054906101000a900473ffffffffffffffffffffffffffffffffffffffff166040518263ffffffff1660e01b815260040161257a919061586c565b60206040518083038186803b15801561259257600080fd5b505afa1580156125a6573d6000803e3d6000fd5b505050506040513d601f19601f820116820180604052506125ca9190810190614dc0565b905090565b6125d7611b19565b612616576040517f08c379a000000000000000000000000000000000000000000000000000000000815260040161260d90615af6565b60405180910390fd5b61261f816140f0565b50565b6000600960009054906101000a900473ffffffffffffffffffffffffffffffffffffffff1673ffffffffffffffffffffffffffffffffffffffff166370a08231306040518263ffffffff1660e01b815260040161267f919061586c565b60206040518083038186803b15801561269757600080fd5b505afa1580156126ab573d6000803e3d6000fd5b505050506040513d601f19601f820116820180604052506126cf9190810190614dc0565b905090565b6001600660008282540192505081905550600060065490506000821161272f576040517f08c379a000000000000000000000000000000000000000000000000000000000815260040161272690615bb6565b60405180910390fd5b6127376116c2565b60088190555061278c333084600960009054906101000a900473ffffffffffffffffffffffffffffffffffffffff1673ffffffffffffffffffffffffffffffffffffffff16614196909392919063ffffffff16565b6000809050600060085414156127ab57829050826008819055506127d7565b6127d46008546127c66002548661355e90919063ffffffff16565b6135ce90919063ffffffff16565b90505b6127df6116c2565b6008819055506127ef3382614238565b506006548114612834576040517f08c379a000000000000000000000000000000000000000000000000000000000815260040161282b90615c16565b60405180910390fd5b5050565b612840611b19565b61287f576040517f08c379a000000000000000000000000000000000000000000000000000000000815260040161287690615af6565b60405180910390fd5b80600b60006101000a81548173ffffffffffffffffffffffffffffffffffffffff021916908373ffffffffffffffffffffffffffffffffffffffff16021790555050565b6000600e60009054906101000a900473ffffffffffffffffffffffffffffffffffffffff1673ffffffffffffffffffffffffffffffffffffffff166370a08231306040518263ffffffff1660e01b8152600401612920919061586c565b60206040518083038186803b15801561293857600080fd5b505afa15801561294c573d6000803e3d6000fd5b505050506040513d601f19601f820116820180604052506129709190810190614dc0565b905090565b6000600960009054906101000a900473ffffffffffffffffffffffffffffffffffffffff1673ffffffffffffffffffffffffffffffffffffffff166370a08231600f60009054906101000a900473ffffffffffffffffffffffffffffffffffffffff166040518263ffffffff1660e01b81526004016129f4919061586c565b60206040518083038186803b158015612a0c57600080fd5b505afa158015612a20573d6000803e3d6000fd5b505050506040513d601f19601f82011682018060405250612a449190810190614dc0565b905090565b60105481565b6000600160008473ffffffffffffffffffffffffffffffffffffffff1673ffffffffffffffffffffffffffffffffffffffff16815260200190815260200160002060008373ffffffffffffffffffffffffffffffffffffffff1673ffffffffffffffffffffffffffffffffffffffff16815260200190815260200160002054905092915050565b612ade611b19565b612b1d576040517f08c379a0000000000000000000000000000000000000000000000000000000008152600401612b1490615af6565b60405180910390fd5b612b2681613e87565b50565b612b31611b19565b612b70576040517f08c379a0000000000000000000000000000000000000000000000000000000008152600401612b6790615af6565b60405180910390fd5b612b79816143c0565b50565b600080612b87610c1b565b90506000811115612c4057600b60009054906101000a900473ffffffffffffffffffffffffffffffffffffffff1673ffffffffffffffffffffffffffffffffffffffff166306b3efd6306040518263ffffffff1660e01b8152600401612bed919061586c565b60206040518083038186803b158015612c0557600080fd5b505afa158015612c19573d6000803e3d6000fd5b505050506040513d601f19601f82011682018060405250612c3d9190810190614dc0565b90505b8091505090565b612c4f611b19565b612c8e576040517f08c379a0000000000000000000000000000000000000000000000000000000008152600401612c8590615af6565b60405180910390fd5b80600a60006101000a81548173ffffffffffffffffffffffffffffffffffffffff021916908373ffffffffffffffffffffffffffffffffffffffff16021790555050565b600a60009054906101000a900473ffffffffffffffffffffffffffffffffffffffff1681565b6000600c60009054906101000a900473ffffffffffffffffffffffffffffffffffffffff1673ffffffffffffffffffffffffffffffffffffffff16630261bf8b6040518163ffffffff1660e01b815260040160206040518083038186803b158015612d6257600080fd5b505afa158015612d76573d6000803e3d6000fd5b505050506040513d601f19601f82011682018060405250612d9a9190810190614bc6565b905090565b6000600c60009054906101000a900473ffffffffffffffffffffffffffffffffffffffff1673ffffffffffffffffffffffffffffffffffffffff1663ed6ff7606040518163ffffffff1660e01b815260040160206040518083038186803b158015612e0957600080fd5b505afa158015612e1d573d6000803e3d6000fd5b505050506040513d601f19601f82011682018060405250612e419190810190614bc6565b905090565b600960009054906101000a900473ffffffffffffffffffffffffffffffffffffffff1681565b60606001604051908082528060200260200182016040528015612ea957816020015b612e96614910565b815260200190600190039081612e8e5790505b50905060405180604001604052803073ffffffffffffffffffffffffffffffffffffffff168152602001600081525081600081518110612ee557fe5b6020026020010181905250612ef8614940565b6040518060800160405280600115158152602001600080811115612f1857fe5b8152602001600080811115612f2957fe5b8152602001848152509050612f3c61497e565b600081600001906001811115612f4e57fe5b90816001811115612f5b57fe5b815250506000816020018181525050818160400181905250601054816060018181525050308160a0019073ffffffffffffffffffffffffffffffffffffffff16908173ffffffffffffffffffffffffffffffffffffffff168152505060606001604051908082528060200260200182016040528015612ff457816020015b612fe16149ea565b815260200190600190039081612fd95790505b509050818160008151811061300557fe5b6020026020010181905250600f60009054906101000a900473ffffffffffffffffffffffffffffffffffffffff1673ffffffffffffffffffffffffffffffffffffffff1663a67a6a4585836040518363ffffffff1660e01b815260040161306d929190615947565b600060405180830381600087803b15801561308757600080fd5b505af115801561309b573d6000803e3d6000fd5b505050505050505050565b600033905090565b600073ffffffffffffffffffffffffffffffffffffffff168373ffffffffffffffffffffffffffffffffffffffff16141561311e576040517f08c379a000000000000000000000000000000000000000000000000000000000815260040161311590615b96565b60405180910390fd5b600073ffffffffffffffffffffffffffffffffffffffff168273ffffffffffffffffffffffffffffffffffffffff16141561318e576040517f08c379a000000000000000000000000000000000000000000000000000000000815260040161318590615a36565b60405180910390fd5b80600160008573ffffffffffffffffffffffffffffffffffffffff1673ffffffffffffffffffffffffffffffffffffffff16815260200190815260200160002060008473ffffffffffffffffffffffffffffffffffffffff1673ffffffffffffffffffffffffffffffffffffffff168152602001908152602001600020819055508173ffffffffffffffffffffffffffffffffffffffff168373ffffffffffffffffffffffffffffffffffffffff167f8c5be1e5ebec7d5bd14f71427d1e84f3dd0314c0f7b2291e5b200ac8c7c3b9258360405161326c9190615cbf565b60405180910390a3505050565b600073ffffffffffffffffffffffffffffffffffffffff168373ffffffffffffffffffffffffffffffffffffffff1614156132e9576040517f08c379a00000000000000000000000000000000000000000000000000000000081526004016132e090615b56565b60405180910390fd5b600073ffffffffffffffffffffffffffffffffffffffff168273ffffffffffffffffffffffffffffffffffffffff161415613359576040517f08c379a0000000000000000000000000000000000000000000000000000000008152600401613350906159d6565b60405180910390fd5b6133c481604051806060016040528060268152602001615fd5602691396000808773ffffffffffffffffffffffffffffffffffffffff1673ffffffffffffffffffffffffffffffffffffffff168152602001908152602001600020546135039092919063ffffffff16565b6000808573ffffffffffffffffffffffffffffffffffffffff1673ffffffffffffffffffffffffffffffffffffffff16815260200190815260200160002081905550613457816000808573ffffffffffffffffffffffffffffffffffffffff1673ffffffffffffffffffffffffffffffffffffffff1681526020019081526020016000205461387790919063ffffffff16565b6000808473ffffffffffffffffffffffffffffffffffffffff1673ffffffffffffffffffffffffffffffffffffffff168152602001908152602001600020819055508173ffffffffffffffffffffffffffffffffffffffff168373ffffffffffffffffffffffffffffffffffffffff167fddf252ad1be2c89b69c2b068fc378daa952ba7f163c4a11628f55a4df523b3ef836040516134f69190615cbf565b60405180910390a3505050565b600083831115829061354b576040517f08c379a000000000000000000000000000000000000000000000000000000000815260040161354291906159b4565b60405180910390fd5b5060008385039050809150509392505050565b60008083141561357157600090506135c8565b600082840290508284828161358257fe5b04146135c3576040517f08c379a00000000000000000000000000000000000000000000000000000000081526004016135ba90615ab6565b60405180910390fd5b809150505b92915050565b600061361083836040518060400160405280601a81526020017f536166654d6174683a206469766973696f6e206279207a65726f0000000000008152506144f0565b905092915050565b600061365a83836040518060400160405280601e81526020017f536166654d6174683a207375627472616374696f6e206f766572666c6f770000815250613503565b905092915050565b6002600481111561366f57fe5b601160149054906101000a900460ff16600481111561368a57fe5b141561369a57613699816140f0565b5b600360048111156136a757fe5b601160149054906101000a900460ff1660048111156136c257fe5b141561371c57806136d16128c3565b1015613712576040517f08c379a000000000000000000000000000000000000000000000000000000000815260040161370990615b76565b60405180910390fd5b61371b81613b06565b5b6001600481111561372957fe5b601160149054906101000a900460ff16600481111561374457fe5b141561379e57806137536112b5565b1015613794576040517f08c379a000000000000000000000000000000000000000000000000000000000815260040161378b90615b76565b60405180910390fd5b61379d816138cc565b5b6004808111156137aa57fe5b601160149054906101000a900460ff1660048111156137c557fe5b14156137d5576137d481613c32565b5b50565b613872838473ffffffffffffffffffffffffffffffffffffffff1663a9059cbb905060e01b84846040516024016138109291906158e7565b604051602081830303815290604052907bffffffffffffffffffffffffffffffffffffffffffffffffffffffff19166020820180517bffffffffffffffffffffffffffffffffffffffffffffffffffffffff8381831617835250505050614551565b505050565b6000808284019050838110156138c2576040517f08c379a00000000000000000000000000000000000000000000000000000000081526004016138b990615a76565b60405180910390fd5b8091505092915050565b6060600160405190808252806020026020018201604052801561390957816020015b6138f6614910565b8152602001906001900390816138ee5790505b50905060405180604001604052803073ffffffffffffffffffffffffffffffffffffffff16815260200160008152508160008151811061394557fe5b6020026020010181905250613958614940565b604051806080016040528060001515815260200160008081111561397857fe5b815260200160008081111561398957fe5b815260200184815250905061399c61497e565b6001816000019060018111156139ae57fe5b908160018111156139bb57fe5b815250506000816020018181525050818160400181905250601054816060018181525050308160a0019073ffffffffffffffffffffffffffffffffffffffff16908173ffffffffffffffffffffffffffffffffffffffff168152505060606001604051908082528060200260200182016040528015613a5457816020015b613a416149ea565b815260200190600190039081613a395790505b5090508181600081518110613a6557fe5b6020026020010181905250600f60009054906101000a900473ffffffffffffffffffffffffffffffffffffffff1673ffffffffffffffffffffffffffffffffffffffff1663a67a6a4585836040518363ffffffff1660e01b8152600401613acd929190615947565b600060405180830381600087803b158015613ae757600080fd5b505af1158015613afb573d6000803e3d6000fd5b505050505050505050565b600e60009054906101000a900473ffffffffffffffffffffffffffffffffffffffff1673ffffffffffffffffffffffffffffffffffffffff1663db006a75826040518263ffffffff1660e01b8152600401613b619190615cbf565b600060405180830381600087803b158015613b7b57600080fd5b505af1158015613b8f573d6000803e3d6000fd5b5050505050565b613b9e612cf8565b73ffffffffffffffffffffffffffffffffffffffff1663d2d0e066600960009054906101000a900473ffffffffffffffffffffffffffffffffffffffff168360006040518463ffffffff1660e01b8152600401613bfd93929190615910565b600060405180830381600087803b158015613c1757600080fd5b505af1158015613c2b573d6000803e3d6000fd5b5050505050565b6000613c3c610c1b565b90506000613c48612b7c565b905082811015613c8d576040517f08c379a0000000000000000000000000000000000000000000000000000000008152600401613c8490615b76565b60405180910390fd5b6000613cc76001613cb984613cab888861355e90919063ffffffff16565b6135ce90919063ffffffff16565b61387790919063ffffffff16565b9050613cd2816146c3565b50505050565b6000613ce2611522565b90506000811115613d1157613d10613d0b6001613cfd612366565b61361890919063ffffffff16565b6140f0565b5b613d196112b5565b90506000811115613d3557613d34613d2f612975565b6138cc565b5b613d3d610c1b565b90506000811115613d6c57613d6b613d666001613d58611b78565b61361890919063ffffffff16565b613c32565b5b613d746128c3565b90506000811115613d9057613d8f613d8a6124fb565b613b06565b5b50565b6000600b60009054906101000a900473ffffffffffffffffffffffffffffffffffffffff1673ffffffffffffffffffffffffffffffffffffffff166340c10f1930846040518363ffffffff1660e01b8152600401613df29291906158e7565b602060405180830381600087803b158015613e0c57600080fd5b505af1158015613e20573d6000803e3d6000fd5b505050506040513d601f19601f82011682018060405250613e449190810190614dc0565b11613e84576040517f08c379a0000000000000000000000000000000000000000000000000000000008152600401613e7b90615bd6565b60405180910390fd5b50565b6000600a60009054906101000a900473ffffffffffffffffffffffffffffffffffffffff1673ffffffffffffffffffffffffffffffffffffffff1663a0712d68836040518263ffffffff1660e01b8152600401613ee49190615cbf565b602060405180830381600087803b158015613efe57600080fd5b505af1158015613f12573d6000803e3d6000fd5b505050506040513d601f19601f82011682018060405250613f369190810190614dc0565b14613f76576040517f08c379a0000000000000000000000000000000000000000000000000000000008152600401613f6d90615a56565b60405180910390fd5b50565b6000811480614012575060008373ffffffffffffffffffffffffffffffffffffffff1663dd62ed3e30856040518363ffffffff1660e01b8152600401613fc0929190615887565b60206040518083038186803b158015613fd857600080fd5b505afa158015613fec573d6000803e3d6000fd5b505050506040513d601f19601f820116820180604052506140109190810190614dc0565b145b614051576040517f08c379a000000000000000000000000000000000000000000000000000000000815260040161404890615c36565b60405180910390fd5b6140eb838473ffffffffffffffffffffffffffffffffffffffff1663095ea7b3905060e01b84846040516024016140899291906158e7565b604051602081830303815290604052907bffffffffffffffffffffffffffffffffffffffffffffffffffffffff19166020820180517bffffffffffffffffffffffffffffffffffffffffffffffffffffffff8381831617835250505050614551565b505050565b60006140fa611522565b90506000614106612366565b90508281101561414b576040517f08c379a000000000000000000000000000000000000000000000000000000000815260040161414290615b76565b60405180910390fd5b6000614185600161417784614169888861355e90919063ffffffff16565b6135ce90919063ffffffff16565b61387790919063ffffffff16565b9050614190816147b7565b50505050565b614232848573ffffffffffffffffffffffffffffffffffffffff166323b872dd905060e01b8585856040516024016141d0939291906158b0565b604051602081830303815290604052907bffffffffffffffffffffffffffffffffffffffffffffffffffffffff19166020820180517bffffffffffffffffffffffffffffffffffffffffffffffffffffffff8381831617835250505050614551565b50505050565b600073ffffffffffffffffffffffffffffffffffffffff168273ffffffffffffffffffffffffffffffffffffffff1614156142a8576040517f08c379a000000000000000000000000000000000000000000000000000000000815260040161429f90615c76565b60405180910390fd5b6142bd8160025461387790919063ffffffff16565b600281905550614314816000808573ffffffffffffffffffffffffffffffffffffffff1673ffffffffffffffffffffffffffffffffffffffff1681526020019081526020016000205461387790919063ffffffff16565b6000808473ffffffffffffffffffffffffffffffffffffffff1673ffffffffffffffffffffffffffffffffffffffff168152602001908152602001600020819055508173ffffffffffffffffffffffffffffffffffffffff16600073ffffffffffffffffffffffffffffffffffffffff167fddf252ad1be2c89b69c2b068fc378daa952ba7f163c4a11628f55a4df523b3ef836040516143b49190615cbf565b60405180910390a35050565b600073ffffffffffffffffffffffffffffffffffffffff168173ffffffffffffffffffffffffffffffffffffffff161415614430576040517f08c379a000000000000000000000000000000000000000000000000000000000815260040161442790615a16565b60405180910390fd5b8073ffffffffffffffffffffffffffffffffffffffff16600760009054906101000a900473ffffffffffffffffffffffffffffffffffffffff1673ffffffffffffffffffffffffffffffffffffffff167f8be0079c531659141344cd1fd0a4f28419497f9722a3daafe3b4186f6b6457e060405160405180910390a380600760006101000a81548173ffffffffffffffffffffffffffffffffffffffff021916908373ffffffffffffffffffffffffffffffffffffffff16021790555050565b60008083118290614537576040517f08c379a000000000000000000000000000000000000000000000000000000000815260040161452e91906159b4565b60405180910390fd5b50600083858161454357fe5b049050809150509392505050565b6145708273ffffffffffffffffffffffffffffffffffffffff166148a9565b6145af576040517f08c379a00000000000000000000000000000000000000000000000000000000081526004016145a690615c56565b60405180910390fd5b600060608373ffffffffffffffffffffffffffffffffffffffff16836040516145d89190615855565b6000604051808303816000865af19150503d8060008114614615576040519150601f19603f3d011682016040523d82523d6000602084013e61461a565b606091505b50915091508161465f576040517f08c379a000000000000000000000000000000000000000000000000000000000815260040161465690615a96565b60405180910390fd5b6000815111156146bd578080602001905161467d9190810190614cb6565b6146bc576040517f08c379a00000000000000000000000000000000000000000000000000000000081526004016146b390615bf6565b60405180910390fd5b5b50505050565b6000600b60009054906101000a900473ffffffffffffffffffffffffffffffffffffffff1673ffffffffffffffffffffffffffffffffffffffff16639dc29fac30846040518363ffffffff1660e01b81526004016147229291906158e7565b602060405180830381600087803b15801561473c57600080fd5b505af1158015614750573d6000803e3d6000fd5b505050506040513d601f19601f820116820180604052506147749190810190614dc0565b116147b4576040517f08c379a00000000000000000000000000000000000000000000000000000000081526004016147ab90615ad6565b60405180910390fd5b50565b6000600a60009054906101000a900473ffffffffffffffffffffffffffffffffffffffff1673ffffffffffffffffffffffffffffffffffffffff1663db006a75836040518263ffffffff1660e01b81526004016148149190615cbf565b602060405180830381600087803b15801561482e57600080fd5b505af1158015614842573d6000803e3d6000fd5b505050506040513d601f19601f820116820180604052506148669190810190614dc0565b146148a6576040517f08c379a000000000000000000000000000000000000000000000000000000000815260040161489d906159f6565b60405180910390fd5b50565b60008060007fc5d2460186f7233c927e7db2dcc703c0e500b653ca82273b7bfad8045d85a47060001b9050833f91506000801b82141580156148eb5750808214155b92505050919050565b6040518060400160405280600015158152602001600081525090565b6040518060400160405280600073ffffffffffffffffffffffffffffffffffffffff168152602001600081525090565b604051806080016040528060001515815260200160008081111561496057fe5b815260200160008081111561497157fe5b8152602001600081525090565b6040518061010001604052806000600181111561499757fe5b8152602001600081526020016149ab614a56565b81526020016000815260200160008152602001600073ffffffffffffffffffffffffffffffffffffffff16815260200160008152602001606081525090565b60405180610100016040528060006001811115614a0357fe5b815260200160008152602001614a17614a56565b81526020016000815260200160008152602001600073ffffffffffffffffffffffffffffffffffffffff16815260200160008152602001606081525090565b6040518060800160405280600015158152602001600080811115614a7657fe5b8152602001600080811115614a8757fe5b8152602001600081525090565b600081359050614aa381615f8f565b92915050565b600081519050614ab881615f8f565b92915050565b600081519050614acd81615fa6565b92915050565b600082601f830112614ae457600080fd5b8151614af7614af282615d22565b615cf5565b91508082526020830160208301858383011115614b1357600080fd5b614b1e838284615f17565b50505092915050565b600060408284031215614b3957600080fd5b614b436040615cf5565b90506000614b5384828501614abe565b6000830152506020614b6784828501614b88565b60208301525092915050565b600081359050614b8281615fbd565b92915050565b600081519050614b9781615fbd565b92915050565b600060208284031215614baf57600080fd5b6000614bbd84828501614a94565b91505092915050565b600060208284031215614bd857600080fd5b6000614be684828501614aa9565b91505092915050565b60008060408385031215614c0257600080fd5b6000614c1085828601614a94565b9250506020614c2185828601614a94565b9150509250929050565b600080600060608486031215614c4057600080fd5b6000614c4e86828701614a94565b9350506020614c5f86828701614a94565b9250506040614c7086828701614b73565b9150509250925092565b60008060408385031215614c8d57600080fd5b6000614c9b85828601614a94565b9250506020614cac85828601614b73565b9150509250929050565b600060208284031215614cc857600080fd5b6000614cd684828501614abe565b91505092915050565b600080600080600060a08688031215614cf757600080fd5b600086015167ffffffffffffffff811115614d1157600080fd5b614d1d88828901614ad3565b9550506020614d2e88828901614b88565b9450506040614d3f88828901614b88565b9350506060614d5088828901614b88565b9250506080614d6188828901614b88565b9150509295509295909350565b600060408284031215614d8057600080fd5b6000614d8e84828501614b27565b91505092915050565b600060208284031215614da957600080fd5b6000614db784828501614b73565b91505092915050565b600060208284031215614dd257600080fd5b6000614de084828501614b88565b91505092915050565b6000614df583836156c2565b905092915050565b6000614e0983836157ca565b60408301905092915050565b614e1e81615e0e565b82525050565b614e2d81615e0e565b82525050565b6000614e3e82615d6e565b614e488185615dbf565b935083602082028501614e5a85615d4e565b8060005b85811015614e965784840389528151614e778582614de9565b9450614e8283615da5565b925060208a01995050600181019050614e5e565b50829750879550505050505092915050565b6000614eb382615d79565b614ebd8185615dd0565b9350614ec883615d5e565b8060005b83811015614ef9578151614ee08882614dfd565b9750614eeb83615db2565b925050600181019050614ecc565b5085935050505092915050565b614f0f81615e20565b82525050565b614f1e81615e20565b82525050565b6000614f2f82615d8f565b614f398185615df2565b9350614f49818560208601615f17565b80840191505092915050565b6000614f6082615d84565b614f6a8185615de1565b9350614f7a818560208601615f17565b614f8381615f4a565b840191505092915050565b614f9781615ebd565b82525050565b614fa681615ecf565b82525050565b614fb581615ee1565b82525050565b614fc481615ef3565b82525050565b614fd381615f05565b82525050565b6000614fe482615d9a565b614fee8185615dfd565b9350614ffe818560208601615f17565b61500781615f4a565b840191505092915050565b600061501f602383615dfd565b91507f45524332303a207472616e7366657220746f20746865207a65726f206164647260008301527f65737300000000000000000000000000000000000000000000000000000000006020830152604082019050919050565b6000615085601983615dfd565b91507f434f4d504f554e443a207769746864726177206661696c6564000000000000006000830152602082019050919050565b60006150c5602683615dfd565b91507f4f776e61626c653a206e6577206f776e657220697320746865207a65726f206160008301527f64647265737300000000000000000000000000000000000000000000000000006020830152604082019050919050565b600061512b602283615dfd565b91507f45524332303a20617070726f766520746f20746865207a65726f20616464726560008301527f73730000000000000000000000000000000000000000000000000000000000006020830152604082019050919050565b6000615191601783615dfd565b91507f434f4d504f554e443a20737570706c79206661696c65640000000000000000006000830152602082019050919050565b60006151d1601b83615dfd565b91507f536166654d6174683a206164646974696f6e206f766572666c6f7700000000006000830152602082019050919050565b6000615211602083615dfd565b91507f5361666545524332303a206c6f772d6c6576656c2063616c6c206661696c65646000830152602082019050919050565b6000615251602183615dfd565b91507f536166654d6174683a206d756c7469706c69636174696f6e206f766572666c6f60008301527f77000000000000000000000000000000000000000000000000000000000000006020830152604082019050919050565b60006152b7601883615dfd565b91507f46554c4352554d3a207769746864726177206661696c656400000000000000006000830152602082019050919050565b60006152f7602083615dfd565b91507f4f776e61626c653a2063616c6c6572206973206e6f7420746865206f776e65726000830152602082019050919050565b6000615337601483615dfd565b91507f696e73756666696369656e742062616c616e63650000000000000000000000006000830152602082019050919050565b6000615377601f83615dfd565b91507f7769746864726177206d7573742062652067726561746572207468616e2030006000830152602082019050919050565b60006153b7602583615dfd565b91507f45524332303a207472616e736665722066726f6d20746865207a65726f20616460008301527f64726573730000000000000000000000000000000000000000000000000000006020830152604082019050919050565b600061541d601283615dfd565b91507f696e73756666696369656e742066756e647300000000000000000000000000006000830152602082019050919050565b600061545d602483615dfd565b91507f45524332303a20617070726f76652066726f6d20746865207a65726f2061646460008301527f72657373000000000000000000000000000000000000000000000000000000006020830152604082019050919050565b60006154c3601e83615dfd565b91507f6465706f736974206d7573742062652067726561746572207468616e203000006000830152602082019050919050565b6000615503601683615dfd565b91507f46554c4352554d3a20737570706c79206661696c6564000000000000000000006000830152602082019050919050565b6000615543602a83615dfd565b91507f5361666545524332303a204552433230206f7065726174696f6e20646964206e60008301527f6f742073756363656564000000000000000000000000000000000000000000006020830152604082019050919050565b60006155a9601f83615dfd565b91507f5265656e7472616e637947756172643a207265656e7472616e742063616c6c006000830152602082019050919050565b60006155e9603683615dfd565b91507f5361666545524332303a20617070726f76652066726f6d206e6f6e2d7a65726f60008301527f20746f206e6f6e2d7a65726f20616c6c6f77616e6365000000000000000000006020830152604082019050919050565b600061564f601f83615dfd565b91507f5361666545524332303a2063616c6c20746f206e6f6e2d636f6e7472616374006000830152602082019050919050565b600061568f601f83615dfd565b91507f45524332303a206d696e7420746f20746865207a65726f2061646472657373006000830152602082019050919050565b6000610160830160008301516156db6000860182614f8e565b5060208301516156ee6020860182615828565b5060408301516157016040860182615775565b50606083015161571460c0860182615828565b50608083015161572760e0860182615828565b5060a083015161573b610100860182614e15565b5060c083015161574f610120860182615828565b5060e08301518482036101408601526157688282614f55565b9150508091505092915050565b60808201600082015161578b6000850182614f06565b50602082015161579e6020850182614f9d565b5060408201516157b16040850182614fac565b5060608201516157c46060850182615828565b50505050565b6040820160008201516157e06000850182614e15565b5060208201516157f36020850182615828565b50505050565b60408201600082015161580f6000850182614e15565b5060208201516158226020850182615828565b50505050565b61583181615ea6565b82525050565b61584081615ea6565b82525050565b61584f81615eb0565b82525050565b60006158618284614f24565b915081905092915050565b60006020820190506158816000830184614e24565b92915050565b600060408201905061589c6000830185614e24565b6158a96020830184614e24565b9392505050565b60006060820190506158c56000830186614e24565b6158d26020830185614e24565b6158df6040830184615837565b949350505050565b60006040820190506158fc6000830185614e24565b6159096020830184615837565b9392505050565b60006060820190506159256000830186614e24565b6159326020830185615837565b61593f6040830184614fca565b949350505050565b600060408201905081810360008301526159618185614ea8565b905081810360208301526159758184614e33565b90509392505050565b60006020820190506159936000830184614f15565b92915050565b60006020820190506159ae6000830184614fbb565b92915050565b600060208201905081810360008301526159ce8184614fd9565b905092915050565b600060208201905081810360008301526159ef81615012565b9050919050565b60006020820190508181036000830152615a0f81615078565b9050919050565b60006020820190508181036000830152615a2f816150b8565b9050919050565b60006020820190508181036000830152615a4f8161511e565b9050919050565b60006020820190508181036000830152615a6f81615184565b9050919050565b60006020820190508181036000830152615a8f816151c4565b9050919050565b60006020820190508181036000830152615aaf81615204565b9050919050565b60006020820190508181036000830152615acf81615244565b9050919050565b60006020820190508181036000830152615aef816152aa565b9050919050565b60006020820190508181036000830152615b0f816152ea565b9050919050565b60006020820190508181036000830152615b2f8161532a565b9050919050565b60006020820190508181036000830152615b4f8161536a565b9050919050565b60006020820190508181036000830152615b6f816153aa565b9050919050565b60006020820190508181036000830152615b8f81615410565b9050919050565b60006020820190508181036000830152615baf81615450565b9050919050565b60006020820190508181036000830152615bcf816154b6565b9050919050565b60006020820190508181036000830152615bef816154f6565b9050919050565b60006020820190508181036000830152615c0f81615536565b9050919050565b60006020820190508181036000830152615c2f8161559c565b9050919050565b60006020820190508181036000830152615c4f816155dc565b9050919050565b60006020820190508181036000830152615c6f81615642565b9050919050565b60006020820190508181036000830152615c8f81615682565b9050919050565b6000606082019050615cab60008301856157f9565b615cb86040830184615837565b9392505050565b6000602082019050615cd46000830184615837565b92915050565b6000602082019050615cef6000830184615846565b92915050565b6000604051905081810181811067ffffffffffffffff82111715615d1857600080fd5b8060405250919050565b600067ffffffffffffffff821115615d3957600080fd5b601f19601f8301169050602081019050919050565b6000819050602082019050919050565b6000819050602082019050919050565b600081519050919050565b600081519050919050565b600081519050919050565b600081519050919050565b600081519050919050565b6000602082019050919050565b6000602082019050919050565b600082825260208201905092915050565b600082825260208201905092915050565b600082825260208201905092915050565b600081905092915050565b600082825260208201905092915050565b6000615e1982615e86565b9050919050565b60008115159050919050565b6000819050615e3a82615f5b565b919050565b6000819050615e4d82615f68565b919050565b6000819050615e6082615f75565b919050565b6000819050615e7382615f82565b919050565b600061ffff82169050919050565b600073ffffffffffffffffffffffffffffffffffffffff82169050919050565b6000819050919050565b600060ff82169050919050565b6000615ec882615e2c565b9050919050565b6000615eda82615e3f565b9050919050565b6000615eec82615e52565b9050919050565b6000615efe82615e65565b9050919050565b6000615f1082615e78565b9050919050565b60005b83811015615f35578082015181840152602081019050615f1a565b83811115615f44576000848401525b50505050565b6000601f19601f8301169050919050565b60028110615f6557fe5b50565b60018110615f7257fe5b50565b60018110615f7f57fe5b50565b60058110615f8c57fe5b50565b615f9881615e0e565b8114615fa357600080fd5b50565b615faf81615e20565b8114615fba57600080fd5b50565b615fc681615ea6565b8114615fd157600080fd5b5056fe45524332303a207472616e7366657220616d6f756e7420657863656564732062616c616e636545524332303a207472616e7366657220616d6f756e74206578636565647320616c6c6f77616e636545524332303a2064656372656173656420616c6c6f77616e63652062656c6f77207a65726fa365627a7a723158208537e7dfa2990245c2aeec67ad1e6b7c10862dc22534f78daa52bbbf7bd26b146c6578706572696d656e74616cf564736f6c634300050c0040",
  "source": "pragma solidity ^0.5.0;\npragma experimental ABIEncoderV2;\n\ninterface IERC20 {\n    function totalSupply() external view returns (uint256);\n    function balanceOf(address account) external view returns (uint256);\n    function transfer(address recipient, uint256 amount) external returns (bool);\n    function allowance(address owner, address spender) external view returns (uint256);\n    function approve(address spender, uint256 amount) external returns (bool);\n    function transferFrom(address sender, address recipient, uint256 amount) external returns (bool);\n    event Transfer(address indexed from, address indexed to, uint256 value);\n    event Approval(address indexed owner, address indexed spender, uint256 value);\n}\n\ncontract Context {\n    constructor () internal { }\n    // solhint-disable-previous-line no-empty-blocks\n\n    function _msgSender() internal view returns (address payable) {\n        return msg.sender;\n    }\n\n    function _msgData() internal view returns (bytes memory) {\n        this; // silence state mutability warning without generating bytecode - see https://github.com/ethereum/solidity/issues/2691\n        return msg.data;\n    }\n}\n\ncontract Ownable is Context {\n    address private _owner;\n\n    event OwnershipTransferred(address indexed previousOwner, address indexed newOwner);\n    constructor () internal {\n        _owner = _msgSender();\n        emit OwnershipTransferred(address(0), _owner);\n    }\n    function owner() public view returns (address) {\n        return _owner;\n    }\n    modifier onlyOwner() {\n        require(isOwner(), \"Ownable: caller is not the owner\");\n        _;\n    }\n    function isOwner() public view returns (bool) {\n        return _msgSender() == _owner;\n    }\n    function renounceOwnership() public onlyOwner {\n        emit OwnershipTransferred(_owner, address(0));\n        _owner = address(0);\n    }\n    function transferOwnership(address newOwner) public onlyOwner {\n        _transferOwnership(newOwner);\n    }\n    function _transferOwnership(address newOwner) internal {\n        require(newOwner != address(0), \"Ownable: new owner is the zero address\");\n        emit OwnershipTransferred(_owner, newOwner);\n        _owner = newOwner;\n    }\n}\n\ncontract ERC20 is Context, IERC20 {\n    using SafeMath for uint256;\n\n    mapping (address => uint256) _balances;\n\n    mapping (address => mapping (address => uint256)) private _allowances;\n\n    uint256 _totalSupply;\n    function totalSupply() public view returns (uint256) {\n        return _totalSupply;\n    }\n    function balanceOf(address account) public view returns (uint256) {\n        return _balances[account];\n    }\n    function transfer(address recipient, uint256 amount) public returns (bool) {\n        _transfer(_msgSender(), recipient, amount);\n        return true;\n    }\n    function allowance(address owner, address spender) public view returns (uint256) {\n        return _allowances[owner][spender];\n    }\n    function approve(address spender, uint256 amount) public returns (bool) {\n        _approve(_msgSender(), spender, amount);\n        return true;\n    }\n    function transferFrom(address sender, address recipient, uint256 amount) public returns (bool) {\n        _transfer(sender, recipient, amount);\n        _approve(sender, _msgSender(), _allowances[sender][_msgSender()].sub(amount, \"ERC20: transfer amount exceeds allowance\"));\n        return true;\n    }\n    function increaseAllowance(address spender, uint256 addedValue) public returns (bool) {\n        _approve(_msgSender(), spender, _allowances[_msgSender()][spender].add(addedValue));\n        return true;\n    }\n    function decreaseAllowance(address spender, uint256 subtractedValue) public returns (bool) {\n        _approve(_msgSender(), spender, _allowances[_msgSender()][spender].sub(subtractedValue, \"ERC20: decreased allowance below zero\"));\n        return true;\n    }\n    function _transfer(address sender, address recipient, uint256 amount) internal {\n        require(sender != address(0), \"ERC20: transfer from the zero address\");\n        require(recipient != address(0), \"ERC20: transfer to the zero address\");\n\n        _balances[sender] = _balances[sender].sub(amount, \"ERC20: transfer amount exceeds balance\");\n        _balances[recipient] = _balances[recipient].add(amount);\n        emit Transfer(sender, recipient, amount);\n    }\n    function _mint(address account, uint256 amount) internal {\n        require(account != address(0), \"ERC20: mint to the zero address\");\n\n        _totalSupply = _totalSupply.add(amount);\n        _balances[account] = _balances[account].add(amount);\n        emit Transfer(address(0), account, amount);\n    }\n    function _burn(address account, uint256 amount) internal {\n        require(account != address(0), \"ERC20: burn from the zero address\");\n\n        _balances[account] = _balances[account].sub(amount, \"ERC20: burn amount exceeds balance\");\n        _totalSupply = _totalSupply.sub(amount);\n        emit Transfer(account, address(0), amount);\n    }\n    function _approve(address owner, address spender, uint256 amount) internal {\n        require(owner != address(0), \"ERC20: approve from the zero address\");\n        require(spender != address(0), \"ERC20: approve to the zero address\");\n\n        _allowances[owner][spender] = amount;\n        emit Approval(owner, spender, amount);\n    }\n    function _burnFrom(address account, uint256 amount) internal {\n        _burn(account, amount);\n        _approve(account, _msgSender(), _allowances[account][_msgSender()].sub(amount, \"ERC20: burn amount exceeds allowance\"));\n    }\n}\n\ncontract ERC20Detailed is IERC20 {\n    string private _name;\n    string private _symbol;\n    uint8 private _decimals;\n\n    constructor (string memory name, string memory symbol, uint8 decimals) public {\n        _name = name;\n        _symbol = symbol;\n        _decimals = decimals;\n    }\n    function name() public view returns (string memory) {\n        return _name;\n    }\n    function symbol() public view returns (string memory) {\n        return _symbol;\n    }\n    function decimals() public view returns (uint8) {\n        return _decimals;\n    }\n}\n\ncontract ReentrancyGuard {\n    uint256 private _guardCounter;\n\n    constructor () internal {\n        _guardCounter = 1;\n    }\n\n    modifier nonReentrant() {\n        _guardCounter += 1;\n        uint256 localCounter = _guardCounter;\n        _;\n        require(localCounter == _guardCounter, \"ReentrancyGuard: reentrant call\");\n    }\n}\n\nlibrary SafeMath {\n    function add(uint256 a, uint256 b) internal pure returns (uint256) {\n        uint256 c = a + b;\n        require(c >= a, \"SafeMath: addition overflow\");\n\n        return c;\n    }\n    function sub(uint256 a, uint256 b) internal pure returns (uint256) {\n        return sub(a, b, \"SafeMath: subtraction overflow\");\n    }\n    function sub(uint256 a, uint256 b, string memory errorMessage) internal pure returns (uint256) {\n        require(b <= a, errorMessage);\n        uint256 c = a - b;\n\n        return c;\n    }\n    function mul(uint256 a, uint256 b) internal pure returns (uint256) {\n        if (a == 0) {\n            return 0;\n        }\n\n        uint256 c = a * b;\n        require(c / a == b, \"SafeMath: multiplication overflow\");\n\n        return c;\n    }\n    function div(uint256 a, uint256 b) internal pure returns (uint256) {\n        return div(a, b, \"SafeMath: division by zero\");\n    }\n    function div(uint256 a, uint256 b, string memory errorMessage) internal pure returns (uint256) {\n        // Solidity only automatically asserts when dividing by 0\n        require(b > 0, errorMessage);\n        uint256 c = a / b;\n\n        return c;\n    }\n    function mod(uint256 a, uint256 b) internal pure returns (uint256) {\n        return mod(a, b, \"SafeMath: modulo by zero\");\n    }\n    function mod(uint256 a, uint256 b, string memory errorMessage) internal pure returns (uint256) {\n        require(b != 0, errorMessage);\n        return a % b;\n    }\n}\n\nlibrary Address {\n    function isContract(address account) internal view returns (bool) {\n        bytes32 codehash;\n        bytes32 accountHash = 0xc5d2460186f7233c927e7db2dcc703c0e500b653ca82273b7bfad8045d85a470;\n        // solhint-disable-next-line no-inline-assembly\n        assembly { codehash := extcodehash(account) }\n        return (codehash != 0x0 && codehash != accountHash);\n    }\n    function toPayable(address account) internal pure returns (address payable) {\n        return address(uint160(account));\n    }\n    function sendValue(address payable recipient, uint256 amount) internal {\n        require(address(this).balance >= amount, \"Address: insufficient balance\");\n\n        // solhint-disable-next-line avoid-call-value\n        (bool success, ) = recipient.call.value(amount)(\"\");\n        require(success, \"Address: unable to send value, recipient may have reverted\");\n    }\n}\n\nlibrary SafeERC20 {\n    using SafeMath for uint256;\n    using Address for address;\n\n    function safeTransfer(IERC20 token, address to, uint256 value) internal {\n        callOptionalReturn(token, abi.encodeWithSelector(token.transfer.selector, to, value));\n    }\n\n    function safeTransferFrom(IERC20 token, address from, address to, uint256 value) internal {\n        callOptionalReturn(token, abi.encodeWithSelector(token.transferFrom.selector, from, to, value));\n    }\n\n    function safeApprove(IERC20 token, address spender, uint256 value) internal {\n        require((value == 0) || (token.allowance(address(this), spender) == 0),\n            \"SafeERC20: approve from non-zero to non-zero allowance\"\n        );\n        callOptionalReturn(token, abi.encodeWithSelector(token.approve.selector, spender, value));\n    }\n\n    function safeIncreaseAllowance(IERC20 token, address spender, uint256 value) internal {\n        uint256 newAllowance = token.allowance(address(this), spender).add(value);\n        callOptionalReturn(token, abi.encodeWithSelector(token.approve.selector, spender, newAllowance));\n    }\n\n    function safeDecreaseAllowance(IERC20 token, address spender, uint256 value) internal {\n        uint256 newAllowance = token.allowance(address(this), spender).sub(value, \"SafeERC20: decreased allowance below zero\");\n        callOptionalReturn(token, abi.encodeWithSelector(token.approve.selector, spender, newAllowance));\n    }\n    function callOptionalReturn(IERC20 token, bytes memory data) private {\n        require(address(token).isContract(), \"SafeERC20: call to non-contract\");\n\n        // solhint-disable-next-line avoid-low-level-calls\n        (bool success, bytes memory returndata) = address(token).call(data);\n        require(success, \"SafeERC20: low-level call failed\");\n\n        if (returndata.length > 0) { // Return data is optional\n            // solhint-disable-next-line max-line-length\n            require(abi.decode(returndata, (bool)), \"SafeERC20: ERC20 operation did not succeed\");\n        }\n    }\n}\n\ninterface Compound {\n    function mint ( uint256 mintAmount ) external returns ( uint256 );\n    function redeem(uint256 redeemTokens) external returns (uint256);\n    function exchangeRateStored() external view returns (uint);\n}\n\ninterface Fulcrum {\n    function mint(address receiver, uint256 amount) external payable returns (uint256 mintAmount);\n    function burn(address receiver, uint256 burnAmount) external returns (uint256 loanAmountPaid);\n    function assetBalanceOf(address _owner) external view returns (uint256 balance);\n}\n\ninterface ILendingPoolAddressesProvider {\n    function getLendingPool() external view returns (address);\n}\n\ninterface Aave {\n    function deposit(address _reserve, uint256 _amount, uint16 _referralCode) external;\n}\n\ninterface AToken {\n    function redeem(uint256 amount) external;\n}\n\ninterface IIEarnManager {\n    function recommend(address _token) external view returns (\n      string memory choice,\n      uint256 capr,\n      uint256 iapr,\n      uint256 aapr,\n      uint256 dapr\n    );\n}\n\ncontract Structs {\n    struct Val {\n        uint256 value;\n    }\n\n    enum ActionType {\n        Deposit,   // supply tokens\n        Withdraw  // borrow tokens\n    }\n\n    enum AssetDenomination {\n        Wei // the amount is denominated in wei\n    }\n\n    enum AssetReference {\n        Delta // the amount is given as a delta from the current value\n    }\n\n    struct AssetAmount {\n        bool sign; // true if positive\n        AssetDenomination denomination;\n        AssetReference ref;\n        uint256 value;\n    }\n\n    struct ActionArgs {\n        ActionType actionType;\n        uint256 accountId;\n        AssetAmount amount;\n        uint256 primaryMarketId;\n        uint256 secondaryMarketId;\n        address otherAddress;\n        uint256 otherAccountId;\n        bytes data;\n    }\n\n    struct Info {\n        address owner;  // The address that owns the account\n        uint256 number; // A nonce that allows a single address to control many accounts\n    }\n\n    struct Wei {\n        bool sign; // true if positive\n        uint256 value;\n    }\n}\n\ncontract DyDx is Structs {\n    function getAccountWei(Info memory account, uint256 marketId) public view returns (Wei memory);\n    function operate(Info[] memory, ActionArgs[] memory) public;\n}\n\ninterface LendingPoolAddressesProvider {\n    function getLendingPool() external view returns (address);\n    function getLendingPoolCore() external view returns (address);\n}\n\ncontract yUSDT is ERC20, ERC20Detailed, ReentrancyGuard, Structs, Ownable {\n  using SafeERC20 for IERC20;\n  using Address for address;\n  using SafeMath for uint256;\n\n  uint256 public pool;\n  address public token;\n  address public compound;\n  address public fulcrum;\n  address public aave;\n  address public aavePool;\n  address public aaveToken;\n  address public dydx;\n  uint256 public dToken;\n  address public apr;\n\n  enum Lender {\n      NONE,\n      DYDX,\n      COMPOUND,\n      AAVE,\n      FULCRUM\n  }\n\n  Lender public provider = Lender.NONE;\n\n  constructor () public ERC20Detailed(\"iearn USDT\", \"yUSDT\", 6) {\n    token = address(0xdAC17F958D2ee523a2206206994597C13D831ec7);\n    apr = address(0xdD6d648C991f7d47454354f4Ef326b04025a48A8);\n    dydx = address(0x1E0447b19BB6EcFdAe1e4AE1694b0C3659614e4e);\n    aave = address(0x24a42fD28C976A61Df5D00D0599C34c4f90748c8);\n    aavePool = address(0x3dfd23A6c5E8BbcFc9581d2E864a68feb6a076d3);\n    fulcrum = address(0xF013406A0B1d544238083DF0B93ad0d2cBE0f65f);\n    aaveToken = address(0x71fc860F7D3A592A4a98740e39dB31d25db65ae8);\n    compound = address(0x39AA39c021dfbaE8faC545936693aC917d5E7563);\n    dToken = 3;\n    approveToken();\n  }\n\n  function set_new_APR(address _new_APR) public onlyOwner {\n      apr = _new_APR;\n  }\n  function set_new_FULCRUM(address _new_FULCRUM) public onlyOwner {\n      fulcrum = _new_FULCRUM;\n  }\n  function set_new_COMPOUND(address _new_COMPOUND) public onlyOwner {\n      compound = _new_COMPOUND;\n  }\n  function set_new_DTOKEN(uint256 _new_DTOKEN) public onlyOwner {\n      dToken = _new_DTOKEN;\n  }\n  function set_new_AAVE(address _new_AAVE) public onlyOwner {\n      aave = _new_AAVE;\n  }\n  function set_new_APOOL(address _new_APOOL) public onlyOwner {\n      aavePool = _new_APOOL;\n  }\n  function set_new_ATOKEN(address _new_ATOKEN) public onlyOwner {\n      aaveToken = _new_ATOKEN;\n  }\n\n  // Quick swap low gas method for pool swaps\n  function deposit(uint256 _amount)\n      external\n      nonReentrant\n  {\n      require(_amount > 0, \"deposit must be greater than 0\");\n      pool = calcPoolValueInToken();\n\n      IERC20(token).safeTransferFrom(msg.sender, address(this), _amount);\n\n      // Calculate pool shares\n      uint256 shares = 0;\n      if (pool == 0) {\n        shares = _amount;\n        pool = _amount;\n      } else {\n        shares = (_amount.mul(_totalSupply)).div(pool);\n      }\n      pool = calcPoolValueInToken();\n      _mint(msg.sender, shares);\n  }\n\n  // No rebalance implementation for lower fees and faster swaps\n  function withdraw(uint256 _shares)\n      external\n      nonReentrant\n  {\n      require(_shares > 0, \"withdraw must be greater than 0\");\n\n      uint256 ibalance = balanceOf(msg.sender);\n      require(_shares <= ibalance, \"insufficient balance\");\n\n      // Could have over value from cTokens\n      pool = calcPoolValueInToken();\n      // Calc to redeem before updating balances\n      uint256 r = (pool.mul(_shares)).div(_totalSupply);\n\n\n      _balances[msg.sender] = _balances[msg.sender].sub(_shares, \"redeem amount exceeds balance\");\n      _totalSupply = _totalSupply.sub(_shares);\n\n      emit Transfer(msg.sender, address(0), _shares);\n\n      // Check balance\n      uint256 b = IERC20(token).balanceOf(address(this));\n      if (b < r) {\n        _withdrawSome(r.sub(b));\n      }\n\n      IERC20(token).safeTransfer(msg.sender, r);\n      pool = calcPoolValueInToken();\n  }\n\n  function recommend() public view returns (Lender) {\n    (,uint256 capr,uint256 iapr,uint256 aapr,uint256 dapr) = IIEarnManager(apr).recommend(token);\n    uint256 max = 0;\n    if (capr > max) {\n      max = capr;\n    }\n    if (iapr > max) {\n      max = iapr;\n    }\n    if (aapr > max) {\n      max = aapr;\n    }\n    if (dapr > max) {\n      max = dapr;\n    }\n\n    Lender newProvider = Lender.NONE;\n    if (max == capr) {\n      newProvider = Lender.COMPOUND;\n    } else if (max == iapr) {\n      newProvider = Lender.FULCRUM;\n    } else if (max == aapr) {\n      newProvider = Lender.AAVE;\n    } else if (max == dapr) {\n      newProvider = Lender.DYDX;\n    }\n    return newProvider;\n  }\n\n  function getAave() public view returns (address) {\n    return LendingPoolAddressesProvider(aave).getLendingPool();\n  }\n  function getAaveCore() public view returns (address) {\n    return LendingPoolAddressesProvider(aave).getLendingPoolCore();\n  }\n\n  function approveToken() public {\n      IERC20(token).safeApprove(compound, uint(0));\n      IERC20(token).safeApprove(compound, uint(-1));\n      IERC20(token).safeApprove(dydx, uint(0));\n      IERC20(token).safeApprove(dydx, uint(-1));\n      IERC20(token).safeApprove(getAaveCore(), uint(0));\n      IERC20(token).safeApprove(getAaveCore(), uint(-1));\n      IERC20(token).safeApprove(fulcrum, uint(0));\n      IERC20(token).safeApprove(fulcrum, uint(-1));\n  }\n\n  function balance() public view returns (uint256) {\n    return IERC20(token).balanceOf(address(this));\n  }\n  function balanceDydxAvailable() public view returns (uint256) {\n      return IERC20(token).balanceOf(dydx);\n  }\n  function balanceDydx() public view returns (uint256) {\n      Wei memory bal = DyDx(dydx).getAccountWei(Info(address(this), 0), dToken);\n      return bal.value;\n  }\n  function balanceCompound() public view returns (uint256) {\n      return IERC20(compound).balanceOf(address(this));\n  }\n  function balanceCompoundInToken() public view returns (uint256) {\n    // Mantisa 1e18 to decimals\n    uint256 b = balanceCompound();\n    if (b > 0) {\n      b = b.mul(Compound(compound).exchangeRateStored()).div(1e18);\n    }\n    return b;\n  }\n  function balanceFulcrumAvailable() public view returns (uint256) {\n      return IERC20(token).balanceOf(fulcrum);\n  }\n  function balanceFulcrumInToken() public view returns (uint256) {\n    uint256 b = balanceFulcrum();\n    if (b > 0) {\n      b = Fulcrum(fulcrum).assetBalanceOf(address(this));\n    }\n    return b;\n  }\n  function balanceFulcrum() public view returns (uint256) {\n    return IERC20(fulcrum).balanceOf(address(this));\n  }\n  function balanceAaveAvailable() public view returns (uint256) {\n      return IERC20(token).balanceOf(aavePool);\n  }\n  function balanceAave() public view returns (uint256) {\n    return IERC20(aaveToken).balanceOf(address(this));\n  }\n\n  function rebalance() public {\n    Lender newProvider = recommend();\n\n    if (newProvider != provider) {\n      _withdrawAll();\n    }\n\n    if (balance() > 0) {\n      if (newProvider == Lender.DYDX) {\n        _supplyDydx(balance());\n      } else if (newProvider == Lender.FULCRUM) {\n        _supplyFulcrum(balance());\n      } else if (newProvider == Lender.COMPOUND) {\n        _supplyCompound(balance());\n      } else if (newProvider == Lender.AAVE) {\n        _supplyAave(balance());\n      }\n    }\n\n    provider = newProvider;\n  }\n\n  function _withdrawAll() internal {\n    uint256 amount = balanceCompound();\n    if (amount > 0) {\n      _withdrawSomeCompound(balanceCompoundInToken().sub(1));\n    }\n    amount = balanceDydx();\n    if (amount > 0) {\n      _withdrawDydx(balanceDydxAvailable());\n    }\n    amount = balanceFulcrum();\n    if (amount > 0) {\n      _withdrawSomeFulcrum(balanceFulcrumAvailable().sub(1));\n    }\n    amount = balanceAave();\n    if (amount > 0) {\n      _withdrawAave(balanceAaveAvailable());\n    }\n  }\n\n  function _withdrawSomeCompound(uint256 _amount) internal {\n    uint256 b = balanceCompound();\n    uint256 bT = balanceCompoundInToken();\n    require(bT >= _amount, \"insufficient funds\");\n    // can have unintentional rounding errors\n    uint256 amount = (b.mul(_amount)).div(bT).add(1);\n    _withdrawCompound(amount);\n  }\n\n  function _withdrawSomeFulcrum(uint256 _amount) internal {\n    uint256 b = balanceFulcrum();\n    uint256 bT = balanceFulcrumInToken();\n    require(bT >= _amount, \"insufficient funds\");\n    // can have unintentional rounding errors\n    uint256 amount = (b.mul(_amount)).div(bT).add(1);\n    _withdrawFulcrum(amount);\n  }\n\n  function _withdrawSome(uint256 _amount) internal {\n    if (provider == Lender.COMPOUND) {\n      _withdrawSomeCompound(_amount);\n    }\n    if (provider == Lender.AAVE) {\n      require(balanceAave() >= _amount, \"insufficient funds\");\n      _withdrawAave(_amount);\n    }\n    if (provider == Lender.DYDX) {\n      require(balanceDydx() >= _amount, \"insufficient funds\");\n      _withdrawDydx(_amount);\n    }\n    if (provider == Lender.FULCRUM) {\n      _withdrawSomeFulcrum(_amount);\n    }\n  }\n\n  function _supplyDydx(uint256 amount) internal {\n      Info[] memory infos = new Info[](1);\n      infos[0] = Info(address(this), 0);\n\n      AssetAmount memory amt = AssetAmount(true, AssetDenomination.Wei, AssetReference.Delta, amount);\n      ActionArgs memory act;\n      act.actionType = ActionType.Deposit;\n      act.accountId = 0;\n      act.amount = amt;\n      act.primaryMarketId = dToken;\n      act.otherAddress = address(this);\n\n      ActionArgs[] memory args = new ActionArgs[](1);\n      args[0] = act;\n\n      DyDx(dydx).operate(infos, args);\n  }\n\n  function _supplyAave(uint amount) internal {\n      Aave(getAave()).deposit(token, amount, 0);\n  }\n  function _supplyFulcrum(uint amount) internal {\n      require(Fulcrum(fulcrum).mint(address(this), amount) > 0, \"FULCRUM: supply failed\");\n  }\n  function _supplyCompound(uint amount) internal {\n      require(Compound(compound).mint(amount) == 0, \"COMPOUND: supply failed\");\n  }\n  function _withdrawAave(uint amount) internal {\n      AToken(aaveToken).redeem(amount);\n  }\n  function _withdrawFulcrum(uint amount) internal {\n      require(Fulcrum(fulcrum).burn(address(this), amount) > 0, \"FULCRUM: withdraw failed\");\n  }\n  function _withdrawCompound(uint amount) internal {\n      require(Compound(compound).redeem(amount) == 0, \"COMPOUND: withdraw failed\");\n  }\n\n  function _withdrawDydx(uint256 amount) internal {\n      Info[] memory infos = new Info[](1);\n      infos[0] = Info(address(this), 0);\n\n      AssetAmount memory amt = AssetAmount(false, AssetDenomination.Wei, AssetReference.Delta, amount);\n      ActionArgs memory act;\n      act.actionType = ActionType.Withdraw;\n      act.accountId = 0;\n      act.amount = amt;\n      act.primaryMarketId = dToken;\n      act.otherAddress = address(this);\n\n      ActionArgs[] memory args = new ActionArgs[](1);\n      args[0] = act;\n\n      DyDx(dydx).operate(infos, args);\n  }\n\n  function calcPoolValueInToken() public view returns (uint) {\n    return balanceCompoundInToken()\n      .add(balanceFulcrumInToken())\n      .add(balanceDydx())\n      .add(balanceAave())\n      .add(balance());\n  }\n\n  function getPricePerFullShare() public view returns (uint) {\n    uint _pool = calcPoolValueInToken();\n    return _pool.mul(1e18).div(_totalSupply);\n  }\n\n  function withdrawSomeCompound(uint256 _amount) public onlyOwner {\n    _withdrawSomeCompound(_amount);\n  }\n  function withdrawSomeFulcrum(uint256 _amount) public onlyOwner {\n    _withdrawSomeFulcrum(_amount);\n  }\n  function withdrawAave(uint amount) public onlyOwner {\n      _withdrawAave(amount);\n  }\n  function withdrawDydx(uint256 amount) public onlyOwner {\n      _withdrawDydx(amount);\n  }\n\n  function supplyDydx(uint256 amount) public onlyOwner {\n      _supplyDydx(amount);\n  }\n  function supplyAave(uint amount) public onlyOwner {\n    _supplyAave(amount);\n  }\n  function supplyFulcrum(uint amount) public onlyOwner {\n      _supplyFulcrum(amount);\n  }\n  function supplyCompound(uint amount) public onlyOwner {\n      _supplyCompound(amount);\n  }\n}\n",
  "sourcePath": "D:/ftm/itoken/contracts/YUSDTv3.sol",
  "compiler": {
    "name": "solc",
    "version": "0.5.12+commit.7709ece9.Emscripten.clang"
  },
  "schemaVersion": "3.0.19",
  "updatedAt": "2020-02-25T07:35:35.490Z",
  "devdoc": {
    "methods": {}
  },
  "userdoc": {
    "methods": {}
  }
}