{
  "contractName": "yUSDT",
  "abi": [
    {
      "inputs": [],
      "payable": false,
      "stateMutability": "nonpayable",
      "type": "constructor"
    },
    {
      "anonymous": false,
      "inputs": [
        {
          "indexed": true,
          "internalType": "address",
          "name": "owner",
          "type": "address"
        },
        {
          "indexed": true,
          "internalType": "address",
          "name": "spender",
          "type": "address"
        },
        {
          "indexed": false,
          "internalType": "uint256",
          "name": "value",
          "type": "uint256"
        }
      ],
      "name": "Approval",
      "type": "event"
    },
    {
      "anonymous": false,
      "inputs": [
        {
          "indexed": true,
          "internalType": "address",
          "name": "previousOwner",
          "type": "address"
        },
        {
          "indexed": true,
          "internalType": "address",
          "name": "newOwner",
          "type": "address"
        }
      ],
      "name": "OwnershipTransferred",
      "type": "event"
    },
    {
      "anonymous": false,
      "inputs": [
        {
          "indexed": true,
          "internalType": "address",
          "name": "from",
          "type": "address"
        },
        {
          "indexed": true,
          "internalType": "address",
          "name": "to",
          "type": "address"
        },
        {
          "indexed": false,
          "internalType": "uint256",
          "name": "value",
          "type": "uint256"
        }
      ],
      "name": "Transfer",
      "type": "event"
    },
    {
      "payable": true,
      "stateMutability": "payable",
      "type": "fallback"
    },
    {
      "constant": true,
      "inputs": [],
      "name": "aave",
      "outputs": [
        {
          "internalType": "address",
          "name": "",
          "type": "address"
        }
      ],
      "payable": false,
      "stateMutability": "view",
      "type": "function"
    },
    {
      "constant": true,
      "inputs": [],
      "name": "aaveToken",
      "outputs": [
        {
          "internalType": "address",
          "name": "",
          "type": "address"
        }
      ],
      "payable": false,
      "stateMutability": "view",
      "type": "function"
    },
    {
      "constant": true,
      "inputs": [
        {
          "internalType": "address",
          "name": "owner",
          "type": "address"
        },
        {
          "internalType": "address",
          "name": "spender",
          "type": "address"
        }
      ],
      "name": "allowance",
      "outputs": [
        {
          "internalType": "uint256",
          "name": "",
          "type": "uint256"
        }
      ],
      "payable": false,
      "stateMutability": "view",
      "type": "function"
    },
    {
      "constant": false,
      "inputs": [
        {
          "internalType": "address",
          "name": "spender",
          "type": "address"
        },
        {
          "internalType": "uint256",
          "name": "amount",
          "type": "uint256"
        }
      ],
      "name": "approve",
      "outputs": [
        {
          "internalType": "bool",
          "name": "",
          "type": "bool"
        }
      ],
      "payable": false,
      "stateMutability": "nonpayable",
      "type": "function"
    },
    {
      "constant": true,
      "inputs": [],
      "name": "apr",
      "outputs": [
        {
          "internalType": "address",
          "name": "",
          "type": "address"
        }
      ],
      "payable": false,
      "stateMutability": "view",
      "type": "function"
    },
    {
      "constant": true,
      "inputs": [
        {
          "internalType": "address",
          "name": "account",
          "type": "address"
        }
      ],
      "name": "balanceOf",
      "outputs": [
        {
          "internalType": "uint256",
          "name": "",
          "type": "uint256"
        }
      ],
      "payable": false,
      "stateMutability": "view",
      "type": "function"
    },
    {
      "constant": true,
      "inputs": [],
      "name": "compound",
      "outputs": [
        {
          "internalType": "address",
          "name": "",
          "type": "address"
        }
      ],
      "payable": false,
      "stateMutability": "view",
      "type": "function"
    },
    {
      "constant": true,
      "inputs": [],
      "name": "dToken",
      "outputs": [
        {
          "internalType": "uint256",
          "name": "",
          "type": "uint256"
        }
      ],
      "payable": false,
      "stateMutability": "view",
      "type": "function"
    },
    {
      "constant": true,
      "inputs": [],
      "name": "decimals",
      "outputs": [
        {
          "internalType": "uint8",
          "name": "",
          "type": "uint8"
        }
      ],
      "payable": false,
      "stateMutability": "view",
      "type": "function"
    },
    {
      "constant": false,
      "inputs": [
        {
          "internalType": "address",
          "name": "spender",
          "type": "address"
        },
        {
          "internalType": "uint256",
          "name": "subtractedValue",
          "type": "uint256"
        }
      ],
      "name": "decreaseAllowance",
      "outputs": [
        {
          "internalType": "bool",
          "name": "",
          "type": "bool"
        }
      ],
      "payable": false,
      "stateMutability": "nonpayable",
      "type": "function"
    },
    {
      "constant": true,
      "inputs": [],
      "name": "dydx",
      "outputs": [
        {
          "internalType": "address",
          "name": "",
          "type": "address"
        }
      ],
      "payable": false,
      "stateMutability": "view",
      "type": "function"
    },
    {
      "constant": true,
      "inputs": [],
      "name": "fulcrum",
      "outputs": [
        {
          "internalType": "address",
          "name": "",
          "type": "address"
        }
      ],
      "payable": false,
      "stateMutability": "view",
      "type": "function"
    },
    {
      "constant": false,
      "inputs": [
        {
          "internalType": "address",
          "name": "spender",
          "type": "address"
        },
        {
          "internalType": "uint256",
          "name": "addedValue",
          "type": "uint256"
        }
      ],
      "name": "increaseAllowance",
      "outputs": [
        {
          "internalType": "bool",
          "name": "",
          "type": "bool"
        }
      ],
      "payable": false,
      "stateMutability": "nonpayable",
      "type": "function"
    },
    {
      "constant": true,
      "inputs": [],
      "name": "isOwner",
      "outputs": [
        {
          "internalType": "bool",
          "name": "",
          "type": "bool"
        }
      ],
      "payable": false,
      "stateMutability": "view",
      "type": "function"
    },
    {
      "constant": true,
      "inputs": [],
      "name": "name",
      "outputs": [
        {
          "internalType": "string",
          "name": "",
          "type": "string"
        }
      ],
      "payable": false,
      "stateMutability": "view",
      "type": "function"
    },
    {
      "constant": true,
      "inputs": [],
      "name": "owner",
      "outputs": [
        {
          "internalType": "address",
          "name": "",
          "type": "address"
        }
      ],
      "payable": false,
      "stateMutability": "view",
      "type": "function"
    },
    {
      "constant": true,
      "inputs": [],
      "name": "pool",
      "outputs": [
        {
          "internalType": "uint256",
          "name": "",
          "type": "uint256"
        }
      ],
      "payable": false,
      "stateMutability": "view",
      "type": "function"
    },
    {
      "constant": true,
      "inputs": [],
      "name": "provider",
      "outputs": [
        {
          "internalType": "enum yUSDT.Lender",
          "name": "",
          "type": "uint8"
        }
      ],
      "payable": false,
      "stateMutability": "view",
      "type": "function"
    },
    {
      "constant": false,
      "inputs": [],
      "name": "renounceOwnership",
      "outputs": [],
      "payable": false,
      "stateMutability": "nonpayable",
      "type": "function"
    },
    {
      "constant": true,
      "inputs": [],
      "name": "symbol",
      "outputs": [
        {
          "internalType": "string",
          "name": "",
          "type": "string"
        }
      ],
      "payable": false,
      "stateMutability": "view",
      "type": "function"
    },
    {
      "constant": true,
      "inputs": [],
      "name": "token",
      "outputs": [
        {
          "internalType": "address",
          "name": "",
          "type": "address"
        }
      ],
      "payable": false,
      "stateMutability": "view",
      "type": "function"
    },
    {
      "constant": true,
      "inputs": [],
      "name": "totalSupply",
      "outputs": [
        {
          "internalType": "uint256",
          "name": "",
          "type": "uint256"
        }
      ],
      "payable": false,
      "stateMutability": "view",
      "type": "function"
    },
    {
      "constant": false,
      "inputs": [
        {
          "internalType": "address",
          "name": "recipient",
          "type": "address"
        },
        {
          "internalType": "uint256",
          "name": "amount",
          "type": "uint256"
        }
      ],
      "name": "transfer",
      "outputs": [
        {
          "internalType": "bool",
          "name": "",
          "type": "bool"
        }
      ],
      "payable": false,
      "stateMutability": "nonpayable",
      "type": "function"
    },
    {
      "constant": false,
      "inputs": [
        {
          "internalType": "address",
          "name": "sender",
          "type": "address"
        },
        {
          "internalType": "address",
          "name": "recipient",
          "type": "address"
        },
        {
          "internalType": "uint256",
          "name": "amount",
          "type": "uint256"
        }
      ],
      "name": "transferFrom",
      "outputs": [
        {
          "internalType": "bool",
          "name": "",
          "type": "bool"
        }
      ],
      "payable": false,
      "stateMutability": "nonpayable",
      "type": "function"
    },
    {
      "constant": false,
      "inputs": [
        {
          "internalType": "address",
          "name": "newOwner",
          "type": "address"
        }
      ],
      "name": "transferOwnership",
      "outputs": [],
      "payable": false,
      "stateMutability": "nonpayable",
      "type": "function"
    },
    {
      "constant": true,
      "inputs": [],
      "name": "yUSDTv1",
      "outputs": [
        {
          "internalType": "address",
          "name": "",
          "type": "address"
        }
      ],
      "payable": false,
      "stateMutability": "view",
      "type": "function"
    },
    {
      "constant": false,
      "inputs": [
        {
          "internalType": "address",
          "name": "_new_AAVE",
          "type": "address"
        }
      ],
      "name": "set_new_AAVE",
      "outputs": [],
      "payable": false,
      "stateMutability": "nonpayable",
      "type": "function"
    },
    {
      "constant": false,
      "inputs": [
        {
          "internalType": "address",
          "name": "_new_DYDX",
          "type": "address"
        }
      ],
      "name": "set_new_DYDX",
      "outputs": [],
      "payable": false,
      "stateMutability": "nonpayable",
      "type": "function"
    },
    {
      "constant": false,
      "inputs": [
        {
          "internalType": "address",
          "name": "_new_APR",
          "type": "address"
        }
      ],
      "name": "set_new_APR",
      "outputs": [],
      "payable": false,
      "stateMutability": "nonpayable",
      "type": "function"
    },
    {
      "constant": false,
      "inputs": [
        {
          "internalType": "address",
          "name": "_new_FULCRUM",
          "type": "address"
        }
      ],
      "name": "set_new_FULCRUM",
      "outputs": [],
      "payable": false,
      "stateMutability": "nonpayable",
      "type": "function"
    },
    {
      "constant": false,
      "inputs": [
        {
          "internalType": "address",
          "name": "_new_ATOKEN",
          "type": "address"
        }
      ],
      "name": "set_new_ATOKEN",
      "outputs": [],
      "payable": false,
      "stateMutability": "nonpayable",
      "type": "function"
    },
    {
      "constant": false,
      "inputs": [
        {
          "internalType": "address",
          "name": "_new_COMPOUND",
          "type": "address"
        }
      ],
      "name": "set_new_COMPOUND",
      "outputs": [],
      "payable": false,
      "stateMutability": "nonpayable",
      "type": "function"
    },
    {
      "constant": false,
      "inputs": [
        {
          "internalType": "uint256",
          "name": "_new_DTOKEN",
          "type": "uint256"
        }
      ],
      "name": "set_new_DTOKEN",
      "outputs": [],
      "payable": false,
      "stateMutability": "nonpayable",
      "type": "function"
    },
    {
      "constant": true,
      "inputs": [],
      "name": "recommend",
      "outputs": [
        {
          "internalType": "enum yUSDT.Lender",
          "name": "",
          "type": "uint8"
        }
      ],
      "payable": false,
      "stateMutability": "view",
      "type": "function"
    },
    {
      "constant": false,
      "inputs": [
        {
          "internalType": "uint256",
          "name": "amount",
          "type": "uint256"
        }
      ],
      "name": "supplyDydx",
      "outputs": [
        {
          "internalType": "uint256",
          "name": "",
          "type": "uint256"
        }
      ],
      "payable": false,
      "stateMutability": "nonpayable",
      "type": "function"
    },
    {
      "constant": true,
      "inputs": [],
      "name": "balance",
      "outputs": [
        {
          "internalType": "uint256",
          "name": "",
          "type": "uint256"
        }
      ],
      "payable": false,
      "stateMutability": "view",
      "type": "function"
    },
    {
      "constant": true,
      "inputs": [],
      "name": "getAave",
      "outputs": [
        {
          "internalType": "address",
          "name": "",
          "type": "address"
        }
      ],
      "payable": false,
      "stateMutability": "view",
      "type": "function"
    },
    {
      "constant": true,
      "inputs": [],
      "name": "getAaveCore",
      "outputs": [
        {
          "internalType": "address",
          "name": "",
          "type": "address"
        }
      ],
      "payable": false,
      "stateMutability": "view",
      "type": "function"
    },
    {
      "constant": false,
      "inputs": [],
      "name": "approveToken",
      "outputs": [],
      "payable": false,
      "stateMutability": "nonpayable",
      "type": "function"
    },
    {
      "constant": true,
      "inputs": [],
      "name": "balanceDydx",
      "outputs": [
        {
          "internalType": "uint256",
          "name": "",
          "type": "uint256"
        }
      ],
      "payable": false,
      "stateMutability": "view",
      "type": "function"
    },
    {
      "constant": true,
      "inputs": [],
      "name": "balanceCompound",
      "outputs": [
        {
          "internalType": "uint256",
          "name": "",
          "type": "uint256"
        }
      ],
      "payable": false,
      "stateMutability": "view",
      "type": "function"
    },
    {
      "constant": true,
      "inputs": [],
      "name": "balanceCompoundInToken",
      "outputs": [
        {
          "internalType": "uint256",
          "name": "",
          "type": "uint256"
        }
      ],
      "payable": false,
      "stateMutability": "view",
      "type": "function"
    },
    {
      "constant": true,
      "inputs": [],
      "name": "balanceFulcrumInToken",
      "outputs": [
        {
          "internalType": "uint256",
          "name": "",
          "type": "uint256"
        }
      ],
      "payable": false,
      "stateMutability": "view",
      "type": "function"
    },
    {
      "constant": true,
      "inputs": [],
      "name": "balanceFulcrum",
      "outputs": [
        {
          "internalType": "uint256",
          "name": "",
          "type": "uint256"
        }
      ],
      "payable": false,
      "stateMutability": "view",
      "type": "function"
    },
    {
      "constant": true,
      "inputs": [],
      "name": "balanceAave",
      "outputs": [
        {
          "internalType": "uint256",
          "name": "",
          "type": "uint256"
        }
      ],
      "payable": false,
      "stateMutability": "view",
      "type": "function"
    },
    {
      "constant": false,
      "inputs": [],
      "name": "rebalance",
      "outputs": [],
      "payable": false,
      "stateMutability": "nonpayable",
      "type": "function"
    },
    {
      "constant": false,
      "inputs": [
        {
          "internalType": "uint256",
          "name": "amount",
          "type": "uint256"
        }
      ],
      "name": "supplyAave",
      "outputs": [],
      "payable": false,
      "stateMutability": "nonpayable",
      "type": "function"
    },
    {
      "constant": false,
      "inputs": [
        {
          "internalType": "uint256",
          "name": "amount",
          "type": "uint256"
        }
      ],
      "name": "supplyFulcrum",
      "outputs": [],
      "payable": false,
      "stateMutability": "nonpayable",
      "type": "function"
    },
    {
      "constant": false,
      "inputs": [
        {
          "internalType": "uint256",
          "name": "amount",
          "type": "uint256"
        }
      ],
      "name": "supplyCompound",
      "outputs": [],
      "payable": false,
      "stateMutability": "nonpayable",
      "type": "function"
    },
    {
      "constant": false,
      "inputs": [
        {
          "internalType": "uint256",
          "name": "_amount",
          "type": "uint256"
        }
      ],
      "name": "invest",
      "outputs": [],
      "payable": false,
      "stateMutability": "nonpayable",
      "type": "function"
    },
    {
      "constant": false,
      "inputs": [],
      "name": "investSelf",
      "outputs": [],
      "payable": false,
      "stateMutability": "nonpayable",
      "type": "function"
    },
    {
      "constant": true,
      "inputs": [],
      "name": "calcPoolValueInToken",
      "outputs": [
        {
          "internalType": "uint256",
          "name": "",
          "type": "uint256"
        }
      ],
      "payable": false,
      "stateMutability": "view",
      "type": "function"
    },
    {
      "constant": true,
      "inputs": [],
      "name": "getPricePerFullShare",
      "outputs": [
        {
          "internalType": "uint256",
          "name": "",
          "type": "uint256"
        }
      ],
      "payable": false,
      "stateMutability": "view",
      "type": "function"
    },
    {
      "constant": true,
      "inputs": [
        {
          "internalType": "address",
          "name": "_owner",
          "type": "address"
        }
      ],
      "name": "balanceOfV1",
      "outputs": [
        {
          "internalType": "uint256",
          "name": "",
          "type": "uint256"
        }
      ],
      "payable": false,
      "stateMutability": "view",
      "type": "function"
    },
    {
      "constant": false,
      "inputs": [
        {
          "internalType": "uint256",
          "name": "_amount",
          "type": "uint256"
        }
      ],
      "name": "swap",
      "outputs": [],
      "payable": false,
      "stateMutability": "nonpayable",
      "type": "function"
    },
    {
      "constant": false,
      "inputs": [
        {
          "internalType": "uint256",
          "name": "_shares",
          "type": "uint256"
        }
      ],
      "name": "redeem",
      "outputs": [],
      "payable": false,
      "stateMutability": "nonpayable",
      "type": "function"
    },
    {
      "constant": false,
      "inputs": [
        {
          "internalType": "contract IERC20",
          "name": "_TokenAddress",
          "type": "address"
        }
      ],
      "name": "inCaseTokenGetsStuck",
      "outputs": [],
      "payable": false,
      "stateMutability": "nonpayable",
      "type": "function"
    },
    {
      "constant": false,
      "inputs": [],
      "name": "inCaseETHGetsStuck",
      "outputs": [],
      "payable": false,
      "stateMutability": "nonpayable",
      "type": "function"
    }
  ],
  "bytecode": "0x60806040526000601160146101000a81548160ff021916908360068111156200002457fe5b02179055503480156200003657600080fd5b506040518060400160405280600581526020017f79555344540000000000000000000000000000000000000000000000000000008152506040518060400160405280600581526020017f795553445400000000000000000000000000000000000000000000000000000081525060068260039080519060200190620000bd92919062000a9b565b508160049080519060200190620000d692919062000a9b565b5080600560006101000a81548160ff021916908360ff16021790555050505060016006819055506200010d6200043b60201b60201c565b600760006101000a81548173ffffffffffffffffffffffffffffffffffffffff021916908373ffffffffffffffffffffffffffffffffffffffff160217905550600760009054906101000a900473ffffffffffffffffffffffffffffffffffffffff1673ffffffffffffffffffffffffffffffffffffffff16600073ffffffffffffffffffffffffffffffffffffffff167f8be0079c531659141344cd1fd0a4f28419497f9722a3daafe3b4186f6b6457e060405160405180910390a373dac17f958d2ee523a2206206994597c13d831ec7600960006101000a81548173ffffffffffffffffffffffffffffffffffffffff021916908373ffffffffffffffffffffffffffffffffffffffff16021790555073318135fbd0b40d48fcef431ccdf6c7926450edfb601060006101000a81548173ffffffffffffffffffffffffffffffffffffffff021916908373ffffffffffffffffffffffffffffffffffffffff160217905550731e0447b19bb6ecfdae1e4ae1694b0c3659614e4e600e60006101000a81548173ffffffffffffffffffffffffffffffffffffffff021916908373ffffffffffffffffffffffffffffffffffffffff1602179055507324a42fd28c976a61df5d00d0599c34c4f90748c8600c60006101000a81548173ffffffffffffffffffffffffffffffffffffffff021916908373ffffffffffffffffffffffffffffffffffffffff16021790555073f013406a0b1d544238083df0b93ad0d2cbe0f65f600b60006101000a81548173ffffffffffffffffffffffffffffffffffffffff021916908373ffffffffffffffffffffffffffffffffffffffff1602179055507371fc860f7d3a592a4a98740e39db31d25db65ae8600d60006101000a81548173ffffffffffffffffffffffffffffffffffffffff021916908373ffffffffffffffffffffffffffffffffffffffff1602179055507339aa39c021dfbae8fac545936693ac917d5e7563600a60006101000a81548173ffffffffffffffffffffffffffffffffffffffff021916908373ffffffffffffffffffffffffffffffffffffffff1602179055506000600f81905550620004356200044360201b60201c565b62000fb0565b600033905090565b620004d9600a60009054906101000a900473ffffffffffffffffffffffffffffffffffffffff167fffffffffffffffffffffffffffffffffffffffffffffffffffffffffffffffff600960009054906101000a900473ffffffffffffffffffffffffffffffffffffffff1673ffffffffffffffffffffffffffffffffffffffff166200068a60201b62004037179092919060201c565b6200056f600e60009054906101000a900473ffffffffffffffffffffffffffffffffffffffff167fffffffffffffffffffffffffffffffffffffffffffffffffffffffffffffffff600960009054906101000a900473ffffffffffffffffffffffffffffffffffffffff1673ffffffffffffffffffffffffffffffffffffffff166200068a60201b62004037179092919060201c565b620005f2620005836200081560201b60201c565b7fffffffffffffffffffffffffffffffffffffffffffffffffffffffffffffffff600960009054906101000a900473ffffffffffffffffffffffffffffffffffffffff1673ffffffffffffffffffffffffffffffffffffffff166200068a60201b62004037179092919060201c565b62000688600b60009054906101000a900473ffffffffffffffffffffffffffffffffffffffff167fffffffffffffffffffffffffffffffffffffffffffffffffffffffffffffffff600960009054906101000a900473ffffffffffffffffffffffffffffffffffffffff1673ffffffffffffffffffffffffffffffffffffffff166200068a60201b62004037179092919060201c565b565b60008114806200072a575060008373ffffffffffffffffffffffffffffffffffffffff1663dd62ed3e30856040518363ffffffff1660e01b8152600401620006d492919062000dd9565b60206040518083038186803b158015620006ed57600080fd5b505afa15801562000702573d6000803e3d6000fd5b505050506040513d601f19601f8201168201806040525062000728919081019062000be7565b145b6200076c576040517f08c379a0000000000000000000000000000000000000000000000000000000008152600401620007639062000e77565b60405180910390fd5b62000810838473ffffffffffffffffffffffffffffffffffffffff1663095ea7b3905060e01b8484604051602401620007a792919062000e06565b604051602081830303815290604052907bffffffffffffffffffffffffffffffffffffffffffffffffffffffff19166020820180517bffffffffffffffffffffffffffffffffffffffffffffffffffffffff8381831617835250505050620008c060201b60201c565b505050565b6000600c60009054906101000a900473ffffffffffffffffffffffffffffffffffffffff1673ffffffffffffffffffffffffffffffffffffffff1663ed6ff7606040518163ffffffff1660e01b815260040160206040518083038186803b1580156200088057600080fd5b505afa15801562000895573d6000803e3d6000fd5b505050506040513d601f19601f82011682018060405250620008bb919081019062000b8f565b905090565b620008ec8273ffffffffffffffffffffffffffffffffffffffff1662000a4f60201b62004bfe1760201c565b6200092e576040517f08c379a0000000000000000000000000000000000000000000000000000000008152600401620009259062000e99565b60405180910390fd5b600060608373ffffffffffffffffffffffffffffffffffffffff168360405162000959919062000dc0565b6000604051808303816000865af19150503d806000811462000998576040519150601f19603f3d011682016040523d82523d6000602084013e6200099d565b606091505b509150915081620009e5576040517f08c379a0000000000000000000000000000000000000000000000000000000008152600401620009dc9062000e33565b60405180910390fd5b60008151111562000a49578080602001905162000a06919081019062000bbb565b62000a48576040517f08c379a000000000000000000000000000000000000000000000000000000000815260040162000a3f9062000e55565b60405180910390fd5b5b50505050565b60008060007fc5d2460186f7233c927e7db2dcc703c0e500b653ca82273b7bfad8045d85a47060001b9050833f91506000801b821415801562000a925750808214155b92505050919050565b828054600181600116156101000203166002900490600052602060002090601f016020900481019282601f1062000ade57805160ff191683800117855562000b0f565b8280016001018555821562000b0f579182015b8281111562000b0e57825182559160200191906001019062000af1565b5b50905062000b1e919062000b22565b5090565b62000b4791905b8082111562000b4357600081600090555060010162000b29565b5090565b90565b60008151905062000b5b8162000f62565b92915050565b60008151905062000b728162000f7c565b92915050565b60008151905062000b898162000f96565b92915050565b60006020828403121562000ba257600080fd5b600062000bb28482850162000b4a565b91505092915050565b60006020828403121562000bce57600080fd5b600062000bde8482850162000b61565b91505092915050565b60006020828403121562000bfa57600080fd5b600062000c0a8482850162000b78565b91505092915050565b62000c1e8162000ee2565b82525050565b600062000c318262000ebb565b62000c3d818562000ec6565b935062000c4f81856020860162000f2c565b80840191505092915050565b600062000c6a60208362000ed1565b91507f5361666545524332303a206c6f772d6c6576656c2063616c6c206661696c65646000830152602082019050919050565b600062000cac602a8362000ed1565b91507f5361666545524332303a204552433230206f7065726174696f6e20646964206e60008301527f6f742073756363656564000000000000000000000000000000000000000000006020830152604082019050919050565b600062000d1460368362000ed1565b91507f5361666545524332303a20617070726f76652066726f6d206e6f6e2d7a65726f60008301527f20746f206e6f6e2d7a65726f20616c6c6f77616e6365000000000000000000006020830152604082019050919050565b600062000d7c601f8362000ed1565b91507f5361666545524332303a2063616c6c20746f206e6f6e2d636f6e7472616374006000830152602082019050919050565b62000dba8162000f22565b82525050565b600062000dce828462000c24565b915081905092915050565b600060408201905062000df0600083018562000c13565b62000dff602083018462000c13565b9392505050565b600060408201905062000e1d600083018562000c13565b62000e2c602083018462000daf565b9392505050565b6000602082019050818103600083015262000e4e8162000c5b565b9050919050565b6000602082019050818103600083015262000e708162000c9d565b9050919050565b6000602082019050818103600083015262000e928162000d05565b9050919050565b6000602082019050818103600083015262000eb48162000d6d565b9050919050565b600081519050919050565b600081905092915050565b600082825260208201905092915050565b600062000eef8262000f02565b9050919050565b60008115159050919050565b600073ffffffffffffffffffffffffffffffffffffffff82169050919050565b6000819050919050565b60005b8381101562000f4c57808201518184015260208101905062000f2f565b8381111562000f5c576000848401525b50505050565b62000f6d8162000ee2565b811462000f7957600080fd5b50565b62000f878162000ef6565b811462000f9357600080fd5b50565b62000fa18162000f22565b811462000fad57600080fd5b50565b6165be8062000fc06000396000f3fe6080604052600436106103815760003560e01c80638da5cb5b116101d1578063cec50ac611610102578063f2fde38b116100a0578063f69e20461161006f578063f69e204614610cb5578063f7c1ec7714610ce0578063f82ce27d14610d0b578063fc0c546a14610d3657610381565b8063f2fde38b14610c21578063f5a41dea14610c4a578063f5ff191614610c75578063f60a15ed14610c9e57610381565b8063db006a75116100dc578063db006a7514610b55578063dd62ed3e14610b7e578063ddfe20fa14610bbb578063e849d65914610bf857610381565b8063cec50ac614610ad4578063cf8ca42614610aff578063d9d7858a14610b2a57610381565b8063a160176d1161016f578063a9059cbb11610149578063a9059cbb14610a1a578063a9de245b14610a57578063b69ef8a814610a80578063bbf3164414610aab57610381565b8063a160176d14610987578063a457c2d7146109b2578063a7287971146109ef57610381565b806394b918de116101ab57806394b918de146108f357806395d89b411461091c57806399b71d5c146109475780639ff011b91461095e57610381565b80638da5cb5b146108725780638e4ec6ef1461089d5780638f32d59b146108c857610381565b80633990ab4f116102b657806370a08231116102545780637d7c2a1c116102235780637d7c2a1c146107de5780638124955c146107f5578063812adb061461081e578063819faf7b1461084757610381565b806370a08231146107345780637137ef9914610771578063715018a61461079c57806377c7b8fc146107b357610381565b806357ded9c91161029057806357ded9c91461068a57806358782c21146106b557806361c1ec55146106e057806365aab7491461070b57610381565b80633990ab4f1461061f57806339c0a7e114610636578063463574731461066157610381565b806318160ddd116103235780632c7a5ae4116102fd5780632c7a5ae4146105655780632e8d6e181461058e578063313ce567146105b757806339509351146105e257610381565b806318160ddd146104d457806323b872dd146104ff5780632afcf4801461053c57610381565b8063085d48831161035f578063085d488314610416578063095ea7b3146104415780630eb2a2671461047e57806316f0115b146104a957610381565b806306636c1c1461038357806306a3fe59146103c057806306fdde03146103eb575b005b34801561038f57600080fd5b506103aa60048036036103a5919081019061512a565b610d61565b6040516103b79190616194565b60405180910390f35b3480156103cc57600080fd5b506103d5610f9f565b6040516103e29190615cbd565b60405180910390f35b3480156103f757600080fd5b50610400610fc5565b60405161040d9190615e49565b60405180910390f35b34801561042257600080fd5b5061042b611067565b6040516104389190615e2e565b60405180910390f35b34801561044d57600080fd5b5061046860048036036104639190810190614fe4565b61107a565b6040516104759190615e13565b60405180910390f35b34801561048a57600080fd5b50610493611098565b6040516104a09190616194565b60405180910390f35b3480156104b557600080fd5b506104be61114a565b6040516104cb9190616194565b60405180910390f35b3480156104e057600080fd5b506104e9611150565b6040516104f69190616194565b60405180910390f35b34801561050b57600080fd5b5061052660048036036105219190810190614f95565b61115a565b6040516105339190615e13565b60405180910390f35b34801561054857600080fd5b50610563600480360361055e919081019061512a565b611233565b005b34801561057157600080fd5b5061058c60048036036105879190810190614f07565b61139f565b005b34801561059a57600080fd5b506105b560048036036105b09190810190615049565b61142a565b005b3480156105c357600080fd5b506105cc611590565b6040516105d991906161af565b60405180910390f35b3480156105ee57600080fd5b5061060960048036036106049190810190614fe4565b6115a7565b6040516106169190615e13565b60405180910390f35b34801561062b57600080fd5b5061063461165a565b005b34801561064257600080fd5b5061064b611809565b6040516106589190616194565b60405180910390f35b34801561066d57600080fd5b5061068860048036036106839190810190614f07565b6118f9565b005b34801561069657600080fd5b5061069f611984565b6040516106ac9190615cbd565b60405180910390f35b3480156106c157600080fd5b506106ca6119aa565b6040516106d79190615cbd565b60405180910390f35b3480156106ec57600080fd5b506106f56119d0565b6040516107029190616194565b60405180910390f35b34801561071757600080fd5b50610732600480360361072d919081019061512a565b611a82565b005b34801561074057600080fd5b5061075b60048036036107569190810190614f07565b611b1e565b6040516107689190616194565b60405180910390f35b34801561077d57600080fd5b50610786611b66565b6040516107939190616194565b60405180910390f35b3480156107a857600080fd5b506107b1611bd9565b005b3480156107bf57600080fd5b506107c8611ce1565b6040516107d59190616194565b60405180910390f35b3480156107ea57600080fd5b506107f3611d23565b005b34801561080157600080fd5b5061081c6004803603610817919081019061512a565b611e5c565b005b34801561082a57600080fd5b5061084560048036036108409190810190614f07565b611f50565b005b34801561085357600080fd5b5061085c611fdb565b6040516108699190615cbd565b60405180910390f35b34801561087e57600080fd5b50610887612001565b6040516108949190615cbd565b60405180910390f35b3480156108a957600080fd5b506108b261202b565b6040516108bf9190615cbd565b60405180910390f35b3480156108d457600080fd5b506108dd612051565b6040516108ea9190615e13565b60405180910390f35b3480156108ff57600080fd5b5061091a6004803603610915919081019061512a565b6120b0565b005b34801561092857600080fd5b5061093161236d565b60405161093e9190615e49565b60405180910390f35b34801561095357600080fd5b5061095c61240f565b005b34801561096a57600080fd5b506109856004803603610980919081019061512a565b612632565b005b34801561099357600080fd5b5061099c612683565b6040516109a99190615e2e565b60405180910390f35b3480156109be57600080fd5b506109d960048036036109d49190810190614fe4565b6127e0565b6040516109e69190615e13565b60405180910390f35b3480156109fb57600080fd5b50610a046128ad565b604051610a119190616194565b60405180910390f35b348015610a2657600080fd5b50610a416004803603610a3c9190810190614fe4565b612999565b604051610a4e9190615e13565b60405180910390f35b348015610a6357600080fd5b50610a7e6004803603610a799190810190614f07565b6129b7565b005b348015610a8c57600080fd5b50610a95612a42565b604051610aa29190616194565b60405180910390f35b348015610ab757600080fd5b50610ad26004803603610acd9190810190614f07565b612af4565b005b348015610ae057600080fd5b50610ae9612b7f565b604051610af69190615cbd565b60405180910390f35b348015610b0b57600080fd5b50610b14612ba5565b604051610b219190616194565b60405180910390f35b348015610b3657600080fd5b50610b3f612c57565b604051610b4c9190616194565b60405180910390f35b348015610b6157600080fd5b50610b7c6004803603610b77919081019061512a565b612c5d565b005b348015610b8a57600080fd5b50610ba56004803603610ba09190810190614f59565b612ffd565b604051610bb29190616194565b60405180910390f35b348015610bc757600080fd5b50610be26004803603610bdd9190810190614f07565b613084565b604051610bef9190616194565b60405180910390f35b348015610c0457600080fd5b50610c1f6004803603610c1a919081019061512a565b613138565b005b348015610c2d57600080fd5b50610c486004803603610c439190810190614f07565b61322a565b005b348015610c5657600080fd5b50610c5f61327d565b604051610c6c9190616194565b60405180910390f35b348015610c8157600080fd5b50610c9c6004803603610c979190810190614f07565b613348565b005b348015610caa57600080fd5b50610cb36133d3565b005b348015610cc157600080fd5b50610cca6134e0565b604051610cd79190615cbd565b60405180910390f35b348015610cec57600080fd5b50610cf5613506565b604051610d029190615cbd565b60405180910390f35b348015610d1757600080fd5b50610d206135ad565b604051610d2d9190615cbd565b60405180910390f35b348015610d4257600080fd5b50610d4b613654565b604051610d589190615cbd565b60405180910390f35b600060606001604051908082528060200260200182016040528015610da057816020015b610d8d614c49565b815260200190600190039081610d855790505b50905060405180604001604052803073ffffffffffffffffffffffffffffffffffffffff168152602001600081525081600081518110610ddc57fe5b6020026020010181905250610def614c79565b6040518060800160405280600115158152602001600080811115610e0f57fe5b8152602001600080811115610e2057fe5b8152602001858152509050610e33614cb7565b600081600001906001811115610e4557fe5b90816001811115610e5257fe5b815250506000816020018181525050818160400181905250600f54816060018181525050308160a0019073ffffffffffffffffffffffffffffffffffffffff16908173ffffffffffffffffffffffffffffffffffffffff168152505060606001604051908082528060200260200182016040528015610eeb57816020015b610ed8614d23565b815260200190600190039081610ed05790505b5090508181600081518110610efc57fe5b6020026020010181905250600e60009054906101000a900473ffffffffffffffffffffffffffffffffffffffff1673ffffffffffffffffffffffffffffffffffffffff1663a67a6a4585836040518363ffffffff1660e01b8152600401610f64929190615ddc565b600060405180830381600087803b158015610f7e57600080fd5b505af1158015610f92573d6000803e3d6000fd5b5050505050505050919050565b600d60009054906101000a900473ffffffffffffffffffffffffffffffffffffffff1681565b606060038054600181600116156101000203166002900480601f01602080910402602001604051908101604052809291908181526020018280546001816001161561010002031660029004801561105d5780601f106110325761010080835404028352916020019161105d565b820191906000526020600020905b81548152906001019060200180831161104057829003601f168201915b5050505050905090565b601160149054906101000a900460ff1681565b600061108e61108761367a565b8484613682565b6001905092915050565b6000600b60009054906101000a900473ffffffffffffffffffffffffffffffffffffffff1673ffffffffffffffffffffffffffffffffffffffff166370a08231306040518263ffffffff1660e01b81526004016110f59190615cd8565b60206040518083038186803b15801561110d57600080fd5b505afa158015611121573d6000803e3d6000fd5b505050506040513d601f19601f820116820180604052506111459190810190615153565b905090565b60085481565b6000600254905090565b600061116784848461384d565b6112288461117361367a565b6112238560405180606001604052806028815260200161652f60289139600160008b73ffffffffffffffffffffffffffffffffffffffff1673ffffffffffffffffffffffffffffffffffffffff16815260200190815260200160002060006111d961367a565b73ffffffffffffffffffffffffffffffffffffffff1673ffffffffffffffffffffffffffffffffffffffff16815260200190815260200160002054613ad79092919063ffffffff16565b613682565b600190509392505050565b6001600660008282540192505081905550600060065490506000821161128e576040517f08c379a00000000000000000000000000000000000000000000000000000000081526004016112859061608b565b60405180910390fd5b611296611b66565b6008819055506112eb333084600960009054906101000a900473ffffffffffffffffffffffffffffffffffffffff1673ffffffffffffffffffffffffffffffffffffffff16613b32909392919063ffffffff16565b6112f3611d23565b600080905060006008541415611312578290508260088190555061133e565b61133b60085461132d60025486613bd490919063ffffffff16565b613c4490919063ffffffff16565b90505b611346611b66565b6008819055506113563382613c8e565b50600654811461139b576040517f08c379a0000000000000000000000000000000000000000000000000000000008152600401611392906160eb565b60405180910390fd5b5050565b6113a7612051565b6113e6576040517f08c379a00000000000000000000000000000000000000000000000000000000081526004016113dd90615fcb565b60405180910390fd5b80600e60006101000a81548173ffffffffffffffffffffffffffffffffffffffff021916908373ffffffffffffffffffffffffffffffffffffffff16021790555050565b611432612051565b611471576040517f08c379a000000000000000000000000000000000000000000000000000000000815260040161146890615fcb565b60405180910390fd5b60008173ffffffffffffffffffffffffffffffffffffffff166370a08231306040518263ffffffff1660e01b81526004016114ac9190615cd8565b60206040518083038186803b1580156114c457600080fd5b505afa1580156114d8573d6000803e3d6000fd5b505050506040513d601f19601f820116820180604052506114fc9190810190615153565b90508173ffffffffffffffffffffffffffffffffffffffff1663a9059cbb33836040518363ffffffff1660e01b8152600401611539929190615cf3565b602060405180830381600087803b15801561155357600080fd5b505af1158015611567573d6000803e3d6000fd5b505050506040513d601f19601f8201168201806040525061158b9190810190615020565b505050565b6000600560009054906101000a900460ff16905090565b60006116506115b461367a565b8461164b85600160006115c561367a565b73ffffffffffffffffffffffffffffffffffffffff1673ffffffffffffffffffffffffffffffffffffffff16815260200190815260200160002060008973ffffffffffffffffffffffffffffffffffffffff1673ffffffffffffffffffffffffffffffffffffffff16815260200190815260200160002054613e1690919063ffffffff16565b613682565b6001905092915050565b60016006600082825401925050819055506000600654905061167a612051565b6116b9576040517f08c379a00000000000000000000000000000000000000000000000000000000081526004016116b090615fcb565b60405180910390fd5b6000600960009054906101000a900473ffffffffffffffffffffffffffffffffffffffff1673ffffffffffffffffffffffffffffffffffffffff166370a08231306040518263ffffffff1660e01b81526004016117169190615cd8565b60206040518083038186803b15801561172e57600080fd5b505afa158015611742573d6000803e3d6000fd5b505050506040513d601f19601f820116820180604052506117669190810190615153565b9050600081116117ab576040517f08c379a00000000000000000000000000000000000000000000000000000000081526004016117a29061608b565b60405180910390fd5b6117b3611d23565b6117bb611b66565b600881905550506006548114611806576040517f08c379a00000000000000000000000000000000000000000000000000000000081526004016117fd906160eb565b60405180910390fd5b50565b6000611813614d8f565b600e60009054906101000a900473ffffffffffffffffffffffffffffffffffffffff1673ffffffffffffffffffffffffffffffffffffffff1663c190c2ec60405180604001604052803073ffffffffffffffffffffffffffffffffffffffff1681526020016000815250600f546040518363ffffffff1660e01b815260040161189d92919061616b565b604080518083038186803b1580156118b457600080fd5b505afa1580156118c8573d6000803e3d6000fd5b505050506040513d601f19601f820116820180604052506118ec9190810190615101565b9050806020015191505090565b611901612051565b611940576040517f08c379a000000000000000000000000000000000000000000000000000000000815260040161193790615fcb565b60405180910390fd5b80601060006101000a81548173ffffffffffffffffffffffffffffffffffffffff021916908373ffffffffffffffffffffffffffffffffffffffff16021790555050565b601060009054906101000a900473ffffffffffffffffffffffffffffffffffffffff1681565b600b60009054906101000a900473ffffffffffffffffffffffffffffffffffffffff1681565b6000600a60009054906101000a900473ffffffffffffffffffffffffffffffffffffffff1673ffffffffffffffffffffffffffffffffffffffff166370a08231306040518263ffffffff1660e01b8152600401611a2d9190615cd8565b60206040518083038186803b158015611a4557600080fd5b505afa158015611a59573d6000803e3d6000fd5b505050506040513d601f19601f82011682018060405250611a7d9190810190615153565b905090565b611a8a613506565b73ffffffffffffffffffffffffffffffffffffffff1663d2d0e066600960009054906101000a900473ffffffffffffffffffffffffffffffffffffffff168360006040518463ffffffff1660e01b8152600401611ae993929190615da5565b600060405180830381600087803b158015611b0357600080fd5b505af1158015611b17573d6000803e3d6000fd5b5050505050565b60008060008373ffffffffffffffffffffffffffffffffffffffff1673ffffffffffffffffffffffffffffffffffffffff168152602001908152602001600020549050919050565b6000611bd4611b73612a42565b611bc6611b7e612ba5565b611bb8611b89611809565b611baa611b9461327d565b611b9c6128ad565b613e1690919063ffffffff16565b613e1690919063ffffffff16565b613e1690919063ffffffff16565b613e1690919063ffffffff16565b905090565b611be1612051565b611c20576040517f08c379a0000000000000000000000000000000000000000000000000000000008152600401611c1790615fcb565b60405180910390fd5b600073ffffffffffffffffffffffffffffffffffffffff16600760009054906101000a900473ffffffffffffffffffffffffffffffffffffffff1673ffffffffffffffffffffffffffffffffffffffff167f8be0079c531659141344cd1fd0a4f28419497f9722a3daafe3b4186f6b6457e060405160405180910390a36000600760006101000a81548173ffffffffffffffffffffffffffffffffffffffff021916908373ffffffffffffffffffffffffffffffffffffffff160217905550565b600080611cec611b66565b9050611d1d600254611d0f670de0b6b3a764000084613bd490919063ffffffff16565b613c4490919063ffffffff16565b91505090565b6000611d2d612683565b9050601160149054906101000a900460ff166006811115611d4a57fe5b816006811115611d5657fe5b14611d6457611d63613e6b565b5b6000611d6e612a42565b1115611e365760016006811115611d8157fe5b816006811115611d8d57fe5b1415611da557611da3611d9e612a42565b610d61565b505b60046006811115611db257fe5b816006811115611dbe57fe5b1415611dd557611dd4611dcf612a42565b611e5c565b5b60026006811115611de257fe5b816006811115611dee57fe5b1415611e0557611e04611dff612a42565b613138565b5b60036006811115611e1257fe5b816006811115611e1e57fe5b1415611e3557611e34611e2f612a42565b611a82565b5b5b80601160146101000a81548160ff02191690836006811115611e5457fe5b021790555050565b6000600b60009054906101000a900473ffffffffffffffffffffffffffffffffffffffff1673ffffffffffffffffffffffffffffffffffffffff166340c10f1930846040518363ffffffff1660e01b8152600401611ebb929190615cf3565b602060405180830381600087803b158015611ed557600080fd5b505af1158015611ee9573d6000803e3d6000fd5b505050506040513d601f19601f82011682018060405250611f0d9190810190615153565b11611f4d576040517f08c379a0000000000000000000000000000000000000000000000000000000008152600401611f44906160ab565b60405180910390fd5b50565b611f58612051565b611f97576040517f08c379a0000000000000000000000000000000000000000000000000000000008152600401611f8e90615fcb565b60405180910390fd5b80600c60006101000a81548173ffffffffffffffffffffffffffffffffffffffff021916908373ffffffffffffffffffffffffffffffffffffffff16021790555050565b600c60009054906101000a900473ffffffffffffffffffffffffffffffffffffffff1681565b6000600760009054906101000a900473ffffffffffffffffffffffffffffffffffffffff16905090565b600e60009054906101000a900473ffffffffffffffffffffffffffffffffffffffff1681565b6000600760009054906101000a900473ffffffffffffffffffffffffffffffffffffffff1673ffffffffffffffffffffffffffffffffffffffff1661209461367a565b73ffffffffffffffffffffffffffffffffffffffff1614905090565b600160066000828254019250508190555060006006549050612117333084601160009054906101000a900473ffffffffffffffffffffffffffffffffffffffff1673ffffffffffffffffffffffffffffffffffffffff16613b32909392919063ffffffff16565b6000601160009054906101000a900473ffffffffffffffffffffffffffffffffffffffff1673ffffffffffffffffffffffffffffffffffffffff166370a08231306040518263ffffffff1660e01b81526004016121749190615cd8565b60206040518083038186803b15801561218c57600080fd5b505afa1580156121a0573d6000803e3d6000fd5b505050506040513d601f19601f820116820180604052506121c49190810190615153565b9050601160009054906101000a900473ffffffffffffffffffffffffffffffffffffffff1673ffffffffffffffffffffffffffffffffffffffff1663db006a75846040518263ffffffff1660e01b81526004016122219190616194565b600060405180830381600087803b15801561223b57600080fd5b505af115801561224f573d6000803e3d6000fd5b505050506000601160009054906101000a900473ffffffffffffffffffffffffffffffffffffffff1673ffffffffffffffffffffffffffffffffffffffff166370a08231306040518263ffffffff1660e01b81526004016122b09190615cd8565b60206040518083038186803b1580156122c857600080fd5b505afa1580156122dc573d6000803e3d6000fd5b505050506040513d601f19601f820116820180604052506123009190810190615153565b905060006123178383613ee490919063ffffffff16565b905061232281613f2e565b5050506006548114612369576040517f08c379a0000000000000000000000000000000000000000000000000000000008152600401612360906160eb565b60405180910390fd5b5050565b606060048054600181600116156101000203166002900480601f0160208091040260200160405190810160405280929190818152602001828054600181600116156101000203166002900480156124055780601f106123da57610100808354040283529160200191612405565b820191906000526020600020905b8154815290600101906020018083116123e857829003601f168201915b5050505050905090565b61249e600a60009054906101000a900473ffffffffffffffffffffffffffffffffffffffff167fffffffffffffffffffffffffffffffffffffffffffffffffffffffffffffffff600960009054906101000a900473ffffffffffffffffffffffffffffffffffffffff1673ffffffffffffffffffffffffffffffffffffffff166140379092919063ffffffff16565b61252d600e60009054906101000a900473ffffffffffffffffffffffffffffffffffffffff167fffffffffffffffffffffffffffffffffffffffffffffffffffffffffffffffff600960009054906101000a900473ffffffffffffffffffffffffffffffffffffffff1673ffffffffffffffffffffffffffffffffffffffff166140379092919063ffffffff16565b6125a16125386135ad565b7fffffffffffffffffffffffffffffffffffffffffffffffffffffffffffffffff600960009054906101000a900473ffffffffffffffffffffffffffffffffffffffff1673ffffffffffffffffffffffffffffffffffffffff166140379092919063ffffffff16565b612630600b60009054906101000a900473ffffffffffffffffffffffffffffffffffffffff167fffffffffffffffffffffffffffffffffffffffffffffffffffffffffffffffff600960009054906101000a900473ffffffffffffffffffffffffffffffffffffffff1673ffffffffffffffffffffffffffffffffffffffff166140379092919063ffffffff16565b565b61263a612051565b612679576040517f08c379a000000000000000000000000000000000000000000000000000000000815260040161267090615fcb565b60405180910390fd5b80600f8190555050565b6000806000806000601060009054906101000a900473ffffffffffffffffffffffffffffffffffffffff1673ffffffffffffffffffffffffffffffffffffffff1663d88be3c0600960009054906101000a900473ffffffffffffffffffffffffffffffffffffffff166040518263ffffffff1660e01b81526004016127089190615cbd565b60006040518083038186803b15801561272057600080fd5b505afa158015612734573d6000803e3d6000fd5b505050506040513d6000823e3d601f19601f8201168201806040525061275d9190810190615072565b945094509450945050600080905080851115612777578490505b80841115612783578390505b8083111561278f578290505b8082111561279b578190505b6000809050828214156127ad57600190505b838214156127ba57600390505b848214156127c757600490505b858214156127d457600290505b80965050505050505090565b60006128a36127ed61367a565b8461289e85604051806060016040528060258152602001616557602591396001600061281761367a565b73ffffffffffffffffffffffffffffffffffffffff1673ffffffffffffffffffffffffffffffffffffffff16815260200190815260200160002060008a73ffffffffffffffffffffffffffffffffffffffff1673ffffffffffffffffffffffffffffffffffffffff16815260200190815260200160002054613ad79092919063ffffffff16565b613682565b6001905092915050565b6000806128b86119d0565b905060008111156129925761298f670de0b6b3a7640000612981600a60009054906101000a900473ffffffffffffffffffffffffffffffffffffffff1673ffffffffffffffffffffffffffffffffffffffff1663182df0f56040518163ffffffff1660e01b815260040160206040518083038186803b15801561293a57600080fd5b505afa15801561294e573d6000803e3d6000fd5b505050506040513d601f19601f820116820180604052506129729190810190615153565b84613bd490919063ffffffff16565b613c4490919063ffffffff16565b90505b8091505090565b60006129ad6129a661367a565b848461384d565b6001905092915050565b6129bf612051565b6129fe576040517f08c379a00000000000000000000000000000000000000000000000000000000081526004016129f590615fcb565b60405180910390fd5b80600d60006101000a81548173ffffffffffffffffffffffffffffffffffffffff021916908373ffffffffffffffffffffffffffffffffffffffff16021790555050565b6000600960009054906101000a900473ffffffffffffffffffffffffffffffffffffffff1673ffffffffffffffffffffffffffffffffffffffff166370a08231306040518263ffffffff1660e01b8152600401612a9f9190615cd8565b60206040518083038186803b158015612ab757600080fd5b505afa158015612acb573d6000803e3d6000fd5b505050506040513d601f19601f82011682018060405250612aef9190810190615153565b905090565b612afc612051565b612b3b576040517f08c379a0000000000000000000000000000000000000000000000000000000008152600401612b3290615fcb565b60405180910390fd5b80600b60006101000a81548173ffffffffffffffffffffffffffffffffffffffff021916908373ffffffffffffffffffffffffffffffffffffffff16021790555050565b601160009054906101000a900473ffffffffffffffffffffffffffffffffffffffff1681565b6000600d60009054906101000a900473ffffffffffffffffffffffffffffffffffffffff1673ffffffffffffffffffffffffffffffffffffffff166370a08231306040518263ffffffff1660e01b8152600401612c029190615cd8565b60206040518083038186803b158015612c1a57600080fd5b505afa158015612c2e573d6000803e3d6000fd5b505050506040513d601f19601f82011682018060405250612c529190810190615153565b905090565b600f5481565b60016006600082825401925050819055506000600654905060008211612cb8576040517f08c379a0000000000000000000000000000000000000000000000000000000008152600401612caf9061600b565b60405180910390fd5b6000612cc333611b1e565b905080831115612d08576040517f08c379a0000000000000000000000000000000000000000000000000000000008152600401612cff90615feb565b60405180910390fd5b612d10611b66565b6008819055506000612d41600254612d3386600854613bd490919063ffffffff16565b613c4490919063ffffffff16565b9050612dcb846040518060400160405280601d81526020017f72656465656d20616d6f756e7420657863656564732062616c616e63650000008152506000803373ffffffffffffffffffffffffffffffffffffffff1673ffffffffffffffffffffffffffffffffffffffff16815260200190815260200160002054613ad79092919063ffffffff16565b6000803373ffffffffffffffffffffffffffffffffffffffff1673ffffffffffffffffffffffffffffffffffffffff16815260200190815260200160002081905550612e2284600254613ee490919063ffffffff16565b600281905550600073ffffffffffffffffffffffffffffffffffffffff163373ffffffffffffffffffffffffffffffffffffffff167fddf252ad1be2c89b69c2b068fc378daa952ba7f163c4a11628f55a4df523b3ef86604051612e869190616194565b60405180910390a36000600960009054906101000a900473ffffffffffffffffffffffffffffffffffffffff1673ffffffffffffffffffffffffffffffffffffffff166370a08231306040518263ffffffff1660e01b8152600401612eeb9190615cd8565b60206040518083038186803b158015612f0357600080fd5b505afa158015612f17573d6000803e3d6000fd5b505050506040513d601f19601f82011682018060405250612f3b9190810190615153565b905081811015612f4f57612f4e826141ae565b5b612f9c3383600960009054906101000a900473ffffffffffffffffffffffffffffffffffffffff1673ffffffffffffffffffffffffffffffffffffffff166143ac9092919063ffffffff16565b612fa4611d23565b612fac611b66565b6008819055505050506006548114612ff9576040517f08c379a0000000000000000000000000000000000000000000000000000000008152600401612ff0906160eb565b60405180910390fd5b5050565b6000600160008473ffffffffffffffffffffffffffffffffffffffff1673ffffffffffffffffffffffffffffffffffffffff16815260200190815260200160002060008373ffffffffffffffffffffffffffffffffffffffff1673ffffffffffffffffffffffffffffffffffffffff16815260200190815260200160002054905092915050565b6000601160009054906101000a900473ffffffffffffffffffffffffffffffffffffffff1673ffffffffffffffffffffffffffffffffffffffff166370a08231836040518263ffffffff1660e01b81526004016130e19190615cbd565b60206040518083038186803b1580156130f957600080fd5b505afa15801561310d573d6000803e3d6000fd5b505050506040513d601f19601f820116820180604052506131319190810190615153565b9050919050565b6000600a60009054906101000a900473ffffffffffffffffffffffffffffffffffffffff1673ffffffffffffffffffffffffffffffffffffffff1663a0712d68836040518263ffffffff1660e01b81526004016131959190616194565b602060405180830381600087803b1580156131af57600080fd5b505af11580156131c3573d6000803e3d6000fd5b505050506040513d601f19601f820116820180604052506131e79190810190615153565b14613227576040517f08c379a000000000000000000000000000000000000000000000000000000000815260040161321e90615eeb565b60405180910390fd5b50565b613232612051565b613271576040517f08c379a000000000000000000000000000000000000000000000000000000000815260040161326890615fcb565b60405180910390fd5b61327a8161444b565b50565b600080613288611098565b9050600081111561334157600b60009054906101000a900473ffffffffffffffffffffffffffffffffffffffff1673ffffffffffffffffffffffffffffffffffffffff166306b3efd6306040518263ffffffff1660e01b81526004016132ee9190615cd8565b60206040518083038186803b15801561330657600080fd5b505afa15801561331a573d6000803e3d6000fd5b505050506040513d601f19601f8201168201806040525061333e9190810190615153565b90505b8091505090565b613350612051565b61338f576040517f08c379a000000000000000000000000000000000000000000000000000000000815260040161338690615fcb565b60405180910390fd5b80600a60006101000a81548173ffffffffffffffffffffffffffffffffffffffff021916908373ffffffffffffffffffffffffffffffffffffffff16021790555050565b6133db612051565b61341a576040517f08c379a000000000000000000000000000000000000000000000000000000000815260040161341190615fcb565b60405180910390fd5b60003373ffffffffffffffffffffffffffffffffffffffff163073ffffffffffffffffffffffffffffffffffffffff163160405161345790615ca8565b60006040518083038185875af1925050503d8060008114613494576040519150601f19603f3d011682016040523d82523d6000602084013e613499565b606091505b50509050806134dd576040517f08c379a00000000000000000000000000000000000000000000000000000000081526004016134d490615f6b565b60405180910390fd5b50565b600a60009054906101000a900473ffffffffffffffffffffffffffffffffffffffff1681565b6000600c60009054906101000a900473ffffffffffffffffffffffffffffffffffffffff1673ffffffffffffffffffffffffffffffffffffffff16630261bf8b6040518163ffffffff1660e01b815260040160206040518083038186803b15801561357057600080fd5b505afa158015613584573d6000803e3d6000fd5b505050506040513d601f19601f820116820180604052506135a89190810190614f30565b905090565b6000600c60009054906101000a900473ffffffffffffffffffffffffffffffffffffffff1673ffffffffffffffffffffffffffffffffffffffff1663ed6ff7606040518163ffffffff1660e01b815260040160206040518083038186803b15801561361757600080fd5b505afa15801561362b573d6000803e3d6000fd5b505050506040513d601f19601f8201168201806040525061364f9190810190614f30565b905090565b600960009054906101000a900473ffffffffffffffffffffffffffffffffffffffff1681565b600033905090565b600073ffffffffffffffffffffffffffffffffffffffff168373ffffffffffffffffffffffffffffffffffffffff1614156136f2576040517f08c379a00000000000000000000000000000000000000000000000000000000081526004016136e99061606b565b60405180910390fd5b600073ffffffffffffffffffffffffffffffffffffffff168273ffffffffffffffffffffffffffffffffffffffff161415613762576040517f08c379a000000000000000000000000000000000000000000000000000000000815260040161375990615ecb565b60405180910390fd5b80600160008573ffffffffffffffffffffffffffffffffffffffff1673ffffffffffffffffffffffffffffffffffffffff16815260200190815260200160002060008473ffffffffffffffffffffffffffffffffffffffff1673ffffffffffffffffffffffffffffffffffffffff168152602001908152602001600020819055508173ffffffffffffffffffffffffffffffffffffffff168373ffffffffffffffffffffffffffffffffffffffff167f8c5be1e5ebec7d5bd14f71427d1e84f3dd0314c0f7b2291e5b200ac8c7c3b925836040516138409190616194565b60405180910390a3505050565b600073ffffffffffffffffffffffffffffffffffffffff168373ffffffffffffffffffffffffffffffffffffffff1614156138bd576040517f08c379a00000000000000000000000000000000000000000000000000000000081526004016138b49061602b565b60405180910390fd5b600073ffffffffffffffffffffffffffffffffffffffff168273ffffffffffffffffffffffffffffffffffffffff16141561392d576040517f08c379a000000000000000000000000000000000000000000000000000000000815260040161392490615e6b565b60405180910390fd5b61399881604051806060016040528060268152602001616509602691396000808773ffffffffffffffffffffffffffffffffffffffff1673ffffffffffffffffffffffffffffffffffffffff16815260200190815260200160002054613ad79092919063ffffffff16565b6000808573ffffffffffffffffffffffffffffffffffffffff1673ffffffffffffffffffffffffffffffffffffffff16815260200190815260200160002081905550613a2b816000808573ffffffffffffffffffffffffffffffffffffffff1673ffffffffffffffffffffffffffffffffffffffff16815260200190815260200160002054613e1690919063ffffffff16565b6000808473ffffffffffffffffffffffffffffffffffffffff1673ffffffffffffffffffffffffffffffffffffffff168152602001908152602001600020819055508173ffffffffffffffffffffffffffffffffffffffff168373ffffffffffffffffffffffffffffffffffffffff167fddf252ad1be2c89b69c2b068fc378daa952ba7f163c4a11628f55a4df523b3ef83604051613aca9190616194565b60405180910390a3505050565b6000838311158290613b1f576040517f08c379a0000000000000000000000000000000000000000000000000000000008152600401613b169190615e49565b60405180910390fd5b5060008385039050809150509392505050565b613bce848573ffffffffffffffffffffffffffffffffffffffff166323b872dd905060e01b858585604051602401613b6c93929190615d45565b604051602081830303815290604052907bffffffffffffffffffffffffffffffffffffffffffffffffffffffff19166020820180517bffffffffffffffffffffffffffffffffffffffffffffffffffffffff838183161783525050505061457b565b50505050565b600080831415613be75760009050613c3e565b6000828402905082848281613bf857fe5b0414613c39576040517f08c379a0000000000000000000000000000000000000000000000000000000008152600401613c3090615f8b565b60405180910390fd5b809150505b92915050565b6000613c8683836040518060400160405280601a81526020017f536166654d6174683a206469766973696f6e206279207a65726f0000000000008152506146ed565b905092915050565b600073ffffffffffffffffffffffffffffffffffffffff168273ffffffffffffffffffffffffffffffffffffffff161415613cfe576040517f08c379a0000000000000000000000000000000000000000000000000000000008152600401613cf59061614b565b60405180910390fd5b613d1381600254613e1690919063ffffffff16565b600281905550613d6a816000808573ffffffffffffffffffffffffffffffffffffffff1673ffffffffffffffffffffffffffffffffffffffff16815260200190815260200160002054613e1690919063ffffffff16565b6000808473ffffffffffffffffffffffffffffffffffffffff1673ffffffffffffffffffffffffffffffffffffffff168152602001908152602001600020819055508173ffffffffffffffffffffffffffffffffffffffff16600073ffffffffffffffffffffffffffffffffffffffff167fddf252ad1be2c89b69c2b068fc378daa952ba7f163c4a11628f55a4df523b3ef83604051613e0a9190616194565b60405180910390a35050565b600080828401905083811015613e61576040517f08c379a0000000000000000000000000000000000000000000000000000000008152600401613e5890615f0b565b60405180910390fd5b8091505092915050565b6000613e756119d0565b90506000811115613e8a57613e898161474e565b5b613e92611809565b90506000811115613ea757613ea681614840565b5b613eaf611098565b90506000811115613ec457613ec381614a7a565b5b613ecc612ba5565b90506000811115613ee157613ee081614b6e565b5b50565b6000613f2683836040518060400160405280601e81526020017f536166654d6174683a207375627472616374696f6e206f766572666c6f770000815250613ad7565b905092915050565b60008111613f71576040517f08c379a0000000000000000000000000000000000000000000000000000000008152600401613f689061608b565b60405180910390fd5b80613f7a612a42565b11613fba576040517f08c379a0000000000000000000000000000000000000000000000000000000008152600401613fb190615f2b565b60405180910390fd5b613fc2611b66565b600881905550613fd0611d23565b600080905060006008541415613fef578190508160088190555061401b565b61401860085461400a60025485613bd490919063ffffffff16565b613c4490919063ffffffff16565b90505b614023611b66565b6008819055506140333382613c8e565b5050565b60008114806140d0575060008373ffffffffffffffffffffffffffffffffffffffff1663dd62ed3e30856040518363ffffffff1660e01b815260040161407e929190615d1c565b60206040518083038186803b15801561409657600080fd5b505afa1580156140aa573d6000803e3d6000fd5b505050506040513d601f19601f820116820180604052506140ce9190810190615153565b145b61410f576040517f08c379a00000000000000000000000000000000000000000000000000000000081526004016141069061610b565b60405180910390fd5b6141a9838473ffffffffffffffffffffffffffffffffffffffff1663095ea7b3905060e01b8484604051602401614147929190615d7c565b604051602081830303815290604052907bffffffffffffffffffffffffffffffffffffffffffffffffffffffff19166020820180517bffffffffffffffffffffffffffffffffffffffffffffffffffffffff838183161783525050505061457b565b505050565b600260068111156141bb57fe5b601160149054906101000a900460ff1660068111156141d657fe5b141561426d5760006141e66119d0565b905060006141f26128ad565b905082811015614237576040517f08c379a000000000000000000000000000000000000000000000000000000000815260040161422e9061604b565b60405180910390fd5b600061425e826142508686613bd490919063ffffffff16565b613c4490919063ffffffff16565b90506142698161474e565b5050505b6003600681111561427a57fe5b601160149054906101000a900460ff16600681111561429557fe5b14156142ef57806142a4612ba5565b10156142e5576040517f08c379a00000000000000000000000000000000000000000000000000000000081526004016142dc9061604b565b60405180910390fd5b6142ee81614b6e565b5b600160068111156142fc57fe5b601160149054906101000a900460ff16600681111561431757fe5b14156143715780614326611809565b1015614367576040517f08c379a000000000000000000000000000000000000000000000000000000000815260040161435e9061604b565b60405180910390fd5b61437081614840565b5b6004600681111561437e57fe5b601160149054906101000a900460ff16600681111561439957fe5b14156143a9576143a881614a7a565b5b50565b614446838473ffffffffffffffffffffffffffffffffffffffff1663a9059cbb905060e01b84846040516024016143e4929190615d7c565b604051602081830303815290604052907bffffffffffffffffffffffffffffffffffffffffffffffffffffffff19166020820180517bffffffffffffffffffffffffffffffffffffffffffffffffffffffff838183161783525050505061457b565b505050565b600073ffffffffffffffffffffffffffffffffffffffff168173ffffffffffffffffffffffffffffffffffffffff1614156144bb576040517f08c379a00000000000000000000000000000000000000000000000000000000081526004016144b290615eab565b60405180910390fd5b8073ffffffffffffffffffffffffffffffffffffffff16600760009054906101000a900473ffffffffffffffffffffffffffffffffffffffff1673ffffffffffffffffffffffffffffffffffffffff167f8be0079c531659141344cd1fd0a4f28419497f9722a3daafe3b4186f6b6457e060405160405180910390a380600760006101000a81548173ffffffffffffffffffffffffffffffffffffffff021916908373ffffffffffffffffffffffffffffffffffffffff16021790555050565b61459a8273ffffffffffffffffffffffffffffffffffffffff16614bfe565b6145d9576040517f08c379a00000000000000000000000000000000000000000000000000000000081526004016145d09061612b565b60405180910390fd5b600060608373ffffffffffffffffffffffffffffffffffffffff16836040516146029190615c91565b6000604051808303816000865af19150503d806000811461463f576040519150601f19603f3d011682016040523d82523d6000602084013e614644565b606091505b509150915081614689576040517f08c379a000000000000000000000000000000000000000000000000000000000815260040161468090615f4b565b60405180910390fd5b6000815111156146e757808060200190516146a79190810190615020565b6146e6576040517f08c379a00000000000000000000000000000000000000000000000000000000081526004016146dd906160cb565b60405180910390fd5b5b50505050565b60008083118290614734576040517f08c379a000000000000000000000000000000000000000000000000000000000815260040161472b9190615e49565b60405180910390fd5b50600083858161474057fe5b049050809150509392505050565b6000600a60009054906101000a900473ffffffffffffffffffffffffffffffffffffffff1673ffffffffffffffffffffffffffffffffffffffff1663db006a75836040518263ffffffff1660e01b81526004016147ab9190616194565b602060405180830381600087803b1580156147c557600080fd5b505af11580156147d9573d6000803e3d6000fd5b505050506040513d601f19601f820116820180604052506147fd9190810190615153565b1461483d576040517f08c379a000000000000000000000000000000000000000000000000000000000815260040161483490615e8b565b60405180910390fd5b50565b6060600160405190808252806020026020018201604052801561487d57816020015b61486a614c49565b8152602001906001900390816148625790505b50905060405180604001604052803073ffffffffffffffffffffffffffffffffffffffff1681526020016000815250816000815181106148b957fe5b60200260200101819052506148cc614c79565b60405180608001604052806000151581526020016000808111156148ec57fe5b81526020016000808111156148fd57fe5b8152602001848152509050614910614cb7565b60018160000190600181111561492257fe5b9081600181111561492f57fe5b815250506000816020018181525050818160400181905250600f54816060018181525050308160a0019073ffffffffffffffffffffffffffffffffffffffff16908173ffffffffffffffffffffffffffffffffffffffff1681525050606060016040519080825280602002602001820160405280156149c857816020015b6149b5614d23565b8152602001906001900390816149ad5790505b50905081816000815181106149d957fe5b6020026020010181905250600e60009054906101000a900473ffffffffffffffffffffffffffffffffffffffff1673ffffffffffffffffffffffffffffffffffffffff1663a67a6a4585836040518363ffffffff1660e01b8152600401614a41929190615ddc565b600060405180830381600087803b158015614a5b57600080fd5b505af1158015614a6f573d6000803e3d6000fd5b505050505050505050565b6000600b60009054906101000a900473ffffffffffffffffffffffffffffffffffffffff1673ffffffffffffffffffffffffffffffffffffffff16639dc29fac30846040518363ffffffff1660e01b8152600401614ad9929190615cf3565b602060405180830381600087803b158015614af357600080fd5b505af1158015614b07573d6000803e3d6000fd5b505050506040513d601f19601f82011682018060405250614b2b9190810190615153565b11614b6b576040517f08c379a0000000000000000000000000000000000000000000000000000000008152600401614b6290615fab565b60405180910390fd5b50565b600d60009054906101000a900473ffffffffffffffffffffffffffffffffffffffff1673ffffffffffffffffffffffffffffffffffffffff1663db006a75826040518263ffffffff1660e01b8152600401614bc99190616194565b600060405180830381600087803b158015614be357600080fd5b505af1158015614bf7573d6000803e3d6000fd5b5050505050565b60008060007fc5d2460186f7233c927e7db2dcc703c0e500b653ca82273b7bfad8045d85a47060001b9050833f91506000801b8214158015614c405750808214155b92505050919050565b6040518060400160405280600073ffffffffffffffffffffffffffffffffffffffff168152602001600081525090565b6040518060800160405280600015158152602001600080811115614c9957fe5b8152602001600080811115614caa57fe5b8152602001600081525090565b60405180610100016040528060006001811115614cd057fe5b815260200160008152602001614ce4614dab565b81526020016000815260200160008152602001600073ffffffffffffffffffffffffffffffffffffffff16815260200160008152602001606081525090565b60405180610100016040528060006001811115614d3c57fe5b815260200160008152602001614d50614dab565b81526020016000815260200160008152602001600073ffffffffffffffffffffffffffffffffffffffff16815260200160008152602001606081525090565b6040518060400160405280600015158152602001600081525090565b6040518060800160405280600015158152602001600080811115614dcb57fe5b8152602001600080811115614ddc57fe5b8152602001600081525090565b600081359050614df8816164ac565b92915050565b600081519050614e0d816164ac565b92915050565b600081519050614e22816164c3565b92915050565b600081359050614e37816164da565b92915050565b600082601f830112614e4e57600080fd5b8151614e61614e5c826161f7565b6161ca565b91508082526020830160208301858383011115614e7d57600080fd5b614e88838284616434565b50505092915050565b600060408284031215614ea357600080fd5b614ead60406161ca565b90506000614ebd84828501614e13565b6000830152506020614ed184828501614ef2565b60208301525092915050565b600081359050614eec816164f1565b92915050565b600081519050614f01816164f1565b92915050565b600060208284031215614f1957600080fd5b6000614f2784828501614de9565b91505092915050565b600060208284031215614f4257600080fd5b6000614f5084828501614dfe565b91505092915050565b60008060408385031215614f6c57600080fd5b6000614f7a85828601614de9565b9250506020614f8b85828601614de9565b9150509250929050565b600080600060608486031215614faa57600080fd5b6000614fb886828701614de9565b9350506020614fc986828701614de9565b9250506040614fda86828701614edd565b9150509250925092565b60008060408385031215614ff757600080fd5b600061500585828601614de9565b925050602061501685828601614edd565b9150509250929050565b60006020828403121561503257600080fd5b600061504084828501614e13565b91505092915050565b60006020828403121561505b57600080fd5b600061506984828501614e28565b91505092915050565b600080600080600060a0868803121561508a57600080fd5b600086015167ffffffffffffffff8111156150a457600080fd5b6150b088828901614e3d565b95505060206150c188828901614ef2565b94505060406150d288828901614ef2565b93505060606150e388828901614ef2565b92505060806150f488828901614ef2565b9150509295509295909350565b60006040828403121561511357600080fd5b600061512184828501614e91565b91505092915050565b60006020828403121561513c57600080fd5b600061514a84828501614edd565b91505092915050565b60006020828403121561516557600080fd5b600061517384828501614ef2565b91505092915050565b60006151888383615afe565b905092915050565b600061519c8383615c06565b60408301905092915050565b6151b1816163a4565b82525050565b6151c0816162e3565b82525050565b6151cf816162e3565b82525050565b60006151e082616243565b6151ea8185616294565b9350836020820285016151fc85616223565b8060005b858110156152385784840389528151615219858261517c565b94506152248361627a565b925060208a01995050600181019050615200565b50829750879550505050505092915050565b60006152558261624e565b61525f81856162a5565b935061526a83616233565b8060005b8381101561529b5781516152828882615190565b975061528d83616287565b92505060018101905061526e565b5085935050505092915050565b6152b1816162f5565b82525050565b6152c0816162f5565b82525050565b60006152d182616264565b6152db81856162c7565b93506152eb818560208601616434565b80840191505092915050565b600061530282616259565b61530c81856162b6565b935061531c818560208601616434565b61532581616467565b840191505092915050565b615339816163b6565b82525050565b615348816163c8565b82525050565b615357816163da565b82525050565b615366816163ec565b82525050565b615375816163fe565b82525050565b60006153868261626f565b61539081856162d2565b93506153a0818560208601616434565b6153a981616467565b840191505092915050565b60006153c16023836162d2565b91507f45524332303a207472616e7366657220746f20746865207a65726f206164647260008301527f65737300000000000000000000000000000000000000000000000000000000006020830152604082019050919050565b60006154276019836162d2565b91507f434f4d504f554e443a207769746864726177206661696c6564000000000000006000830152602082019050919050565b60006154676026836162d2565b91507f4f776e61626c653a206e6577206f776e657220697320746865207a65726f206160008301527f64647265737300000000000000000000000000000000000000000000000000006020830152604082019050919050565b60006154cd6022836162d2565b91507f45524332303a20617070726f766520746f20746865207a65726f20616464726560008301527f73730000000000000000000000000000000000000000000000000000000000006020830152604082019050919050565b60006155336017836162d2565b91507f434f4d504f554e443a20737570706c79206661696c65640000000000000000006000830152602082019050919050565b6000615573601b836162d2565b91507f536166654d6174683a206164646974696f6e206f766572666c6f7700000000006000830152602082019050919050565b60006155b3600d836162d2565b91507f62616c616e6365206572726f72000000000000000000000000000000000000006000830152602082019050919050565b60006155f36020836162d2565b91507f5361666545524332303a206c6f772d6c6576656c2063616c6c206661696c65646000830152602082019050919050565b60006156336016836162d2565b91507f7472616e73666572206f6620455448206661696c6564000000000000000000006000830152602082019050919050565b60006156736021836162d2565b91507f536166654d6174683a206d756c7469706c69636174696f6e206f766572666c6f60008301527f77000000000000000000000000000000000000000000000000000000000000006020830152604082019050919050565b60006156d96018836162d2565b91507f46554c4352554d3a207769746864726177206661696c656400000000000000006000830152602082019050919050565b60006157196020836162d2565b91507f4f776e61626c653a2063616c6c6572206973206e6f7420746865206f776e65726000830152602082019050919050565b60006157596014836162d2565b91507f696e73756666696369656e742062616c616e63650000000000000000000000006000830152602082019050919050565b6000615799601f836162d2565b91507f7769746864726177206d7573742062652067726561746572207468616e2030006000830152602082019050919050565b60006157d96025836162d2565b91507f45524332303a207472616e736665722066726f6d20746865207a65726f20616460008301527f64726573730000000000000000000000000000000000000000000000000000006020830152604082019050919050565b600061583f6000836162c7565b9150600082019050919050565b60006158596012836162d2565b91507f696e73756666696369656e742066756e647300000000000000000000000000006000830152602082019050919050565b60006158996024836162d2565b91507f45524332303a20617070726f76652066726f6d20746865207a65726f2061646460008301527f72657373000000000000000000000000000000000000000000000000000000006020830152604082019050919050565b60006158ff601e836162d2565b91507f6465706f736974206d7573742062652067726561746572207468616e203000006000830152602082019050919050565b600061593f6016836162d2565b91507f46554c4352554d3a20737570706c79206661696c6564000000000000000000006000830152602082019050919050565b600061597f602a836162d2565b91507f5361666545524332303a204552433230206f7065726174696f6e20646964206e60008301527f6f742073756363656564000000000000000000000000000000000000000000006020830152604082019050919050565b60006159e5601f836162d2565b91507f5265656e7472616e637947756172643a207265656e7472616e742063616c6c006000830152602082019050919050565b6000615a256036836162d2565b91507f5361666545524332303a20617070726f76652066726f6d206e6f6e2d7a65726f60008301527f20746f206e6f6e2d7a65726f20616c6c6f77616e6365000000000000000000006020830152604082019050919050565b6000615a8b601f836162d2565b91507f5361666545524332303a2063616c6c20746f206e6f6e2d636f6e7472616374006000830152602082019050919050565b6000615acb601f836162d2565b91507f45524332303a206d696e7420746f20746865207a65726f2061646472657373006000830152602082019050919050565b600061016083016000830151615b176000860182615330565b506020830151615b2a6020860182615c64565b506040830151615b3d6040860182615bb1565b506060830151615b5060c0860182615c64565b506080830151615b6360e0860182615c64565b5060a0830151615b776101008601826151b7565b5060c0830151615b8b610120860182615c64565b5060e0830151848203610140860152615ba482826152f7565b9150508091505092915050565b608082016000820151615bc760008501826152a8565b506020820151615bda602085018261533f565b506040820151615bed604085018261534e565b506060820151615c006060850182615c64565b50505050565b604082016000820151615c1c60008501826151b7565b506020820151615c2f6020850182615c64565b50505050565b604082016000820151615c4b60008501826151b7565b506020820151615c5e6020850182615c64565b50505050565b615c6d8161638d565b82525050565b615c7c8161638d565b82525050565b615c8b81616397565b82525050565b6000615c9d82846152c6565b915081905092915050565b6000615cb382615832565b9150819050919050565b6000602082019050615cd260008301846151c6565b92915050565b6000602082019050615ced60008301846151a8565b92915050565b6000604082019050615d0860008301856151a8565b615d156020830184615c73565b9392505050565b6000604082019050615d3160008301856151c6565b615d3e60208301846151c6565b9392505050565b6000606082019050615d5a60008301866151c6565b615d6760208301856151c6565b615d746040830184615c73565b949350505050565b6000604082019050615d9160008301856151c6565b615d9e6020830184615c73565b9392505050565b6000606082019050615dba60008301866151c6565b615dc76020830185615c73565b615dd4604083018461536c565b949350505050565b60006040820190508181036000830152615df6818561524a565b90508181036020830152615e0a81846151d5565b90509392505050565b6000602082019050615e2860008301846152b7565b92915050565b6000602082019050615e43600083018461535d565b92915050565b60006020820190508181036000830152615e63818461537b565b905092915050565b60006020820190508181036000830152615e84816153b4565b9050919050565b60006020820190508181036000830152615ea48161541a565b9050919050565b60006020820190508181036000830152615ec48161545a565b9050919050565b60006020820190508181036000830152615ee4816154c0565b9050919050565b60006020820190508181036000830152615f0481615526565b9050919050565b60006020820190508181036000830152615f2481615566565b9050919050565b60006020820190508181036000830152615f44816155a6565b9050919050565b60006020820190508181036000830152615f64816155e6565b9050919050565b60006020820190508181036000830152615f8481615626565b9050919050565b60006020820190508181036000830152615fa481615666565b9050919050565b60006020820190508181036000830152615fc4816156cc565b9050919050565b60006020820190508181036000830152615fe48161570c565b9050919050565b600060208201905081810360008301526160048161574c565b9050919050565b600060208201905081810360008301526160248161578c565b9050919050565b60006020820190508181036000830152616044816157cc565b9050919050565b600060208201905081810360008301526160648161584c565b9050919050565b600060208201905081810360008301526160848161588c565b9050919050565b600060208201905081810360008301526160a4816158f2565b9050919050565b600060208201905081810360008301526160c481615932565b9050919050565b600060208201905081810360008301526160e481615972565b9050919050565b60006020820190508181036000830152616104816159d8565b9050919050565b6000602082019050818103600083015261612481615a18565b9050919050565b6000602082019050818103600083015261614481615a7e565b9050919050565b6000602082019050818103600083015261616481615abe565b9050919050565b60006060820190506161806000830185615c35565b61618d6040830184615c73565b9392505050565b60006020820190506161a96000830184615c73565b92915050565b60006020820190506161c46000830184615c82565b92915050565b6000604051905081810181811067ffffffffffffffff821117156161ed57600080fd5b8060405250919050565b600067ffffffffffffffff82111561620e57600080fd5b601f19601f8301169050602081019050919050565b6000819050602082019050919050565b6000819050602082019050919050565b600081519050919050565b600081519050919050565b600081519050919050565b600081519050919050565b600081519050919050565b6000602082019050919050565b6000602082019050919050565b600082825260208201905092915050565b600082825260208201905092915050565b600082825260208201905092915050565b600081905092915050565b600082825260208201905092915050565b60006162ee8261636d565b9050919050565b60008115159050919050565b600061630c826162e3565b9050919050565b600081905061632182616478565b919050565b600081905061633482616485565b919050565b600081905061634782616492565b919050565b600081905061635a8261649f565b919050565b600061ffff82169050919050565b600073ffffffffffffffffffffffffffffffffffffffff82169050919050565b6000819050919050565b600060ff82169050919050565b60006163af82616410565b9050919050565b60006163c182616313565b9050919050565b60006163d382616326565b9050919050565b60006163e582616339565b9050919050565b60006163f78261634c565b9050919050565b60006164098261635f565b9050919050565b600061641b82616422565b9050919050565b600061642d8261636d565b9050919050565b60005b83811015616452578082015181840152602081019050616437565b83811115616461576000848401525b50505050565b6000601f19601f8301169050919050565b6002811061648257fe5b50565b6001811061648f57fe5b50565b6001811061649c57fe5b50565b600781106164a957fe5b50565b6164b5816162e3565b81146164c057600080fd5b50565b6164cc816162f5565b81146164d757600080fd5b50565b6164e381616301565b81146164ee57600080fd5b50565b6164fa8161638d565b811461650557600080fd5b5056fe45524332303a207472616e7366657220616d6f756e7420657863656564732062616c616e636545524332303a207472616e7366657220616d6f756e74206578636565647320616c6c6f77616e636545524332303a2064656372656173656420616c6c6f77616e63652062656c6f77207a65726fa365627a7a72315820de3877b4cceec525c67cc11d83a63310236993881f678f7bd915cfa672fc7c9d6c6578706572696d656e74616cf564736f6c634300050c0040",
  "source": "pragma solidity ^0.5.0;\npragma experimental ABIEncoderV2;\n\ninterface IERC20 {\n    function totalSupply() external view returns (uint256);\n    function balanceOf(address account) external view returns (uint256);\n    function transfer(address recipient, uint256 amount) external returns (bool);\n    function allowance(address owner, address spender) external view returns (uint256);\n    function approve(address spender, uint256 amount) external returns (bool);\n    function transferFrom(address sender, address recipient, uint256 amount) external returns (bool);\n    event Transfer(address indexed from, address indexed to, uint256 value);\n    event Approval(address indexed owner, address indexed spender, uint256 value);\n}\n\ncontract Context {\n    constructor () internal { }\n    // solhint-disable-previous-line no-empty-blocks\n\n    function _msgSender() internal view returns (address payable) {\n        return msg.sender;\n    }\n\n    function _msgData() internal view returns (bytes memory) {\n        this; // silence state mutability warning without generating bytecode - see https://github.com/ethereum/solidity/issues/2691\n        return msg.data;\n    }\n}\n\ncontract ERC20 is Context, IERC20 {\n    using SafeMath for uint256;\n\n    mapping (address => uint256) _balances;\n\n    mapping (address => mapping (address => uint256)) private _allowances;\n\n    uint256 _totalSupply;\n    function totalSupply() public view returns (uint256) {\n        return _totalSupply;\n    }\n    function balanceOf(address account) public view returns (uint256) {\n        return _balances[account];\n    }\n    function transfer(address recipient, uint256 amount) public returns (bool) {\n        _transfer(_msgSender(), recipient, amount);\n        return true;\n    }\n    function allowance(address owner, address spender) public view returns (uint256) {\n        return _allowances[owner][spender];\n    }\n    function approve(address spender, uint256 amount) public returns (bool) {\n        _approve(_msgSender(), spender, amount);\n        return true;\n    }\n    function transferFrom(address sender, address recipient, uint256 amount) public returns (bool) {\n        _transfer(sender, recipient, amount);\n        _approve(sender, _msgSender(), _allowances[sender][_msgSender()].sub(amount, \"ERC20: transfer amount exceeds allowance\"));\n        return true;\n    }\n    function increaseAllowance(address spender, uint256 addedValue) public returns (bool) {\n        _approve(_msgSender(), spender, _allowances[_msgSender()][spender].add(addedValue));\n        return true;\n    }\n    function decreaseAllowance(address spender, uint256 subtractedValue) public returns (bool) {\n        _approve(_msgSender(), spender, _allowances[_msgSender()][spender].sub(subtractedValue, \"ERC20: decreased allowance below zero\"));\n        return true;\n    }\n    function _transfer(address sender, address recipient, uint256 amount) internal {\n        require(sender != address(0), \"ERC20: transfer from the zero address\");\n        require(recipient != address(0), \"ERC20: transfer to the zero address\");\n\n        _balances[sender] = _balances[sender].sub(amount, \"ERC20: transfer amount exceeds balance\");\n        _balances[recipient] = _balances[recipient].add(amount);\n        emit Transfer(sender, recipient, amount);\n    }\n    function _mint(address account, uint256 amount) internal {\n        require(account != address(0), \"ERC20: mint to the zero address\");\n\n        _totalSupply = _totalSupply.add(amount);\n        _balances[account] = _balances[account].add(amount);\n        emit Transfer(address(0), account, amount);\n    }\n    function _burn(address account, uint256 amount) internal {\n        require(account != address(0), \"ERC20: burn from the zero address\");\n\n        _balances[account] = _balances[account].sub(amount, \"ERC20: burn amount exceeds balance\");\n        _totalSupply = _totalSupply.sub(amount);\n        emit Transfer(account, address(0), amount);\n    }\n    function _approve(address owner, address spender, uint256 amount) internal {\n        require(owner != address(0), \"ERC20: approve from the zero address\");\n        require(spender != address(0), \"ERC20: approve to the zero address\");\n\n        _allowances[owner][spender] = amount;\n        emit Approval(owner, spender, amount);\n    }\n    function _burnFrom(address account, uint256 amount) internal {\n        _burn(account, amount);\n        _approve(account, _msgSender(), _allowances[account][_msgSender()].sub(amount, \"ERC20: burn amount exceeds allowance\"));\n    }\n}\n\ncontract ERC20Detailed is IERC20 {\n    string private _name;\n    string private _symbol;\n    uint8 private _decimals;\n\n    constructor (string memory name, string memory symbol, uint8 decimals) public {\n        _name = name;\n        _symbol = symbol;\n        _decimals = decimals;\n    }\n    function name() public view returns (string memory) {\n        return _name;\n    }\n    function symbol() public view returns (string memory) {\n        return _symbol;\n    }\n    function decimals() public view returns (uint8) {\n        return _decimals;\n    }\n}\n\ncontract ReentrancyGuard {\n    uint256 private _guardCounter;\n\n    constructor () internal {\n        _guardCounter = 1;\n    }\n\n    modifier nonReentrant() {\n        _guardCounter += 1;\n        uint256 localCounter = _guardCounter;\n        _;\n        require(localCounter == _guardCounter, \"ReentrancyGuard: reentrant call\");\n    }\n}\n\ncontract Ownable is Context {\n    address private _owner;\n\n    event OwnershipTransferred(address indexed previousOwner, address indexed newOwner);\n    constructor () internal {\n        _owner = _msgSender();\n        emit OwnershipTransferred(address(0), _owner);\n    }\n    function owner() public view returns (address) {\n        return _owner;\n    }\n    modifier onlyOwner() {\n        require(isOwner(), \"Ownable: caller is not the owner\");\n        _;\n    }\n    function isOwner() public view returns (bool) {\n        return _msgSender() == _owner;\n    }\n    function renounceOwnership() public onlyOwner {\n        emit OwnershipTransferred(_owner, address(0));\n        _owner = address(0);\n    }\n    function transferOwnership(address newOwner) public onlyOwner {\n        _transferOwnership(newOwner);\n    }\n    function _transferOwnership(address newOwner) internal {\n        require(newOwner != address(0), \"Ownable: new owner is the zero address\");\n        emit OwnershipTransferred(_owner, newOwner);\n        _owner = newOwner;\n    }\n}\n\nlibrary SafeMath {\n    function add(uint256 a, uint256 b) internal pure returns (uint256) {\n        uint256 c = a + b;\n        require(c >= a, \"SafeMath: addition overflow\");\n\n        return c;\n    }\n    function sub(uint256 a, uint256 b) internal pure returns (uint256) {\n        return sub(a, b, \"SafeMath: subtraction overflow\");\n    }\n    function sub(uint256 a, uint256 b, string memory errorMessage) internal pure returns (uint256) {\n        require(b <= a, errorMessage);\n        uint256 c = a - b;\n\n        return c;\n    }\n    function mul(uint256 a, uint256 b) internal pure returns (uint256) {\n        if (a == 0) {\n            return 0;\n        }\n\n        uint256 c = a * b;\n        require(c / a == b, \"SafeMath: multiplication overflow\");\n\n        return c;\n    }\n    function div(uint256 a, uint256 b) internal pure returns (uint256) {\n        return div(a, b, \"SafeMath: division by zero\");\n    }\n    function div(uint256 a, uint256 b, string memory errorMessage) internal pure returns (uint256) {\n        // Solidity only automatically asserts when dividing by 0\n        require(b > 0, errorMessage);\n        uint256 c = a / b;\n\n        return c;\n    }\n    function mod(uint256 a, uint256 b) internal pure returns (uint256) {\n        return mod(a, b, \"SafeMath: modulo by zero\");\n    }\n    function mod(uint256 a, uint256 b, string memory errorMessage) internal pure returns (uint256) {\n        require(b != 0, errorMessage);\n        return a % b;\n    }\n}\n\nlibrary Address {\n    function isContract(address account) internal view returns (bool) {\n        bytes32 codehash;\n        bytes32 accountHash = 0xc5d2460186f7233c927e7db2dcc703c0e500b653ca82273b7bfad8045d85a470;\n        // solhint-disable-next-line no-inline-assembly\n        assembly { codehash := extcodehash(account) }\n        return (codehash != 0x0 && codehash != accountHash);\n    }\n    function toPayable(address account) internal pure returns (address payable) {\n        return address(uint160(account));\n    }\n    function sendValue(address payable recipient, uint256 amount) internal {\n        require(address(this).balance >= amount, \"Address: insufficient balance\");\n\n        // solhint-disable-next-line avoid-call-value\n        (bool success, ) = recipient.call.value(amount)(\"\");\n        require(success, \"Address: unable to send value, recipient may have reverted\");\n    }\n}\n\nlibrary SafeERC20 {\n    using SafeMath for uint256;\n    using Address for address;\n\n    function safeTransfer(IERC20 token, address to, uint256 value) internal {\n        callOptionalReturn(token, abi.encodeWithSelector(token.transfer.selector, to, value));\n    }\n\n    function safeTransferFrom(IERC20 token, address from, address to, uint256 value) internal {\n        callOptionalReturn(token, abi.encodeWithSelector(token.transferFrom.selector, from, to, value));\n    }\n\n    function safeApprove(IERC20 token, address spender, uint256 value) internal {\n        require((value == 0) || (token.allowance(address(this), spender) == 0),\n            \"SafeERC20: approve from non-zero to non-zero allowance\"\n        );\n        callOptionalReturn(token, abi.encodeWithSelector(token.approve.selector, spender, value));\n    }\n\n    function safeIncreaseAllowance(IERC20 token, address spender, uint256 value) internal {\n        uint256 newAllowance = token.allowance(address(this), spender).add(value);\n        callOptionalReturn(token, abi.encodeWithSelector(token.approve.selector, spender, newAllowance));\n    }\n\n    function safeDecreaseAllowance(IERC20 token, address spender, uint256 value) internal {\n        uint256 newAllowance = token.allowance(address(this), spender).sub(value, \"SafeERC20: decreased allowance below zero\");\n        callOptionalReturn(token, abi.encodeWithSelector(token.approve.selector, spender, newAllowance));\n    }\n    function callOptionalReturn(IERC20 token, bytes memory data) private {\n        require(address(token).isContract(), \"SafeERC20: call to non-contract\");\n\n        // solhint-disable-next-line avoid-low-level-calls\n        (bool success, bytes memory returndata) = address(token).call(data);\n        require(success, \"SafeERC20: low-level call failed\");\n\n        if (returndata.length > 0) { // Return data is optional\n            // solhint-disable-next-line max-line-length\n            require(abi.decode(returndata, (bool)), \"SafeERC20: ERC20 operation did not succeed\");\n        }\n    }\n}\n\ninterface Compound {\n    function mint ( uint256 mintAmount ) external returns ( uint256 );\n    function redeem(uint256 redeemTokens) external returns (uint256);\n    function exchangeRateStored() external view returns (uint);\n}\n\ninterface Fulcrum {\n    function mint(address receiver, uint256 amount) external payable returns (uint256 mintAmount);\n    function burn(address receiver, uint256 burnAmount) external returns (uint256 loanAmountPaid);\n    function assetBalanceOf(address _owner) external view returns (uint256 balance);\n}\n\ninterface ILendingPoolAddressesProvider {\n    function getLendingPool() external view returns (address);\n}\n\ninterface Aave {\n    function deposit(address _reserve, uint256 _amount, uint16 _referralCode) external;\n}\n\ninterface AToken {\n    function redeem(uint256 amount) external;\n}\n\ninterface IIEarnManager {\n    function recommend(address _token) external view returns (\n      string memory choice,\n      uint256 capr,\n      uint256 iapr,\n      uint256 aapr,\n      uint256 dapr\n    );\n}\n\ncontract Structs {\n    struct Val {\n        uint256 value;\n    }\n\n    enum ActionType {\n        Deposit,   // supply tokens\n        Withdraw  // borrow tokens\n    }\n\n    enum AssetDenomination {\n        Wei // the amount is denominated in wei\n    }\n\n    enum AssetReference {\n        Delta // the amount is given as a delta from the current value\n    }\n\n    struct AssetAmount {\n        bool sign; // true if positive\n        AssetDenomination denomination;\n        AssetReference ref;\n        uint256 value;\n    }\n\n    struct ActionArgs {\n        ActionType actionType;\n        uint256 accountId;\n        AssetAmount amount;\n        uint256 primaryMarketId;\n        uint256 secondaryMarketId;\n        address otherAddress;\n        uint256 otherAccountId;\n        bytes data;\n    }\n\n    struct Info {\n        address owner;  // The address that owns the account\n        uint256 number; // A nonce that allows a single address to control many accounts\n    }\n\n    struct Wei {\n        bool sign; // true if positive\n        uint256 value;\n    }\n}\n\ncontract DyDx is Structs {\n    function getAccountWei(Info memory account, uint256 marketId) public view returns (Wei memory);\n    function operate(Info[] memory, ActionArgs[] memory) public;\n}\n\ninterface LendingPoolAddressesProvider {\n    function getLendingPool() external view returns (address);\n    function getLendingPoolCore() external view returns (address);\n}\n\n/*\n\n Accept protocol 1 tokens and transfer them\n\n*/\n\ninterface yERC20 {\n    function balanceOf(address account) external view returns (uint256);\n    function redeem(uint256 _shares) external;\n    function transferFrom(address sender, address recipient, uint256 amount) external returns (bool);\n}\n\ncontract yUSDT is ERC20, ERC20Detailed, ReentrancyGuard, Ownable, Structs {\n  using SafeERC20 for IERC20;\n  using Address for address;\n  using SafeMath for uint256;\n\n  uint256 public pool;\n  address public token;\n  address public compound;\n  address public fulcrum;\n  address public aave;\n  address public aaveToken;\n  address public dydx;\n  uint256 public dToken;\n  address public apr;\n  address public yUSDTv1;\n\n  enum Lender {\n      NONE,\n      DYDX,\n      COMPOUND,\n      AAVE,\n      FULCRUM,\n      DDEX,\n      LENDF\n  }\n\n  Lender public provider = Lender.NONE;\n\n  constructor () public ERC20Detailed(\"yUSDT\", \"yUSDT\", 6) {\n    token = address(0xdAC17F958D2ee523a2206206994597C13D831ec7);\n    apr = address(0x318135fbD0b40D48fCEF431CCdF6C7926450edFB);\n    dydx = address(0x1E0447b19BB6EcFdAe1e4AE1694b0C3659614e4e);\n    aave = address(0x24a42fD28C976A61Df5D00D0599C34c4f90748c8);\n    fulcrum = address(0xF013406A0B1d544238083DF0B93ad0d2cBE0f65f);\n    aaveToken = address(0x71fc860F7D3A592A4a98740e39dB31d25db65ae8);\n    compound = address(0x39AA39c021dfbaE8faC545936693aC917d5E7563);\n    dToken = 0;\n    approveToken();\n  }\n  function set_new_AAVE(address _new_AAVE) public onlyOwner {\n      aave = _new_AAVE;\n  }\n  function set_new_DYDX(address _new_DYDX) public onlyOwner {\n      dydx = _new_DYDX;\n  }\n  function set_new_APR(address _new_APR) public onlyOwner {\n      apr = _new_APR;\n  }\n  function set_new_FULCRUM(address _new_FULCRUM) public onlyOwner {\n      fulcrum = _new_FULCRUM;\n  }\n  function set_new_ATOKEN(address _new_ATOKEN) public onlyOwner {\n      aaveToken = _new_ATOKEN;\n  }\n  function set_new_COMPOUND(address _new_COMPOUND) public onlyOwner {\n      compound = _new_COMPOUND;\n  }\n  function set_new_DTOKEN(uint256 _new_DTOKEN) public onlyOwner {\n      dToken = _new_DTOKEN;\n  }\n\n  function() external payable {\n\n  }\n\n  function recommend() public view returns (Lender) {\n    (,uint256 capr,uint256 iapr,uint256 aapr,uint256 dapr) = IIEarnManager(apr).recommend(token);\n    uint256 max = 0;\n    if (capr > max) {\n      max = capr;\n    }\n    if (iapr > max) {\n      max = iapr;\n    }\n    if (aapr > max) {\n      max = aapr;\n    }\n    if (dapr > max) {\n      max = dapr;\n    }\n\n    Lender newProvider = Lender.NONE;\n    if (max == dapr) {\n      newProvider = Lender.DYDX;\n    }\n    if (max == aapr) {\n      newProvider = Lender.AAVE;\n    }\n    if (max == iapr) {\n      newProvider = Lender.FULCRUM;\n    }\n    if (max == capr) {\n      newProvider = Lender.COMPOUND;\n    }\n    return newProvider;\n  }\n\n  function supplyDydx(uint256 amount) public returns(uint) {\n      Info[] memory infos = new Info[](1);\n      infos[0] = Info(address(this), 0);\n\n      AssetAmount memory amt = AssetAmount(true, AssetDenomination.Wei, AssetReference.Delta, amount);\n      ActionArgs memory act;\n      act.actionType = ActionType.Deposit;\n      act.accountId = 0;\n      act.amount = amt;\n      act.primaryMarketId = dToken;\n      act.otherAddress = address(this);\n\n      ActionArgs[] memory args = new ActionArgs[](1);\n      args[0] = act;\n\n      DyDx(dydx).operate(infos, args);\n  }\n\n  function withdrawDydx(uint256 amount) internal {\n      Info[] memory infos = new Info[](1);\n      infos[0] = Info(address(this), 0);\n\n      AssetAmount memory amt = AssetAmount(false, AssetDenomination.Wei, AssetReference.Delta, amount);\n      ActionArgs memory act;\n      act.actionType = ActionType.Withdraw;\n      act.accountId = 0;\n      act.amount = amt;\n      act.primaryMarketId = dToken;\n      act.otherAddress = address(this);\n\n      ActionArgs[] memory args = new ActionArgs[](1);\n      args[0] = act;\n\n      DyDx(dydx).operate(infos, args);\n  }\n\n  function balance() public view returns (uint256) {\n    return IERC20(token).balanceOf(address(this));\n  }\n\n  function getAave() public view returns (address) {\n    return LendingPoolAddressesProvider(aave).getLendingPool();\n  }\n  function getAaveCore() public view returns (address) {\n    return LendingPoolAddressesProvider(aave).getLendingPoolCore();\n  }\n\n  function approveToken() public {\n      IERC20(token).safeApprove(compound, uint(-1)); //also add to constructor\n      IERC20(token).safeApprove(dydx, uint(-1));\n      IERC20(token).safeApprove(getAaveCore(), uint(-1));\n      IERC20(token).safeApprove(fulcrum, uint(-1));\n  }\n\n  function balanceDydx() public view returns (uint256) {\n      Wei memory bal = DyDx(dydx).getAccountWei(Info(address(this), 0), dToken);\n      return bal.value;\n  }\n  function balanceCompound() public view returns (uint256) {\n      return IERC20(compound).balanceOf(address(this));\n  }\n  function balanceCompoundInToken() public view returns (uint256) {\n    // Mantisa 1e18 to decimals\n    uint256 b = balanceCompound();\n    if (b > 0) {\n      b = b.mul(Compound(compound).exchangeRateStored()).div(1e18);\n    }\n    return b;\n  }\n  function balanceFulcrumInToken() public view returns (uint256) {\n    uint256 b = balanceFulcrum();\n    if (b > 0) {\n      b = Fulcrum(fulcrum).assetBalanceOf(address(this));\n    }\n    return b;\n  }\n  function balanceFulcrum() public view returns (uint256) {\n    return IERC20(fulcrum).balanceOf(address(this));\n  }\n  function balanceAave() public view returns (uint256) {\n    return IERC20(aaveToken).balanceOf(address(this));\n  }\n\n  function withdrawAll() internal {\n    uint256 amount = balanceCompound();\n    if (amount > 0) {\n      withdrawCompound(amount);\n    }\n    amount = balanceDydx();\n    if (amount > 0) {\n      withdrawDydx(amount);\n    }\n    amount = balanceFulcrum();\n    if (amount > 0) {\n      withdrawFulcrum(amount);\n    }\n    amount = balanceAave();\n    if (amount > 0) {\n      withdrawAave(amount);\n    }\n  }\n\n  function withdrawSome(uint256 _amount) internal {\n    if (provider == Lender.COMPOUND) {\n      uint256 b = balanceCompound();\n      uint256 bT = balanceCompoundInToken();\n      require(bT >= _amount, \"insufficient funds\");\n      uint256 amount = b.mul(_amount).div(bT);\n      withdrawCompound(amount);\n    }\n    if (provider == Lender.AAVE) {\n      require(balanceAave() >= _amount, \"insufficient funds\");\n      withdrawAave(_amount);\n    }\n    if (provider == Lender.DYDX) {\n      require(balanceDydx() >= _amount, \"insufficient funds\");\n      withdrawDydx(_amount);\n    }\n    if (provider == Lender.FULCRUM) {\n      withdrawFulcrum(_amount);\n    }\n  }\n\n  function rebalance() public {\n    Lender newProvider = recommend();\n\n    if (newProvider != provider) {\n      withdrawAll();\n    }\n\n    if (balance() > 0) {\n      if (newProvider == Lender.DYDX) {\n        supplyDydx(balance());\n      }\n      if (newProvider == Lender.FULCRUM) {\n        supplyFulcrum(balance());\n      }\n      if (newProvider == Lender.COMPOUND) {\n        supplyCompound(balance());\n      }\n      if (newProvider == Lender.AAVE) {\n        supplyAave(balance());\n      }\n    }\n    provider = newProvider;\n  }\n\n  function supplyAave(uint amount) public {\n      Aave(getAave()).deposit(token, amount, 0);\n  }\n  function supplyFulcrum(uint amount) public {\n      require(Fulcrum(fulcrum).mint(address(this), amount) > 0, \"FULCRUM: supply failed\");\n  }\n  function supplyCompound(uint amount) public {\n      require(Compound(compound).mint(amount) == 0, \"COMPOUND: supply failed\");\n  }\n  function withdrawAave(uint amount) internal {\n      AToken(aaveToken).redeem(amount);\n  }\n  function withdrawFulcrum(uint amount) internal {\n      require(Fulcrum(fulcrum).burn(address(this), amount) > 0, \"FULCRUM: withdraw failed\");\n  }\n  function withdrawCompound(uint amount) internal {\n      require(Compound(compound).redeem(amount) == 0, \"COMPOUND: withdraw failed\");\n  }\n\n  function invest(uint256 _amount)\n      external\n      nonReentrant\n  {\n      require(_amount > 0, \"deposit must be greater than 0\");\n      pool = calcPoolValueInToken();\n\n      IERC20(token).safeTransferFrom(msg.sender, address(this), _amount);\n\n      rebalance();\n\n      // Calculate pool shares\n      uint256 shares = 0;\n      if (pool == 0) {\n        shares = _amount;\n        pool = _amount;\n      } else {\n        shares = (_amount.mul(_totalSupply)).div(pool);\n      }\n      pool = calcPoolValueInToken();\n      _mint(msg.sender, shares);\n  }\n\n  function investFor(uint256 _amount)\n      internal\n  {\n      require(_amount > 0, \"deposit must be greater than 0\");\n      require(balance() > _amount, \"balance error\");\n      pool = calcPoolValueInToken();\n\n      // Already own the DAI from redeem\n\n      rebalance();\n\n      // Calculate pool shares\n      uint256 shares = 0;\n      if (pool == 0) {\n        shares = _amount;\n        pool = _amount;\n      } else {\n        shares = (_amount.mul(_totalSupply)).div(pool);\n      }\n      pool = calcPoolValueInToken();\n      _mint(msg.sender, shares);\n  }\n\n  // Invest self eth from external profits\n  function investSelf()\n      external\n      nonReentrant\n      onlyOwner\n  {\n      uint b = IERC20(token).balanceOf(address(this));\n      require(b > 0, \"deposit must be greater than 0\");\n      rebalance();\n      pool = calcPoolValueInToken();\n  }\n\n  function calcPoolValueInToken() public view returns (uint) {\n\n    return balanceCompoundInToken()\n      .add(balanceFulcrumInToken())\n      .add(balanceDydx())\n      .add(balanceAave())\n      .add(balance());\n  }\n\n  function getPricePerFullShare() public view returns (uint) {\n    uint _pool = calcPoolValueInToken();\n    return _pool.mul(1e18).div(_totalSupply);\n  }\n\n  function balanceOfV1(address _owner) public view returns (uint256) {\n    return yERC20(yUSDTv1).balanceOf(_owner);\n  }\n\n  // Swap from USDTv1 to USDTv2\n  function swap(uint256 _amount) external nonReentrant {\n    IERC20(yUSDTv1).safeTransferFrom(msg.sender, address(this), _amount);\n    uint256 b = IERC20(yUSDTv1).balanceOf(address(this));\n    yERC20(yUSDTv1).redeem(_amount);\n    uint256 newBalance = IERC20(yUSDTv1).balanceOf(address(this));\n    uint256 invested = newBalance.sub(b);\n    investFor(invested);\n  }\n\n  // Redeem any invested tokens from the pool\n  function redeem(uint256 _shares)\n      external\n      nonReentrant\n  {\n      require(_shares > 0, \"withdraw must be greater than 0\");\n\n      uint256 ibalance = balanceOf(msg.sender);\n      require(_shares <= ibalance, \"insufficient balance\");\n\n      // Could have over value from cTokens\n      pool = calcPoolValueInToken();\n      // Calc eth to redeem before updating balances\n      uint256 r = (pool.mul(_shares)).div(_totalSupply);\n\n\n      _balances[msg.sender] = _balances[msg.sender].sub(_shares, \"redeem amount exceeds balance\");\n      _totalSupply = _totalSupply.sub(_shares);\n\n      emit Transfer(msg.sender, address(0), _shares);\n\n      // Check ETH balance\n      uint256 b = IERC20(token).balanceOf(address(this));\n      if (b < r) {\n        withdrawSome(r);\n      }\n\n      IERC20(token).safeTransfer(msg.sender, r);\n\n      rebalance();\n      pool = calcPoolValueInToken();\n\n  }\n  // incase of half-way error\n  function inCaseTokenGetsStuck(IERC20 _TokenAddress) onlyOwner public {\n      uint qty = _TokenAddress.balanceOf(address(this));\n      _TokenAddress.transfer(msg.sender, qty);\n  }\n  // incase of half-way error\n  function inCaseETHGetsStuck() onlyOwner public{\n      (bool result, ) = msg.sender.call.value(address(this).balance)(\"\");\n      require(result, \"transfer of ETH failed\");\n  }\n}\n",
  "sourcePath": "D:/ftm/itoken/contracts/YUSDT.sol",
  "compiler": {
    "name": "solc",
    "version": "0.5.12+commit.7709ece9.Emscripten.clang"
  },
  "schemaVersion": "3.0.19",
  "updatedAt": "2020-02-16T06:13:07.097Z",
  "devdoc": {
    "methods": {}
  },
  "userdoc": {
    "methods": {}
  }
}