{
  "contractName": "yWBTC",
  "abi": [
    {
      "inputs": [],
      "payable": false,
      "stateMutability": "nonpayable",
      "type": "constructor"
    },
    {
      "anonymous": false,
      "inputs": [
        {
          "indexed": true,
          "internalType": "address",
          "name": "owner",
          "type": "address"
        },
        {
          "indexed": true,
          "internalType": "address",
          "name": "spender",
          "type": "address"
        },
        {
          "indexed": false,
          "internalType": "uint256",
          "name": "value",
          "type": "uint256"
        }
      ],
      "name": "Approval",
      "type": "event"
    },
    {
      "anonymous": false,
      "inputs": [
        {
          "indexed": true,
          "internalType": "address",
          "name": "previousOwner",
          "type": "address"
        },
        {
          "indexed": true,
          "internalType": "address",
          "name": "newOwner",
          "type": "address"
        }
      ],
      "name": "OwnershipTransferred",
      "type": "event"
    },
    {
      "anonymous": false,
      "inputs": [
        {
          "indexed": true,
          "internalType": "address",
          "name": "from",
          "type": "address"
        },
        {
          "indexed": true,
          "internalType": "address",
          "name": "to",
          "type": "address"
        },
        {
          "indexed": false,
          "internalType": "uint256",
          "name": "value",
          "type": "uint256"
        }
      ],
      "name": "Transfer",
      "type": "event"
    },
    {
      "payable": true,
      "stateMutability": "payable",
      "type": "fallback"
    },
    {
      "constant": true,
      "inputs": [],
      "name": "aave",
      "outputs": [
        {
          "internalType": "address",
          "name": "",
          "type": "address"
        }
      ],
      "payable": false,
      "stateMutability": "view",
      "type": "function"
    },
    {
      "constant": true,
      "inputs": [],
      "name": "aaveToken",
      "outputs": [
        {
          "internalType": "address",
          "name": "",
          "type": "address"
        }
      ],
      "payable": false,
      "stateMutability": "view",
      "type": "function"
    },
    {
      "constant": true,
      "inputs": [
        {
          "internalType": "address",
          "name": "owner",
          "type": "address"
        },
        {
          "internalType": "address",
          "name": "spender",
          "type": "address"
        }
      ],
      "name": "allowance",
      "outputs": [
        {
          "internalType": "uint256",
          "name": "",
          "type": "uint256"
        }
      ],
      "payable": false,
      "stateMutability": "view",
      "type": "function"
    },
    {
      "constant": false,
      "inputs": [
        {
          "internalType": "address",
          "name": "spender",
          "type": "address"
        },
        {
          "internalType": "uint256",
          "name": "amount",
          "type": "uint256"
        }
      ],
      "name": "approve",
      "outputs": [
        {
          "internalType": "bool",
          "name": "",
          "type": "bool"
        }
      ],
      "payable": false,
      "stateMutability": "nonpayable",
      "type": "function"
    },
    {
      "constant": true,
      "inputs": [],
      "name": "apr",
      "outputs": [
        {
          "internalType": "address",
          "name": "",
          "type": "address"
        }
      ],
      "payable": false,
      "stateMutability": "view",
      "type": "function"
    },
    {
      "constant": true,
      "inputs": [
        {
          "internalType": "address",
          "name": "account",
          "type": "address"
        }
      ],
      "name": "balanceOf",
      "outputs": [
        {
          "internalType": "uint256",
          "name": "",
          "type": "uint256"
        }
      ],
      "payable": false,
      "stateMutability": "view",
      "type": "function"
    },
    {
      "constant": true,
      "inputs": [],
      "name": "compound",
      "outputs": [
        {
          "internalType": "address",
          "name": "",
          "type": "address"
        }
      ],
      "payable": false,
      "stateMutability": "view",
      "type": "function"
    },
    {
      "constant": true,
      "inputs": [],
      "name": "dToken",
      "outputs": [
        {
          "internalType": "uint256",
          "name": "",
          "type": "uint256"
        }
      ],
      "payable": false,
      "stateMutability": "view",
      "type": "function"
    },
    {
      "constant": true,
      "inputs": [],
      "name": "decimals",
      "outputs": [
        {
          "internalType": "uint8",
          "name": "",
          "type": "uint8"
        }
      ],
      "payable": false,
      "stateMutability": "view",
      "type": "function"
    },
    {
      "constant": false,
      "inputs": [
        {
          "internalType": "address",
          "name": "spender",
          "type": "address"
        },
        {
          "internalType": "uint256",
          "name": "subtractedValue",
          "type": "uint256"
        }
      ],
      "name": "decreaseAllowance",
      "outputs": [
        {
          "internalType": "bool",
          "name": "",
          "type": "bool"
        }
      ],
      "payable": false,
      "stateMutability": "nonpayable",
      "type": "function"
    },
    {
      "constant": true,
      "inputs": [],
      "name": "dydx",
      "outputs": [
        {
          "internalType": "address",
          "name": "",
          "type": "address"
        }
      ],
      "payable": false,
      "stateMutability": "view",
      "type": "function"
    },
    {
      "constant": true,
      "inputs": [],
      "name": "fulcrum",
      "outputs": [
        {
          "internalType": "address",
          "name": "",
          "type": "address"
        }
      ],
      "payable": false,
      "stateMutability": "view",
      "type": "function"
    },
    {
      "constant": false,
      "inputs": [
        {
          "internalType": "address",
          "name": "spender",
          "type": "address"
        },
        {
          "internalType": "uint256",
          "name": "addedValue",
          "type": "uint256"
        }
      ],
      "name": "increaseAllowance",
      "outputs": [
        {
          "internalType": "bool",
          "name": "",
          "type": "bool"
        }
      ],
      "payable": false,
      "stateMutability": "nonpayable",
      "type": "function"
    },
    {
      "constant": true,
      "inputs": [],
      "name": "isOwner",
      "outputs": [
        {
          "internalType": "bool",
          "name": "",
          "type": "bool"
        }
      ],
      "payable": false,
      "stateMutability": "view",
      "type": "function"
    },
    {
      "constant": true,
      "inputs": [],
      "name": "name",
      "outputs": [
        {
          "internalType": "string",
          "name": "",
          "type": "string"
        }
      ],
      "payable": false,
      "stateMutability": "view",
      "type": "function"
    },
    {
      "constant": true,
      "inputs": [],
      "name": "owner",
      "outputs": [
        {
          "internalType": "address",
          "name": "",
          "type": "address"
        }
      ],
      "payable": false,
      "stateMutability": "view",
      "type": "function"
    },
    {
      "constant": true,
      "inputs": [],
      "name": "pool",
      "outputs": [
        {
          "internalType": "uint256",
          "name": "",
          "type": "uint256"
        }
      ],
      "payable": false,
      "stateMutability": "view",
      "type": "function"
    },
    {
      "constant": true,
      "inputs": [],
      "name": "provider",
      "outputs": [
        {
          "internalType": "enum yWBTC.Lender",
          "name": "",
          "type": "uint8"
        }
      ],
      "payable": false,
      "stateMutability": "view",
      "type": "function"
    },
    {
      "constant": false,
      "inputs": [],
      "name": "renounceOwnership",
      "outputs": [],
      "payable": false,
      "stateMutability": "nonpayable",
      "type": "function"
    },
    {
      "constant": true,
      "inputs": [],
      "name": "symbol",
      "outputs": [
        {
          "internalType": "string",
          "name": "",
          "type": "string"
        }
      ],
      "payable": false,
      "stateMutability": "view",
      "type": "function"
    },
    {
      "constant": true,
      "inputs": [],
      "name": "token",
      "outputs": [
        {
          "internalType": "address",
          "name": "",
          "type": "address"
        }
      ],
      "payable": false,
      "stateMutability": "view",
      "type": "function"
    },
    {
      "constant": true,
      "inputs": [],
      "name": "totalSupply",
      "outputs": [
        {
          "internalType": "uint256",
          "name": "",
          "type": "uint256"
        }
      ],
      "payable": false,
      "stateMutability": "view",
      "type": "function"
    },
    {
      "constant": false,
      "inputs": [
        {
          "internalType": "address",
          "name": "recipient",
          "type": "address"
        },
        {
          "internalType": "uint256",
          "name": "amount",
          "type": "uint256"
        }
      ],
      "name": "transfer",
      "outputs": [
        {
          "internalType": "bool",
          "name": "",
          "type": "bool"
        }
      ],
      "payable": false,
      "stateMutability": "nonpayable",
      "type": "function"
    },
    {
      "constant": false,
      "inputs": [
        {
          "internalType": "address",
          "name": "sender",
          "type": "address"
        },
        {
          "internalType": "address",
          "name": "recipient",
          "type": "address"
        },
        {
          "internalType": "uint256",
          "name": "amount",
          "type": "uint256"
        }
      ],
      "name": "transferFrom",
      "outputs": [
        {
          "internalType": "bool",
          "name": "",
          "type": "bool"
        }
      ],
      "payable": false,
      "stateMutability": "nonpayable",
      "type": "function"
    },
    {
      "constant": false,
      "inputs": [
        {
          "internalType": "address",
          "name": "newOwner",
          "type": "address"
        }
      ],
      "name": "transferOwnership",
      "outputs": [],
      "payable": false,
      "stateMutability": "nonpayable",
      "type": "function"
    },
    {
      "constant": false,
      "inputs": [
        {
          "internalType": "address",
          "name": "_new_AAVE",
          "type": "address"
        }
      ],
      "name": "set_new_AAVE",
      "outputs": [],
      "payable": false,
      "stateMutability": "nonpayable",
      "type": "function"
    },
    {
      "constant": false,
      "inputs": [
        {
          "internalType": "address",
          "name": "_new_DYDX",
          "type": "address"
        }
      ],
      "name": "set_new_DYDX",
      "outputs": [],
      "payable": false,
      "stateMutability": "nonpayable",
      "type": "function"
    },
    {
      "constant": false,
      "inputs": [
        {
          "internalType": "address",
          "name": "_new_APR",
          "type": "address"
        }
      ],
      "name": "set_new_APR",
      "outputs": [],
      "payable": false,
      "stateMutability": "nonpayable",
      "type": "function"
    },
    {
      "constant": false,
      "inputs": [
        {
          "internalType": "address",
          "name": "_new_FULCRUM",
          "type": "address"
        }
      ],
      "name": "set_new_FULCRUM",
      "outputs": [],
      "payable": false,
      "stateMutability": "nonpayable",
      "type": "function"
    },
    {
      "constant": false,
      "inputs": [
        {
          "internalType": "address",
          "name": "_new_ATOKEN",
          "type": "address"
        }
      ],
      "name": "set_new_ATOKEN",
      "outputs": [],
      "payable": false,
      "stateMutability": "nonpayable",
      "type": "function"
    },
    {
      "constant": false,
      "inputs": [
        {
          "internalType": "address",
          "name": "_new_COMPOUND",
          "type": "address"
        }
      ],
      "name": "set_new_COMPOUND",
      "outputs": [],
      "payable": false,
      "stateMutability": "nonpayable",
      "type": "function"
    },
    {
      "constant": false,
      "inputs": [
        {
          "internalType": "uint256",
          "name": "_new_DTOKEN",
          "type": "uint256"
        }
      ],
      "name": "set_new_DTOKEN",
      "outputs": [],
      "payable": false,
      "stateMutability": "nonpayable",
      "type": "function"
    },
    {
      "constant": true,
      "inputs": [],
      "name": "recommend",
      "outputs": [
        {
          "internalType": "enum yWBTC.Lender",
          "name": "",
          "type": "uint8"
        }
      ],
      "payable": false,
      "stateMutability": "view",
      "type": "function"
    },
    {
      "constant": false,
      "inputs": [
        {
          "internalType": "uint256",
          "name": "amount",
          "type": "uint256"
        }
      ],
      "name": "supplyDydx",
      "outputs": [
        {
          "internalType": "uint256",
          "name": "",
          "type": "uint256"
        }
      ],
      "payable": false,
      "stateMutability": "nonpayable",
      "type": "function"
    },
    {
      "constant": true,
      "inputs": [],
      "name": "balance",
      "outputs": [
        {
          "internalType": "uint256",
          "name": "",
          "type": "uint256"
        }
      ],
      "payable": false,
      "stateMutability": "view",
      "type": "function"
    },
    {
      "constant": true,
      "inputs": [],
      "name": "getAave",
      "outputs": [
        {
          "internalType": "address",
          "name": "",
          "type": "address"
        }
      ],
      "payable": false,
      "stateMutability": "view",
      "type": "function"
    },
    {
      "constant": true,
      "inputs": [],
      "name": "getAaveCore",
      "outputs": [
        {
          "internalType": "address",
          "name": "",
          "type": "address"
        }
      ],
      "payable": false,
      "stateMutability": "view",
      "type": "function"
    },
    {
      "constant": false,
      "inputs": [],
      "name": "approveToken",
      "outputs": [],
      "payable": false,
      "stateMutability": "nonpayable",
      "type": "function"
    },
    {
      "constant": true,
      "inputs": [],
      "name": "balanceDydx",
      "outputs": [
        {
          "internalType": "uint256",
          "name": "",
          "type": "uint256"
        }
      ],
      "payable": false,
      "stateMutability": "view",
      "type": "function"
    },
    {
      "constant": true,
      "inputs": [],
      "name": "balanceCompound",
      "outputs": [
        {
          "internalType": "uint256",
          "name": "",
          "type": "uint256"
        }
      ],
      "payable": false,
      "stateMutability": "view",
      "type": "function"
    },
    {
      "constant": true,
      "inputs": [],
      "name": "balanceCompoundInToken",
      "outputs": [
        {
          "internalType": "uint256",
          "name": "",
          "type": "uint256"
        }
      ],
      "payable": false,
      "stateMutability": "view",
      "type": "function"
    },
    {
      "constant": true,
      "inputs": [],
      "name": "balanceFulcrumInToken",
      "outputs": [
        {
          "internalType": "uint256",
          "name": "",
          "type": "uint256"
        }
      ],
      "payable": false,
      "stateMutability": "view",
      "type": "function"
    },
    {
      "constant": true,
      "inputs": [],
      "name": "balanceFulcrum",
      "outputs": [
        {
          "internalType": "uint256",
          "name": "",
          "type": "uint256"
        }
      ],
      "payable": false,
      "stateMutability": "view",
      "type": "function"
    },
    {
      "constant": true,
      "inputs": [],
      "name": "balanceAave",
      "outputs": [
        {
          "internalType": "uint256",
          "name": "",
          "type": "uint256"
        }
      ],
      "payable": false,
      "stateMutability": "view",
      "type": "function"
    },
    {
      "constant": false,
      "inputs": [],
      "name": "rebalance",
      "outputs": [],
      "payable": false,
      "stateMutability": "nonpayable",
      "type": "function"
    },
    {
      "constant": false,
      "inputs": [
        {
          "internalType": "uint256",
          "name": "amount",
          "type": "uint256"
        }
      ],
      "name": "supplyAave",
      "outputs": [],
      "payable": false,
      "stateMutability": "nonpayable",
      "type": "function"
    },
    {
      "constant": false,
      "inputs": [
        {
          "internalType": "uint256",
          "name": "amount",
          "type": "uint256"
        }
      ],
      "name": "supplyFulcrum",
      "outputs": [],
      "payable": false,
      "stateMutability": "nonpayable",
      "type": "function"
    },
    {
      "constant": false,
      "inputs": [
        {
          "internalType": "uint256",
          "name": "amount",
          "type": "uint256"
        }
      ],
      "name": "supplyCompound",
      "outputs": [],
      "payable": false,
      "stateMutability": "nonpayable",
      "type": "function"
    },
    {
      "constant": false,
      "inputs": [
        {
          "internalType": "uint256",
          "name": "_amount",
          "type": "uint256"
        }
      ],
      "name": "invest",
      "outputs": [],
      "payable": false,
      "stateMutability": "nonpayable",
      "type": "function"
    },
    {
      "constant": false,
      "inputs": [],
      "name": "investSelf",
      "outputs": [],
      "payable": false,
      "stateMutability": "nonpayable",
      "type": "function"
    },
    {
      "constant": true,
      "inputs": [],
      "name": "calcPoolValueInToken",
      "outputs": [
        {
          "internalType": "uint256",
          "name": "",
          "type": "uint256"
        }
      ],
      "payable": false,
      "stateMutability": "view",
      "type": "function"
    },
    {
      "constant": true,
      "inputs": [],
      "name": "getPricePerFullShare",
      "outputs": [
        {
          "internalType": "uint256",
          "name": "",
          "type": "uint256"
        }
      ],
      "payable": false,
      "stateMutability": "view",
      "type": "function"
    },
    {
      "constant": false,
      "inputs": [
        {
          "internalType": "uint256",
          "name": "_shares",
          "type": "uint256"
        }
      ],
      "name": "redeem",
      "outputs": [],
      "payable": false,
      "stateMutability": "nonpayable",
      "type": "function"
    },
    {
      "constant": false,
      "inputs": [
        {
          "internalType": "contract IERC20",
          "name": "_TokenAddress",
          "type": "address"
        }
      ],
      "name": "inCaseTokenGetsStuck",
      "outputs": [],
      "payable": false,
      "stateMutability": "nonpayable",
      "type": "function"
    },
    {
      "constant": false,
      "inputs": [],
      "name": "inCaseETHGetsStuck",
      "outputs": [],
      "payable": false,
      "stateMutability": "nonpayable",
      "type": "function"
    }
  ],
  "bytecode": "0x60806040526000601060146101000a81548160ff021916908360048111156200002457fe5b02179055503480156200003657600080fd5b506040518060400160405280600481526020017f79425443000000000000000000000000000000000000000000000000000000008152506040518060400160405280600481526020017f794254430000000000000000000000000000000000000000000000000000000081525060088260039080519060200190620000bd929190620008bd565b508160049080519060200190620000d6929190620008bd565b5080600560006101000a81548160ff021916908360ff16021790555050505060016006819055506200010d6200043b60201b60201c565b600760006101000a81548173ffffffffffffffffffffffffffffffffffffffff021916908373ffffffffffffffffffffffffffffffffffffffff160217905550600760009054906101000a900473ffffffffffffffffffffffffffffffffffffffff1673ffffffffffffffffffffffffffffffffffffffff16600073ffffffffffffffffffffffffffffffffffffffff167f8be0079c531659141344cd1fd0a4f28419497f9722a3daafe3b4186f6b6457e060405160405180910390a3732260fac5e5542a773aa44fbcfedf7c193bc2c599600960006101000a81548173ffffffffffffffffffffffffffffffffffffffff021916908373ffffffffffffffffffffffffffffffffffffffff16021790555073318135fbd0b40d48fcef431ccdf6c7926450edfb601060006101000a81548173ffffffffffffffffffffffffffffffffffffffff021916908373ffffffffffffffffffffffffffffffffffffffff160217905550731e0447b19bb6ecfdae1e4ae1694b0c3659614e4e600e60006101000a81548173ffffffffffffffffffffffffffffffffffffffff021916908373ffffffffffffffffffffffffffffffffffffffff1602179055507324a42fd28c976a61df5d00d0599c34c4f90748c8600c60006101000a81548173ffffffffffffffffffffffffffffffffffffffff021916908373ffffffffffffffffffffffffffffffffffffffff16021790555073ba9262578efef8b3aff7f60cd629d6cc8859c8b5600b60006101000a81548173ffffffffffffffffffffffffffffffffffffffff021916908373ffffffffffffffffffffffffffffffffffffffff16021790555073fc4b8ed459e00e5400be803a9bb3954234fd50e3600d60006101000a81548173ffffffffffffffffffffffffffffffffffffffff021916908373ffffffffffffffffffffffffffffffffffffffff16021790555073c11b1268c1a384e55c48c2391d8d480264a3a7f4600a60006101000a81548173ffffffffffffffffffffffffffffffffffffffff021916908373ffffffffffffffffffffffffffffffffffffffff1602179055506000600f81905550620004356200044360201b60201c565b62000abf565b600033905090565b600960009054906101000a900473ffffffffffffffffffffffffffffffffffffffff1673ffffffffffffffffffffffffffffffffffffffff1663095ea7b3600a60009054906101000a900473ffffffffffffffffffffffffffffffffffffffff167fffffffffffffffffffffffffffffffffffffffffffffffffffffffffffffffff6040518363ffffffff1660e01b8152600401620004e492919062000a14565b602060405180830381600087803b158015620004ff57600080fd5b505af115801562000514573d6000803e3d6000fd5b505050506040513d601f19601f820116820180604052506200053a9190810190620009c6565b50600960009054906101000a900473ffffffffffffffffffffffffffffffffffffffff1673ffffffffffffffffffffffffffffffffffffffff1663095ea7b3600e60009054906101000a900473ffffffffffffffffffffffffffffffffffffffff167fffffffffffffffffffffffffffffffffffffffffffffffffffffffffffffffff6040518363ffffffff1660e01b8152600401620005dc92919062000a14565b602060405180830381600087803b158015620005f757600080fd5b505af11580156200060c573d6000803e3d6000fd5b505050506040513d601f19601f82011682018060405250620006329190810190620009c6565b50600960009054906101000a900473ffffffffffffffffffffffffffffffffffffffff1673ffffffffffffffffffffffffffffffffffffffff1663095ea7b3620006816200081260201b60201c565b7fffffffffffffffffffffffffffffffffffffffffffffffffffffffffffffffff6040518363ffffffff1660e01b8152600401620006c192919062000a14565b602060405180830381600087803b158015620006dc57600080fd5b505af1158015620006f1573d6000803e3d6000fd5b505050506040513d601f19601f82011682018060405250620007179190810190620009c6565b50600960009054906101000a900473ffffffffffffffffffffffffffffffffffffffff1673ffffffffffffffffffffffffffffffffffffffff1663095ea7b3600b60009054906101000a900473ffffffffffffffffffffffffffffffffffffffff167fffffffffffffffffffffffffffffffffffffffffffffffffffffffffffffffff6040518363ffffffff1660e01b8152600401620007b992919062000a14565b602060405180830381600087803b158015620007d457600080fd5b505af1158015620007e9573d6000803e3d6000fd5b505050506040513d601f19601f820116820180604052506200080f9190810190620009c6565b50565b6000600c60009054906101000a900473ffffffffffffffffffffffffffffffffffffffff1673ffffffffffffffffffffffffffffffffffffffff1663ed6ff7606040518163ffffffff1660e01b815260040160206040518083038186803b1580156200087d57600080fd5b505afa15801562000892573d6000803e3d6000fd5b505050506040513d601f19601f82011682018060405250620008b891908101906200099a565b905090565b828054600181600116156101000203166002900490600052602060002090601f016020900481019282601f106200090057805160ff191683800117855562000931565b8280016001018555821562000931579182015b828111156200093057825182559160200191906001019062000913565b5b50905062000940919062000944565b5090565b6200096991905b80821115620009655760008160009055506001016200094b565b5090565b90565b6000815190506200097d8162000a8b565b92915050565b600081519050620009948162000aa5565b92915050565b600060208284031215620009ad57600080fd5b6000620009bd848285016200096c565b91505092915050565b600060208284031215620009d957600080fd5b6000620009e98482850162000983565b91505092915050565b620009fd8162000a41565b82525050565b62000a0e8162000a81565b82525050565b600060408201905062000a2b6000830185620009f2565b62000a3a602083018462000a03565b9392505050565b600062000a4e8262000a61565b9050919050565b60008115159050919050565b600073ffffffffffffffffffffffffffffffffffffffff82169050919050565b6000819050919050565b62000a968162000a41565b811462000aa257600080fd5b50565b62000ab08162000a55565b811462000abc57600080fd5b50565b615b9b8062000acf6000396000f3fe6080604052600436106103505760003560e01c8063812adb06116101c6578063bbf31644116100f7578063f5a41dea11610095578063f69e20461161006f578063f69e204614610bf3578063f7c1ec7714610c1e578063f82ce27d14610c49578063fc0c546a14610c7457610350565b8063f5a41dea14610b88578063f5ff191614610bb3578063f60a15ed14610bdc57610350565b8063db006a75116100d1578063db006a7514610ad0578063dd62ed3e14610af9578063e849d65914610b36578063f2fde38b14610b5f57610350565b8063bbf3164414610a51578063cf8ca42614610a7a578063d9d7858a14610aa557610350565b80639ff011b911610164578063a72879711161013e578063a728797114610995578063a9059cbb146109c0578063a9de245b146109fd578063b69ef8a814610a2657610350565b80639ff011b914610904578063a160176d1461092d578063a457c2d71461095857610350565b80638e4ec6ef116101a05780638e4ec6ef1461086c5780638f32d59b1461089757806395d89b41146108c257806399b71d5c146108ed57610350565b8063812adb06146107ed578063819faf7b146108165780638da5cb5b1461084157610350565b806339509351116102a057806365aab7491161023e578063715018a611610218578063715018a61461076b57806377c7b8fc146107825780637d7c2a1c146107ad5780638124955c146107c457610350565b806365aab749146106da57806370a08231146107035780637137ef991461074057610350565b8063463574731161027a578063463574731461063057806357ded9c91461065957806358782c211461068457806361c1ec55146106af57610350565b806339509351146105b15780633990ab4f146105ee57806339c0a7e11461060557610350565b806316f0115b1161030d5780632afcf480116102e75780632afcf4801461050b5780632c7a5ae4146105345780632e8d6e181461055d578063313ce5671461058657610350565b806316f0115b1461047857806318160ddd146104a357806323b872dd146104ce57610350565b806306636c1c1461035257806306a3fe591461038f57806306fdde03146103ba578063085d4883146103e5578063095ea7b3146104105780630eb2a2671461044d575b005b34801561035e57600080fd5b50610379600480360361037491908101906149af565b610c9f565b604051610386919061577c565b60405180910390f35b34801561039b57600080fd5b506103a4610edd565b6040516103b1919061536e565b60405180910390f35b3480156103c657600080fd5b506103cf610f03565b6040516103dc91906154d1565b60405180910390f35b3480156103f157600080fd5b506103fa610fa5565b60405161040791906154b6565b60405180910390f35b34801561041c57600080fd5b5061043760048036036104329190810190614869565b610fb8565b604051610444919061549b565b60405180910390f35b34801561045957600080fd5b50610462610fd6565b60405161046f919061577c565b60405180910390f35b34801561048457600080fd5b5061048d611088565b60405161049a919061577c565b60405180910390f35b3480156104af57600080fd5b506104b861108e565b6040516104c5919061577c565b60405180910390f35b3480156104da57600080fd5b506104f560048036036104f0919081019061481a565b611098565b604051610502919061549b565b60405180910390f35b34801561051757600080fd5b50610532600480360361052d91908101906149af565b611171565b005b34801561054057600080fd5b5061055b6004803603610556919081019061478c565b611340565b005b34801561056957600080fd5b50610584600480360361057f91908101906148ce565b6113cb565b005b34801561059257600080fd5b5061059b611531565b6040516105a89190615797565b60405180910390f35b3480156105bd57600080fd5b506105d860048036036105d39190810190614869565b611548565b6040516105e5919061549b565b60405180910390f35b3480156105fa57600080fd5b506106036115fb565b005b34801561061157600080fd5b5061061a6117aa565b604051610627919061577c565b60405180910390f35b34801561063c57600080fd5b506106576004803603610652919081019061478c565b61189a565b005b34801561066557600080fd5b5061066e611925565b60405161067b919061536e565b60405180910390f35b34801561069057600080fd5b5061069961194b565b6040516106a6919061536e565b60405180910390f35b3480156106bb57600080fd5b506106c4611971565b6040516106d1919061577c565b60405180910390f35b3480156106e657600080fd5b5061070160048036036106fc91908101906149af565b611a23565b005b34801561070f57600080fd5b5061072a6004803603610725919081019061478c565b611abf565b604051610737919061577c565b60405180910390f35b34801561074c57600080fd5b50610755611b07565b604051610762919061577c565b60405180910390f35b34801561077757600080fd5b50610780611b7a565b005b34801561078e57600080fd5b50610797611c82565b6040516107a4919061577c565b60405180910390f35b3480156107b957600080fd5b506107c2611cc4565b005b3480156107d057600080fd5b506107eb60048036036107e691908101906149af565b611dfc565b005b3480156107f957600080fd5b50610814600480360361080f919081019061478c565b611ef0565b005b34801561082257600080fd5b5061082b611f7b565b604051610838919061536e565b60405180910390f35b34801561084d57600080fd5b50610856611fa1565b604051610863919061536e565b60405180910390f35b34801561087857600080fd5b50610881611fcb565b60405161088e919061536e565b60405180910390f35b3480156108a357600080fd5b506108ac611ff1565b6040516108b9919061549b565b60405180910390f35b3480156108ce57600080fd5b506108d7612050565b6040516108e491906154d1565b60405180910390f35b3480156108f957600080fd5b506109026120f2565b005b34801561091057600080fd5b5061092b600480360361092691908101906149af565b6124a1565b005b34801561093957600080fd5b506109426124f2565b60405161094f91906154b6565b60405180910390f35b34801561096457600080fd5b5061097f600480360361097a9190810190614869565b61264f565b60405161098c919061549b565b60405180910390f35b3480156109a157600080fd5b506109aa61271c565b6040516109b7919061577c565b60405180910390f35b3480156109cc57600080fd5b506109e760048036036109e29190810190614869565b612808565b6040516109f4919061549b565b60405180910390f35b348015610a0957600080fd5b50610a246004803603610a1f919081019061478c565b612826565b005b348015610a3257600080fd5b50610a3b6128b1565b604051610a48919061577c565b60405180910390f35b348015610a5d57600080fd5b50610a786004803603610a73919081019061478c565b612963565b005b348015610a8657600080fd5b50610a8f6129ee565b604051610a9c919061577c565b60405180910390f35b348015610ab157600080fd5b50610aba612aa0565b604051610ac7919061577c565b60405180910390f35b348015610adc57600080fd5b50610af76004803603610af291908101906149af565b612aa6565b005b348015610b0557600080fd5b50610b206004803603610b1b91908101906147de565b612ea9565b604051610b2d919061577c565b60405180910390f35b348015610b4257600080fd5b50610b5d6004803603610b5891908101906149af565b612f30565b005b348015610b6b57600080fd5b50610b866004803603610b81919081019061478c565b613022565b005b348015610b9457600080fd5b50610b9d613075565b604051610baa919061577c565b60405180910390f35b348015610bbf57600080fd5b50610bda6004803603610bd5919081019061478c565b613140565b005b348015610be857600080fd5b50610bf16131cb565b005b348015610bff57600080fd5b50610c086132d8565b604051610c15919061536e565b60405180910390f35b348015610c2a57600080fd5b50610c336132fe565b604051610c40919061536e565b60405180910390f35b348015610c5557600080fd5b50610c5e6133a5565b604051610c6b919061536e565b60405180910390f35b348015610c8057600080fd5b50610c8961344c565b604051610c96919061536e565b60405180910390f35b600060606001604051908082528060200260200182016040528015610cde57816020015b610ccb6144ce565b815260200190600190039081610cc35790505b50905060405180604001604052803073ffffffffffffffffffffffffffffffffffffffff168152602001600081525081600081518110610d1a57fe5b6020026020010181905250610d2d6144fe565b6040518060800160405280600115158152602001600080811115610d4d57fe5b8152602001600080811115610d5e57fe5b8152602001858152509050610d7161453c565b600081600001906001811115610d8357fe5b90816001811115610d9057fe5b815250506000816020018181525050818160400181905250600f54816060018181525050308160a0019073ffffffffffffffffffffffffffffffffffffffff16908173ffffffffffffffffffffffffffffffffffffffff168152505060606001604051908082528060200260200182016040528015610e2957816020015b610e166145a8565b815260200190600190039081610e0e5790505b5090508181600081518110610e3a57fe5b6020026020010181905250600e60009054906101000a900473ffffffffffffffffffffffffffffffffffffffff1673ffffffffffffffffffffffffffffffffffffffff1663a67a6a4585836040518363ffffffff1660e01b8152600401610ea2929190615464565b600060405180830381600087803b158015610ebc57600080fd5b505af1158015610ed0573d6000803e3d6000fd5b5050505050505050919050565b600d60009054906101000a900473ffffffffffffffffffffffffffffffffffffffff1681565b606060038054600181600116156101000203166002900480601f016020809104026020016040519081016040528092919081815260200182805460018160011615610100020316600290048015610f9b5780601f10610f7057610100808354040283529160200191610f9b565b820191906000526020600020905b815481529060010190602001808311610f7e57829003601f168201915b5050505050905090565b601060149054906101000a900460ff1681565b6000610fcc610fc5613472565b848461347a565b6001905092915050565b6000600b60009054906101000a900473ffffffffffffffffffffffffffffffffffffffff1673ffffffffffffffffffffffffffffffffffffffff166370a08231306040518263ffffffff1660e01b81526004016110339190615389565b60206040518083038186803b15801561104b57600080fd5b505afa15801561105f573d6000803e3d6000fd5b505050506040513d601f19601f8201168201806040525061108391908101906149d8565b905090565b60085481565b6000600254905090565b60006110a5848484613645565b611166846110b1613472565b61116185604051806060016040528060288152602001615b0c60289139600160008b73ffffffffffffffffffffffffffffffffffffffff1673ffffffffffffffffffffffffffffffffffffffff1681526020019081526020016000206000611117613472565b73ffffffffffffffffffffffffffffffffffffffff1673ffffffffffffffffffffffffffffffffffffffff168152602001908152602001600020546138cf9092919063ffffffff16565b61347a565b600190509392505050565b600160066000828254019250508190555060006006549050600082116111cc576040517f08c379a00000000000000000000000000000000000000000000000000000000081526004016111c3906156d3565b60405180910390fd5b6111d4611b07565b600881905550600960009054906101000a900473ffffffffffffffffffffffffffffffffffffffff1673ffffffffffffffffffffffffffffffffffffffff166323b872dd3330856040518463ffffffff1660e01b8152600401611239939291906153a4565b602060405180830381600087803b15801561125357600080fd5b505af1158015611267573d6000803e3d6000fd5b505050506040513d601f19601f8201168201806040525061128b91908101906148a5565b50611294611cc4565b6000809050600060085414156112b357829050826008819055506112df565b6112dc6008546112ce6002548661392a90919063ffffffff16565b61399a90919063ffffffff16565b90505b6112e7611b07565b6008819055506112f733826139e4565b50600654811461133c576040517f08c379a000000000000000000000000000000000000000000000000000000000815260040161133390615713565b60405180910390fd5b5050565b611348611ff1565b611387576040517f08c379a000000000000000000000000000000000000000000000000000000000815260040161137e90615613565b60405180910390fd5b80600e60006101000a81548173ffffffffffffffffffffffffffffffffffffffff021916908373ffffffffffffffffffffffffffffffffffffffff16021790555050565b6113d3611ff1565b611412576040517f08c379a000000000000000000000000000000000000000000000000000000000815260040161140990615613565b60405180910390fd5b60008173ffffffffffffffffffffffffffffffffffffffff166370a08231306040518263ffffffff1660e01b815260040161144d9190615389565b60206040518083038186803b15801561146557600080fd5b505afa158015611479573d6000803e3d6000fd5b505050506040513d601f19601f8201168201806040525061149d91908101906149d8565b90508173ffffffffffffffffffffffffffffffffffffffff1663a9059cbb33836040518363ffffffff1660e01b81526004016114da9291906153db565b602060405180830381600087803b1580156114f457600080fd5b505af1158015611508573d6000803e3d6000fd5b505050506040513d601f19601f8201168201806040525061152c91908101906148a5565b505050565b6000600560009054906101000a900460ff16905090565b60006115f1611555613472565b846115ec8560016000611566613472565b73ffffffffffffffffffffffffffffffffffffffff1673ffffffffffffffffffffffffffffffffffffffff16815260200190815260200160002060008973ffffffffffffffffffffffffffffffffffffffff1673ffffffffffffffffffffffffffffffffffffffff16815260200190815260200160002054613b6c90919063ffffffff16565b61347a565b6001905092915050565b60016006600082825401925050819055506000600654905061161b611ff1565b61165a576040517f08c379a000000000000000000000000000000000000000000000000000000000815260040161165190615613565b60405180910390fd5b6000600960009054906101000a900473ffffffffffffffffffffffffffffffffffffffff1673ffffffffffffffffffffffffffffffffffffffff166370a08231306040518263ffffffff1660e01b81526004016116b79190615389565b60206040518083038186803b1580156116cf57600080fd5b505afa1580156116e3573d6000803e3d6000fd5b505050506040513d601f19601f8201168201806040525061170791908101906149d8565b90506000811161174c576040517f08c379a0000000000000000000000000000000000000000000000000000000008152600401611743906156d3565b60405180910390fd5b611754611cc4565b61175c611b07565b6008819055505060065481146117a7576040517f08c379a000000000000000000000000000000000000000000000000000000000815260040161179e90615713565b60405180910390fd5b50565b60006117b4614614565b600e60009054906101000a900473ffffffffffffffffffffffffffffffffffffffff1673ffffffffffffffffffffffffffffffffffffffff1663c190c2ec60405180604001604052803073ffffffffffffffffffffffffffffffffffffffff1681526020016000815250600f546040518363ffffffff1660e01b815260040161183e929190615753565b604080518083038186803b15801561185557600080fd5b505afa158015611869573d6000803e3d6000fd5b505050506040513d601f19601f8201168201806040525061188d9190810190614986565b9050806020015191505090565b6118a2611ff1565b6118e1576040517f08c379a00000000000000000000000000000000000000000000000000000000081526004016118d890615613565b60405180910390fd5b80601060006101000a81548173ffffffffffffffffffffffffffffffffffffffff021916908373ffffffffffffffffffffffffffffffffffffffff16021790555050565b601060009054906101000a900473ffffffffffffffffffffffffffffffffffffffff1681565b600b60009054906101000a900473ffffffffffffffffffffffffffffffffffffffff1681565b6000600a60009054906101000a900473ffffffffffffffffffffffffffffffffffffffff1673ffffffffffffffffffffffffffffffffffffffff166370a08231306040518263ffffffff1660e01b81526004016119ce9190615389565b60206040518083038186803b1580156119e657600080fd5b505afa1580156119fa573d6000803e3d6000fd5b505050506040513d601f19601f82011682018060405250611a1e91908101906149d8565b905090565b611a2b6132fe565b73ffffffffffffffffffffffffffffffffffffffff1663d2d0e066600960009054906101000a900473ffffffffffffffffffffffffffffffffffffffff168360006040518463ffffffff1660e01b8152600401611a8a9392919061542d565b600060405180830381600087803b158015611aa457600080fd5b505af1158015611ab8573d6000803e3d6000fd5b5050505050565b60008060008373ffffffffffffffffffffffffffffffffffffffff1673ffffffffffffffffffffffffffffffffffffffff168152602001908152602001600020549050919050565b6000611b75611b146128b1565b611b67611b1f6129ee565b611b59611b2a6117aa565b611b4b611b35613075565b611b3d61271c565b613b6c90919063ffffffff16565b613b6c90919063ffffffff16565b613b6c90919063ffffffff16565b613b6c90919063ffffffff16565b905090565b611b82611ff1565b611bc1576040517f08c379a0000000000000000000000000000000000000000000000000000000008152600401611bb890615613565b60405180910390fd5b600073ffffffffffffffffffffffffffffffffffffffff16600760009054906101000a900473ffffffffffffffffffffffffffffffffffffffff1673ffffffffffffffffffffffffffffffffffffffff167f8be0079c531659141344cd1fd0a4f28419497f9722a3daafe3b4186f6b6457e060405160405180910390a36000600760006101000a81548173ffffffffffffffffffffffffffffffffffffffff021916908373ffffffffffffffffffffffffffffffffffffffff160217905550565b600080611c8d611b07565b9050611cbe600254611cb0670de0b6b3a76400008461392a90919063ffffffff16565b61399a90919063ffffffff16565b91505090565b6000611cce6124f2565b9050601060149054906101000a900460ff166004811115611ceb57fe5b816004811115611cf757fe5b14611d0557611d04613bc1565b5b6000611d0f6128b1565b1115611dd65760016004811115611d2257fe5b816004811115611d2e57fe5b1415611d4657611d44611d3f6128b1565b610c9f565b505b600480811115611d5257fe5b816004811115611d5e57fe5b1415611d7557611d74611d6f6128b1565b611dfc565b5b60026004811115611d8257fe5b816004811115611d8e57fe5b1415611da557611da4611d9f6128b1565b612f30565b5b60036004811115611db257fe5b816004811115611dbe57fe5b1415611dd557611dd4611dcf6128b1565b611a23565b5b5b80601060146101000a81548160ff02191690836004811115611df457fe5b021790555050565b6000600b60009054906101000a900473ffffffffffffffffffffffffffffffffffffffff1673ffffffffffffffffffffffffffffffffffffffff166340c10f1930846040518363ffffffff1660e01b8152600401611e5b9291906153db565b602060405180830381600087803b158015611e7557600080fd5b505af1158015611e89573d6000803e3d6000fd5b505050506040513d601f19601f82011682018060405250611ead91908101906149d8565b11611eed576040517f08c379a0000000000000000000000000000000000000000000000000000000008152600401611ee4906156f3565b60405180910390fd5b50565b611ef8611ff1565b611f37576040517f08c379a0000000000000000000000000000000000000000000000000000000008152600401611f2e90615613565b60405180910390fd5b80600c60006101000a81548173ffffffffffffffffffffffffffffffffffffffff021916908373ffffffffffffffffffffffffffffffffffffffff16021790555050565b600c60009054906101000a900473ffffffffffffffffffffffffffffffffffffffff1681565b6000600760009054906101000a900473ffffffffffffffffffffffffffffffffffffffff16905090565b600e60009054906101000a900473ffffffffffffffffffffffffffffffffffffffff1681565b6000600760009054906101000a900473ffffffffffffffffffffffffffffffffffffffff1673ffffffffffffffffffffffffffffffffffffffff16612034613472565b73ffffffffffffffffffffffffffffffffffffffff1614905090565b606060048054600181600116156101000203166002900480601f0160208091040260200160405190810160405280929190818152602001828054600181600116156101000203166002900480156120e85780601f106120bd576101008083540402835291602001916120e8565b820191906000526020600020905b8154815290600101906020018083116120cb57829003601f168201915b5050505050905090565b600960009054906101000a900473ffffffffffffffffffffffffffffffffffffffff1673ffffffffffffffffffffffffffffffffffffffff1663095ea7b3600a60009054906101000a900473ffffffffffffffffffffffffffffffffffffffff167fffffffffffffffffffffffffffffffffffffffffffffffffffffffffffffffff6040518363ffffffff1660e01b8152600401612191929190615404565b602060405180830381600087803b1580156121ab57600080fd5b505af11580156121bf573d6000803e3d6000fd5b505050506040513d601f19601f820116820180604052506121e391908101906148a5565b50600960009054906101000a900473ffffffffffffffffffffffffffffffffffffffff1673ffffffffffffffffffffffffffffffffffffffff1663095ea7b3600e60009054906101000a900473ffffffffffffffffffffffffffffffffffffffff167fffffffffffffffffffffffffffffffffffffffffffffffffffffffffffffffff6040518363ffffffff1660e01b8152600401612283929190615404565b602060405180830381600087803b15801561229d57600080fd5b505af11580156122b1573d6000803e3d6000fd5b505050506040513d601f19601f820116820180604052506122d591908101906148a5565b50600960009054906101000a900473ffffffffffffffffffffffffffffffffffffffff1673ffffffffffffffffffffffffffffffffffffffff1663095ea7b361231c6133a5565b7fffffffffffffffffffffffffffffffffffffffffffffffffffffffffffffffff6040518363ffffffff1660e01b815260040161235a929190615404565b602060405180830381600087803b15801561237457600080fd5b505af1158015612388573d6000803e3d6000fd5b505050506040513d601f19601f820116820180604052506123ac91908101906148a5565b50600960009054906101000a900473ffffffffffffffffffffffffffffffffffffffff1673ffffffffffffffffffffffffffffffffffffffff1663095ea7b3600b60009054906101000a900473ffffffffffffffffffffffffffffffffffffffff167fffffffffffffffffffffffffffffffffffffffffffffffffffffffffffffffff6040518363ffffffff1660e01b815260040161244c929190615404565b602060405180830381600087803b15801561246657600080fd5b505af115801561247a573d6000803e3d6000fd5b505050506040513d601f19601f8201168201806040525061249e91908101906148a5565b50565b6124a9611ff1565b6124e8576040517f08c379a00000000000000000000000000000000000000000000000000000000081526004016124df90615613565b60405180910390fd5b80600f8190555050565b6000806000806000601060009054906101000a900473ffffffffffffffffffffffffffffffffffffffff1673ffffffffffffffffffffffffffffffffffffffff1663d88be3c0600960009054906101000a900473ffffffffffffffffffffffffffffffffffffffff166040518263ffffffff1660e01b8152600401612577919061536e565b60006040518083038186803b15801561258f57600080fd5b505afa1580156125a3573d6000803e3d6000fd5b505050506040513d6000823e3d601f19601f820116820180604052506125cc91908101906148f7565b9450945094509450506000809050808511156125e6578490505b808411156125f2578390505b808311156125fe578290505b8082111561260a578190505b60008090508282141561261c57600190505b8382141561262957600390505b8482141561263657600490505b8582141561264357600290505b80965050505050505090565b600061271261265c613472565b8461270d85604051806060016040528060258152602001615b346025913960016000612686613472565b73ffffffffffffffffffffffffffffffffffffffff1673ffffffffffffffffffffffffffffffffffffffff16815260200190815260200160002060008a73ffffffffffffffffffffffffffffffffffffffff1673ffffffffffffffffffffffffffffffffffffffff168152602001908152602001600020546138cf9092919063ffffffff16565b61347a565b6001905092915050565b600080612727611971565b90506000811115612801576127fe670de0b6b3a76400006127f0600a60009054906101000a900473ffffffffffffffffffffffffffffffffffffffff1673ffffffffffffffffffffffffffffffffffffffff1663182df0f56040518163ffffffff1660e01b815260040160206040518083038186803b1580156127a957600080fd5b505afa1580156127bd573d6000803e3d6000fd5b505050506040513d601f19601f820116820180604052506127e191908101906149d8565b8461392a90919063ffffffff16565b61399a90919063ffffffff16565b90505b8091505090565b600061281c612815613472565b8484613645565b6001905092915050565b61282e611ff1565b61286d576040517f08c379a000000000000000000000000000000000000000000000000000000000815260040161286490615613565b60405180910390fd5b80600d60006101000a81548173ffffffffffffffffffffffffffffffffffffffff021916908373ffffffffffffffffffffffffffffffffffffffff16021790555050565b6000600960009054906101000a900473ffffffffffffffffffffffffffffffffffffffff1673ffffffffffffffffffffffffffffffffffffffff166370a08231306040518263ffffffff1660e01b815260040161290e9190615389565b60206040518083038186803b15801561292657600080fd5b505afa15801561293a573d6000803e3d6000fd5b505050506040513d601f19601f8201168201806040525061295e91908101906149d8565b905090565b61296b611ff1565b6129aa576040517f08c379a00000000000000000000000000000000000000000000000000000000081526004016129a190615613565b60405180910390fd5b80600b60006101000a81548173ffffffffffffffffffffffffffffffffffffffff021916908373ffffffffffffffffffffffffffffffffffffffff16021790555050565b6000600d60009054906101000a900473ffffffffffffffffffffffffffffffffffffffff1673ffffffffffffffffffffffffffffffffffffffff166370a08231306040518263ffffffff1660e01b8152600401612a4b9190615389565b60206040518083038186803b158015612a6357600080fd5b505afa158015612a77573d6000803e3d6000fd5b505050506040513d601f19601f82011682018060405250612a9b91908101906149d8565b905090565b600f5481565b60016006600082825401925050819055506000600654905060008211612b01576040517f08c379a0000000000000000000000000000000000000000000000000000000008152600401612af890615653565b60405180910390fd5b6000612b0c33611abf565b905080831115612b51576040517f08c379a0000000000000000000000000000000000000000000000000000000008152600401612b4890615633565b60405180910390fd5b612b59611b07565b6008819055506000612b8a600254612b7c8660085461392a90919063ffffffff16565b61399a90919063ffffffff16565b9050612c14846040518060400160405280601d81526020017f72656465656d20616d6f756e7420657863656564732062616c616e63650000008152506000803373ffffffffffffffffffffffffffffffffffffffff1673ffffffffffffffffffffffffffffffffffffffff168152602001908152602001600020546138cf9092919063ffffffff16565b6000803373ffffffffffffffffffffffffffffffffffffffff1673ffffffffffffffffffffffffffffffffffffffff16815260200190815260200160002081905550612c6b84600254613c3a90919063ffffffff16565b600281905550600073ffffffffffffffffffffffffffffffffffffffff163373ffffffffffffffffffffffffffffffffffffffff167fddf252ad1be2c89b69c2b068fc378daa952ba7f163c4a11628f55a4df523b3ef86604051612ccf919061577c565b60405180910390a36000600960009054906101000a900473ffffffffffffffffffffffffffffffffffffffff1673ffffffffffffffffffffffffffffffffffffffff166370a08231306040518263ffffffff1660e01b8152600401612d349190615389565b60206040518083038186803b158015612d4c57600080fd5b505afa158015612d60573d6000803e3d6000fd5b505050506040513d601f19601f82011682018060405250612d8491908101906149d8565b905081811015612d9857612d9782613c84565b5b600960009054906101000a900473ffffffffffffffffffffffffffffffffffffffff1673ffffffffffffffffffffffffffffffffffffffff1663a9059cbb33846040518363ffffffff1660e01b8152600401612df59291906153db565b602060405180830381600087803b158015612e0f57600080fd5b505af1158015612e23573d6000803e3d6000fd5b505050506040513d601f19601f82011682018060405250612e4791908101906148a5565b50612e50611cc4565b612e58611b07565b6008819055505050506006548114612ea5576040517f08c379a0000000000000000000000000000000000000000000000000000000008152600401612e9c90615713565b60405180910390fd5b5050565b6000600160008473ffffffffffffffffffffffffffffffffffffffff1673ffffffffffffffffffffffffffffffffffffffff16815260200190815260200160002060008373ffffffffffffffffffffffffffffffffffffffff1673ffffffffffffffffffffffffffffffffffffffff16815260200190815260200160002054905092915050565b6000600a60009054906101000a900473ffffffffffffffffffffffffffffffffffffffff1673ffffffffffffffffffffffffffffffffffffffff1663a0712d68836040518263ffffffff1660e01b8152600401612f8d919061577c565b602060405180830381600087803b158015612fa757600080fd5b505af1158015612fbb573d6000803e3d6000fd5b505050506040513d601f19601f82011682018060405250612fdf91908101906149d8565b1461301f576040517f08c379a000000000000000000000000000000000000000000000000000000000815260040161301690615573565b60405180910390fd5b50565b61302a611ff1565b613069576040517f08c379a000000000000000000000000000000000000000000000000000000000815260040161306090615613565b60405180910390fd5b61307281613dfa565b50565b600080613080610fd6565b9050600081111561313957600b60009054906101000a900473ffffffffffffffffffffffffffffffffffffffff1673ffffffffffffffffffffffffffffffffffffffff166306b3efd6306040518263ffffffff1660e01b81526004016130e69190615389565b60206040518083038186803b1580156130fe57600080fd5b505afa158015613112573d6000803e3d6000fd5b505050506040513d601f19601f8201168201806040525061313691908101906149d8565b90505b8091505090565b613148611ff1565b613187576040517f08c379a000000000000000000000000000000000000000000000000000000000815260040161317e90615613565b60405180910390fd5b80600a60006101000a81548173ffffffffffffffffffffffffffffffffffffffff021916908373ffffffffffffffffffffffffffffffffffffffff16021790555050565b6131d3611ff1565b613212576040517f08c379a000000000000000000000000000000000000000000000000000000000815260040161320990615613565b60405180910390fd5b60003373ffffffffffffffffffffffffffffffffffffffff163073ffffffffffffffffffffffffffffffffffffffff163160405161324f90615359565b60006040518083038185875af1925050503d806000811461328c576040519150601f19603f3d011682016040523d82523d6000602084013e613291565b606091505b50509050806132d5576040517f08c379a00000000000000000000000000000000000000000000000000000000081526004016132cc906155b3565b60405180910390fd5b50565b600a60009054906101000a900473ffffffffffffffffffffffffffffffffffffffff1681565b6000600c60009054906101000a900473ffffffffffffffffffffffffffffffffffffffff1673ffffffffffffffffffffffffffffffffffffffff16630261bf8b6040518163ffffffff1660e01b815260040160206040518083038186803b15801561336857600080fd5b505afa15801561337c573d6000803e3d6000fd5b505050506040513d601f19601f820116820180604052506133a091908101906147b5565b905090565b6000600c60009054906101000a900473ffffffffffffffffffffffffffffffffffffffff1673ffffffffffffffffffffffffffffffffffffffff1663ed6ff7606040518163ffffffff1660e01b815260040160206040518083038186803b15801561340f57600080fd5b505afa158015613423573d6000803e3d6000fd5b505050506040513d601f19601f8201168201806040525061344791908101906147b5565b905090565b600960009054906101000a900473ffffffffffffffffffffffffffffffffffffffff1681565b600033905090565b600073ffffffffffffffffffffffffffffffffffffffff168373ffffffffffffffffffffffffffffffffffffffff1614156134ea576040517f08c379a00000000000000000000000000000000000000000000000000000000081526004016134e1906156b3565b60405180910390fd5b600073ffffffffffffffffffffffffffffffffffffffff168273ffffffffffffffffffffffffffffffffffffffff16141561355a576040517f08c379a000000000000000000000000000000000000000000000000000000000815260040161355190615553565b60405180910390fd5b80600160008573ffffffffffffffffffffffffffffffffffffffff1673ffffffffffffffffffffffffffffffffffffffff16815260200190815260200160002060008473ffffffffffffffffffffffffffffffffffffffff1673ffffffffffffffffffffffffffffffffffffffff168152602001908152602001600020819055508173ffffffffffffffffffffffffffffffffffffffff168373ffffffffffffffffffffffffffffffffffffffff167f8c5be1e5ebec7d5bd14f71427d1e84f3dd0314c0f7b2291e5b200ac8c7c3b92583604051613638919061577c565b60405180910390a3505050565b600073ffffffffffffffffffffffffffffffffffffffff168373ffffffffffffffffffffffffffffffffffffffff1614156136b5576040517f08c379a00000000000000000000000000000000000000000000000000000000081526004016136ac90615673565b60405180910390fd5b600073ffffffffffffffffffffffffffffffffffffffff168273ffffffffffffffffffffffffffffffffffffffff161415613725576040517f08c379a000000000000000000000000000000000000000000000000000000000815260040161371c906154f3565b60405180910390fd5b61379081604051806060016040528060268152602001615ae6602691396000808773ffffffffffffffffffffffffffffffffffffffff1673ffffffffffffffffffffffffffffffffffffffff168152602001908152602001600020546138cf9092919063ffffffff16565b6000808573ffffffffffffffffffffffffffffffffffffffff1673ffffffffffffffffffffffffffffffffffffffff16815260200190815260200160002081905550613823816000808573ffffffffffffffffffffffffffffffffffffffff1673ffffffffffffffffffffffffffffffffffffffff16815260200190815260200160002054613b6c90919063ffffffff16565b6000808473ffffffffffffffffffffffffffffffffffffffff1673ffffffffffffffffffffffffffffffffffffffff168152602001908152602001600020819055508173ffffffffffffffffffffffffffffffffffffffff168373ffffffffffffffffffffffffffffffffffffffff167fddf252ad1be2c89b69c2b068fc378daa952ba7f163c4a11628f55a4df523b3ef836040516138c2919061577c565b60405180910390a3505050565b6000838311158290613917576040517f08c379a000000000000000000000000000000000000000000000000000000000815260040161390e91906154d1565b60405180910390fd5b5060008385039050809150509392505050565b60008083141561393d5760009050613994565b600082840290508284828161394e57fe5b041461398f576040517f08c379a0000000000000000000000000000000000000000000000000000000008152600401613986906155d3565b60405180910390fd5b809150505b92915050565b60006139dc83836040518060400160405280601a81526020017f536166654d6174683a206469766973696f6e206279207a65726f000000000000815250613f2a565b905092915050565b600073ffffffffffffffffffffffffffffffffffffffff168273ffffffffffffffffffffffffffffffffffffffff161415613a54576040517f08c379a0000000000000000000000000000000000000000000000000000000008152600401613a4b90615733565b60405180910390fd5b613a6981600254613b6c90919063ffffffff16565b600281905550613ac0816000808573ffffffffffffffffffffffffffffffffffffffff1673ffffffffffffffffffffffffffffffffffffffff16815260200190815260200160002054613b6c90919063ffffffff16565b6000808473ffffffffffffffffffffffffffffffffffffffff1673ffffffffffffffffffffffffffffffffffffffff168152602001908152602001600020819055508173ffffffffffffffffffffffffffffffffffffffff16600073ffffffffffffffffffffffffffffffffffffffff167fddf252ad1be2c89b69c2b068fc378daa952ba7f163c4a11628f55a4df523b3ef83604051613b60919061577c565b60405180910390a35050565b600080828401905083811015613bb7576040517f08c379a0000000000000000000000000000000000000000000000000000000008152600401613bae90615593565b60405180910390fd5b8091505092915050565b6000613bcb611971565b90506000811115613be057613bdf81613f8b565b5b613be86117aa565b90506000811115613bfd57613bfc8161407d565b5b613c05610fd6565b90506000811115613c1a57613c19816142b7565b5b613c226129ee565b90506000811115613c3757613c36816143ab565b5b50565b6000613c7c83836040518060400160405280601e81526020017f536166654d6174683a207375627472616374696f6e206f766572666c6f7700008152506138cf565b905092915050565b60026004811115613c9157fe5b601060149054906101000a900460ff166004811115613cac57fe5b1415613cbc57613cbb8161443b565b5b60036004811115613cc957fe5b601060149054906101000a900460ff166004811115613ce457fe5b1415613d3e5780613cf36129ee565b1015613d34576040517f08c379a0000000000000000000000000000000000000000000000000000000008152600401613d2b90615693565b60405180910390fd5b613d3d816143ab565b5b60016004811115613d4b57fe5b601060149054906101000a900460ff166004811115613d6657fe5b1415613dc05780613d756117aa565b1015613db6576040517f08c379a0000000000000000000000000000000000000000000000000000000008152600401613dad90615693565b60405180910390fd5b613dbf8161407d565b5b600480811115613dcc57fe5b601060149054906101000a900460ff166004811115613de757fe5b1415613df757613df6816142b7565b5b50565b600073ffffffffffffffffffffffffffffffffffffffff168173ffffffffffffffffffffffffffffffffffffffff161415613e6a576040517f08c379a0000000000000000000000000000000000000000000000000000000008152600401613e6190615533565b60405180910390fd5b8073ffffffffffffffffffffffffffffffffffffffff16600760009054906101000a900473ffffffffffffffffffffffffffffffffffffffff1673ffffffffffffffffffffffffffffffffffffffff167f8be0079c531659141344cd1fd0a4f28419497f9722a3daafe3b4186f6b6457e060405160405180910390a380600760006101000a81548173ffffffffffffffffffffffffffffffffffffffff021916908373ffffffffffffffffffffffffffffffffffffffff16021790555050565b60008083118290613f71576040517f08c379a0000000000000000000000000000000000000000000000000000000008152600401613f6891906154d1565b60405180910390fd5b506000838581613f7d57fe5b049050809150509392505050565b6000600a60009054906101000a900473ffffffffffffffffffffffffffffffffffffffff1673ffffffffffffffffffffffffffffffffffffffff1663db006a75836040518263ffffffff1660e01b8152600401613fe8919061577c565b602060405180830381600087803b15801561400257600080fd5b505af1158015614016573d6000803e3d6000fd5b505050506040513d601f19601f8201168201806040525061403a91908101906149d8565b1461407a576040517f08c379a000000000000000000000000000000000000000000000000000000000815260040161407190615513565b60405180910390fd5b50565b606060016040519080825280602002602001820160405280156140ba57816020015b6140a76144ce565b81526020019060019003908161409f5790505b50905060405180604001604052803073ffffffffffffffffffffffffffffffffffffffff1681526020016000815250816000815181106140f657fe5b60200260200101819052506141096144fe565b604051806080016040528060001515815260200160008081111561412957fe5b815260200160008081111561413a57fe5b815260200184815250905061414d61453c565b60018160000190600181111561415f57fe5b9081600181111561416c57fe5b815250506000816020018181525050818160400181905250600f54816060018181525050308160a0019073ffffffffffffffffffffffffffffffffffffffff16908173ffffffffffffffffffffffffffffffffffffffff16815250506060600160405190808252806020026020018201604052801561420557816020015b6141f26145a8565b8152602001906001900390816141ea5790505b509050818160008151811061421657fe5b6020026020010181905250600e60009054906101000a900473ffffffffffffffffffffffffffffffffffffffff1673ffffffffffffffffffffffffffffffffffffffff1663a67a6a4585836040518363ffffffff1660e01b815260040161427e929190615464565b600060405180830381600087803b15801561429857600080fd5b505af11580156142ac573d6000803e3d6000fd5b505050505050505050565b6000600b60009054906101000a900473ffffffffffffffffffffffffffffffffffffffff1673ffffffffffffffffffffffffffffffffffffffff16639dc29fac30846040518363ffffffff1660e01b81526004016143169291906153db565b602060405180830381600087803b15801561433057600080fd5b505af1158015614344573d6000803e3d6000fd5b505050506040513d601f19601f8201168201806040525061436891908101906149d8565b116143a8576040517f08c379a000000000000000000000000000000000000000000000000000000000815260040161439f906155f3565b60405180910390fd5b50565b600d60009054906101000a900473ffffffffffffffffffffffffffffffffffffffff1673ffffffffffffffffffffffffffffffffffffffff1663db006a75826040518263ffffffff1660e01b8152600401614406919061577c565b600060405180830381600087803b15801561442057600080fd5b505af1158015614434573d6000803e3d6000fd5b5050505050565b6000614445611971565b9050600061445161271c565b905082811015614496576040517f08c379a000000000000000000000000000000000000000000000000000000000815260040161448d90615693565b60405180910390fd5b60006144bd826144af868661392a90919063ffffffff16565b61399a90919063ffffffff16565b90506144c881613f8b565b50505050565b6040518060400160405280600073ffffffffffffffffffffffffffffffffffffffff168152602001600081525090565b604051806080016040528060001515815260200160008081111561451e57fe5b815260200160008081111561452f57fe5b8152602001600081525090565b6040518061010001604052806000600181111561455557fe5b815260200160008152602001614569614630565b81526020016000815260200160008152602001600073ffffffffffffffffffffffffffffffffffffffff16815260200160008152602001606081525090565b604051806101000160405280600060018111156145c157fe5b8152602001600081526020016145d5614630565b81526020016000815260200160008152602001600073ffffffffffffffffffffffffffffffffffffffff16815260200160008152602001606081525090565b6040518060400160405280600015158152602001600081525090565b604051806080016040528060001515815260200160008081111561465057fe5b815260200160008081111561466157fe5b8152602001600081525090565b60008135905061467d81615a89565b92915050565b60008151905061469281615a89565b92915050565b6000815190506146a781615aa0565b92915050565b6000813590506146bc81615ab7565b92915050565b600082601f8301126146d357600080fd5b81516146e66146e1826157df565b6157b2565b9150808252602083016020830185838301111561470257600080fd5b61470d838284615a11565b50505092915050565b60006040828403121561472857600080fd5b61473260406157b2565b9050600061474284828501614698565b600083015250602061475684828501614777565b60208301525092915050565b60008135905061477181615ace565b92915050565b60008151905061478681615ace565b92915050565b60006020828403121561479e57600080fd5b60006147ac8482850161466e565b91505092915050565b6000602082840312156147c757600080fd5b60006147d584828501614683565b91505092915050565b600080604083850312156147f157600080fd5b60006147ff8582860161466e565b92505060206148108582860161466e565b9150509250929050565b60008060006060848603121561482f57600080fd5b600061483d8682870161466e565b935050602061484e8682870161466e565b925050604061485f86828701614762565b9150509250925092565b6000806040838503121561487c57600080fd5b600061488a8582860161466e565b925050602061489b85828601614762565b9150509250929050565b6000602082840312156148b757600080fd5b60006148c584828501614698565b91505092915050565b6000602082840312156148e057600080fd5b60006148ee848285016146ad565b91505092915050565b600080600080600060a0868803121561490f57600080fd5b600086015167ffffffffffffffff81111561492957600080fd5b614935888289016146c2565b955050602061494688828901614777565b945050604061495788828901614777565b935050606061496888828901614777565b925050608061497988828901614777565b9150509295509295909350565b60006040828403121561499857600080fd5b60006149a684828501614716565b91505092915050565b6000602082840312156149c157600080fd5b60006149cf84828501614762565b91505092915050565b6000602082840312156149ea57600080fd5b60006149f884828501614777565b91505092915050565b6000614a0d83836151c6565b905092915050565b6000614a2183836152ce565b60408301905092915050565b614a3681615981565b82525050565b614a45816158c0565b82525050565b614a54816158c0565b82525050565b6000614a658261582b565b614a6f8185615871565b935083602082028501614a818561580b565b8060005b85811015614abd5784840389528151614a9e8582614a01565b9450614aa983615857565b925060208a01995050600181019050614a85565b50829750879550505050505092915050565b6000614ada82615836565b614ae48185615882565b9350614aef8361581b565b8060005b83811015614b20578151614b078882614a15565b9750614b1283615864565b925050600181019050614af3565b5085935050505092915050565b614b36816158d2565b82525050565b614b45816158d2565b82525050565b6000614b5682615841565b614b608185615893565b9350614b70818560208601615a11565b614b7981615a44565b840191505092915050565b614b8d81615993565b82525050565b614b9c816159a5565b82525050565b614bab816159b7565b82525050565b614bba816159c9565b82525050565b614bc9816159db565b82525050565b6000614bda8261584c565b614be481856158af565b9350614bf4818560208601615a11565b614bfd81615a44565b840191505092915050565b6000614c156023836158af565b91507f45524332303a207472616e7366657220746f20746865207a65726f206164647260008301527f65737300000000000000000000000000000000000000000000000000000000006020830152604082019050919050565b6000614c7b6019836158af565b91507f434f4d504f554e443a207769746864726177206661696c6564000000000000006000830152602082019050919050565b6000614cbb6026836158af565b91507f4f776e61626c653a206e6577206f776e657220697320746865207a65726f206160008301527f64647265737300000000000000000000000000000000000000000000000000006020830152604082019050919050565b6000614d216022836158af565b91507f45524332303a20617070726f766520746f20746865207a65726f20616464726560008301527f73730000000000000000000000000000000000000000000000000000000000006020830152604082019050919050565b6000614d876017836158af565b91507f434f4d504f554e443a20737570706c79206661696c65640000000000000000006000830152602082019050919050565b6000614dc7601b836158af565b91507f536166654d6174683a206164646974696f6e206f766572666c6f7700000000006000830152602082019050919050565b6000614e076016836158af565b91507f7472616e73666572206f6620455448206661696c6564000000000000000000006000830152602082019050919050565b6000614e476021836158af565b91507f536166654d6174683a206d756c7469706c69636174696f6e206f766572666c6f60008301527f77000000000000000000000000000000000000000000000000000000000000006020830152604082019050919050565b6000614ead6018836158af565b91507f46554c4352554d3a207769746864726177206661696c656400000000000000006000830152602082019050919050565b6000614eed6020836158af565b91507f4f776e61626c653a2063616c6c6572206973206e6f7420746865206f776e65726000830152602082019050919050565b6000614f2d6014836158af565b91507f696e73756666696369656e742062616c616e63650000000000000000000000006000830152602082019050919050565b6000614f6d601f836158af565b91507f7769746864726177206d7573742062652067726561746572207468616e2030006000830152602082019050919050565b6000614fad6025836158af565b91507f45524332303a207472616e736665722066726f6d20746865207a65726f20616460008301527f64726573730000000000000000000000000000000000000000000000000000006020830152604082019050919050565b60006150136000836158a4565b9150600082019050919050565b600061502d6012836158af565b91507f696e73756666696369656e742066756e647300000000000000000000000000006000830152602082019050919050565b600061506d6024836158af565b91507f45524332303a20617070726f76652066726f6d20746865207a65726f2061646460008301527f72657373000000000000000000000000000000000000000000000000000000006020830152604082019050919050565b60006150d3601e836158af565b91507f6465706f736974206d7573742062652067726561746572207468616e203000006000830152602082019050919050565b60006151136016836158af565b91507f46554c4352554d3a20737570706c79206661696c6564000000000000000000006000830152602082019050919050565b6000615153601f836158af565b91507f5265656e7472616e637947756172643a207265656e7472616e742063616c6c006000830152602082019050919050565b6000615193601f836158af565b91507f45524332303a206d696e7420746f20746865207a65726f2061646472657373006000830152602082019050919050565b6000610160830160008301516151df6000860182614b84565b5060208301516151f2602086018261532c565b5060408301516152056040860182615279565b50606083015161521860c086018261532c565b50608083015161522b60e086018261532c565b5060a083015161523f610100860182614a3c565b5060c083015161525361012086018261532c565b5060e083015184820361014086015261526c8282614b4b565b9150508091505092915050565b60808201600082015161528f6000850182614b2d565b5060208201516152a26020850182614b93565b5060408201516152b56040850182614ba2565b5060608201516152c8606085018261532c565b50505050565b6040820160008201516152e46000850182614a3c565b5060208201516152f7602085018261532c565b50505050565b6040820160008201516153136000850182614a3c565b506020820151615326602085018261532c565b50505050565b6153358161596a565b82525050565b6153448161596a565b82525050565b61535381615974565b82525050565b600061536482615006565b9150819050919050565b60006020820190506153836000830184614a4b565b92915050565b600060208201905061539e6000830184614a2d565b92915050565b60006060820190506153b96000830186614a2d565b6153c66020830185614a2d565b6153d3604083018461533b565b949350505050565b60006040820190506153f06000830185614a2d565b6153fd602083018461533b565b9392505050565b60006040820190506154196000830185614a4b565b615426602083018461533b565b9392505050565b60006060820190506154426000830186614a4b565b61544f602083018561533b565b61545c6040830184614bc0565b949350505050565b6000604082019050818103600083015261547e8185614acf565b905081810360208301526154928184614a5a565b90509392505050565b60006020820190506154b06000830184614b3c565b92915050565b60006020820190506154cb6000830184614bb1565b92915050565b600060208201905081810360008301526154eb8184614bcf565b905092915050565b6000602082019050818103600083015261550c81614c08565b9050919050565b6000602082019050818103600083015261552c81614c6e565b9050919050565b6000602082019050818103600083015261554c81614cae565b9050919050565b6000602082019050818103600083015261556c81614d14565b9050919050565b6000602082019050818103600083015261558c81614d7a565b9050919050565b600060208201905081810360008301526155ac81614dba565b9050919050565b600060208201905081810360008301526155cc81614dfa565b9050919050565b600060208201905081810360008301526155ec81614e3a565b9050919050565b6000602082019050818103600083015261560c81614ea0565b9050919050565b6000602082019050818103600083015261562c81614ee0565b9050919050565b6000602082019050818103600083015261564c81614f20565b9050919050565b6000602082019050818103600083015261566c81614f60565b9050919050565b6000602082019050818103600083015261568c81614fa0565b9050919050565b600060208201905081810360008301526156ac81615020565b9050919050565b600060208201905081810360008301526156cc81615060565b9050919050565b600060208201905081810360008301526156ec816150c6565b9050919050565b6000602082019050818103600083015261570c81615106565b9050919050565b6000602082019050818103600083015261572c81615146565b9050919050565b6000602082019050818103600083015261574c81615186565b9050919050565b600060608201905061576860008301856152fd565b615775604083018461533b565b9392505050565b6000602082019050615791600083018461533b565b92915050565b60006020820190506157ac600083018461534a565b92915050565b6000604051905081810181811067ffffffffffffffff821117156157d557600080fd5b8060405250919050565b600067ffffffffffffffff8211156157f657600080fd5b601f19601f8301169050602081019050919050565b6000819050602082019050919050565b6000819050602082019050919050565b600081519050919050565b600081519050919050565b600081519050919050565b600081519050919050565b6000602082019050919050565b6000602082019050919050565b600082825260208201905092915050565b600082825260208201905092915050565b600082825260208201905092915050565b600081905092915050565b600082825260208201905092915050565b60006158cb8261594a565b9050919050565b60008115159050919050565b60006158e9826158c0565b9050919050565b60008190506158fe82615a55565b919050565b600081905061591182615a62565b919050565b600081905061592482615a6f565b919050565b600081905061593782615a7c565b919050565b600061ffff82169050919050565b600073ffffffffffffffffffffffffffffffffffffffff82169050919050565b6000819050919050565b600060ff82169050919050565b600061598c826159ed565b9050919050565b600061599e826158f0565b9050919050565b60006159b082615903565b9050919050565b60006159c282615916565b9050919050565b60006159d482615929565b9050919050565b60006159e68261593c565b9050919050565b60006159f8826159ff565b9050919050565b6000615a0a8261594a565b9050919050565b60005b83811015615a2f578082015181840152602081019050615a14565b83811115615a3e576000848401525b50505050565b6000601f19601f8301169050919050565b60028110615a5f57fe5b50565b60018110615a6c57fe5b50565b60018110615a7957fe5b50565b60058110615a8657fe5b50565b615a92816158c0565b8114615a9d57600080fd5b50565b615aa9816158d2565b8114615ab457600080fd5b50565b615ac0816158de565b8114615acb57600080fd5b50565b615ad78161596a565b8114615ae257600080fd5b5056fe45524332303a207472616e7366657220616d6f756e7420657863656564732062616c616e636545524332303a207472616e7366657220616d6f756e74206578636565647320616c6c6f77616e636545524332303a2064656372656173656420616c6c6f77616e63652062656c6f77207a65726fa365627a7a723158207dd8b1df3368abaf7ebdf430ccc99de426a596a7b2cc26d347d0f43e87d97bd86c6578706572696d656e74616cf564736f6c634300050c0040",
  "source": "pragma solidity ^0.5.0;\npragma experimental ABIEncoderV2;\n\ninterface IERC20 {\n    function totalSupply() external view returns (uint256);\n    function balanceOf(address account) external view returns (uint256);\n    function transfer(address recipient, uint256 amount) external returns (bool);\n    function allowance(address owner, address spender) external view returns (uint256);\n    function approve(address spender, uint256 amount) external returns (bool);\n    function transferFrom(address sender, address recipient, uint256 amount) external returns (bool);\n    event Transfer(address indexed from, address indexed to, uint256 value);\n    event Approval(address indexed owner, address indexed spender, uint256 value);\n}\n\ncontract Context {\n    constructor () internal { }\n    // solhint-disable-previous-line no-empty-blocks\n\n    function _msgSender() internal view returns (address payable) {\n        return msg.sender;\n    }\n\n    function _msgData() internal view returns (bytes memory) {\n        this; // silence state mutability warning without generating bytecode - see https://github.com/ethereum/solidity/issues/2691\n        return msg.data;\n    }\n}\n\ncontract ERC20 is Context, IERC20 {\n    using SafeMath for uint256;\n\n    mapping (address => uint256) _balances;\n\n    mapping (address => mapping (address => uint256)) private _allowances;\n\n    uint256 _totalSupply;\n    function totalSupply() public view returns (uint256) {\n        return _totalSupply;\n    }\n    function balanceOf(address account) public view returns (uint256) {\n        return _balances[account];\n    }\n    function transfer(address recipient, uint256 amount) public returns (bool) {\n        _transfer(_msgSender(), recipient, amount);\n        return true;\n    }\n    function allowance(address owner, address spender) public view returns (uint256) {\n        return _allowances[owner][spender];\n    }\n    function approve(address spender, uint256 amount) public returns (bool) {\n        _approve(_msgSender(), spender, amount);\n        return true;\n    }\n    function transferFrom(address sender, address recipient, uint256 amount) public returns (bool) {\n        _transfer(sender, recipient, amount);\n        _approve(sender, _msgSender(), _allowances[sender][_msgSender()].sub(amount, \"ERC20: transfer amount exceeds allowance\"));\n        return true;\n    }\n    function increaseAllowance(address spender, uint256 addedValue) public returns (bool) {\n        _approve(_msgSender(), spender, _allowances[_msgSender()][spender].add(addedValue));\n        return true;\n    }\n    function decreaseAllowance(address spender, uint256 subtractedValue) public returns (bool) {\n        _approve(_msgSender(), spender, _allowances[_msgSender()][spender].sub(subtractedValue, \"ERC20: decreased allowance below zero\"));\n        return true;\n    }\n    function _transfer(address sender, address recipient, uint256 amount) internal {\n        require(sender != address(0), \"ERC20: transfer from the zero address\");\n        require(recipient != address(0), \"ERC20: transfer to the zero address\");\n\n        _balances[sender] = _balances[sender].sub(amount, \"ERC20: transfer amount exceeds balance\");\n        _balances[recipient] = _balances[recipient].add(amount);\n        emit Transfer(sender, recipient, amount);\n    }\n    function _mint(address account, uint256 amount) internal {\n        require(account != address(0), \"ERC20: mint to the zero address\");\n\n        _totalSupply = _totalSupply.add(amount);\n        _balances[account] = _balances[account].add(amount);\n        emit Transfer(address(0), account, amount);\n    }\n    function _burn(address account, uint256 amount) internal {\n        require(account != address(0), \"ERC20: burn from the zero address\");\n\n        _balances[account] = _balances[account].sub(amount, \"ERC20: burn amount exceeds balance\");\n        _totalSupply = _totalSupply.sub(amount);\n        emit Transfer(account, address(0), amount);\n    }\n    function _approve(address owner, address spender, uint256 amount) internal {\n        require(owner != address(0), \"ERC20: approve from the zero address\");\n        require(spender != address(0), \"ERC20: approve to the zero address\");\n\n        _allowances[owner][spender] = amount;\n        emit Approval(owner, spender, amount);\n    }\n    function _burnFrom(address account, uint256 amount) internal {\n        _burn(account, amount);\n        _approve(account, _msgSender(), _allowances[account][_msgSender()].sub(amount, \"ERC20: burn amount exceeds allowance\"));\n    }\n}\n\ncontract ERC20Detailed is IERC20 {\n    string private _name;\n    string private _symbol;\n    uint8 private _decimals;\n\n    constructor (string memory name, string memory symbol, uint8 decimals) public {\n        _name = name;\n        _symbol = symbol;\n        _decimals = decimals;\n    }\n    function name() public view returns (string memory) {\n        return _name;\n    }\n    function symbol() public view returns (string memory) {\n        return _symbol;\n    }\n    function decimals() public view returns (uint8) {\n        return _decimals;\n    }\n}\n\ncontract ReentrancyGuard {\n    uint256 private _guardCounter;\n\n    constructor () internal {\n        _guardCounter = 1;\n    }\n\n    modifier nonReentrant() {\n        _guardCounter += 1;\n        uint256 localCounter = _guardCounter;\n        _;\n        require(localCounter == _guardCounter, \"ReentrancyGuard: reentrant call\");\n    }\n}\n\ncontract Ownable is Context {\n    address private _owner;\n\n    event OwnershipTransferred(address indexed previousOwner, address indexed newOwner);\n    constructor () internal {\n        _owner = _msgSender();\n        emit OwnershipTransferred(address(0), _owner);\n    }\n    function owner() public view returns (address) {\n        return _owner;\n    }\n    modifier onlyOwner() {\n        require(isOwner(), \"Ownable: caller is not the owner\");\n        _;\n    }\n    function isOwner() public view returns (bool) {\n        return _msgSender() == _owner;\n    }\n    function renounceOwnership() public onlyOwner {\n        emit OwnershipTransferred(_owner, address(0));\n        _owner = address(0);\n    }\n    function transferOwnership(address newOwner) public onlyOwner {\n        _transferOwnership(newOwner);\n    }\n    function _transferOwnership(address newOwner) internal {\n        require(newOwner != address(0), \"Ownable: new owner is the zero address\");\n        emit OwnershipTransferred(_owner, newOwner);\n        _owner = newOwner;\n    }\n}\n\nlibrary SafeMath {\n    function add(uint256 a, uint256 b) internal pure returns (uint256) {\n        uint256 c = a + b;\n        require(c >= a, \"SafeMath: addition overflow\");\n\n        return c;\n    }\n    function sub(uint256 a, uint256 b) internal pure returns (uint256) {\n        return sub(a, b, \"SafeMath: subtraction overflow\");\n    }\n    function sub(uint256 a, uint256 b, string memory errorMessage) internal pure returns (uint256) {\n        require(b <= a, errorMessage);\n        uint256 c = a - b;\n\n        return c;\n    }\n    function mul(uint256 a, uint256 b) internal pure returns (uint256) {\n        if (a == 0) {\n            return 0;\n        }\n\n        uint256 c = a * b;\n        require(c / a == b, \"SafeMath: multiplication overflow\");\n\n        return c;\n    }\n    function div(uint256 a, uint256 b) internal pure returns (uint256) {\n        return div(a, b, \"SafeMath: division by zero\");\n    }\n    function div(uint256 a, uint256 b, string memory errorMessage) internal pure returns (uint256) {\n        // Solidity only automatically asserts when dividing by 0\n        require(b > 0, errorMessage);\n        uint256 c = a / b;\n\n        return c;\n    }\n    function mod(uint256 a, uint256 b) internal pure returns (uint256) {\n        return mod(a, b, \"SafeMath: modulo by zero\");\n    }\n    function mod(uint256 a, uint256 b, string memory errorMessage) internal pure returns (uint256) {\n        require(b != 0, errorMessage);\n        return a % b;\n    }\n}\n\nlibrary Address {\n    function isContract(address account) internal view returns (bool) {\n        bytes32 codehash;\n        bytes32 accountHash = 0xc5d2460186f7233c927e7db2dcc703c0e500b653ca82273b7bfad8045d85a470;\n        // solhint-disable-next-line no-inline-assembly\n        assembly { codehash := extcodehash(account) }\n        return (codehash != 0x0 && codehash != accountHash);\n    }\n    function toPayable(address account) internal pure returns (address payable) {\n        return address(uint160(account));\n    }\n    function sendValue(address payable recipient, uint256 amount) internal {\n        require(address(this).balance >= amount, \"Address: insufficient balance\");\n\n        // solhint-disable-next-line avoid-call-value\n        (bool success, ) = recipient.call.value(amount)(\"\");\n        require(success, \"Address: unable to send value, recipient may have reverted\");\n    }\n}\n\nlibrary SafeERC20 {\n    using SafeMath for uint256;\n    using Address for address;\n\n    function safeTransfer(IERC20 token, address to, uint256 value) internal {\n        callOptionalReturn(token, abi.encodeWithSelector(token.transfer.selector, to, value));\n    }\n\n    function safeTransferFrom(IERC20 token, address from, address to, uint256 value) internal {\n        callOptionalReturn(token, abi.encodeWithSelector(token.transferFrom.selector, from, to, value));\n    }\n\n    function safeApprove(IERC20 token, address spender, uint256 value) internal {\n        require((value == 0) || (token.allowance(address(this), spender) == 0),\n            \"SafeERC20: approve from non-zero to non-zero allowance\"\n        );\n        callOptionalReturn(token, abi.encodeWithSelector(token.approve.selector, spender, value));\n    }\n\n    function safeIncreaseAllowance(IERC20 token, address spender, uint256 value) internal {\n        uint256 newAllowance = token.allowance(address(this), spender).add(value);\n        callOptionalReturn(token, abi.encodeWithSelector(token.approve.selector, spender, newAllowance));\n    }\n\n    function safeDecreaseAllowance(IERC20 token, address spender, uint256 value) internal {\n        uint256 newAllowance = token.allowance(address(this), spender).sub(value, \"SafeERC20: decreased allowance below zero\");\n        callOptionalReturn(token, abi.encodeWithSelector(token.approve.selector, spender, newAllowance));\n    }\n    function callOptionalReturn(IERC20 token, bytes memory data) private {\n        require(address(token).isContract(), \"SafeERC20: call to non-contract\");\n\n        // solhint-disable-next-line avoid-low-level-calls\n        (bool success, bytes memory returndata) = address(token).call(data);\n        require(success, \"SafeERC20: low-level call failed\");\n\n        if (returndata.length > 0) { // Return data is optional\n            // solhint-disable-next-line max-line-length\n            require(abi.decode(returndata, (bool)), \"SafeERC20: ERC20 operation did not succeed\");\n        }\n    }\n}\n\ninterface Compound {\n    function mint ( uint256 mintAmount ) external returns ( uint256 );\n    function redeem(uint256 redeemTokens) external returns (uint256);\n    function exchangeRateStored() external view returns (uint);\n}\n\ninterface Fulcrum {\n    function mint(address receiver, uint256 amount) external payable returns (uint256 mintAmount);\n    function burn(address receiver, uint256 burnAmount) external returns (uint256 loanAmountPaid);\n    function assetBalanceOf(address _owner) external view returns (uint256 balance);\n}\n\ninterface ILendingPoolAddressesProvider {\n    function getLendingPool() external view returns (address);\n}\n\ninterface Aave {\n    function deposit(address _reserve, uint256 _amount, uint16 _referralCode) external;\n}\n\ninterface AToken {\n    function redeem(uint256 amount) external;\n}\n\ninterface IIEarnManager {\n    function recommend(address _token) external view returns (\n      string memory choice,\n      uint256 capr,\n      uint256 iapr,\n      uint256 aapr,\n      uint256 dapr\n    );\n}\n\ncontract Structs {\n    struct Val {\n        uint256 value;\n    }\n\n    enum ActionType {\n        Deposit,   // supply tokens\n        Withdraw  // borrow tokens\n    }\n\n    enum AssetDenomination {\n        Wei // the amount is denominated in wei\n    }\n\n    enum AssetReference {\n        Delta // the amount is given as a delta from the current value\n    }\n\n    struct AssetAmount {\n        bool sign; // true if positive\n        AssetDenomination denomination;\n        AssetReference ref;\n        uint256 value;\n    }\n\n    struct ActionArgs {\n        ActionType actionType;\n        uint256 accountId;\n        AssetAmount amount;\n        uint256 primaryMarketId;\n        uint256 secondaryMarketId;\n        address otherAddress;\n        uint256 otherAccountId;\n        bytes data;\n    }\n\n    struct Info {\n        address owner;  // The address that owns the account\n        uint256 number; // A nonce that allows a single address to control many accounts\n    }\n\n    struct Wei {\n        bool sign; // true if positive\n        uint256 value;\n    }\n}\n\ncontract DyDx is Structs {\n    function getAccountWei(Info memory account, uint256 marketId) public view returns (Wei memory);\n    function operate(Info[] memory, ActionArgs[] memory) public;\n}\n\ninterface LendingPoolAddressesProvider {\n    function getLendingPool() external view returns (address);\n    function getLendingPoolCore() external view returns (address);\n}\n\ncontract yWBTC is ERC20, ERC20Detailed, ReentrancyGuard, Ownable, Structs {\n  using SafeERC20 for IERC20;\n  using Address for address;\n  using SafeMath for uint256;\n\n  uint256 public pool;\n  address public token;\n  address public compound;\n  address public fulcrum;\n  address public aave;\n  address public aaveToken;\n  address public dydx;\n  uint256 public dToken;\n  address public apr;\n\n  enum Lender {\n      NONE,\n      DYDX,\n      COMPOUND,\n      AAVE,\n      FULCRUM\n  }\n\n  Lender public provider = Lender.NONE;\n\n  constructor () public ERC20Detailed(\"yBTC\", \"yBTC\", 8) {\n    token = address(0x2260FAC5E5542a773Aa44fBCfeDf7C193bc2C599);\n    apr = address(0x318135fbD0b40D48fCEF431CCdF6C7926450edFB);\n    dydx = address(0x1E0447b19BB6EcFdAe1e4AE1694b0C3659614e4e);\n    aave = address(0x24a42fD28C976A61Df5D00D0599C34c4f90748c8);\n    fulcrum = address(0xBA9262578EFef8b3aFf7F60Cd629d6CC8859C8b5);\n    aaveToken = address(0xFC4B8ED459e00e5400be803A9BB3954234FD50e3);\n    compound = address(0xC11b1268C1A384e55C48c2391d8d480264A3A7F4);\n    dToken = 0;\n    approveToken();\n  }\n  function set_new_AAVE(address _new_AAVE) public onlyOwner {\n      aave = _new_AAVE;\n  }\n  function set_new_DYDX(address _new_DYDX) public onlyOwner {\n      dydx = _new_DYDX;\n  }\n  function set_new_APR(address _new_APR) public onlyOwner {\n      apr = _new_APR;\n  }\n  function set_new_FULCRUM(address _new_FULCRUM) public onlyOwner {\n      fulcrum = _new_FULCRUM;\n  }\n  function set_new_ATOKEN(address _new_ATOKEN) public onlyOwner {\n      aaveToken = _new_ATOKEN;\n  }\n  function set_new_COMPOUND(address _new_COMPOUND) public onlyOwner {\n      compound = _new_COMPOUND;\n  }\n  function set_new_DTOKEN(uint256 _new_DTOKEN) public onlyOwner {\n      dToken = _new_DTOKEN;\n  }\n\n  function() external payable {\n\n  }\n\n  function recommend() public view returns (Lender) {\n    (,uint256 capr,uint256 iapr,uint256 aapr,uint256 dapr) = IIEarnManager(apr).recommend(token);\n    uint256 max = 0;\n    if (capr > max) {\n      max = capr;\n    }\n    if (iapr > max) {\n      max = iapr;\n    }\n    if (aapr > max) {\n      max = aapr;\n    }\n    if (dapr > max) {\n      max = dapr;\n    }\n\n    Lender newProvider = Lender.NONE;\n    if (max == dapr) {\n      newProvider = Lender.DYDX;\n    }\n    if (max == aapr) {\n      newProvider = Lender.AAVE;\n    }\n    if (max == iapr) {\n      newProvider = Lender.FULCRUM;\n    }\n    if (max == capr) {\n      newProvider = Lender.COMPOUND;\n    }\n    return newProvider;\n  }\n\n  function supplyDydx(uint256 amount) public returns(uint) {\n      Info[] memory infos = new Info[](1);\n      infos[0] = Info(address(this), 0);\n\n      AssetAmount memory amt = AssetAmount(true, AssetDenomination.Wei, AssetReference.Delta, amount);\n      ActionArgs memory act;\n      act.actionType = ActionType.Deposit;\n      act.accountId = 0;\n      act.amount = amt;\n      act.primaryMarketId = dToken;\n      act.otherAddress = address(this);\n\n      ActionArgs[] memory args = new ActionArgs[](1);\n      args[0] = act;\n\n      DyDx(dydx).operate(infos, args);\n  }\n\n  function withdrawDydx(uint256 amount) internal {\n      Info[] memory infos = new Info[](1);\n      infos[0] = Info(address(this), 0);\n\n      AssetAmount memory amt = AssetAmount(false, AssetDenomination.Wei, AssetReference.Delta, amount);\n      ActionArgs memory act;\n      act.actionType = ActionType.Withdraw;\n      act.accountId = 0;\n      act.amount = amt;\n      act.primaryMarketId = dToken;\n      act.otherAddress = address(this);\n\n      ActionArgs[] memory args = new ActionArgs[](1);\n      args[0] = act;\n\n      DyDx(dydx).operate(infos, args);\n  }\n\n  function balance() public view returns (uint256) {\n    return IERC20(token).balanceOf(address(this));\n  }\n\n  function getAave() public view returns (address) {\n    return LendingPoolAddressesProvider(aave).getLendingPool();\n  }\n  function getAaveCore() public view returns (address) {\n    return LendingPoolAddressesProvider(aave).getLendingPoolCore();\n  }\n\n  function approveToken() public {\n      IERC20(token).approve(compound, uint(-1)); //also add to constructor\n      IERC20(token).approve(dydx, uint(-1));\n      IERC20(token).approve(getAaveCore(), uint(-1));\n      IERC20(token).approve(fulcrum, uint(-1));\n  }\n\n  function balanceDydx() public view returns (uint256) {\n      Wei memory bal = DyDx(dydx).getAccountWei(Info(address(this), 0), dToken);\n      return bal.value;\n  }\n  function balanceCompound() public view returns (uint256) {\n      return IERC20(compound).balanceOf(address(this));\n  }\n  function balanceCompoundInToken() public view returns (uint256) {\n    // Mantisa 1e18 to decimals\n    uint256 b = balanceCompound();\n    if (b > 0) {\n      b = b.mul(Compound(compound).exchangeRateStored()).div(1e18);\n    }\n    return b;\n  }\n  function balanceFulcrumInToken() public view returns (uint256) {\n    uint256 b = balanceFulcrum();\n    if (b > 0) {\n      b = Fulcrum(fulcrum).assetBalanceOf(address(this));\n    }\n    return b;\n  }\n  function balanceFulcrum() public view returns (uint256) {\n    return IERC20(fulcrum).balanceOf(address(this));\n  }\n  function balanceAave() public view returns (uint256) {\n    return IERC20(aaveToken).balanceOf(address(this));\n  }\n\n  function withdrawAll() internal {\n    uint256 amount = balanceCompound();\n    if (amount > 0) {\n      withdrawCompound(amount);\n    }\n    amount = balanceDydx();\n    if (amount > 0) {\n      withdrawDydx(amount);\n    }\n    amount = balanceFulcrum();\n    if (amount > 0) {\n      withdrawFulcrum(amount);\n    }\n    amount = balanceAave();\n    if (amount > 0) {\n      withdrawAave(amount);\n    }\n  }\n\n  function withdrawSomeCompound(uint256 _amount) internal {\n    uint256 b = balanceCompound();\n    uint256 bT = balanceCompoundInToken();\n    require(bT >= _amount, \"insufficient funds\");\n    uint256 amount = b.mul(_amount).div(bT);\n    withdrawCompound(amount);\n  }\n\n  function withdrawSome(uint256 _amount) internal {\n    if (provider == Lender.COMPOUND) {\n      withdrawSomeCompound(_amount);\n    }\n    if (provider == Lender.AAVE) {\n      require(balanceAave() >= _amount, \"insufficient funds\");\n      withdrawAave(_amount);\n    }\n    if (provider == Lender.DYDX) {\n      require(balanceDydx() >= _amount, \"insufficient funds\");\n      withdrawDydx(_amount);\n    }\n    if (provider == Lender.FULCRUM) {\n      withdrawFulcrum(_amount);\n    }\n  }\n\n  function rebalance() public {\n    Lender newProvider = recommend();\n\n    if (newProvider != provider) {\n      withdrawAll();\n    }\n\n    if (balance() > 0) {\n      if (newProvider == Lender.DYDX) {\n        supplyDydx(balance());\n      }\n      if (newProvider == Lender.FULCRUM) {\n        supplyFulcrum(balance());\n      }\n      if (newProvider == Lender.COMPOUND) {\n        supplyCompound(balance());\n      }\n      if (newProvider == Lender.AAVE) {\n        supplyAave(balance());\n      }\n    }\n    provider = newProvider;\n  }\n\n  function supplyAave(uint amount) public {\n      Aave(getAave()).deposit(token, amount, 0);\n  }\n  function supplyFulcrum(uint amount) public {\n      require(Fulcrum(fulcrum).mint(address(this), amount) > 0, \"FULCRUM: supply failed\");\n  }\n  function supplyCompound(uint amount) public {\n      require(Compound(compound).mint(amount) == 0, \"COMPOUND: supply failed\");\n  }\n  function withdrawAave(uint amount) internal {\n      AToken(aaveToken).redeem(amount);\n  }\n  function withdrawFulcrum(uint amount) internal {\n      require(Fulcrum(fulcrum).burn(address(this), amount) > 0, \"FULCRUM: withdraw failed\");\n  }\n  function withdrawCompound(uint amount) internal {\n      require(Compound(compound).redeem(amount) == 0, \"COMPOUND: withdraw failed\");\n  }\n\n  // Invest ETH\n  function invest(uint256 _amount)\n      external\n      nonReentrant\n  {\n      require(_amount > 0, \"deposit must be greater than 0\");\n      pool = calcPoolValueInToken();\n\n      IERC20(token).transferFrom(msg.sender, address(this), _amount);\n\n      rebalance();\n\n      // Calculate pool shares\n      uint256 shares = 0;\n      if (pool == 0) {\n        shares = _amount;\n        pool = _amount;\n      } else {\n        shares = (_amount.mul(_totalSupply)).div(pool);\n      }\n      pool = calcPoolValueInToken();\n      _mint(msg.sender, shares);\n  }\n\n  // Invest self eth from external profits\n  function investSelf()\n      external\n      nonReentrant\n      onlyOwner\n  {\n      uint b = IERC20(token).balanceOf(address(this));\n      require(b > 0, \"deposit must be greater than 0\");\n      rebalance();\n      pool = calcPoolValueInToken();\n  }\n\n  function calcPoolValueInToken() public view returns (uint) {\n\n    return balanceCompoundInToken()\n      .add(balanceFulcrumInToken())\n      .add(balanceDydx())\n      .add(balanceAave())\n      .add(balance());\n  }\n\n  function getPricePerFullShare() public view returns (uint) {\n    uint _pool = calcPoolValueInToken();\n    return _pool.mul(1e18).div(_totalSupply);\n  }\n\n  // Redeem any invested tokens from the pool\n  function redeem(uint256 _shares)\n      external\n      nonReentrant\n  {\n      require(_shares > 0, \"withdraw must be greater than 0\");\n\n      uint256 ibalance = balanceOf(msg.sender);\n      require(_shares <= ibalance, \"insufficient balance\");\n\n      // Could have over value from cTokens\n      pool = calcPoolValueInToken();\n      // Calc eth to redeem before updating balances\n      uint256 r = (pool.mul(_shares)).div(_totalSupply);\n\n\n      _balances[msg.sender] = _balances[msg.sender].sub(_shares, \"redeem amount exceeds balance\");\n      _totalSupply = _totalSupply.sub(_shares);\n\n      emit Transfer(msg.sender, address(0), _shares);\n\n      // Check ETH balance\n      uint256 b = IERC20(token).balanceOf(address(this));\n      if (b < r) {\n        withdrawSome(r);\n      }\n\n      IERC20(token).transfer(msg.sender, r);\n\n      rebalance();\n      pool = calcPoolValueInToken();\n\n  }\n\n  // incase of half-way error\n  function inCaseTokenGetsStuck(IERC20 _TokenAddress) onlyOwner public {\n      uint qty = _TokenAddress.balanceOf(address(this));\n      _TokenAddress.transfer(msg.sender, qty);\n  }\n  // incase of half-way error\n  function inCaseETHGetsStuck() onlyOwner public{\n      (bool result, ) = msg.sender.call.value(address(this).balance)(\"\");\n      require(result, \"transfer of ETH failed\");\n  }\n}\n",
  "sourcePath": "D:/ftm/itoken/contracts/YWBTC.sol",
  "compiler": {
    "name": "solc",
    "version": "0.5.12+commit.7709ece9.Emscripten.clang"
  },
  "schemaVersion": "3.0.19",
  "updatedAt": "2020-03-09T10:09:57.121Z",
  "devdoc": {
    "methods": {}
  },
  "userdoc": {
    "methods": {}
  }
}