{
  "contractName": "yWBTC",
  "abi": [
    {
      "inputs": [],
      "payable": false,
      "stateMutability": "nonpayable",
      "type": "constructor"
    },
    {
      "anonymous": false,
      "inputs": [
        {
          "indexed": true,
          "internalType": "address",
          "name": "owner",
          "type": "address"
        },
        {
          "indexed": true,
          "internalType": "address",
          "name": "spender",
          "type": "address"
        },
        {
          "indexed": false,
          "internalType": "uint256",
          "name": "value",
          "type": "uint256"
        }
      ],
      "name": "Approval",
      "type": "event"
    },
    {
      "anonymous": false,
      "inputs": [
        {
          "indexed": true,
          "internalType": "address",
          "name": "previousOwner",
          "type": "address"
        },
        {
          "indexed": true,
          "internalType": "address",
          "name": "newOwner",
          "type": "address"
        }
      ],
      "name": "OwnershipTransferred",
      "type": "event"
    },
    {
      "anonymous": false,
      "inputs": [
        {
          "indexed": true,
          "internalType": "address",
          "name": "from",
          "type": "address"
        },
        {
          "indexed": true,
          "internalType": "address",
          "name": "to",
          "type": "address"
        },
        {
          "indexed": false,
          "internalType": "uint256",
          "name": "value",
          "type": "uint256"
        }
      ],
      "name": "Transfer",
      "type": "event"
    },
    {
      "payable": true,
      "stateMutability": "payable",
      "type": "fallback"
    },
    {
      "constant": true,
      "inputs": [],
      "name": "aave",
      "outputs": [
        {
          "internalType": "address",
          "name": "",
          "type": "address"
        }
      ],
      "payable": false,
      "stateMutability": "view",
      "type": "function"
    },
    {
      "constant": true,
      "inputs": [],
      "name": "aaveToken",
      "outputs": [
        {
          "internalType": "address",
          "name": "",
          "type": "address"
        }
      ],
      "payable": false,
      "stateMutability": "view",
      "type": "function"
    },
    {
      "constant": true,
      "inputs": [
        {
          "internalType": "address",
          "name": "owner",
          "type": "address"
        },
        {
          "internalType": "address",
          "name": "spender",
          "type": "address"
        }
      ],
      "name": "allowance",
      "outputs": [
        {
          "internalType": "uint256",
          "name": "",
          "type": "uint256"
        }
      ],
      "payable": false,
      "stateMutability": "view",
      "type": "function"
    },
    {
      "constant": false,
      "inputs": [
        {
          "internalType": "address",
          "name": "spender",
          "type": "address"
        },
        {
          "internalType": "uint256",
          "name": "amount",
          "type": "uint256"
        }
      ],
      "name": "approve",
      "outputs": [
        {
          "internalType": "bool",
          "name": "",
          "type": "bool"
        }
      ],
      "payable": false,
      "stateMutability": "nonpayable",
      "type": "function"
    },
    {
      "constant": true,
      "inputs": [],
      "name": "apr",
      "outputs": [
        {
          "internalType": "address",
          "name": "",
          "type": "address"
        }
      ],
      "payable": false,
      "stateMutability": "view",
      "type": "function"
    },
    {
      "constant": true,
      "inputs": [
        {
          "internalType": "address",
          "name": "account",
          "type": "address"
        }
      ],
      "name": "balanceOf",
      "outputs": [
        {
          "internalType": "uint256",
          "name": "",
          "type": "uint256"
        }
      ],
      "payable": false,
      "stateMutability": "view",
      "type": "function"
    },
    {
      "constant": true,
      "inputs": [],
      "name": "compound",
      "outputs": [
        {
          "internalType": "address",
          "name": "",
          "type": "address"
        }
      ],
      "payable": false,
      "stateMutability": "view",
      "type": "function"
    },
    {
      "constant": true,
      "inputs": [],
      "name": "dToken",
      "outputs": [
        {
          "internalType": "uint256",
          "name": "",
          "type": "uint256"
        }
      ],
      "payable": false,
      "stateMutability": "view",
      "type": "function"
    },
    {
      "constant": true,
      "inputs": [],
      "name": "decimals",
      "outputs": [
        {
          "internalType": "uint8",
          "name": "",
          "type": "uint8"
        }
      ],
      "payable": false,
      "stateMutability": "view",
      "type": "function"
    },
    {
      "constant": false,
      "inputs": [
        {
          "internalType": "address",
          "name": "spender",
          "type": "address"
        },
        {
          "internalType": "uint256",
          "name": "subtractedValue",
          "type": "uint256"
        }
      ],
      "name": "decreaseAllowance",
      "outputs": [
        {
          "internalType": "bool",
          "name": "",
          "type": "bool"
        }
      ],
      "payable": false,
      "stateMutability": "nonpayable",
      "type": "function"
    },
    {
      "constant": true,
      "inputs": [],
      "name": "dydx",
      "outputs": [
        {
          "internalType": "address",
          "name": "",
          "type": "address"
        }
      ],
      "payable": false,
      "stateMutability": "view",
      "type": "function"
    },
    {
      "constant": true,
      "inputs": [],
      "name": "fulcrum",
      "outputs": [
        {
          "internalType": "address",
          "name": "",
          "type": "address"
        }
      ],
      "payable": false,
      "stateMutability": "view",
      "type": "function"
    },
    {
      "constant": false,
      "inputs": [
        {
          "internalType": "address",
          "name": "spender",
          "type": "address"
        },
        {
          "internalType": "uint256",
          "name": "addedValue",
          "type": "uint256"
        }
      ],
      "name": "increaseAllowance",
      "outputs": [
        {
          "internalType": "bool",
          "name": "",
          "type": "bool"
        }
      ],
      "payable": false,
      "stateMutability": "nonpayable",
      "type": "function"
    },
    {
      "constant": true,
      "inputs": [],
      "name": "isOwner",
      "outputs": [
        {
          "internalType": "bool",
          "name": "",
          "type": "bool"
        }
      ],
      "payable": false,
      "stateMutability": "view",
      "type": "function"
    },
    {
      "constant": true,
      "inputs": [],
      "name": "name",
      "outputs": [
        {
          "internalType": "string",
          "name": "",
          "type": "string"
        }
      ],
      "payable": false,
      "stateMutability": "view",
      "type": "function"
    },
    {
      "constant": true,
      "inputs": [],
      "name": "owner",
      "outputs": [
        {
          "internalType": "address",
          "name": "",
          "type": "address"
        }
      ],
      "payable": false,
      "stateMutability": "view",
      "type": "function"
    },
    {
      "constant": true,
      "inputs": [],
      "name": "pool",
      "outputs": [
        {
          "internalType": "uint256",
          "name": "",
          "type": "uint256"
        }
      ],
      "payable": false,
      "stateMutability": "view",
      "type": "function"
    },
    {
      "constant": true,
      "inputs": [],
      "name": "provider",
      "outputs": [
        {
          "internalType": "enum yWBTC.Lender",
          "name": "",
          "type": "uint8"
        }
      ],
      "payable": false,
      "stateMutability": "view",
      "type": "function"
    },
    {
      "constant": false,
      "inputs": [],
      "name": "renounceOwnership",
      "outputs": [],
      "payable": false,
      "stateMutability": "nonpayable",
      "type": "function"
    },
    {
      "constant": true,
      "inputs": [],
      "name": "symbol",
      "outputs": [
        {
          "internalType": "string",
          "name": "",
          "type": "string"
        }
      ],
      "payable": false,
      "stateMutability": "view",
      "type": "function"
    },
    {
      "constant": true,
      "inputs": [],
      "name": "token",
      "outputs": [
        {
          "internalType": "address",
          "name": "",
          "type": "address"
        }
      ],
      "payable": false,
      "stateMutability": "view",
      "type": "function"
    },
    {
      "constant": true,
      "inputs": [],
      "name": "totalSupply",
      "outputs": [
        {
          "internalType": "uint256",
          "name": "",
          "type": "uint256"
        }
      ],
      "payable": false,
      "stateMutability": "view",
      "type": "function"
    },
    {
      "constant": false,
      "inputs": [
        {
          "internalType": "address",
          "name": "recipient",
          "type": "address"
        },
        {
          "internalType": "uint256",
          "name": "amount",
          "type": "uint256"
        }
      ],
      "name": "transfer",
      "outputs": [
        {
          "internalType": "bool",
          "name": "",
          "type": "bool"
        }
      ],
      "payable": false,
      "stateMutability": "nonpayable",
      "type": "function"
    },
    {
      "constant": false,
      "inputs": [
        {
          "internalType": "address",
          "name": "sender",
          "type": "address"
        },
        {
          "internalType": "address",
          "name": "recipient",
          "type": "address"
        },
        {
          "internalType": "uint256",
          "name": "amount",
          "type": "uint256"
        }
      ],
      "name": "transferFrom",
      "outputs": [
        {
          "internalType": "bool",
          "name": "",
          "type": "bool"
        }
      ],
      "payable": false,
      "stateMutability": "nonpayable",
      "type": "function"
    },
    {
      "constant": false,
      "inputs": [
        {
          "internalType": "address",
          "name": "newOwner",
          "type": "address"
        }
      ],
      "name": "transferOwnership",
      "outputs": [],
      "payable": false,
      "stateMutability": "nonpayable",
      "type": "function"
    },
    {
      "constant": false,
      "inputs": [
        {
          "internalType": "address",
          "name": "_new_APR",
          "type": "address"
        }
      ],
      "name": "set_new_APR",
      "outputs": [],
      "payable": false,
      "stateMutability": "nonpayable",
      "type": "function"
    },
    {
      "constant": false,
      "inputs": [
        {
          "internalType": "address",
          "name": "_new_COMPOUND",
          "type": "address"
        }
      ],
      "name": "set_new_COMPOUND",
      "outputs": [],
      "payable": false,
      "stateMutability": "nonpayable",
      "type": "function"
    },
    {
      "constant": false,
      "inputs": [
        {
          "internalType": "uint256",
          "name": "_new_DTOKEN",
          "type": "uint256"
        }
      ],
      "name": "set_new_DTOKEN",
      "outputs": [],
      "payable": false,
      "stateMutability": "nonpayable",
      "type": "function"
    },
    {
      "constant": false,
      "inputs": [
        {
          "internalType": "uint256",
          "name": "_amount",
          "type": "uint256"
        }
      ],
      "name": "deposit",
      "outputs": [],
      "payable": false,
      "stateMutability": "nonpayable",
      "type": "function"
    },
    {
      "constant": false,
      "inputs": [
        {
          "internalType": "uint256",
          "name": "_shares",
          "type": "uint256"
        }
      ],
      "name": "withdraw",
      "outputs": [],
      "payable": false,
      "stateMutability": "nonpayable",
      "type": "function"
    },
    {
      "constant": true,
      "inputs": [],
      "name": "recommend",
      "outputs": [
        {
          "internalType": "enum yWBTC.Lender",
          "name": "",
          "type": "uint8"
        }
      ],
      "payable": false,
      "stateMutability": "view",
      "type": "function"
    },
    {
      "constant": false,
      "inputs": [
        {
          "internalType": "uint256",
          "name": "amount",
          "type": "uint256"
        }
      ],
      "name": "supplyDydx",
      "outputs": [
        {
          "internalType": "uint256",
          "name": "",
          "type": "uint256"
        }
      ],
      "payable": false,
      "stateMutability": "nonpayable",
      "type": "function"
    },
    {
      "constant": true,
      "inputs": [],
      "name": "getAave",
      "outputs": [
        {
          "internalType": "address",
          "name": "",
          "type": "address"
        }
      ],
      "payable": false,
      "stateMutability": "view",
      "type": "function"
    },
    {
      "constant": true,
      "inputs": [],
      "name": "getAaveCore",
      "outputs": [
        {
          "internalType": "address",
          "name": "",
          "type": "address"
        }
      ],
      "payable": false,
      "stateMutability": "view",
      "type": "function"
    },
    {
      "constant": false,
      "inputs": [],
      "name": "approveToken",
      "outputs": [],
      "payable": false,
      "stateMutability": "nonpayable",
      "type": "function"
    },
    {
      "constant": true,
      "inputs": [],
      "name": "balance",
      "outputs": [
        {
          "internalType": "uint256",
          "name": "",
          "type": "uint256"
        }
      ],
      "payable": false,
      "stateMutability": "view",
      "type": "function"
    },
    {
      "constant": true,
      "inputs": [],
      "name": "balanceDydx",
      "outputs": [
        {
          "internalType": "uint256",
          "name": "",
          "type": "uint256"
        }
      ],
      "payable": false,
      "stateMutability": "view",
      "type": "function"
    },
    {
      "constant": true,
      "inputs": [],
      "name": "balanceCompound",
      "outputs": [
        {
          "internalType": "uint256",
          "name": "",
          "type": "uint256"
        }
      ],
      "payable": false,
      "stateMutability": "view",
      "type": "function"
    },
    {
      "constant": true,
      "inputs": [],
      "name": "balanceCompoundInToken",
      "outputs": [
        {
          "internalType": "uint256",
          "name": "",
          "type": "uint256"
        }
      ],
      "payable": false,
      "stateMutability": "view",
      "type": "function"
    },
    {
      "constant": true,
      "inputs": [],
      "name": "balanceFulcrumInToken",
      "outputs": [
        {
          "internalType": "uint256",
          "name": "",
          "type": "uint256"
        }
      ],
      "payable": false,
      "stateMutability": "view",
      "type": "function"
    },
    {
      "constant": true,
      "inputs": [],
      "name": "balanceFulcrum",
      "outputs": [
        {
          "internalType": "uint256",
          "name": "",
          "type": "uint256"
        }
      ],
      "payable": false,
      "stateMutability": "view",
      "type": "function"
    },
    {
      "constant": true,
      "inputs": [],
      "name": "balanceAave",
      "outputs": [
        {
          "internalType": "uint256",
          "name": "",
          "type": "uint256"
        }
      ],
      "payable": false,
      "stateMutability": "view",
      "type": "function"
    },
    {
      "constant": false,
      "inputs": [],
      "name": "rebalance",
      "outputs": [],
      "payable": false,
      "stateMutability": "nonpayable",
      "type": "function"
    },
    {
      "constant": false,
      "inputs": [
        {
          "internalType": "uint256",
          "name": "amount",
          "type": "uint256"
        }
      ],
      "name": "supplyAave",
      "outputs": [],
      "payable": false,
      "stateMutability": "nonpayable",
      "type": "function"
    },
    {
      "constant": false,
      "inputs": [
        {
          "internalType": "uint256",
          "name": "amount",
          "type": "uint256"
        }
      ],
      "name": "supplyFulcrum",
      "outputs": [],
      "payable": false,
      "stateMutability": "nonpayable",
      "type": "function"
    },
    {
      "constant": false,
      "inputs": [
        {
          "internalType": "uint256",
          "name": "amount",
          "type": "uint256"
        }
      ],
      "name": "supplyCompound",
      "outputs": [],
      "payable": false,
      "stateMutability": "nonpayable",
      "type": "function"
    },
    {
      "constant": true,
      "inputs": [],
      "name": "calcPoolValueInToken",
      "outputs": [
        {
          "internalType": "uint256",
          "name": "",
          "type": "uint256"
        }
      ],
      "payable": false,
      "stateMutability": "view",
      "type": "function"
    },
    {
      "constant": true,
      "inputs": [],
      "name": "getPricePerFullShare",
      "outputs": [
        {
          "internalType": "uint256",
          "name": "",
          "type": "uint256"
        }
      ],
      "payable": false,
      "stateMutability": "view",
      "type": "function"
    }
  ],
  "bytecode": "0x60806040526000601060146101000a81548160ff021916908360048111156200002457fe5b02179055503480156200003657600080fd5b506040518060400160405280600a81526020017f696561726e2077425443000000000000000000000000000000000000000000008152506040518060400160405280600581526020017f795754424300000000000000000000000000000000000000000000000000000081525060088260039080519060200190620000bd92919062000a9b565b508160049080519060200190620000d692919062000a9b565b5080600560006101000a81548160ff021916908360ff16021790555050505060016006819055506200010d6200043b60201b60201c565b600760006101000a81548173ffffffffffffffffffffffffffffffffffffffff021916908373ffffffffffffffffffffffffffffffffffffffff160217905550600760009054906101000a900473ffffffffffffffffffffffffffffffffffffffff1673ffffffffffffffffffffffffffffffffffffffff16600073ffffffffffffffffffffffffffffffffffffffff167f8be0079c531659141344cd1fd0a4f28419497f9722a3daafe3b4186f6b6457e060405160405180910390a3732260fac5e5542a773aa44fbcfedf7c193bc2c599600960006101000a81548173ffffffffffffffffffffffffffffffffffffffff021916908373ffffffffffffffffffffffffffffffffffffffff16021790555073dd6d648c991f7d47454354f4ef326b04025a48a8601060006101000a81548173ffffffffffffffffffffffffffffffffffffffff021916908373ffffffffffffffffffffffffffffffffffffffff160217905550731e0447b19bb6ecfdae1e4ae1694b0c3659614e4e600e60006101000a81548173ffffffffffffffffffffffffffffffffffffffff021916908373ffffffffffffffffffffffffffffffffffffffff1602179055507324a42fd28c976a61df5d00d0599c34c4f90748c8600c60006101000a81548173ffffffffffffffffffffffffffffffffffffffff021916908373ffffffffffffffffffffffffffffffffffffffff16021790555073ba9262578efef8b3aff7f60cd629d6cc8859c8b5600b60006101000a81548173ffffffffffffffffffffffffffffffffffffffff021916908373ffffffffffffffffffffffffffffffffffffffff16021790555073fc4b8ed459e00e5400be803a9bb3954234fd50e3600d60006101000a81548173ffffffffffffffffffffffffffffffffffffffff021916908373ffffffffffffffffffffffffffffffffffffffff16021790555073c11b1268c1a384e55c48c2391d8d480264a3a7f4600a60006101000a81548173ffffffffffffffffffffffffffffffffffffffff021916908373ffffffffffffffffffffffffffffffffffffffff1602179055506000600f81905550620004356200044360201b60201c565b62000fb0565b600033905090565b620004d9600a60009054906101000a900473ffffffffffffffffffffffffffffffffffffffff167fffffffffffffffffffffffffffffffffffffffffffffffffffffffffffffffff600960009054906101000a900473ffffffffffffffffffffffffffffffffffffffff1673ffffffffffffffffffffffffffffffffffffffff166200068a60201b6200334c179092919060201c565b6200056f600e60009054906101000a900473ffffffffffffffffffffffffffffffffffffffff167fffffffffffffffffffffffffffffffffffffffffffffffffffffffffffffffff600960009054906101000a900473ffffffffffffffffffffffffffffffffffffffff1673ffffffffffffffffffffffffffffffffffffffff166200068a60201b6200334c179092919060201c565b620005f2620005836200081560201b60201c565b7fffffffffffffffffffffffffffffffffffffffffffffffffffffffffffffffff600960009054906101000a900473ffffffffffffffffffffffffffffffffffffffff1673ffffffffffffffffffffffffffffffffffffffff166200068a60201b6200334c179092919060201c565b62000688600b60009054906101000a900473ffffffffffffffffffffffffffffffffffffffff167fffffffffffffffffffffffffffffffffffffffffffffffffffffffffffffffff600960009054906101000a900473ffffffffffffffffffffffffffffffffffffffff1673ffffffffffffffffffffffffffffffffffffffff166200068a60201b6200334c179092919060201c565b565b60008114806200072a575060008373ffffffffffffffffffffffffffffffffffffffff1663dd62ed3e30856040518363ffffffff1660e01b8152600401620006d492919062000dd9565b60206040518083038186803b158015620006ed57600080fd5b505afa15801562000702573d6000803e3d6000fd5b505050506040513d601f19601f8201168201806040525062000728919081019062000be7565b145b6200076c576040517f08c379a0000000000000000000000000000000000000000000000000000000008152600401620007639062000e77565b60405180910390fd5b62000810838473ffffffffffffffffffffffffffffffffffffffff1663095ea7b3905060e01b8484604051602401620007a792919062000e06565b604051602081830303815290604052907bffffffffffffffffffffffffffffffffffffffffffffffffffffffff19166020820180517bffffffffffffffffffffffffffffffffffffffffffffffffffffffff8381831617835250505050620008c060201b60201c565b505050565b6000600c60009054906101000a900473ffffffffffffffffffffffffffffffffffffffff1673ffffffffffffffffffffffffffffffffffffffff1663ed6ff7606040518163ffffffff1660e01b815260040160206040518083038186803b1580156200088057600080fd5b505afa15801562000895573d6000803e3d6000fd5b505050506040513d601f19601f82011682018060405250620008bb919081019062000b8f565b905090565b620008ec8273ffffffffffffffffffffffffffffffffffffffff1662000a4f60201b6200455b1760201c565b6200092e576040517f08c379a0000000000000000000000000000000000000000000000000000000008152600401620009259062000e99565b60405180910390fd5b600060608373ffffffffffffffffffffffffffffffffffffffff168360405162000959919062000dc0565b6000604051808303816000865af19150503d806000811462000998576040519150601f19603f3d011682016040523d82523d6000602084013e6200099d565b606091505b509150915081620009e5576040517f08c379a0000000000000000000000000000000000000000000000000000000008152600401620009dc9062000e33565b60405180910390fd5b60008151111562000a49578080602001905162000a06919081019062000bbb565b62000a48576040517f08c379a000000000000000000000000000000000000000000000000000000000815260040162000a3f9062000e55565b60405180910390fd5b5b50505050565b60008060007fc5d2460186f7233c927e7db2dcc703c0e500b653ca82273b7bfad8045d85a47060001b9050833f91506000801b821415801562000a925750808214155b92505050919050565b828054600181600116156101000203166002900490600052602060002090601f016020900481019282601f1062000ade57805160ff191683800117855562000b0f565b8280016001018555821562000b0f579182015b8281111562000b0e57825182559160200191906001019062000af1565b5b50905062000b1e919062000b22565b5090565b62000b4791905b8082111562000b4357600081600090555060010162000b29565b5090565b90565b60008151905062000b5b8162000f62565b92915050565b60008151905062000b728162000f7c565b92915050565b60008151905062000b898162000f96565b92915050565b60006020828403121562000ba257600080fd5b600062000bb28482850162000b4a565b91505092915050565b60006020828403121562000bce57600080fd5b600062000bde8482850162000b61565b91505092915050565b60006020828403121562000bfa57600080fd5b600062000c0a8482850162000b78565b91505092915050565b62000c1e8162000ee2565b82525050565b600062000c318262000ebb565b62000c3d818562000ec6565b935062000c4f81856020860162000f2c565b80840191505092915050565b600062000c6a60208362000ed1565b91507f5361666545524332303a206c6f772d6c6576656c2063616c6c206661696c65646000830152602082019050919050565b600062000cac602a8362000ed1565b91507f5361666545524332303a204552433230206f7065726174696f6e20646964206e60008301527f6f742073756363656564000000000000000000000000000000000000000000006020830152604082019050919050565b600062000d1460368362000ed1565b91507f5361666545524332303a20617070726f76652066726f6d206e6f6e2d7a65726f60008301527f20746f206e6f6e2d7a65726f20616c6c6f77616e6365000000000000000000006020830152604082019050919050565b600062000d7c601f8362000ed1565b91507f5361666545524332303a2063616c6c20746f206e6f6e2d636f6e7472616374006000830152602082019050919050565b62000dba8162000f22565b82525050565b600062000dce828462000c24565b915081905092915050565b600060408201905062000df0600083018562000c13565b62000dff602083018462000c13565b9392505050565b600060408201905062000e1d600083018562000c13565b62000e2c602083018462000daf565b9392505050565b6000602082019050818103600083015262000e4e8162000c5b565b9050919050565b6000602082019050818103600083015262000e708162000c9d565b9050919050565b6000602082019050818103600083015262000e928162000d05565b9050919050565b6000602082019050818103600083015262000eb48162000d6d565b9050919050565b600081519050919050565b600081905092915050565b600082825260208201905092915050565b600062000eef8262000f02565b9050919050565b60008115159050919050565b600073ffffffffffffffffffffffffffffffffffffffff82169050919050565b6000819050919050565b60005b8381101562000f4c57808201518184015260208101905062000f2f565b8381111562000f5c576000848401525b50505050565b62000f6d8162000ee2565b811462000f7957600080fd5b50565b62000f878162000ef6565b811462000f9357600080fd5b50565b62000fa18162000f22565b811462000fad57600080fd5b50565b615dc58062000fc06000396000f3fe6080604052600436106102935760003560e01c8063819faf7b1161015a578063b6b55f25116100c1578063f5a41dea1161007a578063f5a41dea146109e7578063f5ff191614610a12578063f69e204614610a3b578063f7c1ec7714610a66578063f82ce27d14610a91578063fc0c546a14610abc57610293565b8063b6b55f25146108d9578063cf8ca42614610902578063d9d7858a1461092d578063dd62ed3e14610958578063e849d65914610995578063f2fde38b146109be57610293565b80639ff011b9116101135780639ff011b9146107b5578063a160176d146107de578063a457c2d714610809578063a728797114610846578063a9059cbb14610871578063b69ef8a8146108ae57610293565b8063819faf7b146106c75780638da5cb5b146106f25780638e4ec6ef1461071d5780638f32d59b1461074857806395d89b411461077357806399b71d5c1461079e57610293565b806339c0a7e1116101fe57806370a08231116101b757806370a08231146105dd5780637137ef991461061a578063715018a61461064557806377c7b8fc1461065c5780637d7c2a1c146106875780638124955c1461069e57610293565b806339c0a7e1146104df578063463574731461050a57806357ded9c91461053357806358782c211461055e57806361c1ec551461058957806365aab749146105b457610293565b806316f0115b1161025057806316f0115b146103bb57806318160ddd146103e657806323b872dd146104115780632e1a7d4d1461044e578063313ce5671461047757806339509351146104a257610293565b806306636c1c1461029557806306a3fe59146102d257806306fdde03146102fd578063085d488314610328578063095ea7b3146103535780630eb2a26714610390575b005b3480156102a157600080fd5b506102bc60048036036102b79190810190614a49565b610ae7565b6040516102c991906159c4565b60405180910390f35b3480156102de57600080fd5b506102e7610d25565b6040516102f4919061552d565b60405180910390f35b34801561030957600080fd5b50610312610d4b565b60405161031f91906156b9565b60405180910390f35b34801561033457600080fd5b5061033d610ded565b60405161034a919061569e565b60405180910390f35b34801561035f57600080fd5b5061037a6004803603610375919081019061492c565b610e00565b6040516103879190615683565b60405180910390f35b34801561039c57600080fd5b506103a5610e1e565b6040516103b291906159c4565b60405180910390f35b3480156103c757600080fd5b506103d0610ed0565b6040516103dd91906159c4565b60405180910390f35b3480156103f257600080fd5b506103fb610ed6565b60405161040891906159c4565b60405180910390f35b34801561041d57600080fd5b50610438600480360361043391908101906148dd565b610ee0565b6040516104459190615683565b60405180910390f35b34801561045a57600080fd5b5061047560048036036104709190810190614a49565b610fb9565b005b34801561048357600080fd5b5061048c611363565b60405161049991906159df565b60405180910390f35b3480156104ae57600080fd5b506104c960048036036104c4919081019061492c565b61137a565b6040516104d69190615683565b60405180910390f35b3480156104eb57600080fd5b506104f461142d565b60405161050191906159c4565b60405180910390f35b34801561051657600080fd5b50610531600480360361052c919081019061484f565b61151d565b005b34801561053f57600080fd5b506105486115a8565b604051610555919061552d565b60405180910390f35b34801561056a57600080fd5b506105736115ce565b604051610580919061552d565b60405180910390f35b34801561059557600080fd5b5061059e6115f4565b6040516105ab91906159c4565b60405180910390f35b3480156105c057600080fd5b506105db60048036036105d69190810190614a49565b6116a6565b005b3480156105e957600080fd5b5061060460048036036105ff919081019061484f565b611742565b60405161061191906159c4565b60405180910390f35b34801561062657600080fd5b5061062f61178a565b60405161063c91906159c4565b60405180910390f35b34801561065157600080fd5b5061065a6117fd565b005b34801561066857600080fd5b50610671611905565b60405161067e91906159c4565b60405180910390f35b34801561069357600080fd5b5061069c611947565b005b3480156106aa57600080fd5b506106c560048036036106c09190810190614a49565b611a8e565b005b3480156106d357600080fd5b506106dc611b82565b6040516106e9919061552d565b60405180910390f35b3480156106fe57600080fd5b50610707611ba8565b604051610714919061552d565b60405180910390f35b34801561072957600080fd5b50610732611bd2565b60405161073f919061552d565b60405180910390f35b34801561075457600080fd5b5061075d611bf8565b60405161076a9190615683565b60405180910390f35b34801561077f57600080fd5b50610788611c57565b60405161079591906156b9565b60405180910390f35b3480156107aa57600080fd5b506107b3611cf9565b005b3480156107c157600080fd5b506107dc60048036036107d79190810190614a49565b611f1c565b005b3480156107ea57600080fd5b506107f3611f6d565b604051610800919061569e565b60405180910390f35b34801561081557600080fd5b50610830600480360361082b919081019061492c565b6120d9565b60405161083d9190615683565b60405180910390f35b34801561085257600080fd5b5061085b6121a6565b60405161086891906159c4565b60405180910390f35b34801561087d57600080fd5b506108986004803603610893919081019061492c565b612292565b6040516108a59190615683565b60405180910390f35b3480156108ba57600080fd5b506108c36122b0565b6040516108d091906159c4565b60405180910390f35b3480156108e557600080fd5b5061090060048036036108fb9190810190614a49565b612362565b005b34801561090e57600080fd5b506109176124c6565b60405161092491906159c4565b60405180910390f35b34801561093957600080fd5b50610942612578565b60405161094f91906159c4565b60405180910390f35b34801561096457600080fd5b5061097f600480360361097a91908101906148a1565b61257e565b60405161098c91906159c4565b60405180910390f35b3480156109a157600080fd5b506109bc60048036036109b79190810190614a49565b612605565b005b3480156109ca57600080fd5b506109e560048036036109e0919081019061484f565b6126f7565b005b3480156109f357600080fd5b506109fc61274a565b604051610a0991906159c4565b60405180910390f35b348015610a1e57600080fd5b50610a396004803603610a34919081019061484f565b612815565b005b348015610a4757600080fd5b50610a506128a0565b604051610a5d919061552d565b60405180910390f35b348015610a7257600080fd5b50610a7b6128c6565b604051610a88919061552d565b60405180910390f35b348015610a9d57600080fd5b50610aa661296d565b604051610ab3919061552d565b60405180910390f35b348015610ac857600080fd5b50610ad1612a14565b604051610ade919061552d565b60405180910390f35b600060606001604051908082528060200260200182016040528015610b2657816020015b610b136145a6565b815260200190600190039081610b0b5790505b50905060405180604001604052803073ffffffffffffffffffffffffffffffffffffffff168152602001600081525081600081518110610b6257fe5b6020026020010181905250610b756145d6565b6040518060800160405280600115158152602001600080811115610b9557fe5b8152602001600080811115610ba657fe5b8152602001858152509050610bb9614614565b600081600001906001811115610bcb57fe5b90816001811115610bd857fe5b815250506000816020018181525050818160400181905250600f54816060018181525050308160a0019073ffffffffffffffffffffffffffffffffffffffff16908173ffffffffffffffffffffffffffffffffffffffff168152505060606001604051908082528060200260200182016040528015610c7157816020015b610c5e614680565b815260200190600190039081610c565790505b5090508181600081518110610c8257fe5b6020026020010181905250600e60009054906101000a900473ffffffffffffffffffffffffffffffffffffffff1673ffffffffffffffffffffffffffffffffffffffff1663a67a6a4585836040518363ffffffff1660e01b8152600401610cea92919061564c565b600060405180830381600087803b158015610d0457600080fd5b505af1158015610d18573d6000803e3d6000fd5b5050505050505050919050565b600d60009054906101000a900473ffffffffffffffffffffffffffffffffffffffff1681565b606060038054600181600116156101000203166002900480601f016020809104026020016040519081016040528092919081815260200182805460018160011615610100020316600290048015610de35780601f10610db857610100808354040283529160200191610de3565b820191906000526020600020905b815481529060010190602001808311610dc657829003601f168201915b5050505050905090565b601060149054906101000a900460ff1681565b6000610e14610e0d612a3a565b8484612a42565b6001905092915050565b6000600b60009054906101000a900473ffffffffffffffffffffffffffffffffffffffff1673ffffffffffffffffffffffffffffffffffffffff166370a08231306040518263ffffffff1660e01b8152600401610e7b9190615548565b60206040518083038186803b158015610e9357600080fd5b505afa158015610ea7573d6000803e3d6000fd5b505050506040513d601f19601f82011682018060405250610ecb9190810190614a72565b905090565b60085481565b6000600254905090565b6000610eed848484612c0d565b610fae84610ef9612a3a565b610fa985604051806060016040528060288152602001615d3660289139600160008b73ffffffffffffffffffffffffffffffffffffffff1673ffffffffffffffffffffffffffffffffffffffff1681526020019081526020016000206000610f5f612a3a565b73ffffffffffffffffffffffffffffffffffffffff1673ffffffffffffffffffffffffffffffffffffffff16815260200190815260200160002054612e979092919063ffffffff16565b612a42565b600190509392505050565b60016006600082825401925050819055506000600654905060008211611014576040517f08c379a000000000000000000000000000000000000000000000000000000000815260040161100b9061583b565b60405180910390fd5b600061101f33611742565b905080831115611064576040517f08c379a000000000000000000000000000000000000000000000000000000000815260040161105b9061581b565b60405180910390fd5b61106c612ef2565b600881905550600061109d60025461108f86600854612f6590919063ffffffff16565b612fd590919063ffffffff16565b9050611127846040518060400160405280601d81526020017f72656465656d20616d6f756e7420657863656564732062616c616e63650000008152506000803373ffffffffffffffffffffffffffffffffffffffff1673ffffffffffffffffffffffffffffffffffffffff16815260200190815260200160002054612e979092919063ffffffff16565b6000803373ffffffffffffffffffffffffffffffffffffffff1673ffffffffffffffffffffffffffffffffffffffff1681526020019081526020016000208190555061117e8460025461301f90919063ffffffff16565b600281905550600073ffffffffffffffffffffffffffffffffffffffff163373ffffffffffffffffffffffffffffffffffffffff167fddf252ad1be2c89b69c2b068fc378daa952ba7f163c4a11628f55a4df523b3ef866040516111e291906159c4565b60405180910390a36000600960009054906101000a900473ffffffffffffffffffffffffffffffffffffffff1673ffffffffffffffffffffffffffffffffffffffff166370a08231306040518263ffffffff1660e01b81526004016112479190615548565b60206040518083038186803b15801561125f57600080fd5b505afa158015611273573d6000803e3d6000fd5b505050506040513d601f19601f820116820180604052506112979190810190614a72565b9050818110156112bd576112bc6112b7828461301f90919063ffffffff16565b613069565b5b61130a3383600960009054906101000a900473ffffffffffffffffffffffffffffffffffffffff1673ffffffffffffffffffffffffffffffffffffffff166131df9092919063ffffffff16565b611312612ef2565b600881905550505050600654811461135f576040517f08c379a00000000000000000000000000000000000000000000000000000000081526004016113569061591b565b60405180910390fd5b5050565b6000600560009054906101000a900460ff16905090565b6000611423611387612a3a565b8461141e8560016000611398612a3a565b73ffffffffffffffffffffffffffffffffffffffff1673ffffffffffffffffffffffffffffffffffffffff16815260200190815260200160002060008973ffffffffffffffffffffffffffffffffffffffff1673ffffffffffffffffffffffffffffffffffffffff1681526020019081526020016000205461327e90919063ffffffff16565b612a42565b6001905092915050565b60006114376146ec565b600e60009054906101000a900473ffffffffffffffffffffffffffffffffffffffff1673ffffffffffffffffffffffffffffffffffffffff1663c190c2ec60405180604001604052803073ffffffffffffffffffffffffffffffffffffffff1681526020016000815250600f546040518363ffffffff1660e01b81526004016114c192919061599b565b604080518083038186803b1580156114d857600080fd5b505afa1580156114ec573d6000803e3d6000fd5b505050506040513d601f19601f820116820180604052506115109190810190614a20565b9050806020015191505090565b611525611bf8565b611564576040517f08c379a000000000000000000000000000000000000000000000000000000000815260040161155b906157fb565b60405180910390fd5b80601060006101000a81548173ffffffffffffffffffffffffffffffffffffffff021916908373ffffffffffffffffffffffffffffffffffffffff16021790555050565b601060009054906101000a900473ffffffffffffffffffffffffffffffffffffffff1681565b600b60009054906101000a900473ffffffffffffffffffffffffffffffffffffffff1681565b6000600a60009054906101000a900473ffffffffffffffffffffffffffffffffffffffff1673ffffffffffffffffffffffffffffffffffffffff166370a08231306040518263ffffffff1660e01b81526004016116519190615548565b60206040518083038186803b15801561166957600080fd5b505afa15801561167d573d6000803e3d6000fd5b505050506040513d601f19601f820116820180604052506116a19190810190614a72565b905090565b6116ae6128c6565b73ffffffffffffffffffffffffffffffffffffffff1663d2d0e066600960009054906101000a900473ffffffffffffffffffffffffffffffffffffffff168360006040518463ffffffff1660e01b815260040161170d93929190615615565b600060405180830381600087803b15801561172757600080fd5b505af115801561173b573d6000803e3d6000fd5b5050505050565b60008060008373ffffffffffffffffffffffffffffffffffffffff1673ffffffffffffffffffffffffffffffffffffffff168152602001908152602001600020549050919050565b60006117f86117976122b0565b6117ea6117a26124c6565b6117dc6117ad61142d565b6117ce6117b861274a565b6117c06121a6565b61327e90919063ffffffff16565b61327e90919063ffffffff16565b61327e90919063ffffffff16565b61327e90919063ffffffff16565b905090565b611805611bf8565b611844576040517f08c379a000000000000000000000000000000000000000000000000000000000815260040161183b906157fb565b60405180910390fd5b600073ffffffffffffffffffffffffffffffffffffffff16600760009054906101000a900473ffffffffffffffffffffffffffffffffffffffff1673ffffffffffffffffffffffffffffffffffffffff167f8be0079c531659141344cd1fd0a4f28419497f9722a3daafe3b4186f6b6457e060405160405180910390a36000600760006101000a81548173ffffffffffffffffffffffffffffffffffffffff021916908373ffffffffffffffffffffffffffffffffffffffff160217905550565b60008061191061178a565b9050611941600254611933670de0b6b3a764000084612f6590919063ffffffff16565b612fd590919063ffffffff16565b91505090565b6000611951611f6d565b9050601060149054906101000a900460ff16600481111561196e57fe5b81600481111561197a57fe5b14611988576119876132d3565b5b60006119926122b0565b1115611a6857600160048111156119a557fe5b8160048111156119b157fe5b14156119cd576119c76119c26122b0565b610ae7565b50611a67565b6004808111156119d957fe5b8160048111156119e557fe5b1415611a00576119fb6119f66122b0565b611a8e565b611a66565b60026004811115611a0d57fe5b816004811115611a1957fe5b1415611a3457611a2f611a2a6122b0565b612605565b611a65565b60036004811115611a4157fe5b816004811115611a4d57fe5b1415611a6457611a63611a5e6122b0565b6116a6565b5b5b5b5b5b80601060146101000a81548160ff02191690836004811115611a8657fe5b021790555050565b6000600b60009054906101000a900473ffffffffffffffffffffffffffffffffffffffff1673ffffffffffffffffffffffffffffffffffffffff166340c10f1930846040518363ffffffff1660e01b8152600401611aed929190615563565b602060405180830381600087803b158015611b0757600080fd5b505af1158015611b1b573d6000803e3d6000fd5b505050506040513d601f19601f82011682018060405250611b3f9190810190614a72565b11611b7f576040517f08c379a0000000000000000000000000000000000000000000000000000000008152600401611b76906158db565b60405180910390fd5b50565b600c60009054906101000a900473ffffffffffffffffffffffffffffffffffffffff1681565b6000600760009054906101000a900473ffffffffffffffffffffffffffffffffffffffff16905090565b600e60009054906101000a900473ffffffffffffffffffffffffffffffffffffffff1681565b6000600760009054906101000a900473ffffffffffffffffffffffffffffffffffffffff1673ffffffffffffffffffffffffffffffffffffffff16611c3b612a3a565b73ffffffffffffffffffffffffffffffffffffffff1614905090565b606060048054600181600116156101000203166002900480601f016020809104026020016040519081016040528092919081815260200182805460018160011615610100020316600290048015611cef5780601f10611cc457610100808354040283529160200191611cef565b820191906000526020600020905b815481529060010190602001808311611cd257829003601f168201915b5050505050905090565b611d88600a60009054906101000a900473ffffffffffffffffffffffffffffffffffffffff167fffffffffffffffffffffffffffffffffffffffffffffffffffffffffffffffff600960009054906101000a900473ffffffffffffffffffffffffffffffffffffffff1673ffffffffffffffffffffffffffffffffffffffff1661334c9092919063ffffffff16565b611e17600e60009054906101000a900473ffffffffffffffffffffffffffffffffffffffff167fffffffffffffffffffffffffffffffffffffffffffffffffffffffffffffffff600960009054906101000a900473ffffffffffffffffffffffffffffffffffffffff1673ffffffffffffffffffffffffffffffffffffffff1661334c9092919063ffffffff16565b611e8b611e2261296d565b7fffffffffffffffffffffffffffffffffffffffffffffffffffffffffffffffff600960009054906101000a900473ffffffffffffffffffffffffffffffffffffffff1673ffffffffffffffffffffffffffffffffffffffff1661334c9092919063ffffffff16565b611f1a600b60009054906101000a900473ffffffffffffffffffffffffffffffffffffffff167fffffffffffffffffffffffffffffffffffffffffffffffffffffffffffffffff600960009054906101000a900473ffffffffffffffffffffffffffffffffffffffff1673ffffffffffffffffffffffffffffffffffffffff1661334c9092919063ffffffff16565b565b611f24611bf8565b611f63576040517f08c379a0000000000000000000000000000000000000000000000000000000008152600401611f5a906157fb565b60405180910390fd5b80600f8190555050565b6000806000806000601060009054906101000a900473ffffffffffffffffffffffffffffffffffffffff1673ffffffffffffffffffffffffffffffffffffffff1663d88be3c0600960009054906101000a900473ffffffffffffffffffffffffffffffffffffffff166040518263ffffffff1660e01b8152600401611ff2919061552d565b60006040518083038186803b15801561200a57600080fd5b505afa15801561201e573d6000803e3d6000fd5b505050506040513d6000823e3d601f19601f820116820180604052506120479190810190614991565b945094509450945050600080905080851115612061578490505b8084111561206d578390505b80831115612079578290505b80821115612085578190505b60008090508582141561209b57600290506120cd565b848214156120ac57600490506120cc565b838214156120bd57600390506120cb565b828214156120ca57600190505b5b5b5b80965050505050505090565b600061219c6120e6612a3a565b8461219785604051806060016040528060258152602001615d5e6025913960016000612110612a3a565b73ffffffffffffffffffffffffffffffffffffffff1673ffffffffffffffffffffffffffffffffffffffff16815260200190815260200160002060008a73ffffffffffffffffffffffffffffffffffffffff1673ffffffffffffffffffffffffffffffffffffffff16815260200190815260200160002054612e979092919063ffffffff16565b612a42565b6001905092915050565b6000806121b16115f4565b9050600081111561228b57612288670de0b6b3a764000061227a600a60009054906101000a900473ffffffffffffffffffffffffffffffffffffffff1673ffffffffffffffffffffffffffffffffffffffff1663182df0f56040518163ffffffff1660e01b815260040160206040518083038186803b15801561223357600080fd5b505afa158015612247573d6000803e3d6000fd5b505050506040513d601f19601f8201168201806040525061226b9190810190614a72565b84612f6590919063ffffffff16565b612fd590919063ffffffff16565b90505b8091505090565b60006122a661229f612a3a565b8484612c0d565b6001905092915050565b6000600960009054906101000a900473ffffffffffffffffffffffffffffffffffffffff1673ffffffffffffffffffffffffffffffffffffffff166370a08231306040518263ffffffff1660e01b815260040161230d9190615548565b60206040518083038186803b15801561232557600080fd5b505afa158015612339573d6000803e3d6000fd5b505050506040513d601f19601f8201168201806040525061235d9190810190614a72565b905090565b600160066000828254019250508190555060006006549050600082116123bd576040517f08c379a00000000000000000000000000000000000000000000000000000000081526004016123b4906158bb565b60405180910390fd5b6123c5612ef2565b60088190555061241a333084600960009054906101000a900473ffffffffffffffffffffffffffffffffffffffff1673ffffffffffffffffffffffffffffffffffffffff166134c3909392919063ffffffff16565b6000809050600060085414156124395782905082600881905550612465565b61246260085461245460025486612f6590919063ffffffff16565b612fd590919063ffffffff16565b90505b61246d612ef2565b60088190555061247d3382613565565b5060065481146124c2576040517f08c379a00000000000000000000000000000000000000000000000000000000081526004016124b99061591b565b60405180910390fd5b5050565b6000600d60009054906101000a900473ffffffffffffffffffffffffffffffffffffffff1673ffffffffffffffffffffffffffffffffffffffff166370a08231306040518263ffffffff1660e01b81526004016125239190615548565b60206040518083038186803b15801561253b57600080fd5b505afa15801561254f573d6000803e3d6000fd5b505050506040513d601f19601f820116820180604052506125739190810190614a72565b905090565b600f5481565b6000600160008473ffffffffffffffffffffffffffffffffffffffff1673ffffffffffffffffffffffffffffffffffffffff16815260200190815260200160002060008373ffffffffffffffffffffffffffffffffffffffff1673ffffffffffffffffffffffffffffffffffffffff16815260200190815260200160002054905092915050565b6000600a60009054906101000a900473ffffffffffffffffffffffffffffffffffffffff1673ffffffffffffffffffffffffffffffffffffffff1663a0712d68836040518263ffffffff1660e01b815260040161266291906159c4565b602060405180830381600087803b15801561267c57600080fd5b505af1158015612690573d6000803e3d6000fd5b505050506040513d601f19601f820116820180604052506126b49190810190614a72565b146126f4576040517f08c379a00000000000000000000000000000000000000000000000000000000081526004016126eb9061575b565b60405180910390fd5b50565b6126ff611bf8565b61273e576040517f08c379a0000000000000000000000000000000000000000000000000000000008152600401612735906157fb565b60405180910390fd5b612747816136ed565b50565b600080612755610e1e565b9050600081111561280e57600b60009054906101000a900473ffffffffffffffffffffffffffffffffffffffff1673ffffffffffffffffffffffffffffffffffffffff166306b3efd6306040518263ffffffff1660e01b81526004016127bb9190615548565b60206040518083038186803b1580156127d357600080fd5b505afa1580156127e7573d6000803e3d6000fd5b505050506040513d601f19601f8201168201806040525061280b9190810190614a72565b90505b8091505090565b61281d611bf8565b61285c576040517f08c379a0000000000000000000000000000000000000000000000000000000008152600401612853906157fb565b60405180910390fd5b80600a60006101000a81548173ffffffffffffffffffffffffffffffffffffffff021916908373ffffffffffffffffffffffffffffffffffffffff16021790555050565b600a60009054906101000a900473ffffffffffffffffffffffffffffffffffffffff1681565b6000600c60009054906101000a900473ffffffffffffffffffffffffffffffffffffffff1673ffffffffffffffffffffffffffffffffffffffff16630261bf8b6040518163ffffffff1660e01b815260040160206040518083038186803b15801561293057600080fd5b505afa158015612944573d6000803e3d6000fd5b505050506040513d601f19601f820116820180604052506129689190810190614878565b905090565b6000600c60009054906101000a900473ffffffffffffffffffffffffffffffffffffffff1673ffffffffffffffffffffffffffffffffffffffff1663ed6ff7606040518163ffffffff1660e01b815260040160206040518083038186803b1580156129d757600080fd5b505afa1580156129eb573d6000803e3d6000fd5b505050506040513d601f19601f82011682018060405250612a0f9190810190614878565b905090565b600960009054906101000a900473ffffffffffffffffffffffffffffffffffffffff1681565b600033905090565b600073ffffffffffffffffffffffffffffffffffffffff168373ffffffffffffffffffffffffffffffffffffffff161415612ab2576040517f08c379a0000000000000000000000000000000000000000000000000000000008152600401612aa99061589b565b60405180910390fd5b600073ffffffffffffffffffffffffffffffffffffffff168273ffffffffffffffffffffffffffffffffffffffff161415612b22576040517f08c379a0000000000000000000000000000000000000000000000000000000008152600401612b199061573b565b60405180910390fd5b80600160008573ffffffffffffffffffffffffffffffffffffffff1673ffffffffffffffffffffffffffffffffffffffff16815260200190815260200160002060008473ffffffffffffffffffffffffffffffffffffffff1673ffffffffffffffffffffffffffffffffffffffff168152602001908152602001600020819055508173ffffffffffffffffffffffffffffffffffffffff168373ffffffffffffffffffffffffffffffffffffffff167f8c5be1e5ebec7d5bd14f71427d1e84f3dd0314c0f7b2291e5b200ac8c7c3b92583604051612c0091906159c4565b60405180910390a3505050565b600073ffffffffffffffffffffffffffffffffffffffff168373ffffffffffffffffffffffffffffffffffffffff161415612c7d576040517f08c379a0000000000000000000000000000000000000000000000000000000008152600401612c749061585b565b60405180910390fd5b600073ffffffffffffffffffffffffffffffffffffffff168273ffffffffffffffffffffffffffffffffffffffff161415612ced576040517f08c379a0000000000000000000000000000000000000000000000000000000008152600401612ce4906156db565b60405180910390fd5b612d5881604051806060016040528060268152602001615d10602691396000808773ffffffffffffffffffffffffffffffffffffffff1673ffffffffffffffffffffffffffffffffffffffff16815260200190815260200160002054612e979092919063ffffffff16565b6000808573ffffffffffffffffffffffffffffffffffffffff1673ffffffffffffffffffffffffffffffffffffffff16815260200190815260200160002081905550612deb816000808573ffffffffffffffffffffffffffffffffffffffff1673ffffffffffffffffffffffffffffffffffffffff1681526020019081526020016000205461327e90919063ffffffff16565b6000808473ffffffffffffffffffffffffffffffffffffffff1673ffffffffffffffffffffffffffffffffffffffff168152602001908152602001600020819055508173ffffffffffffffffffffffffffffffffffffffff168373ffffffffffffffffffffffffffffffffffffffff167fddf252ad1be2c89b69c2b068fc378daa952ba7f163c4a11628f55a4df523b3ef83604051612e8a91906159c4565b60405180910390a3505050565b6000838311158290612edf576040517f08c379a0000000000000000000000000000000000000000000000000000000008152600401612ed691906156b9565b60405180910390fd5b5060008385039050809150509392505050565b6000612f60612eff61381d565b612f52612f0a6138cf565b612f44612f15613981565b612f36612f20613a71565b612f28613b3c565b61327e90919063ffffffff16565b61327e90919063ffffffff16565b61327e90919063ffffffff16565b61327e90919063ffffffff16565b905090565b600080831415612f785760009050612fcf565b6000828402905082848281612f8957fe5b0414612fca576040517f08c379a0000000000000000000000000000000000000000000000000000000008152600401612fc1906157bb565b60405180910390fd5b809150505b92915050565b600061301783836040518060400160405280601a81526020017f536166654d6174683a206469766973696f6e206279207a65726f000000000000815250613c28565b905092915050565b600061306183836040518060400160405280601e81526020017f536166654d6174683a207375627472616374696f6e206f766572666c6f770000815250612e97565b905092915050565b6002600481111561307657fe5b601060149054906101000a900460ff16600481111561309157fe5b14156130a1576130a081613c89565b5b600360048111156130ae57fe5b601060149054906101000a900460ff1660048111156130c957fe5b141561312357806130d86124c6565b1015613119576040517f08c379a00000000000000000000000000000000000000000000000000000000081526004016131109061587b565b60405180910390fd5b61312281613d2f565b5b6001600481111561313057fe5b601060149054906101000a900460ff16600481111561314b57fe5b14156131a5578061315a61142d565b101561319b576040517f08c379a00000000000000000000000000000000000000000000000000000000081526004016131929061587b565b60405180910390fd5b6131a481613dbf565b5b6004808111156131b157fe5b601060149054906101000a900460ff1660048111156131cc57fe5b14156131dc576131db81613ff9565b5b50565b613279838473ffffffffffffffffffffffffffffffffffffffff1663a9059cbb905060e01b84846040516024016132179291906155ec565b604051602081830303815290604052907bffffffffffffffffffffffffffffffffffffffffffffffffffffffff19166020820180517bffffffffffffffffffffffffffffffffffffffffffffffffffffffff838183161783525050505061409f565b505050565b6000808284019050838110156132c9576040517f08c379a00000000000000000000000000000000000000000000000000000000081526004016132c09061577b565b60405180910390fd5b8091505092915050565b60006132dd614211565b905060008111156132f2576132f1816142c3565b5b6132fa613981565b9050600081111561330f5761330e81613dbf565b5b6133176143b5565b9050600081111561332c5761332b81614467565b5b6133346138cf565b905060008111156133495761334881613d2f565b5b50565b60008114806133e5575060008373ffffffffffffffffffffffffffffffffffffffff1663dd62ed3e30856040518363ffffffff1660e01b815260040161339392919061558c565b60206040518083038186803b1580156133ab57600080fd5b505afa1580156133bf573d6000803e3d6000fd5b505050506040513d601f19601f820116820180604052506133e39190810190614a72565b145b613424576040517f08c379a000000000000000000000000000000000000000000000000000000000815260040161341b9061593b565b60405180910390fd5b6134be838473ffffffffffffffffffffffffffffffffffffffff1663095ea7b3905060e01b848460405160240161345c9291906155ec565b604051602081830303815290604052907bffffffffffffffffffffffffffffffffffffffffffffffffffffffff19166020820180517bffffffffffffffffffffffffffffffffffffffffffffffffffffffff838183161783525050505061409f565b505050565b61355f848573ffffffffffffffffffffffffffffffffffffffff166323b872dd905060e01b8585856040516024016134fd939291906155b5565b604051602081830303815290604052907bffffffffffffffffffffffffffffffffffffffffffffffffffffffff19166020820180517bffffffffffffffffffffffffffffffffffffffffffffffffffffffff838183161783525050505061409f565b50505050565b600073ffffffffffffffffffffffffffffffffffffffff168273ffffffffffffffffffffffffffffffffffffffff1614156135d5576040517f08c379a00000000000000000000000000000000000000000000000000000000081526004016135cc9061597b565b60405180910390fd5b6135ea8160025461327e90919063ffffffff16565b600281905550613641816000808573ffffffffffffffffffffffffffffffffffffffff1673ffffffffffffffffffffffffffffffffffffffff1681526020019081526020016000205461327e90919063ffffffff16565b6000808473ffffffffffffffffffffffffffffffffffffffff1673ffffffffffffffffffffffffffffffffffffffff168152602001908152602001600020819055508173ffffffffffffffffffffffffffffffffffffffff16600073ffffffffffffffffffffffffffffffffffffffff167fddf252ad1be2c89b69c2b068fc378daa952ba7f163c4a11628f55a4df523b3ef836040516136e191906159c4565b60405180910390a35050565b600073ffffffffffffffffffffffffffffffffffffffff168173ffffffffffffffffffffffffffffffffffffffff16141561375d576040517f08c379a00000000000000000000000000000000000000000000000000000000081526004016137549061571b565b60405180910390fd5b8073ffffffffffffffffffffffffffffffffffffffff16600760009054906101000a900473ffffffffffffffffffffffffffffffffffffffff1673ffffffffffffffffffffffffffffffffffffffff167f8be0079c531659141344cd1fd0a4f28419497f9722a3daafe3b4186f6b6457e060405160405180910390a380600760006101000a81548173ffffffffffffffffffffffffffffffffffffffff021916908373ffffffffffffffffffffffffffffffffffffffff16021790555050565b6000600960009054906101000a900473ffffffffffffffffffffffffffffffffffffffff1673ffffffffffffffffffffffffffffffffffffffff166370a08231306040518263ffffffff1660e01b815260040161387a9190615548565b60206040518083038186803b15801561389257600080fd5b505afa1580156138a6573d6000803e3d6000fd5b505050506040513d601f19601f820116820180604052506138ca9190810190614a72565b905090565b6000600d60009054906101000a900473ffffffffffffffffffffffffffffffffffffffff1673ffffffffffffffffffffffffffffffffffffffff166370a08231306040518263ffffffff1660e01b815260040161392c9190615548565b60206040518083038186803b15801561394457600080fd5b505afa158015613958573d6000803e3d6000fd5b505050506040513d601f19601f8201168201806040525061397c9190810190614a72565b905090565b600061398b6146ec565b600e60009054906101000a900473ffffffffffffffffffffffffffffffffffffffff1673ffffffffffffffffffffffffffffffffffffffff1663c190c2ec60405180604001604052803073ffffffffffffffffffffffffffffffffffffffff1681526020016000815250600f546040518363ffffffff1660e01b8152600401613a1592919061599b565b604080518083038186803b158015613a2c57600080fd5b505afa158015613a40573d6000803e3d6000fd5b505050506040513d601f19601f82011682018060405250613a649190810190614a20565b9050806020015191505090565b600080613a7c610e1e565b90506000811115613b3557600b60009054906101000a900473ffffffffffffffffffffffffffffffffffffffff1673ffffffffffffffffffffffffffffffffffffffff166306b3efd6306040518263ffffffff1660e01b8152600401613ae29190615548565b60206040518083038186803b158015613afa57600080fd5b505afa158015613b0e573d6000803e3d6000fd5b505050506040513d601f19601f82011682018060405250613b329190810190614a72565b90505b8091505090565b600080613b476115f4565b90506000811115613c2157613c1e670de0b6b3a7640000613c10600a60009054906101000a900473ffffffffffffffffffffffffffffffffffffffff1673ffffffffffffffffffffffffffffffffffffffff1663182df0f56040518163ffffffff1660e01b815260040160206040518083038186803b158015613bc957600080fd5b505afa158015613bdd573d6000803e3d6000fd5b505050506040513d601f19601f82011682018060405250613c019190810190614a72565b84612f6590919063ffffffff16565b612fd590919063ffffffff16565b90505b8091505090565b60008083118290613c6f576040517f08c379a0000000000000000000000000000000000000000000000000000000008152600401613c6691906156b9565b60405180910390fd5b506000838581613c7b57fe5b049050809150509392505050565b6000613c936115f4565b90506000613c9f6121a6565b905082811015613ce4576040517f08c379a0000000000000000000000000000000000000000000000000000000008152600401613cdb9061587b565b60405180910390fd5b6000613d1e6001613d1084613d028888612f6590919063ffffffff16565b612fd590919063ffffffff16565b61327e90919063ffffffff16565b9050613d29816142c3565b50505050565b600d60009054906101000a900473ffffffffffffffffffffffffffffffffffffffff1673ffffffffffffffffffffffffffffffffffffffff1663db006a75826040518263ffffffff1660e01b8152600401613d8a91906159c4565b600060405180830381600087803b158015613da457600080fd5b505af1158015613db8573d6000803e3d6000fd5b5050505050565b60606001604051908082528060200260200182016040528015613dfc57816020015b613de96145a6565b815260200190600190039081613de15790505b50905060405180604001604052803073ffffffffffffffffffffffffffffffffffffffff168152602001600081525081600081518110613e3857fe5b6020026020010181905250613e4b6145d6565b6040518060800160405280600015158152602001600080811115613e6b57fe5b8152602001600080811115613e7c57fe5b8152602001848152509050613e8f614614565b600181600001906001811115613ea157fe5b90816001811115613eae57fe5b815250506000816020018181525050818160400181905250600f54816060018181525050308160a0019073ffffffffffffffffffffffffffffffffffffffff16908173ffffffffffffffffffffffffffffffffffffffff168152505060606001604051908082528060200260200182016040528015613f4757816020015b613f34614680565b815260200190600190039081613f2c5790505b5090508181600081518110613f5857fe5b6020026020010181905250600e60009054906101000a900473ffffffffffffffffffffffffffffffffffffffff1673ffffffffffffffffffffffffffffffffffffffff1663a67a6a4585836040518363ffffffff1660e01b8152600401613fc092919061564c565b600060405180830381600087803b158015613fda57600080fd5b505af1158015613fee573d6000803e3d6000fd5b505050505050505050565b6000614003610e1e565b9050600061400f61274a565b905082811015614054576040517f08c379a000000000000000000000000000000000000000000000000000000000815260040161404b9061587b565b60405180910390fd5b600061408e6001614080846140728888612f6590919063ffffffff16565b612fd590919063ffffffff16565b61327e90919063ffffffff16565b905061409981614467565b50505050565b6140be8273ffffffffffffffffffffffffffffffffffffffff1661455b565b6140fd576040517f08c379a00000000000000000000000000000000000000000000000000000000081526004016140f49061595b565b60405180910390fd5b600060608373ffffffffffffffffffffffffffffffffffffffff16836040516141269190615516565b6000604051808303816000865af19150503d8060008114614163576040519150601f19603f3d011682016040523d82523d6000602084013e614168565b606091505b5091509150816141ad576040517f08c379a00000000000000000000000000000000000000000000000000000000081526004016141a49061579b565b60405180910390fd5b60008151111561420b57808060200190516141cb9190810190614968565b61420a576040517f08c379a0000000000000000000000000000000000000000000000000000000008152600401614201906158fb565b60405180910390fd5b5b50505050565b6000600a60009054906101000a900473ffffffffffffffffffffffffffffffffffffffff1673ffffffffffffffffffffffffffffffffffffffff166370a08231306040518263ffffffff1660e01b815260040161426e9190615548565b60206040518083038186803b15801561428657600080fd5b505afa15801561429a573d6000803e3d6000fd5b505050506040513d601f19601f820116820180604052506142be9190810190614a72565b905090565b6000600a60009054906101000a900473ffffffffffffffffffffffffffffffffffffffff1673ffffffffffffffffffffffffffffffffffffffff1663db006a75836040518263ffffffff1660e01b815260040161432091906159c4565b602060405180830381600087803b15801561433a57600080fd5b505af115801561434e573d6000803e3d6000fd5b505050506040513d601f19601f820116820180604052506143729190810190614a72565b146143b2576040517f08c379a00000000000000000000000000000000000000000000000000000000081526004016143a9906156fb565b60405180910390fd5b50565b6000600b60009054906101000a900473ffffffffffffffffffffffffffffffffffffffff1673ffffffffffffffffffffffffffffffffffffffff166370a08231306040518263ffffffff1660e01b81526004016144129190615548565b60206040518083038186803b15801561442a57600080fd5b505afa15801561443e573d6000803e3d6000fd5b505050506040513d601f19601f820116820180604052506144629190810190614a72565b905090565b6000600b60009054906101000a900473ffffffffffffffffffffffffffffffffffffffff1673ffffffffffffffffffffffffffffffffffffffff16639dc29fac30846040518363ffffffff1660e01b81526004016144c6929190615563565b602060405180830381600087803b1580156144e057600080fd5b505af11580156144f4573d6000803e3d6000fd5b505050506040513d601f19601f820116820180604052506145189190810190614a72565b11614558576040517f08c379a000000000000000000000000000000000000000000000000000000000815260040161454f906157db565b60405180910390fd5b50565b60008060007fc5d2460186f7233c927e7db2dcc703c0e500b653ca82273b7bfad8045d85a47060001b9050833f91506000801b821415801561459d5750808214155b92505050919050565b6040518060400160405280600073ffffffffffffffffffffffffffffffffffffffff168152602001600081525090565b60405180608001604052806000151581526020016000808111156145f657fe5b815260200160008081111561460757fe5b8152602001600081525090565b6040518061010001604052806000600181111561462d57fe5b815260200160008152602001614641614708565b81526020016000815260200160008152602001600073ffffffffffffffffffffffffffffffffffffffff16815260200160008152602001606081525090565b6040518061010001604052806000600181111561469957fe5b8152602001600081526020016146ad614708565b81526020016000815260200160008152602001600073ffffffffffffffffffffffffffffffffffffffff16815260200160008152602001606081525090565b6040518060400160405280600015158152602001600081525090565b604051806080016040528060001515815260200160008081111561472857fe5b815260200160008081111561473957fe5b8152602001600081525090565b60008135905061475581615cca565b92915050565b60008151905061476a81615cca565b92915050565b60008151905061477f81615ce1565b92915050565b600082601f83011261479657600080fd5b81516147a96147a482615a27565b6159fa565b915080825260208301602083018583830111156147c557600080fd5b6147d0838284615c52565b50505092915050565b6000604082840312156147eb57600080fd5b6147f560406159fa565b9050600061480584828501614770565b60008301525060206148198482850161483a565b60208301525092915050565b60008135905061483481615cf8565b92915050565b60008151905061484981615cf8565b92915050565b60006020828403121561486157600080fd5b600061486f84828501614746565b91505092915050565b60006020828403121561488a57600080fd5b60006148988482850161475b565b91505092915050565b600080604083850312156148b457600080fd5b60006148c285828601614746565b92505060206148d385828601614746565b9150509250929050565b6000806000606084860312156148f257600080fd5b600061490086828701614746565b935050602061491186828701614746565b925050604061492286828701614825565b9150509250925092565b6000806040838503121561493f57600080fd5b600061494d85828601614746565b925050602061495e85828601614825565b9150509250929050565b60006020828403121561497a57600080fd5b600061498884828501614770565b91505092915050565b600080600080600060a086880312156149a957600080fd5b600086015167ffffffffffffffff8111156149c357600080fd5b6149cf88828901614785565b95505060206149e08882890161483a565b94505060406149f18882890161483a565b9350506060614a028882890161483a565b9250506080614a138882890161483a565b9150509295509295909350565b600060408284031215614a3257600080fd5b6000614a40848285016147d9565b91505092915050565b600060208284031215614a5b57600080fd5b6000614a6984828501614825565b91505092915050565b600060208284031215614a8457600080fd5b6000614a928482850161483a565b91505092915050565b6000614aa78383615383565b905092915050565b6000614abb838361548b565b60408301905092915050565b614ad081615bc2565b82525050565b614adf81615b13565b82525050565b614aee81615b13565b82525050565b6000614aff82615a73565b614b098185615ac4565b935083602082028501614b1b85615a53565b8060005b85811015614b575784840389528151614b388582614a9b565b9450614b4383615aaa565b925060208a01995050600181019050614b1f565b50829750879550505050505092915050565b6000614b7482615a7e565b614b7e8185615ad5565b9350614b8983615a63565b8060005b83811015614bba578151614ba18882614aaf565b9750614bac83615ab7565b925050600181019050614b8d565b5085935050505092915050565b614bd081615b25565b82525050565b614bdf81615b25565b82525050565b6000614bf082615a94565b614bfa8185615af7565b9350614c0a818560208601615c52565b80840191505092915050565b6000614c2182615a89565b614c2b8185615ae6565b9350614c3b818560208601615c52565b614c4481615c85565b840191505092915050565b614c5881615bd4565b82525050565b614c6781615be6565b82525050565b614c7681615bf8565b82525050565b614c8581615c0a565b82525050565b614c9481615c1c565b82525050565b6000614ca582615a9f565b614caf8185615b02565b9350614cbf818560208601615c52565b614cc881615c85565b840191505092915050565b6000614ce0602383615b02565b91507f45524332303a207472616e7366657220746f20746865207a65726f206164647260008301527f65737300000000000000000000000000000000000000000000000000000000006020830152604082019050919050565b6000614d46601983615b02565b91507f434f4d504f554e443a207769746864726177206661696c6564000000000000006000830152602082019050919050565b6000614d86602683615b02565b91507f4f776e61626c653a206e6577206f776e657220697320746865207a65726f206160008301527f64647265737300000000000000000000000000000000000000000000000000006020830152604082019050919050565b6000614dec602283615b02565b91507f45524332303a20617070726f766520746f20746865207a65726f20616464726560008301527f73730000000000000000000000000000000000000000000000000000000000006020830152604082019050919050565b6000614e52601783615b02565b91507f434f4d504f554e443a20737570706c79206661696c65640000000000000000006000830152602082019050919050565b6000614e92601b83615b02565b91507f536166654d6174683a206164646974696f6e206f766572666c6f7700000000006000830152602082019050919050565b6000614ed2602083615b02565b91507f5361666545524332303a206c6f772d6c6576656c2063616c6c206661696c65646000830152602082019050919050565b6000614f12602183615b02565b91507f536166654d6174683a206d756c7469706c69636174696f6e206f766572666c6f60008301527f77000000000000000000000000000000000000000000000000000000000000006020830152604082019050919050565b6000614f78601883615b02565b91507f46554c4352554d3a207769746864726177206661696c656400000000000000006000830152602082019050919050565b6000614fb8602083615b02565b91507f4f776e61626c653a2063616c6c6572206973206e6f7420746865206f776e65726000830152602082019050919050565b6000614ff8601483615b02565b91507f696e73756666696369656e742062616c616e63650000000000000000000000006000830152602082019050919050565b6000615038601f83615b02565b91507f7769746864726177206d7573742062652067726561746572207468616e2030006000830152602082019050919050565b6000615078602583615b02565b91507f45524332303a207472616e736665722066726f6d20746865207a65726f20616460008301527f64726573730000000000000000000000000000000000000000000000000000006020830152604082019050919050565b60006150de601283615b02565b91507f696e73756666696369656e742066756e647300000000000000000000000000006000830152602082019050919050565b600061511e602483615b02565b91507f45524332303a20617070726f76652066726f6d20746865207a65726f2061646460008301527f72657373000000000000000000000000000000000000000000000000000000006020830152604082019050919050565b6000615184601e83615b02565b91507f6465706f736974206d7573742062652067726561746572207468616e203000006000830152602082019050919050565b60006151c4601683615b02565b91507f46554c4352554d3a20737570706c79206661696c6564000000000000000000006000830152602082019050919050565b6000615204602a83615b02565b91507f5361666545524332303a204552433230206f7065726174696f6e20646964206e60008301527f6f742073756363656564000000000000000000000000000000000000000000006020830152604082019050919050565b600061526a601f83615b02565b91507f5265656e7472616e637947756172643a207265656e7472616e742063616c6c006000830152602082019050919050565b60006152aa603683615b02565b91507f5361666545524332303a20617070726f76652066726f6d206e6f6e2d7a65726f60008301527f20746f206e6f6e2d7a65726f20616c6c6f77616e6365000000000000000000006020830152604082019050919050565b6000615310601f83615b02565b91507f5361666545524332303a2063616c6c20746f206e6f6e2d636f6e7472616374006000830152602082019050919050565b6000615350601f83615b02565b91507f45524332303a206d696e7420746f20746865207a65726f2061646472657373006000830152602082019050919050565b60006101608301600083015161539c6000860182614c4f565b5060208301516153af60208601826154e9565b5060408301516153c26040860182615436565b5060608301516153d560c08601826154e9565b5060808301516153e860e08601826154e9565b5060a08301516153fc610100860182614ad6565b5060c08301516154106101208601826154e9565b5060e08301518482036101408601526154298282614c16565b9150508091505092915050565b60808201600082015161544c6000850182614bc7565b50602082015161545f6020850182614c5e565b5060408201516154726040850182614c6d565b50606082015161548560608501826154e9565b50505050565b6040820160008201516154a16000850182614ad6565b5060208201516154b460208501826154e9565b50505050565b6040820160008201516154d06000850182614ad6565b5060208201516154e360208501826154e9565b50505050565b6154f281615bab565b82525050565b61550181615bab565b82525050565b61551081615bb5565b82525050565b60006155228284614be5565b915081905092915050565b60006020820190506155426000830184614ae5565b92915050565b600060208201905061555d6000830184614ac7565b92915050565b60006040820190506155786000830185614ac7565b61558560208301846154f8565b9392505050565b60006040820190506155a16000830185614ae5565b6155ae6020830184614ae5565b9392505050565b60006060820190506155ca6000830186614ae5565b6155d76020830185614ae5565b6155e460408301846154f8565b949350505050565b60006040820190506156016000830185614ae5565b61560e60208301846154f8565b9392505050565b600060608201905061562a6000830186614ae5565b61563760208301856154f8565b6156446040830184614c8b565b949350505050565b600060408201905081810360008301526156668185614b69565b9050818103602083015261567a8184614af4565b90509392505050565b60006020820190506156986000830184614bd6565b92915050565b60006020820190506156b36000830184614c7c565b92915050565b600060208201905081810360008301526156d38184614c9a565b905092915050565b600060208201905081810360008301526156f481614cd3565b9050919050565b6000602082019050818103600083015261571481614d39565b9050919050565b6000602082019050818103600083015261573481614d79565b9050919050565b6000602082019050818103600083015261575481614ddf565b9050919050565b6000602082019050818103600083015261577481614e45565b9050919050565b6000602082019050818103600083015261579481614e85565b9050919050565b600060208201905081810360008301526157b481614ec5565b9050919050565b600060208201905081810360008301526157d481614f05565b9050919050565b600060208201905081810360008301526157f481614f6b565b9050919050565b6000602082019050818103600083015261581481614fab565b9050919050565b6000602082019050818103600083015261583481614feb565b9050919050565b600060208201905081810360008301526158548161502b565b9050919050565b600060208201905081810360008301526158748161506b565b9050919050565b60006020820190508181036000830152615894816150d1565b9050919050565b600060208201905081810360008301526158b481615111565b9050919050565b600060208201905081810360008301526158d481615177565b9050919050565b600060208201905081810360008301526158f4816151b7565b9050919050565b60006020820190508181036000830152615914816151f7565b9050919050565b600060208201905081810360008301526159348161525d565b9050919050565b600060208201905081810360008301526159548161529d565b9050919050565b6000602082019050818103600083015261597481615303565b9050919050565b6000602082019050818103600083015261599481615343565b9050919050565b60006060820190506159b060008301856154ba565b6159bd60408301846154f8565b9392505050565b60006020820190506159d960008301846154f8565b92915050565b60006020820190506159f46000830184615507565b92915050565b6000604051905081810181811067ffffffffffffffff82111715615a1d57600080fd5b8060405250919050565b600067ffffffffffffffff821115615a3e57600080fd5b601f19601f8301169050602081019050919050565b6000819050602082019050919050565b6000819050602082019050919050565b600081519050919050565b600081519050919050565b600081519050919050565b600081519050919050565b600081519050919050565b6000602082019050919050565b6000602082019050919050565b600082825260208201905092915050565b600082825260208201905092915050565b600082825260208201905092915050565b600081905092915050565b600082825260208201905092915050565b6000615b1e82615b8b565b9050919050565b60008115159050919050565b6000819050615b3f82615c96565b919050565b6000819050615b5282615ca3565b919050565b6000819050615b6582615cb0565b919050565b6000819050615b7882615cbd565b919050565b600061ffff82169050919050565b600073ffffffffffffffffffffffffffffffffffffffff82169050919050565b6000819050919050565b600060ff82169050919050565b6000615bcd82615c2e565b9050919050565b6000615bdf82615b31565b9050919050565b6000615bf182615b44565b9050919050565b6000615c0382615b57565b9050919050565b6000615c1582615b6a565b9050919050565b6000615c2782615b7d565b9050919050565b6000615c3982615c40565b9050919050565b6000615c4b82615b8b565b9050919050565b60005b83811015615c70578082015181840152602081019050615c55565b83811115615c7f576000848401525b50505050565b6000601f19601f8301169050919050565b60028110615ca057fe5b50565b60018110615cad57fe5b50565b60018110615cba57fe5b50565b60058110615cc757fe5b50565b615cd381615b13565b8114615cde57600080fd5b50565b615cea81615b25565b8114615cf557600080fd5b50565b615d0181615bab565b8114615d0c57600080fd5b5056fe45524332303a207472616e7366657220616d6f756e7420657863656564732062616c616e636545524332303a207472616e7366657220616d6f756e74206578636565647320616c6c6f77616e636545524332303a2064656372656173656420616c6c6f77616e63652062656c6f77207a65726fa365627a7a7231582055bee44e7aa14c2d3237d301b8e87c361a89b41feac67dd19c5b0edffcf81f246c6578706572696d656e74616cf564736f6c634300050c0040",
  "source": "pragma solidity ^0.5.0;\npragma experimental ABIEncoderV2;\n\ninterface IERC20 {\n    function totalSupply() external view returns (uint256);\n    function balanceOf(address account) external view returns (uint256);\n    function transfer(address recipient, uint256 amount) external returns (bool);\n    function allowance(address owner, address spender) external view returns (uint256);\n    function approve(address spender, uint256 amount) external returns (bool);\n    function transferFrom(address sender, address recipient, uint256 amount) external returns (bool);\n    event Transfer(address indexed from, address indexed to, uint256 value);\n    event Approval(address indexed owner, address indexed spender, uint256 value);\n}\n\ncontract Context {\n    constructor () internal { }\n    // solhint-disable-previous-line no-empty-blocks\n\n    function _msgSender() internal view returns (address payable) {\n        return msg.sender;\n    }\n\n    function _msgData() internal view returns (bytes memory) {\n        this; // silence state mutability warning without generating bytecode - see https://github.com/ethereum/solidity/issues/2691\n        return msg.data;\n    }\n}\n\ncontract Ownable is Context {\n    address private _owner;\n\n    event OwnershipTransferred(address indexed previousOwner, address indexed newOwner);\n    constructor () internal {\n        _owner = _msgSender();\n        emit OwnershipTransferred(address(0), _owner);\n    }\n    function owner() public view returns (address) {\n        return _owner;\n    }\n    modifier onlyOwner() {\n        require(isOwner(), \"Ownable: caller is not the owner\");\n        _;\n    }\n    function isOwner() public view returns (bool) {\n        return _msgSender() == _owner;\n    }\n    function renounceOwnership() public onlyOwner {\n        emit OwnershipTransferred(_owner, address(0));\n        _owner = address(0);\n    }\n    function transferOwnership(address newOwner) public onlyOwner {\n        _transferOwnership(newOwner);\n    }\n    function _transferOwnership(address newOwner) internal {\n        require(newOwner != address(0), \"Ownable: new owner is the zero address\");\n        emit OwnershipTransferred(_owner, newOwner);\n        _owner = newOwner;\n    }\n}\n\ncontract ERC20 is Context, IERC20 {\n    using SafeMath for uint256;\n\n    mapping (address => uint256) _balances;\n\n    mapping (address => mapping (address => uint256)) private _allowances;\n\n    uint256 _totalSupply;\n    function totalSupply() public view returns (uint256) {\n        return _totalSupply;\n    }\n    function balanceOf(address account) public view returns (uint256) {\n        return _balances[account];\n    }\n    function transfer(address recipient, uint256 amount) public returns (bool) {\n        _transfer(_msgSender(), recipient, amount);\n        return true;\n    }\n    function allowance(address owner, address spender) public view returns (uint256) {\n        return _allowances[owner][spender];\n    }\n    function approve(address spender, uint256 amount) public returns (bool) {\n        _approve(_msgSender(), spender, amount);\n        return true;\n    }\n    function transferFrom(address sender, address recipient, uint256 amount) public returns (bool) {\n        _transfer(sender, recipient, amount);\n        _approve(sender, _msgSender(), _allowances[sender][_msgSender()].sub(amount, \"ERC20: transfer amount exceeds allowance\"));\n        return true;\n    }\n    function increaseAllowance(address spender, uint256 addedValue) public returns (bool) {\n        _approve(_msgSender(), spender, _allowances[_msgSender()][spender].add(addedValue));\n        return true;\n    }\n    function decreaseAllowance(address spender, uint256 subtractedValue) public returns (bool) {\n        _approve(_msgSender(), spender, _allowances[_msgSender()][spender].sub(subtractedValue, \"ERC20: decreased allowance below zero\"));\n        return true;\n    }\n    function _transfer(address sender, address recipient, uint256 amount) internal {\n        require(sender != address(0), \"ERC20: transfer from the zero address\");\n        require(recipient != address(0), \"ERC20: transfer to the zero address\");\n\n        _balances[sender] = _balances[sender].sub(amount, \"ERC20: transfer amount exceeds balance\");\n        _balances[recipient] = _balances[recipient].add(amount);\n        emit Transfer(sender, recipient, amount);\n    }\n    function _mint(address account, uint256 amount) internal {\n        require(account != address(0), \"ERC20: mint to the zero address\");\n\n        _totalSupply = _totalSupply.add(amount);\n        _balances[account] = _balances[account].add(amount);\n        emit Transfer(address(0), account, amount);\n    }\n    function _burn(address account, uint256 amount) internal {\n        require(account != address(0), \"ERC20: burn from the zero address\");\n\n        _balances[account] = _balances[account].sub(amount, \"ERC20: burn amount exceeds balance\");\n        _totalSupply = _totalSupply.sub(amount);\n        emit Transfer(account, address(0), amount);\n    }\n    function _approve(address owner, address spender, uint256 amount) internal {\n        require(owner != address(0), \"ERC20: approve from the zero address\");\n        require(spender != address(0), \"ERC20: approve to the zero address\");\n\n        _allowances[owner][spender] = amount;\n        emit Approval(owner, spender, amount);\n    }\n    function _burnFrom(address account, uint256 amount) internal {\n        _burn(account, amount);\n        _approve(account, _msgSender(), _allowances[account][_msgSender()].sub(amount, \"ERC20: burn amount exceeds allowance\"));\n    }\n}\n\ncontract ERC20Detailed is IERC20 {\n    string private _name;\n    string private _symbol;\n    uint8 private _decimals;\n\n    constructor (string memory name, string memory symbol, uint8 decimals) public {\n        _name = name;\n        _symbol = symbol;\n        _decimals = decimals;\n    }\n    function name() public view returns (string memory) {\n        return _name;\n    }\n    function symbol() public view returns (string memory) {\n        return _symbol;\n    }\n    function decimals() public view returns (uint8) {\n        return _decimals;\n    }\n}\n\ncontract ReentrancyGuard {\n    uint256 private _guardCounter;\n\n    constructor () internal {\n        _guardCounter = 1;\n    }\n\n    modifier nonReentrant() {\n        _guardCounter += 1;\n        uint256 localCounter = _guardCounter;\n        _;\n        require(localCounter == _guardCounter, \"ReentrancyGuard: reentrant call\");\n    }\n}\n\nlibrary SafeMath {\n    function add(uint256 a, uint256 b) internal pure returns (uint256) {\n        uint256 c = a + b;\n        require(c >= a, \"SafeMath: addition overflow\");\n\n        return c;\n    }\n    function sub(uint256 a, uint256 b) internal pure returns (uint256) {\n        return sub(a, b, \"SafeMath: subtraction overflow\");\n    }\n    function sub(uint256 a, uint256 b, string memory errorMessage) internal pure returns (uint256) {\n        require(b <= a, errorMessage);\n        uint256 c = a - b;\n\n        return c;\n    }\n    function mul(uint256 a, uint256 b) internal pure returns (uint256) {\n        if (a == 0) {\n            return 0;\n        }\n\n        uint256 c = a * b;\n        require(c / a == b, \"SafeMath: multiplication overflow\");\n\n        return c;\n    }\n    function div(uint256 a, uint256 b) internal pure returns (uint256) {\n        return div(a, b, \"SafeMath: division by zero\");\n    }\n    function div(uint256 a, uint256 b, string memory errorMessage) internal pure returns (uint256) {\n        // Solidity only automatically asserts when dividing by 0\n        require(b > 0, errorMessage);\n        uint256 c = a / b;\n\n        return c;\n    }\n    function mod(uint256 a, uint256 b) internal pure returns (uint256) {\n        return mod(a, b, \"SafeMath: modulo by zero\");\n    }\n    function mod(uint256 a, uint256 b, string memory errorMessage) internal pure returns (uint256) {\n        require(b != 0, errorMessage);\n        return a % b;\n    }\n}\n\nlibrary Address {\n    function isContract(address account) internal view returns (bool) {\n        bytes32 codehash;\n        bytes32 accountHash = 0xc5d2460186f7233c927e7db2dcc703c0e500b653ca82273b7bfad8045d85a470;\n        // solhint-disable-next-line no-inline-assembly\n        assembly { codehash := extcodehash(account) }\n        return (codehash != 0x0 && codehash != accountHash);\n    }\n    function toPayable(address account) internal pure returns (address payable) {\n        return address(uint160(account));\n    }\n    function sendValue(address payable recipient, uint256 amount) internal {\n        require(address(this).balance >= amount, \"Address: insufficient balance\");\n\n        // solhint-disable-next-line avoid-call-value\n        (bool success, ) = recipient.call.value(amount)(\"\");\n        require(success, \"Address: unable to send value, recipient may have reverted\");\n    }\n}\n\nlibrary SafeERC20 {\n    using SafeMath for uint256;\n    using Address for address;\n\n    function safeTransfer(IERC20 token, address to, uint256 value) internal {\n        callOptionalReturn(token, abi.encodeWithSelector(token.transfer.selector, to, value));\n    }\n\n    function safeTransferFrom(IERC20 token, address from, address to, uint256 value) internal {\n        callOptionalReturn(token, abi.encodeWithSelector(token.transferFrom.selector, from, to, value));\n    }\n\n    function safeApprove(IERC20 token, address spender, uint256 value) internal {\n        require((value == 0) || (token.allowance(address(this), spender) == 0),\n            \"SafeERC20: approve from non-zero to non-zero allowance\"\n        );\n        callOptionalReturn(token, abi.encodeWithSelector(token.approve.selector, spender, value));\n    }\n\n    function safeIncreaseAllowance(IERC20 token, address spender, uint256 value) internal {\n        uint256 newAllowance = token.allowance(address(this), spender).add(value);\n        callOptionalReturn(token, abi.encodeWithSelector(token.approve.selector, spender, newAllowance));\n    }\n\n    function safeDecreaseAllowance(IERC20 token, address spender, uint256 value) internal {\n        uint256 newAllowance = token.allowance(address(this), spender).sub(value, \"SafeERC20: decreased allowance below zero\");\n        callOptionalReturn(token, abi.encodeWithSelector(token.approve.selector, spender, newAllowance));\n    }\n    function callOptionalReturn(IERC20 token, bytes memory data) private {\n        require(address(token).isContract(), \"SafeERC20: call to non-contract\");\n\n        // solhint-disable-next-line avoid-low-level-calls\n        (bool success, bytes memory returndata) = address(token).call(data);\n        require(success, \"SafeERC20: low-level call failed\");\n\n        if (returndata.length > 0) { // Return data is optional\n            // solhint-disable-next-line max-line-length\n            require(abi.decode(returndata, (bool)), \"SafeERC20: ERC20 operation did not succeed\");\n        }\n    }\n}\n\ninterface Compound {\n    function mint ( uint256 mintAmount ) external returns ( uint256 );\n    function redeem(uint256 redeemTokens) external returns (uint256);\n    function exchangeRateStored() external view returns (uint);\n}\n\ninterface Fulcrum {\n    function mint(address receiver, uint256 amount) external payable returns (uint256 mintAmount);\n    function burn(address receiver, uint256 burnAmount) external returns (uint256 loanAmountPaid);\n    function assetBalanceOf(address _owner) external view returns (uint256 balance);\n}\n\ninterface ILendingPoolAddressesProvider {\n    function getLendingPool() external view returns (address);\n}\n\ninterface Aave {\n    function deposit(address _reserve, uint256 _amount, uint16 _referralCode) external;\n}\n\ninterface AToken {\n    function redeem(uint256 amount) external;\n}\n\ninterface IIEarnManager {\n    function recommend(address _token) external view returns (\n      string memory choice,\n      uint256 capr,\n      uint256 iapr,\n      uint256 aapr,\n      uint256 dapr\n    );\n}\n\ncontract Structs {\n    struct Val {\n        uint256 value;\n    }\n\n    enum ActionType {\n        Deposit,   // supply tokens\n        Withdraw  // borrow tokens\n    }\n\n    enum AssetDenomination {\n        Wei // the amount is denominated in wei\n    }\n\n    enum AssetReference {\n        Delta // the amount is given as a delta from the current value\n    }\n\n    struct AssetAmount {\n        bool sign; // true if positive\n        AssetDenomination denomination;\n        AssetReference ref;\n        uint256 value;\n    }\n\n    struct ActionArgs {\n        ActionType actionType;\n        uint256 accountId;\n        AssetAmount amount;\n        uint256 primaryMarketId;\n        uint256 secondaryMarketId;\n        address otherAddress;\n        uint256 otherAccountId;\n        bytes data;\n    }\n\n    struct Info {\n        address owner;  // The address that owns the account\n        uint256 number; // A nonce that allows a single address to control many accounts\n    }\n\n    struct Wei {\n        bool sign; // true if positive\n        uint256 value;\n    }\n}\n\ncontract DyDx is Structs {\n    function getAccountWei(Info memory account, uint256 marketId) public view returns (Wei memory);\n    function operate(Info[] memory, ActionArgs[] memory) public;\n}\n\ninterface LendingPoolAddressesProvider {\n    function getLendingPool() external view returns (address);\n    function getLendingPoolCore() external view returns (address);\n}\n\ncontract yWBTC is ERC20, ERC20Detailed, ReentrancyGuard, Ownable, Structs {\n  using SafeERC20 for IERC20;\n  using Address for address;\n  using SafeMath for uint256;\n\n  uint256 public pool;\n  address public token;\n  address public compound;\n  address public fulcrum;\n  address public aave;\n  address public aaveToken;\n  address public dydx;\n  uint256 public dToken;\n  address public apr;\n\n  enum Lender {\n      NONE,\n      DYDX,\n      COMPOUND,\n      AAVE,\n      FULCRUM\n  }\n\n  Lender public provider = Lender.NONE;\n\n  constructor () public ERC20Detailed(\"iearn wBTC\", \"yWTBC\", 8) {\n    token = address(0x2260FAC5E5542a773Aa44fBCfeDf7C193bc2C599);\n    apr = address(0xdD6d648C991f7d47454354f4Ef326b04025a48A8);\n    dydx = address(0x1E0447b19BB6EcFdAe1e4AE1694b0C3659614e4e);\n    aave = address(0x24a42fD28C976A61Df5D00D0599C34c4f90748c8);\n    fulcrum = address(0xBA9262578EFef8b3aFf7F60Cd629d6CC8859C8b5);\n    aaveToken = address(0xFC4B8ED459e00e5400be803A9BB3954234FD50e3);\n    compound = address(0xC11b1268C1A384e55C48c2391d8d480264A3A7F4);\n    dToken = 0;\n    approveToken();\n  } \n\n  // Ownable setters incase of support in future for these systems\n  function set_new_APR(address _new_APR) public onlyOwner {\n      apr = _new_APR;\n  }\n  function set_new_COMPOUND(address _new_COMPOUND) public onlyOwner {\n      compound = _new_COMPOUND;\n  }\n  function set_new_DTOKEN(uint256 _new_DTOKEN) public onlyOwner {\n      dToken = _new_DTOKEN;\n  }\n\n  // Quick swap low gas method for pool swaps\n  function deposit(uint256 _amount)\n      external\n      nonReentrant\n  {\n      require(_amount > 0, \"deposit must be greater than 0\");\n      pool = _calcPoolValueInToken();\n\n      IERC20(token).safeTransferFrom(msg.sender, address(this), _amount);\n\n      // Calculate pool shares\n      uint256 shares = 0;\n      if (pool == 0) {\n        shares = _amount;\n        pool = _amount;\n      } else {\n        shares = (_amount.mul(_totalSupply)).div(pool);\n      }\n      pool = _calcPoolValueInToken();\n      _mint(msg.sender, shares);\n  }\n\n  // No rebalance implementation for lower fees and faster swaps\n  function withdraw(uint256 _shares)\n      external\n      nonReentrant\n  {\n      require(_shares > 0, \"withdraw must be greater than 0\");\n\n      uint256 ibalance = balanceOf(msg.sender);\n      require(_shares <= ibalance, \"insufficient balance\");\n\n      // Could have over value from cTokens\n      pool = _calcPoolValueInToken();\n      // Calc to redeem before updating balances\n      uint256 r = (pool.mul(_shares)).div(_totalSupply);\n\n\n      _balances[msg.sender] = _balances[msg.sender].sub(_shares, \"redeem amount exceeds balance\");\n      _totalSupply = _totalSupply.sub(_shares);\n\n      emit Transfer(msg.sender, address(0), _shares);\n\n      // Check balance\n      uint256 b = IERC20(token).balanceOf(address(this));\n      if (b < r) {\n        _withdrawSome(r.sub(b));\n      }\n\n      IERC20(token).safeTransfer(msg.sender, r);\n      pool = _calcPoolValueInToken();\n  }\n\n  function() external payable {\n\n  }\n\n  function recommend() public view returns (Lender) {\n    (,uint256 capr,uint256 iapr,uint256 aapr,uint256 dapr) = IIEarnManager(apr).recommend(token);\n    uint256 max = 0;\n    if (capr > max) {\n      max = capr;\n    }\n    if (iapr > max) {\n      max = iapr;\n    }\n    if (aapr > max) {\n      max = aapr;\n    }\n    if (dapr > max) {\n      max = dapr;\n    }\n\n    Lender newProvider = Lender.NONE;\n    if (max == capr) {\n      newProvider = Lender.COMPOUND;\n    } else if (max == iapr) {\n      newProvider = Lender.FULCRUM;\n    } else if (max == aapr) {\n      newProvider = Lender.AAVE;\n    } else if (max == dapr) {\n      newProvider = Lender.DYDX;\n    }\n    return newProvider;\n  }\n\n  function supplyDydx(uint256 amount) public returns(uint) {\n      Info[] memory infos = new Info[](1);\n      infos[0] = Info(address(this), 0);\n\n      AssetAmount memory amt = AssetAmount(true, AssetDenomination.Wei, AssetReference.Delta, amount);\n      ActionArgs memory act;\n      act.actionType = ActionType.Deposit;\n      act.accountId = 0;\n      act.amount = amt;\n      act.primaryMarketId = dToken;\n      act.otherAddress = address(this);\n\n      ActionArgs[] memory args = new ActionArgs[](1);\n      args[0] = act;\n\n      DyDx(dydx).operate(infos, args);\n  }\n\n  function _withdrawDydx(uint256 amount) internal {\n      Info[] memory infos = new Info[](1);\n      infos[0] = Info(address(this), 0);\n\n      AssetAmount memory amt = AssetAmount(false, AssetDenomination.Wei, AssetReference.Delta, amount);\n      ActionArgs memory act;\n      act.actionType = ActionType.Withdraw;\n      act.accountId = 0;\n      act.amount = amt;\n      act.primaryMarketId = dToken;\n      act.otherAddress = address(this);\n\n      ActionArgs[] memory args = new ActionArgs[](1);\n      args[0] = act;\n\n      DyDx(dydx).operate(infos, args);\n  }\n\n  function getAave() public view returns (address) {\n    return LendingPoolAddressesProvider(aave).getLendingPool();\n  }\n  function getAaveCore() public view returns (address) {\n    return LendingPoolAddressesProvider(aave).getLendingPoolCore();\n  }\n\n  function approveToken() public {\n      IERC20(token).safeApprove(compound, uint(-1)); //also add to constructor\n      IERC20(token).safeApprove(dydx, uint(-1));\n      IERC20(token).safeApprove(getAaveCore(), uint(-1));\n      IERC20(token).safeApprove(fulcrum, uint(-1));\n  }\n\n  function balance() public view returns (uint256) {\n    return IERC20(token).balanceOf(address(this));\n  }\n\n  function balanceDydx() public view returns (uint256) {\n      Wei memory bal = DyDx(dydx).getAccountWei(Info(address(this), 0), dToken);\n      return bal.value;\n  }\n  function balanceCompound() public view returns (uint256) {\n      return IERC20(compound).balanceOf(address(this));\n  }\n  function balanceCompoundInToken() public view returns (uint256) {\n    // Mantisa 1e18 to decimals\n    uint256 b = balanceCompound();\n    if (b > 0) {\n      b = b.mul(Compound(compound).exchangeRateStored()).div(1e18);\n    }\n    return b;\n  }\n  function balanceFulcrumInToken() public view returns (uint256) {\n    uint256 b = balanceFulcrum();\n    if (b > 0) {\n      b = Fulcrum(fulcrum).assetBalanceOf(address(this));\n    }\n    return b;\n  }\n  function balanceFulcrum() public view returns (uint256) {\n    return IERC20(fulcrum).balanceOf(address(this));\n  }\n  function balanceAave() public view returns (uint256) {\n    return IERC20(aaveToken).balanceOf(address(this));\n  }\n\n  function _balance() internal view returns (uint256) {\n    return IERC20(token).balanceOf(address(this));\n  }\n\n  function _balanceDydx() internal view returns (uint256) {\n      Wei memory bal = DyDx(dydx).getAccountWei(Info(address(this), 0), dToken);\n      return bal.value;\n  }\n  function _balanceCompound() internal view returns (uint256) {\n      return IERC20(compound).balanceOf(address(this));\n  }\n  function _balanceCompoundInToken() internal view returns (uint256) {\n    // Mantisa 1e18 to decimals\n    uint256 b = balanceCompound();\n    if (b > 0) {\n      b = b.mul(Compound(compound).exchangeRateStored()).div(1e18);\n    }\n    return b;\n  }\n  function _balanceFulcrumInToken() internal view returns (uint256) {\n    uint256 b = balanceFulcrum();\n    if (b > 0) {\n      b = Fulcrum(fulcrum).assetBalanceOf(address(this));\n    }\n    return b;\n  }\n  function _balanceFulcrum() internal view returns (uint256) {\n    return IERC20(fulcrum).balanceOf(address(this));\n  }\n  function _balanceAave() internal view returns (uint256) {\n    return IERC20(aaveToken).balanceOf(address(this));\n  }\n\n  function _withdrawAll() internal {\n    uint256 amount = _balanceCompound();\n    if (amount > 0) {\n      _withdrawCompound(amount);\n    }\n    amount = _balanceDydx();\n    if (amount > 0) {\n      _withdrawDydx(amount);\n    }\n    amount = _balanceFulcrum();\n    if (amount > 0) {\n      _withdrawFulcrum(amount);\n    }\n    amount = _balanceAave();\n    if (amount > 0) {\n      _withdrawAave(amount);\n    }\n  }\n\n  function _withdrawSomeCompound(uint256 _amount) internal {\n    uint256 b = balanceCompound();\n    uint256 bT = balanceCompoundInToken();\n    require(bT >= _amount, \"insufficient funds\");\n    // can have unintentional rounding errors\n    uint256 amount = (b.mul(_amount)).div(bT).add(1);\n    _withdrawCompound(amount);\n  }\n\n  // 1999999614570950845\n  function _withdrawSomeFulcrum(uint256 _amount) internal {\n    // Balance of fulcrum tokens, 1 iDAI = 1.00x DAI\n    uint256 b = balanceFulcrum(); // 1970469086655766652\n    // Balance of token in fulcrum\n    uint256 bT = balanceFulcrumInToken(); // 2000000803224344406\n    require(bT >= _amount, \"insufficient funds\");\n    // can have unintentional rounding errors\n    uint256 amount = (b.mul(_amount)).div(bT).add(1);\n    _withdrawFulcrum(amount);\n  }\n\n  function _withdrawSome(uint256 _amount) internal {\n    if (provider == Lender.COMPOUND) {\n      _withdrawSomeCompound(_amount);\n    }\n    if (provider == Lender.AAVE) {\n      require(balanceAave() >= _amount, \"insufficient funds\");\n      _withdrawAave(_amount);\n    }\n    if (provider == Lender.DYDX) {\n      require(balanceDydx() >= _amount, \"insufficient funds\");\n      _withdrawDydx(_amount);\n    }\n    if (provider == Lender.FULCRUM) {\n      _withdrawSomeFulcrum(_amount);\n    }\n  }\n\n  function rebalance() public {\n    Lender newProvider = recommend();\n\n    if (newProvider != provider) {\n      _withdrawAll();\n    }\n\n    if (balance() > 0) {\n      if (newProvider == Lender.DYDX) {\n        supplyDydx(balance());\n      } else if (newProvider == Lender.FULCRUM) {\n        supplyFulcrum(balance());\n      } else if (newProvider == Lender.COMPOUND) {\n        supplyCompound(balance());\n      } else if (newProvider == Lender.AAVE) {\n        supplyAave(balance());\n      }\n    }\n\n    provider = newProvider;\n  }\n\n  // Internal only rebalance for better gas in redeem\n  function _rebalance(Lender newProvider) internal {\n    if (_balance() > 0) {\n      if (newProvider == Lender.DYDX) {\n        supplyDydx(_balance());\n      } else if (newProvider == Lender.FULCRUM) {\n        supplyFulcrum(_balance());\n      } else if (newProvider == Lender.COMPOUND) {\n        supplyCompound(_balance());\n      } else if (newProvider == Lender.AAVE) {\n        supplyAave(_balance());\n      }\n    }\n    provider = newProvider;\n  }\n\n  function supplyAave(uint amount) public {\n      Aave(getAave()).deposit(token, amount, 0);\n  }\n  function supplyFulcrum(uint amount) public {\n      require(Fulcrum(fulcrum).mint(address(this), amount) > 0, \"FULCRUM: supply failed\");\n  }\n  function supplyCompound(uint amount) public {\n      require(Compound(compound).mint(amount) == 0, \"COMPOUND: supply failed\");\n  }\n  function _withdrawAave(uint amount) internal {\n      AToken(aaveToken).redeem(amount);\n  }\n  function _withdrawFulcrum(uint amount) internal {\n      require(Fulcrum(fulcrum).burn(address(this), amount) > 0, \"FULCRUM: withdraw failed\");\n  }\n  function _withdrawCompound(uint amount) internal {\n      require(Compound(compound).redeem(amount) == 0, \"COMPOUND: withdraw failed\");\n  }\n\n  function _calcPoolValueInToken() internal view returns (uint) {\n    return _balanceCompoundInToken()\n      .add(_balanceFulcrumInToken())\n      .add(_balanceDydx())\n      .add(_balanceAave())\n      .add(_balance());\n  }\n\n  function calcPoolValueInToken() public view returns (uint) {\n    return balanceCompoundInToken()\n      .add(balanceFulcrumInToken())\n      .add(balanceDydx())\n      .add(balanceAave())\n      .add(balance());\n  }\n\n  function getPricePerFullShare() public view returns (uint) {\n    uint _pool = calcPoolValueInToken();\n    return _pool.mul(1e18).div(_totalSupply);\n  }\n}\n",
  "sourcePath": "D:/ftm/itoken/contracts/YWBTCv2.sol",
  "compiler": {
    "name": "solc",
    "version": "0.5.12+commit.7709ece9.Emscripten.clang"
  },
  "schemaVersion": "3.0.19",
  "updatedAt": "2020-02-16T06:13:07.137Z",
  "devdoc": {
    "methods": {}
  },
  "userdoc": {
    "methods": {}
  }
}